{
  "address": "0xf08d6a9c2C5a2Dc9B8645c5Ac0b529D4046D19aa",
  "abi": [
    {
      "inputs": [
        {
          "internalType": "address",
          "name": "_keeper",
          "type": "address"
        },
        {
          "internalType": "address",
          "name": "_weth",
          "type": "address"
        },
        {
          "internalType": "address",
          "name": "_steth",
          "type": "address"
        },
        {
          "internalType": "address",
          "name": "_steth_vault",
          "type": "address"
        }
      ],
      "stateMutability": "nonpayable",
      "type": "constructor"
    },
    {
      "anonymous": false,
      "inputs": [
        {
          "indexed": true,
          "internalType": "address",
          "name": "previousOwner",
          "type": "address"
        },
        {
          "indexed": true,
          "internalType": "address",
          "name": "newOwner",
          "type": "address"
        }
      ],
      "name": "OwnershipTransferred",
      "type": "event"
    },
    {
      "anonymous": false,
      "inputs": [
        {
          "indexed": true,
          "internalType": "address",
          "name": "account",
          "type": "address"
        },
        {
          "indexed": true,
          "internalType": "address",
          "name": "vaultAddress",
          "type": "address"
        },
        {
          "indexed": false,
          "internalType": "uint256",
          "name": "share",
          "type": "uint256"
        },
        {
          "indexed": false,
          "internalType": "uint256",
          "name": "round",
          "type": "uint256"
        }
      ],
      "name": "Pause",
      "type": "event"
    },
    {
      "anonymous": false,
      "inputs": [
        {
          "indexed": true,
          "internalType": "address",
          "name": "vaultAddress",
          "type": "address"
        },
        {
          "indexed": false,
          "internalType": "uint256",
          "name": "round",
          "type": "uint256"
        }
      ],
      "name": "ProcessWithdrawal",
      "type": "event"
    },
    {
      "anonymous": false,
      "inputs": [
        {
          "indexed": true,
          "internalType": "address",
          "name": "account",
          "type": "address"
        },
        {
          "indexed": true,
          "internalType": "address",
          "name": "vaultAddress",
          "type": "address"
        },
        {
          "indexed": false,
          "internalType": "uint256",
          "name": "withdrawAmount",
          "type": "uint256"
        }
      ],
      "name": "Resume",
      "type": "event"
    },
    {
      "stateMutability": "payable",
      "type": "fallback"
    },
    {
      "inputs": [],
      "name": "STETH",
      "outputs": [
        {
          "internalType": "address",
          "name": "",
          "type": "address"
        }
      ],
      "stateMutability": "view",
      "type": "function"
    },
    {
      "inputs": [],
      "name": "STETH_VAULT",
      "outputs": [
        {
          "internalType": "address",
          "name": "",
          "type": "address"
        }
      ],
      "stateMutability": "view",
      "type": "function"
    },
    {
      "inputs": [],
      "name": "WETH",
      "outputs": [
        {
          "internalType": "address",
          "name": "",
          "type": "address"
        }
      ],
      "stateMutability": "view",
      "type": "function"
    },
    {
      "inputs": [
        {
          "internalType": "address",
          "name": "_vaultAddress",
          "type": "address"
        }
      ],
      "name": "addVault",
      "outputs": [],
      "stateMutability": "nonpayable",
      "type": "function"
    },
    {
      "inputs": [
        {
          "internalType": "address",
          "name": "_vaultAddress",
          "type": "address"
        },
        {
          "internalType": "address",
          "name": "_userAddress",
          "type": "address"
        }
      ],
      "name": "getPausePosition",
      "outputs": [
        {
          "components": [
            {
              "internalType": "uint16",
              "name": "round",
              "type": "uint16"
            },
            {
              "internalType": "uint128",
              "name": "shares",
              "type": "uint128"
            }
          ],
          "internalType": "struct RibbonVaultPauser.PauseReceipt",
          "name": "",
          "type": "tuple"
        }
      ],
      "stateMutability": "view",
      "type": "function"
    },
    {
      "inputs": [],
      "name": "keeper",
      "outputs": [
        {
          "internalType": "address",
          "name": "",
          "type": "address"
        }
      ],
      "stateMutability": "view",
      "type": "function"
    },
    {
      "inputs": [],
      "name": "owner",
      "outputs": [
        {
          "internalType": "address",
          "name": "",
          "type": "address"
        }
      ],
      "stateMutability": "view",
      "type": "function"
    },
    {
      "inputs": [
        {
          "internalType": "address",
          "name": "_account",
          "type": "address"
        },
        {
          "internalType": "uint256",
          "name": "_amount",
          "type": "uint256"
        }
      ],
      "name": "pausePosition",
      "outputs": [],
      "stateMutability": "nonpayable",
      "type": "function"
    },
    {
      "inputs": [
        {
          "internalType": "address",
          "name": "",
          "type": "address"
        },
        {
          "internalType": "address",
          "name": "",
          "type": "address"
        }
      ],
      "name": "pausedPositions",
      "outputs": [
        {
          "internalType": "uint16",
          "name": "round",
          "type": "uint16"
        },
        {
          "internalType": "uint128",
          "name": "shares",
          "type": "uint128"
        }
      ],
      "stateMutability": "view",
      "type": "function"
    },
    {
      "inputs": [
        {
          "internalType": "address",
          "name": "_vaultAddress",
          "type": "address"
        }
      ],
      "name": "processWithdrawal",
      "outputs": [],
      "stateMutability": "nonpayable",
      "type": "function"
    },
    {
      "inputs": [],
      "name": "renounceOwnership",
      "outputs": [],
      "stateMutability": "nonpayable",
      "type": "function"
    },
    {
      "inputs": [
        {
          "internalType": "address",
          "name": "_vaultAddress",
          "type": "address"
        }
      ],
      "name": "resumePosition",
      "outputs": [],
      "stateMutability": "nonpayable",
      "type": "function"
    },
    {
      "inputs": [
        {
          "internalType": "address",
          "name": "_newKeeper",
          "type": "address"
        }
      ],
      "name": "setNewKeeper",
      "outputs": [],
      "stateMutability": "nonpayable",
      "type": "function"
    },
    {
      "inputs": [
        {
          "internalType": "address",
          "name": "newOwner",
          "type": "address"
        }
      ],
      "name": "transferOwnership",
      "outputs": [],
      "stateMutability": "nonpayable",
      "type": "function"
    },
    {
      "stateMutability": "payable",
      "type": "receive"
    }
  ],
  "transactionHash": "0x101194eee42947be0547c8b4b2a6e670e826b39ee698887f5edc62f6d5e81dbd",
  "args": [
    "0x422f7Bb366608723c8fe61Ac6D923023dCCBC3d7",
    "0xB31f66AA3C1e785363F0875A1B74E27b85FD66c7",
    "0xae7ab96520de3a18e5e111b5eaab095312d7fe84",
    "0x53773E034d9784153471813dacAFF53dBBB78E8c"
  ],
  "solcInputHash": "9be2afd118232434b07255c894c5e6e0",
  "bytecode": "0x60e06040523480156200001157600080fd5b5060405162001aaa38038062001aaa833981016040819052620000349162000208565b6200003f336200019b565b6001600160a01b038416620000865760405162461bcd60e51b815260206004820152600860248201526710afb5b2b2b832b960c11b60448201526064015b60405180910390fd5b6001600160a01b038316620000c75760405162461bcd60e51b8152602060048201526006602482015265042beeecae8d60d31b60448201526064016200007d565b6001600160a01b038216620001095760405162461bcd60e51b8152602060048201526007602482015266042bee6e8cae8d60cb1b60448201526064016200007d565b6001600160a01b038116620001515760405162461bcd60e51b815260206004820152600d60248201526c0857dcdd195d1a17dd985d5b1d609a1b60448201526064016200007d565b600380546001600160a01b039095166001600160a01b0319909516949094179093556001600160601b0319606092831b811660805290821b811660a05291901b1660c05262000264565b600080546001600160a01b038381166001600160a01b0319831681178455604051919092169283917f8be0079c531659141344cd1fd0a4f28419497f9722a3daafe3b4186f6b6457e09190a35050565b80516001600160a01b03811681146200020357600080fd5b919050565b600080600080608085870312156200021e578384fd5b6200022985620001eb565b93506200023960208601620001eb565b92506200024960408601620001eb565b91506200025960608601620001eb565b905092959194509250565b60805160601c60a05160601c60c05160601c6117f1620002b9600039600081816102180152610b9f0152600081816102ac0152610c270152600081816101e401528181610cf50152610d3301526117f16000f3fe6080604052600436106100d55760003560e01c8063af5ea6e711610079578063d63e8a7e11610056578063d63e8a7e1461027a578063e00bfe501461029a578063f11e5309146102ce578063f2fde38b1461033d57005b8063af5ea6e714610206578063c9c2d4f51461023a578063d164cc151461025a57005b80638da5cb5b116100b25780638da5cb5b14610133578063966c95451461016a578063aced1661146101b2578063ad5c4648146101d257005b8063256b5a02146100de5780633c1a5012146100fe578063715018a61461011e57005b366100dc57005b005b3480156100ea57600080fd5b506100dc6100f9366004611375565b61035d565b34801561010a57600080fd5b506100dc610119366004611375565b6103b4565b34801561012a57600080fd5b506100dc610513565b34801561013f57600080fd5b506000546001600160a01b03165b6040516001600160a01b0390911681526020015b60405180910390f35b34801561017657600080fd5b5061018a610185366004611391565b610549565b60408051825161ffff1681526020928301516001600160801b03169281019290925201610161565b3480156101be57600080fd5b5060035461014d906001600160a01b031681565b3480156101de57600080fd5b5061014d7f000000000000000000000000000000000000000000000000000000000000000081565b34801561021257600080fd5b5061014d7f000000000000000000000000000000000000000000000000000000000000000081565b34801561024657600080fd5b506100dc6102553660046113c9565b6105a7565b34801561026657600080fd5b506100dc610275366004611375565b610877565b34801561028657600080fd5b506100dc610295366004611375565b610906565b3480156102a657600080fd5b5061014d7f000000000000000000000000000000000000000000000000000000000000000081565b3480156102da57600080fd5b5061031b6102e9366004611391565b600160209081526000928352604080842090915290825290205461ffff8116906201000090046001600160801b031682565b6040805161ffff90931683526001600160801b03909116602083015201610161565b34801561034957600080fd5b506100dc610358366004611375565b610e29565b6000546001600160a01b031633146103905760405162461bcd60e51b8152600401610387906115cb565b60405180910390fd5b6001600160a01b03166000908152600260205260409020805460ff19166001179055565b6003546001600160a01b031633146103f85760405162461bcd60e51b815260206004820152600760248201526610b5b2b2b832b960c91b6044820152606401610387565b6000819050816001600160a01b03167f4d1c6a568276d680f6c7d9eadabf2d36ba34ed239ddbfa3f267906e5013b84d46001836001600160a01b0316632728f3336040518163ffffffff1660e01b815260040160a06040518083038186803b15801561046357600080fd5b505afa158015610477573d6000803e3d6000fd5b505050506040513d601f19601f8201168201806040525081019061049b91906114c3565b516104a6919061172a565b60405161ffff909116815260200160405180910390a2806001600160a01b031663f756fa216040518163ffffffff1660e01b8152600401600060405180830381600087803b1580156104f757600080fd5b505af115801561050b573d6000803e3d6000fd5b505050505050565b6000546001600160a01b0316331461053d5760405162461bcd60e51b8152600401610387906115cb565b6105476000610ec4565b565b604080518082018252600080825260209182018190526001600160a01b038581168252600183528382209085168252825282902082518084019093525461ffff811683526201000090046001600160801b0316908201525b92915050565b33600081815260026020526040902054819060ff166106025760405162461bcd60e51b815260206004820152601760248201527615985d5b1d081a5cc81b9bdd081c9959da5cdd195c9959604a1b6044820152606401610387565b6001600160a01b03828116600090815260016020908152604080832093881683529290522080546201000090046001600160801b03161580156106485750805461ffff16155b6106895760405162461bcd60e51b8152602060048201526012602482015271141bdcda5d1a5bdb881a5cc81c185d5cd95960721b6044820152606401610387565b6000826001600160a01b0316632728f3336040518163ffffffff1660e01b815260040160a06040518083038186803b1580156106c457600080fd5b505afa1580156106d8573d6000803e3d6000fd5b505050506040513d601f19601f820116820180604052508101906106fc91906114c3565b5190506001600160801b0385106107485760405162461bcd60e51b815260206004820152601060248201526f5f616d6f756e74206f766572666c6f7760801b6044820152606401610387565b60408051808201825261ffff80841682526001600160801b0380891660208085019182526001600160a01b03808b16600081815260018452888120928f16808252929093529187902095518654935190941662010000026001600160901b031990931693909416929092171790925591519091907f30b4d0c56f1d21525fe9adea4192756b335aafffc6c77f51ceb8a144b9bcde63906107f8908990869091825261ffff16602082015260400190565b60405180910390a36108156001600160a01b038516873088610f14565b604051633f0846a960e11b8152600481018690526001600160a01b03841690637e108d5290602401600060405180830381600087803b15801561085757600080fd5b505af115801561086b573d6000803e3d6000fd5b50505050505050505050565b6000546001600160a01b031633146108a15760405162461bcd60e51b8152600401610387906115cb565b6001600160a01b0381166108e45760405162461bcd60e51b815260206004820152600a60248201526910b732bba5b2b2b832b960b11b6044820152606401610387565b600380546001600160a01b0319166001600160a01b0392909216919091179055565b6001600160a01b038116600090815260026020526040902054819060ff1661096a5760405162461bcd60e51b815260206004820152601760248201527615985d5b1d081a5cc81b9bdd081c9959da5cdd195c9959604a1b6044820152606401610387565b6000816001600160a01b0316639fcc2d756040518163ffffffff1660e01b815260040160c06040518083038186803b1580156109a557600080fd5b505afa1580156109b9573d6000803e3d6000fd5b505050506040513d601f19601f820116820180604052508101906109dd919061140e565b90506000826001600160a01b0316632728f3336040518163ffffffff1660e01b815260040160a06040518083038186803b158015610a1a57600080fd5b505afa158015610a2e573d6000803e3d6000fd5b505050506040513d601f19601f82011682018060405250810190610a5291906114c3565b516001600160a01b03851660009081526001602090815260408083203384529091529020805461ffff9283169350909116828110610ac95760405162461bcd60e51b8152602060048201526014602482015273149bdd5b99081b9bdd0818db1bdcd959081e595d60621b6044820152606401610387565b81546040516387153eb160e01b815260048101839052600091610b6891620100009091046001600160801b0316906001600160a01b038916906387153eb19060240160206040518083038186803b158015610b2357600080fd5b505afa158015610b37573d6000803e3d6000fd5b505050506040513d601f19601f82011682018060405250810190610b5b9190611564565b876020015160ff16610f85565b6001600160a01b038089166000818152600160209081526040808320338452909152902080546001600160901b03191690559192507f0000000000000000000000000000000000000000000000000000000000000000161415610cb357610bd060038261174d565b90506001600160a01b038716337f88889b96c10c4dde96ecfa85e3e07b053a168791157fa9cc588a86732d2d6dba610c0960018561174d565b60405190815260200160405180910390a3610c4e6001600160a01b037f0000000000000000000000000000000000000000000000000000000000000000168883610ff7565b6040516332f5210f60e11b8152600481018290523360248201526001600160a01b038716906365ea421e90604401600060405180830381600087803b158015610c9657600080fd5b505af1158015610caa573d6000803e3d6000fd5b50505050610e20565b6040518181526001600160a01b0388169033907f88889b96c10c4dde96ecfa85e3e07b053a168791157fa9cc588a86732d2d6dba9060200160405180910390a37f00000000000000000000000000000000000000000000000000000000000000006001600160a01b031685604001516001600160a01b03161415610da6577f00000000000000000000000000000000000000000000000000000000000000006001600160a01b031663d0e30db0826040518263ffffffff1660e01b81526004016000604051808303818588803b158015610d8c57600080fd5b505af1158015610da0573d6000803e3d6000fd5b50505050505b6040850151610dbf906001600160a01b03168883610ff7565b6040516336efd16f60e01b8152600481018290523360248201526001600160a01b038716906336efd16f90604401600060405180830381600087803b158015610e0757600080fd5b505af1158015610e1b573d6000803e3d6000fd5b505050505b50505050505050565b6000546001600160a01b03163314610e535760405162461bcd60e51b8152600401610387906115cb565b6001600160a01b038116610eb85760405162461bcd60e51b815260206004820152602660248201527f4f776e61626c653a206e6577206f776e657220697320746865207a65726f206160448201526564647265737360d01b6064820152608401610387565b610ec181610ec4565b50565b600080546001600160a01b038381166001600160a01b0319831681178455604051919092169283917f8be0079c531659141344cd1fd0a4f28419497f9722a3daafe3b4186f6b6457e09190a35050565b6040516001600160a01b0380851660248301528316604482015260648101829052610f7f9085906323b872dd60e01b906084015b60408051601f198184030181529190526020810180516001600160e01b03166001600160e01b031990931692909217909152611120565b50505050565b600060018311610fcf5760405162461bcd60e51b8152602060048201526015602482015274496e76616c6964206173736574506572536861726560581b6044820152606401610387565b610fed610fdd83600a611663565b610fe786866111f2565b906111fe565b90505b9392505050565b8015806110805750604051636eb1769f60e11b81523060048201526001600160a01b03838116602483015284169063dd62ed3e9060440160206040518083038186803b15801561104657600080fd5b505afa15801561105a573d6000803e3d6000fd5b505050506040513d601f19601f8201168201806040525081019061107e9190611564565b155b6110eb5760405162461bcd60e51b815260206004820152603660248201527f5361666545524332303a20617070726f76652066726f6d206e6f6e2d7a65726f60448201527520746f206e6f6e2d7a65726f20616c6c6f77616e636560501b6064820152608401610387565b6040516001600160a01b03831660248201526044810182905261111b90849063095ea7b360e01b90606401610f48565b505050565b6000611175826040518060400160405280602081526020017f5361666545524332303a206c6f772d6c6576656c2063616c6c206661696c6564815250856001600160a01b031661120a9092919063ffffffff16565b80519091501561111b578080602001905181019061119391906113f4565b61111b5760405162461bcd60e51b815260206004820152602a60248201527f5361666545524332303a204552433230206f7065726174696f6e20646964206e6044820152691bdd081cdd58d8d9595960b21b6064820152608401610387565b6000610ff0828461170b565b6000610ff08284611600565b6060610fed848460008585843b6112635760405162461bcd60e51b815260206004820152601d60248201527f416464726573733a2063616c6c20746f206e6f6e2d636f6e74726163740000006044820152606401610387565b600080866001600160a01b0316858760405161127f919061157c565b60006040518083038185875af1925050503d80600081146112bc576040519150601f19603f3d011682016040523d82523d6000602084013e6112c1565b606091505b50915091506112d18282866112dc565b979650505050505050565b606083156112eb575081610ff0565b8251156112fb5782518084602001fd5b8160405162461bcd60e51b81526004016103879190611598565b8051801515811461132557600080fd5b919050565b80516cffffffffffffffffffffffffff8116811461132557600080fd5b80516001600160801b038116811461132557600080fd5b805166ffffffffffffff8116811461132557600080fd5b600060208284031215611386578081fd5b8135610ff0816117a6565b600080604083850312156113a3578081fd5b82356113ae816117a6565b915060208301356113be816117a6565b809150509250929050565b600080604083850312156113db578182fd5b82356113e6816117a6565b946020939093013593505050565b600060208284031215611405578081fd5b610ff082611315565b600060c0828403121561141f578081fd5b60405160c0810181811067ffffffffffffffff8211171561144e57634e487b7160e01b83526041600452602483fd5b60405261145a83611315565b8152602083015160ff8116811461146f578283fd5b60208201526040830151611482816117a6565b60408201526060830151611495816117a6565b60608201526114a66080840161135e565b60808201526114b760a0840161132a565b60a08201529392505050565b600060a082840312156114d4578081fd5b60405160a0810181811067ffffffffffffffff8211171561150357634e487b7160e01b83526041600452602483fd5b604052825161ffff81168114611517578283fd5b81526115256020840161132a565b60208201526115366040840161132a565b604082015261154760608401611347565b606082015261155860808401611347565b60808201529392505050565b600060208284031215611575578081fd5b5051919050565b6000825161158e818460208701611764565b9190910192915050565b60208152600082518060208401526115b7816040850160208701611764565b601f01601f19169190910160400192915050565b6020808252818101527f4f776e61626c653a2063616c6c6572206973206e6f7420746865206f776e6572604082015260600190565b60008261161b57634e487b7160e01b81526012600452602481fd5b500490565b600181815b8085111561165b57816000190482111561164157611641611790565b8085161561164e57918102915b93841c9390800290611625565b509250929050565b6000610ff08383600082611679575060016105a1565b81611686575060006105a1565b816001811461169c57600281146116a6576116c2565b60019150506105a1565b60ff8411156116b7576116b7611790565b50506001821b6105a1565b5060208310610133831016604e8410600b84101617156116e5575081810a6105a1565b6116ef8383611620565b806000190482111561170357611703611790565b029392505050565b600081600019048311821515161561172557611725611790565b500290565b600061ffff8381169083168181101561174557611745611790565b039392505050565b60008282101561175f5761175f611790565b500390565b60005b8381101561177f578181015183820152602001611767565b83811115610f7f5750506000910152565b634e487b7160e01b600052601160045260246000fd5b6001600160a01b0381168114610ec157600080fdfea2646970667358221220b910b1da247c1eab29140dd84e61ef983578ee292b7b3d5be511ac044400c06264736f6c63430008040033",
  "devdoc": {
    "kind": "dev",
    "methods": {
      "addVault(address)": {
        "params": {
          "_vaultAddress": "is the address of the new vault to be registered"
        }
      },
      "owner()": {
        "details": "Returns the address of the current owner."
      },
      "pausePosition(address,uint256)": {
        "params": {
          "_account": "user's address",
          "_amount": "the amount of shares"
        }
      },
      "processWithdrawal(address)": {
        "params": {
          "_vaultAddress": "vault's address to be processed"
        }
      },
      "renounceOwnership()": {
        "details": "Leaves the contract without owner. It will not be possible to call `onlyOwner` functions anymore. Can only be called by the current owner. NOTE: Renouncing ownership will leave the contract without an owner, thereby removing any functionality that is only available to the owner."
      },
      "resumePosition(address)": {
        "params": {
          "_vaultAddress": "vault's address"
        }
      },
      "setNewKeeper(address)": {
        "params": {
          "_newKeeper": "is the address of the new keeper"
        }
      },
      "transferOwnership(address)": {
        "details": "Transfers ownership of the contract to a new account (`newOwner`). Can only be called by the current owner."
      }
    },
    "version": 1
  },
  "userdoc": {
    "kind": "user",
    "methods": {
      "WETH()": {
        "notice": "WETH9 0xC02aaA39b223FE8D0A0e5C4F27eAD9083C756Cc2"
      },
      "addVault(address)": {
        "notice": "add vault into registered vaults"
      },
      "constructor": {
        "notice": "Initializes the contract with immutable variables"
      },
      "pausePosition(address,uint256)": {
        "notice": "pause position from vault by redeem all the shares from vault to Pauser"
      },
      "processWithdrawal(address)": {
        "notice": "process withdrawals by completing in a batch"
      },
      "resumePosition(address)": {
        "notice": "resume user's position into vault by making a deposit"
      },
      "setNewKeeper(address)": {
        "notice": "Sets the new keeper"
      }
    },
    "version": 1
  },
  "storageLayout": {
    "storage": [
      {
        "astId": 1002,
        "contract": "contracts/vaults/VaultPauser/RibbonVaultPauser.sol:RibbonVaultPauser",
        "label": "_owner",
        "offset": 0,
        "slot": "0",
        "type": "t_address"
      },
      {
        "astId": 29257,
        "contract": "contracts/vaults/VaultPauser/RibbonVaultPauser.sol:RibbonVaultPauser",
        "label": "pausedPositions",
        "offset": 0,
        "slot": "1",
        "type": "t_mapping(t_address,t_mapping(t_address,t_struct(PauseReceipt)29250_storage))"
      },
      {
        "astId": 29261,
        "contract": "contracts/vaults/VaultPauser/RibbonVaultPauser.sol:RibbonVaultPauser",
        "label": "registeredVaults",
        "offset": 0,
        "slot": "2",
        "type": "t_mapping(t_address,t_bool)"
      },
      {
        "astId": 29270,
        "contract": "contracts/vaults/VaultPauser/RibbonVaultPauser.sol:RibbonVaultPauser",
        "label": "keeper",
        "offset": 0,
        "slot": "3",
        "type": "t_address"
      }
    ],
    "types": {
      "t_address": {
        "encoding": "inplace",
        "label": "address",
        "numberOfBytes": "20"
      },
      "t_bool": {
        "encoding": "inplace",
        "label": "bool",
        "numberOfBytes": "1"
      },
      "t_mapping(t_address,t_bool)": {
        "encoding": "mapping",
        "key": "t_address",
        "label": "mapping(address => bool)",
        "numberOfBytes": "32",
        "value": "t_bool"
      },
      "t_mapping(t_address,t_mapping(t_address,t_struct(PauseReceipt)29250_storage))": {
        "encoding": "mapping",
        "key": "t_address",
        "label": "mapping(address => mapping(address => struct RibbonVaultPauser.PauseReceipt))",
        "numberOfBytes": "32",
        "value": "t_mapping(t_address,t_struct(PauseReceipt)29250_storage)"
      },
      "t_mapping(t_address,t_struct(PauseReceipt)29250_storage)": {
        "encoding": "mapping",
        "key": "t_address",
        "label": "mapping(address => struct RibbonVaultPauser.PauseReceipt)",
        "numberOfBytes": "32",
        "value": "t_struct(PauseReceipt)29250_storage"
      },
      "t_struct(PauseReceipt)29250_storage": {
        "encoding": "inplace",
        "label": "struct RibbonVaultPauser.PauseReceipt",
        "members": [
          {
            "astId": 29247,
            "contract": "contracts/vaults/VaultPauser/RibbonVaultPauser.sol:RibbonVaultPauser",
            "label": "round",
            "offset": 0,
            "slot": "0",
            "type": "t_uint16"
          },
          {
            "astId": 29249,
            "contract": "contracts/vaults/VaultPauser/RibbonVaultPauser.sol:RibbonVaultPauser",
            "label": "shares",
            "offset": 2,
            "slot": "0",
            "type": "t_uint128"
          }
        ],
        "numberOfBytes": "32"
      },
      "t_uint128": {
        "encoding": "inplace",
        "label": "uint128",
        "numberOfBytes": "16"
      },
      "t_uint16": {
        "encoding": "inplace",
        "label": "uint16",
        "numberOfBytes": "2"
      }
    }
  }
}