{
  "address": "0x551C441D05E81E5A43CFD5afa7e9589039D67625",
  "abi": [
    {
      "inputs": [
        {
          "internalType": "address",
          "name": "_weth",
          "type": "address"
        },
        {
          "internalType": "address",
          "name": "_usdc",
          "type": "address"
        },
        {
          "internalType": "address",
          "name": "_gammaController",
          "type": "address"
        },
        {
          "internalType": "address",
          "name": "_marginPool",
          "type": "address"
        },
        {
          "internalType": "address",
          "name": "_gnosisEasyAuction",
          "type": "address"
        },
        {
          "internalType": "address",
          "name": "_uniswapRouter",
          "type": "address"
        },
        {
          "internalType": "address",
          "name": "_uniswapFactory",
          "type": "address"
        }
      ],
      "stateMutability": "nonpayable",
      "type": "constructor"
    },
    {
      "anonymous": false,
      "inputs": [
        {
          "indexed": true,
          "internalType": "address",
          "name": "owner",
          "type": "address"
        },
        {
          "indexed": true,
          "internalType": "address",
          "name": "spender",
          "type": "address"
        },
        {
          "indexed": false,
          "internalType": "uint256",
          "name": "value",
          "type": "uint256"
        }
      ],
      "name": "Approval",
      "type": "event"
    },
    {
      "anonymous": false,
      "inputs": [
        {
          "indexed": false,
          "internalType": "uint256",
          "name": "oldCap",
          "type": "uint256"
        },
        {
          "indexed": false,
          "internalType": "uint256",
          "name": "newCap",
          "type": "uint256"
        }
      ],
      "name": "CapSet",
      "type": "event"
    },
    {
      "anonymous": false,
      "inputs": [
        {
          "indexed": true,
          "internalType": "address",
          "name": "options",
          "type": "address"
        },
        {
          "indexed": false,
          "internalType": "uint256",
          "name": "profitAmount",
          "type": "uint256"
        },
        {
          "indexed": true,
          "internalType": "address",
          "name": "manager",
          "type": "address"
        }
      ],
      "name": "CloseLong",
      "type": "event"
    },
    {
      "anonymous": false,
      "inputs": [
        {
          "indexed": false,
          "internalType": "uint256",
          "name": "performanceFee",
          "type": "uint256"
        },
        {
          "indexed": false,
          "internalType": "uint256",
          "name": "vaultFee",
          "type": "uint256"
        },
        {
          "indexed": false,
          "internalType": "uint256",
          "name": "round",
          "type": "uint256"
        },
        {
          "indexed": true,
          "internalType": "address",
          "name": "feeRecipient",
          "type": "address"
        }
      ],
      "name": "CollectVaultFees",
      "type": "event"
    },
    {
      "anonymous": false,
      "inputs": [
        {
          "indexed": true,
          "internalType": "address",
          "name": "account",
          "type": "address"
        },
        {
          "indexed": false,
          "internalType": "uint256",
          "name": "amount",
          "type": "uint256"
        },
        {
          "indexed": false,
          "internalType": "uint256",
          "name": "round",
          "type": "uint256"
        }
      ],
      "name": "Deposit",
      "type": "event"
    },
    {
      "anonymous": false,
      "inputs": [
        {
          "indexed": true,
          "internalType": "address",
          "name": "account",
          "type": "address"
        },
        {
          "indexed": false,
          "internalType": "uint256",
          "name": "shares",
          "type": "uint256"
        },
        {
          "indexed": false,
          "internalType": "uint256",
          "name": "round",
          "type": "uint256"
        }
      ],
      "name": "InitiateWithdraw",
      "type": "event"
    },
    {
      "anonymous": false,
      "inputs": [
        {
          "indexed": true,
          "internalType": "address",
          "name": "account",
          "type": "address"
        },
        {
          "indexed": false,
          "internalType": "uint256",
          "name": "share",
          "type": "uint256"
        },
        {
          "indexed": false,
          "internalType": "uint256",
          "name": "round",
          "type": "uint256"
        }
      ],
      "name": "InstantWithdraw",
      "type": "event"
    },
    {
      "anonymous": false,
      "inputs": [
        {
          "indexed": false,
          "internalType": "uint256",
          "name": "managementFee",
          "type": "uint256"
        },
        {
          "indexed": false,
          "internalType": "uint256",
          "name": "newManagementFee",
          "type": "uint256"
        }
      ],
      "name": "ManagementFeeSet",
      "type": "event"
    },
    {
      "anonymous": false,
      "inputs": [
        {
          "indexed": false,
          "internalType": "uint256",
          "name": "optionAllocation",
          "type": "uint256"
        },
        {
          "indexed": false,
          "internalType": "uint256",
          "name": "newOptionAllocation",
          "type": "uint256"
        }
      ],
      "name": "NewOptionAllocationSet",
      "type": "event"
    },
    {
      "anonymous": false,
      "inputs": [
        {
          "indexed": true,
          "internalType": "address",
          "name": "options",
          "type": "address"
        },
        {
          "indexed": false,
          "internalType": "uint256",
          "name": "purchaseAmount",
          "type": "uint256"
        },
        {
          "indexed": false,
          "internalType": "uint256",
          "name": "premium",
          "type": "uint256"
        },
        {
          "indexed": true,
          "internalType": "address",
          "name": "manager",
          "type": "address"
        }
      ],
      "name": "OpenLong",
      "type": "event"
    },
    {
      "anonymous": false,
      "inputs": [
        {
          "indexed": true,
          "internalType": "address",
          "name": "previousOwner",
          "type": "address"
        },
        {
          "indexed": true,
          "internalType": "address",
          "name": "newOwner",
          "type": "address"
        }
      ],
      "name": "OwnershipTransferred",
      "type": "event"
    },
    {
      "anonymous": false,
      "inputs": [
        {
          "indexed": false,
          "internalType": "uint256",
          "name": "performanceFee",
          "type": "uint256"
        },
        {
          "indexed": false,
          "internalType": "uint256",
          "name": "newPerformanceFee",
          "type": "uint256"
        }
      ],
      "name": "PerformanceFeeSet",
      "type": "event"
    },
    {
      "anonymous": false,
      "inputs": [
        {
          "indexed": false,
          "internalType": "uint256",
          "name": "auctionId",
          "type": "uint256"
        },
        {
          "indexed": true,
          "internalType": "address",
          "name": "auctioningToken",
          "type": "address"
        },
        {
          "indexed": false,
          "internalType": "uint256",
          "name": "sellAmount",
          "type": "uint256"
        },
        {
          "indexed": false,
          "internalType": "uint256",
          "name": "buyAmount",
          "type": "uint256"
        },
        {
          "indexed": true,
          "internalType": "address",
          "name": "bidder",
          "type": "address"
        }
      ],
      "name": "PlaceAuctionBid",
      "type": "event"
    },
    {
      "anonymous": false,
      "inputs": [
        {
          "indexed": true,
          "internalType": "address",
          "name": "account",
          "type": "address"
        },
        {
          "indexed": false,
          "internalType": "uint256",
          "name": "share",
          "type": "uint256"
        },
        {
          "indexed": false,
          "internalType": "uint256",
          "name": "round",
          "type": "uint256"
        }
      ],
      "name": "Redeem",
      "type": "event"
    },
    {
      "anonymous": false,
      "inputs": [
        {
          "indexed": true,
          "internalType": "address",
          "name": "from",
          "type": "address"
        },
        {
          "indexed": true,
          "internalType": "address",
          "name": "to",
          "type": "address"
        },
        {
          "indexed": false,
          "internalType": "uint256",
          "name": "value",
          "type": "uint256"
        }
      ],
      "name": "Transfer",
      "type": "event"
    },
    {
      "anonymous": false,
      "inputs": [
        {
          "indexed": true,
          "internalType": "address",
          "name": "account",
          "type": "address"
        },
        {
          "indexed": false,
          "internalType": "uint256",
          "name": "amount",
          "type": "uint256"
        },
        {
          "indexed": false,
          "internalType": "uint256",
          "name": "shares",
          "type": "uint256"
        }
      ],
      "name": "Withdraw",
      "type": "event"
    },
    {
      "inputs": [],
      "name": "DELAY",
      "outputs": [
        {
          "internalType": "uint256",
          "name": "",
          "type": "uint256"
        }
      ],
      "stateMutability": "view",
      "type": "function"
    },
    {
      "inputs": [],
      "name": "GAMMA_CONTROLLER",
      "outputs": [
        {
          "internalType": "address",
          "name": "",
          "type": "address"
        }
      ],
      "stateMutability": "view",
      "type": "function"
    },
    {
      "inputs": [],
      "name": "GNOSIS_EASY_AUCTION",
      "outputs": [
        {
          "internalType": "address",
          "name": "",
          "type": "address"
        }
      ],
      "stateMutability": "view",
      "type": "function"
    },
    {
      "inputs": [],
      "name": "MARGIN_POOL",
      "outputs": [
        {
          "internalType": "address",
          "name": "",
          "type": "address"
        }
      ],
      "stateMutability": "view",
      "type": "function"
    },
    {
      "inputs": [],
      "name": "PERIOD",
      "outputs": [
        {
          "internalType": "uint256",
          "name": "",
          "type": "uint256"
        }
      ],
      "stateMutability": "view",
      "type": "function"
    },
    {
      "inputs": [],
      "name": "UNISWAP_FACTORY",
      "outputs": [
        {
          "internalType": "address",
          "name": "",
          "type": "address"
        }
      ],
      "stateMutability": "view",
      "type": "function"
    },
    {
      "inputs": [],
      "name": "UNISWAP_ROUTER",
      "outputs": [
        {
          "internalType": "address",
          "name": "",
          "type": "address"
        }
      ],
      "stateMutability": "view",
      "type": "function"
    },
    {
      "inputs": [],
      "name": "USDC",
      "outputs": [
        {
          "internalType": "address",
          "name": "",
          "type": "address"
        }
      ],
      "stateMutability": "view",
      "type": "function"
    },
    {
      "inputs": [],
      "name": "WETH",
      "outputs": [
        {
          "internalType": "address",
          "name": "",
          "type": "address"
        }
      ],
      "stateMutability": "view",
      "type": "function"
    },
    {
      "inputs": [
        {
          "internalType": "address",
          "name": "account",
          "type": "address"
        }
      ],
      "name": "accountVaultBalance",
      "outputs": [
        {
          "internalType": "uint256",
          "name": "",
          "type": "uint256"
        }
      ],
      "stateMutability": "view",
      "type": "function"
    },
    {
      "inputs": [
        {
          "internalType": "address",
          "name": "owner",
          "type": "address"
        },
        {
          "internalType": "address",
          "name": "spender",
          "type": "address"
        }
      ],
      "name": "allowance",
      "outputs": [
        {
          "internalType": "uint256",
          "name": "",
          "type": "uint256"
        }
      ],
      "stateMutability": "view",
      "type": "function"
    },
    {
      "inputs": [
        {
          "internalType": "address",
          "name": "spender",
          "type": "address"
        },
        {
          "internalType": "uint256",
          "name": "amount",
          "type": "uint256"
        }
      ],
      "name": "approve",
      "outputs": [
        {
          "internalType": "bool",
          "name": "",
          "type": "bool"
        }
      ],
      "stateMutability": "nonpayable",
      "type": "function"
    },
    {
      "inputs": [],
      "name": "auctionSellOrder",
      "outputs": [
        {
          "internalType": "uint96",
          "name": "sellAmount",
          "type": "uint96"
        },
        {
          "internalType": "uint96",
          "name": "buyAmount",
          "type": "uint96"
        },
        {
          "internalType": "uint64",
          "name": "userId",
          "type": "uint64"
        }
      ],
      "stateMutability": "view",
      "type": "function"
    },
    {
      "inputs": [],
      "name": "balanceBeforePremium",
      "outputs": [
        {
          "internalType": "uint256",
          "name": "",
          "type": "uint256"
        }
      ],
      "stateMutability": "view",
      "type": "function"
    },
    {
      "inputs": [
        {
          "internalType": "address",
          "name": "account",
          "type": "address"
        }
      ],
      "name": "balanceOf",
      "outputs": [
        {
          "internalType": "uint256",
          "name": "",
          "type": "uint256"
        }
      ],
      "stateMutability": "view",
      "type": "function"
    },
    {
      "inputs": [],
      "name": "cap",
      "outputs": [
        {
          "internalType": "uint256",
          "name": "",
          "type": "uint256"
        }
      ],
      "stateMutability": "view",
      "type": "function"
    },
    {
      "inputs": [],
      "name": "claimAuctionOtokens",
      "outputs": [],
      "stateMutability": "nonpayable",
      "type": "function"
    },
    {
      "inputs": [],
      "name": "commitAndClose",
      "outputs": [],
      "stateMutability": "nonpayable",
      "type": "function"
    },
    {
      "inputs": [],
      "name": "completeWithdraw",
      "outputs": [],
      "stateMutability": "nonpayable",
      "type": "function"
    },
    {
      "inputs": [],
      "name": "counterpartyThetaVault",
      "outputs": [
        {
          "internalType": "contract IRibbonThetaVault",
          "name": "",
          "type": "address"
        }
      ],
      "stateMutability": "view",
      "type": "function"
    },
    {
      "inputs": [],
      "name": "currentOption",
      "outputs": [
        {
          "internalType": "address",
          "name": "",
          "type": "address"
        }
      ],
      "stateMutability": "view",
      "type": "function"
    },
    {
      "inputs": [],
      "name": "decimals",
      "outputs": [
        {
          "internalType": "uint8",
          "name": "",
          "type": "uint8"
        }
      ],
      "stateMutability": "view",
      "type": "function"
    },
    {
      "inputs": [
        {
          "internalType": "address",
          "name": "spender",
          "type": "address"
        },
        {
          "internalType": "uint256",
          "name": "subtractedValue",
          "type": "uint256"
        }
      ],
      "name": "decreaseAllowance",
      "outputs": [
        {
          "internalType": "bool",
          "name": "",
          "type": "bool"
        }
      ],
      "stateMutability": "nonpayable",
      "type": "function"
    },
    {
      "inputs": [
        {
          "internalType": "uint256",
          "name": "amount",
          "type": "uint256"
        }
      ],
      "name": "deposit",
      "outputs": [],
      "stateMutability": "nonpayable",
      "type": "function"
    },
    {
      "inputs": [],
      "name": "depositETH",
      "outputs": [],
      "stateMutability": "payable",
      "type": "function"
    },
    {
      "inputs": [
        {
          "internalType": "uint256",
          "name": "amount",
          "type": "uint256"
        },
        {
          "internalType": "address",
          "name": "creditor",
          "type": "address"
        }
      ],
      "name": "depositFor",
      "outputs": [],
      "stateMutability": "nonpayable",
      "type": "function"
    },
    {
      "inputs": [
        {
          "internalType": "address",
          "name": "",
          "type": "address"
        }
      ],
      "name": "depositReceipts",
      "outputs": [
        {
          "internalType": "uint16",
          "name": "round",
          "type": "uint16"
        },
        {
          "internalType": "uint104",
          "name": "amount",
          "type": "uint104"
        },
        {
          "internalType": "uint128",
          "name": "unredeemedShares",
          "type": "uint128"
        }
      ],
      "stateMutability": "view",
      "type": "function"
    },
    {
      "inputs": [],
      "name": "feeRecipient",
      "outputs": [
        {
          "internalType": "address",
          "name": "",
          "type": "address"
        }
      ],
      "stateMutability": "view",
      "type": "function"
    },
    {
      "inputs": [
        {
          "internalType": "address",
          "name": "spender",
          "type": "address"
        },
        {
          "internalType": "uint256",
          "name": "addedValue",
          "type": "uint256"
        }
      ],
      "name": "increaseAllowance",
      "outputs": [
        {
          "internalType": "bool",
          "name": "",
          "type": "bool"
        }
      ],
      "stateMutability": "nonpayable",
      "type": "function"
    },
    {
      "inputs": [
        {
          "internalType": "uint256",
          "name": "numRounds",
          "type": "uint256"
        }
      ],
      "name": "initRounds",
      "outputs": [],
      "stateMutability": "nonpayable",
      "type": "function"
    },
    {
      "inputs": [
        {
          "internalType": "address",
          "name": "_owner",
          "type": "address"
        },
        {
          "internalType": "address",
          "name": "_keeper",
          "type": "address"
        },
        {
          "internalType": "address",
          "name": "_feeRecipient",
          "type": "address"
        },
        {
          "internalType": "uint256",
          "name": "_managementFee",
          "type": "uint256"
        },
        {
          "internalType": "uint256",
          "name": "_performanceFee",
          "type": "uint256"
        },
        {
          "internalType": "string",
          "name": "_tokenName",
          "type": "string"
        },
        {
          "internalType": "string",
          "name": "_tokenSymbol",
          "type": "string"
        },
        {
          "internalType": "address",
          "name": "_counterpartyThetaVault",
          "type": "address"
        },
        {
          "internalType": "uint256",
          "name": "_optionAllocation",
          "type": "uint256"
        },
        {
          "components": [
            {
              "internalType": "bool",
              "name": "isPut",
              "type": "bool"
            },
            {
              "internalType": "uint8",
              "name": "decimals",
              "type": "uint8"
            },
            {
              "internalType": "address",
              "name": "asset",
              "type": "address"
            },
            {
              "internalType": "address",
              "name": "underlying",
              "type": "address"
            },
            {
              "internalType": "uint56",
              "name": "minimumSupply",
              "type": "uint56"
            },
            {
              "internalType": "uint104",
              "name": "cap",
              "type": "uint104"
            }
          ],
          "internalType": "struct Vault.VaultParams",
          "name": "_vaultParams",
          "type": "tuple"
        }
      ],
      "name": "initialize",
      "outputs": [],
      "stateMutability": "nonpayable",
      "type": "function"
    },
    {
      "inputs": [
        {
          "internalType": "uint256",
          "name": "numShares",
          "type": "uint256"
        }
      ],
      "name": "initiateWithdraw",
      "outputs": [],
      "stateMutability": "nonpayable",
      "type": "function"
    },
    {
      "inputs": [],
      "name": "keeper",
      "outputs": [
        {
          "internalType": "address",
          "name": "",
          "type": "address"
        }
      ],
      "stateMutability": "view",
      "type": "function"
    },
    {
      "inputs": [],
      "name": "lastQueuedWithdrawAmount",
      "outputs": [
        {
          "internalType": "uint128",
          "name": "",
          "type": "uint128"
        }
      ],
      "stateMutability": "view",
      "type": "function"
    },
    {
      "inputs": [],
      "name": "managementFee",
      "outputs": [
        {
          "internalType": "uint256",
          "name": "",
          "type": "uint256"
        }
      ],
      "stateMutability": "view",
      "type": "function"
    },
    {
      "inputs": [],
      "name": "maxRedeem",
      "outputs": [],
      "stateMutability": "nonpayable",
      "type": "function"
    },
    {
      "inputs": [],
      "name": "name",
      "outputs": [
        {
          "internalType": "string",
          "name": "",
          "type": "string"
        }
      ],
      "stateMutability": "view",
      "type": "function"
    },
    {
      "inputs": [],
      "name": "nextOption",
      "outputs": [
        {
          "internalType": "address",
          "name": "",
          "type": "address"
        }
      ],
      "stateMutability": "view",
      "type": "function"
    },
    {
      "inputs": [],
      "name": "nextOptionReadyAt",
      "outputs": [
        {
          "internalType": "uint256",
          "name": "",
          "type": "uint256"
        }
      ],
      "stateMutability": "view",
      "type": "function"
    },
    {
      "inputs": [],
      "name": "optionAllocation",
      "outputs": [
        {
          "internalType": "uint256",
          "name": "",
          "type": "uint256"
        }
      ],
      "stateMutability": "view",
      "type": "function"
    },
    {
      "inputs": [],
      "name": "optionState",
      "outputs": [
        {
          "internalType": "address",
          "name": "nextOption",
          "type": "address"
        },
        {
          "internalType": "address",
          "name": "currentOption",
          "type": "address"
        },
        {
          "internalType": "uint32",
          "name": "nextOptionReadyAt",
          "type": "uint32"
        }
      ],
      "stateMutability": "view",
      "type": "function"
    },
    {
      "inputs": [],
      "name": "owner",
      "outputs": [
        {
          "internalType": "address",
          "name": "",
          "type": "address"
        }
      ],
      "stateMutability": "view",
      "type": "function"
    },
    {
      "inputs": [],
      "name": "performanceFee",
      "outputs": [
        {
          "internalType": "uint256",
          "name": "",
          "type": "uint256"
        }
      ],
      "stateMutability": "view",
      "type": "function"
    },
    {
      "inputs": [],
      "name": "pricePerShare",
      "outputs": [
        {
          "internalType": "uint256",
          "name": "",
          "type": "uint256"
        }
      ],
      "stateMutability": "view",
      "type": "function"
    },
    {
      "inputs": [
        {
          "internalType": "uint256",
          "name": "numShares",
          "type": "uint256"
        }
      ],
      "name": "redeem",
      "outputs": [],
      "stateMutability": "nonpayable",
      "type": "function"
    },
    {
      "inputs": [],
      "name": "renounceOwnership",
      "outputs": [],
      "stateMutability": "nonpayable",
      "type": "function"
    },
    {
      "inputs": [
        {
          "internalType": "uint256",
          "name": "optionPremium",
          "type": "uint256"
        }
      ],
      "name": "rollToNextOption",
      "outputs": [],
      "stateMutability": "nonpayable",
      "type": "function"
    },
    {
      "inputs": [
        {
          "internalType": "uint256",
          "name": "",
          "type": "uint256"
        }
      ],
      "name": "roundPricePerShare",
      "outputs": [
        {
          "internalType": "uint256",
          "name": "",
          "type": "uint256"
        }
      ],
      "stateMutability": "view",
      "type": "function"
    },
    {
      "inputs": [
        {
          "internalType": "uint256",
          "name": "newCap",
          "type": "uint256"
        }
      ],
      "name": "setCap",
      "outputs": [],
      "stateMutability": "nonpayable",
      "type": "function"
    },
    {
      "inputs": [
        {
          "internalType": "address",
          "name": "newFeeRecipient",
          "type": "address"
        }
      ],
      "name": "setFeeRecipient",
      "outputs": [],
      "stateMutability": "nonpayable",
      "type": "function"
    },
    {
      "inputs": [
        {
          "internalType": "uint256",
          "name": "newManagementFee",
          "type": "uint256"
        }
      ],
      "name": "setManagementFee",
      "outputs": [],
      "stateMutability": "nonpayable",
      "type": "function"
    },
    {
      "inputs": [
        {
          "internalType": "address",
          "name": "newKeeper",
          "type": "address"
        }
      ],
      "name": "setNewKeeper",
      "outputs": [],
      "stateMutability": "nonpayable",
      "type": "function"
    },
    {
      "inputs": [
        {
          "internalType": "uint16",
          "name": "newOptionAllocation",
          "type": "uint16"
        }
      ],
      "name": "setOptionAllocation",
      "outputs": [],
      "stateMutability": "nonpayable",
      "type": "function"
    },
    {
      "inputs": [
        {
          "internalType": "uint256",
          "name": "newPerformanceFee",
          "type": "uint256"
        }
      ],
      "name": "setPerformanceFee",
      "outputs": [],
      "stateMutability": "nonpayable",
      "type": "function"
    },
    {
      "inputs": [
        {
          "internalType": "address",
          "name": "account",
          "type": "address"
        }
      ],
      "name": "shareBalances",
      "outputs": [
        {
          "internalType": "uint256",
          "name": "heldByAccount",
          "type": "uint256"
        },
        {
          "internalType": "uint256",
          "name": "heldByVault",
          "type": "uint256"
        }
      ],
      "stateMutability": "view",
      "type": "function"
    },
    {
      "inputs": [
        {
          "internalType": "address",
          "name": "account",
          "type": "address"
        }
      ],
      "name": "shares",
      "outputs": [
        {
          "internalType": "uint256",
          "name": "",
          "type": "uint256"
        }
      ],
      "stateMutability": "view",
      "type": "function"
    },
    {
      "inputs": [],
      "name": "symbol",
      "outputs": [
        {
          "internalType": "string",
          "name": "",
          "type": "string"
        }
      ],
      "stateMutability": "view",
      "type": "function"
    },
    {
      "inputs": [],
      "name": "totalBalance",
      "outputs": [
        {
          "internalType": "uint256",
          "name": "",
          "type": "uint256"
        }
      ],
      "stateMutability": "view",
      "type": "function"
    },
    {
      "inputs": [],
      "name": "totalPending",
      "outputs": [
        {
          "internalType": "uint256",
          "name": "",
          "type": "uint256"
        }
      ],
      "stateMutability": "view",
      "type": "function"
    },
    {
      "inputs": [],
      "name": "totalSupply",
      "outputs": [
        {
          "internalType": "uint256",
          "name": "",
          "type": "uint256"
        }
      ],
      "stateMutability": "view",
      "type": "function"
    },
    {
      "inputs": [
        {
          "internalType": "address",
          "name": "recipient",
          "type": "address"
        },
        {
          "internalType": "uint256",
          "name": "amount",
          "type": "uint256"
        }
      ],
      "name": "transfer",
      "outputs": [
        {
          "internalType": "bool",
          "name": "",
          "type": "bool"
        }
      ],
      "stateMutability": "nonpayable",
      "type": "function"
    },
    {
      "inputs": [
        {
          "internalType": "address",
          "name": "sender",
          "type": "address"
        },
        {
          "internalType": "address",
          "name": "recipient",
          "type": "address"
        },
        {
          "internalType": "uint256",
          "name": "amount",
          "type": "uint256"
        }
      ],
      "name": "transferFrom",
      "outputs": [
        {
          "internalType": "bool",
          "name": "",
          "type": "bool"
        }
      ],
      "stateMutability": "nonpayable",
      "type": "function"
    },
    {
      "inputs": [
        {
          "internalType": "address",
          "name": "newOwner",
          "type": "address"
        }
      ],
      "name": "transferOwnership",
      "outputs": [],
      "stateMutability": "nonpayable",
      "type": "function"
    },
    {
      "inputs": [],
      "name": "vaultParams",
      "outputs": [
        {
          "internalType": "bool",
          "name": "isPut",
          "type": "bool"
        },
        {
          "internalType": "uint8",
          "name": "decimals",
          "type": "uint8"
        },
        {
          "internalType": "address",
          "name": "asset",
          "type": "address"
        },
        {
          "internalType": "address",
          "name": "underlying",
          "type": "address"
        },
        {
          "internalType": "uint56",
          "name": "minimumSupply",
          "type": "uint56"
        },
        {
          "internalType": "uint104",
          "name": "cap",
          "type": "uint104"
        }
      ],
      "stateMutability": "view",
      "type": "function"
    },
    {
      "inputs": [],
      "name": "vaultState",
      "outputs": [
        {
          "internalType": "uint16",
          "name": "round",
          "type": "uint16"
        },
        {
          "internalType": "uint104",
          "name": "lockedAmount",
          "type": "uint104"
        },
        {
          "internalType": "uint104",
          "name": "lastLockedAmount",
          "type": "uint104"
        },
        {
          "internalType": "uint128",
          "name": "totalPending",
          "type": "uint128"
        },
        {
          "internalType": "uint128",
          "name": "queuedWithdrawShares",
          "type": "uint128"
        }
      ],
      "stateMutability": "view",
      "type": "function"
    },
    {
      "inputs": [
        {
          "internalType": "uint256",
          "name": "share",
          "type": "uint256"
        }
      ],
      "name": "withdrawInstantly",
      "outputs": [],
      "stateMutability": "nonpayable",
      "type": "function"
    },
    {
      "inputs": [
        {
          "internalType": "address",
          "name": "",
          "type": "address"
        }
      ],
      "name": "withdrawals",
      "outputs": [
        {
          "internalType": "uint16",
          "name": "round",
          "type": "uint16"
        },
        {
          "internalType": "uint128",
          "name": "shares",
          "type": "uint128"
        }
      ],
      "stateMutability": "view",
      "type": "function"
    }
  ],
  "transactionHash": "0xb452ca170213c8ae7cc7f1b795ccb83b71a81c4a63d15173fc39614daa7bb2f9",
  "args": [
    "0xB31f66AA3C1e785363F0875A1B74E27b85FD66c7",
    "0xA7D7079b0FEaD91F3e65f86E8915Cb59c1a4C664",
    "0x9e3b94819aaF6de606C4Aa844E3215725b997064",
    "0xCCF6629aEaB734E621Cc59EBb0297196774fDb9D",
    "0xb5D00F83680ea5E078e911995c64b43Fbfd1eE61",
    "0x60aE616a2155Ee3d9A68541Ba4544862310933d4",
    "0x9Ad6C38BE94206cA50bb0d90783181662f0Cfa10"
  ],
  "solcInputHash": "97273a7349aad427441e82743fac622c",
  "bytecode": "0x6101606040523480156200001257600080fd5b5060405162005748380380620057488339810160408190526200003591620002b0565b868686868686866001600160a01b038716620000815760405162461bcd60e51b8152602060048201526006602482015265042beeecae8d60d31b60448201526064015b60405180910390fd5b6001600160a01b038616620000c25760405162461bcd60e51b8152602060048201526006602482015265215f7573646360d01b604482015260640162000078565b6001600160a01b0383166200011a5760405162461bcd60e51b815260206004820152601360248201527f215f676e6f7369734561737941756374696f6e00000000000000000000000000604482015260640162000078565b6001600160a01b038516620001665760405162461bcd60e51b815260206004820152601160248201527010afb3b0b6b6b0a1b7b73a3937b63632b960791b604482015260640162000078565b6001600160a01b038416620001ad5760405162461bcd60e51b815260206004820152600c60248201526b0857db585c99da5b941bdbdb60a21b604482015260640162000078565b6001600160a01b038216620001f75760405162461bcd60e51b815260206004820152600f60248201526e10afbab734b9bbb0b82937baba32b960891b604482015260640162000078565b6001600160a01b038116620002425760405162461bcd60e51b815260206004820152601060248201526f215f756e6973776170466163746f727960801b604482015260640162000078565b6001600160601b0319606097881b811660805295871b861660a05293861b851660c05291851b841660e052841b831661010052831b82166101205290911b1661014052506200034495505050505050565b80516001600160a01b0381168114620002ab57600080fd5b919050565b600080600080600080600060e0888a031215620002cb578283fd5b620002d68862000293565b9650620002e66020890162000293565b9550620002f66040890162000293565b9450620003066060890162000293565b9350620003166080890162000293565b92506200032660a0890162000293565b91506200033660c0890162000293565b905092959891949750929550565b60805160601c60a05160601c60c05160601c60e05160601c6101005160601c6101205160601c6101405160601c615363620003e56000396000610d0501526000610d8f0152600081816107fc0152818161114f015261232f0152600061072e01526000818161048f01526125bd01526000610977015260008181610bf60152818161278d01528181612839015281816136b201526136ef01526153636000f3fe6080604052600436106103e45760003560e01c80638da5cb5b11610208578063b70a293911610118578063dd62ed3e116100ab578063f2fde38b1161007a578063f2fde38b14610e81578063f6326fb314610ea1578063f656ba5114610ea9578063f756fa2114610ede578063fe56e23214610ef357600080fd5b8063dd62ed3e14610df1578063e74b981b14610e37578063e7b6951014610e57578063ea00b1ca14610e6c57600080fd5b8063d164cc15116100e7578063d164cc1514610d5d578063d826492014610d7d578063da7c306b14610db1578063db006a7514610dd157600080fd5b8063b70a293914610cd3578063c74c0fac14610cf3578063c9f369c214610d27578063ce7c2ac214610d3d57600080fd5b8063a457c2d71161019b578063ad5c46481161016a578063ad5c464814610be4578063ad7a672f14610c18578063ae94c7cd14610c2d578063b4d1d79514610c9c578063b6b55f2514610cb357600080fd5b8063a457c2d714610b6e578063a6f7f5d614610b8e578063a9059cbb14610ba4578063aced166114610bc457600080fd5b80639fcc2d75116101d75780639fcc2d7514610a1f578063a083ff1714610acb578063a285c9e814610b2e578063a2db9d8314610b5057600080fd5b80638da5cb5b146109b757806395d89b41146109d557806399530b06146109ea5780639be43daa146109ff57600080fd5b8063469048401161030357806370897b23116102965780637e108d52116102655780637e108d521461090257806387153eb114610922578063877887821461094f57806389a30271146109655780638b10cc7c1461099957600080fd5b806370897b231461083357806370a0823114610853578063715018a6146108895780637a9262a21461089e57600080fd5b80636719b2ee116102d25780636719b2ee1461075057806369b41170146107d45780636c10f66c146107ea5780636f31ab341461081e57600080fd5b806346904840146106a457806347786d37146106c4578063503c70aa146106e4578063650cce8a1461071c57600080fd5b80632775d01c1161037b57806336efd16f1161034a57806336efd16f1461062657806339509351146106465780633f23bb73146106665780633f90916a1461068657600080fd5b80632775d01c1461059e57806328004837146105be578063313ce567146105de578063355274ea1461060857600080fd5b80631a92f6c2116103b75780631a92f6c21461047d5780631b60612a146104c957806323b872dd146104eb5780632728f3331461050b57600080fd5b806306fdde03146103e9578063095ea7b314610414578063150d3ec21461044457806318160ddd14610468575b600080fd5b3480156103f557600080fd5b506103fe610f13565b60405161040b9190614e09565b60405180910390f35b34801561042057600080fd5b5061043461042f366004614a5a565b610fa5565b604051901515815260200161040b565b34801561045057600080fd5b5061045a60f75481565b60405190815260200161040b565b34801561047457600080fd5b5060995461045a565b34801561048957600080fd5b506104b17f000000000000000000000000000000000000000000000000000000000000000081565b6040516001600160a01b03909116815260200161040b565b3480156104d557600080fd5b506104e96104e4366004614be6565b610fbc565b005b3480156104f757600080fd5b50610434610506366004614a1a565b6112f6565b34801561051757600080fd5b5060cf5460d0546105599161ffff8116916001600160681b03620100008304811692600160781b900416906001600160801b0380821691600160801b90041685565b6040805161ffff90961686526001600160681b03948516602087015293909216928401929092526001600160801b03918216606084015216608082015260a00161040b565b3480156105aa57600080fd5b506104e96105b9366004614be6565b6113a2565b3480156105ca57600080fd5b5060f5546104b1906001600160a01b031681565b3480156105ea57600080fd5b5060cc54610100900460ff1660405160ff909116815260200161040b565b34801561061457600080fd5b5060ce546001600160681b031661045a565b34801561063257600080fd5b506104e9610641366004614c16565b611545565b34801561065257600080fd5b50610434610661366004614a5a565b6115e7565b34801561067257600080fd5b5061045a6106813660046148f2565b611623565b34801561069257600080fd5b5060d0546001600160801b031661045a565b3480156106b057600080fd5b5060d3546104b1906001600160a01b031681565b3480156106d057600080fd5b506104e96106df366004614be6565b611676565b3480156106f057600080fd5b5060f954610704906001600160801b031681565b6040516001600160801b03909116815260200161040b565b34801561072857600080fd5b506104b17f000000000000000000000000000000000000000000000000000000000000000081565b34801561075c57600080fd5b506107a361076b3660046148f2565b60c96020526000908152604090205461ffff8116906201000081046001600160681b031690600160781b90046001600160801b031683565b6040805161ffff90941684526001600160681b0390921660208401526001600160801b03169082015260600161040b565b3480156107e057600080fd5b5061045a61038481565b3480156107f657600080fd5b506104b17f000000000000000000000000000000000000000000000000000000000000000081565b34801561082a57600080fd5b506104e9611751565b34801561083f57600080fd5b506104e961084e366004614be6565b61178e565b34801561085f57600080fd5b5061045a61086e3660046148f2565b6001600160a01b031660009081526097602052604090205490565b34801561089557600080fd5b506104e9611855565b3480156108aa57600080fd5b506108e06108b93660046148f2565b60cb6020526000908152604090205461ffff8116906201000090046001600160801b031682565b6040805161ffff90931683526001600160801b0390911660208301520161040b565b34801561090e57600080fd5b506104e961091d366004614be6565b61188b565b34801561092e57600080fd5b5061045a61093d366004614be6565b60ca6020526000908152604090205481565b34801561095b57600080fd5b5061045a60d55481565b34801561097157600080fd5b506104b17f000000000000000000000000000000000000000000000000000000000000000081565b3480156109a557600080fd5b5060d2546001600160a01b03166104b1565b3480156109c357600080fd5b506065546001600160a01b03166104b1565b3480156109e157600080fd5b506103fe611aa9565b3480156109f657600080fd5b5061045a611ab8565b348015610a0b57600080fd5b506104e9610a1a366004614be6565b611af2565b348015610a2b57600080fd5b5060cc5460cd5460ce54610a7b9260ff808216936101008304909116926001600160a01b036201000090930483169282169166ffffffffffffff600160a01b90910416906001600160681b031686565b60408051961515875260ff90951660208701526001600160a01b03938416948601949094529116606084015266ffffffffffffff1660808301526001600160681b031660a082015260c00161040b565b348015610ad757600080fd5b5060d15460d254610b02916001600160a01b039081169190811690600160a01b900463ffffffff1683565b604080516001600160a01b03948516815293909216602084015263ffffffff169082015260600161040b565b348015610b3a57600080fd5b5060d254600160a01b900463ffffffff1661045a565b348015610b5c57600080fd5b5060d1546001600160a01b03166104b1565b348015610b7a57600080fd5b50610434610b89366004614a5a565b611bec565b348015610b9a57600080fd5b5061045a60d65481565b348015610bb057600080fd5b50610434610bbf366004614a5a565b611c85565b348015610bd057600080fd5b5060d4546104b1906001600160a01b031681565b348015610bf057600080fd5b506104b17f000000000000000000000000000000000000000000000000000000000000000081565b348015610c2457600080fd5b5061045a611c92565b348015610c3957600080fd5b5060f854610c6c906001600160601b0380821691600160601b810490911690600160c01b900467ffffffffffffffff1683565b604080516001600160601b03948516815293909216602084015267ffffffffffffffff169082015260600161040b565b348015610ca857600080fd5b5061045a62093a8081565b348015610cbf57600080fd5b506104e9610cce366004614be6565b611d31565b348015610cdf57600080fd5b506104e9610cee366004614bc4565b611dbf565b348015610cff57600080fd5b506104b17f000000000000000000000000000000000000000000000000000000000000000081565b348015610d3357600080fd5b5061045a60f65481565b348015610d4957600080fd5b5061045a610d583660046148f2565b611e94565b348015610d6957600080fd5b506104e9610d783660046148f2565b611eb1565b348015610d8957600080fd5b506104b17f000000000000000000000000000000000000000000000000000000000000000081565b348015610dbd57600080fd5b506104e9610dcc366004614946565b611f40565b348015610ddd57600080fd5b506104e9610dec366004614be6565b612184565b348015610dfd57600080fd5b5061045a610e0c36600461490e565b6001600160a01b03918216600090815260986020908152604080832093909416825291909152205490565b348015610e4357600080fd5b506104e9610e523660046148f2565b6121d4565b348015610e6357600080fd5b506104e96122c7565b348015610e7857600080fd5b506104e96123b6565b348015610e8d57600080fd5b506104e9610e9c3660046148f2565b6126c5565b6104e9612760565b348015610eb557600080fd5b50610ec9610ec43660046148f2565b6128a6565b6040805192835260208301919091520161040b565b348015610eea57600080fd5b506104e9612989565b348015610eff57600080fd5b506104e9610f0e366004614be6565b6129fb565b6060609a8054610f229061511d565b80601f0160208091040260200160405190810160405280929190818152602001828054610f4e9061511d565b8015610f9b5780601f10610f7057610100808354040283529160200191610f9b565b820191906000526020600020905b815481529060010190602001808311610f7e57829003601f168201915b5050505050905090565b6000610fb2338484612adc565b5060015b92915050565b60d4546001600160a01b031633146110055760405162461bcd60e51b815260206004820152600760248201526610b5b2b2b832b960c91b60448201526064015b60405180910390fd5b600260015414156110285760405162461bcd60e51b8152600401610ffc90614ec3565b600260015560f95460009081908190611049906001600160801b0316612c01565b60f980546001600160801b0319166001600160801b03831617905560f78290556040805161012081018252600080825260208201819052918101829052606081018290526080810182905260a0810182905260c0810182905260e08101829052610100810191909152929550909350915060f560009054906101000a90046001600160a01b03166001600160a01b031663432833a66040518163ffffffff1660e01b815260040160206040518083038186803b15801561110857600080fd5b505afa15801561111c573d6000803e3d6000fd5b505050506040513d601f19601f820116820180604052508101906111409190614bfe565b60808201526001600160a01b037f000000000000000000000000000000000000000000000000000000000000000081166020830152848116825260cc5462010000810490911660408084019190915260ff6101009283900416606084015260a0830185905260f65460c084015260e083018790523391830191909152516395a170d760e01b81526000908190819073e0854DDD162ffE4E2fF1DB6E62b544521cB9223e906395a170d7906111f8908790600401614efa565b60606040518083038186803b15801561121057600080fd5b505af4158015611224573d6000803e3d6000fd5b505050506040513d601f19601f820116820180604052508101906112489190614c83565b60f8805467ffffffffffffffff8316600160c01b026001600160c01b036001600160601b03808716600160601b026001600160c01b0319909416908816179290921791909116179055919450925090506112a26000612f7f565b604080518381526020810185905233916001600160a01b038a16917f64844de7240afb5062e92a77a2a2fcf334f4f109ce576b1c0de1c82f659eca11910160405180910390a3505060018055505050505050565b6000611303848484613047565b6001600160a01b0384166000908152609860209081526040808320338452909152902054828110156113885760405162461bcd60e51b815260206004820152602860248201527f45524332303a207472616e7366657220616d6f756e74206578636565647320616044820152676c6c6f77616e636560c01b6064820152608401610ffc565b6113958533858403612adc565b60019150505b9392505050565b600260015414156113c55760405162461bcd60e51b8152600401610ffc90614ec3565b6002600155806113e75760405162461bcd60e51b8152600401610ffc90614e1c565b6113f16001612f7f565b6000806113fd83613217565b9092509050811561143f5760d05461141e906001600160801b031683613321565b60d080546001600160801b0319166001600160801b03929092169190911790555b60cf5461ffff1681156114ce57600080611458336128a6565b9092509050611467828261332d565b8411156114ad5760405162461bcd60e51b8152602060048201526014602482015273496e73756666696369656e742062616c616e636560601b6044820152606401610ffc565b838210156114c1576114c160006001613339565b6114cb33856134ee565b50505b604080518581526020810183905233917fab2daf3c146ca6416cbccd2a86ed2ba995e171ef6319df14a38aef01403a9c96910160405180910390a2600081815260ca602052604081205460cc5461152e918791610100900460ff16613639565b905061153a338261369b565b505060018055505050565b600260015414156115685760405162461bcd60e51b8152600401610ffc90614ec3565b6002600155816115a45760405162461bcd60e51b815260206004820152600760248201526608585b5bdd5b9d60ca1b6044820152606401610ffc565b6001600160a01b0381166115b757600080fd5b6115c182826137fc565b60cc546115df906201000090046001600160a01b0316333085613a8e565b505060018055565b3360008181526098602090815260408083206001600160a01b03871684529091528120549091610fb291859061161e908690614f98565b612adc565b60cc5460009060ff610100909104168161165961163f60995490565b611647611c92565b60d0546001600160801b031685613af9565b905061166e61166785611e94565b8284613639565b949350505050565b6065546001600160a01b031633146116a05760405162461bcd60e51b8152600401610ffc90614e8e565b600081116116da5760405162461bcd60e51b81526020600482015260076024820152660216e65774361760cc1b6044820152606401610ffc565b6116e381613b39565b60ce54604080516001600160681b039092168252602082018390527f5f86edbb9d92228a9edc3f0ebc0f001bda1ea345ac7335e0eeef3504b31d1a1c910160405180910390a160ce80546cffffffffffffffffffffffffff19166001600160681b0392909216919091179055565b600260015414156117745760405162461bcd60e51b8152600401610ffc90614ec3565b600260018190555061178860006001613339565b60018055565b6065546001600160a01b031633146117b85760405162461bcd60e51b8152600401610ffc90614e8e565b6117c6620f424060646150bb565b81106118145760405162461bcd60e51b815260206004820152601760248201527f496e76616c696420706572666f726d616e6365206665650000000000000000006044820152606401610ffc565b60d55460408051918252602082018390527f24867dfb6fcb9970a07be21024956524abe7a1837faa903ff0e99aaa40cf893e910160405180910390a160d555565b6065546001600160a01b0316331461187f5760405162461bcd60e51b8152600401610ffc90614e8e565b6118896000613b83565b565b600260015414156118ae5760405162461bcd60e51b8152600401610ffc90614ec3565b6002600155806118d05760405162461bcd60e51b8152600401610ffc90614e1c565b33600090815260c960205260409020546201000090046001600160681b031615158061191a575033600090815260c96020526040902054600160781b90046001600160801b031615155b1561192b5761192b60006001613339565b60cf5433600081815260cb60209081526040918290208054835187815261ffff96871693810184905292959194911685149290917f0c53c82ad07e2d592d88ece3b066777dd60f1118e2a081b380efc4358f0d9e2a910160405180910390a281546201000090046001600160801b0316600082156119b4576119ad828761332d565b9050611a17565b81156119f65760405162461bcd60e51b81526020600482015260116024820152704578697374696e6720776974686472617760781b6044820152606401610ffc565b5033600090815260cb60205260409020805461ffff191661ffff8616179055845b611a2081613bd5565b33600090815260cb6020526040812080546001600160801b03808516620100000262010000600160901b03199092169190911790915560d054611a6c91600160801b909104168861332d565b9050611a7781613bd5565b60d080546001600160801b03808416600160801b029116179055611a9c333089613047565b5050600180555050505050565b6060609b8054610f229061511d565b6000611aed611ac660995490565b611ace611c92565b60d05460cc546001600160801b0390911690610100900460ff16613af9565b905090565b60026001541415611b155760405162461bcd60e51b8152600401610ffc90614ec3565b600260015580611b545760405162461bcd60e51b815260206004820152600a602482015269216e756d526f756e647360b01b6044820152606401610ffc565b60cf5461ffff1660005b82811015611be3576000611b728284614f98565b600081815260ca602052604090205490915015611bbf5760405162461bcd60e51b815260206004820152600b60248201526a125b9a5d1a585b1a5e995960aa1b6044820152606401610ffc565b600090815260ca602052604090206001905580611bdb81615152565b915050611b5e565b50506001805550565b3360009081526098602090815260408083206001600160a01b038616845290915281205482811015611c6e5760405162461bcd60e51b815260206004820152602560248201527f45524332303a2064656372656173656420616c6c6f77616e63652062656c6f77604482015264207a65726f60d81b6064820152608401610ffc565b611c7b3385858403612adc565b5060019392505050565b6000610fb2338484613047565b60cc546040516370a0823160e01b8152306004820152600091611aed91620100009091046001600160a01b0316906370a082319060240160206040518083038186803b158015611ce157600080fd5b505afa158015611cf5573d6000803e3d6000fd5b505050506040513d601f19601f82011682018060405250810190611d199190614bfe565b60cf546201000090046001600160681b03169061332d565b60026001541415611d545760405162461bcd60e51b8152600401610ffc90614ec3565b600260015580611d905760405162461bcd60e51b815260206004820152600760248201526608585b5bdd5b9d60ca1b6044820152606401610ffc565b611d9a81336137fc565b60cc54611db8906201000090046001600160a01b0316333084613a8e565b5060018055565b6065546001600160a01b03163314611de95760405162461bcd60e51b8152600401610ffc90614e8e565b60008161ffff16118015611e0b5750611e046064600a6150bb565b8161ffff16105b611e4c5760405162461bcd60e51b815260206004820152601260248201527124b73b30b634b21030b63637b1b0ba34b7b760711b6044820152606401610ffc565b60f6546040805191825261ffff831660208301527f7b7f7a8590418227574bbbbf9b7f3a6ac2e590f0613ded320769210d39b4b283910160405180910390a161ffff1660f655565b6000806000611ea2846128a6565b909250905061166e828261332d565b6065546001600160a01b03163314611edb5760405162461bcd60e51b8152600401610ffc90614e8e565b6001600160a01b038116611f1e5760405162461bcd60e51b815260206004820152600a60248201526910b732bba5b2b2b832b960b11b6044820152606401610ffc565b60d480546001600160a01b0319166001600160a01b0392909216919091179055565b600054610100900460ff1680611f59575060005460ff16155b611f755760405162461bcd60e51b8152600401610ffc90614e40565b600054610100900460ff16158015611f97576000805461ffff19166101011790555b611fa78b8b8b8b8b8b8b89613c1f565b6001600160a01b038416611ffd5760405162461bcd60e51b815260206004820152601860248201527f215f636f756e746572706172747954686574615661756c7400000000000000006044820152606401610ffc565b60cc60000160029054906101000a90046001600160a01b03166001600160a01b0316846001600160a01b0316639fcc2d756040518163ffffffff1660e01b815260040160c06040518083038186803b15801561205857600080fd5b505afa15801561206c573d6000803e3d6000fd5b505050506040513d601f19601f820116820180604052508101906120909190614b1a565b604001516001600160a01b0316146120ea5760405162461bcd60e51b815260206004820152601f60248201527f215f636f756e746572706172747954686574615661756c743a206173736574006044820152606401610ffc565b60008311801561210457506121016064600a6150bb565b83105b6121455760405162461bcd60e51b815260206004820152601260248201527110afb7b83a34b7b720b63637b1b0ba34b7b760711b6044820152606401610ffc565b60f580546001600160a01b0319166001600160a01b03861617905560f68390558015612177576000805461ff00191690555b5050505050505050505050565b600260015414156121a75760405162461bcd60e51b8152600401610ffc90614ec3565b6002600155806121c95760405162461bcd60e51b8152600401610ffc90614e1c565b611db8816000613339565b6065546001600160a01b031633146121fe5760405162461bcd60e51b8152600401610ffc90614e8e565b6001600160a01b0381166122475760405162461bcd60e51b815260206004820152601060248201526f085b995dd19959549958da5c1a595b9d60821b6044820152606401610ffc565b60d3546001600160a01b03828116911614156122a55760405162461bcd60e51b815260206004820152601860248201527f4d757374206265206e657720666565526563697069656e7400000000000000006044820152606401610ffc565b60d380546001600160a01b0319166001600160a01b0392909216919091179055565b600260015414156122ea5760405162461bcd60e51b8152600401610ffc90614ec3565b600260015560f5546040516307cc423960e01b815260f8546001600160601b038082166004840152606082901c16602483015260c01c60448201526001600160a01b037f000000000000000000000000000000000000000000000000000000000000000081166064830152909116608482015273e0854DDD162ffE4E2fF1DB6E62b544521cB9223e906307cc42399060a40160006040518083038186803b15801561239457600080fd5b505af41580156123a8573d6000803e3d6000fd5b505050506117886000612f7f565b600260015414156123d95760405162461bcd60e51b8152600401610ffc90614ec3565b600260015560d25460f5546040805163a083ff1760e01b815290516001600160a01b0393841693600093169163a083ff17916004808301926060929190829003018186803b15801561242a57600080fd5b505afa15801561243e573d6000803e3d6000fd5b505050506040513d601f19601f820116820180604052508101906124629190614aa1565b5190506001600160a01b0381166124af5760405162461bcd60e51b8152602060048201526011602482015270085d1a195d185d985d5b1d18db1bdcd959607a1b6044820152606401610ffc565b6124b96001612f7f565b60d180546001600160a01b0319166001600160a01b03831617905560006124e24261038461332d565b905063ffffffff8111156125385760405162461bcd60e51b815260206004820152601860248201527f4f766572666c6f77206e6578744f7074696f6e526561647900000000000000006044820152606401610ffc565b60d280546001600160c01b031916600160a01b63ffffffff8416026001600160a01b03191617905560f75460cf80546cffffffffffffffffffffffffff60781b1916600160781b6001600160681b03909316929092029190911790556001600160a01b03831615611be35760cc54604051631bd1c68360e31b81526001600160a01b037f000000000000000000000000000000000000000000000000000000000000000081166004830152808616602483015262010000909204909116604482015260009073e0854DDD162ffE4E2fF1DB6E62b544521cB9223e9063de8e34189060640160206040518083038186803b15801561263457600080fd5b505af4158015612648573d6000803e3d6000fd5b505050506040513d601f19601f8201168201806040525081019061266c9190614bfe565b9050336001600160a01b0316846001600160a01b03167fbbdc6ffe3a5302a25b4ef9afc416a1b2b7c720da5eee6dc669eda4d9c63d82b9836040516126b391815260200190565b60405180910390a35050506001805550565b6065546001600160a01b031633146126ef5760405162461bcd60e51b8152600401610ffc90614e8e565b6001600160a01b0381166127545760405162461bcd60e51b815260206004820152602660248201527f4f776e61626c653a206e6577206f776e657220697320746865207a65726f206160448201526564647265737360d01b6064820152608401610ffc565b61275d81613b83565b50565b600260015414156127835760405162461bcd60e51b8152600401610ffc90614ec3565b600260015560cc547f00000000000000000000000000000000000000000000000000000000000000006001600160a01b039081166201000090920416146127f45760405162461bcd60e51b8152602060048201526005602482015264042ae8aa8960db1b6044820152606401610ffc565b6000341161282d5760405162461bcd60e51b81526020600482015260066024820152652176616c756560d01b6044820152606401610ffc565b61283734336137fc565b7f00000000000000000000000000000000000000000000000000000000000000006001600160a01b031663d0e30db0346040518263ffffffff1660e01b81526004016000604051808303818588803b15801561289257600080fd5b505af115801561153a573d6000803e3d6000fd5b6001600160a01b038116600090815260c9602090815260408083208151606081018352905461ffff81168083526201000082046001600160681b031694830194909452600160781b90046001600160801b031691810191909152829160011115612928575050506001600160a01b031660009081526097602052604081205491565b60cf54815161ffff908116600090815260ca602052604081205460cc54919361295e93869391169190610100900460ff16613e5e565b905061297f856001600160a01b031660009081526097602052604090205490565b9590945092505050565b600260015414156129ac5760405162461bcd60e51b8152600401610ffc90614ec3565b600260015560006129bb613ecf565b60f9549091506129d4906001600160801b031682613321565b60f980546001600160801b0319166001600160801b03929092169190911790555060018055565b6065546001600160a01b03163314612a255760405162461bcd60e51b8152600401610ffc90614e8e565b612a33620f424060646150bb565b8110612a7a5760405162461bcd60e51b8152602060048201526016602482015275496e76616c6964206d616e6167656d656e742066656560501b6044820152606401610ffc565b6000612a9763031ba309612a9184620f424061408c565b90614098565b60d65460408051918252602082018590529192507f4e874b007ab14f7e263baefd44951834c8266f4f224d1092e49e9c254354cc54910160405180910390a160d65550565b6001600160a01b038316612b3e5760405162461bcd60e51b8152602060048201526024808201527f45524332303a20617070726f76652066726f6d20746865207a65726f206164646044820152637265737360e01b6064820152608401610ffc565b6001600160a01b038216612b9f5760405162461bcd60e51b815260206004820152602260248201527f45524332303a20617070726f766520746f20746865207a65726f206164647265604482015261737360f01b6064820152608401610ffc565b6001600160a01b0383811660008181526098602090815260408083209487168084529482529182902085905590518481527f8c5be1e5ebec7d5bd14f71427d1e84f3dd0314c0f7b2291e5b200ac8c7c3b92591015b60405180910390a3505050565b60d25460009081908190600160a01b900463ffffffff16421015612c505760405162461bcd60e51b815260206004820152600660248201526521726561647960d01b6044820152606401610ffc565b60d1546001600160a01b0316925082612c995760405162461bcd60e51b815260206004820152600b60248201526a10b732bc3a27b83a34b7b760a91b6044820152606401610ffc565b60d3546040805160c08101825260cc54610100810460ff16825291516370a0823160e01b81523060048201526001600160a01b039384169360009384938493849373e0854DDD162ffE4E2fF1DB6E62b544521cB9223e9363633c14269360cf939092602084019262010000900416906370a082319060240160206040518083038186803b158015612d2957600080fd5b505afa158015612d3d573d6000803e3d6000fd5b505050506040513d601f19601f82011682018060405250810190612d619190614bfe565b8152602001612d6f60995490565b815260208082018f905260d55460408084019190915260d65460609384015280516001600160e01b031960e088901b16815260048101959095528351602486015290830151604485015282015160648401528101516084830152608081015160a483015260a0015160c482015260e40160c06040518083038186803b158015612df757600080fd5b505af4158015612e0b573d6000803e3d6000fd5b505050506040513d601f19601f82011682018060405250810190612e2f9190614c3a565b809750819850829950839650849b50859c505050505050508760d160010160006101000a8154816001600160a01b0302191690836001600160a01b03160217905550600060d160000160006101000a8154816001600160a01b0302191690836001600160a01b03160217905550600060cf60000160009054906101000a900461ffff1661ffff1690508160ca600083815260200190815260200160002081905550856001600160a01b03167f0a242f7ecaf711036ca770774ceffae28e60ef042ac113ddd187f2631db0c006858584604051612f1e939291909283526020830191909152604082015260600190565b60405180910390a260d080546001600160801b0319169055612f41816001614f98565b60cf805461ffff191661ffff9290921691909117905550612f64905030846140a4565b8015612f7457612f74848261369b565b505050509193909250565b60cf5461ffff16811580612fa25750600081815260ca6020526040902054600110155b1561304357613033612fb360995490565b60cc546040516370a0823160e01b8152306004820152620100009091046001600160a01b0316906370a082319060240160206040518083038186803b158015612ffb57600080fd5b505afa15801561300f573d6000803e3d6000fd5b505050506040513d601f19601f82011682018060405250810190611ace9190614bfe565b600082815260ca60205260409020555b5050565b6001600160a01b0383166130ab5760405162461bcd60e51b815260206004820152602560248201527f45524332303a207472616e736665722066726f6d20746865207a65726f206164604482015264647265737360d81b6064820152608401610ffc565b6001600160a01b03821661310d5760405162461bcd60e51b815260206004820152602360248201527f45524332303a207472616e7366657220746f20746865207a65726f206164647260448201526265737360e81b6064820152608401610ffc565b6001600160a01b038316600090815260976020526040902054818110156131855760405162461bcd60e51b815260206004820152602660248201527f45524332303a207472616e7366657220616d6f756e7420657863656564732062604482015265616c616e636560d01b6064820152608401610ffc565b6001600160a01b038085166000908152609760205260408082208585039055918516815290812080548492906131bc908490614f98565b92505081905550826001600160a01b0316846001600160a01b03167fddf252ad1be2c89b69c2b068fc378daa952ba7f163c4a11628f55a4df523b3ef8460405161320891815260200190565b60405180910390a35b50505050565b33600090815260c96020526040812060cf54815483929161ffff9182169116148015613252575080546201000090046001600160681b031615155b1561331857805461ffff8116600090815260ca602052604081205460cc54919261329592620100009091046001600160681b03169190610100900460ff16614183565b905060006132a382876141e6565b90506132d76132b28383613321565b845461ffff16600090815260ca602052604090205460cc54610100900460ff16613639565b83546001600160681b039190911662010000026effffffffffffffffffffffffff0000199091161783558061330c8782613321565b94509450505050915091565b50600093915050565b600061139b82846150da565b600061139b8284614f98565b33600090815260c9602090815260408083208151606081018352905461ffff8082168084526201000083046001600160681b031684870152600160781b9092046001600160801b03168385015260cf5491865260ca9094529184205460cc54919492909316926133b49185918591610100900460ff16613e5e565b9050836133c157846133c3565b805b9450846133d1575050505050565b808511156134155760405162461bcd60e51b81526020600482015260116024820152704578636565647320617661696c61626c6560781b6044820152606401610ffc565b825161ffff168211156134485733600090815260c96020526040902080546effffffffffffffffffffffffff0000191690555b61345185613bd5565b61345b8186613321565b33600081815260c960205260409081902080546001600160801b0394909416600160781b02600160781b600160f81b0319909416939093179092558451915190917fe5b754fb1abb7f01b499791d0b820ae3b6af3424ac1c59768edb53f4ec31a929916134d49189825261ffff16602082015260400190565b60405180910390a26134e7303387613047565b5050505050565b6001600160a01b03821661354e5760405162461bcd60e51b815260206004820152602160248201527f45524332303a206275726e2066726f6d20746865207a65726f206164647265736044820152607360f81b6064820152608401610ffc565b6001600160a01b038216600090815260976020526040902054818110156135c25760405162461bcd60e51b815260206004820152602260248201527f45524332303a206275726e20616d6f756e7420657863656564732062616c616e604482015261636560f01b6064820152608401610ffc565b6001600160a01b03831660009081526097602052604081208383039055609980548492906135f19084906150da565b90915550506040518281526000906001600160a01b038516907fddf252ad1be2c89b69c2b068fc378daa952ba7f163c4a11628f55a4df523b3ef90602001612bf4565b505050565b6000600183116136835760405162461bcd60e51b8152602060048201526015602482015274496e76616c6964206173736574506572536861726560581b6044820152606401610ffc565b61166e61369183600a615013565b612a91868661408c565b60cc546001600160a01b03620100009091048116907f0000000000000000000000000000000000000000000000000000000000000000168114156137e857604051632e1a7d4d60e01b8152600481018390527f00000000000000000000000000000000000000000000000000000000000000006001600160a01b031690632e1a7d4d90602401600060405180830381600087803b15801561373b57600080fd5b505af115801561374f573d6000803e3d6000fd5b505050506000836001600160a01b03168360405160006040518083038185875af1925050503d80600081146137a0576040519150601f19603f3d011682016040523d82523d6000602084013e6137a5565b606091505b50509050806132115760405162461bcd60e51b815260206004820152600f60248201526e151c985b9cd9995c8819985a5b1959608a1b6044820152606401610ffc565b6136346001600160a01b03821684846141fc565b60cf5461ffff16600061381784613811611c92565b9061332d565b60ce549091506001600160681b03168111156138625760405162461bcd60e51b815260206004820152600a6024820152690457863656564206361760b41b6044820152606401610ffc565b60cd54600160a01b900466ffffffffffffff168110156138bb5760405162461bcd60e51b8152602060048201526014602482015273496e73756666696369656e742062616c616e636560601b6044820152606401610ffc565b60408051858152602081018490526001600160a01b038516917f90890809c654f11d6e72a28fa60149770a0d11ec6c92319d6ceb2bb0a4ea1a15910160405180910390a26001600160a01b038316600090815260c9602090815260408083208151606081018352905461ffff81168083526201000082046001600160681b031683860152600160781b9091046001600160801b031682840152845260ca90925282205460cc5491929161397a918491879190610100900460ff16613e5e565b8251909150869061ffff168514156139ab5760208301516000906139a7906001600160681b03168961332d565b9150505b6139b481613b39565b6040805160608101825261ffff80881682526001600160681b0380851660208085019182526001600160801b038089168688019081526001600160a01b038e16600090815260c990935296822095518654935197518216600160781b02600160781b600160f81b03199890951662010000026effffffffffffffffffffffffffffff1990941695169490941791909117949094161790915560d054613a5a91168961332d565b9050613a6581613bd5565b60d080546001600160801b0319166001600160801b039290921691909117905550505050505050565b6040516001600160a01b03808516602483015283166044820152606481018290526132119085906323b872dd60e01b906084015b60408051601f198184030181529190526020810180516001600160e01b03166001600160e01b03199093169290921790915261422c565b600080613b0783600a615013565b905060008611613b175780613b2f565b613b2f86612a91613b288888613321565b849061408c565b9695505050505050565b6001600160681b0381111561275d5760405162461bcd60e51b815260206004820152601060248201526f13dd995c999b1bddc81d5a5b9d0c4c0d60821b6044820152606401610ffc565b606580546001600160a01b038381166001600160a01b0319831681179093556040519116919082907f8be0079c531659141344cd1fd0a4f28419497f9722a3daafe3b4186f6b6457e090600090a35050565b6001600160801b0381111561275d5760405162461bcd60e51b815260206004820152601060248201526f09eeccae4ccd8deee40ead2dce86264760831b6044820152606401610ffc565b600054610100900460ff1680613c38575060005460ff16155b613c545760405162461bcd60e51b8152600401610ffc90614e40565b600054610100900460ff16158015613c76576000805461ffff19166101011790555b60405163c72733f760e01b815273e0854DDD162ffE4E2fF1DB6E62b544521cB9223e9063c72733f790613cbb908c908c908c908b908d908c908c908c90600401614d0f565b60006040518083038186803b158015613cd357600080fd5b505af4158015613ce7573d6000803e3d6000fd5b50505050613cf36142fe565b613cfd8484614371565b613d056143f0565b613d0e896126c5565b60d480546001600160a01b03808b166001600160a01b03199283161790925560d38054928a169290911691909117905560d5859055613d5863031ba309612a9188620f424061408c565b60d6558160cc613d6882826151c0565b505060cc546040516370a0823160e01b81523060048201526000916201000090046001600160a01b0316906370a082319060240160206040518083038186803b158015613db457600080fd5b505afa158015613dc8573d6000803e3d6000fd5b505050506040513d601f19601f82011682018060405250810190613dec9190614bfe565b9050613df781613b39565b60cf805461ffff196001600160681b03909316600160781b02929092167fffffffff00000000000000000000000000ffffffffffffffffffffffffff00009092169190911760011790558015613e53576000805461ff00191690555b505050505050505050565b835160009061ffff1615801590613e795750845161ffff1684115b15613ebb576000613e9886602001516001600160681b03168585614183565b6040870151909150613eb3906001600160801b03168261332d565b91505061166e565b50505050604001516001600160801b031690565b33600090815260cb6020526040812080546001600160801b03620100008204169061ffff1681613f315760405162461bcd60e51b815260206004820152600d60248201526c139bdd081a5b9a5d1a585d1959609a1b6044820152606401610ffc565b60cf5461ffff168110613f795760405162461bcd60e51b815260206004820152601060248201526f149bdd5b99081b9bdd0818db1bdcd95960821b6044820152606401610ffc565b33600090815260cb60205260409020805462010000600160901b031916905560d054613fb590600160801b90046001600160801b031683613321565b60d080546001600160801b03928316600160801b029216919091179055600081815260ca602052604081205460cc54613ff891859160ff61010090910416613639565b604080518281526020810186905291925033917ff279e6a1f5e320cca91135676d9cb6e44ca8a08c0b88342bcdb1144f6511b568910160405180910390a261404030846134ee565b600081116140825760405162461bcd60e51b815260206004820152600f60248201526e085dda5d1a191c985dd05b5bdd5b9d608a1b6044820152606401610ffc565b61166e338261369b565b600061139b82846150bb565b600061139b8284614fb0565b6001600160a01b0382166140fa5760405162461bcd60e51b815260206004820152601f60248201527f45524332303a206d696e7420746f20746865207a65726f2061646472657373006044820152606401610ffc565b806099600082825461410c9190614f98565b90915550506001600160a01b03821660009081526097602052604081208054839290614139908490614f98565b90915550506040518181526001600160a01b038316906000907fddf252ad1be2c89b69c2b068fc378daa952ba7f163c4a11628f55a4df523b3ef9060200160405180910390a35050565b6000600183116141cd5760405162461bcd60e51b8152602060048201526015602482015274496e76616c6964206173736574506572536861726560581b6044820152606401610ffc565b61166e83612a916141df85600a615013565b879061408c565b60008183106141f5578161139b565b5090919050565b6040516001600160a01b03831660248201526044810182905261363490849063a9059cbb60e01b90606401613ac2565b6000614281826040518060400160405280602081526020017f5361666545524332303a206c6f772d6c6576656c2063616c6c206661696c6564815250856001600160a01b03166144579092919063ffffffff16565b805190915015613634578080602001905181019061429f9190614a85565b6136345760405162461bcd60e51b815260206004820152602a60248201527f5361666545524332303a204552433230206f7065726174696f6e20646964206e6044820152691bdd081cdd58d8d9595960b21b6064820152608401610ffc565b600054610100900460ff1680614317575060005460ff16155b6143335760405162461bcd60e51b8152600401610ffc90614e40565b600054610100900460ff16158015614355576000805461ffff19166101011790555b61435d614466565b801561275d576000805461ff001916905550565b600054610100900460ff168061438a575060005460ff16155b6143a65760405162461bcd60e51b8152600401610ffc90614e40565b600054610100900460ff161580156143c8576000805461ffff19166101011790555b6143d06144d5565b6143da838361453f565b8015613634576000805461ff0019169055505050565b600054610100900460ff1680614409575060005460ff16155b6144255760405162461bcd60e51b8152600401610ffc90614e40565b600054610100900460ff16158015614447576000805461ffff19166101011790555b61444f6144d5565b61435d6145d4565b606061166e8484600085614634565b600054610100900460ff168061447f575060005460ff16155b61449b5760405162461bcd60e51b8152600401610ffc90614e40565b600054610100900460ff161580156144bd576000805461ffff19166101011790555b60018055801561275d576000805461ff001916905550565b600054610100900460ff16806144ee575060005460ff16155b61450a5760405162461bcd60e51b8152600401610ffc90614e40565b600054610100900460ff1615801561435d576000805461ffff1916610101179055801561275d576000805461ff001916905550565b600054610100900460ff1680614558575060005460ff16155b6145745760405162461bcd60e51b8152600401610ffc90614e40565b600054610100900460ff16158015614596576000805461ffff19166101011790555b82516145a990609a906020860190614795565b5081516145bd90609b906020850190614795565b508015613634576000805461ff0019169055505050565b600054610100900460ff16806145ed575060005460ff16155b6146095760405162461bcd60e51b8152600401610ffc90614e40565b600054610100900460ff1615801561462b576000805461ffff19166101011790555b61435d33613b83565b6060824710156146955760405162461bcd60e51b815260206004820152602660248201527f416464726573733a20696e73756666696369656e742062616c616e636520666f6044820152651c8818d85b1b60d21b6064820152608401610ffc565b843b6146e35760405162461bcd60e51b815260206004820152601d60248201527f416464726573733a2063616c6c20746f206e6f6e2d636f6e74726163740000006044820152606401610ffc565b600080866001600160a01b031685876040516146ff9190614cf3565b60006040518083038185875af1925050503d806000811461473c576040519150601f19603f3d011682016040523d82523d6000602084013e614741565b606091505b509150915061475182828661475c565b979650505050505050565b6060831561476b57508161139b565b82511561477b5782518084602001fd5b8160405162461bcd60e51b8152600401610ffc9190614e09565b8280546147a19061511d565b90600052602060002090601f0160209004810192826147c35760008555614809565b82601f106147dc57805160ff1916838001178555614809565b82800160010185558215614809579182015b828111156148095782518255916020019190600101906147ee565b50614815929150614819565b5090565b5b80821115614815576000815560010161481a565b8035614839816152d1565b919050565b600082601f83011261484e578081fd5b813567ffffffffffffffff8082111561486957614869615183565b604051601f8301601f19908116603f0116810190828211818310171561489157614891615183565b816040528381528660208588010111156148a9578485fd5b8360208701602083013792830160200193909352509392505050565b600060c082840312156148d6578081fd5b50919050565b8035614839816152f4565b803561483981615309565b600060208284031215614903578081fd5b813561139b816152d1565b60008060408385031215614920578081fd5b823561492b816152d1565b9150602083013561493b816152d1565b809150509250929050565b6000806000806000806000806000806101e08b8d031215614965578586fd5b61496e8b61482e565b995061497c60208c0161482e565b985061498a60408c0161482e565b975060608b0135965060808b0135955060a08b013567ffffffffffffffff808211156149b4578687fd5b6149c08e838f0161483e565b965060c08d01359150808211156149d5578586fd5b506149e28d828e0161483e565b9450506149f160e08c0161482e565b92506101008b01359150614a098c6101208d016148c5565b90509295989b9194979a5092959850565b600080600060608486031215614a2e578283fd5b8335614a39816152d1565b92506020840135614a49816152d1565b929592945050506040919091013590565b60008060408385031215614a6c578182fd5b8235614a77816152d1565b946020939093013593505050565b600060208284031215614a96578081fd5b815161139b816152e6565b600060608284031215614ab2578081fd5b6040516060810181811067ffffffffffffffff82111715614ad557614ad5615183565b6040528251614ae3816152d1565b81526020830151614af3816152d1565b6020820152604083015163ffffffff81168114614b0e578283fd5b60408201529392505050565b600060c08284031215614b2b578081fd5b60405160c0810181811067ffffffffffffffff82111715614b4e57614b4e615183565b6040528251614b5c816152e6565b81526020830151614b6c8161531e565b60208201526040830151614b7f816152d1565b60408201526060830151614b92816152d1565b60608201526080830151614ba581615309565b608082015260a0830151614bb8816152f4565b60a08201529392505050565b600060208284031215614bd5578081fd5b813561ffff8116811461139b578182fd5b600060208284031215614bf7578081fd5b5035919050565b600060208284031215614c0f578081fd5b5051919050565b60008060408385031215614c28578182fd5b82359150602083013561493b816152d1565b60008060008060008060c08789031215614c52578384fd5b865195506020870151945060408701519350606087015192506080870151915060a087015190509295509295509295565b600080600060608486031215614c97578081fd5b8351925060208401519150604084015167ffffffffffffffff81168114614cbc578182fd5b809150509250925092565b60008151808452614cdf8160208601602086016150f1565b601f01601f19169290920160200192915050565b60008251614d058184602087016150f1565b9190910192915050565b60006101a060018060a01b03808c168452808b166020850152808a1660408501528860608501528760808501528160a0850152614d4e82850188614cc7565b915083820360c0850152614d628287614cc7565b925084359150614d71826152e6565b90151560e0840152602084013590614d888261531e565b60ff821661010085015260408501359150614da2826152d1565b16610120830152614db56060840161482e565b6001600160a01b0316610140830152614dd0608084016148e7565b66ffffffffffffff16610160830152614deb60a084016148dc565b6001600160681b038116610180840152509998505050505050505050565b60208152600061139b6020830184614cc7565b6020808252600a9082015269216e756d53686172657360b01b604082015260600190565b6020808252602e908201527f496e697469616c697a61626c653a20636f6e747261637420697320616c72656160408201526d191e481a5b9a5d1a585b1a5e995960921b606082015260800190565b6020808252818101527f4f776e61626c653a2063616c6c6572206973206e6f7420746865206f776e6572604082015260600190565b6020808252601f908201527f5265656e7472616e637947756172643a207265656e7472616e742063616c6c00604082015260600190565b81516001600160a01b03168152602080830151610120830191614f27908401826001600160a01b03169052565b506040830151614f4260408401826001600160a01b03169052565b50606083015160608301526080830151608083015260a083015160a083015260c083015160c083015260e083015160e083015261010080840151614f90828501826001600160a01b03169052565b505092915050565b60008219821115614fab57614fab61516d565b500190565b600082614fcb57634e487b7160e01b81526012600452602481fd5b500490565b600181815b8085111561500b578160001904821115614ff157614ff161516d565b80851615614ffe57918102915b93841c9390800290614fd5565b509250929050565b600061139b838360008261502957506001610fb6565b8161503657506000610fb6565b816001811461504c576002811461505657615072565b6001915050610fb6565b60ff8411156150675761506761516d565b50506001821b610fb6565b5060208310610133831016604e8410600b8410161715615095575081810a610fb6565b61509f8383614fd0565b80600019048211156150b3576150b361516d565b029392505050565b60008160001904831182151516156150d5576150d561516d565b500290565b6000828210156150ec576150ec61516d565b500390565b60005b8381101561510c5781810151838201526020016150f4565b838111156132115750506000910152565b600181811c9082168061513157607f821691505b602082108114156148d657634e487b7160e01b600052602260045260246000fd5b60006000198214156151665761516661516d565b5060010190565b634e487b7160e01b600052601160045260246000fd5b634e487b7160e01b600052604160045260246000fd5b60008135610fb6816152d1565b60008135610fb6816152f4565b60008135610fb681615309565b81356151cb816152e6565b815460ff19811691151560ff16918217835560208401356151eb8161531e565b61ff008160081b169050808361ffff19841617178455604085013561520f816152d1565b6001600160b01b0319929092169092179190911760109190911b62010000600160b01b03161781556001810161526761524a60608501615199565b82546001600160a01b0319166001600160a01b0391909116178255565b6152a0615276608085016151b3565b82805466ffffffffffffff60a01b191660a09290921b66ffffffffffffff60a01b16919091179055565b506130436152b060a084016151a6565b600283016001600160681b0382166001600160681b03198254161781555050565b6001600160a01b038116811461275d57600080fd5b801515811461275d57600080fd5b6001600160681b038116811461275d57600080fd5b66ffffffffffffff8116811461275d57600080fd5b60ff8116811461275d57600080fdfea264697066735822122095257ae56316e82579d1a51f7f5adb5fc4c97d49fc3d66c87b241f1761e629ed64736f6c63430008040033",
  "deployedBytecode": "0x6080604052600436106103e45760003560e01c80638da5cb5b11610208578063b70a293911610118578063dd62ed3e116100ab578063f2fde38b1161007a578063f2fde38b14610e81578063f6326fb314610ea1578063f656ba5114610ea9578063f756fa2114610ede578063fe56e23214610ef357600080fd5b8063dd62ed3e14610df1578063e74b981b14610e37578063e7b6951014610e57578063ea00b1ca14610e6c57600080fd5b8063d164cc15116100e7578063d164cc1514610d5d578063d826492014610d7d578063da7c306b14610db1578063db006a7514610dd157600080fd5b8063b70a293914610cd3578063c74c0fac14610cf3578063c9f369c214610d27578063ce7c2ac214610d3d57600080fd5b8063a457c2d71161019b578063ad5c46481161016a578063ad5c464814610be4578063ad7a672f14610c18578063ae94c7cd14610c2d578063b4d1d79514610c9c578063b6b55f2514610cb357600080fd5b8063a457c2d714610b6e578063a6f7f5d614610b8e578063a9059cbb14610ba4578063aced166114610bc457600080fd5b80639fcc2d75116101d75780639fcc2d7514610a1f578063a083ff1714610acb578063a285c9e814610b2e578063a2db9d8314610b5057600080fd5b80638da5cb5b146109b757806395d89b41146109d557806399530b06146109ea5780639be43daa146109ff57600080fd5b8063469048401161030357806370897b23116102965780637e108d52116102655780637e108d521461090257806387153eb114610922578063877887821461094f57806389a30271146109655780638b10cc7c1461099957600080fd5b806370897b231461083357806370a0823114610853578063715018a6146108895780637a9262a21461089e57600080fd5b80636719b2ee116102d25780636719b2ee1461075057806369b41170146107d45780636c10f66c146107ea5780636f31ab341461081e57600080fd5b806346904840146106a457806347786d37146106c4578063503c70aa146106e4578063650cce8a1461071c57600080fd5b80632775d01c1161037b57806336efd16f1161034a57806336efd16f1461062657806339509351146106465780633f23bb73146106665780633f90916a1461068657600080fd5b80632775d01c1461059e57806328004837146105be578063313ce567146105de578063355274ea1461060857600080fd5b80631a92f6c2116103b75780631a92f6c21461047d5780631b60612a146104c957806323b872dd146104eb5780632728f3331461050b57600080fd5b806306fdde03146103e9578063095ea7b314610414578063150d3ec21461044457806318160ddd14610468575b600080fd5b3480156103f557600080fd5b506103fe610f13565b60405161040b9190614e09565b60405180910390f35b34801561042057600080fd5b5061043461042f366004614a5a565b610fa5565b604051901515815260200161040b565b34801561045057600080fd5b5061045a60f75481565b60405190815260200161040b565b34801561047457600080fd5b5060995461045a565b34801561048957600080fd5b506104b17f000000000000000000000000000000000000000000000000000000000000000081565b6040516001600160a01b03909116815260200161040b565b3480156104d557600080fd5b506104e96104e4366004614be6565b610fbc565b005b3480156104f757600080fd5b50610434610506366004614a1a565b6112f6565b34801561051757600080fd5b5060cf5460d0546105599161ffff8116916001600160681b03620100008304811692600160781b900416906001600160801b0380821691600160801b90041685565b6040805161ffff90961686526001600160681b03948516602087015293909216928401929092526001600160801b03918216606084015216608082015260a00161040b565b3480156105aa57600080fd5b506104e96105b9366004614be6565b6113a2565b3480156105ca57600080fd5b5060f5546104b1906001600160a01b031681565b3480156105ea57600080fd5b5060cc54610100900460ff1660405160ff909116815260200161040b565b34801561061457600080fd5b5060ce546001600160681b031661045a565b34801561063257600080fd5b506104e9610641366004614c16565b611545565b34801561065257600080fd5b50610434610661366004614a5a565b6115e7565b34801561067257600080fd5b5061045a6106813660046148f2565b611623565b34801561069257600080fd5b5060d0546001600160801b031661045a565b3480156106b057600080fd5b5060d3546104b1906001600160a01b031681565b3480156106d057600080fd5b506104e96106df366004614be6565b611676565b3480156106f057600080fd5b5060f954610704906001600160801b031681565b6040516001600160801b03909116815260200161040b565b34801561072857600080fd5b506104b17f000000000000000000000000000000000000000000000000000000000000000081565b34801561075c57600080fd5b506107a361076b3660046148f2565b60c96020526000908152604090205461ffff8116906201000081046001600160681b031690600160781b90046001600160801b031683565b6040805161ffff90941684526001600160681b0390921660208401526001600160801b03169082015260600161040b565b3480156107e057600080fd5b5061045a61038481565b3480156107f657600080fd5b506104b17f000000000000000000000000000000000000000000000000000000000000000081565b34801561082a57600080fd5b506104e9611751565b34801561083f57600080fd5b506104e961084e366004614be6565b61178e565b34801561085f57600080fd5b5061045a61086e3660046148f2565b6001600160a01b031660009081526097602052604090205490565b34801561089557600080fd5b506104e9611855565b3480156108aa57600080fd5b506108e06108b93660046148f2565b60cb6020526000908152604090205461ffff8116906201000090046001600160801b031682565b6040805161ffff90931683526001600160801b0390911660208301520161040b565b34801561090e57600080fd5b506104e961091d366004614be6565b61188b565b34801561092e57600080fd5b5061045a61093d366004614be6565b60ca6020526000908152604090205481565b34801561095b57600080fd5b5061045a60d55481565b34801561097157600080fd5b506104b17f000000000000000000000000000000000000000000000000000000000000000081565b3480156109a557600080fd5b5060d2546001600160a01b03166104b1565b3480156109c357600080fd5b506065546001600160a01b03166104b1565b3480156109e157600080fd5b506103fe611aa9565b3480156109f657600080fd5b5061045a611ab8565b348015610a0b57600080fd5b506104e9610a1a366004614be6565b611af2565b348015610a2b57600080fd5b5060cc5460cd5460ce54610a7b9260ff808216936101008304909116926001600160a01b036201000090930483169282169166ffffffffffffff600160a01b90910416906001600160681b031686565b60408051961515875260ff90951660208701526001600160a01b03938416948601949094529116606084015266ffffffffffffff1660808301526001600160681b031660a082015260c00161040b565b348015610ad757600080fd5b5060d15460d254610b02916001600160a01b039081169190811690600160a01b900463ffffffff1683565b604080516001600160a01b03948516815293909216602084015263ffffffff169082015260600161040b565b348015610b3a57600080fd5b5060d254600160a01b900463ffffffff1661045a565b348015610b5c57600080fd5b5060d1546001600160a01b03166104b1565b348015610b7a57600080fd5b50610434610b89366004614a5a565b611bec565b348015610b9a57600080fd5b5061045a60d65481565b348015610bb057600080fd5b50610434610bbf366004614a5a565b611c85565b348015610bd057600080fd5b5060d4546104b1906001600160a01b031681565b348015610bf057600080fd5b506104b17f000000000000000000000000000000000000000000000000000000000000000081565b348015610c2457600080fd5b5061045a611c92565b348015610c3957600080fd5b5060f854610c6c906001600160601b0380821691600160601b810490911690600160c01b900467ffffffffffffffff1683565b604080516001600160601b03948516815293909216602084015267ffffffffffffffff169082015260600161040b565b348015610ca857600080fd5b5061045a62093a8081565b348015610cbf57600080fd5b506104e9610cce366004614be6565b611d31565b348015610cdf57600080fd5b506104e9610cee366004614bc4565b611dbf565b348015610cff57600080fd5b506104b17f000000000000000000000000000000000000000000000000000000000000000081565b348015610d3357600080fd5b5061045a60f65481565b348015610d4957600080fd5b5061045a610d583660046148f2565b611e94565b348015610d6957600080fd5b506104e9610d783660046148f2565b611eb1565b348015610d8957600080fd5b506104b17f000000000000000000000000000000000000000000000000000000000000000081565b348015610dbd57600080fd5b506104e9610dcc366004614946565b611f40565b348015610ddd57600080fd5b506104e9610dec366004614be6565b612184565b348015610dfd57600080fd5b5061045a610e0c36600461490e565b6001600160a01b03918216600090815260986020908152604080832093909416825291909152205490565b348015610e4357600080fd5b506104e9610e523660046148f2565b6121d4565b348015610e6357600080fd5b506104e96122c7565b348015610e7857600080fd5b506104e96123b6565b348015610e8d57600080fd5b506104e9610e9c3660046148f2565b6126c5565b6104e9612760565b348015610eb557600080fd5b50610ec9610ec43660046148f2565b6128a6565b6040805192835260208301919091520161040b565b348015610eea57600080fd5b506104e9612989565b348015610eff57600080fd5b506104e9610f0e366004614be6565b6129fb565b6060609a8054610f229061511d565b80601f0160208091040260200160405190810160405280929190818152602001828054610f4e9061511d565b8015610f9b5780601f10610f7057610100808354040283529160200191610f9b565b820191906000526020600020905b815481529060010190602001808311610f7e57829003601f168201915b5050505050905090565b6000610fb2338484612adc565b5060015b92915050565b60d4546001600160a01b031633146110055760405162461bcd60e51b815260206004820152600760248201526610b5b2b2b832b960c91b60448201526064015b60405180910390fd5b600260015414156110285760405162461bcd60e51b8152600401610ffc90614ec3565b600260015560f95460009081908190611049906001600160801b0316612c01565b60f980546001600160801b0319166001600160801b03831617905560f78290556040805161012081018252600080825260208201819052918101829052606081018290526080810182905260a0810182905260c0810182905260e08101829052610100810191909152929550909350915060f560009054906101000a90046001600160a01b03166001600160a01b031663432833a66040518163ffffffff1660e01b815260040160206040518083038186803b15801561110857600080fd5b505afa15801561111c573d6000803e3d6000fd5b505050506040513d601f19601f820116820180604052508101906111409190614bfe565b60808201526001600160a01b037f000000000000000000000000000000000000000000000000000000000000000081166020830152848116825260cc5462010000810490911660408084019190915260ff6101009283900416606084015260a0830185905260f65460c084015260e083018790523391830191909152516395a170d760e01b81526000908190819073__$c4f279750f4bbb575ac7775e752dc00849$__906395a170d7906111f8908790600401614efa565b60606040518083038186803b15801561121057600080fd5b505af4158015611224573d6000803e3d6000fd5b505050506040513d601f19601f820116820180604052508101906112489190614c83565b60f8805467ffffffffffffffff8316600160c01b026001600160c01b036001600160601b03808716600160601b026001600160c01b0319909416908816179290921791909116179055919450925090506112a26000612f7f565b604080518381526020810185905233916001600160a01b038a16917f64844de7240afb5062e92a77a2a2fcf334f4f109ce576b1c0de1c82f659eca11910160405180910390a3505060018055505050505050565b6000611303848484613047565b6001600160a01b0384166000908152609860209081526040808320338452909152902054828110156113885760405162461bcd60e51b815260206004820152602860248201527f45524332303a207472616e7366657220616d6f756e74206578636565647320616044820152676c6c6f77616e636560c01b6064820152608401610ffc565b6113958533858403612adc565b60019150505b9392505050565b600260015414156113c55760405162461bcd60e51b8152600401610ffc90614ec3565b6002600155806113e75760405162461bcd60e51b8152600401610ffc90614e1c565b6113f16001612f7f565b6000806113fd83613217565b9092509050811561143f5760d05461141e906001600160801b031683613321565b60d080546001600160801b0319166001600160801b03929092169190911790555b60cf5461ffff1681156114ce57600080611458336128a6565b9092509050611467828261332d565b8411156114ad5760405162461bcd60e51b8152602060048201526014602482015273496e73756666696369656e742062616c616e636560601b6044820152606401610ffc565b838210156114c1576114c160006001613339565b6114cb33856134ee565b50505b604080518581526020810183905233917fab2daf3c146ca6416cbccd2a86ed2ba995e171ef6319df14a38aef01403a9c96910160405180910390a2600081815260ca602052604081205460cc5461152e918791610100900460ff16613639565b905061153a338261369b565b505060018055505050565b600260015414156115685760405162461bcd60e51b8152600401610ffc90614ec3565b6002600155816115a45760405162461bcd60e51b815260206004820152600760248201526608585b5bdd5b9d60ca1b6044820152606401610ffc565b6001600160a01b0381166115b757600080fd5b6115c182826137fc565b60cc546115df906201000090046001600160a01b0316333085613a8e565b505060018055565b3360008181526098602090815260408083206001600160a01b03871684529091528120549091610fb291859061161e908690614f98565b612adc565b60cc5460009060ff610100909104168161165961163f60995490565b611647611c92565b60d0546001600160801b031685613af9565b905061166e61166785611e94565b8284613639565b949350505050565b6065546001600160a01b031633146116a05760405162461bcd60e51b8152600401610ffc90614e8e565b600081116116da5760405162461bcd60e51b81526020600482015260076024820152660216e65774361760cc1b6044820152606401610ffc565b6116e381613b39565b60ce54604080516001600160681b039092168252602082018390527f5f86edbb9d92228a9edc3f0ebc0f001bda1ea345ac7335e0eeef3504b31d1a1c910160405180910390a160ce80546cffffffffffffffffffffffffff19166001600160681b0392909216919091179055565b600260015414156117745760405162461bcd60e51b8152600401610ffc90614ec3565b600260018190555061178860006001613339565b60018055565b6065546001600160a01b031633146117b85760405162461bcd60e51b8152600401610ffc90614e8e565b6117c6620f424060646150bb565b81106118145760405162461bcd60e51b815260206004820152601760248201527f496e76616c696420706572666f726d616e6365206665650000000000000000006044820152606401610ffc565b60d55460408051918252602082018390527f24867dfb6fcb9970a07be21024956524abe7a1837faa903ff0e99aaa40cf893e910160405180910390a160d555565b6065546001600160a01b0316331461187f5760405162461bcd60e51b8152600401610ffc90614e8e565b6118896000613b83565b565b600260015414156118ae5760405162461bcd60e51b8152600401610ffc90614ec3565b6002600155806118d05760405162461bcd60e51b8152600401610ffc90614e1c565b33600090815260c960205260409020546201000090046001600160681b031615158061191a575033600090815260c96020526040902054600160781b90046001600160801b031615155b1561192b5761192b60006001613339565b60cf5433600081815260cb60209081526040918290208054835187815261ffff96871693810184905292959194911685149290917f0c53c82ad07e2d592d88ece3b066777dd60f1118e2a081b380efc4358f0d9e2a910160405180910390a281546201000090046001600160801b0316600082156119b4576119ad828761332d565b9050611a17565b81156119f65760405162461bcd60e51b81526020600482015260116024820152704578697374696e6720776974686472617760781b6044820152606401610ffc565b5033600090815260cb60205260409020805461ffff191661ffff8616179055845b611a2081613bd5565b33600090815260cb6020526040812080546001600160801b03808516620100000262010000600160901b03199092169190911790915560d054611a6c91600160801b909104168861332d565b9050611a7781613bd5565b60d080546001600160801b03808416600160801b029116179055611a9c333089613047565b5050600180555050505050565b6060609b8054610f229061511d565b6000611aed611ac660995490565b611ace611c92565b60d05460cc546001600160801b0390911690610100900460ff16613af9565b905090565b60026001541415611b155760405162461bcd60e51b8152600401610ffc90614ec3565b600260015580611b545760405162461bcd60e51b815260206004820152600a602482015269216e756d526f756e647360b01b6044820152606401610ffc565b60cf5461ffff1660005b82811015611be3576000611b728284614f98565b600081815260ca602052604090205490915015611bbf5760405162461bcd60e51b815260206004820152600b60248201526a125b9a5d1a585b1a5e995960aa1b6044820152606401610ffc565b600090815260ca602052604090206001905580611bdb81615152565b915050611b5e565b50506001805550565b3360009081526098602090815260408083206001600160a01b038616845290915281205482811015611c6e5760405162461bcd60e51b815260206004820152602560248201527f45524332303a2064656372656173656420616c6c6f77616e63652062656c6f77604482015264207a65726f60d81b6064820152608401610ffc565b611c7b3385858403612adc565b5060019392505050565b6000610fb2338484613047565b60cc546040516370a0823160e01b8152306004820152600091611aed91620100009091046001600160a01b0316906370a082319060240160206040518083038186803b158015611ce157600080fd5b505afa158015611cf5573d6000803e3d6000fd5b505050506040513d601f19601f82011682018060405250810190611d199190614bfe565b60cf546201000090046001600160681b03169061332d565b60026001541415611d545760405162461bcd60e51b8152600401610ffc90614ec3565b600260015580611d905760405162461bcd60e51b815260206004820152600760248201526608585b5bdd5b9d60ca1b6044820152606401610ffc565b611d9a81336137fc565b60cc54611db8906201000090046001600160a01b0316333084613a8e565b5060018055565b6065546001600160a01b03163314611de95760405162461bcd60e51b8152600401610ffc90614e8e565b60008161ffff16118015611e0b5750611e046064600a6150bb565b8161ffff16105b611e4c5760405162461bcd60e51b815260206004820152601260248201527124b73b30b634b21030b63637b1b0ba34b7b760711b6044820152606401610ffc565b60f6546040805191825261ffff831660208301527f7b7f7a8590418227574bbbbf9b7f3a6ac2e590f0613ded320769210d39b4b283910160405180910390a161ffff1660f655565b6000806000611ea2846128a6565b909250905061166e828261332d565b6065546001600160a01b03163314611edb5760405162461bcd60e51b8152600401610ffc90614e8e565b6001600160a01b038116611f1e5760405162461bcd60e51b815260206004820152600a60248201526910b732bba5b2b2b832b960b11b6044820152606401610ffc565b60d480546001600160a01b0319166001600160a01b0392909216919091179055565b600054610100900460ff1680611f59575060005460ff16155b611f755760405162461bcd60e51b8152600401610ffc90614e40565b600054610100900460ff16158015611f97576000805461ffff19166101011790555b611fa78b8b8b8b8b8b8b89613c1f565b6001600160a01b038416611ffd5760405162461bcd60e51b815260206004820152601860248201527f215f636f756e746572706172747954686574615661756c7400000000000000006044820152606401610ffc565b60cc60000160029054906101000a90046001600160a01b03166001600160a01b0316846001600160a01b0316639fcc2d756040518163ffffffff1660e01b815260040160c06040518083038186803b15801561205857600080fd5b505afa15801561206c573d6000803e3d6000fd5b505050506040513d601f19601f820116820180604052508101906120909190614b1a565b604001516001600160a01b0316146120ea5760405162461bcd60e51b815260206004820152601f60248201527f215f636f756e746572706172747954686574615661756c743a206173736574006044820152606401610ffc565b60008311801561210457506121016064600a6150bb565b83105b6121455760405162461bcd60e51b815260206004820152601260248201527110afb7b83a34b7b720b63637b1b0ba34b7b760711b6044820152606401610ffc565b60f580546001600160a01b0319166001600160a01b03861617905560f68390558015612177576000805461ff00191690555b5050505050505050505050565b600260015414156121a75760405162461bcd60e51b8152600401610ffc90614ec3565b6002600155806121c95760405162461bcd60e51b8152600401610ffc90614e1c565b611db8816000613339565b6065546001600160a01b031633146121fe5760405162461bcd60e51b8152600401610ffc90614e8e565b6001600160a01b0381166122475760405162461bcd60e51b815260206004820152601060248201526f085b995dd19959549958da5c1a595b9d60821b6044820152606401610ffc565b60d3546001600160a01b03828116911614156122a55760405162461bcd60e51b815260206004820152601860248201527f4d757374206265206e657720666565526563697069656e7400000000000000006044820152606401610ffc565b60d380546001600160a01b0319166001600160a01b0392909216919091179055565b600260015414156122ea5760405162461bcd60e51b8152600401610ffc90614ec3565b600260015560f5546040516307cc423960e01b815260f8546001600160601b038082166004840152606082901c16602483015260c01c60448201526001600160a01b037f000000000000000000000000000000000000000000000000000000000000000081166064830152909116608482015273__$c4f279750f4bbb575ac7775e752dc00849$__906307cc42399060a40160006040518083038186803b15801561239457600080fd5b505af41580156123a8573d6000803e3d6000fd5b505050506117886000612f7f565b600260015414156123d95760405162461bcd60e51b8152600401610ffc90614ec3565b600260015560d25460f5546040805163a083ff1760e01b815290516001600160a01b0393841693600093169163a083ff17916004808301926060929190829003018186803b15801561242a57600080fd5b505afa15801561243e573d6000803e3d6000fd5b505050506040513d601f19601f820116820180604052508101906124629190614aa1565b5190506001600160a01b0381166124af5760405162461bcd60e51b8152602060048201526011602482015270085d1a195d185d985d5b1d18db1bdcd959607a1b6044820152606401610ffc565b6124b96001612f7f565b60d180546001600160a01b0319166001600160a01b03831617905560006124e24261038461332d565b905063ffffffff8111156125385760405162461bcd60e51b815260206004820152601860248201527f4f766572666c6f77206e6578744f7074696f6e526561647900000000000000006044820152606401610ffc565b60d280546001600160c01b031916600160a01b63ffffffff8416026001600160a01b03191617905560f75460cf80546cffffffffffffffffffffffffff60781b1916600160781b6001600160681b03909316929092029190911790556001600160a01b03831615611be35760cc54604051631bd1c68360e31b81526001600160a01b037f000000000000000000000000000000000000000000000000000000000000000081166004830152808616602483015262010000909204909116604482015260009073__$c4f279750f4bbb575ac7775e752dc00849$__9063de8e34189060640160206040518083038186803b15801561263457600080fd5b505af4158015612648573d6000803e3d6000fd5b505050506040513d601f19601f8201168201806040525081019061266c9190614bfe565b9050336001600160a01b0316846001600160a01b03167fbbdc6ffe3a5302a25b4ef9afc416a1b2b7c720da5eee6dc669eda4d9c63d82b9836040516126b391815260200190565b60405180910390a35050506001805550565b6065546001600160a01b031633146126ef5760405162461bcd60e51b8152600401610ffc90614e8e565b6001600160a01b0381166127545760405162461bcd60e51b815260206004820152602660248201527f4f776e61626c653a206e6577206f776e657220697320746865207a65726f206160448201526564647265737360d01b6064820152608401610ffc565b61275d81613b83565b50565b600260015414156127835760405162461bcd60e51b8152600401610ffc90614ec3565b600260015560cc547f00000000000000000000000000000000000000000000000000000000000000006001600160a01b039081166201000090920416146127f45760405162461bcd60e51b8152602060048201526005602482015264042ae8aa8960db1b6044820152606401610ffc565b6000341161282d5760405162461bcd60e51b81526020600482015260066024820152652176616c756560d01b6044820152606401610ffc565b61283734336137fc565b7f00000000000000000000000000000000000000000000000000000000000000006001600160a01b031663d0e30db0346040518263ffffffff1660e01b81526004016000604051808303818588803b15801561289257600080fd5b505af115801561153a573d6000803e3d6000fd5b6001600160a01b038116600090815260c9602090815260408083208151606081018352905461ffff81168083526201000082046001600160681b031694830194909452600160781b90046001600160801b031691810191909152829160011115612928575050506001600160a01b031660009081526097602052604081205491565b60cf54815161ffff908116600090815260ca602052604081205460cc54919361295e93869391169190610100900460ff16613e5e565b905061297f856001600160a01b031660009081526097602052604090205490565b9590945092505050565b600260015414156129ac5760405162461bcd60e51b8152600401610ffc90614ec3565b600260015560006129bb613ecf565b60f9549091506129d4906001600160801b031682613321565b60f980546001600160801b0319166001600160801b03929092169190911790555060018055565b6065546001600160a01b03163314612a255760405162461bcd60e51b8152600401610ffc90614e8e565b612a33620f424060646150bb565b8110612a7a5760405162461bcd60e51b8152602060048201526016602482015275496e76616c6964206d616e6167656d656e742066656560501b6044820152606401610ffc565b6000612a9763031ba309612a9184620f424061408c565b90614098565b60d65460408051918252602082018590529192507f4e874b007ab14f7e263baefd44951834c8266f4f224d1092e49e9c254354cc54910160405180910390a160d65550565b6001600160a01b038316612b3e5760405162461bcd60e51b8152602060048201526024808201527f45524332303a20617070726f76652066726f6d20746865207a65726f206164646044820152637265737360e01b6064820152608401610ffc565b6001600160a01b038216612b9f5760405162461bcd60e51b815260206004820152602260248201527f45524332303a20617070726f766520746f20746865207a65726f206164647265604482015261737360f01b6064820152608401610ffc565b6001600160a01b0383811660008181526098602090815260408083209487168084529482529182902085905590518481527f8c5be1e5ebec7d5bd14f71427d1e84f3dd0314c0f7b2291e5b200ac8c7c3b92591015b60405180910390a3505050565b60d25460009081908190600160a01b900463ffffffff16421015612c505760405162461bcd60e51b815260206004820152600660248201526521726561647960d01b6044820152606401610ffc565b60d1546001600160a01b0316925082612c995760405162461bcd60e51b815260206004820152600b60248201526a10b732bc3a27b83a34b7b760a91b6044820152606401610ffc565b60d3546040805160c08101825260cc54610100810460ff16825291516370a0823160e01b81523060048201526001600160a01b039384169360009384938493849373__$c4f279750f4bbb575ac7775e752dc00849$__9363633c14269360cf939092602084019262010000900416906370a082319060240160206040518083038186803b158015612d2957600080fd5b505afa158015612d3d573d6000803e3d6000fd5b505050506040513d601f19601f82011682018060405250810190612d619190614bfe565b8152602001612d6f60995490565b815260208082018f905260d55460408084019190915260d65460609384015280516001600160e01b031960e088901b16815260048101959095528351602486015290830151604485015282015160648401528101516084830152608081015160a483015260a0015160c482015260e40160c06040518083038186803b158015612df757600080fd5b505af4158015612e0b573d6000803e3d6000fd5b505050506040513d601f19601f82011682018060405250810190612e2f9190614c3a565b809750819850829950839650849b50859c505050505050508760d160010160006101000a8154816001600160a01b0302191690836001600160a01b03160217905550600060d160000160006101000a8154816001600160a01b0302191690836001600160a01b03160217905550600060cf60000160009054906101000a900461ffff1661ffff1690508160ca600083815260200190815260200160002081905550856001600160a01b03167f0a242f7ecaf711036ca770774ceffae28e60ef042ac113ddd187f2631db0c006858584604051612f1e939291909283526020830191909152604082015260600190565b60405180910390a260d080546001600160801b0319169055612f41816001614f98565b60cf805461ffff191661ffff9290921691909117905550612f64905030846140a4565b8015612f7457612f74848261369b565b505050509193909250565b60cf5461ffff16811580612fa25750600081815260ca6020526040902054600110155b1561304357613033612fb360995490565b60cc546040516370a0823160e01b8152306004820152620100009091046001600160a01b0316906370a082319060240160206040518083038186803b158015612ffb57600080fd5b505afa15801561300f573d6000803e3d6000fd5b505050506040513d601f19601f82011682018060405250810190611ace9190614bfe565b600082815260ca60205260409020555b5050565b6001600160a01b0383166130ab5760405162461bcd60e51b815260206004820152602560248201527f45524332303a207472616e736665722066726f6d20746865207a65726f206164604482015264647265737360d81b6064820152608401610ffc565b6001600160a01b03821661310d5760405162461bcd60e51b815260206004820152602360248201527f45524332303a207472616e7366657220746f20746865207a65726f206164647260448201526265737360e81b6064820152608401610ffc565b6001600160a01b038316600090815260976020526040902054818110156131855760405162461bcd60e51b815260206004820152602660248201527f45524332303a207472616e7366657220616d6f756e7420657863656564732062604482015265616c616e636560d01b6064820152608401610ffc565b6001600160a01b038085166000908152609760205260408082208585039055918516815290812080548492906131bc908490614f98565b92505081905550826001600160a01b0316846001600160a01b03167fddf252ad1be2c89b69c2b068fc378daa952ba7f163c4a11628f55a4df523b3ef8460405161320891815260200190565b60405180910390a35b50505050565b33600090815260c96020526040812060cf54815483929161ffff9182169116148015613252575080546201000090046001600160681b031615155b1561331857805461ffff8116600090815260ca602052604081205460cc54919261329592620100009091046001600160681b03169190610100900460ff16614183565b905060006132a382876141e6565b90506132d76132b28383613321565b845461ffff16600090815260ca602052604090205460cc54610100900460ff16613639565b83546001600160681b039190911662010000026effffffffffffffffffffffffff0000199091161783558061330c8782613321565b94509450505050915091565b50600093915050565b600061139b82846150da565b600061139b8284614f98565b33600090815260c9602090815260408083208151606081018352905461ffff8082168084526201000083046001600160681b031684870152600160781b9092046001600160801b03168385015260cf5491865260ca9094529184205460cc54919492909316926133b49185918591610100900460ff16613e5e565b9050836133c157846133c3565b805b9450846133d1575050505050565b808511156134155760405162461bcd60e51b81526020600482015260116024820152704578636565647320617661696c61626c6560781b6044820152606401610ffc565b825161ffff168211156134485733600090815260c96020526040902080546effffffffffffffffffffffffff0000191690555b61345185613bd5565b61345b8186613321565b33600081815260c960205260409081902080546001600160801b0394909416600160781b02600160781b600160f81b0319909416939093179092558451915190917fe5b754fb1abb7f01b499791d0b820ae3b6af3424ac1c59768edb53f4ec31a929916134d49189825261ffff16602082015260400190565b60405180910390a26134e7303387613047565b5050505050565b6001600160a01b03821661354e5760405162461bcd60e51b815260206004820152602160248201527f45524332303a206275726e2066726f6d20746865207a65726f206164647265736044820152607360f81b6064820152608401610ffc565b6001600160a01b038216600090815260976020526040902054818110156135c25760405162461bcd60e51b815260206004820152602260248201527f45524332303a206275726e20616d6f756e7420657863656564732062616c616e604482015261636560f01b6064820152608401610ffc565b6001600160a01b03831660009081526097602052604081208383039055609980548492906135f19084906150da565b90915550506040518281526000906001600160a01b038516907fddf252ad1be2c89b69c2b068fc378daa952ba7f163c4a11628f55a4df523b3ef90602001612bf4565b505050565b6000600183116136835760405162461bcd60e51b8152602060048201526015602482015274496e76616c6964206173736574506572536861726560581b6044820152606401610ffc565b61166e61369183600a615013565b612a91868661408c565b60cc546001600160a01b03620100009091048116907f0000000000000000000000000000000000000000000000000000000000000000168114156137e857604051632e1a7d4d60e01b8152600481018390527f00000000000000000000000000000000000000000000000000000000000000006001600160a01b031690632e1a7d4d90602401600060405180830381600087803b15801561373b57600080fd5b505af115801561374f573d6000803e3d6000fd5b505050506000836001600160a01b03168360405160006040518083038185875af1925050503d80600081146137a0576040519150601f19603f3d011682016040523d82523d6000602084013e6137a5565b606091505b50509050806132115760405162461bcd60e51b815260206004820152600f60248201526e151c985b9cd9995c8819985a5b1959608a1b6044820152606401610ffc565b6136346001600160a01b03821684846141fc565b60cf5461ffff16600061381784613811611c92565b9061332d565b60ce549091506001600160681b03168111156138625760405162461bcd60e51b815260206004820152600a6024820152690457863656564206361760b41b6044820152606401610ffc565b60cd54600160a01b900466ffffffffffffff168110156138bb5760405162461bcd60e51b8152602060048201526014602482015273496e73756666696369656e742062616c616e636560601b6044820152606401610ffc565b60408051858152602081018490526001600160a01b038516917f90890809c654f11d6e72a28fa60149770a0d11ec6c92319d6ceb2bb0a4ea1a15910160405180910390a26001600160a01b038316600090815260c9602090815260408083208151606081018352905461ffff81168083526201000082046001600160681b031683860152600160781b9091046001600160801b031682840152845260ca90925282205460cc5491929161397a918491879190610100900460ff16613e5e565b8251909150869061ffff168514156139ab5760208301516000906139a7906001600160681b03168961332d565b9150505b6139b481613b39565b6040805160608101825261ffff80881682526001600160681b0380851660208085019182526001600160801b038089168688019081526001600160a01b038e16600090815260c990935296822095518654935197518216600160781b02600160781b600160f81b03199890951662010000026effffffffffffffffffffffffffffff1990941695169490941791909117949094161790915560d054613a5a91168961332d565b9050613a6581613bd5565b60d080546001600160801b0319166001600160801b039290921691909117905550505050505050565b6040516001600160a01b03808516602483015283166044820152606481018290526132119085906323b872dd60e01b906084015b60408051601f198184030181529190526020810180516001600160e01b03166001600160e01b03199093169290921790915261422c565b600080613b0783600a615013565b905060008611613b175780613b2f565b613b2f86612a91613b288888613321565b849061408c565b9695505050505050565b6001600160681b0381111561275d5760405162461bcd60e51b815260206004820152601060248201526f13dd995c999b1bddc81d5a5b9d0c4c0d60821b6044820152606401610ffc565b606580546001600160a01b038381166001600160a01b0319831681179093556040519116919082907f8be0079c531659141344cd1fd0a4f28419497f9722a3daafe3b4186f6b6457e090600090a35050565b6001600160801b0381111561275d5760405162461bcd60e51b815260206004820152601060248201526f09eeccae4ccd8deee40ead2dce86264760831b6044820152606401610ffc565b600054610100900460ff1680613c38575060005460ff16155b613c545760405162461bcd60e51b8152600401610ffc90614e40565b600054610100900460ff16158015613c76576000805461ffff19166101011790555b60405163c72733f760e01b815273__$c4f279750f4bbb575ac7775e752dc00849$__9063c72733f790613cbb908c908c908c908b908d908c908c908c90600401614d0f565b60006040518083038186803b158015613cd357600080fd5b505af4158015613ce7573d6000803e3d6000fd5b50505050613cf36142fe565b613cfd8484614371565b613d056143f0565b613d0e896126c5565b60d480546001600160a01b03808b166001600160a01b03199283161790925560d38054928a169290911691909117905560d5859055613d5863031ba309612a9188620f424061408c565b60d6558160cc613d6882826151c0565b505060cc546040516370a0823160e01b81523060048201526000916201000090046001600160a01b0316906370a082319060240160206040518083038186803b158015613db457600080fd5b505afa158015613dc8573d6000803e3d6000fd5b505050506040513d601f19601f82011682018060405250810190613dec9190614bfe565b9050613df781613b39565b60cf805461ffff196001600160681b03909316600160781b02929092167fffffffff00000000000000000000000000ffffffffffffffffffffffffff00009092169190911760011790558015613e53576000805461ff00191690555b505050505050505050565b835160009061ffff1615801590613e795750845161ffff1684115b15613ebb576000613e9886602001516001600160681b03168585614183565b6040870151909150613eb3906001600160801b03168261332d565b91505061166e565b50505050604001516001600160801b031690565b33600090815260cb6020526040812080546001600160801b03620100008204169061ffff1681613f315760405162461bcd60e51b815260206004820152600d60248201526c139bdd081a5b9a5d1a585d1959609a1b6044820152606401610ffc565b60cf5461ffff168110613f795760405162461bcd60e51b815260206004820152601060248201526f149bdd5b99081b9bdd0818db1bdcd95960821b6044820152606401610ffc565b33600090815260cb60205260409020805462010000600160901b031916905560d054613fb590600160801b90046001600160801b031683613321565b60d080546001600160801b03928316600160801b029216919091179055600081815260ca602052604081205460cc54613ff891859160ff61010090910416613639565b604080518281526020810186905291925033917ff279e6a1f5e320cca91135676d9cb6e44ca8a08c0b88342bcdb1144f6511b568910160405180910390a261404030846134ee565b600081116140825760405162461bcd60e51b815260206004820152600f60248201526e085dda5d1a191c985dd05b5bdd5b9d608a1b6044820152606401610ffc565b61166e338261369b565b600061139b82846150bb565b600061139b8284614fb0565b6001600160a01b0382166140fa5760405162461bcd60e51b815260206004820152601f60248201527f45524332303a206d696e7420746f20746865207a65726f2061646472657373006044820152606401610ffc565b806099600082825461410c9190614f98565b90915550506001600160a01b03821660009081526097602052604081208054839290614139908490614f98565b90915550506040518181526001600160a01b038316906000907fddf252ad1be2c89b69c2b068fc378daa952ba7f163c4a11628f55a4df523b3ef9060200160405180910390a35050565b6000600183116141cd5760405162461bcd60e51b8152602060048201526015602482015274496e76616c6964206173736574506572536861726560581b6044820152606401610ffc565b61166e83612a916141df85600a615013565b879061408c565b60008183106141f5578161139b565b5090919050565b6040516001600160a01b03831660248201526044810182905261363490849063a9059cbb60e01b90606401613ac2565b6000614281826040518060400160405280602081526020017f5361666545524332303a206c6f772d6c6576656c2063616c6c206661696c6564815250856001600160a01b03166144579092919063ffffffff16565b805190915015613634578080602001905181019061429f9190614a85565b6136345760405162461bcd60e51b815260206004820152602a60248201527f5361666545524332303a204552433230206f7065726174696f6e20646964206e6044820152691bdd081cdd58d8d9595960b21b6064820152608401610ffc565b600054610100900460ff1680614317575060005460ff16155b6143335760405162461bcd60e51b8152600401610ffc90614e40565b600054610100900460ff16158015614355576000805461ffff19166101011790555b61435d614466565b801561275d576000805461ff001916905550565b600054610100900460ff168061438a575060005460ff16155b6143a65760405162461bcd60e51b8152600401610ffc90614e40565b600054610100900460ff161580156143c8576000805461ffff19166101011790555b6143d06144d5565b6143da838361453f565b8015613634576000805461ff0019169055505050565b600054610100900460ff1680614409575060005460ff16155b6144255760405162461bcd60e51b8152600401610ffc90614e40565b600054610100900460ff16158015614447576000805461ffff19166101011790555b61444f6144d5565b61435d6145d4565b606061166e8484600085614634565b600054610100900460ff168061447f575060005460ff16155b61449b5760405162461bcd60e51b8152600401610ffc90614e40565b600054610100900460ff161580156144bd576000805461ffff19166101011790555b60018055801561275d576000805461ff001916905550565b600054610100900460ff16806144ee575060005460ff16155b61450a5760405162461bcd60e51b8152600401610ffc90614e40565b600054610100900460ff1615801561435d576000805461ffff1916610101179055801561275d576000805461ff001916905550565b600054610100900460ff1680614558575060005460ff16155b6145745760405162461bcd60e51b8152600401610ffc90614e40565b600054610100900460ff16158015614596576000805461ffff19166101011790555b82516145a990609a906020860190614795565b5081516145bd90609b906020850190614795565b508015613634576000805461ff0019169055505050565b600054610100900460ff16806145ed575060005460ff16155b6146095760405162461bcd60e51b8152600401610ffc90614e40565b600054610100900460ff1615801561462b576000805461ffff19166101011790555b61435d33613b83565b6060824710156146955760405162461bcd60e51b815260206004820152602660248201527f416464726573733a20696e73756666696369656e742062616c616e636520666f6044820152651c8818d85b1b60d21b6064820152608401610ffc565b843b6146e35760405162461bcd60e51b815260206004820152601d60248201527f416464726573733a2063616c6c20746f206e6f6e2d636f6e74726163740000006044820152606401610ffc565b600080866001600160a01b031685876040516146ff9190614cf3565b60006040518083038185875af1925050503d806000811461473c576040519150601f19603f3d011682016040523d82523d6000602084013e614741565b606091505b509150915061475182828661475c565b979650505050505050565b6060831561476b57508161139b565b82511561477b5782518084602001fd5b8160405162461bcd60e51b8152600401610ffc9190614e09565b8280546147a19061511d565b90600052602060002090601f0160209004810192826147c35760008555614809565b82601f106147dc57805160ff1916838001178555614809565b82800160010185558215614809579182015b828111156148095782518255916020019190600101906147ee565b50614815929150614819565b5090565b5b80821115614815576000815560010161481a565b8035614839816152d1565b919050565b600082601f83011261484e578081fd5b813567ffffffffffffffff8082111561486957614869615183565b604051601f8301601f19908116603f0116810190828211818310171561489157614891615183565b816040528381528660208588010111156148a9578485fd5b8360208701602083013792830160200193909352509392505050565b600060c082840312156148d6578081fd5b50919050565b8035614839816152f4565b803561483981615309565b600060208284031215614903578081fd5b813561139b816152d1565b60008060408385031215614920578081fd5b823561492b816152d1565b9150602083013561493b816152d1565b809150509250929050565b6000806000806000806000806000806101e08b8d031215614965578586fd5b61496e8b61482e565b995061497c60208c0161482e565b985061498a60408c0161482e565b975060608b0135965060808b0135955060a08b013567ffffffffffffffff808211156149b4578687fd5b6149c08e838f0161483e565b965060c08d01359150808211156149d5578586fd5b506149e28d828e0161483e565b9450506149f160e08c0161482e565b92506101008b01359150614a098c6101208d016148c5565b90509295989b9194979a5092959850565b600080600060608486031215614a2e578283fd5b8335614a39816152d1565b92506020840135614a49816152d1565b929592945050506040919091013590565b60008060408385031215614a6c578182fd5b8235614a77816152d1565b946020939093013593505050565b600060208284031215614a96578081fd5b815161139b816152e6565b600060608284031215614ab2578081fd5b6040516060810181811067ffffffffffffffff82111715614ad557614ad5615183565b6040528251614ae3816152d1565b81526020830151614af3816152d1565b6020820152604083015163ffffffff81168114614b0e578283fd5b60408201529392505050565b600060c08284031215614b2b578081fd5b60405160c0810181811067ffffffffffffffff82111715614b4e57614b4e615183565b6040528251614b5c816152e6565b81526020830151614b6c8161531e565b60208201526040830151614b7f816152d1565b60408201526060830151614b92816152d1565b60608201526080830151614ba581615309565b608082015260a0830151614bb8816152f4565b60a08201529392505050565b600060208284031215614bd5578081fd5b813561ffff8116811461139b578182fd5b600060208284031215614bf7578081fd5b5035919050565b600060208284031215614c0f578081fd5b5051919050565b60008060408385031215614c28578182fd5b82359150602083013561493b816152d1565b60008060008060008060c08789031215614c52578384fd5b865195506020870151945060408701519350606087015192506080870151915060a087015190509295509295509295565b600080600060608486031215614c97578081fd5b8351925060208401519150604084015167ffffffffffffffff81168114614cbc578182fd5b809150509250925092565b60008151808452614cdf8160208601602086016150f1565b601f01601f19169290920160200192915050565b60008251614d058184602087016150f1565b9190910192915050565b60006101a060018060a01b03808c168452808b166020850152808a1660408501528860608501528760808501528160a0850152614d4e82850188614cc7565b915083820360c0850152614d628287614cc7565b925084359150614d71826152e6565b90151560e0840152602084013590614d888261531e565b60ff821661010085015260408501359150614da2826152d1565b16610120830152614db56060840161482e565b6001600160a01b0316610140830152614dd0608084016148e7565b66ffffffffffffff16610160830152614deb60a084016148dc565b6001600160681b038116610180840152509998505050505050505050565b60208152600061139b6020830184614cc7565b6020808252600a9082015269216e756d53686172657360b01b604082015260600190565b6020808252602e908201527f496e697469616c697a61626c653a20636f6e747261637420697320616c72656160408201526d191e481a5b9a5d1a585b1a5e995960921b606082015260800190565b6020808252818101527f4f776e61626c653a2063616c6c6572206973206e6f7420746865206f776e6572604082015260600190565b6020808252601f908201527f5265656e7472616e637947756172643a207265656e7472616e742063616c6c00604082015260600190565b81516001600160a01b03168152602080830151610120830191614f27908401826001600160a01b03169052565b506040830151614f4260408401826001600160a01b03169052565b50606083015160608301526080830151608083015260a083015160a083015260c083015160c083015260e083015160e083015261010080840151614f90828501826001600160a01b03169052565b505092915050565b60008219821115614fab57614fab61516d565b500190565b600082614fcb57634e487b7160e01b81526012600452602481fd5b500490565b600181815b8085111561500b578160001904821115614ff157614ff161516d565b80851615614ffe57918102915b93841c9390800290614fd5565b509250929050565b600061139b838360008261502957506001610fb6565b8161503657506000610fb6565b816001811461504c576002811461505657615072565b6001915050610fb6565b60ff8411156150675761506761516d565b50506001821b610fb6565b5060208310610133831016604e8410600b8410161715615095575081810a610fb6565b61509f8383614fd0565b80600019048211156150b3576150b361516d565b029392505050565b60008160001904831182151516156150d5576150d561516d565b500290565b6000828210156150ec576150ec61516d565b500390565b60005b8381101561510c5781810151838201526020016150f4565b838111156132115750506000910152565b600181811c9082168061513157607f821691505b602082108114156148d657634e487b7160e01b600052602260045260246000fd5b60006000198214156151665761516661516d565b5060010190565b634e487b7160e01b600052601160045260246000fd5b634e487b7160e01b600052604160045260246000fd5b60008135610fb6816152d1565b60008135610fb6816152f4565b60008135610fb681615309565b81356151cb816152e6565b815460ff19811691151560ff16918217835560208401356151eb8161531e565b61ff008160081b169050808361ffff19841617178455604085013561520f816152d1565b6001600160b01b0319929092169092179190911760109190911b62010000600160b01b03161781556001810161526761524a60608501615199565b82546001600160a01b0319166001600160a01b0391909116178255565b6152a0615276608085016151b3565b82805466ffffffffffffff60a01b191660a09290921b66ffffffffffffff60a01b16919091179055565b506130436152b060a084016151a6565b600283016001600160681b0382166001600160681b03198254161781555050565b6001600160a01b038116811461275d57600080fd5b801515811461275d57600080fd5b6001600160681b038116811461275d57600080fd5b66ffffffffffffff8116811461275d57600080fd5b60ff8116811461275d57600080fdfea264697066735822122095257ae56316e82579d1a51f7f5adb5fc4c97d49fc3d66c87b241f1761e629ed64736f6c63430008040033",
  "libraries": {
    "VaultLifecycle": "0xe0854DDD162ffE4E2fF1DB6E62b544521cB9223e"
  },
  "devdoc": {
    "kind": "dev",
    "methods": {
      "accountVaultBalance(address)": {
        "params": {
          "account": "is the address to lookup balance for"
        },
        "returns": {
          "_0": "the amount of `asset` custodied by the vault for the user"
        }
      },
      "allowance(address,address)": {
        "details": "See {IERC20-allowance}."
      },
      "approve(address,uint256)": {
        "details": "See {IERC20-approve}. Requirements: - `spender` cannot be the zero address."
      },
      "balanceOf(address)": {
        "details": "See {IERC20-balanceOf}."
      },
      "constructor": {
        "params": {
          "_gammaController": "is the contract address for opyn actions",
          "_gnosisEasyAuction": "is the contract address that facilitates gnosis auctions",
          "_marginPool": "is the contract address for providing collateral to opyn",
          "_uniswapFactory": "is the contract address of UniswapV3 factory containing pools information",
          "_uniswapRouter": "is the contract address of UniswapV3 router that handles swaps",
          "_usdc": "is the USDC contract",
          "_weth": "is the Wrapped Ether contract"
        }
      },
      "decreaseAllowance(address,uint256)": {
        "details": "Atomically decreases the allowance granted to `spender` by the caller. This is an alternative to {approve} that can be used as a mitigation for problems described in {IERC20-approve}. Emits an {Approval} event indicating the updated allowance. Requirements: - `spender` cannot be the zero address. - `spender` must have allowance for the caller of at least `subtractedValue`."
      },
      "deposit(uint256)": {
        "params": {
          "amount": "is the amount of `asset` to deposit"
        }
      },
      "depositFor(uint256,address)": {
        "params": {
          "amount": "is the amount of `asset` to deposit",
          "creditor": "is the address that can claim/withdraw deposited amount"
        }
      },
      "increaseAllowance(address,uint256)": {
        "details": "Atomically increases the allowance granted to `spender` by the caller. This is an alternative to {approve} that can be used as a mitigation for problems described in {IERC20-approve}. Emits an {Approval} event indicating the updated allowance. Requirements: - `spender` cannot be the zero address."
      },
      "initialize(address,address,address,uint256,uint256,string,string,address,uint256,(bool,uint8,address,address,uint56,uint104))": {
        "params": {
          "_counterpartyThetaVault": "is the address of the counterparty theta vault of this delta vault",
          "_feeRecipient": "is the address to recieve vault performance and management fees",
          "_managementFee": "is the management fee pct.",
          "_optionAllocation": "is the pct of the funds to allocate towards the weekly option",
          "_owner": "is the owner of the vault with critical permissions",
          "_performanceFee": "is the perfomance fee pct.",
          "_tokenName": "is the name of the token",
          "_tokenSymbol": "is the symbol of the token",
          "_vaultParams": "is the struct with vault general data"
        }
      },
      "initiateWithdraw(uint256)": {
        "params": {
          "numShares": "is the number of shares to withdraw"
        }
      },
      "name()": {
        "details": "Returns the name of the token."
      },
      "owner()": {
        "details": "Returns the address of the current owner."
      },
      "redeem(uint256)": {
        "params": {
          "numShares": "is the number of shares to redeem"
        }
      },
      "renounceOwnership()": {
        "details": "Leaves the contract without owner. It will not be possible to call `onlyOwner` functions anymore. Can only be called by the current owner. NOTE: Renouncing ownership will leave the contract without an owner, thereby removing any functionality that is only available to the owner."
      },
      "rollToNextOption(uint256)": {
        "params": {
          "optionPremium": "is the premium per token to pay in `asset`. Same decimals as `asset` (ex: 1 * 10 ** 8 means 1 WBTC per oToken)"
        }
      },
      "setCap(uint256)": {
        "params": {
          "newCap": "is the new cap for deposits"
        }
      },
      "setFeeRecipient(address)": {
        "params": {
          "newFeeRecipient": "is the address of the new fee recipient"
        }
      },
      "setManagementFee(uint256)": {
        "params": {
          "newManagementFee": "is the management fee (6 decimals). ex: 2 * 10 ** 6 = 2%"
        }
      },
      "setNewKeeper(address)": {
        "params": {
          "newKeeper": "is the address of the new keeper"
        }
      },
      "setOptionAllocation(uint16)": {
        "params": {
          "newOptionAllocation": "is the option % allocation"
        }
      },
      "setPerformanceFee(uint256)": {
        "params": {
          "newPerformanceFee": "is the performance fee (6 decimals). ex: 20 * 10 ** 6 = 20%"
        }
      },
      "shareBalances(address)": {
        "params": {
          "account": "is the account to lookup share balance for"
        },
        "returns": {
          "heldByAccount": "is the shares held by account",
          "heldByVault": "is the shares held on the vault (unredeemedShares)"
        }
      },
      "shares(address)": {
        "params": {
          "account": "is the account to lookup share balance for"
        },
        "returns": {
          "_0": "the share balance"
        }
      },
      "symbol()": {
        "details": "Returns the symbol of the token, usually a shorter version of the name."
      },
      "totalBalance()": {
        "returns": {
          "_0": "total balance of the vault, including the amounts locked in third party protocols"
        }
      },
      "totalSupply()": {
        "details": "See {IERC20-totalSupply}."
      },
      "transfer(address,uint256)": {
        "details": "See {IERC20-transfer}. Requirements: - `recipient` cannot be the zero address. - the caller must have a balance of at least `amount`."
      },
      "transferFrom(address,address,uint256)": {
        "details": "See {IERC20-transferFrom}. Emits an {Approval} event indicating the updated allowance. This is not required by the EIP. See the note at the beginning of {ERC20}. Requirements: - `sender` and `recipient` cannot be the zero address. - `sender` must have a balance of at least `amount`. - the caller must have allowance for ``sender``'s tokens of at least `amount`."
      },
      "transferOwnership(address)": {
        "details": "Transfers ownership of the contract to a new account (`newOwner`). Can only be called by the current owner."
      },
      "withdrawInstantly(uint256)": {
        "params": {
          "share": "is the amount of shares to withdraw"
        }
      }
    },
    "version": 1
  },
  "userdoc": {
    "kind": "user",
    "methods": {
      "DELAY()": {
        "notice": "15 minute timelock between commitAndClose and rollToNexOption."
      },
      "PERIOD()": {
        "notice": "7 day period between each options sale."
      },
      "USDC()": {
        "notice": "USDC 0xA0b86991c6218b36c1d19D4a2e9Eb0cE3606eB48"
      },
      "WETH()": {
        "notice": "WETH9 0xC02aaA39b223FE8D0A0e5C4F27eAD9083C756Cc2"
      },
      "accountVaultBalance(address)": {
        "notice": "Returns the asset balance held on the vault for the account"
      },
      "claimAuctionOtokens()": {
        "notice": "Claims the delta vault's oTokens from latest auction"
      },
      "commitAndClose()": {
        "notice": "Closes the existing long position for the vault.         This allows all the users to withdraw if the next option is malicious."
      },
      "completeWithdraw()": {
        "notice": "Completes a scheduled withdrawal from a past round. Uses finalized pps for the round"
      },
      "constructor": {
        "notice": "Initializes the contract with immutable variables"
      },
      "decimals()": {
        "notice": "Returns the token decimals"
      },
      "deposit(uint256)": {
        "notice": "Deposits the `asset` from msg.sender."
      },
      "depositETH()": {
        "notice": "Deposits ETH into the contract and mint vault shares. Reverts if the asset is not WETH."
      },
      "depositFor(uint256,address)": {
        "notice": "Deposits the `asset` from msg.sender added to `creditor`'s deposit.Used for vault -> vault deposits on the user's behalf"
      },
      "depositReceipts(address)": {
        "notice": "Stores the user's pending deposit for the round"
      },
      "feeRecipient()": {
        "notice": "Fee recipient for the performance and management fees"
      },
      "initialize(address,address,address,uint256,uint256,string,string,address,uint256,(bool,uint8,address,address,uint56,uint104))": {
        "notice": "Initializes the OptionVault contract with storage variables."
      },
      "initiateWithdraw(uint256)": {
        "notice": "Initiates a withdrawal that can be processed once the round completes"
      },
      "keeper()": {
        "notice": "role in charge of weekly vault operations such as rollToNextOption and burnRemainingOTokens"
      },
      "managementFee()": {
        "notice": "Management fee charged on entire AUM in rollToNextOption. Only charged when there is no loss."
      },
      "maxRedeem()": {
        "notice": "Redeems the entire unredeemedShares balance that is owed to the account"
      },
      "optionState()": {
        "notice": "Vault's state of the options sold and the timelocked option"
      },
      "performanceFee()": {
        "notice": "Performance fee charged on premiums earned in rollToNextOption. Only charged when there is no loss."
      },
      "pricePerShare()": {
        "notice": "The price of a unit of share denominated in the `asset`"
      },
      "redeem(uint256)": {
        "notice": "Redeems shares that are owed to the account"
      },
      "rollToNextOption(uint256)": {
        "notice": "Rolls the vault's funds into a new long position."
      },
      "roundPricePerShare(uint256)": {
        "notice": "On every round's close, the pricePerShare value of an rTHETA token is stored This is used to determine the number of shares to be returned to a user with their DepositReceipt.depositAmount"
      },
      "setCap(uint256)": {
        "notice": "Sets a new cap for deposits"
      },
      "setFeeRecipient(address)": {
        "notice": "Sets the new fee recipient"
      },
      "setManagementFee(uint256)": {
        "notice": "Sets the management fee for the vault"
      },
      "setNewKeeper(address)": {
        "notice": "Sets the new keeper"
      },
      "setOptionAllocation(uint16)": {
        "notice": "Sets the new % allocation of funds towards options purchases (2 decimals. ex: 10 * 10**2 is 10%) 0 < newOptionAllocation < 1000. 1000 = 10%."
      },
      "setPerformanceFee(uint256)": {
        "notice": "Sets the performance fee for the vault"
      },
      "shareBalances(address)": {
        "notice": "Getter for returning the account's share balance split between account and vault holdings"
      },
      "shares(address)": {
        "notice": "Getter for returning the account's share balance including unredeemed shares"
      },
      "totalBalance()": {
        "notice": "Returns the vault's total balance, including the amounts locked into a short position"
      },
      "vaultParams()": {
        "notice": "Vault's parameters like cap, decimals"
      },
      "vaultState()": {
        "notice": "Vault's lifecycle state like round and locked amounts"
      },
      "withdrawInstantly(uint256)": {
        "notice": "Withdraws the assets on the vault using the outstanding `DepositReceipt.amount`"
      },
      "withdrawals(address)": {
        "notice": "Stores pending user withdrawals"
      }
    },
    "notice": "UPGRADEABILITY: Since we use the upgradeable proxy pattern, we must observe the inheritance chain closely. Any changes/appends in storage variable needs to happen in RibbonDeltaVaultStorage. RibbonDeltaVault should not inherit from any other contract aside from RibbonVault, RibbonDeltaVaultStorage",
    "version": 1
  },
  "storageLayout": {
    "storage": [
      {
        "astId": 130,
        "contract": "contracts/vaults/BaseVaults/RibbonDeltaVault.sol:RibbonDeltaVault",
        "label": "_initialized",
        "offset": 0,
        "slot": "0",
        "type": "t_bool"
      },
      {
        "astId": 133,
        "contract": "contracts/vaults/BaseVaults/RibbonDeltaVault.sol:RibbonDeltaVault",
        "label": "_initializing",
        "offset": 1,
        "slot": "0",
        "type": "t_bool"
      },
      {
        "astId": 184,
        "contract": "contracts/vaults/BaseVaults/RibbonDeltaVault.sol:RibbonDeltaVault",
        "label": "_status",
        "offset": 0,
        "slot": "1",
        "type": "t_uint256"
      },
      {
        "astId": 227,
        "contract": "contracts/vaults/BaseVaults/RibbonDeltaVault.sol:RibbonDeltaVault",
        "label": "__gap",
        "offset": 0,
        "slot": "2",
        "type": "t_array(t_uint256)49_storage"
      },
      {
        "astId": 947,
        "contract": "contracts/vaults/BaseVaults/RibbonDeltaVault.sol:RibbonDeltaVault",
        "label": "__gap",
        "offset": 0,
        "slot": "51",
        "type": "t_array(t_uint256)50_storage"
      },
      {
        "astId": 10,
        "contract": "contracts/vaults/BaseVaults/RibbonDeltaVault.sol:RibbonDeltaVault",
        "label": "_owner",
        "offset": 0,
        "slot": "101",
        "type": "t_address"
      },
      {
        "astId": 123,
        "contract": "contracts/vaults/BaseVaults/RibbonDeltaVault.sol:RibbonDeltaVault",
        "label": "__gap",
        "offset": 0,
        "slot": "102",
        "type": "t_array(t_uint256)49_storage"
      },
      {
        "astId": 247,
        "contract": "contracts/vaults/BaseVaults/RibbonDeltaVault.sol:RibbonDeltaVault",
        "label": "_balances",
        "offset": 0,
        "slot": "151",
        "type": "t_mapping(t_address,t_uint256)"
      },
      {
        "astId": 253,
        "contract": "contracts/vaults/BaseVaults/RibbonDeltaVault.sol:RibbonDeltaVault",
        "label": "_allowances",
        "offset": 0,
        "slot": "152",
        "type": "t_mapping(t_address,t_mapping(t_address,t_uint256))"
      },
      {
        "astId": 255,
        "contract": "contracts/vaults/BaseVaults/RibbonDeltaVault.sol:RibbonDeltaVault",
        "label": "_totalSupply",
        "offset": 0,
        "slot": "153",
        "type": "t_uint256"
      },
      {
        "astId": 257,
        "contract": "contracts/vaults/BaseVaults/RibbonDeltaVault.sol:RibbonDeltaVault",
        "label": "_name",
        "offset": 0,
        "slot": "154",
        "type": "t_string_storage"
      },
      {
        "astId": 259,
        "contract": "contracts/vaults/BaseVaults/RibbonDeltaVault.sol:RibbonDeltaVault",
        "label": "_symbol",
        "offset": 0,
        "slot": "155",
        "type": "t_string_storage"
      },
      {
        "astId": 800,
        "contract": "contracts/vaults/BaseVaults/RibbonDeltaVault.sol:RibbonDeltaVault",
        "label": "__gap",
        "offset": 0,
        "slot": "156",
        "type": "t_array(t_uint256)45_storage"
      },
      {
        "astId": 10821,
        "contract": "contracts/vaults/BaseVaults/RibbonDeltaVault.sol:RibbonDeltaVault",
        "label": "depositReceipts",
        "offset": 0,
        "slot": "201",
        "type": "t_mapping(t_address,t_struct(DepositReceipt)4933_storage)"
      },
      {
        "astId": 10826,
        "contract": "contracts/vaults/BaseVaults/RibbonDeltaVault.sol:RibbonDeltaVault",
        "label": "roundPricePerShare",
        "offset": 0,
        "slot": "202",
        "type": "t_mapping(t_uint256,t_uint256)"
      },
      {
        "astId": 10832,
        "contract": "contracts/vaults/BaseVaults/RibbonDeltaVault.sol:RibbonDeltaVault",
        "label": "withdrawals",
        "offset": 0,
        "slot": "203",
        "type": "t_mapping(t_address,t_struct(Withdrawal)4938_storage)"
      },
      {
        "astId": 10836,
        "contract": "contracts/vaults/BaseVaults/RibbonDeltaVault.sol:RibbonDeltaVault",
        "label": "vaultParams",
        "offset": 0,
        "slot": "204",
        "type": "t_struct(VaultParams)4908_storage"
      },
      {
        "astId": 10840,
        "contract": "contracts/vaults/BaseVaults/RibbonDeltaVault.sol:RibbonDeltaVault",
        "label": "vaultState",
        "offset": 0,
        "slot": "207",
        "type": "t_struct(VaultState)4926_storage"
      },
      {
        "astId": 10844,
        "contract": "contracts/vaults/BaseVaults/RibbonDeltaVault.sol:RibbonDeltaVault",
        "label": "optionState",
        "offset": 0,
        "slot": "209",
        "type": "t_struct(OptionState)4915_storage"
      },
      {
        "astId": 10847,
        "contract": "contracts/vaults/BaseVaults/RibbonDeltaVault.sol:RibbonDeltaVault",
        "label": "feeRecipient",
        "offset": 0,
        "slot": "211",
        "type": "t_address"
      },
      {
        "astId": 10850,
        "contract": "contracts/vaults/BaseVaults/RibbonDeltaVault.sol:RibbonDeltaVault",
        "label": "keeper",
        "offset": 0,
        "slot": "212",
        "type": "t_address"
      },
      {
        "astId": 10853,
        "contract": "contracts/vaults/BaseVaults/RibbonDeltaVault.sol:RibbonDeltaVault",
        "label": "performanceFee",
        "offset": 0,
        "slot": "213",
        "type": "t_uint256"
      },
      {
        "astId": 10856,
        "contract": "contracts/vaults/BaseVaults/RibbonDeltaVault.sol:RibbonDeltaVault",
        "label": "managementFee",
        "offset": 0,
        "slot": "214",
        "type": "t_uint256"
      },
      {
        "astId": 10860,
        "contract": "contracts/vaults/BaseVaults/RibbonDeltaVault.sol:RibbonDeltaVault",
        "label": "____gap",
        "offset": 0,
        "slot": "215",
        "type": "t_array(t_uint256)30_storage"
      },
      {
        "astId": 8275,
        "contract": "contracts/vaults/BaseVaults/RibbonDeltaVault.sol:RibbonDeltaVault",
        "label": "counterpartyThetaVault",
        "offset": 0,
        "slot": "245",
        "type": "t_contract(IRibbonThetaVault)3196"
      },
      {
        "astId": 8277,
        "contract": "contracts/vaults/BaseVaults/RibbonDeltaVault.sol:RibbonDeltaVault",
        "label": "optionAllocation",
        "offset": 0,
        "slot": "246",
        "type": "t_uint256"
      },
      {
        "astId": 8279,
        "contract": "contracts/vaults/BaseVaults/RibbonDeltaVault.sol:RibbonDeltaVault",
        "label": "balanceBeforePremium",
        "offset": 0,
        "slot": "247",
        "type": "t_uint256"
      },
      {
        "astId": 8282,
        "contract": "contracts/vaults/BaseVaults/RibbonDeltaVault.sol:RibbonDeltaVault",
        "label": "auctionSellOrder",
        "offset": 0,
        "slot": "248",
        "type": "t_struct(AuctionSellOrder)4945_storage"
      },
      {
        "astId": 8285,
        "contract": "contracts/vaults/BaseVaults/RibbonDeltaVault.sol:RibbonDeltaVault",
        "label": "lastQueuedWithdrawAmount",
        "offset": 0,
        "slot": "249",
        "type": "t_uint128"
      }
    ],
    "types": {
      "t_address": {
        "encoding": "inplace",
        "label": "address",
        "numberOfBytes": "20"
      },
      "t_array(t_uint256)30_storage": {
        "base": "t_uint256",
        "encoding": "inplace",
        "label": "uint256[30]",
        "numberOfBytes": "960"
      },
      "t_array(t_uint256)45_storage": {
        "base": "t_uint256",
        "encoding": "inplace",
        "label": "uint256[45]",
        "numberOfBytes": "1440"
      },
      "t_array(t_uint256)49_storage": {
        "base": "t_uint256",
        "encoding": "inplace",
        "label": "uint256[49]",
        "numberOfBytes": "1568"
      },
      "t_array(t_uint256)50_storage": {
        "base": "t_uint256",
        "encoding": "inplace",
        "label": "uint256[50]",
        "numberOfBytes": "1600"
      },
      "t_bool": {
        "encoding": "inplace",
        "label": "bool",
        "numberOfBytes": "1"
      },
      "t_contract(IRibbonThetaVault)3196": {
        "encoding": "inplace",
        "label": "contract IRibbonThetaVault",
        "numberOfBytes": "20"
      },
      "t_mapping(t_address,t_mapping(t_address,t_uint256))": {
        "encoding": "mapping",
        "key": "t_address",
        "label": "mapping(address => mapping(address => uint256))",
        "numberOfBytes": "32",
        "value": "t_mapping(t_address,t_uint256)"
      },
      "t_mapping(t_address,t_struct(DepositReceipt)4933_storage)": {
        "encoding": "mapping",
        "key": "t_address",
        "label": "mapping(address => struct Vault.DepositReceipt)",
        "numberOfBytes": "32",
        "value": "t_struct(DepositReceipt)4933_storage"
      },
      "t_mapping(t_address,t_struct(Withdrawal)4938_storage)": {
        "encoding": "mapping",
        "key": "t_address",
        "label": "mapping(address => struct Vault.Withdrawal)",
        "numberOfBytes": "32",
        "value": "t_struct(Withdrawal)4938_storage"
      },
      "t_mapping(t_address,t_uint256)": {
        "encoding": "mapping",
        "key": "t_address",
        "label": "mapping(address => uint256)",
        "numberOfBytes": "32",
        "value": "t_uint256"
      },
      "t_mapping(t_uint256,t_uint256)": {
        "encoding": "mapping",
        "key": "t_uint256",
        "label": "mapping(uint256 => uint256)",
        "numberOfBytes": "32",
        "value": "t_uint256"
      },
      "t_string_storage": {
        "encoding": "bytes",
        "label": "string",
        "numberOfBytes": "32"
      },
      "t_struct(AuctionSellOrder)4945_storage": {
        "encoding": "inplace",
        "label": "struct Vault.AuctionSellOrder",
        "members": [
          {
            "astId": 4940,
            "contract": "contracts/vaults/BaseVaults/RibbonDeltaVault.sol:RibbonDeltaVault",
            "label": "sellAmount",
            "offset": 0,
            "slot": "0",
            "type": "t_uint96"
          },
          {
            "astId": 4942,
            "contract": "contracts/vaults/BaseVaults/RibbonDeltaVault.sol:RibbonDeltaVault",
            "label": "buyAmount",
            "offset": 12,
            "slot": "0",
            "type": "t_uint96"
          },
          {
            "astId": 4944,
            "contract": "contracts/vaults/BaseVaults/RibbonDeltaVault.sol:RibbonDeltaVault",
            "label": "userId",
            "offset": 24,
            "slot": "0",
            "type": "t_uint64"
          }
        ],
        "numberOfBytes": "32"
      },
      "t_struct(DepositReceipt)4933_storage": {
        "encoding": "inplace",
        "label": "struct Vault.DepositReceipt",
        "members": [
          {
            "astId": 4928,
            "contract": "contracts/vaults/BaseVaults/RibbonDeltaVault.sol:RibbonDeltaVault",
            "label": "round",
            "offset": 0,
            "slot": "0",
            "type": "t_uint16"
          },
          {
            "astId": 4930,
            "contract": "contracts/vaults/BaseVaults/RibbonDeltaVault.sol:RibbonDeltaVault",
            "label": "amount",
            "offset": 2,
            "slot": "0",
            "type": "t_uint104"
          },
          {
            "astId": 4932,
            "contract": "contracts/vaults/BaseVaults/RibbonDeltaVault.sol:RibbonDeltaVault",
            "label": "unredeemedShares",
            "offset": 15,
            "slot": "0",
            "type": "t_uint128"
          }
        ],
        "numberOfBytes": "32"
      },
      "t_struct(OptionState)4915_storage": {
        "encoding": "inplace",
        "label": "struct Vault.OptionState",
        "members": [
          {
            "astId": 4910,
            "contract": "contracts/vaults/BaseVaults/RibbonDeltaVault.sol:RibbonDeltaVault",
            "label": "nextOption",
            "offset": 0,
            "slot": "0",
            "type": "t_address"
          },
          {
            "astId": 4912,
            "contract": "contracts/vaults/BaseVaults/RibbonDeltaVault.sol:RibbonDeltaVault",
            "label": "currentOption",
            "offset": 0,
            "slot": "1",
            "type": "t_address"
          },
          {
            "astId": 4914,
            "contract": "contracts/vaults/BaseVaults/RibbonDeltaVault.sol:RibbonDeltaVault",
            "label": "nextOptionReadyAt",
            "offset": 20,
            "slot": "1",
            "type": "t_uint32"
          }
        ],
        "numberOfBytes": "64"
      },
      "t_struct(VaultParams)4908_storage": {
        "encoding": "inplace",
        "label": "struct Vault.VaultParams",
        "members": [
          {
            "astId": 4897,
            "contract": "contracts/vaults/BaseVaults/RibbonDeltaVault.sol:RibbonDeltaVault",
            "label": "isPut",
            "offset": 0,
            "slot": "0",
            "type": "t_bool"
          },
          {
            "astId": 4899,
            "contract": "contracts/vaults/BaseVaults/RibbonDeltaVault.sol:RibbonDeltaVault",
            "label": "decimals",
            "offset": 1,
            "slot": "0",
            "type": "t_uint8"
          },
          {
            "astId": 4901,
            "contract": "contracts/vaults/BaseVaults/RibbonDeltaVault.sol:RibbonDeltaVault",
            "label": "asset",
            "offset": 2,
            "slot": "0",
            "type": "t_address"
          },
          {
            "astId": 4903,
            "contract": "contracts/vaults/BaseVaults/RibbonDeltaVault.sol:RibbonDeltaVault",
            "label": "underlying",
            "offset": 0,
            "slot": "1",
            "type": "t_address"
          },
          {
            "astId": 4905,
            "contract": "contracts/vaults/BaseVaults/RibbonDeltaVault.sol:RibbonDeltaVault",
            "label": "minimumSupply",
            "offset": 20,
            "slot": "1",
            "type": "t_uint56"
          },
          {
            "astId": 4907,
            "contract": "contracts/vaults/BaseVaults/RibbonDeltaVault.sol:RibbonDeltaVault",
            "label": "cap",
            "offset": 0,
            "slot": "2",
            "type": "t_uint104"
          }
        ],
        "numberOfBytes": "96"
      },
      "t_struct(VaultState)4926_storage": {
        "encoding": "inplace",
        "label": "struct Vault.VaultState",
        "members": [
          {
            "astId": 4917,
            "contract": "contracts/vaults/BaseVaults/RibbonDeltaVault.sol:RibbonDeltaVault",
            "label": "round",
            "offset": 0,
            "slot": "0",
            "type": "t_uint16"
          },
          {
            "astId": 4919,
            "contract": "contracts/vaults/BaseVaults/RibbonDeltaVault.sol:RibbonDeltaVault",
            "label": "lockedAmount",
            "offset": 2,
            "slot": "0",
            "type": "t_uint104"
          },
          {
            "astId": 4921,
            "contract": "contracts/vaults/BaseVaults/RibbonDeltaVault.sol:RibbonDeltaVault",
            "label": "lastLockedAmount",
            "offset": 15,
            "slot": "0",
            "type": "t_uint104"
          },
          {
            "astId": 4923,
            "contract": "contracts/vaults/BaseVaults/RibbonDeltaVault.sol:RibbonDeltaVault",
            "label": "totalPending",
            "offset": 0,
            "slot": "1",
            "type": "t_uint128"
          },
          {
            "astId": 4925,
            "contract": "contracts/vaults/BaseVaults/RibbonDeltaVault.sol:RibbonDeltaVault",
            "label": "queuedWithdrawShares",
            "offset": 16,
            "slot": "1",
            "type": "t_uint128"
          }
        ],
        "numberOfBytes": "64"
      },
      "t_struct(Withdrawal)4938_storage": {
        "encoding": "inplace",
        "label": "struct Vault.Withdrawal",
        "members": [
          {
            "astId": 4935,
            "contract": "contracts/vaults/BaseVaults/RibbonDeltaVault.sol:RibbonDeltaVault",
            "label": "round",
            "offset": 0,
            "slot": "0",
            "type": "t_uint16"
          },
          {
            "astId": 4937,
            "contract": "contracts/vaults/BaseVaults/RibbonDeltaVault.sol:RibbonDeltaVault",
            "label": "shares",
            "offset": 2,
            "slot": "0",
            "type": "t_uint128"
          }
        ],
        "numberOfBytes": "32"
      },
      "t_uint104": {
        "encoding": "inplace",
        "label": "uint104",
        "numberOfBytes": "13"
      },
      "t_uint128": {
        "encoding": "inplace",
        "label": "uint128",
        "numberOfBytes": "16"
      },
      "t_uint16": {
        "encoding": "inplace",
        "label": "uint16",
        "numberOfBytes": "2"
      },
      "t_uint256": {
        "encoding": "inplace",
        "label": "uint256",
        "numberOfBytes": "32"
      },
      "t_uint32": {
        "encoding": "inplace",
        "label": "uint32",
        "numberOfBytes": "4"
      },
      "t_uint56": {
        "encoding": "inplace",
        "label": "uint56",
        "numberOfBytes": "7"
      },
      "t_uint64": {
        "encoding": "inplace",
        "label": "uint64",
        "numberOfBytes": "8"
      },
      "t_uint8": {
        "encoding": "inplace",
        "label": "uint8",
        "numberOfBytes": "1"
      },
      "t_uint96": {
        "encoding": "inplace",
        "label": "uint96",
        "numberOfBytes": "12"
      }
    }
  }
}