{
  "address": "0x2b2527506cc9abE4e8CcaB75683375cd4F626093",
  "abi": [
    {
      "inputs": [
        {
          "internalType": "address",
          "name": "_weth",
          "type": "address"
        },
        {
          "internalType": "address",
          "name": "_usdc",
          "type": "address"
        },
        {
          "internalType": "address",
          "name": "_oTokenFactory",
          "type": "address"
        },
        {
          "internalType": "address",
          "name": "_gammaController",
          "type": "address"
        },
        {
          "internalType": "address",
          "name": "_marginPool",
          "type": "address"
        },
        {
          "internalType": "address",
          "name": "_gnosisEasyAuction",
          "type": "address"
        }
      ],
      "stateMutability": "nonpayable",
      "type": "constructor"
    },
    {
      "anonymous": false,
      "inputs": [
        {
          "indexed": true,
          "internalType": "address",
          "name": "owner",
          "type": "address"
        },
        {
          "indexed": true,
          "internalType": "address",
          "name": "spender",
          "type": "address"
        },
        {
          "indexed": false,
          "internalType": "uint256",
          "name": "value",
          "type": "uint256"
        }
      ],
      "name": "Approval",
      "type": "event"
    },
    {
      "anonymous": false,
      "inputs": [
        {
          "indexed": false,
          "internalType": "uint256",
          "name": "auctionDuration",
          "type": "uint256"
        },
        {
          "indexed": false,
          "internalType": "uint256",
          "name": "newAuctionDuration",
          "type": "uint256"
        }
      ],
      "name": "AuctionDurationSet",
      "type": "event"
    },
    {
      "anonymous": false,
      "inputs": [
        {
          "indexed": false,
          "internalType": "uint256",
          "name": "oldCap",
          "type": "uint256"
        },
        {
          "indexed": false,
          "internalType": "uint256",
          "name": "newCap",
          "type": "uint256"
        }
      ],
      "name": "CapSet",
      "type": "event"
    },
    {
      "anonymous": false,
      "inputs": [
        {
          "indexed": true,
          "internalType": "address",
          "name": "options",
          "type": "address"
        },
        {
          "indexed": false,
          "internalType": "uint256",
          "name": "withdrawAmount",
          "type": "uint256"
        },
        {
          "indexed": true,
          "internalType": "address",
          "name": "manager",
          "type": "address"
        }
      ],
      "name": "CloseShort",
      "type": "event"
    },
    {
      "anonymous": false,
      "inputs": [
        {
          "indexed": false,
          "internalType": "uint256",
          "name": "performanceFee",
          "type": "uint256"
        },
        {
          "indexed": false,
          "internalType": "uint256",
          "name": "vaultFee",
          "type": "uint256"
        },
        {
          "indexed": false,
          "internalType": "uint256",
          "name": "round",
          "type": "uint256"
        },
        {
          "indexed": true,
          "internalType": "address",
          "name": "feeRecipient",
          "type": "address"
        }
      ],
      "name": "CollectVaultFees",
      "type": "event"
    },
    {
      "anonymous": false,
      "inputs": [
        {
          "indexed": true,
          "internalType": "address",
          "name": "account",
          "type": "address"
        },
        {
          "indexed": false,
          "internalType": "uint256",
          "name": "amount",
          "type": "uint256"
        },
        {
          "indexed": false,
          "internalType": "uint256",
          "name": "round",
          "type": "uint256"
        }
      ],
      "name": "Deposit",
      "type": "event"
    },
    {
      "anonymous": false,
      "inputs": [
        {
          "indexed": true,
          "internalType": "address",
          "name": "auctioningToken",
          "type": "address"
        },
        {
          "indexed": true,
          "internalType": "address",
          "name": "biddingToken",
          "type": "address"
        },
        {
          "indexed": false,
          "internalType": "uint256",
          "name": "auctionCounter",
          "type": "uint256"
        },
        {
          "indexed": true,
          "internalType": "address",
          "name": "manager",
          "type": "address"
        }
      ],
      "name": "InitiateGnosisAuction",
      "type": "event"
    },
    {
      "anonymous": false,
      "inputs": [
        {
          "indexed": true,
          "internalType": "address",
          "name": "account",
          "type": "address"
        },
        {
          "indexed": false,
          "internalType": "uint256",
          "name": "shares",
          "type": "uint256"
        },
        {
          "indexed": false,
          "internalType": "uint256",
          "name": "round",
          "type": "uint256"
        }
      ],
      "name": "InitiateWithdraw",
      "type": "event"
    },
    {
      "anonymous": false,
      "inputs": [
        {
          "indexed": true,
          "internalType": "address",
          "name": "account",
          "type": "address"
        },
        {
          "indexed": false,
          "internalType": "uint256",
          "name": "amount",
          "type": "uint256"
        },
        {
          "indexed": false,
          "internalType": "uint256",
          "name": "round",
          "type": "uint256"
        }
      ],
      "name": "InstantWithdraw",
      "type": "event"
    },
    {
      "anonymous": false,
      "inputs": [
        {
          "indexed": false,
          "internalType": "uint256",
          "name": "managementFee",
          "type": "uint256"
        },
        {
          "indexed": false,
          "internalType": "uint256",
          "name": "newManagementFee",
          "type": "uint256"
        }
      ],
      "name": "ManagementFeeSet",
      "type": "event"
    },
    {
      "anonymous": false,
      "inputs": [
        {
          "indexed": false,
          "internalType": "uint256",
          "name": "strikePrice",
          "type": "uint256"
        },
        {
          "indexed": false,
          "internalType": "uint256",
          "name": "delta",
          "type": "uint256"
        }
      ],
      "name": "NewOptionStrikeSelected",
      "type": "event"
    },
    {
      "anonymous": false,
      "inputs": [
        {
          "indexed": true,
          "internalType": "address",
          "name": "options",
          "type": "address"
        },
        {
          "indexed": false,
          "internalType": "uint256",
          "name": "depositAmount",
          "type": "uint256"
        },
        {
          "indexed": true,
          "internalType": "address",
          "name": "manager",
          "type": "address"
        }
      ],
      "name": "OpenShort",
      "type": "event"
    },
    {
      "anonymous": false,
      "inputs": [
        {
          "indexed": true,
          "internalType": "address",
          "name": "previousOwner",
          "type": "address"
        },
        {
          "indexed": true,
          "internalType": "address",
          "name": "newOwner",
          "type": "address"
        }
      ],
      "name": "OwnershipTransferred",
      "type": "event"
    },
    {
      "anonymous": false,
      "inputs": [
        {
          "indexed": false,
          "internalType": "uint256",
          "name": "performanceFee",
          "type": "uint256"
        },
        {
          "indexed": false,
          "internalType": "uint256",
          "name": "newPerformanceFee",
          "type": "uint256"
        }
      ],
      "name": "PerformanceFeeSet",
      "type": "event"
    },
    {
      "anonymous": false,
      "inputs": [
        {
          "indexed": false,
          "internalType": "uint256",
          "name": "premiumDiscount",
          "type": "uint256"
        },
        {
          "indexed": false,
          "internalType": "uint256",
          "name": "newPremiumDiscount",
          "type": "uint256"
        }
      ],
      "name": "PremiumDiscountSet",
      "type": "event"
    },
    {
      "anonymous": false,
      "inputs": [
        {
          "indexed": true,
          "internalType": "address",
          "name": "account",
          "type": "address"
        },
        {
          "indexed": false,
          "internalType": "uint256",
          "name": "share",
          "type": "uint256"
        },
        {
          "indexed": false,
          "internalType": "uint256",
          "name": "round",
          "type": "uint256"
        }
      ],
      "name": "Redeem",
      "type": "event"
    },
    {
      "anonymous": false,
      "inputs": [
        {
          "indexed": true,
          "internalType": "address",
          "name": "from",
          "type": "address"
        },
        {
          "indexed": true,
          "internalType": "address",
          "name": "to",
          "type": "address"
        },
        {
          "indexed": false,
          "internalType": "uint256",
          "name": "value",
          "type": "uint256"
        }
      ],
      "name": "Transfer",
      "type": "event"
    },
    {
      "anonymous": false,
      "inputs": [
        {
          "indexed": true,
          "internalType": "address",
          "name": "account",
          "type": "address"
        },
        {
          "indexed": false,
          "internalType": "uint256",
          "name": "amount",
          "type": "uint256"
        },
        {
          "indexed": false,
          "internalType": "uint256",
          "name": "shares",
          "type": "uint256"
        }
      ],
      "name": "Withdraw",
      "type": "event"
    },
    {
      "inputs": [],
      "name": "DELAY",
      "outputs": [
        {
          "internalType": "uint256",
          "name": "",
          "type": "uint256"
        }
      ],
      "stateMutability": "view",
      "type": "function"
    },
    {
      "inputs": [],
      "name": "GAMMA_CONTROLLER",
      "outputs": [
        {
          "internalType": "address",
          "name": "",
          "type": "address"
        }
      ],
      "stateMutability": "view",
      "type": "function"
    },
    {
      "inputs": [],
      "name": "GNOSIS_EASY_AUCTION",
      "outputs": [
        {
          "internalType": "address",
          "name": "",
          "type": "address"
        }
      ],
      "stateMutability": "view",
      "type": "function"
    },
    {
      "inputs": [],
      "name": "MARGIN_POOL",
      "outputs": [
        {
          "internalType": "address",
          "name": "",
          "type": "address"
        }
      ],
      "stateMutability": "view",
      "type": "function"
    },
    {
      "inputs": [],
      "name": "OTOKEN_FACTORY",
      "outputs": [
        {
          "internalType": "address",
          "name": "",
          "type": "address"
        }
      ],
      "stateMutability": "view",
      "type": "function"
    },
    {
      "inputs": [],
      "name": "PERIOD",
      "outputs": [
        {
          "internalType": "uint256",
          "name": "",
          "type": "uint256"
        }
      ],
      "stateMutability": "view",
      "type": "function"
    },
    {
      "inputs": [],
      "name": "USDC",
      "outputs": [
        {
          "internalType": "address",
          "name": "",
          "type": "address"
        }
      ],
      "stateMutability": "view",
      "type": "function"
    },
    {
      "inputs": [],
      "name": "WETH",
      "outputs": [
        {
          "internalType": "address",
          "name": "",
          "type": "address"
        }
      ],
      "stateMutability": "view",
      "type": "function"
    },
    {
      "inputs": [
        {
          "internalType": "address",
          "name": "account",
          "type": "address"
        }
      ],
      "name": "accountVaultBalance",
      "outputs": [
        {
          "internalType": "uint256",
          "name": "",
          "type": "uint256"
        }
      ],
      "stateMutability": "view",
      "type": "function"
    },
    {
      "inputs": [
        {
          "internalType": "address",
          "name": "owner",
          "type": "address"
        },
        {
          "internalType": "address",
          "name": "spender",
          "type": "address"
        }
      ],
      "name": "allowance",
      "outputs": [
        {
          "internalType": "uint256",
          "name": "",
          "type": "uint256"
        }
      ],
      "stateMutability": "view",
      "type": "function"
    },
    {
      "inputs": [
        {
          "internalType": "address",
          "name": "spender",
          "type": "address"
        },
        {
          "internalType": "uint256",
          "name": "amount",
          "type": "uint256"
        }
      ],
      "name": "approve",
      "outputs": [
        {
          "internalType": "bool",
          "name": "",
          "type": "bool"
        }
      ],
      "stateMutability": "nonpayable",
      "type": "function"
    },
    {
      "inputs": [],
      "name": "auctionDuration",
      "outputs": [
        {
          "internalType": "uint256",
          "name": "",
          "type": "uint256"
        }
      ],
      "stateMutability": "view",
      "type": "function"
    },
    {
      "inputs": [
        {
          "internalType": "address",
          "name": "account",
          "type": "address"
        }
      ],
      "name": "balanceOf",
      "outputs": [
        {
          "internalType": "uint256",
          "name": "",
          "type": "uint256"
        }
      ],
      "stateMutability": "view",
      "type": "function"
    },
    {
      "inputs": [],
      "name": "burnRemainingOTokens",
      "outputs": [],
      "stateMutability": "nonpayable",
      "type": "function"
    },
    {
      "inputs": [],
      "name": "cap",
      "outputs": [
        {
          "internalType": "uint256",
          "name": "",
          "type": "uint256"
        }
      ],
      "stateMutability": "view",
      "type": "function"
    },
    {
      "inputs": [],
      "name": "commitAndClose",
      "outputs": [],
      "stateMutability": "nonpayable",
      "type": "function"
    },
    {
      "inputs": [],
      "name": "completeWithdraw",
      "outputs": [],
      "stateMutability": "nonpayable",
      "type": "function"
    },
    {
      "inputs": [],
      "name": "currentOption",
      "outputs": [
        {
          "internalType": "address",
          "name": "",
          "type": "address"
        }
      ],
      "stateMutability": "view",
      "type": "function"
    },
    {
      "inputs": [],
      "name": "currentOtokenPremium",
      "outputs": [
        {
          "internalType": "uint256",
          "name": "",
          "type": "uint256"
        }
      ],
      "stateMutability": "view",
      "type": "function"
    },
    {
      "inputs": [],
      "name": "decimals",
      "outputs": [
        {
          "internalType": "uint8",
          "name": "",
          "type": "uint8"
        }
      ],
      "stateMutability": "view",
      "type": "function"
    },
    {
      "inputs": [
        {
          "internalType": "address",
          "name": "spender",
          "type": "address"
        },
        {
          "internalType": "uint256",
          "name": "subtractedValue",
          "type": "uint256"
        }
      ],
      "name": "decreaseAllowance",
      "outputs": [
        {
          "internalType": "bool",
          "name": "",
          "type": "bool"
        }
      ],
      "stateMutability": "nonpayable",
      "type": "function"
    },
    {
      "inputs": [
        {
          "internalType": "uint256",
          "name": "amount",
          "type": "uint256"
        }
      ],
      "name": "deposit",
      "outputs": [],
      "stateMutability": "nonpayable",
      "type": "function"
    },
    {
      "inputs": [],
      "name": "depositETH",
      "outputs": [],
      "stateMutability": "payable",
      "type": "function"
    },
    {
      "inputs": [
        {
          "internalType": "uint256",
          "name": "amount",
          "type": "uint256"
        },
        {
          "internalType": "address",
          "name": "creditor",
          "type": "address"
        }
      ],
      "name": "depositFor",
      "outputs": [],
      "stateMutability": "nonpayable",
      "type": "function"
    },
    {
      "inputs": [
        {
          "internalType": "address",
          "name": "",
          "type": "address"
        }
      ],
      "name": "depositReceipts",
      "outputs": [
        {
          "internalType": "uint16",
          "name": "round",
          "type": "uint16"
        },
        {
          "internalType": "uint104",
          "name": "amount",
          "type": "uint104"
        },
        {
          "internalType": "uint128",
          "name": "unredeemedShares",
          "type": "uint128"
        }
      ],
      "stateMutability": "view",
      "type": "function"
    },
    {
      "inputs": [],
      "name": "feeRecipient",
      "outputs": [
        {
          "internalType": "address",
          "name": "",
          "type": "address"
        }
      ],
      "stateMutability": "view",
      "type": "function"
    },
    {
      "inputs": [
        {
          "internalType": "address",
          "name": "spender",
          "type": "address"
        },
        {
          "internalType": "uint256",
          "name": "addedValue",
          "type": "uint256"
        }
      ],
      "name": "increaseAllowance",
      "outputs": [
        {
          "internalType": "bool",
          "name": "",
          "type": "bool"
        }
      ],
      "stateMutability": "nonpayable",
      "type": "function"
    },
    {
      "inputs": [
        {
          "internalType": "uint256",
          "name": "numRounds",
          "type": "uint256"
        }
      ],
      "name": "initRounds",
      "outputs": [],
      "stateMutability": "nonpayable",
      "type": "function"
    },
    {
      "inputs": [
        {
          "components": [
            {
              "internalType": "address",
              "name": "_owner",
              "type": "address"
            },
            {
              "internalType": "address",
              "name": "_keeper",
              "type": "address"
            },
            {
              "internalType": "address",
              "name": "_feeRecipient",
              "type": "address"
            },
            {
              "internalType": "uint256",
              "name": "_managementFee",
              "type": "uint256"
            },
            {
              "internalType": "uint256",
              "name": "_performanceFee",
              "type": "uint256"
            },
            {
              "internalType": "string",
              "name": "_tokenName",
              "type": "string"
            },
            {
              "internalType": "string",
              "name": "_tokenSymbol",
              "type": "string"
            },
            {
              "internalType": "address",
              "name": "_optionsPremiumPricer",
              "type": "address"
            },
            {
              "internalType": "address",
              "name": "_strikeSelection",
              "type": "address"
            },
            {
              "internalType": "uint32",
              "name": "_premiumDiscount",
              "type": "uint32"
            },
            {
              "internalType": "uint256",
              "name": "_auctionDuration",
              "type": "uint256"
            }
          ],
          "internalType": "struct RibbonThetaVault.InitParams",
          "name": "_initParams",
          "type": "tuple"
        },
        {
          "components": [
            {
              "internalType": "bool",
              "name": "isPut",
              "type": "bool"
            },
            {
              "internalType": "uint8",
              "name": "decimals",
              "type": "uint8"
            },
            {
              "internalType": "address",
              "name": "asset",
              "type": "address"
            },
            {
              "internalType": "address",
              "name": "underlying",
              "type": "address"
            },
            {
              "internalType": "uint56",
              "name": "minimumSupply",
              "type": "uint56"
            },
            {
              "internalType": "uint104",
              "name": "cap",
              "type": "uint104"
            }
          ],
          "internalType": "struct Vault.VaultParams",
          "name": "_vaultParams",
          "type": "tuple"
        }
      ],
      "name": "initialize",
      "outputs": [],
      "stateMutability": "nonpayable",
      "type": "function"
    },
    {
      "inputs": [
        {
          "internalType": "uint256",
          "name": "numShares",
          "type": "uint256"
        }
      ],
      "name": "initiateWithdraw",
      "outputs": [],
      "stateMutability": "nonpayable",
      "type": "function"
    },
    {
      "inputs": [],
      "name": "keeper",
      "outputs": [
        {
          "internalType": "address",
          "name": "",
          "type": "address"
        }
      ],
      "stateMutability": "view",
      "type": "function"
    },
    {
      "inputs": [],
      "name": "lastQueuedWithdrawAmount",
      "outputs": [
        {
          "internalType": "uint256",
          "name": "",
          "type": "uint256"
        }
      ],
      "stateMutability": "view",
      "type": "function"
    },
    {
      "inputs": [],
      "name": "lastStrikeOverrideRound",
      "outputs": [
        {
          "internalType": "uint16",
          "name": "",
          "type": "uint16"
        }
      ],
      "stateMutability": "view",
      "type": "function"
    },
    {
      "inputs": [],
      "name": "liquidityGauge",
      "outputs": [
        {
          "internalType": "address",
          "name": "",
          "type": "address"
        }
      ],
      "stateMutability": "view",
      "type": "function"
    },
    {
      "inputs": [],
      "name": "managementFee",
      "outputs": [
        {
          "internalType": "uint256",
          "name": "",
          "type": "uint256"
        }
      ],
      "stateMutability": "view",
      "type": "function"
    },
    {
      "inputs": [],
      "name": "maxRedeem",
      "outputs": [],
      "stateMutability": "nonpayable",
      "type": "function"
    },
    {
      "inputs": [],
      "name": "name",
      "outputs": [
        {
          "internalType": "string",
          "name": "",
          "type": "string"
        }
      ],
      "stateMutability": "view",
      "type": "function"
    },
    {
      "inputs": [],
      "name": "nextOption",
      "outputs": [
        {
          "internalType": "address",
          "name": "",
          "type": "address"
        }
      ],
      "stateMutability": "view",
      "type": "function"
    },
    {
      "inputs": [],
      "name": "nextOptionReadyAt",
      "outputs": [
        {
          "internalType": "uint256",
          "name": "",
          "type": "uint256"
        }
      ],
      "stateMutability": "view",
      "type": "function"
    },
    {
      "inputs": [],
      "name": "optionAuctionID",
      "outputs": [
        {
          "internalType": "uint256",
          "name": "",
          "type": "uint256"
        }
      ],
      "stateMutability": "view",
      "type": "function"
    },
    {
      "inputs": [],
      "name": "optionState",
      "outputs": [
        {
          "internalType": "address",
          "name": "nextOption",
          "type": "address"
        },
        {
          "internalType": "address",
          "name": "currentOption",
          "type": "address"
        },
        {
          "internalType": "uint32",
          "name": "nextOptionReadyAt",
          "type": "uint32"
        }
      ],
      "stateMutability": "view",
      "type": "function"
    },
    {
      "inputs": [],
      "name": "optionsPremiumPricer",
      "outputs": [
        {
          "internalType": "address",
          "name": "",
          "type": "address"
        }
      ],
      "stateMutability": "view",
      "type": "function"
    },
    {
      "inputs": [],
      "name": "optionsPurchaseQueue",
      "outputs": [
        {
          "internalType": "address",
          "name": "",
          "type": "address"
        }
      ],
      "stateMutability": "view",
      "type": "function"
    },
    {
      "inputs": [],
      "name": "overriddenStrikePrice",
      "outputs": [
        {
          "internalType": "uint256",
          "name": "",
          "type": "uint256"
        }
      ],
      "stateMutability": "view",
      "type": "function"
    },
    {
      "inputs": [],
      "name": "owner",
      "outputs": [
        {
          "internalType": "address",
          "name": "",
          "type": "address"
        }
      ],
      "stateMutability": "view",
      "type": "function"
    },
    {
      "inputs": [],
      "name": "performanceFee",
      "outputs": [
        {
          "internalType": "uint256",
          "name": "",
          "type": "uint256"
        }
      ],
      "stateMutability": "view",
      "type": "function"
    },
    {
      "inputs": [],
      "name": "premiumDiscount",
      "outputs": [
        {
          "internalType": "uint256",
          "name": "",
          "type": "uint256"
        }
      ],
      "stateMutability": "view",
      "type": "function"
    },
    {
      "inputs": [],
      "name": "pricePerShare",
      "outputs": [
        {
          "internalType": "uint256",
          "name": "",
          "type": "uint256"
        }
      ],
      "stateMutability": "view",
      "type": "function"
    },
    {
      "inputs": [
        {
          "internalType": "uint256",
          "name": "numShares",
          "type": "uint256"
        }
      ],
      "name": "redeem",
      "outputs": [],
      "stateMutability": "nonpayable",
      "type": "function"
    },
    {
      "inputs": [],
      "name": "renounceOwnership",
      "outputs": [],
      "stateMutability": "nonpayable",
      "type": "function"
    },
    {
      "inputs": [],
      "name": "rollToNextOption",
      "outputs": [],
      "stateMutability": "nonpayable",
      "type": "function"
    },
    {
      "inputs": [
        {
          "internalType": "uint256",
          "name": "",
          "type": "uint256"
        }
      ],
      "name": "roundPricePerShare",
      "outputs": [
        {
          "internalType": "uint256",
          "name": "",
          "type": "uint256"
        }
      ],
      "stateMutability": "view",
      "type": "function"
    },
    {
      "inputs": [],
      "name": "sellOptionsToQueue",
      "outputs": [],
      "stateMutability": "nonpayable",
      "type": "function"
    },
    {
      "inputs": [
        {
          "internalType": "uint256",
          "name": "newAuctionDuration",
          "type": "uint256"
        }
      ],
      "name": "setAuctionDuration",
      "outputs": [],
      "stateMutability": "nonpayable",
      "type": "function"
    },
    {
      "inputs": [
        {
          "internalType": "uint256",
          "name": "newCap",
          "type": "uint256"
        }
      ],
      "name": "setCap",
      "outputs": [],
      "stateMutability": "nonpayable",
      "type": "function"
    },
    {
      "inputs": [
        {
          "internalType": "address",
          "name": "newFeeRecipient",
          "type": "address"
        }
      ],
      "name": "setFeeRecipient",
      "outputs": [],
      "stateMutability": "nonpayable",
      "type": "function"
    },
    {
      "inputs": [
        {
          "internalType": "address",
          "name": "newLiquidityGauge",
          "type": "address"
        }
      ],
      "name": "setLiquidityGauge",
      "outputs": [],
      "stateMutability": "nonpayable",
      "type": "function"
    },
    {
      "inputs": [
        {
          "internalType": "uint256",
          "name": "newManagementFee",
          "type": "uint256"
        }
      ],
      "name": "setManagementFee",
      "outputs": [],
      "stateMutability": "nonpayable",
      "type": "function"
    },
    {
      "inputs": [
        {
          "internalType": "address",
          "name": "newKeeper",
          "type": "address"
        }
      ],
      "name": "setNewKeeper",
      "outputs": [],
      "stateMutability": "nonpayable",
      "type": "function"
    },
    {
      "inputs": [
        {
          "internalType": "address",
          "name": "newOptionsPremiumPricer",
          "type": "address"
        }
      ],
      "name": "setOptionsPremiumPricer",
      "outputs": [],
      "stateMutability": "nonpayable",
      "type": "function"
    },
    {
      "inputs": [
        {
          "internalType": "address",
          "name": "newOptionsPurchaseQueue",
          "type": "address"
        }
      ],
      "name": "setOptionsPurchaseQueue",
      "outputs": [],
      "stateMutability": "nonpayable",
      "type": "function"
    },
    {
      "inputs": [
        {
          "internalType": "uint256",
          "name": "newPerformanceFee",
          "type": "uint256"
        }
      ],
      "name": "setPerformanceFee",
      "outputs": [],
      "stateMutability": "nonpayable",
      "type": "function"
    },
    {
      "inputs": [
        {
          "internalType": "uint256",
          "name": "newPremiumDiscount",
          "type": "uint256"
        }
      ],
      "name": "setPremiumDiscount",
      "outputs": [],
      "stateMutability": "nonpayable",
      "type": "function"
    },
    {
      "inputs": [
        {
          "internalType": "uint128",
          "name": "strikePrice",
          "type": "uint128"
        }
      ],
      "name": "setStrikePrice",
      "outputs": [],
      "stateMutability": "nonpayable",
      "type": "function"
    },
    {
      "inputs": [
        {
          "internalType": "address",
          "name": "newStrikeSelection",
          "type": "address"
        }
      ],
      "name": "setStrikeSelection",
      "outputs": [],
      "stateMutability": "nonpayable",
      "type": "function"
    },
    {
      "inputs": [
        {
          "internalType": "address",
          "name": "account",
          "type": "address"
        }
      ],
      "name": "shareBalances",
      "outputs": [
        {
          "internalType": "uint256",
          "name": "heldByAccount",
          "type": "uint256"
        },
        {
          "internalType": "uint256",
          "name": "heldByVault",
          "type": "uint256"
        }
      ],
      "stateMutability": "view",
      "type": "function"
    },
    {
      "inputs": [
        {
          "internalType": "address",
          "name": "account",
          "type": "address"
        }
      ],
      "name": "shares",
      "outputs": [
        {
          "internalType": "uint256",
          "name": "",
          "type": "uint256"
        }
      ],
      "stateMutability": "view",
      "type": "function"
    },
    {
      "inputs": [
        {
          "internalType": "uint256",
          "name": "numShares",
          "type": "uint256"
        }
      ],
      "name": "stake",
      "outputs": [],
      "stateMutability": "nonpayable",
      "type": "function"
    },
    {
      "inputs": [],
      "name": "startAuction",
      "outputs": [],
      "stateMutability": "nonpayable",
      "type": "function"
    },
    {
      "inputs": [],
      "name": "strikeSelection",
      "outputs": [
        {
          "internalType": "address",
          "name": "",
          "type": "address"
        }
      ],
      "stateMutability": "view",
      "type": "function"
    },
    {
      "inputs": [],
      "name": "symbol",
      "outputs": [
        {
          "internalType": "string",
          "name": "",
          "type": "string"
        }
      ],
      "stateMutability": "view",
      "type": "function"
    },
    {
      "inputs": [],
      "name": "totalBalance",
      "outputs": [
        {
          "internalType": "uint256",
          "name": "",
          "type": "uint256"
        }
      ],
      "stateMutability": "view",
      "type": "function"
    },
    {
      "inputs": [],
      "name": "totalPending",
      "outputs": [
        {
          "internalType": "uint256",
          "name": "",
          "type": "uint256"
        }
      ],
      "stateMutability": "view",
      "type": "function"
    },
    {
      "inputs": [],
      "name": "totalSupply",
      "outputs": [
        {
          "internalType": "uint256",
          "name": "",
          "type": "uint256"
        }
      ],
      "stateMutability": "view",
      "type": "function"
    },
    {
      "inputs": [
        {
          "internalType": "address",
          "name": "recipient",
          "type": "address"
        },
        {
          "internalType": "uint256",
          "name": "amount",
          "type": "uint256"
        }
      ],
      "name": "transfer",
      "outputs": [
        {
          "internalType": "bool",
          "name": "",
          "type": "bool"
        }
      ],
      "stateMutability": "nonpayable",
      "type": "function"
    },
    {
      "inputs": [
        {
          "internalType": "address",
          "name": "sender",
          "type": "address"
        },
        {
          "internalType": "address",
          "name": "recipient",
          "type": "address"
        },
        {
          "internalType": "uint256",
          "name": "amount",
          "type": "uint256"
        }
      ],
      "name": "transferFrom",
      "outputs": [
        {
          "internalType": "bool",
          "name": "",
          "type": "bool"
        }
      ],
      "stateMutability": "nonpayable",
      "type": "function"
    },
    {
      "inputs": [
        {
          "internalType": "address",
          "name": "newOwner",
          "type": "address"
        }
      ],
      "name": "transferOwnership",
      "outputs": [],
      "stateMutability": "nonpayable",
      "type": "function"
    },
    {
      "inputs": [],
      "name": "vaultParams",
      "outputs": [
        {
          "internalType": "bool",
          "name": "isPut",
          "type": "bool"
        },
        {
          "internalType": "uint8",
          "name": "decimals",
          "type": "uint8"
        },
        {
          "internalType": "address",
          "name": "asset",
          "type": "address"
        },
        {
          "internalType": "address",
          "name": "underlying",
          "type": "address"
        },
        {
          "internalType": "uint56",
          "name": "minimumSupply",
          "type": "uint56"
        },
        {
          "internalType": "uint104",
          "name": "cap",
          "type": "uint104"
        }
      ],
      "stateMutability": "view",
      "type": "function"
    },
    {
      "inputs": [],
      "name": "vaultState",
      "outputs": [
        {
          "internalType": "uint16",
          "name": "round",
          "type": "uint16"
        },
        {
          "internalType": "uint104",
          "name": "lockedAmount",
          "type": "uint104"
        },
        {
          "internalType": "uint104",
          "name": "lastLockedAmount",
          "type": "uint104"
        },
        {
          "internalType": "uint128",
          "name": "totalPending",
          "type": "uint128"
        },
        {
          "internalType": "uint128",
          "name": "queuedWithdrawShares",
          "type": "uint128"
        }
      ],
      "stateMutability": "view",
      "type": "function"
    },
    {
      "inputs": [
        {
          "internalType": "uint256",
          "name": "amount",
          "type": "uint256"
        }
      ],
      "name": "withdrawInstantly",
      "outputs": [],
      "stateMutability": "nonpayable",
      "type": "function"
    },
    {
      "inputs": [
        {
          "internalType": "address",
          "name": "",
          "type": "address"
        }
      ],
      "name": "withdrawals",
      "outputs": [
        {
          "internalType": "uint16",
          "name": "round",
          "type": "uint16"
        },
        {
          "internalType": "uint128",
          "name": "shares",
          "type": "uint128"
        }
      ],
      "stateMutability": "view",
      "type": "function"
    }
  ],
  "transactionHash": "0xb9702ced02e5eeab94c148caa9e2ce68d4f0ecdde857e25057011306a2f78b1d",
  "args": [
    "0xB31f66AA3C1e785363F0875A1B74E27b85FD66c7",
    "0xA7D7079b0FEaD91F3e65f86E8915Cb59c1a4C664",
    "0x25bC1cD298512885F0e452833198BCBb149f66a5",
    "0x9e3b94819aaF6de606C4Aa844E3215725b997064",
    "0xCCF6629aEaB734E621Cc59EBb0297196774fDb9D",
    "0xb5D00F83680ea5E078e911995c64b43Fbfd1eE61"
  ],
  "solcInputHash": "2232ccc9eb94ff79a1f5b977eab072e9",
  "bytecode": "0x6101406040523480156200001257600080fd5b5060405162005e1538038062005e15833981016040819052620000359162000261565b85858484846001600160a01b0385166200007f5760405162461bcd60e51b8152602060048201526006602482015265042beeecae8d60d31b60448201526064015b60405180910390fd5b6001600160a01b038416620000c05760405162461bcd60e51b8152602060048201526006602482015265215f7573646360d01b604482015260640162000076565b6001600160a01b038116620001185760405162461bcd60e51b815260206004820152601360248201527f215f676e6f7369734561737941756374696f6e00000000000000000000000000604482015260640162000076565b6001600160a01b038316620001645760405162461bcd60e51b815260206004820152601160248201527010afb3b0b6b6b0a1b7b73a3937b63632b960791b604482015260640162000076565b6001600160a01b038216620001ab5760405162461bcd60e51b815260206004820152600c60248201526b0857db585c99da5b941bdbdb60a21b604482015260640162000076565b6001600160601b0319606095861b811660805293851b841660a05291841b831660c052831b821660e05290911b16610100526001600160a01b038416620002275760405162461bcd60e51b815260206004820152600f60248201526e215f6f546f6b656e466163746f727960881b604482015260640162000076565b50505060601b6001600160601b0319166101205250620002e19050565b80516001600160a01b03811681146200025c57600080fd5b919050565b60008060008060008060c087890312156200027a578182fd5b620002858762000244565b9550620002956020880162000244565b9450620002a56040880162000244565b9350620002b56060880162000244565b9250620002c56080880162000244565b9150620002d560a0880162000244565b90509295509295509295565b60805160601c60a05160601c60c05160601c60e05160601c6101005160601c6101205160601c615a7e6200039760003960008181610f110152612bd201526000818161097601528181611d390152613d73015260008181610894015261276801526000818161054b01528181611bd20152818161274001526144ef015260008181610b070152612bf7015260008181610dc601528181612ec301528181612f6f0152818161351801526135550152615a7e6000f3fe60806040526004361061047e5760003560e01c80638778878211610255578063b4d1d79511610144578063e73c63d5116100c1578063f656ba5111610085578063f656ba5114610fec578063f756fa2114611021578063f957a06714611036578063f9a0be6814611056578063fba7dc6114611077578063fe56e2321461109857600080fd5b8063e73c63d514610f79578063e74b981b14610f8f578063ea00b1ca14610faf578063f2fde38b14610fc4578063f6326fb314610fe457600080fd5b8063d164cc1511610108578063d164cc1514610ea9578063d5f2638214610ec9578063db006a7514610edf578063db43e86214610eff578063dd62ed3e14610f3357600080fd5b8063b4d1d79514610e1d578063b6b55f2514610e34578063b9f8092b14610e54578063ce7c2ac214610e69578063d13f1b3e14610e8957600080fd5b8063a2db9d83116101d2578063a9059cbb11610196578063a9059cbb14610d74578063aced166114610d94578063ad5c464814610db4578063ad7a672f14610de8578063afa6626414610dfd57600080fd5b8063a2db9d8314610ce0578063a457c2d714610cfe578063a497e67414610d1e578063a694fc3a14610d3e578063a6f7f5d614610d5e57600080fd5b806399530b061161021957806399530b0614610b7a5780639be43daa14610b8f5780639fcc2d7514610baf578063a083ff1714610c5b578063a285c9e814610cbe57600080fd5b80638778878214610adf57806389a3027114610af55780638b10cc7c14610b295780638da5cb5b14610b4757806395d89b4114610b6557600080fd5b806347786d37116103715780636b64c769116102ee578063715018a6116102b2578063715018a614610a035780637a9262a214610a185780637e108d5214610a7c57806383536ff314610a9c57806387153eb114610ab257600080fd5b80636b64c7691461094f5780636c10f66c146109645780636f31ab341461099857806370897b23146109ad57806370a08231146109cd57600080fd5b8063600a2cfb11610335578063600a2cfb14610858578063611b034d1461086d578063650cce8a146108825780636719b2ee146108b657806369b411701461093a57600080fd5b806347786d37146107c25780634ac88cb6146107e2578063503c70aa1461080257806355489bb214610818578063583582071461083857600080fd5b8063313ce567116103ff5780633f23bb73116103c35780633f23bb731461072e5780633f90916a1461074e578063432833a61461076c5780634603c0aa1461078257806346904840146107a257600080fd5b8063313ce56714610678578063355274ea146106a257806336efd16f146106c057806339509351146106e05780633ec143d31461070057600080fd5b80631a92f6c2116104465780631a92f6c21461053957806323b872dd146105855780632728f333146105a55780632775d01c1461063857806330630da41461065857600080fd5b8063048bf0851461048357806306fdde03146104a5578063095ea7b3146104d05780630cbf54c81461050057806318160ddd14610524575b600080fd5b34801561048f57600080fd5b506104a361049e3660046150ff565b6110b8565b005b3480156104b157600080fd5b506104ba61110e565b6040516104c7919061549e565b60405180910390f35b3480156104dc57600080fd5b506104f06104eb366004615193565b6111a0565b60405190151581526020016104c7565b34801561050c57600080fd5b5061051660fb5481565b6040519081526020016104c7565b34801561053057600080fd5b50609954610516565b34801561054557600080fd5b5061056d7f000000000000000000000000000000000000000000000000000000000000000081565b6040516001600160a01b0390911681526020016104c7565b34801561059157600080fd5b506104f06105a0366004615153565b6111b7565b3480156105b157600080fd5b5060cf5460d0546105f39161ffff8116916001600160681b03620100008304811692600160781b900416906001600160801b0380821691600160801b90041685565b6040805161ffff90961686526001600160681b03948516602087015293909216928401929092526001600160801b03918216606084015216608082015260a0016104c7565b34801561064457600080fd5b506104a361065336600461529b565b611263565b34801561066457600080fd5b506104a36106733660046150ff565b611406565b34801561068457600080fd5b5060cc54610100900460ff1660405160ff90911681526020016104c7565b3480156106ae57600080fd5b5060ce546001600160681b0316610516565b3480156106cc57600080fd5b506104a36106db3660046152cb565b61149e565b3480156106ec57600080fd5b506104f06106fb366004615193565b611526565b34801561070c57600080fd5b5060f95461071b9061ffff1681565b60405161ffff90911681526020016104c7565b34801561073a57600080fd5b506105166107493660046150ff565b611562565b34801561075a57600080fd5b5060d0546001600160801b0316610516565b34801561077857600080fd5b5061051660fc5481565b34801561078e57600080fd5b506104a361079d3660046150ff565b6115b5565b3480156107ae57600080fd5b5060d35461056d906001600160a01b031681565b3480156107ce57600080fd5b506104a36107dd36600461529b565b611657565b3480156107ee57600080fd5b506104a36107fd3660046150ff565b611732565b34801561080e57600080fd5b5061051660fd5481565b34801561082457600080fd5b506104a3610833366004615274565b61177f565b34801561084457600080fd5b506104a3610853366004615218565b611817565b34801561086457600080fd5b506104a3611b66565b34801561087957600080fd5b506104a3611cc1565b34801561088e57600080fd5b5061056d7f000000000000000000000000000000000000000000000000000000000000000081565b3480156108c257600080fd5b506109096108d13660046150ff565b60c96020526000908152604090205461ffff8116906201000081046001600160681b031690600160781b90046001600160801b031683565b6040805161ffff90941684526001600160681b0390921660208401526001600160801b0316908201526060016104c7565b34801561094657600080fd5b50610516600081565b34801561095b57600080fd5b506104a3611ddb565b34801561097057600080fd5b5061056d7f000000000000000000000000000000000000000000000000000000000000000081565b3480156109a457600080fd5b506104a3611e3b565b3480156109b957600080fd5b506104a36109c836600461529b565b611e72565b3480156109d957600080fd5b506105166109e83660046150ff565b6001600160a01b031660009081526097602052604090205490565b348015610a0f57600080fd5b506104a3611f39565b348015610a2457600080fd5b50610a5a610a333660046150ff565b60cb6020526000908152604090205461ffff8116906201000090046001600160801b031682565b6040805161ffff90931683526001600160801b039091166020830152016104c7565b348015610a8857600080fd5b506104a3610a9736600461529b565b611f6f565b348015610aa857600080fd5b5061051660f75481565b348015610abe57600080fd5b50610516610acd36600461529b565b60ca6020526000908152604090205481565b348015610aeb57600080fd5b5061051660d55481565b348015610b0157600080fd5b5061056d7f000000000000000000000000000000000000000000000000000000000000000081565b348015610b3557600080fd5b5060d2546001600160a01b031661056d565b348015610b5357600080fd5b506065546001600160a01b031661056d565b348015610b7157600080fd5b506104ba6121aa565b348015610b8657600080fd5b506105166121b9565b348015610b9b57600080fd5b506104a3610baa36600461529b565b6121f3565b348015610bbb57600080fd5b5060cc5460cd5460ce54610c0b9260ff808216936101008304909116926001600160a01b036201000090930483169282169166ffffffffffffff600160a01b90910416906001600160681b031686565b60408051961515875260ff90951660208701526001600160a01b03938416948601949094529116606084015266ffffffffffffff1660808301526001600160681b031660a082015260c0016104c7565b348015610c6757600080fd5b5060d15460d254610c92916001600160a01b039081169190811690600160a01b900463ffffffff1683565b604080516001600160a01b03948516815293909216602084015263ffffffff16908201526060016104c7565b348015610cca57600080fd5b5060d254600160a01b900463ffffffff16610516565b348015610cec57600080fd5b5060d1546001600160a01b031661056d565b348015610d0a57600080fd5b506104f0610d19366004615193565b6122ed565b348015610d2a57600080fd5b506104a3610d3936600461529b565b612386565b348015610d4a57600080fd5b506104a3610d5936600461529b565b612443565b348015610d6a57600080fd5b5061051660d65481565b348015610d8057600080fd5b506104f0610d8f366004615193565b612534565b348015610da057600080fd5b5060d45461056d906001600160a01b031681565b348015610dc057600080fd5b5061056d7f000000000000000000000000000000000000000000000000000000000000000081565b348015610df457600080fd5b50610516612541565b348015610e0957600080fd5b5060f55461056d906001600160a01b031681565b348015610e2957600080fd5b5061051662093a8081565b348015610e4057600080fd5b506104a3610e4f36600461529b565b6125e0565b348015610e6057600080fd5b506104a361264d565b348015610e7557600080fd5b50610516610e843660046150ff565b6128c1565b348015610e9557600080fd5b506104a3610ea436600461529b565b6128de565b348015610eb557600080fd5b506104a3610ec43660046150ff565b6129a3565b348015610ed557600080fd5b5061051660f85481565b348015610eeb57600080fd5b506104a3610efa36600461529b565b612a32565b348015610f0b57600080fd5b5061056d7f000000000000000000000000000000000000000000000000000000000000000081565b348015610f3f57600080fd5b50610516610f4e36600461511b565b6001600160a01b03918216600090815260986020908152604080832093909416825291909152205490565b348015610f8557600080fd5b5061051660fa5481565b348015610f9b57600080fd5b506104a3610faa3660046150ff565b612a9f565b348015610fbb57600080fd5b506104a3612b92565b348015610fd057600080fd5b506104a3610fdf3660046150ff565b612dfb565b6104a3612e96565b348015610ff857600080fd5b5061100c6110073660046150ff565b612fe7565b604080519283526020830191909152016104c7565b34801561102d57600080fd5b506104a36130ca565b34801561104257600080fd5b5060f65461056d906001600160a01b031681565b34801561106257600080fd5b506101005461056d906001600160a01b031681565b34801561108357600080fd5b506101015461056d906001600160a01b031681565b3480156110a457600080fd5b506104a36110b336600461529b565b61311f565b6065546001600160a01b031633146110eb5760405162461bcd60e51b81526004016110e290615520565b60405180910390fd5b61010080546001600160a01b0319166001600160a01b0392909216919091179055565b6060609a805461111d90615848565b80601f016020809104026020016040519081016040528092919081815260200182805461114990615848565b80156111965780601f1061116b57610100808354040283529160200191611196565b820191906000526020600020905b81548152906001019060200180831161117957829003601f168201915b5050505050905090565b60006111ad338484613200565b5060015b92915050565b60006111c4848484613325565b6001600160a01b0384166000908152609860209081526040808320338452909152902054828110156112495760405162461bcd60e51b815260206004820152602860248201527f45524332303a207472616e7366657220616d6f756e74206578636565647320616044820152676c6c6f77616e636560c01b60648201526084016110e2565b6112568533858403613200565b60019150505b9392505050565b600260015414156112865760405162461bcd60e51b81526004016110e290615576565b600260015533600090815260c96020526040902060cf5461ffff16826112be5760405162461bcd60e51b81526004016110e290615555565b815461ffff1681146113025760405162461bcd60e51b815260206004820152600d60248201526c125b9d985b1a59081c9bdd5b99609a1b60448201526064016110e2565b81546201000090046001600160681b0316838110156113535760405162461bcd60e51b815260206004820152600d60248201526c115e18d9595908185b5bdd5b9d609a1b60448201526064016110e2565b61135d81856134f5565b83546001600160681b0391909116620100000262010000600160781b031990911617835560d054611397906001600160801b0316856134f5565b60d080546001600160801b0319166001600160801b0392909216919091179055604080518581526020810184905233917fab2daf3c146ca6416cbccd2a86ed2ba995e171ef6319df14a38aef01403a9c96910160405180910390a26113fc3385613501565b5050600180555050565b6065546001600160a01b031633146114305760405162461bcd60e51b81526004016110e290615520565b6001600160a01b03811661147c5760405162461bcd60e51b815260206004820152601360248201527210b732bba9ba3934b5b2a9b2b632b1ba34b7b760691b60448201526064016110e2565b60f680546001600160a01b0319166001600160a01b0392909216919091179055565b600260015414156114c15760405162461bcd60e51b81526004016110e290615576565b6002600155816114e35760405162461bcd60e51b81526004016110e290615555565b6001600160a01b0381166114f657600080fd5b6115008282613662565b60cc5461151e906201000090046001600160a01b03163330856138f4565b505060018055565b3360008181526098602090815260408083206001600160a01b038716845290915281205490916111ad91859061155d9086906156c3565b613200565b60cc5460009060ff610100909104168161159861157e60995490565b611586612541565b60d0546001600160801b03168561395f565b90506115ad6115a6856128c1565b828461399f565b949350505050565b6065546001600160a01b031633146115df5760405162461bcd60e51b81526004016110e290615520565b6001600160a01b0381166116355760405162461bcd60e51b815260206004820152601860248201527f216e65774f7074696f6e735072656d69756d507269636572000000000000000060448201526064016110e2565b60f580546001600160a01b0319166001600160a01b0392909216919091179055565b6065546001600160a01b031633146116815760405162461bcd60e51b81526004016110e290615520565b600081116116bb5760405162461bcd60e51b81526020600482015260076024820152660216e65774361760cc1b60448201526064016110e2565b6116c481613a01565b60ce54604080516001600160681b039092168252602082018390527f5f86edbb9d92228a9edc3f0ebc0f001bda1ea345ac7335e0eeef3504b31d1a1c910160405180910390a160ce80546cffffffffffffffffffffffffff19166001600160681b0392909216919091179055565b6065546001600160a01b0316331461175c5760405162461bcd60e51b81526004016110e290615520565b61010180546001600160a01b0319166001600160a01b0392909216919091179055565b6065546001600160a01b031633146117a95760405162461bcd60e51b81526004016110e290615520565b6000816001600160801b0316116117f15760405162461bcd60e51b815260206004820152600c60248201526b21737472696b65507269636560a01b60448201526064016110e2565b6001600160801b031660fa5560cf5460f9805461ffff191661ffff909216919091179055565b600054610100900460ff1680611830575060005460ff16155b61184c5760405162461bcd60e51b81526004016110e2906154d2565b600054610100900460ff1615801561186e576000805461ffff19166101011790555b61193361187e60208501856150ff565b61188e60408601602087016150ff565b61189e60608701604088016150ff565b606087013560808801356118b560a08a018a615677565b8080601f0160208091040260200160405190810160405280939291908181526020018383808284376000920191909152506118f79250505060c08b018b615677565b8080601f0160208091040260200160405190810160405280939291908181526020018383808284376000920191909152508c9250613a4b915050565b6000611946610100850160e086016150ff565b6001600160a01b031614156119965760405162461bcd60e51b815260206004820152601660248201527510afb7b83a34b7b739a83932b6b4bab6a83934b1b2b960511b60448201526064016110e2565b60006119aa610120850161010086016150ff565b6001600160a01b031614156119f55760405162461bcd60e51b815260206004820152601160248201527010afb9ba3934b5b2a9b2b632b1ba34b7b760791b60448201526064016110e2565b6000611a0961014085016101208601615338565b63ffffffff16118015611a3d5750611a23600a60646157e6565b611a3561014085016101208601615338565b63ffffffff16105b611a7d5760405162461bcd60e51b81526020600482015260116024820152700857dc1c995b5a5d5b511a5cd8dbdd5b9d607a1b60448201526064016110e2565b61012c8361014001351015611ac85760405162461bcd60e51b815260206004820152601160248201527010afb0bab1ba34b7b7223ab930ba34b7b760791b60448201526064016110e2565b611ad9610100840160e085016150ff565b60f580546001600160a01b0319166001600160a01b0392909216919091179055611b0b610120840161010085016150ff565b60f680546001600160a01b0319166001600160a01b0392909216919091179055611b3d61014084016101208501615338565b63ffffffff1660f75561014083013560fb558015611b61576000805461ff00191690555b505050565b60d4546001600160a01b03163314611b905760405162461bcd60e51b81526004016110e2906154b1565b60026001541415611bb35760405162461bcd60e51b81526004016110e290615576565b600260015560d2546040516358ffbb3d60e01b81526001600160a01b037f00000000000000000000000000000000000000000000000000000000000000008116600483015290911660248201526000907386be9cd3c839765c83183927426B17fa9E4AD7ef906358ffbb3d9060440160206040518083038186803b158015611c3a57600080fd5b505af4158015611c4e573d6000803e3d6000fd5b505050506040513d601f19601f82011682018060405250810190611c7291906152b3565b60cf54909150611c91906201000090046001600160681b0316826134f5565b60cf80546001600160681b0392909216620100000262010000600160781b03199092169190911790555060018055565b60d4546001600160a01b03163314611ceb5760405162461bcd60e51b81526004016110e2906154b1565b60026001541415611d0e5760405162461bcd60e51b81526004016110e290615576565b60026001556101015460fc54604051632288d73760e11b81526001600160a01b0392831660048201527f0000000000000000000000000000000000000000000000000000000000000000909216602483015260448201527386be9cd3c839765c83183927426B17fa9E4AD7ef90634511ae6e9060640160206040518083038186803b158015611d9c57600080fd5b505af4158015611db0573d6000803e3d6000fd5b505050506040513d601f19601f82011682018060405250810190611dd491906152b3565b5060018055565b60d4546001600160a01b03163314611e055760405162461bcd60e51b81526004016110e2906154b1565b60026001541415611e285760405162461bcd60e51b81526004016110e290615576565b6002600155611e35613c8a565b60018055565b60026001541415611e5e5760405162461bcd60e51b81526004016110e290615576565b6002600181905550611e3560006001613e86565b6065546001600160a01b03163314611e9c5760405162461bcd60e51b81526004016110e290615520565b611eaa620f424060646157e6565b8110611ef85760405162461bcd60e51b815260206004820152601760248201527f496e76616c696420706572666f726d616e63652066656500000000000000000060448201526064016110e2565b60d55460408051918252602082018390527f24867dfb6fcb9970a07be21024956524abe7a1837faa903ff0e99aaa40cf893e910160405180910390a160d555565b6065546001600160a01b03163314611f635760405162461bcd60e51b81526004016110e290615520565b611f6d6000614035565b565b60026001541415611f925760405162461bcd60e51b81526004016110e290615576565b600260015580611fd15760405162461bcd60e51b815260206004820152600a602482015269216e756d53686172657360b01b60448201526064016110e2565b33600090815260c960205260409020546201000090046001600160681b031615158061201b575033600090815260c96020526040902054600160781b90046001600160801b031615155b1561202c5761202c60006001613e86565b60cf5433600081815260cb60209081526040918290208054835187815261ffff96871693810184905292959194911685149290917f0c53c82ad07e2d592d88ece3b066777dd60f1118e2a081b380efc4358f0d9e2a910160405180910390a281546201000090046001600160801b0316600082156120b5576120ae8287614087565b9050612118565b81156120f75760405162461bcd60e51b81526020600482015260116024820152704578697374696e6720776974686472617760781b60448201526064016110e2565b5033600090815260cb60205260409020805461ffff191661ffff8616179055845b61212181614093565b33600090815260cb6020526040812080546001600160801b03808516620100000262010000600160901b03199092169190911790915560d05461216d91600160801b9091041688614087565b905061217881614093565b60d080546001600160801b03808416600160801b02911617905561219d333089613325565b5050600180555050505050565b6060609b805461111d90615848565b60006121ee6121c760995490565b6121cf612541565b60d05460cc546001600160801b0390911690610100900460ff1661395f565b905090565b600260015414156122165760405162461bcd60e51b81526004016110e290615576565b6002600155806122555760405162461bcd60e51b815260206004820152600a602482015269216e756d526f756e647360b01b60448201526064016110e2565b60cf5461ffff1660005b828110156122e457600061227382846156c3565b600081815260ca6020526040902054909150156122c05760405162461bcd60e51b815260206004820152600b60248201526a125b9a5d1a585b1a5e995960aa1b60448201526064016110e2565b600090815260ca6020526040902060019055806122dc81615883565b91505061225f565b50506001805550565b3360009081526098602090815260408083206001600160a01b03861684529091528120548281101561236f5760405162461bcd60e51b815260206004820152602560248201527f45524332303a2064656372656173656420616c6c6f77616e63652062656c6f77604482015264207a65726f60d81b60648201526084016110e2565b61237c3385858403613200565b5060019392505050565b6065546001600160a01b031633146123b05760405162461bcd60e51b81526004016110e290615520565b61012c8110156124025760405162461bcd60e51b815260206004820152601860248201527f496e76616c69642061756374696f6e206475726174696f6e000000000000000060448201526064016110e2565b60fb5460408051918252602082018390527f5acd982e2240ed224a69aa03dab039d3797c108e4b5f288cd7dd6ca181b275f3910160405180910390a160fb55565b600260015414156124665760405162461bcd60e51b81526004016110e290615576565b6002600155610100546001600160a01b03168061248257600080fd5b6000821161248f57600080fd5b33600090815260976020526040902054828110156124bb576124bb6124b484836134f5565b6000613e86565b6124c6333085613325565b6124d1308385613200565b6040516383df674760e01b815260048101849052336024820152600060448201526001600160a01b038316906383df674790606401600060405180830381600087803b15801561252057600080fd5b505af115801561219d573d6000803e3d6000fd5b60006111ad338484613325565b60cc546040516370a0823160e01b81523060048201526000916121ee91620100009091046001600160a01b0316906370a082319060240160206040518083038186803b15801561259057600080fd5b505afa1580156125a4573d6000803e3d6000fd5b505050506040513d601f19601f820116820180604052508101906125c891906152b3565b60cf546201000090046001600160681b031690614087565b600260015414156126035760405162461bcd60e51b81526004016110e290615576565b6002600155806126255760405162461bcd60e51b81526004016110e290615555565b61262f8133613662565b60cc54611dd4906201000090046001600160a01b03163330846138f4565b60d4546001600160a01b031633146126775760405162461bcd60e51b81526004016110e2906154b1565b6002600154141561269a5760405162461bcd60e51b81526004016110e290615576565b600260018190555060008060006126b260fd546140dd565b60fd819055919450925090506126c782613a01565b60cf805462010000600160781b031916620100006001600160681b0385160217905560405182815233906001600160a01b038516907f045c558fdce4714c5816d53820d27420f4cd860892df203fe636384d8d19aa019060200160405180910390a3604051632904c23960e01b81526001600160a01b037f0000000000000000000000000000000000000000000000000000000000000000811660048301527f00000000000000000000000000000000000000000000000000000000000000008116602483015284166044820152606481018390526000907386be9cd3c839765c83183927426B17fa9E4AD7ef90632904c2399060840160206040518083038186803b1580156127d657600080fd5b505af41580156127ea573d6000803e3d6000fd5b505050506040513d601f19601f8201168201806040525081019061280e91906152b3565b61010154604051636648c73d60e11b81526001600160a01b03918216600482015290861660248201526044810182905261138860648201529091507386be9cd3c839765c83183927426B17fa9E4AD7ef9063cc918e7a9060840160206040518083038186803b15801561288057600080fd5b505af4158015612894573d6000803e3d6000fd5b505050506040513d601f19601f820116820180604052508101906128b891906152b3565b506113fc613c8a565b60008060006128cf84612fe7565b90925090506115ad8282614087565b60d4546001600160a01b031633146129085760405162461bcd60e51b81526004016110e2906154b1565b600081118015612923575061291f600a60646157e6565b8111155b6129625760405162461bcd60e51b815260206004820152601060248201526f125b9d985b1a5908191a5cd8dbdd5b9d60821b60448201526064016110e2565b60f75460408051918252602082018390527f4cd657fde404967d63a338fb06c5c98751a9df57dfae6dc333a432faf8a5f656910160405180910390a160f755565b6065546001600160a01b031633146129cd5760405162461bcd60e51b81526004016110e290615520565b6001600160a01b038116612a105760405162461bcd60e51b815260206004820152600a60248201526910b732bba5b2b2b832b960b11b60448201526064016110e2565b60d480546001600160a01b0319166001600160a01b0392909216919091179055565b60026001541415612a555760405162461bcd60e51b81526004016110e290615576565b600260015580612a945760405162461bcd60e51b815260206004820152600a602482015269216e756d53686172657360b01b60448201526064016110e2565b611dd4816000613e86565b6065546001600160a01b03163314612ac95760405162461bcd60e51b81526004016110e290615520565b6001600160a01b038116612b125760405162461bcd60e51b815260206004820152601060248201526f085b995dd19959549958da5c1a595b9d60821b60448201526064016110e2565b60d3546001600160a01b0382811691161415612b705760405162461bcd60e51b815260206004820152601860248201527f4d757374206265206e657720666565526563697069656e74000000000000000060448201526064016110e2565b60d380546001600160a01b0319166001600160a01b0392909216919091179055565b60026001541415612bb55760405162461bcd60e51b81526004016110e290615576565b600260015560d25460408051610120810182526001600160a01b037f0000000000000000000000000000000000000000000000000000000000000000811682527f00000000000000000000000000000000000000000000000000000000000000008116602083015292831681830181905260006060830181905260f95461ffff16608084015260fa5460a084015260f654851660c084015260f55490941660e083015260f754610100830152915163f39ad79560e01b8152919290918190819081907386be9cd3c839765c83183927426B17fa9E4AD7ef9063f39ad79590612ca790889060cc9060cf906004016155ad565b60806040518083038186803b158015612cbf57600080fd5b505af4158015612cd3573d6000803e3d6000fd5b505050506040513d601f19601f82011682018060405250810190612cf791906151be565b93509350935093507fa217999b1c125c2a996f712c5f26a28addad7167bd8a67d5bd5b2a751148abb08282604051612d39929190918252602082015260400190565b60405180910390a1612d4a83613a01565b6001600160681b03831660f85560d180546001600160a01b0319166001600160a01b0386161790556000612d7e4282614087565b905063ffffffff811115612dd45760405162461bcd60e51b815260206004820152601860248201527f4f766572666c6f77206e6578744f7074696f6e5265616479000000000000000060448201526064016110e2565b60d2805463ffffffff60a01b1916600160a01b63ffffffff84160217905561219d8761445b565b6065546001600160a01b03163314612e255760405162461bcd60e51b81526004016110e290615520565b6001600160a01b038116612e8a5760405162461bcd60e51b815260206004820152602660248201527f4f776e61626c653a206e6577206f776e657220697320746865207a65726f206160448201526564647265737360d01b60648201526084016110e2565b612e9381614035565b50565b60026001541415612eb95760405162461bcd60e51b81526004016110e290615576565b600260015560cc547f00000000000000000000000000000000000000000000000000000000000000006001600160a01b03908116620100009092041614612f2a5760405162461bcd60e51b8152602060048201526005602482015264042ae8aa8960db1b60448201526064016110e2565b60003411612f635760405162461bcd60e51b81526020600482015260066024820152652176616c756560d01b60448201526064016110e2565b612f6d3433613662565b7f00000000000000000000000000000000000000000000000000000000000000006001600160a01b031663d0e30db0346040518263ffffffff1660e01b81526004016000604051808303818588803b158015612fc857600080fd5b505af1158015612fdc573d6000803e3d6000fd5b505060018055505050565b6001600160a01b038116600090815260c9602090815260408083208151606081018352905461ffff81168083526201000082046001600160681b031694830194909452600160781b90046001600160801b031691810191909152829160011115613069575050506001600160a01b031660009081526097602052604081205491565b60cf54815161ffff908116600090815260ca602052604081205460cc54919361309f93869391169190610100900460ff166145d1565b90506130c0856001600160a01b031660009081526097602052604090205490565b9590945092505050565b600260015414156130ed5760405162461bcd60e51b81526004016110e290615576565b600260015560006130fc614642565b60fd5490915061310c90826134f5565b6001600160801b031660fd555060018055565b6065546001600160a01b031633146131495760405162461bcd60e51b81526004016110e290615520565b613157620f424060646157e6565b811061319e5760405162461bcd60e51b8152602060048201526016602482015275496e76616c6964206d616e6167656d656e742066656560501b60448201526064016110e2565b60006131bb63031ba3096131b584620f42406147ff565b9061480b565b60d65460408051918252602082018590529192507f4e874b007ab14f7e263baefd44951834c8266f4f224d1092e49e9c254354cc54910160405180910390a160d65550565b6001600160a01b0383166132625760405162461bcd60e51b8152602060048201526024808201527f45524332303a20617070726f76652066726f6d20746865207a65726f206164646044820152637265737360e01b60648201526084016110e2565b6001600160a01b0382166132c35760405162461bcd60e51b815260206004820152602260248201527f45524332303a20617070726f766520746f20746865207a65726f206164647265604482015261737360f01b60648201526084016110e2565b6001600160a01b0383811660008181526098602090815260408083209487168084529482529182902085905590518481527f8c5be1e5ebec7d5bd14f71427d1e84f3dd0314c0f7b2291e5b200ac8c7c3b92591015b60405180910390a3505050565b6001600160a01b0383166133895760405162461bcd60e51b815260206004820152602560248201527f45524332303a207472616e736665722066726f6d20746865207a65726f206164604482015264647265737360d81b60648201526084016110e2565b6001600160a01b0382166133eb5760405162461bcd60e51b815260206004820152602360248201527f45524332303a207472616e7366657220746f20746865207a65726f206164647260448201526265737360e81b60648201526084016110e2565b6001600160a01b038316600090815260976020526040902054818110156134635760405162461bcd60e51b815260206004820152602660248201527f45524332303a207472616e7366657220616d6f756e7420657863656564732062604482015265616c616e636560d01b60648201526084016110e2565b6001600160a01b0380851660009081526097602052604080822085850390559185168152908120805484929061349a9084906156c3565b92505081905550826001600160a01b0316846001600160a01b03167fddf252ad1be2c89b69c2b068fc378daa952ba7f163c4a11628f55a4df523b3ef846040516134e691815260200190565b60405180910390a35b50505050565b600061125c8284615805565b60cc546001600160a01b03620100009091048116907f00000000000000000000000000000000000000000000000000000000000000001681141561364e57604051632e1a7d4d60e01b8152600481018390527f00000000000000000000000000000000000000000000000000000000000000006001600160a01b031690632e1a7d4d90602401600060405180830381600087803b1580156135a157600080fd5b505af11580156135b5573d6000803e3d6000fd5b505050506000836001600160a01b03168360405160006040518083038185875af1925050503d8060008114613606576040519150601f19603f3d011682016040523d82523d6000602084013e61360b565b606091505b50509050806134ef5760405162461bcd60e51b815260206004820152600f60248201526e151c985b9cd9995c8819985a5b1959608a1b60448201526064016110e2565b611b616001600160a01b0382168484614817565b60cf5461ffff16600061367d84613677612541565b90614087565b60ce549091506001600160681b03168111156136c85760405162461bcd60e51b815260206004820152600a6024820152690457863656564206361760b41b60448201526064016110e2565b60cd54600160a01b900466ffffffffffffff168110156137215760405162461bcd60e51b8152602060048201526014602482015273496e73756666696369656e742062616c616e636560601b60448201526064016110e2565b60408051858152602081018490526001600160a01b038516917f90890809c654f11d6e72a28fa60149770a0d11ec6c92319d6ceb2bb0a4ea1a15910160405180910390a26001600160a01b038316600090815260c9602090815260408083208151606081018352905461ffff81168083526201000082046001600160681b031683860152600160781b9091046001600160801b031682840152845260ca90925282205460cc549192916137e0918491879190610100900460ff166145d1565b8251909150869061ffff1685141561381157602083015160009061380d906001600160681b031689614087565b9150505b61381a81613a01565b6040805160608101825261ffff80881682526001600160681b0380851660208085019182526001600160801b038089168688019081526001600160a01b038e16600090815260c990935296822095518654935197518216600160781b02600160781b600160f81b03199890951662010000026effffffffffffffffffffffffffffff1990941695169490941791909117949094161790915560d0546138c0911689614087565b90506138cb81614093565b60d080546001600160801b0319166001600160801b039290921691909117905550505050505050565b6040516001600160a01b03808516602483015283166044820152606481018290526134ef9085906323b872dd60e01b906084015b60408051601f198184030181529190526020810180516001600160e01b03166001600160e01b031990931692909217909152614847565b60008061396d83600a61573e565b90506000861161397d5780613995565b613995866131b561398e88886134f5565b84906147ff565b9695505050505050565b6000600183116139e95760405162461bcd60e51b8152602060048201526015602482015274496e76616c6964206173736574506572536861726560581b60448201526064016110e2565b6115ad6139f783600a61573e565b6131b586866147ff565b6001600160681b03811115612e935760405162461bcd60e51b815260206004820152601060248201526f13dd995c999b1bddc81d5a5b9d0c4c0d60821b60448201526064016110e2565b600054610100900460ff1680613a64575060005460ff16155b613a805760405162461bcd60e51b81526004016110e2906154d2565b600054610100900460ff16158015613aa2576000805461ffff19166101011790555b60405163c72733f760e01b81527386be9cd3c839765c83183927426B17fa9E4AD7ef9063c72733f790613ae7908c908c908c908b908d908c908c908c906004016153a4565b60006040518083038186803b158015613aff57600080fd5b505af4158015613b13573d6000803e3d6000fd5b50505050613b1f614919565b613b29848461498c565b613b31614a0b565b613b3a89612dfb565b60d480546001600160a01b03808b166001600160a01b03199283161790925560d38054928a169290911691909117905560d5859055613b8463031ba3096131b588620f42406147ff565b60d6558160cc613b9482826158db565b505060cc546040516370a0823160e01b81523060048201526000916201000090046001600160a01b0316906370a082319060240160206040518083038186803b158015613be057600080fd5b505afa158015613bf4573d6000803e3d6000fd5b505050506040513d601f19601f82011682018060405250810190613c1891906152b3565b9050613c2381613a01565b60cf805461ffff196001600160681b03909316600160781b02929092167fffffffff00000000000000000000000000ffffffffffffffffffffffffff00009092169190911760011790558015613c7f576000805461ff00191690555b505050505050505050565b6040805160c081018252600080825260208201819052918101829052606081018290526080810182905260a081019190915260d25460f55460f754604051630f7d679f60e01b81526001600160a01b039384166004820181905293909216602483015260448201526000907386be9cd3c839765c83183927426B17fa9E4AD7ef90630f7d679f9060640160206040518083038186803b158015613d2c57600080fd5b505af4158015613d40573d6000803e3d6000fd5b505050506040513d601f19601f82011682018060405250810190613d6491906152b3565b6001600160a01b0383811685527f000000000000000000000000000000000000000000000000000000000000000081166020860190815260cc546201000081048316604080890191825261010090920460ff16606089019081526080890186815260fb5460a08b019081529351633baf17fd60e21b81528a5187166004820152945186166024860152915190941660448401529251606483015291516084820152905160a48201529091507386be9cd3c839765c83183927426B17fa9E4AD7ef9063eebc5ff49060c40160206040518083038186803b158015613e4657600080fd5b505af4158015613e5a573d6000803e3d6000fd5b505050506040513d601f19601f82011682018060405250810190613e7e91906152b3565b60fc55505050565b33600090815260c9602090815260408083208151606081018352905461ffff8082168084526201000083046001600160681b031684870152600160781b9092046001600160801b03168385015260cf5491865260ca9094529184205460cc5491949290931692613f019185918591610100900460ff166145d1565b905083613f0e5784613f10565b805b945084613f1e575050505050565b80851115613f625760405162461bcd60e51b81526020600482015260116024820152704578636565647320617661696c61626c6560781b60448201526064016110e2565b825161ffff16821115613f8f5733600090815260c960205260409020805462010000600160781b03191690555b613f9885614093565b613fa281866134f5565b33600081815260c960205260409081902080546001600160801b0394909416600160781b02600160781b600160f81b0319909416939093179092558451915190917fe5b754fb1abb7f01b499791d0b820ae3b6af3424ac1c59768edb53f4ec31a9299161401b9189825261ffff16602082015260400190565b60405180910390a261402e303387613325565b5050505050565b606580546001600160a01b038381166001600160a01b0319831681179093556040519116919082907f8be0079c531659141344cd1fd0a4f28419497f9722a3daafe3b4186f6b6457e090600090a35050565b600061125c82846156c3565b6001600160801b03811115612e935760405162461bcd60e51b815260206004820152601060248201526f09eeccae4ccd8deee40ead2dce86264760831b60448201526064016110e2565b60d25460009081908190600160a01b900463ffffffff1642101561412c5760405162461bcd60e51b815260206004820152600660248201526521726561647960d01b60448201526064016110e2565b60d1546001600160a01b03169250826141755760405162461bcd60e51b815260206004820152600b60248201526a10b732bc3a27b83a34b7b760a91b60448201526064016110e2565b60d3546040805160c08101825260cc54610100810460ff16825291516370a0823160e01b81523060048201526001600160a01b03938416936000938493849384937386be9cd3c839765c83183927426B17fa9E4AD7ef9363633c14269360cf939092602084019262010000900416906370a082319060240160206040518083038186803b15801561420557600080fd5b505afa158015614219573d6000803e3d6000fd5b505050506040513d601f19601f8201168201806040525081019061423d91906152b3565b815260200161424b60995490565b815260208082018f905260d55460408084019190915260d65460609384015280516001600160e01b031960e088901b16815260048101959095528351602486015290830151604485015282015160648401528101516084830152608081015160a483015260a0015160c482015260e40160c06040518083038186803b1580156142d357600080fd5b505af41580156142e7573d6000803e3d6000fd5b505050506040513d601f19601f8201168201806040525081019061430b91906152ef565b809750819850829950839650849b50859c505050505050508760d160010160006101000a8154816001600160a01b0302191690836001600160a01b03160217905550600060d160000160006101000a8154816001600160a01b0302191690836001600160a01b03160217905550600060cf60000160009054906101000a900461ffff1661ffff1690508160ca600083815260200190815260200160002081905550856001600160a01b03167f0a242f7ecaf711036ca770774ceffae28e60ef042ac113ddd187f2631db0c0068585846040516143fa939291909283526020830191909152604082015260600190565b60405180910390a260d080546001600160801b031916905561441d8160016156c3565b60cf805461ffff191661ffff929092169190911790555061444090503084614a72565b8015614450576144508482613501565b505050509193909250565b60cf546201000090046001600160681b03166001600160a01b038216156144a75760cf80546cffffffffffffffffffffffffff60781b1916600160781b6001600160681b038416021790555b60cf805462010000600160781b031916905560d280546001600160a01b03191690556001600160a01b038216156145cd57604051636c6fe87f60e11b81526001600160a01b037f00000000000000000000000000000000000000000000000000000000000000001660048201526000907386be9cd3c839765c83183927426B17fa9E4AD7ef9063d8dfd0fe9060240160206040518083038186803b15801561454e57600080fd5b505af4158015614562573d6000803e3d6000fd5b505050506040513d601f19601f8201168201806040525081019061458691906152b3565b9050336001600160a01b0316836001600160a01b03167f7e830f7c1771deb1bdb35c4a7e6051bbac32b376f7f4e4976b8618b0b11997f78360405161331891815260200190565b5050565b835160009061ffff16158015906145ec5750845161ffff1684115b1561462e57600061460b86602001516001600160681b03168585614b51565b6040870151909150614626906001600160801b031682614087565b9150506115ad565b50505050604001516001600160801b031690565b33600090815260cb6020526040812080546001600160801b03620100008204169061ffff16816146a45760405162461bcd60e51b815260206004820152600d60248201526c139bdd081a5b9a5d1a585d1959609a1b60448201526064016110e2565b60cf5461ffff1681106146ec5760405162461bcd60e51b815260206004820152601060248201526f149bdd5b99081b9bdd0818db1bdcd95960821b60448201526064016110e2565b33600090815260cb60205260409020805462010000600160901b031916905560d05461472890600160801b90046001600160801b0316836134f5565b60d080546001600160801b03928316600160801b029216919091179055600081815260ca602052604081205460cc5461476b91859160ff6101009091041661399f565b604080518281526020810186905291925033917ff279e6a1f5e320cca91135676d9cb6e44ca8a08c0b88342bcdb1144f6511b568910160405180910390a26147b33084614bb4565b600081116147f55760405162461bcd60e51b815260206004820152600f60248201526e085dda5d1a191c985dd05b5bdd5b9d608a1b60448201526064016110e2565b6115ad3382613501565b600061125c82846157e6565b600061125c82846156db565b6040516001600160a01b038316602482015260448101829052611b6190849063a9059cbb60e01b90606401613928565b600061489c826040518060400160405280602081526020017f5361666545524332303a206c6f772d6c6576656c2063616c6c206661696c6564815250856001600160a01b0316614d029092919063ffffffff16565b805190915015611b6157808060200190518101906148ba91906151fc565b611b615760405162461bcd60e51b815260206004820152602a60248201527f5361666545524332303a204552433230206f7065726174696f6e20646964206e6044820152691bdd081cdd58d8d9595960b21b60648201526084016110e2565b600054610100900460ff1680614932575060005460ff16155b61494e5760405162461bcd60e51b81526004016110e2906154d2565b600054610100900460ff16158015614970576000805461ffff19166101011790555b614978614d11565b8015612e93576000805461ff001916905550565b600054610100900460ff16806149a5575060005460ff16155b6149c15760405162461bcd60e51b81526004016110e2906154d2565b600054610100900460ff161580156149e3576000805461ffff19166101011790555b6149eb614d80565b6149f58383614dea565b8015611b61576000805461ff0019169055505050565b600054610100900460ff1680614a24575060005460ff16155b614a405760405162461bcd60e51b81526004016110e2906154d2565b600054610100900460ff16158015614a62576000805461ffff19166101011790555b614a6a614d80565b614978614e7f565b6001600160a01b038216614ac85760405162461bcd60e51b815260206004820152601f60248201527f45524332303a206d696e7420746f20746865207a65726f20616464726573730060448201526064016110e2565b8060996000828254614ada91906156c3565b90915550506001600160a01b03821660009081526097602052604081208054839290614b079084906156c3565b90915550506040518181526001600160a01b038316906000907fddf252ad1be2c89b69c2b068fc378daa952ba7f163c4a11628f55a4df523b3ef9060200160405180910390a35050565b600060018311614b9b5760405162461bcd60e51b8152602060048201526015602482015274496e76616c6964206173736574506572536861726560581b60448201526064016110e2565b6115ad836131b5614bad85600a61573e565b87906147ff565b6001600160a01b038216614c145760405162461bcd60e51b815260206004820152602160248201527f45524332303a206275726e2066726f6d20746865207a65726f206164647265736044820152607360f81b60648201526084016110e2565b6001600160a01b03821660009081526097602052604090205481811015614c885760405162461bcd60e51b815260206004820152602260248201527f45524332303a206275726e20616d6f756e7420657863656564732062616c616e604482015261636560f01b60648201526084016110e2565b6001600160a01b0383166000908152609760205260408120838303905560998054849290614cb7908490615805565b90915550506040518281526000906001600160a01b038516907fddf252ad1be2c89b69c2b068fc378daa952ba7f163c4a11628f55a4df523b3ef9060200160405180910390a3505050565b60606115ad8484600085614edf565b600054610100900460ff1680614d2a575060005460ff16155b614d465760405162461bcd60e51b81526004016110e2906154d2565b600054610100900460ff16158015614d68576000805461ffff19166101011790555b600180558015612e93576000805461ff001916905550565b600054610100900460ff1680614d99575060005460ff16155b614db55760405162461bcd60e51b81526004016110e2906154d2565b600054610100900460ff16158015614978576000805461ffff19166101011790558015612e93576000805461ff001916905550565b600054610100900460ff1680614e03575060005460ff16155b614e1f5760405162461bcd60e51b81526004016110e2906154d2565b600054610100900460ff16158015614e41576000805461ffff19166101011790555b8251614e5490609a906020860190615040565b508151614e6890609b906020850190615040565b508015611b61576000805461ff0019169055505050565b600054610100900460ff1680614e98575060005460ff16155b614eb45760405162461bcd60e51b81526004016110e2906154d2565b600054610100900460ff16158015614ed6576000805461ffff19166101011790555b61497833614035565b606082471015614f405760405162461bcd60e51b815260206004820152602660248201527f416464726573733a20696e73756666696369656e742062616c616e636520666f6044820152651c8818d85b1b60d21b60648201526084016110e2565b843b614f8e5760405162461bcd60e51b815260206004820152601d60248201527f416464726573733a2063616c6c20746f206e6f6e2d636f6e747261637400000060448201526064016110e2565b600080866001600160a01b03168587604051614faa9190615388565b60006040518083038185875af1925050503d8060008114614fe7576040519150601f19603f3d011682016040523d82523d6000602084013e614fec565b606091505b5091509150614ffc828286615007565b979650505050505050565b6060831561501657508161125c565b8251156150265782518084602001fd5b8160405162461bcd60e51b81526004016110e2919061549e565b82805461504c90615848565b90600052602060002090601f01602090048101928261506e57600085556150b4565b82601f1061508757805160ff19168380011785556150b4565b828001600101855582156150b4579182015b828111156150b4578251825591602001919060010190615099565b506150c09291506150c4565b5090565b5b808211156150c057600081556001016150c5565b80356150e4816159ec565b919050565b80356150e481615a0f565b80356150e481615a24565b600060208284031215615110578081fd5b813561125c816159ec565b6000806040838503121561512d578081fd5b8235615138816159ec565b91506020830135615148816159ec565b809150509250929050565b600080600060608486031215615167578081fd5b8335615172816159ec565b92506020840135615182816159ec565b929592945050506040919091013590565b600080604083850312156151a5578182fd5b82356151b0816159ec565b946020939093013593505050565b600080600080608085870312156151d3578081fd5b84516151de816159ec565b60208601516040870151606090970151919890975090945092505050565b60006020828403121561520d578081fd5b815161125c81615a01565b60008082840360e081121561522b578283fd5b833567ffffffffffffffff811115615241578384fd5b84016101608187031215615253578384fd5b925060c0601f1982011215615266578182fd5b506020830190509250929050565b600060208284031215615285578081fd5b81356001600160801b038116811461125c578182fd5b6000602082840312156152ac578081fd5b5035919050565b6000602082840312156152c4578081fd5b5051919050565b600080604083850312156152dd578182fd5b823591506020830135615148816159ec565b60008060008060008060c08789031215615307578182fd5b865195506020870151945060408701519350606087015192506080870151915060a087015190509295509295509295565b600060208284031215615349578081fd5b813563ffffffff8116811461125c578182fd5b6000815180845261537481602086016020860161581c565b601f01601f19169290920160200192915050565b6000825161539a81846020870161581c565b9190910192915050565b60006101a060018060a01b03808c168452808b166020850152808a1660408501528860608501528760808501528160a08501526153e38285018861535c565b915083820360c08501526153f7828761535c565b92508435915061540682615a01565b90151560e084015260208401359061541d82615a39565b60ff821661010085015260408501359150615437826159ec565b1661012083015261544a606084016150d9565b6001600160a01b0316610140830152615465608084016150f4565b66ffffffffffffff1661016083015261548060a084016150e9565b6001600160681b038116610180840152509998505050505050505050565b60208152600061125c602083018461535c565b60208082526007908201526610b5b2b2b832b960c91b604082015260600190565b6020808252602e908201527f496e697469616c697a61626c653a20636f6e747261637420697320616c72656160408201526d191e481a5b9a5d1a585b1a5e995960921b606082015260800190565b6020808252818101527f4f776e61626c653a2063616c6c6572206973206e6f7420746865206f776e6572604082015260600190565b60208082526007908201526608585b5bdd5b9d60ca1b604082015260600190565b6020808252601f908201527f5265656e7472616e637947756172643a207265656e7472616e742063616c6c00604082015260600190565b83516001600160a01b031681526020808501516101608301916155da908401826001600160a01b03169052565b5060408501516155f560408401826001600160a01b03169052565b50606085015160608301526080850151615615608084018261ffff169052565b5060a085015160a083015260c085015161563a60c08401826001600160a01b03169052565b5060e085015161565560e08401826001600160a01b03169052565b5061010094850151948201949094526101208101929092526101409091015290565b6000808335601e1984360301811261568d578283fd5b83018035915067ffffffffffffffff8211156156a7578283fd5b6020019150368190038213156156bc57600080fd5b9250929050565b600082198211156156d6576156d661589e565b500190565b6000826156f657634e487b7160e01b81526012600452602481fd5b500490565b600181815b8085111561573657816000190482111561571c5761571c61589e565b8085161561572957918102915b93841c9390800290615700565b509250929050565b600061125c8383600082615754575060016111b1565b81615761575060006111b1565b816001811461577757600281146157815761579d565b60019150506111b1565b60ff8411156157925761579261589e565b50506001821b6111b1565b5060208310610133831016604e8410600b84101617156157c0575081810a6111b1565b6157ca83836156fb565b80600019048211156157de576157de61589e565b029392505050565b60008160001904831182151516156158005761580061589e565b500290565b6000828210156158175761581761589e565b500390565b60005b8381101561583757818101518382015260200161581f565b838111156134ef5750506000910152565b600181811c9082168061585c57607f821691505b6020821081141561587d57634e487b7160e01b600052602260045260246000fd5b50919050565b60006000198214156158975761589761589e565b5060010190565b634e487b7160e01b600052601160045260246000fd5b600081356111b1816159ec565b600081356111b181615a0f565b600081356111b181615a24565b81356158e681615a01565b815460ff19811691151560ff169182178355602084013561590681615a39565b61ff008160081b169050808361ffff19841617178455604085013561592a816159ec565b6001600160b01b0319929092169092179190911760109190911b62010000600160b01b031617815560018101615982615965606085016158b4565b82546001600160a01b0319166001600160a01b0391909116178255565b6159bb615991608085016158ce565b82805466ffffffffffffff60a01b191660a09290921b66ffffffffffffff60a01b16919091179055565b506145cd6159cb60a084016158c1565b600283016001600160681b0382166001600160681b03198254161781555050565b6001600160a01b0381168114612e9357600080fd5b8015158114612e9357600080fd5b6001600160681b0381168114612e9357600080fd5b66ffffffffffffff81168114612e9357600080fd5b60ff81168114612e9357600080fdfea26469706673582212206588c75ab60489ebc44f18f7ba13edd92d6120525c98590fd12e241227f5cd0f64736f6c63430008040033",
  "deployedBytecode": "0x60806040526004361061047e5760003560e01c80638778878211610255578063b4d1d79511610144578063e73c63d5116100c1578063f656ba5111610085578063f656ba5114610fec578063f756fa2114611021578063f957a06714611036578063f9a0be6814611056578063fba7dc6114611077578063fe56e2321461109857600080fd5b8063e73c63d514610f79578063e74b981b14610f8f578063ea00b1ca14610faf578063f2fde38b14610fc4578063f6326fb314610fe457600080fd5b8063d164cc1511610108578063d164cc1514610ea9578063d5f2638214610ec9578063db006a7514610edf578063db43e86214610eff578063dd62ed3e14610f3357600080fd5b8063b4d1d79514610e1d578063b6b55f2514610e34578063b9f8092b14610e54578063ce7c2ac214610e69578063d13f1b3e14610e8957600080fd5b8063a2db9d83116101d2578063a9059cbb11610196578063a9059cbb14610d74578063aced166114610d94578063ad5c464814610db4578063ad7a672f14610de8578063afa6626414610dfd57600080fd5b8063a2db9d8314610ce0578063a457c2d714610cfe578063a497e67414610d1e578063a694fc3a14610d3e578063a6f7f5d614610d5e57600080fd5b806399530b061161021957806399530b0614610b7a5780639be43daa14610b8f5780639fcc2d7514610baf578063a083ff1714610c5b578063a285c9e814610cbe57600080fd5b80638778878214610adf57806389a3027114610af55780638b10cc7c14610b295780638da5cb5b14610b4757806395d89b4114610b6557600080fd5b806347786d37116103715780636b64c769116102ee578063715018a6116102b2578063715018a614610a035780637a9262a214610a185780637e108d5214610a7c57806383536ff314610a9c57806387153eb114610ab257600080fd5b80636b64c7691461094f5780636c10f66c146109645780636f31ab341461099857806370897b23146109ad57806370a08231146109cd57600080fd5b8063600a2cfb11610335578063600a2cfb14610858578063611b034d1461086d578063650cce8a146108825780636719b2ee146108b657806369b411701461093a57600080fd5b806347786d37146107c25780634ac88cb6146107e2578063503c70aa1461080257806355489bb214610818578063583582071461083857600080fd5b8063313ce567116103ff5780633f23bb73116103c35780633f23bb731461072e5780633f90916a1461074e578063432833a61461076c5780634603c0aa1461078257806346904840146107a257600080fd5b8063313ce56714610678578063355274ea146106a257806336efd16f146106c057806339509351146106e05780633ec143d31461070057600080fd5b80631a92f6c2116104465780631a92f6c21461053957806323b872dd146105855780632728f333146105a55780632775d01c1461063857806330630da41461065857600080fd5b8063048bf0851461048357806306fdde03146104a5578063095ea7b3146104d05780630cbf54c81461050057806318160ddd14610524575b600080fd5b34801561048f57600080fd5b506104a361049e3660046150ff565b6110b8565b005b3480156104b157600080fd5b506104ba61110e565b6040516104c7919061549e565b60405180910390f35b3480156104dc57600080fd5b506104f06104eb366004615193565b6111a0565b60405190151581526020016104c7565b34801561050c57600080fd5b5061051660fb5481565b6040519081526020016104c7565b34801561053057600080fd5b50609954610516565b34801561054557600080fd5b5061056d7f000000000000000000000000000000000000000000000000000000000000000081565b6040516001600160a01b0390911681526020016104c7565b34801561059157600080fd5b506104f06105a0366004615153565b6111b7565b3480156105b157600080fd5b5060cf5460d0546105f39161ffff8116916001600160681b03620100008304811692600160781b900416906001600160801b0380821691600160801b90041685565b6040805161ffff90961686526001600160681b03948516602087015293909216928401929092526001600160801b03918216606084015216608082015260a0016104c7565b34801561064457600080fd5b506104a361065336600461529b565b611263565b34801561066457600080fd5b506104a36106733660046150ff565b611406565b34801561068457600080fd5b5060cc54610100900460ff1660405160ff90911681526020016104c7565b3480156106ae57600080fd5b5060ce546001600160681b0316610516565b3480156106cc57600080fd5b506104a36106db3660046152cb565b61149e565b3480156106ec57600080fd5b506104f06106fb366004615193565b611526565b34801561070c57600080fd5b5060f95461071b9061ffff1681565b60405161ffff90911681526020016104c7565b34801561073a57600080fd5b506105166107493660046150ff565b611562565b34801561075a57600080fd5b5060d0546001600160801b0316610516565b34801561077857600080fd5b5061051660fc5481565b34801561078e57600080fd5b506104a361079d3660046150ff565b6115b5565b3480156107ae57600080fd5b5060d35461056d906001600160a01b031681565b3480156107ce57600080fd5b506104a36107dd36600461529b565b611657565b3480156107ee57600080fd5b506104a36107fd3660046150ff565b611732565b34801561080e57600080fd5b5061051660fd5481565b34801561082457600080fd5b506104a3610833366004615274565b61177f565b34801561084457600080fd5b506104a3610853366004615218565b611817565b34801561086457600080fd5b506104a3611b66565b34801561087957600080fd5b506104a3611cc1565b34801561088e57600080fd5b5061056d7f000000000000000000000000000000000000000000000000000000000000000081565b3480156108c257600080fd5b506109096108d13660046150ff565b60c96020526000908152604090205461ffff8116906201000081046001600160681b031690600160781b90046001600160801b031683565b6040805161ffff90941684526001600160681b0390921660208401526001600160801b0316908201526060016104c7565b34801561094657600080fd5b50610516600081565b34801561095b57600080fd5b506104a3611ddb565b34801561097057600080fd5b5061056d7f000000000000000000000000000000000000000000000000000000000000000081565b3480156109a457600080fd5b506104a3611e3b565b3480156109b957600080fd5b506104a36109c836600461529b565b611e72565b3480156109d957600080fd5b506105166109e83660046150ff565b6001600160a01b031660009081526097602052604090205490565b348015610a0f57600080fd5b506104a3611f39565b348015610a2457600080fd5b50610a5a610a333660046150ff565b60cb6020526000908152604090205461ffff8116906201000090046001600160801b031682565b6040805161ffff90931683526001600160801b039091166020830152016104c7565b348015610a8857600080fd5b506104a3610a9736600461529b565b611f6f565b348015610aa857600080fd5b5061051660f75481565b348015610abe57600080fd5b50610516610acd36600461529b565b60ca6020526000908152604090205481565b348015610aeb57600080fd5b5061051660d55481565b348015610b0157600080fd5b5061056d7f000000000000000000000000000000000000000000000000000000000000000081565b348015610b3557600080fd5b5060d2546001600160a01b031661056d565b348015610b5357600080fd5b506065546001600160a01b031661056d565b348015610b7157600080fd5b506104ba6121aa565b348015610b8657600080fd5b506105166121b9565b348015610b9b57600080fd5b506104a3610baa36600461529b565b6121f3565b348015610bbb57600080fd5b5060cc5460cd5460ce54610c0b9260ff808216936101008304909116926001600160a01b036201000090930483169282169166ffffffffffffff600160a01b90910416906001600160681b031686565b60408051961515875260ff90951660208701526001600160a01b03938416948601949094529116606084015266ffffffffffffff1660808301526001600160681b031660a082015260c0016104c7565b348015610c6757600080fd5b5060d15460d254610c92916001600160a01b039081169190811690600160a01b900463ffffffff1683565b604080516001600160a01b03948516815293909216602084015263ffffffff16908201526060016104c7565b348015610cca57600080fd5b5060d254600160a01b900463ffffffff16610516565b348015610cec57600080fd5b5060d1546001600160a01b031661056d565b348015610d0a57600080fd5b506104f0610d19366004615193565b6122ed565b348015610d2a57600080fd5b506104a3610d3936600461529b565b612386565b348015610d4a57600080fd5b506104a3610d5936600461529b565b612443565b348015610d6a57600080fd5b5061051660d65481565b348015610d8057600080fd5b506104f0610d8f366004615193565b612534565b348015610da057600080fd5b5060d45461056d906001600160a01b031681565b348015610dc057600080fd5b5061056d7f000000000000000000000000000000000000000000000000000000000000000081565b348015610df457600080fd5b50610516612541565b348015610e0957600080fd5b5060f55461056d906001600160a01b031681565b348015610e2957600080fd5b5061051662093a8081565b348015610e4057600080fd5b506104a3610e4f36600461529b565b6125e0565b348015610e6057600080fd5b506104a361264d565b348015610e7557600080fd5b50610516610e843660046150ff565b6128c1565b348015610e9557600080fd5b506104a3610ea436600461529b565b6128de565b348015610eb557600080fd5b506104a3610ec43660046150ff565b6129a3565b348015610ed557600080fd5b5061051660f85481565b348015610eeb57600080fd5b506104a3610efa36600461529b565b612a32565b348015610f0b57600080fd5b5061056d7f000000000000000000000000000000000000000000000000000000000000000081565b348015610f3f57600080fd5b50610516610f4e36600461511b565b6001600160a01b03918216600090815260986020908152604080832093909416825291909152205490565b348015610f8557600080fd5b5061051660fa5481565b348015610f9b57600080fd5b506104a3610faa3660046150ff565b612a9f565b348015610fbb57600080fd5b506104a3612b92565b348015610fd057600080fd5b506104a3610fdf3660046150ff565b612dfb565b6104a3612e96565b348015610ff857600080fd5b5061100c6110073660046150ff565b612fe7565b604080519283526020830191909152016104c7565b34801561102d57600080fd5b506104a36130ca565b34801561104257600080fd5b5060f65461056d906001600160a01b031681565b34801561106257600080fd5b506101005461056d906001600160a01b031681565b34801561108357600080fd5b506101015461056d906001600160a01b031681565b3480156110a457600080fd5b506104a36110b336600461529b565b61311f565b6065546001600160a01b031633146110eb5760405162461bcd60e51b81526004016110e290615520565b60405180910390fd5b61010080546001600160a01b0319166001600160a01b0392909216919091179055565b6060609a805461111d90615848565b80601f016020809104026020016040519081016040528092919081815260200182805461114990615848565b80156111965780601f1061116b57610100808354040283529160200191611196565b820191906000526020600020905b81548152906001019060200180831161117957829003601f168201915b5050505050905090565b60006111ad338484613200565b5060015b92915050565b60006111c4848484613325565b6001600160a01b0384166000908152609860209081526040808320338452909152902054828110156112495760405162461bcd60e51b815260206004820152602860248201527f45524332303a207472616e7366657220616d6f756e74206578636565647320616044820152676c6c6f77616e636560c01b60648201526084016110e2565b6112568533858403613200565b60019150505b9392505050565b600260015414156112865760405162461bcd60e51b81526004016110e290615576565b600260015533600090815260c96020526040902060cf5461ffff16826112be5760405162461bcd60e51b81526004016110e290615555565b815461ffff1681146113025760405162461bcd60e51b815260206004820152600d60248201526c125b9d985b1a59081c9bdd5b99609a1b60448201526064016110e2565b81546201000090046001600160681b0316838110156113535760405162461bcd60e51b815260206004820152600d60248201526c115e18d9595908185b5bdd5b9d609a1b60448201526064016110e2565b61135d81856134f5565b83546001600160681b0391909116620100000262010000600160781b031990911617835560d054611397906001600160801b0316856134f5565b60d080546001600160801b0319166001600160801b0392909216919091179055604080518581526020810184905233917fab2daf3c146ca6416cbccd2a86ed2ba995e171ef6319df14a38aef01403a9c96910160405180910390a26113fc3385613501565b5050600180555050565b6065546001600160a01b031633146114305760405162461bcd60e51b81526004016110e290615520565b6001600160a01b03811661147c5760405162461bcd60e51b815260206004820152601360248201527210b732bba9ba3934b5b2a9b2b632b1ba34b7b760691b60448201526064016110e2565b60f680546001600160a01b0319166001600160a01b0392909216919091179055565b600260015414156114c15760405162461bcd60e51b81526004016110e290615576565b6002600155816114e35760405162461bcd60e51b81526004016110e290615555565b6001600160a01b0381166114f657600080fd5b6115008282613662565b60cc5461151e906201000090046001600160a01b03163330856138f4565b505060018055565b3360008181526098602090815260408083206001600160a01b038716845290915281205490916111ad91859061155d9086906156c3565b613200565b60cc5460009060ff610100909104168161159861157e60995490565b611586612541565b60d0546001600160801b03168561395f565b90506115ad6115a6856128c1565b828461399f565b949350505050565b6065546001600160a01b031633146115df5760405162461bcd60e51b81526004016110e290615520565b6001600160a01b0381166116355760405162461bcd60e51b815260206004820152601860248201527f216e65774f7074696f6e735072656d69756d507269636572000000000000000060448201526064016110e2565b60f580546001600160a01b0319166001600160a01b0392909216919091179055565b6065546001600160a01b031633146116815760405162461bcd60e51b81526004016110e290615520565b600081116116bb5760405162461bcd60e51b81526020600482015260076024820152660216e65774361760cc1b60448201526064016110e2565b6116c481613a01565b60ce54604080516001600160681b039092168252602082018390527f5f86edbb9d92228a9edc3f0ebc0f001bda1ea345ac7335e0eeef3504b31d1a1c910160405180910390a160ce80546cffffffffffffffffffffffffff19166001600160681b0392909216919091179055565b6065546001600160a01b0316331461175c5760405162461bcd60e51b81526004016110e290615520565b61010180546001600160a01b0319166001600160a01b0392909216919091179055565b6065546001600160a01b031633146117a95760405162461bcd60e51b81526004016110e290615520565b6000816001600160801b0316116117f15760405162461bcd60e51b815260206004820152600c60248201526b21737472696b65507269636560a01b60448201526064016110e2565b6001600160801b031660fa5560cf5460f9805461ffff191661ffff909216919091179055565b600054610100900460ff1680611830575060005460ff16155b61184c5760405162461bcd60e51b81526004016110e2906154d2565b600054610100900460ff1615801561186e576000805461ffff19166101011790555b61193361187e60208501856150ff565b61188e60408601602087016150ff565b61189e60608701604088016150ff565b606087013560808801356118b560a08a018a615677565b8080601f0160208091040260200160405190810160405280939291908181526020018383808284376000920191909152506118f79250505060c08b018b615677565b8080601f0160208091040260200160405190810160405280939291908181526020018383808284376000920191909152508c9250613a4b915050565b6000611946610100850160e086016150ff565b6001600160a01b031614156119965760405162461bcd60e51b815260206004820152601660248201527510afb7b83a34b7b739a83932b6b4bab6a83934b1b2b960511b60448201526064016110e2565b60006119aa610120850161010086016150ff565b6001600160a01b031614156119f55760405162461bcd60e51b815260206004820152601160248201527010afb9ba3934b5b2a9b2b632b1ba34b7b760791b60448201526064016110e2565b6000611a0961014085016101208601615338565b63ffffffff16118015611a3d5750611a23600a60646157e6565b611a3561014085016101208601615338565b63ffffffff16105b611a7d5760405162461bcd60e51b81526020600482015260116024820152700857dc1c995b5a5d5b511a5cd8dbdd5b9d607a1b60448201526064016110e2565b61012c8361014001351015611ac85760405162461bcd60e51b815260206004820152601160248201527010afb0bab1ba34b7b7223ab930ba34b7b760791b60448201526064016110e2565b611ad9610100840160e085016150ff565b60f580546001600160a01b0319166001600160a01b0392909216919091179055611b0b610120840161010085016150ff565b60f680546001600160a01b0319166001600160a01b0392909216919091179055611b3d61014084016101208501615338565b63ffffffff1660f75561014083013560fb558015611b61576000805461ff00191690555b505050565b60d4546001600160a01b03163314611b905760405162461bcd60e51b81526004016110e2906154b1565b60026001541415611bb35760405162461bcd60e51b81526004016110e290615576565b600260015560d2546040516358ffbb3d60e01b81526001600160a01b037f000000000000000000000000000000000000000000000000000000000000000081166004830152909116602482015260009073__$c4f279750f4bbb575ac7775e752dc00849$__906358ffbb3d9060440160206040518083038186803b158015611c3a57600080fd5b505af4158015611c4e573d6000803e3d6000fd5b505050506040513d601f19601f82011682018060405250810190611c7291906152b3565b60cf54909150611c91906201000090046001600160681b0316826134f5565b60cf80546001600160681b0392909216620100000262010000600160781b03199092169190911790555060018055565b60d4546001600160a01b03163314611ceb5760405162461bcd60e51b81526004016110e2906154b1565b60026001541415611d0e5760405162461bcd60e51b81526004016110e290615576565b60026001556101015460fc54604051632288d73760e11b81526001600160a01b0392831660048201527f00000000000000000000000000000000000000000000000000000000000000009092166024830152604482015273__$c4f279750f4bbb575ac7775e752dc00849$__90634511ae6e9060640160206040518083038186803b158015611d9c57600080fd5b505af4158015611db0573d6000803e3d6000fd5b505050506040513d601f19601f82011682018060405250810190611dd491906152b3565b5060018055565b60d4546001600160a01b03163314611e055760405162461bcd60e51b81526004016110e2906154b1565b60026001541415611e285760405162461bcd60e51b81526004016110e290615576565b6002600155611e35613c8a565b60018055565b60026001541415611e5e5760405162461bcd60e51b81526004016110e290615576565b6002600181905550611e3560006001613e86565b6065546001600160a01b03163314611e9c5760405162461bcd60e51b81526004016110e290615520565b611eaa620f424060646157e6565b8110611ef85760405162461bcd60e51b815260206004820152601760248201527f496e76616c696420706572666f726d616e63652066656500000000000000000060448201526064016110e2565b60d55460408051918252602082018390527f24867dfb6fcb9970a07be21024956524abe7a1837faa903ff0e99aaa40cf893e910160405180910390a160d555565b6065546001600160a01b03163314611f635760405162461bcd60e51b81526004016110e290615520565b611f6d6000614035565b565b60026001541415611f925760405162461bcd60e51b81526004016110e290615576565b600260015580611fd15760405162461bcd60e51b815260206004820152600a602482015269216e756d53686172657360b01b60448201526064016110e2565b33600090815260c960205260409020546201000090046001600160681b031615158061201b575033600090815260c96020526040902054600160781b90046001600160801b031615155b1561202c5761202c60006001613e86565b60cf5433600081815260cb60209081526040918290208054835187815261ffff96871693810184905292959194911685149290917f0c53c82ad07e2d592d88ece3b066777dd60f1118e2a081b380efc4358f0d9e2a910160405180910390a281546201000090046001600160801b0316600082156120b5576120ae8287614087565b9050612118565b81156120f75760405162461bcd60e51b81526020600482015260116024820152704578697374696e6720776974686472617760781b60448201526064016110e2565b5033600090815260cb60205260409020805461ffff191661ffff8616179055845b61212181614093565b33600090815260cb6020526040812080546001600160801b03808516620100000262010000600160901b03199092169190911790915560d05461216d91600160801b9091041688614087565b905061217881614093565b60d080546001600160801b03808416600160801b02911617905561219d333089613325565b5050600180555050505050565b6060609b805461111d90615848565b60006121ee6121c760995490565b6121cf612541565b60d05460cc546001600160801b0390911690610100900460ff1661395f565b905090565b600260015414156122165760405162461bcd60e51b81526004016110e290615576565b6002600155806122555760405162461bcd60e51b815260206004820152600a602482015269216e756d526f756e647360b01b60448201526064016110e2565b60cf5461ffff1660005b828110156122e457600061227382846156c3565b600081815260ca6020526040902054909150156122c05760405162461bcd60e51b815260206004820152600b60248201526a125b9a5d1a585b1a5e995960aa1b60448201526064016110e2565b600090815260ca6020526040902060019055806122dc81615883565b91505061225f565b50506001805550565b3360009081526098602090815260408083206001600160a01b03861684529091528120548281101561236f5760405162461bcd60e51b815260206004820152602560248201527f45524332303a2064656372656173656420616c6c6f77616e63652062656c6f77604482015264207a65726f60d81b60648201526084016110e2565b61237c3385858403613200565b5060019392505050565b6065546001600160a01b031633146123b05760405162461bcd60e51b81526004016110e290615520565b61012c8110156124025760405162461bcd60e51b815260206004820152601860248201527f496e76616c69642061756374696f6e206475726174696f6e000000000000000060448201526064016110e2565b60fb5460408051918252602082018390527f5acd982e2240ed224a69aa03dab039d3797c108e4b5f288cd7dd6ca181b275f3910160405180910390a160fb55565b600260015414156124665760405162461bcd60e51b81526004016110e290615576565b6002600155610100546001600160a01b03168061248257600080fd5b6000821161248f57600080fd5b33600090815260976020526040902054828110156124bb576124bb6124b484836134f5565b6000613e86565b6124c6333085613325565b6124d1308385613200565b6040516383df674760e01b815260048101849052336024820152600060448201526001600160a01b038316906383df674790606401600060405180830381600087803b15801561252057600080fd5b505af115801561219d573d6000803e3d6000fd5b60006111ad338484613325565b60cc546040516370a0823160e01b81523060048201526000916121ee91620100009091046001600160a01b0316906370a082319060240160206040518083038186803b15801561259057600080fd5b505afa1580156125a4573d6000803e3d6000fd5b505050506040513d601f19601f820116820180604052508101906125c891906152b3565b60cf546201000090046001600160681b031690614087565b600260015414156126035760405162461bcd60e51b81526004016110e290615576565b6002600155806126255760405162461bcd60e51b81526004016110e290615555565b61262f8133613662565b60cc54611dd4906201000090046001600160a01b03163330846138f4565b60d4546001600160a01b031633146126775760405162461bcd60e51b81526004016110e2906154b1565b6002600154141561269a5760405162461bcd60e51b81526004016110e290615576565b600260018190555060008060006126b260fd546140dd565b60fd819055919450925090506126c782613a01565b60cf805462010000600160781b031916620100006001600160681b0385160217905560405182815233906001600160a01b038516907f045c558fdce4714c5816d53820d27420f4cd860892df203fe636384d8d19aa019060200160405180910390a3604051632904c23960e01b81526001600160a01b037f0000000000000000000000000000000000000000000000000000000000000000811660048301527f000000000000000000000000000000000000000000000000000000000000000081166024830152841660448201526064810183905260009073__$c4f279750f4bbb575ac7775e752dc00849$__90632904c2399060840160206040518083038186803b1580156127d657600080fd5b505af41580156127ea573d6000803e3d6000fd5b505050506040513d601f19601f8201168201806040525081019061280e91906152b3565b61010154604051636648c73d60e11b81526001600160a01b039182166004820152908616602482015260448101829052611388606482015290915073__$c4f279750f4bbb575ac7775e752dc00849$__9063cc918e7a9060840160206040518083038186803b15801561288057600080fd5b505af4158015612894573d6000803e3d6000fd5b505050506040513d601f19601f820116820180604052508101906128b891906152b3565b506113fc613c8a565b60008060006128cf84612fe7565b90925090506115ad8282614087565b60d4546001600160a01b031633146129085760405162461bcd60e51b81526004016110e2906154b1565b600081118015612923575061291f600a60646157e6565b8111155b6129625760405162461bcd60e51b815260206004820152601060248201526f125b9d985b1a5908191a5cd8dbdd5b9d60821b60448201526064016110e2565b60f75460408051918252602082018390527f4cd657fde404967d63a338fb06c5c98751a9df57dfae6dc333a432faf8a5f656910160405180910390a160f755565b6065546001600160a01b031633146129cd5760405162461bcd60e51b81526004016110e290615520565b6001600160a01b038116612a105760405162461bcd60e51b815260206004820152600a60248201526910b732bba5b2b2b832b960b11b60448201526064016110e2565b60d480546001600160a01b0319166001600160a01b0392909216919091179055565b60026001541415612a555760405162461bcd60e51b81526004016110e290615576565b600260015580612a945760405162461bcd60e51b815260206004820152600a602482015269216e756d53686172657360b01b60448201526064016110e2565b611dd4816000613e86565b6065546001600160a01b03163314612ac95760405162461bcd60e51b81526004016110e290615520565b6001600160a01b038116612b125760405162461bcd60e51b815260206004820152601060248201526f085b995dd19959549958da5c1a595b9d60821b60448201526064016110e2565b60d3546001600160a01b0382811691161415612b705760405162461bcd60e51b815260206004820152601860248201527f4d757374206265206e657720666565526563697069656e74000000000000000060448201526064016110e2565b60d380546001600160a01b0319166001600160a01b0392909216919091179055565b60026001541415612bb55760405162461bcd60e51b81526004016110e290615576565b600260015560d25460408051610120810182526001600160a01b037f0000000000000000000000000000000000000000000000000000000000000000811682527f00000000000000000000000000000000000000000000000000000000000000008116602083015292831681830181905260006060830181905260f95461ffff16608084015260fa5460a084015260f654851660c084015260f55490941660e083015260f754610100830152915163f39ad79560e01b81529192909181908190819073__$c4f279750f4bbb575ac7775e752dc00849$__9063f39ad79590612ca790889060cc9060cf906004016155ad565b60806040518083038186803b158015612cbf57600080fd5b505af4158015612cd3573d6000803e3d6000fd5b505050506040513d601f19601f82011682018060405250810190612cf791906151be565b93509350935093507fa217999b1c125c2a996f712c5f26a28addad7167bd8a67d5bd5b2a751148abb08282604051612d39929190918252602082015260400190565b60405180910390a1612d4a83613a01565b6001600160681b03831660f85560d180546001600160a01b0319166001600160a01b0386161790556000612d7e4282614087565b905063ffffffff811115612dd45760405162461bcd60e51b815260206004820152601860248201527f4f766572666c6f77206e6578744f7074696f6e5265616479000000000000000060448201526064016110e2565b60d2805463ffffffff60a01b1916600160a01b63ffffffff84160217905561219d8761445b565b6065546001600160a01b03163314612e255760405162461bcd60e51b81526004016110e290615520565b6001600160a01b038116612e8a5760405162461bcd60e51b815260206004820152602660248201527f4f776e61626c653a206e6577206f776e657220697320746865207a65726f206160448201526564647265737360d01b60648201526084016110e2565b612e9381614035565b50565b60026001541415612eb95760405162461bcd60e51b81526004016110e290615576565b600260015560cc547f00000000000000000000000000000000000000000000000000000000000000006001600160a01b03908116620100009092041614612f2a5760405162461bcd60e51b8152602060048201526005602482015264042ae8aa8960db1b60448201526064016110e2565b60003411612f635760405162461bcd60e51b81526020600482015260066024820152652176616c756560d01b60448201526064016110e2565b612f6d3433613662565b7f00000000000000000000000000000000000000000000000000000000000000006001600160a01b031663d0e30db0346040518263ffffffff1660e01b81526004016000604051808303818588803b158015612fc857600080fd5b505af1158015612fdc573d6000803e3d6000fd5b505060018055505050565b6001600160a01b038116600090815260c9602090815260408083208151606081018352905461ffff81168083526201000082046001600160681b031694830194909452600160781b90046001600160801b031691810191909152829160011115613069575050506001600160a01b031660009081526097602052604081205491565b60cf54815161ffff908116600090815260ca602052604081205460cc54919361309f93869391169190610100900460ff166145d1565b90506130c0856001600160a01b031660009081526097602052604090205490565b9590945092505050565b600260015414156130ed5760405162461bcd60e51b81526004016110e290615576565b600260015560006130fc614642565b60fd5490915061310c90826134f5565b6001600160801b031660fd555060018055565b6065546001600160a01b031633146131495760405162461bcd60e51b81526004016110e290615520565b613157620f424060646157e6565b811061319e5760405162461bcd60e51b8152602060048201526016602482015275496e76616c6964206d616e6167656d656e742066656560501b60448201526064016110e2565b60006131bb63031ba3096131b584620f42406147ff565b9061480b565b60d65460408051918252602082018590529192507f4e874b007ab14f7e263baefd44951834c8266f4f224d1092e49e9c254354cc54910160405180910390a160d65550565b6001600160a01b0383166132625760405162461bcd60e51b8152602060048201526024808201527f45524332303a20617070726f76652066726f6d20746865207a65726f206164646044820152637265737360e01b60648201526084016110e2565b6001600160a01b0382166132c35760405162461bcd60e51b815260206004820152602260248201527f45524332303a20617070726f766520746f20746865207a65726f206164647265604482015261737360f01b60648201526084016110e2565b6001600160a01b0383811660008181526098602090815260408083209487168084529482529182902085905590518481527f8c5be1e5ebec7d5bd14f71427d1e84f3dd0314c0f7b2291e5b200ac8c7c3b92591015b60405180910390a3505050565b6001600160a01b0383166133895760405162461bcd60e51b815260206004820152602560248201527f45524332303a207472616e736665722066726f6d20746865207a65726f206164604482015264647265737360d81b60648201526084016110e2565b6001600160a01b0382166133eb5760405162461bcd60e51b815260206004820152602360248201527f45524332303a207472616e7366657220746f20746865207a65726f206164647260448201526265737360e81b60648201526084016110e2565b6001600160a01b038316600090815260976020526040902054818110156134635760405162461bcd60e51b815260206004820152602660248201527f45524332303a207472616e7366657220616d6f756e7420657863656564732062604482015265616c616e636560d01b60648201526084016110e2565b6001600160a01b0380851660009081526097602052604080822085850390559185168152908120805484929061349a9084906156c3565b92505081905550826001600160a01b0316846001600160a01b03167fddf252ad1be2c89b69c2b068fc378daa952ba7f163c4a11628f55a4df523b3ef846040516134e691815260200190565b60405180910390a35b50505050565b600061125c8284615805565b60cc546001600160a01b03620100009091048116907f00000000000000000000000000000000000000000000000000000000000000001681141561364e57604051632e1a7d4d60e01b8152600481018390527f00000000000000000000000000000000000000000000000000000000000000006001600160a01b031690632e1a7d4d90602401600060405180830381600087803b1580156135a157600080fd5b505af11580156135b5573d6000803e3d6000fd5b505050506000836001600160a01b03168360405160006040518083038185875af1925050503d8060008114613606576040519150601f19603f3d011682016040523d82523d6000602084013e61360b565b606091505b50509050806134ef5760405162461bcd60e51b815260206004820152600f60248201526e151c985b9cd9995c8819985a5b1959608a1b60448201526064016110e2565b611b616001600160a01b0382168484614817565b60cf5461ffff16600061367d84613677612541565b90614087565b60ce549091506001600160681b03168111156136c85760405162461bcd60e51b815260206004820152600a6024820152690457863656564206361760b41b60448201526064016110e2565b60cd54600160a01b900466ffffffffffffff168110156137215760405162461bcd60e51b8152602060048201526014602482015273496e73756666696369656e742062616c616e636560601b60448201526064016110e2565b60408051858152602081018490526001600160a01b038516917f90890809c654f11d6e72a28fa60149770a0d11ec6c92319d6ceb2bb0a4ea1a15910160405180910390a26001600160a01b038316600090815260c9602090815260408083208151606081018352905461ffff81168083526201000082046001600160681b031683860152600160781b9091046001600160801b031682840152845260ca90925282205460cc549192916137e0918491879190610100900460ff166145d1565b8251909150869061ffff1685141561381157602083015160009061380d906001600160681b031689614087565b9150505b61381a81613a01565b6040805160608101825261ffff80881682526001600160681b0380851660208085019182526001600160801b038089168688019081526001600160a01b038e16600090815260c990935296822095518654935197518216600160781b02600160781b600160f81b03199890951662010000026effffffffffffffffffffffffffffff1990941695169490941791909117949094161790915560d0546138c0911689614087565b90506138cb81614093565b60d080546001600160801b0319166001600160801b039290921691909117905550505050505050565b6040516001600160a01b03808516602483015283166044820152606481018290526134ef9085906323b872dd60e01b906084015b60408051601f198184030181529190526020810180516001600160e01b03166001600160e01b031990931692909217909152614847565b60008061396d83600a61573e565b90506000861161397d5780613995565b613995866131b561398e88886134f5565b84906147ff565b9695505050505050565b6000600183116139e95760405162461bcd60e51b8152602060048201526015602482015274496e76616c6964206173736574506572536861726560581b60448201526064016110e2565b6115ad6139f783600a61573e565b6131b586866147ff565b6001600160681b03811115612e935760405162461bcd60e51b815260206004820152601060248201526f13dd995c999b1bddc81d5a5b9d0c4c0d60821b60448201526064016110e2565b600054610100900460ff1680613a64575060005460ff16155b613a805760405162461bcd60e51b81526004016110e2906154d2565b600054610100900460ff16158015613aa2576000805461ffff19166101011790555b60405163c72733f760e01b815273__$c4f279750f4bbb575ac7775e752dc00849$__9063c72733f790613ae7908c908c908c908b908d908c908c908c906004016153a4565b60006040518083038186803b158015613aff57600080fd5b505af4158015613b13573d6000803e3d6000fd5b50505050613b1f614919565b613b29848461498c565b613b31614a0b565b613b3a89612dfb565b60d480546001600160a01b03808b166001600160a01b03199283161790925560d38054928a169290911691909117905560d5859055613b8463031ba3096131b588620f42406147ff565b60d6558160cc613b9482826158db565b505060cc546040516370a0823160e01b81523060048201526000916201000090046001600160a01b0316906370a082319060240160206040518083038186803b158015613be057600080fd5b505afa158015613bf4573d6000803e3d6000fd5b505050506040513d601f19601f82011682018060405250810190613c1891906152b3565b9050613c2381613a01565b60cf805461ffff196001600160681b03909316600160781b02929092167fffffffff00000000000000000000000000ffffffffffffffffffffffffff00009092169190911760011790558015613c7f576000805461ff00191690555b505050505050505050565b6040805160c081018252600080825260208201819052918101829052606081018290526080810182905260a081019190915260d25460f55460f754604051630f7d679f60e01b81526001600160a01b0393841660048201819052939092166024830152604482015260009073__$c4f279750f4bbb575ac7775e752dc00849$__90630f7d679f9060640160206040518083038186803b158015613d2c57600080fd5b505af4158015613d40573d6000803e3d6000fd5b505050506040513d601f19601f82011682018060405250810190613d6491906152b3565b6001600160a01b0383811685527f000000000000000000000000000000000000000000000000000000000000000081166020860190815260cc546201000081048316604080890191825261010090920460ff16606089019081526080890186815260fb5460a08b019081529351633baf17fd60e21b81528a5187166004820152945186166024860152915190941660448401529251606483015291516084820152905160a482015290915073__$c4f279750f4bbb575ac7775e752dc00849$__9063eebc5ff49060c40160206040518083038186803b158015613e4657600080fd5b505af4158015613e5a573d6000803e3d6000fd5b505050506040513d601f19601f82011682018060405250810190613e7e91906152b3565b60fc55505050565b33600090815260c9602090815260408083208151606081018352905461ffff8082168084526201000083046001600160681b031684870152600160781b9092046001600160801b03168385015260cf5491865260ca9094529184205460cc5491949290931692613f019185918591610100900460ff166145d1565b905083613f0e5784613f10565b805b945084613f1e575050505050565b80851115613f625760405162461bcd60e51b81526020600482015260116024820152704578636565647320617661696c61626c6560781b60448201526064016110e2565b825161ffff16821115613f8f5733600090815260c960205260409020805462010000600160781b03191690555b613f9885614093565b613fa281866134f5565b33600081815260c960205260409081902080546001600160801b0394909416600160781b02600160781b600160f81b0319909416939093179092558451915190917fe5b754fb1abb7f01b499791d0b820ae3b6af3424ac1c59768edb53f4ec31a9299161401b9189825261ffff16602082015260400190565b60405180910390a261402e303387613325565b5050505050565b606580546001600160a01b038381166001600160a01b0319831681179093556040519116919082907f8be0079c531659141344cd1fd0a4f28419497f9722a3daafe3b4186f6b6457e090600090a35050565b600061125c82846156c3565b6001600160801b03811115612e935760405162461bcd60e51b815260206004820152601060248201526f09eeccae4ccd8deee40ead2dce86264760831b60448201526064016110e2565b60d25460009081908190600160a01b900463ffffffff1642101561412c5760405162461bcd60e51b815260206004820152600660248201526521726561647960d01b60448201526064016110e2565b60d1546001600160a01b03169250826141755760405162461bcd60e51b815260206004820152600b60248201526a10b732bc3a27b83a34b7b760a91b60448201526064016110e2565b60d3546040805160c08101825260cc54610100810460ff16825291516370a0823160e01b81523060048201526001600160a01b039384169360009384938493849373__$c4f279750f4bbb575ac7775e752dc00849$__9363633c14269360cf939092602084019262010000900416906370a082319060240160206040518083038186803b15801561420557600080fd5b505afa158015614219573d6000803e3d6000fd5b505050506040513d601f19601f8201168201806040525081019061423d91906152b3565b815260200161424b60995490565b815260208082018f905260d55460408084019190915260d65460609384015280516001600160e01b031960e088901b16815260048101959095528351602486015290830151604485015282015160648401528101516084830152608081015160a483015260a0015160c482015260e40160c06040518083038186803b1580156142d357600080fd5b505af41580156142e7573d6000803e3d6000fd5b505050506040513d601f19601f8201168201806040525081019061430b91906152ef565b809750819850829950839650849b50859c505050505050508760d160010160006101000a8154816001600160a01b0302191690836001600160a01b03160217905550600060d160000160006101000a8154816001600160a01b0302191690836001600160a01b03160217905550600060cf60000160009054906101000a900461ffff1661ffff1690508160ca600083815260200190815260200160002081905550856001600160a01b03167f0a242f7ecaf711036ca770774ceffae28e60ef042ac113ddd187f2631db0c0068585846040516143fa939291909283526020830191909152604082015260600190565b60405180910390a260d080546001600160801b031916905561441d8160016156c3565b60cf805461ffff191661ffff929092169190911790555061444090503084614a72565b8015614450576144508482613501565b505050509193909250565b60cf546201000090046001600160681b03166001600160a01b038216156144a75760cf80546cffffffffffffffffffffffffff60781b1916600160781b6001600160681b038416021790555b60cf805462010000600160781b031916905560d280546001600160a01b03191690556001600160a01b038216156145cd57604051636c6fe87f60e11b81526001600160a01b037f000000000000000000000000000000000000000000000000000000000000000016600482015260009073__$c4f279750f4bbb575ac7775e752dc00849$__9063d8dfd0fe9060240160206040518083038186803b15801561454e57600080fd5b505af4158015614562573d6000803e3d6000fd5b505050506040513d601f19601f8201168201806040525081019061458691906152b3565b9050336001600160a01b0316836001600160a01b03167f7e830f7c1771deb1bdb35c4a7e6051bbac32b376f7f4e4976b8618b0b11997f78360405161331891815260200190565b5050565b835160009061ffff16158015906145ec5750845161ffff1684115b1561462e57600061460b86602001516001600160681b03168585614b51565b6040870151909150614626906001600160801b031682614087565b9150506115ad565b50505050604001516001600160801b031690565b33600090815260cb6020526040812080546001600160801b03620100008204169061ffff16816146a45760405162461bcd60e51b815260206004820152600d60248201526c139bdd081a5b9a5d1a585d1959609a1b60448201526064016110e2565b60cf5461ffff1681106146ec5760405162461bcd60e51b815260206004820152601060248201526f149bdd5b99081b9bdd0818db1bdcd95960821b60448201526064016110e2565b33600090815260cb60205260409020805462010000600160901b031916905560d05461472890600160801b90046001600160801b0316836134f5565b60d080546001600160801b03928316600160801b029216919091179055600081815260ca602052604081205460cc5461476b91859160ff6101009091041661399f565b604080518281526020810186905291925033917ff279e6a1f5e320cca91135676d9cb6e44ca8a08c0b88342bcdb1144f6511b568910160405180910390a26147b33084614bb4565b600081116147f55760405162461bcd60e51b815260206004820152600f60248201526e085dda5d1a191c985dd05b5bdd5b9d608a1b60448201526064016110e2565b6115ad3382613501565b600061125c82846157e6565b600061125c82846156db565b6040516001600160a01b038316602482015260448101829052611b6190849063a9059cbb60e01b90606401613928565b600061489c826040518060400160405280602081526020017f5361666545524332303a206c6f772d6c6576656c2063616c6c206661696c6564815250856001600160a01b0316614d029092919063ffffffff16565b805190915015611b6157808060200190518101906148ba91906151fc565b611b615760405162461bcd60e51b815260206004820152602a60248201527f5361666545524332303a204552433230206f7065726174696f6e20646964206e6044820152691bdd081cdd58d8d9595960b21b60648201526084016110e2565b600054610100900460ff1680614932575060005460ff16155b61494e5760405162461bcd60e51b81526004016110e2906154d2565b600054610100900460ff16158015614970576000805461ffff19166101011790555b614978614d11565b8015612e93576000805461ff001916905550565b600054610100900460ff16806149a5575060005460ff16155b6149c15760405162461bcd60e51b81526004016110e2906154d2565b600054610100900460ff161580156149e3576000805461ffff19166101011790555b6149eb614d80565b6149f58383614dea565b8015611b61576000805461ff0019169055505050565b600054610100900460ff1680614a24575060005460ff16155b614a405760405162461bcd60e51b81526004016110e2906154d2565b600054610100900460ff16158015614a62576000805461ffff19166101011790555b614a6a614d80565b614978614e7f565b6001600160a01b038216614ac85760405162461bcd60e51b815260206004820152601f60248201527f45524332303a206d696e7420746f20746865207a65726f20616464726573730060448201526064016110e2565b8060996000828254614ada91906156c3565b90915550506001600160a01b03821660009081526097602052604081208054839290614b079084906156c3565b90915550506040518181526001600160a01b038316906000907fddf252ad1be2c89b69c2b068fc378daa952ba7f163c4a11628f55a4df523b3ef9060200160405180910390a35050565b600060018311614b9b5760405162461bcd60e51b8152602060048201526015602482015274496e76616c6964206173736574506572536861726560581b60448201526064016110e2565b6115ad836131b5614bad85600a61573e565b87906147ff565b6001600160a01b038216614c145760405162461bcd60e51b815260206004820152602160248201527f45524332303a206275726e2066726f6d20746865207a65726f206164647265736044820152607360f81b60648201526084016110e2565b6001600160a01b03821660009081526097602052604090205481811015614c885760405162461bcd60e51b815260206004820152602260248201527f45524332303a206275726e20616d6f756e7420657863656564732062616c616e604482015261636560f01b60648201526084016110e2565b6001600160a01b0383166000908152609760205260408120838303905560998054849290614cb7908490615805565b90915550506040518281526000906001600160a01b038516907fddf252ad1be2c89b69c2b068fc378daa952ba7f163c4a11628f55a4df523b3ef9060200160405180910390a3505050565b60606115ad8484600085614edf565b600054610100900460ff1680614d2a575060005460ff16155b614d465760405162461bcd60e51b81526004016110e2906154d2565b600054610100900460ff16158015614d68576000805461ffff19166101011790555b600180558015612e93576000805461ff001916905550565b600054610100900460ff1680614d99575060005460ff16155b614db55760405162461bcd60e51b81526004016110e2906154d2565b600054610100900460ff16158015614978576000805461ffff19166101011790558015612e93576000805461ff001916905550565b600054610100900460ff1680614e03575060005460ff16155b614e1f5760405162461bcd60e51b81526004016110e2906154d2565b600054610100900460ff16158015614e41576000805461ffff19166101011790555b8251614e5490609a906020860190615040565b508151614e6890609b906020850190615040565b508015611b61576000805461ff0019169055505050565b600054610100900460ff1680614e98575060005460ff16155b614eb45760405162461bcd60e51b81526004016110e2906154d2565b600054610100900460ff16158015614ed6576000805461ffff19166101011790555b61497833614035565b606082471015614f405760405162461bcd60e51b815260206004820152602660248201527f416464726573733a20696e73756666696369656e742062616c616e636520666f6044820152651c8818d85b1b60d21b60648201526084016110e2565b843b614f8e5760405162461bcd60e51b815260206004820152601d60248201527f416464726573733a2063616c6c20746f206e6f6e2d636f6e747261637400000060448201526064016110e2565b600080866001600160a01b03168587604051614faa9190615388565b60006040518083038185875af1925050503d8060008114614fe7576040519150601f19603f3d011682016040523d82523d6000602084013e614fec565b606091505b5091509150614ffc828286615007565b979650505050505050565b6060831561501657508161125c565b8251156150265782518084602001fd5b8160405162461bcd60e51b81526004016110e2919061549e565b82805461504c90615848565b90600052602060002090601f01602090048101928261506e57600085556150b4565b82601f1061508757805160ff19168380011785556150b4565b828001600101855582156150b4579182015b828111156150b4578251825591602001919060010190615099565b506150c09291506150c4565b5090565b5b808211156150c057600081556001016150c5565b80356150e4816159ec565b919050565b80356150e481615a0f565b80356150e481615a24565b600060208284031215615110578081fd5b813561125c816159ec565b6000806040838503121561512d578081fd5b8235615138816159ec565b91506020830135615148816159ec565b809150509250929050565b600080600060608486031215615167578081fd5b8335615172816159ec565b92506020840135615182816159ec565b929592945050506040919091013590565b600080604083850312156151a5578182fd5b82356151b0816159ec565b946020939093013593505050565b600080600080608085870312156151d3578081fd5b84516151de816159ec565b60208601516040870151606090970151919890975090945092505050565b60006020828403121561520d578081fd5b815161125c81615a01565b60008082840360e081121561522b578283fd5b833567ffffffffffffffff811115615241578384fd5b84016101608187031215615253578384fd5b925060c0601f1982011215615266578182fd5b506020830190509250929050565b600060208284031215615285578081fd5b81356001600160801b038116811461125c578182fd5b6000602082840312156152ac578081fd5b5035919050565b6000602082840312156152c4578081fd5b5051919050565b600080604083850312156152dd578182fd5b823591506020830135615148816159ec565b60008060008060008060c08789031215615307578182fd5b865195506020870151945060408701519350606087015192506080870151915060a087015190509295509295509295565b600060208284031215615349578081fd5b813563ffffffff8116811461125c578182fd5b6000815180845261537481602086016020860161581c565b601f01601f19169290920160200192915050565b6000825161539a81846020870161581c565b9190910192915050565b60006101a060018060a01b03808c168452808b166020850152808a1660408501528860608501528760808501528160a08501526153e38285018861535c565b915083820360c08501526153f7828761535c565b92508435915061540682615a01565b90151560e084015260208401359061541d82615a39565b60ff821661010085015260408501359150615437826159ec565b1661012083015261544a606084016150d9565b6001600160a01b0316610140830152615465608084016150f4565b66ffffffffffffff1661016083015261548060a084016150e9565b6001600160681b038116610180840152509998505050505050505050565b60208152600061125c602083018461535c565b60208082526007908201526610b5b2b2b832b960c91b604082015260600190565b6020808252602e908201527f496e697469616c697a61626c653a20636f6e747261637420697320616c72656160408201526d191e481a5b9a5d1a585b1a5e995960921b606082015260800190565b6020808252818101527f4f776e61626c653a2063616c6c6572206973206e6f7420746865206f776e6572604082015260600190565b60208082526007908201526608585b5bdd5b9d60ca1b604082015260600190565b6020808252601f908201527f5265656e7472616e637947756172643a207265656e7472616e742063616c6c00604082015260600190565b83516001600160a01b031681526020808501516101608301916155da908401826001600160a01b03169052565b5060408501516155f560408401826001600160a01b03169052565b50606085015160608301526080850151615615608084018261ffff169052565b5060a085015160a083015260c085015161563a60c08401826001600160a01b03169052565b5060e085015161565560e08401826001600160a01b03169052565b5061010094850151948201949094526101208101929092526101409091015290565b6000808335601e1984360301811261568d578283fd5b83018035915067ffffffffffffffff8211156156a7578283fd5b6020019150368190038213156156bc57600080fd5b9250929050565b600082198211156156d6576156d661589e565b500190565b6000826156f657634e487b7160e01b81526012600452602481fd5b500490565b600181815b8085111561573657816000190482111561571c5761571c61589e565b8085161561572957918102915b93841c9390800290615700565b509250929050565b600061125c8383600082615754575060016111b1565b81615761575060006111b1565b816001811461577757600281146157815761579d565b60019150506111b1565b60ff8411156157925761579261589e565b50506001821b6111b1565b5060208310610133831016604e8410600b84101617156157c0575081810a6111b1565b6157ca83836156fb565b80600019048211156157de576157de61589e565b029392505050565b60008160001904831182151516156158005761580061589e565b500290565b6000828210156158175761581761589e565b500390565b60005b8381101561583757818101518382015260200161581f565b838111156134ef5750506000910152565b600181811c9082168061585c57607f821691505b6020821081141561587d57634e487b7160e01b600052602260045260246000fd5b50919050565b60006000198214156158975761589761589e565b5060010190565b634e487b7160e01b600052601160045260246000fd5b600081356111b1816159ec565b600081356111b181615a0f565b600081356111b181615a24565b81356158e681615a01565b815460ff19811691151560ff169182178355602084013561590681615a39565b61ff008160081b169050808361ffff19841617178455604085013561592a816159ec565b6001600160b01b0319929092169092179190911760109190911b62010000600160b01b031617815560018101615982615965606085016158b4565b82546001600160a01b0319166001600160a01b0391909116178255565b6159bb615991608085016158ce565b82805466ffffffffffffff60a01b191660a09290921b66ffffffffffffff60a01b16919091179055565b506145cd6159cb60a084016158c1565b600283016001600160681b0382166001600160681b03198254161781555050565b6001600160a01b0381168114612e9357600080fd5b8015158114612e9357600080fd5b6001600160681b0381168114612e9357600080fd5b66ffffffffffffff81168114612e9357600080fd5b60ff81168114612e9357600080fdfea26469706673582212206588c75ab60489ebc44f18f7ba13edd92d6120525c98590fd12e241227f5cd0f64736f6c63430008040033",
  "libraries": {
    "VaultLifecycle": "0x86be9cd3c839765c83183927426B17fa9E4AD7ef"
  },
  "devdoc": {
    "kind": "dev",
    "methods": {
      "accountVaultBalance(address)": {
        "params": {
          "account": "is the address to lookup balance for"
        },
        "returns": {
          "_0": "the amount of `asset` custodied by the vault for the user"
        }
      },
      "allowance(address,address)": {
        "details": "See {IERC20-allowance}."
      },
      "approve(address,uint256)": {
        "details": "See {IERC20-approve}. Requirements: - `spender` cannot be the zero address."
      },
      "balanceOf(address)": {
        "details": "See {IERC20-balanceOf}."
      },
      "constructor": {
        "params": {
          "_gammaController": "is the contract address for opyn actions",
          "_gnosisEasyAuction": "is the contract address that facilitates gnosis auctions",
          "_marginPool": "is the contract address for providing collateral to opyn",
          "_oTokenFactory": "is the contract address for minting new opyn option types (strikes, asset, expiry)",
          "_usdc": "is the USDC contract",
          "_weth": "is the Wrapped Ether contract"
        }
      },
      "decreaseAllowance(address,uint256)": {
        "details": "Atomically decreases the allowance granted to `spender` by the caller. This is an alternative to {approve} that can be used as a mitigation for problems described in {IERC20-approve}. Emits an {Approval} event indicating the updated allowance. Requirements: - `spender` cannot be the zero address. - `spender` must have allowance for the caller of at least `subtractedValue`."
      },
      "deposit(uint256)": {
        "params": {
          "amount": "is the amount of `asset` to deposit"
        }
      },
      "depositFor(uint256,address)": {
        "params": {
          "amount": "is the amount of `asset` to deposit",
          "creditor": "is the address that can claim/withdraw deposited amount"
        }
      },
      "increaseAllowance(address,uint256)": {
        "details": "Atomically increases the allowance granted to `spender` by the caller. This is an alternative to {approve} that can be used as a mitigation for problems described in {IERC20-approve}. Emits an {Approval} event indicating the updated allowance. Requirements: - `spender` cannot be the zero address."
      },
      "initialize((address,address,address,uint256,uint256,string,string,address,address,uint32,uint256),(bool,uint8,address,address,uint56,uint104))": {
        "params": {
          "_initParams": "is the struct with vault initialization parameters",
          "_vaultParams": "is the struct with vault general data"
        }
      },
      "initiateWithdraw(uint256)": {
        "params": {
          "numShares": "is the number of shares to withdraw"
        }
      },
      "name()": {
        "details": "Returns the name of the token."
      },
      "owner()": {
        "details": "Returns the address of the current owner."
      },
      "redeem(uint256)": {
        "params": {
          "numShares": "is the number of shares to redeem"
        }
      },
      "renounceOwnership()": {
        "details": "Leaves the contract without owner. It will not be possible to call `onlyOwner` functions anymore. Can only be called by the current owner. NOTE: Renouncing ownership will leave the contract without an owner, thereby removing any functionality that is only available to the owner."
      },
      "setAuctionDuration(uint256)": {
        "params": {
          "newAuctionDuration": "is the auction duration"
        }
      },
      "setCap(uint256)": {
        "params": {
          "newCap": "is the new cap for deposits"
        }
      },
      "setFeeRecipient(address)": {
        "params": {
          "newFeeRecipient": "is the address of the new fee recipient"
        }
      },
      "setLiquidityGauge(address)": {
        "params": {
          "newLiquidityGauge": "is the address of the new liquidityGauge contract"
        }
      },
      "setManagementFee(uint256)": {
        "params": {
          "newManagementFee": "is the management fee (6 decimals). ex: 2 * 10 ** 6 = 2%"
        }
      },
      "setNewKeeper(address)": {
        "params": {
          "newKeeper": "is the address of the new keeper"
        }
      },
      "setOptionsPremiumPricer(address)": {
        "params": {
          "newOptionsPremiumPricer": "is the address of the new strike selection contract"
        }
      },
      "setOptionsPurchaseQueue(address)": {
        "params": {
          "newOptionsPurchaseQueue": "is the address of the new optionsPurchaseQueue contract"
        }
      },
      "setPerformanceFee(uint256)": {
        "params": {
          "newPerformanceFee": "is the performance fee (6 decimals). ex: 20 * 10 ** 6 = 20%"
        }
      },
      "setPremiumDiscount(uint256)": {
        "params": {
          "newPremiumDiscount": "is the premium discount"
        }
      },
      "setStrikePrice(uint128)": {
        "params": {
          "strikePrice": "is the strike price of the new oTokens (decimals = 8)"
        }
      },
      "setStrikeSelection(address)": {
        "params": {
          "newStrikeSelection": "is the address of the new strike selection contract"
        }
      },
      "shareBalances(address)": {
        "params": {
          "account": "is the account to lookup share balance for"
        },
        "returns": {
          "heldByAccount": "is the shares held by account",
          "heldByVault": "is the shares held on the vault (unredeemedShares)"
        }
      },
      "shares(address)": {
        "params": {
          "account": "is the account to lookup share balance for"
        },
        "returns": {
          "_0": "the share balance"
        }
      },
      "stake(uint256)": {
        "params": {
          "numShares": "is the number of shares to stake"
        }
      },
      "symbol()": {
        "details": "Returns the symbol of the token, usually a shorter version of the name."
      },
      "totalBalance()": {
        "returns": {
          "_0": "total balance of the vault, including the amounts locked in third party protocols"
        }
      },
      "totalSupply()": {
        "details": "See {IERC20-totalSupply}."
      },
      "transfer(address,uint256)": {
        "details": "See {IERC20-transfer}. Requirements: - `recipient` cannot be the zero address. - the caller must have a balance of at least `amount`."
      },
      "transferFrom(address,address,uint256)": {
        "details": "See {IERC20-transferFrom}. Emits an {Approval} event indicating the updated allowance. This is not required by the EIP. See the note at the beginning of {ERC20}. Requirements: - `sender` and `recipient` cannot be the zero address. - `sender` must have a balance of at least `amount`. - the caller must have allowance for ``sender``'s tokens of at least `amount`."
      },
      "transferOwnership(address)": {
        "details": "Transfers ownership of the contract to a new account (`newOwner`). Can only be called by the current owner."
      },
      "withdrawInstantly(uint256)": {
        "params": {
          "amount": "is the amount to withdraw"
        }
      }
    },
    "version": 1
  },
  "userdoc": {
    "kind": "user",
    "methods": {
      "DELAY()": {
        "notice": "Deprecated: 15 minute timelock between commitAndClose and rollToNexOption."
      },
      "OTOKEN_FACTORY()": {
        "notice": "oTokenFactory is the factory contract used to spawn otokens. Used to lookup otokens."
      },
      "PERIOD()": {
        "notice": "7 day period between each options sale."
      },
      "USDC()": {
        "notice": "USDC 0xA0b86991c6218b36c1d19D4a2e9Eb0cE3606eB48"
      },
      "WETH()": {
        "notice": "WETH9 0xC02aaA39b223FE8D0A0e5C4F27eAD9083C756Cc2"
      },
      "accountVaultBalance(address)": {
        "notice": "Returns the asset balance held on the vault for the account"
      },
      "burnRemainingOTokens()": {
        "notice": "Burn the remaining oTokens left over from gnosis auction."
      },
      "commitAndClose()": {
        "notice": "Sets the next option the vault will be shorting, and closes the existing short.         This allows all the users to withdraw if the next option is malicious."
      },
      "completeWithdraw()": {
        "notice": "Completes a scheduled withdrawal from a past round. Uses finalized pps for the round"
      },
      "constructor": {
        "notice": "Initializes the contract with immutable variables"
      },
      "decimals()": {
        "notice": "Returns the token decimals"
      },
      "deposit(uint256)": {
        "notice": "Deposits the `asset` from msg.sender."
      },
      "depositETH()": {
        "notice": "Deposits ETH into the contract and mint vault shares. Reverts if the asset is not WETH."
      },
      "depositFor(uint256,address)": {
        "notice": "Deposits the `asset` from msg.sender added to `creditor`'s deposit.Used for vault -> vault deposits on the user's behalf"
      },
      "depositReceipts(address)": {
        "notice": "Stores the user's pending deposit for the round"
      },
      "feeRecipient()": {
        "notice": "Fee recipient for the performance and management fees"
      },
      "initialize((address,address,address,uint256,uint256,string,string,address,address,uint32,uint256),(bool,uint8,address,address,uint56,uint104))": {
        "notice": "Initializes the OptionVault contract with storage variables."
      },
      "initiateWithdraw(uint256)": {
        "notice": "Initiates a withdrawal that can be processed once the round completes"
      },
      "keeper()": {
        "notice": "role in charge of weekly vault operations such as rollToNextOption and burnRemainingOTokens"
      },
      "managementFee()": {
        "notice": "Management fee charged on entire AUM in rollToNextOption. Only charged when there is no loss."
      },
      "maxRedeem()": {
        "notice": "Redeems the entire unredeemedShares balance that is owed to the account"
      },
      "optionState()": {
        "notice": "Vault's state of the options sold and the timelocked option"
      },
      "performanceFee()": {
        "notice": "Performance fee charged on premiums earned in rollToNextOption. Only charged when there is no loss."
      },
      "pricePerShare()": {
        "notice": "The price of a unit of share denominated in the `asset`"
      },
      "redeem(uint256)": {
        "notice": "Redeems shares that are owed to the account"
      },
      "rollToNextOption()": {
        "notice": "Rolls the vault's funds into a new short position."
      },
      "roundPricePerShare(uint256)": {
        "notice": "On every round's close, the pricePerShare value of an rTHETA token is stored This is used to determine the number of shares to be returned to a user with their DepositReceipt.depositAmount"
      },
      "sellOptionsToQueue()": {
        "notice": "Sell the allocated options to the purchase queue post auction settlement"
      },
      "setAuctionDuration(uint256)": {
        "notice": "Sets the new auction duration"
      },
      "setCap(uint256)": {
        "notice": "Sets a new cap for deposits"
      },
      "setFeeRecipient(address)": {
        "notice": "Sets the new fee recipient"
      },
      "setLiquidityGauge(address)": {
        "notice": "Sets the new liquidityGauge contract for this vault"
      },
      "setManagementFee(uint256)": {
        "notice": "Sets the management fee for the vault"
      },
      "setNewKeeper(address)": {
        "notice": "Sets the new keeper"
      },
      "setOptionsPremiumPricer(address)": {
        "notice": "Sets the new options premium pricer contract"
      },
      "setOptionsPurchaseQueue(address)": {
        "notice": "Sets the new optionsPurchaseQueue contract for this vault"
      },
      "setPerformanceFee(uint256)": {
        "notice": "Sets the performance fee for the vault"
      },
      "setPremiumDiscount(uint256)": {
        "notice": "Sets the new discount on premiums for options we are selling"
      },
      "setStrikePrice(uint128)": {
        "notice": "Optionality to set strike price manually"
      },
      "setStrikeSelection(address)": {
        "notice": "Sets the new strike selection contract"
      },
      "shareBalances(address)": {
        "notice": "Getter for returning the account's share balance split between account and vault holdings"
      },
      "shares(address)": {
        "notice": "Getter for returning the account's share balance including unredeemed shares"
      },
      "stake(uint256)": {
        "notice": "Stakes a users vault shares"
      },
      "startAuction()": {
        "notice": "Initiate the gnosis auction."
      },
      "totalBalance()": {
        "notice": "Returns the vault's total balance, including the amounts locked into a short position"
      },
      "vaultParams()": {
        "notice": "Vault's parameters like cap, decimals"
      },
      "vaultState()": {
        "notice": "Vault's lifecycle state like round and locked amounts"
      },
      "withdrawInstantly(uint256)": {
        "notice": "Withdraws the assets on the vault using the outstanding `DepositReceipt.amount`"
      },
      "withdrawals(address)": {
        "notice": "Stores pending user withdrawals"
      }
    },
    "notice": "UPGRADEABILITY: Since we use the upgradeable proxy pattern, we must observe the inheritance chain closely. Any changes/appends in storage variable needs to happen in RibbonThetaVaultStorage. RibbonThetaVault should not inherit from any other contract aside from RibbonVault, RibbonThetaVaultStorage",
    "version": 1
  },
  "storageLayout": {
    "storage": [
      {
        "astId": 176,
        "contract": "contracts/vaults/BaseVaults/RibbonThetaVault.sol:RibbonThetaVault",
        "label": "_initialized",
        "offset": 0,
        "slot": "0",
        "type": "t_bool"
      },
      {
        "astId": 179,
        "contract": "contracts/vaults/BaseVaults/RibbonThetaVault.sol:RibbonThetaVault",
        "label": "_initializing",
        "offset": 1,
        "slot": "0",
        "type": "t_bool"
      },
      {
        "astId": 230,
        "contract": "contracts/vaults/BaseVaults/RibbonThetaVault.sol:RibbonThetaVault",
        "label": "_status",
        "offset": 0,
        "slot": "1",
        "type": "t_uint256"
      },
      {
        "astId": 273,
        "contract": "contracts/vaults/BaseVaults/RibbonThetaVault.sol:RibbonThetaVault",
        "label": "__gap",
        "offset": 0,
        "slot": "2",
        "type": "t_array(t_uint256)49_storage"
      },
      {
        "astId": 993,
        "contract": "contracts/vaults/BaseVaults/RibbonThetaVault.sol:RibbonThetaVault",
        "label": "__gap",
        "offset": 0,
        "slot": "51",
        "type": "t_array(t_uint256)50_storage"
      },
      {
        "astId": 56,
        "contract": "contracts/vaults/BaseVaults/RibbonThetaVault.sol:RibbonThetaVault",
        "label": "_owner",
        "offset": 0,
        "slot": "101",
        "type": "t_address"
      },
      {
        "astId": 169,
        "contract": "contracts/vaults/BaseVaults/RibbonThetaVault.sol:RibbonThetaVault",
        "label": "__gap",
        "offset": 0,
        "slot": "102",
        "type": "t_array(t_uint256)49_storage"
      },
      {
        "astId": 293,
        "contract": "contracts/vaults/BaseVaults/RibbonThetaVault.sol:RibbonThetaVault",
        "label": "_balances",
        "offset": 0,
        "slot": "151",
        "type": "t_mapping(t_address,t_uint256)"
      },
      {
        "astId": 299,
        "contract": "contracts/vaults/BaseVaults/RibbonThetaVault.sol:RibbonThetaVault",
        "label": "_allowances",
        "offset": 0,
        "slot": "152",
        "type": "t_mapping(t_address,t_mapping(t_address,t_uint256))"
      },
      {
        "astId": 301,
        "contract": "contracts/vaults/BaseVaults/RibbonThetaVault.sol:RibbonThetaVault",
        "label": "_totalSupply",
        "offset": 0,
        "slot": "153",
        "type": "t_uint256"
      },
      {
        "astId": 303,
        "contract": "contracts/vaults/BaseVaults/RibbonThetaVault.sol:RibbonThetaVault",
        "label": "_name",
        "offset": 0,
        "slot": "154",
        "type": "t_string_storage"
      },
      {
        "astId": 305,
        "contract": "contracts/vaults/BaseVaults/RibbonThetaVault.sol:RibbonThetaVault",
        "label": "_symbol",
        "offset": 0,
        "slot": "155",
        "type": "t_string_storage"
      },
      {
        "astId": 846,
        "contract": "contracts/vaults/BaseVaults/RibbonThetaVault.sol:RibbonThetaVault",
        "label": "__gap",
        "offset": 0,
        "slot": "156",
        "type": "t_array(t_uint256)45_storage"
      },
      {
        "astId": 19680,
        "contract": "contracts/vaults/BaseVaults/RibbonThetaVault.sol:RibbonThetaVault",
        "label": "depositReceipts",
        "offset": 0,
        "slot": "201",
        "type": "t_mapping(t_address,t_struct(DepositReceipt)6510_storage)"
      },
      {
        "astId": 19685,
        "contract": "contracts/vaults/BaseVaults/RibbonThetaVault.sol:RibbonThetaVault",
        "label": "roundPricePerShare",
        "offset": 0,
        "slot": "202",
        "type": "t_mapping(t_uint256,t_uint256)"
      },
      {
        "astId": 19691,
        "contract": "contracts/vaults/BaseVaults/RibbonThetaVault.sol:RibbonThetaVault",
        "label": "withdrawals",
        "offset": 0,
        "slot": "203",
        "type": "t_mapping(t_address,t_struct(Withdrawal)6515_storage)"
      },
      {
        "astId": 19695,
        "contract": "contracts/vaults/BaseVaults/RibbonThetaVault.sol:RibbonThetaVault",
        "label": "vaultParams",
        "offset": 0,
        "slot": "204",
        "type": "t_struct(VaultParams)6485_storage"
      },
      {
        "astId": 19699,
        "contract": "contracts/vaults/BaseVaults/RibbonThetaVault.sol:RibbonThetaVault",
        "label": "vaultState",
        "offset": 0,
        "slot": "207",
        "type": "t_struct(VaultState)6503_storage"
      },
      {
        "astId": 19703,
        "contract": "contracts/vaults/BaseVaults/RibbonThetaVault.sol:RibbonThetaVault",
        "label": "optionState",
        "offset": 0,
        "slot": "209",
        "type": "t_struct(OptionState)6492_storage"
      },
      {
        "astId": 19706,
        "contract": "contracts/vaults/BaseVaults/RibbonThetaVault.sol:RibbonThetaVault",
        "label": "feeRecipient",
        "offset": 0,
        "slot": "211",
        "type": "t_address"
      },
      {
        "astId": 19709,
        "contract": "contracts/vaults/BaseVaults/RibbonThetaVault.sol:RibbonThetaVault",
        "label": "keeper",
        "offset": 0,
        "slot": "212",
        "type": "t_address"
      },
      {
        "astId": 19712,
        "contract": "contracts/vaults/BaseVaults/RibbonThetaVault.sol:RibbonThetaVault",
        "label": "performanceFee",
        "offset": 0,
        "slot": "213",
        "type": "t_uint256"
      },
      {
        "astId": 19715,
        "contract": "contracts/vaults/BaseVaults/RibbonThetaVault.sol:RibbonThetaVault",
        "label": "managementFee",
        "offset": 0,
        "slot": "214",
        "type": "t_uint256"
      },
      {
        "astId": 19719,
        "contract": "contracts/vaults/BaseVaults/RibbonThetaVault.sol:RibbonThetaVault",
        "label": "____gap",
        "offset": 0,
        "slot": "215",
        "type": "t_array(t_uint256)30_storage"
      },
      {
        "astId": 12470,
        "contract": "contracts/vaults/BaseVaults/RibbonThetaVault.sol:RibbonThetaVault",
        "label": "optionsPremiumPricer",
        "offset": 0,
        "slot": "245",
        "type": "t_address"
      },
      {
        "astId": 12472,
        "contract": "contracts/vaults/BaseVaults/RibbonThetaVault.sol:RibbonThetaVault",
        "label": "strikeSelection",
        "offset": 0,
        "slot": "246",
        "type": "t_address"
      },
      {
        "astId": 12474,
        "contract": "contracts/vaults/BaseVaults/RibbonThetaVault.sol:RibbonThetaVault",
        "label": "premiumDiscount",
        "offset": 0,
        "slot": "247",
        "type": "t_uint256"
      },
      {
        "astId": 12476,
        "contract": "contracts/vaults/BaseVaults/RibbonThetaVault.sol:RibbonThetaVault",
        "label": "currentOtokenPremium",
        "offset": 0,
        "slot": "248",
        "type": "t_uint256"
      },
      {
        "astId": 12478,
        "contract": "contracts/vaults/BaseVaults/RibbonThetaVault.sol:RibbonThetaVault",
        "label": "lastStrikeOverrideRound",
        "offset": 0,
        "slot": "249",
        "type": "t_uint16"
      },
      {
        "astId": 12480,
        "contract": "contracts/vaults/BaseVaults/RibbonThetaVault.sol:RibbonThetaVault",
        "label": "overriddenStrikePrice",
        "offset": 0,
        "slot": "250",
        "type": "t_uint256"
      },
      {
        "astId": 12482,
        "contract": "contracts/vaults/BaseVaults/RibbonThetaVault.sol:RibbonThetaVault",
        "label": "auctionDuration",
        "offset": 0,
        "slot": "251",
        "type": "t_uint256"
      },
      {
        "astId": 12484,
        "contract": "contracts/vaults/BaseVaults/RibbonThetaVault.sol:RibbonThetaVault",
        "label": "optionAuctionID",
        "offset": 0,
        "slot": "252",
        "type": "t_uint256"
      },
      {
        "astId": 12487,
        "contract": "contracts/vaults/BaseVaults/RibbonThetaVault.sol:RibbonThetaVault",
        "label": "lastQueuedWithdrawAmount",
        "offset": 0,
        "slot": "253",
        "type": "t_uint256"
      },
      {
        "astId": 12490,
        "contract": "contracts/vaults/BaseVaults/RibbonThetaVault.sol:RibbonThetaVault",
        "label": "_isUsdcAuction",
        "offset": 0,
        "slot": "254",
        "type": "t_bool"
      },
      {
        "astId": 12492,
        "contract": "contracts/vaults/BaseVaults/RibbonThetaVault.sol:RibbonThetaVault",
        "label": "_swapPath",
        "offset": 0,
        "slot": "255",
        "type": "t_bytes_storage"
      },
      {
        "astId": 12495,
        "contract": "contracts/vaults/BaseVaults/RibbonThetaVault.sol:RibbonThetaVault",
        "label": "liquidityGauge",
        "offset": 0,
        "slot": "256",
        "type": "t_address"
      },
      {
        "astId": 12498,
        "contract": "contracts/vaults/BaseVaults/RibbonThetaVault.sol:RibbonThetaVault",
        "label": "optionsPurchaseQueue",
        "offset": 0,
        "slot": "257",
        "type": "t_address"
      }
    ],
    "types": {
      "t_address": {
        "encoding": "inplace",
        "label": "address",
        "numberOfBytes": "20"
      },
      "t_array(t_uint256)30_storage": {
        "base": "t_uint256",
        "encoding": "inplace",
        "label": "uint256[30]",
        "numberOfBytes": "960"
      },
      "t_array(t_uint256)45_storage": {
        "base": "t_uint256",
        "encoding": "inplace",
        "label": "uint256[45]",
        "numberOfBytes": "1440"
      },
      "t_array(t_uint256)49_storage": {
        "base": "t_uint256",
        "encoding": "inplace",
        "label": "uint256[49]",
        "numberOfBytes": "1568"
      },
      "t_array(t_uint256)50_storage": {
        "base": "t_uint256",
        "encoding": "inplace",
        "label": "uint256[50]",
        "numberOfBytes": "1600"
      },
      "t_bool": {
        "encoding": "inplace",
        "label": "bool",
        "numberOfBytes": "1"
      },
      "t_bytes_storage": {
        "encoding": "bytes",
        "label": "bytes",
        "numberOfBytes": "32"
      },
      "t_mapping(t_address,t_mapping(t_address,t_uint256))": {
        "encoding": "mapping",
        "key": "t_address",
        "label": "mapping(address => mapping(address => uint256))",
        "numberOfBytes": "32",
        "value": "t_mapping(t_address,t_uint256)"
      },
      "t_mapping(t_address,t_struct(DepositReceipt)6510_storage)": {
        "encoding": "mapping",
        "key": "t_address",
        "label": "mapping(address => struct Vault.DepositReceipt)",
        "numberOfBytes": "32",
        "value": "t_struct(DepositReceipt)6510_storage"
      },
      "t_mapping(t_address,t_struct(Withdrawal)6515_storage)": {
        "encoding": "mapping",
        "key": "t_address",
        "label": "mapping(address => struct Vault.Withdrawal)",
        "numberOfBytes": "32",
        "value": "t_struct(Withdrawal)6515_storage"
      },
      "t_mapping(t_address,t_uint256)": {
        "encoding": "mapping",
        "key": "t_address",
        "label": "mapping(address => uint256)",
        "numberOfBytes": "32",
        "value": "t_uint256"
      },
      "t_mapping(t_uint256,t_uint256)": {
        "encoding": "mapping",
        "key": "t_uint256",
        "label": "mapping(uint256 => uint256)",
        "numberOfBytes": "32",
        "value": "t_uint256"
      },
      "t_string_storage": {
        "encoding": "bytes",
        "label": "string",
        "numberOfBytes": "32"
      },
      "t_struct(DepositReceipt)6510_storage": {
        "encoding": "inplace",
        "label": "struct Vault.DepositReceipt",
        "members": [
          {
            "astId": 6505,
            "contract": "contracts/vaults/BaseVaults/RibbonThetaVault.sol:RibbonThetaVault",
            "label": "round",
            "offset": 0,
            "slot": "0",
            "type": "t_uint16"
          },
          {
            "astId": 6507,
            "contract": "contracts/vaults/BaseVaults/RibbonThetaVault.sol:RibbonThetaVault",
            "label": "amount",
            "offset": 2,
            "slot": "0",
            "type": "t_uint104"
          },
          {
            "astId": 6509,
            "contract": "contracts/vaults/BaseVaults/RibbonThetaVault.sol:RibbonThetaVault",
            "label": "unredeemedShares",
            "offset": 15,
            "slot": "0",
            "type": "t_uint128"
          }
        ],
        "numberOfBytes": "32"
      },
      "t_struct(OptionState)6492_storage": {
        "encoding": "inplace",
        "label": "struct Vault.OptionState",
        "members": [
          {
            "astId": 6487,
            "contract": "contracts/vaults/BaseVaults/RibbonThetaVault.sol:RibbonThetaVault",
            "label": "nextOption",
            "offset": 0,
            "slot": "0",
            "type": "t_address"
          },
          {
            "astId": 6489,
            "contract": "contracts/vaults/BaseVaults/RibbonThetaVault.sol:RibbonThetaVault",
            "label": "currentOption",
            "offset": 0,
            "slot": "1",
            "type": "t_address"
          },
          {
            "astId": 6491,
            "contract": "contracts/vaults/BaseVaults/RibbonThetaVault.sol:RibbonThetaVault",
            "label": "nextOptionReadyAt",
            "offset": 20,
            "slot": "1",
            "type": "t_uint32"
          }
        ],
        "numberOfBytes": "64"
      },
      "t_struct(VaultParams)6485_storage": {
        "encoding": "inplace",
        "label": "struct Vault.VaultParams",
        "members": [
          {
            "astId": 6474,
            "contract": "contracts/vaults/BaseVaults/RibbonThetaVault.sol:RibbonThetaVault",
            "label": "isPut",
            "offset": 0,
            "slot": "0",
            "type": "t_bool"
          },
          {
            "astId": 6476,
            "contract": "contracts/vaults/BaseVaults/RibbonThetaVault.sol:RibbonThetaVault",
            "label": "decimals",
            "offset": 1,
            "slot": "0",
            "type": "t_uint8"
          },
          {
            "astId": 6478,
            "contract": "contracts/vaults/BaseVaults/RibbonThetaVault.sol:RibbonThetaVault",
            "label": "asset",
            "offset": 2,
            "slot": "0",
            "type": "t_address"
          },
          {
            "astId": 6480,
            "contract": "contracts/vaults/BaseVaults/RibbonThetaVault.sol:RibbonThetaVault",
            "label": "underlying",
            "offset": 0,
            "slot": "1",
            "type": "t_address"
          },
          {
            "astId": 6482,
            "contract": "contracts/vaults/BaseVaults/RibbonThetaVault.sol:RibbonThetaVault",
            "label": "minimumSupply",
            "offset": 20,
            "slot": "1",
            "type": "t_uint56"
          },
          {
            "astId": 6484,
            "contract": "contracts/vaults/BaseVaults/RibbonThetaVault.sol:RibbonThetaVault",
            "label": "cap",
            "offset": 0,
            "slot": "2",
            "type": "t_uint104"
          }
        ],
        "numberOfBytes": "96"
      },
      "t_struct(VaultState)6503_storage": {
        "encoding": "inplace",
        "label": "struct Vault.VaultState",
        "members": [
          {
            "astId": 6494,
            "contract": "contracts/vaults/BaseVaults/RibbonThetaVault.sol:RibbonThetaVault",
            "label": "round",
            "offset": 0,
            "slot": "0",
            "type": "t_uint16"
          },
          {
            "astId": 6496,
            "contract": "contracts/vaults/BaseVaults/RibbonThetaVault.sol:RibbonThetaVault",
            "label": "lockedAmount",
            "offset": 2,
            "slot": "0",
            "type": "t_uint104"
          },
          {
            "astId": 6498,
            "contract": "contracts/vaults/BaseVaults/RibbonThetaVault.sol:RibbonThetaVault",
            "label": "lastLockedAmount",
            "offset": 15,
            "slot": "0",
            "type": "t_uint104"
          },
          {
            "astId": 6500,
            "contract": "contracts/vaults/BaseVaults/RibbonThetaVault.sol:RibbonThetaVault",
            "label": "totalPending",
            "offset": 0,
            "slot": "1",
            "type": "t_uint128"
          },
          {
            "astId": 6502,
            "contract": "contracts/vaults/BaseVaults/RibbonThetaVault.sol:RibbonThetaVault",
            "label": "queuedWithdrawShares",
            "offset": 16,
            "slot": "1",
            "type": "t_uint128"
          }
        ],
        "numberOfBytes": "64"
      },
      "t_struct(Withdrawal)6515_storage": {
        "encoding": "inplace",
        "label": "struct Vault.Withdrawal",
        "members": [
          {
            "astId": 6512,
            "contract": "contracts/vaults/BaseVaults/RibbonThetaVault.sol:RibbonThetaVault",
            "label": "round",
            "offset": 0,
            "slot": "0",
            "type": "t_uint16"
          },
          {
            "astId": 6514,
            "contract": "contracts/vaults/BaseVaults/RibbonThetaVault.sol:RibbonThetaVault",
            "label": "shares",
            "offset": 2,
            "slot": "0",
            "type": "t_uint128"
          }
        ],
        "numberOfBytes": "32"
      },
      "t_uint104": {
        "encoding": "inplace",
        "label": "uint104",
        "numberOfBytes": "13"
      },
      "t_uint128": {
        "encoding": "inplace",
        "label": "uint128",
        "numberOfBytes": "16"
      },
      "t_uint16": {
        "encoding": "inplace",
        "label": "uint16",
        "numberOfBytes": "2"
      },
      "t_uint256": {
        "encoding": "inplace",
        "label": "uint256",
        "numberOfBytes": "32"
      },
      "t_uint32": {
        "encoding": "inplace",
        "label": "uint32",
        "numberOfBytes": "4"
      },
      "t_uint56": {
        "encoding": "inplace",
        "label": "uint56",
        "numberOfBytes": "7"
      },
      "t_uint8": {
        "encoding": "inplace",
        "label": "uint8",
        "numberOfBytes": "1"
      }
    }
  }
}