{
  "address": "0x1decc75F4903f3993ceDcfAe98222Dfb67264d3C",
  "abi": [
    {
      "inputs": [
        {
          "internalType": "address",
          "name": "_sAVAX",
          "type": "address"
        },
        {
          "internalType": "address",
          "name": "_sAVAXVault",
          "type": "address"
        }
      ],
      "stateMutability": "nonpayable",
      "type": "constructor"
    },
    {
      "inputs": [],
      "name": "deposit",
      "outputs": [],
      "stateMutability": "payable",
      "type": "function"
    },
    {
      "inputs": [
        {
          "internalType": "address",
          "name": "recipient",
          "type": "address"
        }
      ],
      "name": "depositFor",
      "outputs": [],
      "stateMutability": "payable",
      "type": "function"
    },
    {
      "inputs": [],
      "name": "sAVAX",
      "outputs": [
        {
          "internalType": "contract ISAVAX",
          "name": "",
          "type": "address"
        }
      ],
      "stateMutability": "view",
      "type": "function"
    },
    {
      "inputs": [],
      "name": "sAVAXVault",
      "outputs": [
        {
          "internalType": "contract IRibbonVault",
          "name": "",
          "type": "address"
        }
      ],
      "stateMutability": "view",
      "type": "function"
    }
  ],
  "transactionHash": "0x8c6ae3b1b2c68a2fec704ae6225c468f8ca9196b289924e08a8e3a10f97aaf5b",
  "args": [
    "0x2b2C81e08f1Af8835a78Bb2A90AE924ACE0eA4bE",
    "0x6BF686d99A4cE17798C45d09C21181fAc29A9fb3"
  ],
  "solcInputHash": "f102c4f2462a3d19fdfa836230344549",
  "bytecode": "0x60c060405234801561001057600080fd5b506040516106c93803806106c983398101604081905261002f916100f1565b6001600160a01b0382166100735760405162461bcd60e51b8152602060048201526006602482015265042e682ac82b60d31b60448201526064015b60405180910390fd5b6001600160a01b0381166100b75760405162461bcd60e51b815260206004820152600b60248201526a085cd055905615985d5b1d60aa1b604482015260640161006a565b6001600160601b0319606092831b8116608052911b1660a052610123565b80516001600160a01b03811681146100ec57600080fd5b919050565b60008060408385031215610103578182fd5b61010c836100d5565b915061011a602084016100d5565b90509250929050565b60805160601c60a05160601c6105466101836000396000818160bb015281816101920152818161026901528181610376015261044301526000818160560152818160e9015281816101c4015281816102cd01526103a801526105466000f3fe60806040526004361061003f5760003560e01c8063a2a5236c14610044578063aa67c91914610094578063caa8c3c7146100a9578063d0e30db0146100dd575b600080fd5b34801561005057600080fd5b506100787f000000000000000000000000000000000000000000000000000000000000000081565b6040516001600160a01b03909116815260200160405180910390f35b6100a76100a23660046104aa565b6100e5565b005b3480156100b557600080fd5b506100787f000000000000000000000000000000000000000000000000000000000000000081565b6100a76102c9565b60007f00000000000000000000000000000000000000000000000000000000000000006001600160a01b0316635bcb2fc6346040518263ffffffff1660e01b81526004016020604051808303818588803b15801561014257600080fd5b505af1158015610156573d6000803e3d6000fd5b50505050506040513d601f19601f8201168201806040525081019061017b91906104f8565b60405163095ea7b360e01b81526001600160a01b037f000000000000000000000000000000000000000000000000000000000000000081166004830152602482018390529192507f00000000000000000000000000000000000000000000000000000000000000009091169063095ea7b390604401602060405180830381600087803b15801561020a57600080fd5b505af115801561021e573d6000803e3d6000fd5b505050506040513d601f19601f8201168201806040525081019061024291906104d8565b506040516336efd16f60e01b8152600481018290526001600160a01b0383811660248301527f000000000000000000000000000000000000000000000000000000000000000016906336efd16f90604401600060405180830381600087803b1580156102ad57600080fd5b505af11580156102c1573d6000803e3d6000fd5b505050505050565b60007f00000000000000000000000000000000000000000000000000000000000000006001600160a01b0316635bcb2fc6346040518263ffffffff1660e01b81526004016020604051808303818588803b15801561032657600080fd5b505af115801561033a573d6000803e3d6000fd5b50505050506040513d601f19601f8201168201806040525081019061035f91906104f8565b60405163095ea7b360e01b81526001600160a01b037f000000000000000000000000000000000000000000000000000000000000000081166004830152602482018390529192507f00000000000000000000000000000000000000000000000000000000000000009091169063095ea7b390604401602060405180830381600087803b1580156103ee57600080fd5b505af1158015610402573d6000803e3d6000fd5b505050506040513d601f19601f8201168201806040525081019061042691906104d8565b506040516336efd16f60e01b8152600481018290523360248201527f00000000000000000000000000000000000000000000000000000000000000006001600160a01b0316906336efd16f90604401600060405180830381600087803b15801561048f57600080fd5b505af11580156104a3573d6000803e3d6000fd5b5050505050565b6000602082840312156104bb578081fd5b81356001600160a01b03811681146104d1578182fd5b9392505050565b6000602082840312156104e9578081fd5b815180151581146104d1578182fd5b600060208284031215610509578081fd5b505191905056fea264697066735822122075d92ac3f31915a5f12ee34dc14fd93dfd30e0be8b89003344af205158d488fc64736f6c63430008040033",
  "devdoc": {
    "kind": "dev",
    "methods": {},
    "version": 1
  },
  "userdoc": {
    "kind": "user",
    "methods": {},
    "version": 1
  },
  "storageLayout": {
    "storage": [],
    "types": null
  }
}