{
  "address": "0x8F17165DE054D6266b44fb162153ad43266B89FB",
  "abi": [
    {
      "inputs": [
        {
          "internalType": "address",
          "name": "_sAVAX",
          "type": "address"
        },
        {
          "internalType": "address",
          "name": "_WAVAXOracle",
          "type": "address"
        }
      ],
      "stateMutability": "nonpayable",
      "type": "constructor"
    },
    {
      "inputs": [],
      "name": "WAVAXOracle",
      "outputs": [
        {
          "internalType": "contract AggregatorV3Interface",
          "name": "",
          "type": "address"
        }
      ],
      "stateMutability": "view",
      "type": "function"
    },
    {
      "inputs": [],
      "name": "decimals",
      "outputs": [
        {
          "internalType": "uint256",
          "name": "",
          "type": "uint256"
        }
      ],
      "stateMutability": "view",
      "type": "function"
    },
    {
      "inputs": [],
      "name": "latestAnswer",
      "outputs": [
        {
          "internalType": "uint256",
          "name": "",
          "type": "uint256"
        }
      ],
      "stateMutability": "view",
      "type": "function"
    },
    {
      "inputs": [],
      "name": "sAVAX",
      "outputs": [
        {
          "internalType": "contract ISAVAX",
          "name": "",
          "type": "address"
        }
      ],
      "stateMutability": "view",
      "type": "function"
    }
  ],
  "transactionHash": "0xb7b24c00d80f96e84becd4ec728a7ac169061b8356ac10a78978badf65b06a0c",
  "args": [
    "0x2b2C81e08f1Af8835a78Bb2A90AE924ACE0eA4bE",
    "0x0A77230d17318075983913bC2145DB16C7366156"
  ],
  "solcInputHash": "a6eb8efcd142fb3d52fcf81a4ece25eb",
  "bytecode": "0x608060405234801561001057600080fd5b506040516105ac3803806105ac83398101604081905261002f91610105565b6001600160a01b0382166100735760405162461bcd60e51b8152602060048201526006602482015265042e682ac82b60d31b60448201526064015b60405180910390fd5b6001600160a01b0381166100b85760405162461bcd60e51b815260206004820152600c60248201526b2157415641584f7261636c6560a01b604482015260640161006a565b600180546001600160a01b039384166001600160a01b03199182161790915560008054929093169116179055610137565b80516001600160a01b038116811461010057600080fd5b919050565b60008060408385031215610117578182fd5b610120836100e9565b915061012e602084016100e9565b90509250929050565b610466806101466000396000f3fe608060405234801561001057600080fd5b506004361061004c5760003560e01c8063313ce5671461005157806350d25bcd1461006c57806382a67eae14610074578063a2a5236c1461009f575b600080fd5b6100596100b2565b6040519081526020015b60405180910390f35b610059610134565b600054610087906001600160a01b031681565b6040516001600160a01b039091168152602001610063565b600154610087906001600160a01b031681565b6001546040805163313ce56760e01b815290516000926001600160a01b03169163313ce567916004808301926020929190829003018186803b1580156100f757600080fd5b505afa15801561010b573d6000803e3d6000fd5b505050506040513d601f19601f8201168201806040525081019061012f919061037e565b905090565b60008060008060008060009054906101000a90046001600160a01b03166001600160a01b031663feaf968c6040518163ffffffff1660e01b815260040160a06040518083038186803b15801561018957600080fd5b505afa15801561019d573d6000803e3d6000fd5b505050506040513d601f19601f820116820180604052508101906101c19190610396565b9450945050935093508369ffffffffffffffffffff168169ffffffffffffffffffff16101561022c5760405162461bcd60e51b81526020600482015260126024820152715374616c65206f7261636c6520707269636560701b60448201526064015b60405180910390fd5b816102665760405162461bcd60e51b815260206004820152600a60248201526902174696d655374616d760b41b6044820152606401610223565b6000610273846000610288565b905061027e816102a1565b9550505050505090565b600081831215610298578161029a565b825b9392505050565b600154604051634a36d6c160e01b8152670de0b6b3a7640000600482015260009182916001600160a01b0390911690634a36d6c19060240160206040518083038186803b1580156102f157600080fd5b505afa158015610305573d6000803e3d6000fd5b505050506040513d601f19601f82011682018060405250810190610329919061037e565b905061029a670de0b6b3a76400006103418386610347565b90610353565b600061029a8284610405565b600061029a82846103e5565b805169ffffffffffffffffffff8116811461037957600080fd5b919050565b60006020828403121561038f578081fd5b5051919050565b600080600080600060a086880312156103ad578081fd5b6103b68661035f565b94506020860151935060408601519250606086015191506103d96080870161035f565b90509295509295909350565b60008261040057634e487b7160e01b81526012600452602481fd5b500490565b600081600019048311821515161561042b57634e487b7160e01b81526011600452602481fd5b50029056fea2646970667358221220bcbc9b70cbcb3e8ee80aad99aaaf8105d689243193b4b16742de8d79fd54bac664736f6c63430008040033",
  "devdoc": {
    "kind": "dev",
    "methods": {},
    "version": 1
  },
  "userdoc": {
    "kind": "user",
    "methods": {},
    "version": 1
  },
  "storageLayout": {
    "storage": [
      {
        "astId": 10923,
        "contract": "contracts/oracles/SAvaxOracle.sol:SAvaxOracle",
        "label": "WAVAXOracle",
        "offset": 0,
        "slot": "0",
        "type": "t_contract(AggregatorV3Interface)45"
      },
      {
        "astId": 10926,
        "contract": "contracts/oracles/SAvaxOracle.sol:SAvaxOracle",
        "label": "sAVAX",
        "offset": 0,
        "slot": "1",
        "type": "t_contract(ISAVAX)3288"
      }
    ],
    "types": {
      "t_contract(AggregatorV3Interface)45": {
        "encoding": "inplace",
        "label": "contract AggregatorV3Interface",
        "numberOfBytes": "20"
      },
      "t_contract(ISAVAX)3288": {
        "encoding": "inplace",
        "label": "contract ISAVAX",
        "numberOfBytes": "20"
      }
    }
  }
}