{
  "address": "0xC3a6e84e20103ac1A275fa287410a5F72Af07c3d",
  "abi": [
    {
      "inputs": [
        {
          "internalType": "address",
          "name": "_optionsPremiumPricer",
          "type": "address"
        },
        {
          "internalType": "uint256",
          "name": "_delta",
          "type": "uint256"
        },
        {
          "internalType": "uint256",
          "name": "_step",
          "type": "uint256"
        }
      ],
      "stateMutability": "nonpayable",
      "type": "constructor"
    },
    {
      "anonymous": false,
      "inputs": [
        {
          "indexed": false,
          "internalType": "uint256",
          "name": "oldDelta",
          "type": "uint256"
        },
        {
          "indexed": false,
          "internalType": "uint256",
          "name": "newDelta",
          "type": "uint256"
        },
        {
          "indexed": true,
          "internalType": "address",
          "name": "owner",
          "type": "address"
        }
      ],
      "name": "DeltaSet",
      "type": "event"
    },
    {
      "anonymous": false,
      "inputs": [
        {
          "indexed": true,
          "internalType": "address",
          "name": "previousOwner",
          "type": "address"
        },
        {
          "indexed": true,
          "internalType": "address",
          "name": "newOwner",
          "type": "address"
        }
      ],
      "name": "OwnershipTransferred",
      "type": "event"
    },
    {
      "anonymous": false,
      "inputs": [
        {
          "indexed": false,
          "internalType": "uint256",
          "name": "oldStep",
          "type": "uint256"
        },
        {
          "indexed": false,
          "internalType": "uint256",
          "name": "newStep",
          "type": "uint256"
        },
        {
          "indexed": true,
          "internalType": "address",
          "name": "owner",
          "type": "address"
        }
      ],
      "name": "StepSet",
      "type": "event"
    },
    {
      "inputs": [],
      "name": "delta",
      "outputs": [
        {
          "internalType": "uint256",
          "name": "",
          "type": "uint256"
        }
      ],
      "stateMutability": "view",
      "type": "function"
    },
    {
      "inputs": [
        {
          "internalType": "uint256",
          "name": "expiryTimestamp",
          "type": "uint256"
        },
        {
          "internalType": "bool",
          "name": "isPut",
          "type": "bool"
        }
      ],
      "name": "getStrikePrice",
      "outputs": [
        {
          "internalType": "uint256",
          "name": "newStrikePrice",
          "type": "uint256"
        },
        {
          "internalType": "uint256",
          "name": "newDelta",
          "type": "uint256"
        }
      ],
      "stateMutability": "view",
      "type": "function"
    },
    {
      "inputs": [
        {
          "internalType": "uint256",
          "name": "expiryTimestamp",
          "type": "uint256"
        },
        {
          "internalType": "bool",
          "name": "isPut",
          "type": "bool"
        },
        {
          "internalType": "uint256",
          "name": "annualizedVol",
          "type": "uint256"
        }
      ],
      "name": "getStrikePriceWithVol",
      "outputs": [
        {
          "internalType": "uint256",
          "name": "newStrikePrice",
          "type": "uint256"
        },
        {
          "internalType": "uint256",
          "name": "newDelta",
          "type": "uint256"
        }
      ],
      "stateMutability": "view",
      "type": "function"
    },
    {
      "inputs": [],
      "name": "optionsPremiumPricer",
      "outputs": [
        {
          "internalType": "contract IOptionsPremiumPricer",
          "name": "",
          "type": "address"
        }
      ],
      "stateMutability": "view",
      "type": "function"
    },
    {
      "inputs": [],
      "name": "owner",
      "outputs": [
        {
          "internalType": "address",
          "name": "",
          "type": "address"
        }
      ],
      "stateMutability": "view",
      "type": "function"
    },
    {
      "inputs": [],
      "name": "renounceOwnership",
      "outputs": [],
      "stateMutability": "nonpayable",
      "type": "function"
    },
    {
      "inputs": [
        {
          "internalType": "uint256",
          "name": "newDelta",
          "type": "uint256"
        }
      ],
      "name": "setDelta",
      "outputs": [],
      "stateMutability": "nonpayable",
      "type": "function"
    },
    {
      "inputs": [
        {
          "internalType": "uint256",
          "name": "newStep",
          "type": "uint256"
        }
      ],
      "name": "setStep",
      "outputs": [],
      "stateMutability": "nonpayable",
      "type": "function"
    },
    {
      "inputs": [],
      "name": "step",
      "outputs": [
        {
          "internalType": "uint256",
          "name": "",
          "type": "uint256"
        }
      ],
      "stateMutability": "view",
      "type": "function"
    },
    {
      "inputs": [
        {
          "internalType": "address",
          "name": "newOwner",
          "type": "address"
        }
      ],
      "name": "transferOwnership",
      "outputs": [],
      "stateMutability": "nonpayable",
      "type": "function"
    },
    {
      "inputs": [],
      "name": "volatilityOracle",
      "outputs": [
        {
          "internalType": "contract IVolatilityOracle",
          "name": "",
          "type": "address"
        }
      ],
      "stateMutability": "view",
      "type": "function"
    }
  ],
  "transactionHash": "0xbc0439ff77f996cd43e9b4b7a7c4c79a4abde3e80e3d7b590846a60e710092f1",
  "args": [
    "0x9064B565b833965fc13676b4e3FD30e24a126F0c",
    1000,
    10
  ],
  "solcInputHash": "ecfebdb5f26086d6ffe149b9d0e3de1b",
  "bytecode": "0x60e06040523480156200001157600080fd5b5060405162001247380380620012478339810160408190526200003491620003e0565b6200003f336200033f565b6001600160a01b0383166200009b5760405162461bcd60e51b815260206004820152601660248201527f215f6f7074696f6e735072656d69756d5072696365720000000000000000000060448201526064015b60405180910390fd5b60008211620000d75760405162461bcd60e51b8152602060048201526007602482015266215f64656c746160c81b604482015260640162000092565b6127108211156200012b5760405162461bcd60e51b815260206004820152601e60248201527f6e657744656c74612063616e6e6f74206265206d6f7265207468616e20310000604482015260640162000092565b60008111620001665760405162461bcd60e51b81526020600482015260066024820152650215f737465760d41b604482015260640162000092565b826001600160a01b03166080816001600160a01b031660601b81525050826001600160a01b03166355b13a4f6040518163ffffffff1660e01b815260040160206040518083038186803b158015620001bd57600080fd5b505afa158015620001d2573d6000803e3d6000fd5b505050506040513d601f19601f82011682018060405250810190620001f89190620003c3565b6001600160a01b031660a0816001600160a01b031660601b81525050816001819055506000836001600160a01b0316632630c12f6040518163ffffffff1660e01b815260040160206040518083038186803b1580156200025757600080fd5b505afa1580156200026c573d6000803e3d6000fd5b505050506040513d601f19601f82011682018060405250810190620002929190620003c3565b6001600160a01b031663313ce5676040518163ffffffff1660e01b815260040160206040518083038186803b158015620002cb57600080fd5b505afa158015620002e0573d6000803e3d6000fd5b505050506040513d601f19601f8201168201806040525081019062000306919062000417565b6200031390600a62000479565b90506200032f81836200038f60201b620005f31790919060201c565b60025560c052506200056d915050565b600080546001600160a01b038381166001600160a01b0319831681178455604051919092169283917f8be0079c531659141344cd1fd0a4f28419497f9722a3daafe3b4186f6b6457e09190a35050565b60006200039d828462000535565b90505b92915050565b80516001600160a01b0381168114620003be57600080fd5b919050565b600060208284031215620003d5578081fd5b6200039d82620003a6565b600080600060608486031215620003f5578182fd5b6200040084620003a6565b925060208401519150604084015190509250925092565b60006020828403121562000429578081fd5b5051919050565b600181815b808511156200047157816000190482111562000455576200045562000557565b808516156200046357918102915b93841c939080029062000435565b509250929050565b60006200039d83836000826200049257506001620003a0565b81620004a157506000620003a0565b8160018114620004ba5760028114620004c557620004e5565b6001915050620003a0565b60ff841115620004d957620004d962000557565b50506001821b620003a0565b5060208310610133831016604e8410600b84101617156200050a575081810a620003a0565b62000516838362000430565b80600019048211156200052d576200052d62000557565b029392505050565b600081600019048311821515161562000552576200055262000557565b500290565b634e487b7160e01b600052601160045260246000fd5b60805160601c60a05160601c60c051610c7a620005cd60003960008181610594015281816107a5015261090d01526000818161010c01526103400152600081816101640152818161036f0152818161065c015261077b0152610c7a6000f3fe608060405234801561001057600080fd5b50600436106100a95760003560e01c80638da5cb5b116100715780638da5cb5b1461014e578063afa662641461015f578063e25fe17514610186578063e436b8911461018f578063f2fde38b146101a2578063f8dcbddb146101b557600080fd5b8063025ff0a5146100ae5780630eaf0e7a146100c357806312b495a8146100f057806355b13a4f14610107578063715018a614610146575b600080fd5b6100c16100bc366004610af6565b6101c8565b005b6100d66100d1366004610b39565b6102d1565b604080519283526020830191909152015b60405180910390f35b6100f960015481565b6040519081526020016100e7565b61012e7f000000000000000000000000000000000000000000000000000000000000000081565b6040516001600160a01b0390911681526020016100e7565b6100c16102fa565b6000546001600160a01b031661012e565b61012e7f000000000000000000000000000000000000000000000000000000000000000081565b6100f960025481565b6100d661019d366004610b0e565b610330565b6100c16101b0366004610ab7565b61048b565b6100c16101c3366004610af6565b610526565b6000546001600160a01b031633146101fb5760405162461bcd60e51b81526004016101f290610b6d565b60405180910390fd5b600081116102375760405162461bcd60e51b8152602060048201526009602482015268216e657744656c746160b81b60448201526064016101f2565b6127108111156102895760405162461bcd60e51b815260206004820152601e60248201527f6e657744656c74612063616e6e6f74206265206d6f7265207468616e2031000060448201526064016101f2565b6001805490829055604080518281526020810184905233917f760f0242cb96fbbbd0cf6647501a2763dfd1ee22287ca1a688cb1d5f1ca6026d91015b60405180910390a25050565b6000806102ed85856102e8866402540be4006105f3565b610606565b915091505b935093915050565b6000546001600160a01b031633146103245760405162461bcd60e51b81526004016101f290610b6d565b61032e600061097e565b565b60008060006104726402540be4007f00000000000000000000000000000000000000000000000000000000000000006001600160a01b0316635ecfdf1e7f00000000000000000000000000000000000000000000000000000000000000006001600160a01b031663ad2717966040518163ffffffff1660e01b815260040160206040518083038186803b1580156103c657600080fd5b505afa1580156103da573d6000803e3d6000fd5b505050506040513d601f19601f820116820180604052508101906103fe9190610ade565b6040518263ffffffff1660e01b815260040161041c91815260200190565b60206040518083038186803b15801561043457600080fd5b505afa158015610448573d6000803e3d6000fd5b505050506040513d601f19601f8201168201806040525081019061046c9190610ade565b906105f3565b905061047f858583610606565b92509250509250929050565b6000546001600160a01b031633146104b55760405162461bcd60e51b81526004016101f290610b6d565b6001600160a01b03811661051a5760405162461bcd60e51b815260206004820152602660248201527f4f776e61626c653a206e6577206f776e657220697320746865207a65726f206160448201526564647265737360d01b60648201526084016101f2565b6105238161097e565b50565b6000546001600160a01b031633146105505760405162461bcd60e51b81526004016101f290610b6d565b6000811161058b5760405162461bcd60e51b81526020600482015260086024820152670216e6577537465760c41b60448201526064016101f2565b6002546105b8827f00000000000000000000000000000000000000000000000000000000000000006105f3565b600255604080518281526020810184905233917f08e332c6ae0c42d16506516b7ec987c8101ae8c5e930012ecd0c23142930518c91016102c5565b60006105ff8284610bce565b9392505050565b6000804285116106585760405162461bcd60e51b815260206004820152601d60248201527f457870697279206d75737420626520696e20746865206675747572652100000060448201526064016101f2565b60007f00000000000000000000000000000000000000000000000000000000000000006001600160a01b031663468f02d26040518163ffffffff1660e01b815260040160206040518083038186803b1580156106b357600080fd5b505afa1580156106c7573d6000803e3d6000fd5b505050506040513d601f19601f820116820180604052508101906106eb9190610ade565b9050600085610727576002546107229061071c6107088286610c04565b6002546107159190610bed565b85906109ce565b906109ce565b610748565b6002546107489061074261073b8286610c04565b85906109da565b906109da565b905060008661075957600154610769565b60015461076990612710906109da565b90506127105b60006001600160a01b037f000000000000000000000000000000000000000000000000000000000000000016639380576f6107d87f00000000000000000000000000000000000000000000000000000000000000006107d2896305f5e1006105f3565b906109e6565b6040516001600160e01b031960e084901b168152600481019190915260248101879052604481018b9052606481018d905260840160206040518083038186803b15801561082457600080fd5b505afa158015610838573d6000803e3d6000fd5b505050506040513d601f19601f8201168201806040525081019061085c9190610ade565b905060008961087a578284111580156108755750818410155b61088a565b82841015801561088a5750818411155b9050801561094c5760006108a08484878e6109f2565b905060006108b08286898f610a6c565b90508b6108c057878110156108c5565b878111155b6109085760405162461bcd60e51b8152602060048201526014602482015273496e76616c696420737472696b6520707269636560601b60448201526064016101f2565b61093a7f00000000000000000000000000000000000000000000000000000000000000006107d2836305f5e1006105f3565b829950995050505050505050506102f2565b896109645760025461095f9086906109ce565b610972565b6002546109729086906109da565b9450819250505061076f565b600080546001600160a01b038381166001600160a01b0319831681178455604051919092169283917f8be0079c531659141344cd1fd0a4f28419497f9722a3daafe3b4186f6b6457e09190a35050565b60006105ff8284610ba2565b60006105ff8284610bed565b60006105ff8284610bba565b6000808215610a30576000610a0786866109da565b90506000610a1586896109da565b905081811115610a255786610a27565b875b92505050610a61565b6000610a3c87866109da565b90506000610a4a86886109da565b905081811115610a5a5787610a5c565b865b925050505b90505b949350505050565b6000838514610a7c575081610a64565b81610a9457600254610a8f9084906109da565b610a61565b600254610a619084906109ce565b80358015158114610ab257600080fd5b919050565b600060208284031215610ac8578081fd5b81356001600160a01b03811681146105ff578182fd5b600060208284031215610aef578081fd5b5051919050565b600060208284031215610b07578081fd5b5035919050565b60008060408385031215610b20578081fd5b82359150610b3060208401610aa2565b90509250929050565b600080600060608486031215610b4d578081fd5b83359250610b5d60208501610aa2565b9150604084013590509250925092565b6020808252818101527f4f776e61626c653a2063616c6c6572206973206e6f7420746865206f776e6572604082015260600190565b60008219821115610bb557610bb5610c18565b500190565b600082610bc957610bc9610c2e565b500490565b6000816000190483118215151615610be857610be8610c18565b500290565b600082821015610bff57610bff610c18565b500390565b600082610c1357610c13610c2e565b500690565b634e487b7160e01b600052601160045260246000fd5b634e487b7160e01b600052601260045260246000fdfea264697066735822122061e8d6a137a9516d4f433ef0ce376afc145eeb0be0967adac691b9f5fc7ef4d564736f6c63430008040033",
  "devdoc": {
    "kind": "dev",
    "methods": {
      "getStrikePrice(uint256,bool)": {
        "params": {
          "expiryTimestamp": "is the unix timestamp of expiration",
          "isPut": "is whether option is put or call"
        },
        "returns": {
          "newDelta": "is the delta of the option given its parameters",
          "newStrikePrice": "is the strike price of the option (ex: for BTC might be 45000 * 10 ** 8)"
        }
      },
      "getStrikePriceWithVol(uint256,bool,uint256)": {
        "params": {
          "annualizedVol": "is IV of the asset at the specified delta",
          "expiryTimestamp": "is the unix timestamp of expiration",
          "isPut": "is whether option is put or call"
        },
        "returns": {
          "newDelta": "is the delta of the option given its parameters",
          "newStrikePrice": "is the strike price of the option (ex: for BTC might be 45000 * 10 ** 8)"
        }
      },
      "owner()": {
        "details": "Returns the address of the current owner."
      },
      "renounceOwnership()": {
        "details": "Leaves the contract without owner. It will not be possible to call `onlyOwner` functions anymore. Can only be called by the current owner. NOTE: Renouncing ownership will leave the contract without an owner, thereby removing any functionality that is only available to the owner."
      },
      "setDelta(uint256)": {
        "params": {
          "newDelta": "is the new delta value"
        }
      },
      "setStep(uint256)": {
        "params": {
          "newStep": "is the new step value"
        }
      },
      "transferOwnership(address)": {
        "details": "Transfers ownership of the contract to a new account (`newOwner`). Can only be called by the current owner."
      }
    },
    "version": 1
  },
  "userdoc": {
    "kind": "user",
    "methods": {
      "getStrikePrice(uint256,bool)": {
        "notice": "Gets the strike price satisfying the delta value given the expiry timestamp and whether option is call or put"
      },
      "getStrikePriceWithVol(uint256,bool,uint256)": {
        "notice": "Gets the strike price satisfying the delta value given the expiry timestamp and whether option is call or put"
      },
      "optionsPremiumPricer()": {
        "notice": "Immutables"
      },
      "setDelta(uint256)": {
        "notice": "Sets new delta value"
      },
      "setStep(uint256)": {
        "notice": "Sets new step value"
      }
    },
    "version": 1
  },
  "storageLayout": {
    "storage": [
      {
        "astId": 1002,
        "contract": "contracts/utils/DeltaStrikeSelection.sol:DeltaStrikeSelection",
        "label": "_owner",
        "offset": 0,
        "slot": "0",
        "type": "t_address"
      },
      {
        "astId": 12103,
        "contract": "contracts/utils/DeltaStrikeSelection.sol:DeltaStrikeSelection",
        "label": "delta",
        "offset": 0,
        "slot": "1",
        "type": "t_uint256"
      },
      {
        "astId": 12105,
        "contract": "contracts/utils/DeltaStrikeSelection.sol:DeltaStrikeSelection",
        "label": "step",
        "offset": 0,
        "slot": "2",
        "type": "t_uint256"
      }
    ],
    "types": {
      "t_address": {
        "encoding": "inplace",
        "label": "address",
        "numberOfBytes": "20"
      },
      "t_uint256": {
        "encoding": "inplace",
        "label": "uint256",
        "numberOfBytes": "32"
      }
    }
  }
}