{
  "address": "0x34DCc3FD8cdB790DBFC10349875Dc1b8c5B8Ab34",
  "abi": [
    {
      "inputs": [
        {
          "internalType": "address",
          "name": "_optionsPremiumPricer",
          "type": "address"
        },
        {
          "internalType": "uint256",
          "name": "_delta",
          "type": "uint256"
        },
        {
          "internalType": "uint256",
          "name": "_step",
          "type": "uint256"
        }
      ],
      "stateMutability": "nonpayable",
      "type": "constructor"
    },
    {
      "anonymous": false,
      "inputs": [
        {
          "indexed": false,
          "internalType": "uint256",
          "name": "oldDelta",
          "type": "uint256"
        },
        {
          "indexed": false,
          "internalType": "uint256",
          "name": "newDelta",
          "type": "uint256"
        },
        {
          "indexed": true,
          "internalType": "address",
          "name": "owner",
          "type": "address"
        }
      ],
      "name": "DeltaSet",
      "type": "event"
    },
    {
      "anonymous": false,
      "inputs": [
        {
          "indexed": true,
          "internalType": "address",
          "name": "previousOwner",
          "type": "address"
        },
        {
          "indexed": true,
          "internalType": "address",
          "name": "newOwner",
          "type": "address"
        }
      ],
      "name": "OwnershipTransferred",
      "type": "event"
    },
    {
      "anonymous": false,
      "inputs": [
        {
          "indexed": false,
          "internalType": "uint256",
          "name": "oldStep",
          "type": "uint256"
        },
        {
          "indexed": false,
          "internalType": "uint256",
          "name": "newStep",
          "type": "uint256"
        },
        {
          "indexed": true,
          "internalType": "address",
          "name": "owner",
          "type": "address"
        }
      ],
      "name": "StepSet",
      "type": "event"
    },
    {
      "inputs": [],
      "name": "delta",
      "outputs": [
        {
          "internalType": "uint256",
          "name": "",
          "type": "uint256"
        }
      ],
      "stateMutability": "view",
      "type": "function"
    },
    {
      "inputs": [
        {
          "internalType": "uint256",
          "name": "expiryTimestamp",
          "type": "uint256"
        },
        {
          "internalType": "bool",
          "name": "isPut",
          "type": "bool"
        }
      ],
      "name": "getStrikePrice",
      "outputs": [
        {
          "internalType": "uint256",
          "name": "newStrikePrice",
          "type": "uint256"
        },
        {
          "internalType": "uint256",
          "name": "newDelta",
          "type": "uint256"
        }
      ],
      "stateMutability": "view",
      "type": "function"
    },
    {
      "inputs": [
        {
          "internalType": "uint256",
          "name": "expiryTimestamp",
          "type": "uint256"
        },
        {
          "internalType": "bool",
          "name": "isPut",
          "type": "bool"
        },
        {
          "internalType": "uint256",
          "name": "annualizedVol",
          "type": "uint256"
        }
      ],
      "name": "getStrikePriceWithVol",
      "outputs": [
        {
          "internalType": "uint256",
          "name": "newStrikePrice",
          "type": "uint256"
        },
        {
          "internalType": "uint256",
          "name": "newDelta",
          "type": "uint256"
        }
      ],
      "stateMutability": "view",
      "type": "function"
    },
    {
      "inputs": [],
      "name": "optionsPremiumPricer",
      "outputs": [
        {
          "internalType": "contract IOptionsPremiumPricer",
          "name": "",
          "type": "address"
        }
      ],
      "stateMutability": "view",
      "type": "function"
    },
    {
      "inputs": [],
      "name": "owner",
      "outputs": [
        {
          "internalType": "address",
          "name": "",
          "type": "address"
        }
      ],
      "stateMutability": "view",
      "type": "function"
    },
    {
      "inputs": [],
      "name": "renounceOwnership",
      "outputs": [],
      "stateMutability": "nonpayable",
      "type": "function"
    },
    {
      "inputs": [
        {
          "internalType": "uint256",
          "name": "newDelta",
          "type": "uint256"
        }
      ],
      "name": "setDelta",
      "outputs": [],
      "stateMutability": "nonpayable",
      "type": "function"
    },
    {
      "inputs": [
        {
          "internalType": "uint256",
          "name": "newStep",
          "type": "uint256"
        }
      ],
      "name": "setStep",
      "outputs": [],
      "stateMutability": "nonpayable",
      "type": "function"
    },
    {
      "inputs": [],
      "name": "step",
      "outputs": [
        {
          "internalType": "uint256",
          "name": "",
          "type": "uint256"
        }
      ],
      "stateMutability": "view",
      "type": "function"
    },
    {
      "inputs": [
        {
          "internalType": "address",
          "name": "newOwner",
          "type": "address"
        }
      ],
      "name": "transferOwnership",
      "outputs": [],
      "stateMutability": "nonpayable",
      "type": "function"
    },
    {
      "inputs": [],
      "name": "volatilityOracle",
      "outputs": [
        {
          "internalType": "contract IManualVolatilityOracle",
          "name": "",
          "type": "address"
        }
      ],
      "stateMutability": "view",
      "type": "function"
    }
  ],
  "transactionHash": "0x9fee1c9341baf41a8c1faf62a0abb8bc9e4f5db590c0185e07510b8846146f6b",
  "args": [
    "0x7fbc95bfd5e03750e780803d418f2c1d7c9ea5ba",
    1000,
    1000000000
  ],
  "solcInputHash": "2232ccc9eb94ff79a1f5b977eab072e9",
  "bytecode": "0x60e06040523480156200001157600080fd5b50604051620011e0380380620011e08339810160408190526200003491620003b7565b6200003f3362000326565b6001600160a01b0383166200009b5760405162461bcd60e51b815260206004820152601660248201527f215f6f7074696f6e735072656d69756d5072696365720000000000000000000060448201526064015b60405180910390fd5b60008211620000d75760405162461bcd60e51b8152602060048201526007602482015266215f64656c746160c81b604482015260640162000092565b6127108211156200012b5760405162461bcd60e51b815260206004820152601e60248201527f6e657744656c74612063616e6e6f74206265206d6f7265207468616e20310000604482015260640162000092565b60008111620001665760405162461bcd60e51b81526020600482015260066024820152650215f737465760d41b604482015260640162000092565b826001600160a01b03166080816001600160a01b031660601b81525050826001600160a01b03166355b13a4f6040518163ffffffff1660e01b815260040160206040518083038186803b158015620001bd57600080fd5b505afa158015620001d2573d6000803e3d6000fd5b505050506040513d601f19601f82011682018060405250810190620001f8919062000393565b6001600160a01b031660a0816001600160a01b031660601b81525050816001819055506000836001600160a01b0316632630c12f6040518163ffffffff1660e01b815260040160206040518083038186803b1580156200025757600080fd5b505afa1580156200026c573d6000803e3d6000fd5b505050506040513d601f19601f8201168201806040525081019062000292919062000393565b6001600160a01b031663313ce5676040518163ffffffff1660e01b815260040160206040518083038186803b158015620002cb57600080fd5b505afa158015620002e0573d6000803e3d6000fd5b505050506040513d601f19601f82011682018060405250810190620003069190620003ee565b6200031390600a62000450565b6002929092555060c05250620005249050565b600080546001600160a01b038381166001600160a01b0319831681178455604051919092169283917f8be0079c531659141344cd1fd0a4f28419497f9722a3daafe3b4186f6b6457e09190a35050565b80516001600160a01b03811681146200038e57600080fd5b919050565b600060208284031215620003a5578081fd5b620003b08262000376565b9392505050565b600080600060608486031215620003cc578182fd5b620003d78462000376565b925060208401519150604084015190509250925092565b60006020828403121562000400578081fd5b5051919050565b600181815b80851115620004485781600019048211156200042c576200042c6200050e565b808516156200043a57918102915b93841c93908002906200040c565b509250929050565b6000620003b08383600082620004695750600162000508565b81620004785750600062000508565b81600181146200049157600281146200049c57620004bc565b600191505062000508565b60ff841115620004b057620004b06200050e565b50506001821b62000508565b5060208310610133831016604e8410600b8410161715620004e1575081810a62000508565b620004ed838362000407565b80600019048211156200050457620005046200050e565b0290505b92915050565b634e487b7160e01b600052601160045260246000fd5b60805160601c60a05160601c60c051610c636200057d6000396000818161078e01526108f601526000818161010c01526103400152600081816101640152818161036f0152818161063401526107640152610c636000f3fe608060405234801561001057600080fd5b50600436106100a95760003560e01c80638da5cb5b116100715780638da5cb5b1461014e578063afa662641461015f578063e25fe17514610186578063e436b8911461018f578063f2fde38b146101a2578063f8dcbddb146101b557600080fd5b8063025ff0a5146100ae5780630eaf0e7a146100c357806312b495a8146100f057806355b13a4f14610107578063715018a614610146575b600080fd5b6100c16100bc366004610adf565b6101c8565b005b6100d66100d1366004610b22565b6102d1565b604080519283526020830191909152015b60405180910390f35b6100f960015481565b6040519081526020016100e7565b61012e7f000000000000000000000000000000000000000000000000000000000000000081565b6040516001600160a01b0390911681526020016100e7565b6100c16102fa565b6000546001600160a01b031661012e565b61012e7f000000000000000000000000000000000000000000000000000000000000000081565b6100f960025481565b6100d661019d366004610af7565b610330565b6100c16101b0366004610aa0565b61048b565b6100c16101c3366004610adf565b610526565b6000546001600160a01b031633146101fb5760405162461bcd60e51b81526004016101f290610b56565b60405180910390fd5b600081116102375760405162461bcd60e51b8152602060048201526009602482015268216e657744656c746160b81b60448201526064016101f2565b6127108111156102895760405162461bcd60e51b815260206004820152601e60248201527f6e657744656c74612063616e6e6f74206265206d6f7265207468616e2031000060448201526064016101f2565b6001805490829055604080518281526020810184905233917f760f0242cb96fbbbd0cf6647501a2763dfd1ee22287ca1a688cb1d5f1ca6026d91015b60405180910390a25050565b6000806102ed85856102e8866402540be4006105cb565b6105de565b915091505b935093915050565b6000546001600160a01b031633146103245760405162461bcd60e51b81526004016101f290610b56565b61032e6000610967565b565b60008060006104726402540be4007f00000000000000000000000000000000000000000000000000000000000000006001600160a01b0316635ecfdf1e7f00000000000000000000000000000000000000000000000000000000000000006001600160a01b031663ad2717966040518163ffffffff1660e01b815260040160206040518083038186803b1580156103c657600080fd5b505afa1580156103da573d6000803e3d6000fd5b505050506040513d601f19601f820116820180604052508101906103fe9190610ac7565b6040518263ffffffff1660e01b815260040161041c91815260200190565b60206040518083038186803b15801561043457600080fd5b505afa158015610448573d6000803e3d6000fd5b505050506040513d601f19601f8201168201806040525081019061046c9190610ac7565b906105cb565b905061047f8585836105de565b92509250509250929050565b6000546001600160a01b031633146104b55760405162461bcd60e51b81526004016101f290610b56565b6001600160a01b03811661051a5760405162461bcd60e51b815260206004820152602660248201527f4f776e61626c653a206e6577206f776e657220697320746865207a65726f206160448201526564647265737360d01b60648201526084016101f2565b61052381610967565b50565b6000546001600160a01b031633146105505760405162461bcd60e51b81526004016101f290610b56565b6000811161058b5760405162461bcd60e51b81526020600482015260086024820152670216e6577537465760c41b60448201526064016101f2565b6002805490829055604080518281526020810184905233917f08e332c6ae0c42d16506516b7ec987c8101ae8c5e930012ecd0c23142930518c91016102c5565b60006105d78284610bb7565b9392505050565b6000804285116106305760405162461bcd60e51b815260206004820152601d60248201527f457870697279206d75737420626520696e20746865206675747572652100000060448201526064016101f2565b60007f00000000000000000000000000000000000000000000000000000000000000006001600160a01b031663468f02d26040518163ffffffff1660e01b815260040160206040518083038186803b15801561068b57600080fd5b505afa15801561069f573d6000803e3d6000fd5b505050506040513d601f19601f820116820180604052508101906106c39190610ac7565b90506000856106ff576002546106fa906106f46106e08286610bed565b6002546106ed9190610bd6565b85906109b7565b906109b7565b610720565b6002546107209061071a6107138286610bed565b85906109c3565b906109c3565b905060008661073157600154610741565b60015461074190612710906109c3565b905060008761075257612710610755565b60005b90505b60006001600160a01b037f000000000000000000000000000000000000000000000000000000000000000016639380576f6107c17f00000000000000000000000000000000000000000000000000000000000000006107bb896305f5e1006105cb565b906109cf565b6040516001600160e01b031960e084901b168152600481019190915260248101879052604481018b9052606481018d905260840160206040518083038186803b15801561080d57600080fd5b505afa158015610821573d6000803e3d6000fd5b505050506040513d601f19601f820116820180604052508101906108459190610ac7565b90506000896108635782841115801561085e5750818410155b610873565b8284101580156108735750818411155b905080156109355760006108898484878e6109db565b905060006108998286898f610a55565b90508b6108a957878110156108ae565b878111155b6108f15760405162461bcd60e51b8152602060048201526014602482015273496e76616c696420737472696b6520707269636560601b60448201526064016101f2565b6109237f00000000000000000000000000000000000000000000000000000000000000006107bb836305f5e1006105cb565b829950995050505050505050506102f2565b8961094d576002546109489086906109b7565b61095b565b60025461095b9086906109c3565b94508192505050610758565b600080546001600160a01b038381166001600160a01b0319831681178455604051919092169283917f8be0079c531659141344cd1fd0a4f28419497f9722a3daafe3b4186f6b6457e09190a35050565b60006105d78284610b8b565b60006105d78284610bd6565b60006105d78284610ba3565b6000808215610a195760006109f086866109c3565b905060006109fe86896109c3565b905081811115610a0e5786610a10565b875b92505050610a4a565b6000610a2587866109c3565b90506000610a3386886109c3565b905081811115610a435787610a45565b865b925050505b90505b949350505050565b6000838514610a65575081610a4d565b81610a7d57600254610a789084906109c3565b610a4a565b600254610a4a9084906109b7565b80358015158114610a9b57600080fd5b919050565b600060208284031215610ab1578081fd5b81356001600160a01b03811681146105d7578182fd5b600060208284031215610ad8578081fd5b5051919050565b600060208284031215610af0578081fd5b5035919050565b60008060408385031215610b09578081fd5b82359150610b1960208401610a8b565b90509250929050565b600080600060608486031215610b36578081fd5b83359250610b4660208501610a8b565b9150604084013590509250925092565b6020808252818101527f4f776e61626c653a2063616c6c6572206973206e6f7420746865206f776e6572604082015260600190565b60008219821115610b9e57610b9e610c01565b500190565b600082610bb257610bb2610c17565b500490565b6000816000190483118215151615610bd157610bd1610c01565b500290565b600082821015610be857610be8610c01565b500390565b600082610bfc57610bfc610c17565b500690565b634e487b7160e01b600052601160045260246000fd5b634e487b7160e01b600052601260045260246000fdfea2646970667358221220beea7e9adadcf50812a4ae4588a991b0fda099ee98cebbd725cc631818afb0c264736f6c63430008040033",
  "devdoc": {
    "kind": "dev",
    "methods": {
      "getStrikePrice(uint256,bool)": {
        "params": {
          "expiryTimestamp": "is the unix timestamp of expiration",
          "isPut": "is whether option is put or call"
        },
        "returns": {
          "newDelta": "is the delta of the option given its parameters",
          "newStrikePrice": "is the strike price of the option (ex: for BTC might be 45000 * 10 ** 8)"
        }
      },
      "getStrikePriceWithVol(uint256,bool,uint256)": {
        "params": {
          "annualizedVol": "is IV of the asset at the specified delta",
          "expiryTimestamp": "is the unix timestamp of expiration",
          "isPut": "is whether option is put or call"
        },
        "returns": {
          "newDelta": "is the delta of the option given its parameters",
          "newStrikePrice": "is the strike price of the option (ex: for BTC might be 45000 * 10 ** 8)"
        }
      },
      "owner()": {
        "details": "Returns the address of the current owner."
      },
      "renounceOwnership()": {
        "details": "Leaves the contract without owner. It will not be possible to call `onlyOwner` functions anymore. Can only be called by the current owner. NOTE: Renouncing ownership will leave the contract without an owner, thereby removing any functionality that is only available to the owner."
      },
      "setDelta(uint256)": {
        "params": {
          "newDelta": "is the new delta value"
        }
      },
      "setStep(uint256)": {
        "params": {
          "newStep": "is the new step value"
        }
      },
      "transferOwnership(address)": {
        "details": "Transfers ownership of the contract to a new account (`newOwner`). Can only be called by the current owner."
      }
    },
    "version": 1
  },
  "userdoc": {
    "kind": "user",
    "methods": {
      "getStrikePrice(uint256,bool)": {
        "notice": "Gets the strike price satisfying the delta value given the expiry timestamp and whether option is call or put"
      },
      "getStrikePriceWithVol(uint256,bool,uint256)": {
        "notice": "Gets the strike price satisfying the delta value given the expiry timestamp and whether option is call or put"
      },
      "optionsPremiumPricer()": {
        "notice": "Immutables"
      },
      "setDelta(uint256)": {
        "notice": "Sets new delta value"
      },
      "setStep(uint256)": {
        "notice": "Sets new step value"
      }
    },
    "version": 1
  },
  "storageLayout": {
    "storage": [
      {
        "astId": 1002,
        "contract": "contracts/utils/DeltaStrikeSelection.sol:DeltaStrikeSelection",
        "label": "_owner",
        "offset": 0,
        "slot": "0",
        "type": "t_address"
      },
      {
        "astId": 13121,
        "contract": "contracts/utils/DeltaStrikeSelection.sol:DeltaStrikeSelection",
        "label": "delta",
        "offset": 0,
        "slot": "1",
        "type": "t_uint256"
      },
      {
        "astId": 13123,
        "contract": "contracts/utils/DeltaStrikeSelection.sol:DeltaStrikeSelection",
        "label": "step",
        "offset": 0,
        "slot": "2",
        "type": "t_uint256"
      }
    ],
    "types": {
      "t_address": {
        "encoding": "inplace",
        "label": "address",
        "numberOfBytes": "20"
      },
      "t_uint256": {
        "encoding": "inplace",
        "label": "uint256",
        "numberOfBytes": "32"
      }
    }
  }
}