{
  "address": "0xC16a88BdA30c3A2DAb8BA0239b87Db09Be135379",
  "abi": [
    {
      "inputs": [
        {
          "internalType": "address",
          "name": "_optionsPremiumPricer",
          "type": "address"
        },
        {
          "internalType": "uint256",
          "name": "_delta",
          "type": "uint256"
        },
        {
          "internalType": "uint256",
          "name": "_step",
          "type": "uint256"
        }
      ],
      "stateMutability": "nonpayable",
      "type": "constructor"
    },
    {
      "anonymous": false,
      "inputs": [
        {
          "indexed": false,
          "internalType": "uint256",
          "name": "oldDelta",
          "type": "uint256"
        },
        {
          "indexed": false,
          "internalType": "uint256",
          "name": "newDelta",
          "type": "uint256"
        },
        {
          "indexed": true,
          "internalType": "address",
          "name": "owner",
          "type": "address"
        }
      ],
      "name": "DeltaSet",
      "type": "event"
    },
    {
      "anonymous": false,
      "inputs": [
        {
          "indexed": true,
          "internalType": "address",
          "name": "previousOwner",
          "type": "address"
        },
        {
          "indexed": true,
          "internalType": "address",
          "name": "newOwner",
          "type": "address"
        }
      ],
      "name": "OwnershipTransferred",
      "type": "event"
    },
    {
      "anonymous": false,
      "inputs": [
        {
          "indexed": false,
          "internalType": "uint256",
          "name": "oldStep",
          "type": "uint256"
        },
        {
          "indexed": false,
          "internalType": "uint256",
          "name": "newStep",
          "type": "uint256"
        },
        {
          "indexed": true,
          "internalType": "address",
          "name": "owner",
          "type": "address"
        }
      ],
      "name": "StepSet",
      "type": "event"
    },
    {
      "inputs": [],
      "name": "delta",
      "outputs": [
        {
          "internalType": "uint256",
          "name": "",
          "type": "uint256"
        }
      ],
      "stateMutability": "view",
      "type": "function"
    },
    {
      "inputs": [
        {
          "internalType": "uint256",
          "name": "expiryTimestamp",
          "type": "uint256"
        },
        {
          "internalType": "bool",
          "name": "isPut",
          "type": "bool"
        }
      ],
      "name": "getStrikePrice",
      "outputs": [
        {
          "internalType": "uint256",
          "name": "newStrikePrice",
          "type": "uint256"
        },
        {
          "internalType": "uint256",
          "name": "newDelta",
          "type": "uint256"
        }
      ],
      "stateMutability": "view",
      "type": "function"
    },
    {
      "inputs": [],
      "name": "optionsPremiumPricer",
      "outputs": [
        {
          "internalType": "contract IOptionsPremiumPricer",
          "name": "",
          "type": "address"
        }
      ],
      "stateMutability": "view",
      "type": "function"
    },
    {
      "inputs": [],
      "name": "owner",
      "outputs": [
        {
          "internalType": "address",
          "name": "",
          "type": "address"
        }
      ],
      "stateMutability": "view",
      "type": "function"
    },
    {
      "inputs": [],
      "name": "renounceOwnership",
      "outputs": [],
      "stateMutability": "nonpayable",
      "type": "function"
    },
    {
      "inputs": [
        {
          "internalType": "uint256",
          "name": "newDelta",
          "type": "uint256"
        }
      ],
      "name": "setDelta",
      "outputs": [],
      "stateMutability": "nonpayable",
      "type": "function"
    },
    {
      "inputs": [
        {
          "internalType": "uint256",
          "name": "newStep",
          "type": "uint256"
        }
      ],
      "name": "setStep",
      "outputs": [],
      "stateMutability": "nonpayable",
      "type": "function"
    },
    {
      "inputs": [],
      "name": "step",
      "outputs": [
        {
          "internalType": "uint256",
          "name": "",
          "type": "uint256"
        }
      ],
      "stateMutability": "view",
      "type": "function"
    },
    {
      "inputs": [
        {
          "internalType": "address",
          "name": "newOwner",
          "type": "address"
        }
      ],
      "name": "transferOwnership",
      "outputs": [],
      "stateMutability": "nonpayable",
      "type": "function"
    },
    {
      "inputs": [],
      "name": "volatilityOracle",
      "outputs": [
        {
          "internalType": "contract IVolatilityOracle",
          "name": "",
          "type": "address"
        }
      ],
      "stateMutability": "view",
      "type": "function"
    }
  ],
  "transactionHash": "0x49898c3f41176258cff018d28b29f6f61087cbf032f1749b8c16fc67aeb6f174",
  "args": [
    "0x9C31F6FaFDa0B9cd762F2850c3438D20a87464E8",
    1000,
    10
  ],
  "solcInputHash": "cdf57611370e1dae03162545e4b1545f",
  "bytecode": "0x60e06040523480156200001157600080fd5b50604051620011db380380620011db8339810160408190526200003491620003e0565b6200003f336200033f565b6001600160a01b0383166200009b5760405162461bcd60e51b815260206004820152601660248201527f215f6f7074696f6e735072656d69756d5072696365720000000000000000000060448201526064015b60405180910390fd5b60008211620000d75760405162461bcd60e51b8152602060048201526007602482015266215f64656c746160c81b604482015260640162000092565b6127108211156200012b5760405162461bcd60e51b815260206004820152601e60248201527f6e657744656c74612063616e6e6f74206265206d6f7265207468616e20310000604482015260640162000092565b60008111620001665760405162461bcd60e51b81526020600482015260066024820152650215f737465760d41b604482015260640162000092565b826001600160a01b03166080816001600160a01b031660601b81525050826001600160a01b03166355b13a4f6040518163ffffffff1660e01b815260040160206040518083038186803b158015620001bd57600080fd5b505afa158015620001d2573d6000803e3d6000fd5b505050506040513d601f19601f82011682018060405250810190620001f89190620003c3565b6001600160a01b031660a0816001600160a01b031660601b81525050816001819055506000836001600160a01b0316632630c12f6040518163ffffffff1660e01b815260040160206040518083038186803b1580156200025757600080fd5b505afa1580156200026c573d6000803e3d6000fd5b505050506040513d601f19601f82011682018060405250810190620002929190620003c3565b6001600160a01b031663313ce5676040518163ffffffff1660e01b815260040160206040518083038186803b158015620002cb57600080fd5b505afa158015620002e0573d6000803e3d6000fd5b505050506040513d601f19601f8201168201806040525081019062000306919062000417565b6200031390600a62000479565b90506200032f81836200038f60201b6200091b1790919060201c565b60025560c052506200056d915050565b600080546001600160a01b038381166001600160a01b0319831681178455604051919092169283917f8be0079c531659141344cd1fd0a4f28419497f9722a3daafe3b4186f6b6457e09190a35050565b60006200039d828462000535565b90505b92915050565b80516001600160a01b0381168114620003be57600080fd5b919050565b600060208284031215620003d5578081fd5b6200039d82620003a6565b600080600060608486031215620003f5578182fd5b6200040084620003a6565b925060208401519150604084015190509250925092565b60006020828403121562000429578081fd5b5051919050565b600181815b808511156200047157816000190482111562000455576200045562000557565b808516156200046357918102915b93841c939080029062000435565b509250929050565b60006200039d83836000826200049257506001620003a0565b81620004a157506000620003a0565b8160018114620004ba5760028114620004c557620004e5565b6001915050620003a0565b60ff841115620004d957620004d962000557565b50506001821b620003a0565b5060208310610133831016604e8410600b84101617156200050a575081810a620003a0565b62000516838362000430565b80600019048211156200052d576200052d62000557565b029392505050565b600081600019048311821515161562000552576200055262000557565b500290565b634e487b7160e01b600052601160045260246000fd5b60805160601c60a05160601c60c051610c0f620005cc600039600081816105d20152818161073a01526108bc01526000818160d901526103dd0152600081816101310152818161033f0152818161040c01526105a80152610c0f6000f3fe608060405234801561001057600080fd5b506004361061009e5760003560e01c8063afa6626411610066578063afa662641461012c578063e25fe17514610153578063e436b8911461015c578063f2fde38b14610184578063f8dcbddb1461019757600080fd5b8063025ff0a5146100a357806312b495a8146100b857806355b13a4f146100d4578063715018a6146101135780638da5cb5b1461011b575b600080fd5b6100b66100b1366004610a8a565b6101aa565b005b6100c160015481565b6040519081526020015b60405180910390f35b6100fb7f000000000000000000000000000000000000000000000000000000000000000081565b6040516001600160a01b0390911681526020016100cb565b6100b66102b3565b6000546001600160a01b03166100fb565b6100fb7f000000000000000000000000000000000000000000000000000000000000000081565b6100c160025481565b61016f61016a366004610aba565b6102e9565b604080519283526020830191909152016100cb565b6100b6610192366004610a52565b6107b3565b6100b66101a5366004610a8a565b61084e565b6000546001600160a01b031633146101dd5760405162461bcd60e51b81526004016101d490610aed565b60405180910390fd5b600081116102195760405162461bcd60e51b8152602060048201526009602482015268216e657744656c746160b81b60448201526064016101d4565b61271081111561026b5760405162461bcd60e51b815260206004820152601e60248201527f6e657744656c74612063616e6e6f74206265206d6f7265207468616e2031000060448201526064016101d4565b6001805490829055604080518281526020810184905233917f760f0242cb96fbbbd0cf6647501a2763dfd1ee22287ca1a688cb1d5f1ca6026d91015b60405180910390a25050565b6000546001600160a01b031633146102dd5760405162461bcd60e51b81526004016101d490610aed565b6102e7600061092e565b565b60008042841161033b5760405162461bcd60e51b815260206004820152601d60248201527f457870697279206d75737420626520696e20746865206675747572652100000060448201526064016101d4565b60007f00000000000000000000000000000000000000000000000000000000000000006001600160a01b031663468f02d26040518163ffffffff1660e01b815260040160206040518083038186803b15801561039657600080fd5b505afa1580156103aa573d6000803e3d6000fd5b505050506040513d601f19601f820116820180604052508101906103ce9190610aa2565b905060006105186402540be4007f00000000000000000000000000000000000000000000000000000000000000006001600160a01b031663950ed82c7f00000000000000000000000000000000000000000000000000000000000000006001600160a01b03166316f0115b6040518163ffffffff1660e01b815260040160206040518083038186803b15801561046357600080fd5b505afa158015610477573d6000803e3d6000fd5b505050506040513d601f19601f8201168201806040525081019061049b9190610a6e565b6040516001600160e01b031960e084901b1681526001600160a01b03909116600482015260240160206040518083038186803b1580156104da57600080fd5b505afa1580156104ee573d6000803e3d6000fd5b505050506040513d601f19601f820116820180604052508101906105129190610aa2565b9061091b565b90506000856105545760025461054f906105496105358287610b84565b6002546105429190610b6d565b869061097e565b9061097e565b610575565b6002546105759061056f6105688287610b84565b869061098a565b9061098a565b905060008661058657600154610596565b600154610596906127109061098a565b90506127105b60006001600160a01b037f000000000000000000000000000000000000000000000000000000000000000016639380576f6106057f00000000000000000000000000000000000000000000000000000000000000006105ff8a6305f5e10061091b565b90610996565b6040516001600160e01b031960e084901b16815260048101919091526024810187905260448101889052606481018d905260840160206040518083038186803b15801561065157600080fd5b505afa158015610665573d6000803e3d6000fd5b505050506040513d601f19601f820116820180604052508101906106899190610aa2565b90506000896106a7578284111580156106a25750818410155b6106b7565b8284101580156106b75750818411155b9050801561077a5760006106cd8484878e6109a2565b905060006106dd8286898f610a1c565b90508b6106ed57888110156106f2565b888111155b6107355760405162461bcd60e51b8152602060048201526014602482015273496e76616c696420737472696b6520707269636560601b60448201526064016101d4565b6107677f00000000000000000000000000000000000000000000000000000000000000006105ff836305f5e10061091b565b829a509a505050505050505050506107ac565b896107925760025461078d90869061097e565b6107a0565b6002546107a090869061098a565b9450819250505061059c565b9250929050565b6000546001600160a01b031633146107dd5760405162461bcd60e51b81526004016101d490610aed565b6001600160a01b0381166108425760405162461bcd60e51b815260206004820152602660248201527f4f776e61626c653a206e6577206f776e657220697320746865207a65726f206160448201526564647265737360d01b60648201526084016101d4565b61084b8161092e565b50565b6000546001600160a01b031633146108785760405162461bcd60e51b81526004016101d490610aed565b600081116108b35760405162461bcd60e51b81526020600482015260086024820152670216e6577537465760c41b60448201526064016101d4565b6002546108e0827f000000000000000000000000000000000000000000000000000000000000000061091b565b600255604080518281526020810184905233917f08e332c6ae0c42d16506516b7ec987c8101ae8c5e930012ecd0c23142930518c91016102a7565b60006109278284610b4e565b9392505050565b600080546001600160a01b038381166001600160a01b0319831681178455604051919092169283917f8be0079c531659141344cd1fd0a4f28419497f9722a3daafe3b4186f6b6457e09190a35050565b60006109278284610b22565b60006109278284610b6d565b60006109278284610b3a565b60008082156109e05760006109b7868661098a565b905060006109c5868961098a565b9050818111156109d557866109d7565b875b92505050610a11565b60006109ec878661098a565b905060006109fa868861098a565b905081811115610a0a5787610a0c565b865b925050505b90505b949350505050565b6000838514610a2c575081610a14565b81610a4457600254610a3f90849061098a565b610a11565b600254610a1190849061097e565b600060208284031215610a63578081fd5b813561092781610bc4565b600060208284031215610a7f578081fd5b815161092781610bc4565b600060208284031215610a9b578081fd5b5035919050565b600060208284031215610ab3578081fd5b5051919050565b60008060408385031215610acc578081fd5b8235915060208301358015158114610ae2578182fd5b809150509250929050565b6020808252818101527f4f776e61626c653a2063616c6c6572206973206e6f7420746865206f776e6572604082015260600190565b60008219821115610b3557610b35610b98565b500190565b600082610b4957610b49610bae565b500490565b6000816000190483118215151615610b6857610b68610b98565b500290565b600082821015610b7f57610b7f610b98565b500390565b600082610b9357610b93610bae565b500690565b634e487b7160e01b600052601160045260246000fd5b634e487b7160e01b600052601260045260246000fd5b6001600160a01b038116811461084b57600080fdfea26469706673582212201443c82f5078287ff9257c6b77c34a9b44efe298e74847dae4ddd6e44afe63e064736f6c63430008040033",
  "devdoc": {
    "kind": "dev",
    "methods": {
      "getStrikePrice(uint256,bool)": {
        "params": {
          "expiryTimestamp": "is the unix timestamp of expiration",
          "isPut": "is whether option is put or call"
        },
        "returns": {
          "newDelta": "is the delta of the option given its parameters",
          "newStrikePrice": "is the strike price of the option (ex: for BTC might be 45000 * 10 ** 8)"
        }
      },
      "owner()": {
        "details": "Returns the address of the current owner."
      },
      "renounceOwnership()": {
        "details": "Leaves the contract without owner. It will not be possible to call `onlyOwner` functions anymore. Can only be called by the current owner. NOTE: Renouncing ownership will leave the contract without an owner, thereby removing any functionality that is only available to the owner."
      },
      "setDelta(uint256)": {
        "params": {
          "newDelta": "is the new delta value"
        }
      },
      "setStep(uint256)": {
        "params": {
          "newStep": "is the new step value"
        }
      },
      "transferOwnership(address)": {
        "details": "Transfers ownership of the contract to a new account (`newOwner`). Can only be called by the current owner."
      }
    },
    "version": 1
  },
  "userdoc": {
    "kind": "user",
    "methods": {
      "getStrikePrice(uint256,bool)": {
        "notice": "Gets the strike price satisfying the delta value given the expiry timestamp and whether option is call or put"
      },
      "optionsPremiumPricer()": {
        "notice": "Immutables"
      },
      "setDelta(uint256)": {
        "notice": "Sets new delta value"
      },
      "setStep(uint256)": {
        "notice": "Sets new step value"
      }
    },
    "version": 1
  },
  "storageLayout": {
    "storage": [
      {
        "astId": 1002,
        "contract": "contracts/utils/DeltaStrikeSelection.sol:DeltaStrikeSelection",
        "label": "_owner",
        "offset": 0,
        "slot": "0",
        "type": "t_address"
      },
      {
        "astId": 11585,
        "contract": "contracts/utils/DeltaStrikeSelection.sol:DeltaStrikeSelection",
        "label": "delta",
        "offset": 0,
        "slot": "1",
        "type": "t_uint256"
      },
      {
        "astId": 11587,
        "contract": "contracts/utils/DeltaStrikeSelection.sol:DeltaStrikeSelection",
        "label": "step",
        "offset": 0,
        "slot": "2",
        "type": "t_uint256"
      }
    ],
    "types": {
      "t_address": {
        "encoding": "inplace",
        "label": "address",
        "numberOfBytes": "20"
      },
      "t_uint256": {
        "encoding": "inplace",
        "label": "uint256",
        "numberOfBytes": "32"
      }
    }
  }
}