{
  "address": "0x907a3535EE5275e4af7E6c8A642c0F9443da1Dc2",
  "abi": [
    {
      "inputs": [],
      "stateMutability": "nonpayable",
      "type": "constructor"
    },
    {
      "anonymous": false,
      "inputs": [
        {
          "indexed": true,
          "internalType": "address",
          "name": "signer",
          "type": "address"
        },
        {
          "indexed": true,
          "internalType": "address",
          "name": "signerWallet",
          "type": "address"
        }
      ],
      "name": "Authorize",
      "type": "event"
    },
    {
      "anonymous": false,
      "inputs": [
        {
          "indexed": true,
          "internalType": "uint256",
          "name": "nonce",
          "type": "uint256"
        },
        {
          "indexed": true,
          "internalType": "address",
          "name": "signerWallet",
          "type": "address"
        }
      ],
      "name": "Cancel",
      "type": "event"
    },
    {
      "anonymous": false,
      "inputs": [
        {
          "indexed": false,
          "internalType": "uint256",
          "name": "swapId",
          "type": "uint256"
        },
        {
          "indexed": false,
          "internalType": "address",
          "name": "seller",
          "type": "address"
        },
        {
          "indexed": false,
          "internalType": "address",
          "name": "oToken",
          "type": "address"
        },
        {
          "indexed": false,
          "internalType": "address",
          "name": "biddingToken",
          "type": "address"
        },
        {
          "indexed": false,
          "internalType": "uint256",
          "name": "minPrice",
          "type": "uint256"
        },
        {
          "indexed": false,
          "internalType": "uint256",
          "name": "minBidSize",
          "type": "uint256"
        },
        {
          "indexed": false,
          "internalType": "uint256",
          "name": "totalSize",
          "type": "uint256"
        }
      ],
      "name": "NewOffer",
      "type": "event"
    },
    {
      "anonymous": false,
      "inputs": [
        {
          "indexed": true,
          "internalType": "address",
          "name": "previousOwner",
          "type": "address"
        },
        {
          "indexed": true,
          "internalType": "address",
          "name": "newOwner",
          "type": "address"
        }
      ],
      "name": "OwnershipTransferred",
      "type": "event"
    },
    {
      "anonymous": false,
      "inputs": [
        {
          "indexed": true,
          "internalType": "address",
          "name": "signer",
          "type": "address"
        },
        {
          "indexed": true,
          "internalType": "address",
          "name": "signerWallet",
          "type": "address"
        }
      ],
      "name": "Revoke",
      "type": "event"
    },
    {
      "anonymous": false,
      "inputs": [
        {
          "indexed": false,
          "internalType": "address",
          "name": "referrer",
          "type": "address"
        },
        {
          "indexed": false,
          "internalType": "uint256",
          "name": "fee",
          "type": "uint256"
        }
      ],
      "name": "SetFee",
      "type": "event"
    },
    {
      "anonymous": false,
      "inputs": [
        {
          "indexed": false,
          "internalType": "uint256",
          "name": "swapId",
          "type": "uint256"
        }
      ],
      "name": "SettleOffer",
      "type": "event"
    },
    {
      "anonymous": false,
      "inputs": [
        {
          "indexed": true,
          "internalType": "uint256",
          "name": "swapId",
          "type": "uint256"
        },
        {
          "indexed": false,
          "internalType": "uint256",
          "name": "nonce",
          "type": "uint256"
        },
        {
          "indexed": true,
          "internalType": "address",
          "name": "signerWallet",
          "type": "address"
        },
        {
          "indexed": false,
          "internalType": "uint256",
          "name": "signerAmount",
          "type": "uint256"
        },
        {
          "indexed": false,
          "internalType": "uint256",
          "name": "sellerAmount",
          "type": "uint256"
        },
        {
          "indexed": false,
          "internalType": "address",
          "name": "referrer",
          "type": "address"
        },
        {
          "indexed": false,
          "internalType": "uint256",
          "name": "feeAmount",
          "type": "uint256"
        }
      ],
      "name": "Swap",
      "type": "event"
    },
    {
      "inputs": [],
      "name": "BID_TYPEHASH",
      "outputs": [
        {
          "internalType": "bytes32",
          "name": "",
          "type": "bytes32"
        }
      ],
      "stateMutability": "view",
      "type": "function"
    },
    {
      "inputs": [],
      "name": "DOMAIN_CHAIN_ID",
      "outputs": [
        {
          "internalType": "uint256",
          "name": "",
          "type": "uint256"
        }
      ],
      "stateMutability": "view",
      "type": "function"
    },
    {
      "inputs": [],
      "name": "DOMAIN_NAME",
      "outputs": [
        {
          "internalType": "bytes32",
          "name": "",
          "type": "bytes32"
        }
      ],
      "stateMutability": "view",
      "type": "function"
    },
    {
      "inputs": [],
      "name": "DOMAIN_SEPARATOR",
      "outputs": [
        {
          "internalType": "bytes32",
          "name": "",
          "type": "bytes32"
        }
      ],
      "stateMutability": "view",
      "type": "function"
    },
    {
      "inputs": [],
      "name": "DOMAIN_TYPEHASH",
      "outputs": [
        {
          "internalType": "bytes32",
          "name": "",
          "type": "bytes32"
        }
      ],
      "stateMutability": "view",
      "type": "function"
    },
    {
      "inputs": [],
      "name": "DOMAIN_VERSION",
      "outputs": [
        {
          "internalType": "bytes32",
          "name": "",
          "type": "bytes32"
        }
      ],
      "stateMutability": "view",
      "type": "function"
    },
    {
      "inputs": [
        {
          "internalType": "address",
          "name": "signer",
          "type": "address"
        }
      ],
      "name": "authorize",
      "outputs": [],
      "stateMutability": "nonpayable",
      "type": "function"
    },
    {
      "inputs": [
        {
          "internalType": "address",
          "name": "",
          "type": "address"
        }
      ],
      "name": "authorized",
      "outputs": [
        {
          "internalType": "address",
          "name": "",
          "type": "address"
        }
      ],
      "stateMutability": "view",
      "type": "function"
    },
    {
      "inputs": [
        {
          "internalType": "uint256",
          "name": "swapId",
          "type": "uint256"
        }
      ],
      "name": "averagePriceForOffer",
      "outputs": [
        {
          "internalType": "uint256",
          "name": "",
          "type": "uint256"
        }
      ],
      "stateMutability": "view",
      "type": "function"
    },
    {
      "inputs": [
        {
          "internalType": "uint256[]",
          "name": "nonces",
          "type": "uint256[]"
        }
      ],
      "name": "cancelNonce",
      "outputs": [],
      "stateMutability": "nonpayable",
      "type": "function"
    },
    {
      "inputs": [
        {
          "components": [
            {
              "internalType": "uint256",
              "name": "swapId",
              "type": "uint256"
            },
            {
              "internalType": "uint256",
              "name": "nonce",
              "type": "uint256"
            },
            {
              "internalType": "address",
              "name": "signerWallet",
              "type": "address"
            },
            {
              "internalType": "uint256",
              "name": "sellAmount",
              "type": "uint256"
            },
            {
              "internalType": "uint256",
              "name": "buyAmount",
              "type": "uint256"
            },
            {
              "internalType": "address",
              "name": "referrer",
              "type": "address"
            },
            {
              "internalType": "uint8",
              "name": "v",
              "type": "uint8"
            },
            {
              "internalType": "bytes32",
              "name": "r",
              "type": "bytes32"
            },
            {
              "internalType": "bytes32",
              "name": "s",
              "type": "bytes32"
            }
          ],
          "internalType": "struct ISwap.Bid",
          "name": "bid",
          "type": "tuple"
        }
      ],
      "name": "check",
      "outputs": [
        {
          "internalType": "uint256",
          "name": "",
          "type": "uint256"
        },
        {
          "internalType": "bytes32[]",
          "name": "",
          "type": "bytes32[]"
        }
      ],
      "stateMutability": "view",
      "type": "function"
    },
    {
      "inputs": [
        {
          "internalType": "address",
          "name": "oToken",
          "type": "address"
        },
        {
          "internalType": "address",
          "name": "biddingToken",
          "type": "address"
        },
        {
          "internalType": "uint96",
          "name": "minPrice",
          "type": "uint96"
        },
        {
          "internalType": "uint96",
          "name": "minBidSize",
          "type": "uint96"
        },
        {
          "internalType": "uint128",
          "name": "totalSize",
          "type": "uint128"
        }
      ],
      "name": "createOffer",
      "outputs": [
        {
          "internalType": "uint256",
          "name": "swapId",
          "type": "uint256"
        }
      ],
      "stateMutability": "nonpayable",
      "type": "function"
    },
    {
      "inputs": [
        {
          "internalType": "address",
          "name": "signer",
          "type": "address"
        },
        {
          "internalType": "uint256",
          "name": "nonce",
          "type": "uint256"
        }
      ],
      "name": "nonceUsed",
      "outputs": [
        {
          "internalType": "bool",
          "name": "",
          "type": "bool"
        }
      ],
      "stateMutability": "view",
      "type": "function"
    },
    {
      "inputs": [],
      "name": "offersCounter",
      "outputs": [
        {
          "internalType": "uint256",
          "name": "",
          "type": "uint256"
        }
      ],
      "stateMutability": "view",
      "type": "function"
    },
    {
      "inputs": [],
      "name": "owner",
      "outputs": [
        {
          "internalType": "address",
          "name": "",
          "type": "address"
        }
      ],
      "stateMutability": "view",
      "type": "function"
    },
    {
      "inputs": [
        {
          "internalType": "address",
          "name": "",
          "type": "address"
        }
      ],
      "name": "referralFees",
      "outputs": [
        {
          "internalType": "uint256",
          "name": "",
          "type": "uint256"
        }
      ],
      "stateMutability": "view",
      "type": "function"
    },
    {
      "inputs": [],
      "name": "renounceOwnership",
      "outputs": [],
      "stateMutability": "nonpayable",
      "type": "function"
    },
    {
      "inputs": [],
      "name": "revoke",
      "outputs": [],
      "stateMutability": "nonpayable",
      "type": "function"
    },
    {
      "inputs": [
        {
          "internalType": "address",
          "name": "referrer",
          "type": "address"
        },
        {
          "internalType": "uint256",
          "name": "fee",
          "type": "uint256"
        }
      ],
      "name": "setFee",
      "outputs": [],
      "stateMutability": "nonpayable",
      "type": "function"
    },
    {
      "inputs": [
        {
          "internalType": "uint256",
          "name": "swapId",
          "type": "uint256"
        },
        {
          "components": [
            {
              "internalType": "uint256",
              "name": "swapId",
              "type": "uint256"
            },
            {
              "internalType": "uint256",
              "name": "nonce",
              "type": "uint256"
            },
            {
              "internalType": "address",
              "name": "signerWallet",
              "type": "address"
            },
            {
              "internalType": "uint256",
              "name": "sellAmount",
              "type": "uint256"
            },
            {
              "internalType": "uint256",
              "name": "buyAmount",
              "type": "uint256"
            },
            {
              "internalType": "address",
              "name": "referrer",
              "type": "address"
            },
            {
              "internalType": "uint8",
              "name": "v",
              "type": "uint8"
            },
            {
              "internalType": "bytes32",
              "name": "r",
              "type": "bytes32"
            },
            {
              "internalType": "bytes32",
              "name": "s",
              "type": "bytes32"
            }
          ],
          "internalType": "struct ISwap.Bid[]",
          "name": "bids",
          "type": "tuple[]"
        }
      ],
      "name": "settleOffer",
      "outputs": [],
      "stateMutability": "nonpayable",
      "type": "function"
    },
    {
      "inputs": [
        {
          "internalType": "uint256",
          "name": "",
          "type": "uint256"
        }
      ],
      "name": "swapOffers",
      "outputs": [
        {
          "internalType": "address",
          "name": "seller",
          "type": "address"
        },
        {
          "internalType": "address",
          "name": "oToken",
          "type": "address"
        },
        {
          "internalType": "uint96",
          "name": "minPrice",
          "type": "uint96"
        },
        {
          "internalType": "address",
          "name": "biddingToken",
          "type": "address"
        },
        {
          "internalType": "uint96",
          "name": "minBidSize",
          "type": "uint96"
        },
        {
          "internalType": "uint128",
          "name": "totalSize",
          "type": "uint128"
        },
        {
          "internalType": "uint128",
          "name": "availableSize",
          "type": "uint128"
        },
        {
          "internalType": "uint256",
          "name": "totalSales",
          "type": "uint256"
        }
      ],
      "stateMutability": "view",
      "type": "function"
    },
    {
      "inputs": [
        {
          "internalType": "address",
          "name": "newOwner",
          "type": "address"
        }
      ],
      "name": "transferOwnership",
      "outputs": [],
      "stateMutability": "nonpayable",
      "type": "function"
    }
  ],
  "transactionHash": "0xa9b00b8cf57f05e29be50e5bb1076724acf3603aec25a254c9458b145dacc3f7",
  "args": [],
  "solcInputHash": "ec6d1420ea0ae7b94fc73626e99ad4e2",
  "bytecode": "0x60c0604052600060025534801561001557600080fd5b50600160005561002433610159565b60004660808190526040516c08a92a06e626488dedac2d2dc5609b1b60208201526b1cdd1c9a5b99c81b985b594b60a21b602d8201526e1cdd1c9a5b99c81d995c9cda5bdb8b608a1b60398201526f1d5a5b9d0c8d4d8818da185a5b92590b60821b60488201527f6164647265737320766572696679696e67436f6e7472616374000000000000006058820152602960f81b607182015290915060720160408051601f198184030181528282528051602091820120908301527fc6a23281a7a642025bdf45d090469ceeec8a143b5bad19e8f545d83149642b8b908201527fc89efdaa54c0f20c7adf612882df0950f5a951637e0307cdcb4c672f298b8bc66060820152608081018290523060a082015260c00160408051601f19818403018152919052805160209091012060a052506101ab565b600180546001600160a01b038381166001600160a01b0319831681179093556040519116919082907f8be0079c531659141344cd1fd0a4f28419497f9722a3daafe3b4186f6b6457e090600090a35050565b60805160a0516127c06101de600039600081816101b00152611d750152600081816101d701526118ac01526127c06000f3fe608060405234801561001057600080fd5b50600436106101425760003560e01c8063796f077b116100b8578063b6a5d7de1161007c578063b6a5d7de1461039c578063b9181611146103af578063d5172fcc146103d8578063e55156b5146103eb578063f2fde38b146103fe578063fbcac9e11461041157600080fd5b8063796f077b146102475780638da5cb5b1461026e578063a13f1c6214610293578063acb8cc491461036d578063b6549f751461039457600080fd5b8063416f281d1161010a578063416f281d146101d257806351bb9b1e146101f957806369fd925f146102015780636c1c56f11461020a578063715018a61461021f57806375780f421461022757600080fd5b806307a975a1146101475780631647795e1461016d57806320606b70146101905780632787b5f8146101985780633644e515146101ab575b600080fd5b61015a6101553660046121f6565b610432565b6040519081526020015b60405180910390f35b61018061017b366004612269565b61075c565b6040519015158152602001610164565b61015a6107b4565b61015a6101a636600461233a565b610860565b61015a7f000000000000000000000000000000000000000000000000000000000000000081565b61015a7f000000000000000000000000000000000000000000000000000000000000000081565b61015a610938565b61015a60025481565b61021d610218366004612292565b610947565b005b61021d6109d2565b61015a6102353660046121dc565b60046020526000908152604090205481565b61015a7fc6a23281a7a642025bdf45d090469ceeec8a143b5bad19e8f545d83149642b8b81565b6001546001600160a01b03165b6040516001600160a01b039091168152602001610164565b61030e6102a136600461233a565b6003602081905260009182526040909120805460018201546002830154938301546004909301546001600160a01b0392831694828416946001600160601b03600160a01b94859004811695831694909204909116916001600160801b0380831692600160801b9004169088565b604080516001600160a01b03998a16815297891660208901526001600160601b0396871690880152969093166060860152921660808401526001600160801b0391821660a08401521660c082015260e081019190915261010001610164565b61015a7fc89efdaa54c0f20c7adf612882df0950f5a951637e0307cdcb4c672f298b8bc681565b61021d610a08565b61021d6103aa3660046121dc565b610a60565b61027b6103bd3660046121dc565b6005602052600090815260409020546001600160a01b031681565b61021d6103e636600461236a565b610afd565b61021d6103f9366004612269565b610e30565b61021d61040c3660046121dc565b610f5b565b61042461041f366004612322565b610ff6565b604051610164929190612541565b60006001600160a01b0386166104995760405162461bcd60e51b815260206004820152602160248201527f6f546f6b656e2063616e6e6f7420626520746865207a65726f206164647265736044820152607360f81b60648201526084015b60405180910390fd5b6001600160a01b0385166104ff5760405162461bcd60e51b815260206004820152602760248201527f42696464696e67546f6b656e2063616e6e6f7420626520746865207a65726f206044820152666164647265737360c81b6064820152608401610490565b6000846001600160601b0316116105625760405162461bcd60e51b815260206004820152602160248201527f4d696e5072696365206d757374206265206c6172676572207468616e207a65726044820152606f60f81b6064820152608401610490565b6000836001600160601b0316116105c75760405162461bcd60e51b815260206004820152602360248201527f4d696e42696453697a65206d757374206265206c6172676572207468616e207a60448201526265726f60e81b6064820152608401610490565b816001600160801b0316836001600160601b031611156106295760405162461bcd60e51b815260206004820152601d60248201527f4d696e42696453697a65206578636565647320746f74616c2073697a650000006044820152606401610490565b60016002600082825461063c919061258e565b90915550506002805460008181526003602081905260409182902080546001600160a01b0319163390811782556001600160601b03808a16600160a01b9081026001600160a01b038e81169190911798850198909855908b1602958c1695909517600180830191909155600160801b6001600160801b038916908102179282019290925560040155519092507f61ed224de71f3815c67ff417a9cba223a61831d6223cfd50f3986f55cca811669161074b918491908a908a908a908a908a909687526001600160a01b03958616602088015293851660408701529190931660608501526001600160601b03928316608085015290911660a08301526001600160801b031660c082015260e00190565b60405180910390a195945050505050565b60008061076b610100846125a6565b9050600061077b6101008561274a565b6001600160a01b038616600090815260066020908152604080832095835294905292909220546001921c82169091149150505b92915050565b6040516c08a92a06e626488dedac2d2dc5609b1b60208201526b1cdd1c9a5b99c81b985b594b60a21b602d8201526e1cdd1c9a5b99c81d995c9cda5bdb8b608a1b60398201526f1d5a5b9d0c8d4d8818da185a5b92590b60821b60488201527f6164647265737320766572696679696e67436f6e7472616374000000000000006058820152602960f81b60718201526072015b6040516020818303038152906040528051906020012081565b60008181526003602081905260408220908101546001600160801b03166108c05760405162461bcd60e51b815260206004820152601460248201527313d999995c88191bd95cc81b9bdd08195e1a5cdd60621b6044820152606401610490565b6003810154600160801b90046001600160801b03166000816108e35760006108e6565b60015b600384015460ff9190911691506109079083906001600160801b03166126ec565b81846004015461091791906126ec565b610925906305f5e1006126a5565b61092f91906125a6565b95945050505050565b60405160200161084790612422565b60005b818110156109cd57600083838381811061097457634e487b7160e01b600052603260045260246000fd5b90506020020135905061098733826117be565b156109ba57604051339082907f8dd3c361eb2366ff27c2db0eb07b9261f1d052570742ab8c9a0c326f37aa576d90600090a35b50806109c58161272f565b91505061094a565b505050565b6001546001600160a01b031633146109fc5760405162461bcd60e51b81526004016104909061250c565b610a066000611857565b565b3360008181526005602052604080822080546001600160a01b0319811690915590516001600160a01b03909116929183917fd7426110292f20fe59e73ccf52124e0f5440a756507c91c7b0a6c50e1eb1a23a9190a350565b6001600160a01b038116610aa75760405162461bcd60e51b815260206004820152600e60248201526d14d251d3915497d253959053125160921b6044820152606401610490565b3360008181526005602052604080822080546001600160a01b0319166001600160a01b038616908117909155905190917f30468de898bda644e26bab66e5a2241a3aa6aaf527257f5ca54e0f65204ba14a91a350565b60026000541415610b505760405162461bcd60e51b815260206004820152601f60248201527f5265656e7472616e637947756172643a207265656e7472616e742063616c6c006044820152606401610490565b6002600090815583815260036020526040902080546001600160a01b0316338114610bd35760405162461bcd60e51b815260206004820152602d60248201527f4f6e6c792073656c6c65722063616e20736574746c65206f72206f666665722060448201526c191bd95cdb89dd08195e1a5cdd609a1b6064820152608401610490565b6003820154600160801b90046001600160801b0316610c2a5760405162461bcd60e51b815260206004820152601360248201527213d999995c88199d5b1b1e481cd95d1d1b1959606a1b6044820152606401610490565b6040805160a0810182526001600160a01b03838116825260018501548082166020840152600286015491821660608401526001600160601b03600160a01b9182900481169484019490945290049091166080820152600090815b85811015610d8057868682818110610cac57634e487b7160e01b600052603260045260246000fd5b90506101200201600001358814610d055760405162461bcd60e51b815260206004820152601f60248201527f4f6666657220616e642062696420737761704964206d69736d617463686564006044820152606401610490565b610d368286898985818110610d2a57634e487b7160e01b600052603260045260246000fd5b905061012002016118a9565b868682818110610d5657634e487b7160e01b600052603260045260246000fd5b905061012002016060013583610d6c919061258e565b925080610d788161272f565b915050610c84565b506003840154600160801b90046001600160801b03161580610da3576000610da6565b60015b610db39060ff16846126ec565b856004016000828254610dc6919061258e565b90915550508015610e215784546001600160a01b031916855560006002860181905560018601556040518881527f1b5db04ed24662a962854839dba8e5b26c71e843c99221f770571a4ea3ecfdcd9060200160405180910390a15b50506001600055505050505050565b6001546001600160a01b03163314610e5a5760405162461bcd60e51b81526004016104909061250c565b6001600160a01b038216610ebc5760405162461bcd60e51b815260206004820152602360248201527f52656665727265722063616e6e6f7420626520746865207a65726f206164647260448201526265737360e81b6064820152608401610490565b6103e88110610f035760405162461bcd60e51b81526020600482015260136024820152724665652065786365656473206d6178696d756d60681b6044820152606401610490565b6001600160a01b038216600081815260046020908152604091829020849055815192835282018390527f01fe2943baee27f47add82886c2200f910c749c461c9b63c5fe83901a53bdb49910160405180910390a15050565b6001546001600160a01b03163314610f855760405162461bcd60e51b81526004016104909061250c565b6001600160a01b038116610fea5760405162461bcd60e51b815260206004820152602660248201527f4f776e61626c653a206e6577206f776e657220697320746865207a65726f206160448201526564647265737360d01b6064820152608401610490565b610ff381611857565b50565b8035600090815260036020818152604080842081516101008101835281546001600160a01b039081168083526001840154808316968401969096526001600160601b03600160a01b968790048116958401959095526002840154918216606084810191909152959091049093166080820152938101546001600160801b0380821660a0870152600160801b9091041660c08501526004015460e08401529091906110d95760405162461bcd60e51b815260206004820152601460248201527313d999995c88191bd95cc81b9bdd08195e1a5cdd60621b6044820152606401610490565b60408051600a8082526101608201909252600091602082016101408036833701905050905060008061110a87611d6f565b90506001600160a01b038116611168577014d251d3905515549157d2539590531251607a1b83838151811061114f57634e487b7160e01b600052603260045260246000fd5b6020908102919091010152816111648161272f565b9250505b6001600160a01b0381166111826060890160408a016121dc565b6001600160a01b0316141580156111d257506001600160a01b038116600560006111b260608b0160408c016121dc565b6001600160a01b0390811682526020820192909252604001600020541614155b15611220576b15539055551213d49256915160a21b83838151811061120757634e487b7160e01b600052603260045260246000fd5b60209081029190910101528161121c8161272f565b9250505b61122e81886020013561075c565b1561128257711393d390d157d053149150511657d554d15160721b83838151811061126957634e487b7160e01b600052603260045260246000fd5b60209081029190910101528161127e8161272f565b9250505b83608001516001600160601b0316876080013510156112e5576c10925117d513d3d7d4d3505313609a1b8383815181106112cc57634e487b7160e01b600052603260045260246000fd5b6020908102919091010152816112e18161272f565b9250505b8360c001516001600160801b03168760800135111561135457784249445f4558434545445f415641494c41424c455f53495a4560381b83838151811061133b57634e487b7160e01b600052603260045260246000fd5b6020908102919091010152816113508161272f565b9250505b600060808801356113676008600a6125fd565b6113759060608b01356126a5565b61137f91906125a6565b905084604001516001600160601b03168110156113e0576c50524943455f544f4f5f4c4f5760981b8484815181106113c757634e487b7160e01b600052603260045260246000fd5b6020908102919091010152826113dc8161272f565b9350505b600085606001516001600160a01b031663dd62ed3e8a604001602081019061140891906121dc565b6040516001600160e01b031960e084901b1681526001600160a01b03909116600482015230602482015260440160206040518083038186803b15801561144d57600080fd5b505afa158015611461573d6000803e3d6000fd5b505050506040513d601f19601f820116820180604052508101906114859190612352565b905088606001358110156114e457735349474e45525f414c4c4f57414e43455f4c4f5760601b8585815181106114cb57634e487b7160e01b600052603260045260246000fd5b6020908102919091010152836114e08161272f565b9450505b600086606001516001600160a01b03166370a082318b604001602081019061150c91906121dc565b6040516001600160e01b031960e084901b1681526001600160a01b03909116600482015260240160206040518083038186803b15801561154b57600080fd5b505afa15801561155f573d6000803e3d6000fd5b505050506040513d601f19601f820116820180604052508101906115839190612352565b905089606001358110156115e057715349474e45525f42414c414e43455f4c4f5760701b8686815181106115c757634e487b7160e01b600052603260045260246000fd5b6020908102919091010152846115dc8161272f565b9550505b60208701518751604051636eb1769f60e11b81526001600160a01b039182166004820152306024820152600092919091169063dd62ed3e9060440160206040518083038186803b15801561163357600080fd5b505afa158015611647573d6000803e3d6000fd5b505050506040513d601f19601f8201168201806040525081019061166b9190612352565b90508a608001358110156116ca577353454c4c45525f414c4c4f57414e43455f4c4f5760601b8787815181106116b157634e487b7160e01b600052603260045260246000fd5b6020908102919091010152856116c68161272f565b9650505b602088015188516040516370a0823160e01b81526001600160a01b03918216600482015260009291909116906370a082319060240160206040518083038186803b15801561171757600080fd5b505afa15801561172b573d6000803e3d6000fd5b505050506040513d601f19601f8201168201806040525081019061174f9190612352565b90508b608001358110156117ac577153454c4c45525f42414c414e43455f4c4f5760701b88888151811061179357634e487b7160e01b600052603260045260246000fd5b6020908102919091010152866117a88161272f565b9750505b50949a95995094975050505050505050565b6000806117cd610100846125a6565b905060006117dd6101008561274a565b6001600160a01b0386166000908152600660209081526040808320868452909152902054909150600181831c8116141561181d57600093505050506107ae565b6001600160a01b03861660009081526006602090815260408083209583529490529290922060019182901b92909217909155905092915050565b600180546001600160a01b038381166001600160a01b0319831681179093556040519116919082907f8be0079c531659141344cd1fd0a4f28419497f9722a3daafe3b4186f6b6457e090600090a35050565b467f00000000000000000000000000000000000000000000000000000000000000001461190b5760405162461bcd60e51b815260206004820152601060248201526f10d210525397d25117d0d2105391d15160821b6044820152606401610490565b600061191682611d6f565b90506001600160a01b03811661193260608401604085016121dc565b6001600160a01b0316146119b7576001600160a01b0381166005600061195e60608601604087016121dc565b6001600160a01b03908116825260208201929092526040016000205416146119b75760405162461bcd60e51b815260206004820152600c60248201526b15539055551213d49256915160a21b6044820152606401610490565b6001600160a01b038116611a015760405162461bcd60e51b815260206004820152601160248201527014d251d3905515549157d2539590531251607a1b6044820152606401610490565b611a0f8183602001356117be565b611a505760405162461bcd60e51b81526020600482015260126024820152711393d390d157d053149150511657d554d15160721b6044820152606401610490565b6003830154600160801b90046001600160801b031660808301351115611ab45760405162461bcd60e51b81526020600482015260196024820152784249445f4558434545445f415641494c41424c455f53495a4560381b6044820152606401610490565b836080015182608001351015611afc5760405162461bcd60e51b815260206004820152600d60248201526c10925117d513d3d7d4d3505313609a1b6044820152606401610490565b60006080830135611b0f6008600a6125fd565b611b1d9060608601356126a5565b611b2791906125a6565b90508460400151811015611b6d5760405162461bcd60e51b815260206004820152600d60248201526c50524943455f544f4f5f4c4f5760981b6044820152606401610490565b82608001358460030160108282829054906101000a90046001600160801b0316611b9791906126c4565b92506101000a8154816001600160801b0302191690836001600160801b03160217905550611bf08560000151846040016020810190611bd691906121dc565b60208801516001600160a01b031691906080870135611efd565b600080611c0360c0860160a087016121dc565b6001600160a01b031614611ca0576000600481611c2660c0880160a089016121dc565b6001600160a01b0316815260208101919091526040016000205490508015611c9e57612710611c598260608801356126a5565b611c6391906125a6565b9150611c9e611c7860608701604088016121dc565b611c8860c0880160a089016121dc565b60608a01516001600160a01b0316919085611efd565b505b611cd9611cb360608601604087016121dc565b8751611cc38460608901356126ec565b60608a01516001600160a01b0316929190611efd565b611ce960608501604086016121dc565b6001600160a01b031684357f71abc95ed6b8cb4d0cc5eee25c1212bea3ca594e723da5c9facf161f3f5b6bd5602087013560608801356080890135611d3460c08b0160a08c016121dc565b604080519485526020850193909352918301526001600160a01b031660608201526080810185905260a00160405180910390a3505050505050565b600060017f0000000000000000000000000000000000000000000000000000000000000000604051602001611da390612422565b6040516020818303038152906040528051906020012084600001358560200135866040016020810190611dd691906121dc565b60608801356080890135611df060c08b0160a08c016121dc565b60408051602081019890985287019590955260608601939093526001600160a01b03918216608086015260a085015260c08401919091521660e08201526101000160405160208183030381529060405280519060200120604051602001611e6e92919061190160f01b81526002810192909252602282015260420190565b60408051601f198184030181529190528051602090910120611e9660e0850160c086016123e5565b6040805160008152602081018083529390935260ff9091169082015260e08401356060820152610100840135608082015260a0016020604051602081039080840390855afa158015611eec573d6000803e3d6000fd5b5050604051601f1901519392505050565b604080516001600160a01b0385811660248301528416604482015260648082018490528251808303909101815260849091019091526020810180516001600160e01b03166323b872dd60e01b179052611f57908590611f5d565b50505050565b6000611fb2826040518060400160405280602081526020017f5361666545524332303a206c6f772d6c6576656c2063616c6c206661696c6564815250856001600160a01b031661202f9092919063ffffffff16565b8051909150156109cd5780806020019051810190611fd09190612302565b6109cd5760405162461bcd60e51b815260206004820152602a60248201527f5361666545524332303a204552433230206f7065726174696f6e20646964206e6044820152691bdd081cdd58d8d9595960b21b6064820152608401610490565b606061203e8484600085612048565b90505b9392505050565b6060824710156120a95760405162461bcd60e51b815260206004820152602660248201527f416464726573733a20696e73756666696369656e742062616c616e636520666f6044820152651c8818d85b1b60d21b6064820152608401610490565b843b6120f75760405162461bcd60e51b815260206004820152601d60248201527f416464726573733a2063616c6c20746f206e6f6e2d636f6e74726163740000006044820152606401610490565b600080866001600160a01b031685876040516121139190612406565b60006040518083038185875af1925050503d8060008114612150576040519150601f19603f3d011682016040523d82523d6000602084013e612155565b606091505b5091509150612165828286612170565b979650505050505050565b6060831561217f575081612041565b82511561218f5782518084602001fd5b8160405162461bcd60e51b815260040161049091906124d9565b80356001600160a01b03811681146121c057600080fd5b919050565b80356001600160601b03811681146121c057600080fd5b6000602082840312156121ed578081fd5b612041826121a9565b600080600080600060a0868803121561220d578081fd5b612216866121a9565b9450612224602087016121a9565b9350612232604087016121c5565b9250612240606087016121c5565b915060808601356001600160801b038116811461225b578182fd5b809150509295509295909350565b6000806040838503121561227b578182fd5b612284836121a9565b946020939093013593505050565b600080602083850312156122a4578182fd5b823567ffffffffffffffff808211156122bb578384fd5b818501915085601f8301126122ce578384fd5b8135818111156122dc578485fd5b8660208260051b85010111156122f0578485fd5b60209290920196919550909350505050565b600060208284031215612313578081fd5b81518015158114612041578182fd5b60006101208284031215612334578081fd5b50919050565b60006020828403121561234b578081fd5b5035919050565b600060208284031215612363578081fd5b5051919050565b60008060006040848603121561237e578283fd5b83359250602084013567ffffffffffffffff8082111561239c578384fd5b818601915086601f8301126123af578384fd5b8135818111156123bd578485fd5b876020610120830285010111156123d2578485fd5b6020830194508093505050509250925092565b6000602082840312156123f6578081fd5b813560ff81168114612041578182fd5b60008251612418818460208701612703565b9190910192915050565b63084d2c8560e31b81526e1d5a5b9d0c8d4d881cddd85c12590b608a1b60048201526d1d5a5b9d0c8d4d881b9bdb98d94b60921b6013820152741859191c995cdcc81cda59db995c95d85b1b195d0b605a1b6021820152721d5a5b9d0c8d4d881cd95b1b105b5bdd5b9d0b606a1b6036820152711d5a5b9d0c8d4d88189d5e505b5bdd5b9d0b60721b60498201526f30b2323932b9b9903932b332b93932b960811b605b820152602960f81b606b820152606c0190565b60208152600082518060208401526124f8816040850160208701612703565b601f01601f19169190910160400192915050565b6020808252818101527f4f776e61626c653a2063616c6c6572206973206e6f7420746865206f776e6572604082015260600190565b60006040820184835260206040818501528185518084526060860191508287019350845b8181101561258157845183529383019391830191600101612565565b5090979650505050505050565b600082198211156125a1576125a161275e565b500190565b6000826125b5576125b5612774565b500490565b600181815b808511156125f55781600019048211156125db576125db61275e565b808516156125e857918102915b93841c93908002906125bf565b509250929050565b60006120418383600082612613575060016107ae565b81612620575060006107ae565b816001811461263657600281146126405761265c565b60019150506107ae565b60ff8411156126515761265161275e565b50506001821b6107ae565b5060208310610133831016604e8410600b841016171561267f575081810a6107ae565b61268983836125ba565b806000190482111561269d5761269d61275e565b029392505050565b60008160001904831182151516156126bf576126bf61275e565b500290565b60006001600160801b03838116908316818110156126e4576126e461275e565b039392505050565b6000828210156126fe576126fe61275e565b500390565b60005b8381101561271e578181015183820152602001612706565b83811115611f575750506000910152565b60006000198214156127435761274361275e565b5060010190565b60008261275957612759612774565b500690565b634e487b7160e01b600052601160045260246000fd5b634e487b7160e01b600052601260045260246000fdfea264697066735822122076a1e8efa671da62c9785d2d20ed42eb71caa02a6587ccff697c505ca99a3b9a64736f6c63430008040033",
  "devdoc": {
    "kind": "dev",
    "methods": {
      "authorize(address)": {
        "details": "Emits an Authorize event",
        "params": {
          "signer": "address Wallet of the signer to authorize"
        }
      },
      "averagePriceForOffer(uint256)": {
        "params": {
          "swapId": "unique identifier of the swap offer"
        }
      },
      "cancelNonce(uint256[])": {
        "details": "Cancelled nonces are marked as usedEmits a Cancel eventOut of gas may occur in arrays of length > 400",
        "params": {
          "nonces": "uint256[] List of nonces to cancel"
        }
      },
      "check((uint256,uint256,address,uint256,uint256,address,uint8,bytes32,bytes32))": {
        "params": {
          "bid": "Bid struct containing bid details"
        },
        "returns": {
          "_0": "tuple of error count and bytes32[] memory array of error messages"
        }
      },
      "createOffer(address,address,uint96,uint96,uint128)": {
        "params": {
          "biddingToken": "token asked by seller",
          "minBidSize": "minimum amount of oToken requested in a single bid",
          "minPrice": "minimum price of oToken denominated in biddingToken",
          "oToken": "token offered by seller",
          "totalSize": "amount of oToken offered by seller"
        }
      },
      "nonceUsed(address,uint256)": {
        "params": {
          "nonce": "uint256 Nonce being checked",
          "signer": "address Address of the signer"
        }
      },
      "owner()": {
        "details": "Returns the address of the current owner."
      },
      "renounceOwnership()": {
        "details": "Leaves the contract without owner. It will not be possible to call `onlyOwner` functions anymore. Can only be called by the current owner. NOTE: Renouncing ownership will leave the contract without an owner, thereby removing any functionality that is only available to the owner."
      },
      "revoke()": {
        "details": "Emits a Revoke event"
      },
      "setFee(address,uint256)": {
        "params": {
          "fee": "is the fee in percent in 2 decimals",
          "referrer": "is the address of the referrer"
        }
      },
      "settleOffer(uint256,(uint256,uint256,address,uint256,uint256,address,uint8,bytes32,bytes32)[])": {
        "params": {
          "bids": "bids for swaps",
          "swapId": "unique identifier of the swap offer"
        }
      },
      "transferOwnership(address)": {
        "details": "Transfers ownership of the contract to a new account (`newOwner`). Can only be called by the current owner."
      }
    },
    "stateVariables": {
      "_nonceGroups": {
        "details": "The nonce group is computed as nonce / 256, so each group of 256 sequential nonces uses the same keyThe nonce states are encoded as 256 bits, for each nonce in the group 0 means available and 1 means used"
      }
    },
    "version": 1
  },
  "userdoc": {
    "kind": "user",
    "methods": {
      "authorize(address)": {
        "notice": "Authorize a signer"
      },
      "averagePriceForOffer(uint256)": {
        "notice": "Returns the average settlement price for a swap offer"
      },
      "cancelNonce(uint256[])": {
        "notice": "Cancel one or more nonces"
      },
      "check((uint256,uint256,address,uint256,uint256,address,uint8,bytes32,bytes32))": {
        "notice": "Validates Swap bid for any potential errors"
      },
      "createOffer(address,address,uint96,uint96,uint128)": {
        "notice": "Create a new offer available for swap"
      },
      "nonceUsed(address,uint256)": {
        "notice": "Returns true if the nonce has been used"
      },
      "revoke()": {
        "notice": "Revoke the signer"
      },
      "setFee(address,uint256)": {
        "notice": "Sets the referral fee for a specific referrer"
      },
      "settleOffer(uint256,(uint256,uint256,address,uint256,uint256,address,uint8,bytes32,bytes32)[])": {
        "notice": "Settles the swap offering by iterating through the bids"
      }
    },
    "version": 1
  },
  "storageLayout": {
    "storage": [
      {
        "astId": 1109,
        "contract": "contracts/utils/Swap.sol:Swap",
        "label": "_status",
        "offset": 0,
        "slot": "0",
        "type": "t_uint256"
      },
      {
        "astId": 1002,
        "contract": "contracts/utils/Swap.sol:Swap",
        "label": "_owner",
        "offset": 0,
        "slot": "1",
        "type": "t_address"
      },
      {
        "astId": 16818,
        "contract": "contracts/utils/Swap.sol:Swap",
        "label": "offersCounter",
        "offset": 0,
        "slot": "2",
        "type": "t_uint256"
      },
      {
        "astId": 16823,
        "contract": "contracts/utils/Swap.sol:Swap",
        "label": "swapOffers",
        "offset": 0,
        "slot": "3",
        "type": "t_mapping(t_uint256,t_struct(Offer)4133_storage)"
      },
      {
        "astId": 16827,
        "contract": "contracts/utils/Swap.sol:Swap",
        "label": "referralFees",
        "offset": 0,
        "slot": "4",
        "type": "t_mapping(t_address,t_uint256)"
      },
      {
        "astId": 16831,
        "contract": "contracts/utils/Swap.sol:Swap",
        "label": "authorized",
        "offset": 0,
        "slot": "5",
        "type": "t_mapping(t_address,t_address)"
      },
      {
        "astId": 16838,
        "contract": "contracts/utils/Swap.sol:Swap",
        "label": "_nonceGroups",
        "offset": 0,
        "slot": "6",
        "type": "t_mapping(t_address,t_mapping(t_uint256,t_uint256))"
      }
    ],
    "types": {
      "t_address": {
        "encoding": "inplace",
        "label": "address",
        "numberOfBytes": "20"
      },
      "t_mapping(t_address,t_address)": {
        "encoding": "mapping",
        "key": "t_address",
        "label": "mapping(address => address)",
        "numberOfBytes": "32",
        "value": "t_address"
      },
      "t_mapping(t_address,t_mapping(t_uint256,t_uint256))": {
        "encoding": "mapping",
        "key": "t_address",
        "label": "mapping(address => mapping(uint256 => uint256))",
        "numberOfBytes": "32",
        "value": "t_mapping(t_uint256,t_uint256)"
      },
      "t_mapping(t_address,t_uint256)": {
        "encoding": "mapping",
        "key": "t_address",
        "label": "mapping(address => uint256)",
        "numberOfBytes": "32",
        "value": "t_uint256"
      },
      "t_mapping(t_uint256,t_struct(Offer)4133_storage)": {
        "encoding": "mapping",
        "key": "t_uint256",
        "label": "mapping(uint256 => struct ISwap.Offer)",
        "numberOfBytes": "32",
        "value": "t_struct(Offer)4133_storage"
      },
      "t_mapping(t_uint256,t_uint256)": {
        "encoding": "mapping",
        "key": "t_uint256",
        "label": "mapping(uint256 => uint256)",
        "numberOfBytes": "32",
        "value": "t_uint256"
      },
      "t_struct(Offer)4133_storage": {
        "encoding": "inplace",
        "label": "struct ISwap.Offer",
        "members": [
          {
            "astId": 4118,
            "contract": "contracts/utils/Swap.sol:Swap",
            "label": "seller",
            "offset": 0,
            "slot": "0",
            "type": "t_address"
          },
          {
            "astId": 4120,
            "contract": "contracts/utils/Swap.sol:Swap",
            "label": "oToken",
            "offset": 0,
            "slot": "1",
            "type": "t_address"
          },
          {
            "astId": 4122,
            "contract": "contracts/utils/Swap.sol:Swap",
            "label": "minPrice",
            "offset": 20,
            "slot": "1",
            "type": "t_uint96"
          },
          {
            "astId": 4124,
            "contract": "contracts/utils/Swap.sol:Swap",
            "label": "biddingToken",
            "offset": 0,
            "slot": "2",
            "type": "t_address"
          },
          {
            "astId": 4126,
            "contract": "contracts/utils/Swap.sol:Swap",
            "label": "minBidSize",
            "offset": 20,
            "slot": "2",
            "type": "t_uint96"
          },
          {
            "astId": 4128,
            "contract": "contracts/utils/Swap.sol:Swap",
            "label": "totalSize",
            "offset": 0,
            "slot": "3",
            "type": "t_uint128"
          },
          {
            "astId": 4130,
            "contract": "contracts/utils/Swap.sol:Swap",
            "label": "availableSize",
            "offset": 16,
            "slot": "3",
            "type": "t_uint128"
          },
          {
            "astId": 4132,
            "contract": "contracts/utils/Swap.sol:Swap",
            "label": "totalSales",
            "offset": 0,
            "slot": "4",
            "type": "t_uint256"
          }
        ],
        "numberOfBytes": "160"
      },
      "t_uint128": {
        "encoding": "inplace",
        "label": "uint128",
        "numberOfBytes": "16"
      },
      "t_uint256": {
        "encoding": "inplace",
        "label": "uint256",
        "numberOfBytes": "32"
      },
      "t_uint96": {
        "encoding": "inplace",
        "label": "uint96",
        "numberOfBytes": "12"
      }
    }
  }
}