{
  "address": "0x335a9B71DE68C2f1A883Edbaa7f97cCBc76a3BE5",
  "abi": [
    {
      "inputs": [],
      "stateMutability": "nonpayable",
      "type": "constructor"
    },
    {
      "anonymous": false,
      "inputs": [
        {
          "indexed": true,
          "internalType": "address",
          "name": "signer",
          "type": "address"
        },
        {
          "indexed": true,
          "internalType": "address",
          "name": "signerWallet",
          "type": "address"
        }
      ],
      "name": "Authorize",
      "type": "event"
    },
    {
      "anonymous": false,
      "inputs": [
        {
          "indexed": true,
          "internalType": "uint256",
          "name": "nonce",
          "type": "uint256"
        },
        {
          "indexed": true,
          "internalType": "address",
          "name": "signerWallet",
          "type": "address"
        }
      ],
      "name": "Cancel",
      "type": "event"
    },
    {
      "anonymous": false,
      "inputs": [
        {
          "indexed": false,
          "internalType": "uint256",
          "name": "swapId",
          "type": "uint256"
        },
        {
          "indexed": false,
          "internalType": "address",
          "name": "seller",
          "type": "address"
        },
        {
          "indexed": false,
          "internalType": "address",
          "name": "oToken",
          "type": "address"
        },
        {
          "indexed": false,
          "internalType": "address",
          "name": "biddingToken",
          "type": "address"
        },
        {
          "indexed": false,
          "internalType": "uint256",
          "name": "minPrice",
          "type": "uint256"
        },
        {
          "indexed": false,
          "internalType": "uint256",
          "name": "minBidSize",
          "type": "uint256"
        },
        {
          "indexed": false,
          "internalType": "uint256",
          "name": "totalSize",
          "type": "uint256"
        }
      ],
      "name": "NewOffer",
      "type": "event"
    },
    {
      "anonymous": false,
      "inputs": [
        {
          "indexed": true,
          "internalType": "address",
          "name": "previousOwner",
          "type": "address"
        },
        {
          "indexed": true,
          "internalType": "address",
          "name": "newOwner",
          "type": "address"
        }
      ],
      "name": "OwnershipTransferred",
      "type": "event"
    },
    {
      "anonymous": false,
      "inputs": [
        {
          "indexed": true,
          "internalType": "address",
          "name": "signer",
          "type": "address"
        },
        {
          "indexed": true,
          "internalType": "address",
          "name": "signerWallet",
          "type": "address"
        }
      ],
      "name": "Revoke",
      "type": "event"
    },
    {
      "anonymous": false,
      "inputs": [
        {
          "indexed": false,
          "internalType": "address",
          "name": "referrer",
          "type": "address"
        },
        {
          "indexed": false,
          "internalType": "uint256",
          "name": "fee",
          "type": "uint256"
        }
      ],
      "name": "SetFee",
      "type": "event"
    },
    {
      "anonymous": false,
      "inputs": [
        {
          "indexed": false,
          "internalType": "address",
          "name": "asset",
          "type": "address"
        },
        {
          "indexed": false,
          "internalType": "address",
          "name": "aggregator",
          "type": "address"
        }
      ],
      "name": "SetPriceFeed",
      "type": "event"
    },
    {
      "anonymous": false,
      "inputs": [
        {
          "indexed": false,
          "internalType": "uint256",
          "name": "swapId",
          "type": "uint256"
        }
      ],
      "name": "SettleOffer",
      "type": "event"
    },
    {
      "anonymous": false,
      "inputs": [
        {
          "indexed": true,
          "internalType": "uint256",
          "name": "swapId",
          "type": "uint256"
        },
        {
          "indexed": false,
          "internalType": "uint256",
          "name": "nonce",
          "type": "uint256"
        },
        {
          "indexed": true,
          "internalType": "address",
          "name": "signerWallet",
          "type": "address"
        },
        {
          "indexed": false,
          "internalType": "uint256",
          "name": "signerAmount",
          "type": "uint256"
        },
        {
          "indexed": false,
          "internalType": "uint256",
          "name": "sellerAmount",
          "type": "uint256"
        },
        {
          "indexed": false,
          "internalType": "address",
          "name": "referrer",
          "type": "address"
        },
        {
          "indexed": false,
          "internalType": "uint256",
          "name": "feeAmount",
          "type": "uint256"
        }
      ],
      "name": "Swap",
      "type": "event"
    },
    {
      "inputs": [],
      "name": "BID_TYPEHASH",
      "outputs": [
        {
          "internalType": "bytes32",
          "name": "",
          "type": "bytes32"
        }
      ],
      "stateMutability": "view",
      "type": "function"
    },
    {
      "inputs": [],
      "name": "DOMAIN_CHAIN_ID",
      "outputs": [
        {
          "internalType": "uint256",
          "name": "",
          "type": "uint256"
        }
      ],
      "stateMutability": "view",
      "type": "function"
    },
    {
      "inputs": [],
      "name": "DOMAIN_NAME",
      "outputs": [
        {
          "internalType": "bytes32",
          "name": "",
          "type": "bytes32"
        }
      ],
      "stateMutability": "view",
      "type": "function"
    },
    {
      "inputs": [],
      "name": "DOMAIN_SEPARATOR",
      "outputs": [
        {
          "internalType": "bytes32",
          "name": "",
          "type": "bytes32"
        }
      ],
      "stateMutability": "view",
      "type": "function"
    },
    {
      "inputs": [],
      "name": "DOMAIN_TYPEHASH",
      "outputs": [
        {
          "internalType": "bytes32",
          "name": "",
          "type": "bytes32"
        }
      ],
      "stateMutability": "view",
      "type": "function"
    },
    {
      "inputs": [],
      "name": "DOMAIN_VERSION",
      "outputs": [
        {
          "internalType": "bytes32",
          "name": "",
          "type": "bytes32"
        }
      ],
      "stateMutability": "view",
      "type": "function"
    },
    {
      "inputs": [],
      "name": "MAX_FEE",
      "outputs": [
        {
          "internalType": "uint256",
          "name": "",
          "type": "uint256"
        }
      ],
      "stateMutability": "view",
      "type": "function"
    },
    {
      "inputs": [],
      "name": "MAX_PERCENTAGE",
      "outputs": [
        {
          "internalType": "uint256",
          "name": "",
          "type": "uint256"
        }
      ],
      "stateMutability": "view",
      "type": "function"
    },
    {
      "inputs": [
        {
          "internalType": "address",
          "name": "signer",
          "type": "address"
        }
      ],
      "name": "authorize",
      "outputs": [],
      "stateMutability": "nonpayable",
      "type": "function"
    },
    {
      "inputs": [
        {
          "internalType": "address",
          "name": "",
          "type": "address"
        }
      ],
      "name": "authorized",
      "outputs": [
        {
          "internalType": "address",
          "name": "",
          "type": "address"
        }
      ],
      "stateMutability": "view",
      "type": "function"
    },
    {
      "inputs": [
        {
          "internalType": "uint256",
          "name": "swapId",
          "type": "uint256"
        }
      ],
      "name": "averagePriceForOffer",
      "outputs": [
        {
          "internalType": "uint256",
          "name": "",
          "type": "uint256"
        }
      ],
      "stateMutability": "view",
      "type": "function"
    },
    {
      "inputs": [
        {
          "internalType": "address",
          "name": "otokenAddress",
          "type": "address"
        },
        {
          "internalType": "uint256",
          "name": "feePercent",
          "type": "uint256"
        },
        {
          "internalType": "uint256",
          "name": "numContracts",
          "type": "uint256"
        },
        {
          "internalType": "uint256",
          "name": "premium",
          "type": "uint256"
        }
      ],
      "name": "calculateReferralFee",
      "outputs": [
        {
          "internalType": "uint256",
          "name": "",
          "type": "uint256"
        }
      ],
      "stateMutability": "view",
      "type": "function"
    },
    {
      "inputs": [
        {
          "internalType": "uint256[]",
          "name": "nonces",
          "type": "uint256[]"
        }
      ],
      "name": "cancelNonce",
      "outputs": [],
      "stateMutability": "nonpayable",
      "type": "function"
    },
    {
      "inputs": [
        {
          "components": [
            {
              "internalType": "uint256",
              "name": "swapId",
              "type": "uint256"
            },
            {
              "internalType": "uint256",
              "name": "nonce",
              "type": "uint256"
            },
            {
              "internalType": "address",
              "name": "signerWallet",
              "type": "address"
            },
            {
              "internalType": "uint256",
              "name": "sellAmount",
              "type": "uint256"
            },
            {
              "internalType": "uint256",
              "name": "buyAmount",
              "type": "uint256"
            },
            {
              "internalType": "address",
              "name": "referrer",
              "type": "address"
            },
            {
              "internalType": "uint8",
              "name": "v",
              "type": "uint8"
            },
            {
              "internalType": "bytes32",
              "name": "r",
              "type": "bytes32"
            },
            {
              "internalType": "bytes32",
              "name": "s",
              "type": "bytes32"
            }
          ],
          "internalType": "struct ISwap.Bid",
          "name": "bid",
          "type": "tuple"
        }
      ],
      "name": "check",
      "outputs": [
        {
          "internalType": "uint256",
          "name": "",
          "type": "uint256"
        },
        {
          "internalType": "bytes32[]",
          "name": "",
          "type": "bytes32[]"
        }
      ],
      "stateMutability": "view",
      "type": "function"
    },
    {
      "inputs": [
        {
          "internalType": "address",
          "name": "oToken",
          "type": "address"
        },
        {
          "internalType": "address",
          "name": "biddingToken",
          "type": "address"
        },
        {
          "internalType": "uint96",
          "name": "minPrice",
          "type": "uint96"
        },
        {
          "internalType": "uint96",
          "name": "minBidSize",
          "type": "uint96"
        },
        {
          "internalType": "uint128",
          "name": "totalSize",
          "type": "uint128"
        }
      ],
      "name": "createOffer",
      "outputs": [
        {
          "internalType": "uint256",
          "name": "swapId",
          "type": "uint256"
        }
      ],
      "stateMutability": "nonpayable",
      "type": "function"
    },
    {
      "inputs": [
        {
          "internalType": "address",
          "name": "asset",
          "type": "address"
        }
      ],
      "name": "getMarketPrice",
      "outputs": [
        {
          "internalType": "uint256",
          "name": "",
          "type": "uint256"
        }
      ],
      "stateMutability": "view",
      "type": "function"
    },
    {
      "inputs": [
        {
          "internalType": "string",
          "name": "_domainName",
          "type": "string"
        },
        {
          "internalType": "string",
          "name": "_domainVersion",
          "type": "string"
        },
        {
          "internalType": "address",
          "name": "_owner",
          "type": "address"
        }
      ],
      "name": "initialize",
      "outputs": [],
      "stateMutability": "nonpayable",
      "type": "function"
    },
    {
      "inputs": [
        {
          "internalType": "address",
          "name": "signer",
          "type": "address"
        },
        {
          "internalType": "uint256",
          "name": "nonce",
          "type": "uint256"
        }
      ],
      "name": "nonceUsed",
      "outputs": [
        {
          "internalType": "bool",
          "name": "",
          "type": "bool"
        }
      ],
      "stateMutability": "view",
      "type": "function"
    },
    {
      "inputs": [],
      "name": "offersCounter",
      "outputs": [
        {
          "internalType": "uint256",
          "name": "",
          "type": "uint256"
        }
      ],
      "stateMutability": "view",
      "type": "function"
    },
    {
      "inputs": [],
      "name": "owner",
      "outputs": [
        {
          "internalType": "address",
          "name": "",
          "type": "address"
        }
      ],
      "stateMutability": "view",
      "type": "function"
    },
    {
      "inputs": [
        {
          "internalType": "address",
          "name": "",
          "type": "address"
        }
      ],
      "name": "priceFeeds",
      "outputs": [
        {
          "internalType": "address",
          "name": "",
          "type": "address"
        }
      ],
      "stateMutability": "view",
      "type": "function"
    },
    {
      "inputs": [
        {
          "internalType": "address",
          "name": "",
          "type": "address"
        }
      ],
      "name": "referralFees",
      "outputs": [
        {
          "internalType": "uint256",
          "name": "",
          "type": "uint256"
        }
      ],
      "stateMutability": "view",
      "type": "function"
    },
    {
      "inputs": [],
      "name": "renounceOwnership",
      "outputs": [],
      "stateMutability": "nonpayable",
      "type": "function"
    },
    {
      "inputs": [],
      "name": "revoke",
      "outputs": [],
      "stateMutability": "nonpayable",
      "type": "function"
    },
    {
      "inputs": [
        {
          "internalType": "address",
          "name": "referrer",
          "type": "address"
        },
        {
          "internalType": "uint256",
          "name": "fee",
          "type": "uint256"
        }
      ],
      "name": "setFee",
      "outputs": [],
      "stateMutability": "nonpayable",
      "type": "function"
    },
    {
      "inputs": [
        {
          "internalType": "address",
          "name": "asset",
          "type": "address"
        },
        {
          "internalType": "address",
          "name": "aggregator",
          "type": "address"
        }
      ],
      "name": "setPriceFeed",
      "outputs": [],
      "stateMutability": "nonpayable",
      "type": "function"
    },
    {
      "inputs": [
        {
          "internalType": "uint256",
          "name": "swapId",
          "type": "uint256"
        },
        {
          "components": [
            {
              "internalType": "uint256",
              "name": "swapId",
              "type": "uint256"
            },
            {
              "internalType": "uint256",
              "name": "nonce",
              "type": "uint256"
            },
            {
              "internalType": "address",
              "name": "signerWallet",
              "type": "address"
            },
            {
              "internalType": "uint256",
              "name": "sellAmount",
              "type": "uint256"
            },
            {
              "internalType": "uint256",
              "name": "buyAmount",
              "type": "uint256"
            },
            {
              "internalType": "address",
              "name": "referrer",
              "type": "address"
            },
            {
              "internalType": "uint8",
              "name": "v",
              "type": "uint8"
            },
            {
              "internalType": "bytes32",
              "name": "r",
              "type": "bytes32"
            },
            {
              "internalType": "bytes32",
              "name": "s",
              "type": "bytes32"
            }
          ],
          "internalType": "struct ISwap.Bid[]",
          "name": "bids",
          "type": "tuple[]"
        }
      ],
      "name": "settleOffer",
      "outputs": [],
      "stateMutability": "nonpayable",
      "type": "function"
    },
    {
      "inputs": [
        {
          "internalType": "uint256",
          "name": "",
          "type": "uint256"
        }
      ],
      "name": "swapOffers",
      "outputs": [
        {
          "internalType": "address",
          "name": "seller",
          "type": "address"
        },
        {
          "internalType": "address",
          "name": "oToken",
          "type": "address"
        },
        {
          "internalType": "uint96",
          "name": "minPrice",
          "type": "uint96"
        },
        {
          "internalType": "address",
          "name": "biddingToken",
          "type": "address"
        },
        {
          "internalType": "uint96",
          "name": "minBidSize",
          "type": "uint96"
        },
        {
          "internalType": "uint128",
          "name": "totalSize",
          "type": "uint128"
        },
        {
          "internalType": "uint128",
          "name": "availableSize",
          "type": "uint128"
        },
        {
          "internalType": "uint256",
          "name": "totalSales",
          "type": "uint256"
        }
      ],
      "stateMutability": "view",
      "type": "function"
    },
    {
      "inputs": [
        {
          "internalType": "address",
          "name": "newOwner",
          "type": "address"
        }
      ],
      "name": "transferOwnership",
      "outputs": [],
      "stateMutability": "nonpayable",
      "type": "function"
    }
  ],
  "transactionHash": "0x4225c637bac73f07c4c8c1fa290cd190aff9024d00d05f9e00f03543ff918758",
  "args": [],
  "solcInputHash": "99611fab91cdb6908013a8e466aa8871",
  "bytecode": "0x60a060405234801561001057600080fd5b504660808190526133ed61003d6000396000818161026e0152818161067f015261214b01526133ed6000f3fe608060405234801561001057600080fd5b50600436106101cf5760003560e01c806376e1128611610104578063b6549f75116100a2578063d5172fcc11610071578063d5172fcc14610492578063e55156b5146104a5578063f2fde38b146104b8578063fbcac9e1146104cb57600080fd5b8063b6549f7514610444578063b6a5d7de1461044c578063b91816111461045f578063bc063e1a1461048857600080fd5b80639c6f3026116100de5780639c6f3026146103275780639dcb511a1461033a578063a13f1c6214610363578063acb8cc491461043b57600080fd5b806376e11286146102e6578063796f077b146102f95780638da5cb5b1461030257600080fd5b8063416f281d1161017157806369fd925f1161014b57806369fd925f146102a25780636c1c56f1146102ab578063715018a6146102be57806375780f42146102c657600080fd5b8063416f281d146102695780634c255c971461029057806351bb9b1e1461029a57600080fd5b80631771855e116101ad5780631771855e1461023257806320606b70146102455780632787b5f81461024d5780633644e5151461026057600080fd5b8063077f224a146101d457806307a975a1146101e95780631647795e1461020f575b600080fd5b6101e76101e2366004612d5d565b6104ec565b005b6101fc6101f7366004612bf1565b6106df565b6040519081526020015b60405180910390f35b61022261021d366004612c68565b610cf2565b6040519015158152602001610206565b6101fc610240366004612c93565b610d4a565b6101fc611019565b6101fc61025b366004612dea565b611041565b6101fc60995481565b6101fc7f000000000000000000000000000000000000000000000000000000000000000081565b6101fc620f424081565b6101fc611118565b6101fc609a5481565b6101e76102b9366004612ccd565b611127565b6101e76111b2565b6101fc6102d4366004612b81565b609c6020526000908152604090205481565b6101e76102f4366004612bb9565b6111e8565b6101fc60975481565b6065546001600160a01b03165b6040516001600160a01b039091168152602001610206565b6101fc610335366004612b81565b61127e565b61030f610348366004612b81565b609f602052600090815260409020546001600160a01b031681565b6103dc610371366004612dea565b609b60205260009081526040902080546001820154600283015460038401546004909401546001600160a01b0393841694838516946001600160601b03600160a01b95869004811695918516949190910416916001600160801b0380831692600160801b9004169088565b604080516001600160a01b03998a16815297891660208901526001600160601b0396871690880152969093166060860152921660808401526001600160801b0391821660a08401521660c082015260e081019190915261010001610206565b6101fc60985481565b6101e76113a1565b6101e761045a366004612b81565b6113f9565b61030f61046d366004612b81565b609d602052600090815260409020546001600160a01b031681565b6101fc6201e84881565b6101e76104a0366004612e1a565b611496565b6101e76104b3366004612c68565b6117c8565b6101e76104c6366004612b81565b6118ed565b6104de6104d9366004612dd2565b611988565b604051610206929190613134565b600054610100900460ff1680610505575060005460ff16155b61052a5760405162461bcd60e51b8152600401610521906130b1565b60405180910390fd5b600054610100900460ff1615801561054c576000805461ffff19166101011790555b600084511161058c5760405162461bcd60e51b815260206004820152600c60248201526b215f646f6d61696e4e616d6560a01b6044820152606401610521565b60008351116105cf5760405162461bcd60e51b815260206004820152600f60248201526e10afb237b6b0b4b72b32b939b4b7b760891b6044820152606401610521565b6001600160a01b03821661060f5760405162461bcd60e51b815260206004820152600760248201526610afb7bbb732b960c91b6044820152606401610521565b610617611f83565b61061f611ff6565b610628826118ed565b835160208086019190912060975583518482012060985560405161064c9101612fef565b60408051601f198184030181528282528051602091820120609754609854928501919091529183019190915260608201527f000000000000000000000000000000000000000000000000000000000000000060808201523060a082015260c00160408051601f19818403018152919052805160209091012060995580156106d9576000805461ff00191690555b50505050565b60006001600160a01b0386166107415760405162461bcd60e51b815260206004820152602160248201527f6f546f6b656e2063616e6e6f7420626520746865207a65726f206164647265736044820152607360f81b6064820152608401610521565b6001600160a01b0385166107a75760405162461bcd60e51b815260206004820152602760248201527f42696464696e67546f6b656e2063616e6e6f7420626520746865207a65726f206044820152666164647265737360c81b6064820152608401610521565b6000846001600160601b03161161080a5760405162461bcd60e51b815260206004820152602160248201527f4d696e5072696365206d757374206265206c6172676572207468616e207a65726044820152606f60f81b6064820152608401610521565b6000836001600160601b03161161086f5760405162461bcd60e51b815260206004820152602360248201527f4d696e42696453697a65206d757374206265206c6172676572207468616e207a60448201526265726f60e81b6064820152608401610521565b816001600160801b0316836001600160601b031611156108d15760405162461bcd60e51b815260206004820152601d60248201527f4d696e42696453697a65206578636565647320746f74616c2073697a650000006044820152606401610521565b856001600160a01b031663f3c274a66040518163ffffffff1660e01b815260040160206040518083038186803b15801561090a57600080fd5b505afa15801561091e573d6000803e3d6000fd5b505050506040513d601f19601f820116820180604052508101906109429190612d3d565b15610a265760006001600160a01b0316609f6000886001600160a01b0316637158da7c6040518163ffffffff1660e01b815260040160206040518083038186803b15801561098f57600080fd5b505afa1580156109a3573d6000803e3d6000fd5b505050506040513d601f19601f820116820180604052508101906109c79190612b9d565b6001600160a01b039081168252602082019290925260400160002054161415610a265760405162461bcd60e51b8152602060048201526011602482015270139bc81c1c9a58d94819995959081cd95d607a1b6044820152606401610521565b604051636eb1769f60e11b81523360048201523060248201526000906001600160a01b0388169063dd62ed3e9060440160206040518083038186803b158015610a6e57600080fd5b505afa158015610a82573d6000803e3d6000fd5b505050506040513d601f19601f82011682018060405250810190610aa69190612e02565b9050826001600160801b0316811015610af85760405162461bcd60e51b815260206004820152601460248201527353656c6c657220616c6c6f77616e6365206c6f7760601b6044820152606401610521565b6040516370a0823160e01b81523360048201526000906001600160a01b038916906370a082319060240160206040518083038186803b158015610b3a57600080fd5b505afa158015610b4e573d6000803e3d6000fd5b505050506040513d601f19601f82011682018060405250810190610b729190612e02565b9050836001600160801b0316811015610bc25760405162461bcd60e51b815260206004820152601260248201527153656c6c65722062616c616e6365206c6f7760701b6044820152606401610521565b6001609a6000828254610bd59190613181565b9091555050609a546000818152609b60205260409081902080546001600160a01b0319163390811782556001600160601b03808a16600160a01b9081026001600160a01b038e8116919091176002860155918c1602908d1617600180840191909155600160801b6001600160801b038a1690810217600384015560049092019190915590519194507f61ed224de71f3815c67ff417a9cba223a61831d6223cfd50f3986f55cca8116691610cdf9186918c908c908c908c908c909687526001600160a01b03958616602088015293851660408701529190931660608501526001600160601b03928316608085015290911660a08301526001600160801b031660c082015260e00190565b60405180910390a1505095945050505050565b600080610d0161010084613199565b90506000610d116101008561333d565b6001600160a01b0386166000908152609e6020908152604080832095835294905292909220546001921c82169091149150505b92915050565b60008481620f4240610d5f6201e84886613298565b610d699190613199565b90506000826001600160a01b031663f3c274a66040518163ffffffff1660e01b815260040160206040518083038186803b158015610da657600080fd5b505afa158015610dba573d6000803e3d6000fd5b505050506040513d601f19601f82011682018060405250810190610dde9190612d3d565b15610e9a576000610e59846001600160a01b0316637158da7c6040518163ffffffff1660e01b815260040160206040518083038186803b158015610e2157600080fd5b505afa158015610e35573d6000803e3d6000fd5b505050506040513d601f19601f820116820180604052508101906103359190612b9d565b905060006402540be400610e6d838a613298565b610e779190613199565b9050620f4240610e878a83613298565b610e919190613199565b92505050610ffa565b6000836001600160a01b0316637158da7c6040518163ffffffff1660e01b815260040160206040518083038186803b158015610ed557600080fd5b505afa158015610ee9573d6000803e3d6000fd5b505050506040513d601f19601f82011682018060405250810190610f0d9190612b9d565b90506000816001600160a01b031663313ce5676040518163ffffffff1660e01b815260040160206040518083038186803b158015610f4a57600080fd5b505afa158015610f5e573d6000803e3d6000fd5b505050506040513d601f19601f82011682018060405250810190610f829190612f00565b60ff16905060006008821015610fb957610f9d6008836132df565b610fa890600a6131f0565b610fb2908a613199565b9050610fdc565b610fc46008836132df565b610fcf90600a6131f0565b610fd9908a613298565b90505b620f4240610fea8b83613298565b610ff49190613199565b93505050505b8181111561100c575091506110119050565b925050505b949350505050565b60405160200161102890612fef565b6040516020818303038152906040528051906020012081565b6000818152609b6020526040812060038101546001600160801b03166110a05760405162461bcd60e51b815260206004820152601460248201527313d999995c88191bd95cc81b9bdd08195e1a5cdd60621b6044820152606401610521565b6003810154600160801b90046001600160801b03166000816110c35760006110c6565b60015b600384015460ff9190911691506110e79083906001600160801b03166132df565b8184600401546110f791906132df565b611105906305f5e100613298565b61110f9190613199565b95945050505050565b60405160200161102890612f38565b60005b818110156111ad57600083838381811061115457634e487b7160e01b600052603260045260246000fd5b905060200201359050611167338261205d565b1561119a57604051339082907f8dd3c361eb2366ff27c2db0eb07b9261f1d052570742ab8c9a0c326f37aa576d90600090a35b50806111a581613322565b91505061112a565b505050565b6065546001600160a01b031633146111dc5760405162461bcd60e51b8152600401610521906130ff565b6111e660006120f6565b565b6065546001600160a01b031633146112125760405162461bcd60e51b8152600401610521906130ff565b6001600160a01b038281166000818152609f602090815260409182902080546001600160a01b031916948616948517905581519283528201929092527fc02f01e22efc017c1c952d0eef1a8fc038571f14ea5a285d79d1d7ba87d8b00191015b60405180910390a15050565b6001600160a01b038082166000908152609f6020526040812054909116806112dc5760405162461bcd60e51b81526020600482015260116024820152701393d7d4149250d157d191515117d4d155607a1b6044820152606401610521565b6000816001600160a01b031663feaf968c6040518163ffffffff1660e01b815260040160a06040518083038186803b15801561131757600080fd5b505afa15801561132b573d6000803e3d6000fd5b505050506040513d601f19601f8201168201806040525081019061134f9190612eb1565b5050509150506000811361139a5760405162461bcd60e51b81526020600482015260126024820152711253959053125117d4149250d157d191515160721b6044820152606401610521565b9392505050565b336000818152609d602052604080822080546001600160a01b0319811690915590516001600160a01b03909116929183917fd7426110292f20fe59e73ccf52124e0f5440a756507c91c7b0a6c50e1eb1a23a9190a350565b6001600160a01b0381166114405760405162461bcd60e51b815260206004820152600e60248201526d14d251d3915497d253959053125160921b6044820152606401610521565b336000818152609d602052604080822080546001600160a01b0319166001600160a01b038616908117909155905190917f30468de898bda644e26bab66e5a2241a3aa6aaf527257f5ca54e0f65204ba14a91a350565b600260015414156114e95760405162461bcd60e51b815260206004820152601f60248201527f5265656e7472616e637947756172643a207265656e7472616e742063616c6c006044820152606401610521565b60026001556000838152609b6020526040902080546001600160a01b031633811461156c5760405162461bcd60e51b815260206004820152602d60248201527f4f6e6c792073656c6c65722063616e20736574746c65206f72206f666665722060448201526c191bd95cdb89dd08195e1a5cdd609a1b6064820152608401610521565b6003820154600160801b90046001600160801b03166115c35760405162461bcd60e51b815260206004820152601360248201527213d999995c88199d5b1b1e481cd95d1d1b1959606a1b6044820152606401610521565b6040805160a0810182526001600160a01b03838116825260018501548082166020840152600286015491821660608401526001600160601b03600160a01b9182900481169484019490945290049091166080820152600090815b858110156117195786868281811061164557634e487b7160e01b600052603260045260246000fd5b9050610120020160000135881461169e5760405162461bcd60e51b815260206004820152601f60248201527f4f6666657220616e642062696420737761704964206d69736d617463686564006044820152606401610521565b6116cf82868989858181106116c357634e487b7160e01b600052603260045260246000fd5b90506101200201612148565b8686828181106116ef57634e487b7160e01b600052603260045260246000fd5b9050610120020160600135836117059190613181565b92508061171181613322565b91505061161d565b506003840154600160801b90046001600160801b0316158061173c57600061173f565b60015b61174c9060ff16846132df565b85600401600082825461175f9190613181565b909155505080156117ba5784546001600160a01b031916855560006002860181905560018601556040518881527f1b5db04ed24662a962854839dba8e5b26c71e843c99221f770571a4ea3ecfdcd9060200160405180910390a15b505060018055505050505050565b6065546001600160a01b031633146117f25760405162461bcd60e51b8152600401610521906130ff565b6001600160a01b0382166118545760405162461bcd60e51b815260206004820152602360248201527f52656665727265722063616e6e6f7420626520746865207a65726f206164647260448201526265737360e81b6064820152608401610521565b6201e848811061189c5760405162461bcd60e51b81526020600482015260136024820152724665652065786365656473206d6178696d756d60681b6044820152606401610521565b6001600160a01b0382166000818152609c6020908152604091829020849055815192835282018390527f01fe2943baee27f47add82886c2200f910c749c461c9b63c5fe83901a53bdb499101611272565b6065546001600160a01b031633146119175760405162461bcd60e51b8152600401610521906130ff565b6001600160a01b03811661197c5760405162461bcd60e51b815260206004820152602660248201527f4f776e61626c653a206e6577206f776e657220697320746865207a65726f206160448201526564647265737360d01b6064820152608401610521565b611985816120f6565b50565b80356000908152609b6020908152604080832081516101008101835281546001600160a01b039081168083526001840154808316968401969096526001600160601b03600160a01b96879004811695840195909552600284015491821660608481019190915295909104909316608082015260038201546001600160801b0380821660a0840152600160801b9091041660c082015260049091015460e082015290611a6c5760405162461bcd60e51b815260206004820152601460248201527313d999995c88191bd95cc81b9bdd08195e1a5cdd60621b6044820152606401610521565b60408051600a80825261016082019092526000916020820161014080368337019050509050600080611a9d8761260b565b90506001600160a01b038116611afb577014d251d3905515549157d2539590531251607a1b838381518110611ae257634e487b7160e01b600052603260045260246000fd5b602090810291909101015281611af781613322565b9250505b6001600160a01b038116611b156060890160408a01612b81565b6001600160a01b031614158015611b6557506001600160a01b038116609d6000611b4560608b0160408c01612b81565b6001600160a01b0390811682526020820192909252604001600020541614155b15611bb3576b15539055551213d49256915160a21b838381518110611b9a57634e487b7160e01b600052603260045260246000fd5b602090810291909101015281611baf81613322565b9250505b611bc1818860200135610cf2565b15611c1557711393d390d157d053149150511657d554d15160721b838381518110611bfc57634e487b7160e01b600052603260045260246000fd5b602090810291909101015281611c1181613322565b9250505b83608001516001600160601b031687608001351015611c78576c10925117d513d3d7d4d3505313609a1b838381518110611c5f57634e487b7160e01b600052603260045260246000fd5b602090810291909101015281611c7481613322565b9250505b8360c001516001600160801b031687608001351115611ce757784249445f4558434545445f415641494c41424c455f53495a4560381b838381518110611cce57634e487b7160e01b600052603260045260246000fd5b602090810291909101015281611ce381613322565b9250505b60006080880135611cfa6008600a6131f0565b611d089060608b0135613298565b611d129190613199565b905084604001516001600160601b0316811015611d73576c50524943455f544f4f5f4c4f5760981b848481518110611d5a57634e487b7160e01b600052603260045260246000fd5b602090810291909101015282611d6f81613322565b9350505b600085606001516001600160a01b031663dd62ed3e8a6040016020810190611d9b9190612b81565b6040516001600160e01b031960e084901b1681526001600160a01b03909116600482015230602482015260440160206040518083038186803b158015611de057600080fd5b505afa158015611df4573d6000803e3d6000fd5b505050506040513d601f19601f82011682018060405250810190611e189190612e02565b90508860600135811015611e7757735349474e45525f414c4c4f57414e43455f4c4f5760601b858581518110611e5e57634e487b7160e01b600052603260045260246000fd5b602090810291909101015283611e7381613322565b9450505b600086606001516001600160a01b03166370a082318b6040016020810190611e9f9190612b81565b6040516001600160e01b031960e084901b1681526001600160a01b03909116600482015260240160206040518083038186803b158015611ede57600080fd5b505afa158015611ef2573d6000803e3d6000fd5b505050506040513d601f19601f82011682018060405250810190611f169190612e02565b90508960600135811015611f7357715349474e45525f42414c414e43455f4c4f5760701b868681518110611f5a57634e487b7160e01b600052603260045260246000fd5b602090810291909101015284611f6f81613322565b9550505b5092989397509295505050505050565b600054610100900460ff1680611f9c575060005460ff16155b611fb85760405162461bcd60e51b8152600401610521906130b1565b600054610100900460ff16158015611fda576000805461ffff19166101011790555b611fe261277b565b8015611985576000805461ff001916905550565b600054610100900460ff168061200f575060005460ff16155b61202b5760405162461bcd60e51b8152600401610521906130b1565b600054610100900460ff1615801561204d576000805461ffff19166101011790555b6120556127ea565b611fe2612854565b60008061206c61010084613199565b9050600061207c6101008561333d565b6001600160a01b0386166000908152609e60209081526040808320868452909152902054909150600181831c811614156120bc5760009350505050610d44565b6001600160a01b0386166000908152609e602090815260408083209583529490529290922060019182901b92909217909155905092915050565b606580546001600160a01b038381166001600160a01b0319831681179093556040519116919082907f8be0079c531659141344cd1fd0a4f28419497f9722a3daafe3b4186f6b6457e090600090a35050565b467f0000000000000000000000000000000000000000000000000000000000000000146121aa5760405162461bcd60e51b815260206004820152601060248201526f10d210525397d25117d0d2105391d15160821b6044820152606401610521565b60006121b58261260b565b90506001600160a01b0381166122015760405162461bcd60e51b815260206004820152601160248201527014d251d3905515549157d2539590531251607a1b6044820152606401610521565b6001600160a01b03811661221b6060840160408501612b81565b6001600160a01b0316146122a0576001600160a01b038116609d60006122476060860160408701612b81565b6001600160a01b03908116825260208201929092526040016000205416146122a05760405162461bcd60e51b815260206004820152600c60248201526b15539055551213d49256915160a21b6044820152606401610521565b6122ae81836020013561205d565b6122ef5760405162461bcd60e51b81526020600482015260126024820152711393d390d157d053149150511657d554d15160721b6044820152606401610521565b6003830154600160801b90046001600160801b0316608083013511156123535760405162461bcd60e51b81526020600482015260196024820152784249445f4558434545445f415641494c41424c455f53495a4560381b6044820152606401610521565b83608001518260800135101561239b5760405162461bcd60e51b815260206004820152600d60248201526c10925117d513d3d7d4d3505313609a1b6044820152606401610521565b600060808301356123ae6008600a6131f0565b6123bc906060860135613298565b6123c69190613199565b9050846040015181101561240c5760405162461bcd60e51b815260206004820152600d60248201526c50524943455f544f4f5f4c4f5760981b6044820152606401610521565b82608001358460030160108282829054906101000a90046001600160801b031661243691906132b7565b92506101000a8154816001600160801b0302191690836001600160801b0316021790555061248f85600001518460400160208101906124759190612b81565b60208801516001600160a01b0316919060808701356128b4565b6000806124a260c0860160a08701612b81565b6001600160a01b03161461253c576000609c816124c560c0880160a08901612b81565b6001600160a01b031681526020810191909152604001600020549050801561253a576124ff87602001518287608001358860600135610d4a565b915061253a6125146060870160408801612b81565b61252460c0880160a08901612b81565b60608a01516001600160a01b03169190856128b4565b505b61257561254f6060860160408701612b81565b875161255f8460608901356132df565b60608a01516001600160a01b03169291906128b4565b6125856060850160408601612b81565b6001600160a01b031684357f71abc95ed6b8cb4d0cc5eee25c1212bea3ca594e723da5c9facf161f3f5b6bd56020870135606088013560808901356125d060c08b0160a08c01612b81565b604080519485526020850193909352918301526001600160a01b031660608201526080810185905260a00160405180910390a3505050505050565b6000600160995460405160200161262190612f38565b60405160208183030381529060405280519060200120846000013585602001358660400160208101906126549190612b81565b6060880135608089013561266e60c08b0160a08c01612b81565b60408051602081019890985287019590955260608601939093526001600160a01b03918216608086015260a085015260c08401919091521660e082015261010001604051602081830303815290604052805190602001206040516020016126ec92919061190160f01b81526002810192909252602282015260420190565b60408051601f19818403018152919052805160209091012061271460e0850160c08601612e95565b6040805160008152602081018083529390935260ff9091169082015260e08401356060820152610100840135608082015260a0016020604051602081039080840390855afa15801561276a573d6000803e3d6000fd5b5050604051601f1901519392505050565b600054610100900460ff1680612794575060005460ff16155b6127b05760405162461bcd60e51b8152600401610521906130b1565b600054610100900460ff161580156127d2576000805461ffff19166101011790555b600180558015611985576000805461ff001916905550565b600054610100900460ff1680612803575060005460ff16155b61281f5760405162461bcd60e51b8152600401610521906130b1565b600054610100900460ff16158015611fe2576000805461ffff19166101011790558015611985576000805461ff001916905550565b600054610100900460ff168061286d575060005460ff16155b6128895760405162461bcd60e51b8152600401610521906130b1565b600054610100900460ff161580156128ab576000805461ffff19166101011790555b611fe2336120f6565b604080516001600160a01b038581166024830152848116604483015260648083018590528351808403909101815260849092018352602080830180516001600160e01b03166323b872dd60e01b17905283518085019094528084527f5361666545524332303a206c6f772d6c6576656c2063616c6c206661696c6564908401526106d99287929160009161294c9185169084906129c9565b8051909150156111ad578080602001905181019061296a9190612d3d565b6111ad5760405162461bcd60e51b815260206004820152602a60248201527f5361666545524332303a204552433230206f7065726174696f6e20646964206e6044820152691bdd081cdd58d8d9595960b21b6064820152608401610521565b6060611011848460008585843b612a225760405162461bcd60e51b815260206004820152601d60248201527f416464726573733a2063616c6c20746f206e6f6e2d636f6e74726163740000006044820152606401610521565b600080866001600160a01b03168587604051612a3e9190612f1c565b60006040518083038185875af1925050503d8060008114612a7b576040519150601f19603f3d011682016040523d82523d6000602084013e612a80565b606091505b509150915061100c82828660608315612a9a57508161139a565b825115612aaa5782518084602001fd5b8160405162461bcd60e51b8152600401610521919061307e565b600082601f830112612ad4578081fd5b813567ffffffffffffffff80821115612aef57612aef61337d565b604051601f8301601f19908116603f01168101908282118183101715612b1757612b1761337d565b81604052838152866020858801011115612b2f578485fd5b8360208701602083013792830160200193909352509392505050565b805169ffffffffffffffffffff81168114612b6557600080fd5b919050565b80356001600160601b0381168114612b6557600080fd5b600060208284031215612b92578081fd5b813561139a81613393565b600060208284031215612bae578081fd5b815161139a81613393565b60008060408385031215612bcb578081fd5b8235612bd681613393565b91506020830135612be681613393565b809150509250929050565b600080600080600060a08688031215612c08578081fd5b8535612c1381613393565b94506020860135612c2381613393565b9350612c3160408701612b6a565b9250612c3f60608701612b6a565b915060808601356001600160801b0381168114612c5a578182fd5b809150509295509295909350565b60008060408385031215612c7a578182fd5b8235612c8581613393565b946020939093013593505050565b60008060008060808587031215612ca8578384fd5b8435612cb381613393565b966020860135965060408601359560600135945092505050565b60008060208385031215612cdf578182fd5b823567ffffffffffffffff80821115612cf6578384fd5b818501915085601f830112612d09578384fd5b813581811115612d17578485fd5b8660208260051b8501011115612d2b578485fd5b60209290920196919550909350505050565b600060208284031215612d4e578081fd5b8151801515811461139a578182fd5b600080600060608486031215612d71578283fd5b833567ffffffffffffffff80821115612d88578485fd5b612d9487838801612ac4565b94506020860135915080821115612da9578384fd5b50612db686828701612ac4565b9250506040840135612dc781613393565b809150509250925092565b60006101208284031215612de4578081fd5b50919050565b600060208284031215612dfb578081fd5b5035919050565b600060208284031215612e13578081fd5b5051919050565b600080600060408486031215612e2e578081fd5b83359250602084013567ffffffffffffffff80821115612e4c578283fd5b818601915086601f830112612e5f578283fd5b813581811115612e6d578384fd5b87602061012083028501011115612e82578384fd5b6020830194508093505050509250925092565b600060208284031215612ea6578081fd5b813561139a816133a8565b600080600080600060a08688031215612ec8578283fd5b612ed186612b4b565b9450602086015193506040860151925060608601519150612ef460808701612b4b565b90509295509295909350565b600060208284031215612f11578081fd5b815161139a816133a8565b60008251612f2e8184602087016132f6565b9190910192915050565b63084d2c8560e31b81526e1d5a5b9d0c8d4d881cddd85c12590b608a1b60048201526d1d5a5b9d0c8d4d881b9bdb98d94b60921b6013820152741859191c995cdcc81cda59db995c95d85b1b195d0b605a1b6021820152721d5a5b9d0c8d4d881cd95b1b105b5bdd5b9d0b606a1b6036820152711d5a5b9d0c8d4d88189d5e505b5bdd5b9d0b60721b60498201526f30b2323932b9b9903932b332b93932b960811b605b820152602960f81b606b820152606c0190565b6c08a92a06e626488dedac2d2dc5609b1b81526b1cdd1c9a5b99c81b985b594b60a21b600d8201526e1cdd1c9a5b99c81d995c9cda5bdb8b608a1b60198201526f1d5a5b9d0c8d4d8818da185a5b92590b60821b60288201527f6164647265737320766572696679696e67436f6e7472616374000000000000006038820152602960f81b605182015260520190565b602081526000825180602084015261309d8160408501602087016132f6565b601f01601f19169190910160400192915050565b6020808252602e908201527f496e697469616c697a61626c653a20636f6e747261637420697320616c72656160408201526d191e481a5b9a5d1a585b1a5e995960921b606082015260800190565b6020808252818101527f4f776e61626c653a2063616c6c6572206973206e6f7420746865206f776e6572604082015260600190565b60006040820184835260206040818501528185518084526060860191508287019350845b8181101561317457845183529383019391830191600101613158565b5090979650505050505050565b6000821982111561319457613194613351565b500190565b6000826131a8576131a8613367565b500490565b600181815b808511156131e85781600019048211156131ce576131ce613351565b808516156131db57918102915b93841c93908002906131b2565b509250929050565b600061139a838360008261320657506001610d44565b8161321357506000610d44565b816001811461322957600281146132335761324f565b6001915050610d44565b60ff84111561324457613244613351565b50506001821b610d44565b5060208310610133831016604e8410600b8410161715613272575081810a610d44565b61327c83836131ad565b806000190482111561329057613290613351565b029392505050565b60008160001904831182151516156132b2576132b2613351565b500290565b60006001600160801b03838116908316818110156132d7576132d7613351565b039392505050565b6000828210156132f1576132f1613351565b500390565b60005b838110156133115781810151838201526020016132f9565b838111156106d95750506000910152565b600060001982141561333657613336613351565b5060010190565b60008261334c5761334c613367565b500690565b634e487b7160e01b600052601160045260246000fd5b634e487b7160e01b600052601260045260246000fd5b634e487b7160e01b600052604160045260246000fd5b6001600160a01b038116811461198557600080fd5b60ff8116811461198557600080fdfea26469706673582212209fb53fe1f6357b24e8adc4d5abd2ff27ec5170609c7cb8d3b53beacadcedff8f64736f6c63430008040033",
  "devdoc": {
    "kind": "dev",
    "methods": {
      "authorize(address)": {
        "details": "Emits an Authorize event",
        "params": {
          "signer": "address Wallet of the signer to authorize"
        }
      },
      "averagePriceForOffer(uint256)": {
        "params": {
          "swapId": "unique identifier of the swap offer"
        }
      },
      "cancelNonce(uint256[])": {
        "details": "Cancelled nonces are marked as usedEmits a Cancel eventOut of gas may occur in arrays of length > 400",
        "params": {
          "nonces": "uint256[] List of nonces to cancel"
        }
      },
      "check((uint256,uint256,address,uint256,uint256,address,uint8,bytes32,bytes32))": {
        "params": {
          "bid": "Bid struct containing bid details"
        },
        "returns": {
          "_0": "tuple of error count and bytes32[] memory array of error messages"
        }
      },
      "createOffer(address,address,uint96,uint96,uint128)": {
        "params": {
          "biddingToken": "token asked by seller",
          "minBidSize": "minimum amount of oToken requested in a single bid",
          "minPrice": "minimum price of oToken denominated in biddingToken",
          "oToken": "token offered by seller",
          "totalSize": "amount of oToken offered by seller"
        }
      },
      "nonceUsed(address,uint256)": {
        "params": {
          "nonce": "uint256 Nonce being checked",
          "signer": "address Address of the signer"
        }
      },
      "owner()": {
        "details": "Returns the address of the current owner."
      },
      "renounceOwnership()": {
        "details": "Leaves the contract without owner. It will not be possible to call `onlyOwner` functions anymore. Can only be called by the current owner. NOTE: Renouncing ownership will leave the contract without an owner, thereby removing any functionality that is only available to the owner."
      },
      "revoke()": {
        "details": "Emits a Revoke event"
      },
      "setFee(address,uint256)": {
        "params": {
          "fee": "is the fee in percent in 2 decimals",
          "referrer": "is the address of the referrer"
        }
      },
      "settleOffer(uint256,(uint256,uint256,address,uint256,uint256,address,uint8,bytes32,bytes32)[])": {
        "params": {
          "bids": "bids for swaps",
          "swapId": "unique identifier of the swap offer"
        }
      },
      "transferOwnership(address)": {
        "details": "Transfers ownership of the contract to a new account (`newOwner`). Can only be called by the current owner."
      }
    },
    "version": 1
  },
  "userdoc": {
    "kind": "user",
    "methods": {
      "authorize(address)": {
        "notice": "Authorize a signer"
      },
      "averagePriceForOffer(uint256)": {
        "notice": "Returns the average settlement price for a swap offer"
      },
      "calculateReferralFee(address,uint256,uint256,uint256)": {
        "notice": "This function assumes that all CALL premiums are denominated in the Offer.biddingToken This could easily change if we enabled Paradigm for Treasury - Calls are sold for USDC. It assumes that all PUT premiums are denominated in USDC."
      },
      "cancelNonce(uint256[])": {
        "notice": "Cancel one or more nonces"
      },
      "check((uint256,uint256,address,uint256,uint256,address,uint8,bytes32,bytes32))": {
        "notice": "Validates Swap bid for any potential errors"
      },
      "createOffer(address,address,uint96,uint96,uint128)": {
        "notice": "Create a new offer available for swap"
      },
      "nonceUsed(address,uint256)": {
        "notice": "Returns true if the nonce has been used"
      },
      "revoke()": {
        "notice": "Revoke the signer"
      },
      "setFee(address,uint256)": {
        "notice": "Sets the referral fee for a specific referrer"
      },
      "settleOffer(uint256,(uint256,uint256,address,uint256,uint256,address,uint8,bytes32,bytes32)[])": {
        "notice": "Settles the swap offering by iterating through the bids"
      }
    },
    "version": 1
  },
  "storageLayout": {
    "storage": [
      {
        "astId": 176,
        "contract": "contracts/utils/Swap.sol:Swap",
        "label": "_initialized",
        "offset": 0,
        "slot": "0",
        "type": "t_bool"
      },
      {
        "astId": 179,
        "contract": "contracts/utils/Swap.sol:Swap",
        "label": "_initializing",
        "offset": 1,
        "slot": "0",
        "type": "t_bool"
      },
      {
        "astId": 230,
        "contract": "contracts/utils/Swap.sol:Swap",
        "label": "_status",
        "offset": 0,
        "slot": "1",
        "type": "t_uint256"
      },
      {
        "astId": 273,
        "contract": "contracts/utils/Swap.sol:Swap",
        "label": "__gap",
        "offset": 0,
        "slot": "2",
        "type": "t_array(t_uint256)49_storage"
      },
      {
        "astId": 993,
        "contract": "contracts/utils/Swap.sol:Swap",
        "label": "__gap",
        "offset": 0,
        "slot": "51",
        "type": "t_array(t_uint256)50_storage"
      },
      {
        "astId": 56,
        "contract": "contracts/utils/Swap.sol:Swap",
        "label": "_owner",
        "offset": 0,
        "slot": "101",
        "type": "t_address"
      },
      {
        "astId": 169,
        "contract": "contracts/utils/Swap.sol:Swap",
        "label": "__gap",
        "offset": 0,
        "slot": "102",
        "type": "t_array(t_uint256)49_storage"
      },
      {
        "astId": 14493,
        "contract": "contracts/utils/Swap.sol:Swap",
        "label": "DOMAIN_NAME",
        "offset": 0,
        "slot": "151",
        "type": "t_bytes32"
      },
      {
        "astId": 14495,
        "contract": "contracts/utils/Swap.sol:Swap",
        "label": "DOMAIN_VERSION",
        "offset": 0,
        "slot": "152",
        "type": "t_bytes32"
      },
      {
        "astId": 14497,
        "contract": "contracts/utils/Swap.sol:Swap",
        "label": "DOMAIN_SEPARATOR",
        "offset": 0,
        "slot": "153",
        "type": "t_bytes32"
      },
      {
        "astId": 14499,
        "contract": "contracts/utils/Swap.sol:Swap",
        "label": "offersCounter",
        "offset": 0,
        "slot": "154",
        "type": "t_uint256"
      },
      {
        "astId": 14504,
        "contract": "contracts/utils/Swap.sol:Swap",
        "label": "swapOffers",
        "offset": 0,
        "slot": "155",
        "type": "t_mapping(t_uint256,t_struct(Offer)4120_storage)"
      },
      {
        "astId": 14508,
        "contract": "contracts/utils/Swap.sol:Swap",
        "label": "referralFees",
        "offset": 0,
        "slot": "156",
        "type": "t_mapping(t_address,t_uint256)"
      },
      {
        "astId": 14512,
        "contract": "contracts/utils/Swap.sol:Swap",
        "label": "authorized",
        "offset": 0,
        "slot": "157",
        "type": "t_mapping(t_address,t_address)"
      },
      {
        "astId": 14519,
        "contract": "contracts/utils/Swap.sol:Swap",
        "label": "_nonceGroups",
        "offset": 0,
        "slot": "158",
        "type": "t_mapping(t_address,t_mapping(t_uint256,t_uint256))"
      },
      {
        "astId": 14524,
        "contract": "contracts/utils/Swap.sol:Swap",
        "label": "priceFeeds",
        "offset": 0,
        "slot": "159",
        "type": "t_mapping(t_address,t_address)"
      }
    ],
    "types": {
      "t_address": {
        "encoding": "inplace",
        "label": "address",
        "numberOfBytes": "20"
      },
      "t_array(t_uint256)49_storage": {
        "base": "t_uint256",
        "encoding": "inplace",
        "label": "uint256[49]",
        "numberOfBytes": "1568"
      },
      "t_array(t_uint256)50_storage": {
        "base": "t_uint256",
        "encoding": "inplace",
        "label": "uint256[50]",
        "numberOfBytes": "1600"
      },
      "t_bool": {
        "encoding": "inplace",
        "label": "bool",
        "numberOfBytes": "1"
      },
      "t_bytes32": {
        "encoding": "inplace",
        "label": "bytes32",
        "numberOfBytes": "32"
      },
      "t_mapping(t_address,t_address)": {
        "encoding": "mapping",
        "key": "t_address",
        "label": "mapping(address => address)",
        "numberOfBytes": "32",
        "value": "t_address"
      },
      "t_mapping(t_address,t_mapping(t_uint256,t_uint256))": {
        "encoding": "mapping",
        "key": "t_address",
        "label": "mapping(address => mapping(uint256 => uint256))",
        "numberOfBytes": "32",
        "value": "t_mapping(t_uint256,t_uint256)"
      },
      "t_mapping(t_address,t_uint256)": {
        "encoding": "mapping",
        "key": "t_address",
        "label": "mapping(address => uint256)",
        "numberOfBytes": "32",
        "value": "t_uint256"
      },
      "t_mapping(t_uint256,t_struct(Offer)4120_storage)": {
        "encoding": "mapping",
        "key": "t_uint256",
        "label": "mapping(uint256 => struct ISwap.Offer)",
        "numberOfBytes": "32",
        "value": "t_struct(Offer)4120_storage"
      },
      "t_mapping(t_uint256,t_uint256)": {
        "encoding": "mapping",
        "key": "t_uint256",
        "label": "mapping(uint256 => uint256)",
        "numberOfBytes": "32",
        "value": "t_uint256"
      },
      "t_struct(Offer)4120_storage": {
        "encoding": "inplace",
        "label": "struct ISwap.Offer",
        "members": [
          {
            "astId": 4105,
            "contract": "contracts/utils/Swap.sol:Swap",
            "label": "seller",
            "offset": 0,
            "slot": "0",
            "type": "t_address"
          },
          {
            "astId": 4107,
            "contract": "contracts/utils/Swap.sol:Swap",
            "label": "oToken",
            "offset": 0,
            "slot": "1",
            "type": "t_address"
          },
          {
            "astId": 4109,
            "contract": "contracts/utils/Swap.sol:Swap",
            "label": "minPrice",
            "offset": 20,
            "slot": "1",
            "type": "t_uint96"
          },
          {
            "astId": 4111,
            "contract": "contracts/utils/Swap.sol:Swap",
            "label": "biddingToken",
            "offset": 0,
            "slot": "2",
            "type": "t_address"
          },
          {
            "astId": 4113,
            "contract": "contracts/utils/Swap.sol:Swap",
            "label": "minBidSize",
            "offset": 20,
            "slot": "2",
            "type": "t_uint96"
          },
          {
            "astId": 4115,
            "contract": "contracts/utils/Swap.sol:Swap",
            "label": "totalSize",
            "offset": 0,
            "slot": "3",
            "type": "t_uint128"
          },
          {
            "astId": 4117,
            "contract": "contracts/utils/Swap.sol:Swap",
            "label": "availableSize",
            "offset": 16,
            "slot": "3",
            "type": "t_uint128"
          },
          {
            "astId": 4119,
            "contract": "contracts/utils/Swap.sol:Swap",
            "label": "totalSales",
            "offset": 0,
            "slot": "4",
            "type": "t_uint256"
          }
        ],
        "numberOfBytes": "160"
      },
      "t_uint128": {
        "encoding": "inplace",
        "label": "uint128",
        "numberOfBytes": "16"
      },
      "t_uint256": {
        "encoding": "inplace",
        "label": "uint256",
        "numberOfBytes": "32"
      },
      "t_uint96": {
        "encoding": "inplace",
        "label": "uint96",
        "numberOfBytes": "12"
      }
    }
  }
}