{
  "address": "0x2986e874370a1398807d76d70C73E7ec7db14648",
  "abi": [
    {
      "inputs": [
        {
          "internalType": "address",
          "name": "_wethVault",
          "type": "address"
        },
        {
          "internalType": "address",
          "name": "_stethVault",
          "type": "address"
        }
      ],
      "stateMutability": "nonpayable",
      "type": "constructor"
    },
    {
      "anonymous": false,
      "inputs": [
        {
          "indexed": false,
          "internalType": "address",
          "name": "vault",
          "type": "address"
        },
        {
          "components": [
            {
              "internalType": "address",
              "name": "creditor",
              "type": "address"
            },
            {
              "internalType": "address",
              "name": "depositContract",
              "type": "address"
            },
            {
              "internalType": "uint256",
              "name": "amount",
              "type": "uint256"
            },
            {
              "internalType": "enum VaultQueue.TransferAction",
              "name": "action",
              "type": "uint8"
            }
          ],
          "indexed": false,
          "internalType": "struct VaultQueue.Transfer",
          "name": "txn",
          "type": "tuple"
        },
        {
          "indexed": false,
          "internalType": "uint256",
          "name": "portion",
          "type": "uint256"
        }
      ],
      "name": "Disburse",
      "type": "event"
    },
    {
      "anonymous": false,
      "inputs": [
        {
          "indexed": true,
          "internalType": "address",
          "name": "previousOwner",
          "type": "address"
        },
        {
          "indexed": true,
          "internalType": "address",
          "name": "newOwner",
          "type": "address"
        }
      ],
      "name": "OwnershipTransferred",
      "type": "event"
    },
    {
      "inputs": [],
      "name": "STETH_VAULT",
      "outputs": [
        {
          "internalType": "address",
          "name": "",
          "type": "address"
        }
      ],
      "stateMutability": "view",
      "type": "function"
    },
    {
      "inputs": [],
      "name": "WETH_VAULT",
      "outputs": [
        {
          "internalType": "address",
          "name": "",
          "type": "address"
        }
      ],
      "stateMutability": "view",
      "type": "function"
    },
    {
      "inputs": [
        {
          "internalType": "address",
          "name": "vault",
          "type": "address"
        },
        {
          "internalType": "address",
          "name": "user",
          "type": "address"
        }
      ],
      "name": "hasWithdrawal",
      "outputs": [
        {
          "internalType": "bool",
          "name": "",
          "type": "bool"
        }
      ],
      "stateMutability": "view",
      "type": "function"
    },
    {
      "inputs": [],
      "name": "initialize",
      "outputs": [],
      "stateMutability": "nonpayable",
      "type": "function"
    },
    {
      "inputs": [],
      "name": "owner",
      "outputs": [
        {
          "internalType": "address",
          "name": "",
          "type": "address"
        }
      ],
      "stateMutability": "view",
      "type": "function"
    },
    {
      "inputs": [
        {
          "internalType": "address",
          "name": "",
          "type": "address"
        },
        {
          "internalType": "uint256",
          "name": "",
          "type": "uint256"
        }
      ],
      "name": "qTransfer",
      "outputs": [
        {
          "internalType": "address",
          "name": "creditor",
          "type": "address"
        },
        {
          "internalType": "address",
          "name": "depositContract",
          "type": "address"
        },
        {
          "internalType": "uint256",
          "name": "amount",
          "type": "uint256"
        },
        {
          "internalType": "enum VaultQueue.TransferAction",
          "name": "action",
          "type": "uint8"
        }
      ],
      "stateMutability": "view",
      "type": "function"
    },
    {
      "inputs": [],
      "name": "queueSize",
      "outputs": [
        {
          "internalType": "uint256",
          "name": "",
          "type": "uint256"
        }
      ],
      "stateMutability": "view",
      "type": "function"
    },
    {
      "inputs": [
        {
          "internalType": "address",
          "name": "srcVault",
          "type": "address"
        },
        {
          "internalType": "address",
          "name": "depositContract",
          "type": "address"
        },
        {
          "internalType": "enum VaultQueue.TransferAction",
          "name": "transferAction",
          "type": "uint8"
        },
        {
          "internalType": "uint256",
          "name": "amount",
          "type": "uint256"
        }
      ],
      "name": "queueTransfer",
      "outputs": [],
      "stateMutability": "nonpayable",
      "type": "function"
    },
    {
      "inputs": [],
      "name": "renounceOwnership",
      "outputs": [],
      "stateMutability": "nonpayable",
      "type": "function"
    },
    {
      "inputs": [
        {
          "internalType": "uint256",
          "name": "_queueSize",
          "type": "uint256"
        }
      ],
      "name": "setQueueSize",
      "outputs": [],
      "stateMutability": "nonpayable",
      "type": "function"
    },
    {
      "inputs": [
        {
          "internalType": "address",
          "name": "",
          "type": "address"
        }
      ],
      "name": "totalAmount",
      "outputs": [
        {
          "internalType": "uint256",
          "name": "",
          "type": "uint256"
        }
      ],
      "stateMutability": "view",
      "type": "function"
    },
    {
      "inputs": [
        {
          "internalType": "address",
          "name": "vault",
          "type": "address"
        }
      ],
      "name": "transfer",
      "outputs": [],
      "stateMutability": "nonpayable",
      "type": "function"
    },
    {
      "inputs": [
        {
          "internalType": "address",
          "name": "newOwner",
          "type": "address"
        }
      ],
      "name": "transferOwnership",
      "outputs": [],
      "stateMutability": "nonpayable",
      "type": "function"
    },
    {
      "stateMutability": "payable",
      "type": "receive"
    }
  ],
  "transactionHash": "0x707bb3ae8b22ae41942a7071c711c6333c25e9ea651c9b6a91d8caf8560f7424",
  "args": [
    "0x98d03125c62DaE2328D9d3cb32b7B969e6a87787",
    "0xd4816D144C005B29dF24C8eb1865fB8A1e79FdDE"
  ],
  "solcInputHash": "f0455355431f056eb12ca81a3706844d",
  "bytecode": "0x60c06040523480156200001157600080fd5b5060405162001e0e38038062001e0e833981016040819052620000349162000101565b6001600160a01b0382166200007e5760405162461bcd60e51b815260206004820152600b60248201526a0857ddd95d1a15985d5b1d60aa1b60448201526064015b60405180910390fd5b6001600160a01b038116620000c55760405162461bcd60e51b815260206004820152600c60248201526b0857dcdd195d1a15985d5b1d60a21b604482015260640162000075565b6001600160601b0319606092831b8116608052911b1660a05262000138565b80516001600160a01b0381168114620000fc57600080fd5b919050565b6000806040838503121562000114578182fd5b6200011f83620000e4565b91506200012f60208401620000e4565b90509250929050565b60805160601c60a05160601c611c7a6200019460003960008181610108015281816102b2015281816104dc01528181610e8301526112cf01526000818160d6015281816101fe01528181610fb101526114020152611c7a6000f3fe6080604052600436106100c65760003560e01c80638da5cb5b1161007f578063bae6c2ad11610059578063bae6c2ad146102d4578063c01c37ec146102f8578063d72b9da214610328578063f2fde38b1461035557600080fd5b80638da5cb5b14610262578063984cc32d14610280578063af5ea6e7146102a057600080fd5b806302f2c41c146101735780631a695230146101ac57806331ab50d5146101cc57806341495591146101ec578063715018a6146102385780638129fc1c1461024d57600080fd5b3661016e57336001600160a01b037f000000000000000000000000000000000000000000000000000000000000000016148061012a5750336001600160a01b037f000000000000000000000000000000000000000000000000000000000000000016145b61016c5760405162461bcd60e51b815260206004820152600e60248201526d24b73b30b634b21039b2b73232b960911b60448201526064015b60405180910390fd5b005b600080fd5b34801561017f57600080fd5b5061019361018e3660046118a5565b610375565b6040516101a39493929190611a6c565b60405180910390f35b3480156101b857600080fd5b5061016c6101c73660046117e2565b6103ca565b3480156101d857600080fd5b5061016c6101e7366004611852565b6105e1565b3480156101f857600080fd5b506102207f000000000000000000000000000000000000000000000000000000000000000081565b6040516001600160a01b0390911681526020016101a3565b34801561024457600080fd5b5061016c6109cd565b34801561025957600080fd5b5061016c610a03565b34801561026e57600080fd5b506033546001600160a01b0316610220565b34801561028c57600080fd5b5061016c61029b366004611a1a565b610a8d565b3480156102ac57600080fd5b506102207f000000000000000000000000000000000000000000000000000000000000000081565b3480156102e057600080fd5b506102ea60995481565b6040519081526020016101a3565b34801561030457600080fd5b5061031861031336600461181a565b610abc565b60405190151581526020016101a3565b34801561033457600080fd5b506102ea6103433660046117e2565b60986020526000908152604090205481565b34801561036157600080fd5b5061016c6103703660046117e2565b610b62565b6097602052816000526040600020818154811061039157600080fd5b600091825260209091206004909102018054600182015460028301546003909301546001600160a01b0392831695509116925060ff1684565b6033546001600160a01b031633146103f45760405162461bcd60e51b815260040161016390611b44565b600260655414156104475760405162461bcd60e51b815260206004820152601f60248201527f5265656e7472616e637947756172643a207265656e7472616e742063616c6c006044820152606401610163565b6002606555604051633d49315160e11b81523060048201526000906001600160a01b03831690637a9262a290602401604080518083038186803b15801561048d57600080fd5b505afa1580156104a1573d6000803e3d6000fd5b505050506040513d601f19601f820116820180604052508101906104c5919061199f565b602001516001600160801b0316905080156105d8577f00000000000000000000000000000000000000000000000000000000000000006001600160a01b0316826001600160a01b0316141561057c57604051630821fb5760e21b8152600060048201526001600160a01b03831690632087ed5c90602401600060405180830381600087803b15801561055657600080fd5b505af115801561056a573d6000803e3d6000fd5b5050505061057782610bfa565b6105d8565b816001600160a01b031663f756fa216040518163ffffffff1660e01b8152600401600060405180830381600087803b1580156105b757600080fd5b505af11580156105cb573d6000803e3d6000fd5b505050506105d882610bfa565b50506001606555565b600260655414156106345760405162461bcd60e51b815260206004820152601f60248201527f5265656e7472616e637947756172643a207265656e7472616e742063616c6c006044820152606401610163565b60026065556099546001600160a01b038516600090815260976020526040902054106106985760405162461bcd60e51b8152602060048201526013602482015272151c985b9cd9995c881c5d595d5948199d5b1b606a1b6044820152606401610163565b60008260018111156106ba57634e487b7160e01b600052602160045260246000fd5b1415610711576001600160a01b03831661070c5760405162461bcd60e51b8152602060048201526013602482015272139bc819195c1bdcda5d0818dbdb9d1c9858dd606a1b6044820152606401610163565b6107a9565b600182600181111561073357634e487b7160e01b600052602160045260246000fd5b14156107a9576001600160a01b03831633146107a95760405162461bcd60e51b815260206004820152602f60248201527f4f6e2077697468647261772c206465706f736974436f6e7472616374206d757360448201526e3a1031329036b9b39739b2b73232b960891b6064820152608401610163565b6040516323b872dd60e01b8152336004820152306024820152604481018290526001600160a01b038516906323b872dd90606401602060405180830381600087803b1580156107f757600080fd5b505af115801561080b573d6000803e3d6000fd5b505050506040513d601f19601f8201168201806040525081019061082f91906118d0565b50604051633f0846a960e11b8152600481018290526001600160a01b03851690637e108d5290602401600060405180830381600087803b15801561087257600080fd5b505af1158015610886573d6000803e3d6000fd5b5050505060976000856001600160a01b03166001600160a01b031681526020019081526020016000206040518060800160405280336001600160a01b03168152602001856001600160a01b031681526020018381526020018460018111156108fe57634e487b7160e01b600052602160045260246000fd5b90528154600181810184556000938452602093849020835160049093020180546001600160a01b039384166001600160a01b0319918216178255948401518183018054919094169516949094179091556040820151600284015560608201516003840180549394939192909160ff191690838181111561098e57634e487b7160e01b600052602160045260246000fd5b021790555050506001600160a01b038416600090815260986020526040812080548392906109bd908490611b79565b9091555050600160655550505050565b6033546001600160a01b031633146109f75760405162461bcd60e51b815260040161016390611b44565b610a016000610d53565b565b600054610100900460ff1680610a1c575060005460ff16155b610a385760405162461bcd60e51b815260040161016390611af6565b600054610100900460ff16158015610a5a576000805461ffff19166101011790555b610a62610da5565b610a6a610e18565b610a7333610b62565b60206099558015610a8a576000805461ff00191690555b50565b6033546001600160a01b03163314610ab75760405162461bcd60e51b815260040161016390611b44565b609955565b6000805b6001600160a01b038416600090815260976020526040902054811015610b56576001600160a01b0384166000908152609760205260409020805482908110610b1857634e487b7160e01b600052603260045260246000fd5b60009182526020909120600490910201546001600160a01b0384811691161415610b46576001915050610b5c565b610b4f81611bfe565b9050610ac0565b50600090505b92915050565b6033546001600160a01b03163314610b8c5760405162461bcd60e51b815260040161016390611b44565b6001600160a01b038116610bf15760405162461bcd60e51b815260206004820152602660248201527f4f776e61626c653a206e6577206f776e657220697320746865207a65726f206160448201526564647265737360d01b6064820152608401610163565b610a8a81610d53565b6000610c0582610e7f565b6001600160a01b038316600090815260976020908152604080832054609890925282208054929055919250815b8015610d4c576001600160a01b0385166000908152609760205260408120610c59906110ae565b90506000610c7486610c6f84604001518761120e565b611240565b90508015610d3757600082606001516001811115610ca257634e487b7160e01b600052602160045260246000fd5b1415610cc057610cbb826020015183600001518361126b565b610cfb565b600182606001516001811115610ce657634e487b7160e01b600052602160045260246000fd5b1415610cfb57610cfb878360000151836112cd565b7f427c7b184b575d4f8795ab1b335687367f234de31ac3822b52675262fe8b60b4878383604051610d2e93929190611aa1565b60405180910390a15b50508080610d4490611be7565b915050610c32565b5050505050565b603380546001600160a01b038381166001600160a01b0319831681179093556040519116919082907f8be0079c531659141344cd1fd0a4f28419497f9722a3daafe3b4186f6b6457e090600090a35050565b600054610100900460ff1680610dbe575060005460ff16155b610dda5760405162461bcd60e51b815260040161016390611af6565b600054610100900460ff16158015610dfc576000805461ffff19166101011790555b610e046115a8565b8015610a8a576000805461ff001916905550565b600054610100900460ff1680610e31575060005460ff16155b610e4d5760405162461bcd60e51b815260040161016390611af6565b600054610100900460ff16158015610e6f576000805461ffff19166101011790555b610e77611618565b610e04611682565b60007f00000000000000000000000000000000000000000000000000000000000000006001600160a01b0316826001600160a01b03161415610faf576000826001600160a01b031663e00bfe506040518163ffffffff1660e01b815260040160206040518083038186803b158015610ef657600080fd5b505afa158015610f0a573d6000803e3d6000fd5b505050506040513d601f19601f82011682018060405250810190610f2e91906117fe565b6040516370a0823160e01b81523060048201529091506001600160a01b038216906370a082319060240160206040518083038186803b158015610f7057600080fd5b505afa158015610f84573d6000803e3d6000fd5b505050506040513d601f19601f82011682018060405250810190610fa89190611a32565b9392505050565b7f00000000000000000000000000000000000000000000000000000000000000006001600160a01b0316826001600160a01b03161415610ff0575047919050565b6000826001600160a01b0316639fcc2d756040518163ffffffff1660e01b815260040160c06040518083038186803b15801561102b57600080fd5b505afa15801561103f573d6000803e3d6000fd5b505050506040513d601f19601f8201168201806040525081019061106391906118ea565b60408082015190516370a0823160e01b81523060048201529192506001600160a01b0316906370a082319060240160206040518083038186803b158015610f7057600080fd5b919050565b6110d66040805160808101825260008082526020820181905291810182905290606082015290565b815460009083906110e990600190611bd0565b8154811061110757634e487b7160e01b600052603260045260246000fd5b600091825260209182902060408051608081018252600490930290910180546001600160a01b03908116845260018083015490911694840194909452600281015491830191909152600381015491929091606084019160ff9091169081111561118057634e487b7160e01b600052602160045260246000fd5b600181111561119f57634e487b7160e01b600052602160045260246000fd5b815250509050828054806111c357634e487b7160e01b600052603160045260246000fd5b60008281526020812060046000199093019283020180546001600160a01b0319908116825560018201805490911690556002810191909155600301805460ff19169055905592915050565b60008161123661122685670de0b6b3a76400006116e2565b611231600286611b91565b611749565b610fa89190611b91565b6000670de0b6b3a764000061123661125885856116e2565b6112316002670de0b6b3a7640000611b91565b60405163aa67c91960e01b81526001600160a01b03838116600483015284169063aa67c9199083906024016000604051808303818588803b1580156112af57600080fd5b505af11580156112c3573d6000803e3d6000fd5b5050505050505050565b7f00000000000000000000000000000000000000000000000000000000000000006001600160a01b0316836001600160a01b03161415611400576000836001600160a01b031663e00bfe506040518163ffffffff1660e01b815260040160206040518083038186803b15801561134257600080fd5b505afa158015611356573d6000803e3d6000fd5b505050506040513d601f19601f8201168201806040525081019061137a91906117fe565b60405163a9059cbb60e01b81526001600160a01b038581166004830152602482018590529192509082169063a9059cbb90604401602060405180830381600087803b1580156113c857600080fd5b505af11580156113dc573d6000803e3d6000fd5b505050506040513d601f19601f82011682018060405250810190610d4c91906118d0565b7f00000000000000000000000000000000000000000000000000000000000000006001600160a01b0316836001600160a01b031614156114e3576000826001600160a01b03168260405160006040518083038185875af1925050503d8060008114611487576040519150601f19603f3d011682016040523d82523d6000602084013e61148c565b606091505b50509050806114dd5760405162461bcd60e51b815260206004820152601e60248201527f4661696c656420746f20776974686472617720746f206372656469746f7200006044820152606401610163565b50505050565b6000836001600160a01b0316639fcc2d756040518163ffffffff1660e01b815260040160c06040518083038186803b15801561151e57600080fd5b505afa158015611532573d6000803e3d6000fd5b505050506040513d601f19601f8201168201806040525081019061155691906118ea565b604080820151905163a9059cbb60e01b81526001600160a01b0386811660048301526024820186905292935091169063a9059cbb90604401602060405180830381600087803b1580156113c857600080fd5b600054610100900460ff16806115c1575060005460ff16155b6115dd5760405162461bcd60e51b815260040161016390611af6565b600054610100900460ff161580156115ff576000805461ffff19166101011790555b60016065558015610a8a576000805461ff001916905550565b600054610100900460ff1680611631575060005460ff16155b61164d5760405162461bcd60e51b815260040161016390611af6565b600054610100900460ff16158015610e04576000805461ffff19166101011790558015610a8a576000805461ff001916905550565b600054610100900460ff168061169b575060005460ff16155b6116b75760405162461bcd60e51b815260040161016390611af6565b600054610100900460ff161580156116d9576000805461ffff19166101011790555b610e0433610d53565b6000811580611706575082826116f88183611bb1565b92506117049083611b91565b145b610b5c5760405162461bcd60e51b815260206004820152601460248201527364732d6d6174682d6d756c2d6f766572666c6f7760601b6044820152606401610163565b6000826117568382611b79565b9150811015610b5c5760405162461bcd60e51b815260206004820152601460248201527364732d6d6174682d6164642d6f766572666c6f7760601b6044820152606401610163565b805180151581146110a957600080fd5b80516cffffffffffffffffffffffffff811681146110a957600080fd5b805166ffffffffffffff811681146110a957600080fd5b6000602082840312156117f3578081fd5b8135610fa881611c2f565b60006020828403121561180f578081fd5b8151610fa881611c2f565b6000806040838503121561182c578081fd5b823561183781611c2f565b9150602083013561184781611c2f565b809150509250929050565b60008060008060808587031215611867578182fd5b843561187281611c2f565b9350602085013561188281611c2f565b9250604085013560028110611895578283fd5b9396929550929360600135925050565b600080604083850312156118b7578182fd5b82356118c281611c2f565b946020939093013593505050565b6000602082840312156118e1578081fd5b610fa88261179e565b600060c082840312156118fb578081fd5b60405160c0810181811067ffffffffffffffff8211171561192a57634e487b7160e01b83526041600452602483fd5b6040526119368361179e565b8152602083015160ff8116811461194b578283fd5b6020820152604083015161195e81611c2f565b6040820152606083015161197181611c2f565b6060820152611982608084016117cb565b608082015261199360a084016117ae565b60a08201529392505050565b6000604082840312156119b0578081fd5b6040516040810181811067ffffffffffffffff821117156119df57634e487b7160e01b83526041600452602483fd5b604052825161ffff811681146119f3578283fd5b815260208301516001600160801b0381168114611a0e578283fd5b60208201529392505050565b600060208284031215611a2b578081fd5b5035919050565b600060208284031215611a43578081fd5b5051919050565b60028110611a6857634e487b7160e01b600052602160045260246000fd5b9052565b6001600160a01b038581168252841660208201526040810183905260808101611a986060830184611a4a565b95945050505050565b600060c08201905060018060a01b03808616835280855116602084015280602086015116604084015250604084015160608301526060840151611ae76080840182611a4a565b508260a0830152949350505050565b6020808252602e908201527f496e697469616c697a61626c653a20636f6e747261637420697320616c72656160408201526d191e481a5b9a5d1a585b1a5e995960921b606082015260800190565b6020808252818101527f4f776e61626c653a2063616c6c6572206973206e6f7420746865206f776e6572604082015260600190565b60008219821115611b8c57611b8c611c19565b500190565b600082611bac57634e487b7160e01b81526012600452602481fd5b500490565b6000816000190483118215151615611bcb57611bcb611c19565b500290565b600082821015611be257611be2611c19565b500390565b600081611bf657611bf6611c19565b506000190190565b6000600019821415611c1257611c12611c19565b5060010190565b634e487b7160e01b600052601160045260246000fd5b6001600160a01b0381168114610a8a57600080fdfea26469706673582212207c6f1a2eb20cad937d305d266323c9927c03ab51c6dcd9dc9ec60059c90e30aa64736f6c63430008040033",
  "devdoc": {
    "kind": "dev",
    "methods": {
      "owner()": {
        "details": "Returns the address of the current owner."
      },
      "renounceOwnership()": {
        "details": "Leaves the contract without owner. It will not be possible to call `onlyOwner` functions anymore. Can only be called by the current owner. NOTE: Renouncing ownership will leave the contract without an owner, thereby removing any functionality that is only available to the owner."
      },
      "transferOwnership(address)": {
        "details": "Transfers ownership of the contract to a new account (`newOwner`). Can only be called by the current owner."
      }
    },
    "version": 1
  },
  "userdoc": {
    "kind": "user",
    "methods": {},
    "version": 1
  },
  "storageLayout": {
    "storage": [
      {
        "astId": 176,
        "contract": "contracts/utils/VaultQueue.sol:VaultQueue",
        "label": "_initialized",
        "offset": 0,
        "slot": "0",
        "type": "t_bool"
      },
      {
        "astId": 179,
        "contract": "contracts/utils/VaultQueue.sol:VaultQueue",
        "label": "_initializing",
        "offset": 1,
        "slot": "0",
        "type": "t_bool"
      },
      {
        "astId": 993,
        "contract": "contracts/utils/VaultQueue.sol:VaultQueue",
        "label": "__gap",
        "offset": 0,
        "slot": "1",
        "type": "t_array(t_uint256)50_storage"
      },
      {
        "astId": 56,
        "contract": "contracts/utils/VaultQueue.sol:VaultQueue",
        "label": "_owner",
        "offset": 0,
        "slot": "51",
        "type": "t_address"
      },
      {
        "astId": 169,
        "contract": "contracts/utils/VaultQueue.sol:VaultQueue",
        "label": "__gap",
        "offset": 0,
        "slot": "52",
        "type": "t_array(t_uint256)49_storage"
      },
      {
        "astId": 230,
        "contract": "contracts/utils/VaultQueue.sol:VaultQueue",
        "label": "_status",
        "offset": 0,
        "slot": "101",
        "type": "t_uint256"
      },
      {
        "astId": 273,
        "contract": "contracts/utils/VaultQueue.sol:VaultQueue",
        "label": "__gap",
        "offset": 0,
        "slot": "102",
        "type": "t_array(t_uint256)49_storage"
      },
      {
        "astId": 14242,
        "contract": "contracts/utils/VaultQueue.sol:VaultQueue",
        "label": "qTransfer",
        "offset": 0,
        "slot": "151",
        "type": "t_mapping(t_address,t_array(t_struct(Transfer)14232_storage)dyn_storage)"
      },
      {
        "astId": 14246,
        "contract": "contracts/utils/VaultQueue.sol:VaultQueue",
        "label": "totalAmount",
        "offset": 0,
        "slot": "152",
        "type": "t_mapping(t_address,t_uint256)"
      },
      {
        "astId": 14252,
        "contract": "contracts/utils/VaultQueue.sol:VaultQueue",
        "label": "queueSize",
        "offset": 0,
        "slot": "153",
        "type": "t_uint256"
      }
    ],
    "types": {
      "t_address": {
        "encoding": "inplace",
        "label": "address",
        "numberOfBytes": "20"
      },
      "t_array(t_struct(Transfer)14232_storage)dyn_storage": {
        "base": "t_struct(Transfer)14232_storage",
        "encoding": "dynamic_array",
        "label": "struct VaultQueue.Transfer[]",
        "numberOfBytes": "32"
      },
      "t_array(t_uint256)49_storage": {
        "base": "t_uint256",
        "encoding": "inplace",
        "label": "uint256[49]",
        "numberOfBytes": "1568"
      },
      "t_array(t_uint256)50_storage": {
        "base": "t_uint256",
        "encoding": "inplace",
        "label": "uint256[50]",
        "numberOfBytes": "1600"
      },
      "t_bool": {
        "encoding": "inplace",
        "label": "bool",
        "numberOfBytes": "1"
      },
      "t_enum(TransferAction)14222": {
        "encoding": "inplace",
        "label": "enum VaultQueue.TransferAction",
        "numberOfBytes": "1"
      },
      "t_mapping(t_address,t_array(t_struct(Transfer)14232_storage)dyn_storage)": {
        "encoding": "mapping",
        "key": "t_address",
        "label": "mapping(address => struct VaultQueue.Transfer[])",
        "numberOfBytes": "32",
        "value": "t_array(t_struct(Transfer)14232_storage)dyn_storage"
      },
      "t_mapping(t_address,t_uint256)": {
        "encoding": "mapping",
        "key": "t_address",
        "label": "mapping(address => uint256)",
        "numberOfBytes": "32",
        "value": "t_uint256"
      },
      "t_struct(Transfer)14232_storage": {
        "encoding": "inplace",
        "label": "struct VaultQueue.Transfer",
        "members": [
          {
            "astId": 14224,
            "contract": "contracts/utils/VaultQueue.sol:VaultQueue",
            "label": "creditor",
            "offset": 0,
            "slot": "0",
            "type": "t_address"
          },
          {
            "astId": 14226,
            "contract": "contracts/utils/VaultQueue.sol:VaultQueue",
            "label": "depositContract",
            "offset": 0,
            "slot": "1",
            "type": "t_address"
          },
          {
            "astId": 14228,
            "contract": "contracts/utils/VaultQueue.sol:VaultQueue",
            "label": "amount",
            "offset": 0,
            "slot": "2",
            "type": "t_uint256"
          },
          {
            "astId": 14231,
            "contract": "contracts/utils/VaultQueue.sol:VaultQueue",
            "label": "action",
            "offset": 0,
            "slot": "3",
            "type": "t_enum(TransferAction)14222"
          }
        ],
        "numberOfBytes": "128"
      },
      "t_uint256": {
        "encoding": "inplace",
        "label": "uint256",
        "numberOfBytes": "32"
      }
    }
  }
}