{
  "address": "0xE6325F8465dD875BE46C6997F955D6615766D8bE",
  "abi": [
    {
      "inputs": [
        {
          "internalType": "address",
          "name": "_wethVault",
          "type": "address"
        },
        {
          "internalType": "address",
          "name": "_stethVault",
          "type": "address"
        }
      ],
      "stateMutability": "nonpayable",
      "type": "constructor"
    },
    {
      "anonymous": false,
      "inputs": [
        {
          "indexed": false,
          "internalType": "address",
          "name": "vault",
          "type": "address"
        },
        {
          "components": [
            {
              "internalType": "address",
              "name": "creditor",
              "type": "address"
            },
            {
              "internalType": "address",
              "name": "dstVault",
              "type": "address"
            },
            {
              "internalType": "address",
              "name": "depositContract",
              "type": "address"
            },
            {
              "internalType": "uint32",
              "name": "timestamp",
              "type": "uint32"
            },
            {
              "internalType": "uint256",
              "name": "amount",
              "type": "uint256"
            },
            {
              "internalType": "enum VaultQueue.TransferAction",
              "name": "action",
              "type": "uint8"
            }
          ],
          "indexed": false,
          "internalType": "struct VaultQueue.Transfer",
          "name": "txn",
          "type": "tuple"
        },
        {
          "indexed": false,
          "internalType": "uint256",
          "name": "portion",
          "type": "uint256"
        }
      ],
      "name": "Disburse",
      "type": "event"
    },
    {
      "anonymous": false,
      "inputs": [
        {
          "indexed": true,
          "internalType": "address",
          "name": "previousOwner",
          "type": "address"
        },
        {
          "indexed": true,
          "internalType": "address",
          "name": "newOwner",
          "type": "address"
        }
      ],
      "name": "OwnershipTransferred",
      "type": "event"
    },
    {
      "inputs": [],
      "name": "STETH_VAULT",
      "outputs": [
        {
          "internalType": "address",
          "name": "",
          "type": "address"
        }
      ],
      "stateMutability": "view",
      "type": "function"
    },
    {
      "inputs": [],
      "name": "WETH_VAULT",
      "outputs": [
        {
          "internalType": "address",
          "name": "",
          "type": "address"
        }
      ],
      "stateMutability": "view",
      "type": "function"
    },
    {
      "inputs": [
        {
          "internalType": "address",
          "name": "vault",
          "type": "address"
        },
        {
          "internalType": "address",
          "name": "user",
          "type": "address"
        }
      ],
      "name": "hasWithdrawal",
      "outputs": [
        {
          "internalType": "bool",
          "name": "",
          "type": "bool"
        }
      ],
      "stateMutability": "view",
      "type": "function"
    },
    {
      "inputs": [],
      "name": "initialize",
      "outputs": [],
      "stateMutability": "nonpayable",
      "type": "function"
    },
    {
      "inputs": [],
      "name": "owner",
      "outputs": [
        {
          "internalType": "address",
          "name": "",
          "type": "address"
        }
      ],
      "stateMutability": "view",
      "type": "function"
    },
    {
      "inputs": [
        {
          "internalType": "address",
          "name": "",
          "type": "address"
        },
        {
          "internalType": "uint256",
          "name": "",
          "type": "uint256"
        }
      ],
      "name": "qTransfer",
      "outputs": [
        {
          "internalType": "address",
          "name": "creditor",
          "type": "address"
        },
        {
          "internalType": "address",
          "name": "dstVault",
          "type": "address"
        },
        {
          "internalType": "address",
          "name": "depositContract",
          "type": "address"
        },
        {
          "internalType": "uint32",
          "name": "timestamp",
          "type": "uint32"
        },
        {
          "internalType": "uint256",
          "name": "amount",
          "type": "uint256"
        },
        {
          "internalType": "enum VaultQueue.TransferAction",
          "name": "action",
          "type": "uint8"
        }
      ],
      "stateMutability": "view",
      "type": "function"
    },
    {
      "inputs": [],
      "name": "queueSize",
      "outputs": [
        {
          "internalType": "uint256",
          "name": "",
          "type": "uint256"
        }
      ],
      "stateMutability": "view",
      "type": "function"
    },
    {
      "inputs": [
        {
          "internalType": "address",
          "name": "srcVault",
          "type": "address"
        },
        {
          "internalType": "address",
          "name": "dstVault",
          "type": "address"
        },
        {
          "internalType": "address",
          "name": "depositContract",
          "type": "address"
        },
        {
          "internalType": "enum VaultQueue.TransferAction",
          "name": "transferAction",
          "type": "uint8"
        },
        {
          "internalType": "uint256",
          "name": "amount",
          "type": "uint256"
        }
      ],
      "name": "queueTransfer",
      "outputs": [],
      "stateMutability": "nonpayable",
      "type": "function"
    },
    {
      "inputs": [],
      "name": "renounceOwnership",
      "outputs": [],
      "stateMutability": "nonpayable",
      "type": "function"
    },
    {
      "inputs": [
        {
          "internalType": "uint256",
          "name": "_queueSize",
          "type": "uint256"
        }
      ],
      "name": "setQueueSize",
      "outputs": [],
      "stateMutability": "nonpayable",
      "type": "function"
    },
    {
      "inputs": [
        {
          "internalType": "address",
          "name": "",
          "type": "address"
        }
      ],
      "name": "totalAmount",
      "outputs": [
        {
          "internalType": "uint256",
          "name": "",
          "type": "uint256"
        }
      ],
      "stateMutability": "view",
      "type": "function"
    },
    {
      "inputs": [
        {
          "internalType": "address",
          "name": "vault",
          "type": "address"
        }
      ],
      "name": "transfer",
      "outputs": [],
      "stateMutability": "nonpayable",
      "type": "function"
    },
    {
      "inputs": [
        {
          "internalType": "address",
          "name": "newOwner",
          "type": "address"
        }
      ],
      "name": "transferOwnership",
      "outputs": [],
      "stateMutability": "nonpayable",
      "type": "function"
    },
    {
      "stateMutability": "payable",
      "type": "receive"
    }
  ],
  "transactionHash": "0xf3221cd87f9e692ebaf25fcac7515e0a09c4a80c6de4b3cc6f0317fc08deb410",
  "args": [
    "0x98d03125c62DaE2328D9d3cb32b7B969e6a87787",
    "0xd4816D144C005B29dF24C8eb1865fB8A1e79FdDE"
  ],
  "solcInputHash": "b90c90d3594f08899efde874a4771bf6",
  "bytecode": "0x60c06040523480156200001157600080fd5b5060405162001eb338038062001eb3833981016040819052620000349162000075565b6001600160601b0319606092831b8116608052911b1660a0526020609955620000ac565b80516001600160a01b03811681146200007057600080fd5b919050565b6000806040838503121562000088578182fd5b620000938362000058565b9150620000a36020840162000058565b90509250929050565b60805160601c60a05160601c611dab6200010860003960008181610108015281816102b4015281816104f801528181610f2e01526113ba01526000818160d6015281816101e00152818161105c01526114ed0152611dab6000f3fe6080604052600436106100c65760003560e01c8063984cc32d1161007f578063bae6c2ad11610059578063bae6c2ad146102d6578063c01c37ec146102fa578063d72b9da21461032a578063f2fde38b1461035757600080fd5b8063984cc32d14610262578063add8532b14610282578063af5ea6e7146102a257600080fd5b806302f2c41c146101735780631a695230146101ae57806341495591146101ce578063715018a61461021a5780638129fc1c1461022f5780638da5cb5b1461024457600080fd5b3661016e57336001600160a01b037f000000000000000000000000000000000000000000000000000000000000000016148061012a5750336001600160a01b037f000000000000000000000000000000000000000000000000000000000000000016145b61016c5760405162461bcd60e51b815260206004820152600e60248201526d24b73b30b634b21039b2b73232b960911b60448201526064015b60405180910390fd5b005b600080fd5b34801561017f57600080fd5b5061019361018e3660046119a3565b610377565b6040516101a596959493929190611b6a565b60405180910390f35b3480156101ba57600080fd5b5061016c6101c93660046118cd565b6103e6565b3480156101da57600080fd5b506102027f000000000000000000000000000000000000000000000000000000000000000081565b6040516001600160a01b0390911681526020016101a5565b34801561022657600080fd5b5061016c6105fd565b34801561023b57600080fd5b5061016c610633565b34801561025057600080fd5b506033546001600160a01b0316610202565b34801561026e57600080fd5b5061016c61027d366004611b18565b6106b8565b34801561028e57600080fd5b5061016c61029d36600461193d565b6106e7565b3480156102ae57600080fd5b506102027f000000000000000000000000000000000000000000000000000000000000000081565b3480156102e257600080fd5b506102ec60995481565b6040519081526020016101a5565b34801561030657600080fd5b5061031a610315366004611905565b610b7b565b60405190151581526020016101a5565b34801561033657600080fd5b506102ec6103453660046118cd565b60986020526000908152604090205481565b34801561036357600080fd5b5061016c6103723660046118cd565b610c21565b6097602052816000526040600020818154811061039357600080fd5b6000918252602090912060059091020180546001820154600283015460038401546004909401546001600160a01b039384169650918316945091821692600160a01b90920463ffffffff16919060ff1686565b6033546001600160a01b031633146104105760405162461bcd60e51b815260040161016390611c75565b600260655414156104635760405162461bcd60e51b815260206004820152601f60248201527f5265656e7472616e637947756172643a207265656e7472616e742063616c6c006044820152606401610163565b6002606555604051633d49315160e11b81523060048201526000906001600160a01b03831690637a9262a290602401604080518083038186803b1580156104a957600080fd5b505afa1580156104bd573d6000803e3d6000fd5b505050506040513d601f19601f820116820180604052508101906104e19190611a9d565b602001516001600160801b0316905080156105f4577f00000000000000000000000000000000000000000000000000000000000000006001600160a01b0316826001600160a01b0316141561059857604051630821fb5760e21b8152600060048201526001600160a01b03831690632087ed5c90602401600060405180830381600087803b15801561057257600080fd5b505af1158015610586573d6000803e3d6000fd5b5050505061059382610cb9565b6105f4565b816001600160a01b031663f756fa216040518163ffffffff1660e01b8152600401600060405180830381600087803b1580156105d357600080fd5b505af11580156105e7573d6000803e3d6000fd5b505050506105f482610cb9565b50506001606555565b6033546001600160a01b031633146106275760405162461bcd60e51b815260040161016390611c75565b6106316000610e12565b565b600054610100900460ff168061064c575060005460ff16155b6106685760405162461bcd60e51b815260040161016390611c27565b600054610100900460ff1615801561068a576000805461ffff19166101011790555b610692610e64565b61069a610ec3565b6106a333610c21565b80156106b5576000805461ff00191690555b50565b6033546001600160a01b031633146106e25760405162461bcd60e51b815260040161016390611c75565b609955565b6002606554141561073a5760405162461bcd60e51b815260206004820152601f60248201527f5265656e7472616e637947756172643a207265656e7472616e742063616c6c006044820152606401610163565b60026065556107498533610b7b565b156107965760405162461bcd60e51b815260206004820152601a60248201527f576974686472617720616c7265616479207375626d69747465640000000000006044820152606401610163565b6099546001600160a01b038616600090815260976020526040902054106107f55760405162461bcd60e51b8152602060048201526013602482015272151c985b9cd9995c881c5d595d5948199d5b1b606a1b6044820152606401610163565b600082600181111561081757634e487b7160e01b600052602160045260246000fd5b141561086e576001600160a01b0383166108695760405162461bcd60e51b8152602060048201526013602482015272139bc819195c1bdcda5d0818dbdb9d1c9858dd606a1b6044820152606401610163565b610906565b600182600181111561089057634e487b7160e01b600052602160045260246000fd5b1415610906576001600160a01b03831633146109065760405162461bcd60e51b815260206004820152602f60248201527f4f6e2077697468647261772c206465706f736974436f6e7472616374206d757360448201526e3a1031329036b9b39739b2b73232b960891b6064820152608401610163565b6040516323b872dd60e01b8152336004820152306024820152604481018290526001600160a01b038616906323b872dd90606401602060405180830381600087803b15801561095457600080fd5b505af1158015610968573d6000803e3d6000fd5b505050506040513d601f19601f8201168201806040525081019061098c91906119ce565b50604051633f0846a960e11b8152600481018290526001600160a01b03861690637e108d5290602401600060405180830381600087803b1580156109cf57600080fd5b505af11580156109e3573d6000803e3d6000fd5b5050505060976000866001600160a01b03166001600160a01b031681526020019081526020016000206040518060c00160405280336001600160a01b03168152602001866001600160a01b03168152602001856001600160a01b031681526020014263ffffffff168152602001838152602001846001811115610a7657634e487b7160e01b600052602160045260246000fd5b90528154600181810184556000938452602093849020835160059093020180546001600160a01b039384166001600160a01b031991821617825594840151818301805491851691909616179094556040830151600285018054606086015163ffffffff16600160a01b026001600160c01b03199091169290941691909117929092179091556080820151600384015560a08201516004840180549394939192909160ff1916908381811115610b3b57634e487b7160e01b600052602160045260246000fd5b021790555050506001600160a01b03851660009081526098602052604081208054839290610b6a908490611caa565b909155505060016065555050505050565b6000805b6001600160a01b038416600090815260976020526040902054811015610c15576001600160a01b0384166000908152609760205260409020805482908110610bd757634e487b7160e01b600052603260045260246000fd5b60009182526020909120600590910201546001600160a01b0384811691161415610c05576001915050610c1b565b610c0e81611d2f565b9050610b7f565b50600090505b92915050565b6033546001600160a01b03163314610c4b5760405162461bcd60e51b815260040161016390611c75565b6001600160a01b038116610cb05760405162461bcd60e51b815260206004820152602660248201527f4f776e61626c653a206e6577206f776e657220697320746865207a65726f206160448201526564647265737360d01b6064820152608401610163565b6106b581610e12565b6000610cc482610f2a565b6001600160a01b038316600090815260976020908152604080832054609890925282208054929055919250815b8015610e0b576001600160a01b0385166000908152609760205260408120610d1890611159565b90506000610d3386610d2e8460800151876112f9565b61132b565b90508015610df65760008260a001516001811115610d6157634e487b7160e01b600052602160045260246000fd5b1415610d7f57610d7a8260400151836000015183611356565b610dba565b60018260a001516001811115610da557634e487b7160e01b600052602160045260246000fd5b1415610dba57610dba878360000151836113b8565b7f6a454616e1b5afa37e2dbb2a1435095910e1127880e734e440aa57443d7c67bc878383604051610ded93929190611bb5565b60405180910390a15b50508080610e0390611d18565b915050610cf1565b5050505050565b603380546001600160a01b038381166001600160a01b0319831681179093556040519116919082907f8be0079c531659141344cd1fd0a4f28419497f9722a3daafe3b4186f6b6457e090600090a35050565b600054610100900460ff1680610e7d575060005460ff16155b610e995760405162461bcd60e51b815260040161016390611c27565b600054610100900460ff16158015610ebb576000805461ffff19166101011790555b6106a3611693565b600054610100900460ff1680610edc575060005460ff16155b610ef85760405162461bcd60e51b815260040161016390611c27565b600054610100900460ff16158015610f1a576000805461ffff19166101011790555b610f22611703565b6106a361176d565b60007f00000000000000000000000000000000000000000000000000000000000000006001600160a01b0316826001600160a01b0316141561105a576000826001600160a01b031663e00bfe506040518163ffffffff1660e01b815260040160206040518083038186803b158015610fa157600080fd5b505afa158015610fb5573d6000803e3d6000fd5b505050506040513d601f19601f82011682018060405250810190610fd991906118e9565b6040516370a0823160e01b81523060048201529091506001600160a01b038216906370a082319060240160206040518083038186803b15801561101b57600080fd5b505afa15801561102f573d6000803e3d6000fd5b505050506040513d601f19601f820116820180604052508101906110539190611b30565b9392505050565b7f00000000000000000000000000000000000000000000000000000000000000006001600160a01b0316826001600160a01b0316141561109b575047919050565b6000826001600160a01b0316639fcc2d756040518163ffffffff1660e01b815260040160c06040518083038186803b1580156110d657600080fd5b505afa1580156110ea573d6000803e3d6000fd5b505050506040513d601f19601f8201168201806040525081019061110e91906119e8565b60408082015190516370a0823160e01b81523060048201529192506001600160a01b0316906370a082319060240160206040518083038186803b15801561101b57600080fd5b919050565b61118f6040805160c08101825260008082526020820181905291810182905260608101829052608081018290529060a082015290565b815460009083906111a290600190611d01565b815481106111c057634e487b7160e01b600052603260045260246000fd5b60009182526020918290206040805160c08101825260059390930290910180546001600160a01b039081168452600180830154821695850195909552600282015490811692840192909252600160a01b90910463ffffffff1660608301526003810154608083015260048101549192909160a084019160ff9091169081111561125957634e487b7160e01b600052602160045260246000fd5b600181111561127857634e487b7160e01b600052602160045260246000fd5b8152505090508280548061129c57634e487b7160e01b600052603160045260246000fd5b60008281526020812060056000199093019283020180546001600160a01b0319908116825560018201805490911690556002810180546001600160c01b03191690556003810191909155600401805460ff19169055905592915050565b60008161132161131185670de0b6b3a76400006117cd565b61131c600286611cc2565b611834565b6110539190611cc2565b6000670de0b6b3a764000061132161134385856117cd565b61131c6002670de0b6b3a7640000611cc2565b60405163aa67c91960e01b81526001600160a01b03838116600483015284169063aa67c9199083906024016000604051808303818588803b15801561139a57600080fd5b505af11580156113ae573d6000803e3d6000fd5b5050505050505050565b7f00000000000000000000000000000000000000000000000000000000000000006001600160a01b0316836001600160a01b031614156114eb576000836001600160a01b031663e00bfe506040518163ffffffff1660e01b815260040160206040518083038186803b15801561142d57600080fd5b505afa158015611441573d6000803e3d6000fd5b505050506040513d601f19601f8201168201806040525081019061146591906118e9565b60405163a9059cbb60e01b81526001600160a01b038581166004830152602482018590529192509082169063a9059cbb90604401602060405180830381600087803b1580156114b357600080fd5b505af11580156114c7573d6000803e3d6000fd5b505050506040513d601f19601f82011682018060405250810190610e0b91906119ce565b7f00000000000000000000000000000000000000000000000000000000000000006001600160a01b0316836001600160a01b031614156115ce576000826001600160a01b03168260405160006040518083038185875af1925050503d8060008114611572576040519150601f19603f3d011682016040523d82523d6000602084013e611577565b606091505b50509050806115c85760405162461bcd60e51b815260206004820152601e60248201527f4661696c656420746f20776974686472617720746f206372656469746f7200006044820152606401610163565b50505050565b6000836001600160a01b0316639fcc2d756040518163ffffffff1660e01b815260040160c06040518083038186803b15801561160957600080fd5b505afa15801561161d573d6000803e3d6000fd5b505050506040513d601f19601f8201168201806040525081019061164191906119e8565b604080820151905163a9059cbb60e01b81526001600160a01b0386811660048301526024820186905292935091169063a9059cbb90604401602060405180830381600087803b1580156114b357600080fd5b600054610100900460ff16806116ac575060005460ff16155b6116c85760405162461bcd60e51b815260040161016390611c27565b600054610100900460ff161580156116ea576000805461ffff19166101011790555b600160655580156106b5576000805461ff001916905550565b600054610100900460ff168061171c575060005460ff16155b6117385760405162461bcd60e51b815260040161016390611c27565b600054610100900460ff161580156106a3576000805461ffff191661010117905580156106b5576000805461ff001916905550565b600054610100900460ff1680611786575060005460ff16155b6117a25760405162461bcd60e51b815260040161016390611c27565b600054610100900460ff161580156117c4576000805461ffff19166101011790555b6106a333610e12565b60008115806117f1575082826117e38183611ce2565b92506117ef9083611cc2565b145b610c1b5760405162461bcd60e51b815260206004820152601460248201527364732d6d6174682d6d756c2d6f766572666c6f7760601b6044820152606401610163565b6000826118418382611caa565b9150811015610c1b5760405162461bcd60e51b815260206004820152601460248201527364732d6d6174682d6164642d6f766572666c6f7760601b6044820152606401610163565b8051801515811461115457600080fd5b80516cffffffffffffffffffffffffff8116811461115457600080fd5b805166ffffffffffffff8116811461115457600080fd5b6000602082840312156118de578081fd5b813561105381611d60565b6000602082840312156118fa578081fd5b815161105381611d60565b60008060408385031215611917578081fd5b823561192281611d60565b9150602083013561193281611d60565b809150509250929050565b600080600080600060a08688031215611954578081fd5b853561195f81611d60565b9450602086013561196f81611d60565b9350604086013561197f81611d60565b9250606086013560028110611992578182fd5b949793965091946080013592915050565b600080604083850312156119b5578182fd5b82356119c081611d60565b946020939093013593505050565b6000602082840312156119df578081fd5b61105382611889565b600060c082840312156119f9578081fd5b60405160c0810181811067ffffffffffffffff82111715611a2857634e487b7160e01b83526041600452602483fd5b604052611a3483611889565b8152602083015160ff81168114611a49578283fd5b60208201526040830151611a5c81611d60565b60408201526060830151611a6f81611d60565b6060820152611a80608084016118b6565b6080820152611a9160a08401611899565b60a08201529392505050565b600060408284031215611aae578081fd5b6040516040810181811067ffffffffffffffff82111715611add57634e487b7160e01b83526041600452602483fd5b604052825161ffff81168114611af1578283fd5b815260208301516001600160801b0381168114611b0c578283fd5b60208201529392505050565b600060208284031215611b29578081fd5b5035919050565b600060208284031215611b41578081fd5b5051919050565b60028110611b6657634e487b7160e01b600052602160045260246000fd5b9052565b6001600160a01b03878116825286811660208301528516604082015263ffffffff841660608201526080810183905260c08101611baa60a0830184611b48565b979650505050505050565b60006101008201905060018060a01b0380861683528085511660208401528060208601511660408401528060408601511660608401525063ffffffff6060850151166080830152608084015160a083015260a0840151611c1860c0840182611b48565b508260e0830152949350505050565b6020808252602e908201527f496e697469616c697a61626c653a20636f6e747261637420697320616c72656160408201526d191e481a5b9a5d1a585b1a5e995960921b606082015260800190565b6020808252818101527f4f776e61626c653a2063616c6c6572206973206e6f7420746865206f776e6572604082015260600190565b60008219821115611cbd57611cbd611d4a565b500190565b600082611cdd57634e487b7160e01b81526012600452602481fd5b500490565b6000816000190483118215151615611cfc57611cfc611d4a565b500290565b600082821015611d1357611d13611d4a565b500390565b600081611d2757611d27611d4a565b506000190190565b6000600019821415611d4357611d43611d4a565b5060010190565b634e487b7160e01b600052601160045260246000fd5b6001600160a01b03811681146106b557600080fdfea26469706673582212201628a1abce72d91e0d82745927b690618c31bcd1ef7b632b0df173ec079c0d0864736f6c63430008040033",
  "devdoc": {
    "kind": "dev",
    "methods": {
      "owner()": {
        "details": "Returns the address of the current owner."
      },
      "renounceOwnership()": {
        "details": "Leaves the contract without owner. It will not be possible to call `onlyOwner` functions anymore. Can only be called by the current owner. NOTE: Renouncing ownership will leave the contract without an owner, thereby removing any functionality that is only available to the owner."
      },
      "transferOwnership(address)": {
        "details": "Transfers ownership of the contract to a new account (`newOwner`). Can only be called by the current owner."
      }
    },
    "version": 1
  },
  "userdoc": {
    "kind": "user",
    "methods": {},
    "version": 1
  },
  "storageLayout": {
    "storage": [
      {
        "astId": 176,
        "contract": "contracts/utils/VaultQueue.sol:VaultQueue",
        "label": "_initialized",
        "offset": 0,
        "slot": "0",
        "type": "t_bool"
      },
      {
        "astId": 179,
        "contract": "contracts/utils/VaultQueue.sol:VaultQueue",
        "label": "_initializing",
        "offset": 1,
        "slot": "0",
        "type": "t_bool"
      },
      {
        "astId": 993,
        "contract": "contracts/utils/VaultQueue.sol:VaultQueue",
        "label": "__gap",
        "offset": 0,
        "slot": "1",
        "type": "t_array(t_uint256)50_storage"
      },
      {
        "astId": 56,
        "contract": "contracts/utils/VaultQueue.sol:VaultQueue",
        "label": "_owner",
        "offset": 0,
        "slot": "51",
        "type": "t_address"
      },
      {
        "astId": 169,
        "contract": "contracts/utils/VaultQueue.sol:VaultQueue",
        "label": "__gap",
        "offset": 0,
        "slot": "52",
        "type": "t_array(t_uint256)49_storage"
      },
      {
        "astId": 230,
        "contract": "contracts/utils/VaultQueue.sol:VaultQueue",
        "label": "_status",
        "offset": 0,
        "slot": "101",
        "type": "t_uint256"
      },
      {
        "astId": 273,
        "contract": "contracts/utils/VaultQueue.sol:VaultQueue",
        "label": "__gap",
        "offset": 0,
        "slot": "102",
        "type": "t_array(t_uint256)49_storage"
      },
      {
        "astId": 14246,
        "contract": "contracts/utils/VaultQueue.sol:VaultQueue",
        "label": "qTransfer",
        "offset": 0,
        "slot": "151",
        "type": "t_mapping(t_address,t_array(t_struct(Transfer)14236_storage)dyn_storage)"
      },
      {
        "astId": 14250,
        "contract": "contracts/utils/VaultQueue.sol:VaultQueue",
        "label": "totalAmount",
        "offset": 0,
        "slot": "152",
        "type": "t_mapping(t_address,t_uint256)"
      },
      {
        "astId": 14256,
        "contract": "contracts/utils/VaultQueue.sol:VaultQueue",
        "label": "queueSize",
        "offset": 0,
        "slot": "153",
        "type": "t_uint256"
      }
    ],
    "types": {
      "t_address": {
        "encoding": "inplace",
        "label": "address",
        "numberOfBytes": "20"
      },
      "t_array(t_struct(Transfer)14236_storage)dyn_storage": {
        "base": "t_struct(Transfer)14236_storage",
        "encoding": "dynamic_array",
        "label": "struct VaultQueue.Transfer[]",
        "numberOfBytes": "32"
      },
      "t_array(t_uint256)49_storage": {
        "base": "t_uint256",
        "encoding": "inplace",
        "label": "uint256[49]",
        "numberOfBytes": "1568"
      },
      "t_array(t_uint256)50_storage": {
        "base": "t_uint256",
        "encoding": "inplace",
        "label": "uint256[50]",
        "numberOfBytes": "1600"
      },
      "t_bool": {
        "encoding": "inplace",
        "label": "bool",
        "numberOfBytes": "1"
      },
      "t_enum(TransferAction)14222": {
        "encoding": "inplace",
        "label": "enum VaultQueue.TransferAction",
        "numberOfBytes": "1"
      },
      "t_mapping(t_address,t_array(t_struct(Transfer)14236_storage)dyn_storage)": {
        "encoding": "mapping",
        "key": "t_address",
        "label": "mapping(address => struct VaultQueue.Transfer[])",
        "numberOfBytes": "32",
        "value": "t_array(t_struct(Transfer)14236_storage)dyn_storage"
      },
      "t_mapping(t_address,t_uint256)": {
        "encoding": "mapping",
        "key": "t_address",
        "label": "mapping(address => uint256)",
        "numberOfBytes": "32",
        "value": "t_uint256"
      },
      "t_struct(Transfer)14236_storage": {
        "encoding": "inplace",
        "label": "struct VaultQueue.Transfer",
        "members": [
          {
            "astId": 14224,
            "contract": "contracts/utils/VaultQueue.sol:VaultQueue",
            "label": "creditor",
            "offset": 0,
            "slot": "0",
            "type": "t_address"
          },
          {
            "astId": 14226,
            "contract": "contracts/utils/VaultQueue.sol:VaultQueue",
            "label": "dstVault",
            "offset": 0,
            "slot": "1",
            "type": "t_address"
          },
          {
            "astId": 14228,
            "contract": "contracts/utils/VaultQueue.sol:VaultQueue",
            "label": "depositContract",
            "offset": 0,
            "slot": "2",
            "type": "t_address"
          },
          {
            "astId": 14230,
            "contract": "contracts/utils/VaultQueue.sol:VaultQueue",
            "label": "timestamp",
            "offset": 20,
            "slot": "2",
            "type": "t_uint32"
          },
          {
            "astId": 14232,
            "contract": "contracts/utils/VaultQueue.sol:VaultQueue",
            "label": "amount",
            "offset": 0,
            "slot": "3",
            "type": "t_uint256"
          },
          {
            "astId": 14235,
            "contract": "contracts/utils/VaultQueue.sol:VaultQueue",
            "label": "action",
            "offset": 0,
            "slot": "4",
            "type": "t_enum(TransferAction)14222"
          }
        ],
        "numberOfBytes": "160"
      },
      "t_uint256": {
        "encoding": "inplace",
        "label": "uint256",
        "numberOfBytes": "32"
      },
      "t_uint32": {
        "encoding": "inplace",
        "label": "uint32",
        "numberOfBytes": "4"
      }
    }
  }
}