{
  "address": "0x5d5Acc6D05f1c675458fCf9847EA64CEBdFDb5f1",
  "abi": [
    {
      "inputs": [
        {
          "internalType": "address",
          "name": "_weth",
          "type": "address"
        },
        {
          "internalType": "address",
          "name": "_usdc",
          "type": "address"
        },
        {
          "internalType": "address",
          "name": "_oTokenFactory",
          "type": "address"
        },
        {
          "internalType": "address",
          "name": "_gammaController",
          "type": "address"
        },
        {
          "internalType": "address",
          "name": "_marginPool",
          "type": "address"
        },
        {
          "internalType": "address",
          "name": "_gnosisEasyAuction",
          "type": "address"
        },
        {
          "internalType": "address",
          "name": "_uniswapRouter",
          "type": "address"
        },
        {
          "internalType": "address",
          "name": "_uniswapFactory",
          "type": "address"
        }
      ],
      "stateMutability": "nonpayable",
      "type": "constructor"
    },
    {
      "anonymous": false,
      "inputs": [
        {
          "indexed": true,
          "internalType": "address",
          "name": "owner",
          "type": "address"
        },
        {
          "indexed": true,
          "internalType": "address",
          "name": "spender",
          "type": "address"
        },
        {
          "indexed": false,
          "internalType": "uint256",
          "name": "value",
          "type": "uint256"
        }
      ],
      "name": "Approval",
      "type": "event"
    },
    {
      "anonymous": false,
      "inputs": [
        {
          "indexed": false,
          "internalType": "uint256",
          "name": "auctionDuration",
          "type": "uint256"
        },
        {
          "indexed": false,
          "internalType": "uint256",
          "name": "newAuctionDuration",
          "type": "uint256"
        }
      ],
      "name": "AuctionDurationSet",
      "type": "event"
    },
    {
      "anonymous": false,
      "inputs": [
        {
          "indexed": false,
          "internalType": "uint256",
          "name": "oldCap",
          "type": "uint256"
        },
        {
          "indexed": false,
          "internalType": "uint256",
          "name": "newCap",
          "type": "uint256"
        }
      ],
      "name": "CapSet",
      "type": "event"
    },
    {
      "anonymous": false,
      "inputs": [
        {
          "indexed": true,
          "internalType": "address",
          "name": "options",
          "type": "address"
        },
        {
          "indexed": false,
          "internalType": "uint256",
          "name": "withdrawAmount",
          "type": "uint256"
        },
        {
          "indexed": true,
          "internalType": "address",
          "name": "manager",
          "type": "address"
        }
      ],
      "name": "CloseShort",
      "type": "event"
    },
    {
      "anonymous": false,
      "inputs": [
        {
          "indexed": false,
          "internalType": "uint256",
          "name": "performanceFee",
          "type": "uint256"
        },
        {
          "indexed": false,
          "internalType": "uint256",
          "name": "vaultFee",
          "type": "uint256"
        },
        {
          "indexed": false,
          "internalType": "uint256",
          "name": "round",
          "type": "uint256"
        },
        {
          "indexed": true,
          "internalType": "address",
          "name": "feeRecipient",
          "type": "address"
        }
      ],
      "name": "CollectVaultFees",
      "type": "event"
    },
    {
      "anonymous": false,
      "inputs": [
        {
          "indexed": true,
          "internalType": "address",
          "name": "account",
          "type": "address"
        },
        {
          "indexed": false,
          "internalType": "uint256",
          "name": "amount",
          "type": "uint256"
        },
        {
          "indexed": false,
          "internalType": "uint256",
          "name": "round",
          "type": "uint256"
        }
      ],
      "name": "Deposit",
      "type": "event"
    },
    {
      "anonymous": false,
      "inputs": [
        {
          "indexed": true,
          "internalType": "address",
          "name": "account",
          "type": "address"
        },
        {
          "indexed": false,
          "internalType": "uint256",
          "name": "shares",
          "type": "uint256"
        },
        {
          "indexed": false,
          "internalType": "uint256",
          "name": "round",
          "type": "uint256"
        }
      ],
      "name": "InitiateWithdraw",
      "type": "event"
    },
    {
      "anonymous": false,
      "inputs": [
        {
          "indexed": true,
          "internalType": "address",
          "name": "account",
          "type": "address"
        },
        {
          "indexed": false,
          "internalType": "uint256",
          "name": "amount",
          "type": "uint256"
        },
        {
          "indexed": false,
          "internalType": "uint256",
          "name": "round",
          "type": "uint256"
        }
      ],
      "name": "InstantWithdraw",
      "type": "event"
    },
    {
      "anonymous": false,
      "inputs": [
        {
          "indexed": false,
          "internalType": "uint256",
          "name": "managementFee",
          "type": "uint256"
        },
        {
          "indexed": false,
          "internalType": "uint256",
          "name": "newManagementFee",
          "type": "uint256"
        }
      ],
      "name": "ManagementFeeSet",
      "type": "event"
    },
    {
      "anonymous": false,
      "inputs": [
        {
          "indexed": false,
          "internalType": "uint256",
          "name": "strikePrice",
          "type": "uint256"
        },
        {
          "indexed": false,
          "internalType": "uint256",
          "name": "delta",
          "type": "uint256"
        }
      ],
      "name": "NewOptionStrikeSelected",
      "type": "event"
    },
    {
      "anonymous": false,
      "inputs": [
        {
          "indexed": true,
          "internalType": "address",
          "name": "options",
          "type": "address"
        },
        {
          "indexed": false,
          "internalType": "uint256",
          "name": "depositAmount",
          "type": "uint256"
        },
        {
          "indexed": true,
          "internalType": "address",
          "name": "manager",
          "type": "address"
        }
      ],
      "name": "OpenShort",
      "type": "event"
    },
    {
      "anonymous": false,
      "inputs": [
        {
          "indexed": true,
          "internalType": "address",
          "name": "previousOwner",
          "type": "address"
        },
        {
          "indexed": true,
          "internalType": "address",
          "name": "newOwner",
          "type": "address"
        }
      ],
      "name": "OwnershipTransferred",
      "type": "event"
    },
    {
      "anonymous": false,
      "inputs": [
        {
          "indexed": false,
          "internalType": "uint256",
          "name": "performanceFee",
          "type": "uint256"
        },
        {
          "indexed": false,
          "internalType": "uint256",
          "name": "newPerformanceFee",
          "type": "uint256"
        }
      ],
      "name": "PerformanceFeeSet",
      "type": "event"
    },
    {
      "anonymous": false,
      "inputs": [
        {
          "indexed": false,
          "internalType": "uint256",
          "name": "premiumDiscount",
          "type": "uint256"
        },
        {
          "indexed": false,
          "internalType": "uint256",
          "name": "newPremiumDiscount",
          "type": "uint256"
        }
      ],
      "name": "PremiumDiscountSet",
      "type": "event"
    },
    {
      "anonymous": false,
      "inputs": [
        {
          "indexed": true,
          "internalType": "address",
          "name": "account",
          "type": "address"
        },
        {
          "indexed": false,
          "internalType": "uint256",
          "name": "share",
          "type": "uint256"
        },
        {
          "indexed": false,
          "internalType": "uint256",
          "name": "round",
          "type": "uint256"
        }
      ],
      "name": "Redeem",
      "type": "event"
    },
    {
      "anonymous": false,
      "inputs": [
        {
          "indexed": true,
          "internalType": "address",
          "name": "from",
          "type": "address"
        },
        {
          "indexed": true,
          "internalType": "address",
          "name": "to",
          "type": "address"
        },
        {
          "indexed": false,
          "internalType": "uint256",
          "name": "value",
          "type": "uint256"
        }
      ],
      "name": "Transfer",
      "type": "event"
    },
    {
      "anonymous": false,
      "inputs": [
        {
          "indexed": true,
          "internalType": "address",
          "name": "account",
          "type": "address"
        },
        {
          "indexed": false,
          "internalType": "uint256",
          "name": "amount",
          "type": "uint256"
        },
        {
          "indexed": false,
          "internalType": "uint256",
          "name": "shares",
          "type": "uint256"
        }
      ],
      "name": "Withdraw",
      "type": "event"
    },
    {
      "inputs": [],
      "name": "DELAY",
      "outputs": [
        {
          "internalType": "uint256",
          "name": "",
          "type": "uint256"
        }
      ],
      "stateMutability": "view",
      "type": "function"
    },
    {
      "inputs": [],
      "name": "GAMMA_CONTROLLER",
      "outputs": [
        {
          "internalType": "address",
          "name": "",
          "type": "address"
        }
      ],
      "stateMutability": "view",
      "type": "function"
    },
    {
      "inputs": [],
      "name": "GNOSIS_EASY_AUCTION",
      "outputs": [
        {
          "internalType": "address",
          "name": "",
          "type": "address"
        }
      ],
      "stateMutability": "view",
      "type": "function"
    },
    {
      "inputs": [],
      "name": "MARGIN_POOL",
      "outputs": [
        {
          "internalType": "address",
          "name": "",
          "type": "address"
        }
      ],
      "stateMutability": "view",
      "type": "function"
    },
    {
      "inputs": [],
      "name": "OTOKEN_FACTORY",
      "outputs": [
        {
          "internalType": "address",
          "name": "",
          "type": "address"
        }
      ],
      "stateMutability": "view",
      "type": "function"
    },
    {
      "inputs": [],
      "name": "PERIOD",
      "outputs": [
        {
          "internalType": "uint256",
          "name": "",
          "type": "uint256"
        }
      ],
      "stateMutability": "view",
      "type": "function"
    },
    {
      "inputs": [],
      "name": "UNISWAP_FACTORY",
      "outputs": [
        {
          "internalType": "address",
          "name": "",
          "type": "address"
        }
      ],
      "stateMutability": "view",
      "type": "function"
    },
    {
      "inputs": [],
      "name": "UNISWAP_ROUTER",
      "outputs": [
        {
          "internalType": "address",
          "name": "",
          "type": "address"
        }
      ],
      "stateMutability": "view",
      "type": "function"
    },
    {
      "inputs": [],
      "name": "USDC",
      "outputs": [
        {
          "internalType": "address",
          "name": "",
          "type": "address"
        }
      ],
      "stateMutability": "view",
      "type": "function"
    },
    {
      "inputs": [],
      "name": "WETH",
      "outputs": [
        {
          "internalType": "address",
          "name": "",
          "type": "address"
        }
      ],
      "stateMutability": "view",
      "type": "function"
    },
    {
      "inputs": [
        {
          "internalType": "address",
          "name": "account",
          "type": "address"
        }
      ],
      "name": "accountVaultBalance",
      "outputs": [
        {
          "internalType": "uint256",
          "name": "",
          "type": "uint256"
        }
      ],
      "stateMutability": "view",
      "type": "function"
    },
    {
      "inputs": [
        {
          "internalType": "address",
          "name": "owner",
          "type": "address"
        },
        {
          "internalType": "address",
          "name": "spender",
          "type": "address"
        }
      ],
      "name": "allowance",
      "outputs": [
        {
          "internalType": "uint256",
          "name": "",
          "type": "uint256"
        }
      ],
      "stateMutability": "view",
      "type": "function"
    },
    {
      "inputs": [
        {
          "internalType": "address",
          "name": "spender",
          "type": "address"
        },
        {
          "internalType": "uint256",
          "name": "amount",
          "type": "uint256"
        }
      ],
      "name": "approve",
      "outputs": [
        {
          "internalType": "bool",
          "name": "",
          "type": "bool"
        }
      ],
      "stateMutability": "nonpayable",
      "type": "function"
    },
    {
      "inputs": [],
      "name": "auctionDuration",
      "outputs": [
        {
          "internalType": "uint256",
          "name": "",
          "type": "uint256"
        }
      ],
      "stateMutability": "view",
      "type": "function"
    },
    {
      "inputs": [
        {
          "internalType": "address",
          "name": "account",
          "type": "address"
        }
      ],
      "name": "balanceOf",
      "outputs": [
        {
          "internalType": "uint256",
          "name": "",
          "type": "uint256"
        }
      ],
      "stateMutability": "view",
      "type": "function"
    },
    {
      "inputs": [],
      "name": "burnRemainingOTokens",
      "outputs": [],
      "stateMutability": "nonpayable",
      "type": "function"
    },
    {
      "inputs": [],
      "name": "cap",
      "outputs": [
        {
          "internalType": "uint256",
          "name": "",
          "type": "uint256"
        }
      ],
      "stateMutability": "view",
      "type": "function"
    },
    {
      "inputs": [],
      "name": "commitAndClose",
      "outputs": [],
      "stateMutability": "nonpayable",
      "type": "function"
    },
    {
      "inputs": [],
      "name": "completeWithdraw",
      "outputs": [],
      "stateMutability": "nonpayable",
      "type": "function"
    },
    {
      "inputs": [],
      "name": "currentOption",
      "outputs": [
        {
          "internalType": "address",
          "name": "",
          "type": "address"
        }
      ],
      "stateMutability": "view",
      "type": "function"
    },
    {
      "inputs": [],
      "name": "currentOtokenPremium",
      "outputs": [
        {
          "internalType": "uint256",
          "name": "",
          "type": "uint256"
        }
      ],
      "stateMutability": "view",
      "type": "function"
    },
    {
      "inputs": [],
      "name": "decimals",
      "outputs": [
        {
          "internalType": "uint8",
          "name": "",
          "type": "uint8"
        }
      ],
      "stateMutability": "view",
      "type": "function"
    },
    {
      "inputs": [
        {
          "internalType": "address",
          "name": "spender",
          "type": "address"
        },
        {
          "internalType": "uint256",
          "name": "subtractedValue",
          "type": "uint256"
        }
      ],
      "name": "decreaseAllowance",
      "outputs": [
        {
          "internalType": "bool",
          "name": "",
          "type": "bool"
        }
      ],
      "stateMutability": "nonpayable",
      "type": "function"
    },
    {
      "inputs": [
        {
          "internalType": "uint256",
          "name": "amount",
          "type": "uint256"
        }
      ],
      "name": "deposit",
      "outputs": [],
      "stateMutability": "nonpayable",
      "type": "function"
    },
    {
      "inputs": [],
      "name": "depositETH",
      "outputs": [],
      "stateMutability": "payable",
      "type": "function"
    },
    {
      "inputs": [
        {
          "internalType": "uint256",
          "name": "amount",
          "type": "uint256"
        },
        {
          "internalType": "address",
          "name": "creditor",
          "type": "address"
        }
      ],
      "name": "depositFor",
      "outputs": [],
      "stateMutability": "nonpayable",
      "type": "function"
    },
    {
      "inputs": [
        {
          "internalType": "address",
          "name": "",
          "type": "address"
        }
      ],
      "name": "depositReceipts",
      "outputs": [
        {
          "internalType": "uint16",
          "name": "round",
          "type": "uint16"
        },
        {
          "internalType": "uint104",
          "name": "amount",
          "type": "uint104"
        },
        {
          "internalType": "uint128",
          "name": "unredeemedShares",
          "type": "uint128"
        }
      ],
      "stateMutability": "view",
      "type": "function"
    },
    {
      "inputs": [],
      "name": "feeRecipient",
      "outputs": [
        {
          "internalType": "address",
          "name": "",
          "type": "address"
        }
      ],
      "stateMutability": "view",
      "type": "function"
    },
    {
      "inputs": [
        {
          "internalType": "address",
          "name": "spender",
          "type": "address"
        },
        {
          "internalType": "uint256",
          "name": "addedValue",
          "type": "uint256"
        }
      ],
      "name": "increaseAllowance",
      "outputs": [
        {
          "internalType": "bool",
          "name": "",
          "type": "bool"
        }
      ],
      "stateMutability": "nonpayable",
      "type": "function"
    },
    {
      "inputs": [
        {
          "internalType": "uint256",
          "name": "numRounds",
          "type": "uint256"
        }
      ],
      "name": "initRounds",
      "outputs": [],
      "stateMutability": "nonpayable",
      "type": "function"
    },
    {
      "inputs": [
        {
          "components": [
            {
              "internalType": "address",
              "name": "_owner",
              "type": "address"
            },
            {
              "internalType": "address",
              "name": "_keeper",
              "type": "address"
            },
            {
              "internalType": "address",
              "name": "_feeRecipient",
              "type": "address"
            },
            {
              "internalType": "uint256",
              "name": "_managementFee",
              "type": "uint256"
            },
            {
              "internalType": "uint256",
              "name": "_performanceFee",
              "type": "uint256"
            },
            {
              "internalType": "string",
              "name": "_tokenName",
              "type": "string"
            },
            {
              "internalType": "string",
              "name": "_tokenSymbol",
              "type": "string"
            },
            {
              "internalType": "address",
              "name": "_optionsPremiumPricer",
              "type": "address"
            },
            {
              "internalType": "address",
              "name": "_strikeSelection",
              "type": "address"
            },
            {
              "internalType": "uint32",
              "name": "_premiumDiscount",
              "type": "uint32"
            },
            {
              "internalType": "uint256",
              "name": "_auctionDuration",
              "type": "uint256"
            },
            {
              "internalType": "bool",
              "name": "_isUsdcAuction",
              "type": "bool"
            },
            {
              "internalType": "bytes",
              "name": "_swapPath",
              "type": "bytes"
            }
          ],
          "internalType": "struct RibbonThetaVault.InitParams",
          "name": "_initParams",
          "type": "tuple"
        },
        {
          "components": [
            {
              "internalType": "bool",
              "name": "isPut",
              "type": "bool"
            },
            {
              "internalType": "uint8",
              "name": "decimals",
              "type": "uint8"
            },
            {
              "internalType": "address",
              "name": "asset",
              "type": "address"
            },
            {
              "internalType": "address",
              "name": "underlying",
              "type": "address"
            },
            {
              "internalType": "uint56",
              "name": "minimumSupply",
              "type": "uint56"
            },
            {
              "internalType": "uint104",
              "name": "cap",
              "type": "uint104"
            }
          ],
          "internalType": "struct Vault.VaultParams",
          "name": "_vaultParams",
          "type": "tuple"
        }
      ],
      "name": "initialize",
      "outputs": [],
      "stateMutability": "nonpayable",
      "type": "function"
    },
    {
      "inputs": [
        {
          "internalType": "uint256",
          "name": "numShares",
          "type": "uint256"
        }
      ],
      "name": "initiateWithdraw",
      "outputs": [],
      "stateMutability": "nonpayable",
      "type": "function"
    },
    {
      "inputs": [],
      "name": "isUsdcAuction",
      "outputs": [
        {
          "internalType": "bool",
          "name": "",
          "type": "bool"
        }
      ],
      "stateMutability": "view",
      "type": "function"
    },
    {
      "inputs": [],
      "name": "keeper",
      "outputs": [
        {
          "internalType": "address",
          "name": "",
          "type": "address"
        }
      ],
      "stateMutability": "view",
      "type": "function"
    },
    {
      "inputs": [],
      "name": "lastQueuedWithdrawAmount",
      "outputs": [
        {
          "internalType": "uint256",
          "name": "",
          "type": "uint256"
        }
      ],
      "stateMutability": "view",
      "type": "function"
    },
    {
      "inputs": [],
      "name": "lastStrikeOverrideRound",
      "outputs": [
        {
          "internalType": "uint16",
          "name": "",
          "type": "uint16"
        }
      ],
      "stateMutability": "view",
      "type": "function"
    },
    {
      "inputs": [],
      "name": "managementFee",
      "outputs": [
        {
          "internalType": "uint256",
          "name": "",
          "type": "uint256"
        }
      ],
      "stateMutability": "view",
      "type": "function"
    },
    {
      "inputs": [],
      "name": "maxRedeem",
      "outputs": [],
      "stateMutability": "nonpayable",
      "type": "function"
    },
    {
      "inputs": [],
      "name": "name",
      "outputs": [
        {
          "internalType": "string",
          "name": "",
          "type": "string"
        }
      ],
      "stateMutability": "view",
      "type": "function"
    },
    {
      "inputs": [],
      "name": "nextOption",
      "outputs": [
        {
          "internalType": "address",
          "name": "",
          "type": "address"
        }
      ],
      "stateMutability": "view",
      "type": "function"
    },
    {
      "inputs": [],
      "name": "nextOptionReadyAt",
      "outputs": [
        {
          "internalType": "uint256",
          "name": "",
          "type": "uint256"
        }
      ],
      "stateMutability": "view",
      "type": "function"
    },
    {
      "inputs": [],
      "name": "optionAuctionID",
      "outputs": [
        {
          "internalType": "uint256",
          "name": "",
          "type": "uint256"
        }
      ],
      "stateMutability": "view",
      "type": "function"
    },
    {
      "inputs": [],
      "name": "optionState",
      "outputs": [
        {
          "internalType": "address",
          "name": "nextOption",
          "type": "address"
        },
        {
          "internalType": "address",
          "name": "currentOption",
          "type": "address"
        },
        {
          "internalType": "uint32",
          "name": "nextOptionReadyAt",
          "type": "uint32"
        }
      ],
      "stateMutability": "view",
      "type": "function"
    },
    {
      "inputs": [],
      "name": "optionsPremiumPricer",
      "outputs": [
        {
          "internalType": "address",
          "name": "",
          "type": "address"
        }
      ],
      "stateMutability": "view",
      "type": "function"
    },
    {
      "inputs": [],
      "name": "overriddenStrikePrice",
      "outputs": [
        {
          "internalType": "uint256",
          "name": "",
          "type": "uint256"
        }
      ],
      "stateMutability": "view",
      "type": "function"
    },
    {
      "inputs": [],
      "name": "owner",
      "outputs": [
        {
          "internalType": "address",
          "name": "",
          "type": "address"
        }
      ],
      "stateMutability": "view",
      "type": "function"
    },
    {
      "inputs": [],
      "name": "performanceFee",
      "outputs": [
        {
          "internalType": "uint256",
          "name": "",
          "type": "uint256"
        }
      ],
      "stateMutability": "view",
      "type": "function"
    },
    {
      "inputs": [],
      "name": "premiumDiscount",
      "outputs": [
        {
          "internalType": "uint256",
          "name": "",
          "type": "uint256"
        }
      ],
      "stateMutability": "view",
      "type": "function"
    },
    {
      "inputs": [],
      "name": "pricePerShare",
      "outputs": [
        {
          "internalType": "uint256",
          "name": "",
          "type": "uint256"
        }
      ],
      "stateMutability": "view",
      "type": "function"
    },
    {
      "inputs": [
        {
          "internalType": "uint256",
          "name": "numShares",
          "type": "uint256"
        }
      ],
      "name": "redeem",
      "outputs": [],
      "stateMutability": "nonpayable",
      "type": "function"
    },
    {
      "inputs": [],
      "name": "renounceOwnership",
      "outputs": [],
      "stateMutability": "nonpayable",
      "type": "function"
    },
    {
      "inputs": [],
      "name": "rollToNextOption",
      "outputs": [],
      "stateMutability": "nonpayable",
      "type": "function"
    },
    {
      "inputs": [
        {
          "internalType": "uint256",
          "name": "",
          "type": "uint256"
        }
      ],
      "name": "roundPricePerShare",
      "outputs": [
        {
          "internalType": "uint256",
          "name": "",
          "type": "uint256"
        }
      ],
      "stateMutability": "view",
      "type": "function"
    },
    {
      "inputs": [
        {
          "internalType": "uint256",
          "name": "newAuctionDuration",
          "type": "uint256"
        }
      ],
      "name": "setAuctionDuration",
      "outputs": [],
      "stateMutability": "nonpayable",
      "type": "function"
    },
    {
      "inputs": [
        {
          "internalType": "uint256",
          "name": "newCap",
          "type": "uint256"
        }
      ],
      "name": "setCap",
      "outputs": [],
      "stateMutability": "nonpayable",
      "type": "function"
    },
    {
      "inputs": [
        {
          "internalType": "address",
          "name": "newFeeRecipient",
          "type": "address"
        }
      ],
      "name": "setFeeRecipient",
      "outputs": [],
      "stateMutability": "nonpayable",
      "type": "function"
    },
    {
      "inputs": [
        {
          "internalType": "uint256",
          "name": "newManagementFee",
          "type": "uint256"
        }
      ],
      "name": "setManagementFee",
      "outputs": [],
      "stateMutability": "nonpayable",
      "type": "function"
    },
    {
      "inputs": [
        {
          "internalType": "address",
          "name": "newKeeper",
          "type": "address"
        }
      ],
      "name": "setNewKeeper",
      "outputs": [],
      "stateMutability": "nonpayable",
      "type": "function"
    },
    {
      "inputs": [
        {
          "internalType": "address",
          "name": "newOptionsPremiumPricer",
          "type": "address"
        }
      ],
      "name": "setOptionsPremiumPricer",
      "outputs": [],
      "stateMutability": "nonpayable",
      "type": "function"
    },
    {
      "inputs": [
        {
          "internalType": "uint256",
          "name": "newPerformanceFee",
          "type": "uint256"
        }
      ],
      "name": "setPerformanceFee",
      "outputs": [],
      "stateMutability": "nonpayable",
      "type": "function"
    },
    {
      "inputs": [
        {
          "internalType": "uint256",
          "name": "newPremiumDiscount",
          "type": "uint256"
        }
      ],
      "name": "setPremiumDiscount",
      "outputs": [],
      "stateMutability": "nonpayable",
      "type": "function"
    },
    {
      "inputs": [
        {
          "internalType": "uint128",
          "name": "strikePrice",
          "type": "uint128"
        }
      ],
      "name": "setStrikePrice",
      "outputs": [],
      "stateMutability": "nonpayable",
      "type": "function"
    },
    {
      "inputs": [
        {
          "internalType": "address",
          "name": "newStrikeSelection",
          "type": "address"
        }
      ],
      "name": "setStrikeSelection",
      "outputs": [],
      "stateMutability": "nonpayable",
      "type": "function"
    },
    {
      "inputs": [
        {
          "internalType": "bytes",
          "name": "newSwapPath",
          "type": "bytes"
        }
      ],
      "name": "setSwapPath",
      "outputs": [],
      "stateMutability": "nonpayable",
      "type": "function"
    },
    {
      "inputs": [
        {
          "internalType": "uint256",
          "name": "minAmountOut",
          "type": "uint256"
        }
      ],
      "name": "settleAuctionAndSwap",
      "outputs": [],
      "stateMutability": "nonpayable",
      "type": "function"
    },
    {
      "inputs": [
        {
          "internalType": "address",
          "name": "account",
          "type": "address"
        }
      ],
      "name": "shareBalances",
      "outputs": [
        {
          "internalType": "uint256",
          "name": "heldByAccount",
          "type": "uint256"
        },
        {
          "internalType": "uint256",
          "name": "heldByVault",
          "type": "uint256"
        }
      ],
      "stateMutability": "view",
      "type": "function"
    },
    {
      "inputs": [
        {
          "internalType": "address",
          "name": "account",
          "type": "address"
        }
      ],
      "name": "shares",
      "outputs": [
        {
          "internalType": "uint256",
          "name": "",
          "type": "uint256"
        }
      ],
      "stateMutability": "view",
      "type": "function"
    },
    {
      "inputs": [],
      "name": "startAuction",
      "outputs": [],
      "stateMutability": "nonpayable",
      "type": "function"
    },
    {
      "inputs": [],
      "name": "strikeSelection",
      "outputs": [
        {
          "internalType": "address",
          "name": "",
          "type": "address"
        }
      ],
      "stateMutability": "view",
      "type": "function"
    },
    {
      "inputs": [],
      "name": "swapPath",
      "outputs": [
        {
          "internalType": "bytes",
          "name": "",
          "type": "bytes"
        }
      ],
      "stateMutability": "view",
      "type": "function"
    },
    {
      "inputs": [],
      "name": "symbol",
      "outputs": [
        {
          "internalType": "string",
          "name": "",
          "type": "string"
        }
      ],
      "stateMutability": "view",
      "type": "function"
    },
    {
      "inputs": [],
      "name": "totalBalance",
      "outputs": [
        {
          "internalType": "uint256",
          "name": "",
          "type": "uint256"
        }
      ],
      "stateMutability": "view",
      "type": "function"
    },
    {
      "inputs": [],
      "name": "totalPending",
      "outputs": [
        {
          "internalType": "uint256",
          "name": "",
          "type": "uint256"
        }
      ],
      "stateMutability": "view",
      "type": "function"
    },
    {
      "inputs": [],
      "name": "totalSupply",
      "outputs": [
        {
          "internalType": "uint256",
          "name": "",
          "type": "uint256"
        }
      ],
      "stateMutability": "view",
      "type": "function"
    },
    {
      "inputs": [
        {
          "internalType": "address",
          "name": "recipient",
          "type": "address"
        },
        {
          "internalType": "uint256",
          "name": "amount",
          "type": "uint256"
        }
      ],
      "name": "transfer",
      "outputs": [
        {
          "internalType": "bool",
          "name": "",
          "type": "bool"
        }
      ],
      "stateMutability": "nonpayable",
      "type": "function"
    },
    {
      "inputs": [
        {
          "internalType": "address",
          "name": "sender",
          "type": "address"
        },
        {
          "internalType": "address",
          "name": "recipient",
          "type": "address"
        },
        {
          "internalType": "uint256",
          "name": "amount",
          "type": "uint256"
        }
      ],
      "name": "transferFrom",
      "outputs": [
        {
          "internalType": "bool",
          "name": "",
          "type": "bool"
        }
      ],
      "stateMutability": "nonpayable",
      "type": "function"
    },
    {
      "inputs": [
        {
          "internalType": "address",
          "name": "newOwner",
          "type": "address"
        }
      ],
      "name": "transferOwnership",
      "outputs": [],
      "stateMutability": "nonpayable",
      "type": "function"
    },
    {
      "inputs": [],
      "name": "vaultParams",
      "outputs": [
        {
          "internalType": "bool",
          "name": "isPut",
          "type": "bool"
        },
        {
          "internalType": "uint8",
          "name": "decimals",
          "type": "uint8"
        },
        {
          "internalType": "address",
          "name": "asset",
          "type": "address"
        },
        {
          "internalType": "address",
          "name": "underlying",
          "type": "address"
        },
        {
          "internalType": "uint56",
          "name": "minimumSupply",
          "type": "uint56"
        },
        {
          "internalType": "uint104",
          "name": "cap",
          "type": "uint104"
        }
      ],
      "stateMutability": "view",
      "type": "function"
    },
    {
      "inputs": [],
      "name": "vaultState",
      "outputs": [
        {
          "internalType": "uint16",
          "name": "round",
          "type": "uint16"
        },
        {
          "internalType": "uint104",
          "name": "lockedAmount",
          "type": "uint104"
        },
        {
          "internalType": "uint104",
          "name": "lastLockedAmount",
          "type": "uint104"
        },
        {
          "internalType": "uint128",
          "name": "totalPending",
          "type": "uint128"
        },
        {
          "internalType": "uint128",
          "name": "queuedWithdrawShares",
          "type": "uint128"
        }
      ],
      "stateMutability": "view",
      "type": "function"
    },
    {
      "inputs": [
        {
          "internalType": "uint256",
          "name": "amount",
          "type": "uint256"
        }
      ],
      "name": "withdrawInstantly",
      "outputs": [],
      "stateMutability": "nonpayable",
      "type": "function"
    },
    {
      "inputs": [
        {
          "internalType": "address",
          "name": "",
          "type": "address"
        }
      ],
      "name": "withdrawals",
      "outputs": [
        {
          "internalType": "uint16",
          "name": "round",
          "type": "uint16"
        },
        {
          "internalType": "uint128",
          "name": "shares",
          "type": "uint128"
        }
      ],
      "stateMutability": "view",
      "type": "function"
    }
  ],
  "transactionHash": "0x0301dda56d07d4e33dc471271e8685bc72a7a7403b930acde99730591393c362",
  "args": [
    "0xD9D01A9F7C810EC035C0e42cB9E80Ef44D7f8692",
    "0x6275B63A4eE560004c34431e573314426906cee9",
    "0x3aB375D57EbB733E735a17eDFd3F973f6BC5de21",
    "0x836E115f0580c8350228E073949bf269F7BC4B62",
    "0x9EBC603bBf8309E1715a1678B5C13A4aE6c26452",
    "0xa5cd8D8effACB7Ad861e3797404924199D1463a5",
    "0x60aE616a2155Ee3d9A68541Ba4544862310933d4",
    "0x9Ad6C38BE94206cA50bb0d90783181662f0Cfa10"
  ],
  "solcInputHash": "2140ab137b588e633ff429756162e2c1",
  "bytecode": "0x6101806040523480156200001257600080fd5b506040516200628b3803806200628b83398101604081905262000035916200030b565b878786868686866001600160a01b038716620000815760405162461bcd60e51b8152602060048201526006602482015265042beeecae8d60d31b60448201526064015b60405180910390fd5b6001600160a01b038616620000c25760405162461bcd60e51b8152602060048201526006602482015265215f7573646360d01b604482015260640162000078565b6001600160a01b0383166200011a5760405162461bcd60e51b815260206004820152601360248201527f215f676e6f7369734561737941756374696f6e00000000000000000000000000604482015260640162000078565b6001600160a01b038516620001665760405162461bcd60e51b815260206004820152601160248201527010afb3b0b6b6b0a1b7b73a3937b63632b960791b604482015260640162000078565b6001600160a01b038416620001ad5760405162461bcd60e51b815260206004820152600c60248201526b0857db585c99da5b941bdbdb60a21b604482015260640162000078565b6001600160a01b038216620001f75760405162461bcd60e51b815260206004820152600f60248201526e10afbab734b9bbb0b82937baba32b960891b604482015260640162000078565b6001600160a01b038116620002425760405162461bcd60e51b815260206004820152601060248201526f215f756e6973776170466163746f727960801b604482015260640162000078565b6001600160601b0319606097881b811660805295871b861660a05293861b851660c05291851b841660e052841b831661010052831b82166101205290911b16610140526001600160a01b038616620002cf5760405162461bcd60e51b815260206004820152600f60248201526e215f6f546f6b656e466163746f727960881b604482015260640162000078565b505050505060601b6001600160601b0319166101605250620003b29050565b80516001600160a01b03811681146200030657600080fd5b919050565b600080600080600080600080610100898b03121562000328578384fd5b6200033389620002ee565b97506200034360208a01620002ee565b96506200035360408a01620002ee565b95506200036360608a01620002ee565b94506200037360808a01620002ee565b93506200038360a08a01620002ee565b92506200039360c08a01620002ee565b9150620003a360e08a01620002ee565b90509295985092959890939650565b60805160601c60a05160601c60c05160601c60e05160601c6101005160601c6101205160601c6101405160601c6101605160601c615de4620004a760003960008181610f2501526128ab015260008181610e270152613ff5015260008181610ed101526124ac015260008181610902015281816124320152613bc901526000818161081f01526122ac0152600081816105290152818161182f0152818161228401526144f9015260008181610a9301528181612488015281816128d001528181613c0f0152613fc3015260008181610d5201528181612fbd015281816130690152818161360701526136440152615de46000f3fe60806040526004361061047e5760003560e01c806395d89b4111610255578063c74c0fac11610144578063df5af13f116100c1578063f60f764511610085578063f60f764514611027578063f6326fb314611047578063f656ba511461104f578063f756fa2114611084578063f957a06714611099578063fe56e232146110b957600080fd5b8063df5af13f14610fa7578063e73c63d514610fbc578063e74b981b14610fd2578063ea00b1ca14610ff2578063f2fde38b1461100757600080fd5b8063d826492011610108578063d826492014610ebf578063db006a7514610ef3578063db43e86214610f13578063dc4e9bef14610f47578063dd62ed3e14610f6157600080fd5b8063c74c0fac14610e15578063ce7c2ac214610e49578063d13f1b3e14610e69578063d164cc1514610e89578063d5f2638214610ea957600080fd5b8063a6f7f5d6116101d2578063afa6626411610196578063afa6626414610d89578063b4d1d79514610da9578063b6b55f2514610dc0578063b9f8092b14610de0578063be9d7d5714610df557600080fd5b8063a6f7f5d614610cea578063a9059cbb14610d00578063aced166114610d20578063ad5c464814610d40578063ad7a672f14610d7457600080fd5b8063a083ff1711610219578063a083ff1714610c07578063a285c9e814610c6a578063a2db9d8314610c8c578063a457c2d714610caa578063a497e67414610cca57600080fd5b806395d89b4114610af1578063980db6f414610b0657806399530b0614610b265780639be43daa14610b3b5780639fcc2d7514610b5b57600080fd5b8063503c70aa1161037157806370a08231116102ee57806387153eb1116102b257806387153eb114610a3e5780638778878214610a6b57806389a3027114610a815780638b10cc7c14610ab55780638da5cb5b14610ad357600080fd5b806370a0823114610959578063715018a61461098f5780637a9262a2146109a45780637e108d5214610a0857806383536ff314610a2857600080fd5b806369b411701161033557806369b41170146108c55780636b64c769146108db5780636c10f66c146108f05780636f31ab341461092457806370897b231461093957600080fd5b8063503c70aa146107c257806355489bb2146107d8578063600a2cfb146107f8578063650cce8a1461080d5780636719b2ee1461084157600080fd5b8063355274ea116103ff5780633f90916a116103c35780633f90916a1461072e578063432833a61461074c5780634603c0aa14610762578063469048401461078257806347786d37146107a257600080fd5b8063355274ea1461068257806336efd16f146106a057806339509351146106c05780633ec143d3146106e05780633f23bb731461070e57600080fd5b806323b872dd1161044657806323b872dd146105635780632728f333146105835780632775d01c1461061657806330630da414610638578063313ce5671461065857600080fd5b806306fdde0314610483578063095ea7b3146104ae5780630cbf54c8146104de57806318160ddd146105025780631a92f6c214610517575b600080fd5b34801561048f57600080fd5b506104986110d9565b6040516104a591906158ce565b60405180910390f35b3480156104ba57600080fd5b506104ce6104c9366004615423565b61116b565b60405190151581526020016104a5565b3480156104ea57600080fd5b506104f460fb5481565b6040519081526020016104a5565b34801561050e57600080fd5b506099546104f4565b34801561052357600080fd5b5061054b7f000000000000000000000000000000000000000000000000000000000000000081565b6040516001600160a01b0390911681526020016104a5565b34801561056f57600080fd5b506104ce61057e3660046153e3565b611182565b34801561058f57600080fd5b5060cf5460d0546105d19161ffff8116916001600160681b03620100008304811692600160781b900416906001600160801b0380821691600160801b90041685565b6040805161ffff90961686526001600160681b03948516602087015293909216928401929092526001600160801b03918216606084015216608082015260a0016104a5565b34801561062257600080fd5b506106366106313660046155cc565b611233565b005b34801561064457600080fd5b5061063661065336600461538f565b6113d6565b34801561066457600080fd5b5060cc54610100900460ff1660405160ff90911681526020016104a5565b34801561068e57600080fd5b5060ce546001600160681b03166104f4565b3480156106ac57600080fd5b506106366106bb3660046155e4565b61146e565b3480156106cc57600080fd5b506104ce6106db366004615423565b6114f6565b3480156106ec57600080fd5b5060f9546106fb9061ffff1681565b60405161ffff90911681526020016104a5565b34801561071a57600080fd5b506104f461072936600461538f565b611532565b34801561073a57600080fd5b5060d0546001600160801b03166104f4565b34801561075857600080fd5b506104f460fc5481565b34801561076e57600080fd5b5061063661077d36600461538f565b611585565b34801561078e57600080fd5b5060d35461054b906001600160a01b031681565b3480156107ae57600080fd5b506106366107bd3660046155cc565b611627565b3480156107ce57600080fd5b506104f460fd5481565b3480156107e457600080fd5b506106366107f33660046155a5565b611702565b34801561080457600080fd5b506106366117c3565b34801561081957600080fd5b5061054b7f000000000000000000000000000000000000000000000000000000000000000081565b34801561084d57600080fd5b5061089461085c36600461538f565b60c96020526000908152604090205461ffff8116906201000081046001600160681b031690600160781b90046001600160801b031683565b6040805161ffff90941684526001600160681b0390921660208401526001600160801b0316908201526060016104a5565b3480156108d157600080fd5b506104f461038481565b3480156108e757600080fd5b5061063661191e565b3480156108fc57600080fd5b5061054b7f000000000000000000000000000000000000000000000000000000000000000081565b34801561093057600080fd5b5061063661197e565b34801561094557600080fd5b506106366109543660046155cc565b6119b5565b34801561096557600080fd5b506104f461097436600461538f565b6001600160a01b031660009081526097602052604090205490565b34801561099b57600080fd5b50610636611a7c565b3480156109b057600080fd5b506109e66109bf36600461538f565b60cb6020526000908152604090205461ffff8116906201000090046001600160801b031682565b6040805161ffff90931683526001600160801b039091166020830152016104a5565b348015610a1457600080fd5b50610636610a233660046155cc565b611ab2565b348015610a3457600080fd5b506104f460f75481565b348015610a4a57600080fd5b506104f4610a593660046155cc565b60ca6020526000908152604090205481565b348015610a7757600080fd5b506104f460d55481565b348015610a8d57600080fd5b5061054b7f000000000000000000000000000000000000000000000000000000000000000081565b348015610ac157600080fd5b5060d2546001600160a01b031661054b565b348015610adf57600080fd5b506065546001600160a01b031661054b565b348015610afd57600080fd5b50610498611ced565b348015610b1257600080fd5b50610636610b213660046154dc565b611cfc565b348015610b3257600080fd5b506104f4611df0565b348015610b4757600080fd5b50610636610b563660046155cc565b611e2a565b348015610b6757600080fd5b5060cc5460cd5460ce54610bb79260ff808216936101008304909116926001600160a01b036201000090930483169282169166ffffffffffffff600160a01b90910416906001600160681b031686565b60408051961515875260ff90951660208701526001600160a01b03938416948601949094529116606084015266ffffffffffffff1660808301526001600160681b031660a082015260c0016104a5565b348015610c1357600080fd5b5060d15460d254610c3e916001600160a01b039081169190811690600160a01b900463ffffffff1683565b604080516001600160a01b03948516815293909216602084015263ffffffff16908201526060016104a5565b348015610c7657600080fd5b5060d254600160a01b900463ffffffff166104f4565b348015610c9857600080fd5b5060d1546001600160a01b031661054b565b348015610cb657600080fd5b506104ce610cc5366004615423565b611f1b565b348015610cd657600080fd5b50610636610ce53660046155cc565b611fb4565b348015610cf657600080fd5b506104f460d65481565b348015610d0c57600080fd5b506104ce610d1b366004615423565b612071565b348015610d2c57600080fd5b5060d45461054b906001600160a01b031681565b348015610d4c57600080fd5b5061054b7f000000000000000000000000000000000000000000000000000000000000000081565b348015610d8057600080fd5b506104f461207e565b348015610d9557600080fd5b5060f55461054b906001600160a01b031681565b348015610db557600080fd5b506104f462093a8081565b348015610dcc57600080fd5b50610636610ddb3660046155cc565b61211d565b348015610dec57600080fd5b50610636612191565b348015610e0157600080fd5b50610636610e103660046155cc565b612358565b348015610e2157600080fd5b5061054b7f000000000000000000000000000000000000000000000000000000000000000081565b348015610e5557600080fd5b506104f4610e6436600461538f565b61250e565b348015610e7557600080fd5b50610636610e843660046155cc565b61252b565b348015610e9557600080fd5b50610636610ea436600461538f565b6125ef565b348015610eb557600080fd5b506104f460f85481565b348015610ecb57600080fd5b5061054b7f000000000000000000000000000000000000000000000000000000000000000081565b348015610eff57600080fd5b50610636610f0e3660046155cc565b61267e565b348015610f1f57600080fd5b5061054b7f000000000000000000000000000000000000000000000000000000000000000081565b348015610f5357600080fd5b5060fe546104ce9060ff1681565b348015610f6d57600080fd5b506104f4610f7c3660046153ab565b6001600160a01b03918216600090815260986020908152604080832093909416825291909152205490565b348015610fb357600080fd5b506104986126eb565b348015610fc857600080fd5b506104f460fa5481565b348015610fde57600080fd5b50610636610fed36600461538f565b612779565b348015610ffe57600080fd5b5061063661286c565b34801561101357600080fd5b5061063661102236600461538f565b612b14565b34801561103357600080fd5b50610636611042366004615549565b612baf565b610636612f90565b34801561105b57600080fd5b5061106f61106a36600461538f565b6130d6565b604080519283526020830191909152016104a5565b34801561109057600080fd5b506106366131b9565b3480156110a557600080fd5b5060f65461054b906001600160a01b031681565b3480156110c557600080fd5b506106366110d43660046155cc565b61320e565b6060609a80546110e890615bae565b80601f016020809104026020016040519081016040528092919081815260200182805461111490615bae565b80156111615780601f1061113657610100808354040283529160200191611161565b820191906000526020600020905b81548152906001019060200180831161114457829003601f168201915b5050505050905090565b60006111783384846132ef565b5060015b92915050565b600061118f848484613414565b6001600160a01b0384166000908152609860209081526040808320338452909152902054828110156112195760405162461bcd60e51b815260206004820152602860248201527f45524332303a207472616e7366657220616d6f756e74206578636565647320616044820152676c6c6f77616e636560c01b60648201526084015b60405180910390fd5b61122685338584036132ef565b60019150505b9392505050565b600260015414156112565760405162461bcd60e51b8152600401611210906159a6565b600260015533600090815260c96020526040902060cf5461ffff168261128e5760405162461bcd60e51b815260040161121090615985565b815461ffff1681146112d25760405162461bcd60e51b815260206004820152600d60248201526c125b9d985b1a59081c9bdd5b99609a1b6044820152606401611210565b81546201000090046001600160681b0316838110156113235760405162461bcd60e51b815260206004820152600d60248201526c115e18d9595908185b5bdd5b9d609a1b6044820152606401611210565b61132d81856135e4565b83546001600160681b0391909116620100000262010000600160781b031990911617835560d054611367906001600160801b0316856135e4565b60d080546001600160801b0319166001600160801b0392909216919091179055604080518581526020810184905233917fab2daf3c146ca6416cbccd2a86ed2ba995e171ef6319df14a38aef01403a9c96910160405180910390a26113cc33856135f0565b5050600180555050565b6065546001600160a01b031633146114005760405162461bcd60e51b815260040161121090615950565b6001600160a01b03811661144c5760405162461bcd60e51b815260206004820152601360248201527210b732bba9ba3934b5b2a9b2b632b1ba34b7b760691b6044820152606401611210565b60f680546001600160a01b0319166001600160a01b0392909216919091179055565b600260015414156114915760405162461bcd60e51b8152600401611210906159a6565b6002600155816114b35760405162461bcd60e51b815260040161121090615985565b6001600160a01b0381166114c657600080fd5b6114d08282613751565b60cc546114ee906201000090046001600160a01b03163330856139e3565b505060018055565b3360008181526098602090815260408083206001600160a01b0387168452909152812054909161117891859061152d908690615a29565b6132ef565b60cc5460009060ff610100909104168161156861154e60995490565b61155661207e565b60d0546001600160801b031685613a4e565b905061157d6115768561250e565b8284613a8e565b949350505050565b6065546001600160a01b031633146115af5760405162461bcd60e51b815260040161121090615950565b6001600160a01b0381166116055760405162461bcd60e51b815260206004820152601860248201527f216e65774f7074696f6e735072656d69756d50726963657200000000000000006044820152606401611210565b60f580546001600160a01b0319166001600160a01b0392909216919091179055565b6065546001600160a01b031633146116515760405162461bcd60e51b815260040161121090615950565b6000811161168b5760405162461bcd60e51b81526020600482015260076024820152660216e65774361760cc1b6044820152606401611210565b61169481613af0565b60ce54604080516001600160681b039092168252602082018390527f5f86edbb9d92228a9edc3f0ebc0f001bda1ea345ac7335e0eeef3504b31d1a1c910160405180910390a160ce80546cffffffffffffffffffffffffff19166001600160681b0392909216919091179055565b6065546001600160a01b0316331461172c5760405162461bcd60e51b815260040161121090615950565b6002600154141561174f5760405162461bcd60e51b8152600401611210906159a6565b60026001556001600160801b0381166117995760405162461bcd60e51b815260206004820152600c60248201526b21737472696b65507269636560a01b6044820152606401611210565b6001600160801b031660fa5560cf5460f9805461ffff191661ffff90921691909117905560018055565b60d4546001600160a01b031633146117ed5760405162461bcd60e51b8152600401611210906158e1565b600260015414156118105760405162461bcd60e51b8152600401611210906159a6565b600260015560d2546040516358ffbb3d60e01b81526001600160a01b037f000000000000000000000000000000000000000000000000000000000000000081166004830152909116602482015260009073853cC5f4780D81e4e5C3649C2d1ad968338517da906358ffbb3d9060440160206040518083038186803b15801561189757600080fd5b505af41580156118ab573d6000803e3d6000fd5b505050506040513d601f19601f820116820180604052508101906118cf91906154c4565b60cf549091506118ee906201000090046001600160681b0316826135e4565b60cf80546001600160681b0392909216620100000262010000600160781b03199092169190911790555060018055565b60d4546001600160a01b031633146119485760405162461bcd60e51b8152600401611210906158e1565b6002600154141561196b5760405162461bcd60e51b8152600401611210906159a6565b6002600155611978613b3a565b60018055565b600260015414156119a15760405162461bcd60e51b8152600401611210906159a6565b600260018190555061197860006001613d33565b6065546001600160a01b031633146119df5760405162461bcd60e51b815260040161121090615950565b6119ed620f42406064615b4c565b8110611a3b5760405162461bcd60e51b815260206004820152601760248201527f496e76616c696420706572666f726d616e6365206665650000000000000000006044820152606401611210565b60d55460408051918252602082018390527f24867dfb6fcb9970a07be21024956524abe7a1837faa903ff0e99aaa40cf893e910160405180910390a160d555565b6065546001600160a01b03163314611aa65760405162461bcd60e51b815260040161121090615950565b611ab06000613ee2565b565b60026001541415611ad55760405162461bcd60e51b8152600401611210906159a6565b600260015580611b145760405162461bcd60e51b815260206004820152600a602482015269216e756d53686172657360b01b6044820152606401611210565b33600090815260c960205260409020546201000090046001600160681b0316151580611b5e575033600090815260c96020526040902054600160781b90046001600160801b031615155b15611b6f57611b6f60006001613d33565b60cf5433600081815260cb60209081526040918290208054835187815261ffff96871693810184905292959194911685149290917f0c53c82ad07e2d592d88ece3b066777dd60f1118e2a081b380efc4358f0d9e2a910160405180910390a281546201000090046001600160801b031660008215611bf857611bf18287613f34565b9050611c5b565b8115611c3a5760405162461bcd60e51b81526020600482015260116024820152704578697374696e6720776974686472617760781b6044820152606401611210565b5033600090815260cb60205260409020805461ffff191661ffff8616179055845b611c6481613f40565b33600090815260cb6020526040812080546001600160801b03808516620100000262010000600160901b03199092169190911790915560d054611cb091600160801b9091041688613f34565b9050611cbb81613f40565b60d080546001600160801b03808416600160801b029116179055611ce0333089613414565b5050600180555050505050565b6060609b80546110e890615bae565b6065546001600160a01b03163314611d265760405162461bcd60e51b815260040161121090615950565b60026001541415611d495760405162461bcd60e51b8152600401611210906159a6565b600260015560fe5460ff16611d915760405162461bcd60e51b815260206004820152600e60248201526d10b4b9aab9b231a0bab1ba34b7b760911b6044820152606401611210565b611d9b8282613f8a565b611ddb5760405162461bcd60e51b8152602060048201526011602482015270092dcecc2d8d2c840e6eec2e040e0c2e8d607b1b6044820152606401611210565b611de760ff838361525c565b50506001805550565b6000611e25611dfe60995490565b611e0661207e565b60d05460cc546001600160801b0390911690610100900460ff16613a4e565b905090565b60026001541415611e4d5760405162461bcd60e51b8152600401611210906159a6565b600260015580611e8c5760405162461bcd60e51b815260206004820152600a602482015269216e756d526f756e647360b01b6044820152606401611210565b60cf5461ffff1660005b82811015611de7576000611eaa8284615a29565b600081815260ca602052604090205490915015611ef75760405162461bcd60e51b815260206004820152600b60248201526a125b9a5d1a585b1a5e995960aa1b6044820152606401611210565b600090815260ca602052604090206001905580611f1381615be9565b915050611e96565b3360009081526098602090815260408083206001600160a01b038616845290915281205482811015611f9d5760405162461bcd60e51b815260206004820152602560248201527f45524332303a2064656372656173656420616c6c6f77616e63652062656c6f77604482015264207a65726f60d81b6064820152608401611210565b611faa33858584036132ef565b5060019392505050565b6065546001600160a01b03163314611fde5760405162461bcd60e51b815260040161121090615950565b610e108110156120305760405162461bcd60e51b815260206004820152601860248201527f496e76616c69642061756374696f6e206475726174696f6e00000000000000006044820152606401611210565b60fb5460408051918252602082018390527f5acd982e2240ed224a69aa03dab039d3797c108e4b5f288cd7dd6ca181b275f3910160405180910390a160fb55565b6000611178338484613414565b60cc546040516370a0823160e01b8152306004820152600091611e2591620100009091046001600160a01b0316906370a082319060240160206040518083038186803b1580156120cd57600080fd5b505afa1580156120e1573d6000803e3d6000fd5b505050506040513d601f19601f8201168201806040525081019061210591906154c4565b60cf546201000090046001600160681b031690613f34565b600260015414156121405760405162461bcd60e51b8152600401611210906159a6565b6002600155806121625760405162461bcd60e51b815260040161121090615985565b61216c8133613751565b60cc5461218a906201000090046001600160a01b03163330846139e3565b5060018055565b60d4546001600160a01b031633146121bb5760405162461bcd60e51b8152600401611210906158e1565b600260015414156121de5760405162461bcd60e51b8152600401611210906159a6565b600260018190555060008060006121f660fd5461406d565b60fd8190559194509250905061220b82613af0565b60cf805462010000600160781b031916620100006001600160681b0385160217905560405182815233906001600160a01b038516907f045c558fdce4714c5816d53820d27420f4cd860892df203fe636384d8d19aa019060200160405180910390a3604051632904c23960e01b81526001600160a01b037f0000000000000000000000000000000000000000000000000000000000000000811660048301527f000000000000000000000000000000000000000000000000000000000000000081166024830152841660448201526064810183905273853cC5f4780D81e4e5C3649C2d1ad968338517da90632904c2399060840160206040518083038186803b15801561231757600080fd5b505af415801561232b573d6000803e3d6000fd5b505050506040513d601f19601f8201168201806040525081019061234f91906154c4565b50611de7613b3a565b60d4546001600160a01b031633146123825760405162461bcd60e51b8152600401611210906158e1565b600260015414156123a55760405162461bcd60e51b8152600401611210906159a6565b600260015560fe5460ff166123ed5760405162461bcd60e51b815260206004820152600e60248201526d10b4b9aab9b231a0bab1ba34b7b760911b6044820152606401611210565b6000811161242d5760405162461bcd60e51b815260206004820152600d60248201526c085b5a5b905b5bdd5b9d13dd5d609a1b6044820152606401611210565b6124597f000000000000000000000000000000000000000000000000000000000000000060fc546143eb565b604051637f0f41d760e01b815273853cC5f4780D81e4e5C3649C2d1ad968338517da90637f0f41d7906124d7907f00000000000000000000000000000000000000000000000000000000000000009085907f00000000000000000000000000000000000000000000000000000000000000009060ff906004016157b7565b60006040518083038186803b1580156124ef57600080fd5b505af4158015612503573d6000803e3d6000fd5b505060018055505050565b600080600061251c846130d6565b909250905061157d8282613f34565b6065546001600160a01b031633146125555760405162461bcd60e51b815260040161121090615950565b60008111801561256f575061256c600a6064615b4c565b81105b6125ae5760405162461bcd60e51b815260206004820152601060248201526f125b9d985b1a5908191a5cd8dbdd5b9d60821b6044820152606401611210565b60f75460408051918252602082018390527f4cd657fde404967d63a338fb06c5c98751a9df57dfae6dc333a432faf8a5f656910160405180910390a160f755565b6065546001600160a01b031633146126195760405162461bcd60e51b815260040161121090615950565b6001600160a01b03811661265c5760405162461bcd60e51b815260206004820152600a60248201526910b732bba5b2b2b832b960b11b6044820152606401611210565b60d480546001600160a01b0319166001600160a01b0392909216919091179055565b600260015414156126a15760405162461bcd60e51b8152600401611210906159a6565b6002600155806126e05760405162461bcd60e51b815260206004820152600a602482015269216e756d53686172657360b01b6044820152606401611210565b61218a816000613d33565b60ff80546126f890615bae565b80601f016020809104026020016040519081016040528092919081815260200182805461272490615bae565b80156127715780601f1061274657610100808354040283529160200191612771565b820191906000526020600020905b81548152906001019060200180831161275457829003601f168201915b505050505081565b6065546001600160a01b031633146127a35760405162461bcd60e51b815260040161121090615950565b6001600160a01b0381166127ec5760405162461bcd60e51b815260206004820152601060248201526f085b995dd19959549958da5c1a595b9d60821b6044820152606401611210565b60d3546001600160a01b038281169116141561284a5760405162461bcd60e51b815260206004820152601860248201527f4d757374206265206e657720666565526563697069656e7400000000000000006044820152606401611210565b60d380546001600160a01b0319166001600160a01b0392909216919091179055565b6002600154141561288f5760405162461bcd60e51b8152600401611210906159a6565b600260015560d2546040805160c0810182526001600160a01b037f0000000000000000000000000000000000000000000000000000000000000000811682527f00000000000000000000000000000000000000000000000000000000000000008116602083019081529381168284018181526103846060850190815260f95461ffff9081166080870190815260fa5460a0880190815260f65460f55460f7549a516334d0abdd60e21b815291891660048301528816602482015260448101999099528751871660648a0152985186166084890152925190941660a48701525160c48601525190911660e4840152925161010483015260cc61012483015260cf6101448301529060009081908190819073853cC5f4780D81e4e5C3649C2d1ad968338517da9063d342af74906101640160806040518083038186803b1580156129d657600080fd5b505af41580156129ea573d6000803e3d6000fd5b505050506040513d601f19601f82011682018060405250810190612a0e919061544e565b93509350935093507fa217999b1c125c2a996f712c5f26a28addad7167bd8a67d5bd5b2a751148abb08282604051612a50929190918252602082015260400190565b60405180910390a1612a6183613af0565b6001600160681b03831660f85560d180546001600160a01b0319166001600160a01b0386161790556000612a9742610384613f34565b905063ffffffff811115612aed5760405162461bcd60e51b815260206004820152601860248201527f4f766572666c6f77206e6578744f7074696f6e526561647900000000000000006044820152606401611210565b60d2805463ffffffff60a01b1916600160a01b63ffffffff841602179055611ce087614465565b6065546001600160a01b03163314612b3e5760405162461bcd60e51b815260040161121090615950565b6001600160a01b038116612ba35760405162461bcd60e51b815260206004820152602660248201527f4f776e61626c653a206e6577206f776e657220697320746865207a65726f206160448201526564647265737360d01b6064820152608401611210565b612bac81613ee2565b50565b600054610100900460ff1680612bc8575060005460ff16155b612be45760405162461bcd60e51b815260040161121090615902565b600054610100900460ff16158015612c06576000805461ffff19166101011790555b612ccb612c16602085018561538f565b612c26604086016020870161538f565b612c36606087016040880161538f565b60608701356080880135612c4d60a08a018a6159dd565b8080601f016020809104026020016040519081016040528093929190818152602001838380828437600092019190915250612c8f9250505060c08b018b6159dd565b8080601f0160208091040260200160405190810160405280939291908181526020018383808284376000920191909152508c92506145db915050565b6000612cde610100850160e0860161538f565b6001600160a01b03161415612d2e5760405162461bcd60e51b815260206004820152601660248201527510afb7b83a34b7b739a83932b6b4bab6a83934b1b2b960511b6044820152606401611210565b6000612d426101208501610100860161538f565b6001600160a01b03161415612d8d5760405162461bcd60e51b815260206004820152601160248201527010afb9ba3934b5b2a9b2b632b1ba34b7b760791b6044820152606401611210565b6000612da161014085016101208601615651565b63ffffffff16118015612dd55750612dbb600a6064615b4c565b612dcd61014085016101208601615651565b63ffffffff16105b612e155760405162461bcd60e51b81526020600482015260116024820152700857dc1c995b5a5d5b511a5cd8dbdd5b9d607a1b6044820152606401611210565b610e108361014001351015612e605760405162461bcd60e51b815260206004820152601160248201527010afb0bab1ba34b7b7223ab930ba34b7b760791b6044820152606401611210565b612e71610100840160e0850161538f565b60f580546001600160a01b0319166001600160a01b0392909216919091179055612ea36101208401610100850161538f565b60f680546001600160a01b0319166001600160a01b0392909216919091179055612ed561014084016101208501615651565b63ffffffff1660f75561014083013560fb55612ef96101808401610160850161548c565b60fe805460ff1916911515919091179055612f1c6101808401610160850161548c565b15612f7957612f37612f326101808501856159dd565b613f8a565b612f5d5760405162461bcd60e51b81526020600482015260006024820152604401611210565b612f6b6101808401846159dd565b612f779160ff9161525c565b505b8015612f8b576000805461ff00191690555b505050565b60026001541415612fb35760405162461bcd60e51b8152600401611210906159a6565b600260015560cc547f00000000000000000000000000000000000000000000000000000000000000006001600160a01b039081166201000090920416146130245760405162461bcd60e51b8152602060048201526005602482015264042ae8aa8960db1b6044820152606401611210565b6000341161305d5760405162461bcd60e51b81526020600482015260066024820152652176616c756560d01b6044820152606401611210565b6130673433613751565b7f00000000000000000000000000000000000000000000000000000000000000006001600160a01b031663d0e30db0346040518263ffffffff1660e01b81526004016000604051808303818588803b1580156130c257600080fd5b505af1158015612503573d6000803e3d6000fd5b6001600160a01b038116600090815260c9602090815260408083208151606081018352905461ffff81168083526201000082046001600160681b031694830194909452600160781b90046001600160801b031691810191909152829160011115613158575050506001600160a01b031660009081526097602052604081205491565b60cf54815161ffff908116600090815260ca602052604081205460cc54919361318e93869391169190610100900460ff1661481a565b90506131af856001600160a01b031660009081526097602052604090205490565b9590945092505050565b600260015414156131dc5760405162461bcd60e51b8152600401611210906159a6565b600260015560006131eb61488b565b60fd549091506131fb90826135e4565b6001600160801b031660fd555060018055565b6065546001600160a01b031633146132385760405162461bcd60e51b815260040161121090615950565b613246620f42406064615b4c565b811061328d5760405162461bcd60e51b8152602060048201526016602482015275496e76616c6964206d616e6167656d656e742066656560501b6044820152606401611210565b60006132aa63031ba3096132a484620f4240614a48565b90614a54565b60d65460408051918252602082018590529192507f4e874b007ab14f7e263baefd44951834c8266f4f224d1092e49e9c254354cc54910160405180910390a160d65550565b6001600160a01b0383166133515760405162461bcd60e51b8152602060048201526024808201527f45524332303a20617070726f76652066726f6d20746865207a65726f206164646044820152637265737360e01b6064820152608401611210565b6001600160a01b0382166133b25760405162461bcd60e51b815260206004820152602260248201527f45524332303a20617070726f766520746f20746865207a65726f206164647265604482015261737360f01b6064820152608401611210565b6001600160a01b0383811660008181526098602090815260408083209487168084529482529182902085905590518481527f8c5be1e5ebec7d5bd14f71427d1e84f3dd0314c0f7b2291e5b200ac8c7c3b92591015b60405180910390a3505050565b6001600160a01b0383166134785760405162461bcd60e51b815260206004820152602560248201527f45524332303a207472616e736665722066726f6d20746865207a65726f206164604482015264647265737360d81b6064820152608401611210565b6001600160a01b0382166134da5760405162461bcd60e51b815260206004820152602360248201527f45524332303a207472616e7366657220746f20746865207a65726f206164647260448201526265737360e81b6064820152608401611210565b6001600160a01b038316600090815260976020526040902054818110156135525760405162461bcd60e51b815260206004820152602660248201527f45524332303a207472616e7366657220616d6f756e7420657863656564732062604482015265616c616e636560d01b6064820152608401611210565b6001600160a01b03808516600090815260976020526040808220858503905591851681529081208054849290613589908490615a29565b92505081905550826001600160a01b0316846001600160a01b03167fddf252ad1be2c89b69c2b068fc378daa952ba7f163c4a11628f55a4df523b3ef846040516135d591815260200190565b60405180910390a35b50505050565b600061122c8284615b6b565b60cc546001600160a01b03620100009091048116907f00000000000000000000000000000000000000000000000000000000000000001681141561373d57604051632e1a7d4d60e01b8152600481018390527f00000000000000000000000000000000000000000000000000000000000000006001600160a01b031690632e1a7d4d90602401600060405180830381600087803b15801561369057600080fd5b505af11580156136a4573d6000803e3d6000fd5b505050506000836001600160a01b03168360405160006040518083038185875af1925050503d80600081146136f5576040519150601f19603f3d011682016040523d82523d6000602084013e6136fa565b606091505b50509050806135de5760405162461bcd60e51b815260206004820152600f60248201526e151c985b9cd9995c8819985a5b1959608a1b6044820152606401611210565b612f8b6001600160a01b0382168484614a60565b60cf5461ffff16600061376c8461376661207e565b90613f34565b60ce549091506001600160681b03168111156137b75760405162461bcd60e51b815260206004820152600a6024820152690457863656564206361760b41b6044820152606401611210565b60cd54600160a01b900466ffffffffffffff168110156138105760405162461bcd60e51b8152602060048201526014602482015273496e73756666696369656e742062616c616e636560601b6044820152606401611210565b60408051858152602081018490526001600160a01b038516917f90890809c654f11d6e72a28fa60149770a0d11ec6c92319d6ceb2bb0a4ea1a15910160405180910390a26001600160a01b038316600090815260c9602090815260408083208151606081018352905461ffff81168083526201000082046001600160681b031683860152600160781b9091046001600160801b031682840152845260ca90925282205460cc549192916138cf918491879190610100900460ff1661481a565b8251909150869061ffff168514156139005760208301516000906138fc906001600160681b031689613f34565b9150505b61390981613af0565b6040805160608101825261ffff80881682526001600160681b0380851660208085019182526001600160801b038089168688019081526001600160a01b038e16600090815260c990935296822095518654935197518216600160781b02600160781b600160f81b03199890951662010000026effffffffffffffffffffffffffffff1990941695169490941791909117949094161790915560d0546139af911689613f34565b90506139ba81613f40565b60d080546001600160801b0319166001600160801b039290921691909117905550505050505050565b6040516001600160a01b03808516602483015283166044820152606481018290526135de9085906323b872dd60e01b906084015b60408051601f198184030181529190526020810180516001600160e01b03166001600160e01b031990931692909217909152614a90565b600080613a5c83600a615aa4565b905060008611613a6c5780613a84565b613a84866132a4613a7d88886135e4565b8490614a48565b9695505050505050565b600060018311613ad85760405162461bcd60e51b8152602060048201526015602482015274496e76616c6964206173736574506572536861726560581b6044820152606401611210565b61157d613ae683600a615aa4565b6132a48686614a48565b6001600160681b03811115612bac5760405162461bcd60e51b815260206004820152601060248201526f13dd995c999b1bddc81d5a5b9d0c4c0d60821b6044820152606401611210565b6040805160c081018252600080825260208201819052918101829052606081018290526080810182905260a081019190915260f85480613bb45760405162461bcd60e51b81526020600482015260156024820152742163757272656e744f746f6b656e5072656d69756d60581b6044820152606401611210565b60fe5460d2546001600160a01b0390811684527f000000000000000000000000000000000000000000000000000000000000000016602084015260ff1680613c0d5760cc546201000090046001600160a01b0316613c2f565b7f00000000000000000000000000000000000000000000000000000000000000005b6001600160a01b0316604084015280613c525760cc54610100900460ff16613c55565b60065b60ff16606084019081526080840183815260fb5460a0860190815260408051633baf17fd60e21b815287516001600160a01b03908116600483015260208901518116602483015291880151909116604482015292516064840152905160848301525160a482015273853cC5f4780D81e4e5C3649C2d1ad968338517da9063eebc5ff49060c40160206040518083038186803b158015613cf357600080fd5b505af4158015613d07573d6000803e3d6000fd5b505050506040513d601f19601f82011682018060405250810190613d2b91906154c4565b60fc55505050565b33600090815260c9602090815260408083208151606081018352905461ffff8082168084526201000083046001600160681b031684870152600160781b9092046001600160801b03168385015260cf5491865260ca9094529184205460cc5491949290931692613dae9185918591610100900460ff1661481a565b905083613dbb5784613dbd565b805b945084613dcb575050505050565b80851115613e0f5760405162461bcd60e51b81526020600482015260116024820152704578636565647320617661696c61626c6560781b6044820152606401611210565b825161ffff16821115613e3c5733600090815260c960205260409020805462010000600160781b03191690555b613e4585613f40565b613e4f81866135e4565b33600081815260c960205260409081902080546001600160801b0394909416600160781b02600160781b600160f81b0319909416939093179092558451915190917fe5b754fb1abb7f01b499791d0b820ae3b6af3424ac1c59768edb53f4ec31a92991613ec89189825261ffff16602082015260400190565b60405180910390a2613edb303387613414565b5050505050565b606580546001600160a01b038381166001600160a01b0319831681179093556040519116919082907f8be0079c531659141344cd1fd0a4f28419497f9722a3daafe3b4186f6b6457e090600090a35050565b600061122c8284615a29565b6001600160801b03811115612bac5760405162461bcd60e51b815260206004820152601060248201526f09eeccae4ccd8deee40ead2dce86264760831b6044820152606401611210565b60cc5460405163055a2bef60e41b81526000917314D4aE61f7143E4b48ffb8b6eF39a3dC31F0007F916355a2bef09161401d91879187917f0000000000000000000000000000000000000000000000000000000000000000916201000090046001600160a01b0316907f000000000000000000000000000000000000000000000000000000000000000090600401615881565b60206040518083038186803b15801561403557600080fd5b505af4158015614049573d6000803e3d6000fd5b505050506040513d601f19601f8201168201806040525081019061122c91906154a8565b60d25460009081908190600160a01b900463ffffffff164210156140bc5760405162461bcd60e51b815260206004820152600660248201526521726561647960d01b6044820152606401611210565b60d1546001600160a01b03169250826141055760405162461bcd60e51b815260206004820152600b60248201526a10b732bc3a27b83a34b7b760a91b6044820152606401611210565b60d3546040805160c08101825260cc54610100810460ff16825291516370a0823160e01b81523060048201526001600160a01b039384169360009384938493849373853cC5f4780D81e4e5C3649C2d1ad968338517da9363633c14269360cf939092602084019262010000900416906370a082319060240160206040518083038186803b15801561419557600080fd5b505afa1580156141a9573d6000803e3d6000fd5b505050506040513d601f19601f820116820180604052508101906141cd91906154c4565b81526020016141db60995490565b815260208082018f905260d55460408084019190915260d65460609384015280516001600160e01b031960e088901b16815260048101959095528351602486015290830151604485015282015160648401528101516084830152608081015160a483015260a0015160c482015260e40160c06040518083038186803b15801561426357600080fd5b505af4158015614277573d6000803e3d6000fd5b505050506040513d601f19601f8201168201806040525081019061429b9190615608565b809750819850829950839650849b50859c505050505050508760d160010160006101000a8154816001600160a01b0302191690836001600160a01b03160217905550600060d160000160006101000a8154816001600160a01b0302191690836001600160a01b03160217905550600060cf60000160009054906101000a900461ffff1661ffff1690508160ca600083815260200190815260200160002081905550856001600160a01b03167f0a242f7ecaf711036ca770774ceffae28e60ef042ac113ddd187f2631db0c00685858460405161438a939291909283526020830191909152604082015260600190565b60405180910390a260d080546001600160801b03191690556143ad816001615a29565b60cf805461ffff191661ffff92909216919091179055506143d090503084614b62565b80156143e0576143e084826135f0565b505050509193909250565b604051632e99361160e01b8152600481018290526001600160a01b03831690632e99361190602401602060405180830381600087803b15801561442d57600080fd5b505af1158015614441573d6000803e3d6000fd5b505050506040513d601f19601f82011682018060405250810190612f8b91906154c4565b60cf546201000090046001600160681b03166001600160a01b038216156144b15760cf80546cffffffffffffffffffffffffff60781b1916600160781b6001600160681b038416021790555b60cf805462010000600160781b031916905560d280546001600160a01b03191690556001600160a01b038216156145d757604051636c6fe87f60e11b81526001600160a01b037f000000000000000000000000000000000000000000000000000000000000000016600482015260009073853cC5f4780D81e4e5C3649C2d1ad968338517da9063d8dfd0fe9060240160206040518083038186803b15801561455857600080fd5b505af415801561456c573d6000803e3d6000fd5b505050506040513d601f19601f8201168201806040525081019061459091906154c4565b9050336001600160a01b0316836001600160a01b03167f7e830f7c1771deb1bdb35c4a7e6051bbac32b376f7f4e4976b8618b0b11997f78360405161340791815260200190565b5050565b600054610100900460ff16806145f4575060005460ff16155b6146105760405162461bcd60e51b815260040161121090615902565b600054610100900460ff16158015614632576000805461ffff19166101011790555b60405163c72733f760e01b815273853cC5f4780D81e4e5C3649C2d1ad968338517da9063c72733f790614677908c908c908c908b908d908c908c908c906004016156bd565b60006040518083038186803b15801561468f57600080fd5b505af41580156146a3573d6000803e3d6000fd5b505050506146af614c41565b6146b98484614cb4565b6146c1614d1d565b6146ca89612b14565b60d480546001600160a01b03808b166001600160a01b03199283161790925560d38054928a169290911691909117905560d585905561471463031ba3096132a488620f4240614a48565b60d6558160cc6147248282615c41565b505060cc546040516370a0823160e01b81523060048201526000916201000090046001600160a01b0316906370a082319060240160206040518083038186803b15801561477057600080fd5b505afa158015614784573d6000803e3d6000fd5b505050506040513d601f19601f820116820180604052508101906147a891906154c4565b90506147b381613af0565b60cf805461ffff196001600160681b03909316600160781b02929092167fffffffff00000000000000000000000000ffffffffffffffffffffffffff0000909216919091176001179055801561480f576000805461ff00191690555b505050505050505050565b835160009061ffff16158015906148355750845161ffff1684115b1561487757600061485486602001516001600160681b03168585614d84565b604087015190915061486f906001600160801b031682613f34565b91505061157d565b50505050604001516001600160801b031690565b33600090815260cb6020526040812080546001600160801b03620100008204169061ffff16816148ed5760405162461bcd60e51b815260206004820152600d60248201526c139bdd081a5b9a5d1a585d1959609a1b6044820152606401611210565b60cf5461ffff1681106149355760405162461bcd60e51b815260206004820152601060248201526f149bdd5b99081b9bdd0818db1bdcd95960821b6044820152606401611210565b33600090815260cb60205260409020805462010000600160901b031916905560d05461497190600160801b90046001600160801b0316836135e4565b60d080546001600160801b03928316600160801b029216919091179055600081815260ca602052604081205460cc546149b491859160ff61010090910416613a8e565b604080518281526020810186905291925033917ff279e6a1f5e320cca91135676d9cb6e44ca8a08c0b88342bcdb1144f6511b568910160405180910390a26149fc3084614de7565b60008111614a3e5760405162461bcd60e51b815260206004820152600f60248201526e085dda5d1a191c985dd05b5bdd5b9d608a1b6044820152606401611210565b61157d33826135f0565b600061122c8284615b4c565b600061122c8284615a41565b6040516001600160a01b038316602482015260448101829052612f8b90849063a9059cbb60e01b90606401613a17565b6000614ae5826040518060400160405280602081526020017f5361666545524332303a206c6f772d6c6576656c2063616c6c206661696c6564815250856001600160a01b0316614f359092919063ffffffff16565b805190915015612f8b5780806020019051810190614b0391906154a8565b612f8b5760405162461bcd60e51b815260206004820152602a60248201527f5361666545524332303a204552433230206f7065726174696f6e20646964206e6044820152691bdd081cdd58d8d9595960b21b6064820152608401611210565b6001600160a01b038216614bb85760405162461bcd60e51b815260206004820152601f60248201527f45524332303a206d696e7420746f20746865207a65726f2061646472657373006044820152606401611210565b8060996000828254614bca9190615a29565b90915550506001600160a01b03821660009081526097602052604081208054839290614bf7908490615a29565b90915550506040518181526001600160a01b038316906000907fddf252ad1be2c89b69c2b068fc378daa952ba7f163c4a11628f55a4df523b3ef9060200160405180910390a35050565b600054610100900460ff1680614c5a575060005460ff16155b614c765760405162461bcd60e51b815260040161121090615902565b600054610100900460ff16158015614c98576000805461ffff19166101011790555b614ca0614f44565b8015612bac576000805461ff001916905550565b600054610100900460ff1680614ccd575060005460ff16155b614ce95760405162461bcd60e51b815260040161121090615902565b600054610100900460ff16158015614d0b576000805461ffff19166101011790555b614d13614fb3565b612f79838361501d565b600054610100900460ff1680614d36575060005460ff16155b614d525760405162461bcd60e51b815260040161121090615902565b600054610100900460ff16158015614d74576000805461ffff19166101011790555b614d7c614fb3565b614ca061509b565b600060018311614dce5760405162461bcd60e51b8152602060048201526015602482015274496e76616c6964206173736574506572536861726560581b6044820152606401611210565b61157d836132a4614de085600a615aa4565b8790614a48565b6001600160a01b038216614e475760405162461bcd60e51b815260206004820152602160248201527f45524332303a206275726e2066726f6d20746865207a65726f206164647265736044820152607360f81b6064820152608401611210565b6001600160a01b03821660009081526097602052604090205481811015614ebb5760405162461bcd60e51b815260206004820152602260248201527f45524332303a206275726e20616d6f756e7420657863656564732062616c616e604482015261636560f01b6064820152608401611210565b6001600160a01b0383166000908152609760205260408120838303905560998054849290614eea908490615b6b565b90915550506040518281526000906001600160a01b038516907fddf252ad1be2c89b69c2b068fc378daa952ba7f163c4a11628f55a4df523b3ef9060200160405180910390a3505050565b606061157d84846000856150fb565b600054610100900460ff1680614f5d575060005460ff16155b614f795760405162461bcd60e51b815260040161121090615902565b600054610100900460ff16158015614f9b576000805461ffff19166101011790555b600180558015612bac576000805461ff001916905550565b600054610100900460ff1680614fcc575060005460ff16155b614fe85760405162461bcd60e51b815260040161121090615902565b600054610100900460ff16158015614ca0576000805461ffff19166101011790558015612bac576000805461ff001916905550565b600054610100900460ff1680615036575060005460ff16155b6150525760405162461bcd60e51b815260040161121090615902565b600054610100900460ff16158015615074576000805461ffff19166101011790555b825161508790609a9060208601906152e0565b508151612f7790609b9060208501906152e0565b600054610100900460ff16806150b4575060005460ff16155b6150d05760405162461bcd60e51b815260040161121090615902565b600054610100900460ff161580156150f2576000805461ffff19166101011790555b614ca033613ee2565b60608247101561515c5760405162461bcd60e51b815260206004820152602660248201527f416464726573733a20696e73756666696369656e742062616c616e636520666f6044820152651c8818d85b1b60d21b6064820152608401611210565b843b6151aa5760405162461bcd60e51b815260206004820152601d60248201527f416464726573733a2063616c6c20746f206e6f6e2d636f6e74726163740000006044820152606401611210565b600080866001600160a01b031685876040516151c691906156a1565b60006040518083038185875af1925050503d8060008114615203576040519150601f19603f3d011682016040523d82523d6000602084013e615208565b606091505b5091509150615218828286615223565b979650505050505050565b6060831561523257508161122c565b8251156152425782518084602001fd5b8160405162461bcd60e51b815260040161121091906158ce565b82805461526890615bae565b90600052602060002090601f01602090048101928261528a57600085556152d0565b82601f106152a35782800160ff198235161785556152d0565b828001600101855582156152d0579182015b828111156152d05782358255916020019190600101906152b5565b506152dc929150615354565b5090565b8280546152ec90615bae565b90600052602060002090601f01602090048101928261530e57600085556152d0565b82601f1061532757805160ff19168380011785556152d0565b828001600101855582156152d0579182015b828111156152d0578251825591602001919060010190615339565b5b808211156152dc5760008155600101615355565b803561537481615d52565b919050565b803561537481615d75565b803561537481615d8a565b6000602082840312156153a0578081fd5b813561122c81615d52565b600080604083850312156153bd578081fd5b82356153c881615d52565b915060208301356153d881615d52565b809150509250929050565b6000806000606084860312156153f7578081fd5b833561540281615d52565b9250602084013561541281615d52565b929592945050506040919091013590565b60008060408385031215615435578182fd5b823561544081615d52565b946020939093013593505050565b60008060008060808587031215615463578081fd5b845161546e81615d52565b60208601516040870151606090970151919890975090945092505050565b60006020828403121561549d578081fd5b813561122c81615d67565b6000602082840312156154b9578081fd5b815161122c81615d67565b6000602082840312156154d5578081fd5b5051919050565b600080602083850312156154ee578182fd5b823567ffffffffffffffff80821115615505578384fd5b818501915085601f830112615518578384fd5b813581811115615526578485fd5b866020828501011115615537578485fd5b60209290920196919550909350505050565b60008082840360e081121561555c578283fd5b833567ffffffffffffffff811115615572578384fd5b84016101a08187031215615584578384fd5b925060c0601f1982011215615597578182fd5b506020830190509250929050565b6000602082840312156155b6578081fd5b81356001600160801b038116811461122c578182fd5b6000602082840312156155dd578081fd5b5035919050565b600080604083850312156155f6578182fd5b8235915060208301356153d881615d52565b60008060008060008060c08789031215615620578384fd5b865195506020870151945060408701519350606087015192506080870151915060a087015190509295509295509295565b600060208284031215615662578081fd5b813563ffffffff8116811461122c578182fd5b6000815180845261568d816020860160208601615b82565b601f01601f19169290920160200192915050565b600082516156b3818460208701615b82565b9190910192915050565b60006101a060018060a01b03808c168452808b166020850152808a1660408501528860608501528760808501528160a08501526156fc82850188615675565b915083820360c08501526157108287615675565b92508435915061571f82615d67565b90151560e084015260208401359061573682615d9f565b60ff82166101008501526040850135915061575082615d52565b1661012083015261576360608401615369565b6001600160a01b031661014083015261577e60808401615384565b66ffffffffffffff1661016083015261579960a08401615379565b6001600160681b038116610180840152509998505050505050505050565b6001600160a01b038581168252602080830186905290841660408301526080606083015282546000918291600181811c90828116806157f757607f831692505b84831081141561581557634e487b7160e01b87526022600452602487fd5b6080880183905260a0880181801561583457600181146158455761586f565b60ff1986168252868201975061586f565b60008b815260209020895b8681101561586957815484820152908501908801615850565b83019850505b50959c9b505050505050505050505050565b60808152846080820152848660a0830137600060a08683018101919091526001600160a01b039485166020830152928416604082015292166060830152601f909201601f19160101919050565b60208152600061122c6020830184615675565b60208082526007908201526610b5b2b2b832b960c91b604082015260600190565b6020808252602e908201527f496e697469616c697a61626c653a20636f6e747261637420697320616c72656160408201526d191e481a5b9a5d1a585b1a5e995960921b606082015260800190565b6020808252818101527f4f776e61626c653a2063616c6c6572206973206e6f7420746865206f776e6572604082015260600190565b60208082526007908201526608585b5bdd5b9d60ca1b604082015260600190565b6020808252601f908201527f5265656e7472616e637947756172643a207265656e7472616e742063616c6c00604082015260600190565b6000808335601e198436030181126159f3578283fd5b83018035915067ffffffffffffffff821115615a0d578283fd5b602001915036819003821315615a2257600080fd5b9250929050565b60008219821115615a3c57615a3c615c04565b500190565b600082615a5c57634e487b7160e01b81526012600452602481fd5b500490565b600181815b80851115615a9c578160001904821115615a8257615a82615c04565b80851615615a8f57918102915b93841c9390800290615a66565b509250929050565b600061122c8383600082615aba5750600161117c565b81615ac75750600061117c565b8160018114615add5760028114615ae757615b03565b600191505061117c565b60ff841115615af857615af8615c04565b50506001821b61117c565b5060208310610133831016604e8410600b8410161715615b26575081810a61117c565b615b308383615a61565b8060001904821115615b4457615b44615c04565b029392505050565b6000816000190483118215151615615b6657615b66615c04565b500290565b600082821015615b7d57615b7d615c04565b500390565b60005b83811015615b9d578181015183820152602001615b85565b838111156135de5750506000910152565b600181811c90821680615bc257607f821691505b60208210811415615be357634e487b7160e01b600052602260045260246000fd5b50919050565b6000600019821415615bfd57615bfd615c04565b5060010190565b634e487b7160e01b600052601160045260246000fd5b6000813561117c81615d52565b6000813561117c81615d75565b6000813561117c81615d8a565b8135615c4c81615d67565b815460ff19811691151560ff1691821783556020840135615c6c81615d9f565b61ff008160081b169050808361ffff198416171784556040850135615c9081615d52565b6001600160b01b0319929092169092179190911760109190911b62010000600160b01b031617815560018101615ce8615ccb60608501615c1a565b82546001600160a01b0319166001600160a01b0391909116178255565b615d21615cf760808501615c34565b82805466ffffffffffffff60a01b191660a09290921b66ffffffffffffff60a01b16919091179055565b506145d7615d3160a08401615c27565b600283016001600160681b0382166001600160681b03198254161781555050565b6001600160a01b0381168114612bac57600080fd5b8015158114612bac57600080fd5b6001600160681b0381168114612bac57600080fd5b66ffffffffffffff81168114612bac57600080fd5b60ff81168114612bac57600080fdfea2646970667358221220191cf23e872f57039c8ad0e4a090693bee1a4089ef21672ab2047ce9567186ce64736f6c63430008040033",
  "deployedBytecode": "0x60806040526004361061047e5760003560e01c806395d89b4111610255578063c74c0fac11610144578063df5af13f116100c1578063f60f764511610085578063f60f764514611027578063f6326fb314611047578063f656ba511461104f578063f756fa2114611084578063f957a06714611099578063fe56e232146110b957600080fd5b8063df5af13f14610fa7578063e73c63d514610fbc578063e74b981b14610fd2578063ea00b1ca14610ff2578063f2fde38b1461100757600080fd5b8063d826492011610108578063d826492014610ebf578063db006a7514610ef3578063db43e86214610f13578063dc4e9bef14610f47578063dd62ed3e14610f6157600080fd5b8063c74c0fac14610e15578063ce7c2ac214610e49578063d13f1b3e14610e69578063d164cc1514610e89578063d5f2638214610ea957600080fd5b8063a6f7f5d6116101d2578063afa6626411610196578063afa6626414610d89578063b4d1d79514610da9578063b6b55f2514610dc0578063b9f8092b14610de0578063be9d7d5714610df557600080fd5b8063a6f7f5d614610cea578063a9059cbb14610d00578063aced166114610d20578063ad5c464814610d40578063ad7a672f14610d7457600080fd5b8063a083ff1711610219578063a083ff1714610c07578063a285c9e814610c6a578063a2db9d8314610c8c578063a457c2d714610caa578063a497e67414610cca57600080fd5b806395d89b4114610af1578063980db6f414610b0657806399530b0614610b265780639be43daa14610b3b5780639fcc2d7514610b5b57600080fd5b8063503c70aa1161037157806370a08231116102ee57806387153eb1116102b257806387153eb114610a3e5780638778878214610a6b57806389a3027114610a815780638b10cc7c14610ab55780638da5cb5b14610ad357600080fd5b806370a0823114610959578063715018a61461098f5780637a9262a2146109a45780637e108d5214610a0857806383536ff314610a2857600080fd5b806369b411701161033557806369b41170146108c55780636b64c769146108db5780636c10f66c146108f05780636f31ab341461092457806370897b231461093957600080fd5b8063503c70aa146107c257806355489bb2146107d8578063600a2cfb146107f8578063650cce8a1461080d5780636719b2ee1461084157600080fd5b8063355274ea116103ff5780633f90916a116103c35780633f90916a1461072e578063432833a61461074c5780634603c0aa14610762578063469048401461078257806347786d37146107a257600080fd5b8063355274ea1461068257806336efd16f146106a057806339509351146106c05780633ec143d3146106e05780633f23bb731461070e57600080fd5b806323b872dd1161044657806323b872dd146105635780632728f333146105835780632775d01c1461061657806330630da414610638578063313ce5671461065857600080fd5b806306fdde0314610483578063095ea7b3146104ae5780630cbf54c8146104de57806318160ddd146105025780631a92f6c214610517575b600080fd5b34801561048f57600080fd5b506104986110d9565b6040516104a591906158ce565b60405180910390f35b3480156104ba57600080fd5b506104ce6104c9366004615423565b61116b565b60405190151581526020016104a5565b3480156104ea57600080fd5b506104f460fb5481565b6040519081526020016104a5565b34801561050e57600080fd5b506099546104f4565b34801561052357600080fd5b5061054b7f000000000000000000000000000000000000000000000000000000000000000081565b6040516001600160a01b0390911681526020016104a5565b34801561056f57600080fd5b506104ce61057e3660046153e3565b611182565b34801561058f57600080fd5b5060cf5460d0546105d19161ffff8116916001600160681b03620100008304811692600160781b900416906001600160801b0380821691600160801b90041685565b6040805161ffff90961686526001600160681b03948516602087015293909216928401929092526001600160801b03918216606084015216608082015260a0016104a5565b34801561062257600080fd5b506106366106313660046155cc565b611233565b005b34801561064457600080fd5b5061063661065336600461538f565b6113d6565b34801561066457600080fd5b5060cc54610100900460ff1660405160ff90911681526020016104a5565b34801561068e57600080fd5b5060ce546001600160681b03166104f4565b3480156106ac57600080fd5b506106366106bb3660046155e4565b61146e565b3480156106cc57600080fd5b506104ce6106db366004615423565b6114f6565b3480156106ec57600080fd5b5060f9546106fb9061ffff1681565b60405161ffff90911681526020016104a5565b34801561071a57600080fd5b506104f461072936600461538f565b611532565b34801561073a57600080fd5b5060d0546001600160801b03166104f4565b34801561075857600080fd5b506104f460fc5481565b34801561076e57600080fd5b5061063661077d36600461538f565b611585565b34801561078e57600080fd5b5060d35461054b906001600160a01b031681565b3480156107ae57600080fd5b506106366107bd3660046155cc565b611627565b3480156107ce57600080fd5b506104f460fd5481565b3480156107e457600080fd5b506106366107f33660046155a5565b611702565b34801561080457600080fd5b506106366117c3565b34801561081957600080fd5b5061054b7f000000000000000000000000000000000000000000000000000000000000000081565b34801561084d57600080fd5b5061089461085c36600461538f565b60c96020526000908152604090205461ffff8116906201000081046001600160681b031690600160781b90046001600160801b031683565b6040805161ffff90941684526001600160681b0390921660208401526001600160801b0316908201526060016104a5565b3480156108d157600080fd5b506104f461038481565b3480156108e757600080fd5b5061063661191e565b3480156108fc57600080fd5b5061054b7f000000000000000000000000000000000000000000000000000000000000000081565b34801561093057600080fd5b5061063661197e565b34801561094557600080fd5b506106366109543660046155cc565b6119b5565b34801561096557600080fd5b506104f461097436600461538f565b6001600160a01b031660009081526097602052604090205490565b34801561099b57600080fd5b50610636611a7c565b3480156109b057600080fd5b506109e66109bf36600461538f565b60cb6020526000908152604090205461ffff8116906201000090046001600160801b031682565b6040805161ffff90931683526001600160801b039091166020830152016104a5565b348015610a1457600080fd5b50610636610a233660046155cc565b611ab2565b348015610a3457600080fd5b506104f460f75481565b348015610a4a57600080fd5b506104f4610a593660046155cc565b60ca6020526000908152604090205481565b348015610a7757600080fd5b506104f460d55481565b348015610a8d57600080fd5b5061054b7f000000000000000000000000000000000000000000000000000000000000000081565b348015610ac157600080fd5b5060d2546001600160a01b031661054b565b348015610adf57600080fd5b506065546001600160a01b031661054b565b348015610afd57600080fd5b50610498611ced565b348015610b1257600080fd5b50610636610b213660046154dc565b611cfc565b348015610b3257600080fd5b506104f4611df0565b348015610b4757600080fd5b50610636610b563660046155cc565b611e2a565b348015610b6757600080fd5b5060cc5460cd5460ce54610bb79260ff808216936101008304909116926001600160a01b036201000090930483169282169166ffffffffffffff600160a01b90910416906001600160681b031686565b60408051961515875260ff90951660208701526001600160a01b03938416948601949094529116606084015266ffffffffffffff1660808301526001600160681b031660a082015260c0016104a5565b348015610c1357600080fd5b5060d15460d254610c3e916001600160a01b039081169190811690600160a01b900463ffffffff1683565b604080516001600160a01b03948516815293909216602084015263ffffffff16908201526060016104a5565b348015610c7657600080fd5b5060d254600160a01b900463ffffffff166104f4565b348015610c9857600080fd5b5060d1546001600160a01b031661054b565b348015610cb657600080fd5b506104ce610cc5366004615423565b611f1b565b348015610cd657600080fd5b50610636610ce53660046155cc565b611fb4565b348015610cf657600080fd5b506104f460d65481565b348015610d0c57600080fd5b506104ce610d1b366004615423565b612071565b348015610d2c57600080fd5b5060d45461054b906001600160a01b031681565b348015610d4c57600080fd5b5061054b7f000000000000000000000000000000000000000000000000000000000000000081565b348015610d8057600080fd5b506104f461207e565b348015610d9557600080fd5b5060f55461054b906001600160a01b031681565b348015610db557600080fd5b506104f462093a8081565b348015610dcc57600080fd5b50610636610ddb3660046155cc565b61211d565b348015610dec57600080fd5b50610636612191565b348015610e0157600080fd5b50610636610e103660046155cc565b612358565b348015610e2157600080fd5b5061054b7f000000000000000000000000000000000000000000000000000000000000000081565b348015610e5557600080fd5b506104f4610e6436600461538f565b61250e565b348015610e7557600080fd5b50610636610e843660046155cc565b61252b565b348015610e9557600080fd5b50610636610ea436600461538f565b6125ef565b348015610eb557600080fd5b506104f460f85481565b348015610ecb57600080fd5b5061054b7f000000000000000000000000000000000000000000000000000000000000000081565b348015610eff57600080fd5b50610636610f0e3660046155cc565b61267e565b348015610f1f57600080fd5b5061054b7f000000000000000000000000000000000000000000000000000000000000000081565b348015610f5357600080fd5b5060fe546104ce9060ff1681565b348015610f6d57600080fd5b506104f4610f7c3660046153ab565b6001600160a01b03918216600090815260986020908152604080832093909416825291909152205490565b348015610fb357600080fd5b506104986126eb565b348015610fc857600080fd5b506104f460fa5481565b348015610fde57600080fd5b50610636610fed36600461538f565b612779565b348015610ffe57600080fd5b5061063661286c565b34801561101357600080fd5b5061063661102236600461538f565b612b14565b34801561103357600080fd5b50610636611042366004615549565b612baf565b610636612f90565b34801561105b57600080fd5b5061106f61106a36600461538f565b6130d6565b604080519283526020830191909152016104a5565b34801561109057600080fd5b506106366131b9565b3480156110a557600080fd5b5060f65461054b906001600160a01b031681565b3480156110c557600080fd5b506106366110d43660046155cc565b61320e565b6060609a80546110e890615bae565b80601f016020809104026020016040519081016040528092919081815260200182805461111490615bae565b80156111615780601f1061113657610100808354040283529160200191611161565b820191906000526020600020905b81548152906001019060200180831161114457829003601f168201915b5050505050905090565b60006111783384846132ef565b5060015b92915050565b600061118f848484613414565b6001600160a01b0384166000908152609860209081526040808320338452909152902054828110156112195760405162461bcd60e51b815260206004820152602860248201527f45524332303a207472616e7366657220616d6f756e74206578636565647320616044820152676c6c6f77616e636560c01b60648201526084015b60405180910390fd5b61122685338584036132ef565b60019150505b9392505050565b600260015414156112565760405162461bcd60e51b8152600401611210906159a6565b600260015533600090815260c96020526040902060cf5461ffff168261128e5760405162461bcd60e51b815260040161121090615985565b815461ffff1681146112d25760405162461bcd60e51b815260206004820152600d60248201526c125b9d985b1a59081c9bdd5b99609a1b6044820152606401611210565b81546201000090046001600160681b0316838110156113235760405162461bcd60e51b815260206004820152600d60248201526c115e18d9595908185b5bdd5b9d609a1b6044820152606401611210565b61132d81856135e4565b83546001600160681b0391909116620100000262010000600160781b031990911617835560d054611367906001600160801b0316856135e4565b60d080546001600160801b0319166001600160801b0392909216919091179055604080518581526020810184905233917fab2daf3c146ca6416cbccd2a86ed2ba995e171ef6319df14a38aef01403a9c96910160405180910390a26113cc33856135f0565b5050600180555050565b6065546001600160a01b031633146114005760405162461bcd60e51b815260040161121090615950565b6001600160a01b03811661144c5760405162461bcd60e51b815260206004820152601360248201527210b732bba9ba3934b5b2a9b2b632b1ba34b7b760691b6044820152606401611210565b60f680546001600160a01b0319166001600160a01b0392909216919091179055565b600260015414156114915760405162461bcd60e51b8152600401611210906159a6565b6002600155816114b35760405162461bcd60e51b815260040161121090615985565b6001600160a01b0381166114c657600080fd5b6114d08282613751565b60cc546114ee906201000090046001600160a01b03163330856139e3565b505060018055565b3360008181526098602090815260408083206001600160a01b0387168452909152812054909161117891859061152d908690615a29565b6132ef565b60cc5460009060ff610100909104168161156861154e60995490565b61155661207e565b60d0546001600160801b031685613a4e565b905061157d6115768561250e565b8284613a8e565b949350505050565b6065546001600160a01b031633146115af5760405162461bcd60e51b815260040161121090615950565b6001600160a01b0381166116055760405162461bcd60e51b815260206004820152601860248201527f216e65774f7074696f6e735072656d69756d50726963657200000000000000006044820152606401611210565b60f580546001600160a01b0319166001600160a01b0392909216919091179055565b6065546001600160a01b031633146116515760405162461bcd60e51b815260040161121090615950565b6000811161168b5760405162461bcd60e51b81526020600482015260076024820152660216e65774361760cc1b6044820152606401611210565b61169481613af0565b60ce54604080516001600160681b039092168252602082018390527f5f86edbb9d92228a9edc3f0ebc0f001bda1ea345ac7335e0eeef3504b31d1a1c910160405180910390a160ce80546cffffffffffffffffffffffffff19166001600160681b0392909216919091179055565b6065546001600160a01b0316331461172c5760405162461bcd60e51b815260040161121090615950565b6002600154141561174f5760405162461bcd60e51b8152600401611210906159a6565b60026001556001600160801b0381166117995760405162461bcd60e51b815260206004820152600c60248201526b21737472696b65507269636560a01b6044820152606401611210565b6001600160801b031660fa5560cf5460f9805461ffff191661ffff90921691909117905560018055565b60d4546001600160a01b031633146117ed5760405162461bcd60e51b8152600401611210906158e1565b600260015414156118105760405162461bcd60e51b8152600401611210906159a6565b600260015560d2546040516358ffbb3d60e01b81526001600160a01b037f000000000000000000000000000000000000000000000000000000000000000081166004830152909116602482015260009073__$c4f279750f4bbb575ac7775e752dc00849$__906358ffbb3d9060440160206040518083038186803b15801561189757600080fd5b505af41580156118ab573d6000803e3d6000fd5b505050506040513d601f19601f820116820180604052508101906118cf91906154c4565b60cf549091506118ee906201000090046001600160681b0316826135e4565b60cf80546001600160681b0392909216620100000262010000600160781b03199092169190911790555060018055565b60d4546001600160a01b031633146119485760405162461bcd60e51b8152600401611210906158e1565b6002600154141561196b5760405162461bcd60e51b8152600401611210906159a6565b6002600155611978613b3a565b60018055565b600260015414156119a15760405162461bcd60e51b8152600401611210906159a6565b600260018190555061197860006001613d33565b6065546001600160a01b031633146119df5760405162461bcd60e51b815260040161121090615950565b6119ed620f42406064615b4c565b8110611a3b5760405162461bcd60e51b815260206004820152601760248201527f496e76616c696420706572666f726d616e6365206665650000000000000000006044820152606401611210565b60d55460408051918252602082018390527f24867dfb6fcb9970a07be21024956524abe7a1837faa903ff0e99aaa40cf893e910160405180910390a160d555565b6065546001600160a01b03163314611aa65760405162461bcd60e51b815260040161121090615950565b611ab06000613ee2565b565b60026001541415611ad55760405162461bcd60e51b8152600401611210906159a6565b600260015580611b145760405162461bcd60e51b815260206004820152600a602482015269216e756d53686172657360b01b6044820152606401611210565b33600090815260c960205260409020546201000090046001600160681b0316151580611b5e575033600090815260c96020526040902054600160781b90046001600160801b031615155b15611b6f57611b6f60006001613d33565b60cf5433600081815260cb60209081526040918290208054835187815261ffff96871693810184905292959194911685149290917f0c53c82ad07e2d592d88ece3b066777dd60f1118e2a081b380efc4358f0d9e2a910160405180910390a281546201000090046001600160801b031660008215611bf857611bf18287613f34565b9050611c5b565b8115611c3a5760405162461bcd60e51b81526020600482015260116024820152704578697374696e6720776974686472617760781b6044820152606401611210565b5033600090815260cb60205260409020805461ffff191661ffff8616179055845b611c6481613f40565b33600090815260cb6020526040812080546001600160801b03808516620100000262010000600160901b03199092169190911790915560d054611cb091600160801b9091041688613f34565b9050611cbb81613f40565b60d080546001600160801b03808416600160801b029116179055611ce0333089613414565b5050600180555050505050565b6060609b80546110e890615bae565b6065546001600160a01b03163314611d265760405162461bcd60e51b815260040161121090615950565b60026001541415611d495760405162461bcd60e51b8152600401611210906159a6565b600260015560fe5460ff16611d915760405162461bcd60e51b815260206004820152600e60248201526d10b4b9aab9b231a0bab1ba34b7b760911b6044820152606401611210565b611d9b8282613f8a565b611ddb5760405162461bcd60e51b8152602060048201526011602482015270092dcecc2d8d2c840e6eec2e040e0c2e8d607b1b6044820152606401611210565b611de760ff838361525c565b50506001805550565b6000611e25611dfe60995490565b611e0661207e565b60d05460cc546001600160801b0390911690610100900460ff16613a4e565b905090565b60026001541415611e4d5760405162461bcd60e51b8152600401611210906159a6565b600260015580611e8c5760405162461bcd60e51b815260206004820152600a602482015269216e756d526f756e647360b01b6044820152606401611210565b60cf5461ffff1660005b82811015611de7576000611eaa8284615a29565b600081815260ca602052604090205490915015611ef75760405162461bcd60e51b815260206004820152600b60248201526a125b9a5d1a585b1a5e995960aa1b6044820152606401611210565b600090815260ca602052604090206001905580611f1381615be9565b915050611e96565b3360009081526098602090815260408083206001600160a01b038616845290915281205482811015611f9d5760405162461bcd60e51b815260206004820152602560248201527f45524332303a2064656372656173656420616c6c6f77616e63652062656c6f77604482015264207a65726f60d81b6064820152608401611210565b611faa33858584036132ef565b5060019392505050565b6065546001600160a01b03163314611fde5760405162461bcd60e51b815260040161121090615950565b610e108110156120305760405162461bcd60e51b815260206004820152601860248201527f496e76616c69642061756374696f6e206475726174696f6e00000000000000006044820152606401611210565b60fb5460408051918252602082018390527f5acd982e2240ed224a69aa03dab039d3797c108e4b5f288cd7dd6ca181b275f3910160405180910390a160fb55565b6000611178338484613414565b60cc546040516370a0823160e01b8152306004820152600091611e2591620100009091046001600160a01b0316906370a082319060240160206040518083038186803b1580156120cd57600080fd5b505afa1580156120e1573d6000803e3d6000fd5b505050506040513d601f19601f8201168201806040525081019061210591906154c4565b60cf546201000090046001600160681b031690613f34565b600260015414156121405760405162461bcd60e51b8152600401611210906159a6565b6002600155806121625760405162461bcd60e51b815260040161121090615985565b61216c8133613751565b60cc5461218a906201000090046001600160a01b03163330846139e3565b5060018055565b60d4546001600160a01b031633146121bb5760405162461bcd60e51b8152600401611210906158e1565b600260015414156121de5760405162461bcd60e51b8152600401611210906159a6565b600260018190555060008060006121f660fd5461406d565b60fd8190559194509250905061220b82613af0565b60cf805462010000600160781b031916620100006001600160681b0385160217905560405182815233906001600160a01b038516907f045c558fdce4714c5816d53820d27420f4cd860892df203fe636384d8d19aa019060200160405180910390a3604051632904c23960e01b81526001600160a01b037f0000000000000000000000000000000000000000000000000000000000000000811660048301527f000000000000000000000000000000000000000000000000000000000000000081166024830152841660448201526064810183905273__$c4f279750f4bbb575ac7775e752dc00849$__90632904c2399060840160206040518083038186803b15801561231757600080fd5b505af415801561232b573d6000803e3d6000fd5b505050506040513d601f19601f8201168201806040525081019061234f91906154c4565b50611de7613b3a565b60d4546001600160a01b031633146123825760405162461bcd60e51b8152600401611210906158e1565b600260015414156123a55760405162461bcd60e51b8152600401611210906159a6565b600260015560fe5460ff166123ed5760405162461bcd60e51b815260206004820152600e60248201526d10b4b9aab9b231a0bab1ba34b7b760911b6044820152606401611210565b6000811161242d5760405162461bcd60e51b815260206004820152600d60248201526c085b5a5b905b5bdd5b9d13dd5d609a1b6044820152606401611210565b6124597f000000000000000000000000000000000000000000000000000000000000000060fc546143eb565b604051637f0f41d760e01b815273__$c4f279750f4bbb575ac7775e752dc00849$__90637f0f41d7906124d7907f00000000000000000000000000000000000000000000000000000000000000009085907f00000000000000000000000000000000000000000000000000000000000000009060ff906004016157b7565b60006040518083038186803b1580156124ef57600080fd5b505af4158015612503573d6000803e3d6000fd5b505060018055505050565b600080600061251c846130d6565b909250905061157d8282613f34565b6065546001600160a01b031633146125555760405162461bcd60e51b815260040161121090615950565b60008111801561256f575061256c600a6064615b4c565b81105b6125ae5760405162461bcd60e51b815260206004820152601060248201526f125b9d985b1a5908191a5cd8dbdd5b9d60821b6044820152606401611210565b60f75460408051918252602082018390527f4cd657fde404967d63a338fb06c5c98751a9df57dfae6dc333a432faf8a5f656910160405180910390a160f755565b6065546001600160a01b031633146126195760405162461bcd60e51b815260040161121090615950565b6001600160a01b03811661265c5760405162461bcd60e51b815260206004820152600a60248201526910b732bba5b2b2b832b960b11b6044820152606401611210565b60d480546001600160a01b0319166001600160a01b0392909216919091179055565b600260015414156126a15760405162461bcd60e51b8152600401611210906159a6565b6002600155806126e05760405162461bcd60e51b815260206004820152600a602482015269216e756d53686172657360b01b6044820152606401611210565b61218a816000613d33565b60ff80546126f890615bae565b80601f016020809104026020016040519081016040528092919081815260200182805461272490615bae565b80156127715780601f1061274657610100808354040283529160200191612771565b820191906000526020600020905b81548152906001019060200180831161275457829003601f168201915b505050505081565b6065546001600160a01b031633146127a35760405162461bcd60e51b815260040161121090615950565b6001600160a01b0381166127ec5760405162461bcd60e51b815260206004820152601060248201526f085b995dd19959549958da5c1a595b9d60821b6044820152606401611210565b60d3546001600160a01b038281169116141561284a5760405162461bcd60e51b815260206004820152601860248201527f4d757374206265206e657720666565526563697069656e7400000000000000006044820152606401611210565b60d380546001600160a01b0319166001600160a01b0392909216919091179055565b6002600154141561288f5760405162461bcd60e51b8152600401611210906159a6565b600260015560d2546040805160c0810182526001600160a01b037f0000000000000000000000000000000000000000000000000000000000000000811682527f00000000000000000000000000000000000000000000000000000000000000008116602083019081529381168284018181526103846060850190815260f95461ffff9081166080870190815260fa5460a0880190815260f65460f55460f7549a516334d0abdd60e21b815291891660048301528816602482015260448101999099528751871660648a0152985186166084890152925190941660a48701525160c48601525190911660e4840152925161010483015260cc61012483015260cf6101448301529060009081908190819073__$c4f279750f4bbb575ac7775e752dc00849$__9063d342af74906101640160806040518083038186803b1580156129d657600080fd5b505af41580156129ea573d6000803e3d6000fd5b505050506040513d601f19601f82011682018060405250810190612a0e919061544e565b93509350935093507fa217999b1c125c2a996f712c5f26a28addad7167bd8a67d5bd5b2a751148abb08282604051612a50929190918252602082015260400190565b60405180910390a1612a6183613af0565b6001600160681b03831660f85560d180546001600160a01b0319166001600160a01b0386161790556000612a9742610384613f34565b905063ffffffff811115612aed5760405162461bcd60e51b815260206004820152601860248201527f4f766572666c6f77206e6578744f7074696f6e526561647900000000000000006044820152606401611210565b60d2805463ffffffff60a01b1916600160a01b63ffffffff841602179055611ce087614465565b6065546001600160a01b03163314612b3e5760405162461bcd60e51b815260040161121090615950565b6001600160a01b038116612ba35760405162461bcd60e51b815260206004820152602660248201527f4f776e61626c653a206e6577206f776e657220697320746865207a65726f206160448201526564647265737360d01b6064820152608401611210565b612bac81613ee2565b50565b600054610100900460ff1680612bc8575060005460ff16155b612be45760405162461bcd60e51b815260040161121090615902565b600054610100900460ff16158015612c06576000805461ffff19166101011790555b612ccb612c16602085018561538f565b612c26604086016020870161538f565b612c36606087016040880161538f565b60608701356080880135612c4d60a08a018a6159dd565b8080601f016020809104026020016040519081016040528093929190818152602001838380828437600092019190915250612c8f9250505060c08b018b6159dd565b8080601f0160208091040260200160405190810160405280939291908181526020018383808284376000920191909152508c92506145db915050565b6000612cde610100850160e0860161538f565b6001600160a01b03161415612d2e5760405162461bcd60e51b815260206004820152601660248201527510afb7b83a34b7b739a83932b6b4bab6a83934b1b2b960511b6044820152606401611210565b6000612d426101208501610100860161538f565b6001600160a01b03161415612d8d5760405162461bcd60e51b815260206004820152601160248201527010afb9ba3934b5b2a9b2b632b1ba34b7b760791b6044820152606401611210565b6000612da161014085016101208601615651565b63ffffffff16118015612dd55750612dbb600a6064615b4c565b612dcd61014085016101208601615651565b63ffffffff16105b612e155760405162461bcd60e51b81526020600482015260116024820152700857dc1c995b5a5d5b511a5cd8dbdd5b9d607a1b6044820152606401611210565b610e108361014001351015612e605760405162461bcd60e51b815260206004820152601160248201527010afb0bab1ba34b7b7223ab930ba34b7b760791b6044820152606401611210565b612e71610100840160e0850161538f565b60f580546001600160a01b0319166001600160a01b0392909216919091179055612ea36101208401610100850161538f565b60f680546001600160a01b0319166001600160a01b0392909216919091179055612ed561014084016101208501615651565b63ffffffff1660f75561014083013560fb55612ef96101808401610160850161548c565b60fe805460ff1916911515919091179055612f1c6101808401610160850161548c565b15612f7957612f37612f326101808501856159dd565b613f8a565b612f5d5760405162461bcd60e51b81526020600482015260006024820152604401611210565b612f6b6101808401846159dd565b612f779160ff9161525c565b505b8015612f8b576000805461ff00191690555b505050565b60026001541415612fb35760405162461bcd60e51b8152600401611210906159a6565b600260015560cc547f00000000000000000000000000000000000000000000000000000000000000006001600160a01b039081166201000090920416146130245760405162461bcd60e51b8152602060048201526005602482015264042ae8aa8960db1b6044820152606401611210565b6000341161305d5760405162461bcd60e51b81526020600482015260066024820152652176616c756560d01b6044820152606401611210565b6130673433613751565b7f00000000000000000000000000000000000000000000000000000000000000006001600160a01b031663d0e30db0346040518263ffffffff1660e01b81526004016000604051808303818588803b1580156130c257600080fd5b505af1158015612503573d6000803e3d6000fd5b6001600160a01b038116600090815260c9602090815260408083208151606081018352905461ffff81168083526201000082046001600160681b031694830194909452600160781b90046001600160801b031691810191909152829160011115613158575050506001600160a01b031660009081526097602052604081205491565b60cf54815161ffff908116600090815260ca602052604081205460cc54919361318e93869391169190610100900460ff1661481a565b90506131af856001600160a01b031660009081526097602052604090205490565b9590945092505050565b600260015414156131dc5760405162461bcd60e51b8152600401611210906159a6565b600260015560006131eb61488b565b60fd549091506131fb90826135e4565b6001600160801b031660fd555060018055565b6065546001600160a01b031633146132385760405162461bcd60e51b815260040161121090615950565b613246620f42406064615b4c565b811061328d5760405162461bcd60e51b8152602060048201526016602482015275496e76616c6964206d616e6167656d656e742066656560501b6044820152606401611210565b60006132aa63031ba3096132a484620f4240614a48565b90614a54565b60d65460408051918252602082018590529192507f4e874b007ab14f7e263baefd44951834c8266f4f224d1092e49e9c254354cc54910160405180910390a160d65550565b6001600160a01b0383166133515760405162461bcd60e51b8152602060048201526024808201527f45524332303a20617070726f76652066726f6d20746865207a65726f206164646044820152637265737360e01b6064820152608401611210565b6001600160a01b0382166133b25760405162461bcd60e51b815260206004820152602260248201527f45524332303a20617070726f766520746f20746865207a65726f206164647265604482015261737360f01b6064820152608401611210565b6001600160a01b0383811660008181526098602090815260408083209487168084529482529182902085905590518481527f8c5be1e5ebec7d5bd14f71427d1e84f3dd0314c0f7b2291e5b200ac8c7c3b92591015b60405180910390a3505050565b6001600160a01b0383166134785760405162461bcd60e51b815260206004820152602560248201527f45524332303a207472616e736665722066726f6d20746865207a65726f206164604482015264647265737360d81b6064820152608401611210565b6001600160a01b0382166134da5760405162461bcd60e51b815260206004820152602360248201527f45524332303a207472616e7366657220746f20746865207a65726f206164647260448201526265737360e81b6064820152608401611210565b6001600160a01b038316600090815260976020526040902054818110156135525760405162461bcd60e51b815260206004820152602660248201527f45524332303a207472616e7366657220616d6f756e7420657863656564732062604482015265616c616e636560d01b6064820152608401611210565b6001600160a01b03808516600090815260976020526040808220858503905591851681529081208054849290613589908490615a29565b92505081905550826001600160a01b0316846001600160a01b03167fddf252ad1be2c89b69c2b068fc378daa952ba7f163c4a11628f55a4df523b3ef846040516135d591815260200190565b60405180910390a35b50505050565b600061122c8284615b6b565b60cc546001600160a01b03620100009091048116907f00000000000000000000000000000000000000000000000000000000000000001681141561373d57604051632e1a7d4d60e01b8152600481018390527f00000000000000000000000000000000000000000000000000000000000000006001600160a01b031690632e1a7d4d90602401600060405180830381600087803b15801561369057600080fd5b505af11580156136a4573d6000803e3d6000fd5b505050506000836001600160a01b03168360405160006040518083038185875af1925050503d80600081146136f5576040519150601f19603f3d011682016040523d82523d6000602084013e6136fa565b606091505b50509050806135de5760405162461bcd60e51b815260206004820152600f60248201526e151c985b9cd9995c8819985a5b1959608a1b6044820152606401611210565b612f8b6001600160a01b0382168484614a60565b60cf5461ffff16600061376c8461376661207e565b90613f34565b60ce549091506001600160681b03168111156137b75760405162461bcd60e51b815260206004820152600a6024820152690457863656564206361760b41b6044820152606401611210565b60cd54600160a01b900466ffffffffffffff168110156138105760405162461bcd60e51b8152602060048201526014602482015273496e73756666696369656e742062616c616e636560601b6044820152606401611210565b60408051858152602081018490526001600160a01b038516917f90890809c654f11d6e72a28fa60149770a0d11ec6c92319d6ceb2bb0a4ea1a15910160405180910390a26001600160a01b038316600090815260c9602090815260408083208151606081018352905461ffff81168083526201000082046001600160681b031683860152600160781b9091046001600160801b031682840152845260ca90925282205460cc549192916138cf918491879190610100900460ff1661481a565b8251909150869061ffff168514156139005760208301516000906138fc906001600160681b031689613f34565b9150505b61390981613af0565b6040805160608101825261ffff80881682526001600160681b0380851660208085019182526001600160801b038089168688019081526001600160a01b038e16600090815260c990935296822095518654935197518216600160781b02600160781b600160f81b03199890951662010000026effffffffffffffffffffffffffffff1990941695169490941791909117949094161790915560d0546139af911689613f34565b90506139ba81613f40565b60d080546001600160801b0319166001600160801b039290921691909117905550505050505050565b6040516001600160a01b03808516602483015283166044820152606481018290526135de9085906323b872dd60e01b906084015b60408051601f198184030181529190526020810180516001600160e01b03166001600160e01b031990931692909217909152614a90565b600080613a5c83600a615aa4565b905060008611613a6c5780613a84565b613a84866132a4613a7d88886135e4565b8490614a48565b9695505050505050565b600060018311613ad85760405162461bcd60e51b8152602060048201526015602482015274496e76616c6964206173736574506572536861726560581b6044820152606401611210565b61157d613ae683600a615aa4565b6132a48686614a48565b6001600160681b03811115612bac5760405162461bcd60e51b815260206004820152601060248201526f13dd995c999b1bddc81d5a5b9d0c4c0d60821b6044820152606401611210565b6040805160c081018252600080825260208201819052918101829052606081018290526080810182905260a081019190915260f85480613bb45760405162461bcd60e51b81526020600482015260156024820152742163757272656e744f746f6b656e5072656d69756d60581b6044820152606401611210565b60fe5460d2546001600160a01b0390811684527f000000000000000000000000000000000000000000000000000000000000000016602084015260ff1680613c0d5760cc546201000090046001600160a01b0316613c2f565b7f00000000000000000000000000000000000000000000000000000000000000005b6001600160a01b0316604084015280613c525760cc54610100900460ff16613c55565b60065b60ff16606084019081526080840183815260fb5460a0860190815260408051633baf17fd60e21b815287516001600160a01b03908116600483015260208901518116602483015291880151909116604482015292516064840152905160848301525160a482015273__$c4f279750f4bbb575ac7775e752dc00849$__9063eebc5ff49060c40160206040518083038186803b158015613cf357600080fd5b505af4158015613d07573d6000803e3d6000fd5b505050506040513d601f19601f82011682018060405250810190613d2b91906154c4565b60fc55505050565b33600090815260c9602090815260408083208151606081018352905461ffff8082168084526201000083046001600160681b031684870152600160781b9092046001600160801b03168385015260cf5491865260ca9094529184205460cc5491949290931692613dae9185918591610100900460ff1661481a565b905083613dbb5784613dbd565b805b945084613dcb575050505050565b80851115613e0f5760405162461bcd60e51b81526020600482015260116024820152704578636565647320617661696c61626c6560781b6044820152606401611210565b825161ffff16821115613e3c5733600090815260c960205260409020805462010000600160781b03191690555b613e4585613f40565b613e4f81866135e4565b33600081815260c960205260409081902080546001600160801b0394909416600160781b02600160781b600160f81b0319909416939093179092558451915190917fe5b754fb1abb7f01b499791d0b820ae3b6af3424ac1c59768edb53f4ec31a92991613ec89189825261ffff16602082015260400190565b60405180910390a2613edb303387613414565b5050505050565b606580546001600160a01b038381166001600160a01b0319831681179093556040519116919082907f8be0079c531659141344cd1fd0a4f28419497f9722a3daafe3b4186f6b6457e090600090a35050565b600061122c8284615a29565b6001600160801b03811115612bac5760405162461bcd60e51b815260206004820152601060248201526f09eeccae4ccd8deee40ead2dce86264760831b6044820152606401611210565b60cc5460405163055a2bef60e41b815260009173__$fcc63677a24fb26599947a072d6b43d8c2$__916355a2bef09161401d91879187917f0000000000000000000000000000000000000000000000000000000000000000916201000090046001600160a01b0316907f000000000000000000000000000000000000000000000000000000000000000090600401615881565b60206040518083038186803b15801561403557600080fd5b505af4158015614049573d6000803e3d6000fd5b505050506040513d601f19601f8201168201806040525081019061122c91906154a8565b60d25460009081908190600160a01b900463ffffffff164210156140bc5760405162461bcd60e51b815260206004820152600660248201526521726561647960d01b6044820152606401611210565b60d1546001600160a01b03169250826141055760405162461bcd60e51b815260206004820152600b60248201526a10b732bc3a27b83a34b7b760a91b6044820152606401611210565b60d3546040805160c08101825260cc54610100810460ff16825291516370a0823160e01b81523060048201526001600160a01b039384169360009384938493849373__$c4f279750f4bbb575ac7775e752dc00849$__9363633c14269360cf939092602084019262010000900416906370a082319060240160206040518083038186803b15801561419557600080fd5b505afa1580156141a9573d6000803e3d6000fd5b505050506040513d601f19601f820116820180604052508101906141cd91906154c4565b81526020016141db60995490565b815260208082018f905260d55460408084019190915260d65460609384015280516001600160e01b031960e088901b16815260048101959095528351602486015290830151604485015282015160648401528101516084830152608081015160a483015260a0015160c482015260e40160c06040518083038186803b15801561426357600080fd5b505af4158015614277573d6000803e3d6000fd5b505050506040513d601f19601f8201168201806040525081019061429b9190615608565b809750819850829950839650849b50859c505050505050508760d160010160006101000a8154816001600160a01b0302191690836001600160a01b03160217905550600060d160000160006101000a8154816001600160a01b0302191690836001600160a01b03160217905550600060cf60000160009054906101000a900461ffff1661ffff1690508160ca600083815260200190815260200160002081905550856001600160a01b03167f0a242f7ecaf711036ca770774ceffae28e60ef042ac113ddd187f2631db0c00685858460405161438a939291909283526020830191909152604082015260600190565b60405180910390a260d080546001600160801b03191690556143ad816001615a29565b60cf805461ffff191661ffff92909216919091179055506143d090503084614b62565b80156143e0576143e084826135f0565b505050509193909250565b604051632e99361160e01b8152600481018290526001600160a01b03831690632e99361190602401602060405180830381600087803b15801561442d57600080fd5b505af1158015614441573d6000803e3d6000fd5b505050506040513d601f19601f82011682018060405250810190612f8b91906154c4565b60cf546201000090046001600160681b03166001600160a01b038216156144b15760cf80546cffffffffffffffffffffffffff60781b1916600160781b6001600160681b038416021790555b60cf805462010000600160781b031916905560d280546001600160a01b03191690556001600160a01b038216156145d757604051636c6fe87f60e11b81526001600160a01b037f000000000000000000000000000000000000000000000000000000000000000016600482015260009073__$c4f279750f4bbb575ac7775e752dc00849$__9063d8dfd0fe9060240160206040518083038186803b15801561455857600080fd5b505af415801561456c573d6000803e3d6000fd5b505050506040513d601f19601f8201168201806040525081019061459091906154c4565b9050336001600160a01b0316836001600160a01b03167f7e830f7c1771deb1bdb35c4a7e6051bbac32b376f7f4e4976b8618b0b11997f78360405161340791815260200190565b5050565b600054610100900460ff16806145f4575060005460ff16155b6146105760405162461bcd60e51b815260040161121090615902565b600054610100900460ff16158015614632576000805461ffff19166101011790555b60405163c72733f760e01b815273__$c4f279750f4bbb575ac7775e752dc00849$__9063c72733f790614677908c908c908c908b908d908c908c908c906004016156bd565b60006040518083038186803b15801561468f57600080fd5b505af41580156146a3573d6000803e3d6000fd5b505050506146af614c41565b6146b98484614cb4565b6146c1614d1d565b6146ca89612b14565b60d480546001600160a01b03808b166001600160a01b03199283161790925560d38054928a169290911691909117905560d585905561471463031ba3096132a488620f4240614a48565b60d6558160cc6147248282615c41565b505060cc546040516370a0823160e01b81523060048201526000916201000090046001600160a01b0316906370a082319060240160206040518083038186803b15801561477057600080fd5b505afa158015614784573d6000803e3d6000fd5b505050506040513d601f19601f820116820180604052508101906147a891906154c4565b90506147b381613af0565b60cf805461ffff196001600160681b03909316600160781b02929092167fffffffff00000000000000000000000000ffffffffffffffffffffffffff0000909216919091176001179055801561480f576000805461ff00191690555b505050505050505050565b835160009061ffff16158015906148355750845161ffff1684115b1561487757600061485486602001516001600160681b03168585614d84565b604087015190915061486f906001600160801b031682613f34565b91505061157d565b50505050604001516001600160801b031690565b33600090815260cb6020526040812080546001600160801b03620100008204169061ffff16816148ed5760405162461bcd60e51b815260206004820152600d60248201526c139bdd081a5b9a5d1a585d1959609a1b6044820152606401611210565b60cf5461ffff1681106149355760405162461bcd60e51b815260206004820152601060248201526f149bdd5b99081b9bdd0818db1bdcd95960821b6044820152606401611210565b33600090815260cb60205260409020805462010000600160901b031916905560d05461497190600160801b90046001600160801b0316836135e4565b60d080546001600160801b03928316600160801b029216919091179055600081815260ca602052604081205460cc546149b491859160ff61010090910416613a8e565b604080518281526020810186905291925033917ff279e6a1f5e320cca91135676d9cb6e44ca8a08c0b88342bcdb1144f6511b568910160405180910390a26149fc3084614de7565b60008111614a3e5760405162461bcd60e51b815260206004820152600f60248201526e085dda5d1a191c985dd05b5bdd5b9d608a1b6044820152606401611210565b61157d33826135f0565b600061122c8284615b4c565b600061122c8284615a41565b6040516001600160a01b038316602482015260448101829052612f8b90849063a9059cbb60e01b90606401613a17565b6000614ae5826040518060400160405280602081526020017f5361666545524332303a206c6f772d6c6576656c2063616c6c206661696c6564815250856001600160a01b0316614f359092919063ffffffff16565b805190915015612f8b5780806020019051810190614b0391906154a8565b612f8b5760405162461bcd60e51b815260206004820152602a60248201527f5361666545524332303a204552433230206f7065726174696f6e20646964206e6044820152691bdd081cdd58d8d9595960b21b6064820152608401611210565b6001600160a01b038216614bb85760405162461bcd60e51b815260206004820152601f60248201527f45524332303a206d696e7420746f20746865207a65726f2061646472657373006044820152606401611210565b8060996000828254614bca9190615a29565b90915550506001600160a01b03821660009081526097602052604081208054839290614bf7908490615a29565b90915550506040518181526001600160a01b038316906000907fddf252ad1be2c89b69c2b068fc378daa952ba7f163c4a11628f55a4df523b3ef9060200160405180910390a35050565b600054610100900460ff1680614c5a575060005460ff16155b614c765760405162461bcd60e51b815260040161121090615902565b600054610100900460ff16158015614c98576000805461ffff19166101011790555b614ca0614f44565b8015612bac576000805461ff001916905550565b600054610100900460ff1680614ccd575060005460ff16155b614ce95760405162461bcd60e51b815260040161121090615902565b600054610100900460ff16158015614d0b576000805461ffff19166101011790555b614d13614fb3565b612f79838361501d565b600054610100900460ff1680614d36575060005460ff16155b614d525760405162461bcd60e51b815260040161121090615902565b600054610100900460ff16158015614d74576000805461ffff19166101011790555b614d7c614fb3565b614ca061509b565b600060018311614dce5760405162461bcd60e51b8152602060048201526015602482015274496e76616c6964206173736574506572536861726560581b6044820152606401611210565b61157d836132a4614de085600a615aa4565b8790614a48565b6001600160a01b038216614e475760405162461bcd60e51b815260206004820152602160248201527f45524332303a206275726e2066726f6d20746865207a65726f206164647265736044820152607360f81b6064820152608401611210565b6001600160a01b03821660009081526097602052604090205481811015614ebb5760405162461bcd60e51b815260206004820152602260248201527f45524332303a206275726e20616d6f756e7420657863656564732062616c616e604482015261636560f01b6064820152608401611210565b6001600160a01b0383166000908152609760205260408120838303905560998054849290614eea908490615b6b565b90915550506040518281526000906001600160a01b038516907fddf252ad1be2c89b69c2b068fc378daa952ba7f163c4a11628f55a4df523b3ef9060200160405180910390a3505050565b606061157d84846000856150fb565b600054610100900460ff1680614f5d575060005460ff16155b614f795760405162461bcd60e51b815260040161121090615902565b600054610100900460ff16158015614f9b576000805461ffff19166101011790555b600180558015612bac576000805461ff001916905550565b600054610100900460ff1680614fcc575060005460ff16155b614fe85760405162461bcd60e51b815260040161121090615902565b600054610100900460ff16158015614ca0576000805461ffff19166101011790558015612bac576000805461ff001916905550565b600054610100900460ff1680615036575060005460ff16155b6150525760405162461bcd60e51b815260040161121090615902565b600054610100900460ff16158015615074576000805461ffff19166101011790555b825161508790609a9060208601906152e0565b508151612f7790609b9060208501906152e0565b600054610100900460ff16806150b4575060005460ff16155b6150d05760405162461bcd60e51b815260040161121090615902565b600054610100900460ff161580156150f2576000805461ffff19166101011790555b614ca033613ee2565b60608247101561515c5760405162461bcd60e51b815260206004820152602660248201527f416464726573733a20696e73756666696369656e742062616c616e636520666f6044820152651c8818d85b1b60d21b6064820152608401611210565b843b6151aa5760405162461bcd60e51b815260206004820152601d60248201527f416464726573733a2063616c6c20746f206e6f6e2d636f6e74726163740000006044820152606401611210565b600080866001600160a01b031685876040516151c691906156a1565b60006040518083038185875af1925050503d8060008114615203576040519150601f19603f3d011682016040523d82523d6000602084013e615208565b606091505b5091509150615218828286615223565b979650505050505050565b6060831561523257508161122c565b8251156152425782518084602001fd5b8160405162461bcd60e51b815260040161121091906158ce565b82805461526890615bae565b90600052602060002090601f01602090048101928261528a57600085556152d0565b82601f106152a35782800160ff198235161785556152d0565b828001600101855582156152d0579182015b828111156152d05782358255916020019190600101906152b5565b506152dc929150615354565b5090565b8280546152ec90615bae565b90600052602060002090601f01602090048101928261530e57600085556152d0565b82601f1061532757805160ff19168380011785556152d0565b828001600101855582156152d0579182015b828111156152d0578251825591602001919060010190615339565b5b808211156152dc5760008155600101615355565b803561537481615d52565b919050565b803561537481615d75565b803561537481615d8a565b6000602082840312156153a0578081fd5b813561122c81615d52565b600080604083850312156153bd578081fd5b82356153c881615d52565b915060208301356153d881615d52565b809150509250929050565b6000806000606084860312156153f7578081fd5b833561540281615d52565b9250602084013561541281615d52565b929592945050506040919091013590565b60008060408385031215615435578182fd5b823561544081615d52565b946020939093013593505050565b60008060008060808587031215615463578081fd5b845161546e81615d52565b60208601516040870151606090970151919890975090945092505050565b60006020828403121561549d578081fd5b813561122c81615d67565b6000602082840312156154b9578081fd5b815161122c81615d67565b6000602082840312156154d5578081fd5b5051919050565b600080602083850312156154ee578182fd5b823567ffffffffffffffff80821115615505578384fd5b818501915085601f830112615518578384fd5b813581811115615526578485fd5b866020828501011115615537578485fd5b60209290920196919550909350505050565b60008082840360e081121561555c578283fd5b833567ffffffffffffffff811115615572578384fd5b84016101a08187031215615584578384fd5b925060c0601f1982011215615597578182fd5b506020830190509250929050565b6000602082840312156155b6578081fd5b81356001600160801b038116811461122c578182fd5b6000602082840312156155dd578081fd5b5035919050565b600080604083850312156155f6578182fd5b8235915060208301356153d881615d52565b60008060008060008060c08789031215615620578384fd5b865195506020870151945060408701519350606087015192506080870151915060a087015190509295509295509295565b600060208284031215615662578081fd5b813563ffffffff8116811461122c578182fd5b6000815180845261568d816020860160208601615b82565b601f01601f19169290920160200192915050565b600082516156b3818460208701615b82565b9190910192915050565b60006101a060018060a01b03808c168452808b166020850152808a1660408501528860608501528760808501528160a08501526156fc82850188615675565b915083820360c08501526157108287615675565b92508435915061571f82615d67565b90151560e084015260208401359061573682615d9f565b60ff82166101008501526040850135915061575082615d52565b1661012083015261576360608401615369565b6001600160a01b031661014083015261577e60808401615384565b66ffffffffffffff1661016083015261579960a08401615379565b6001600160681b038116610180840152509998505050505050505050565b6001600160a01b038581168252602080830186905290841660408301526080606083015282546000918291600181811c90828116806157f757607f831692505b84831081141561581557634e487b7160e01b87526022600452602487fd5b6080880183905260a0880181801561583457600181146158455761586f565b60ff1986168252868201975061586f565b60008b815260209020895b8681101561586957815484820152908501908801615850565b83019850505b50959c9b505050505050505050505050565b60808152846080820152848660a0830137600060a08683018101919091526001600160a01b039485166020830152928416604082015292166060830152601f909201601f19160101919050565b60208152600061122c6020830184615675565b60208082526007908201526610b5b2b2b832b960c91b604082015260600190565b6020808252602e908201527f496e697469616c697a61626c653a20636f6e747261637420697320616c72656160408201526d191e481a5b9a5d1a585b1a5e995960921b606082015260800190565b6020808252818101527f4f776e61626c653a2063616c6c6572206973206e6f7420746865206f776e6572604082015260600190565b60208082526007908201526608585b5bdd5b9d60ca1b604082015260600190565b6020808252601f908201527f5265656e7472616e637947756172643a207265656e7472616e742063616c6c00604082015260600190565b6000808335601e198436030181126159f3578283fd5b83018035915067ffffffffffffffff821115615a0d578283fd5b602001915036819003821315615a2257600080fd5b9250929050565b60008219821115615a3c57615a3c615c04565b500190565b600082615a5c57634e487b7160e01b81526012600452602481fd5b500490565b600181815b80851115615a9c578160001904821115615a8257615a82615c04565b80851615615a8f57918102915b93841c9390800290615a66565b509250929050565b600061122c8383600082615aba5750600161117c565b81615ac75750600061117c565b8160018114615add5760028114615ae757615b03565b600191505061117c565b60ff841115615af857615af8615c04565b50506001821b61117c565b5060208310610133831016604e8410600b8410161715615b26575081810a61117c565b615b308383615a61565b8060001904821115615b4457615b44615c04565b029392505050565b6000816000190483118215151615615b6657615b66615c04565b500290565b600082821015615b7d57615b7d615c04565b500390565b60005b83811015615b9d578181015183820152602001615b85565b838111156135de5750506000910152565b600181811c90821680615bc257607f821691505b60208210811415615be357634e487b7160e01b600052602260045260246000fd5b50919050565b6000600019821415615bfd57615bfd615c04565b5060010190565b634e487b7160e01b600052601160045260246000fd5b6000813561117c81615d52565b6000813561117c81615d75565b6000813561117c81615d8a565b8135615c4c81615d67565b815460ff19811691151560ff1691821783556020840135615c6c81615d9f565b61ff008160081b169050808361ffff198416171784556040850135615c9081615d52565b6001600160b01b0319929092169092179190911760109190911b62010000600160b01b031617815560018101615ce8615ccb60608501615c1a565b82546001600160a01b0319166001600160a01b0391909116178255565b615d21615cf760808501615c34565b82805466ffffffffffffff60a01b191660a09290921b66ffffffffffffff60a01b16919091179055565b506145d7615d3160a08401615c27565b600283016001600160681b0382166001600160681b03198254161781555050565b6001600160a01b0381168114612bac57600080fd5b8015158114612bac57600080fd5b6001600160681b0381168114612bac57600080fd5b66ffffffffffffff81168114612bac57600080fd5b60ff81168114612bac57600080fdfea2646970667358221220191cf23e872f57039c8ad0e4a090693bee1a4089ef21672ab2047ce9567186ce64736f6c63430008040033",
  "libraries": {
    "VaultLifecycle": "0x853cC5f4780D81e4e5C3649C2d1ad968338517da",
    "UniswapRouter": "0x14D4aE61f7143E4b48ffb8b6eF39a3dC31F0007F"
  },
  "devdoc": {
    "kind": "dev",
    "methods": {
      "accountVaultBalance(address)": {
        "params": {
          "account": "is the address to lookup balance for"
        },
        "returns": {
          "_0": "the amount of `asset` custodied by the vault for the user"
        }
      },
      "allowance(address,address)": {
        "details": "See {IERC20-allowance}."
      },
      "approve(address,uint256)": {
        "details": "See {IERC20-approve}. Requirements: - `spender` cannot be the zero address."
      },
      "balanceOf(address)": {
        "details": "See {IERC20-balanceOf}."
      },
      "constructor": {
        "params": {
          "_gammaController": "is the contract address for opyn actions",
          "_gnosisEasyAuction": "is the contract address that facilitates gnosis auctions",
          "_marginPool": "is the contract address for providing collateral to opyn",
          "_oTokenFactory": "is the contract address for minting new opyn option types (strikes, asset, expiry)",
          "_uniswapFactory": "is the contract address of UniswapV3 factory containing",
          "_uniswapRouter": "is the contract address of UniswapV3 router that handles swaps",
          "_usdc": "is the USDC contract",
          "_weth": "is the Wrapped Ether contract"
        }
      },
      "decreaseAllowance(address,uint256)": {
        "details": "Atomically decreases the allowance granted to `spender` by the caller. This is an alternative to {approve} that can be used as a mitigation for problems described in {IERC20-approve}. Emits an {Approval} event indicating the updated allowance. Requirements: - `spender` cannot be the zero address. - `spender` must have allowance for the caller of at least `subtractedValue`."
      },
      "deposit(uint256)": {
        "params": {
          "amount": "is the amount of `asset` to deposit"
        }
      },
      "depositFor(uint256,address)": {
        "params": {
          "amount": "is the amount of `asset` to deposit",
          "creditor": "is the address that can claim/withdraw deposited amount"
        }
      },
      "increaseAllowance(address,uint256)": {
        "details": "Atomically increases the allowance granted to `spender` by the caller. This is an alternative to {approve} that can be used as a mitigation for problems described in {IERC20-approve}. Emits an {Approval} event indicating the updated allowance. Requirements: - `spender` cannot be the zero address."
      },
      "initialize((address,address,address,uint256,uint256,string,string,address,address,uint32,uint256,bool,bytes),(bool,uint8,address,address,uint56,uint104))": {
        "params": {
          "_initParams": "is the struct with vault initialization parameters",
          "_vaultParams": "is the struct with vault general data"
        }
      },
      "initiateWithdraw(uint256)": {
        "params": {
          "numShares": "is the number of shares to withdraw"
        }
      },
      "name()": {
        "details": "Returns the name of the token."
      },
      "owner()": {
        "details": "Returns the address of the current owner."
      },
      "redeem(uint256)": {
        "params": {
          "numShares": "is the number of shares to redeem"
        }
      },
      "renounceOwnership()": {
        "details": "Leaves the contract without owner. It will not be possible to call `onlyOwner` functions anymore. Can only be called by the current owner. NOTE: Renouncing ownership will leave the contract without an owner, thereby removing any functionality that is only available to the owner."
      },
      "setAuctionDuration(uint256)": {
        "params": {
          "newAuctionDuration": "is the auction duration"
        }
      },
      "setCap(uint256)": {
        "params": {
          "newCap": "is the new cap for deposits"
        }
      },
      "setFeeRecipient(address)": {
        "params": {
          "newFeeRecipient": "is the address of the new fee recipient"
        }
      },
      "setManagementFee(uint256)": {
        "params": {
          "newManagementFee": "is the management fee (6 decimals). ex: 2 * 10 ** 6 = 2%"
        }
      },
      "setNewKeeper(address)": {
        "params": {
          "newKeeper": "is the address of the new keeper"
        }
      },
      "setOptionsPremiumPricer(address)": {
        "params": {
          "newOptionsPremiumPricer": "is the address of the new strike selection contract"
        }
      },
      "setPerformanceFee(uint256)": {
        "params": {
          "newPerformanceFee": "is the performance fee (6 decimals). ex: 20 * 10 ** 6 = 20%"
        }
      },
      "setPremiumDiscount(uint256)": {
        "params": {
          "newPremiumDiscount": "is the premium discount"
        }
      },
      "setStrikePrice(uint128)": {
        "params": {
          "strikePrice": "is the strike price of the new oTokens (decimals = 8)"
        }
      },
      "setStrikeSelection(address)": {
        "params": {
          "newStrikeSelection": "is the address of the new strike selection contract"
        }
      },
      "setSwapPath(bytes)": {
        "params": {
          "newSwapPath": "is the new path"
        }
      },
      "settleAuctionAndSwap(uint256)": {
        "params": {
          "minAmountOut": "is the minimum amount of underlying acceptable for the swap"
        }
      },
      "shareBalances(address)": {
        "params": {
          "account": "is the account to lookup share balance for"
        },
        "returns": {
          "heldByAccount": "is the shares held by account",
          "heldByVault": "is the shares held on the vault (unredeemedShares)"
        }
      },
      "shares(address)": {
        "params": {
          "account": "is the account to lookup share balance for"
        },
        "returns": {
          "_0": "the share balance"
        }
      },
      "symbol()": {
        "details": "Returns the symbol of the token, usually a shorter version of the name."
      },
      "totalBalance()": {
        "returns": {
          "_0": "total balance of the vault, including the amounts locked in third party protocols"
        }
      },
      "totalSupply()": {
        "details": "See {IERC20-totalSupply}."
      },
      "transfer(address,uint256)": {
        "details": "See {IERC20-transfer}. Requirements: - `recipient` cannot be the zero address. - the caller must have a balance of at least `amount`."
      },
      "transferFrom(address,address,uint256)": {
        "details": "See {IERC20-transferFrom}. Emits an {Approval} event indicating the updated allowance. This is not required by the EIP. See the note at the beginning of {ERC20}. Requirements: - `sender` and `recipient` cannot be the zero address. - `sender` must have a balance of at least `amount`. - the caller must have allowance for ``sender``'s tokens of at least `amount`."
      },
      "transferOwnership(address)": {
        "details": "Transfers ownership of the contract to a new account (`newOwner`). Can only be called by the current owner."
      },
      "withdrawInstantly(uint256)": {
        "params": {
          "amount": "is the amount to withdraw"
        }
      }
    },
    "version": 1
  },
  "userdoc": {
    "kind": "user",
    "methods": {
      "DELAY()": {
        "notice": "15 minute timelock between commitAndClose and rollToNexOption."
      },
      "OTOKEN_FACTORY()": {
        "notice": "oTokenFactory is the factory contract used to spawn otokens. Used to lookup otokens."
      },
      "PERIOD()": {
        "notice": "7 day period between each options sale."
      },
      "USDC()": {
        "notice": "USDC 0xA0b86991c6218b36c1d19D4a2e9Eb0cE3606eB48"
      },
      "WETH()": {
        "notice": "WETH9 0xC02aaA39b223FE8D0A0e5C4F27eAD9083C756Cc2"
      },
      "accountVaultBalance(address)": {
        "notice": "Returns the asset balance held on the vault for the account"
      },
      "burnRemainingOTokens()": {
        "notice": "Burn the remaining oTokens left over from gnosis auction."
      },
      "commitAndClose()": {
        "notice": "Sets the next option the vault will be shorting, and closes the existing short.         This allows all the users to withdraw if the next option is malicious."
      },
      "completeWithdraw()": {
        "notice": "Completes a scheduled withdrawal from a past round. Uses finalized pps for the round"
      },
      "constructor": {
        "notice": "Initializes the contract with immutable variables"
      },
      "decimals()": {
        "notice": "Returns the token decimals"
      },
      "deposit(uint256)": {
        "notice": "Deposits the `asset` from msg.sender."
      },
      "depositETH()": {
        "notice": "Deposits ETH into the contract and mint vault shares. Reverts if the asset is not WETH."
      },
      "depositFor(uint256,address)": {
        "notice": "Deposits the `asset` from msg.sender added to `creditor`'s deposit.Used for vault -> vault deposits on the user's behalf"
      },
      "depositReceipts(address)": {
        "notice": "Stores the user's pending deposit for the round"
      },
      "feeRecipient()": {
        "notice": "Fee recipient for the performance and management fees"
      },
      "initialize((address,address,address,uint256,uint256,string,string,address,address,uint32,uint256,bool,bytes),(bool,uint8,address,address,uint56,uint104))": {
        "notice": "Initializes the OptionVault contract with storage variables."
      },
      "initiateWithdraw(uint256)": {
        "notice": "Initiates a withdrawal that can be processed once the round completes"
      },
      "keeper()": {
        "notice": "role in charge of weekly vault operations such as rollToNextOption and burnRemainingOTokens"
      },
      "managementFee()": {
        "notice": "Management fee charged on entire AUM in rollToNextOption. Only charged when there is no loss."
      },
      "maxRedeem()": {
        "notice": "Redeems the entire unredeemedShares balance that is owed to the account"
      },
      "optionState()": {
        "notice": "Vault's state of the options sold and the timelocked option"
      },
      "performanceFee()": {
        "notice": "Performance fee charged on premiums earned in rollToNextOption. Only charged when there is no loss."
      },
      "pricePerShare()": {
        "notice": "The price of a unit of share denominated in the `asset`"
      },
      "redeem(uint256)": {
        "notice": "Redeems shares that are owed to the account"
      },
      "rollToNextOption()": {
        "notice": "Rolls the vault's funds into a new short position."
      },
      "roundPricePerShare(uint256)": {
        "notice": "On every round's close, the pricePerShare value of an rTHETA token is stored This is used to determine the number of shares to be returned to a user with their DepositReceipt.depositAmount"
      },
      "setAuctionDuration(uint256)": {
        "notice": "Sets the new auction duration"
      },
      "setCap(uint256)": {
        "notice": "Sets a new cap for deposits"
      },
      "setFeeRecipient(address)": {
        "notice": "Sets the new fee recipient"
      },
      "setManagementFee(uint256)": {
        "notice": "Sets the management fee for the vault"
      },
      "setNewKeeper(address)": {
        "notice": "Sets the new keeper"
      },
      "setOptionsPremiumPricer(address)": {
        "notice": "Sets the new options premium pricer contract"
      },
      "setPerformanceFee(uint256)": {
        "notice": "Sets the performance fee for the vault"
      },
      "setPremiumDiscount(uint256)": {
        "notice": "Sets the new discount on premiums for options we are selling"
      },
      "setStrikePrice(uint128)": {
        "notice": "Optionality to set strike price manually"
      },
      "setStrikeSelection(address)": {
        "notice": "Sets the new strike selection contract"
      },
      "setSwapPath(bytes)": {
        "notice": "Sets a new path for swaps"
      },
      "settleAuctionAndSwap(uint256)": {
        "notice": "Settle USDC auction and swap the proceeds to underlying asset"
      },
      "shareBalances(address)": {
        "notice": "Getter for returning the account's share balance split between account and vault holdings"
      },
      "shares(address)": {
        "notice": "Getter for returning the account's share balance including unredeemed shares"
      },
      "startAuction()": {
        "notice": "Initiate the gnosis auction."
      },
      "totalBalance()": {
        "notice": "Returns the vault's total balance, including the amounts locked into a short position"
      },
      "vaultParams()": {
        "notice": "Vault's parameters like cap, decimals"
      },
      "vaultState()": {
        "notice": "Vault's lifecycle state like round and locked amounts"
      },
      "withdrawInstantly(uint256)": {
        "notice": "Withdraws the assets on the vault using the outstanding `DepositReceipt.amount`"
      },
      "withdrawals(address)": {
        "notice": "Stores pending user withdrawals"
      }
    },
    "notice": "UPGRADEABILITY: Since we use the upgradeable proxy pattern, we must observe the inheritance chain closely. Any changes/appends in storage variable needs to happen in RibbonThetaVaultStorage. RibbonThetaVault should not inherit from any other contract aside from RibbonVault, RibbonThetaVaultStorage",
    "version": 1
  },
  "storageLayout": {
    "storage": [
      {
        "astId": 130,
        "contract": "contracts/vaults/BaseVaults/RibbonThetaVault.sol:RibbonThetaVault",
        "label": "_initialized",
        "offset": 0,
        "slot": "0",
        "type": "t_bool"
      },
      {
        "astId": 133,
        "contract": "contracts/vaults/BaseVaults/RibbonThetaVault.sol:RibbonThetaVault",
        "label": "_initializing",
        "offset": 1,
        "slot": "0",
        "type": "t_bool"
      },
      {
        "astId": 184,
        "contract": "contracts/vaults/BaseVaults/RibbonThetaVault.sol:RibbonThetaVault",
        "label": "_status",
        "offset": 0,
        "slot": "1",
        "type": "t_uint256"
      },
      {
        "astId": 227,
        "contract": "contracts/vaults/BaseVaults/RibbonThetaVault.sol:RibbonThetaVault",
        "label": "__gap",
        "offset": 0,
        "slot": "2",
        "type": "t_array(t_uint256)49_storage"
      },
      {
        "astId": 947,
        "contract": "contracts/vaults/BaseVaults/RibbonThetaVault.sol:RibbonThetaVault",
        "label": "__gap",
        "offset": 0,
        "slot": "51",
        "type": "t_array(t_uint256)50_storage"
      },
      {
        "astId": 10,
        "contract": "contracts/vaults/BaseVaults/RibbonThetaVault.sol:RibbonThetaVault",
        "label": "_owner",
        "offset": 0,
        "slot": "101",
        "type": "t_address"
      },
      {
        "astId": 123,
        "contract": "contracts/vaults/BaseVaults/RibbonThetaVault.sol:RibbonThetaVault",
        "label": "__gap",
        "offset": 0,
        "slot": "102",
        "type": "t_array(t_uint256)49_storage"
      },
      {
        "astId": 247,
        "contract": "contracts/vaults/BaseVaults/RibbonThetaVault.sol:RibbonThetaVault",
        "label": "_balances",
        "offset": 0,
        "slot": "151",
        "type": "t_mapping(t_address,t_uint256)"
      },
      {
        "astId": 253,
        "contract": "contracts/vaults/BaseVaults/RibbonThetaVault.sol:RibbonThetaVault",
        "label": "_allowances",
        "offset": 0,
        "slot": "152",
        "type": "t_mapping(t_address,t_mapping(t_address,t_uint256))"
      },
      {
        "astId": 255,
        "contract": "contracts/vaults/BaseVaults/RibbonThetaVault.sol:RibbonThetaVault",
        "label": "_totalSupply",
        "offset": 0,
        "slot": "153",
        "type": "t_uint256"
      },
      {
        "astId": 257,
        "contract": "contracts/vaults/BaseVaults/RibbonThetaVault.sol:RibbonThetaVault",
        "label": "_name",
        "offset": 0,
        "slot": "154",
        "type": "t_string_storage"
      },
      {
        "astId": 259,
        "contract": "contracts/vaults/BaseVaults/RibbonThetaVault.sol:RibbonThetaVault",
        "label": "_symbol",
        "offset": 0,
        "slot": "155",
        "type": "t_string_storage"
      },
      {
        "astId": 800,
        "contract": "contracts/vaults/BaseVaults/RibbonThetaVault.sol:RibbonThetaVault",
        "label": "__gap",
        "offset": 0,
        "slot": "156",
        "type": "t_array(t_uint256)45_storage"
      },
      {
        "astId": 10803,
        "contract": "contracts/vaults/BaseVaults/RibbonThetaVault.sol:RibbonThetaVault",
        "label": "depositReceipts",
        "offset": 0,
        "slot": "201",
        "type": "t_mapping(t_address,t_struct(DepositReceipt)4933_storage)"
      },
      {
        "astId": 10808,
        "contract": "contracts/vaults/BaseVaults/RibbonThetaVault.sol:RibbonThetaVault",
        "label": "roundPricePerShare",
        "offset": 0,
        "slot": "202",
        "type": "t_mapping(t_uint256,t_uint256)"
      },
      {
        "astId": 10814,
        "contract": "contracts/vaults/BaseVaults/RibbonThetaVault.sol:RibbonThetaVault",
        "label": "withdrawals",
        "offset": 0,
        "slot": "203",
        "type": "t_mapping(t_address,t_struct(Withdrawal)4938_storage)"
      },
      {
        "astId": 10818,
        "contract": "contracts/vaults/BaseVaults/RibbonThetaVault.sol:RibbonThetaVault",
        "label": "vaultParams",
        "offset": 0,
        "slot": "204",
        "type": "t_struct(VaultParams)4908_storage"
      },
      {
        "astId": 10822,
        "contract": "contracts/vaults/BaseVaults/RibbonThetaVault.sol:RibbonThetaVault",
        "label": "vaultState",
        "offset": 0,
        "slot": "207",
        "type": "t_struct(VaultState)4926_storage"
      },
      {
        "astId": 10826,
        "contract": "contracts/vaults/BaseVaults/RibbonThetaVault.sol:RibbonThetaVault",
        "label": "optionState",
        "offset": 0,
        "slot": "209",
        "type": "t_struct(OptionState)4915_storage"
      },
      {
        "astId": 10829,
        "contract": "contracts/vaults/BaseVaults/RibbonThetaVault.sol:RibbonThetaVault",
        "label": "feeRecipient",
        "offset": 0,
        "slot": "211",
        "type": "t_address"
      },
      {
        "astId": 10832,
        "contract": "contracts/vaults/BaseVaults/RibbonThetaVault.sol:RibbonThetaVault",
        "label": "keeper",
        "offset": 0,
        "slot": "212",
        "type": "t_address"
      },
      {
        "astId": 10835,
        "contract": "contracts/vaults/BaseVaults/RibbonThetaVault.sol:RibbonThetaVault",
        "label": "performanceFee",
        "offset": 0,
        "slot": "213",
        "type": "t_uint256"
      },
      {
        "astId": 10838,
        "contract": "contracts/vaults/BaseVaults/RibbonThetaVault.sol:RibbonThetaVault",
        "label": "managementFee",
        "offset": 0,
        "slot": "214",
        "type": "t_uint256"
      },
      {
        "astId": 10842,
        "contract": "contracts/vaults/BaseVaults/RibbonThetaVault.sol:RibbonThetaVault",
        "label": "____gap",
        "offset": 0,
        "slot": "215",
        "type": "t_array(t_uint256)30_storage"
      },
      {
        "astId": 8300,
        "contract": "contracts/vaults/BaseVaults/RibbonThetaVault.sol:RibbonThetaVault",
        "label": "optionsPremiumPricer",
        "offset": 0,
        "slot": "245",
        "type": "t_address"
      },
      {
        "astId": 8302,
        "contract": "contracts/vaults/BaseVaults/RibbonThetaVault.sol:RibbonThetaVault",
        "label": "strikeSelection",
        "offset": 0,
        "slot": "246",
        "type": "t_address"
      },
      {
        "astId": 8304,
        "contract": "contracts/vaults/BaseVaults/RibbonThetaVault.sol:RibbonThetaVault",
        "label": "premiumDiscount",
        "offset": 0,
        "slot": "247",
        "type": "t_uint256"
      },
      {
        "astId": 8306,
        "contract": "contracts/vaults/BaseVaults/RibbonThetaVault.sol:RibbonThetaVault",
        "label": "currentOtokenPremium",
        "offset": 0,
        "slot": "248",
        "type": "t_uint256"
      },
      {
        "astId": 8308,
        "contract": "contracts/vaults/BaseVaults/RibbonThetaVault.sol:RibbonThetaVault",
        "label": "lastStrikeOverrideRound",
        "offset": 0,
        "slot": "249",
        "type": "t_uint16"
      },
      {
        "astId": 8310,
        "contract": "contracts/vaults/BaseVaults/RibbonThetaVault.sol:RibbonThetaVault",
        "label": "overriddenStrikePrice",
        "offset": 0,
        "slot": "250",
        "type": "t_uint256"
      },
      {
        "astId": 8312,
        "contract": "contracts/vaults/BaseVaults/RibbonThetaVault.sol:RibbonThetaVault",
        "label": "auctionDuration",
        "offset": 0,
        "slot": "251",
        "type": "t_uint256"
      },
      {
        "astId": 8314,
        "contract": "contracts/vaults/BaseVaults/RibbonThetaVault.sol:RibbonThetaVault",
        "label": "optionAuctionID",
        "offset": 0,
        "slot": "252",
        "type": "t_uint256"
      },
      {
        "astId": 8317,
        "contract": "contracts/vaults/BaseVaults/RibbonThetaVault.sol:RibbonThetaVault",
        "label": "lastQueuedWithdrawAmount",
        "offset": 0,
        "slot": "253",
        "type": "t_uint256"
      },
      {
        "astId": 8320,
        "contract": "contracts/vaults/BaseVaults/RibbonThetaVault.sol:RibbonThetaVault",
        "label": "isUsdcAuction",
        "offset": 0,
        "slot": "254",
        "type": "t_bool"
      },
      {
        "astId": 8322,
        "contract": "contracts/vaults/BaseVaults/RibbonThetaVault.sol:RibbonThetaVault",
        "label": "swapPath",
        "offset": 0,
        "slot": "255",
        "type": "t_bytes_storage"
      }
    ],
    "types": {
      "t_address": {
        "encoding": "inplace",
        "label": "address",
        "numberOfBytes": "20"
      },
      "t_array(t_uint256)30_storage": {
        "base": "t_uint256",
        "encoding": "inplace",
        "label": "uint256[30]",
        "numberOfBytes": "960"
      },
      "t_array(t_uint256)45_storage": {
        "base": "t_uint256",
        "encoding": "inplace",
        "label": "uint256[45]",
        "numberOfBytes": "1440"
      },
      "t_array(t_uint256)49_storage": {
        "base": "t_uint256",
        "encoding": "inplace",
        "label": "uint256[49]",
        "numberOfBytes": "1568"
      },
      "t_array(t_uint256)50_storage": {
        "base": "t_uint256",
        "encoding": "inplace",
        "label": "uint256[50]",
        "numberOfBytes": "1600"
      },
      "t_bool": {
        "encoding": "inplace",
        "label": "bool",
        "numberOfBytes": "1"
      },
      "t_bytes_storage": {
        "encoding": "bytes",
        "label": "bytes",
        "numberOfBytes": "32"
      },
      "t_mapping(t_address,t_mapping(t_address,t_uint256))": {
        "encoding": "mapping",
        "key": "t_address",
        "label": "mapping(address => mapping(address => uint256))",
        "numberOfBytes": "32",
        "value": "t_mapping(t_address,t_uint256)"
      },
      "t_mapping(t_address,t_struct(DepositReceipt)4933_storage)": {
        "encoding": "mapping",
        "key": "t_address",
        "label": "mapping(address => struct Vault.DepositReceipt)",
        "numberOfBytes": "32",
        "value": "t_struct(DepositReceipt)4933_storage"
      },
      "t_mapping(t_address,t_struct(Withdrawal)4938_storage)": {
        "encoding": "mapping",
        "key": "t_address",
        "label": "mapping(address => struct Vault.Withdrawal)",
        "numberOfBytes": "32",
        "value": "t_struct(Withdrawal)4938_storage"
      },
      "t_mapping(t_address,t_uint256)": {
        "encoding": "mapping",
        "key": "t_address",
        "label": "mapping(address => uint256)",
        "numberOfBytes": "32",
        "value": "t_uint256"
      },
      "t_mapping(t_uint256,t_uint256)": {
        "encoding": "mapping",
        "key": "t_uint256",
        "label": "mapping(uint256 => uint256)",
        "numberOfBytes": "32",
        "value": "t_uint256"
      },
      "t_string_storage": {
        "encoding": "bytes",
        "label": "string",
        "numberOfBytes": "32"
      },
      "t_struct(DepositReceipt)4933_storage": {
        "encoding": "inplace",
        "label": "struct Vault.DepositReceipt",
        "members": [
          {
            "astId": 4928,
            "contract": "contracts/vaults/BaseVaults/RibbonThetaVault.sol:RibbonThetaVault",
            "label": "round",
            "offset": 0,
            "slot": "0",
            "type": "t_uint16"
          },
          {
            "astId": 4930,
            "contract": "contracts/vaults/BaseVaults/RibbonThetaVault.sol:RibbonThetaVault",
            "label": "amount",
            "offset": 2,
            "slot": "0",
            "type": "t_uint104"
          },
          {
            "astId": 4932,
            "contract": "contracts/vaults/BaseVaults/RibbonThetaVault.sol:RibbonThetaVault",
            "label": "unredeemedShares",
            "offset": 15,
            "slot": "0",
            "type": "t_uint128"
          }
        ],
        "numberOfBytes": "32"
      },
      "t_struct(OptionState)4915_storage": {
        "encoding": "inplace",
        "label": "struct Vault.OptionState",
        "members": [
          {
            "astId": 4910,
            "contract": "contracts/vaults/BaseVaults/RibbonThetaVault.sol:RibbonThetaVault",
            "label": "nextOption",
            "offset": 0,
            "slot": "0",
            "type": "t_address"
          },
          {
            "astId": 4912,
            "contract": "contracts/vaults/BaseVaults/RibbonThetaVault.sol:RibbonThetaVault",
            "label": "currentOption",
            "offset": 0,
            "slot": "1",
            "type": "t_address"
          },
          {
            "astId": 4914,
            "contract": "contracts/vaults/BaseVaults/RibbonThetaVault.sol:RibbonThetaVault",
            "label": "nextOptionReadyAt",
            "offset": 20,
            "slot": "1",
            "type": "t_uint32"
          }
        ],
        "numberOfBytes": "64"
      },
      "t_struct(VaultParams)4908_storage": {
        "encoding": "inplace",
        "label": "struct Vault.VaultParams",
        "members": [
          {
            "astId": 4897,
            "contract": "contracts/vaults/BaseVaults/RibbonThetaVault.sol:RibbonThetaVault",
            "label": "isPut",
            "offset": 0,
            "slot": "0",
            "type": "t_bool"
          },
          {
            "astId": 4899,
            "contract": "contracts/vaults/BaseVaults/RibbonThetaVault.sol:RibbonThetaVault",
            "label": "decimals",
            "offset": 1,
            "slot": "0",
            "type": "t_uint8"
          },
          {
            "astId": 4901,
            "contract": "contracts/vaults/BaseVaults/RibbonThetaVault.sol:RibbonThetaVault",
            "label": "asset",
            "offset": 2,
            "slot": "0",
            "type": "t_address"
          },
          {
            "astId": 4903,
            "contract": "contracts/vaults/BaseVaults/RibbonThetaVault.sol:RibbonThetaVault",
            "label": "underlying",
            "offset": 0,
            "slot": "1",
            "type": "t_address"
          },
          {
            "astId": 4905,
            "contract": "contracts/vaults/BaseVaults/RibbonThetaVault.sol:RibbonThetaVault",
            "label": "minimumSupply",
            "offset": 20,
            "slot": "1",
            "type": "t_uint56"
          },
          {
            "astId": 4907,
            "contract": "contracts/vaults/BaseVaults/RibbonThetaVault.sol:RibbonThetaVault",
            "label": "cap",
            "offset": 0,
            "slot": "2",
            "type": "t_uint104"
          }
        ],
        "numberOfBytes": "96"
      },
      "t_struct(VaultState)4926_storage": {
        "encoding": "inplace",
        "label": "struct Vault.VaultState",
        "members": [
          {
            "astId": 4917,
            "contract": "contracts/vaults/BaseVaults/RibbonThetaVault.sol:RibbonThetaVault",
            "label": "round",
            "offset": 0,
            "slot": "0",
            "type": "t_uint16"
          },
          {
            "astId": 4919,
            "contract": "contracts/vaults/BaseVaults/RibbonThetaVault.sol:RibbonThetaVault",
            "label": "lockedAmount",
            "offset": 2,
            "slot": "0",
            "type": "t_uint104"
          },
          {
            "astId": 4921,
            "contract": "contracts/vaults/BaseVaults/RibbonThetaVault.sol:RibbonThetaVault",
            "label": "lastLockedAmount",
            "offset": 15,
            "slot": "0",
            "type": "t_uint104"
          },
          {
            "astId": 4923,
            "contract": "contracts/vaults/BaseVaults/RibbonThetaVault.sol:RibbonThetaVault",
            "label": "totalPending",
            "offset": 0,
            "slot": "1",
            "type": "t_uint128"
          },
          {
            "astId": 4925,
            "contract": "contracts/vaults/BaseVaults/RibbonThetaVault.sol:RibbonThetaVault",
            "label": "queuedWithdrawShares",
            "offset": 16,
            "slot": "1",
            "type": "t_uint128"
          }
        ],
        "numberOfBytes": "64"
      },
      "t_struct(Withdrawal)4938_storage": {
        "encoding": "inplace",
        "label": "struct Vault.Withdrawal",
        "members": [
          {
            "astId": 4935,
            "contract": "contracts/vaults/BaseVaults/RibbonThetaVault.sol:RibbonThetaVault",
            "label": "round",
            "offset": 0,
            "slot": "0",
            "type": "t_uint16"
          },
          {
            "astId": 4937,
            "contract": "contracts/vaults/BaseVaults/RibbonThetaVault.sol:RibbonThetaVault",
            "label": "shares",
            "offset": 2,
            "slot": "0",
            "type": "t_uint128"
          }
        ],
        "numberOfBytes": "32"
      },
      "t_uint104": {
        "encoding": "inplace",
        "label": "uint104",
        "numberOfBytes": "13"
      },
      "t_uint128": {
        "encoding": "inplace",
        "label": "uint128",
        "numberOfBytes": "16"
      },
      "t_uint16": {
        "encoding": "inplace",
        "label": "uint16",
        "numberOfBytes": "2"
      },
      "t_uint256": {
        "encoding": "inplace",
        "label": "uint256",
        "numberOfBytes": "32"
      },
      "t_uint32": {
        "encoding": "inplace",
        "label": "uint32",
        "numberOfBytes": "4"
      },
      "t_uint56": {
        "encoding": "inplace",
        "label": "uint56",
        "numberOfBytes": "7"
      },
      "t_uint8": {
        "encoding": "inplace",
        "label": "uint8",
        "numberOfBytes": "1"
      }
    }
  }
}