{
  "address": "0x429c5539a65A50EEAa6743841f9d77fA5266342f",
  "abi": [
    {
      "inputs": [
        {
          "internalType": "address",
          "name": "_sAVAX",
          "type": "address"
        },
        {
          "internalType": "address",
          "name": "_WAVAXOracle",
          "type": "address"
        }
      ],
      "stateMutability": "nonpayable",
      "type": "constructor"
    },
    {
      "inputs": [],
      "name": "WAVAXOracle",
      "outputs": [
        {
          "internalType": "contract AggregatorV3Interface",
          "name": "",
          "type": "address"
        }
      ],
      "stateMutability": "view",
      "type": "function"
    },
    {
      "inputs": [],
      "name": "decimals",
      "outputs": [
        {
          "internalType": "uint256",
          "name": "",
          "type": "uint256"
        }
      ],
      "stateMutability": "view",
      "type": "function"
    },
    {
      "inputs": [],
      "name": "latestAnswer",
      "outputs": [
        {
          "internalType": "uint256",
          "name": "",
          "type": "uint256"
        }
      ],
      "stateMutability": "view",
      "type": "function"
    },
    {
      "inputs": [],
      "name": "sAVAX",
      "outputs": [
        {
          "internalType": "contract ISAVAX",
          "name": "",
          "type": "address"
        }
      ],
      "stateMutability": "view",
      "type": "function"
    }
  ],
  "transactionHash": "0x960d098676cfabc5ee1cc77826b8e27c9727566debc39a25bb9d4e9823f9ea57",
  "args": [
    "0x83eC1001526Da4cbD55a032d17b3B5914bE7c0C8",
    "0x5498BB86BC934c8D34FDA08E81D444153d0D06aD"
  ],
  "solcInputHash": "cdf57611370e1dae03162545e4b1545f",
  "bytecode": "0x608060405234801561001057600080fd5b506040516105da3803806105da83398101604081905261002f91610105565b6001600160a01b0382166100735760405162461bcd60e51b8152602060048201526006602482015265042e682ac82b60d31b60448201526064015b60405180910390fd5b6001600160a01b0381166100b85760405162461bcd60e51b815260206004820152600c60248201526b2157415641584f7261636c6560a01b604482015260640161006a565b600180546001600160a01b039384166001600160a01b03199182161790915560008054929093169116179055610137565b80516001600160a01b038116811461010057600080fd5b919050565b60008060408385031215610117578182fd5b610120836100e9565b915061012e602084016100e9565b90509250929050565b610494806101466000396000f3fe608060405234801561001057600080fd5b506004361061004c5760003560e01c8063313ce5671461005157806350d25bcd1461006c57806382a67eae14610074578063a2a5236c1461009f575b600080fd5b6100596100b2565b6040519081526020015b60405180910390f35b610059610141565b600054610087906001600160a01b031681565b6040516001600160a01b039091168152602001610063565b600154610087906001600160a01b031681565b60008060009054906101000a90046001600160a01b03166001600160a01b031663313ce5676040518163ffffffff1660e01b815260040160206040518083038186803b15801561010157600080fd5b505afa158015610115573d6000803e3d6000fd5b505050506040513d601f19601f8201168201806040525081019061013991906103f2565b60ff16905090565b60008060008060008060009054906101000a90046001600160a01b03166001600160a01b031663feaf968c6040518163ffffffff1660e01b815260040160a06040518083038186803b15801561019657600080fd5b505afa1580156101aa573d6000803e3d6000fd5b505050506040513d601f19601f820116820180604052508101906101ce91906103a3565b9450945050935093508369ffffffffffffffffffff168169ffffffffffffffffffff1610156102395760405162461bcd60e51b81526020600482015260126024820152715374616c65206f7261636c6520707269636560701b60448201526064015b60405180910390fd5b816102735760405162461bcd60e51b815260206004820152600a60248201526902174696d655374616d760b41b6044820152606401610230565b6000610280846000610295565b905061028b816102ae565b9550505050505090565b6000818312156102a557816102a7565b825b9392505050565b600154604051634a36d6c160e01b8152670de0b6b3a7640000600482015260009182916001600160a01b0390911690634a36d6c19060240160206040518083038186803b1580156102fe57600080fd5b505afa158015610312573d6000803e3d6000fd5b505050506040513d601f19601f82011682018060405250810190610336919061038b565b90506102a7670de0b6b3a764000061034e8386610354565b90610360565b60006102a78284610433565b60006102a78284610413565b805169ffffffffffffffffffff8116811461038657600080fd5b919050565b60006020828403121561039c578081fd5b5051919050565b600080600080600060a086880312156103ba578081fd5b6103c38661036c565b94506020860151935060408601519250606086015191506103e66080870161036c565b90509295509295909350565b600060208284031215610403578081fd5b815160ff811681146102a7578182fd5b60008261042e57634e487b7160e01b81526012600452602481fd5b500490565b600081600019048311821515161561045957634e487b7160e01b81526011600452602481fd5b50029056fea2646970667358221220af91cecba0d789046aca92780c3517fbdef470129fb656b5121029a937ea3d9d64736f6c63430008040033",
  "devdoc": {
    "kind": "dev",
    "methods": {},
    "version": 1
  },
  "userdoc": {
    "kind": "user",
    "methods": {},
    "version": 1
  },
  "storageLayout": {
    "storage": [
      {
        "astId": 10941,
        "contract": "contracts/oracles/SAvaxOracle.sol:SAvaxOracle",
        "label": "WAVAXOracle",
        "offset": 0,
        "slot": "0",
        "type": "t_contract(AggregatorV3Interface)45"
      },
      {
        "astId": 10944,
        "contract": "contracts/oracles/SAvaxOracle.sol:SAvaxOracle",
        "label": "sAVAX",
        "offset": 0,
        "slot": "1",
        "type": "t_contract(ISAVAX)3307"
      }
    ],
    "types": {
      "t_contract(AggregatorV3Interface)45": {
        "encoding": "inplace",
        "label": "contract AggregatorV3Interface",
        "numberOfBytes": "20"
      },
      "t_contract(ISAVAX)3307": {
        "encoding": "inplace",
        "label": "contract ISAVAX",
        "numberOfBytes": "20"
      }
    }
  }
}