{
  "address": "0x13F20ed881f7ED97C5EA34B33C9305D7f7D00fd3",
  "abi": [
    {
      "inputs": [
        {
          "internalType": "address",
          "name": "_sAVAX",
          "type": "address"
        },
        {
          "internalType": "address",
          "name": "_sAVAXVault",
          "type": "address"
        }
      ],
      "stateMutability": "nonpayable",
      "type": "constructor"
    },
    {
      "inputs": [],
      "name": "deposit",
      "outputs": [],
      "stateMutability": "payable",
      "type": "function"
    },
    {
      "inputs": [],
      "name": "sAVAX",
      "outputs": [
        {
          "internalType": "contract ISAVAX",
          "name": "",
          "type": "address"
        }
      ],
      "stateMutability": "view",
      "type": "function"
    },
    {
      "inputs": [],
      "name": "sAVAXVault",
      "outputs": [
        {
          "internalType": "contract IRibbonVault",
          "name": "",
          "type": "address"
        }
      ],
      "stateMutability": "view",
      "type": "function"
    }
  ],
  "transactionHash": "0xca1c577c23dba57b795dbd78a44543a43c0ca3bb18bee7512f8f063e68db5d7f",
  "args": [
    "0x83eC1001526Da4cbD55a032d17b3B5914bE7c0C8",
    "0x4f62BFd896bD484bC45663DEc5A28B85817E7a0E"
  ],
  "solcInputHash": "8a4a4aef1fe8fdfcb811d32f7d1d2a2d",
  "bytecode": "0x60c060405234801561001057600080fd5b5060405161048438038061048483398101604081905261002f916100f1565b6001600160a01b0382166100735760405162461bcd60e51b8152602060048201526006602482015265042e682ac82b60d31b60448201526064015b60405180910390fd5b6001600160a01b0381166100b75760405162461bcd60e51b815260206004820152600b60248201526a085cd055905615985d5b1d60aa1b604482015260640161006a565b6001600160601b0319606092831b8116608052911b1660a052610123565b80516001600160a01b03811681146100ec57600080fd5b919050565b60008060408385031215610103578182fd5b61010c836100d5565b915061011a602084016100d5565b90509250929050565b60805160601c60a05160601c61031d61016760003960008181609b015281816101740152610241015260008181604b0152818160cb01526101a6015261031d6000f3fe6080604052600436106100345760003560e01c8063a2a5236c14610039578063caa8c3c714610089578063d0e30db0146100bd575b600080fd5b34801561004557600080fd5b5061006d7f000000000000000000000000000000000000000000000000000000000000000081565b6040516001600160a01b03909116815260200160405180910390f35b34801561009557600080fd5b5061006d7f000000000000000000000000000000000000000000000000000000000000000081565b6100c56100c7565b005b60007f00000000000000000000000000000000000000000000000000000000000000006001600160a01b0316635bcb2fc6346040518263ffffffff1660e01b81526004016020604051808303818588803b15801561012457600080fd5b505af1158015610138573d6000803e3d6000fd5b50505050506040513d601f19601f8201168201806040525081019061015d91906102cf565b60405163095ea7b360e01b81526001600160a01b037f000000000000000000000000000000000000000000000000000000000000000081166004830152602482018390529192507f00000000000000000000000000000000000000000000000000000000000000009091169063095ea7b390604401602060405180830381600087803b1580156101ec57600080fd5b505af1158015610200573d6000803e3d6000fd5b505050506040513d601f19601f8201168201806040525081019061022491906102a8565b506040516336efd16f60e01b8152600481018290523360248201527f00000000000000000000000000000000000000000000000000000000000000006001600160a01b0316906336efd16f90604401600060405180830381600087803b15801561028d57600080fd5b505af11580156102a1573d6000803e3d6000fd5b5050505050565b6000602082840312156102b9578081fd5b815180151581146102c8578182fd5b9392505050565b6000602082840312156102e0578081fd5b505191905056fea26469706673582212202bf6fb12ce0754786d0b7b6e38f874df4f97caa0ebe07cd314f786cf69a20a6264736f6c63430008040033",
  "devdoc": {
    "kind": "dev",
    "methods": {},
    "version": 1
  },
  "userdoc": {
    "kind": "user",
    "methods": {},
    "version": 1
  },
  "storageLayout": {
    "storage": [],
    "types": null
  }
}