{
  "address": "0x1DD78D76a6414A5FdfE15FD97987e161Cc18463e",
  "abi": [
    {
      "inputs": [],
      "stateMutability": "nonpayable",
      "type": "constructor"
    },
    {
      "anonymous": false,
      "inputs": [
        {
          "indexed": true,
          "internalType": "address",
          "name": "signer",
          "type": "address"
        },
        {
          "indexed": true,
          "internalType": "address",
          "name": "signerWallet",
          "type": "address"
        }
      ],
      "name": "Authorize",
      "type": "event"
    },
    {
      "anonymous": false,
      "inputs": [
        {
          "indexed": true,
          "internalType": "uint256",
          "name": "nonce",
          "type": "uint256"
        },
        {
          "indexed": true,
          "internalType": "address",
          "name": "signerWallet",
          "type": "address"
        }
      ],
      "name": "Cancel",
      "type": "event"
    },
    {
      "anonymous": false,
      "inputs": [
        {
          "indexed": false,
          "internalType": "uint256",
          "name": "swapId",
          "type": "uint256"
        },
        {
          "indexed": false,
          "internalType": "address",
          "name": "seller",
          "type": "address"
        },
        {
          "indexed": false,
          "internalType": "address",
          "name": "oToken",
          "type": "address"
        },
        {
          "indexed": false,
          "internalType": "address",
          "name": "biddingToken",
          "type": "address"
        },
        {
          "indexed": false,
          "internalType": "uint256",
          "name": "minPrice",
          "type": "uint256"
        },
        {
          "indexed": false,
          "internalType": "uint256",
          "name": "minBidSize",
          "type": "uint256"
        },
        {
          "indexed": false,
          "internalType": "uint256",
          "name": "totalSize",
          "type": "uint256"
        }
      ],
      "name": "NewOffer",
      "type": "event"
    },
    {
      "anonymous": false,
      "inputs": [
        {
          "indexed": true,
          "internalType": "address",
          "name": "previousOwner",
          "type": "address"
        },
        {
          "indexed": true,
          "internalType": "address",
          "name": "newOwner",
          "type": "address"
        }
      ],
      "name": "OwnershipTransferred",
      "type": "event"
    },
    {
      "anonymous": false,
      "inputs": [
        {
          "indexed": true,
          "internalType": "address",
          "name": "signer",
          "type": "address"
        },
        {
          "indexed": true,
          "internalType": "address",
          "name": "signerWallet",
          "type": "address"
        }
      ],
      "name": "Revoke",
      "type": "event"
    },
    {
      "anonymous": false,
      "inputs": [
        {
          "indexed": false,
          "internalType": "address",
          "name": "referrer",
          "type": "address"
        },
        {
          "indexed": false,
          "internalType": "uint256",
          "name": "fee",
          "type": "uint256"
        }
      ],
      "name": "SetFee",
      "type": "event"
    },
    {
      "anonymous": false,
      "inputs": [
        {
          "indexed": false,
          "internalType": "uint256",
          "name": "swapId",
          "type": "uint256"
        }
      ],
      "name": "SettleOffer",
      "type": "event"
    },
    {
      "anonymous": false,
      "inputs": [
        {
          "indexed": true,
          "internalType": "uint256",
          "name": "swapId",
          "type": "uint256"
        },
        {
          "indexed": false,
          "internalType": "uint256",
          "name": "nonce",
          "type": "uint256"
        },
        {
          "indexed": true,
          "internalType": "address",
          "name": "signerWallet",
          "type": "address"
        },
        {
          "indexed": false,
          "internalType": "uint256",
          "name": "signerAmount",
          "type": "uint256"
        },
        {
          "indexed": false,
          "internalType": "uint256",
          "name": "sellerAmount",
          "type": "uint256"
        },
        {
          "indexed": false,
          "internalType": "address",
          "name": "referrer",
          "type": "address"
        },
        {
          "indexed": false,
          "internalType": "uint256",
          "name": "feeAmount",
          "type": "uint256"
        }
      ],
      "name": "Swap",
      "type": "event"
    },
    {
      "inputs": [],
      "name": "BID_TYPEHASH",
      "outputs": [
        {
          "internalType": "bytes32",
          "name": "",
          "type": "bytes32"
        }
      ],
      "stateMutability": "view",
      "type": "function"
    },
    {
      "inputs": [],
      "name": "DOMAIN_CHAIN_ID",
      "outputs": [
        {
          "internalType": "uint256",
          "name": "",
          "type": "uint256"
        }
      ],
      "stateMutability": "view",
      "type": "function"
    },
    {
      "inputs": [],
      "name": "DOMAIN_NAME",
      "outputs": [
        {
          "internalType": "bytes32",
          "name": "",
          "type": "bytes32"
        }
      ],
      "stateMutability": "view",
      "type": "function"
    },
    {
      "inputs": [],
      "name": "DOMAIN_SEPARATOR",
      "outputs": [
        {
          "internalType": "bytes32",
          "name": "",
          "type": "bytes32"
        }
      ],
      "stateMutability": "view",
      "type": "function"
    },
    {
      "inputs": [],
      "name": "DOMAIN_TYPEHASH",
      "outputs": [
        {
          "internalType": "bytes32",
          "name": "",
          "type": "bytes32"
        }
      ],
      "stateMutability": "view",
      "type": "function"
    },
    {
      "inputs": [],
      "name": "DOMAIN_VERSION",
      "outputs": [
        {
          "internalType": "bytes32",
          "name": "",
          "type": "bytes32"
        }
      ],
      "stateMutability": "view",
      "type": "function"
    },
    {
      "inputs": [
        {
          "internalType": "address",
          "name": "signer",
          "type": "address"
        }
      ],
      "name": "authorize",
      "outputs": [],
      "stateMutability": "nonpayable",
      "type": "function"
    },
    {
      "inputs": [
        {
          "internalType": "address",
          "name": "",
          "type": "address"
        }
      ],
      "name": "authorized",
      "outputs": [
        {
          "internalType": "address",
          "name": "",
          "type": "address"
        }
      ],
      "stateMutability": "view",
      "type": "function"
    },
    {
      "inputs": [
        {
          "internalType": "uint256",
          "name": "swapId",
          "type": "uint256"
        }
      ],
      "name": "averagePriceForOffer",
      "outputs": [
        {
          "internalType": "uint256",
          "name": "",
          "type": "uint256"
        }
      ],
      "stateMutability": "view",
      "type": "function"
    },
    {
      "inputs": [
        {
          "internalType": "uint256[]",
          "name": "nonces",
          "type": "uint256[]"
        }
      ],
      "name": "cancelNonce",
      "outputs": [],
      "stateMutability": "nonpayable",
      "type": "function"
    },
    {
      "inputs": [
        {
          "components": [
            {
              "internalType": "uint256",
              "name": "swapId",
              "type": "uint256"
            },
            {
              "internalType": "uint256",
              "name": "nonce",
              "type": "uint256"
            },
            {
              "internalType": "address",
              "name": "signerWallet",
              "type": "address"
            },
            {
              "internalType": "uint256",
              "name": "sellAmount",
              "type": "uint256"
            },
            {
              "internalType": "uint256",
              "name": "buyAmount",
              "type": "uint256"
            },
            {
              "internalType": "address",
              "name": "referrer",
              "type": "address"
            },
            {
              "internalType": "uint8",
              "name": "v",
              "type": "uint8"
            },
            {
              "internalType": "bytes32",
              "name": "r",
              "type": "bytes32"
            },
            {
              "internalType": "bytes32",
              "name": "s",
              "type": "bytes32"
            }
          ],
          "internalType": "struct ISwap.Bid",
          "name": "bid",
          "type": "tuple"
        }
      ],
      "name": "check",
      "outputs": [
        {
          "internalType": "uint256",
          "name": "",
          "type": "uint256"
        },
        {
          "internalType": "bytes32[]",
          "name": "",
          "type": "bytes32[]"
        }
      ],
      "stateMutability": "view",
      "type": "function"
    },
    {
      "inputs": [
        {
          "internalType": "address",
          "name": "oToken",
          "type": "address"
        },
        {
          "internalType": "address",
          "name": "biddingToken",
          "type": "address"
        },
        {
          "internalType": "uint96",
          "name": "minPrice",
          "type": "uint96"
        },
        {
          "internalType": "uint96",
          "name": "minBidSize",
          "type": "uint96"
        },
        {
          "internalType": "uint128",
          "name": "totalSize",
          "type": "uint128"
        }
      ],
      "name": "createOffer",
      "outputs": [
        {
          "internalType": "uint256",
          "name": "swapId",
          "type": "uint256"
        }
      ],
      "stateMutability": "nonpayable",
      "type": "function"
    },
    {
      "inputs": [
        {
          "internalType": "string",
          "name": "_domainName",
          "type": "string"
        },
        {
          "internalType": "string",
          "name": "_domainVersion",
          "type": "string"
        },
        {
          "internalType": "address",
          "name": "_owner",
          "type": "address"
        }
      ],
      "name": "initialize",
      "outputs": [],
      "stateMutability": "nonpayable",
      "type": "function"
    },
    {
      "inputs": [
        {
          "internalType": "address",
          "name": "signer",
          "type": "address"
        },
        {
          "internalType": "uint256",
          "name": "nonce",
          "type": "uint256"
        }
      ],
      "name": "nonceUsed",
      "outputs": [
        {
          "internalType": "bool",
          "name": "",
          "type": "bool"
        }
      ],
      "stateMutability": "view",
      "type": "function"
    },
    {
      "inputs": [],
      "name": "offersCounter",
      "outputs": [
        {
          "internalType": "uint256",
          "name": "",
          "type": "uint256"
        }
      ],
      "stateMutability": "view",
      "type": "function"
    },
    {
      "inputs": [],
      "name": "owner",
      "outputs": [
        {
          "internalType": "address",
          "name": "",
          "type": "address"
        }
      ],
      "stateMutability": "view",
      "type": "function"
    },
    {
      "inputs": [
        {
          "internalType": "address",
          "name": "",
          "type": "address"
        }
      ],
      "name": "referralFees",
      "outputs": [
        {
          "internalType": "uint256",
          "name": "",
          "type": "uint256"
        }
      ],
      "stateMutability": "view",
      "type": "function"
    },
    {
      "inputs": [],
      "name": "renounceOwnership",
      "outputs": [],
      "stateMutability": "nonpayable",
      "type": "function"
    },
    {
      "inputs": [],
      "name": "revoke",
      "outputs": [],
      "stateMutability": "nonpayable",
      "type": "function"
    },
    {
      "inputs": [
        {
          "internalType": "address",
          "name": "referrer",
          "type": "address"
        },
        {
          "internalType": "uint256",
          "name": "fee",
          "type": "uint256"
        }
      ],
      "name": "setFee",
      "outputs": [],
      "stateMutability": "nonpayable",
      "type": "function"
    },
    {
      "inputs": [
        {
          "internalType": "uint256",
          "name": "swapId",
          "type": "uint256"
        },
        {
          "components": [
            {
              "internalType": "uint256",
              "name": "swapId",
              "type": "uint256"
            },
            {
              "internalType": "uint256",
              "name": "nonce",
              "type": "uint256"
            },
            {
              "internalType": "address",
              "name": "signerWallet",
              "type": "address"
            },
            {
              "internalType": "uint256",
              "name": "sellAmount",
              "type": "uint256"
            },
            {
              "internalType": "uint256",
              "name": "buyAmount",
              "type": "uint256"
            },
            {
              "internalType": "address",
              "name": "referrer",
              "type": "address"
            },
            {
              "internalType": "uint8",
              "name": "v",
              "type": "uint8"
            },
            {
              "internalType": "bytes32",
              "name": "r",
              "type": "bytes32"
            },
            {
              "internalType": "bytes32",
              "name": "s",
              "type": "bytes32"
            }
          ],
          "internalType": "struct ISwap.Bid[]",
          "name": "bids",
          "type": "tuple[]"
        }
      ],
      "name": "settleOffer",
      "outputs": [],
      "stateMutability": "nonpayable",
      "type": "function"
    },
    {
      "inputs": [
        {
          "internalType": "uint256",
          "name": "",
          "type": "uint256"
        }
      ],
      "name": "swapOffers",
      "outputs": [
        {
          "internalType": "address",
          "name": "seller",
          "type": "address"
        },
        {
          "internalType": "address",
          "name": "oToken",
          "type": "address"
        },
        {
          "internalType": "uint96",
          "name": "minPrice",
          "type": "uint96"
        },
        {
          "internalType": "address",
          "name": "biddingToken",
          "type": "address"
        },
        {
          "internalType": "uint96",
          "name": "minBidSize",
          "type": "uint96"
        },
        {
          "internalType": "uint128",
          "name": "totalSize",
          "type": "uint128"
        },
        {
          "internalType": "uint128",
          "name": "availableSize",
          "type": "uint128"
        },
        {
          "internalType": "uint256",
          "name": "totalSales",
          "type": "uint256"
        }
      ],
      "stateMutability": "view",
      "type": "function"
    },
    {
      "inputs": [
        {
          "internalType": "address",
          "name": "newOwner",
          "type": "address"
        }
      ],
      "name": "transferOwnership",
      "outputs": [],
      "stateMutability": "nonpayable",
      "type": "function"
    }
  ],
  "transactionHash": "0xf5041faf862fdb37a109de7d2569164e5dc2c61578a2f226077765db4afd2623",
  "args": [],
  "solcInputHash": "7c5737198e0350df334dd243d1d73ef5",
  "bytecode": "0x60a060405234801561001057600080fd5b50466080819052612c7761003d600039600081816101d9015281816105870152611a7a0152612c776000f3fe608060405234801561001057600080fd5b506004361061014d5760003560e01c806375780f42116100c3578063b6a5d7de1161007c578063b6a5d7de1461035e578063b918161114610371578063d5172fcc1461039a578063e55156b5146103ad578063f2fde38b146103c0578063fbcac9e1146103d357600080fd5b806375780f4214610227578063796f077b146102475780638da5cb5b14610250578063a13f1c6214610275578063acb8cc491461034d578063b6549f751461035657600080fd5b80633644e515116101155780633644e515146101cb578063416f281d146101d457806351bb9b1e146101fb57806369fd925f146102035780636c1c56f11461020c578063715018a61461021f57600080fd5b8063077f224a1461015257806307a975a1146101675780631647795e1461018d57806320606b70146101b05780632787b5f8146101b8575b600080fd5b610165610160366004612675565b6103f4565b005b61017a610175366004612549565b6105e7565b6040519081526020015b60405180910390f35b6101a061019b3660046125bc565b6108d5565b6040519015158152602001610184565b61017a61092d565b61017a6101c63660046126fe565b610955565b61017a60995481565b61017a7f000000000000000000000000000000000000000000000000000000000000000081565b61017a610a2c565b61017a609a5481565b61016561021a3660046125e5565b610a3b565b610165610ac6565b61017a61023536600461252f565b609c6020526000908152604090205481565b61017a60975481565b6065546001600160a01b03165b6040516001600160a01b039091168152602001610184565b6102ee6102833660046126fe565b609b60205260009081526040902080546001820154600283015460038401546004909401546001600160a01b0393841694838516946001600160601b03600160a01b95869004811695918516949190910416916001600160801b0380831692600160801b9004169088565b604080516001600160a01b03998a16815297891660208901526001600160601b0396871690880152969093166060860152921660808401526001600160801b0391821660a08401521660c082015260e081019190915261010001610184565b61017a60985481565b610165610afc565b61016561036c36600461252f565b610b54565b61025d61037f36600461252f565b609d602052600090815260409020546001600160a01b031681565b6101656103a836600461272e565b610bf1565b6101656103bb3660046125bc565b610f23565b6101656103ce36600461252f565b61104e565b6103e66103e13660046126e6565b6110e9565b6040516101849291906129e2565b600054610100900460ff168061040d575060005460ff16155b6104325760405162461bcd60e51b81526004016104299061295f565b60405180910390fd5b600054610100900460ff16158015610454576000805461ffff19166101011790555b60008451116104945760405162461bcd60e51b815260206004820152600c60248201526b215f646f6d61696e4e616d6560a01b6044820152606401610429565b60008351116104d75760405162461bcd60e51b815260206004820152600f60248201526e10afb237b6b0b4b72b32b939b4b7b760891b6044820152606401610429565b6001600160a01b0382166105175760405162461bcd60e51b815260206004820152600760248201526610afb7bbb732b960c91b6044820152606401610429565b61051f6118b2565b610527611925565b6105308261104e565b8351602080860191909120609755835184820120609855604051610554910161289d565b60408051601f198184030181528282528051602091820120609754609854928501919091529183019190915260608201527f000000000000000000000000000000000000000000000000000000000000000060808201523060a082015260c00160408051601f19818403018152919052805160209091012060995580156105e1576000805461ff00191690555b50505050565b60006001600160a01b0386166106495760405162461bcd60e51b815260206004820152602160248201527f6f546f6b656e2063616e6e6f7420626520746865207a65726f206164647265736044820152607360f81b6064820152608401610429565b6001600160a01b0385166106af5760405162461bcd60e51b815260206004820152602760248201527f42696464696e67546f6b656e2063616e6e6f7420626520746865207a65726f206044820152666164647265737360c81b6064820152608401610429565b6000846001600160601b0316116107125760405162461bcd60e51b815260206004820152602160248201527f4d696e5072696365206d757374206265206c6172676572207468616e207a65726044820152606f60f81b6064820152608401610429565b6000836001600160601b0316116107775760405162461bcd60e51b815260206004820152602360248201527f4d696e42696453697a65206d757374206265206c6172676572207468616e207a60448201526265726f60e81b6064820152608401610429565b816001600160801b0316836001600160601b031611156107d95760405162461bcd60e51b815260206004820152601d60248201527f4d696e42696453697a65206578636565647320746f74616c2073697a650000006044820152606401610429565b6001609a60008282546107ec9190612a2f565b9091555050609a546000818152609b602090815260409182902080546001600160a01b0319163390811782556001600160601b03888116600160a01b8181026001600160a01b038e81169182176002880155938d16918202938f16938417600180880191909155600160801b6001600160801b038d1690810281176003890155600490970155875189815296870194909452858701929092526060850192909252608084015260a083015260c082015290519192507f61ed224de71f3815c67ff417a9cba223a61831d6223cfd50f3986f55cca81166919081900360e00190a195945050505050565b6000806108e461010084612a47565b905060006108f461010085612beb565b6001600160a01b0386166000908152609e6020908152604080832095835294905292909220546001921c82169091149150505b92915050565b60405160200161093c9061289d565b6040516020818303038152906040528051906020012081565b6000818152609b6020526040812060038101546001600160801b03166109b45760405162461bcd60e51b815260206004820152601460248201527313d999995c88191bd95cc81b9bdd08195e1a5cdd60621b6044820152606401610429565b6003810154600160801b90046001600160801b03166000816109d75760006109da565b60015b600384015460ff9190911691506109fb9083906001600160801b0316612b8d565b818460040154610a0b9190612b8d565b610a19906305f5e100612b46565b610a239190612a47565b95945050505050565b60405160200161093c906127e6565b60005b81811015610ac1576000838383818110610a6857634e487b7160e01b600052603260045260246000fd5b905060200201359050610a7b338261198c565b15610aae57604051339082907f8dd3c361eb2366ff27c2db0eb07b9261f1d052570742ab8c9a0c326f37aa576d90600090a35b5080610ab981612bd0565b915050610a3e565b505050565b6065546001600160a01b03163314610af05760405162461bcd60e51b8152600401610429906129ad565b610afa6000611a25565b565b336000818152609d602052604080822080546001600160a01b0319811690915590516001600160a01b03909116929183917fd7426110292f20fe59e73ccf52124e0f5440a756507c91c7b0a6c50e1eb1a23a9190a350565b6001600160a01b038116610b9b5760405162461bcd60e51b815260206004820152600e60248201526d14d251d3915497d253959053125160921b6044820152606401610429565b336000818152609d602052604080822080546001600160a01b0319166001600160a01b038616908117909155905190917f30468de898bda644e26bab66e5a2241a3aa6aaf527257f5ca54e0f65204ba14a91a350565b60026001541415610c445760405162461bcd60e51b815260206004820152601f60248201527f5265656e7472616e637947756172643a207265656e7472616e742063616c6c006044820152606401610429565b60026001556000838152609b6020526040902080546001600160a01b0316338114610cc75760405162461bcd60e51b815260206004820152602d60248201527f4f6e6c792073656c6c65722063616e20736574746c65206f72206f666665722060448201526c191bd95cdb89dd08195e1a5cdd609a1b6064820152608401610429565b6003820154600160801b90046001600160801b0316610d1e5760405162461bcd60e51b815260206004820152601360248201527213d999995c88199d5b1b1e481cd95d1d1b1959606a1b6044820152606401610429565b6040805160a0810182526001600160a01b03838116825260018501548082166020840152600286015491821660608401526001600160601b03600160a01b9182900481169484019490945290049091166080820152600090815b85811015610e7457868682818110610da057634e487b7160e01b600052603260045260246000fd5b90506101200201600001358814610df95760405162461bcd60e51b815260206004820152601f60248201527f4f6666657220616e642062696420737761704964206d69736d617463686564006044820152606401610429565b610e2a8286898985818110610e1e57634e487b7160e01b600052603260045260246000fd5b90506101200201611a77565b868682818110610e4a57634e487b7160e01b600052603260045260246000fd5b905061012002016060013583610e609190612a2f565b925080610e6c81612bd0565b915050610d78565b506003840154600160801b90046001600160801b03161580610e97576000610e9a565b60015b610ea79060ff1684612b8d565b856004016000828254610eba9190612a2f565b90915550508015610f155784546001600160a01b031916855560006002860181905560018601556040518881527f1b5db04ed24662a962854839dba8e5b26c71e843c99221f770571a4ea3ecfdcd9060200160405180910390a15b505060018055505050505050565b6065546001600160a01b03163314610f4d5760405162461bcd60e51b8152600401610429906129ad565b6001600160a01b038216610faf5760405162461bcd60e51b815260206004820152602360248201527f52656665727265722063616e6e6f7420626520746865207a65726f206164647260448201526265737360e81b6064820152608401610429565b6103e88110610ff65760405162461bcd60e51b81526020600482015260136024820152724665652065786365656473206d6178696d756d60681b6044820152606401610429565b6001600160a01b0382166000818152609c6020908152604091829020849055815192835282018390527f01fe2943baee27f47add82886c2200f910c749c461c9b63c5fe83901a53bdb49910160405180910390a15050565b6065546001600160a01b031633146110785760405162461bcd60e51b8152600401610429906129ad565b6001600160a01b0381166110dd5760405162461bcd60e51b815260206004820152602660248201527f4f776e61626c653a206e6577206f776e657220697320746865207a65726f206160448201526564647265737360d01b6064820152608401610429565b6110e681611a25565b50565b80356000908152609b6020908152604080832081516101008101835281546001600160a01b039081168083526001840154808316968401969096526001600160601b03600160a01b96879004811695840195909552600284015491821660608481019190915295909104909316608082015260038201546001600160801b0380821660a0840152600160801b9091041660c082015260049091015460e0820152906111cd5760405162461bcd60e51b815260206004820152601460248201527313d999995c88191bd95cc81b9bdd08195e1a5cdd60621b6044820152606401610429565b60408051600a808252610160820190925260009160208201610140803683370190505090506000806111fe87611f3d565b90506001600160a01b03811661125c577014d251d3905515549157d2539590531251607a1b83838151811061124357634e487b7160e01b600052603260045260246000fd5b60209081029190910101528161125881612bd0565b9250505b6001600160a01b0381166112766060890160408a0161252f565b6001600160a01b0316141580156112c657506001600160a01b038116609d60006112a660608b0160408c0161252f565b6001600160a01b0390811682526020820192909252604001600020541614155b15611314576b15539055551213d49256915160a21b8383815181106112fb57634e487b7160e01b600052603260045260246000fd5b60209081029190910101528161131081612bd0565b9250505b6113228188602001356108d5565b1561137657711393d390d157d053149150511657d554d15160721b83838151811061135d57634e487b7160e01b600052603260045260246000fd5b60209081029190910101528161137281612bd0565b9250505b83608001516001600160601b0316876080013510156113d9576c10925117d513d3d7d4d3505313609a1b8383815181106113c057634e487b7160e01b600052603260045260246000fd5b6020908102919091010152816113d581612bd0565b9250505b8360c001516001600160801b03168760800135111561144857784249445f4558434545445f415641494c41424c455f53495a4560381b83838151811061142f57634e487b7160e01b600052603260045260246000fd5b60209081029190910101528161144481612bd0565b9250505b6000608088013561145b6008600a612a9e565b6114699060608b0135612b46565b6114739190612a47565b905084604001516001600160601b03168110156114d4576c50524943455f544f4f5f4c4f5760981b8484815181106114bb57634e487b7160e01b600052603260045260246000fd5b6020908102919091010152826114d081612bd0565b9350505b600085606001516001600160a01b031663dd62ed3e8a60400160208101906114fc919061252f565b6040516001600160e01b031960e084901b1681526001600160a01b03909116600482015230602482015260440160206040518083038186803b15801561154157600080fd5b505afa158015611555573d6000803e3d6000fd5b505050506040513d601f19601f820116820180604052508101906115799190612716565b905088606001358110156115d857735349474e45525f414c4c4f57414e43455f4c4f5760601b8585815181106115bf57634e487b7160e01b600052603260045260246000fd5b6020908102919091010152836115d481612bd0565b9450505b600086606001516001600160a01b03166370a082318b6040016020810190611600919061252f565b6040516001600160e01b031960e084901b1681526001600160a01b03909116600482015260240160206040518083038186803b15801561163f57600080fd5b505afa158015611653573d6000803e3d6000fd5b505050506040513d601f19601f820116820180604052508101906116779190612716565b905089606001358110156116d457715349474e45525f42414c414e43455f4c4f5760701b8686815181106116bb57634e487b7160e01b600052603260045260246000fd5b6020908102919091010152846116d081612bd0565b9550505b60208701518751604051636eb1769f60e11b81526001600160a01b039182166004820152306024820152600092919091169063dd62ed3e9060440160206040518083038186803b15801561172757600080fd5b505afa15801561173b573d6000803e3d6000fd5b505050506040513d601f19601f8201168201806040525081019061175f9190612716565b90508a608001358110156117be577353454c4c45525f414c4c4f57414e43455f4c4f5760601b8787815181106117a557634e487b7160e01b600052603260045260246000fd5b6020908102919091010152856117ba81612bd0565b9650505b602088015188516040516370a0823160e01b81526001600160a01b03918216600482015260009291909116906370a082319060240160206040518083038186803b15801561180b57600080fd5b505afa15801561181f573d6000803e3d6000fd5b505050506040513d601f19601f820116820180604052508101906118439190612716565b90508b608001358110156118a0577153454c4c45525f42414c414e43455f4c4f5760701b88888151811061188757634e487b7160e01b600052603260045260246000fd5b60209081029190910101528661189c81612bd0565b9750505b50949a95995094975050505050505050565b600054610100900460ff16806118cb575060005460ff16155b6118e75760405162461bcd60e51b81526004016104299061295f565b600054610100900460ff16158015611909576000805461ffff19166101011790555b6119116120ad565b80156110e6576000805461ff001916905550565b600054610100900460ff168061193e575060005460ff16155b61195a5760405162461bcd60e51b81526004016104299061295f565b600054610100900460ff1615801561197c576000805461ffff19166101011790555b61198461211c565b611911612186565b60008061199b61010084612a47565b905060006119ab61010085612beb565b6001600160a01b0386166000908152609e60209081526040808320868452909152902054909150600181831c811614156119eb5760009350505050610927565b6001600160a01b0386166000908152609e602090815260408083209583529490529290922060019182901b92909217909155905092915050565b606580546001600160a01b038381166001600160a01b0319831681179093556040519116919082907f8be0079c531659141344cd1fd0a4f28419497f9722a3daafe3b4186f6b6457e090600090a35050565b467f000000000000000000000000000000000000000000000000000000000000000014611ad95760405162461bcd60e51b815260206004820152601060248201526f10d210525397d25117d0d2105391d15160821b6044820152606401610429565b6000611ae482611f3d565b90506001600160a01b038116611b305760405162461bcd60e51b815260206004820152601160248201527014d251d3905515549157d2539590531251607a1b6044820152606401610429565b6001600160a01b038116611b4a606084016040850161252f565b6001600160a01b031614611bcf576001600160a01b038116609d6000611b76606086016040870161252f565b6001600160a01b0390811682526020820192909252604001600020541614611bcf5760405162461bcd60e51b815260206004820152600c60248201526b15539055551213d49256915160a21b6044820152606401610429565b611bdd81836020013561198c565b611c1e5760405162461bcd60e51b81526020600482015260126024820152711393d390d157d053149150511657d554d15160721b6044820152606401610429565b6003830154600160801b90046001600160801b031660808301351115611c825760405162461bcd60e51b81526020600482015260196024820152784249445f4558434545445f415641494c41424c455f53495a4560381b6044820152606401610429565b836080015182608001351015611cca5760405162461bcd60e51b815260206004820152600d60248201526c10925117d513d3d7d4d3505313609a1b6044820152606401610429565b60006080830135611cdd6008600a612a9e565b611ceb906060860135612b46565b611cf59190612a47565b90508460400151811015611d3b5760405162461bcd60e51b815260206004820152600d60248201526c50524943455f544f4f5f4c4f5760981b6044820152606401610429565b82608001358460030160108282829054906101000a90046001600160801b0316611d659190612b65565b92506101000a8154816001600160801b0302191690836001600160801b03160217905550611dbe8560000151846040016020810190611da4919061252f565b60208801516001600160a01b0316919060808701356121e6565b600080611dd160c0860160a0870161252f565b6001600160a01b031614611e6e576000609c81611df460c0880160a0890161252f565b6001600160a01b0316815260208101919091526040016000205490508015611e6c57612710611e27826060880135612b46565b611e319190612a47565b9150611e6c611e46606087016040880161252f565b611e5660c0880160a0890161252f565b60608a01516001600160a01b03169190856121e6565b505b611ea7611e81606086016040870161252f565b8751611e91846060890135612b8d565b60608a01516001600160a01b03169291906121e6565b611eb7606085016040860161252f565b6001600160a01b031684357f71abc95ed6b8cb4d0cc5eee25c1212bea3ca594e723da5c9facf161f3f5b6bd5602087013560608801356080890135611f0260c08b0160a08c0161252f565b604080519485526020850193909352918301526001600160a01b031660608201526080810185905260a00160405180910390a3505050505050565b60006001609954604051602001611f53906127e6565b6040516020818303038152906040528051906020012084600001358560200135866040016020810190611f86919061252f565b60608801356080890135611fa060c08b0160a08c0161252f565b60408051602081019890985287019590955260608601939093526001600160a01b03918216608086015260a085015260c08401919091521660e0820152610100016040516020818303038152906040528051906020012060405160200161201e92919061190160f01b81526002810192909252602282015260420190565b60408051601f19818403018152919052805160209091012061204660e0850160c086016127a9565b6040805160008152602081018083529390935260ff9091169082015260e08401356060820152610100840135608082015260a0016020604051602081039080840390855afa15801561209c573d6000803e3d6000fd5b5050604051601f1901519392505050565b600054610100900460ff16806120c6575060005460ff16155b6120e25760405162461bcd60e51b81526004016104299061295f565b600054610100900460ff16158015612104576000805461ffff19166101011790555b6001805580156110e6576000805461ff001916905550565b600054610100900460ff1680612135575060005460ff16155b6121515760405162461bcd60e51b81526004016104299061295f565b600054610100900460ff16158015611911576000805461ffff191661010117905580156110e6576000805461ff001916905550565b600054610100900460ff168061219f575060005460ff16155b6121bb5760405162461bcd60e51b81526004016104299061295f565b600054610100900460ff161580156121dd576000805461ffff19166101011790555b61191133611a25565b604080516001600160a01b038581166024830152848116604483015260648083018590528351808403909101815260849092018352602080830180516001600160e01b03166323b872dd60e01b17905283518085019094528084527f5361666545524332303a206c6f772d6c6576656c2063616c6c206661696c6564908401526105e19287929160009161227e9185169084906122fb565b805190915015610ac1578080602001905181019061229c9190612655565b610ac15760405162461bcd60e51b815260206004820152602a60248201527f5361666545524332303a204552433230206f7065726174696f6e20646964206e6044820152691bdd081cdd58d8d9595960b21b6064820152608401610429565b606061230a8484600085612314565b90505b9392505050565b6060824710156123755760405162461bcd60e51b815260206004820152602660248201527f416464726573733a20696e73756666696369656e742062616c616e636520666f6044820152651c8818d85b1b60d21b6064820152608401610429565b843b6123c35760405162461bcd60e51b815260206004820152601d60248201527f416464726573733a2063616c6c20746f206e6f6e2d636f6e74726163740000006044820152606401610429565b600080866001600160a01b031685876040516123df91906127ca565b60006040518083038185875af1925050503d806000811461241c576040519150601f19603f3d011682016040523d82523d6000602084013e612421565b606091505b509150915061243182828661243c565b979650505050505050565b6060831561244b57508161230d565b82511561245b5782518084602001fd5b8160405162461bcd60e51b8152600401610429919061292c565b80356001600160a01b038116811461248c57600080fd5b919050565b600082601f8301126124a1578081fd5b813567ffffffffffffffff808211156124bc576124bc612c2b565b604051601f8301601f19908116603f011681019082821181831017156124e4576124e4612c2b565b816040528381528660208588010111156124fc578485fd5b8360208701602083013792830160200193909352509392505050565b80356001600160601b038116811461248c57600080fd5b600060208284031215612540578081fd5b61230d82612475565b600080600080600060a08688031215612560578081fd5b61256986612475565b945061257760208701612475565b935061258560408701612518565b925061259360608701612518565b915060808601356001600160801b03811681146125ae578182fd5b809150509295509295909350565b600080604083850312156125ce578182fd5b6125d783612475565b946020939093013593505050565b600080602083850312156125f7578182fd5b823567ffffffffffffffff8082111561260e578384fd5b818501915085601f830112612621578384fd5b81358181111561262f578485fd5b8660208260051b8501011115612643578485fd5b60209290920196919550909350505050565b600060208284031215612666578081fd5b8151801515811461230d578182fd5b600080600060608486031215612689578283fd5b833567ffffffffffffffff808211156126a0578485fd5b6126ac87838801612491565b945060208601359150808211156126c1578384fd5b506126ce86828701612491565b9250506126dd60408501612475565b90509250925092565b600061012082840312156126f8578081fd5b50919050565b60006020828403121561270f578081fd5b5035919050565b600060208284031215612727578081fd5b5051919050565b600080600060408486031215612742578283fd5b83359250602084013567ffffffffffffffff80821115612760578384fd5b818601915086601f830112612773578384fd5b813581811115612781578485fd5b87602061012083028501011115612796578485fd5b6020830194508093505050509250925092565b6000602082840312156127ba578081fd5b813560ff8116811461230d578182fd5b600082516127dc818460208701612ba4565b9190910192915050565b63084d2c8560e31b81526e1d5a5b9d0c8d4d881cddd85c12590b608a1b60048201526d1d5a5b9d0c8d4d881b9bdb98d94b60921b6013820152741859191c995cdcc81cda59db995c95d85b1b195d0b605a1b6021820152721d5a5b9d0c8d4d881cd95b1b105b5bdd5b9d0b606a1b6036820152711d5a5b9d0c8d4d88189d5e505b5bdd5b9d0b60721b60498201526f30b2323932b9b9903932b332b93932b960811b605b820152602960f81b606b820152606c0190565b6c08a92a06e626488dedac2d2dc5609b1b81526b1cdd1c9a5b99c81b985b594b60a21b600d8201526e1cdd1c9a5b99c81d995c9cda5bdb8b608a1b60198201526f1d5a5b9d0c8d4d8818da185a5b92590b60821b60288201527f6164647265737320766572696679696e67436f6e7472616374000000000000006038820152602960f81b605182015260520190565b602081526000825180602084015261294b816040850160208701612ba4565b601f01601f19169190910160400192915050565b6020808252602e908201527f496e697469616c697a61626c653a20636f6e747261637420697320616c72656160408201526d191e481a5b9a5d1a585b1a5e995960921b606082015260800190565b6020808252818101527f4f776e61626c653a2063616c6c6572206973206e6f7420746865206f776e6572604082015260600190565b60006040820184835260206040818501528185518084526060860191508287019350845b81811015612a2257845183529383019391830191600101612a06565b5090979650505050505050565b60008219821115612a4257612a42612bff565b500190565b600082612a5657612a56612c15565b500490565b600181815b80851115612a96578160001904821115612a7c57612a7c612bff565b80851615612a8957918102915b93841c9390800290612a60565b509250929050565b600061230d8383600082612ab457506001610927565b81612ac157506000610927565b8160018114612ad75760028114612ae157612afd565b6001915050610927565b60ff841115612af257612af2612bff565b50506001821b610927565b5060208310610133831016604e8410600b8410161715612b20575081810a610927565b612b2a8383612a5b565b8060001904821115612b3e57612b3e612bff565b029392505050565b6000816000190483118215151615612b6057612b60612bff565b500290565b60006001600160801b0383811690831681811015612b8557612b85612bff565b039392505050565b600082821015612b9f57612b9f612bff565b500390565b60005b83811015612bbf578181015183820152602001612ba7565b838111156105e15750506000910152565b6000600019821415612be457612be4612bff565b5060010190565b600082612bfa57612bfa612c15565b500690565b634e487b7160e01b600052601160045260246000fd5b634e487b7160e01b600052601260045260246000fd5b634e487b7160e01b600052604160045260246000fdfea26469706673582212202320f76fbd58ab73a94bbb720268a6cefad5c36432c3ddb0a4b63764db91e05264736f6c63430008040033",
  "devdoc": {
    "kind": "dev",
    "methods": {
      "authorize(address)": {
        "details": "Emits an Authorize event",
        "params": {
          "signer": "address Wallet of the signer to authorize"
        }
      },
      "averagePriceForOffer(uint256)": {
        "params": {
          "swapId": "unique identifier of the swap offer"
        }
      },
      "cancelNonce(uint256[])": {
        "details": "Cancelled nonces are marked as usedEmits a Cancel eventOut of gas may occur in arrays of length > 400",
        "params": {
          "nonces": "uint256[] List of nonces to cancel"
        }
      },
      "check((uint256,uint256,address,uint256,uint256,address,uint8,bytes32,bytes32))": {
        "params": {
          "bid": "Bid struct containing bid details"
        },
        "returns": {
          "_0": "tuple of error count and bytes32[] memory array of error messages"
        }
      },
      "createOffer(address,address,uint96,uint96,uint128)": {
        "params": {
          "biddingToken": "token asked by seller",
          "minBidSize": "minimum amount of oToken requested in a single bid",
          "minPrice": "minimum price of oToken denominated in biddingToken",
          "oToken": "token offered by seller",
          "totalSize": "amount of oToken offered by seller"
        }
      },
      "nonceUsed(address,uint256)": {
        "params": {
          "nonce": "uint256 Nonce being checked",
          "signer": "address Address of the signer"
        }
      },
      "owner()": {
        "details": "Returns the address of the current owner."
      },
      "renounceOwnership()": {
        "details": "Leaves the contract without owner. It will not be possible to call `onlyOwner` functions anymore. Can only be called by the current owner. NOTE: Renouncing ownership will leave the contract without an owner, thereby removing any functionality that is only available to the owner."
      },
      "revoke()": {
        "details": "Emits a Revoke event"
      },
      "setFee(address,uint256)": {
        "params": {
          "fee": "is the fee in percent in 2 decimals",
          "referrer": "is the address of the referrer"
        }
      },
      "settleOffer(uint256,(uint256,uint256,address,uint256,uint256,address,uint8,bytes32,bytes32)[])": {
        "params": {
          "bids": "bids for swaps",
          "swapId": "unique identifier of the swap offer"
        }
      },
      "transferOwnership(address)": {
        "details": "Transfers ownership of the contract to a new account (`newOwner`). Can only be called by the current owner."
      }
    },
    "version": 1
  },
  "userdoc": {
    "kind": "user",
    "methods": {
      "authorize(address)": {
        "notice": "Authorize a signer"
      },
      "averagePriceForOffer(uint256)": {
        "notice": "Returns the average settlement price for a swap offer"
      },
      "cancelNonce(uint256[])": {
        "notice": "Cancel one or more nonces"
      },
      "check((uint256,uint256,address,uint256,uint256,address,uint8,bytes32,bytes32))": {
        "notice": "Validates Swap bid for any potential errors"
      },
      "createOffer(address,address,uint96,uint96,uint128)": {
        "notice": "Create a new offer available for swap"
      },
      "nonceUsed(address,uint256)": {
        "notice": "Returns true if the nonce has been used"
      },
      "revoke()": {
        "notice": "Revoke the signer"
      },
      "setFee(address,uint256)": {
        "notice": "Sets the referral fee for a specific referrer"
      },
      "settleOffer(uint256,(uint256,uint256,address,uint256,uint256,address,uint8,bytes32,bytes32)[])": {
        "notice": "Settles the swap offering by iterating through the bids"
      }
    },
    "version": 1
  },
  "storageLayout": {
    "storage": [
      {
        "astId": 176,
        "contract": "contracts/utils/Swap.sol:Swap",
        "label": "_initialized",
        "offset": 0,
        "slot": "0",
        "type": "t_bool"
      },
      {
        "astId": 179,
        "contract": "contracts/utils/Swap.sol:Swap",
        "label": "_initializing",
        "offset": 1,
        "slot": "0",
        "type": "t_bool"
      },
      {
        "astId": 230,
        "contract": "contracts/utils/Swap.sol:Swap",
        "label": "_status",
        "offset": 0,
        "slot": "1",
        "type": "t_uint256"
      },
      {
        "astId": 273,
        "contract": "contracts/utils/Swap.sol:Swap",
        "label": "__gap",
        "offset": 0,
        "slot": "2",
        "type": "t_array(t_uint256)49_storage"
      },
      {
        "astId": 993,
        "contract": "contracts/utils/Swap.sol:Swap",
        "label": "__gap",
        "offset": 0,
        "slot": "51",
        "type": "t_array(t_uint256)50_storage"
      },
      {
        "astId": 56,
        "contract": "contracts/utils/Swap.sol:Swap",
        "label": "_owner",
        "offset": 0,
        "slot": "101",
        "type": "t_address"
      },
      {
        "astId": 169,
        "contract": "contracts/utils/Swap.sol:Swap",
        "label": "__gap",
        "offset": 0,
        "slot": "102",
        "type": "t_array(t_uint256)49_storage"
      },
      {
        "astId": 14487,
        "contract": "contracts/utils/Swap.sol:Swap",
        "label": "DOMAIN_NAME",
        "offset": 0,
        "slot": "151",
        "type": "t_bytes32"
      },
      {
        "astId": 14489,
        "contract": "contracts/utils/Swap.sol:Swap",
        "label": "DOMAIN_VERSION",
        "offset": 0,
        "slot": "152",
        "type": "t_bytes32"
      },
      {
        "astId": 14491,
        "contract": "contracts/utils/Swap.sol:Swap",
        "label": "DOMAIN_SEPARATOR",
        "offset": 0,
        "slot": "153",
        "type": "t_bytes32"
      },
      {
        "astId": 14493,
        "contract": "contracts/utils/Swap.sol:Swap",
        "label": "offersCounter",
        "offset": 0,
        "slot": "154",
        "type": "t_uint256"
      },
      {
        "astId": 14498,
        "contract": "contracts/utils/Swap.sol:Swap",
        "label": "swapOffers",
        "offset": 0,
        "slot": "155",
        "type": "t_mapping(t_uint256,t_struct(Offer)4120_storage)"
      },
      {
        "astId": 14502,
        "contract": "contracts/utils/Swap.sol:Swap",
        "label": "referralFees",
        "offset": 0,
        "slot": "156",
        "type": "t_mapping(t_address,t_uint256)"
      },
      {
        "astId": 14506,
        "contract": "contracts/utils/Swap.sol:Swap",
        "label": "authorized",
        "offset": 0,
        "slot": "157",
        "type": "t_mapping(t_address,t_address)"
      },
      {
        "astId": 14513,
        "contract": "contracts/utils/Swap.sol:Swap",
        "label": "_nonceGroups",
        "offset": 0,
        "slot": "158",
        "type": "t_mapping(t_address,t_mapping(t_uint256,t_uint256))"
      }
    ],
    "types": {
      "t_address": {
        "encoding": "inplace",
        "label": "address",
        "numberOfBytes": "20"
      },
      "t_array(t_uint256)49_storage": {
        "base": "t_uint256",
        "encoding": "inplace",
        "label": "uint256[49]",
        "numberOfBytes": "1568"
      },
      "t_array(t_uint256)50_storage": {
        "base": "t_uint256",
        "encoding": "inplace",
        "label": "uint256[50]",
        "numberOfBytes": "1600"
      },
      "t_bool": {
        "encoding": "inplace",
        "label": "bool",
        "numberOfBytes": "1"
      },
      "t_bytes32": {
        "encoding": "inplace",
        "label": "bytes32",
        "numberOfBytes": "32"
      },
      "t_mapping(t_address,t_address)": {
        "encoding": "mapping",
        "key": "t_address",
        "label": "mapping(address => address)",
        "numberOfBytes": "32",
        "value": "t_address"
      },
      "t_mapping(t_address,t_mapping(t_uint256,t_uint256))": {
        "encoding": "mapping",
        "key": "t_address",
        "label": "mapping(address => mapping(uint256 => uint256))",
        "numberOfBytes": "32",
        "value": "t_mapping(t_uint256,t_uint256)"
      },
      "t_mapping(t_address,t_uint256)": {
        "encoding": "mapping",
        "key": "t_address",
        "label": "mapping(address => uint256)",
        "numberOfBytes": "32",
        "value": "t_uint256"
      },
      "t_mapping(t_uint256,t_struct(Offer)4120_storage)": {
        "encoding": "mapping",
        "key": "t_uint256",
        "label": "mapping(uint256 => struct ISwap.Offer)",
        "numberOfBytes": "32",
        "value": "t_struct(Offer)4120_storage"
      },
      "t_mapping(t_uint256,t_uint256)": {
        "encoding": "mapping",
        "key": "t_uint256",
        "label": "mapping(uint256 => uint256)",
        "numberOfBytes": "32",
        "value": "t_uint256"
      },
      "t_struct(Offer)4120_storage": {
        "encoding": "inplace",
        "label": "struct ISwap.Offer",
        "members": [
          {
            "astId": 4105,
            "contract": "contracts/utils/Swap.sol:Swap",
            "label": "seller",
            "offset": 0,
            "slot": "0",
            "type": "t_address"
          },
          {
            "astId": 4107,
            "contract": "contracts/utils/Swap.sol:Swap",
            "label": "oToken",
            "offset": 0,
            "slot": "1",
            "type": "t_address"
          },
          {
            "astId": 4109,
            "contract": "contracts/utils/Swap.sol:Swap",
            "label": "minPrice",
            "offset": 20,
            "slot": "1",
            "type": "t_uint96"
          },
          {
            "astId": 4111,
            "contract": "contracts/utils/Swap.sol:Swap",
            "label": "biddingToken",
            "offset": 0,
            "slot": "2",
            "type": "t_address"
          },
          {
            "astId": 4113,
            "contract": "contracts/utils/Swap.sol:Swap",
            "label": "minBidSize",
            "offset": 20,
            "slot": "2",
            "type": "t_uint96"
          },
          {
            "astId": 4115,
            "contract": "contracts/utils/Swap.sol:Swap",
            "label": "totalSize",
            "offset": 0,
            "slot": "3",
            "type": "t_uint128"
          },
          {
            "astId": 4117,
            "contract": "contracts/utils/Swap.sol:Swap",
            "label": "availableSize",
            "offset": 16,
            "slot": "3",
            "type": "t_uint128"
          },
          {
            "astId": 4119,
            "contract": "contracts/utils/Swap.sol:Swap",
            "label": "totalSales",
            "offset": 0,
            "slot": "4",
            "type": "t_uint256"
          }
        ],
        "numberOfBytes": "160"
      },
      "t_uint128": {
        "encoding": "inplace",
        "label": "uint128",
        "numberOfBytes": "16"
      },
      "t_uint256": {
        "encoding": "inplace",
        "label": "uint256",
        "numberOfBytes": "32"
      },
      "t_uint96": {
        "encoding": "inplace",
        "label": "uint96",
        "numberOfBytes": "12"
      }
    }
  }
}