{
  "address": "0x94aaFff6B6Bf89b0Fd6fCBEa84436eb094Dd47A8",
  "abi": [
    {
      "inputs": [
        {
          "internalType": "bytes",
          "name": "swapPath",
          "type": "bytes"
        },
        {
          "internalType": "address",
          "name": "validTokenIn",
          "type": "address"
        },
        {
          "internalType": "address",
          "name": "validTokenOut",
          "type": "address"
        },
        {
          "internalType": "address",
          "name": "uniswapFactory",
          "type": "address"
        }
      ],
      "name": "checkPath",
      "outputs": [
        {
          "internalType": "bool",
          "name": "isValidPath",
          "type": "bool"
        }
      ],
      "stateMutability": "view",
      "type": "function"
    }
  ],
  "transactionHash": "0xae8951e10a1ebac3fe777afd657940b501b0387a6c4330ee8afced0251746426",
  "args": [],
  "solcInputHash": "2140ab137b588e633ff429756162e2c1",
  "bytecode": "0x61076661003a600b82828239805160001a60731461002d57634e487b7160e01b600052600060045260246000fd5b30600052607381538281f3fe73000000000000000000000000000000000000000030146080604052600436106100355760003560e01c806355a2bef01461003a575b600080fd5b61004d6100483660046105df565b610061565b604051901515815260200160405180910390f35b600080600080600080869050602b8a5110156100b55760405162461bcd60e51b815260206004820152600e60248201526d14185d1a081d1bdbc81cda1bdc9d60921b60448201526064015b60405180910390fd5b60428a5111156100f75760405162461bcd60e51b815260206004820152600d60248201526c5061746820746f6f206c6f6e6760981b60448201526064016100ac565b6101008a610330565b604051630b4c774160e11b81526001600160a01b038085166004830152808416602483015262ffffff831660448301529398509196509350600091831690631698ee829060640160206040518083038186803b15801561015f57600080fd5b505afa158015610173573d6000803e3d6000fd5b505050506040513d601f19601f8201168201806040525081019061019791906105bc565b6001600160a01b031614156101e45760405162461bcd60e51b8152602060048201526013602482015272141bdbdb08191bd95cc81b9bdd08195e1a5cdd606a1b60448201526064016100ac565b6101ed8a61036c565b156102f0576101fb8a6103a6565b99506102068a610330565b604051630b4c774160e11b81526001600160a01b038981166004830152808416602483015262ffffff83166044830152929750929550935060009190831690631698ee829060640160206040518083038186803b15801561026657600080fd5b505afa15801561027a573d6000803e3d6000fd5b505050506040513d601f19601f8201168201806040525081019061029e91906105bc565b6001600160a01b031614156102eb5760405162461bcd60e51b8152602060048201526013602482015272141bdbdb08191bd95cc81b9bdd08195e1a5cdd606a1b60448201526064016100ac565b6101e4565b886001600160a01b0316856001600160a01b03161480156103225750876001600160a01b0316846001600160a01b0316145b9a9950505050505050505050565b6000808061033e84826103dd565b925061034b846014610442565b905061036361035c600360146106bd565b85906103dd565b91509193909250565b600061037a600360146106bd565b60146103876003826106bd565b61039191906106bd565b61039b91906106bd565b825110159050919050565b60606103d76103b7600360146106bd565b6103c3600360146106bd565b84516103cf91906106d5565b84919061049f565b92915050565b60006103ea8260146106bd565b835110156104325760405162461bcd60e51b8152602060048201526015602482015274746f416464726573735f6f75744f66426f756e647360581b60448201526064016100ac565b500160200151600160601b900490565b600061044f8260036106bd565b835110156104965760405162461bcd60e51b8152602060048201526014602482015273746f55696e7432345f6f75744f66426f756e647360601b60448201526064016100ac565b50016003015190565b6060816104ad81601f6106bd565b10156104ec5760405162461bcd60e51b815260206004820152600e60248201526d736c6963655f6f766572666c6f7760901b60448201526064016100ac565b6104f682846106bd565b8451101561053a5760405162461bcd60e51b8152602060048201526011602482015270736c6963655f6f75744f66426f756e647360781b60448201526064016100ac565b60608215801561055957604051915060008252602082016040526105a3565b6040519150601f8416801560200281840101858101878315602002848b0101015b8183101561059257805183526020928301920161057a565b5050858452601f01601f1916604052505b50949350505050565b80356105b781610718565b919050565b6000602082840312156105cd578081fd5b81516105d881610718565b9392505050565b600080600080608085870312156105f4578283fd5b843567ffffffffffffffff8082111561060b578485fd5b818701915087601f83011261061e578485fd5b81358181111561063057610630610702565b604051601f8201601f19908116603f0116810190838211818310171561065857610658610702565b816040528281528a6020848701011115610670578788fd5b8260208601602083013787602084830101528098505050505050610696602086016105ac565b92506106a4604086016105ac565b91506106b2606086016105ac565b905092959194509250565b600082198211156106d0576106d06106ec565b500190565b6000828210156106e7576106e76106ec565b500390565b634e487b7160e01b600052601160045260246000fd5b634e487b7160e01b600052604160045260246000fd5b6001600160a01b038116811461072d57600080fd5b5056fea26469706673582212206f0fb0affcd5ee92d56a40e4736677feaa99fa491068ec8a01cb3639bd9ae51764736f6c63430008040033",
  "devdoc": {
    "kind": "dev",
    "methods": {
      "checkPath(bytes,address,address,address)": {
        "params": {
          "swapPath": "is the swap path e.g. encodePacked(tokenIn, poolFee, tokenOut)",
          "uniswapFactory": "is the contract address of UniswapV3 factory",
          "validTokenIn": "is the contract address of the correct tokenIn",
          "validTokenOut": "is the contract address of the correct tokenOut"
        },
        "returns": {
          "isValidPath": "is whether the path is valid"
        }
      }
    },
    "version": 1
  },
  "userdoc": {
    "kind": "user",
    "methods": {
      "checkPath(bytes,address,address,address)": {
        "notice": "Check if the path set for swap is valid"
      }
    },
    "version": 1
  },
  "storageLayout": {
    "storage": [],
    "types": null
  }
}