{
  "address": "0xaB40513B6f0A33a68B59CCf90cB6f892b4bE1573",
  "abi": [
    {
      "anonymous": false,
      "inputs": [
        {
          "indexed": true,
          "internalType": "address",
          "name": "previousOwner",
          "type": "address"
        },
        {
          "indexed": true,
          "internalType": "address",
          "name": "newOwner",
          "type": "address"
        }
      ],
      "name": "OwnershipTransferred",
      "type": "event"
    },
    {
      "inputs": [],
      "name": "delta",
      "outputs": [
        {
          "internalType": "uint256",
          "name": "",
          "type": "uint256"
        }
      ],
      "stateMutability": "view",
      "type": "function"
    },
    {
      "inputs": [
        {
          "internalType": "uint256",
          "name": "",
          "type": "uint256"
        },
        {
          "internalType": "bool",
          "name": "",
          "type": "bool"
        }
      ],
      "name": "getStrikePrice",
      "outputs": [
        {
          "internalType": "uint256",
          "name": "",
          "type": "uint256"
        },
        {
          "internalType": "uint256",
          "name": "",
          "type": "uint256"
        }
      ],
      "stateMutability": "view",
      "type": "function"
    },
    {
      "inputs": [],
      "name": "owner",
      "outputs": [
        {
          "internalType": "address",
          "name": "",
          "type": "address"
        }
      ],
      "stateMutability": "view",
      "type": "function"
    },
    {
      "inputs": [],
      "name": "renounceOwnership",
      "outputs": [],
      "stateMutability": "nonpayable",
      "type": "function"
    },
    {
      "inputs": [
        {
          "internalType": "uint256",
          "name": "_strikePrice",
          "type": "uint256"
        }
      ],
      "name": "setStrikePrice",
      "outputs": [],
      "stateMutability": "nonpayable",
      "type": "function"
    },
    {
      "inputs": [],
      "name": "strikePrice",
      "outputs": [
        {
          "internalType": "uint256",
          "name": "",
          "type": "uint256"
        }
      ],
      "stateMutability": "view",
      "type": "function"
    },
    {
      "inputs": [
        {
          "internalType": "address",
          "name": "newOwner",
          "type": "address"
        }
      ],
      "name": "transferOwnership",
      "outputs": [],
      "stateMutability": "nonpayable",
      "type": "function"
    }
  ],
  "transactionHash": "0xbb6f00d5cd11fc852702788db0638b77e4eaf5d19b339b990d8417fc527ee51e",
  "args": [],
  "solcInputHash": "58c313f67edafd713b6aa361b14bc392",
  "bytecode": "0x608060405234801561001057600080fd5b5061001a3361001f565b61006f565b600080546001600160a01b038381166001600160a01b0319831681178455604051919092169283917f8be0079c531659141344cd1fd0a4f28419497f9722a3daafe3b4186f6b6457e09190a35050565b61035e8061007e6000396000f3fe608060405234801561001057600080fd5b506004361061007d5760003560e01c8063c52987cf1161005b578063c52987cf146100c3578063e436b891146100cc578063e488cd9f146100fb578063f2fde38b1461010e57600080fd5b806312b495a814610082578063715018a61461009e5780638da5cb5b146100a8575b600080fd5b61008b6103e881565b6040519081526020015b60405180910390f35b6100a6610121565b005b6000546040516001600160a01b039091168152602001610095565b61008b60015481565b6100e66100da3660046102c0565b5050600154906103e890565b60408051928352602083019190915201610095565b6100a66101093660046102a8565b610160565b6100a661011c36600461027a565b61018f565b6000546001600160a01b031633146101545760405162461bcd60e51b815260040161014b906102f3565b60405180910390fd5b61015e600061022a565b565b6000546001600160a01b0316331461018a5760405162461bcd60e51b815260040161014b906102f3565b600155565b6000546001600160a01b031633146101b95760405162461bcd60e51b815260040161014b906102f3565b6001600160a01b03811661021e5760405162461bcd60e51b815260206004820152602660248201527f4f776e61626c653a206e6577206f776e657220697320746865207a65726f206160448201526564647265737360d01b606482015260840161014b565b6102278161022a565b50565b600080546001600160a01b038381166001600160a01b0319831681178455604051919092169283917f8be0079c531659141344cd1fd0a4f28419497f9722a3daafe3b4186f6b6457e09190a35050565b60006020828403121561028b578081fd5b81356001600160a01b03811681146102a1578182fd5b9392505050565b6000602082840312156102b9578081fd5b5035919050565b600080604083850312156102d2578081fd5b82359150602083013580151581146102e8578182fd5b809150509250929050565b6020808252818101527f4f776e61626c653a2063616c6c6572206973206e6f7420746865206f776e657260408201526060019056fea2646970667358221220a2411314f1e20102c709267359157f0079f94586fda5aceb5084ad78616a3d2764736f6c63430008040033",
  "devdoc": {
    "kind": "dev",
    "methods": {
      "getStrikePrice(uint256,bool)": {
        "returns": {
          "_0": "newStrikePrice is the strike price of the option (ex: for BTC might be 45000 * 10 ** 8)",
          "_1": "newDelta is the delta of the option given its parameters"
        }
      },
      "owner()": {
        "details": "Returns the address of the current owner."
      },
      "renounceOwnership()": {
        "details": "Leaves the contract without owner. It will not be possible to call `onlyOwner` functions anymore. Can only be called by the current owner. NOTE: Renouncing ownership will leave the contract without an owner, thereby removing any functionality that is only available to the owner."
      },
      "setStrikePrice(uint256)": {
        "params": {
          "_strikePrice": "is the strike price of the option"
        }
      },
      "transferOwnership(address)": {
        "details": "Transfers ownership of the contract to a new account (`newOwner`). Can only be called by the current owner."
      }
    },
    "stateVariables": {
      "delta": {
        "details": "Delta for options strike price selection. 1 is 10000 (10**4)"
      },
      "strikePrice": {
        "details": "Selected strike price"
      }
    },
    "version": 1
  },
  "userdoc": {
    "kind": "user",
    "methods": {
      "getStrikePrice(uint256,bool)": {
        "notice": "Gets the strike price satisfying the delta value given the expiry timestamp and whether option is call or put"
      },
      "setStrikePrice(uint256)": {
        "notice": "Sets the strike price, only callable by the owner"
      }
    },
    "version": 1
  },
  "storageLayout": {
    "storage": [
      {
        "astId": 1002,
        "contract": "contracts/utils/ManualStrikeSelection.sol:ManualStrikeSelection",
        "label": "_owner",
        "offset": 0,
        "slot": "0",
        "type": "t_address"
      },
      {
        "astId": 15458,
        "contract": "contracts/utils/ManualStrikeSelection.sol:ManualStrikeSelection",
        "label": "strikePrice",
        "offset": 0,
        "slot": "1",
        "type": "t_uint256"
      }
    ],
    "types": {
      "t_address": {
        "encoding": "inplace",
        "label": "address",
        "numberOfBytes": "20"
      },
      "t_uint256": {
        "encoding": "inplace",
        "label": "uint256",
        "numberOfBytes": "32"
      }
    }
  }
}