{
  "address": "0x15988ceA1F11D62e63bAa02B0e8B3046942983c0",
  "abi": [
    {
      "inputs": [
        {
          "internalType": "address",
          "name": "_weth",
          "type": "address"
        },
        {
          "internalType": "address",
          "name": "_usdc",
          "type": "address"
        },
        {
          "internalType": "address",
          "name": "_oTokenFactory",
          "type": "address"
        },
        {
          "internalType": "address",
          "name": "_gammaController",
          "type": "address"
        },
        {
          "internalType": "address",
          "name": "_marginPool",
          "type": "address"
        },
        {
          "internalType": "address",
          "name": "_gnosisEasyAuction",
          "type": "address"
        },
        {
          "internalType": "address",
          "name": "_yearnRegistry",
          "type": "address"
        }
      ],
      "stateMutability": "nonpayable",
      "type": "constructor"
    },
    {
      "anonymous": false,
      "inputs": [
        {
          "indexed": true,
          "internalType": "address",
          "name": "owner",
          "type": "address"
        },
        {
          "indexed": true,
          "internalType": "address",
          "name": "spender",
          "type": "address"
        },
        {
          "indexed": false,
          "internalType": "uint256",
          "name": "value",
          "type": "uint256"
        }
      ],
      "name": "Approval",
      "type": "event"
    },
    {
      "anonymous": false,
      "inputs": [
        {
          "indexed": false,
          "internalType": "uint256",
          "name": "auctionDuration",
          "type": "uint256"
        },
        {
          "indexed": false,
          "internalType": "uint256",
          "name": "newAuctionDuration",
          "type": "uint256"
        }
      ],
      "name": "AuctionDurationSet",
      "type": "event"
    },
    {
      "anonymous": false,
      "inputs": [
        {
          "indexed": false,
          "internalType": "uint256",
          "name": "oldCap",
          "type": "uint256"
        },
        {
          "indexed": false,
          "internalType": "uint256",
          "name": "newCap",
          "type": "uint256"
        }
      ],
      "name": "CapSet",
      "type": "event"
    },
    {
      "anonymous": false,
      "inputs": [
        {
          "indexed": true,
          "internalType": "address",
          "name": "options",
          "type": "address"
        },
        {
          "indexed": false,
          "internalType": "uint256",
          "name": "withdrawAmount",
          "type": "uint256"
        },
        {
          "indexed": true,
          "internalType": "address",
          "name": "manager",
          "type": "address"
        }
      ],
      "name": "CloseShort",
      "type": "event"
    },
    {
      "anonymous": false,
      "inputs": [
        {
          "indexed": false,
          "internalType": "uint256",
          "name": "performanceFee",
          "type": "uint256"
        },
        {
          "indexed": false,
          "internalType": "uint256",
          "name": "vaultFee",
          "type": "uint256"
        },
        {
          "indexed": false,
          "internalType": "uint256",
          "name": "round",
          "type": "uint256"
        },
        {
          "indexed": true,
          "internalType": "address",
          "name": "feeRecipient",
          "type": "address"
        }
      ],
      "name": "CollectVaultFees",
      "type": "event"
    },
    {
      "anonymous": false,
      "inputs": [
        {
          "indexed": true,
          "internalType": "address",
          "name": "account",
          "type": "address"
        },
        {
          "indexed": false,
          "internalType": "uint256",
          "name": "amount",
          "type": "uint256"
        },
        {
          "indexed": false,
          "internalType": "uint256",
          "name": "round",
          "type": "uint256"
        }
      ],
      "name": "Deposit",
      "type": "event"
    },
    {
      "anonymous": false,
      "inputs": [
        {
          "indexed": true,
          "internalType": "address",
          "name": "auctioningToken",
          "type": "address"
        },
        {
          "indexed": true,
          "internalType": "address",
          "name": "biddingToken",
          "type": "address"
        },
        {
          "indexed": false,
          "internalType": "uint256",
          "name": "auctionCounter",
          "type": "uint256"
        },
        {
          "indexed": true,
          "internalType": "address",
          "name": "manager",
          "type": "address"
        }
      ],
      "name": "InitiateGnosisAuction",
      "type": "event"
    },
    {
      "anonymous": false,
      "inputs": [
        {
          "indexed": true,
          "internalType": "address",
          "name": "account",
          "type": "address"
        },
        {
          "indexed": false,
          "internalType": "uint256",
          "name": "shares",
          "type": "uint256"
        },
        {
          "indexed": false,
          "internalType": "uint256",
          "name": "round",
          "type": "uint256"
        }
      ],
      "name": "InitiateWithdraw",
      "type": "event"
    },
    {
      "anonymous": false,
      "inputs": [
        {
          "indexed": true,
          "internalType": "address",
          "name": "account",
          "type": "address"
        },
        {
          "indexed": false,
          "internalType": "uint256",
          "name": "amount",
          "type": "uint256"
        },
        {
          "indexed": false,
          "internalType": "uint256",
          "name": "round",
          "type": "uint256"
        }
      ],
      "name": "InstantWithdraw",
      "type": "event"
    },
    {
      "anonymous": false,
      "inputs": [
        {
          "indexed": false,
          "internalType": "uint256",
          "name": "managementFee",
          "type": "uint256"
        },
        {
          "indexed": false,
          "internalType": "uint256",
          "name": "newManagementFee",
          "type": "uint256"
        }
      ],
      "name": "ManagementFeeSet",
      "type": "event"
    },
    {
      "anonymous": false,
      "inputs": [
        {
          "indexed": false,
          "internalType": "uint256",
          "name": "strikePrice",
          "type": "uint256"
        },
        {
          "indexed": false,
          "internalType": "uint256",
          "name": "delta",
          "type": "uint256"
        }
      ],
      "name": "NewOptionStrikeSelected",
      "type": "event"
    },
    {
      "anonymous": false,
      "inputs": [
        {
          "indexed": true,
          "internalType": "address",
          "name": "options",
          "type": "address"
        },
        {
          "indexed": false,
          "internalType": "uint256",
          "name": "depositAmount",
          "type": "uint256"
        },
        {
          "indexed": true,
          "internalType": "address",
          "name": "manager",
          "type": "address"
        }
      ],
      "name": "OpenShort",
      "type": "event"
    },
    {
      "anonymous": false,
      "inputs": [
        {
          "indexed": true,
          "internalType": "address",
          "name": "previousOwner",
          "type": "address"
        },
        {
          "indexed": true,
          "internalType": "address",
          "name": "newOwner",
          "type": "address"
        }
      ],
      "name": "OwnershipTransferred",
      "type": "event"
    },
    {
      "anonymous": false,
      "inputs": [
        {
          "indexed": false,
          "internalType": "uint256",
          "name": "performanceFee",
          "type": "uint256"
        },
        {
          "indexed": false,
          "internalType": "uint256",
          "name": "newPerformanceFee",
          "type": "uint256"
        }
      ],
      "name": "PerformanceFeeSet",
      "type": "event"
    },
    {
      "anonymous": false,
      "inputs": [
        {
          "indexed": false,
          "internalType": "uint256",
          "name": "premiumDiscount",
          "type": "uint256"
        },
        {
          "indexed": false,
          "internalType": "uint256",
          "name": "newPremiumDiscount",
          "type": "uint256"
        }
      ],
      "name": "PremiumDiscountSet",
      "type": "event"
    },
    {
      "anonymous": false,
      "inputs": [
        {
          "indexed": true,
          "internalType": "address",
          "name": "account",
          "type": "address"
        },
        {
          "indexed": false,
          "internalType": "uint256",
          "name": "share",
          "type": "uint256"
        },
        {
          "indexed": false,
          "internalType": "uint256",
          "name": "round",
          "type": "uint256"
        }
      ],
      "name": "Redeem",
      "type": "event"
    },
    {
      "anonymous": false,
      "inputs": [
        {
          "indexed": true,
          "internalType": "address",
          "name": "from",
          "type": "address"
        },
        {
          "indexed": true,
          "internalType": "address",
          "name": "to",
          "type": "address"
        },
        {
          "indexed": false,
          "internalType": "uint256",
          "name": "value",
          "type": "uint256"
        }
      ],
      "name": "Transfer",
      "type": "event"
    },
    {
      "anonymous": false,
      "inputs": [
        {
          "indexed": true,
          "internalType": "address",
          "name": "account",
          "type": "address"
        },
        {
          "indexed": false,
          "internalType": "uint256",
          "name": "amount",
          "type": "uint256"
        },
        {
          "indexed": false,
          "internalType": "uint256",
          "name": "shares",
          "type": "uint256"
        }
      ],
      "name": "Withdraw",
      "type": "event"
    },
    {
      "inputs": [],
      "name": "DELAY",
      "outputs": [
        {
          "internalType": "uint256",
          "name": "",
          "type": "uint256"
        }
      ],
      "stateMutability": "view",
      "type": "function"
    },
    {
      "inputs": [],
      "name": "GAMMA_CONTROLLER",
      "outputs": [
        {
          "internalType": "address",
          "name": "",
          "type": "address"
        }
      ],
      "stateMutability": "view",
      "type": "function"
    },
    {
      "inputs": [],
      "name": "GNOSIS_EASY_AUCTION",
      "outputs": [
        {
          "internalType": "address",
          "name": "",
          "type": "address"
        }
      ],
      "stateMutability": "view",
      "type": "function"
    },
    {
      "inputs": [],
      "name": "MARGIN_POOL",
      "outputs": [
        {
          "internalType": "address",
          "name": "",
          "type": "address"
        }
      ],
      "stateMutability": "view",
      "type": "function"
    },
    {
      "inputs": [],
      "name": "OTOKEN_FACTORY",
      "outputs": [
        {
          "internalType": "address",
          "name": "",
          "type": "address"
        }
      ],
      "stateMutability": "view",
      "type": "function"
    },
    {
      "inputs": [],
      "name": "PERIOD",
      "outputs": [
        {
          "internalType": "uint256",
          "name": "",
          "type": "uint256"
        }
      ],
      "stateMutability": "view",
      "type": "function"
    },
    {
      "inputs": [],
      "name": "USDC",
      "outputs": [
        {
          "internalType": "address",
          "name": "",
          "type": "address"
        }
      ],
      "stateMutability": "view",
      "type": "function"
    },
    {
      "inputs": [],
      "name": "WETH",
      "outputs": [
        {
          "internalType": "address",
          "name": "",
          "type": "address"
        }
      ],
      "stateMutability": "view",
      "type": "function"
    },
    {
      "inputs": [],
      "name": "YEARN_REGISTRY",
      "outputs": [
        {
          "internalType": "address",
          "name": "",
          "type": "address"
        }
      ],
      "stateMutability": "view",
      "type": "function"
    },
    {
      "inputs": [],
      "name": "YEARN_WITHDRAWAL_BUFFER",
      "outputs": [
        {
          "internalType": "uint256",
          "name": "",
          "type": "uint256"
        }
      ],
      "stateMutability": "view",
      "type": "function"
    },
    {
      "inputs": [],
      "name": "YEARN_WITHDRAWAL_SLIPPAGE",
      "outputs": [
        {
          "internalType": "uint256",
          "name": "",
          "type": "uint256"
        }
      ],
      "stateMutability": "view",
      "type": "function"
    },
    {
      "inputs": [
        {
          "internalType": "address",
          "name": "account",
          "type": "address"
        }
      ],
      "name": "accountVaultBalance",
      "outputs": [
        {
          "internalType": "uint256",
          "name": "",
          "type": "uint256"
        }
      ],
      "stateMutability": "view",
      "type": "function"
    },
    {
      "inputs": [
        {
          "internalType": "address",
          "name": "owner",
          "type": "address"
        },
        {
          "internalType": "address",
          "name": "spender",
          "type": "address"
        }
      ],
      "name": "allowance",
      "outputs": [
        {
          "internalType": "uint256",
          "name": "",
          "type": "uint256"
        }
      ],
      "stateMutability": "view",
      "type": "function"
    },
    {
      "inputs": [
        {
          "internalType": "address",
          "name": "spender",
          "type": "address"
        },
        {
          "internalType": "uint256",
          "name": "amount",
          "type": "uint256"
        }
      ],
      "name": "approve",
      "outputs": [
        {
          "internalType": "bool",
          "name": "",
          "type": "bool"
        }
      ],
      "stateMutability": "nonpayable",
      "type": "function"
    },
    {
      "inputs": [],
      "name": "auctionDuration",
      "outputs": [
        {
          "internalType": "uint256",
          "name": "",
          "type": "uint256"
        }
      ],
      "stateMutability": "view",
      "type": "function"
    },
    {
      "inputs": [
        {
          "internalType": "address",
          "name": "account",
          "type": "address"
        }
      ],
      "name": "balanceOf",
      "outputs": [
        {
          "internalType": "uint256",
          "name": "",
          "type": "uint256"
        }
      ],
      "stateMutability": "view",
      "type": "function"
    },
    {
      "inputs": [],
      "name": "burnRemainingOTokens",
      "outputs": [],
      "stateMutability": "nonpayable",
      "type": "function"
    },
    {
      "inputs": [],
      "name": "cap",
      "outputs": [
        {
          "internalType": "uint256",
          "name": "",
          "type": "uint256"
        }
      ],
      "stateMutability": "view",
      "type": "function"
    },
    {
      "inputs": [],
      "name": "collateralToken",
      "outputs": [
        {
          "internalType": "contract IYearnVault",
          "name": "",
          "type": "address"
        }
      ],
      "stateMutability": "view",
      "type": "function"
    },
    {
      "inputs": [],
      "name": "commitAndClose",
      "outputs": [],
      "stateMutability": "nonpayable",
      "type": "function"
    },
    {
      "inputs": [],
      "name": "completeWithdraw",
      "outputs": [],
      "stateMutability": "nonpayable",
      "type": "function"
    },
    {
      "inputs": [],
      "name": "currentOption",
      "outputs": [
        {
          "internalType": "address",
          "name": "",
          "type": "address"
        }
      ],
      "stateMutability": "view",
      "type": "function"
    },
    {
      "inputs": [],
      "name": "currentOtokenPremium",
      "outputs": [
        {
          "internalType": "uint256",
          "name": "",
          "type": "uint256"
        }
      ],
      "stateMutability": "view",
      "type": "function"
    },
    {
      "inputs": [],
      "name": "decimals",
      "outputs": [
        {
          "internalType": "uint8",
          "name": "",
          "type": "uint8"
        }
      ],
      "stateMutability": "view",
      "type": "function"
    },
    {
      "inputs": [
        {
          "internalType": "address",
          "name": "spender",
          "type": "address"
        },
        {
          "internalType": "uint256",
          "name": "subtractedValue",
          "type": "uint256"
        }
      ],
      "name": "decreaseAllowance",
      "outputs": [
        {
          "internalType": "bool",
          "name": "",
          "type": "bool"
        }
      ],
      "stateMutability": "nonpayable",
      "type": "function"
    },
    {
      "inputs": [
        {
          "internalType": "uint256",
          "name": "amount",
          "type": "uint256"
        }
      ],
      "name": "deposit",
      "outputs": [],
      "stateMutability": "nonpayable",
      "type": "function"
    },
    {
      "inputs": [
        {
          "internalType": "uint256",
          "name": "amount",
          "type": "uint256"
        },
        {
          "internalType": "address",
          "name": "creditor",
          "type": "address"
        }
      ],
      "name": "depositFor",
      "outputs": [],
      "stateMutability": "nonpayable",
      "type": "function"
    },
    {
      "inputs": [
        {
          "internalType": "address",
          "name": "",
          "type": "address"
        }
      ],
      "name": "depositReceipts",
      "outputs": [
        {
          "internalType": "uint16",
          "name": "round",
          "type": "uint16"
        },
        {
          "internalType": "uint104",
          "name": "amount",
          "type": "uint104"
        },
        {
          "internalType": "uint128",
          "name": "unredeemedShares",
          "type": "uint128"
        }
      ],
      "stateMutability": "view",
      "type": "function"
    },
    {
      "inputs": [
        {
          "internalType": "uint256",
          "name": "amount",
          "type": "uint256"
        }
      ],
      "name": "depositYieldToken",
      "outputs": [],
      "stateMutability": "nonpayable",
      "type": "function"
    },
    {
      "inputs": [],
      "name": "feeRecipient",
      "outputs": [
        {
          "internalType": "address",
          "name": "",
          "type": "address"
        }
      ],
      "stateMutability": "view",
      "type": "function"
    },
    {
      "inputs": [
        {
          "internalType": "address",
          "name": "spender",
          "type": "address"
        },
        {
          "internalType": "uint256",
          "name": "addedValue",
          "type": "uint256"
        }
      ],
      "name": "increaseAllowance",
      "outputs": [
        {
          "internalType": "bool",
          "name": "",
          "type": "bool"
        }
      ],
      "stateMutability": "nonpayable",
      "type": "function"
    },
    {
      "inputs": [
        {
          "internalType": "uint256",
          "name": "numRounds",
          "type": "uint256"
        }
      ],
      "name": "initRounds",
      "outputs": [],
      "stateMutability": "nonpayable",
      "type": "function"
    },
    {
      "inputs": [
        {
          "internalType": "address",
          "name": "_owner",
          "type": "address"
        },
        {
          "internalType": "address",
          "name": "_keeper",
          "type": "address"
        },
        {
          "internalType": "address",
          "name": "_feeRecipient",
          "type": "address"
        },
        {
          "internalType": "uint256",
          "name": "_managementFee",
          "type": "uint256"
        },
        {
          "internalType": "uint256",
          "name": "_performanceFee",
          "type": "uint256"
        },
        {
          "internalType": "string",
          "name": "_tokenName",
          "type": "string"
        },
        {
          "internalType": "string",
          "name": "_tokenSymbol",
          "type": "string"
        },
        {
          "internalType": "address",
          "name": "_optionsPremiumPricer",
          "type": "address"
        },
        {
          "internalType": "address",
          "name": "_strikeSelection",
          "type": "address"
        },
        {
          "internalType": "uint32",
          "name": "_premiumDiscount",
          "type": "uint32"
        },
        {
          "internalType": "uint256",
          "name": "_auctionDuration",
          "type": "uint256"
        },
        {
          "components": [
            {
              "internalType": "bool",
              "name": "isPut",
              "type": "bool"
            },
            {
              "internalType": "uint8",
              "name": "decimals",
              "type": "uint8"
            },
            {
              "internalType": "address",
              "name": "asset",
              "type": "address"
            },
            {
              "internalType": "address",
              "name": "underlying",
              "type": "address"
            },
            {
              "internalType": "uint56",
              "name": "minimumSupply",
              "type": "uint56"
            },
            {
              "internalType": "uint104",
              "name": "cap",
              "type": "uint104"
            }
          ],
          "internalType": "struct Vault.VaultParams",
          "name": "_vaultParams",
          "type": "tuple"
        }
      ],
      "name": "initialize",
      "outputs": [],
      "stateMutability": "nonpayable",
      "type": "function"
    },
    {
      "inputs": [
        {
          "internalType": "uint256",
          "name": "numShares",
          "type": "uint256"
        }
      ],
      "name": "initiateWithdraw",
      "outputs": [],
      "stateMutability": "nonpayable",
      "type": "function"
    },
    {
      "inputs": [],
      "name": "keeper",
      "outputs": [
        {
          "internalType": "address",
          "name": "",
          "type": "address"
        }
      ],
      "stateMutability": "view",
      "type": "function"
    },
    {
      "inputs": [],
      "name": "lastQueuedWithdrawAmount",
      "outputs": [
        {
          "internalType": "uint256",
          "name": "",
          "type": "uint256"
        }
      ],
      "stateMutability": "view",
      "type": "function"
    },
    {
      "inputs": [],
      "name": "lastStrikeOverrideRound",
      "outputs": [
        {
          "internalType": "uint16",
          "name": "",
          "type": "uint16"
        }
      ],
      "stateMutability": "view",
      "type": "function"
    },
    {
      "inputs": [],
      "name": "liquidityGauge",
      "outputs": [
        {
          "internalType": "address",
          "name": "",
          "type": "address"
        }
      ],
      "stateMutability": "view",
      "type": "function"
    },
    {
      "inputs": [],
      "name": "managementFee",
      "outputs": [
        {
          "internalType": "uint256",
          "name": "",
          "type": "uint256"
        }
      ],
      "stateMutability": "view",
      "type": "function"
    },
    {
      "inputs": [],
      "name": "maxRedeem",
      "outputs": [],
      "stateMutability": "nonpayable",
      "type": "function"
    },
    {
      "inputs": [],
      "name": "name",
      "outputs": [
        {
          "internalType": "string",
          "name": "",
          "type": "string"
        }
      ],
      "stateMutability": "view",
      "type": "function"
    },
    {
      "inputs": [],
      "name": "nextOption",
      "outputs": [
        {
          "internalType": "address",
          "name": "",
          "type": "address"
        }
      ],
      "stateMutability": "view",
      "type": "function"
    },
    {
      "inputs": [],
      "name": "nextOptionReadyAt",
      "outputs": [
        {
          "internalType": "uint256",
          "name": "",
          "type": "uint256"
        }
      ],
      "stateMutability": "view",
      "type": "function"
    },
    {
      "inputs": [],
      "name": "optionAuctionID",
      "outputs": [
        {
          "internalType": "uint256",
          "name": "",
          "type": "uint256"
        }
      ],
      "stateMutability": "view",
      "type": "function"
    },
    {
      "inputs": [],
      "name": "optionState",
      "outputs": [
        {
          "internalType": "address",
          "name": "nextOption",
          "type": "address"
        },
        {
          "internalType": "address",
          "name": "currentOption",
          "type": "address"
        },
        {
          "internalType": "uint32",
          "name": "nextOptionReadyAt",
          "type": "uint32"
        }
      ],
      "stateMutability": "view",
      "type": "function"
    },
    {
      "inputs": [],
      "name": "optionsPremiumPricer",
      "outputs": [
        {
          "internalType": "address",
          "name": "",
          "type": "address"
        }
      ],
      "stateMutability": "view",
      "type": "function"
    },
    {
      "inputs": [],
      "name": "optionsPurchaseQueue",
      "outputs": [
        {
          "internalType": "address",
          "name": "",
          "type": "address"
        }
      ],
      "stateMutability": "view",
      "type": "function"
    },
    {
      "inputs": [],
      "name": "overriddenStrikePrice",
      "outputs": [
        {
          "internalType": "uint256",
          "name": "",
          "type": "uint256"
        }
      ],
      "stateMutability": "view",
      "type": "function"
    },
    {
      "inputs": [],
      "name": "owner",
      "outputs": [
        {
          "internalType": "address",
          "name": "",
          "type": "address"
        }
      ],
      "stateMutability": "view",
      "type": "function"
    },
    {
      "inputs": [],
      "name": "performanceFee",
      "outputs": [
        {
          "internalType": "uint256",
          "name": "",
          "type": "uint256"
        }
      ],
      "stateMutability": "view",
      "type": "function"
    },
    {
      "inputs": [],
      "name": "premiumDiscount",
      "outputs": [
        {
          "internalType": "uint256",
          "name": "",
          "type": "uint256"
        }
      ],
      "stateMutability": "view",
      "type": "function"
    },
    {
      "inputs": [],
      "name": "pricePerShare",
      "outputs": [
        {
          "internalType": "uint256",
          "name": "",
          "type": "uint256"
        }
      ],
      "stateMutability": "view",
      "type": "function"
    },
    {
      "inputs": [
        {
          "internalType": "uint256",
          "name": "numShares",
          "type": "uint256"
        }
      ],
      "name": "redeem",
      "outputs": [],
      "stateMutability": "nonpayable",
      "type": "function"
    },
    {
      "inputs": [],
      "name": "renounceOwnership",
      "outputs": [],
      "stateMutability": "nonpayable",
      "type": "function"
    },
    {
      "inputs": [],
      "name": "rollToNextOption",
      "outputs": [],
      "stateMutability": "nonpayable",
      "type": "function"
    },
    {
      "inputs": [
        {
          "internalType": "uint256",
          "name": "",
          "type": "uint256"
        }
      ],
      "name": "roundPricePerShare",
      "outputs": [
        {
          "internalType": "uint256",
          "name": "",
          "type": "uint256"
        }
      ],
      "stateMutability": "view",
      "type": "function"
    },
    {
      "inputs": [],
      "name": "sellOptionsToQueue",
      "outputs": [],
      "stateMutability": "nonpayable",
      "type": "function"
    },
    {
      "inputs": [
        {
          "internalType": "uint256",
          "name": "newAuctionDuration",
          "type": "uint256"
        }
      ],
      "name": "setAuctionDuration",
      "outputs": [],
      "stateMutability": "nonpayable",
      "type": "function"
    },
    {
      "inputs": [
        {
          "internalType": "uint256",
          "name": "newCap",
          "type": "uint256"
        }
      ],
      "name": "setCap",
      "outputs": [],
      "stateMutability": "nonpayable",
      "type": "function"
    },
    {
      "inputs": [
        {
          "internalType": "address",
          "name": "newFeeRecipient",
          "type": "address"
        }
      ],
      "name": "setFeeRecipient",
      "outputs": [],
      "stateMutability": "nonpayable",
      "type": "function"
    },
    {
      "inputs": [
        {
          "internalType": "address",
          "name": "newLiquidityGauge",
          "type": "address"
        }
      ],
      "name": "setLiquidityGauge",
      "outputs": [],
      "stateMutability": "nonpayable",
      "type": "function"
    },
    {
      "inputs": [
        {
          "internalType": "uint256",
          "name": "newManagementFee",
          "type": "uint256"
        }
      ],
      "name": "setManagementFee",
      "outputs": [],
      "stateMutability": "nonpayable",
      "type": "function"
    },
    {
      "inputs": [
        {
          "internalType": "address",
          "name": "newKeeper",
          "type": "address"
        }
      ],
      "name": "setNewKeeper",
      "outputs": [],
      "stateMutability": "nonpayable",
      "type": "function"
    },
    {
      "inputs": [
        {
          "internalType": "address",
          "name": "newOptionsPremiumPricer",
          "type": "address"
        }
      ],
      "name": "setOptionsPremiumPricer",
      "outputs": [],
      "stateMutability": "nonpayable",
      "type": "function"
    },
    {
      "inputs": [
        {
          "internalType": "address",
          "name": "newOptionsPurchaseQueue",
          "type": "address"
        }
      ],
      "name": "setOptionsPurchaseQueue",
      "outputs": [],
      "stateMutability": "nonpayable",
      "type": "function"
    },
    {
      "inputs": [
        {
          "internalType": "uint256",
          "name": "newPerformanceFee",
          "type": "uint256"
        }
      ],
      "name": "setPerformanceFee",
      "outputs": [],
      "stateMutability": "nonpayable",
      "type": "function"
    },
    {
      "inputs": [
        {
          "internalType": "uint256",
          "name": "newPremiumDiscount",
          "type": "uint256"
        }
      ],
      "name": "setPremiumDiscount",
      "outputs": [],
      "stateMutability": "nonpayable",
      "type": "function"
    },
    {
      "inputs": [
        {
          "internalType": "uint128",
          "name": "strikePrice",
          "type": "uint128"
        }
      ],
      "name": "setStrikePrice",
      "outputs": [],
      "stateMutability": "nonpayable",
      "type": "function"
    },
    {
      "inputs": [
        {
          "internalType": "address",
          "name": "newStrikeSelection",
          "type": "address"
        }
      ],
      "name": "setStrikeSelection",
      "outputs": [],
      "stateMutability": "nonpayable",
      "type": "function"
    },
    {
      "inputs": [
        {
          "internalType": "address",
          "name": "account",
          "type": "address"
        }
      ],
      "name": "shareBalances",
      "outputs": [
        {
          "internalType": "uint256",
          "name": "heldByAccount",
          "type": "uint256"
        },
        {
          "internalType": "uint256",
          "name": "heldByVault",
          "type": "uint256"
        }
      ],
      "stateMutability": "view",
      "type": "function"
    },
    {
      "inputs": [
        {
          "internalType": "address",
          "name": "account",
          "type": "address"
        }
      ],
      "name": "shares",
      "outputs": [
        {
          "internalType": "uint256",
          "name": "",
          "type": "uint256"
        }
      ],
      "stateMutability": "view",
      "type": "function"
    },
    {
      "inputs": [
        {
          "internalType": "uint256",
          "name": "numShares",
          "type": "uint256"
        }
      ],
      "name": "stake",
      "outputs": [],
      "stateMutability": "nonpayable",
      "type": "function"
    },
    {
      "inputs": [],
      "name": "startAuction",
      "outputs": [],
      "stateMutability": "nonpayable",
      "type": "function"
    },
    {
      "inputs": [],
      "name": "strikeSelection",
      "outputs": [
        {
          "internalType": "address",
          "name": "",
          "type": "address"
        }
      ],
      "stateMutability": "view",
      "type": "function"
    },
    {
      "inputs": [],
      "name": "symbol",
      "outputs": [
        {
          "internalType": "string",
          "name": "",
          "type": "string"
        }
      ],
      "stateMutability": "view",
      "type": "function"
    },
    {
      "inputs": [],
      "name": "totalBalance",
      "outputs": [
        {
          "internalType": "uint256",
          "name": "",
          "type": "uint256"
        }
      ],
      "stateMutability": "view",
      "type": "function"
    },
    {
      "inputs": [],
      "name": "totalPending",
      "outputs": [
        {
          "internalType": "uint256",
          "name": "",
          "type": "uint256"
        }
      ],
      "stateMutability": "view",
      "type": "function"
    },
    {
      "inputs": [],
      "name": "totalSupply",
      "outputs": [
        {
          "internalType": "uint256",
          "name": "",
          "type": "uint256"
        }
      ],
      "stateMutability": "view",
      "type": "function"
    },
    {
      "inputs": [
        {
          "internalType": "address",
          "name": "recipient",
          "type": "address"
        },
        {
          "internalType": "uint256",
          "name": "amount",
          "type": "uint256"
        }
      ],
      "name": "transfer",
      "outputs": [
        {
          "internalType": "bool",
          "name": "",
          "type": "bool"
        }
      ],
      "stateMutability": "nonpayable",
      "type": "function"
    },
    {
      "inputs": [
        {
          "internalType": "address",
          "name": "sender",
          "type": "address"
        },
        {
          "internalType": "address",
          "name": "recipient",
          "type": "address"
        },
        {
          "internalType": "uint256",
          "name": "amount",
          "type": "uint256"
        }
      ],
      "name": "transferFrom",
      "outputs": [
        {
          "internalType": "bool",
          "name": "",
          "type": "bool"
        }
      ],
      "stateMutability": "nonpayable",
      "type": "function"
    },
    {
      "inputs": [
        {
          "internalType": "address",
          "name": "newOwner",
          "type": "address"
        }
      ],
      "name": "transferOwnership",
      "outputs": [],
      "stateMutability": "nonpayable",
      "type": "function"
    },
    {
      "inputs": [],
      "name": "upgradeYearnVault",
      "outputs": [],
      "stateMutability": "nonpayable",
      "type": "function"
    },
    {
      "inputs": [],
      "name": "vaultParams",
      "outputs": [
        {
          "internalType": "bool",
          "name": "isPut",
          "type": "bool"
        },
        {
          "internalType": "uint8",
          "name": "decimals",
          "type": "uint8"
        },
        {
          "internalType": "address",
          "name": "asset",
          "type": "address"
        },
        {
          "internalType": "address",
          "name": "underlying",
          "type": "address"
        },
        {
          "internalType": "uint56",
          "name": "minimumSupply",
          "type": "uint56"
        },
        {
          "internalType": "uint104",
          "name": "cap",
          "type": "uint104"
        }
      ],
      "stateMutability": "view",
      "type": "function"
    },
    {
      "inputs": [],
      "name": "vaultState",
      "outputs": [
        {
          "internalType": "uint16",
          "name": "round",
          "type": "uint16"
        },
        {
          "internalType": "uint104",
          "name": "lockedAmount",
          "type": "uint104"
        },
        {
          "internalType": "uint104",
          "name": "lastLockedAmount",
          "type": "uint104"
        },
        {
          "internalType": "uint128",
          "name": "totalPending",
          "type": "uint128"
        },
        {
          "internalType": "uint128",
          "name": "queuedWithdrawShares",
          "type": "uint128"
        }
      ],
      "stateMutability": "view",
      "type": "function"
    },
    {
      "inputs": [
        {
          "internalType": "uint256",
          "name": "amount",
          "type": "uint256"
        }
      ],
      "name": "withdrawInstantly",
      "outputs": [],
      "stateMutability": "nonpayable",
      "type": "function"
    },
    {
      "inputs": [
        {
          "internalType": "address",
          "name": "",
          "type": "address"
        }
      ],
      "name": "withdrawals",
      "outputs": [
        {
          "internalType": "uint16",
          "name": "round",
          "type": "uint16"
        },
        {
          "internalType": "uint128",
          "name": "shares",
          "type": "uint128"
        }
      ],
      "stateMutability": "view",
      "type": "function"
    }
  ],
  "transactionHash": "0x0446e81db75d42c6fdb835c66e1c24fca9abeebbabad8f8532d49782ce9fdd99",
  "args": [
    "0xC02aaA39b223FE8D0A0e5C4F27eAD9083C756Cc2",
    "0xA0b86991c6218b36c1d19D4a2e9Eb0cE3606eB48",
    "0x7C06792Af1632E77cb27a558Dc0885338F4Bdf8E",
    "0x4ccc2339F87F6c59c6893E1A678c2266cA58dC72",
    "0x5934807cC0654d46755eBd2848840b616256C6Ef",
    "0x0b7fFc1f4AD541A4Ed16b40D8c37f0929158D101",
    "0x50c1a2eA0a861A967D9d0FFE2AE4012c2E053804"
  ],
  "solcInputHash": "2232ccc9eb94ff79a1f5b977eab072e9",
  "bytecode": "0x6101606040523480156200001257600080fd5b5060405162006286380380620062868339810160408190526200003591620002b6565b8686858585856001600160a01b038616620000805760405162461bcd60e51b8152602060048201526006602482015265042beeecae8d60d31b60448201526064015b60405180910390fd5b6001600160a01b038516620000c15760405162461bcd60e51b8152602060048201526006602482015265215f7573646360d01b604482015260640162000077565b6001600160a01b038216620001195760405162461bcd60e51b815260206004820152601360248201527f215f676e6f7369734561737941756374696f6e00000000000000000000000000604482015260640162000077565b6001600160a01b038416620001655760405162461bcd60e51b815260206004820152601160248201527010afb3b0b6b6b0a1b7b73a3937b63632b960791b604482015260640162000077565b6001600160a01b038316620001ac5760405162461bcd60e51b815260206004820152600c60248201526b0857db585c99da5b941bdbdb60a21b604482015260640162000077565b6001600160a01b038116620001f65760405162461bcd60e51b815260206004820152600f60248201526e215f796561726e526567697374727960881b604482015260640162000077565b6001600160601b0319606096871b811660805294861b851660a05292851b841660c05290841b831660e052831b82166101005290911b16610120526001600160a01b0385166200027b5760405162461bcd60e51b815260206004820152600f60248201526e215f6f546f6b656e466163746f727960881b604482015260640162000077565b5050505060601b6001600160601b03191661014052506200034a9050565b80516001600160a01b0381168114620002b157600080fd5b919050565b600080600080600080600060e0888a031215620002d1578283fd5b620002dc8862000299565b9650620002ec6020890162000299565b9550620002fc6040890162000299565b94506200030c6060890162000299565b93506200031c6080890162000299565b92506200032c60a0890162000299565b91506200033c60c0890162000299565b905092959891949750929550565b60805160601c60a05160601c60c05160601c60e05160601c6101005160601c6101205160601c6101405160601c615e786200040e60003960008181610c1e0152612d4f0152600081816106eb0152613dcf015260008181610841015281816119d80152613a3a01526000818161079301526126f9015260008181610541015281816117f9015281816126d701526145eb0152600081816109580152612d74015260008181610b4f0152818161113f0152818161428901526149b70152615e786000f3fe608060405234801561001057600080fd5b50600436106104c25760003560e01c806389a3027111610278578063b4d1d7951161015c578063e16fdbd5116100ce578063f656ba5111610092578063f656ba5114610cc3578063f756fa2114610ceb578063f957a06714610cf3578063f9a0be6814610d06578063fba7dc6114610d19578063fe56e23214610d2d57600080fd5b8063e16fdbd514610c79578063e73c63d514610c8c578063e74b981b14610c95578063ea00b1ca14610ca8578063f2fde38b14610cb057600080fd5b8063d13f1b3e11610120578063d13f1b3e14610bd7578063d164cc1514610bea578063d5f2638214610bfd578063db006a7514610c06578063db43e86214610c19578063dd62ed3e14610c4057600080fd5b8063b4d1d79514610b9f578063b6b55f2514610ba9578063b9f8092b14610bbc578063c1c4230d14610863578063ce7c2ac214610bc457600080fd5b8063a457c2d7116101f5578063a9059cbb116101b9578063a9059cbb14610b24578063aced166114610b37578063ad5c464814610b4a578063ad7a672f14610b71578063afa6626414610b79578063b2016bd414610b8c57600080fd5b8063a457c2d714610ada578063a497e67414610aed578063a694fc3a14610b00578063a6f7f5d614610b13578063a7a4490114610b1c57600080fd5b80639be43daa1161023c5780639be43daa146109ac5780639fcc2d75146109bf578063a083ff1714610a5e578063a285c9e814610ab4578063a2db9d8314610ac957600080fd5b806389a30271146109535780638b10cc7c1461097a5780638da5cb5b1461098b57806395d89b411461099c57806399530b06146109a457600080fd5b806346904840116103aa5780636c10f66c1161031c578063715018a6116102e0578063715018a6146108af5780637a9262a2146108b75780637e108d521461090e57806383536ff31461092157806387153eb11461092a578063877887821461094a57600080fd5b80636c10f66c1461083c5780636f14fba2146108635780636f31ab341461086b57806370897b231461087357806370a082311461088657600080fd5b8063600a2cfb1161036e578063600a2cfb1461077e578063611b034d14610786578063650cce8a1461078e5780636719b2ee146107b557806369b411701461082c5780636b64c7691461083457600080fd5b8063469048401461072957806347786d371461073c5780634ac88cb61461074f578063503c70aa1461076257806355489bb21461076b57600080fd5b8063313ce567116104435780633ec143d3116104075780633ec143d3146106a15780633f23bb73146106c25780633f90916a146106d55780634215d915146106e6578063432833a61461070d5780634603c0aa1461071657600080fd5b8063313ce5671461063a57806331807e4214610657578063355274ea1461066a57806336efd16f1461067b578063395093511461068e57600080fd5b80631a92f6c21161048a5780631a92f6c21461053c57806323b872dd1461057b5780632728f3331461058e5780632775d01c1461061457806330630da41461062757600080fd5b8063048bf085146104c757806306fdde03146104dc578063095ea7b3146104fa5780630cbf54c81461051d57806318160ddd14610534575b600080fd5b6104da6104d5366004615458565b610d40565b005b6104e4610d95565b6040516104f191906158bc565b60405180910390f35b61050d610508366004615607565b610e27565b60405190151581526020016104f1565b61052660fc5481565b6040519081526020016104f1565b609954610526565b6105637f000000000000000000000000000000000000000000000000000000000000000081565b6040516001600160a01b0390911681526020016104f1565b61050d6105893660046155c7565b610e3e565b60cf5460d0546105cf9161ffff8116916001600160681b03620100008304811692600160781b900416906001600160801b0380821691600160801b90041685565b6040805161ffff90961686526001600160681b03948516602087015293909216928401929092526001600160801b03918216606084015216608082015260a0016104f1565b6104da6106223660046156b3565b610eea565b6104da610635366004615458565b6111b6565b60cc54610100900460ff1660405160ff90911681526020016104f1565b6104da6106653660046156b3565b61124e565b60ce546001600160681b0316610526565b6104da6106893660046156e3565b6113ed565b61050d61069c366004615607565b61149c565b60fa546106af9061ffff1681565b60405161ffff90911681526020016104f1565b6105266106d0366004615458565b6114d8565b60d0546001600160801b0316610526565b6105637f000000000000000000000000000000000000000000000000000000000000000081565b61052660fd5481565b6104da610724366004615458565b61152b565b60d354610563906001600160a01b031681565b6104da61074a3660046156b3565b6115cd565b6104da61075d366004615458565b6116a8565b61052660fe5481565b6104da61077936600461568c565b6116f5565b6104da61178d565b6104da611960565b6105637f000000000000000000000000000000000000000000000000000000000000000081565b6107fb6107c3366004615458565b60c96020526000908152604090205461ffff8116906201000081046001600160681b031690600160781b90046001600160801b031683565b6040805161ffff90941684526001600160681b0390921660208401526001600160801b0316908201526060016104f1565b610526600081565b6104da611a7a565b6105637f000000000000000000000000000000000000000000000000000000000000000081565b610526600581565b6104da611ada565b6104da6108813660046156b3565b611b11565b610526610894366004615458565b6001600160a01b031660009081526097602052604090205490565b6104da611bd8565b6108ec6108c5366004615458565b60cb6020526000908152604090205461ffff8116906201000090046001600160801b031682565b6040805161ffff90931683526001600160801b039091166020830152016104f1565b6104da61091c3660046156b3565b611c0e565b61052660f85481565b6105266109383660046156b3565b60ca6020526000908152604090205481565b61052660d55481565b6105637f000000000000000000000000000000000000000000000000000000000000000081565b60d2546001600160a01b0316610563565b6065546001600160a01b0316610563565b6104e4611e49565b610526611e58565b6104da6109ba3660046156b3565b611e92565b60cc5460cd5460ce54610a0e9260ff808216936101008304909116926001600160a01b036201000090930483169282169166ffffffffffffff600160a01b90910416906001600160681b031686565b60408051961515875260ff90951660208701526001600160a01b03938416948601949094529116606084015266ffffffffffffff1660808301526001600160681b031660a082015260c0016104f1565b60d15460d254610a88916001600160a01b039081169190811690600160a01b900463ffffffff1683565b604080516001600160a01b03948516815293909216602084015263ffffffff16908201526060016104f1565b60d254600160a01b900463ffffffff16610526565b60d1546001600160a01b0316610563565b61050d610ae8366004615607565b611f8c565b6104da610afb3660046156b3565b612025565b6104da610b0e3660046156b3565b6120e2565b61052660d65481565b6104da6121d2565b61050d610b32366004615607565b61230b565b60d454610563906001600160a01b031681565b6105637f000000000000000000000000000000000000000000000000000000000000000081565b610526612318565b60f654610563906001600160a01b031681565b60d754610563906001600160a01b031681565b61052662093a8081565b6104da610bb73660046156b3565b612485565b6104da6124f2565b610526610bd2366004615458565b612832565b6104da610be53660046156b3565b61284f565b6104da610bf8366004615458565b612914565b61052660f95481565b6104da610c143660046156b3565b6129a3565b6105637f000000000000000000000000000000000000000000000000000000000000000081565b610526610c4e366004615490565b6001600160a01b03918216600090815260986020908152604080832093909416825291909152205490565b6104da610c873660046154c8565b612a10565b61052660fb5481565b6104da610ca3366004615458565b612c1c565b6104da612d0f565b6104da610cbe366004615458565b612f81565b610cd6610cd1366004615458565b613019565b604080519283526020830191909152016104f1565b6104da6130fc565b60f754610563906001600160a01b031681565b60ff54610563906001600160a01b031681565b61010054610563906001600160a01b031681565b6104da610d3b3660046156b3565b613151565b6065546001600160a01b03163314610d735760405162461bcd60e51b8152600401610d6a9061593e565b60405180910390fd5b60ff80546001600160a01b0319166001600160a01b0392909216919091179055565b6060609a8054610da490615c32565b80601f0160208091040260200160405190810160405280929190818152602001828054610dd090615c32565b8015610e1d5780601f10610df257610100808354040283529160200191610e1d565b820191906000526020600020905b815481529060010190602001808311610e0057829003601f168201915b5050505050905090565b6000610e3433848461322c565b5060015b92915050565b6000610e4b848484613351565b6001600160a01b038416600090815260986020908152604080832033845290915290205482811015610ed05760405162461bcd60e51b815260206004820152602860248201527f45524332303a207472616e7366657220616d6f756e74206578636565647320616044820152676c6c6f77616e636560c01b6064820152608401610d6a565b610edd853385840361322c565b60019150505b9392505050565b60026001541415610f0d5760405162461bcd60e51b8152600401610d6a90615994565b600260015533600090815260c96020526040902060cf5461ffff1682610f455760405162461bcd60e51b8152600401610d6a90615973565b815461ffff168114610f895760405162461bcd60e51b815260206004820152600d60248201526c125b9d985b1a59081c9bdd5b99609a1b6044820152606401610d6a565b81546201000090046001600160681b031683811015610fda5760405162461bcd60e51b815260206004820152600d60248201526c115e18d9595908185b5bdd5b9d609a1b6044820152606401610d6a565b610fe48185613521565b83546001600160681b0391909116620100000262010000600160781b031990911617835560d05461101e906001600160801b031685613521565b60d080546001600160801b0319166001600160801b0392909216919091179055604080518581526020810184905233917fab2daf3c146ca6416cbccd2a86ed2ba995e171ef6319df14a38aef01403a9c96910160405180910390a260cc5460d754604051633fd5c25d60e11b815260048101879052620100009092046001600160a01b0390811660248401521660448201526005606482018190526084820152730b5CEd3Da03BF02851cF887E7b90B2A6130Ac96B90637fab84ba9060a40160006040518083038186803b1580156110f557600080fd5b505af4158015611109573d6000803e3d6000fd5b505060cc54604051634cc8d10160e11b8152730b5CEd3Da03BF02851cF887E7b90B2A6130Ac96B9350639991a202925061117c917f000000000000000000000000000000000000000000000000000000000000000091620100009091046001600160a01b03169033908a90600401615798565b60006040518083038186803b15801561119457600080fd5b505af41580156111a8573d6000803e3d6000fd5b505060018055505050505050565b6065546001600160a01b031633146111e05760405162461bcd60e51b8152600401610d6a9061593e565b6001600160a01b03811661122c5760405162461bcd60e51b815260206004820152601360248201527210b732bba9ba3934b5b2a9b2b632b1ba34b7b760691b6044820152606401610d6a565b60f780546001600160a01b0319166001600160a01b0392909216919091179055565b600260015414156112715760405162461bcd60e51b8152600401610d6a90615994565b6002600155806112935760405162461bcd60e51b8152600401610d6a90615973565b60d754604051630c279a2f60e41b81526001600160a01b0390911660048201526000906113c19083906113bc90730b5CEd3Da03BF02851cF887E7b90B2A6130Ac96B9063c279a2f0906024015b60206040518083038186803b1580156112f857600080fd5b505af415801561130c573d6000803e3d6000fd5b505050506040513d601f19601f8201168201806040525081019061133091906156cb565b60d760009054906101000a90046001600160a01b03166001600160a01b03166399530b066040518163ffffffff1660e01b815260040160206040518083038186803b15801561137e57600080fd5b505afa158015611392573d6000803e3d6000fd5b505050506040513d601f19601f820116820180604052508101906113b691906156cb565b9061352d565b613539565b90506113cd8133613573565b60d7546113e5906001600160a01b03163330856137ff565b505060018055565b600260015414156114105760405162461bcd60e51b8152600401610d6a90615994565b6002600155816114325760405162461bcd60e51b8152600401610d6a90615973565b6001600160a01b0381166114745760405162461bcd60e51b815260206004820152600960248201526810b1b932b234ba37b960b91b6044820152606401610d6a565b61147e8282613573565b60cc546113e5906201000090046001600160a01b03163330856137ff565b3360008181526098602090815260408083206001600160a01b03871684529091528120549091610e349185906114d3908690615aad565b61322c565b60cc5460009060ff610100909104168161150e6114f460995490565b6114fc612318565b60d0546001600160801b031685613859565b905061152361151c85612832565b8284613899565b949350505050565b6065546001600160a01b031633146115555760405162461bcd60e51b8152600401610d6a9061593e565b6001600160a01b0381166115ab5760405162461bcd60e51b815260206004820152601860248201527f216e65774f7074696f6e735072656d69756d50726963657200000000000000006044820152606401610d6a565b60f680546001600160a01b0319166001600160a01b0392909216919091179055565b6065546001600160a01b031633146115f75760405162461bcd60e51b8152600401610d6a9061593e565b600081116116315760405162461bcd60e51b81526020600482015260076024820152660216e65774361760cc1b6044820152606401610d6a565b61163a816138fb565b60ce54604080516001600160681b039092168252602082018390527f5f86edbb9d92228a9edc3f0ebc0f001bda1ea345ac7335e0eeef3504b31d1a1c910160405180910390a160ce80546cffffffffffffffffffffffffff19166001600160681b0392909216919091179055565b6065546001600160a01b031633146116d25760405162461bcd60e51b8152600401610d6a9061593e565b61010080546001600160a01b0319166001600160a01b0392909216919091179055565b6065546001600160a01b0316331461171f5760405162461bcd60e51b8152600401610d6a9061593e565b6000816001600160801b0316116117675760405162461bcd60e51b815260206004820152600c60248201526b21737472696b65507269636560a01b6044820152606401610d6a565b6001600160801b031660fb5560cf5460fa805461ffff191661ffff909216919091179055565b60d4546001600160a01b031633146117b75760405162461bcd60e51b8152600401610d6a906158cf565b600260015414156117da5760405162461bcd60e51b8152600401610d6a90615994565b600260015560d2546040516358ffbb3d60e01b81526001600160a01b037f000000000000000000000000000000000000000000000000000000000000000081166004830152909116602482015260009073E6342509ae61b63F015f268953FCA0dE71e61128906358ffbb3d9060440160206040518083038186803b15801561186157600080fd5b505af4158015611875573d6000803e3d6000fd5b505050506040513d601f19601f8201168201806040525081019061189991906156cb565b60cf549091506118b8906201000090046001600160681b031682613521565b60cf805462010000600160781b031916620100006001600160681b0393909316830217905560cc5460d754604051634c03c9a760e01b8152929091046001600160a01b039081166004840152166024820152730b5CEd3Da03BF02851cF887E7b90B2A6130Ac96B90634c03c9a79060440160006040518083038186803b15801561194157600080fd5b505af4158015611955573d6000803e3d6000fd5b505060018055505050565b60d4546001600160a01b0316331461198a5760405162461bcd60e51b8152600401610d6a906158cf565b600260015414156119ad5760405162461bcd60e51b8152600401610d6a90615994565b60026001556101005460fd54604051632288d73760e11b81526001600160a01b0392831660048201527f00000000000000000000000000000000000000000000000000000000000000009092166024830152604482015273E6342509ae61b63F015f268953FCA0dE71e6112890634511ae6e9060640160206040518083038186803b158015611a3b57600080fd5b505af4158015611a4f573d6000803e3d6000fd5b505050506040513d601f19601f82011682018060405250810190611a7391906156cb565b5060018055565b60d4546001600160a01b03163314611aa45760405162461bcd60e51b8152600401610d6a906158cf565b60026001541415611ac75760405162461bcd60e51b8152600401610d6a90615994565b6002600155611ad4613945565b60018055565b60026001541415611afd5760405162461bcd60e51b8152600401610d6a90615994565b6002600181905550611ad460006001613b4d565b6065546001600160a01b03163314611b3b5760405162461bcd60e51b8152600401610d6a9061593e565b611b49620f42406064615bd0565b8110611b975760405162461bcd60e51b815260206004820152601760248201527f496e76616c696420706572666f726d616e6365206665650000000000000000006044820152606401610d6a565b60d55460408051918252602082018390527f24867dfb6fcb9970a07be21024956524abe7a1837faa903ff0e99aaa40cf893e910160405180910390a160d555565b6065546001600160a01b03163314611c025760405162461bcd60e51b8152600401610d6a9061593e565b611c0c6000613cfc565b565b60026001541415611c315760405162461bcd60e51b8152600401610d6a90615994565b600260015580611c705760405162461bcd60e51b815260206004820152600a602482015269216e756d53686172657360b01b6044820152606401610d6a565b33600090815260c960205260409020546201000090046001600160681b0316151580611cba575033600090815260c96020526040902054600160781b90046001600160801b031615155b15611ccb57611ccb60006001613b4d565b60cf5433600081815260cb60209081526040918290208054835187815261ffff96871693810184905292959194911685149290917f0c53c82ad07e2d592d88ece3b066777dd60f1118e2a081b380efc4358f0d9e2a910160405180910390a281546201000090046001600160801b031660008215611d5457611d4d8287613d4e565b9050611db7565b8115611d965760405162461bcd60e51b81526020600482015260116024820152704578697374696e6720776974686472617760781b6044820152606401610d6a565b5033600090815260cb60205260409020805461ffff191661ffff8616179055845b611dc081613d5a565b33600090815260cb6020526040812080546001600160801b03808516620100000262010000600160901b03199092169190911790915560d054611e0c91600160801b9091041688613d4e565b9050611e1781613d5a565b60d080546001600160801b03808416600160801b029116179055611e3c333089613351565b5050600180555050505050565b6060609b8054610da490615c32565b6000611e8d611e6660995490565b611e6e612318565b60d05460cc546001600160801b0390911690610100900460ff16613859565b905090565b60026001541415611eb55760405162461bcd60e51b8152600401610d6a90615994565b600260015580611ef45760405162461bcd60e51b815260206004820152600a602482015269216e756d526f756e647360b01b6044820152606401610d6a565b60cf5461ffff1660005b82811015611f83576000611f128284615aad565b600081815260ca602052604090205490915015611f5f5760405162461bcd60e51b815260206004820152600b60248201526a125b9a5d1a585b1a5e995960aa1b6044820152606401610d6a565b600090815260ca602052604090206001905580611f7b81615c67565b915050611efe565b50506001805550565b3360009081526098602090815260408083206001600160a01b03861684529091528120548281101561200e5760405162461bcd60e51b815260206004820152602560248201527f45524332303a2064656372656173656420616c6c6f77616e63652062656c6f77604482015264207a65726f60d81b6064820152608401610d6a565b61201b338585840361322c565b5060019392505050565b6065546001600160a01b0316331461204f5760405162461bcd60e51b8152600401610d6a9061593e565b61012c8110156120a15760405162461bcd60e51b815260206004820152601860248201527f496e76616c69642061756374696f6e206475726174696f6e00000000000000006044820152606401610d6a565b60fc5460408051918252602082018390527f5acd982e2240ed224a69aa03dab039d3797c108e4b5f288cd7dd6ca181b275f3910160405180910390a160fc55565b600260015414156121055760405162461bcd60e51b8152600401610d6a90615994565b600260015560ff546001600160a01b03168061212057600080fd5b6000821161212d57600080fd5b3360009081526097602052604090205482811015612159576121596121528483613521565b6000613b4d565b612164333085613351565b61216f30838561322c565b6040516383df674760e01b815260048101849052336024820152600060448201526001600160a01b038316906383df674790606401600060405180830381600087803b1580156121be57600080fd5b505af1158015611e3c573d6000803e3d6000fd5b6065546001600160a01b031633146121fc5760405162461bcd60e51b8152600401610d6a9061593e565b60d7546040516370a0823160e01b81523060048201526001600160a01b0390911690819063e63697c89082906370a082319060240160206040518083038186803b15801561224957600080fd5b505afa15801561225d573d6000803e3d6000fd5b505050506040513d601f19601f8201168201806040525081019061228191906156cb565b6040516001600160e01b031960e084901b168152600481019190915230602482015260056044820152606401602060405180830381600087803b1580156122c757600080fd5b505af11580156122db573d6000803e3d6000fd5b505050506040513d601f19601f820116820180604052508101906122ff91906156cb565b50612308613da4565b50565b6000610e34338484613351565b60d7546040516370a0823160e01b8152306004820152600091611e8d916123e4916001600160a01b0316906370a082319060240160206040518083038186803b15801561236457600080fd5b505afa158015612378573d6000803e3d6000fd5b505050506040513d601f19601f8201168201806040525081019061239c91906156cb565b60d754604051630c279a2f60e41b81526001600160a01b0390911660048201526113bc90730b5CEd3Da03BF02851cF887E7b90B2A6130Ac96B9063c279a2f0906024016112e0565b60cc546040516370a0823160e01b815230600482015261247f916201000090046001600160a01b0316906370a082319060240160206040518083038186803b15801561242f57600080fd5b505afa158015612443573d6000803e3d6000fd5b505050506040513d601f19601f8201168201806040525081019061246791906156cb565b60cf546201000090046001600160681b031690613d4e565b90613d4e565b600260015414156124a85760405162461bcd60e51b8152600401610d6a90615994565b6002600155806124ca5760405162461bcd60e51b8152600401610d6a90615973565b6124d48133613573565b60cc54611a73906201000090046001600160a01b03163330846137ff565b60d4546001600160a01b0316331461251c5760405162461bcd60e51b8152600401610d6a906158cf565b6002600154141561253f5760405162461bcd60e51b8152600401610d6a90615994565b600260018190555060008061255560fe54613eb8565b60fe819055909250905060006126566125d561258861258161271061257b87600561352d565b90614358565b8590613d4e565b60d754604051630c279a2f60e41b81526001600160a01b0390911660048201526125d090730b5CEd3Da03BF02851cF887E7b90B2A6130Ac96B9063c279a2f0906024016112e0565b614364565b60d7546040516370a0823160e01b81523060048201526001600160a01b03909116906370a082319060240160206040518083038186803b15801561261857600080fd5b505afa15801561262c573d6000803e3d6000fd5b505050506040513d601f19601f8201168201806040525081019061265091906156cb565b90613521565b9050336001600160a01b0316836001600160a01b03167f045c558fdce4714c5816d53820d27420f4cd860892df203fe636384d8d19aa018360405161269d91815260200190565b60405180910390a3604051632904c23960e01b815260009073E6342509ae61b63F015f268953FCA0dE71e6112890632904c23990612725907f0000000000000000000000000000000000000000000000000000000000000000907f00000000000000000000000000000000000000000000000000000000000000009089908890600401615798565b60206040518083038186803b15801561273d57600080fd5b505af4158015612751573d6000803e3d6000fd5b505050506040513d601f19601f8201168201806040525081019061277591906156cb565b61010054604051636648c73d60e11b81526001600160a01b039182166004820152908616602482015260448101829052611388606482015290915073E6342509ae61b63F015f268953FCA0dE71e611289063cc918e7a9060840160206040518083038186803b1580156127e757600080fd5b505af41580156127fb573d6000803e3d6000fd5b505050506040513d601f19601f8201168201806040525081019061281f91906156cb565b50612828613945565b5050600180555050565b600080600061284084613019565b90925090506115238282613d4e565b60d4546001600160a01b031633146128795760405162461bcd60e51b8152600401610d6a906158cf565b6000811180156128945750612890600a6064615bd0565b8111155b6128d35760405162461bcd60e51b815260206004820152601060248201526f125b9d985b1a5908191a5cd8dbdd5b9d60821b6044820152606401610d6a565b60f85460408051918252602082018390527f4cd657fde404967d63a338fb06c5c98751a9df57dfae6dc333a432faf8a5f656910160405180910390a160f855565b6065546001600160a01b0316331461293e5760405162461bcd60e51b8152600401610d6a9061593e565b6001600160a01b0381166129815760405162461bcd60e51b815260206004820152600a60248201526910b732bba5b2b2b832b960b11b6044820152606401610d6a565b60d480546001600160a01b0319166001600160a01b0392909216919091179055565b600260015414156129c65760405162461bcd60e51b8152600401610d6a90615994565b600260015580612a055760405162461bcd60e51b815260206004820152600a602482015269216e756d53686172657360b01b6044820152606401610d6a565b611a73816000613b4d565b600054610100900460ff1680612a29575060005460ff16155b612a455760405162461bcd60e51b8152600401610d6a906158f0565b600054610100900460ff16158015612a67576000805461ffff19166101011790555b612a778d8d8d8d8d8d8d89614387565b6001600160a01b038616612ac65760405162461bcd60e51b815260206004820152601660248201527510afb7b83a34b7b739a83932b6b4bab6a83934b1b2b960511b6044820152606401610d6a565b6001600160a01b038516612b105760405162461bcd60e51b815260206004820152601160248201527010afb9ba3934b5b2a9b2b632b1ba34b7b760791b6044820152606401610d6a565b60008463ffffffff16118015612b365750612b2d600a6064615bd0565b8463ffffffff16105b612b765760405162461bcd60e51b81526020600482015260116024820152700857dc1c995b5a5d5b511a5cd8dbdd5b9d607a1b6044820152606401610d6a565b61012c831015612bbc5760405162461bcd60e51b815260206004820152601160248201527010afb0bab1ba34b7b7223ab930ba34b7b760791b6044820152606401610d6a565b60f680546001600160a01b038089166001600160a01b03199283161790925560f780549288169290911691909117905563ffffffff841660f85560fc8390558015612c0d576000805461ff00191690555b50505050505050505050505050565b6065546001600160a01b03163314612c465760405162461bcd60e51b8152600401610d6a9061593e565b6001600160a01b038116612c8f5760405162461bcd60e51b815260206004820152601060248201526f085b995dd19959549958da5c1a595b9d60821b6044820152606401610d6a565b60d3546001600160a01b0382811691161415612ced5760405162461bcd60e51b815260206004820152601860248201527f4d757374206265206e657720666565526563697069656e7400000000000000006044820152606401610d6a565b60d380546001600160a01b0319166001600160a01b0392909216919091179055565b60026001541415612d325760405162461bcd60e51b8152600401610d6a90615994565b600260015560d25460408051610120810182526001600160a01b037f0000000000000000000000000000000000000000000000000000000000000000811682527f00000000000000000000000000000000000000000000000000000000000000008116602083015292831681830181905260006060830181905260fa5461ffff16608084015260fb5460a084015260f754851660c084015260f654851660e084015260f85461010084015260d75493516001621eaadd60e11b03198152919492939092839283928392730b5CEd3Da03BF02851cF887E7b90B2A6130Ac96B9263ffc2aa4692612e2d928a9260cc9260cf9216906004016159cb565b60806040518083038186803b158015612e4557600080fd5b505af4158015612e59573d6000803e3d6000fd5b505050506040513d601f19601f82011682018060405250810190612e7d9190615632565b93509350935093507fa217999b1c125c2a996f712c5f26a28addad7167bd8a67d5bd5b2a751148abb08282604051612ebf929190918252602082015260400190565b60405180910390a1612ed0836138fb565b6001600160681b03831660f95560d180546001600160a01b0319166001600160a01b0386161790556000612f044282613d4e565b905063ffffffff811115612f5a5760405162461bcd60e51b815260206004820152601860248201527f4f766572666c6f77206e6578744f7074696f6e526561647900000000000000006044820152606401610d6a565b60d2805463ffffffff60a01b1916600160a01b63ffffffff841602179055611e3c87614557565b6065546001600160a01b03163314612fab5760405162461bcd60e51b8152600401610d6a9061593e565b6001600160a01b0381166130105760405162461bcd60e51b815260206004820152602660248201527f4f776e61626c653a206e6577206f776e657220697320746865207a65726f206160448201526564647265737360d01b6064820152608401610d6a565b61230881613cfc565b6001600160a01b038116600090815260c9602090815260408083208151606081018352905461ffff81168083526201000082046001600160681b031694830194909452600160781b90046001600160801b03169181019190915282916001111561309b575050506001600160a01b031660009081526097602052604081205491565b60cf54815161ffff908116600090815260ca602052604081205460cc5491936130d193869391169190610100900460ff166146cd565b90506130f2856001600160a01b031660009081526097602052604090205490565b9590945092505050565b6002600154141561311f5760405162461bcd60e51b8152600401610d6a90615994565b6002600155600061312e61473e565b60fe5490915061313e9082613521565b6001600160801b031660fe555060018055565b6065546001600160a01b0316331461317b5760405162461bcd60e51b8152600401610d6a9061593e565b613189620f42406064615bd0565b81106131d05760405162461bcd60e51b8152602060048201526016602482015275496e76616c6964206d616e6167656d656e742066656560501b6044820152606401610d6a565b60006131e763031ba30961257b84620f424061352d565b60d65460408051918252602082018590529192507f4e874b007ab14f7e263baefd44951834c8266f4f224d1092e49e9c254354cc54910160405180910390a160d65550565b6001600160a01b03831661328e5760405162461bcd60e51b8152602060048201526024808201527f45524332303a20617070726f76652066726f6d20746865207a65726f206164646044820152637265737360e01b6064820152608401610d6a565b6001600160a01b0382166132ef5760405162461bcd60e51b815260206004820152602260248201527f45524332303a20617070726f766520746f20746865207a65726f206164647265604482015261737360f01b6064820152608401610d6a565b6001600160a01b0383811660008181526098602090815260408083209487168084529482529182902085905590518481527f8c5be1e5ebec7d5bd14f71427d1e84f3dd0314c0f7b2291e5b200ac8c7c3b92591015b60405180910390a3505050565b6001600160a01b0383166133b55760405162461bcd60e51b815260206004820152602560248201527f45524332303a207472616e736665722066726f6d20746865207a65726f206164604482015264647265737360d81b6064820152608401610d6a565b6001600160a01b0382166134175760405162461bcd60e51b815260206004820152602360248201527f45524332303a207472616e7366657220746f20746865207a65726f206164647260448201526265737360e81b6064820152608401610d6a565b6001600160a01b0383166000908152609760205260409020548181101561348f5760405162461bcd60e51b815260206004820152602660248201527f45524332303a207472616e7366657220616d6f756e7420657863656564732062604482015265616c616e636560d01b6064820152608401610d6a565b6001600160a01b038085166000908152609760205260408082208585039055918516815290812080548492906134c6908490615aad565b92505081905550826001600160a01b0316846001600160a01b03167fddf252ad1be2c89b69c2b068fc378daa952ba7f163c4a11628f55a4df523b3ef8460405161351291815260200190565b60405180910390a35b50505050565b6000610ee38284615bef565b6000610ee38284615bd0565b6000670de0b6b3a76400006135696135518585614a32565b6135646002670de0b6b3a7640000615ac5565b614a99565b610ee39190615ac5565b60cf5461ffff1660006135888461247f612318565b60ce549091506001600160681b03168111156135d35760405162461bcd60e51b815260206004820152600a6024820152690457863656564206361760b41b6044820152606401610d6a565b60cd54600160a01b900466ffffffffffffff1681101561362c5760405162461bcd60e51b8152602060048201526014602482015273496e73756666696369656e742062616c616e636560601b6044820152606401610d6a565b60408051858152602081018490526001600160a01b038516917f90890809c654f11d6e72a28fa60149770a0d11ec6c92319d6ceb2bb0a4ea1a15910160405180910390a26001600160a01b038316600090815260c9602090815260408083208151606081018352905461ffff81168083526201000082046001600160681b031683860152600160781b9091046001600160801b031682840152845260ca90925282205460cc549192916136eb918491879190610100900460ff166146cd565b8251909150869061ffff1685141561371c576020830151600090613718906001600160681b031689613d4e565b9150505b613725816138fb565b6040805160608101825261ffff80881682526001600160681b0380851660208085019182526001600160801b038089168688019081526001600160a01b038e16600090815260c990935296822095518654935197518216600160781b02600160781b600160f81b03199890951662010000026effffffffffffffffffffffffffffff1990941695169490941791909117949094161790915560d0546137cb911689613d4e565b90506137d681613d5a565b60d080546001600160801b0319166001600160801b039290921691909117905550505050505050565b604080516001600160a01b0385811660248301528416604482015260648082018490528251808303909101815260849091019091526020810180516001600160e01b03166323b872dd60e01b17905261351b908590614aee565b60008061386783600a615b28565b905060008611613877578061388f565b61388f8661257b6138888888613521565b849061352d565b9695505050505050565b6000600183116138e35760405162461bcd60e51b8152602060048201526015602482015274496e76616c6964206173736574506572536861726560581b6044820152606401610d6a565b6115236138f183600a615b28565b61257b868661352d565b6001600160681b038111156123085760405162461bcd60e51b815260206004820152601060248201526f13dd995c999b1bddc81d5a5b9d0c4c0d60821b6044820152606401610d6a565b6040805160c081018252600080825260208201819052818301819052606082018190526080820181905260a0820181905260d25460f65460f85460d754955163188b696960e31b81526001600160a01b039384166004820181905292841660248201526044810191909152919094166064820152919291730b5CEd3Da03BF02851cF887E7b90B2A6130Ac96B9063c45b4b489060840160206040518083038186803b1580156139f357600080fd5b505af4158015613a07573d6000803e3d6000fd5b505050506040513d601f19601f82011682018060405250810190613a2b91906156cb565b6001600160a01b0383811685527f000000000000000000000000000000000000000000000000000000000000000081166020860190815260cc546201000081048316604080890191825261010090920460ff16606089019081526080890186815260fc5460a08b019081529351633baf17fd60e21b81528a5187166004820152945186166024860152915190941660448401529251606483015291516084820152905160a482015290915073E6342509ae61b63F015f268953FCA0dE71e611289063eebc5ff49060c40160206040518083038186803b158015613b0d57600080fd5b505af4158015613b21573d6000803e3d6000fd5b505050506040513d601f19601f82011682018060405250810190613b4591906156cb565b60fd55505050565b33600090815260c9602090815260408083208151606081018352905461ffff8082168084526201000083046001600160681b031684870152600160781b9092046001600160801b03168385015260cf5491865260ca9094529184205460cc5491949290931692613bc89185918591610100900460ff166146cd565b905083613bd55784613bd7565b805b945084613be5575050505050565b80851115613c295760405162461bcd60e51b81526020600482015260116024820152704578636565647320617661696c61626c6560781b6044820152606401610d6a565b825161ffff16821115613c565733600090815260c960205260409020805462010000600160781b03191690555b613c5f85613d5a565b613c698186613521565b33600081815260c960205260409081902080546001600160801b0394909416600160781b02600160781b600160f81b0319909416939093179092558451915190917fe5b754fb1abb7f01b499791d0b820ae3b6af3424ac1c59768edb53f4ec31a92991613ce29189825261ffff16602082015260400190565b60405180910390a2613cf5303387613351565b5050505050565b606580546001600160a01b038381166001600160a01b0319831681179093556040519116919082907f8be0079c531659141344cd1fd0a4f28419497f9722a3daafe3b4186f6b6457e090600090a35050565b6000610ee38284615aad565b6001600160801b038111156123085760405162461bcd60e51b815260206004820152601060248201526f09eeccae4ccd8deee40ead2dce86264760831b6044820152606401610d6a565b60cc54604051630e177dc760e41b81526001600160a01b0362010000909204821660048201526000917f0000000000000000000000000000000000000000000000000000000000000000169063e177dc7090602401602060405180830381600087803b158015613e1357600080fd5b505af1158015613e27573d6000803e3d6000fd5b505050506040513d601f19601f82011682018060405250810190613e4b9190615474565b90506001600160a01b038116613e965760405162461bcd60e51b815260206004820152601060248201526f10b1b7b63630ba32b930b62a37b5b2b760811b6044820152606401610d6a565b60d780546001600160a01b0319166001600160a01b0392909216919091179055565b60d2546000908190600160a01b900463ffffffff16421015613f055760405162461bcd60e51b815260206004820152600660248201526521726561647960d01b6044820152606401610d6a565b60d1546001600160a01b031680613f4c5760405162461bcd60e51b815260206004820152600b60248201526a10b732bc3a27b83a34b7b760a91b6044820152606401610d6a565b60008060008060008073E6342509ae61b63F015f268953FCA0dE71e6112863633c142660cf6040518060c0016040528060cc60000160019054906101000a900460ff1660ff168152602001613f9f612318565b8152602001613fad60995490565b81526020018e815260200160d554815260200160d6548152506040518363ffffffff1660e01b8152600401614029929190600060e08201905083825282516020830152602083015160408301526040830151606083015260608301516080830152608083015160a083015260a083015160c08301529392505050565b60c06040518083038186803b15801561404157600080fd5b505af4158015614055573d6000803e3d6000fd5b505050506040513d601f19601f820116820180604052508101906140799190615707565b9550955095509550955095508660d160010160006101000a8154816001600160a01b0302191690836001600160a01b03160217905550600060d160000160006101000a8154816001600160a01b0302191690836001600160a01b03160217905550600060cf60000160009054906101000a900461ffff1661ffff1690508460ca600083815260200190815260200160002081905550600060d360009054906101000a90046001600160a01b03169050806001600160a01b03167f0a242f7ecaf711036ca770774ceffae28e60ef042ac113ddd187f2631db0c006858585604051614176939291909283526020830191909152604082015260600190565b60405180910390a260d080546001600160801b0319169055614199826001615aad565b60cf805461ffff191661ffff929092169190911790556141b8886138fb565b60cf805462010000600160781b031916620100006001600160681b038b16021790556141e43086614bc0565b60d75460cc54604051634c03c9a760e01b81526001600160a01b03620100009092048216600482015291166024820181905290730b5CEd3Da03BF02851cF887E7b90B2A6130Ac96B90634c03c9a79060440160006040518083038186803b15801561424e57600080fd5b505af4158015614262573d6000803e3d6000fd5b5050505060008411156143455760cc54604051631474764f60e11b81526001600160a01b037f00000000000000000000000000000000000000000000000000000000000000008116600483015262010000909204821660248201528282166044820152908316606482015260848101859052730b5CEd3Da03BF02851cF887E7b90B2A6130Ac96B906328e8ec9e9060a40160206040518083038186803b15801561430b57600080fd5b505af415801561431f573d6000803e3d6000fd5b505050506040513d601f19601f8201168201806040525081019061434391906156cb565b505b50979b959a509498505050505050505050565b6000610ee38284615ac5565b60008161356961437c85670de0b6b3a7640000614a32565b613564600286615ac5565b600054610100900460ff16806143a0575060005460ff16155b6143bc5760405162461bcd60e51b8152600401610d6a906158f0565b600054610100900460ff161580156143de576000805461ffff19166101011790555b60405163c72733f760e01b815273E6342509ae61b63F015f268953FCA0dE71e611289063c72733f790614423908c908c908c908b908d908c908c908c906004016157c2565b60006040518083038186803b15801561443b57600080fd5b505af415801561444f573d6000803e3d6000fd5b5050505061445b614c9f565b6144658484614d12565b61446d614d91565b61447689612f81565b60d480546001600160a01b03808b166001600160a01b03199283161790925560d38054928a169290911691909117905560d58590556144c063031ba30961257b88620f424061352d565b60d6558160cc6144d08282615cd5565b9050506144db613da4565b60006144e5612318565b90506144f0816138fb565b60cf805461ffff196001600160681b03909316600160781b02929092167fffffffff00000000000000000000000000ffffffffffffffffffffffffff0000909216919091176001179055801561454c576000805461ff00191690555b505050505050505050565b60cf546201000090046001600160681b03166001600160a01b038216156145a35760cf80546cffffffffffffffffffffffffff60781b1916600160781b6001600160681b038416021790555b60cf805462010000600160781b031916905560d280546001600160a01b03191690556001600160a01b038216156146c957604051636c6fe87f60e11b81526001600160a01b037f000000000000000000000000000000000000000000000000000000000000000016600482015260009073E6342509ae61b63F015f268953FCA0dE71e611289063d8dfd0fe9060240160206040518083038186803b15801561464a57600080fd5b505af415801561465e573d6000803e3d6000fd5b505050506040513d601f19601f8201168201806040525081019061468291906156cb565b9050336001600160a01b0316836001600160a01b03167f7e830f7c1771deb1bdb35c4a7e6051bbac32b376f7f4e4976b8618b0b11997f78360405161334491815260200190565b5050565b835160009061ffff16158015906146e85750845161ffff1684115b1561472a57600061470786602001516001600160681b03168585614df8565b6040870151909150614722906001600160801b031682613d4e565b915050611523565b50505050604001516001600160801b031690565b33600090815260cb6020526040812080546001600160801b03620100008204169061ffff16816147a05760405162461bcd60e51b815260206004820152600d60248201526c139bdd081a5b9a5d1a585d1959609a1b6044820152606401610d6a565b60cf5461ffff1681106147e85760405162461bcd60e51b815260206004820152601060248201526f149bdd5b99081b9bdd0818db1bdcd95960821b6044820152606401610d6a565b33600090815260cb60205260409020805462010000600160901b031916905560d05461482490600160801b90046001600160801b031683613521565b60d080546001600160801b03928316600160801b029216919091179055600081815260ca602052604081205460cc5461486791859160ff61010090910416613899565b604080518281526020810186905291925033917ff279e6a1f5e320cca91135676d9cb6e44ca8a08c0b88342bcdb1144f6511b568910160405180910390a26148af3084614e5b565b60cc5460d754604051633fd5c25d60e11b815260048101849052620100009092046001600160a01b0390811660248401521660448201526005606482018190526084820152730b5CEd3Da03BF02851cF887E7b90B2A6130Ac96B90637fab84ba9060a40160006040518083038186803b15801561492b57600080fd5b505af415801561493f573d6000803e3d6000fd5b50505050600081116149855760405162461bcd60e51b815260206004820152600f60248201526e085dda5d1a191c985dd05b5bdd5b9d608a1b6044820152606401610d6a565b60cc54604051634cc8d10160e11b8152730b5CEd3Da03BF02851cF887E7b90B2A6130Ac96B91639991a202916149f4917f000000000000000000000000000000000000000000000000000000000000000091620100009091046001600160a01b03169033908790600401615798565b60006040518083038186803b158015614a0c57600080fd5b505af4158015614a20573d6000803e3d6000fd5b5092979650505050505050565b505050565b6000811580614a5657508282614a488183615bd0565b9250614a549083615ac5565b145b610e385760405162461bcd60e51b815260206004820152601460248201527364732d6d6174682d6d756c2d6f766572666c6f7760601b6044820152606401610d6a565b600082614aa68382615aad565b9150811015610e385760405162461bcd60e51b815260206004820152601460248201527364732d6d6174682d6164642d6f766572666c6f7760601b6044820152606401610d6a565b6000614b43826040518060400160405280602081526020017f5361666545524332303a206c6f772d6c6576656c2063616c6c206661696c6564815250856001600160a01b0316614fa99092919063ffffffff16565b805190915015614a2d5780806020019051810190614b619190615670565b614a2d5760405162461bcd60e51b815260206004820152602a60248201527f5361666545524332303a204552433230206f7065726174696f6e20646964206e6044820152691bdd081cdd58d8d9595960b21b6064820152608401610d6a565b6001600160a01b038216614c165760405162461bcd60e51b815260206004820152601f60248201527f45524332303a206d696e7420746f20746865207a65726f2061646472657373006044820152606401610d6a565b8060996000828254614c289190615aad565b90915550506001600160a01b03821660009081526097602052604081208054839290614c55908490615aad565b90915550506040518181526001600160a01b038316906000907fddf252ad1be2c89b69c2b068fc378daa952ba7f163c4a11628f55a4df523b3ef9060200160405180910390a35050565b600054610100900460ff1680614cb8575060005460ff16155b614cd45760405162461bcd60e51b8152600401610d6a906158f0565b600054610100900460ff16158015614cf6576000805461ffff19166101011790555b614cfe614fb8565b8015612308576000805461ff001916905550565b600054610100900460ff1680614d2b575060005460ff16155b614d475760405162461bcd60e51b8152600401610d6a906158f0565b600054610100900460ff16158015614d69576000805461ffff19166101011790555b614d71615027565b614d7b8383615091565b8015614a2d576000805461ff0019169055505050565b600054610100900460ff1680614daa575060005460ff16155b614dc65760405162461bcd60e51b8152600401610d6a906158f0565b600054610100900460ff16158015614de8576000805461ffff19166101011790555b614df0615027565b614cfe615126565b600060018311614e425760405162461bcd60e51b8152602060048201526015602482015274496e76616c6964206173736574506572536861726560581b6044820152606401610d6a565b6115238361257b614e5485600a615b28565b879061352d565b6001600160a01b038216614ebb5760405162461bcd60e51b815260206004820152602160248201527f45524332303a206275726e2066726f6d20746865207a65726f206164647265736044820152607360f81b6064820152608401610d6a565b6001600160a01b03821660009081526097602052604090205481811015614f2f5760405162461bcd60e51b815260206004820152602260248201527f45524332303a206275726e20616d6f756e7420657863656564732062616c616e604482015261636560f01b6064820152608401610d6a565b6001600160a01b0383166000908152609760205260408120838303905560998054849290614f5e908490615bef565b90915550506040518281526000906001600160a01b038516907fddf252ad1be2c89b69c2b068fc378daa952ba7f163c4a11628f55a4df523b3ef9060200160405180910390a3505050565b60606115238484600085615186565b600054610100900460ff1680614fd1575060005460ff16155b614fed5760405162461bcd60e51b8152600401610d6a906158f0565b600054610100900460ff1615801561500f576000805461ffff19166101011790555b600180558015612308576000805461ff001916905550565b600054610100900460ff1680615040575060005460ff16155b61505c5760405162461bcd60e51b8152600401610d6a906158f0565b600054610100900460ff16158015614cfe576000805461ffff19166101011790558015612308576000805461ff001916905550565b600054610100900460ff16806150aa575060005460ff16155b6150c65760405162461bcd60e51b8152600401610d6a906158f0565b600054610100900460ff161580156150e8576000805461ffff19166101011790555b82516150fb90609a9060208601906152e7565b50815161510f90609b9060208501906152e7565b508015614a2d576000805461ff0019169055505050565b600054610100900460ff168061513f575060005460ff16155b61515b5760405162461bcd60e51b8152600401610d6a906158f0565b600054610100900460ff1615801561517d576000805461ffff19166101011790555b614cfe33613cfc565b6060824710156151e75760405162461bcd60e51b815260206004820152602660248201527f416464726573733a20696e73756666696369656e742062616c616e636520666f6044820152651c8818d85b1b60d21b6064820152608401610d6a565b843b6152355760405162461bcd60e51b815260206004820152601d60248201527f416464726573733a2063616c6c20746f206e6f6e2d636f6e74726163740000006044820152606401610d6a565b600080866001600160a01b03168587604051615251919061577c565b60006040518083038185875af1925050503d806000811461528e576040519150601f19603f3d011682016040523d82523d6000602084013e615293565b606091505b50915091506152a38282866152ae565b979650505050505050565b606083156152bd575081610ee3565b8251156152cd5782518084602001fd5b8160405162461bcd60e51b8152600401610d6a91906158bc565b8280546152f390615c32565b90600052602060002090601f016020900481019282615315576000855561535b565b82601f1061532e57805160ff191683800117855561535b565b8280016001018555821561535b579182015b8281111561535b578251825591602001919060010190615340565b5061536792915061536b565b5090565b5b80821115615367576000815560010161536c565b803561538b81615de6565b919050565b600082601f8301126153a0578081fd5b813567ffffffffffffffff808211156153bb576153bb615c98565b604051601f8301601f19908116603f011681019082821181831017156153e3576153e3615c98565b816040528381528660208588010111156153fb578485fd5b8360208701602083013792830160200193909352509392505050565b600060c08284031215615428578081fd5b50919050565b803561538b81615e09565b803563ffffffff8116811461538b57600080fd5b803561538b81615e1e565b600060208284031215615469578081fd5b8135610ee381615de6565b600060208284031215615485578081fd5b8151610ee381615de6565b600080604083850312156154a2578081fd5b82356154ad81615de6565b915060208301356154bd81615de6565b809150509250929050565b6000806000806000806000806000806000806102208d8f0312156154ea578788fd5b6154f38d615380565b9b5061550160208e01615380565b9a5061550f60408e01615380565b995060608d0135985060808d0135975067ffffffffffffffff60a08e01351115615537578687fd5b6155478e60a08f01358f01615390565b965067ffffffffffffffff60c08e01351115615561578586fd5b6155718e60c08f01358f01615390565b955061557f60e08e01615380565b945061558e6101008e01615380565b935061559d6101208e01615439565b92506101408d013591506155b58e6101608f01615417565b90509295989b509295989b509295989b565b6000806000606084860312156155db578283fd5b83356155e681615de6565b925060208401356155f681615de6565b929592945050506040919091013590565b60008060408385031215615619578182fd5b823561562481615de6565b946020939093013593505050565b60008060008060808587031215615647578384fd5b845161565281615de6565b60208601516040870151606090970151919890975090945092505050565b600060208284031215615681578081fd5b8151610ee381615dfb565b60006020828403121561569d578081fd5b81356001600160801b0381168114610ee3578182fd5b6000602082840312156156c4578081fd5b5035919050565b6000602082840312156156dc578081fd5b5051919050565b600080604083850312156156f5578182fd5b8235915060208301356154bd81615de6565b60008060008060008060c0878903121561571f578384fd5b865195506020870151945060408701519350606087015192506080870151915060a087015190509295509295509295565b60008151808452615768816020860160208601615c06565b601f01601f19169290920160200192915050565b6000825161578e818460208701615c06565b9190910192915050565b6001600160a01b039485168152928416602084015292166040820152606081019190915260800190565b60006101a060018060a01b03808c168452808b166020850152808a1660408501528860608501528760808501528160a085015261580182850188615750565b915083820360c08501526158158287615750565b92508435915061582482615dfb565b90151560e084015260208401359061583b82615e33565b60ff82166101008501526040850135915061585582615de6565b1661012083015261586860608401615380565b6001600160a01b03166101408301526158836080840161544d565b66ffffffffffffff1661016083015261589e60a0840161542e565b6001600160681b038116610180840152509998505050505050505050565b602081526000610ee36020830184615750565b60208082526007908201526610b5b2b2b832b960c91b604082015260600190565b6020808252602e908201527f496e697469616c697a61626c653a20636f6e747261637420697320616c72656160408201526d191e481a5b9a5d1a585b1a5e995960921b606082015260800190565b6020808252818101527f4f776e61626c653a2063616c6c6572206973206e6f7420746865206f776e6572604082015260600190565b60208082526007908201526608585b5bdd5b9d60ca1b604082015260600190565b6020808252601f908201527f5265656e7472616e637947756172643a207265656e7472616e742063616c6c00604082015260600190565b84516001600160a01b031681526020808601516101808301916159f8908401826001600160a01b03169052565b506040860151615a1360408401826001600160a01b03169052565b50606086015160608301526080860151615a33608084018261ffff169052565b5060a086015160a083015260c0860151615a5860c08401826001600160a01b03169052565b5060e0860151615a7360e08401826001600160a01b03169052565b506101008087015181840152508461012083015283610140830152615aa46101608301846001600160a01b03169052565b95945050505050565b60008219821115615ac057615ac0615c82565b500190565b600082615ae057634e487b7160e01b81526012600452602481fd5b500490565b600181815b80851115615b20578160001904821115615b0657615b06615c82565b80851615615b1357918102915b93841c9390800290615aea565b509250929050565b6000610ee38383600082615b3e57506001610e38565b81615b4b57506000610e38565b8160018114615b615760028114615b6b57615b87565b6001915050610e38565b60ff841115615b7c57615b7c615c82565b50506001821b610e38565b5060208310610133831016604e8410600b8410161715615baa575081810a610e38565b615bb48383615ae5565b8060001904821115615bc857615bc8615c82565b029392505050565b6000816000190483118215151615615bea57615bea615c82565b500290565b600082821015615c0157615c01615c82565b500390565b60005b83811015615c21578181015183820152602001615c09565b8381111561351b5750506000910152565b600181811c90821680615c4657607f821691505b6020821081141561542857634e487b7160e01b600052602260045260246000fd5b6000600019821415615c7b57615c7b615c82565b5060010190565b634e487b7160e01b600052601160045260246000fd5b634e487b7160e01b600052604160045260246000fd5b60008135610e3881615de6565b60008135610e3881615e09565b60008135610e3881615e1e565b8135615ce081615dfb565b815460ff19811691151560ff1691821783556020840135615d0081615e33565b61ff008160081b169050808361ffff198416171784556040850135615d2481615de6565b6001600160b01b0319929092169092179190911760109190911b62010000600160b01b031617815560018101615d7c615d5f60608501615cae565b82546001600160a01b0319166001600160a01b0391909116178255565b615db5615d8b60808501615cc8565b82805466ffffffffffffff60a01b191660a09290921b66ffffffffffffff60a01b16919091179055565b506146c9615dc560a08401615cbb565b600283016001600160681b0382166001600160681b03198254161781555050565b6001600160a01b038116811461230857600080fd5b801515811461230857600080fd5b6001600160681b038116811461230857600080fd5b66ffffffffffffff8116811461230857600080fd5b60ff8116811461230857600080fdfea26469706673582212206fb9edc3d35223e44ca910a25c06eff4683db43239378ad67657f71ac06a15e164736f6c63430008040033",
  "deployedBytecode": "0x608060405234801561001057600080fd5b50600436106104c25760003560e01c806389a3027111610278578063b4d1d7951161015c578063e16fdbd5116100ce578063f656ba5111610092578063f656ba5114610cc3578063f756fa2114610ceb578063f957a06714610cf3578063f9a0be6814610d06578063fba7dc6114610d19578063fe56e23214610d2d57600080fd5b8063e16fdbd514610c79578063e73c63d514610c8c578063e74b981b14610c95578063ea00b1ca14610ca8578063f2fde38b14610cb057600080fd5b8063d13f1b3e11610120578063d13f1b3e14610bd7578063d164cc1514610bea578063d5f2638214610bfd578063db006a7514610c06578063db43e86214610c19578063dd62ed3e14610c4057600080fd5b8063b4d1d79514610b9f578063b6b55f2514610ba9578063b9f8092b14610bbc578063c1c4230d14610863578063ce7c2ac214610bc457600080fd5b8063a457c2d7116101f5578063a9059cbb116101b9578063a9059cbb14610b24578063aced166114610b37578063ad5c464814610b4a578063ad7a672f14610b71578063afa6626414610b79578063b2016bd414610b8c57600080fd5b8063a457c2d714610ada578063a497e67414610aed578063a694fc3a14610b00578063a6f7f5d614610b13578063a7a4490114610b1c57600080fd5b80639be43daa1161023c5780639be43daa146109ac5780639fcc2d75146109bf578063a083ff1714610a5e578063a285c9e814610ab4578063a2db9d8314610ac957600080fd5b806389a30271146109535780638b10cc7c1461097a5780638da5cb5b1461098b57806395d89b411461099c57806399530b06146109a457600080fd5b806346904840116103aa5780636c10f66c1161031c578063715018a6116102e0578063715018a6146108af5780637a9262a2146108b75780637e108d521461090e57806383536ff31461092157806387153eb11461092a578063877887821461094a57600080fd5b80636c10f66c1461083c5780636f14fba2146108635780636f31ab341461086b57806370897b231461087357806370a082311461088657600080fd5b8063600a2cfb1161036e578063600a2cfb1461077e578063611b034d14610786578063650cce8a1461078e5780636719b2ee146107b557806369b411701461082c5780636b64c7691461083457600080fd5b8063469048401461072957806347786d371461073c5780634ac88cb61461074f578063503c70aa1461076257806355489bb21461076b57600080fd5b8063313ce567116104435780633ec143d3116104075780633ec143d3146106a15780633f23bb73146106c25780633f90916a146106d55780634215d915146106e6578063432833a61461070d5780634603c0aa1461071657600080fd5b8063313ce5671461063a57806331807e4214610657578063355274ea1461066a57806336efd16f1461067b578063395093511461068e57600080fd5b80631a92f6c21161048a5780631a92f6c21461053c57806323b872dd1461057b5780632728f3331461058e5780632775d01c1461061457806330630da41461062757600080fd5b8063048bf085146104c757806306fdde03146104dc578063095ea7b3146104fa5780630cbf54c81461051d57806318160ddd14610534575b600080fd5b6104da6104d5366004615458565b610d40565b005b6104e4610d95565b6040516104f191906158bc565b60405180910390f35b61050d610508366004615607565b610e27565b60405190151581526020016104f1565b61052660fc5481565b6040519081526020016104f1565b609954610526565b6105637f000000000000000000000000000000000000000000000000000000000000000081565b6040516001600160a01b0390911681526020016104f1565b61050d6105893660046155c7565b610e3e565b60cf5460d0546105cf9161ffff8116916001600160681b03620100008304811692600160781b900416906001600160801b0380821691600160801b90041685565b6040805161ffff90961686526001600160681b03948516602087015293909216928401929092526001600160801b03918216606084015216608082015260a0016104f1565b6104da6106223660046156b3565b610eea565b6104da610635366004615458565b6111b6565b60cc54610100900460ff1660405160ff90911681526020016104f1565b6104da6106653660046156b3565b61124e565b60ce546001600160681b0316610526565b6104da6106893660046156e3565b6113ed565b61050d61069c366004615607565b61149c565b60fa546106af9061ffff1681565b60405161ffff90911681526020016104f1565b6105266106d0366004615458565b6114d8565b60d0546001600160801b0316610526565b6105637f000000000000000000000000000000000000000000000000000000000000000081565b61052660fd5481565b6104da610724366004615458565b61152b565b60d354610563906001600160a01b031681565b6104da61074a3660046156b3565b6115cd565b6104da61075d366004615458565b6116a8565b61052660fe5481565b6104da61077936600461568c565b6116f5565b6104da61178d565b6104da611960565b6105637f000000000000000000000000000000000000000000000000000000000000000081565b6107fb6107c3366004615458565b60c96020526000908152604090205461ffff8116906201000081046001600160681b031690600160781b90046001600160801b031683565b6040805161ffff90941684526001600160681b0390921660208401526001600160801b0316908201526060016104f1565b610526600081565b6104da611a7a565b6105637f000000000000000000000000000000000000000000000000000000000000000081565b610526600581565b6104da611ada565b6104da6108813660046156b3565b611b11565b610526610894366004615458565b6001600160a01b031660009081526097602052604090205490565b6104da611bd8565b6108ec6108c5366004615458565b60cb6020526000908152604090205461ffff8116906201000090046001600160801b031682565b6040805161ffff90931683526001600160801b039091166020830152016104f1565b6104da61091c3660046156b3565b611c0e565b61052660f85481565b6105266109383660046156b3565b60ca6020526000908152604090205481565b61052660d55481565b6105637f000000000000000000000000000000000000000000000000000000000000000081565b60d2546001600160a01b0316610563565b6065546001600160a01b0316610563565b6104e4611e49565b610526611e58565b6104da6109ba3660046156b3565b611e92565b60cc5460cd5460ce54610a0e9260ff808216936101008304909116926001600160a01b036201000090930483169282169166ffffffffffffff600160a01b90910416906001600160681b031686565b60408051961515875260ff90951660208701526001600160a01b03938416948601949094529116606084015266ffffffffffffff1660808301526001600160681b031660a082015260c0016104f1565b60d15460d254610a88916001600160a01b039081169190811690600160a01b900463ffffffff1683565b604080516001600160a01b03948516815293909216602084015263ffffffff16908201526060016104f1565b60d254600160a01b900463ffffffff16610526565b60d1546001600160a01b0316610563565b61050d610ae8366004615607565b611f8c565b6104da610afb3660046156b3565b612025565b6104da610b0e3660046156b3565b6120e2565b61052660d65481565b6104da6121d2565b61050d610b32366004615607565b61230b565b60d454610563906001600160a01b031681565b6105637f000000000000000000000000000000000000000000000000000000000000000081565b610526612318565b60f654610563906001600160a01b031681565b60d754610563906001600160a01b031681565b61052662093a8081565b6104da610bb73660046156b3565b612485565b6104da6124f2565b610526610bd2366004615458565b612832565b6104da610be53660046156b3565b61284f565b6104da610bf8366004615458565b612914565b61052660f95481565b6104da610c143660046156b3565b6129a3565b6105637f000000000000000000000000000000000000000000000000000000000000000081565b610526610c4e366004615490565b6001600160a01b03918216600090815260986020908152604080832093909416825291909152205490565b6104da610c873660046154c8565b612a10565b61052660fb5481565b6104da610ca3366004615458565b612c1c565b6104da612d0f565b6104da610cbe366004615458565b612f81565b610cd6610cd1366004615458565b613019565b604080519283526020830191909152016104f1565b6104da6130fc565b60f754610563906001600160a01b031681565b60ff54610563906001600160a01b031681565b61010054610563906001600160a01b031681565b6104da610d3b3660046156b3565b613151565b6065546001600160a01b03163314610d735760405162461bcd60e51b8152600401610d6a9061593e565b60405180910390fd5b60ff80546001600160a01b0319166001600160a01b0392909216919091179055565b6060609a8054610da490615c32565b80601f0160208091040260200160405190810160405280929190818152602001828054610dd090615c32565b8015610e1d5780601f10610df257610100808354040283529160200191610e1d565b820191906000526020600020905b815481529060010190602001808311610e0057829003601f168201915b5050505050905090565b6000610e3433848461322c565b5060015b92915050565b6000610e4b848484613351565b6001600160a01b038416600090815260986020908152604080832033845290915290205482811015610ed05760405162461bcd60e51b815260206004820152602860248201527f45524332303a207472616e7366657220616d6f756e74206578636565647320616044820152676c6c6f77616e636560c01b6064820152608401610d6a565b610edd853385840361322c565b60019150505b9392505050565b60026001541415610f0d5760405162461bcd60e51b8152600401610d6a90615994565b600260015533600090815260c96020526040902060cf5461ffff1682610f455760405162461bcd60e51b8152600401610d6a90615973565b815461ffff168114610f895760405162461bcd60e51b815260206004820152600d60248201526c125b9d985b1a59081c9bdd5b99609a1b6044820152606401610d6a565b81546201000090046001600160681b031683811015610fda5760405162461bcd60e51b815260206004820152600d60248201526c115e18d9595908185b5bdd5b9d609a1b6044820152606401610d6a565b610fe48185613521565b83546001600160681b0391909116620100000262010000600160781b031990911617835560d05461101e906001600160801b031685613521565b60d080546001600160801b0319166001600160801b0392909216919091179055604080518581526020810184905233917fab2daf3c146ca6416cbccd2a86ed2ba995e171ef6319df14a38aef01403a9c96910160405180910390a260cc5460d754604051633fd5c25d60e11b815260048101879052620100009092046001600160a01b039081166024840152166044820152600560648201819052608482015273__$284794d205a530c1a37f8f90001a836887$__90637fab84ba9060a40160006040518083038186803b1580156110f557600080fd5b505af4158015611109573d6000803e3d6000fd5b505060cc54604051634cc8d10160e11b815273__$284794d205a530c1a37f8f90001a836887$__9350639991a202925061117c917f000000000000000000000000000000000000000000000000000000000000000091620100009091046001600160a01b03169033908a90600401615798565b60006040518083038186803b15801561119457600080fd5b505af41580156111a8573d6000803e3d6000fd5b505060018055505050505050565b6065546001600160a01b031633146111e05760405162461bcd60e51b8152600401610d6a9061593e565b6001600160a01b03811661122c5760405162461bcd60e51b815260206004820152601360248201527210b732bba9ba3934b5b2a9b2b632b1ba34b7b760691b6044820152606401610d6a565b60f780546001600160a01b0319166001600160a01b0392909216919091179055565b600260015414156112715760405162461bcd60e51b8152600401610d6a90615994565b6002600155806112935760405162461bcd60e51b8152600401610d6a90615973565b60d754604051630c279a2f60e41b81526001600160a01b0390911660048201526000906113c19083906113bc9073__$284794d205a530c1a37f8f90001a836887$__9063c279a2f0906024015b60206040518083038186803b1580156112f857600080fd5b505af415801561130c573d6000803e3d6000fd5b505050506040513d601f19601f8201168201806040525081019061133091906156cb565b60d760009054906101000a90046001600160a01b03166001600160a01b03166399530b066040518163ffffffff1660e01b815260040160206040518083038186803b15801561137e57600080fd5b505afa158015611392573d6000803e3d6000fd5b505050506040513d601f19601f820116820180604052508101906113b691906156cb565b9061352d565b613539565b90506113cd8133613573565b60d7546113e5906001600160a01b03163330856137ff565b505060018055565b600260015414156114105760405162461bcd60e51b8152600401610d6a90615994565b6002600155816114325760405162461bcd60e51b8152600401610d6a90615973565b6001600160a01b0381166114745760405162461bcd60e51b815260206004820152600960248201526810b1b932b234ba37b960b91b6044820152606401610d6a565b61147e8282613573565b60cc546113e5906201000090046001600160a01b03163330856137ff565b3360008181526098602090815260408083206001600160a01b03871684529091528120549091610e349185906114d3908690615aad565b61322c565b60cc5460009060ff610100909104168161150e6114f460995490565b6114fc612318565b60d0546001600160801b031685613859565b905061152361151c85612832565b8284613899565b949350505050565b6065546001600160a01b031633146115555760405162461bcd60e51b8152600401610d6a9061593e565b6001600160a01b0381166115ab5760405162461bcd60e51b815260206004820152601860248201527f216e65774f7074696f6e735072656d69756d50726963657200000000000000006044820152606401610d6a565b60f680546001600160a01b0319166001600160a01b0392909216919091179055565b6065546001600160a01b031633146115f75760405162461bcd60e51b8152600401610d6a9061593e565b600081116116315760405162461bcd60e51b81526020600482015260076024820152660216e65774361760cc1b6044820152606401610d6a565b61163a816138fb565b60ce54604080516001600160681b039092168252602082018390527f5f86edbb9d92228a9edc3f0ebc0f001bda1ea345ac7335e0eeef3504b31d1a1c910160405180910390a160ce80546cffffffffffffffffffffffffff19166001600160681b0392909216919091179055565b6065546001600160a01b031633146116d25760405162461bcd60e51b8152600401610d6a9061593e565b61010080546001600160a01b0319166001600160a01b0392909216919091179055565b6065546001600160a01b0316331461171f5760405162461bcd60e51b8152600401610d6a9061593e565b6000816001600160801b0316116117675760405162461bcd60e51b815260206004820152600c60248201526b21737472696b65507269636560a01b6044820152606401610d6a565b6001600160801b031660fb5560cf5460fa805461ffff191661ffff909216919091179055565b60d4546001600160a01b031633146117b75760405162461bcd60e51b8152600401610d6a906158cf565b600260015414156117da5760405162461bcd60e51b8152600401610d6a90615994565b600260015560d2546040516358ffbb3d60e01b81526001600160a01b037f000000000000000000000000000000000000000000000000000000000000000081166004830152909116602482015260009073__$c4f279750f4bbb575ac7775e752dc00849$__906358ffbb3d9060440160206040518083038186803b15801561186157600080fd5b505af4158015611875573d6000803e3d6000fd5b505050506040513d601f19601f8201168201806040525081019061189991906156cb565b60cf549091506118b8906201000090046001600160681b031682613521565b60cf805462010000600160781b031916620100006001600160681b0393909316830217905560cc5460d754604051634c03c9a760e01b8152929091046001600160a01b03908116600484015216602482015273__$284794d205a530c1a37f8f90001a836887$__90634c03c9a79060440160006040518083038186803b15801561194157600080fd5b505af4158015611955573d6000803e3d6000fd5b505060018055505050565b60d4546001600160a01b0316331461198a5760405162461bcd60e51b8152600401610d6a906158cf565b600260015414156119ad5760405162461bcd60e51b8152600401610d6a90615994565b60026001556101005460fd54604051632288d73760e11b81526001600160a01b0392831660048201527f00000000000000000000000000000000000000000000000000000000000000009092166024830152604482015273__$c4f279750f4bbb575ac7775e752dc00849$__90634511ae6e9060640160206040518083038186803b158015611a3b57600080fd5b505af4158015611a4f573d6000803e3d6000fd5b505050506040513d601f19601f82011682018060405250810190611a7391906156cb565b5060018055565b60d4546001600160a01b03163314611aa45760405162461bcd60e51b8152600401610d6a906158cf565b60026001541415611ac75760405162461bcd60e51b8152600401610d6a90615994565b6002600155611ad4613945565b60018055565b60026001541415611afd5760405162461bcd60e51b8152600401610d6a90615994565b6002600181905550611ad460006001613b4d565b6065546001600160a01b03163314611b3b5760405162461bcd60e51b8152600401610d6a9061593e565b611b49620f42406064615bd0565b8110611b975760405162461bcd60e51b815260206004820152601760248201527f496e76616c696420706572666f726d616e6365206665650000000000000000006044820152606401610d6a565b60d55460408051918252602082018390527f24867dfb6fcb9970a07be21024956524abe7a1837faa903ff0e99aaa40cf893e910160405180910390a160d555565b6065546001600160a01b03163314611c025760405162461bcd60e51b8152600401610d6a9061593e565b611c0c6000613cfc565b565b60026001541415611c315760405162461bcd60e51b8152600401610d6a90615994565b600260015580611c705760405162461bcd60e51b815260206004820152600a602482015269216e756d53686172657360b01b6044820152606401610d6a565b33600090815260c960205260409020546201000090046001600160681b0316151580611cba575033600090815260c96020526040902054600160781b90046001600160801b031615155b15611ccb57611ccb60006001613b4d565b60cf5433600081815260cb60209081526040918290208054835187815261ffff96871693810184905292959194911685149290917f0c53c82ad07e2d592d88ece3b066777dd60f1118e2a081b380efc4358f0d9e2a910160405180910390a281546201000090046001600160801b031660008215611d5457611d4d8287613d4e565b9050611db7565b8115611d965760405162461bcd60e51b81526020600482015260116024820152704578697374696e6720776974686472617760781b6044820152606401610d6a565b5033600090815260cb60205260409020805461ffff191661ffff8616179055845b611dc081613d5a565b33600090815260cb6020526040812080546001600160801b03808516620100000262010000600160901b03199092169190911790915560d054611e0c91600160801b9091041688613d4e565b9050611e1781613d5a565b60d080546001600160801b03808416600160801b029116179055611e3c333089613351565b5050600180555050505050565b6060609b8054610da490615c32565b6000611e8d611e6660995490565b611e6e612318565b60d05460cc546001600160801b0390911690610100900460ff16613859565b905090565b60026001541415611eb55760405162461bcd60e51b8152600401610d6a90615994565b600260015580611ef45760405162461bcd60e51b815260206004820152600a602482015269216e756d526f756e647360b01b6044820152606401610d6a565b60cf5461ffff1660005b82811015611f83576000611f128284615aad565b600081815260ca602052604090205490915015611f5f5760405162461bcd60e51b815260206004820152600b60248201526a125b9a5d1a585b1a5e995960aa1b6044820152606401610d6a565b600090815260ca602052604090206001905580611f7b81615c67565b915050611efe565b50506001805550565b3360009081526098602090815260408083206001600160a01b03861684529091528120548281101561200e5760405162461bcd60e51b815260206004820152602560248201527f45524332303a2064656372656173656420616c6c6f77616e63652062656c6f77604482015264207a65726f60d81b6064820152608401610d6a565b61201b338585840361322c565b5060019392505050565b6065546001600160a01b0316331461204f5760405162461bcd60e51b8152600401610d6a9061593e565b61012c8110156120a15760405162461bcd60e51b815260206004820152601860248201527f496e76616c69642061756374696f6e206475726174696f6e00000000000000006044820152606401610d6a565b60fc5460408051918252602082018390527f5acd982e2240ed224a69aa03dab039d3797c108e4b5f288cd7dd6ca181b275f3910160405180910390a160fc55565b600260015414156121055760405162461bcd60e51b8152600401610d6a90615994565b600260015560ff546001600160a01b03168061212057600080fd5b6000821161212d57600080fd5b3360009081526097602052604090205482811015612159576121596121528483613521565b6000613b4d565b612164333085613351565b61216f30838561322c565b6040516383df674760e01b815260048101849052336024820152600060448201526001600160a01b038316906383df674790606401600060405180830381600087803b1580156121be57600080fd5b505af1158015611e3c573d6000803e3d6000fd5b6065546001600160a01b031633146121fc5760405162461bcd60e51b8152600401610d6a9061593e565b60d7546040516370a0823160e01b81523060048201526001600160a01b0390911690819063e63697c89082906370a082319060240160206040518083038186803b15801561224957600080fd5b505afa15801561225d573d6000803e3d6000fd5b505050506040513d601f19601f8201168201806040525081019061228191906156cb565b6040516001600160e01b031960e084901b168152600481019190915230602482015260056044820152606401602060405180830381600087803b1580156122c757600080fd5b505af11580156122db573d6000803e3d6000fd5b505050506040513d601f19601f820116820180604052508101906122ff91906156cb565b50612308613da4565b50565b6000610e34338484613351565b60d7546040516370a0823160e01b8152306004820152600091611e8d916123e4916001600160a01b0316906370a082319060240160206040518083038186803b15801561236457600080fd5b505afa158015612378573d6000803e3d6000fd5b505050506040513d601f19601f8201168201806040525081019061239c91906156cb565b60d754604051630c279a2f60e41b81526001600160a01b0390911660048201526113bc9073__$284794d205a530c1a37f8f90001a836887$__9063c279a2f0906024016112e0565b60cc546040516370a0823160e01b815230600482015261247f916201000090046001600160a01b0316906370a082319060240160206040518083038186803b15801561242f57600080fd5b505afa158015612443573d6000803e3d6000fd5b505050506040513d601f19601f8201168201806040525081019061246791906156cb565b60cf546201000090046001600160681b031690613d4e565b90613d4e565b600260015414156124a85760405162461bcd60e51b8152600401610d6a90615994565b6002600155806124ca5760405162461bcd60e51b8152600401610d6a90615973565b6124d48133613573565b60cc54611a73906201000090046001600160a01b03163330846137ff565b60d4546001600160a01b0316331461251c5760405162461bcd60e51b8152600401610d6a906158cf565b6002600154141561253f5760405162461bcd60e51b8152600401610d6a90615994565b600260018190555060008061255560fe54613eb8565b60fe819055909250905060006126566125d561258861258161271061257b87600561352d565b90614358565b8590613d4e565b60d754604051630c279a2f60e41b81526001600160a01b0390911660048201526125d09073__$284794d205a530c1a37f8f90001a836887$__9063c279a2f0906024016112e0565b614364565b60d7546040516370a0823160e01b81523060048201526001600160a01b03909116906370a082319060240160206040518083038186803b15801561261857600080fd5b505afa15801561262c573d6000803e3d6000fd5b505050506040513d601f19601f8201168201806040525081019061265091906156cb565b90613521565b9050336001600160a01b0316836001600160a01b03167f045c558fdce4714c5816d53820d27420f4cd860892df203fe636384d8d19aa018360405161269d91815260200190565b60405180910390a3604051632904c23960e01b815260009073__$c4f279750f4bbb575ac7775e752dc00849$__90632904c23990612725907f0000000000000000000000000000000000000000000000000000000000000000907f00000000000000000000000000000000000000000000000000000000000000009089908890600401615798565b60206040518083038186803b15801561273d57600080fd5b505af4158015612751573d6000803e3d6000fd5b505050506040513d601f19601f8201168201806040525081019061277591906156cb565b61010054604051636648c73d60e11b81526001600160a01b039182166004820152908616602482015260448101829052611388606482015290915073__$c4f279750f4bbb575ac7775e752dc00849$__9063cc918e7a9060840160206040518083038186803b1580156127e757600080fd5b505af41580156127fb573d6000803e3d6000fd5b505050506040513d601f19601f8201168201806040525081019061281f91906156cb565b50612828613945565b5050600180555050565b600080600061284084613019565b90925090506115238282613d4e565b60d4546001600160a01b031633146128795760405162461bcd60e51b8152600401610d6a906158cf565b6000811180156128945750612890600a6064615bd0565b8111155b6128d35760405162461bcd60e51b815260206004820152601060248201526f125b9d985b1a5908191a5cd8dbdd5b9d60821b6044820152606401610d6a565b60f85460408051918252602082018390527f4cd657fde404967d63a338fb06c5c98751a9df57dfae6dc333a432faf8a5f656910160405180910390a160f855565b6065546001600160a01b0316331461293e5760405162461bcd60e51b8152600401610d6a9061593e565b6001600160a01b0381166129815760405162461bcd60e51b815260206004820152600a60248201526910b732bba5b2b2b832b960b11b6044820152606401610d6a565b60d480546001600160a01b0319166001600160a01b0392909216919091179055565b600260015414156129c65760405162461bcd60e51b8152600401610d6a90615994565b600260015580612a055760405162461bcd60e51b815260206004820152600a602482015269216e756d53686172657360b01b6044820152606401610d6a565b611a73816000613b4d565b600054610100900460ff1680612a29575060005460ff16155b612a455760405162461bcd60e51b8152600401610d6a906158f0565b600054610100900460ff16158015612a67576000805461ffff19166101011790555b612a778d8d8d8d8d8d8d89614387565b6001600160a01b038616612ac65760405162461bcd60e51b815260206004820152601660248201527510afb7b83a34b7b739a83932b6b4bab6a83934b1b2b960511b6044820152606401610d6a565b6001600160a01b038516612b105760405162461bcd60e51b815260206004820152601160248201527010afb9ba3934b5b2a9b2b632b1ba34b7b760791b6044820152606401610d6a565b60008463ffffffff16118015612b365750612b2d600a6064615bd0565b8463ffffffff16105b612b765760405162461bcd60e51b81526020600482015260116024820152700857dc1c995b5a5d5b511a5cd8dbdd5b9d607a1b6044820152606401610d6a565b61012c831015612bbc5760405162461bcd60e51b815260206004820152601160248201527010afb0bab1ba34b7b7223ab930ba34b7b760791b6044820152606401610d6a565b60f680546001600160a01b038089166001600160a01b03199283161790925560f780549288169290911691909117905563ffffffff841660f85560fc8390558015612c0d576000805461ff00191690555b50505050505050505050505050565b6065546001600160a01b03163314612c465760405162461bcd60e51b8152600401610d6a9061593e565b6001600160a01b038116612c8f5760405162461bcd60e51b815260206004820152601060248201526f085b995dd19959549958da5c1a595b9d60821b6044820152606401610d6a565b60d3546001600160a01b0382811691161415612ced5760405162461bcd60e51b815260206004820152601860248201527f4d757374206265206e657720666565526563697069656e7400000000000000006044820152606401610d6a565b60d380546001600160a01b0319166001600160a01b0392909216919091179055565b60026001541415612d325760405162461bcd60e51b8152600401610d6a90615994565b600260015560d25460408051610120810182526001600160a01b037f0000000000000000000000000000000000000000000000000000000000000000811682527f00000000000000000000000000000000000000000000000000000000000000008116602083015292831681830181905260006060830181905260fa5461ffff16608084015260fb5460a084015260f754851660c084015260f654851660e084015260f85461010084015260d75493516001621eaadd60e11b0319815291949293909283928392839273__$284794d205a530c1a37f8f90001a836887$__9263ffc2aa4692612e2d928a9260cc9260cf9216906004016159cb565b60806040518083038186803b158015612e4557600080fd5b505af4158015612e59573d6000803e3d6000fd5b505050506040513d601f19601f82011682018060405250810190612e7d9190615632565b93509350935093507fa217999b1c125c2a996f712c5f26a28addad7167bd8a67d5bd5b2a751148abb08282604051612ebf929190918252602082015260400190565b60405180910390a1612ed0836138fb565b6001600160681b03831660f95560d180546001600160a01b0319166001600160a01b0386161790556000612f044282613d4e565b905063ffffffff811115612f5a5760405162461bcd60e51b815260206004820152601860248201527f4f766572666c6f77206e6578744f7074696f6e526561647900000000000000006044820152606401610d6a565b60d2805463ffffffff60a01b1916600160a01b63ffffffff841602179055611e3c87614557565b6065546001600160a01b03163314612fab5760405162461bcd60e51b8152600401610d6a9061593e565b6001600160a01b0381166130105760405162461bcd60e51b815260206004820152602660248201527f4f776e61626c653a206e6577206f776e657220697320746865207a65726f206160448201526564647265737360d01b6064820152608401610d6a565b61230881613cfc565b6001600160a01b038116600090815260c9602090815260408083208151606081018352905461ffff81168083526201000082046001600160681b031694830194909452600160781b90046001600160801b03169181019190915282916001111561309b575050506001600160a01b031660009081526097602052604081205491565b60cf54815161ffff908116600090815260ca602052604081205460cc5491936130d193869391169190610100900460ff166146cd565b90506130f2856001600160a01b031660009081526097602052604090205490565b9590945092505050565b6002600154141561311f5760405162461bcd60e51b8152600401610d6a90615994565b6002600155600061312e61473e565b60fe5490915061313e9082613521565b6001600160801b031660fe555060018055565b6065546001600160a01b0316331461317b5760405162461bcd60e51b8152600401610d6a9061593e565b613189620f42406064615bd0565b81106131d05760405162461bcd60e51b8152602060048201526016602482015275496e76616c6964206d616e6167656d656e742066656560501b6044820152606401610d6a565b60006131e763031ba30961257b84620f424061352d565b60d65460408051918252602082018590529192507f4e874b007ab14f7e263baefd44951834c8266f4f224d1092e49e9c254354cc54910160405180910390a160d65550565b6001600160a01b03831661328e5760405162461bcd60e51b8152602060048201526024808201527f45524332303a20617070726f76652066726f6d20746865207a65726f206164646044820152637265737360e01b6064820152608401610d6a565b6001600160a01b0382166132ef5760405162461bcd60e51b815260206004820152602260248201527f45524332303a20617070726f766520746f20746865207a65726f206164647265604482015261737360f01b6064820152608401610d6a565b6001600160a01b0383811660008181526098602090815260408083209487168084529482529182902085905590518481527f8c5be1e5ebec7d5bd14f71427d1e84f3dd0314c0f7b2291e5b200ac8c7c3b92591015b60405180910390a3505050565b6001600160a01b0383166133b55760405162461bcd60e51b815260206004820152602560248201527f45524332303a207472616e736665722066726f6d20746865207a65726f206164604482015264647265737360d81b6064820152608401610d6a565b6001600160a01b0382166134175760405162461bcd60e51b815260206004820152602360248201527f45524332303a207472616e7366657220746f20746865207a65726f206164647260448201526265737360e81b6064820152608401610d6a565b6001600160a01b0383166000908152609760205260409020548181101561348f5760405162461bcd60e51b815260206004820152602660248201527f45524332303a207472616e7366657220616d6f756e7420657863656564732062604482015265616c616e636560d01b6064820152608401610d6a565b6001600160a01b038085166000908152609760205260408082208585039055918516815290812080548492906134c6908490615aad565b92505081905550826001600160a01b0316846001600160a01b03167fddf252ad1be2c89b69c2b068fc378daa952ba7f163c4a11628f55a4df523b3ef8460405161351291815260200190565b60405180910390a35b50505050565b6000610ee38284615bef565b6000610ee38284615bd0565b6000670de0b6b3a76400006135696135518585614a32565b6135646002670de0b6b3a7640000615ac5565b614a99565b610ee39190615ac5565b60cf5461ffff1660006135888461247f612318565b60ce549091506001600160681b03168111156135d35760405162461bcd60e51b815260206004820152600a6024820152690457863656564206361760b41b6044820152606401610d6a565b60cd54600160a01b900466ffffffffffffff1681101561362c5760405162461bcd60e51b8152602060048201526014602482015273496e73756666696369656e742062616c616e636560601b6044820152606401610d6a565b60408051858152602081018490526001600160a01b038516917f90890809c654f11d6e72a28fa60149770a0d11ec6c92319d6ceb2bb0a4ea1a15910160405180910390a26001600160a01b038316600090815260c9602090815260408083208151606081018352905461ffff81168083526201000082046001600160681b031683860152600160781b9091046001600160801b031682840152845260ca90925282205460cc549192916136eb918491879190610100900460ff166146cd565b8251909150869061ffff1685141561371c576020830151600090613718906001600160681b031689613d4e565b9150505b613725816138fb565b6040805160608101825261ffff80881682526001600160681b0380851660208085019182526001600160801b038089168688019081526001600160a01b038e16600090815260c990935296822095518654935197518216600160781b02600160781b600160f81b03199890951662010000026effffffffffffffffffffffffffffff1990941695169490941791909117949094161790915560d0546137cb911689613d4e565b90506137d681613d5a565b60d080546001600160801b0319166001600160801b039290921691909117905550505050505050565b604080516001600160a01b0385811660248301528416604482015260648082018490528251808303909101815260849091019091526020810180516001600160e01b03166323b872dd60e01b17905261351b908590614aee565b60008061386783600a615b28565b905060008611613877578061388f565b61388f8661257b6138888888613521565b849061352d565b9695505050505050565b6000600183116138e35760405162461bcd60e51b8152602060048201526015602482015274496e76616c6964206173736574506572536861726560581b6044820152606401610d6a565b6115236138f183600a615b28565b61257b868661352d565b6001600160681b038111156123085760405162461bcd60e51b815260206004820152601060248201526f13dd995c999b1bddc81d5a5b9d0c4c0d60821b6044820152606401610d6a565b6040805160c081018252600080825260208201819052818301819052606082018190526080820181905260a0820181905260d25460f65460f85460d754955163188b696960e31b81526001600160a01b03938416600482018190529284166024820152604481019190915291909416606482015291929173__$284794d205a530c1a37f8f90001a836887$__9063c45b4b489060840160206040518083038186803b1580156139f357600080fd5b505af4158015613a07573d6000803e3d6000fd5b505050506040513d601f19601f82011682018060405250810190613a2b91906156cb565b6001600160a01b0383811685527f000000000000000000000000000000000000000000000000000000000000000081166020860190815260cc546201000081048316604080890191825261010090920460ff16606089019081526080890186815260fc5460a08b019081529351633baf17fd60e21b81528a5187166004820152945186166024860152915190941660448401529251606483015291516084820152905160a482015290915073__$c4f279750f4bbb575ac7775e752dc00849$__9063eebc5ff49060c40160206040518083038186803b158015613b0d57600080fd5b505af4158015613b21573d6000803e3d6000fd5b505050506040513d601f19601f82011682018060405250810190613b4591906156cb565b60fd55505050565b33600090815260c9602090815260408083208151606081018352905461ffff8082168084526201000083046001600160681b031684870152600160781b9092046001600160801b03168385015260cf5491865260ca9094529184205460cc5491949290931692613bc89185918591610100900460ff166146cd565b905083613bd55784613bd7565b805b945084613be5575050505050565b80851115613c295760405162461bcd60e51b81526020600482015260116024820152704578636565647320617661696c61626c6560781b6044820152606401610d6a565b825161ffff16821115613c565733600090815260c960205260409020805462010000600160781b03191690555b613c5f85613d5a565b613c698186613521565b33600081815260c960205260409081902080546001600160801b0394909416600160781b02600160781b600160f81b0319909416939093179092558451915190917fe5b754fb1abb7f01b499791d0b820ae3b6af3424ac1c59768edb53f4ec31a92991613ce29189825261ffff16602082015260400190565b60405180910390a2613cf5303387613351565b5050505050565b606580546001600160a01b038381166001600160a01b0319831681179093556040519116919082907f8be0079c531659141344cd1fd0a4f28419497f9722a3daafe3b4186f6b6457e090600090a35050565b6000610ee38284615aad565b6001600160801b038111156123085760405162461bcd60e51b815260206004820152601060248201526f09eeccae4ccd8deee40ead2dce86264760831b6044820152606401610d6a565b60cc54604051630e177dc760e41b81526001600160a01b0362010000909204821660048201526000917f0000000000000000000000000000000000000000000000000000000000000000169063e177dc7090602401602060405180830381600087803b158015613e1357600080fd5b505af1158015613e27573d6000803e3d6000fd5b505050506040513d601f19601f82011682018060405250810190613e4b9190615474565b90506001600160a01b038116613e965760405162461bcd60e51b815260206004820152601060248201526f10b1b7b63630ba32b930b62a37b5b2b760811b6044820152606401610d6a565b60d780546001600160a01b0319166001600160a01b0392909216919091179055565b60d2546000908190600160a01b900463ffffffff16421015613f055760405162461bcd60e51b815260206004820152600660248201526521726561647960d01b6044820152606401610d6a565b60d1546001600160a01b031680613f4c5760405162461bcd60e51b815260206004820152600b60248201526a10b732bc3a27b83a34b7b760a91b6044820152606401610d6a565b60008060008060008073__$c4f279750f4bbb575ac7775e752dc00849$__63633c142660cf6040518060c0016040528060cc60000160019054906101000a900460ff1660ff168152602001613f9f612318565b8152602001613fad60995490565b81526020018e815260200160d554815260200160d6548152506040518363ffffffff1660e01b8152600401614029929190600060e08201905083825282516020830152602083015160408301526040830151606083015260608301516080830152608083015160a083015260a083015160c08301529392505050565b60c06040518083038186803b15801561404157600080fd5b505af4158015614055573d6000803e3d6000fd5b505050506040513d601f19601f820116820180604052508101906140799190615707565b9550955095509550955095508660d160010160006101000a8154816001600160a01b0302191690836001600160a01b03160217905550600060d160000160006101000a8154816001600160a01b0302191690836001600160a01b03160217905550600060cf60000160009054906101000a900461ffff1661ffff1690508460ca600083815260200190815260200160002081905550600060d360009054906101000a90046001600160a01b03169050806001600160a01b03167f0a242f7ecaf711036ca770774ceffae28e60ef042ac113ddd187f2631db0c006858585604051614176939291909283526020830191909152604082015260600190565b60405180910390a260d080546001600160801b0319169055614199826001615aad565b60cf805461ffff191661ffff929092169190911790556141b8886138fb565b60cf805462010000600160781b031916620100006001600160681b038b16021790556141e43086614bc0565b60d75460cc54604051634c03c9a760e01b81526001600160a01b0362010000909204821660048201529116602482018190529073__$284794d205a530c1a37f8f90001a836887$__90634c03c9a79060440160006040518083038186803b15801561424e57600080fd5b505af4158015614262573d6000803e3d6000fd5b5050505060008411156143455760cc54604051631474764f60e11b81526001600160a01b037f0000000000000000000000000000000000000000000000000000000000000000811660048301526201000090920482166024820152828216604482015290831660648201526084810185905273__$284794d205a530c1a37f8f90001a836887$__906328e8ec9e9060a40160206040518083038186803b15801561430b57600080fd5b505af415801561431f573d6000803e3d6000fd5b505050506040513d601f19601f8201168201806040525081019061434391906156cb565b505b50979b959a509498505050505050505050565b6000610ee38284615ac5565b60008161356961437c85670de0b6b3a7640000614a32565b613564600286615ac5565b600054610100900460ff16806143a0575060005460ff16155b6143bc5760405162461bcd60e51b8152600401610d6a906158f0565b600054610100900460ff161580156143de576000805461ffff19166101011790555b60405163c72733f760e01b815273__$c4f279750f4bbb575ac7775e752dc00849$__9063c72733f790614423908c908c908c908b908d908c908c908c906004016157c2565b60006040518083038186803b15801561443b57600080fd5b505af415801561444f573d6000803e3d6000fd5b5050505061445b614c9f565b6144658484614d12565b61446d614d91565b61447689612f81565b60d480546001600160a01b03808b166001600160a01b03199283161790925560d38054928a169290911691909117905560d58590556144c063031ba30961257b88620f424061352d565b60d6558160cc6144d08282615cd5565b9050506144db613da4565b60006144e5612318565b90506144f0816138fb565b60cf805461ffff196001600160681b03909316600160781b02929092167fffffffff00000000000000000000000000ffffffffffffffffffffffffff0000909216919091176001179055801561454c576000805461ff00191690555b505050505050505050565b60cf546201000090046001600160681b03166001600160a01b038216156145a35760cf80546cffffffffffffffffffffffffff60781b1916600160781b6001600160681b038416021790555b60cf805462010000600160781b031916905560d280546001600160a01b03191690556001600160a01b038216156146c957604051636c6fe87f60e11b81526001600160a01b037f000000000000000000000000000000000000000000000000000000000000000016600482015260009073__$c4f279750f4bbb575ac7775e752dc00849$__9063d8dfd0fe9060240160206040518083038186803b15801561464a57600080fd5b505af415801561465e573d6000803e3d6000fd5b505050506040513d601f19601f8201168201806040525081019061468291906156cb565b9050336001600160a01b0316836001600160a01b03167f7e830f7c1771deb1bdb35c4a7e6051bbac32b376f7f4e4976b8618b0b11997f78360405161334491815260200190565b5050565b835160009061ffff16158015906146e85750845161ffff1684115b1561472a57600061470786602001516001600160681b03168585614df8565b6040870151909150614722906001600160801b031682613d4e565b915050611523565b50505050604001516001600160801b031690565b33600090815260cb6020526040812080546001600160801b03620100008204169061ffff16816147a05760405162461bcd60e51b815260206004820152600d60248201526c139bdd081a5b9a5d1a585d1959609a1b6044820152606401610d6a565b60cf5461ffff1681106147e85760405162461bcd60e51b815260206004820152601060248201526f149bdd5b99081b9bdd0818db1bdcd95960821b6044820152606401610d6a565b33600090815260cb60205260409020805462010000600160901b031916905560d05461482490600160801b90046001600160801b031683613521565b60d080546001600160801b03928316600160801b029216919091179055600081815260ca602052604081205460cc5461486791859160ff61010090910416613899565b604080518281526020810186905291925033917ff279e6a1f5e320cca91135676d9cb6e44ca8a08c0b88342bcdb1144f6511b568910160405180910390a26148af3084614e5b565b60cc5460d754604051633fd5c25d60e11b815260048101849052620100009092046001600160a01b039081166024840152166044820152600560648201819052608482015273__$284794d205a530c1a37f8f90001a836887$__90637fab84ba9060a40160006040518083038186803b15801561492b57600080fd5b505af415801561493f573d6000803e3d6000fd5b50505050600081116149855760405162461bcd60e51b815260206004820152600f60248201526e085dda5d1a191c985dd05b5bdd5b9d608a1b6044820152606401610d6a565b60cc54604051634cc8d10160e11b815273__$284794d205a530c1a37f8f90001a836887$__91639991a202916149f4917f000000000000000000000000000000000000000000000000000000000000000091620100009091046001600160a01b03169033908790600401615798565b60006040518083038186803b158015614a0c57600080fd5b505af4158015614a20573d6000803e3d6000fd5b5092979650505050505050565b505050565b6000811580614a5657508282614a488183615bd0565b9250614a549083615ac5565b145b610e385760405162461bcd60e51b815260206004820152601460248201527364732d6d6174682d6d756c2d6f766572666c6f7760601b6044820152606401610d6a565b600082614aa68382615aad565b9150811015610e385760405162461bcd60e51b815260206004820152601460248201527364732d6d6174682d6164642d6f766572666c6f7760601b6044820152606401610d6a565b6000614b43826040518060400160405280602081526020017f5361666545524332303a206c6f772d6c6576656c2063616c6c206661696c6564815250856001600160a01b0316614fa99092919063ffffffff16565b805190915015614a2d5780806020019051810190614b619190615670565b614a2d5760405162461bcd60e51b815260206004820152602a60248201527f5361666545524332303a204552433230206f7065726174696f6e20646964206e6044820152691bdd081cdd58d8d9595960b21b6064820152608401610d6a565b6001600160a01b038216614c165760405162461bcd60e51b815260206004820152601f60248201527f45524332303a206d696e7420746f20746865207a65726f2061646472657373006044820152606401610d6a565b8060996000828254614c289190615aad565b90915550506001600160a01b03821660009081526097602052604081208054839290614c55908490615aad565b90915550506040518181526001600160a01b038316906000907fddf252ad1be2c89b69c2b068fc378daa952ba7f163c4a11628f55a4df523b3ef9060200160405180910390a35050565b600054610100900460ff1680614cb8575060005460ff16155b614cd45760405162461bcd60e51b8152600401610d6a906158f0565b600054610100900460ff16158015614cf6576000805461ffff19166101011790555b614cfe614fb8565b8015612308576000805461ff001916905550565b600054610100900460ff1680614d2b575060005460ff16155b614d475760405162461bcd60e51b8152600401610d6a906158f0565b600054610100900460ff16158015614d69576000805461ffff19166101011790555b614d71615027565b614d7b8383615091565b8015614a2d576000805461ff0019169055505050565b600054610100900460ff1680614daa575060005460ff16155b614dc65760405162461bcd60e51b8152600401610d6a906158f0565b600054610100900460ff16158015614de8576000805461ffff19166101011790555b614df0615027565b614cfe615126565b600060018311614e425760405162461bcd60e51b8152602060048201526015602482015274496e76616c6964206173736574506572536861726560581b6044820152606401610d6a565b6115238361257b614e5485600a615b28565b879061352d565b6001600160a01b038216614ebb5760405162461bcd60e51b815260206004820152602160248201527f45524332303a206275726e2066726f6d20746865207a65726f206164647265736044820152607360f81b6064820152608401610d6a565b6001600160a01b03821660009081526097602052604090205481811015614f2f5760405162461bcd60e51b815260206004820152602260248201527f45524332303a206275726e20616d6f756e7420657863656564732062616c616e604482015261636560f01b6064820152608401610d6a565b6001600160a01b0383166000908152609760205260408120838303905560998054849290614f5e908490615bef565b90915550506040518281526000906001600160a01b038516907fddf252ad1be2c89b69c2b068fc378daa952ba7f163c4a11628f55a4df523b3ef9060200160405180910390a3505050565b60606115238484600085615186565b600054610100900460ff1680614fd1575060005460ff16155b614fed5760405162461bcd60e51b8152600401610d6a906158f0565b600054610100900460ff1615801561500f576000805461ffff19166101011790555b600180558015612308576000805461ff001916905550565b600054610100900460ff1680615040575060005460ff16155b61505c5760405162461bcd60e51b8152600401610d6a906158f0565b600054610100900460ff16158015614cfe576000805461ffff19166101011790558015612308576000805461ff001916905550565b600054610100900460ff16806150aa575060005460ff16155b6150c65760405162461bcd60e51b8152600401610d6a906158f0565b600054610100900460ff161580156150e8576000805461ffff19166101011790555b82516150fb90609a9060208601906152e7565b50815161510f90609b9060208501906152e7565b508015614a2d576000805461ff0019169055505050565b600054610100900460ff168061513f575060005460ff16155b61515b5760405162461bcd60e51b8152600401610d6a906158f0565b600054610100900460ff1615801561517d576000805461ffff19166101011790555b614cfe33613cfc565b6060824710156151e75760405162461bcd60e51b815260206004820152602660248201527f416464726573733a20696e73756666696369656e742062616c616e636520666f6044820152651c8818d85b1b60d21b6064820152608401610d6a565b843b6152355760405162461bcd60e51b815260206004820152601d60248201527f416464726573733a2063616c6c20746f206e6f6e2d636f6e74726163740000006044820152606401610d6a565b600080866001600160a01b03168587604051615251919061577c565b60006040518083038185875af1925050503d806000811461528e576040519150601f19603f3d011682016040523d82523d6000602084013e615293565b606091505b50915091506152a38282866152ae565b979650505050505050565b606083156152bd575081610ee3565b8251156152cd5782518084602001fd5b8160405162461bcd60e51b8152600401610d6a91906158bc565b8280546152f390615c32565b90600052602060002090601f016020900481019282615315576000855561535b565b82601f1061532e57805160ff191683800117855561535b565b8280016001018555821561535b579182015b8281111561535b578251825591602001919060010190615340565b5061536792915061536b565b5090565b5b80821115615367576000815560010161536c565b803561538b81615de6565b919050565b600082601f8301126153a0578081fd5b813567ffffffffffffffff808211156153bb576153bb615c98565b604051601f8301601f19908116603f011681019082821181831017156153e3576153e3615c98565b816040528381528660208588010111156153fb578485fd5b8360208701602083013792830160200193909352509392505050565b600060c08284031215615428578081fd5b50919050565b803561538b81615e09565b803563ffffffff8116811461538b57600080fd5b803561538b81615e1e565b600060208284031215615469578081fd5b8135610ee381615de6565b600060208284031215615485578081fd5b8151610ee381615de6565b600080604083850312156154a2578081fd5b82356154ad81615de6565b915060208301356154bd81615de6565b809150509250929050565b6000806000806000806000806000806000806102208d8f0312156154ea578788fd5b6154f38d615380565b9b5061550160208e01615380565b9a5061550f60408e01615380565b995060608d0135985060808d0135975067ffffffffffffffff60a08e01351115615537578687fd5b6155478e60a08f01358f01615390565b965067ffffffffffffffff60c08e01351115615561578586fd5b6155718e60c08f01358f01615390565b955061557f60e08e01615380565b945061558e6101008e01615380565b935061559d6101208e01615439565b92506101408d013591506155b58e6101608f01615417565b90509295989b509295989b509295989b565b6000806000606084860312156155db578283fd5b83356155e681615de6565b925060208401356155f681615de6565b929592945050506040919091013590565b60008060408385031215615619578182fd5b823561562481615de6565b946020939093013593505050565b60008060008060808587031215615647578384fd5b845161565281615de6565b60208601516040870151606090970151919890975090945092505050565b600060208284031215615681578081fd5b8151610ee381615dfb565b60006020828403121561569d578081fd5b81356001600160801b0381168114610ee3578182fd5b6000602082840312156156c4578081fd5b5035919050565b6000602082840312156156dc578081fd5b5051919050565b600080604083850312156156f5578182fd5b8235915060208301356154bd81615de6565b60008060008060008060c0878903121561571f578384fd5b865195506020870151945060408701519350606087015192506080870151915060a087015190509295509295509295565b60008151808452615768816020860160208601615c06565b601f01601f19169290920160200192915050565b6000825161578e818460208701615c06565b9190910192915050565b6001600160a01b039485168152928416602084015292166040820152606081019190915260800190565b60006101a060018060a01b03808c168452808b166020850152808a1660408501528860608501528760808501528160a085015261580182850188615750565b915083820360c08501526158158287615750565b92508435915061582482615dfb565b90151560e084015260208401359061583b82615e33565b60ff82166101008501526040850135915061585582615de6565b1661012083015261586860608401615380565b6001600160a01b03166101408301526158836080840161544d565b66ffffffffffffff1661016083015261589e60a0840161542e565b6001600160681b038116610180840152509998505050505050505050565b602081526000610ee36020830184615750565b60208082526007908201526610b5b2b2b832b960c91b604082015260600190565b6020808252602e908201527f496e697469616c697a61626c653a20636f6e747261637420697320616c72656160408201526d191e481a5b9a5d1a585b1a5e995960921b606082015260800190565b6020808252818101527f4f776e61626c653a2063616c6c6572206973206e6f7420746865206f776e6572604082015260600190565b60208082526007908201526608585b5bdd5b9d60ca1b604082015260600190565b6020808252601f908201527f5265656e7472616e637947756172643a207265656e7472616e742063616c6c00604082015260600190565b84516001600160a01b031681526020808601516101808301916159f8908401826001600160a01b03169052565b506040860151615a1360408401826001600160a01b03169052565b50606086015160608301526080860151615a33608084018261ffff169052565b5060a086015160a083015260c0860151615a5860c08401826001600160a01b03169052565b5060e0860151615a7360e08401826001600160a01b03169052565b506101008087015181840152508461012083015283610140830152615aa46101608301846001600160a01b03169052565b95945050505050565b60008219821115615ac057615ac0615c82565b500190565b600082615ae057634e487b7160e01b81526012600452602481fd5b500490565b600181815b80851115615b20578160001904821115615b0657615b06615c82565b80851615615b1357918102915b93841c9390800290615aea565b509250929050565b6000610ee38383600082615b3e57506001610e38565b81615b4b57506000610e38565b8160018114615b615760028114615b6b57615b87565b6001915050610e38565b60ff841115615b7c57615b7c615c82565b50506001821b610e38565b5060208310610133831016604e8410600b8410161715615baa575081810a610e38565b615bb48383615ae5565b8060001904821115615bc857615bc8615c82565b029392505050565b6000816000190483118215151615615bea57615bea615c82565b500290565b600082821015615c0157615c01615c82565b500390565b60005b83811015615c21578181015183820152602001615c09565b8381111561351b5750506000910152565b600181811c90821680615c4657607f821691505b6020821081141561542857634e487b7160e01b600052602260045260246000fd5b6000600019821415615c7b57615c7b615c82565b5060010190565b634e487b7160e01b600052601160045260246000fd5b634e487b7160e01b600052604160045260246000fd5b60008135610e3881615de6565b60008135610e3881615e09565b60008135610e3881615e1e565b8135615ce081615dfb565b815460ff19811691151560ff1691821783556020840135615d0081615e33565b61ff008160081b169050808361ffff198416171784556040850135615d2481615de6565b6001600160b01b0319929092169092179190911760109190911b62010000600160b01b031617815560018101615d7c615d5f60608501615cae565b82546001600160a01b0319166001600160a01b0391909116178255565b615db5615d8b60808501615cc8565b82805466ffffffffffffff60a01b191660a09290921b66ffffffffffffff60a01b16919091179055565b506146c9615dc560a08401615cbb565b600283016001600160681b0382166001600160681b03198254161781555050565b6001600160a01b038116811461230857600080fd5b801515811461230857600080fd5b6001600160681b038116811461230857600080fd5b66ffffffffffffff8116811461230857600080fd5b60ff8116811461230857600080fdfea26469706673582212206fb9edc3d35223e44ca910a25c06eff4683db43239378ad67657f71ac06a15e164736f6c63430008040033",
  "libraries": {
    "VaultLifecycle": "0xE6342509ae61b63F015f268953FCA0dE71e61128",
    "VaultLifecycleYearn": "0x0b5CEd3Da03BF02851cF887E7b90B2A6130Ac96B"
  },
  "devdoc": {
    "kind": "dev",
    "methods": {
      "accountVaultBalance(address)": {
        "params": {
          "account": "is the address to lookup balance for"
        },
        "returns": {
          "_0": "the amount of `asset` custodied by the vault for the user"
        }
      },
      "allowance(address,address)": {
        "details": "See {IERC20-allowance}."
      },
      "approve(address,uint256)": {
        "details": "See {IERC20-approve}. Requirements: - `spender` cannot be the zero address."
      },
      "balanceOf(address)": {
        "details": "See {IERC20-balanceOf}."
      },
      "constructor": {
        "params": {
          "_gammaController": "is the contract address for opyn actions",
          "_gnosisEasyAuction": "is the contract address that facilitates gnosis auctions",
          "_marginPool": "is the contract address for providing collateral to opyn",
          "_oTokenFactory": "is the contract address for minting new opyn option types (strikes, asset, expiry)",
          "_usdc": "is the USDC contract",
          "_weth": "is the Wrapped Ether contract",
          "_yearnRegistry": "is the address of the yearn registry from token to vault token"
        }
      },
      "decreaseAllowance(address,uint256)": {
        "details": "Atomically decreases the allowance granted to `spender` by the caller. This is an alternative to {approve} that can be used as a mitigation for problems described in {IERC20-approve}. Emits an {Approval} event indicating the updated allowance. Requirements: - `spender` cannot be the zero address. - `spender` must have allowance for the caller of at least `subtractedValue`."
      },
      "deposit(uint256)": {
        "params": {
          "amount": "is the amount of `asset` to deposit"
        }
      },
      "depositFor(uint256,address)": {
        "params": {
          "amount": "is the amount of `asset` to deposit",
          "creditor": "is the address that can claim/withdraw deposited amount"
        }
      },
      "depositYieldToken(uint256)": {
        "params": {
          "amount": "is the amount of `collateralToken` to deposit"
        }
      },
      "increaseAllowance(address,uint256)": {
        "details": "Atomically increases the allowance granted to `spender` by the caller. This is an alternative to {approve} that can be used as a mitigation for problems described in {IERC20-approve}. Emits an {Approval} event indicating the updated allowance. Requirements: - `spender` cannot be the zero address."
      },
      "initialize(address,address,address,uint256,uint256,string,string,address,address,uint32,uint256,(bool,uint8,address,address,uint56,uint104))": {
        "params": {
          "_auctionDuration": "is the duration of the gnosis auction",
          "_feeRecipient": "is the address to recieve vault performance and management fees",
          "_keeper": "is the keeper of the vault with medium permissions (weekly actions)",
          "_managementFee": "is the management fee pct.",
          "_optionsPremiumPricer": "is the address of the contract with the black-scholes premium calculation logic",
          "_owner": "is the owner of the vault with critical permissions",
          "_performanceFee": "is the perfomance fee pct.",
          "_premiumDiscount": "is the vault's discount applied to the premium",
          "_strikeSelection": "is the address of the contract with strike selection logic",
          "_tokenName": "is the name of the token",
          "_tokenSymbol": "is the symbol of the token",
          "_vaultParams": "is the struct with vault general data"
        }
      },
      "initiateWithdraw(uint256)": {
        "params": {
          "numShares": "is the number of shares to withdraw"
        }
      },
      "name()": {
        "details": "Returns the name of the token."
      },
      "owner()": {
        "details": "Returns the address of the current owner."
      },
      "redeem(uint256)": {
        "params": {
          "numShares": "is the number of shares to redeem"
        }
      },
      "renounceOwnership()": {
        "details": "Leaves the contract without owner. It will not be possible to call `onlyOwner` functions anymore. Can only be called by the current owner. NOTE: Renouncing ownership will leave the contract without an owner, thereby removing any functionality that is only available to the owner."
      },
      "setAuctionDuration(uint256)": {
        "params": {
          "newAuctionDuration": "is the auction duration"
        }
      },
      "setCap(uint256)": {
        "params": {
          "newCap": "is the new cap for deposits"
        }
      },
      "setFeeRecipient(address)": {
        "params": {
          "newFeeRecipient": "is the address of the new fee recipient"
        }
      },
      "setLiquidityGauge(address)": {
        "params": {
          "newLiquidityGauge": "is the address of the new liquidityGauge contract"
        }
      },
      "setManagementFee(uint256)": {
        "params": {
          "newManagementFee": "is the management fee (6 decimals). ex: 2 * 10 ** 6 = 2%"
        }
      },
      "setNewKeeper(address)": {
        "params": {
          "newKeeper": "is the address of the new keeper"
        }
      },
      "setOptionsPremiumPricer(address)": {
        "params": {
          "newOptionsPremiumPricer": "is the address of the new strike selection contract"
        }
      },
      "setOptionsPurchaseQueue(address)": {
        "params": {
          "newOptionsPurchaseQueue": "is the address of the new optionsPurchaseQueue contract"
        }
      },
      "setPerformanceFee(uint256)": {
        "params": {
          "newPerformanceFee": "is the performance fee (6 decimals). ex: 20 * 10 ** 6 = 20%"
        }
      },
      "setPremiumDiscount(uint256)": {
        "params": {
          "newPremiumDiscount": "is the premium discount"
        }
      },
      "setStrikePrice(uint128)": {
        "params": {
          "strikePrice": "is the strike price of the new oTokens (decimals = 8)"
        }
      },
      "setStrikeSelection(address)": {
        "params": {
          "newStrikeSelection": "is the address of the new strike selection contract"
        }
      },
      "shareBalances(address)": {
        "params": {
          "account": "is the account to lookup share balance for"
        },
        "returns": {
          "heldByAccount": "is the shares held by account",
          "heldByVault": "is the shares held on the vault (unredeemedShares)"
        }
      },
      "shares(address)": {
        "params": {
          "account": "is the account to lookup share balance for"
        },
        "returns": {
          "_0": "the share balance"
        }
      },
      "stake(uint256)": {
        "params": {
          "numShares": "is the number of shares to stake"
        }
      },
      "symbol()": {
        "details": "Returns the symbol of the token, usually a shorter version of the name."
      },
      "totalBalance()": {
        "returns": {
          "_0": "total balance of the vault, including the amounts locked in third party protocols"
        }
      },
      "totalSupply()": {
        "details": "See {IERC20-totalSupply}."
      },
      "transfer(address,uint256)": {
        "details": "See {IERC20-transfer}. Requirements: - `recipient` cannot be the zero address. - the caller must have a balance of at least `amount`."
      },
      "transferFrom(address,address,uint256)": {
        "details": "See {IERC20-transferFrom}. Emits an {Approval} event indicating the updated allowance. This is not required by the EIP. See the note at the beginning of {ERC20}. Requirements: - `sender` and `recipient` cannot be the zero address. - `sender` must have a balance of at least `amount`. - the caller must have allowance for ``sender``'s tokens of at least `amount`."
      },
      "transferOwnership(address)": {
        "details": "Transfers ownership of the contract to a new account (`newOwner`). Can only be called by the current owner."
      },
      "withdrawInstantly(uint256)": {
        "params": {
          "amount": "is the amount to withdraw"
        }
      }
    },
    "version": 1
  },
  "userdoc": {
    "kind": "user",
    "methods": {
      "DELAY()": {
        "notice": "15 minute timelock between commitAndClose and rollToNexOption."
      },
      "OTOKEN_FACTORY()": {
        "notice": "oTokenFactory is the factory contract used to spawn otokens. Used to lookup otokens."
      },
      "PERIOD()": {
        "notice": "7 day period between each options sale."
      },
      "USDC()": {
        "notice": "USDC 0xA0b86991c6218b36c1d19D4a2e9Eb0cE3606eB48"
      },
      "WETH()": {
        "notice": "WETH9 0xC02aaA39b223FE8D0A0e5C4F27eAD9083C756Cc2"
      },
      "YEARN_WITHDRAWAL_BUFFER()": {
        "notice": "Withdrawal buffer for yearn vault"
      },
      "YEARN_WITHDRAWAL_SLIPPAGE()": {
        "notice": "Slippage incurred during withdrawal"
      },
      "accountVaultBalance(address)": {
        "notice": "Returns the asset balance held on the vault for the account"
      },
      "burnRemainingOTokens()": {
        "notice": "Burn the remaining oTokens left over from gnosis auction."
      },
      "collateralToken()": {
        "notice": "Yearn vault contract"
      },
      "commitAndClose()": {
        "notice": "Sets the next option the vault will be shorting, and closes the existing short.         This allows all the users to withdraw if the next option is malicious."
      },
      "completeWithdraw()": {
        "notice": "Completes a scheduled withdrawal from a past round. Uses finalized pps for the round"
      },
      "constructor": {
        "notice": "Initializes the contract with immutable variables"
      },
      "decimals()": {
        "notice": "Returns the token decimals"
      },
      "deposit(uint256)": {
        "notice": "Deposits the `asset` from msg.sender."
      },
      "depositFor(uint256,address)": {
        "notice": "Deposits the `asset` from msg.sender added to `creditor`'s deposit.Used for vault -> vault deposits on the user's behalf"
      },
      "depositReceipts(address)": {
        "notice": "Stores the user's pending deposit for the round"
      },
      "depositYieldToken(uint256)": {
        "notice": "Deposits the `collateralToken` into the contract and mint vault shares."
      },
      "feeRecipient()": {
        "notice": "Fee recipient for the performance and management fees"
      },
      "initialize(address,address,address,uint256,uint256,string,string,address,address,uint32,uint256,(bool,uint8,address,address,uint56,uint104))": {
        "notice": "Initializes the OptionVault contract with storage variables."
      },
      "initiateWithdraw(uint256)": {
        "notice": "Initiates a withdrawal that can be processed once the round completes"
      },
      "keeper()": {
        "notice": "role in charge of weekly vault operations such as rollToNextOption and burnRemainingOTokens"
      },
      "managementFee()": {
        "notice": "Management fee charged on entire AUM in rollToNextOption. Only charged when there is no loss."
      },
      "maxRedeem()": {
        "notice": "Redeems the entire unredeemedShares balance that is owed to the account"
      },
      "optionState()": {
        "notice": "Vault's state of the options sold and the timelocked option"
      },
      "performanceFee()": {
        "notice": "Performance fee charged on premiums earned in rollToNextOption. Only charged when there is no loss."
      },
      "pricePerShare()": {
        "notice": "The price of a unit of share denominated in the `asset`"
      },
      "redeem(uint256)": {
        "notice": "Redeems shares that are owed to the account"
      },
      "rollToNextOption()": {
        "notice": "Rolls the vault's funds into a new short position."
      },
      "roundPricePerShare(uint256)": {
        "notice": "On every round's close, the pricePerShare value of an rTHETA token is stored This is used to determine the number of shares to be returned to a user with their DepositReceipt.depositAmount"
      },
      "sellOptionsToQueue()": {
        "notice": "Sell the allocated options to the purchase queue post auction settlement"
      },
      "setAuctionDuration(uint256)": {
        "notice": "Sets the new auction duration"
      },
      "setCap(uint256)": {
        "notice": "Sets a new cap for deposits"
      },
      "setFeeRecipient(address)": {
        "notice": "Sets the new fee recipient"
      },
      "setLiquidityGauge(address)": {
        "notice": "Sets the new liquidityGauge contract for this vault"
      },
      "setManagementFee(uint256)": {
        "notice": "Sets the management fee for the vault"
      },
      "setNewKeeper(address)": {
        "notice": "Sets the new keeper"
      },
      "setOptionsPremiumPricer(address)": {
        "notice": "Sets the new options premium pricer contract"
      },
      "setOptionsPurchaseQueue(address)": {
        "notice": "Sets the new optionsPurchaseQueue contract for this vault"
      },
      "setPerformanceFee(uint256)": {
        "notice": "Sets the performance fee for the vault"
      },
      "setPremiumDiscount(uint256)": {
        "notice": "Sets the new discount on premiums for options we are selling"
      },
      "setStrikePrice(uint128)": {
        "notice": "Optionality to set strike price manually"
      },
      "setStrikeSelection(address)": {
        "notice": "Sets the new strike selection contract"
      },
      "shareBalances(address)": {
        "notice": "Getter for returning the account's share balance split between account and vault holdings"
      },
      "shares(address)": {
        "notice": "Getter for returning the account's share balance including unredeemed shares"
      },
      "stake(uint256)": {
        "notice": "Stakes a users vault shares"
      },
      "startAuction()": {
        "notice": "Initiate the gnosis auction."
      },
      "totalBalance()": {
        "notice": "Returns the vault's total balance, including the amounts locked into a short position"
      },
      "vaultParams()": {
        "notice": "Vault's parameters like cap, decimals"
      },
      "vaultState()": {
        "notice": "Vault's lifecycle state like round and locked amounts"
      },
      "withdrawInstantly(uint256)": {
        "notice": "Withdraws the assets on the vault using the outstanding `DepositReceipt.amount`"
      },
      "withdrawals(address)": {
        "notice": "Stores pending user withdrawals"
      }
    },
    "notice": "UPGRADEABILITY: Since we use the upgradeable proxy pattern, we must observe the inheritance chain closely. Any changes/appends in storage variable needs to happen in RibbonThetaYearnVaultStorage. RibbonThetaYearnVault should not inherit from any other contract aside from RibbonVault, RibbonThetaYearnVaultStorage",
    "version": 1
  },
  "storageLayout": {
    "storage": [
      {
        "astId": 176,
        "contract": "contracts/vaults/YearnVaults/RibbonThetaYearnVault.sol:RibbonThetaYearnVault",
        "label": "_initialized",
        "offset": 0,
        "slot": "0",
        "type": "t_bool"
      },
      {
        "astId": 179,
        "contract": "contracts/vaults/YearnVaults/RibbonThetaYearnVault.sol:RibbonThetaYearnVault",
        "label": "_initializing",
        "offset": 1,
        "slot": "0",
        "type": "t_bool"
      },
      {
        "astId": 230,
        "contract": "contracts/vaults/YearnVaults/RibbonThetaYearnVault.sol:RibbonThetaYearnVault",
        "label": "_status",
        "offset": 0,
        "slot": "1",
        "type": "t_uint256"
      },
      {
        "astId": 273,
        "contract": "contracts/vaults/YearnVaults/RibbonThetaYearnVault.sol:RibbonThetaYearnVault",
        "label": "__gap",
        "offset": 0,
        "slot": "2",
        "type": "t_array(t_uint256)49_storage"
      },
      {
        "astId": 993,
        "contract": "contracts/vaults/YearnVaults/RibbonThetaYearnVault.sol:RibbonThetaYearnVault",
        "label": "__gap",
        "offset": 0,
        "slot": "51",
        "type": "t_array(t_uint256)50_storage"
      },
      {
        "astId": 56,
        "contract": "contracts/vaults/YearnVaults/RibbonThetaYearnVault.sol:RibbonThetaYearnVault",
        "label": "_owner",
        "offset": 0,
        "slot": "101",
        "type": "t_address"
      },
      {
        "astId": 169,
        "contract": "contracts/vaults/YearnVaults/RibbonThetaYearnVault.sol:RibbonThetaYearnVault",
        "label": "__gap",
        "offset": 0,
        "slot": "102",
        "type": "t_array(t_uint256)49_storage"
      },
      {
        "astId": 293,
        "contract": "contracts/vaults/YearnVaults/RibbonThetaYearnVault.sol:RibbonThetaYearnVault",
        "label": "_balances",
        "offset": 0,
        "slot": "151",
        "type": "t_mapping(t_address,t_uint256)"
      },
      {
        "astId": 299,
        "contract": "contracts/vaults/YearnVaults/RibbonThetaYearnVault.sol:RibbonThetaYearnVault",
        "label": "_allowances",
        "offset": 0,
        "slot": "152",
        "type": "t_mapping(t_address,t_mapping(t_address,t_uint256))"
      },
      {
        "astId": 301,
        "contract": "contracts/vaults/YearnVaults/RibbonThetaYearnVault.sol:RibbonThetaYearnVault",
        "label": "_totalSupply",
        "offset": 0,
        "slot": "153",
        "type": "t_uint256"
      },
      {
        "astId": 303,
        "contract": "contracts/vaults/YearnVaults/RibbonThetaYearnVault.sol:RibbonThetaYearnVault",
        "label": "_name",
        "offset": 0,
        "slot": "154",
        "type": "t_string_storage"
      },
      {
        "astId": 305,
        "contract": "contracts/vaults/YearnVaults/RibbonThetaYearnVault.sol:RibbonThetaYearnVault",
        "label": "_symbol",
        "offset": 0,
        "slot": "155",
        "type": "t_string_storage"
      },
      {
        "astId": 846,
        "contract": "contracts/vaults/YearnVaults/RibbonThetaYearnVault.sol:RibbonThetaYearnVault",
        "label": "__gap",
        "offset": 0,
        "slot": "156",
        "type": "t_array(t_uint256)45_storage"
      },
      {
        "astId": 27995,
        "contract": "contracts/vaults/YearnVaults/RibbonThetaYearnVault.sol:RibbonThetaYearnVault",
        "label": "depositReceipts",
        "offset": 0,
        "slot": "201",
        "type": "t_mapping(t_address,t_struct(DepositReceipt)6510_storage)"
      },
      {
        "astId": 28000,
        "contract": "contracts/vaults/YearnVaults/RibbonThetaYearnVault.sol:RibbonThetaYearnVault",
        "label": "roundPricePerShare",
        "offset": 0,
        "slot": "202",
        "type": "t_mapping(t_uint256,t_uint256)"
      },
      {
        "astId": 28006,
        "contract": "contracts/vaults/YearnVaults/RibbonThetaYearnVault.sol:RibbonThetaYearnVault",
        "label": "withdrawals",
        "offset": 0,
        "slot": "203",
        "type": "t_mapping(t_address,t_struct(Withdrawal)6515_storage)"
      },
      {
        "astId": 28010,
        "contract": "contracts/vaults/YearnVaults/RibbonThetaYearnVault.sol:RibbonThetaYearnVault",
        "label": "vaultParams",
        "offset": 0,
        "slot": "204",
        "type": "t_struct(VaultParams)6485_storage"
      },
      {
        "astId": 28014,
        "contract": "contracts/vaults/YearnVaults/RibbonThetaYearnVault.sol:RibbonThetaYearnVault",
        "label": "vaultState",
        "offset": 0,
        "slot": "207",
        "type": "t_struct(VaultState)6503_storage"
      },
      {
        "astId": 28018,
        "contract": "contracts/vaults/YearnVaults/RibbonThetaYearnVault.sol:RibbonThetaYearnVault",
        "label": "optionState",
        "offset": 0,
        "slot": "209",
        "type": "t_struct(OptionState)6492_storage"
      },
      {
        "astId": 28021,
        "contract": "contracts/vaults/YearnVaults/RibbonThetaYearnVault.sol:RibbonThetaYearnVault",
        "label": "feeRecipient",
        "offset": 0,
        "slot": "211",
        "type": "t_address"
      },
      {
        "astId": 28024,
        "contract": "contracts/vaults/YearnVaults/RibbonThetaYearnVault.sol:RibbonThetaYearnVault",
        "label": "keeper",
        "offset": 0,
        "slot": "212",
        "type": "t_address"
      },
      {
        "astId": 28027,
        "contract": "contracts/vaults/YearnVaults/RibbonThetaYearnVault.sol:RibbonThetaYearnVault",
        "label": "performanceFee",
        "offset": 0,
        "slot": "213",
        "type": "t_uint256"
      },
      {
        "astId": 28030,
        "contract": "contracts/vaults/YearnVaults/RibbonThetaYearnVault.sol:RibbonThetaYearnVault",
        "label": "managementFee",
        "offset": 0,
        "slot": "214",
        "type": "t_uint256"
      },
      {
        "astId": 28034,
        "contract": "contracts/vaults/YearnVaults/RibbonThetaYearnVault.sol:RibbonThetaYearnVault",
        "label": "collateralToken",
        "offset": 0,
        "slot": "215",
        "type": "t_contract(IYearnVault)4457"
      },
      {
        "astId": 28038,
        "contract": "contracts/vaults/YearnVaults/RibbonThetaYearnVault.sol:RibbonThetaYearnVault",
        "label": "____gap",
        "offset": 0,
        "slot": "216",
        "type": "t_array(t_uint256)30_storage"
      },
      {
        "astId": 12514,
        "contract": "contracts/vaults/YearnVaults/RibbonThetaYearnVault.sol:RibbonThetaYearnVault",
        "label": "optionsPremiumPricer",
        "offset": 0,
        "slot": "246",
        "type": "t_address"
      },
      {
        "astId": 12516,
        "contract": "contracts/vaults/YearnVaults/RibbonThetaYearnVault.sol:RibbonThetaYearnVault",
        "label": "strikeSelection",
        "offset": 0,
        "slot": "247",
        "type": "t_address"
      },
      {
        "astId": 12518,
        "contract": "contracts/vaults/YearnVaults/RibbonThetaYearnVault.sol:RibbonThetaYearnVault",
        "label": "premiumDiscount",
        "offset": 0,
        "slot": "248",
        "type": "t_uint256"
      },
      {
        "astId": 12520,
        "contract": "contracts/vaults/YearnVaults/RibbonThetaYearnVault.sol:RibbonThetaYearnVault",
        "label": "currentOtokenPremium",
        "offset": 0,
        "slot": "249",
        "type": "t_uint256"
      },
      {
        "astId": 12522,
        "contract": "contracts/vaults/YearnVaults/RibbonThetaYearnVault.sol:RibbonThetaYearnVault",
        "label": "lastStrikeOverrideRound",
        "offset": 0,
        "slot": "250",
        "type": "t_uint16"
      },
      {
        "astId": 12524,
        "contract": "contracts/vaults/YearnVaults/RibbonThetaYearnVault.sol:RibbonThetaYearnVault",
        "label": "overriddenStrikePrice",
        "offset": 0,
        "slot": "251",
        "type": "t_uint256"
      },
      {
        "astId": 12526,
        "contract": "contracts/vaults/YearnVaults/RibbonThetaYearnVault.sol:RibbonThetaYearnVault",
        "label": "auctionDuration",
        "offset": 0,
        "slot": "252",
        "type": "t_uint256"
      },
      {
        "astId": 12528,
        "contract": "contracts/vaults/YearnVaults/RibbonThetaYearnVault.sol:RibbonThetaYearnVault",
        "label": "optionAuctionID",
        "offset": 0,
        "slot": "253",
        "type": "t_uint256"
      },
      {
        "astId": 12531,
        "contract": "contracts/vaults/YearnVaults/RibbonThetaYearnVault.sol:RibbonThetaYearnVault",
        "label": "lastQueuedWithdrawAmount",
        "offset": 0,
        "slot": "254",
        "type": "t_uint256"
      },
      {
        "astId": 12534,
        "contract": "contracts/vaults/YearnVaults/RibbonThetaYearnVault.sol:RibbonThetaYearnVault",
        "label": "liquidityGauge",
        "offset": 0,
        "slot": "255",
        "type": "t_address"
      },
      {
        "astId": 12537,
        "contract": "contracts/vaults/YearnVaults/RibbonThetaYearnVault.sol:RibbonThetaYearnVault",
        "label": "optionsPurchaseQueue",
        "offset": 0,
        "slot": "256",
        "type": "t_address"
      }
    ],
    "types": {
      "t_address": {
        "encoding": "inplace",
        "label": "address",
        "numberOfBytes": "20"
      },
      "t_array(t_uint256)30_storage": {
        "base": "t_uint256",
        "encoding": "inplace",
        "label": "uint256[30]",
        "numberOfBytes": "960"
      },
      "t_array(t_uint256)45_storage": {
        "base": "t_uint256",
        "encoding": "inplace",
        "label": "uint256[45]",
        "numberOfBytes": "1440"
      },
      "t_array(t_uint256)49_storage": {
        "base": "t_uint256",
        "encoding": "inplace",
        "label": "uint256[49]",
        "numberOfBytes": "1568"
      },
      "t_array(t_uint256)50_storage": {
        "base": "t_uint256",
        "encoding": "inplace",
        "label": "uint256[50]",
        "numberOfBytes": "1600"
      },
      "t_bool": {
        "encoding": "inplace",
        "label": "bool",
        "numberOfBytes": "1"
      },
      "t_contract(IYearnVault)4457": {
        "encoding": "inplace",
        "label": "contract IYearnVault",
        "numberOfBytes": "20"
      },
      "t_mapping(t_address,t_mapping(t_address,t_uint256))": {
        "encoding": "mapping",
        "key": "t_address",
        "label": "mapping(address => mapping(address => uint256))",
        "numberOfBytes": "32",
        "value": "t_mapping(t_address,t_uint256)"
      },
      "t_mapping(t_address,t_struct(DepositReceipt)6510_storage)": {
        "encoding": "mapping",
        "key": "t_address",
        "label": "mapping(address => struct Vault.DepositReceipt)",
        "numberOfBytes": "32",
        "value": "t_struct(DepositReceipt)6510_storage"
      },
      "t_mapping(t_address,t_struct(Withdrawal)6515_storage)": {
        "encoding": "mapping",
        "key": "t_address",
        "label": "mapping(address => struct Vault.Withdrawal)",
        "numberOfBytes": "32",
        "value": "t_struct(Withdrawal)6515_storage"
      },
      "t_mapping(t_address,t_uint256)": {
        "encoding": "mapping",
        "key": "t_address",
        "label": "mapping(address => uint256)",
        "numberOfBytes": "32",
        "value": "t_uint256"
      },
      "t_mapping(t_uint256,t_uint256)": {
        "encoding": "mapping",
        "key": "t_uint256",
        "label": "mapping(uint256 => uint256)",
        "numberOfBytes": "32",
        "value": "t_uint256"
      },
      "t_string_storage": {
        "encoding": "bytes",
        "label": "string",
        "numberOfBytes": "32"
      },
      "t_struct(DepositReceipt)6510_storage": {
        "encoding": "inplace",
        "label": "struct Vault.DepositReceipt",
        "members": [
          {
            "astId": 6505,
            "contract": "contracts/vaults/YearnVaults/RibbonThetaYearnVault.sol:RibbonThetaYearnVault",
            "label": "round",
            "offset": 0,
            "slot": "0",
            "type": "t_uint16"
          },
          {
            "astId": 6507,
            "contract": "contracts/vaults/YearnVaults/RibbonThetaYearnVault.sol:RibbonThetaYearnVault",
            "label": "amount",
            "offset": 2,
            "slot": "0",
            "type": "t_uint104"
          },
          {
            "astId": 6509,
            "contract": "contracts/vaults/YearnVaults/RibbonThetaYearnVault.sol:RibbonThetaYearnVault",
            "label": "unredeemedShares",
            "offset": 15,
            "slot": "0",
            "type": "t_uint128"
          }
        ],
        "numberOfBytes": "32"
      },
      "t_struct(OptionState)6492_storage": {
        "encoding": "inplace",
        "label": "struct Vault.OptionState",
        "members": [
          {
            "astId": 6487,
            "contract": "contracts/vaults/YearnVaults/RibbonThetaYearnVault.sol:RibbonThetaYearnVault",
            "label": "nextOption",
            "offset": 0,
            "slot": "0",
            "type": "t_address"
          },
          {
            "astId": 6489,
            "contract": "contracts/vaults/YearnVaults/RibbonThetaYearnVault.sol:RibbonThetaYearnVault",
            "label": "currentOption",
            "offset": 0,
            "slot": "1",
            "type": "t_address"
          },
          {
            "astId": 6491,
            "contract": "contracts/vaults/YearnVaults/RibbonThetaYearnVault.sol:RibbonThetaYearnVault",
            "label": "nextOptionReadyAt",
            "offset": 20,
            "slot": "1",
            "type": "t_uint32"
          }
        ],
        "numberOfBytes": "64"
      },
      "t_struct(VaultParams)6485_storage": {
        "encoding": "inplace",
        "label": "struct Vault.VaultParams",
        "members": [
          {
            "astId": 6474,
            "contract": "contracts/vaults/YearnVaults/RibbonThetaYearnVault.sol:RibbonThetaYearnVault",
            "label": "isPut",
            "offset": 0,
            "slot": "0",
            "type": "t_bool"
          },
          {
            "astId": 6476,
            "contract": "contracts/vaults/YearnVaults/RibbonThetaYearnVault.sol:RibbonThetaYearnVault",
            "label": "decimals",
            "offset": 1,
            "slot": "0",
            "type": "t_uint8"
          },
          {
            "astId": 6478,
            "contract": "contracts/vaults/YearnVaults/RibbonThetaYearnVault.sol:RibbonThetaYearnVault",
            "label": "asset",
            "offset": 2,
            "slot": "0",
            "type": "t_address"
          },
          {
            "astId": 6480,
            "contract": "contracts/vaults/YearnVaults/RibbonThetaYearnVault.sol:RibbonThetaYearnVault",
            "label": "underlying",
            "offset": 0,
            "slot": "1",
            "type": "t_address"
          },
          {
            "astId": 6482,
            "contract": "contracts/vaults/YearnVaults/RibbonThetaYearnVault.sol:RibbonThetaYearnVault",
            "label": "minimumSupply",
            "offset": 20,
            "slot": "1",
            "type": "t_uint56"
          },
          {
            "astId": 6484,
            "contract": "contracts/vaults/YearnVaults/RibbonThetaYearnVault.sol:RibbonThetaYearnVault",
            "label": "cap",
            "offset": 0,
            "slot": "2",
            "type": "t_uint104"
          }
        ],
        "numberOfBytes": "96"
      },
      "t_struct(VaultState)6503_storage": {
        "encoding": "inplace",
        "label": "struct Vault.VaultState",
        "members": [
          {
            "astId": 6494,
            "contract": "contracts/vaults/YearnVaults/RibbonThetaYearnVault.sol:RibbonThetaYearnVault",
            "label": "round",
            "offset": 0,
            "slot": "0",
            "type": "t_uint16"
          },
          {
            "astId": 6496,
            "contract": "contracts/vaults/YearnVaults/RibbonThetaYearnVault.sol:RibbonThetaYearnVault",
            "label": "lockedAmount",
            "offset": 2,
            "slot": "0",
            "type": "t_uint104"
          },
          {
            "astId": 6498,
            "contract": "contracts/vaults/YearnVaults/RibbonThetaYearnVault.sol:RibbonThetaYearnVault",
            "label": "lastLockedAmount",
            "offset": 15,
            "slot": "0",
            "type": "t_uint104"
          },
          {
            "astId": 6500,
            "contract": "contracts/vaults/YearnVaults/RibbonThetaYearnVault.sol:RibbonThetaYearnVault",
            "label": "totalPending",
            "offset": 0,
            "slot": "1",
            "type": "t_uint128"
          },
          {
            "astId": 6502,
            "contract": "contracts/vaults/YearnVaults/RibbonThetaYearnVault.sol:RibbonThetaYearnVault",
            "label": "queuedWithdrawShares",
            "offset": 16,
            "slot": "1",
            "type": "t_uint128"
          }
        ],
        "numberOfBytes": "64"
      },
      "t_struct(Withdrawal)6515_storage": {
        "encoding": "inplace",
        "label": "struct Vault.Withdrawal",
        "members": [
          {
            "astId": 6512,
            "contract": "contracts/vaults/YearnVaults/RibbonThetaYearnVault.sol:RibbonThetaYearnVault",
            "label": "round",
            "offset": 0,
            "slot": "0",
            "type": "t_uint16"
          },
          {
            "astId": 6514,
            "contract": "contracts/vaults/YearnVaults/RibbonThetaYearnVault.sol:RibbonThetaYearnVault",
            "label": "shares",
            "offset": 2,
            "slot": "0",
            "type": "t_uint128"
          }
        ],
        "numberOfBytes": "32"
      },
      "t_uint104": {
        "encoding": "inplace",
        "label": "uint104",
        "numberOfBytes": "13"
      },
      "t_uint128": {
        "encoding": "inplace",
        "label": "uint128",
        "numberOfBytes": "16"
      },
      "t_uint16": {
        "encoding": "inplace",
        "label": "uint16",
        "numberOfBytes": "2"
      },
      "t_uint256": {
        "encoding": "inplace",
        "label": "uint256",
        "numberOfBytes": "32"
      },
      "t_uint32": {
        "encoding": "inplace",
        "label": "uint32",
        "numberOfBytes": "4"
      },
      "t_uint56": {
        "encoding": "inplace",
        "label": "uint56",
        "numberOfBytes": "7"
      },
      "t_uint8": {
        "encoding": "inplace",
        "label": "uint8",
        "numberOfBytes": "1"
      }
    }
  }
}