{
  "address": "0xc5c897e875CCD15ba1BF96fCdcD8c874c80c2A1b",
  "abi": [
    {
      "inputs": [
        {
          "internalType": "address",
          "name": "_weth",
          "type": "address"
        },
        {
          "internalType": "address",
          "name": "_usdc",
          "type": "address"
        },
        {
          "internalType": "address",
          "name": "_wsteth",
          "type": "address"
        },
        {
          "internalType": "address",
          "name": "_ldo",
          "type": "address"
        },
        {
          "internalType": "address",
          "name": "_oTokenFactory",
          "type": "address"
        },
        {
          "internalType": "address",
          "name": "_gammaController",
          "type": "address"
        },
        {
          "internalType": "address",
          "name": "_marginPool",
          "type": "address"
        },
        {
          "internalType": "address",
          "name": "_gnosisEasyAuction",
          "type": "address"
        },
        {
          "internalType": "address",
          "name": "_crvPool",
          "type": "address"
        }
      ],
      "stateMutability": "nonpayable",
      "type": "constructor"
    },
    {
      "anonymous": false,
      "inputs": [
        {
          "indexed": true,
          "internalType": "address",
          "name": "owner",
          "type": "address"
        },
        {
          "indexed": true,
          "internalType": "address",
          "name": "spender",
          "type": "address"
        },
        {
          "indexed": false,
          "internalType": "uint256",
          "name": "value",
          "type": "uint256"
        }
      ],
      "name": "Approval",
      "type": "event"
    },
    {
      "anonymous": false,
      "inputs": [
        {
          "indexed": false,
          "internalType": "uint256",
          "name": "auctionDuration",
          "type": "uint256"
        },
        {
          "indexed": false,
          "internalType": "uint256",
          "name": "newAuctionDuration",
          "type": "uint256"
        }
      ],
      "name": "AuctionDurationSet",
      "type": "event"
    },
    {
      "anonymous": false,
      "inputs": [
        {
          "indexed": false,
          "internalType": "uint256",
          "name": "oldCap",
          "type": "uint256"
        },
        {
          "indexed": false,
          "internalType": "uint256",
          "name": "newCap",
          "type": "uint256"
        }
      ],
      "name": "CapSet",
      "type": "event"
    },
    {
      "anonymous": false,
      "inputs": [
        {
          "indexed": true,
          "internalType": "address",
          "name": "options",
          "type": "address"
        },
        {
          "indexed": false,
          "internalType": "uint256",
          "name": "withdrawAmount",
          "type": "uint256"
        },
        {
          "indexed": true,
          "internalType": "address",
          "name": "manager",
          "type": "address"
        }
      ],
      "name": "CloseShort",
      "type": "event"
    },
    {
      "anonymous": false,
      "inputs": [
        {
          "indexed": false,
          "internalType": "uint256",
          "name": "performanceFee",
          "type": "uint256"
        },
        {
          "indexed": false,
          "internalType": "uint256",
          "name": "vaultFee",
          "type": "uint256"
        },
        {
          "indexed": false,
          "internalType": "uint256",
          "name": "round",
          "type": "uint256"
        },
        {
          "indexed": true,
          "internalType": "address",
          "name": "feeRecipient",
          "type": "address"
        }
      ],
      "name": "CollectVaultFees",
      "type": "event"
    },
    {
      "anonymous": false,
      "inputs": [
        {
          "indexed": true,
          "internalType": "address",
          "name": "account",
          "type": "address"
        },
        {
          "indexed": false,
          "internalType": "uint256",
          "name": "amount",
          "type": "uint256"
        },
        {
          "indexed": false,
          "internalType": "uint256",
          "name": "round",
          "type": "uint256"
        }
      ],
      "name": "Deposit",
      "type": "event"
    },
    {
      "anonymous": false,
      "inputs": [
        {
          "indexed": true,
          "internalType": "address",
          "name": "auctioningToken",
          "type": "address"
        },
        {
          "indexed": true,
          "internalType": "address",
          "name": "biddingToken",
          "type": "address"
        },
        {
          "indexed": false,
          "internalType": "uint256",
          "name": "auctionCounter",
          "type": "uint256"
        },
        {
          "indexed": true,
          "internalType": "address",
          "name": "manager",
          "type": "address"
        }
      ],
      "name": "InitiateGnosisAuction",
      "type": "event"
    },
    {
      "anonymous": false,
      "inputs": [
        {
          "indexed": true,
          "internalType": "address",
          "name": "account",
          "type": "address"
        },
        {
          "indexed": false,
          "internalType": "uint256",
          "name": "shares",
          "type": "uint256"
        },
        {
          "indexed": false,
          "internalType": "uint256",
          "name": "round",
          "type": "uint256"
        }
      ],
      "name": "InitiateWithdraw",
      "type": "event"
    },
    {
      "anonymous": false,
      "inputs": [
        {
          "indexed": true,
          "internalType": "address",
          "name": "account",
          "type": "address"
        },
        {
          "indexed": false,
          "internalType": "uint256",
          "name": "amount",
          "type": "uint256"
        },
        {
          "indexed": false,
          "internalType": "uint256",
          "name": "round",
          "type": "uint256"
        }
      ],
      "name": "InstantWithdraw",
      "type": "event"
    },
    {
      "anonymous": false,
      "inputs": [
        {
          "indexed": false,
          "internalType": "uint256",
          "name": "managementFee",
          "type": "uint256"
        },
        {
          "indexed": false,
          "internalType": "uint256",
          "name": "newManagementFee",
          "type": "uint256"
        }
      ],
      "name": "ManagementFeeSet",
      "type": "event"
    },
    {
      "anonymous": false,
      "inputs": [
        {
          "indexed": false,
          "internalType": "uint256",
          "name": "strikePrice",
          "type": "uint256"
        },
        {
          "indexed": false,
          "internalType": "uint256",
          "name": "delta",
          "type": "uint256"
        }
      ],
      "name": "NewOptionStrikeSelected",
      "type": "event"
    },
    {
      "anonymous": false,
      "inputs": [
        {
          "indexed": true,
          "internalType": "address",
          "name": "options",
          "type": "address"
        },
        {
          "indexed": false,
          "internalType": "uint256",
          "name": "depositAmount",
          "type": "uint256"
        },
        {
          "indexed": true,
          "internalType": "address",
          "name": "manager",
          "type": "address"
        }
      ],
      "name": "OpenShort",
      "type": "event"
    },
    {
      "anonymous": false,
      "inputs": [
        {
          "indexed": true,
          "internalType": "address",
          "name": "previousOwner",
          "type": "address"
        },
        {
          "indexed": true,
          "internalType": "address",
          "name": "newOwner",
          "type": "address"
        }
      ],
      "name": "OwnershipTransferred",
      "type": "event"
    },
    {
      "anonymous": false,
      "inputs": [
        {
          "indexed": false,
          "internalType": "uint256",
          "name": "performanceFee",
          "type": "uint256"
        },
        {
          "indexed": false,
          "internalType": "uint256",
          "name": "newPerformanceFee",
          "type": "uint256"
        }
      ],
      "name": "PerformanceFeeSet",
      "type": "event"
    },
    {
      "anonymous": false,
      "inputs": [
        {
          "indexed": false,
          "internalType": "uint256",
          "name": "premiumDiscount",
          "type": "uint256"
        },
        {
          "indexed": false,
          "internalType": "uint256",
          "name": "newPremiumDiscount",
          "type": "uint256"
        }
      ],
      "name": "PremiumDiscountSet",
      "type": "event"
    },
    {
      "anonymous": false,
      "inputs": [
        {
          "indexed": true,
          "internalType": "address",
          "name": "account",
          "type": "address"
        },
        {
          "indexed": false,
          "internalType": "uint256",
          "name": "share",
          "type": "uint256"
        },
        {
          "indexed": false,
          "internalType": "uint256",
          "name": "round",
          "type": "uint256"
        }
      ],
      "name": "Redeem",
      "type": "event"
    },
    {
      "anonymous": false,
      "inputs": [
        {
          "indexed": true,
          "internalType": "address",
          "name": "from",
          "type": "address"
        },
        {
          "indexed": true,
          "internalType": "address",
          "name": "to",
          "type": "address"
        },
        {
          "indexed": false,
          "internalType": "uint256",
          "name": "value",
          "type": "uint256"
        }
      ],
      "name": "Transfer",
      "type": "event"
    },
    {
      "anonymous": false,
      "inputs": [
        {
          "indexed": true,
          "internalType": "address",
          "name": "account",
          "type": "address"
        },
        {
          "indexed": false,
          "internalType": "uint256",
          "name": "amount",
          "type": "uint256"
        },
        {
          "indexed": false,
          "internalType": "uint256",
          "name": "shares",
          "type": "uint256"
        }
      ],
      "name": "Withdraw",
      "type": "event"
    },
    {
      "inputs": [],
      "name": "DELAY",
      "outputs": [
        {
          "internalType": "uint256",
          "name": "",
          "type": "uint256"
        }
      ],
      "stateMutability": "view",
      "type": "function"
    },
    {
      "inputs": [],
      "name": "GAMMA_CONTROLLER",
      "outputs": [
        {
          "internalType": "address",
          "name": "",
          "type": "address"
        }
      ],
      "stateMutability": "view",
      "type": "function"
    },
    {
      "inputs": [],
      "name": "GNOSIS_EASY_AUCTION",
      "outputs": [
        {
          "internalType": "address",
          "name": "",
          "type": "address"
        }
      ],
      "stateMutability": "view",
      "type": "function"
    },
    {
      "inputs": [],
      "name": "LDO",
      "outputs": [
        {
          "internalType": "address",
          "name": "",
          "type": "address"
        }
      ],
      "stateMutability": "view",
      "type": "function"
    },
    {
      "inputs": [],
      "name": "MARGIN_POOL",
      "outputs": [
        {
          "internalType": "address",
          "name": "",
          "type": "address"
        }
      ],
      "stateMutability": "view",
      "type": "function"
    },
    {
      "inputs": [],
      "name": "OTOKEN_FACTORY",
      "outputs": [
        {
          "internalType": "address",
          "name": "",
          "type": "address"
        }
      ],
      "stateMutability": "view",
      "type": "function"
    },
    {
      "inputs": [],
      "name": "PERIOD",
      "outputs": [
        {
          "internalType": "uint256",
          "name": "",
          "type": "uint256"
        }
      ],
      "stateMutability": "view",
      "type": "function"
    },
    {
      "inputs": [],
      "name": "STETH",
      "outputs": [
        {
          "internalType": "address",
          "name": "",
          "type": "address"
        }
      ],
      "stateMutability": "view",
      "type": "function"
    },
    {
      "inputs": [],
      "name": "STETH_ETH_CRV_POOL",
      "outputs": [
        {
          "internalType": "address",
          "name": "",
          "type": "address"
        }
      ],
      "stateMutability": "view",
      "type": "function"
    },
    {
      "inputs": [],
      "name": "USDC",
      "outputs": [
        {
          "internalType": "address",
          "name": "",
          "type": "address"
        }
      ],
      "stateMutability": "view",
      "type": "function"
    },
    {
      "inputs": [],
      "name": "WETH",
      "outputs": [
        {
          "internalType": "address",
          "name": "",
          "type": "address"
        }
      ],
      "stateMutability": "view",
      "type": "function"
    },
    {
      "inputs": [
        {
          "internalType": "address",
          "name": "account",
          "type": "address"
        }
      ],
      "name": "accountVaultBalance",
      "outputs": [
        {
          "internalType": "uint256",
          "name": "",
          "type": "uint256"
        }
      ],
      "stateMutability": "view",
      "type": "function"
    },
    {
      "inputs": [
        {
          "internalType": "address",
          "name": "owner",
          "type": "address"
        },
        {
          "internalType": "address",
          "name": "spender",
          "type": "address"
        }
      ],
      "name": "allowance",
      "outputs": [
        {
          "internalType": "uint256",
          "name": "",
          "type": "uint256"
        }
      ],
      "stateMutability": "view",
      "type": "function"
    },
    {
      "inputs": [
        {
          "internalType": "address",
          "name": "spender",
          "type": "address"
        },
        {
          "internalType": "uint256",
          "name": "amount",
          "type": "uint256"
        }
      ],
      "name": "approve",
      "outputs": [
        {
          "internalType": "bool",
          "name": "",
          "type": "bool"
        }
      ],
      "stateMutability": "nonpayable",
      "type": "function"
    },
    {
      "inputs": [],
      "name": "auctionDuration",
      "outputs": [
        {
          "internalType": "uint256",
          "name": "",
          "type": "uint256"
        }
      ],
      "stateMutability": "view",
      "type": "function"
    },
    {
      "inputs": [
        {
          "internalType": "address",
          "name": "account",
          "type": "address"
        }
      ],
      "name": "balanceOf",
      "outputs": [
        {
          "internalType": "uint256",
          "name": "",
          "type": "uint256"
        }
      ],
      "stateMutability": "view",
      "type": "function"
    },
    {
      "inputs": [],
      "name": "burnRemainingOTokens",
      "outputs": [],
      "stateMutability": "nonpayable",
      "type": "function"
    },
    {
      "inputs": [],
      "name": "cap",
      "outputs": [
        {
          "internalType": "uint256",
          "name": "",
          "type": "uint256"
        }
      ],
      "stateMutability": "view",
      "type": "function"
    },
    {
      "inputs": [],
      "name": "collateralToken",
      "outputs": [
        {
          "internalType": "contract IWSTETH",
          "name": "",
          "type": "address"
        }
      ],
      "stateMutability": "view",
      "type": "function"
    },
    {
      "inputs": [],
      "name": "commitAndClose",
      "outputs": [],
      "stateMutability": "nonpayable",
      "type": "function"
    },
    {
      "inputs": [
        {
          "internalType": "uint256",
          "name": "minETHOut",
          "type": "uint256"
        }
      ],
      "name": "completeWithdraw",
      "outputs": [],
      "stateMutability": "nonpayable",
      "type": "function"
    },
    {
      "inputs": [],
      "name": "currentOption",
      "outputs": [
        {
          "internalType": "address",
          "name": "",
          "type": "address"
        }
      ],
      "stateMutability": "view",
      "type": "function"
    },
    {
      "inputs": [],
      "name": "currentOtokenPremium",
      "outputs": [
        {
          "internalType": "uint256",
          "name": "",
          "type": "uint256"
        }
      ],
      "stateMutability": "view",
      "type": "function"
    },
    {
      "inputs": [],
      "name": "decimals",
      "outputs": [
        {
          "internalType": "uint8",
          "name": "",
          "type": "uint8"
        }
      ],
      "stateMutability": "view",
      "type": "function"
    },
    {
      "inputs": [
        {
          "internalType": "address",
          "name": "spender",
          "type": "address"
        },
        {
          "internalType": "uint256",
          "name": "subtractedValue",
          "type": "uint256"
        }
      ],
      "name": "decreaseAllowance",
      "outputs": [
        {
          "internalType": "bool",
          "name": "",
          "type": "bool"
        }
      ],
      "stateMutability": "nonpayable",
      "type": "function"
    },
    {
      "inputs": [],
      "name": "depositETH",
      "outputs": [],
      "stateMutability": "payable",
      "type": "function"
    },
    {
      "inputs": [
        {
          "internalType": "address",
          "name": "creditor",
          "type": "address"
        }
      ],
      "name": "depositFor",
      "outputs": [],
      "stateMutability": "payable",
      "type": "function"
    },
    {
      "inputs": [
        {
          "internalType": "address",
          "name": "",
          "type": "address"
        }
      ],
      "name": "depositReceipts",
      "outputs": [
        {
          "internalType": "uint16",
          "name": "round",
          "type": "uint16"
        },
        {
          "internalType": "uint104",
          "name": "amount",
          "type": "uint104"
        },
        {
          "internalType": "uint128",
          "name": "unredeemedShares",
          "type": "uint128"
        }
      ],
      "stateMutability": "view",
      "type": "function"
    },
    {
      "inputs": [
        {
          "internalType": "uint256",
          "name": "amount",
          "type": "uint256"
        }
      ],
      "name": "depositYieldToken",
      "outputs": [],
      "stateMutability": "nonpayable",
      "type": "function"
    },
    {
      "inputs": [],
      "name": "feeRecipient",
      "outputs": [
        {
          "internalType": "address",
          "name": "",
          "type": "address"
        }
      ],
      "stateMutability": "view",
      "type": "function"
    },
    {
      "inputs": [
        {
          "internalType": "address",
          "name": "spender",
          "type": "address"
        },
        {
          "internalType": "uint256",
          "name": "addedValue",
          "type": "uint256"
        }
      ],
      "name": "increaseAllowance",
      "outputs": [
        {
          "internalType": "bool",
          "name": "",
          "type": "bool"
        }
      ],
      "stateMutability": "nonpayable",
      "type": "function"
    },
    {
      "inputs": [
        {
          "internalType": "uint256",
          "name": "numRounds",
          "type": "uint256"
        }
      ],
      "name": "initRounds",
      "outputs": [],
      "stateMutability": "nonpayable",
      "type": "function"
    },
    {
      "inputs": [
        {
          "internalType": "address",
          "name": "_owner",
          "type": "address"
        },
        {
          "internalType": "address",
          "name": "_keeper",
          "type": "address"
        },
        {
          "internalType": "address",
          "name": "_feeRecipient",
          "type": "address"
        },
        {
          "internalType": "uint256",
          "name": "_managementFee",
          "type": "uint256"
        },
        {
          "internalType": "uint256",
          "name": "_performanceFee",
          "type": "uint256"
        },
        {
          "internalType": "string",
          "name": "_tokenName",
          "type": "string"
        },
        {
          "internalType": "string",
          "name": "_tokenSymbol",
          "type": "string"
        },
        {
          "internalType": "address",
          "name": "_optionsPremiumPricer",
          "type": "address"
        },
        {
          "internalType": "address",
          "name": "_strikeSelection",
          "type": "address"
        },
        {
          "internalType": "uint32",
          "name": "_premiumDiscount",
          "type": "uint32"
        },
        {
          "internalType": "uint256",
          "name": "_auctionDuration",
          "type": "uint256"
        },
        {
          "components": [
            {
              "internalType": "bool",
              "name": "isPut",
              "type": "bool"
            },
            {
              "internalType": "uint8",
              "name": "decimals",
              "type": "uint8"
            },
            {
              "internalType": "address",
              "name": "asset",
              "type": "address"
            },
            {
              "internalType": "address",
              "name": "underlying",
              "type": "address"
            },
            {
              "internalType": "uint56",
              "name": "minimumSupply",
              "type": "uint56"
            },
            {
              "internalType": "uint104",
              "name": "cap",
              "type": "uint104"
            }
          ],
          "internalType": "struct Vault.VaultParams",
          "name": "_vaultParams",
          "type": "tuple"
        }
      ],
      "name": "initialize",
      "outputs": [],
      "stateMutability": "nonpayable",
      "type": "function"
    },
    {
      "inputs": [
        {
          "internalType": "uint256",
          "name": "numShares",
          "type": "uint256"
        }
      ],
      "name": "initiateWithdraw",
      "outputs": [],
      "stateMutability": "nonpayable",
      "type": "function"
    },
    {
      "inputs": [],
      "name": "keeper",
      "outputs": [
        {
          "internalType": "address",
          "name": "",
          "type": "address"
        }
      ],
      "stateMutability": "view",
      "type": "function"
    },
    {
      "inputs": [],
      "name": "lastQueuedWithdrawAmount",
      "outputs": [
        {
          "internalType": "uint256",
          "name": "",
          "type": "uint256"
        }
      ],
      "stateMutability": "view",
      "type": "function"
    },
    {
      "inputs": [],
      "name": "lastStrikeOverrideRound",
      "outputs": [
        {
          "internalType": "uint16",
          "name": "",
          "type": "uint16"
        }
      ],
      "stateMutability": "view",
      "type": "function"
    },
    {
      "inputs": [],
      "name": "liquidityGauge",
      "outputs": [
        {
          "internalType": "address",
          "name": "",
          "type": "address"
        }
      ],
      "stateMutability": "view",
      "type": "function"
    },
    {
      "inputs": [],
      "name": "managementFee",
      "outputs": [
        {
          "internalType": "uint256",
          "name": "",
          "type": "uint256"
        }
      ],
      "stateMutability": "view",
      "type": "function"
    },
    {
      "inputs": [],
      "name": "maxRedeem",
      "outputs": [],
      "stateMutability": "nonpayable",
      "type": "function"
    },
    {
      "inputs": [],
      "name": "name",
      "outputs": [
        {
          "internalType": "string",
          "name": "",
          "type": "string"
        }
      ],
      "stateMutability": "view",
      "type": "function"
    },
    {
      "inputs": [],
      "name": "nextOption",
      "outputs": [
        {
          "internalType": "address",
          "name": "",
          "type": "address"
        }
      ],
      "stateMutability": "view",
      "type": "function"
    },
    {
      "inputs": [],
      "name": "nextOptionReadyAt",
      "outputs": [
        {
          "internalType": "uint256",
          "name": "",
          "type": "uint256"
        }
      ],
      "stateMutability": "view",
      "type": "function"
    },
    {
      "inputs": [],
      "name": "optionAuctionID",
      "outputs": [
        {
          "internalType": "uint256",
          "name": "",
          "type": "uint256"
        }
      ],
      "stateMutability": "view",
      "type": "function"
    },
    {
      "inputs": [],
      "name": "optionState",
      "outputs": [
        {
          "internalType": "address",
          "name": "nextOption",
          "type": "address"
        },
        {
          "internalType": "address",
          "name": "currentOption",
          "type": "address"
        },
        {
          "internalType": "uint32",
          "name": "nextOptionReadyAt",
          "type": "uint32"
        }
      ],
      "stateMutability": "view",
      "type": "function"
    },
    {
      "inputs": [],
      "name": "optionsPremiumPricer",
      "outputs": [
        {
          "internalType": "address",
          "name": "",
          "type": "address"
        }
      ],
      "stateMutability": "view",
      "type": "function"
    },
    {
      "inputs": [],
      "name": "overriddenStrikePrice",
      "outputs": [
        {
          "internalType": "uint256",
          "name": "",
          "type": "uint256"
        }
      ],
      "stateMutability": "view",
      "type": "function"
    },
    {
      "inputs": [],
      "name": "owner",
      "outputs": [
        {
          "internalType": "address",
          "name": "",
          "type": "address"
        }
      ],
      "stateMutability": "view",
      "type": "function"
    },
    {
      "inputs": [],
      "name": "performanceFee",
      "outputs": [
        {
          "internalType": "uint256",
          "name": "",
          "type": "uint256"
        }
      ],
      "stateMutability": "view",
      "type": "function"
    },
    {
      "inputs": [],
      "name": "premiumDiscount",
      "outputs": [
        {
          "internalType": "uint256",
          "name": "",
          "type": "uint256"
        }
      ],
      "stateMutability": "view",
      "type": "function"
    },
    {
      "inputs": [],
      "name": "pricePerShare",
      "outputs": [
        {
          "internalType": "uint256",
          "name": "",
          "type": "uint256"
        }
      ],
      "stateMutability": "view",
      "type": "function"
    },
    {
      "inputs": [
        {
          "internalType": "uint256",
          "name": "numShares",
          "type": "uint256"
        }
      ],
      "name": "redeem",
      "outputs": [],
      "stateMutability": "nonpayable",
      "type": "function"
    },
    {
      "inputs": [],
      "name": "renounceOwnership",
      "outputs": [],
      "stateMutability": "nonpayable",
      "type": "function"
    },
    {
      "inputs": [],
      "name": "rollToNextOption",
      "outputs": [],
      "stateMutability": "nonpayable",
      "type": "function"
    },
    {
      "inputs": [
        {
          "internalType": "uint256",
          "name": "",
          "type": "uint256"
        }
      ],
      "name": "roundPricePerShare",
      "outputs": [
        {
          "internalType": "uint256",
          "name": "",
          "type": "uint256"
        }
      ],
      "stateMutability": "view",
      "type": "function"
    },
    {
      "inputs": [],
      "name": "sendLDORewards",
      "outputs": [],
      "stateMutability": "nonpayable",
      "type": "function"
    },
    {
      "inputs": [
        {
          "internalType": "uint256",
          "name": "newAuctionDuration",
          "type": "uint256"
        }
      ],
      "name": "setAuctionDuration",
      "outputs": [],
      "stateMutability": "nonpayable",
      "type": "function"
    },
    {
      "inputs": [
        {
          "internalType": "uint256",
          "name": "newCap",
          "type": "uint256"
        }
      ],
      "name": "setCap",
      "outputs": [],
      "stateMutability": "nonpayable",
      "type": "function"
    },
    {
      "inputs": [
        {
          "internalType": "address",
          "name": "newFeeRecipient",
          "type": "address"
        }
      ],
      "name": "setFeeRecipient",
      "outputs": [],
      "stateMutability": "nonpayable",
      "type": "function"
    },
    {
      "inputs": [
        {
          "internalType": "address",
          "name": "newLiquidityGauge",
          "type": "address"
        }
      ],
      "name": "setLiquidityGauge",
      "outputs": [],
      "stateMutability": "nonpayable",
      "type": "function"
    },
    {
      "inputs": [
        {
          "internalType": "uint256",
          "name": "newManagementFee",
          "type": "uint256"
        }
      ],
      "name": "setManagementFee",
      "outputs": [],
      "stateMutability": "nonpayable",
      "type": "function"
    },
    {
      "inputs": [
        {
          "internalType": "address",
          "name": "newKeeper",
          "type": "address"
        }
      ],
      "name": "setNewKeeper",
      "outputs": [],
      "stateMutability": "nonpayable",
      "type": "function"
    },
    {
      "inputs": [
        {
          "internalType": "uint256",
          "name": "newPerformanceFee",
          "type": "uint256"
        }
      ],
      "name": "setPerformanceFee",
      "outputs": [],
      "stateMutability": "nonpayable",
      "type": "function"
    },
    {
      "inputs": [
        {
          "internalType": "uint256",
          "name": "newPremiumDiscount",
          "type": "uint256"
        }
      ],
      "name": "setPremiumDiscount",
      "outputs": [],
      "stateMutability": "nonpayable",
      "type": "function"
    },
    {
      "inputs": [
        {
          "internalType": "uint128",
          "name": "strikePrice",
          "type": "uint128"
        }
      ],
      "name": "setStrikePrice",
      "outputs": [],
      "stateMutability": "nonpayable",
      "type": "function"
    },
    {
      "inputs": [
        {
          "internalType": "address",
          "name": "newContract",
          "type": "address"
        },
        {
          "internalType": "bool",
          "name": "isStrikeSelection",
          "type": "bool"
        }
      ],
      "name": "setStrikeSelectionOrPricer",
      "outputs": [],
      "stateMutability": "nonpayable",
      "type": "function"
    },
    {
      "inputs": [
        {
          "internalType": "address",
          "name": "account",
          "type": "address"
        }
      ],
      "name": "shareBalances",
      "outputs": [
        {
          "internalType": "uint256",
          "name": "heldByAccount",
          "type": "uint256"
        },
        {
          "internalType": "uint256",
          "name": "heldByVault",
          "type": "uint256"
        }
      ],
      "stateMutability": "view",
      "type": "function"
    },
    {
      "inputs": [
        {
          "internalType": "address",
          "name": "account",
          "type": "address"
        }
      ],
      "name": "shares",
      "outputs": [
        {
          "internalType": "uint256",
          "name": "",
          "type": "uint256"
        }
      ],
      "stateMutability": "view",
      "type": "function"
    },
    {
      "inputs": [
        {
          "internalType": "uint256",
          "name": "numShares",
          "type": "uint256"
        }
      ],
      "name": "stake",
      "outputs": [],
      "stateMutability": "nonpayable",
      "type": "function"
    },
    {
      "inputs": [],
      "name": "startAuction",
      "outputs": [],
      "stateMutability": "nonpayable",
      "type": "function"
    },
    {
      "inputs": [],
      "name": "strikeSelection",
      "outputs": [
        {
          "internalType": "address",
          "name": "",
          "type": "address"
        }
      ],
      "stateMutability": "view",
      "type": "function"
    },
    {
      "inputs": [],
      "name": "symbol",
      "outputs": [
        {
          "internalType": "string",
          "name": "",
          "type": "string"
        }
      ],
      "stateMutability": "view",
      "type": "function"
    },
    {
      "inputs": [],
      "name": "totalBalance",
      "outputs": [
        {
          "internalType": "uint256",
          "name": "",
          "type": "uint256"
        }
      ],
      "stateMutability": "view",
      "type": "function"
    },
    {
      "inputs": [],
      "name": "totalPending",
      "outputs": [
        {
          "internalType": "uint256",
          "name": "",
          "type": "uint256"
        }
      ],
      "stateMutability": "view",
      "type": "function"
    },
    {
      "inputs": [],
      "name": "totalSupply",
      "outputs": [
        {
          "internalType": "uint256",
          "name": "",
          "type": "uint256"
        }
      ],
      "stateMutability": "view",
      "type": "function"
    },
    {
      "inputs": [
        {
          "internalType": "address",
          "name": "recipient",
          "type": "address"
        },
        {
          "internalType": "uint256",
          "name": "amount",
          "type": "uint256"
        }
      ],
      "name": "transfer",
      "outputs": [
        {
          "internalType": "bool",
          "name": "",
          "type": "bool"
        }
      ],
      "stateMutability": "nonpayable",
      "type": "function"
    },
    {
      "inputs": [
        {
          "internalType": "address",
          "name": "sender",
          "type": "address"
        },
        {
          "internalType": "address",
          "name": "recipient",
          "type": "address"
        },
        {
          "internalType": "uint256",
          "name": "amount",
          "type": "uint256"
        }
      ],
      "name": "transferFrom",
      "outputs": [
        {
          "internalType": "bool",
          "name": "",
          "type": "bool"
        }
      ],
      "stateMutability": "nonpayable",
      "type": "function"
    },
    {
      "inputs": [
        {
          "internalType": "address",
          "name": "newOwner",
          "type": "address"
        }
      ],
      "name": "transferOwnership",
      "outputs": [],
      "stateMutability": "nonpayable",
      "type": "function"
    },
    {
      "inputs": [],
      "name": "vaultParams",
      "outputs": [
        {
          "internalType": "bool",
          "name": "isPut",
          "type": "bool"
        },
        {
          "internalType": "uint8",
          "name": "decimals",
          "type": "uint8"
        },
        {
          "internalType": "address",
          "name": "asset",
          "type": "address"
        },
        {
          "internalType": "address",
          "name": "underlying",
          "type": "address"
        },
        {
          "internalType": "uint56",
          "name": "minimumSupply",
          "type": "uint56"
        },
        {
          "internalType": "uint104",
          "name": "cap",
          "type": "uint104"
        }
      ],
      "stateMutability": "view",
      "type": "function"
    },
    {
      "inputs": [],
      "name": "vaultState",
      "outputs": [
        {
          "internalType": "uint16",
          "name": "round",
          "type": "uint16"
        },
        {
          "internalType": "uint104",
          "name": "lockedAmount",
          "type": "uint104"
        },
        {
          "internalType": "uint104",
          "name": "lastLockedAmount",
          "type": "uint104"
        },
        {
          "internalType": "uint128",
          "name": "totalPending",
          "type": "uint128"
        },
        {
          "internalType": "uint128",
          "name": "queuedWithdrawShares",
          "type": "uint128"
        }
      ],
      "stateMutability": "view",
      "type": "function"
    },
    {
      "inputs": [
        {
          "internalType": "uint256",
          "name": "amount",
          "type": "uint256"
        },
        {
          "internalType": "uint256",
          "name": "",
          "type": "uint256"
        }
      ],
      "name": "withdrawInstantly",
      "outputs": [],
      "stateMutability": "nonpayable",
      "type": "function"
    },
    {
      "inputs": [
        {
          "internalType": "address",
          "name": "",
          "type": "address"
        }
      ],
      "name": "withdrawals",
      "outputs": [
        {
          "internalType": "uint16",
          "name": "round",
          "type": "uint16"
        },
        {
          "internalType": "uint128",
          "name": "shares",
          "type": "uint128"
        }
      ],
      "stateMutability": "view",
      "type": "function"
    }
  ],
  "transactionHash": "0x540c013ce9eb927bf4ef6a0b4c19c64643c28aecc6dcd46aa91aec4c77c16ca7",
  "args": [
    "0xC02aaA39b223FE8D0A0e5C4F27eAD9083C756Cc2",
    "0xA0b86991c6218b36c1d19D4a2e9Eb0cE3606eB48",
    "0x7f39C581F595B53c5cb19bD0b3f8dA6c935E2Ca0",
    "0x5A98FcBEA516Cf06857215779Fd812CA3beF1B32",
    "0x7C06792Af1632E77cb27a558Dc0885338F4Bdf8E",
    "0x4ccc2339F87F6c59c6893E1A678c2266cA58dC72",
    "0x5934807cC0654d46755eBd2848840b616256C6Ef",
    "0x0b7fFc1f4AD541A4Ed16b40D8c37f0929158D101",
    "0xDC24316b9AE028F1497c275EB9192a3Ea0f67022"
  ],
  "solcInputHash": "1338fea177466671c133ce76134f6e6a",
  "bytecode": "0x6101c06040523480156200001257600080fd5b506040516200637e3803806200637e833981016040819052620000359162000402565b88888888878787876001600160a01b038816620000825760405162461bcd60e51b8152602060048201526006602482015265042beeecae8d60d31b60448201526064015b60405180910390fd5b6001600160a01b038716620000c35760405162461bcd60e51b8152602060048201526006602482015265215f7573646360d01b604482015260640162000079565b6001600160a01b038616620001065760405162461bcd60e51b8152602060048201526008602482015267042beeee6e8cae8d60c31b604482015260640162000079565b6001600160a01b038516620001465760405162461bcd60e51b8152602060048201526005602482015264215f6c646f60d81b604482015260640162000079565b6001600160a01b0382166200019e5760405162461bcd60e51b815260206004820152601360248201527f215f676e6f7369734561737941756374696f6e00000000000000000000000000604482015260640162000079565b6001600160a01b038416620001ea5760405162461bcd60e51b815260206004820152601160248201527010afb3b0b6b6b0a1b7b73a3937b63632b960791b604482015260640162000079565b6001600160a01b038316620002315760405162461bcd60e51b815260206004820152600c60248201526b0857db585c99da5b941bdbdb60a21b604482015260640162000079565b6001600160a01b038116620002755760405162461bcd60e51b81526020600482015260096024820152680857d8dc9d941bdbdb60ba1b604482015260640162000079565b6001600160601b0319606089811b821660a05288811b821660c05286901b1660e0526040805163183fc7c960e31b815290516001600160a01b0388169163c1fe3e48916004808301926020929190829003018186803b158015620002d857600080fd5b505afa158015620002ed573d6000803e3d6000fd5b505050506040513d601f19601f82011682018060405250810190620003139190620003de565b6001600160601b0319606091821b81166101805294811b85166101005292831b84166101205290821b831661014052811b8216610160529290921b9091166080525050506001600160a01b038516620003a15760405162461bcd60e51b815260206004820152600f60248201526e215f6f546f6b656e466163746f727960881b604482015260640162000079565b5050505060601b6001600160601b0319166101a05250620004bc92505050565b80516001600160a01b0381168114620003d957600080fd5b919050565b600060208284031215620003f0578081fd5b620003fb82620003c1565b9392505050565b60008060008060008060008060006101208a8c03121562000421578485fd5b6200042c8a620003c1565b98506200043c60208b01620003c1565b97506200044c60408b01620003c1565b96506200045c60608b01620003c1565b95506200046c60808b01620003c1565b94506200047c60a08b01620003c1565b93506200048c60c08b01620003c1565b92506200049c60e08b01620003c1565b9150620004ad6101008b01620003c1565b90509295985092959850929598565b60805160601c60a05160601c60c05160601c60e05160601c6101005160601c6101205160601c6101405160601c6101605160601c6101805160601c6101a05160601c615d646200061a60003960008181610f6b0152612f7f015260008181610fe5015281816113b2015281816118370152818161240501528181612923015281816129f7015281816136e90152614484015260006107bf0152600081816109200152613e1601526000818161083e01526126f20152600081816105560152818161164f015281816126ca01526148fa015260008181610f170152611b14015260008181610ae60152612fa4015260008181610db8015281816117e7015281816122530152818161446201526145e6015260008181610e21015281816117140152818161180f015281816122ea01528181612545015281816125dc0152818161294b015281816130420152818161371101526143f10152615d646000f3fe6080604052600436106104895760003560e01c80638da5cb5b11610255578063b9f8092b11610144578063e00bfe50116100c1578063f2fde38b11610085578063f2fde38b14611072578063f6326fb314611092578063f656ba511461109a578063f957a067146110cf578063f9a0be68146110ef578063fe56e2321461110f57600080fd5b8063e00bfe5014610fd3578063e16fdbd514611007578063e73c63d514611027578063e74b981b1461103d578063ea00b1ca1461105d57600080fd5b8063d5f2638211610108578063d5f2638214610eef578063d88bba1114610f05578063db006a7514610f39578063db43e86214610f59578063dd62ed3e14610f8d57600080fd5b8063b9f8092b14610e5a578063c632183914610e6f578063ce7c2ac214610e8f578063d13f1b3e14610eaf578063d164cc1514610ecf57600080fd5b8063a694fc3a116101d2578063ad5c464811610196578063ad5c464814610da6578063ad7a672f14610dda578063afa6626414610def578063b2016bd414610e0f578063b4d1d79514610e4357600080fd5b8063a694fc3a14610d1d578063a6f7f5d614610d3d578063a9059cbb14610d53578063aa67c91914610d73578063aced166114610d8657600080fd5b8063a083ff1711610219578063a083ff1714610c3a578063a285c9e814610c9d578063a2db9d8314610cbf578063a457c2d714610cdd578063a497e67414610cfd57600080fd5b80638da5cb5b14610b2657806395d89b4114610b4457806399530b0614610b595780639be43daa14610b6e5780639fcc2d7514610b8e57600080fd5b8063503c70aa1161037c57806370a08231116102f95780637e108d52116102bd5780637e108d5214610a5b57806383536ff314610a7b57806387153eb114610a915780638778878214610abe57806389a3027114610ad45780638b10cc7c14610b0857600080fd5b806370a0823114610977578063715018a6146109ad5780637400173d146109c25780637a9262a2146109e25780637bf5108614610a4657600080fd5b806369b411701161034057806369b41170146108e45780636b64c769146108f95780636c10f66c1461090e5780636f31ab341461094257806370897b231461095757600080fd5b8063503c70aa146107e157806355489bb2146107f7578063600a2cfb14610817578063650cce8a1461082c5780636719b2ee1461086057600080fd5b806331807e421161040a5780633f90916a116103ce5780633f90916a14610739578063432833a614610757578063469048401461076d57806347786d371461078d5780634f6e746d146107ad57600080fd5b806331807e421461068d578063355274ea146106ad57806339509351146106cb5780633ec143d3146106eb5780633f23bb731461071957600080fd5b80631a92f6c2116104515780631a92f6c2146105445780632087ed5c1461059057806323b872dd146105b05780632728f333146105d0578063313ce5671461066357600080fd5b8063048bf0851461048e57806306fdde03146104b0578063095ea7b3146104db5780630cbf54c81461050b57806318160ddd1461052f575b600080fd5b34801561049a57600080fd5b506104ae6104a93660046153cb565b61112f565b005b3480156104bc57600080fd5b506104c5611184565b6040516104d291906158ab565b60405180910390f35b3480156104e757600080fd5b506104fb6104f636600461558b565b611216565b60405190151581526020016104d2565b34801561051757600080fd5b5061052160fb5481565b6040519081526020016104d2565b34801561053b57600080fd5b50609954610521565b34801561055057600080fd5b506105787f000000000000000000000000000000000000000000000000000000000000000081565b6040516001600160a01b0390911681526020016104d2565b34801561059c57600080fd5b506104ae6105ab366004615637565b61122d565b3480156105bc57600080fd5b506104fb6105cb36600461551e565b611284565b3480156105dc57600080fd5b5060cf5460d05461061e9161ffff8116916001600160681b03620100008304811692600160781b900416906001600160801b0380821691600160801b90041685565b6040805161ffff90961686526001600160681b03948516602087015293909216928401929092526001600160801b03918216606084015216608082015260a0016104d2565b34801561066f57600080fd5b5060cc54610100900460ff1660405160ff90911681526020016104d2565b34801561069957600080fd5b506104ae6106a8366004615637565b611330565b3480156106b957600080fd5b5060ce546001600160681b0316610521565b3480156106d757600080fd5b506104fb6106e636600461558b565b6113e1565b3480156106f757600080fd5b5060f9546107069061ffff1681565b60405161ffff90911681526020016104d2565b34801561072557600080fd5b506105216107343660046153cb565b61141d565b34801561074557600080fd5b5060d0546001600160801b0316610521565b34801561076357600080fd5b5061052160fc5481565b34801561077957600080fd5b5060d354610578906001600160a01b031681565b34801561079957600080fd5b506104ae6107a8366004615637565b611470565b3480156107b957600080fd5b506105787f000000000000000000000000000000000000000000000000000000000000000081565b3480156107ed57600080fd5b5061052160fd5481565b34801561080357600080fd5b506104ae610812366004615610565b61154b565b34801561082357600080fd5b506104ae6115e3565b34801561083857600080fd5b506105787f000000000000000000000000000000000000000000000000000000000000000081565b34801561086c57600080fd5b506108b361087b3660046153cb565b60c96020526000908152604090205461ffff8116906201000081046001600160681b031690600160781b90046001600160801b031683565b6040805161ffff90941684526001600160681b0390921660208401526001600160801b0316908201526060016104d2565b3480156108f057600080fd5b50610521600081565b34801561090557600080fd5b506104ae6118b2565b34801561091a57600080fd5b506105787f000000000000000000000000000000000000000000000000000000000000000081565b34801561094e57600080fd5b506104ae611912565b34801561096357600080fd5b506104ae610972366004615637565b611949565b34801561098357600080fd5b506105216109923660046153cb565b6001600160a01b031660009081526097602052604090205490565b3480156109b957600080fd5b506104ae611a10565b3480156109ce57600080fd5b506104ae6109dd36600461555e565b611a46565b3480156109ee57600080fd5b50610a246109fd3660046153cb565b60cb6020526000908152604090205461ffff8116906201000090046001600160801b031682565b6040805161ffff90931683526001600160801b039091166020830152016104d2565b348015610a5257600080fd5b506104ae611afc565b348015610a6757600080fd5b506104ae610a76366004615637565b611bb4565b348015610a8757600080fd5b5061052160f75481565b348015610a9d57600080fd5b50610521610aac366004615637565b60ca6020526000908152604090205481565b348015610aca57600080fd5b5061052160d55481565b348015610ae057600080fd5b506105787f000000000000000000000000000000000000000000000000000000000000000081565b348015610b1457600080fd5b5060d2546001600160a01b0316610578565b348015610b3257600080fd5b506065546001600160a01b0316610578565b348015610b5057600080fd5b506104c5611def565b348015610b6557600080fd5b50610521611dfe565b348015610b7a57600080fd5b506104ae610b89366004615637565b611e38565b348015610b9a57600080fd5b5060cc5460cd5460ce54610bea9260ff808216936101008304909116926001600160a01b036201000090930483169282169166ffffffffffffff600160a01b90910416906001600160681b031686565b60408051961515875260ff90951660208701526001600160a01b03938416948601949094529116606084015266ffffffffffffff1660808301526001600160681b031660a082015260c0016104d2565b348015610c4657600080fd5b5060d15460d254610c71916001600160a01b039081169190811690600160a01b900463ffffffff1683565b604080516001600160a01b03948516815293909216602084015263ffffffff16908201526060016104d2565b348015610ca957600080fd5b5060d254600160a01b900463ffffffff16610521565b348015610ccb57600080fd5b5060d1546001600160a01b0316610578565b348015610ce957600080fd5b506104fb610cf836600461558b565b611f32565b348015610d0957600080fd5b506104ae610d18366004615637565b611fcb565b348015610d2957600080fd5b506104ae610d38366004615637565b612088565b348015610d4957600080fd5b5061052160d65481565b348015610d5f57600080fd5b506104fb610d6e36600461558b565b612178565b6104ae610d813660046153cb565b612185565b348015610d9257600080fd5b5060d454610578906001600160a01b031681565b348015610db257600080fd5b506105787f000000000000000000000000000000000000000000000000000000000000000081565b348015610de657600080fd5b50610521612231565b348015610dfb57600080fd5b5060f554610578906001600160a01b031681565b348015610e1b57600080fd5b506105787f000000000000000000000000000000000000000000000000000000000000000081565b348015610e4f57600080fd5b5061052162093a8081565b348015610e6657600080fd5b506104ae6124bc565b348015610e7b57600080fd5b506104ae610e8a366004615667565b61279e565b348015610e9b57600080fd5b50610521610eaa3660046153cb565b612a64565b348015610ebb57600080fd5b506104ae610eca366004615637565b612a81565b348015610edb57600080fd5b506104ae610eea3660046153cb565b612b45565b348015610efb57600080fd5b5061052160f85481565b348015610f1157600080fd5b506105787f000000000000000000000000000000000000000000000000000000000000000081565b348015610f4557600080fd5b506104ae610f54366004615637565b612bd4565b348015610f6557600080fd5b506105787f000000000000000000000000000000000000000000000000000000000000000081565b348015610f9957600080fd5b50610521610fa83660046153e7565b6001600160a01b03918216600090815260986020908152604080832093909416825291909152205490565b348015610fdf57600080fd5b506105787f000000000000000000000000000000000000000000000000000000000000000081565b34801561101357600080fd5b506104ae61102236600461541f565b612c41565b34801561103357600080fd5b5061052160fa5481565b34801561104957600080fd5b506104ae6110583660046153cb565b612e4d565b34801561106957600080fd5b506104ae612f40565b34801561107e57600080fd5b506104ae61108d3660046153cb565b6131be565b6104ae613256565b3480156110a657600080fd5b506110ba6110b53660046153cb565b6132c0565b604080519283526020830191909152016104d2565b3480156110db57600080fd5b5060f654610578906001600160a01b031681565b3480156110fb57600080fd5b5060fe54610578906001600160a01b031681565b34801561111b57600080fd5b506104ae61112a366004615637565b6133a3565b6065546001600160a01b031633146111625760405162461bcd60e51b81526004016111599061592d565b60405180910390fd5b60fe80546001600160a01b0319166001600160a01b0392909216919091179055565b6060609a805461119390615b1e565b80601f01602080910402602001604051908101604052809291908181526020018280546111bf90615b1e565b801561120c5780601f106111e15761010080835404028352916020019161120c565b820191906000526020600020905b8154815290600101906020018083116111ef57829003601f168201915b5050505050905090565b6000611223338484613484565b5060015b92915050565b600260015414156112505760405162461bcd60e51b815260040161115990615962565b60026001556000611260826135a9565b60fd5490915061127090826137b8565b6001600160801b031660fd55505060018055565b60006112918484846137c4565b6001600160a01b0384166000908152609860209081526040808320338452909152902054828110156113165760405162461bcd60e51b815260206004820152602860248201527f45524332303a207472616e7366657220616d6f756e74206578636565647320616044820152676c6c6f77616e636560c01b6064820152608401611159565b6113238533858403613484565b60019150505b9392505050565b600260015414156113535760405162461bcd60e51b815260040161115990615962565b60026001558061138f5760405162461bcd60e51b815260206004820152600760248201526608585b5bdd5b9d60ca1b6044820152606401611159565b6113a561139d8260016137b8565b336000613994565b6113da6001600160a01b037f000000000000000000000000000000000000000000000000000000000000000016333084613c33565b5060018055565b3360008181526098602090815260408083206001600160a01b03871684529091528120549091611223918590611418908690615999565b613484565b60cc5460009060ff610100909104168161145361143960995490565b611441612231565b60d0546001600160801b031685613c9e565b905061146861146185612a64565b8284613cde565b949350505050565b6065546001600160a01b0316331461149a5760405162461bcd60e51b81526004016111599061592d565b600081116114d45760405162461bcd60e51b81526020600482015260076024820152660216e65774361760cc1b6044820152606401611159565b6114dd81613d40565b60ce54604080516001600160681b039092168252602082018390527f5f86edbb9d92228a9edc3f0ebc0f001bda1ea345ac7335e0eeef3504b31d1a1c910160405180910390a160ce80546cffffffffffffffffffffffffff19166001600160681b0392909216919091179055565b6065546001600160a01b031633146115755760405162461bcd60e51b81526004016111599061592d565b6000816001600160801b0316116115bd5760405162461bcd60e51b815260206004820152600c60248201526b21737472696b65507269636560a01b6044820152606401611159565b6001600160801b031660fa5560cf5460f9805461ffff191661ffff909216919091179055565b60d4546001600160a01b0316331461160d5760405162461bcd60e51b8152600401611159906158be565b600260015414156116305760405162461bcd60e51b815260040161115990615962565b600260015560d2546040516358ffbb3d60e01b81526001600160a01b037f000000000000000000000000000000000000000000000000000000000000000081166004830152909116602482015260009073883391710ef00f129ed34d0118249abfb5c73531906358ffbb3d9060440160206040518083038186803b1580156116b757600080fd5b505af41580156116cb573d6000803e3d6000fd5b505050506040513d601f19601f820116820180604052508101906116ef919061564f565b604051632eca54bf60e21b8152600481018290529091506117a6906001600160a01b037f0000000000000000000000000000000000000000000000000000000000000000169063bb2952fc9060240160206040518083038186803b15801561175657600080fd5b505afa15801561176a573d6000803e3d6000fd5b505050506040513d601f19601f8201168201806040525081019061178e919061564f565b60cf546201000090046001600160681b0316906137b8565b60cf805462010000600160781b031916620100006001600160681b039390931692909202919091179055604051631989ea7560e21b81526001600160a01b037f0000000000000000000000000000000000000000000000000000000000000000811660048301527f0000000000000000000000000000000000000000000000000000000000000000811660248301527f000000000000000000000000000000000000000000000000000000000000000016604482015273be12a3f511b5c0fd25c6ce8688e186955c4f3d0290636627a9d49060640160006040518083038186803b15801561189357600080fd5b505af41580156118a7573d6000803e3d6000fd5b505060018055505050565b60d4546001600160a01b031633146118dc5760405162461bcd60e51b8152600401611159906158be565b600260015414156118ff5760405162461bcd60e51b815260040161115990615962565b600260015561190c613d8a565b60018055565b600260015414156119355760405162461bcd60e51b815260040161115990615962565b600260018190555061190c60006001613f25565b6065546001600160a01b031633146119735760405162461bcd60e51b81526004016111599061592d565b611981620f42406064615abc565b81106119cf5760405162461bcd60e51b815260206004820152601760248201527f496e76616c696420706572666f726d616e6365206665650000000000000000006044820152606401611159565b60d55460408051918252602082018390527f24867dfb6fcb9970a07be21024956524abe7a1837faa903ff0e99aaa40cf893e910160405180910390a160d555565b6065546001600160a01b03163314611a3a5760405162461bcd60e51b81526004016111599061592d565b611a4460006140d4565b565b6065546001600160a01b03163314611a705760405162461bcd60e51b81526004016111599061592d565b6001600160a01b038216611ab55760405162461bcd60e51b815260206004820152600c60248201526b085b995dd0dbdb9d1c9858dd60a21b6044820152606401611159565b8015611adc5760f680546001600160a01b0384166001600160a01b03199091161790555050565b60f580546001600160a01b0319166001600160a01b0384161790555b5050565b60d3546040516370a0823160e01b81523060048201527f000000000000000000000000000000000000000000000000000000000000000091611bb1916001600160a01b03918216918416906370a082319060240160206040518083038186803b158015611b6857600080fd5b505afa158015611b7c573d6000803e3d6000fd5b505050506040513d601f19601f82011682018060405250810190611ba0919061564f565b6001600160a01b0384169190614126565b50565b60026001541415611bd75760405162461bcd60e51b815260040161115990615962565b600260015580611c165760405162461bcd60e51b815260206004820152600a602482015269216e756d53686172657360b01b6044820152606401611159565b33600090815260c960205260409020546201000090046001600160681b0316151580611c60575033600090815260c96020526040902054600160781b90046001600160801b031615155b15611c7157611c7160006001613f25565b60cf5433600081815260cb60209081526040918290208054835187815261ffff96871693810184905292959194911685149290917f0c53c82ad07e2d592d88ece3b066777dd60f1118e2a081b380efc4358f0d9e2a910160405180910390a281546201000090046001600160801b031660008215611cfa57611cf3828761415b565b9050611d5d565b8115611d3c5760405162461bcd60e51b81526020600482015260116024820152704578697374696e6720776974686472617760781b6044820152606401611159565b5033600090815260cb60205260409020805461ffff191661ffff8616179055845b611d6681614167565b33600090815260cb6020526040812080546001600160801b03808516620100000262010000600160901b03199092169190911790915560d054611db291600160801b909104168861415b565b9050611dbd81614167565b60d080546001600160801b03808416600160801b029116179055611de23330896137c4565b5050600180555050505050565b6060609b805461119390615b1e565b6000611e33611e0c60995490565b611e14612231565b60d05460cc546001600160801b0390911690610100900460ff16613c9e565b905090565b60026001541415611e5b5760405162461bcd60e51b815260040161115990615962565b600260015580611e9a5760405162461bcd60e51b815260206004820152600a602482015269216e756d526f756e647360b01b6044820152606401611159565b60cf5461ffff1660005b82811015611f29576000611eb88284615999565b600081815260ca602052604090205490915015611f055760405162461bcd60e51b815260206004820152600b60248201526a125b9a5d1a585b1a5e995960aa1b6044820152606401611159565b600090815260ca602052604090206001905580611f2181615b53565b915050611ea4565b50506001805550565b3360009081526098602090815260408083206001600160a01b038616845290915281205482811015611fb45760405162461bcd60e51b815260206004820152602560248201527f45524332303a2064656372656173656420616c6c6f77616e63652062656c6f77604482015264207a65726f60d81b6064820152608401611159565b611fc13385858403613484565b5060019392505050565b6065546001600160a01b03163314611ff55760405162461bcd60e51b81526004016111599061592d565b61012c8110156120475760405162461bcd60e51b815260206004820152601860248201527f496e76616c69642061756374696f6e206475726174696f6e00000000000000006044820152606401611159565b60fb5460408051918252602082018390527f5acd982e2240ed224a69aa03dab039d3797c108e4b5f288cd7dd6ca181b275f3910160405180910390a160fb55565b600260015414156120ab5760405162461bcd60e51b815260040161115990615962565b600260015560fe546001600160a01b0316806120c657600080fd5b600082116120d357600080fd5b33600090815260976020526040902054828110156120ff576120ff6120f884836137b8565b6000613f25565b61210a3330856137c4565b612115308385613484565b6040516383df674760e01b815260048101849052336024820152600060448201526001600160a01b038316906383df674790606401600060405180830381600087803b15801561216457600080fd5b505af1158015611de2573d6000803e3d6000fd5b60006112233384846137c4565b600260015414156121a85760405162461bcd60e51b815260040161115990615962565b6002600155346121e35760405162461bcd60e51b81526020600482015260066024820152652176616c756560d01b6044820152606401611159565b6001600160a01b0381166122255760405162461bcd60e51b815260206004820152600960248201526810b1b932b234ba37b960b91b6044820152606401611159565b6113da34826001613994565b6040516370a0823160e01b815230600482015260009081906001600160a01b037f000000000000000000000000000000000000000000000000000000000000000016906370a082319060240160206040518083038186803b15801561229557600080fd5b505afa1580156122a9573d6000803e3d6000fd5b505050506040513d601f19601f820116820180604052508101906122cd919061564f565b6040516370a0823160e01b815230600482015290915047906000907f00000000000000000000000000000000000000000000000000000000000000006001600160a01b03169063bb2952fc9082906370a082319060240160206040518083038186803b15801561233c57600080fd5b505afa158015612350573d6000803e3d6000fd5b505050506040513d601f19601f82011682018060405250810190612374919061564f565b6040518263ffffffff1660e01b815260040161239291815260200190565b60206040518083038186803b1580156123aa57600080fd5b505afa1580156123be573d6000803e3d6000fd5b505050506040513d601f19601f820116820180604052508101906123e2919061564f565b6040516370a0823160e01b81523060048201529091506000906001600160a01b037f000000000000000000000000000000000000000000000000000000000000000016906370a082319060240160206040518083038186803b15801561244757600080fd5b505afa15801561245b573d6000803e3d6000fd5b505050506040513d601f19601f8201168201806040525081019061247f919061564f565b60cf549091506124b39082906124ad9085908290889082908b906201000090046001600160681b031661415b565b9061415b565b94505050505090565b60d4546001600160a01b031633146124e65760405162461bcd60e51b8152600401611159906158be565b600260015414156125095760405162461bcd60e51b815260040161115990615962565b600260018190555060008061251f60fd546141b1565b60fd81905560405162b0e38960e81b8152600481018290529193509150600090612664907f00000000000000000000000000000000000000000000000000000000000000006001600160a01b03169063b0e389009060240160206040518083038186803b15801561258f57600080fd5b505afa1580156125a3573d6000803e3d6000fd5b505050506040513d601f19601f820116820180604052508101906125c7919061564f565b6040516370a0823160e01b81523060048201527f00000000000000000000000000000000000000000000000000000000000000006001600160a01b0316906370a082319060240160206040518083038186803b15801561262657600080fd5b505afa15801561263a573d6000803e3d6000fd5b505050506040513d601f19601f8201168201806040525081019061265e919061564f565b906137b8565b9050336001600160a01b0316836001600160a01b03167f045c558fdce4714c5816d53820d27420f4cd860892df203fe636384d8d19aa01836040516126ab91815260200190565b60405180910390a3604051632904c23960e01b81526001600160a01b037f0000000000000000000000000000000000000000000000000000000000000000811660048301527f000000000000000000000000000000000000000000000000000000000000000081166024830152841660448201526064810182905273be12a3f511b5c0fd25c6ce8688e186955c4f3d0290632904c2399060840160206040518083038186803b15801561275d57600080fd5b505af4158015612771573d6000803e3d6000fd5b505050506040513d601f19601f82011682018060405250810190612795919061564f565b50611f29613d8a565b600260015414156127c15760405162461bcd60e51b815260040161115990615962565b600260015533600090815260c96020526040902060cf5461ffff16836128135760405162461bcd60e51b815260206004820152600760248201526608585b5bdd5b9d60ca1b6044820152606401611159565b815461ffff1681146128575760405162461bcd60e51b815260206004820152600d60248201526c125b9d985b1a59081c9bdd5b99609a1b6044820152606401611159565b81546201000090046001600160681b0316848110156128a85760405162461bcd60e51b815260206004820152600d60248201526c115e18d9595908185b5bdd5b9d609a1b6044820152606401611159565b6128b281866137b8565b83546001600160681b0391909116620100000262010000600160781b031990911617835560d0546128ec906001600160801b0316866137b8565b60d080546001600160801b0319166001600160801b0392909216919091179055604051633be3450960e11b81526001600160a01b037f0000000000000000000000000000000000000000000000000000000000000000811660048301527f000000000000000000000000000000000000000000000000000000000000000016602482015260448101869052612a1e90339073be12a3f511b5c0fd25c6ce8688e186955c4f3d02906377c68a12906064015b60206040518083038186803b1580156129b557600080fd5b505af41580156129c9573d6000803e3d6000fd5b505050506040513d601f19601f820116820180604052508101906129ed919061564f565b6001600160a01b037f0000000000000000000000000000000000000000000000000000000000000000169190614126565b604080518681526020810184905233917fab2daf3c146ca6416cbccd2a86ed2ba995e171ef6319df14a38aef01403a9c96910160405180910390a2505060018055505050565b6000806000612a72846132c0565b9092509050611468828261415b565b6065546001600160a01b03163314612aab5760405162461bcd60e51b81526004016111599061592d565b600081118015612ac55750612ac2600a6064615abc565b81105b612b045760405162461bcd60e51b815260206004820152601060248201526f125b9d985b1a5908191a5cd8dbdd5b9d60821b6044820152606401611159565b60f75460408051918252602082018390527f4cd657fde404967d63a338fb06c5c98751a9df57dfae6dc333a432faf8a5f656910160405180910390a160f755565b6065546001600160a01b03163314612b6f5760405162461bcd60e51b81526004016111599061592d565b6001600160a01b038116612bb25760405162461bcd60e51b815260206004820152600a60248201526910b732bba5b2b2b832b960b11b6044820152606401611159565b60d480546001600160a01b0319166001600160a01b0392909216919091179055565b60026001541415612bf75760405162461bcd60e51b815260040161115990615962565b600260015580612c365760405162461bcd60e51b815260206004820152600a602482015269216e756d53686172657360b01b6044820152606401611159565b6113da816000613f25565b600054610100900460ff1680612c5a575060005460ff16155b612c765760405162461bcd60e51b8152600401611159906158df565b600054610100900460ff16158015612c98576000805461ffff19166101011790555b612ca88d8d8d8d8d8d8d8961469e565b6001600160a01b038616612cf75760405162461bcd60e51b815260206004820152601660248201527510afb7b83a34b7b739a83932b6b4bab6a83934b1b2b960511b6044820152606401611159565b6001600160a01b038516612d415760405162461bcd60e51b815260206004820152601160248201527010afb9ba3934b5b2a9b2b632b1ba34b7b760791b6044820152606401611159565b60008463ffffffff16118015612d675750612d5e600a6064615abc565b8463ffffffff16105b612da75760405162461bcd60e51b81526020600482015260116024820152700857dc1c995b5a5d5b511a5cd8dbdd5b9d607a1b6044820152606401611159565b61012c831015612ded5760405162461bcd60e51b815260206004820152601160248201527010afb0bab1ba34b7b7223ab930ba34b7b760791b6044820152606401611159565b60f580546001600160a01b038089166001600160a01b03199283161790925560f680549288169290911691909117905563ffffffff841660f75560fb8390558015612e3e576000805461ff00191690555b50505050505050505050505050565b6065546001600160a01b03163314612e775760405162461bcd60e51b81526004016111599061592d565b6001600160a01b038116612ec05760405162461bcd60e51b815260206004820152601060248201526f085b995dd19959549958da5c1a595b9d60821b6044820152606401611159565b60d3546001600160a01b0382811691161415612f1e5760405162461bcd60e51b815260206004820152601860248201527f4d757374206265206e657720666565526563697069656e7400000000000000006044820152606401611159565b60d380546001600160a01b0319166001600160a01b0392909216919091179055565b60026001541415612f635760405162461bcd60e51b815260040161115990615962565b600260015560d2546040805160c0810182526001600160a01b037f0000000000000000000000000000000000000000000000000000000000000000811682527f00000000000000000000000000000000000000000000000000000000000000008116602083015292831681830181905260006060830181905260f95461ffff16608084015260fa5460a084015260f65460f55460f75495516303a20e3d60e01b815293969495929485948594859473be12a3f511b5c0fd25c6ce8688e186955c4f3d02946303a20e3d9461306a94928116939116918b9060cc9060cf907f000000000000000000000000000000000000000000000000000000000000000090600401615813565b60806040518083038186803b15801561308257600080fd5b505af4158015613096573d6000803e3d6000fd5b505050506040513d601f19601f820116820180604052508101906130ba91906155b6565b93509350935093507fa217999b1c125c2a996f712c5f26a28addad7167bd8a67d5bd5b2a751148abb082826040516130fc929190918252602082015260400190565b60405180910390a161310d83613d40565b6001600160681b03831660f85560d180546001600160a01b0319166001600160a01b0386161790556000613141428261415b565b905063ffffffff8111156131975760405162461bcd60e51b815260206004820152601860248201527f4f766572666c6f77206e6578744f7074696f6e526561647900000000000000006044820152606401611159565b60d2805463ffffffff60a01b1916600160a01b63ffffffff841602179055611de287614866565b6065546001600160a01b031633146131e85760405162461bcd60e51b81526004016111599061592d565b6001600160a01b03811661324d5760405162461bcd60e51b815260206004820152602660248201527f4f776e61626c653a206e6577206f776e657220697320746865207a65726f206160448201526564647265737360d01b6064820152608401611159565b611bb1816140d4565b600260015414156132795760405162461bcd60e51b815260040161115990615962565b6002600155346132b45760405162461bcd60e51b81526020600482015260066024820152652176616c756560d01b6044820152606401611159565b61190c34336001613994565b6001600160a01b038116600090815260c9602090815260408083208151606081018352905461ffff81168083526201000082046001600160681b031694830194909452600160781b90046001600160801b031691810191909152829160011115613342575050506001600160a01b031660009081526097602052604081205491565b60cf54815161ffff908116600090815260ca602052604081205460cc54919361337893869391169190610100900460ff166149d8565b9050613399856001600160a01b031660009081526097602052604090205490565b9590945092505050565b6065546001600160a01b031633146133cd5760405162461bcd60e51b81526004016111599061592d565b6133db620f42406064615abc565b81106134225760405162461bcd60e51b8152602060048201526016602482015275496e76616c6964206d616e6167656d656e742066656560501b6044820152606401611159565b600061343f63031ba30961343984620f4240614a49565b90614a55565b60d65460408051918252602082018590529192507f4e874b007ab14f7e263baefd44951834c8266f4f224d1092e49e9c254354cc54910160405180910390a160d65550565b6001600160a01b0383166134e65760405162461bcd60e51b8152602060048201526024808201527f45524332303a20617070726f76652066726f6d20746865207a65726f206164646044820152637265737360e01b6064820152608401611159565b6001600160a01b0382166135475760405162461bcd60e51b815260206004820152602260248201527f45524332303a20617070726f766520746f20746865207a65726f206164647265604482015261737360f01b6064820152608401611159565b6001600160a01b0383811660008181526098602090815260408083209487168084529482529182902085905590518481527f8c5be1e5ebec7d5bd14f71427d1e84f3dd0314c0f7b2291e5b200ac8c7c3b92591015b60405180910390a3505050565b33600090815260cb6020526040812080546001600160801b03620100008204169061ffff168161360b5760405162461bcd60e51b815260206004820152600d60248201526c139bdd081a5b9a5d1a585d1959609a1b6044820152606401611159565b60cf5461ffff1681106136535760405162461bcd60e51b815260206004820152601060248201526f149bdd5b99081b9bdd0818db1bdcd95960821b6044820152606401611159565b33600090815260cb60205260409020805462010000600160901b031916905560d05461368f90600160801b90046001600160801b0316836137b8565b60d080546001600160801b03928316600160801b029216919091179055600081815260ca602052604081205460cc546136d291859160ff61010090910416613cde565b604051633be3450960e11b81526001600160a01b037f0000000000000000000000000000000000000000000000000000000000000000811660048301527f00000000000000000000000000000000000000000000000000000000000000001660248201526044810182905290915061376a90339073be12a3f511b5c0fd25c6ce8688e186955c4f3d02906377c68a129060640161299d565b604080518281526020810185905233917ff279e6a1f5e320cca91135676d9cb6e44ca8a08c0b88342bcdb1144f6511b568910160405180910390a26137af3084614a61565b95945050505050565b60006113298284615adb565b6001600160a01b0383166138285760405162461bcd60e51b815260206004820152602560248201527f45524332303a207472616e736665722066726f6d20746865207a65726f206164604482015264647265737360d81b6064820152608401611159565b6001600160a01b03821661388a5760405162461bcd60e51b815260206004820152602360248201527f45524332303a207472616e7366657220746f20746865207a65726f206164647260448201526265737360e81b6064820152608401611159565b6001600160a01b038316600090815260976020526040902054818110156139025760405162461bcd60e51b815260206004820152602660248201527f45524332303a207472616e7366657220616d6f756e7420657863656564732062604482015265616c616e636560d01b6064820152608401611159565b6001600160a01b03808516600090815260976020526040808220858503905591851681529081208054849290613939908490615999565b92505081905550826001600160a01b0316846001600160a01b03167fddf252ad1be2c89b69c2b068fc378daa952ba7f163c4a11628f55a4df523b3ef8460405161398591815260200190565b60405180910390a35b50505050565b60cf5461ffff166000826139b3576139ae856124ad612231565b6139bb565b6139bb612231565b60ce549091506001600160681b0316811115613a065760405162461bcd60e51b815260206004820152600a6024820152690457863656564206361760b41b6044820152606401611159565b60cd54600160a01b900466ffffffffffffff16811015613a5f5760405162461bcd60e51b8152602060048201526014602482015273496e73756666696369656e742062616c616e636560601b6044820152606401611159565b60408051868152602081018490526001600160a01b038616917f90890809c654f11d6e72a28fa60149770a0d11ec6c92319d6ceb2bb0a4ea1a15910160405180910390a26001600160a01b038416600090815260c9602090815260408083208151606081018352905461ffff81168083526201000082046001600160681b031683860152600160781b9091046001600160801b031682840152845260ca90925282205460cc54919291613b1e918491879190610100900460ff166149d8565b8251909150879061ffff16851415613b4f576020830151600090613b4b906001600160681b03168a61415b565b9150505b613b5881613d40565b6040805160608101825261ffff80881682526001600160681b0380851660208085019182526001600160801b038089168688019081526001600160a01b038f16600090815260c990935296822095518654935197518216600160781b02600160781b600160f81b03199890951662010000026effffffffffffffffffffffffffffff1990941695169490941791909117949094161790915560d054613bfe91168a61415b565b9050613c0981614167565b60d080546001600160801b0319166001600160801b03929092169190911790555050505050505050565b6040516001600160a01b038085166024830152831660448201526064810182905261398e9085906323b872dd60e01b906084015b60408051601f198184030181529190526020810180516001600160e01b03166001600160e01b031990931692909217909152614baf565b600080613cac83600a615a14565b905060008611613cbc5780613cd4565b613cd486613439613ccd88886137b8565b8490614a49565b9695505050505050565b600060018311613d285760405162461bcd60e51b8152602060048201526015602482015274496e76616c6964206173736574506572536861726560581b6044820152606401611159565b611468613d3683600a615a14565b6134398686614a49565b6001600160681b03811115611bb15760405162461bcd60e51b815260206004820152601060248201526f13dd995c999b1bddc81d5a5b9d0c4c0d60821b6044820152606401611159565b6040805160c081018252600080825260208201819052918101829052606081018290526080810182905260a081019190915260f85480613e045760405162461bcd60e51b81526020600482015260156024820152742163757272656e744f746f6b656e5072656d69756d60581b6044820152606401611159565b60d2546001600160a01b0390811683527f000000000000000000000000000000000000000000000000000000000000000081166020840190815260cc546201000081048316604080870191825261010090920460ff16606087019081526080870186815260fb5460a089019081529351633baf17fd60e21b8152885187166004820152945186166024860152915190941660448401529251606483015291516084820152905160a482015273883391710ef00f129ed34d0118249abfb5c735319063eebc5ff49060c40160206040518083038186803b158015613ee657600080fd5b505af4158015613efa573d6000803e3d6000fd5b505050506040513d601f19601f82011682018060405250810190613f1e919061564f565b60fc555050565b33600090815260c9602090815260408083208151606081018352905461ffff8082168084526201000083046001600160681b031684870152600160781b9092046001600160801b03168385015260cf5491865260ca9094529184205460cc5491949290931692613fa09185918591610100900460ff166149d8565b905083613fad5784613faf565b805b945084613fbd575050505050565b808511156140015760405162461bcd60e51b81526020600482015260116024820152704578636565647320617661696c61626c6560781b6044820152606401611159565b825161ffff1682111561402e5733600090815260c960205260409020805462010000600160781b03191690555b61403785614167565b61404181866137b8565b33600081815260c960205260409081902080546001600160801b0394909416600160781b02600160781b600160f81b0319909416939093179092558451915190917fe5b754fb1abb7f01b499791d0b820ae3b6af3424ac1c59768edb53f4ec31a929916140ba9189825261ffff16602082015260400190565b60405180910390a26140cd3033876137c4565b5050505050565b606580546001600160a01b038381166001600160a01b0319831681179093556040519116919082907f8be0079c531659141344cd1fd0a4f28419497f9722a3daafe3b4186f6b6457e090600090a35050565b6040516001600160a01b03831660248201526044810182905261415690849063a9059cbb60e01b90606401613c67565b505050565b60006113298284615999565b6001600160801b03811115611bb15760405162461bcd60e51b815260206004820152601060248201526f09eeccae4ccd8deee40ead2dce86264760831b6044820152606401611159565b60d2546000908190600160a01b900463ffffffff164210156141fe5760405162461bcd60e51b815260206004820152600660248201526521726561647960d01b6044820152606401611159565b60d1546001600160a01b0316806142455760405162461bcd60e51b815260206004820152600b60248201526a10b732bc3a27b83a34b7b760a91b6044820152606401611159565b60008060008060008073883391710ef00f129ed34d0118249abfb5c7353163633c142660cf6040518060c0016040528060cc60000160019054906101000a900460ff1660ff168152602001614298612231565b81526020016142a660995490565b81526020018e815260200160d554815260200160d6548152506040518363ffffffff1660e01b8152600401614322929190600060e08201905083825282516020830152602083015160408301526040830151606083015260608301516080830152608083015160a083015260a083015160c08301529392505050565b60c06040518083038186803b15801561433a57600080fd5b505af415801561434e573d6000803e3d6000fd5b505050506040513d601f19601f820116820180604052508101906143729190615688565b9550955095509550955095508660d160010160006101000a8154816001600160a01b0302191690836001600160a01b03160217905550600060d160000160006101000a8154816001600160a01b0302191690836001600160a01b03160217905550600060d360009054906101000a90046001600160a01b0316905060007f00000000000000000000000000000000000000000000000000000000000000009050600060cf60000160009054906101000a900461ffff1661ffff1690508660ca60008381526020019081526020016000208190555073be12a3f511b5c0fd25c6ce8688e186955c4f3d02636627a9d47f0000000000000000000000000000000000000000000000000000000000000000847f00000000000000000000000000000000000000000000000000000000000000006040518463ffffffff1660e01b81526004016144df939291906001600160a01b0393841681529183166020830152909116604082015260600190565b60006040518083038186803b1580156144f757600080fd5b505af415801561450b573d6000803e3d6000fd5b505060408051888152602081018890529081018490526001600160a01b03861692507f0a242f7ecaf711036ca770774ceffae28e60ef042ac113ddd187f2631db0c006915060600160405180910390a260d080546001600160801b0319169055614576816001615999565b60cf805461ffff191661ffff9290921691909117905561459589613d40565b60cf805462010000600160781b031916620100006001600160681b038c16021790556145c13087614c81565b831561468b576040516305ffc87f60e31b81526001600160a01b0380841660048301527f000000000000000000000000000000000000000000000000000000000000000081166024830152841660448201526064810185905273be12a3f511b5c0fd25c6ce8688e186955c4f3d0290632ffe43f89060840160206040518083038186803b15801561465157600080fd5b505af4158015614665573d6000803e3d6000fd5b505050506040513d601f19601f82011682018060405250810190614689919061564f565b505b50979b959a509498505050505050505050565b600054610100900460ff16806146b7575060005460ff16155b6146d35760405162461bcd60e51b8152600401611159906158df565b600054610100900460ff161580156146f5576000805461ffff19166101011790555b60405163c72733f760e01b815273883391710ef00f129ed34d0118249abfb5c735319063c72733f79061473a908c908c908c908b908d908c908c908c90600401615719565b60006040518083038186803b15801561475257600080fd5b505af4158015614766573d6000803e3d6000fd5b50505050614772614d60565b61477c8484614dd3565b614784614e52565b61478d896131be565b60d480546001600160a01b03808b166001600160a01b03199283161790925560d38054928a169290911691909117905560d58590556147d763031ba30961343988620f4240614a49565b60d6558160cc6147e78282615bc1565b90505060006147f4612231565b90506147ff81613d40565b60cf805461ffff196001600160681b03909316600160781b02929092167fffffffff00000000000000000000000000ffffffffffffffffffffffffff0000909216919091176001179055801561485b576000805461ff00191690555b505050505050505050565b60cf546201000090046001600160681b03166001600160a01b038216156148b25760cf80546cffffffffffffffffffffffffff60781b1916600160781b6001600160681b038416021790555b60cf805462010000600160781b031916905560d280546001600160a01b03191690556001600160a01b03821615611af857604051636c6fe87f60e11b81526001600160a01b037f000000000000000000000000000000000000000000000000000000000000000016600482015260009073883391710ef00f129ed34d0118249abfb5c735319063d8dfd0fe9060240160206040518083038186803b15801561495957600080fd5b505af415801561496d573d6000803e3d6000fd5b505050506040513d601f19601f82011682018060405250810190614991919061564f565b9050336001600160a01b0316836001600160a01b03167f7e830f7c1771deb1bdb35c4a7e6051bbac32b376f7f4e4976b8618b0b11997f78360405161359c91815260200190565b835160009061ffff16158015906149f35750845161ffff1684115b15614a35576000614a1286602001516001600160681b03168585614eb9565b6040870151909150614a2d906001600160801b03168261415b565b915050611468565b50505050604001516001600160801b031690565b60006113298284615abc565b600061132982846159b1565b6001600160a01b038216614ac15760405162461bcd60e51b815260206004820152602160248201527f45524332303a206275726e2066726f6d20746865207a65726f206164647265736044820152607360f81b6064820152608401611159565b6001600160a01b03821660009081526097602052604090205481811015614b355760405162461bcd60e51b815260206004820152602260248201527f45524332303a206275726e20616d6f756e7420657863656564732062616c616e604482015261636560f01b6064820152608401611159565b6001600160a01b0383166000908152609760205260408120838303905560998054849290614b64908490615adb565b90915550506040518281526000906001600160a01b038516907fddf252ad1be2c89b69c2b068fc378daa952ba7f163c4a11628f55a4df523b3ef9060200160405180910390a3505050565b6000614c04826040518060400160405280602081526020017f5361666545524332303a206c6f772d6c6576656c2063616c6c206661696c6564815250856001600160a01b0316614f1c9092919063ffffffff16565b8051909150156141565780806020019051810190614c2291906155f4565b6141565760405162461bcd60e51b815260206004820152602a60248201527f5361666545524332303a204552433230206f7065726174696f6e20646964206e6044820152691bdd081cdd58d8d9595960b21b6064820152608401611159565b6001600160a01b038216614cd75760405162461bcd60e51b815260206004820152601f60248201527f45524332303a206d696e7420746f20746865207a65726f2061646472657373006044820152606401611159565b8060996000828254614ce99190615999565b90915550506001600160a01b03821660009081526097602052604081208054839290614d16908490615999565b90915550506040518181526001600160a01b038316906000907fddf252ad1be2c89b69c2b068fc378daa952ba7f163c4a11628f55a4df523b3ef9060200160405180910390a35050565b600054610100900460ff1680614d79575060005460ff16155b614d955760405162461bcd60e51b8152600401611159906158df565b600054610100900460ff16158015614db7576000805461ffff19166101011790555b614dbf614f2b565b8015611bb1576000805461ff001916905550565b600054610100900460ff1680614dec575060005460ff16155b614e085760405162461bcd60e51b8152600401611159906158df565b600054610100900460ff16158015614e2a576000805461ffff19166101011790555b614e32614f9a565b614e3c8383615004565b8015614156576000805461ff0019169055505050565b600054610100900460ff1680614e6b575060005460ff16155b614e875760405162461bcd60e51b8152600401611159906158df565b600054610100900460ff16158015614ea9576000805461ffff19166101011790555b614eb1614f9a565b614dbf615099565b600060018311614f035760405162461bcd60e51b8152602060048201526015602482015274496e76616c6964206173736574506572536861726560581b6044820152606401611159565b61146883613439614f1585600a615a14565b8790614a49565b606061146884846000856150f9565b600054610100900460ff1680614f44575060005460ff16155b614f605760405162461bcd60e51b8152600401611159906158df565b600054610100900460ff16158015614f82576000805461ffff19166101011790555b600180558015611bb1576000805461ff001916905550565b600054610100900460ff1680614fb3575060005460ff16155b614fcf5760405162461bcd60e51b8152600401611159906158df565b600054610100900460ff16158015614dbf576000805461ffff19166101011790558015611bb1576000805461ff001916905550565b600054610100900460ff168061501d575060005460ff16155b6150395760405162461bcd60e51b8152600401611159906158df565b600054610100900460ff1615801561505b576000805461ffff19166101011790555b825161506e90609a90602086019061525a565b50815161508290609b90602085019061525a565b508015614156576000805461ff0019169055505050565b600054610100900460ff16806150b2575060005460ff16155b6150ce5760405162461bcd60e51b8152600401611159906158df565b600054610100900460ff161580156150f0576000805461ffff19166101011790555b614dbf336140d4565b60608247101561515a5760405162461bcd60e51b815260206004820152602660248201527f416464726573733a20696e73756666696369656e742062616c616e636520666f6044820152651c8818d85b1b60d21b6064820152608401611159565b843b6151a85760405162461bcd60e51b815260206004820152601d60248201527f416464726573733a2063616c6c20746f206e6f6e2d636f6e74726163740000006044820152606401611159565b600080866001600160a01b031685876040516151c491906156fd565b60006040518083038185875af1925050503d8060008114615201576040519150601f19603f3d011682016040523d82523d6000602084013e615206565b606091505b5091509150615216828286615221565b979650505050505050565b60608315615230575081611329565b8251156152405782518084602001fd5b8160405162461bcd60e51b815260040161115991906158ab565b82805461526690615b1e565b90600052602060002090601f01602090048101928261528857600085556152ce565b82601f106152a157805160ff19168380011785556152ce565b828001600101855582156152ce579182015b828111156152ce5782518255916020019190600101906152b3565b506152da9291506152de565b5090565b5b808211156152da57600081556001016152df565b80356152fe81615cd2565b919050565b600082601f830112615313578081fd5b813567ffffffffffffffff8082111561532e5761532e615b84565b604051601f8301601f19908116603f0116810190828211818310171561535657615356615b84565b8160405283815286602085880101111561536e578485fd5b8360208701602083013792830160200193909352509392505050565b600060c0828403121561539b578081fd5b50919050565b80356152fe81615cf5565b803563ffffffff811681146152fe57600080fd5b80356152fe81615d0a565b6000602082840312156153dc578081fd5b813561132981615cd2565b600080604083850312156153f9578081fd5b823561540481615cd2565b9150602083013561541481615cd2565b809150509250929050565b6000806000806000806000806000806000806102208d8f031215615441578788fd5b61544a8d6152f3565b9b5061545860208e016152f3565b9a5061546660408e016152f3565b995060608d0135985060808d0135975067ffffffffffffffff60a08e0135111561548e578687fd5b61549e8e60a08f01358f01615303565b965067ffffffffffffffff60c08e013511156154b8578586fd5b6154c88e60c08f01358f01615303565b95506154d660e08e016152f3565b94506154e56101008e016152f3565b93506154f46101208e016153ac565b92506101408d0135915061550c8e6101608f0161538a565b90509295989b509295989b509295989b565b600080600060608486031215615532578283fd5b833561553d81615cd2565b9250602084013561554d81615cd2565b929592945050506040919091013590565b60008060408385031215615570578182fd5b823561557b81615cd2565b9150602083013561541481615ce7565b6000806040838503121561559d578182fd5b82356155a881615cd2565b946020939093013593505050565b600080600080608085870312156155cb578384fd5b84516155d681615cd2565b60208601516040870151606090970151919890975090945092505050565b600060208284031215615605578081fd5b815161132981615ce7565b600060208284031215615621578081fd5b81356001600160801b0381168114611329578182fd5b600060208284031215615648578081fd5b5035919050565b600060208284031215615660578081fd5b5051919050565b60008060408385031215615679578182fd5b50508035926020909101359150565b60008060008060008060c087890312156156a0578384fd5b865195506020870151945060408701519350606087015192506080870151915060a087015190509295509295509295565b600081518084526156e9816020860160208601615af2565b601f01601f19169290920160200192915050565b6000825161570f818460208701615af2565b9190910192915050565b60006101a060018060a01b03808c168452808b166020850152808a1660408501528860608501528760808501528160a0850152615758828501886156d1565b915083820360c085015261576c82876156d1565b92508435915061577b82615ce7565b90151560e084015260208401359061579282615d1f565b60ff8216610100850152604085013591506157ac82615cd2565b166101208301526157bf606084016152f3565b6001600160a01b03166101408301526157da608084016153c0565b66ffffffffffffff166101608301526157f560a084016153a1565b6001600160681b038116610180840152509998505050505050505050565b60006101808201905060018060a01b03808a16835280891660208401528760408401528087511660608401528060208801511660808401528060408801511660a084015250606086015160c083015261ffff60808701511660e083015260a0860151610100830152846101208301528361014083015261589f6101608301846001600160a01b03169052565b98975050505050505050565b60208152600061132960208301846156d1565b60208082526007908201526610b5b2b2b832b960c91b604082015260600190565b6020808252602e908201527f496e697469616c697a61626c653a20636f6e747261637420697320616c72656160408201526d191e481a5b9a5d1a585b1a5e995960921b606082015260800190565b6020808252818101527f4f776e61626c653a2063616c6c6572206973206e6f7420746865206f776e6572604082015260600190565b6020808252601f908201527f5265656e7472616e637947756172643a207265656e7472616e742063616c6c00604082015260600190565b600082198211156159ac576159ac615b6e565b500190565b6000826159cc57634e487b7160e01b81526012600452602481fd5b500490565b600181815b80851115615a0c5781600019048211156159f2576159f2615b6e565b808516156159ff57918102915b93841c93908002906159d6565b509250929050565b60006113298383600082615a2a57506001611227565b81615a3757506000611227565b8160018114615a4d5760028114615a5757615a73565b6001915050611227565b60ff841115615a6857615a68615b6e565b50506001821b611227565b5060208310610133831016604e8410600b8410161715615a96575081810a611227565b615aa083836159d1565b8060001904821115615ab457615ab4615b6e565b029392505050565b6000816000190483118215151615615ad657615ad6615b6e565b500290565b600082821015615aed57615aed615b6e565b500390565b60005b83811015615b0d578181015183820152602001615af5565b8381111561398e5750506000910152565b600181811c90821680615b3257607f821691505b6020821081141561539b57634e487b7160e01b600052602260045260246000fd5b6000600019821415615b6757615b67615b6e565b5060010190565b634e487b7160e01b600052601160045260246000fd5b634e487b7160e01b600052604160045260246000fd5b6000813561122781615cd2565b6000813561122781615cf5565b6000813561122781615d0a565b8135615bcc81615ce7565b815460ff19811691151560ff1691821783556020840135615bec81615d1f565b61ff008160081b169050808361ffff198416171784556040850135615c1081615cd2565b6001600160b01b0319929092169092179190911760109190911b62010000600160b01b031617815560018101615c68615c4b60608501615b9a565b82546001600160a01b0319166001600160a01b0391909116178255565b615ca1615c7760808501615bb4565b82805466ffffffffffffff60a01b191660a09290921b66ffffffffffffff60a01b16919091179055565b50611af8615cb160a08401615ba7565b600283016001600160681b0382166001600160681b03198254161781555050565b6001600160a01b0381168114611bb157600080fd5b8015158114611bb157600080fd5b6001600160681b0381168114611bb157600080fd5b66ffffffffffffff81168114611bb157600080fd5b60ff81168114611bb157600080fdfea264697066735822122033dd0747004325dd6aa1b78981da36fa1928eddeb21673ae6eeb735550fc2b1564736f6c63430008040033",
  "deployedBytecode": "0x6080604052600436106104895760003560e01c80638da5cb5b11610255578063b9f8092b11610144578063e00bfe50116100c1578063f2fde38b11610085578063f2fde38b14611072578063f6326fb314611092578063f656ba511461109a578063f957a067146110cf578063f9a0be68146110ef578063fe56e2321461110f57600080fd5b8063e00bfe5014610fd3578063e16fdbd514611007578063e73c63d514611027578063e74b981b1461103d578063ea00b1ca1461105d57600080fd5b8063d5f2638211610108578063d5f2638214610eef578063d88bba1114610f05578063db006a7514610f39578063db43e86214610f59578063dd62ed3e14610f8d57600080fd5b8063b9f8092b14610e5a578063c632183914610e6f578063ce7c2ac214610e8f578063d13f1b3e14610eaf578063d164cc1514610ecf57600080fd5b8063a694fc3a116101d2578063ad5c464811610196578063ad5c464814610da6578063ad7a672f14610dda578063afa6626414610def578063b2016bd414610e0f578063b4d1d79514610e4357600080fd5b8063a694fc3a14610d1d578063a6f7f5d614610d3d578063a9059cbb14610d53578063aa67c91914610d73578063aced166114610d8657600080fd5b8063a083ff1711610219578063a083ff1714610c3a578063a285c9e814610c9d578063a2db9d8314610cbf578063a457c2d714610cdd578063a497e67414610cfd57600080fd5b80638da5cb5b14610b2657806395d89b4114610b4457806399530b0614610b595780639be43daa14610b6e5780639fcc2d7514610b8e57600080fd5b8063503c70aa1161037c57806370a08231116102f95780637e108d52116102bd5780637e108d5214610a5b57806383536ff314610a7b57806387153eb114610a915780638778878214610abe57806389a3027114610ad45780638b10cc7c14610b0857600080fd5b806370a0823114610977578063715018a6146109ad5780637400173d146109c25780637a9262a2146109e25780637bf5108614610a4657600080fd5b806369b411701161034057806369b41170146108e45780636b64c769146108f95780636c10f66c1461090e5780636f31ab341461094257806370897b231461095757600080fd5b8063503c70aa146107e157806355489bb2146107f7578063600a2cfb14610817578063650cce8a1461082c5780636719b2ee1461086057600080fd5b806331807e421161040a5780633f90916a116103ce5780633f90916a14610739578063432833a614610757578063469048401461076d57806347786d371461078d5780634f6e746d146107ad57600080fd5b806331807e421461068d578063355274ea146106ad57806339509351146106cb5780633ec143d3146106eb5780633f23bb731461071957600080fd5b80631a92f6c2116104515780631a92f6c2146105445780632087ed5c1461059057806323b872dd146105b05780632728f333146105d0578063313ce5671461066357600080fd5b8063048bf0851461048e57806306fdde03146104b0578063095ea7b3146104db5780630cbf54c81461050b57806318160ddd1461052f575b600080fd5b34801561049a57600080fd5b506104ae6104a93660046153cb565b61112f565b005b3480156104bc57600080fd5b506104c5611184565b6040516104d291906158ab565b60405180910390f35b3480156104e757600080fd5b506104fb6104f636600461558b565b611216565b60405190151581526020016104d2565b34801561051757600080fd5b5061052160fb5481565b6040519081526020016104d2565b34801561053b57600080fd5b50609954610521565b34801561055057600080fd5b506105787f000000000000000000000000000000000000000000000000000000000000000081565b6040516001600160a01b0390911681526020016104d2565b34801561059c57600080fd5b506104ae6105ab366004615637565b61122d565b3480156105bc57600080fd5b506104fb6105cb36600461551e565b611284565b3480156105dc57600080fd5b5060cf5460d05461061e9161ffff8116916001600160681b03620100008304811692600160781b900416906001600160801b0380821691600160801b90041685565b6040805161ffff90961686526001600160681b03948516602087015293909216928401929092526001600160801b03918216606084015216608082015260a0016104d2565b34801561066f57600080fd5b5060cc54610100900460ff1660405160ff90911681526020016104d2565b34801561069957600080fd5b506104ae6106a8366004615637565b611330565b3480156106b957600080fd5b5060ce546001600160681b0316610521565b3480156106d757600080fd5b506104fb6106e636600461558b565b6113e1565b3480156106f757600080fd5b5060f9546107069061ffff1681565b60405161ffff90911681526020016104d2565b34801561072557600080fd5b506105216107343660046153cb565b61141d565b34801561074557600080fd5b5060d0546001600160801b0316610521565b34801561076357600080fd5b5061052160fc5481565b34801561077957600080fd5b5060d354610578906001600160a01b031681565b34801561079957600080fd5b506104ae6107a8366004615637565b611470565b3480156107b957600080fd5b506105787f000000000000000000000000000000000000000000000000000000000000000081565b3480156107ed57600080fd5b5061052160fd5481565b34801561080357600080fd5b506104ae610812366004615610565b61154b565b34801561082357600080fd5b506104ae6115e3565b34801561083857600080fd5b506105787f000000000000000000000000000000000000000000000000000000000000000081565b34801561086c57600080fd5b506108b361087b3660046153cb565b60c96020526000908152604090205461ffff8116906201000081046001600160681b031690600160781b90046001600160801b031683565b6040805161ffff90941684526001600160681b0390921660208401526001600160801b0316908201526060016104d2565b3480156108f057600080fd5b50610521600081565b34801561090557600080fd5b506104ae6118b2565b34801561091a57600080fd5b506105787f000000000000000000000000000000000000000000000000000000000000000081565b34801561094e57600080fd5b506104ae611912565b34801561096357600080fd5b506104ae610972366004615637565b611949565b34801561098357600080fd5b506105216109923660046153cb565b6001600160a01b031660009081526097602052604090205490565b3480156109b957600080fd5b506104ae611a10565b3480156109ce57600080fd5b506104ae6109dd36600461555e565b611a46565b3480156109ee57600080fd5b50610a246109fd3660046153cb565b60cb6020526000908152604090205461ffff8116906201000090046001600160801b031682565b6040805161ffff90931683526001600160801b039091166020830152016104d2565b348015610a5257600080fd5b506104ae611afc565b348015610a6757600080fd5b506104ae610a76366004615637565b611bb4565b348015610a8757600080fd5b5061052160f75481565b348015610a9d57600080fd5b50610521610aac366004615637565b60ca6020526000908152604090205481565b348015610aca57600080fd5b5061052160d55481565b348015610ae057600080fd5b506105787f000000000000000000000000000000000000000000000000000000000000000081565b348015610b1457600080fd5b5060d2546001600160a01b0316610578565b348015610b3257600080fd5b506065546001600160a01b0316610578565b348015610b5057600080fd5b506104c5611def565b348015610b6557600080fd5b50610521611dfe565b348015610b7a57600080fd5b506104ae610b89366004615637565b611e38565b348015610b9a57600080fd5b5060cc5460cd5460ce54610bea9260ff808216936101008304909116926001600160a01b036201000090930483169282169166ffffffffffffff600160a01b90910416906001600160681b031686565b60408051961515875260ff90951660208701526001600160a01b03938416948601949094529116606084015266ffffffffffffff1660808301526001600160681b031660a082015260c0016104d2565b348015610c4657600080fd5b5060d15460d254610c71916001600160a01b039081169190811690600160a01b900463ffffffff1683565b604080516001600160a01b03948516815293909216602084015263ffffffff16908201526060016104d2565b348015610ca957600080fd5b5060d254600160a01b900463ffffffff16610521565b348015610ccb57600080fd5b5060d1546001600160a01b0316610578565b348015610ce957600080fd5b506104fb610cf836600461558b565b611f32565b348015610d0957600080fd5b506104ae610d18366004615637565b611fcb565b348015610d2957600080fd5b506104ae610d38366004615637565b612088565b348015610d4957600080fd5b5061052160d65481565b348015610d5f57600080fd5b506104fb610d6e36600461558b565b612178565b6104ae610d813660046153cb565b612185565b348015610d9257600080fd5b5060d454610578906001600160a01b031681565b348015610db257600080fd5b506105787f000000000000000000000000000000000000000000000000000000000000000081565b348015610de657600080fd5b50610521612231565b348015610dfb57600080fd5b5060f554610578906001600160a01b031681565b348015610e1b57600080fd5b506105787f000000000000000000000000000000000000000000000000000000000000000081565b348015610e4f57600080fd5b5061052162093a8081565b348015610e6657600080fd5b506104ae6124bc565b348015610e7b57600080fd5b506104ae610e8a366004615667565b61279e565b348015610e9b57600080fd5b50610521610eaa3660046153cb565b612a64565b348015610ebb57600080fd5b506104ae610eca366004615637565b612a81565b348015610edb57600080fd5b506104ae610eea3660046153cb565b612b45565b348015610efb57600080fd5b5061052160f85481565b348015610f1157600080fd5b506105787f000000000000000000000000000000000000000000000000000000000000000081565b348015610f4557600080fd5b506104ae610f54366004615637565b612bd4565b348015610f6557600080fd5b506105787f000000000000000000000000000000000000000000000000000000000000000081565b348015610f9957600080fd5b50610521610fa83660046153e7565b6001600160a01b03918216600090815260986020908152604080832093909416825291909152205490565b348015610fdf57600080fd5b506105787f000000000000000000000000000000000000000000000000000000000000000081565b34801561101357600080fd5b506104ae61102236600461541f565b612c41565b34801561103357600080fd5b5061052160fa5481565b34801561104957600080fd5b506104ae6110583660046153cb565b612e4d565b34801561106957600080fd5b506104ae612f40565b34801561107e57600080fd5b506104ae61108d3660046153cb565b6131be565b6104ae613256565b3480156110a657600080fd5b506110ba6110b53660046153cb565b6132c0565b604080519283526020830191909152016104d2565b3480156110db57600080fd5b5060f654610578906001600160a01b031681565b3480156110fb57600080fd5b5060fe54610578906001600160a01b031681565b34801561111b57600080fd5b506104ae61112a366004615637565b6133a3565b6065546001600160a01b031633146111625760405162461bcd60e51b81526004016111599061592d565b60405180910390fd5b60fe80546001600160a01b0319166001600160a01b0392909216919091179055565b6060609a805461119390615b1e565b80601f01602080910402602001604051908101604052809291908181526020018280546111bf90615b1e565b801561120c5780601f106111e15761010080835404028352916020019161120c565b820191906000526020600020905b8154815290600101906020018083116111ef57829003601f168201915b5050505050905090565b6000611223338484613484565b5060015b92915050565b600260015414156112505760405162461bcd60e51b815260040161115990615962565b60026001556000611260826135a9565b60fd5490915061127090826137b8565b6001600160801b031660fd55505060018055565b60006112918484846137c4565b6001600160a01b0384166000908152609860209081526040808320338452909152902054828110156113165760405162461bcd60e51b815260206004820152602860248201527f45524332303a207472616e7366657220616d6f756e74206578636565647320616044820152676c6c6f77616e636560c01b6064820152608401611159565b6113238533858403613484565b60019150505b9392505050565b600260015414156113535760405162461bcd60e51b815260040161115990615962565b60026001558061138f5760405162461bcd60e51b815260206004820152600760248201526608585b5bdd5b9d60ca1b6044820152606401611159565b6113a561139d8260016137b8565b336000613994565b6113da6001600160a01b037f000000000000000000000000000000000000000000000000000000000000000016333084613c33565b5060018055565b3360008181526098602090815260408083206001600160a01b03871684529091528120549091611223918590611418908690615999565b613484565b60cc5460009060ff610100909104168161145361143960995490565b611441612231565b60d0546001600160801b031685613c9e565b905061146861146185612a64565b8284613cde565b949350505050565b6065546001600160a01b0316331461149a5760405162461bcd60e51b81526004016111599061592d565b600081116114d45760405162461bcd60e51b81526020600482015260076024820152660216e65774361760cc1b6044820152606401611159565b6114dd81613d40565b60ce54604080516001600160681b039092168252602082018390527f5f86edbb9d92228a9edc3f0ebc0f001bda1ea345ac7335e0eeef3504b31d1a1c910160405180910390a160ce80546cffffffffffffffffffffffffff19166001600160681b0392909216919091179055565b6065546001600160a01b031633146115755760405162461bcd60e51b81526004016111599061592d565b6000816001600160801b0316116115bd5760405162461bcd60e51b815260206004820152600c60248201526b21737472696b65507269636560a01b6044820152606401611159565b6001600160801b031660fa5560cf5460f9805461ffff191661ffff909216919091179055565b60d4546001600160a01b0316331461160d5760405162461bcd60e51b8152600401611159906158be565b600260015414156116305760405162461bcd60e51b815260040161115990615962565b600260015560d2546040516358ffbb3d60e01b81526001600160a01b037f000000000000000000000000000000000000000000000000000000000000000081166004830152909116602482015260009073__$c4f279750f4bbb575ac7775e752dc00849$__906358ffbb3d9060440160206040518083038186803b1580156116b757600080fd5b505af41580156116cb573d6000803e3d6000fd5b505050506040513d601f19601f820116820180604052508101906116ef919061564f565b604051632eca54bf60e21b8152600481018290529091506117a6906001600160a01b037f0000000000000000000000000000000000000000000000000000000000000000169063bb2952fc9060240160206040518083038186803b15801561175657600080fd5b505afa15801561176a573d6000803e3d6000fd5b505050506040513d601f19601f8201168201806040525081019061178e919061564f565b60cf546201000090046001600160681b0316906137b8565b60cf805462010000600160781b031916620100006001600160681b039390931692909202919091179055604051631989ea7560e21b81526001600160a01b037f0000000000000000000000000000000000000000000000000000000000000000811660048301527f0000000000000000000000000000000000000000000000000000000000000000811660248301527f000000000000000000000000000000000000000000000000000000000000000016604482015273__$09b2ed88edfa44a3a64aec022eed7f982f$__90636627a9d49060640160006040518083038186803b15801561189357600080fd5b505af41580156118a7573d6000803e3d6000fd5b505060018055505050565b60d4546001600160a01b031633146118dc5760405162461bcd60e51b8152600401611159906158be565b600260015414156118ff5760405162461bcd60e51b815260040161115990615962565b600260015561190c613d8a565b60018055565b600260015414156119355760405162461bcd60e51b815260040161115990615962565b600260018190555061190c60006001613f25565b6065546001600160a01b031633146119735760405162461bcd60e51b81526004016111599061592d565b611981620f42406064615abc565b81106119cf5760405162461bcd60e51b815260206004820152601760248201527f496e76616c696420706572666f726d616e6365206665650000000000000000006044820152606401611159565b60d55460408051918252602082018390527f24867dfb6fcb9970a07be21024956524abe7a1837faa903ff0e99aaa40cf893e910160405180910390a160d555565b6065546001600160a01b03163314611a3a5760405162461bcd60e51b81526004016111599061592d565b611a4460006140d4565b565b6065546001600160a01b03163314611a705760405162461bcd60e51b81526004016111599061592d565b6001600160a01b038216611ab55760405162461bcd60e51b815260206004820152600c60248201526b085b995dd0dbdb9d1c9858dd60a21b6044820152606401611159565b8015611adc5760f680546001600160a01b0384166001600160a01b03199091161790555050565b60f580546001600160a01b0319166001600160a01b0384161790555b5050565b60d3546040516370a0823160e01b81523060048201527f000000000000000000000000000000000000000000000000000000000000000091611bb1916001600160a01b03918216918416906370a082319060240160206040518083038186803b158015611b6857600080fd5b505afa158015611b7c573d6000803e3d6000fd5b505050506040513d601f19601f82011682018060405250810190611ba0919061564f565b6001600160a01b0384169190614126565b50565b60026001541415611bd75760405162461bcd60e51b815260040161115990615962565b600260015580611c165760405162461bcd60e51b815260206004820152600a602482015269216e756d53686172657360b01b6044820152606401611159565b33600090815260c960205260409020546201000090046001600160681b0316151580611c60575033600090815260c96020526040902054600160781b90046001600160801b031615155b15611c7157611c7160006001613f25565b60cf5433600081815260cb60209081526040918290208054835187815261ffff96871693810184905292959194911685149290917f0c53c82ad07e2d592d88ece3b066777dd60f1118e2a081b380efc4358f0d9e2a910160405180910390a281546201000090046001600160801b031660008215611cfa57611cf3828761415b565b9050611d5d565b8115611d3c5760405162461bcd60e51b81526020600482015260116024820152704578697374696e6720776974686472617760781b6044820152606401611159565b5033600090815260cb60205260409020805461ffff191661ffff8616179055845b611d6681614167565b33600090815260cb6020526040812080546001600160801b03808516620100000262010000600160901b03199092169190911790915560d054611db291600160801b909104168861415b565b9050611dbd81614167565b60d080546001600160801b03808416600160801b029116179055611de23330896137c4565b5050600180555050505050565b6060609b805461119390615b1e565b6000611e33611e0c60995490565b611e14612231565b60d05460cc546001600160801b0390911690610100900460ff16613c9e565b905090565b60026001541415611e5b5760405162461bcd60e51b815260040161115990615962565b600260015580611e9a5760405162461bcd60e51b815260206004820152600a602482015269216e756d526f756e647360b01b6044820152606401611159565b60cf5461ffff1660005b82811015611f29576000611eb88284615999565b600081815260ca602052604090205490915015611f055760405162461bcd60e51b815260206004820152600b60248201526a125b9a5d1a585b1a5e995960aa1b6044820152606401611159565b600090815260ca602052604090206001905580611f2181615b53565b915050611ea4565b50506001805550565b3360009081526098602090815260408083206001600160a01b038616845290915281205482811015611fb45760405162461bcd60e51b815260206004820152602560248201527f45524332303a2064656372656173656420616c6c6f77616e63652062656c6f77604482015264207a65726f60d81b6064820152608401611159565b611fc13385858403613484565b5060019392505050565b6065546001600160a01b03163314611ff55760405162461bcd60e51b81526004016111599061592d565b61012c8110156120475760405162461bcd60e51b815260206004820152601860248201527f496e76616c69642061756374696f6e206475726174696f6e00000000000000006044820152606401611159565b60fb5460408051918252602082018390527f5acd982e2240ed224a69aa03dab039d3797c108e4b5f288cd7dd6ca181b275f3910160405180910390a160fb55565b600260015414156120ab5760405162461bcd60e51b815260040161115990615962565b600260015560fe546001600160a01b0316806120c657600080fd5b600082116120d357600080fd5b33600090815260976020526040902054828110156120ff576120ff6120f884836137b8565b6000613f25565b61210a3330856137c4565b612115308385613484565b6040516383df674760e01b815260048101849052336024820152600060448201526001600160a01b038316906383df674790606401600060405180830381600087803b15801561216457600080fd5b505af1158015611de2573d6000803e3d6000fd5b60006112233384846137c4565b600260015414156121a85760405162461bcd60e51b815260040161115990615962565b6002600155346121e35760405162461bcd60e51b81526020600482015260066024820152652176616c756560d01b6044820152606401611159565b6001600160a01b0381166122255760405162461bcd60e51b815260206004820152600960248201526810b1b932b234ba37b960b91b6044820152606401611159565b6113da34826001613994565b6040516370a0823160e01b815230600482015260009081906001600160a01b037f000000000000000000000000000000000000000000000000000000000000000016906370a082319060240160206040518083038186803b15801561229557600080fd5b505afa1580156122a9573d6000803e3d6000fd5b505050506040513d601f19601f820116820180604052508101906122cd919061564f565b6040516370a0823160e01b815230600482015290915047906000907f00000000000000000000000000000000000000000000000000000000000000006001600160a01b03169063bb2952fc9082906370a082319060240160206040518083038186803b15801561233c57600080fd5b505afa158015612350573d6000803e3d6000fd5b505050506040513d601f19601f82011682018060405250810190612374919061564f565b6040518263ffffffff1660e01b815260040161239291815260200190565b60206040518083038186803b1580156123aa57600080fd5b505afa1580156123be573d6000803e3d6000fd5b505050506040513d601f19601f820116820180604052508101906123e2919061564f565b6040516370a0823160e01b81523060048201529091506000906001600160a01b037f000000000000000000000000000000000000000000000000000000000000000016906370a082319060240160206040518083038186803b15801561244757600080fd5b505afa15801561245b573d6000803e3d6000fd5b505050506040513d601f19601f8201168201806040525081019061247f919061564f565b60cf549091506124b39082906124ad9085908290889082908b906201000090046001600160681b031661415b565b9061415b565b94505050505090565b60d4546001600160a01b031633146124e65760405162461bcd60e51b8152600401611159906158be565b600260015414156125095760405162461bcd60e51b815260040161115990615962565b600260018190555060008061251f60fd546141b1565b60fd81905560405162b0e38960e81b8152600481018290529193509150600090612664907f00000000000000000000000000000000000000000000000000000000000000006001600160a01b03169063b0e389009060240160206040518083038186803b15801561258f57600080fd5b505afa1580156125a3573d6000803e3d6000fd5b505050506040513d601f19601f820116820180604052508101906125c7919061564f565b6040516370a0823160e01b81523060048201527f00000000000000000000000000000000000000000000000000000000000000006001600160a01b0316906370a082319060240160206040518083038186803b15801561262657600080fd5b505afa15801561263a573d6000803e3d6000fd5b505050506040513d601f19601f8201168201806040525081019061265e919061564f565b906137b8565b9050336001600160a01b0316836001600160a01b03167f045c558fdce4714c5816d53820d27420f4cd860892df203fe636384d8d19aa01836040516126ab91815260200190565b60405180910390a3604051632904c23960e01b81526001600160a01b037f0000000000000000000000000000000000000000000000000000000000000000811660048301527f000000000000000000000000000000000000000000000000000000000000000081166024830152841660448201526064810182905273__$09b2ed88edfa44a3a64aec022eed7f982f$__90632904c2399060840160206040518083038186803b15801561275d57600080fd5b505af4158015612771573d6000803e3d6000fd5b505050506040513d601f19601f82011682018060405250810190612795919061564f565b50611f29613d8a565b600260015414156127c15760405162461bcd60e51b815260040161115990615962565b600260015533600090815260c96020526040902060cf5461ffff16836128135760405162461bcd60e51b815260206004820152600760248201526608585b5bdd5b9d60ca1b6044820152606401611159565b815461ffff1681146128575760405162461bcd60e51b815260206004820152600d60248201526c125b9d985b1a59081c9bdd5b99609a1b6044820152606401611159565b81546201000090046001600160681b0316848110156128a85760405162461bcd60e51b815260206004820152600d60248201526c115e18d9595908185b5bdd5b9d609a1b6044820152606401611159565b6128b281866137b8565b83546001600160681b0391909116620100000262010000600160781b031990911617835560d0546128ec906001600160801b0316866137b8565b60d080546001600160801b0319166001600160801b0392909216919091179055604051633be3450960e11b81526001600160a01b037f0000000000000000000000000000000000000000000000000000000000000000811660048301527f000000000000000000000000000000000000000000000000000000000000000016602482015260448101869052612a1e90339073__$09b2ed88edfa44a3a64aec022eed7f982f$__906377c68a12906064015b60206040518083038186803b1580156129b557600080fd5b505af41580156129c9573d6000803e3d6000fd5b505050506040513d601f19601f820116820180604052508101906129ed919061564f565b6001600160a01b037f0000000000000000000000000000000000000000000000000000000000000000169190614126565b604080518681526020810184905233917fab2daf3c146ca6416cbccd2a86ed2ba995e171ef6319df14a38aef01403a9c96910160405180910390a2505060018055505050565b6000806000612a72846132c0565b9092509050611468828261415b565b6065546001600160a01b03163314612aab5760405162461bcd60e51b81526004016111599061592d565b600081118015612ac55750612ac2600a6064615abc565b81105b612b045760405162461bcd60e51b815260206004820152601060248201526f125b9d985b1a5908191a5cd8dbdd5b9d60821b6044820152606401611159565b60f75460408051918252602082018390527f4cd657fde404967d63a338fb06c5c98751a9df57dfae6dc333a432faf8a5f656910160405180910390a160f755565b6065546001600160a01b03163314612b6f5760405162461bcd60e51b81526004016111599061592d565b6001600160a01b038116612bb25760405162461bcd60e51b815260206004820152600a60248201526910b732bba5b2b2b832b960b11b6044820152606401611159565b60d480546001600160a01b0319166001600160a01b0392909216919091179055565b60026001541415612bf75760405162461bcd60e51b815260040161115990615962565b600260015580612c365760405162461bcd60e51b815260206004820152600a602482015269216e756d53686172657360b01b6044820152606401611159565b6113da816000613f25565b600054610100900460ff1680612c5a575060005460ff16155b612c765760405162461bcd60e51b8152600401611159906158df565b600054610100900460ff16158015612c98576000805461ffff19166101011790555b612ca88d8d8d8d8d8d8d8961469e565b6001600160a01b038616612cf75760405162461bcd60e51b815260206004820152601660248201527510afb7b83a34b7b739a83932b6b4bab6a83934b1b2b960511b6044820152606401611159565b6001600160a01b038516612d415760405162461bcd60e51b815260206004820152601160248201527010afb9ba3934b5b2a9b2b632b1ba34b7b760791b6044820152606401611159565b60008463ffffffff16118015612d675750612d5e600a6064615abc565b8463ffffffff16105b612da75760405162461bcd60e51b81526020600482015260116024820152700857dc1c995b5a5d5b511a5cd8dbdd5b9d607a1b6044820152606401611159565b61012c831015612ded5760405162461bcd60e51b815260206004820152601160248201527010afb0bab1ba34b7b7223ab930ba34b7b760791b6044820152606401611159565b60f580546001600160a01b038089166001600160a01b03199283161790925560f680549288169290911691909117905563ffffffff841660f75560fb8390558015612e3e576000805461ff00191690555b50505050505050505050505050565b6065546001600160a01b03163314612e775760405162461bcd60e51b81526004016111599061592d565b6001600160a01b038116612ec05760405162461bcd60e51b815260206004820152601060248201526f085b995dd19959549958da5c1a595b9d60821b6044820152606401611159565b60d3546001600160a01b0382811691161415612f1e5760405162461bcd60e51b815260206004820152601860248201527f4d757374206265206e657720666565526563697069656e7400000000000000006044820152606401611159565b60d380546001600160a01b0319166001600160a01b0392909216919091179055565b60026001541415612f635760405162461bcd60e51b815260040161115990615962565b600260015560d2546040805160c0810182526001600160a01b037f0000000000000000000000000000000000000000000000000000000000000000811682527f00000000000000000000000000000000000000000000000000000000000000008116602083015292831681830181905260006060830181905260f95461ffff16608084015260fa5460a084015260f65460f55460f75495516303a20e3d60e01b815293969495929485948594859473__$09b2ed88edfa44a3a64aec022eed7f982f$__946303a20e3d9461306a94928116939116918b9060cc9060cf907f000000000000000000000000000000000000000000000000000000000000000090600401615813565b60806040518083038186803b15801561308257600080fd5b505af4158015613096573d6000803e3d6000fd5b505050506040513d601f19601f820116820180604052508101906130ba91906155b6565b93509350935093507fa217999b1c125c2a996f712c5f26a28addad7167bd8a67d5bd5b2a751148abb082826040516130fc929190918252602082015260400190565b60405180910390a161310d83613d40565b6001600160681b03831660f85560d180546001600160a01b0319166001600160a01b0386161790556000613141428261415b565b905063ffffffff8111156131975760405162461bcd60e51b815260206004820152601860248201527f4f766572666c6f77206e6578744f7074696f6e526561647900000000000000006044820152606401611159565b60d2805463ffffffff60a01b1916600160a01b63ffffffff841602179055611de287614866565b6065546001600160a01b031633146131e85760405162461bcd60e51b81526004016111599061592d565b6001600160a01b03811661324d5760405162461bcd60e51b815260206004820152602660248201527f4f776e61626c653a206e6577206f776e657220697320746865207a65726f206160448201526564647265737360d01b6064820152608401611159565b611bb1816140d4565b600260015414156132795760405162461bcd60e51b815260040161115990615962565b6002600155346132b45760405162461bcd60e51b81526020600482015260066024820152652176616c756560d01b6044820152606401611159565b61190c34336001613994565b6001600160a01b038116600090815260c9602090815260408083208151606081018352905461ffff81168083526201000082046001600160681b031694830194909452600160781b90046001600160801b031691810191909152829160011115613342575050506001600160a01b031660009081526097602052604081205491565b60cf54815161ffff908116600090815260ca602052604081205460cc54919361337893869391169190610100900460ff166149d8565b9050613399856001600160a01b031660009081526097602052604090205490565b9590945092505050565b6065546001600160a01b031633146133cd5760405162461bcd60e51b81526004016111599061592d565b6133db620f42406064615abc565b81106134225760405162461bcd60e51b8152602060048201526016602482015275496e76616c6964206d616e6167656d656e742066656560501b6044820152606401611159565b600061343f63031ba30961343984620f4240614a49565b90614a55565b60d65460408051918252602082018590529192507f4e874b007ab14f7e263baefd44951834c8266f4f224d1092e49e9c254354cc54910160405180910390a160d65550565b6001600160a01b0383166134e65760405162461bcd60e51b8152602060048201526024808201527f45524332303a20617070726f76652066726f6d20746865207a65726f206164646044820152637265737360e01b6064820152608401611159565b6001600160a01b0382166135475760405162461bcd60e51b815260206004820152602260248201527f45524332303a20617070726f766520746f20746865207a65726f206164647265604482015261737360f01b6064820152608401611159565b6001600160a01b0383811660008181526098602090815260408083209487168084529482529182902085905590518481527f8c5be1e5ebec7d5bd14f71427d1e84f3dd0314c0f7b2291e5b200ac8c7c3b92591015b60405180910390a3505050565b33600090815260cb6020526040812080546001600160801b03620100008204169061ffff168161360b5760405162461bcd60e51b815260206004820152600d60248201526c139bdd081a5b9a5d1a585d1959609a1b6044820152606401611159565b60cf5461ffff1681106136535760405162461bcd60e51b815260206004820152601060248201526f149bdd5b99081b9bdd0818db1bdcd95960821b6044820152606401611159565b33600090815260cb60205260409020805462010000600160901b031916905560d05461368f90600160801b90046001600160801b0316836137b8565b60d080546001600160801b03928316600160801b029216919091179055600081815260ca602052604081205460cc546136d291859160ff61010090910416613cde565b604051633be3450960e11b81526001600160a01b037f0000000000000000000000000000000000000000000000000000000000000000811660048301527f00000000000000000000000000000000000000000000000000000000000000001660248201526044810182905290915061376a90339073__$09b2ed88edfa44a3a64aec022eed7f982f$__906377c68a129060640161299d565b604080518281526020810185905233917ff279e6a1f5e320cca91135676d9cb6e44ca8a08c0b88342bcdb1144f6511b568910160405180910390a26137af3084614a61565b95945050505050565b60006113298284615adb565b6001600160a01b0383166138285760405162461bcd60e51b815260206004820152602560248201527f45524332303a207472616e736665722066726f6d20746865207a65726f206164604482015264647265737360d81b6064820152608401611159565b6001600160a01b03821661388a5760405162461bcd60e51b815260206004820152602360248201527f45524332303a207472616e7366657220746f20746865207a65726f206164647260448201526265737360e81b6064820152608401611159565b6001600160a01b038316600090815260976020526040902054818110156139025760405162461bcd60e51b815260206004820152602660248201527f45524332303a207472616e7366657220616d6f756e7420657863656564732062604482015265616c616e636560d01b6064820152608401611159565b6001600160a01b03808516600090815260976020526040808220858503905591851681529081208054849290613939908490615999565b92505081905550826001600160a01b0316846001600160a01b03167fddf252ad1be2c89b69c2b068fc378daa952ba7f163c4a11628f55a4df523b3ef8460405161398591815260200190565b60405180910390a35b50505050565b60cf5461ffff166000826139b3576139ae856124ad612231565b6139bb565b6139bb612231565b60ce549091506001600160681b0316811115613a065760405162461bcd60e51b815260206004820152600a6024820152690457863656564206361760b41b6044820152606401611159565b60cd54600160a01b900466ffffffffffffff16811015613a5f5760405162461bcd60e51b8152602060048201526014602482015273496e73756666696369656e742062616c616e636560601b6044820152606401611159565b60408051868152602081018490526001600160a01b038616917f90890809c654f11d6e72a28fa60149770a0d11ec6c92319d6ceb2bb0a4ea1a15910160405180910390a26001600160a01b038416600090815260c9602090815260408083208151606081018352905461ffff81168083526201000082046001600160681b031683860152600160781b9091046001600160801b031682840152845260ca90925282205460cc54919291613b1e918491879190610100900460ff166149d8565b8251909150879061ffff16851415613b4f576020830151600090613b4b906001600160681b03168a61415b565b9150505b613b5881613d40565b6040805160608101825261ffff80881682526001600160681b0380851660208085019182526001600160801b038089168688019081526001600160a01b038f16600090815260c990935296822095518654935197518216600160781b02600160781b600160f81b03199890951662010000026effffffffffffffffffffffffffffff1990941695169490941791909117949094161790915560d054613bfe91168a61415b565b9050613c0981614167565b60d080546001600160801b0319166001600160801b03929092169190911790555050505050505050565b6040516001600160a01b038085166024830152831660448201526064810182905261398e9085906323b872dd60e01b906084015b60408051601f198184030181529190526020810180516001600160e01b03166001600160e01b031990931692909217909152614baf565b600080613cac83600a615a14565b905060008611613cbc5780613cd4565b613cd486613439613ccd88886137b8565b8490614a49565b9695505050505050565b600060018311613d285760405162461bcd60e51b8152602060048201526015602482015274496e76616c6964206173736574506572536861726560581b6044820152606401611159565b611468613d3683600a615a14565b6134398686614a49565b6001600160681b03811115611bb15760405162461bcd60e51b815260206004820152601060248201526f13dd995c999b1bddc81d5a5b9d0c4c0d60821b6044820152606401611159565b6040805160c081018252600080825260208201819052918101829052606081018290526080810182905260a081019190915260f85480613e045760405162461bcd60e51b81526020600482015260156024820152742163757272656e744f746f6b656e5072656d69756d60581b6044820152606401611159565b60d2546001600160a01b0390811683527f000000000000000000000000000000000000000000000000000000000000000081166020840190815260cc546201000081048316604080870191825261010090920460ff16606087019081526080870186815260fb5460a089019081529351633baf17fd60e21b8152885187166004820152945186166024860152915190941660448401529251606483015291516084820152905160a482015273__$c4f279750f4bbb575ac7775e752dc00849$__9063eebc5ff49060c40160206040518083038186803b158015613ee657600080fd5b505af4158015613efa573d6000803e3d6000fd5b505050506040513d601f19601f82011682018060405250810190613f1e919061564f565b60fc555050565b33600090815260c9602090815260408083208151606081018352905461ffff8082168084526201000083046001600160681b031684870152600160781b9092046001600160801b03168385015260cf5491865260ca9094529184205460cc5491949290931692613fa09185918591610100900460ff166149d8565b905083613fad5784613faf565b805b945084613fbd575050505050565b808511156140015760405162461bcd60e51b81526020600482015260116024820152704578636565647320617661696c61626c6560781b6044820152606401611159565b825161ffff1682111561402e5733600090815260c960205260409020805462010000600160781b03191690555b61403785614167565b61404181866137b8565b33600081815260c960205260409081902080546001600160801b0394909416600160781b02600160781b600160f81b0319909416939093179092558451915190917fe5b754fb1abb7f01b499791d0b820ae3b6af3424ac1c59768edb53f4ec31a929916140ba9189825261ffff16602082015260400190565b60405180910390a26140cd3033876137c4565b5050505050565b606580546001600160a01b038381166001600160a01b0319831681179093556040519116919082907f8be0079c531659141344cd1fd0a4f28419497f9722a3daafe3b4186f6b6457e090600090a35050565b6040516001600160a01b03831660248201526044810182905261415690849063a9059cbb60e01b90606401613c67565b505050565b60006113298284615999565b6001600160801b03811115611bb15760405162461bcd60e51b815260206004820152601060248201526f09eeccae4ccd8deee40ead2dce86264760831b6044820152606401611159565b60d2546000908190600160a01b900463ffffffff164210156141fe5760405162461bcd60e51b815260206004820152600660248201526521726561647960d01b6044820152606401611159565b60d1546001600160a01b0316806142455760405162461bcd60e51b815260206004820152600b60248201526a10b732bc3a27b83a34b7b760a91b6044820152606401611159565b60008060008060008073__$c4f279750f4bbb575ac7775e752dc00849$__63633c142660cf6040518060c0016040528060cc60000160019054906101000a900460ff1660ff168152602001614298612231565b81526020016142a660995490565b81526020018e815260200160d554815260200160d6548152506040518363ffffffff1660e01b8152600401614322929190600060e08201905083825282516020830152602083015160408301526040830151606083015260608301516080830152608083015160a083015260a083015160c08301529392505050565b60c06040518083038186803b15801561433a57600080fd5b505af415801561434e573d6000803e3d6000fd5b505050506040513d601f19601f820116820180604052508101906143729190615688565b9550955095509550955095508660d160010160006101000a8154816001600160a01b0302191690836001600160a01b03160217905550600060d160000160006101000a8154816001600160a01b0302191690836001600160a01b03160217905550600060d360009054906101000a90046001600160a01b0316905060007f00000000000000000000000000000000000000000000000000000000000000009050600060cf60000160009054906101000a900461ffff1661ffff1690508660ca60008381526020019081526020016000208190555073__$09b2ed88edfa44a3a64aec022eed7f982f$__636627a9d47f0000000000000000000000000000000000000000000000000000000000000000847f00000000000000000000000000000000000000000000000000000000000000006040518463ffffffff1660e01b81526004016144df939291906001600160a01b0393841681529183166020830152909116604082015260600190565b60006040518083038186803b1580156144f757600080fd5b505af415801561450b573d6000803e3d6000fd5b505060408051888152602081018890529081018490526001600160a01b03861692507f0a242f7ecaf711036ca770774ceffae28e60ef042ac113ddd187f2631db0c006915060600160405180910390a260d080546001600160801b0319169055614576816001615999565b60cf805461ffff191661ffff9290921691909117905561459589613d40565b60cf805462010000600160781b031916620100006001600160681b038c16021790556145c13087614c81565b831561468b576040516305ffc87f60e31b81526001600160a01b0380841660048301527f000000000000000000000000000000000000000000000000000000000000000081166024830152841660448201526064810185905273__$09b2ed88edfa44a3a64aec022eed7f982f$__90632ffe43f89060840160206040518083038186803b15801561465157600080fd5b505af4158015614665573d6000803e3d6000fd5b505050506040513d601f19601f82011682018060405250810190614689919061564f565b505b50979b959a509498505050505050505050565b600054610100900460ff16806146b7575060005460ff16155b6146d35760405162461bcd60e51b8152600401611159906158df565b600054610100900460ff161580156146f5576000805461ffff19166101011790555b60405163c72733f760e01b815273__$c4f279750f4bbb575ac7775e752dc00849$__9063c72733f79061473a908c908c908c908b908d908c908c908c90600401615719565b60006040518083038186803b15801561475257600080fd5b505af4158015614766573d6000803e3d6000fd5b50505050614772614d60565b61477c8484614dd3565b614784614e52565b61478d896131be565b60d480546001600160a01b03808b166001600160a01b03199283161790925560d38054928a169290911691909117905560d58590556147d763031ba30961343988620f4240614a49565b60d6558160cc6147e78282615bc1565b90505060006147f4612231565b90506147ff81613d40565b60cf805461ffff196001600160681b03909316600160781b02929092167fffffffff00000000000000000000000000ffffffffffffffffffffffffff0000909216919091176001179055801561485b576000805461ff00191690555b505050505050505050565b60cf546201000090046001600160681b03166001600160a01b038216156148b25760cf80546cffffffffffffffffffffffffff60781b1916600160781b6001600160681b038416021790555b60cf805462010000600160781b031916905560d280546001600160a01b03191690556001600160a01b03821615611af857604051636c6fe87f60e11b81526001600160a01b037f000000000000000000000000000000000000000000000000000000000000000016600482015260009073__$c4f279750f4bbb575ac7775e752dc00849$__9063d8dfd0fe9060240160206040518083038186803b15801561495957600080fd5b505af415801561496d573d6000803e3d6000fd5b505050506040513d601f19601f82011682018060405250810190614991919061564f565b9050336001600160a01b0316836001600160a01b03167f7e830f7c1771deb1bdb35c4a7e6051bbac32b376f7f4e4976b8618b0b11997f78360405161359c91815260200190565b835160009061ffff16158015906149f35750845161ffff1684115b15614a35576000614a1286602001516001600160681b03168585614eb9565b6040870151909150614a2d906001600160801b03168261415b565b915050611468565b50505050604001516001600160801b031690565b60006113298284615abc565b600061132982846159b1565b6001600160a01b038216614ac15760405162461bcd60e51b815260206004820152602160248201527f45524332303a206275726e2066726f6d20746865207a65726f206164647265736044820152607360f81b6064820152608401611159565b6001600160a01b03821660009081526097602052604090205481811015614b355760405162461bcd60e51b815260206004820152602260248201527f45524332303a206275726e20616d6f756e7420657863656564732062616c616e604482015261636560f01b6064820152608401611159565b6001600160a01b0383166000908152609760205260408120838303905560998054849290614b64908490615adb565b90915550506040518281526000906001600160a01b038516907fddf252ad1be2c89b69c2b068fc378daa952ba7f163c4a11628f55a4df523b3ef9060200160405180910390a3505050565b6000614c04826040518060400160405280602081526020017f5361666545524332303a206c6f772d6c6576656c2063616c6c206661696c6564815250856001600160a01b0316614f1c9092919063ffffffff16565b8051909150156141565780806020019051810190614c2291906155f4565b6141565760405162461bcd60e51b815260206004820152602a60248201527f5361666545524332303a204552433230206f7065726174696f6e20646964206e6044820152691bdd081cdd58d8d9595960b21b6064820152608401611159565b6001600160a01b038216614cd75760405162461bcd60e51b815260206004820152601f60248201527f45524332303a206d696e7420746f20746865207a65726f2061646472657373006044820152606401611159565b8060996000828254614ce99190615999565b90915550506001600160a01b03821660009081526097602052604081208054839290614d16908490615999565b90915550506040518181526001600160a01b038316906000907fddf252ad1be2c89b69c2b068fc378daa952ba7f163c4a11628f55a4df523b3ef9060200160405180910390a35050565b600054610100900460ff1680614d79575060005460ff16155b614d955760405162461bcd60e51b8152600401611159906158df565b600054610100900460ff16158015614db7576000805461ffff19166101011790555b614dbf614f2b565b8015611bb1576000805461ff001916905550565b600054610100900460ff1680614dec575060005460ff16155b614e085760405162461bcd60e51b8152600401611159906158df565b600054610100900460ff16158015614e2a576000805461ffff19166101011790555b614e32614f9a565b614e3c8383615004565b8015614156576000805461ff0019169055505050565b600054610100900460ff1680614e6b575060005460ff16155b614e875760405162461bcd60e51b8152600401611159906158df565b600054610100900460ff16158015614ea9576000805461ffff19166101011790555b614eb1614f9a565b614dbf615099565b600060018311614f035760405162461bcd60e51b8152602060048201526015602482015274496e76616c6964206173736574506572536861726560581b6044820152606401611159565b61146883613439614f1585600a615a14565b8790614a49565b606061146884846000856150f9565b600054610100900460ff1680614f44575060005460ff16155b614f605760405162461bcd60e51b8152600401611159906158df565b600054610100900460ff16158015614f82576000805461ffff19166101011790555b600180558015611bb1576000805461ff001916905550565b600054610100900460ff1680614fb3575060005460ff16155b614fcf5760405162461bcd60e51b8152600401611159906158df565b600054610100900460ff16158015614dbf576000805461ffff19166101011790558015611bb1576000805461ff001916905550565b600054610100900460ff168061501d575060005460ff16155b6150395760405162461bcd60e51b8152600401611159906158df565b600054610100900460ff1615801561505b576000805461ffff19166101011790555b825161506e90609a90602086019061525a565b50815161508290609b90602085019061525a565b508015614156576000805461ff0019169055505050565b600054610100900460ff16806150b2575060005460ff16155b6150ce5760405162461bcd60e51b8152600401611159906158df565b600054610100900460ff161580156150f0576000805461ffff19166101011790555b614dbf336140d4565b60608247101561515a5760405162461bcd60e51b815260206004820152602660248201527f416464726573733a20696e73756666696369656e742062616c616e636520666f6044820152651c8818d85b1b60d21b6064820152608401611159565b843b6151a85760405162461bcd60e51b815260206004820152601d60248201527f416464726573733a2063616c6c20746f206e6f6e2d636f6e74726163740000006044820152606401611159565b600080866001600160a01b031685876040516151c491906156fd565b60006040518083038185875af1925050503d8060008114615201576040519150601f19603f3d011682016040523d82523d6000602084013e615206565b606091505b5091509150615216828286615221565b979650505050505050565b60608315615230575081611329565b8251156152405782518084602001fd5b8160405162461bcd60e51b815260040161115991906158ab565b82805461526690615b1e565b90600052602060002090601f01602090048101928261528857600085556152ce565b82601f106152a157805160ff19168380011785556152ce565b828001600101855582156152ce579182015b828111156152ce5782518255916020019190600101906152b3565b506152da9291506152de565b5090565b5b808211156152da57600081556001016152df565b80356152fe81615cd2565b919050565b600082601f830112615313578081fd5b813567ffffffffffffffff8082111561532e5761532e615b84565b604051601f8301601f19908116603f0116810190828211818310171561535657615356615b84565b8160405283815286602085880101111561536e578485fd5b8360208701602083013792830160200193909352509392505050565b600060c0828403121561539b578081fd5b50919050565b80356152fe81615cf5565b803563ffffffff811681146152fe57600080fd5b80356152fe81615d0a565b6000602082840312156153dc578081fd5b813561132981615cd2565b600080604083850312156153f9578081fd5b823561540481615cd2565b9150602083013561541481615cd2565b809150509250929050565b6000806000806000806000806000806000806102208d8f031215615441578788fd5b61544a8d6152f3565b9b5061545860208e016152f3565b9a5061546660408e016152f3565b995060608d0135985060808d0135975067ffffffffffffffff60a08e0135111561548e578687fd5b61549e8e60a08f01358f01615303565b965067ffffffffffffffff60c08e013511156154b8578586fd5b6154c88e60c08f01358f01615303565b95506154d660e08e016152f3565b94506154e56101008e016152f3565b93506154f46101208e016153ac565b92506101408d0135915061550c8e6101608f0161538a565b90509295989b509295989b509295989b565b600080600060608486031215615532578283fd5b833561553d81615cd2565b9250602084013561554d81615cd2565b929592945050506040919091013590565b60008060408385031215615570578182fd5b823561557b81615cd2565b9150602083013561541481615ce7565b6000806040838503121561559d578182fd5b82356155a881615cd2565b946020939093013593505050565b600080600080608085870312156155cb578384fd5b84516155d681615cd2565b60208601516040870151606090970151919890975090945092505050565b600060208284031215615605578081fd5b815161132981615ce7565b600060208284031215615621578081fd5b81356001600160801b0381168114611329578182fd5b600060208284031215615648578081fd5b5035919050565b600060208284031215615660578081fd5b5051919050565b60008060408385031215615679578182fd5b50508035926020909101359150565b60008060008060008060c087890312156156a0578384fd5b865195506020870151945060408701519350606087015192506080870151915060a087015190509295509295509295565b600081518084526156e9816020860160208601615af2565b601f01601f19169290920160200192915050565b6000825161570f818460208701615af2565b9190910192915050565b60006101a060018060a01b03808c168452808b166020850152808a1660408501528860608501528760808501528160a0850152615758828501886156d1565b915083820360c085015261576c82876156d1565b92508435915061577b82615ce7565b90151560e084015260208401359061579282615d1f565b60ff8216610100850152604085013591506157ac82615cd2565b166101208301526157bf606084016152f3565b6001600160a01b03166101408301526157da608084016153c0565b66ffffffffffffff166101608301526157f560a084016153a1565b6001600160681b038116610180840152509998505050505050505050565b60006101808201905060018060a01b03808a16835280891660208401528760408401528087511660608401528060208801511660808401528060408801511660a084015250606086015160c083015261ffff60808701511660e083015260a0860151610100830152846101208301528361014083015261589f6101608301846001600160a01b03169052565b98975050505050505050565b60208152600061132960208301846156d1565b60208082526007908201526610b5b2b2b832b960c91b604082015260600190565b6020808252602e908201527f496e697469616c697a61626c653a20636f6e747261637420697320616c72656160408201526d191e481a5b9a5d1a585b1a5e995960921b606082015260800190565b6020808252818101527f4f776e61626c653a2063616c6c6572206973206e6f7420746865206f776e6572604082015260600190565b6020808252601f908201527f5265656e7472616e637947756172643a207265656e7472616e742063616c6c00604082015260600190565b600082198211156159ac576159ac615b6e565b500190565b6000826159cc57634e487b7160e01b81526012600452602481fd5b500490565b600181815b80851115615a0c5781600019048211156159f2576159f2615b6e565b808516156159ff57918102915b93841c93908002906159d6565b509250929050565b60006113298383600082615a2a57506001611227565b81615a3757506000611227565b8160018114615a4d5760028114615a5757615a73565b6001915050611227565b60ff841115615a6857615a68615b6e565b50506001821b611227565b5060208310610133831016604e8410600b8410161715615a96575081810a611227565b615aa083836159d1565b8060001904821115615ab457615ab4615b6e565b029392505050565b6000816000190483118215151615615ad657615ad6615b6e565b500290565b600082821015615aed57615aed615b6e565b500390565b60005b83811015615b0d578181015183820152602001615af5565b8381111561398e5750506000910152565b600181811c90821680615b3257607f821691505b6020821081141561539b57634e487b7160e01b600052602260045260246000fd5b6000600019821415615b6757615b67615b6e565b5060010190565b634e487b7160e01b600052601160045260246000fd5b634e487b7160e01b600052604160045260246000fd5b6000813561122781615cd2565b6000813561122781615cf5565b6000813561122781615d0a565b8135615bcc81615ce7565b815460ff19811691151560ff1691821783556020840135615bec81615d1f565b61ff008160081b169050808361ffff198416171784556040850135615c1081615cd2565b6001600160b01b0319929092169092179190911760109190911b62010000600160b01b031617815560018101615c68615c4b60608501615b9a565b82546001600160a01b0319166001600160a01b0391909116178255565b615ca1615c7760808501615bb4565b82805466ffffffffffffff60a01b191660a09290921b66ffffffffffffff60a01b16919091179055565b50611af8615cb160a08401615ba7565b600283016001600160681b0382166001600160681b03198254161781555050565b6001600160a01b0381168114611bb157600080fd5b8015158114611bb157600080fd5b6001600160681b0381168114611bb157600080fd5b66ffffffffffffff81168114611bb157600080fd5b60ff81168114611bb157600080fdfea264697066735822122033dd0747004325dd6aa1b78981da36fa1928eddeb21673ae6eeb735550fc2b1564736f6c63430008040033",
  "libraries": {
    "VaultLifecycle": "0x883391710EF00F129Ed34d0118249ABfb5c73531",
    "VaultLifecycleSTETH": "0xbe12A3f511b5c0fd25c6cE8688E186955C4F3D02"
  },
  "devdoc": {
    "kind": "dev",
    "methods": {
      "accountVaultBalance(address)": {
        "params": {
          "account": "is the address to lookup balance for"
        },
        "returns": {
          "_0": "the amount of `asset` custodied by the vault for the user"
        }
      },
      "allowance(address,address)": {
        "details": "See {IERC20-allowance}."
      },
      "approve(address,uint256)": {
        "details": "See {IERC20-approve}. Requirements: - `spender` cannot be the zero address."
      },
      "balanceOf(address)": {
        "details": "See {IERC20-balanceOf}."
      },
      "completeWithdraw(uint256)": {
        "params": {
          "minETHOut": "is the min amount of `asset` to recieve for the swapped amount of steth in crv pool"
        }
      },
      "constructor": {
        "params": {
          "_crvPool": "is the steth/eth crv stables pool",
          "_gammaController": "is the contract address for opyn actions",
          "_gnosisEasyAuction": "is the contract address that facilitates gnosis auctions",
          "_ldo": "is the LDO contract",
          "_marginPool": "is the contract address for providing collateral to opyn",
          "_oTokenFactory": "is the contract address for minting new opyn option types (strikes, asset, expiry)",
          "_usdc": "is the USDC contract",
          "_weth": "is the Wrapped Ether contract",
          "_wsteth": "is the LDO contract"
        }
      },
      "decreaseAllowance(address,uint256)": {
        "details": "Atomically decreases the allowance granted to `spender` by the caller. This is an alternative to {approve} that can be used as a mitigation for problems described in {IERC20-approve}. Emits an {Approval} event indicating the updated allowance. Requirements: - `spender` cannot be the zero address. - `spender` must have allowance for the caller of at least `subtractedValue`."
      },
      "depositFor(address)": {
        "params": {
          "creditor": "is the address that can claim/withdraw deposited amount"
        }
      },
      "depositYieldToken(uint256)": {
        "params": {
          "amount": "is the amount of `collateralAsset` to deposit"
        }
      },
      "increaseAllowance(address,uint256)": {
        "details": "Atomically increases the allowance granted to `spender` by the caller. This is an alternative to {approve} that can be used as a mitigation for problems described in {IERC20-approve}. Emits an {Approval} event indicating the updated allowance. Requirements: - `spender` cannot be the zero address."
      },
      "initialize(address,address,address,uint256,uint256,string,string,address,address,uint32,uint256,(bool,uint8,address,address,uint56,uint104))": {
        "params": {
          "_auctionDuration": "is the duration of the gnosis auction",
          "_feeRecipient": "is the address to recieve vault performance and management fees",
          "_keeper": "is the keeper of the vault with medium permissions (weekly actions)",
          "_managementFee": "is the management fee pct.",
          "_optionsPremiumPricer": "is the address of the contract with the black-scholes premium calculation logic",
          "_owner": "is the owner of the vault with critical permissions",
          "_performanceFee": "is the perfomance fee pct.",
          "_premiumDiscount": "is the vault's discount applied to the premium",
          "_strikeSelection": "is the address of the contract with strike selection logic",
          "_tokenName": "is the name of the token",
          "_tokenSymbol": "is the symbol of the token",
          "_vaultParams": "is the struct with vault general data"
        }
      },
      "initiateWithdraw(uint256)": {
        "params": {
          "numShares": "is the number of shares to withdraw"
        }
      },
      "name()": {
        "details": "Returns the name of the token."
      },
      "owner()": {
        "details": "Returns the address of the current owner."
      },
      "redeem(uint256)": {
        "params": {
          "numShares": "is the number of shares to redeem"
        }
      },
      "renounceOwnership()": {
        "details": "Leaves the contract without owner. It will not be possible to call `onlyOwner` functions anymore. Can only be called by the current owner. NOTE: Renouncing ownership will leave the contract without an owner, thereby removing any functionality that is only available to the owner."
      },
      "setAuctionDuration(uint256)": {
        "params": {
          "newAuctionDuration": "is the auction duration"
        }
      },
      "setCap(uint256)": {
        "params": {
          "newCap": "is the new cap for deposits"
        }
      },
      "setFeeRecipient(address)": {
        "params": {
          "newFeeRecipient": "is the address of the new fee recipient"
        }
      },
      "setLiquidityGauge(address)": {
        "params": {
          "newLiquidityGauge": "is the address of the new liquidityGauge contract"
        }
      },
      "setManagementFee(uint256)": {
        "params": {
          "newManagementFee": "is the management fee (6 decimals). ex: 2 * 10 ** 6 = 2%"
        }
      },
      "setNewKeeper(address)": {
        "params": {
          "newKeeper": "is the address of the new keeper"
        }
      },
      "setPerformanceFee(uint256)": {
        "params": {
          "newPerformanceFee": "is the performance fee (6 decimals). ex: 20 * 10 ** 6 = 20%"
        }
      },
      "setPremiumDiscount(uint256)": {
        "params": {
          "newPremiumDiscount": "is the premium discount"
        }
      },
      "setStrikePrice(uint128)": {
        "params": {
          "strikePrice": "is the strike price of the new oTokens (decimals = 8)"
        }
      },
      "setStrikeSelectionOrPricer(address,bool)": {
        "params": {
          "isStrikeSelection": "is whether we are setting the strike selection contract",
          "newContract": "is the address of the new strike selection or options premium pricer contract"
        }
      },
      "shareBalances(address)": {
        "params": {
          "account": "is the account to lookup share balance for"
        },
        "returns": {
          "heldByAccount": "is the shares held by account",
          "heldByVault": "is the shares held on the vault (unredeemedShares)"
        }
      },
      "shares(address)": {
        "params": {
          "account": "is the account to lookup share balance for"
        },
        "returns": {
          "_0": "the share balance"
        }
      },
      "stake(uint256)": {
        "params": {
          "numShares": "is the number of shares to stake"
        }
      },
      "symbol()": {
        "details": "Returns the symbol of the token, usually a shorter version of the name."
      },
      "totalBalance()": {
        "returns": {
          "_0": "total balance of the vault, including the amounts locked in third party protocols"
        }
      },
      "totalSupply()": {
        "details": "See {IERC20-totalSupply}."
      },
      "transfer(address,uint256)": {
        "details": "See {IERC20-transfer}. Requirements: - `recipient` cannot be the zero address. - the caller must have a balance of at least `amount`."
      },
      "transferFrom(address,address,uint256)": {
        "details": "See {IERC20-transferFrom}. Emits an {Approval} event indicating the updated allowance. This is not required by the EIP. See the note at the beginning of {ERC20}. Requirements: - `sender` and `recipient` cannot be the zero address. - `sender` must have a balance of at least `amount`. - the caller must have allowance for ``sender``'s tokens of at least `amount`."
      },
      "transferOwnership(address)": {
        "details": "Transfers ownership of the contract to a new account (`newOwner`). Can only be called by the current owner."
      },
      "withdrawInstantly(uint256,uint256)": {
        "params": {
          "amount": "is the amount to withdraw in `asset`"
        }
      }
    },
    "version": 1
  },
  "userdoc": {
    "kind": "user",
    "methods": {
      "DELAY()": {
        "notice": "15 minute timelock between commitAndClose and rollToNexOption."
      },
      "LDO()": {
        "notice": "Lido DAO token 0x5a98fcbea516cf06857215779fd812ca3bef1b32"
      },
      "OTOKEN_FACTORY()": {
        "notice": "is the factory contract used to spawn otokens. Used to lookup otokens."
      },
      "PERIOD()": {
        "notice": "7 day period between each options sale."
      },
      "STETH()": {
        "notice": "STETH contract address"
      },
      "USDC()": {
        "notice": "USDC 0xA0b86991c6218b36c1d19D4a2e9Eb0cE3606eB48"
      },
      "WETH()": {
        "notice": "WETH9 0xC02aaA39b223FE8D0A0e5C4F27eAD9083C756Cc2"
      },
      "accountVaultBalance(address)": {
        "notice": "Returns the asset balance held on the vault for the account"
      },
      "burnRemainingOTokens()": {
        "notice": "Burn the remaining oTokens left over from gnosis auction."
      },
      "collateralToken()": {
        "notice": "wstETH vault contract"
      },
      "commitAndClose()": {
        "notice": "Sets the next option the vault will be shorting, and closes the existing short.         This allows all the users to withdraw if the next option is malicious."
      },
      "completeWithdraw(uint256)": {
        "notice": "Completes a scheduled withdrawal from a past round. Uses finalized pps for the round"
      },
      "constructor": {
        "notice": "Initializes the contract with immutable variables"
      },
      "decimals()": {
        "notice": "Returns the token decimals"
      },
      "depositETH()": {
        "notice": "Deposits ETH into the contract and mint vault shares."
      },
      "depositFor(address)": {
        "notice": "Deposits the `asset` from msg.sender added to `creditor`'s deposit.Used for vault -> vault deposits on the user's behalf"
      },
      "depositReceipts(address)": {
        "notice": "Stores the user's pending deposit for the round"
      },
      "depositYieldToken(uint256)": {
        "notice": "Deposits the `collateralAsset` into the contract and mint vault shares."
      },
      "feeRecipient()": {
        "notice": "Fee recipient for the performance and management fees"
      },
      "initialize(address,address,address,uint256,uint256,string,string,address,address,uint32,uint256,(bool,uint8,address,address,uint56,uint104))": {
        "notice": "Initializes the OptionVault contract with storage variables."
      },
      "initiateWithdraw(uint256)": {
        "notice": "Initiates a withdrawal that can be processed once the round completes"
      },
      "keeper()": {
        "notice": "role in charge of weekly vault operations such as rollToNextOption and burnRemainingOTokens"
      },
      "managementFee()": {
        "notice": "Management fee charged on entire AUM in rollToNextOption. Only charged when there is no loss."
      },
      "maxRedeem()": {
        "notice": "Redeems the entire unredeemedShares balance that is owed to the account"
      },
      "optionState()": {
        "notice": "Vault's state of the options sold and the timelocked option"
      },
      "performanceFee()": {
        "notice": "Performance fee charged on premiums earned in rollToNextOption. Only charged when there is no loss."
      },
      "pricePerShare()": {
        "notice": "The price of a unit of share denominated in the `asset`"
      },
      "redeem(uint256)": {
        "notice": "Redeems shares that are owed to the account"
      },
      "rollToNextOption()": {
        "notice": "Rolls the vault's funds into a new short position."
      },
      "roundPricePerShare(uint256)": {
        "notice": "On every round's close, the pricePerShare value of an rTHETA token is stored This is used to determine the number of shares to be returned to a user with their DepositReceipt.depositAmount"
      },
      "setAuctionDuration(uint256)": {
        "notice": "Sets the new auction duration"
      },
      "setCap(uint256)": {
        "notice": "Sets a new cap for deposits"
      },
      "setFeeRecipient(address)": {
        "notice": "Sets the new fee recipient"
      },
      "setLiquidityGauge(address)": {
        "notice": "Sets the new liquidityGauge contract for this vault"
      },
      "setManagementFee(uint256)": {
        "notice": "Sets the management fee for the vault"
      },
      "setNewKeeper(address)": {
        "notice": "Sets the new keeper"
      },
      "setPerformanceFee(uint256)": {
        "notice": "Sets the performance fee for the vault"
      },
      "setPremiumDiscount(uint256)": {
        "notice": "Sets the new discount on premiums for options we are selling"
      },
      "setStrikePrice(uint128)": {
        "notice": "Optionality to set strike price manually"
      },
      "setStrikeSelectionOrPricer(address,bool)": {
        "notice": "Sets the new strike selection or options premium pricer contract"
      },
      "shareBalances(address)": {
        "notice": "Getter for returning the account's share balance split between account and vault holdings"
      },
      "shares(address)": {
        "notice": "Getter for returning the account's share balance including unredeemed shares"
      },
      "stake(uint256)": {
        "notice": "Stakes a users vault shares"
      },
      "startAuction()": {
        "notice": "Initiate the gnosis auction."
      },
      "totalBalance()": {
        "notice": "Returns the vault's total balance, including the amounts locked into a short position"
      },
      "vaultParams()": {
        "notice": "Vault's parameters like cap, decimals"
      },
      "vaultState()": {
        "notice": "Vault's lifecycle state like round and locked amounts"
      },
      "withdrawInstantly(uint256,uint256)": {
        "notice": "Withdraws the assets on the vault using the outstanding `DepositReceipt.amount`"
      },
      "withdrawals(address)": {
        "notice": "Stores pending user withdrawals"
      }
    },
    "notice": "UPGRADEABILITY: Since we use the upgradeable proxy pattern, we must observe the inheritance chain closely. Any changes/appends in storage variable needs to happen in RibbonThetaSTETHVaultStorage. RibbonThetaSTETHVault should not inherit from any other contract aside from RibbonVault, RibbonThetaSTETHVaultStorage",
    "version": 1
  },
  "storageLayout": {
    "storage": [
      {
        "astId": 176,
        "contract": "contracts/vaults/STETHVault/RibbonThetaSTETHVault.sol:RibbonThetaSTETHVault",
        "label": "_initialized",
        "offset": 0,
        "slot": "0",
        "type": "t_bool"
      },
      {
        "astId": 179,
        "contract": "contracts/vaults/STETHVault/RibbonThetaSTETHVault.sol:RibbonThetaSTETHVault",
        "label": "_initializing",
        "offset": 1,
        "slot": "0",
        "type": "t_bool"
      },
      {
        "astId": 230,
        "contract": "contracts/vaults/STETHVault/RibbonThetaSTETHVault.sol:RibbonThetaSTETHVault",
        "label": "_status",
        "offset": 0,
        "slot": "1",
        "type": "t_uint256"
      },
      {
        "astId": 273,
        "contract": "contracts/vaults/STETHVault/RibbonThetaSTETHVault.sol:RibbonThetaSTETHVault",
        "label": "__gap",
        "offset": 0,
        "slot": "2",
        "type": "t_array(t_uint256)49_storage"
      },
      {
        "astId": 993,
        "contract": "contracts/vaults/STETHVault/RibbonThetaSTETHVault.sol:RibbonThetaSTETHVault",
        "label": "__gap",
        "offset": 0,
        "slot": "51",
        "type": "t_array(t_uint256)50_storage"
      },
      {
        "astId": 56,
        "contract": "contracts/vaults/STETHVault/RibbonThetaSTETHVault.sol:RibbonThetaSTETHVault",
        "label": "_owner",
        "offset": 0,
        "slot": "101",
        "type": "t_address"
      },
      {
        "astId": 169,
        "contract": "contracts/vaults/STETHVault/RibbonThetaSTETHVault.sol:RibbonThetaSTETHVault",
        "label": "__gap",
        "offset": 0,
        "slot": "102",
        "type": "t_array(t_uint256)49_storage"
      },
      {
        "astId": 293,
        "contract": "contracts/vaults/STETHVault/RibbonThetaSTETHVault.sol:RibbonThetaSTETHVault",
        "label": "_balances",
        "offset": 0,
        "slot": "151",
        "type": "t_mapping(t_address,t_uint256)"
      },
      {
        "astId": 299,
        "contract": "contracts/vaults/STETHVault/RibbonThetaSTETHVault.sol:RibbonThetaSTETHVault",
        "label": "_allowances",
        "offset": 0,
        "slot": "152",
        "type": "t_mapping(t_address,t_mapping(t_address,t_uint256))"
      },
      {
        "astId": 301,
        "contract": "contracts/vaults/STETHVault/RibbonThetaSTETHVault.sol:RibbonThetaSTETHVault",
        "label": "_totalSupply",
        "offset": 0,
        "slot": "153",
        "type": "t_uint256"
      },
      {
        "astId": 303,
        "contract": "contracts/vaults/STETHVault/RibbonThetaSTETHVault.sol:RibbonThetaSTETHVault",
        "label": "_name",
        "offset": 0,
        "slot": "154",
        "type": "t_string_storage"
      },
      {
        "astId": 305,
        "contract": "contracts/vaults/STETHVault/RibbonThetaSTETHVault.sol:RibbonThetaSTETHVault",
        "label": "_symbol",
        "offset": 0,
        "slot": "155",
        "type": "t_string_storage"
      },
      {
        "astId": 846,
        "contract": "contracts/vaults/STETHVault/RibbonThetaSTETHVault.sol:RibbonThetaSTETHVault",
        "label": "__gap",
        "offset": 0,
        "slot": "156",
        "type": "t_array(t_uint256)45_storage"
      },
      {
        "astId": 17137,
        "contract": "contracts/vaults/STETHVault/RibbonThetaSTETHVault.sol:RibbonThetaSTETHVault",
        "label": "depositReceipts",
        "offset": 0,
        "slot": "201",
        "type": "t_mapping(t_address,t_struct(DepositReceipt)5869_storage)"
      },
      {
        "astId": 17142,
        "contract": "contracts/vaults/STETHVault/RibbonThetaSTETHVault.sol:RibbonThetaSTETHVault",
        "label": "roundPricePerShare",
        "offset": 0,
        "slot": "202",
        "type": "t_mapping(t_uint256,t_uint256)"
      },
      {
        "astId": 17148,
        "contract": "contracts/vaults/STETHVault/RibbonThetaSTETHVault.sol:RibbonThetaSTETHVault",
        "label": "withdrawals",
        "offset": 0,
        "slot": "203",
        "type": "t_mapping(t_address,t_struct(Withdrawal)5874_storage)"
      },
      {
        "astId": 17152,
        "contract": "contracts/vaults/STETHVault/RibbonThetaSTETHVault.sol:RibbonThetaSTETHVault",
        "label": "vaultParams",
        "offset": 0,
        "slot": "204",
        "type": "t_struct(VaultParams)5844_storage"
      },
      {
        "astId": 17156,
        "contract": "contracts/vaults/STETHVault/RibbonThetaSTETHVault.sol:RibbonThetaSTETHVault",
        "label": "vaultState",
        "offset": 0,
        "slot": "207",
        "type": "t_struct(VaultState)5862_storage"
      },
      {
        "astId": 17160,
        "contract": "contracts/vaults/STETHVault/RibbonThetaSTETHVault.sol:RibbonThetaSTETHVault",
        "label": "optionState",
        "offset": 0,
        "slot": "209",
        "type": "t_struct(OptionState)5851_storage"
      },
      {
        "astId": 17163,
        "contract": "contracts/vaults/STETHVault/RibbonThetaSTETHVault.sol:RibbonThetaSTETHVault",
        "label": "feeRecipient",
        "offset": 0,
        "slot": "211",
        "type": "t_address"
      },
      {
        "astId": 17166,
        "contract": "contracts/vaults/STETHVault/RibbonThetaSTETHVault.sol:RibbonThetaSTETHVault",
        "label": "keeper",
        "offset": 0,
        "slot": "212",
        "type": "t_address"
      },
      {
        "astId": 17169,
        "contract": "contracts/vaults/STETHVault/RibbonThetaSTETHVault.sol:RibbonThetaSTETHVault",
        "label": "performanceFee",
        "offset": 0,
        "slot": "213",
        "type": "t_uint256"
      },
      {
        "astId": 17172,
        "contract": "contracts/vaults/STETHVault/RibbonThetaSTETHVault.sol:RibbonThetaSTETHVault",
        "label": "managementFee",
        "offset": 0,
        "slot": "214",
        "type": "t_uint256"
      },
      {
        "astId": 17180,
        "contract": "contracts/vaults/STETHVault/RibbonThetaSTETHVault.sol:RibbonThetaSTETHVault",
        "label": "____gap",
        "offset": 0,
        "slot": "215",
        "type": "t_array(t_uint256)30_storage"
      },
      {
        "astId": 11348,
        "contract": "contracts/vaults/STETHVault/RibbonThetaSTETHVault.sol:RibbonThetaSTETHVault",
        "label": "optionsPremiumPricer",
        "offset": 0,
        "slot": "245",
        "type": "t_address"
      },
      {
        "astId": 11350,
        "contract": "contracts/vaults/STETHVault/RibbonThetaSTETHVault.sol:RibbonThetaSTETHVault",
        "label": "strikeSelection",
        "offset": 0,
        "slot": "246",
        "type": "t_address"
      },
      {
        "astId": 11352,
        "contract": "contracts/vaults/STETHVault/RibbonThetaSTETHVault.sol:RibbonThetaSTETHVault",
        "label": "premiumDiscount",
        "offset": 0,
        "slot": "247",
        "type": "t_uint256"
      },
      {
        "astId": 11354,
        "contract": "contracts/vaults/STETHVault/RibbonThetaSTETHVault.sol:RibbonThetaSTETHVault",
        "label": "currentOtokenPremium",
        "offset": 0,
        "slot": "248",
        "type": "t_uint256"
      },
      {
        "astId": 11356,
        "contract": "contracts/vaults/STETHVault/RibbonThetaSTETHVault.sol:RibbonThetaSTETHVault",
        "label": "lastStrikeOverrideRound",
        "offset": 0,
        "slot": "249",
        "type": "t_uint16"
      },
      {
        "astId": 11358,
        "contract": "contracts/vaults/STETHVault/RibbonThetaSTETHVault.sol:RibbonThetaSTETHVault",
        "label": "overriddenStrikePrice",
        "offset": 0,
        "slot": "250",
        "type": "t_uint256"
      },
      {
        "astId": 11360,
        "contract": "contracts/vaults/STETHVault/RibbonThetaSTETHVault.sol:RibbonThetaSTETHVault",
        "label": "auctionDuration",
        "offset": 0,
        "slot": "251",
        "type": "t_uint256"
      },
      {
        "astId": 11362,
        "contract": "contracts/vaults/STETHVault/RibbonThetaSTETHVault.sol:RibbonThetaSTETHVault",
        "label": "optionAuctionID",
        "offset": 0,
        "slot": "252",
        "type": "t_uint256"
      },
      {
        "astId": 11365,
        "contract": "contracts/vaults/STETHVault/RibbonThetaSTETHVault.sol:RibbonThetaSTETHVault",
        "label": "lastQueuedWithdrawAmount",
        "offset": 0,
        "slot": "253",
        "type": "t_uint256"
      },
      {
        "astId": 11368,
        "contract": "contracts/vaults/STETHVault/RibbonThetaSTETHVault.sol:RibbonThetaSTETHVault",
        "label": "liquidityGauge",
        "offset": 0,
        "slot": "254",
        "type": "t_address"
      }
    ],
    "types": {
      "t_address": {
        "encoding": "inplace",
        "label": "address",
        "numberOfBytes": "20"
      },
      "t_array(t_uint256)30_storage": {
        "base": "t_uint256",
        "encoding": "inplace",
        "label": "uint256[30]",
        "numberOfBytes": "960"
      },
      "t_array(t_uint256)45_storage": {
        "base": "t_uint256",
        "encoding": "inplace",
        "label": "uint256[45]",
        "numberOfBytes": "1440"
      },
      "t_array(t_uint256)49_storage": {
        "base": "t_uint256",
        "encoding": "inplace",
        "label": "uint256[49]",
        "numberOfBytes": "1568"
      },
      "t_array(t_uint256)50_storage": {
        "base": "t_uint256",
        "encoding": "inplace",
        "label": "uint256[50]",
        "numberOfBytes": "1600"
      },
      "t_bool": {
        "encoding": "inplace",
        "label": "bool",
        "numberOfBytes": "1"
      },
      "t_mapping(t_address,t_mapping(t_address,t_uint256))": {
        "encoding": "mapping",
        "key": "t_address",
        "label": "mapping(address => mapping(address => uint256))",
        "numberOfBytes": "32",
        "value": "t_mapping(t_address,t_uint256)"
      },
      "t_mapping(t_address,t_struct(DepositReceipt)5869_storage)": {
        "encoding": "mapping",
        "key": "t_address",
        "label": "mapping(address => struct Vault.DepositReceipt)",
        "numberOfBytes": "32",
        "value": "t_struct(DepositReceipt)5869_storage"
      },
      "t_mapping(t_address,t_struct(Withdrawal)5874_storage)": {
        "encoding": "mapping",
        "key": "t_address",
        "label": "mapping(address => struct Vault.Withdrawal)",
        "numberOfBytes": "32",
        "value": "t_struct(Withdrawal)5874_storage"
      },
      "t_mapping(t_address,t_uint256)": {
        "encoding": "mapping",
        "key": "t_address",
        "label": "mapping(address => uint256)",
        "numberOfBytes": "32",
        "value": "t_uint256"
      },
      "t_mapping(t_uint256,t_uint256)": {
        "encoding": "mapping",
        "key": "t_uint256",
        "label": "mapping(uint256 => uint256)",
        "numberOfBytes": "32",
        "value": "t_uint256"
      },
      "t_string_storage": {
        "encoding": "bytes",
        "label": "string",
        "numberOfBytes": "32"
      },
      "t_struct(DepositReceipt)5869_storage": {
        "encoding": "inplace",
        "label": "struct Vault.DepositReceipt",
        "members": [
          {
            "astId": 5864,
            "contract": "contracts/vaults/STETHVault/RibbonThetaSTETHVault.sol:RibbonThetaSTETHVault",
            "label": "round",
            "offset": 0,
            "slot": "0",
            "type": "t_uint16"
          },
          {
            "astId": 5866,
            "contract": "contracts/vaults/STETHVault/RibbonThetaSTETHVault.sol:RibbonThetaSTETHVault",
            "label": "amount",
            "offset": 2,
            "slot": "0",
            "type": "t_uint104"
          },
          {
            "astId": 5868,
            "contract": "contracts/vaults/STETHVault/RibbonThetaSTETHVault.sol:RibbonThetaSTETHVault",
            "label": "unredeemedShares",
            "offset": 15,
            "slot": "0",
            "type": "t_uint128"
          }
        ],
        "numberOfBytes": "32"
      },
      "t_struct(OptionState)5851_storage": {
        "encoding": "inplace",
        "label": "struct Vault.OptionState",
        "members": [
          {
            "astId": 5846,
            "contract": "contracts/vaults/STETHVault/RibbonThetaSTETHVault.sol:RibbonThetaSTETHVault",
            "label": "nextOption",
            "offset": 0,
            "slot": "0",
            "type": "t_address"
          },
          {
            "astId": 5848,
            "contract": "contracts/vaults/STETHVault/RibbonThetaSTETHVault.sol:RibbonThetaSTETHVault",
            "label": "currentOption",
            "offset": 0,
            "slot": "1",
            "type": "t_address"
          },
          {
            "astId": 5850,
            "contract": "contracts/vaults/STETHVault/RibbonThetaSTETHVault.sol:RibbonThetaSTETHVault",
            "label": "nextOptionReadyAt",
            "offset": 20,
            "slot": "1",
            "type": "t_uint32"
          }
        ],
        "numberOfBytes": "64"
      },
      "t_struct(VaultParams)5844_storage": {
        "encoding": "inplace",
        "label": "struct Vault.VaultParams",
        "members": [
          {
            "astId": 5833,
            "contract": "contracts/vaults/STETHVault/RibbonThetaSTETHVault.sol:RibbonThetaSTETHVault",
            "label": "isPut",
            "offset": 0,
            "slot": "0",
            "type": "t_bool"
          },
          {
            "astId": 5835,
            "contract": "contracts/vaults/STETHVault/RibbonThetaSTETHVault.sol:RibbonThetaSTETHVault",
            "label": "decimals",
            "offset": 1,
            "slot": "0",
            "type": "t_uint8"
          },
          {
            "astId": 5837,
            "contract": "contracts/vaults/STETHVault/RibbonThetaSTETHVault.sol:RibbonThetaSTETHVault",
            "label": "asset",
            "offset": 2,
            "slot": "0",
            "type": "t_address"
          },
          {
            "astId": 5839,
            "contract": "contracts/vaults/STETHVault/RibbonThetaSTETHVault.sol:RibbonThetaSTETHVault",
            "label": "underlying",
            "offset": 0,
            "slot": "1",
            "type": "t_address"
          },
          {
            "astId": 5841,
            "contract": "contracts/vaults/STETHVault/RibbonThetaSTETHVault.sol:RibbonThetaSTETHVault",
            "label": "minimumSupply",
            "offset": 20,
            "slot": "1",
            "type": "t_uint56"
          },
          {
            "astId": 5843,
            "contract": "contracts/vaults/STETHVault/RibbonThetaSTETHVault.sol:RibbonThetaSTETHVault",
            "label": "cap",
            "offset": 0,
            "slot": "2",
            "type": "t_uint104"
          }
        ],
        "numberOfBytes": "96"
      },
      "t_struct(VaultState)5862_storage": {
        "encoding": "inplace",
        "label": "struct Vault.VaultState",
        "members": [
          {
            "astId": 5853,
            "contract": "contracts/vaults/STETHVault/RibbonThetaSTETHVault.sol:RibbonThetaSTETHVault",
            "label": "round",
            "offset": 0,
            "slot": "0",
            "type": "t_uint16"
          },
          {
            "astId": 5855,
            "contract": "contracts/vaults/STETHVault/RibbonThetaSTETHVault.sol:RibbonThetaSTETHVault",
            "label": "lockedAmount",
            "offset": 2,
            "slot": "0",
            "type": "t_uint104"
          },
          {
            "astId": 5857,
            "contract": "contracts/vaults/STETHVault/RibbonThetaSTETHVault.sol:RibbonThetaSTETHVault",
            "label": "lastLockedAmount",
            "offset": 15,
            "slot": "0",
            "type": "t_uint104"
          },
          {
            "astId": 5859,
            "contract": "contracts/vaults/STETHVault/RibbonThetaSTETHVault.sol:RibbonThetaSTETHVault",
            "label": "totalPending",
            "offset": 0,
            "slot": "1",
            "type": "t_uint128"
          },
          {
            "astId": 5861,
            "contract": "contracts/vaults/STETHVault/RibbonThetaSTETHVault.sol:RibbonThetaSTETHVault",
            "label": "queuedWithdrawShares",
            "offset": 16,
            "slot": "1",
            "type": "t_uint128"
          }
        ],
        "numberOfBytes": "64"
      },
      "t_struct(Withdrawal)5874_storage": {
        "encoding": "inplace",
        "label": "struct Vault.Withdrawal",
        "members": [
          {
            "astId": 5871,
            "contract": "contracts/vaults/STETHVault/RibbonThetaSTETHVault.sol:RibbonThetaSTETHVault",
            "label": "round",
            "offset": 0,
            "slot": "0",
            "type": "t_uint16"
          },
          {
            "astId": 5873,
            "contract": "contracts/vaults/STETHVault/RibbonThetaSTETHVault.sol:RibbonThetaSTETHVault",
            "label": "shares",
            "offset": 2,
            "slot": "0",
            "type": "t_uint128"
          }
        ],
        "numberOfBytes": "32"
      },
      "t_uint104": {
        "encoding": "inplace",
        "label": "uint104",
        "numberOfBytes": "13"
      },
      "t_uint128": {
        "encoding": "inplace",
        "label": "uint128",
        "numberOfBytes": "16"
      },
      "t_uint16": {
        "encoding": "inplace",
        "label": "uint16",
        "numberOfBytes": "2"
      },
      "t_uint256": {
        "encoding": "inplace",
        "label": "uint256",
        "numberOfBytes": "32"
      },
      "t_uint32": {
        "encoding": "inplace",
        "label": "uint32",
        "numberOfBytes": "4"
      },
      "t_uint56": {
        "encoding": "inplace",
        "label": "uint56",
        "numberOfBytes": "7"
      },
      "t_uint8": {
        "encoding": "inplace",
        "label": "uint8",
        "numberOfBytes": "1"
      }
    }
  }
}