{
  "address": "0xa1457fB1e20fE1399E5d581733bB6aC0E7b7486f",
  "abi": [
    {
      "inputs": [
        {
          "internalType": "address",
          "name": "_weth",
          "type": "address"
        },
        {
          "internalType": "address",
          "name": "_usdc",
          "type": "address"
        },
        {
          "internalType": "address",
          "name": "_oTokenFactory",
          "type": "address"
        },
        {
          "internalType": "address",
          "name": "_gammaController",
          "type": "address"
        },
        {
          "internalType": "address",
          "name": "_marginPool",
          "type": "address"
        },
        {
          "internalType": "address",
          "name": "_swapContract",
          "type": "address"
        }
      ],
      "stateMutability": "nonpayable",
      "type": "constructor"
    },
    {
      "anonymous": false,
      "inputs": [
        {
          "indexed": true,
          "internalType": "address",
          "name": "owner",
          "type": "address"
        },
        {
          "indexed": true,
          "internalType": "address",
          "name": "spender",
          "type": "address"
        },
        {
          "indexed": false,
          "internalType": "uint256",
          "name": "value",
          "type": "uint256"
        }
      ],
      "name": "Approval",
      "type": "event"
    },
    {
      "anonymous": false,
      "inputs": [
        {
          "indexed": false,
          "internalType": "uint256",
          "name": "auctionDuration",
          "type": "uint256"
        },
        {
          "indexed": false,
          "internalType": "uint256",
          "name": "newAuctionDuration",
          "type": "uint256"
        }
      ],
      "name": "AuctionDurationSet",
      "type": "event"
    },
    {
      "anonymous": false,
      "inputs": [
        {
          "indexed": false,
          "internalType": "uint256",
          "name": "oldCap",
          "type": "uint256"
        },
        {
          "indexed": false,
          "internalType": "uint256",
          "name": "newCap",
          "type": "uint256"
        }
      ],
      "name": "CapSet",
      "type": "event"
    },
    {
      "anonymous": false,
      "inputs": [
        {
          "indexed": true,
          "internalType": "address",
          "name": "options",
          "type": "address"
        },
        {
          "indexed": false,
          "internalType": "uint256",
          "name": "withdrawAmount",
          "type": "uint256"
        },
        {
          "indexed": true,
          "internalType": "address",
          "name": "manager",
          "type": "address"
        }
      ],
      "name": "CloseShort",
      "type": "event"
    },
    {
      "anonymous": false,
      "inputs": [
        {
          "indexed": false,
          "internalType": "uint256",
          "name": "performanceFee",
          "type": "uint256"
        },
        {
          "indexed": false,
          "internalType": "uint256",
          "name": "vaultFee",
          "type": "uint256"
        },
        {
          "indexed": false,
          "internalType": "uint256",
          "name": "round",
          "type": "uint256"
        },
        {
          "indexed": true,
          "internalType": "address",
          "name": "feeRecipient",
          "type": "address"
        }
      ],
      "name": "CollectVaultFees",
      "type": "event"
    },
    {
      "anonymous": false,
      "inputs": [
        {
          "indexed": true,
          "internalType": "address",
          "name": "account",
          "type": "address"
        },
        {
          "indexed": false,
          "internalType": "uint256",
          "name": "amount",
          "type": "uint256"
        },
        {
          "indexed": false,
          "internalType": "uint256",
          "name": "round",
          "type": "uint256"
        }
      ],
      "name": "Deposit",
      "type": "event"
    },
    {
      "anonymous": false,
      "inputs": [
        {
          "indexed": true,
          "internalType": "address",
          "name": "account",
          "type": "address"
        },
        {
          "indexed": false,
          "internalType": "uint256",
          "name": "shares",
          "type": "uint256"
        },
        {
          "indexed": false,
          "internalType": "uint256",
          "name": "round",
          "type": "uint256"
        }
      ],
      "name": "InitiateWithdraw",
      "type": "event"
    },
    {
      "anonymous": false,
      "inputs": [
        {
          "indexed": true,
          "internalType": "address",
          "name": "account",
          "type": "address"
        },
        {
          "indexed": false,
          "internalType": "uint256",
          "name": "amount",
          "type": "uint256"
        },
        {
          "indexed": false,
          "internalType": "uint256",
          "name": "round",
          "type": "uint256"
        }
      ],
      "name": "InstantWithdraw",
      "type": "event"
    },
    {
      "anonymous": false,
      "inputs": [
        {
          "indexed": false,
          "internalType": "uint256",
          "name": "managementFee",
          "type": "uint256"
        },
        {
          "indexed": false,
          "internalType": "uint256",
          "name": "newManagementFee",
          "type": "uint256"
        }
      ],
      "name": "ManagementFeeSet",
      "type": "event"
    },
    {
      "anonymous": false,
      "inputs": [
        {
          "indexed": false,
          "internalType": "uint256",
          "name": "swapId",
          "type": "uint256"
        },
        {
          "indexed": false,
          "internalType": "address",
          "name": "seller",
          "type": "address"
        },
        {
          "indexed": false,
          "internalType": "address",
          "name": "oToken",
          "type": "address"
        },
        {
          "indexed": false,
          "internalType": "address",
          "name": "biddingToken",
          "type": "address"
        },
        {
          "indexed": false,
          "internalType": "uint256",
          "name": "minPrice",
          "type": "uint256"
        },
        {
          "indexed": false,
          "internalType": "uint256",
          "name": "minBidSize",
          "type": "uint256"
        },
        {
          "indexed": false,
          "internalType": "uint256",
          "name": "totalSize",
          "type": "uint256"
        }
      ],
      "name": "NewOffer",
      "type": "event"
    },
    {
      "anonymous": false,
      "inputs": [
        {
          "indexed": false,
          "internalType": "uint256",
          "name": "strikePrice",
          "type": "uint256"
        },
        {
          "indexed": false,
          "internalType": "uint256",
          "name": "delta",
          "type": "uint256"
        }
      ],
      "name": "NewOptionStrikeSelected",
      "type": "event"
    },
    {
      "anonymous": false,
      "inputs": [
        {
          "indexed": true,
          "internalType": "address",
          "name": "options",
          "type": "address"
        },
        {
          "indexed": false,
          "internalType": "uint256",
          "name": "depositAmount",
          "type": "uint256"
        },
        {
          "indexed": true,
          "internalType": "address",
          "name": "manager",
          "type": "address"
        }
      ],
      "name": "OpenShort",
      "type": "event"
    },
    {
      "anonymous": false,
      "inputs": [
        {
          "indexed": true,
          "internalType": "address",
          "name": "previousOwner",
          "type": "address"
        },
        {
          "indexed": true,
          "internalType": "address",
          "name": "newOwner",
          "type": "address"
        }
      ],
      "name": "OwnershipTransferred",
      "type": "event"
    },
    {
      "anonymous": false,
      "inputs": [
        {
          "indexed": false,
          "internalType": "uint256",
          "name": "performanceFee",
          "type": "uint256"
        },
        {
          "indexed": false,
          "internalType": "uint256",
          "name": "newPerformanceFee",
          "type": "uint256"
        }
      ],
      "name": "PerformanceFeeSet",
      "type": "event"
    },
    {
      "anonymous": false,
      "inputs": [
        {
          "indexed": true,
          "internalType": "address",
          "name": "account",
          "type": "address"
        },
        {
          "indexed": false,
          "internalType": "uint256",
          "name": "share",
          "type": "uint256"
        },
        {
          "indexed": false,
          "internalType": "uint256",
          "name": "round",
          "type": "uint256"
        }
      ],
      "name": "Redeem",
      "type": "event"
    },
    {
      "anonymous": false,
      "inputs": [
        {
          "indexed": true,
          "internalType": "address",
          "name": "from",
          "type": "address"
        },
        {
          "indexed": true,
          "internalType": "address",
          "name": "to",
          "type": "address"
        },
        {
          "indexed": false,
          "internalType": "uint256",
          "name": "value",
          "type": "uint256"
        }
      ],
      "name": "Transfer",
      "type": "event"
    },
    {
      "anonymous": false,
      "inputs": [
        {
          "indexed": true,
          "internalType": "address",
          "name": "account",
          "type": "address"
        },
        {
          "indexed": false,
          "internalType": "uint256",
          "name": "amount",
          "type": "uint256"
        },
        {
          "indexed": false,
          "internalType": "uint256",
          "name": "shares",
          "type": "uint256"
        }
      ],
      "name": "Withdraw",
      "type": "event"
    },
    {
      "inputs": [],
      "name": "DELAY",
      "outputs": [
        {
          "internalType": "uint256",
          "name": "",
          "type": "uint256"
        }
      ],
      "stateMutability": "view",
      "type": "function"
    },
    {
      "inputs": [],
      "name": "GAMMA_CONTROLLER",
      "outputs": [
        {
          "internalType": "address",
          "name": "",
          "type": "address"
        }
      ],
      "stateMutability": "view",
      "type": "function"
    },
    {
      "inputs": [],
      "name": "MARGIN_POOL",
      "outputs": [
        {
          "internalType": "address",
          "name": "",
          "type": "address"
        }
      ],
      "stateMutability": "view",
      "type": "function"
    },
    {
      "inputs": [],
      "name": "OTOKEN_FACTORY",
      "outputs": [
        {
          "internalType": "address",
          "name": "",
          "type": "address"
        }
      ],
      "stateMutability": "view",
      "type": "function"
    },
    {
      "inputs": [],
      "name": "PERIOD",
      "outputs": [
        {
          "internalType": "uint256",
          "name": "",
          "type": "uint256"
        }
      ],
      "stateMutability": "view",
      "type": "function"
    },
    {
      "inputs": [],
      "name": "SWAP_CONTRACT",
      "outputs": [
        {
          "internalType": "address",
          "name": "",
          "type": "address"
        }
      ],
      "stateMutability": "view",
      "type": "function"
    },
    {
      "inputs": [],
      "name": "USDC",
      "outputs": [
        {
          "internalType": "address",
          "name": "",
          "type": "address"
        }
      ],
      "stateMutability": "view",
      "type": "function"
    },
    {
      "inputs": [],
      "name": "WETH",
      "outputs": [
        {
          "internalType": "address",
          "name": "",
          "type": "address"
        }
      ],
      "stateMutability": "view",
      "type": "function"
    },
    {
      "inputs": [
        {
          "internalType": "address",
          "name": "account",
          "type": "address"
        }
      ],
      "name": "accountVaultBalance",
      "outputs": [
        {
          "internalType": "uint256",
          "name": "",
          "type": "uint256"
        }
      ],
      "stateMutability": "view",
      "type": "function"
    },
    {
      "inputs": [
        {
          "internalType": "address",
          "name": "owner",
          "type": "address"
        },
        {
          "internalType": "address",
          "name": "spender",
          "type": "address"
        }
      ],
      "name": "allowance",
      "outputs": [
        {
          "internalType": "uint256",
          "name": "",
          "type": "uint256"
        }
      ],
      "stateMutability": "view",
      "type": "function"
    },
    {
      "inputs": [
        {
          "internalType": "address",
          "name": "spender",
          "type": "address"
        },
        {
          "internalType": "uint256",
          "name": "amount",
          "type": "uint256"
        }
      ],
      "name": "approve",
      "outputs": [
        {
          "internalType": "bool",
          "name": "",
          "type": "bool"
        }
      ],
      "stateMutability": "nonpayable",
      "type": "function"
    },
    {
      "inputs": [],
      "name": "auctionDuration",
      "outputs": [
        {
          "internalType": "uint256",
          "name": "",
          "type": "uint256"
        }
      ],
      "stateMutability": "view",
      "type": "function"
    },
    {
      "inputs": [
        {
          "internalType": "address",
          "name": "account",
          "type": "address"
        }
      ],
      "name": "balanceOf",
      "outputs": [
        {
          "internalType": "uint256",
          "name": "",
          "type": "uint256"
        }
      ],
      "stateMutability": "view",
      "type": "function"
    },
    {
      "inputs": [],
      "name": "burnRemainingOTokens",
      "outputs": [],
      "stateMutability": "nonpayable",
      "type": "function"
    },
    {
      "inputs": [],
      "name": "cap",
      "outputs": [
        {
          "internalType": "uint256",
          "name": "",
          "type": "uint256"
        }
      ],
      "stateMutability": "view",
      "type": "function"
    },
    {
      "inputs": [],
      "name": "closeRound",
      "outputs": [],
      "stateMutability": "nonpayable",
      "type": "function"
    },
    {
      "inputs": [],
      "name": "commitNextOption",
      "outputs": [],
      "stateMutability": "nonpayable",
      "type": "function"
    },
    {
      "inputs": [],
      "name": "completeWithdraw",
      "outputs": [],
      "stateMutability": "nonpayable",
      "type": "function"
    },
    {
      "inputs": [],
      "name": "currentOption",
      "outputs": [
        {
          "internalType": "address",
          "name": "",
          "type": "address"
        }
      ],
      "stateMutability": "view",
      "type": "function"
    },
    {
      "inputs": [],
      "name": "currentOtokenPremium",
      "outputs": [
        {
          "internalType": "uint256",
          "name": "",
          "type": "uint256"
        }
      ],
      "stateMutability": "view",
      "type": "function"
    },
    {
      "inputs": [],
      "name": "currentQueuedWithdrawShares",
      "outputs": [
        {
          "internalType": "uint256",
          "name": "",
          "type": "uint256"
        }
      ],
      "stateMutability": "view",
      "type": "function"
    },
    {
      "inputs": [],
      "name": "decimals",
      "outputs": [
        {
          "internalType": "uint8",
          "name": "",
          "type": "uint8"
        }
      ],
      "stateMutability": "view",
      "type": "function"
    },
    {
      "inputs": [
        {
          "internalType": "address",
          "name": "spender",
          "type": "address"
        },
        {
          "internalType": "uint256",
          "name": "subtractedValue",
          "type": "uint256"
        }
      ],
      "name": "decreaseAllowance",
      "outputs": [
        {
          "internalType": "bool",
          "name": "",
          "type": "bool"
        }
      ],
      "stateMutability": "nonpayable",
      "type": "function"
    },
    {
      "inputs": [
        {
          "internalType": "uint256",
          "name": "amount",
          "type": "uint256"
        }
      ],
      "name": "deposit",
      "outputs": [],
      "stateMutability": "nonpayable",
      "type": "function"
    },
    {
      "inputs": [],
      "name": "depositETH",
      "outputs": [],
      "stateMutability": "payable",
      "type": "function"
    },
    {
      "inputs": [
        {
          "internalType": "uint256",
          "name": "amount",
          "type": "uint256"
        },
        {
          "internalType": "address",
          "name": "creditor",
          "type": "address"
        }
      ],
      "name": "depositFor",
      "outputs": [],
      "stateMutability": "nonpayable",
      "type": "function"
    },
    {
      "inputs": [
        {
          "internalType": "address",
          "name": "",
          "type": "address"
        }
      ],
      "name": "depositReceipts",
      "outputs": [
        {
          "internalType": "uint16",
          "name": "round",
          "type": "uint16"
        },
        {
          "internalType": "uint104",
          "name": "amount",
          "type": "uint104"
        },
        {
          "internalType": "uint128",
          "name": "unredeemedShares",
          "type": "uint128"
        }
      ],
      "stateMutability": "view",
      "type": "function"
    },
    {
      "inputs": [],
      "name": "feeRecipient",
      "outputs": [
        {
          "internalType": "address",
          "name": "",
          "type": "address"
        }
      ],
      "stateMutability": "view",
      "type": "function"
    },
    {
      "inputs": [
        {
          "internalType": "address",
          "name": "spender",
          "type": "address"
        },
        {
          "internalType": "uint256",
          "name": "addedValue",
          "type": "uint256"
        }
      ],
      "name": "increaseAllowance",
      "outputs": [
        {
          "internalType": "bool",
          "name": "",
          "type": "bool"
        }
      ],
      "stateMutability": "nonpayable",
      "type": "function"
    },
    {
      "inputs": [
        {
          "internalType": "uint256",
          "name": "numRounds",
          "type": "uint256"
        }
      ],
      "name": "initRounds",
      "outputs": [],
      "stateMutability": "nonpayable",
      "type": "function"
    },
    {
      "inputs": [
        {
          "components": [
            {
              "internalType": "address",
              "name": "_owner",
              "type": "address"
            },
            {
              "internalType": "address",
              "name": "_keeper",
              "type": "address"
            },
            {
              "internalType": "address",
              "name": "_feeRecipient",
              "type": "address"
            },
            {
              "internalType": "uint256",
              "name": "_managementFee",
              "type": "uint256"
            },
            {
              "internalType": "uint256",
              "name": "_performanceFee",
              "type": "uint256"
            },
            {
              "internalType": "string",
              "name": "_tokenName",
              "type": "string"
            },
            {
              "internalType": "string",
              "name": "_tokenSymbol",
              "type": "string"
            },
            {
              "internalType": "address",
              "name": "_optionsPremiumPricer",
              "type": "address"
            },
            {
              "internalType": "address",
              "name": "_strikeSelection",
              "type": "address"
            }
          ],
          "internalType": "struct RibbonThetaRETHVault.InitParams",
          "name": "_initParams",
          "type": "tuple"
        },
        {
          "components": [
            {
              "internalType": "bool",
              "name": "isPut",
              "type": "bool"
            },
            {
              "internalType": "uint8",
              "name": "decimals",
              "type": "uint8"
            },
            {
              "internalType": "address",
              "name": "asset",
              "type": "address"
            },
            {
              "internalType": "address",
              "name": "underlying",
              "type": "address"
            },
            {
              "internalType": "uint56",
              "name": "minimumSupply",
              "type": "uint56"
            },
            {
              "internalType": "uint104",
              "name": "cap",
              "type": "uint104"
            }
          ],
          "internalType": "struct Vault.VaultParams",
          "name": "_vaultParams",
          "type": "tuple"
        }
      ],
      "name": "initialize",
      "outputs": [],
      "stateMutability": "nonpayable",
      "type": "function"
    },
    {
      "inputs": [
        {
          "internalType": "uint256",
          "name": "numShares",
          "type": "uint256"
        }
      ],
      "name": "initiateWithdraw",
      "outputs": [],
      "stateMutability": "nonpayable",
      "type": "function"
    },
    {
      "inputs": [],
      "name": "keeper",
      "outputs": [
        {
          "internalType": "address",
          "name": "",
          "type": "address"
        }
      ],
      "stateMutability": "view",
      "type": "function"
    },
    {
      "inputs": [],
      "name": "lastQueuedWithdrawAmount",
      "outputs": [
        {
          "internalType": "uint256",
          "name": "",
          "type": "uint256"
        }
      ],
      "stateMutability": "view",
      "type": "function"
    },
    {
      "inputs": [],
      "name": "lastStrikeOverrideRound",
      "outputs": [
        {
          "internalType": "uint16",
          "name": "",
          "type": "uint16"
        }
      ],
      "stateMutability": "view",
      "type": "function"
    },
    {
      "inputs": [],
      "name": "lastrETHMintCutoff",
      "outputs": [
        {
          "internalType": "uint256",
          "name": "",
          "type": "uint256"
        }
      ],
      "stateMutability": "view",
      "type": "function"
    },
    {
      "inputs": [],
      "name": "liquidityGauge",
      "outputs": [
        {
          "internalType": "address",
          "name": "",
          "type": "address"
        }
      ],
      "stateMutability": "view",
      "type": "function"
    },
    {
      "inputs": [],
      "name": "managementFee",
      "outputs": [
        {
          "internalType": "uint256",
          "name": "",
          "type": "uint256"
        }
      ],
      "stateMutability": "view",
      "type": "function"
    },
    {
      "inputs": [],
      "name": "maxRedeem",
      "outputs": [],
      "stateMutability": "nonpayable",
      "type": "function"
    },
    {
      "inputs": [],
      "name": "name",
      "outputs": [
        {
          "internalType": "string",
          "name": "",
          "type": "string"
        }
      ],
      "stateMutability": "view",
      "type": "function"
    },
    {
      "inputs": [],
      "name": "nextOption",
      "outputs": [
        {
          "internalType": "address",
          "name": "",
          "type": "address"
        }
      ],
      "stateMutability": "view",
      "type": "function"
    },
    {
      "inputs": [],
      "name": "nextOptionReadyAt",
      "outputs": [
        {
          "internalType": "uint256",
          "name": "",
          "type": "uint256"
        }
      ],
      "stateMutability": "view",
      "type": "function"
    },
    {
      "inputs": [],
      "name": "optionAuctionID",
      "outputs": [
        {
          "internalType": "uint256",
          "name": "",
          "type": "uint256"
        }
      ],
      "stateMutability": "view",
      "type": "function"
    },
    {
      "inputs": [],
      "name": "optionState",
      "outputs": [
        {
          "internalType": "address",
          "name": "nextOption",
          "type": "address"
        },
        {
          "internalType": "address",
          "name": "currentOption",
          "type": "address"
        },
        {
          "internalType": "uint32",
          "name": "nextOptionReadyAt",
          "type": "uint32"
        }
      ],
      "stateMutability": "view",
      "type": "function"
    },
    {
      "inputs": [],
      "name": "optionsPremiumPricer",
      "outputs": [
        {
          "internalType": "address",
          "name": "",
          "type": "address"
        }
      ],
      "stateMutability": "view",
      "type": "function"
    },
    {
      "inputs": [],
      "name": "optionsPurchaseQueue",
      "outputs": [
        {
          "internalType": "address",
          "name": "",
          "type": "address"
        }
      ],
      "stateMutability": "view",
      "type": "function"
    },
    {
      "inputs": [],
      "name": "overriddenStrikePrice",
      "outputs": [
        {
          "internalType": "uint256",
          "name": "",
          "type": "uint256"
        }
      ],
      "stateMutability": "view",
      "type": "function"
    },
    {
      "inputs": [],
      "name": "owner",
      "outputs": [
        {
          "internalType": "address",
          "name": "",
          "type": "address"
        }
      ],
      "stateMutability": "view",
      "type": "function"
    },
    {
      "inputs": [],
      "name": "pausePosition",
      "outputs": [],
      "stateMutability": "nonpayable",
      "type": "function"
    },
    {
      "inputs": [],
      "name": "performanceFee",
      "outputs": [
        {
          "internalType": "uint256",
          "name": "",
          "type": "uint256"
        }
      ],
      "stateMutability": "view",
      "type": "function"
    },
    {
      "inputs": [],
      "name": "premiumDiscount",
      "outputs": [
        {
          "internalType": "uint256",
          "name": "",
          "type": "uint256"
        }
      ],
      "stateMutability": "view",
      "type": "function"
    },
    {
      "inputs": [],
      "name": "pricePerShare",
      "outputs": [
        {
          "internalType": "uint256",
          "name": "",
          "type": "uint256"
        }
      ],
      "stateMutability": "view",
      "type": "function"
    },
    {
      "inputs": [
        {
          "internalType": "uint256",
          "name": "numShares",
          "type": "uint256"
        }
      ],
      "name": "redeem",
      "outputs": [],
      "stateMutability": "nonpayable",
      "type": "function"
    },
    {
      "inputs": [],
      "name": "renounceOwnership",
      "outputs": [],
      "stateMutability": "nonpayable",
      "type": "function"
    },
    {
      "inputs": [],
      "name": "rollToNextOption",
      "outputs": [],
      "stateMutability": "nonpayable",
      "type": "function"
    },
    {
      "inputs": [
        {
          "internalType": "uint256",
          "name": "",
          "type": "uint256"
        }
      ],
      "name": "roundPricePerShare",
      "outputs": [
        {
          "internalType": "uint256",
          "name": "",
          "type": "uint256"
        }
      ],
      "stateMutability": "view",
      "type": "function"
    },
    {
      "inputs": [
        {
          "internalType": "uint256",
          "name": "newCap",
          "type": "uint256"
        }
      ],
      "name": "setCap",
      "outputs": [],
      "stateMutability": "nonpayable",
      "type": "function"
    },
    {
      "inputs": [
        {
          "internalType": "address",
          "name": "newFeeRecipient",
          "type": "address"
        }
      ],
      "name": "setFeeRecipient",
      "outputs": [],
      "stateMutability": "nonpayable",
      "type": "function"
    },
    {
      "inputs": [
        {
          "internalType": "address",
          "name": "newLiquidityGauge",
          "type": "address"
        }
      ],
      "name": "setLiquidityGauge",
      "outputs": [],
      "stateMutability": "nonpayable",
      "type": "function"
    },
    {
      "inputs": [
        {
          "internalType": "uint256",
          "name": "newManagementFee",
          "type": "uint256"
        }
      ],
      "name": "setManagementFee",
      "outputs": [],
      "stateMutability": "nonpayable",
      "type": "function"
    },
    {
      "inputs": [
        {
          "internalType": "uint256",
          "name": "minPrice",
          "type": "uint256"
        }
      ],
      "name": "setMinPrice",
      "outputs": [],
      "stateMutability": "nonpayable",
      "type": "function"
    },
    {
      "inputs": [
        {
          "internalType": "address",
          "name": "newKeeper",
          "type": "address"
        }
      ],
      "name": "setNewKeeper",
      "outputs": [],
      "stateMutability": "nonpayable",
      "type": "function"
    },
    {
      "inputs": [
        {
          "internalType": "address",
          "name": "newOptionsPremiumPricer",
          "type": "address"
        }
      ],
      "name": "setOptionsPremiumPricer",
      "outputs": [],
      "stateMutability": "nonpayable",
      "type": "function"
    },
    {
      "inputs": [
        {
          "internalType": "uint256",
          "name": "newPerformanceFee",
          "type": "uint256"
        }
      ],
      "name": "setPerformanceFee",
      "outputs": [],
      "stateMutability": "nonpayable",
      "type": "function"
    },
    {
      "inputs": [
        {
          "internalType": "uint128",
          "name": "strikePrice",
          "type": "uint128"
        }
      ],
      "name": "setStrikePrice",
      "outputs": [],
      "stateMutability": "nonpayable",
      "type": "function"
    },
    {
      "inputs": [
        {
          "internalType": "address",
          "name": "newStrikeSelection",
          "type": "address"
        }
      ],
      "name": "setStrikeSelection",
      "outputs": [],
      "stateMutability": "nonpayable",
      "type": "function"
    },
    {
      "inputs": [
        {
          "internalType": "address",
          "name": "newVaultPauser",
          "type": "address"
        }
      ],
      "name": "setVaultPauser",
      "outputs": [],
      "stateMutability": "nonpayable",
      "type": "function"
    },
    {
      "inputs": [
        {
          "components": [
            {
              "internalType": "uint256",
              "name": "swapId",
              "type": "uint256"
            },
            {
              "internalType": "uint256",
              "name": "nonce",
              "type": "uint256"
            },
            {
              "internalType": "address",
              "name": "signerWallet",
              "type": "address"
            },
            {
              "internalType": "uint256",
              "name": "sellAmount",
              "type": "uint256"
            },
            {
              "internalType": "uint256",
              "name": "buyAmount",
              "type": "uint256"
            },
            {
              "internalType": "address",
              "name": "referrer",
              "type": "address"
            },
            {
              "internalType": "uint8",
              "name": "v",
              "type": "uint8"
            },
            {
              "internalType": "bytes32",
              "name": "r",
              "type": "bytes32"
            },
            {
              "internalType": "bytes32",
              "name": "s",
              "type": "bytes32"
            }
          ],
          "internalType": "struct ISwap.Bid[]",
          "name": "bids",
          "type": "tuple[]"
        }
      ],
      "name": "settleOffer",
      "outputs": [],
      "stateMutability": "nonpayable",
      "type": "function"
    },
    {
      "inputs": [
        {
          "internalType": "address",
          "name": "account",
          "type": "address"
        }
      ],
      "name": "shareBalances",
      "outputs": [
        {
          "internalType": "uint256",
          "name": "heldByAccount",
          "type": "uint256"
        },
        {
          "internalType": "uint256",
          "name": "heldByVault",
          "type": "uint256"
        }
      ],
      "stateMutability": "view",
      "type": "function"
    },
    {
      "inputs": [
        {
          "internalType": "address",
          "name": "account",
          "type": "address"
        }
      ],
      "name": "shares",
      "outputs": [
        {
          "internalType": "uint256",
          "name": "",
          "type": "uint256"
        }
      ],
      "stateMutability": "view",
      "type": "function"
    },
    {
      "inputs": [
        {
          "internalType": "uint256",
          "name": "numShares",
          "type": "uint256"
        }
      ],
      "name": "stake",
      "outputs": [],
      "stateMutability": "nonpayable",
      "type": "function"
    },
    {
      "inputs": [],
      "name": "strikeSelection",
      "outputs": [
        {
          "internalType": "address",
          "name": "",
          "type": "address"
        }
      ],
      "stateMutability": "view",
      "type": "function"
    },
    {
      "inputs": [],
      "name": "symbol",
      "outputs": [
        {
          "internalType": "string",
          "name": "",
          "type": "string"
        }
      ],
      "stateMutability": "view",
      "type": "function"
    },
    {
      "inputs": [],
      "name": "totalBalance",
      "outputs": [
        {
          "internalType": "uint256",
          "name": "",
          "type": "uint256"
        }
      ],
      "stateMutability": "view",
      "type": "function"
    },
    {
      "inputs": [],
      "name": "totalPending",
      "outputs": [
        {
          "internalType": "uint256",
          "name": "",
          "type": "uint256"
        }
      ],
      "stateMutability": "view",
      "type": "function"
    },
    {
      "inputs": [],
      "name": "totalSupply",
      "outputs": [
        {
          "internalType": "uint256",
          "name": "",
          "type": "uint256"
        }
      ],
      "stateMutability": "view",
      "type": "function"
    },
    {
      "inputs": [
        {
          "internalType": "address",
          "name": "recipient",
          "type": "address"
        },
        {
          "internalType": "uint256",
          "name": "amount",
          "type": "uint256"
        }
      ],
      "name": "transfer",
      "outputs": [
        {
          "internalType": "bool",
          "name": "",
          "type": "bool"
        }
      ],
      "stateMutability": "nonpayable",
      "type": "function"
    },
    {
      "inputs": [
        {
          "internalType": "address",
          "name": "sender",
          "type": "address"
        },
        {
          "internalType": "address",
          "name": "recipient",
          "type": "address"
        },
        {
          "internalType": "uint256",
          "name": "amount",
          "type": "uint256"
        }
      ],
      "name": "transferFrom",
      "outputs": [
        {
          "internalType": "bool",
          "name": "",
          "type": "bool"
        }
      ],
      "stateMutability": "nonpayable",
      "type": "function"
    },
    {
      "inputs": [
        {
          "internalType": "address",
          "name": "newOwner",
          "type": "address"
        }
      ],
      "name": "transferOwnership",
      "outputs": [],
      "stateMutability": "nonpayable",
      "type": "function"
    },
    {
      "inputs": [],
      "name": "updaterETHMintCutoff",
      "outputs": [],
      "stateMutability": "nonpayable",
      "type": "function"
    },
    {
      "inputs": [],
      "name": "vaultParams",
      "outputs": [
        {
          "internalType": "bool",
          "name": "isPut",
          "type": "bool"
        },
        {
          "internalType": "uint8",
          "name": "decimals",
          "type": "uint8"
        },
        {
          "internalType": "address",
          "name": "asset",
          "type": "address"
        },
        {
          "internalType": "address",
          "name": "underlying",
          "type": "address"
        },
        {
          "internalType": "uint56",
          "name": "minimumSupply",
          "type": "uint56"
        },
        {
          "internalType": "uint104",
          "name": "cap",
          "type": "uint104"
        }
      ],
      "stateMutability": "view",
      "type": "function"
    },
    {
      "inputs": [],
      "name": "vaultPauser",
      "outputs": [
        {
          "internalType": "address",
          "name": "",
          "type": "address"
        }
      ],
      "stateMutability": "view",
      "type": "function"
    },
    {
      "inputs": [],
      "name": "vaultState",
      "outputs": [
        {
          "internalType": "uint16",
          "name": "round",
          "type": "uint16"
        },
        {
          "internalType": "uint104",
          "name": "lockedAmount",
          "type": "uint104"
        },
        {
          "internalType": "uint104",
          "name": "lastLockedAmount",
          "type": "uint104"
        },
        {
          "internalType": "uint128",
          "name": "totalPending",
          "type": "uint128"
        },
        {
          "internalType": "uint128",
          "name": "queuedWithdrawShares",
          "type": "uint128"
        }
      ],
      "stateMutability": "view",
      "type": "function"
    },
    {
      "inputs": [
        {
          "internalType": "uint256",
          "name": "amount",
          "type": "uint256"
        }
      ],
      "name": "withdrawInstantly",
      "outputs": [],
      "stateMutability": "nonpayable",
      "type": "function"
    },
    {
      "inputs": [
        {
          "internalType": "address",
          "name": "",
          "type": "address"
        }
      ],
      "name": "withdrawals",
      "outputs": [
        {
          "internalType": "uint16",
          "name": "round",
          "type": "uint16"
        },
        {
          "internalType": "uint128",
          "name": "shares",
          "type": "uint128"
        }
      ],
      "stateMutability": "view",
      "type": "function"
    }
  ],
  "transactionHash": "0x2ce2a3557370ef961d607bfbb41da9601bf3a8b7c31a840db4f6bf840f6a1ff3",
  "args": [
    "0xC02aaA39b223FE8D0A0e5C4F27eAD9083C756Cc2",
    "0xA0b86991c6218b36c1d19D4a2e9Eb0cE3606eB48",
    "0x7C06792Af1632E77cb27a558Dc0885338F4Bdf8E",
    "0x4ccc2339F87F6c59c6893E1A678c2266cA58dC72",
    "0x5934807cC0654d46755eBd2848840b616256C6Ef",
    "0xEb8CAB2F4663247db8eAfb556F498c861bB4e161"
  ],
  "solcInputHash": "052368b2139ad1695fba2fe349a79f96",
  "bytecode": "0x6101406040523480156200001257600080fd5b5060405162005d3238038062005d32833981016040819052620000359162000252565b85858484846001600160a01b0385166200007f5760405162461bcd60e51b8152602060048201526006602482015265042beeecae8d60d31b60448201526064015b60405180910390fd5b6001600160a01b038416620000c05760405162461bcd60e51b8152602060048201526006602482015265215f7573646360d01b604482015260640162000076565b6001600160a01b038116620001095760405162461bcd60e51b815260206004820152600e60248201526d0857dcddd85c10dbdb9d1c9858dd60921b604482015260640162000076565b6001600160a01b038316620001555760405162461bcd60e51b815260206004820152601160248201527010afb3b0b6b6b0a1b7b73a3937b63632b960791b604482015260640162000076565b6001600160a01b0382166200019c5760405162461bcd60e51b815260206004820152600c60248201526b0857db585c99da5b941bdbdb60a21b604482015260640162000076565b6001600160601b0319606095861b811660805293851b841660a05291841b831660c052831b821660e05290911b16610100526001600160a01b038416620002185760405162461bcd60e51b815260206004820152600f60248201526e215f6f546f6b656e466163746f727960881b604482015260640162000076565b50505060601b6001600160601b0319166101205250620002d29050565b80516001600160a01b03811681146200024d57600080fd5b919050565b60008060008060008060c087890312156200026b578182fd5b620002768762000235565b9550620002866020880162000235565b9450620002966040880162000235565b9350620002a66060880162000235565b9250620002b66080880162000235565b9150620002c660a0880162000235565b90509295509295509295565b60805160601c60a05160601c60c05160601c60e05160601c6101005160601c6101205160601c6159b86200037a60003960008181610f6b0152612e0c015260008181610ee101528181611abd0152613ccc0152600081816108ed015261227f01526000818161058c015281816119ad015281816122570152613e04015260008181610b370152612e31015260008181610df70152818161339701526133d401526159b86000f3fe6080604052600436106104aa5760003560e01c806389a302711161026b578063b9f8092b1161014f578063e74b981b116100c1578063f756fa2111610085578063f756fa211461109b578063f87c7d93146110b0578063f957a067146110c5578063f9a0be68146110e5578063fba7dc6114611106578063fe56e2321461112757600080fd5b8063e74b981b14610ffe578063f00138271461101e578063f2fde38b1461103e578063f6326fb31461105e578063f656ba511461106657600080fd5b8063d5f2638211610113578063d5f2638214610f23578063db006a7514610f39578063db43e86214610f59578063dd62ed3e14610f8d578063e278fe6f14610fd3578063e73c63d514610fe857600080fd5b8063b9f8092b14610e85578063ca59409414610e9a578063ce7c2ac214610eaf578063cf3afa5114610ecf578063d164cc1514610f0357600080fd5b8063a2db9d83116101e8578063aced1661116101ac578063aced166114610dc5578063ad5c464814610de5578063ad7a672f14610e19578063afa6626414610e2e578063b4d1d79514610e4e578063b6b55f2514610e6557600080fd5b8063a2db9d8314610d31578063a457c2d714610d4f578063a694fc3a14610d6f578063a6f7f5d614610d8f578063a9059cbb14610da557600080fd5b806399530b061161022f57806399530b0614610bcb5780639be43daa14610be05780639fcc2d7514610c00578063a083ff1714610cac578063a285c9e814610d0f57600080fd5b806389a3027114610b255780638b10cc7c14610b595780638da5cb5b14610b77578063947061b514610b9557806395d89b4114610bb657600080fd5b806347786d3711610392578063692308681161030f578063715018a6116102d3578063715018a614610a335780637a9262a214610a485780637e108d5214610aac57806383536ff314610acc57806387153eb114610ae25780638778878214610b0f57600080fd5b8063692308681461099357806369b41170146109b35780636f31ab34146109c857806370897b23146109dd57806370a08231146109fd57600080fd5b8063573f0d6e11610356578063573f0d6e146108865780635ea8cd12146108a6578063600a2cfb146108c6578063650cce8a146108db5780636719b2ee1461090f57600080fd5b806347786d37146108035780634b2431d914610823578063503c70aa1461083a578063538207761461085057806355489bb21461086657600080fd5b806330630da41161042b5780633ec143d3116103ef5780633ec143d3146107415780633f23bb731461076f5780633f90916a1461078f578063432833a6146107ad5780634603c0aa146107c357806346904840146107e357600080fd5b806330630da414610699578063313ce567146106b9578063355274ea146106e357806336efd16f14610701578063395093511461072157600080fd5b806318160ddd1161047257806318160ddd146105655780631a92f6c21461057a57806323b872dd146105c65780632728f333146105e65780632775d01c1461067957600080fd5b8063048bf085146104af57806306fdde03146104d1578063095ea7b3146104fc5780630b06d4d71461052c5780630cbf54c814610541575b600080fd5b3480156104bb57600080fd5b506104cf6104ca366004614f2f565b611147565b005b3480156104dd57600080fd5b506104e661119d565b6040516104f39190615313565b60405180910390f35b34801561050857600080fd5b5061051c610517366004614fc3565b61122f565b60405190151581526020016104f3565b34801561053857600080fd5b506104cf611246565b34801561054d57600080fd5b5061055760fc5481565b6040519081526020016104f3565b34801561057157600080fd5b50609954610557565b34801561058657600080fd5b506105ae7f000000000000000000000000000000000000000000000000000000000000000081565b6040516001600160a01b0390911681526020016104f3565b3480156105d257600080fd5b5061051c6105e1366004614f83565b611276565b3480156105f257600080fd5b5060cf5460d0546106349161ffff8116916001600160681b03620100008304811692600160781b900416906001600160801b0380821691600160801b90041685565b6040805161ffff90961686526001600160681b03948516602087015293909216928401929092526001600160801b03918216606084015216608082015260a0016104f3565b34801561068557600080fd5b506104cf610694366004615134565b611322565b3480156106a557600080fd5b506104cf6106b4366004614f2f565b6114c5565b3480156106c557600080fd5b5060cc54610100900460ff1660405160ff90911681526020016104f3565b3480156106ef57600080fd5b5060ce546001600160681b0316610557565b34801561070d57600080fd5b506104cf61071c366004615164565b61155d565b34801561072d57600080fd5b5061051c61073c366004614fc3565b6115e5565b34801561074d57600080fd5b5060fa5461075c9061ffff1681565b60405161ffff90911681526020016104f3565b34801561077b57600080fd5b5061055761078a366004614f2f565b611621565b34801561079b57600080fd5b5060d0546001600160801b0316610557565b3480156107b957600080fd5b5061055760fd5481565b3480156107cf57600080fd5b506104cf6107de366004614f2f565b611674565b3480156107ef57600080fd5b5060d3546105ae906001600160a01b031681565b34801561080f57600080fd5b506104cf61081e366004615134565b611716565b34801561082f57600080fd5b506105576101035481565b34801561084657600080fd5b5061055760fe5481565b34801561085c57600080fd5b5061055760d75481565b34801561087257600080fd5b506104cf61088136600461510d565b6117f1565b34801561089257600080fd5b506104cf6108a1366004614f2f565b611889565b3480156108b257600080fd5b506104cf6108c1366004615134565b6118d6565b3480156108d257600080fd5b506104cf611941565b3480156108e757600080fd5b506105ae7f000000000000000000000000000000000000000000000000000000000000000081565b34801561091b57600080fd5b5061096261092a366004614f2f565b60c96020526000908152604090205461ffff8116906201000081046001600160681b031690600160781b90046001600160801b031683565b6040805161ffff90941684526001600160681b0390921660208401526001600160801b0316908201526060016104f3565b34801561099f57600080fd5b506104cf6109ae366004615024565b611a51565b3480156109bf57600080fd5b50610557600081565b3480156109d457600080fd5b506104cf611b2f565b3480156109e957600080fd5b506104cf6109f8366004615134565b611b6c565b348015610a0957600080fd5b50610557610a18366004614f2f565b6001600160a01b031660009081526097602052604090205490565b348015610a3f57600080fd5b506104cf611c33565b348015610a5457600080fd5b50610a8a610a63366004614f2f565b60cb6020526000908152604090205461ffff8116906201000090046001600160801b031682565b6040805161ffff90931683526001600160801b039091166020830152016104f3565b348015610ab857600080fd5b506104cf610ac7366004615134565b611c69565b348015610ad857600080fd5b5061055760f85481565b348015610aee57600080fd5b50610557610afd366004615134565b60ca6020526000908152604090205481565b348015610b1b57600080fd5b5061055760d55481565b348015610b3157600080fd5b506105ae7f000000000000000000000000000000000000000000000000000000000000000081565b348015610b6557600080fd5b5060d2546001600160a01b03166105ae565b348015610b8357600080fd5b506065546001600160a01b03166105ae565b348015610ba157600080fd5b50610104546105ae906001600160a01b031681565b348015610bc257600080fd5b506104e6611cb3565b348015610bd757600080fd5b50610557611cc2565b348015610bec57600080fd5b506104cf610bfb366004615134565b611cfc565b348015610c0c57600080fd5b5060cc5460cd5460ce54610c5c9260ff808216936101008304909116926001600160a01b036201000090930483169282169166ffffffffffffff600160a01b90910416906001600160681b031686565b60408051961515875260ff90951660208701526001600160a01b03938416948601949094529116606084015266ffffffffffffff1660808301526001600160681b031660a082015260c0016104f3565b348015610cb857600080fd5b5060d15460d254610ce3916001600160a01b039081169190811690600160a01b900463ffffffff1683565b604080516001600160a01b03948516815293909216602084015263ffffffff16908201526060016104f3565b348015610d1b57600080fd5b5060d254600160a01b900463ffffffff16610557565b348015610d3d57600080fd5b5060d1546001600160a01b03166105ae565b348015610d5b57600080fd5b5061051c610d6a366004614fc3565b611df6565b348015610d7b57600080fd5b506104cf610d8a366004615134565b611e8f565b348015610d9b57600080fd5b5061055760d65481565b348015610db157600080fd5b5061051c610dc0366004614fc3565b611f8d565b348015610dd157600080fd5b5060d4546105ae906001600160a01b031681565b348015610df157600080fd5b506105ae7f000000000000000000000000000000000000000000000000000000000000000081565b348015610e2557600080fd5b50610557611f9a565b348015610e3a57600080fd5b5060f6546105ae906001600160a01b031681565b348015610e5a57600080fd5b5061055762093a8081565b348015610e7157600080fd5b506104cf610e80366004615134565b6120c8565b348015610e9157600080fd5b506104cf612135565b348015610ea657600080fd5b506104cf61232b565b348015610ebb57600080fd5b50610557610eca366004614f2f565b6123ce565b348015610edb57600080fd5b506105ae7f000000000000000000000000000000000000000000000000000000000000000081565b348015610f0f57600080fd5b506104cf610f1e366004614f2f565b6123eb565b348015610f2f57600080fd5b5061055760f95481565b348015610f4557600080fd5b506104cf610f54366004615134565b61247a565b348015610f6557600080fd5b506105ae7f000000000000000000000000000000000000000000000000000000000000000081565b348015610f9957600080fd5b50610557610fa8366004614f4b565b6001600160a01b03918216600090815260986020908152604080832093909416825291909152205490565b348015610fdf57600080fd5b506104cf6124e7565b348015610ff457600080fd5b5061055760fb5481565b34801561100a57600080fd5b506104cf611019366004614f2f565b61269b565b34801561102a57600080fd5b506104cf6110393660046150b1565b61278e565b34801561104a57600080fd5b506104cf611059366004614f2f565b6129e6565b6104cf612a81565b34801561107257600080fd5b50611086611081366004614f2f565b612c0d565b604080519283526020830191909152016104f3565b3480156110a757600080fd5b506104cf612cf0565b3480156110bc57600080fd5b506104cf612d45565b3480156110d157600080fd5b5060f7546105ae906001600160a01b031681565b3480156110f157600080fd5b50610101546105ae906001600160a01b031681565b34801561111257600080fd5b50610102546105ae906001600160a01b031681565b34801561113357600080fd5b506104cf611142366004615134565b612f9e565b6065546001600160a01b0316331461117a5760405162461bcd60e51b815260040161117190615395565b60405180910390fd5b61010180546001600160a01b0319166001600160a01b0392909216919091179055565b6060609a80546111ac90615782565b80601f01602080910402602001604051908101604052809291908181526020018280546111d890615782565b80156112255780601f106111fa57610100808354040283529160200191611225565b820191906000526020600020905b81548152906001019060200180831161120857829003601f168201915b5050505050905090565b600061123c33848461307f565b5060015b92915050565b60d4546001600160a01b031633146112705760405162461bcd60e51b815260040161117190615326565b4260d755565b60006112838484846131a4565b6001600160a01b0384166000908152609860209081526040808320338452909152902054828110156113085760405162461bcd60e51b815260206004820152602860248201527f45524332303a207472616e7366657220616d6f756e74206578636565647320616044820152676c6c6f77616e636560c01b6064820152608401611171565b611315853385840361307f565b60019150505b9392505050565b600260015414156113455760405162461bcd60e51b8152600401611171906153eb565b600260015533600090815260c96020526040902060cf5461ffff168261137d5760405162461bcd60e51b8152600401611171906153ca565b815461ffff1681146113c15760405162461bcd60e51b815260206004820152600d60248201526c125b9d985b1a59081c9bdd5b99609a1b6044820152606401611171565b81546201000090046001600160681b0316838110156114125760405162461bcd60e51b815260206004820152600d60248201526c115e18d9595908185b5bdd5b9d609a1b6044820152606401611171565b61141c8185613374565b83546001600160681b0391909116620100000262010000600160781b031990911617835560d054611456906001600160801b031685613374565b60d080546001600160801b0319166001600160801b0392909216919091179055604080518581526020810184905233917fab2daf3c146ca6416cbccd2a86ed2ba995e171ef6319df14a38aef01403a9c96910160405180910390a26114bb3385613380565b5050600180555050565b6065546001600160a01b031633146114ef5760405162461bcd60e51b815260040161117190615395565b6001600160a01b03811661153b5760405162461bcd60e51b815260206004820152601360248201527210b732bba9ba3934b5b2a9b2b632b1ba34b7b760691b6044820152606401611171565b60f780546001600160a01b0319166001600160a01b0392909216919091179055565b600260015414156115805760405162461bcd60e51b8152600401611171906153eb565b6002600155816115a25760405162461bcd60e51b8152600401611171906153ca565b6001600160a01b0381166115b557600080fd5b6115bf82826134e1565b60cc546115dd906201000090046001600160a01b0316333085613773565b505060018055565b3360008181526098602090815260408083206001600160a01b0387168452909152812054909161123c91859061161c9086906155fd565b61307f565b60cc5460009060ff610100909104168161165761163d60995490565b611645611f9a565b60d0546001600160801b0316856137de565b905061166c611665856123ce565b828461381e565b949350505050565b6065546001600160a01b0316331461169e5760405162461bcd60e51b815260040161117190615395565b6001600160a01b0381166116f45760405162461bcd60e51b815260206004820152601860248201527f216e65774f7074696f6e735072656d69756d50726963657200000000000000006044820152606401611171565b60f680546001600160a01b0319166001600160a01b0392909216919091179055565b6065546001600160a01b031633146117405760405162461bcd60e51b815260040161117190615395565b6000811161177a5760405162461bcd60e51b81526020600482015260076024820152660216e65774361760cc1b6044820152606401611171565b61178381613880565b60ce54604080516001600160681b039092168252602082018390527f5f86edbb9d92228a9edc3f0ebc0f001bda1ea345ac7335e0eeef3504b31d1a1c910160405180910390a160ce80546cffffffffffffffffffffffffff19166001600160681b0392909216919091179055565b6065546001600160a01b0316331461181b5760405162461bcd60e51b815260040161117190615395565b6000816001600160801b0316116118635760405162461bcd60e51b815260206004820152600c60248201526b21737472696b65507269636560a01b6044820152606401611171565b6001600160801b031660fb5560cf5460fa805461ffff191661ffff909216919091179055565b6065546001600160a01b031633146118b35760405162461bcd60e51b815260040161117190615395565b61010480546001600160a01b0319166001600160a01b0392909216919091179055565b60d4546001600160a01b031633146119005760405162461bcd60e51b815260040161117190615326565b6000811161193c5760405162461bcd60e51b8152602060048201526009602482015268216d696e507269636560b81b6044820152606401611171565b60f955565b60d4546001600160a01b0316331461196b5760405162461bcd60e51b815260040161117190615326565b6002600154141561198e5760405162461bcd60e51b8152600401611171906153eb565b600260015560d2546040516358ffbb3d60e01b81526001600160a01b037f000000000000000000000000000000000000000000000000000000000000000081166004830152909116602482015273f7F4260943DB50EEE7e917330C35B460fF70aD54906358ffbb3d9060440160206040518083038186803b158015611a1257600080fd5b505af4158015611a26573d6000803e3d6000fd5b505050506040513d601f19601f82011682018060405250810190611a4a919061514c565b5060018055565b60d4546001600160a01b03163314611a7b5760405162461bcd60e51b815260040161117190615326565b60026001541415611a9e5760405162461bcd60e51b8152600401611171906153eb565b600260015560fd54604051633545cbf360e21b81526001600160a01b037f0000000000000000000000000000000000000000000000000000000000000000169163d5172fcc91611af59190869086906004016154f5565b600060405180830381600087803b158015611b0f57600080fd5b505af1158015611b23573d6000803e3d6000fd5b50506001805550505050565b60026001541415611b525760405162461bcd60e51b8152600401611171906153eb565b6002600181905550611b66600060016138ca565b60018055565b6065546001600160a01b03163314611b965760405162461bcd60e51b815260040161117190615395565b611ba4620f42406064615720565b8110611bf25760405162461bcd60e51b815260206004820152601760248201527f496e76616c696420706572666f726d616e6365206665650000000000000000006044820152606401611171565b60d55460408051918252602082018390527f24867dfb6fcb9970a07be21024956524abe7a1837faa903ff0e99aaa40cf893e910160405180910390a160d555565b6065546001600160a01b03163314611c5d5760405162461bcd60e51b815260040161117190615395565b611c676000613a79565b565b60026001541415611c8c5760405162461bcd60e51b8152600401611171906153eb565b6002600155611c9a81613acb565b61010354611ca89082613c92565b610103555060018055565b6060609b80546111ac90615782565b6000611cf7611cd060995490565b611cd8611f9a565b60d05460cc546001600160801b0390911690610100900460ff166137de565b905090565b60026001541415611d1f5760405162461bcd60e51b8152600401611171906153eb565b600260015580611d5e5760405162461bcd60e51b815260206004820152600a602482015269216e756d526f756e647360b01b6044820152606401611171565b60cf5461ffff1660005b82811015611ded576000611d7c82846155fd565b600081815260ca602052604090205490915015611dc95760405162461bcd60e51b815260206004820152600b60248201526a125b9a5d1a585b1a5e995960aa1b6044820152606401611171565b600090815260ca602052604090206001905580611de5816157bd565b915050611d68565b50506001805550565b3360009081526098602090815260408083206001600160a01b038616845290915281205482811015611e785760405162461bcd60e51b815260206004820152602560248201527f45524332303a2064656372656173656420616c6c6f77616e63652062656c6f77604482015264207a65726f60d81b6064820152608401611171565b611e85338585840361307f565b5060019392505050565b60026001541415611eb25760405162461bcd60e51b8152600401611171906153eb565b6002600155610101546001600160a01b031680611ece57600080fd5b60008211611edb57600080fd5b3360009081526097602052604090205482811015611f0757611f07611f008483613374565b60006138ca565b611f123330856131a4565b611f1d30838561307f565b6040516383df674760e01b815260048101849052336024820152600060448201526001600160a01b038316906383df674790606401600060405180830381600087803b158015611f6c57600080fd5b505af1158015611f80573d6000803e3d6000fd5b5050600180555050505050565b600061123c3384846131a4565b60d2546000906001600160a01b031661202d5760cc546040516370a0823160e01b8152306004820152620100009091046001600160a01b0316906370a082319060240160206040518083038186803b158015611ff557600080fd5b505afa158015612009573d6000803e3d6000fd5b505050506040513d601f19601f82011682018060405250810190611cf7919061514c565b60cc546040516370a0823160e01b8152306004820152611cf7916201000090046001600160a01b0316906370a082319060240160206040518083038186803b15801561207857600080fd5b505afa15801561208c573d6000803e3d6000fd5b505050506040513d601f19601f820116820180604052508101906120b0919061514c565b60cf546201000090046001600160681b031690613c92565b600260015414156120eb5760405162461bcd60e51b8152600401611171906153eb565b60026001558061210d5760405162461bcd60e51b8152600401611171906153ca565b61211781336134e1565b60cc54611a4a906201000090046001600160a01b0316333084613773565b60d4546001600160a01b0316331461215f5760405162461bcd60e51b815260040161117190615326565b600260015414156121825760405162461bcd60e51b8152600401611171906153eb565b600260015560d1546001600160a01b0316806121ce5760405162461bcd60e51b815260206004820152600b60248201526a10b732bc3a27b83a34b7b760a91b6044820152606401611171565b60d280546001600160a01b03199081166001600160a01b03841690811790925560d18054909116905560cf54604051620100009091046001600160681b03168082529133917f045c558fdce4714c5816d53820d27420f4cd860892df203fe636384d8d19aa019060200160405180910390a3604051632904c23960e01b81526001600160a01b037f0000000000000000000000000000000000000000000000000000000000000000811660048301527f000000000000000000000000000000000000000000000000000000000000000081166024830152831660448201526064810182905273f7F4260943DB50EEE7e917330C35B460fF70aD5490632904c2399060840160206040518083038186803b1580156122ea57600080fd5b505af41580156122fe573d6000803e3d6000fd5b505050506040513d601f19601f82011682018060405250810190612322919061514c565b506115dd613c9e565b610104546001600160a01b03168061234257600080fd5b61234e600060016138ca565b336000818152609760205260409020549061236a90838361307f565b60405163c9c2d4f560e01b8152336004820152602481018290526001600160a01b0383169063c9c2d4f590604401600060405180830381600087803b1580156123b257600080fd5b505af11580156123c6573d6000803e3d6000fd5b505050505050565b60008060006123dc84612c0d565b909250905061166c8282613c92565b6065546001600160a01b031633146124155760405162461bcd60e51b815260040161117190615395565b6001600160a01b0381166124585760405162461bcd60e51b815260206004820152600a60248201526910b732bba5b2b2b832b960b11b6044820152606401611171565b60d480546001600160a01b0319166001600160a01b0392909216919091179055565b6002600154141561249d5760405162461bcd60e51b8152600401611171906153eb565b6002600155806124dc5760405162461bcd60e51b815260206004820152600a602482015269216e756d53686172657360b01b6044820152606401611171565b611a4a8160006138ca565b6002600154141561250a5760405162461bcd60e51b8152600401611171906153eb565b600260015560d2546001600160a01b03168015158061252f575060cf5461ffff166001145b61256a5760405162461bcd60e51b815260206004820152600c60248201526b149bdd5b990818db1bdcd95960a21b6044820152606401611171565b61257381613d70565b600061010354905060008061258a60fe5484613ee6565b60fe81905560d05491935091506000906125b490600160801b90046001600160801b031685613c92565b90506125bf8161416d565b60d080546001600160801b03808416600160801b0291161790556000610103556125e883613880565b60cf805462010000600160781b031916620100006001600160681b0386160217905560006126164282613c92565b905063ffffffff81111561266c5760405162461bcd60e51b815260206004820152601860248201527f4f766572666c6f77206e6578744f7074696f6e526561647900000000000000006044820152606401611171565b60d2805463ffffffff909216600160a01b0263ffffffff60a01b19909216919091179055505060018055505050565b6065546001600160a01b031633146126c55760405162461bcd60e51b815260040161117190615395565b6001600160a01b03811661270e5760405162461bcd60e51b815260206004820152601060248201526f085b995dd19959549958da5c1a595b9d60821b6044820152606401611171565b60d3546001600160a01b038281169116141561276c5760405162461bcd60e51b815260206004820152601860248201527f4d757374206265206e657720666565526563697069656e7400000000000000006044820152606401611171565b60d380546001600160a01b0319166001600160a01b0392909216919091179055565b600054610100900460ff16806127a7575060005460ff16155b6127c35760405162461bcd60e51b815260040161117190615347565b600054610100900460ff161580156127e5576000805461ffff19166101011790555b6128aa6127f56020850185614f2f565b6128056040860160208701614f2f565b6128156060870160408801614f2f565b6060870135608088013561282c60a08a018a6155b8565b8080601f01602080910402602001604051908101604052809392919081815260200183838082843760009201919091525061286e9250505060c08b018b6155b8565b8080601f0160208091040260200160405190810160405280939291908181526020018383808284376000920191909152508c92506141b7915050565b60006128bd610100850160e08601614f2f565b6001600160a01b0316141561290d5760405162461bcd60e51b815260206004820152601660248201527510afb7b83a34b7b739a83932b6b4bab6a83934b1b2b960511b6044820152606401611171565b600061292161012085016101008601614f2f565b6001600160a01b0316141561296c5760405162461bcd60e51b815260206004820152601160248201527010afb9ba3934b5b2a9b2b632b1ba34b7b760791b6044820152606401611171565b61297d610100840160e08501614f2f565b60f680546001600160a01b0319166001600160a01b03929092169190911790556129af61012084016101008501614f2f565b60f780546001600160a01b0319166001600160a01b039290921691909117905580156129e1576000805461ff00191690555b505050565b6065546001600160a01b03163314612a105760405162461bcd60e51b815260040161117190615395565b6001600160a01b038116612a755760405162461bcd60e51b815260206004820152602660248201527f4f776e61626c653a206e6577206f776e657220697320746865207a65726f206160448201526564647265737360d01b6064820152608401611171565b612a7e81613a79565b50565b60026001541415612aa45760405162461bcd60e51b8152600401611171906153eb565b600260015534612adf5760405162461bcd60e51b81526020600482015260066024820152652176616c756560d01b6044820152606401611171565b62015180612af860d7544261337490919063ffffffff16565b1015612b305760405162461bcd60e51b815260206004820152600760248201526610b1baba37b33360c91b6044820152606401611171565b60cc546040516321a3781f60e11b81523460048201526000916201000090046001600160a01b031690634346f03e9060240160206040518083038186803b158015612b7a57600080fd5b505afa158015612b8e573d6000803e3d6000fd5b505050506040513d601f19601f82011682018060405250810190612bb2919061514c565b9050612bbe81336134e1565b734d05e3d48a938db4b7a9a59a802d5b45011bde586001600160a01b031663d0e30db0346040518263ffffffff1660e01b81526004016000604051808303818588803b158015611b0f57600080fd5b6001600160a01b038116600090815260c9602090815260408083208151606081018352905461ffff81168083526201000082046001600160681b031694830194909452600160781b90046001600160801b031691810191909152829160011115612c8f575050506001600160a01b031660009081526097602052604081205491565b60cf54815161ffff908116600090815260ca602052604081205460cc549193612cc593869391169190610100900460ff166143f6565b9050612ce6856001600160a01b031660009081526097602052604090205490565b9590945092505050565b60026001541415612d135760405162461bcd60e51b8152600401611171906153eb565b60026001556000612d22614467565b60fe54909150612d329082613374565b6001600160801b031660fe555060018055565b60d4546001600160a01b03163314612d6f5760405162461bcd60e51b815260040161117190615326565b60026001541415612d925760405162461bcd60e51b8152600401611171906153eb565b600260015560d2546001600160a01b031680158015612db8575060cf5461ffff16600114155b612df75760405162461bcd60e51b815260206004820152601060248201526f149bdd5b99081b9bdd0818db1bdcd95960821b6044820152606401611171565b60408051610120810182526001600160a01b037f0000000000000000000000000000000000000000000000000000000000000000811682527f00000000000000000000000000000000000000000000000000000000000000008116602083015260cc8054620100009004821683850152848216606084015260006080840181905260fa5461ffff1660a085015260fb5460c085015260f754831660e085015260f65490921661010084015292516377e3ce0d60e11b8152919290918291829173f7F4260943DB50EEE7e917330C35B460fF70aD549163efc79c1a91612ee391889160cf90600401615422565b60606040518083038186803b158015612efb57600080fd5b505af4158015612f0f573d6000803e3d6000fd5b505050506040513d601f19601f82011682018060405250810190612f339190614fee565b604080518381526020810183905293965091945092507fa217999b1c125c2a996f712c5f26a28addad7167bd8a67d5bd5b2a751148abb0910160405180910390a1505060d180546001600160a01b0319166001600160a01b0392909216919091179055505060018055565b6065546001600160a01b03163314612fc85760405162461bcd60e51b815260040161117190615395565b612fd6620f42406064615720565b811061301d5760405162461bcd60e51b8152602060048201526016602482015275496e76616c6964206d616e6167656d656e742066656560501b6044820152606401611171565b600061303a63031ba30961303484620f4240614624565b90614630565b60d65460408051918252602082018590529192507f4e874b007ab14f7e263baefd44951834c8266f4f224d1092e49e9c254354cc54910160405180910390a160d65550565b6001600160a01b0383166130e15760405162461bcd60e51b8152602060048201526024808201527f45524332303a20617070726f76652066726f6d20746865207a65726f206164646044820152637265737360e01b6064820152608401611171565b6001600160a01b0382166131425760405162461bcd60e51b815260206004820152602260248201527f45524332303a20617070726f766520746f20746865207a65726f206164647265604482015261737360f01b6064820152608401611171565b6001600160a01b0383811660008181526098602090815260408083209487168084529482529182902085905590518481527f8c5be1e5ebec7d5bd14f71427d1e84f3dd0314c0f7b2291e5b200ac8c7c3b92591015b60405180910390a3505050565b6001600160a01b0383166132085760405162461bcd60e51b815260206004820152602560248201527f45524332303a207472616e736665722066726f6d20746865207a65726f206164604482015264647265737360d81b6064820152608401611171565b6001600160a01b03821661326a5760405162461bcd60e51b815260206004820152602360248201527f45524332303a207472616e7366657220746f20746865207a65726f206164647260448201526265737360e81b6064820152608401611171565b6001600160a01b038316600090815260976020526040902054818110156132e25760405162461bcd60e51b815260206004820152602660248201527f45524332303a207472616e7366657220616d6f756e7420657863656564732062604482015265616c616e636560d01b6064820152608401611171565b6001600160a01b038085166000908152609760205260408082208585039055918516815290812080548492906133199084906155fd565b92505081905550826001600160a01b0316846001600160a01b03167fddf252ad1be2c89b69c2b068fc378daa952ba7f163c4a11628f55a4df523b3ef8460405161336591815260200190565b60405180910390a35b50505050565b600061131b828461573f565b60cc546001600160a01b03620100009091048116907f0000000000000000000000000000000000000000000000000000000000000000168114156134cd57604051632e1a7d4d60e01b8152600481018390527f00000000000000000000000000000000000000000000000000000000000000006001600160a01b031690632e1a7d4d90602401600060405180830381600087803b15801561342057600080fd5b505af1158015613434573d6000803e3d6000fd5b505050506000836001600160a01b03168360405160006040518083038185875af1925050503d8060008114613485576040519150601f19603f3d011682016040523d82523d6000602084013e61348a565b606091505b505090508061336e5760405162461bcd60e51b815260206004820152600f60248201526e151c985b9cd9995c8819985a5b1959608a1b6044820152606401611171565b6129e16001600160a01b038216848461463c565b60cf5461ffff1660006134fc846134f6611f9a565b90613c92565b60ce549091506001600160681b03168111156135475760405162461bcd60e51b815260206004820152600a6024820152690457863656564206361760b41b6044820152606401611171565b60cd54600160a01b900466ffffffffffffff168110156135a05760405162461bcd60e51b8152602060048201526014602482015273496e73756666696369656e742062616c616e636560601b6044820152606401611171565b60408051858152602081018490526001600160a01b038516917f90890809c654f11d6e72a28fa60149770a0d11ec6c92319d6ceb2bb0a4ea1a15910160405180910390a26001600160a01b038316600090815260c9602090815260408083208151606081018352905461ffff81168083526201000082046001600160681b031683860152600160781b9091046001600160801b031682840152845260ca90925282205460cc5491929161365f918491879190610100900460ff166143f6565b8251909150869061ffff1685141561369057602083015160009061368c906001600160681b031689613c92565b9150505b61369981613880565b6040805160608101825261ffff80881682526001600160681b0380851660208085019182526001600160801b038089168688019081526001600160a01b038e16600090815260c990935296822095518654935197518216600160781b02600160781b600160f81b03199890951662010000026effffffffffffffffffffffffffffff1990941695169490941791909117949094161790915560d05461373f911689613c92565b905061374a8161416d565b60d080546001600160801b0319166001600160801b039290921691909117905550505050505050565b6040516001600160a01b038085166024830152831660448201526064810182905261336e9085906323b872dd60e01b906084015b60408051601f198184030181529190526020810180516001600160e01b03166001600160e01b03199093169290921790915261466c565b6000806137ec83600a615678565b9050600086116137fc5780613814565b6138148661303461380d8888613374565b8490614624565b9695505050505050565b6000600183116138685760405162461bcd60e51b8152602060048201526015602482015274496e76616c6964206173736574506572536861726560581b6044820152606401611171565b61166c61387683600a615678565b6130348686614624565b6001600160681b03811115612a7e5760405162461bcd60e51b815260206004820152601060248201526f13dd995c999b1bddc81d5a5b9d0c4c0d60821b6044820152606401611171565b33600090815260c9602090815260408083208151606081018352905461ffff8082168084526201000083046001600160681b031684870152600160781b9092046001600160801b03168385015260cf5491865260ca9094529184205460cc54919492909316926139459185918591610100900460ff166143f6565b9050836139525784613954565b805b945084613962575050505050565b808511156139a65760405162461bcd60e51b81526020600482015260116024820152704578636565647320617661696c61626c6560781b6044820152606401611171565b825161ffff168211156139d35733600090815260c960205260409020805462010000600160781b03191690555b6139dc8561416d565b6139e68186613374565b33600081815260c960205260409081902080546001600160801b0394909416600160781b02600160781b600160f81b0319909416939093179092558451915190917fe5b754fb1abb7f01b499791d0b820ae3b6af3424ac1c59768edb53f4ec31a92991613a5f9189825261ffff16602082015260400190565b60405180910390a2613a723033876131a4565b5050505050565b606580546001600160a01b038381166001600160a01b0319831681179093556040519116919082907f8be0079c531659141344cd1fd0a4f28419497f9722a3daafe3b4186f6b6457e090600090a35050565b60008111613b085760405162461bcd60e51b815260206004820152600a602482015269216e756d53686172657360b01b6044820152606401611171565b33600090815260c960205260409020546201000090046001600160681b0316151580613b52575033600090815260c96020526040902054600160781b90046001600160801b031615155b15613b6357613b63600060016138ca565b60cf5433600081815260cb60209081526040918290208054835187815261ffff96871693810184905292959194911685149290917f0c53c82ad07e2d592d88ece3b066777dd60f1118e2a081b380efc4358f0d9e2a910160405180910390a281546201000090046001600160801b031660008215613bec57613be58287613c92565b9050613c4f565b8115613c2e5760405162461bcd60e51b81526020600482015260116024820152704578697374696e6720776974686472617760781b6044820152606401611171565b5033600090815260cb60205260409020805461ffff191661ffff8616179055845b613c588161416d565b33600081815260cb60205260409020805462010000600160901b031916620100006001600160801b038516021790556123c69030886131a4565b600061131b82846155fd565b60d25460f9546040516301c6654960e21b81526001600160a01b0392831660048201819052602482018390527f0000000000000000000000000000000000000000000000000000000000000000909316604482015260cc606482015273f7F4260943DB50EEE7e917330C35B460fF70aD549063071995249060840160206040518083038186803b158015613d3157600080fd5b505af4158015613d45573d6000803e3d6000fd5b505050506040513d601f19601f82011682018060405250810190613d69919061514c565b60fd555050565b60cf546201000090046001600160681b03166001600160a01b03821615613dbc5760cf80546cffffffffffffffffffffffffff60781b1916600160781b6001600160681b038416021790555b60cf805462010000600160781b031916905560d280546001600160a01b03191690556001600160a01b03821615613ee257604051636c6fe87f60e11b81526001600160a01b037f000000000000000000000000000000000000000000000000000000000000000016600482015260009073f7F4260943DB50EEE7e917330C35B460fF70aD549063d8dfd0fe9060240160206040518083038186803b158015613e6357600080fd5b505af4158015613e77573d6000803e3d6000fd5b505050506040513d601f19601f82011682018060405250810190613e9b919061514c565b9050336001600160a01b0316836001600160a01b03167f7e830f7c1771deb1bdb35c4a7e6051bbac32b376f7f4e4976b8618b0b11997f78360405161319791815260200190565b5050565b60d3546040805160e08101825260cc54610100810460ff16825291516370a0823160e01b815230600482015260009384936001600160a01b0391821693859384938493849373f7F4260943DB50EEE7e917330C35B460fF70aD549363d9b874389360cf93602084019262010000909104909116906370a082319060240160206040518083038186803b158015613f7b57600080fd5b505afa158015613f8f573d6000803e3d6000fd5b505050506040513d601f19601f82011682018060405250810190613fb3919061514c565b8152602001613fc160995490565b81526020018d815260200160d554815260200160d65481526020018c8152506040518363ffffffff1660e01b815260040161404e92919060006101008201905083825282516020830152602083015160408301526040830151606083015260608301516080830152608083015160a083015260a083015160c083015260c083015160e08301529392505050565b60c06040518083038186803b15801561406657600080fd5b505af415801561407a573d6000803e3d6000fd5b505050506040513d601f19601f8201168201806040525081019061409e9190615188565b60cf5461ffff16600081815260ca60209081526040918290208790558151858152908101849052908101829052969d50949b50919850965094509250906001600160a01b038716907f0a242f7ecaf711036ca770774ceffae28e60ef042ac113ddd187f2631db0c0069060600160405180910390a260d080546001600160801b031916905561412e8160016155fd565b60cf805461ffff191661ffff92909216919091179055506141519050308461473e565b8015614161576141618482613380565b505050505b9250929050565b6001600160801b03811115612a7e5760405162461bcd60e51b815260206004820152601060248201526f09eeccae4ccd8deee40ead2dce86264760831b6044820152606401611171565b600054610100900460ff16806141d0575060005460ff16155b6141ec5760405162461bcd60e51b815260040161117190615347565b600054610100900460ff1615801561420e576000805461ffff19166101011790555b60405163c72733f760e01b815273f7F4260943DB50EEE7e917330C35B460fF70aD549063c72733f790614253908c908c908c908b908d908c908c908c90600401615219565b60006040518083038186803b15801561426b57600080fd5b505af415801561427f573d6000803e3d6000fd5b5050505061428b61481d565b6142958484614890565b61429d61490f565b6142a6896129e6565b60d480546001600160a01b03808b166001600160a01b03199283161790925560d38054928a169290911691909117905560d58590556142f063031ba30961303488620f4240614624565b60d6558160cc6143008282615815565b505060cc546040516370a0823160e01b81523060048201526000916201000090046001600160a01b0316906370a082319060240160206040518083038186803b15801561434c57600080fd5b505afa158015614360573d6000803e3d6000fd5b505050506040513d601f19601f82011682018060405250810190614384919061514c565b905061438f81613880565b60cf805461ffff196001600160681b03909316600160781b02929092167fffffffff00000000000000000000000000ffffffffffffffffffffffffff000090921691909117600117905580156143eb576000805461ff00191690555b505050505050505050565b835160009061ffff16158015906144115750845161ffff1684115b1561445357600061443086602001516001600160681b03168585614976565b604087015190915061444b906001600160801b031682613c92565b91505061166c565b50505050604001516001600160801b031690565b33600090815260cb6020526040812080546001600160801b03620100008204169061ffff16816144c95760405162461bcd60e51b815260206004820152600d60248201526c139bdd081a5b9a5d1a585d1959609a1b6044820152606401611171565b60cf5461ffff1681106145115760405162461bcd60e51b815260206004820152601060248201526f149bdd5b99081b9bdd0818db1bdcd95960821b6044820152606401611171565b33600090815260cb60205260409020805462010000600160901b031916905560d05461454d90600160801b90046001600160801b031683613374565b60d080546001600160801b03928316600160801b029216919091179055600081815260ca602052604081205460cc5461459091859160ff6101009091041661381e565b604080518281526020810186905291925033917ff279e6a1f5e320cca91135676d9cb6e44ca8a08c0b88342bcdb1144f6511b568910160405180910390a26145d830846149d9565b6000811161461a5760405162461bcd60e51b815260206004820152600f60248201526e085dda5d1a191c985dd05b5bdd5b9d608a1b6044820152606401611171565b61166c3382613380565b600061131b8284615720565b600061131b8284615615565b6040516001600160a01b0383166024820152604481018290526129e190849063a9059cbb60e01b906064016137a7565b60006146c1826040518060400160405280602081526020017f5361666545524332303a206c6f772d6c6576656c2063616c6c206661696c6564815250856001600160a01b0316614b279092919063ffffffff16565b8051909150156129e157808060200190518101906146df9190615095565b6129e15760405162461bcd60e51b815260206004820152602a60248201527f5361666545524332303a204552433230206f7065726174696f6e20646964206e6044820152691bdd081cdd58d8d9595960b21b6064820152608401611171565b6001600160a01b0382166147945760405162461bcd60e51b815260206004820152601f60248201527f45524332303a206d696e7420746f20746865207a65726f2061646472657373006044820152606401611171565b80609960008282546147a691906155fd565b90915550506001600160a01b038216600090815260976020526040812080548392906147d39084906155fd565b90915550506040518181526001600160a01b038316906000907fddf252ad1be2c89b69c2b068fc378daa952ba7f163c4a11628f55a4df523b3ef9060200160405180910390a35050565b600054610100900460ff1680614836575060005460ff16155b6148525760405162461bcd60e51b815260040161117190615347565b600054610100900460ff16158015614874576000805461ffff19166101011790555b61487c614b36565b8015612a7e576000805461ff001916905550565b600054610100900460ff16806148a9575060005460ff16155b6148c55760405162461bcd60e51b815260040161117190615347565b600054610100900460ff161580156148e7576000805461ffff19166101011790555b6148ef614ba5565b6148f98383614c0f565b80156129e1576000805461ff0019169055505050565b600054610100900460ff1680614928575060005460ff16155b6149445760405162461bcd60e51b815260040161117190615347565b600054610100900460ff16158015614966576000805461ffff19166101011790555b61496e614ba5565b61487c614ca4565b6000600183116149c05760405162461bcd60e51b8152602060048201526015602482015274496e76616c6964206173736574506572536861726560581b6044820152606401611171565b61166c836130346149d285600a615678565b8790614624565b6001600160a01b038216614a395760405162461bcd60e51b815260206004820152602160248201527f45524332303a206275726e2066726f6d20746865207a65726f206164647265736044820152607360f81b6064820152608401611171565b6001600160a01b03821660009081526097602052604090205481811015614aad5760405162461bcd60e51b815260206004820152602260248201527f45524332303a206275726e20616d6f756e7420657863656564732062616c616e604482015261636560f01b6064820152608401611171565b6001600160a01b0383166000908152609760205260408120838303905560998054849290614adc90849061573f565b90915550506040518281526000906001600160a01b038516907fddf252ad1be2c89b69c2b068fc378daa952ba7f163c4a11628f55a4df523b3ef9060200160405180910390a3505050565b606061166c8484600085614d04565b600054610100900460ff1680614b4f575060005460ff16155b614b6b5760405162461bcd60e51b815260040161117190615347565b600054610100900460ff16158015614b8d576000805461ffff19166101011790555b600180558015612a7e576000805461ff001916905550565b600054610100900460ff1680614bbe575060005460ff16155b614bda5760405162461bcd60e51b815260040161117190615347565b600054610100900460ff1615801561487c576000805461ffff19166101011790558015612a7e576000805461ff001916905550565b600054610100900460ff1680614c28575060005460ff16155b614c445760405162461bcd60e51b815260040161117190615347565b600054610100900460ff16158015614c66576000805461ffff19166101011790555b8251614c7990609a906020860190614e65565b508151614c8d90609b906020850190614e65565b5080156129e1576000805461ff0019169055505050565b600054610100900460ff1680614cbd575060005460ff16155b614cd95760405162461bcd60e51b815260040161117190615347565b600054610100900460ff16158015614cfb576000805461ffff19166101011790555b61487c33613a79565b606082471015614d655760405162461bcd60e51b815260206004820152602660248201527f416464726573733a20696e73756666696369656e742062616c616e636520666f6044820152651c8818d85b1b60d21b6064820152608401611171565b843b614db35760405162461bcd60e51b815260206004820152601d60248201527f416464726573733a2063616c6c20746f206e6f6e2d636f6e74726163740000006044820152606401611171565b600080866001600160a01b03168587604051614dcf91906151fd565b60006040518083038185875af1925050503d8060008114614e0c576040519150601f19603f3d011682016040523d82523d6000602084013e614e11565b606091505b5091509150614e21828286614e2c565b979650505050505050565b60608315614e3b57508161131b565b825115614e4b5782518084602001fd5b8160405162461bcd60e51b81526004016111719190615313565b828054614e7190615782565b90600052602060002090601f016020900481019282614e935760008555614ed9565b82601f10614eac57805160ff1916838001178555614ed9565b82800160010185558215614ed9579182015b82811115614ed9578251825591602001919060010190614ebe565b50614ee5929150614ee9565b5090565b5b80821115614ee55760008155600101614eea565b8035614f0981615926565b919050565b8035614f0981615949565b8035614f098161595e565b8035614f0981615973565b600060208284031215614f40578081fd5b813561131b81615926565b60008060408385031215614f5d578081fd5b8235614f6881615926565b91506020830135614f7881615926565b809150509250929050565b600080600060608486031215614f97578081fd5b8335614fa281615926565b92506020840135614fb281615926565b929592945050506040919091013590565b60008060408385031215614fd5578182fd5b8235614fe081615926565b946020939093013593505050565b600080600060608486031215615002578283fd5b835161500d81615926565b602085015160409095015190969495509392505050565b60008060208385031215615036578182fd5b823567ffffffffffffffff8082111561504d578384fd5b818501915085601f830112615060578384fd5b81358181111561506e578485fd5b86602061012083028501011115615083578485fd5b60209290920196919550909350505050565b6000602082840312156150a6578081fd5b815161131b8161593b565b60008082840360e08112156150c4578283fd5b833567ffffffffffffffff8111156150da578384fd5b840161012081870312156150ec578384fd5b925060c0601f19820112156150ff578182fd5b506020830190509250929050565b60006020828403121561511e578081fd5b81356001600160801b038116811461131b578182fd5b600060208284031215615145578081fd5b5035919050565b60006020828403121561515d578081fd5b5051919050565b60008060408385031215615176578182fd5b823591506020830135614f7881615926565b60008060008060008060c087890312156151a0578384fd5b865195506020870151945060408701519350606087015192506080870151915060a087015190509295509295509295565b600081518084526151e9816020860160208601615756565b601f01601f19169290920160200192915050565b6000825161520f818460208701615756565b9190910192915050565b60006101a060018060a01b03808c168452808b166020850152808a1660408501528860608501528760808501528160a0850152615258828501886151d1565b915083820360c085015261526c82876151d1565b92508435915061527b8261593b565b90151560e084015260208401359061529282615973565b60ff8216610100850152604085013591506152ac82615926565b166101208301526152bf60608401614efe565b6001600160a01b03166101408301526152da60808401614f19565b66ffffffffffffff166101608301526152f560a08401614f0e565b6001600160681b038116610180840152509998505050505050505050565b60208152600061131b60208301846151d1565b60208082526007908201526610b5b2b2b832b960c91b604082015260600190565b6020808252602e908201527f496e697469616c697a61626c653a20636f6e747261637420697320616c72656160408201526d191e481a5b9a5d1a585b1a5e995960921b606082015260800190565b6020808252818101527f4f776e61626c653a2063616c6c6572206973206e6f7420746865206f776e6572604082015260600190565b60208082526007908201526608585b5bdd5b9d60ca1b604082015260600190565b6020808252601f908201527f5265656e7472616e637947756172643a207265656e7472616e742063616c6c00604082015260600190565b83516001600160a01b0316815260208085015161016083019161544f908401826001600160a01b03169052565b50604085015161546a60408401826001600160a01b03169052565b50606085015161548560608401826001600160a01b03169052565b506080850151608083015260a08501516154a560a084018261ffff169052565b5060c085015160c083015260e08501516154ca60e08401826001600160a01b03169052565b50610100858101516001600160a01b0381168483015250506101208201939093526101400152919050565b838152604060208083018290528282018490526000919060609081850187855b888110156155a957813583528382013584840152615534868301614efe565b6001600160a01b03168684015284820135858401526080808301359084015260a0615560818401614efe565b6001600160a01b03169084015260c061557a838201614f24565b60ff169084015260e0828101359084015261010080830135908401526101209283019290910190600101615515565b50909998505050505050505050565b6000808335601e198436030181126155ce578283fd5b83018035915067ffffffffffffffff8211156155e8578283fd5b60200191503681900382131561416657600080fd5b60008219821115615610576156106157d8565b500190565b60008261563057634e487b7160e01b81526012600452602481fd5b500490565b600181815b80851115615670578160001904821115615656576156566157d8565b8085161561566357918102915b93841c939080029061563a565b509250929050565b600061131b838360008261568e57506001611240565b8161569b57506000611240565b81600181146156b157600281146156bb576156d7565b6001915050611240565b60ff8411156156cc576156cc6157d8565b50506001821b611240565b5060208310610133831016604e8410600b84101617156156fa575081810a611240565b6157048383615635565b8060001904821115615718576157186157d8565b029392505050565b600081600019048311821515161561573a5761573a6157d8565b500290565b600082821015615751576157516157d8565b500390565b60005b83811015615771578181015183820152602001615759565b8381111561336e5750506000910152565b600181811c9082168061579657607f821691505b602082108114156157b757634e487b7160e01b600052602260045260246000fd5b50919050565b60006000198214156157d1576157d16157d8565b5060010190565b634e487b7160e01b600052601160045260246000fd5b6000813561124081615926565b6000813561124081615949565b600081356112408161595e565b81356158208161593b565b815460ff19811691151560ff169182178355602084013561584081615973565b61ff008160081b169050808361ffff19841617178455604085013561586481615926565b6001600160b01b0319929092169092179190911760109190911b62010000600160b01b0316178155600181016158bc61589f606085016157ee565b82546001600160a01b0319166001600160a01b0391909116178255565b6158f56158cb60808501615808565b82805466ffffffffffffff60a01b191660a09290921b66ffffffffffffff60a01b16919091179055565b50613ee261590560a084016157fb565b600283016001600160681b0382166001600160681b03198254161781555050565b6001600160a01b0381168114612a7e57600080fd5b8015158114612a7e57600080fd5b6001600160681b0381168114612a7e57600080fd5b66ffffffffffffff81168114612a7e57600080fd5b60ff81168114612a7e57600080fdfea26469706673582212204b4818a2f53b6bd89c54b8c48f8e7d177daa63147804467031ab1272f0cf6bba64736f6c63430008040033",
  "deployedBytecode": "0x6080604052600436106104aa5760003560e01c806389a302711161026b578063b9f8092b1161014f578063e74b981b116100c1578063f756fa2111610085578063f756fa211461109b578063f87c7d93146110b0578063f957a067146110c5578063f9a0be68146110e5578063fba7dc6114611106578063fe56e2321461112757600080fd5b8063e74b981b14610ffe578063f00138271461101e578063f2fde38b1461103e578063f6326fb31461105e578063f656ba511461106657600080fd5b8063d5f2638211610113578063d5f2638214610f23578063db006a7514610f39578063db43e86214610f59578063dd62ed3e14610f8d578063e278fe6f14610fd3578063e73c63d514610fe857600080fd5b8063b9f8092b14610e85578063ca59409414610e9a578063ce7c2ac214610eaf578063cf3afa5114610ecf578063d164cc1514610f0357600080fd5b8063a2db9d83116101e8578063aced1661116101ac578063aced166114610dc5578063ad5c464814610de5578063ad7a672f14610e19578063afa6626414610e2e578063b4d1d79514610e4e578063b6b55f2514610e6557600080fd5b8063a2db9d8314610d31578063a457c2d714610d4f578063a694fc3a14610d6f578063a6f7f5d614610d8f578063a9059cbb14610da557600080fd5b806399530b061161022f57806399530b0614610bcb5780639be43daa14610be05780639fcc2d7514610c00578063a083ff1714610cac578063a285c9e814610d0f57600080fd5b806389a3027114610b255780638b10cc7c14610b595780638da5cb5b14610b77578063947061b514610b9557806395d89b4114610bb657600080fd5b806347786d3711610392578063692308681161030f578063715018a6116102d3578063715018a614610a335780637a9262a214610a485780637e108d5214610aac57806383536ff314610acc57806387153eb114610ae25780638778878214610b0f57600080fd5b8063692308681461099357806369b41170146109b35780636f31ab34146109c857806370897b23146109dd57806370a08231146109fd57600080fd5b8063573f0d6e11610356578063573f0d6e146108865780635ea8cd12146108a6578063600a2cfb146108c6578063650cce8a146108db5780636719b2ee1461090f57600080fd5b806347786d37146108035780634b2431d914610823578063503c70aa1461083a578063538207761461085057806355489bb21461086657600080fd5b806330630da41161042b5780633ec143d3116103ef5780633ec143d3146107415780633f23bb731461076f5780633f90916a1461078f578063432833a6146107ad5780634603c0aa146107c357806346904840146107e357600080fd5b806330630da414610699578063313ce567146106b9578063355274ea146106e357806336efd16f14610701578063395093511461072157600080fd5b806318160ddd1161047257806318160ddd146105655780631a92f6c21461057a57806323b872dd146105c65780632728f333146105e65780632775d01c1461067957600080fd5b8063048bf085146104af57806306fdde03146104d1578063095ea7b3146104fc5780630b06d4d71461052c5780630cbf54c814610541575b600080fd5b3480156104bb57600080fd5b506104cf6104ca366004614f2f565b611147565b005b3480156104dd57600080fd5b506104e661119d565b6040516104f39190615313565b60405180910390f35b34801561050857600080fd5b5061051c610517366004614fc3565b61122f565b60405190151581526020016104f3565b34801561053857600080fd5b506104cf611246565b34801561054d57600080fd5b5061055760fc5481565b6040519081526020016104f3565b34801561057157600080fd5b50609954610557565b34801561058657600080fd5b506105ae7f000000000000000000000000000000000000000000000000000000000000000081565b6040516001600160a01b0390911681526020016104f3565b3480156105d257600080fd5b5061051c6105e1366004614f83565b611276565b3480156105f257600080fd5b5060cf5460d0546106349161ffff8116916001600160681b03620100008304811692600160781b900416906001600160801b0380821691600160801b90041685565b6040805161ffff90961686526001600160681b03948516602087015293909216928401929092526001600160801b03918216606084015216608082015260a0016104f3565b34801561068557600080fd5b506104cf610694366004615134565b611322565b3480156106a557600080fd5b506104cf6106b4366004614f2f565b6114c5565b3480156106c557600080fd5b5060cc54610100900460ff1660405160ff90911681526020016104f3565b3480156106ef57600080fd5b5060ce546001600160681b0316610557565b34801561070d57600080fd5b506104cf61071c366004615164565b61155d565b34801561072d57600080fd5b5061051c61073c366004614fc3565b6115e5565b34801561074d57600080fd5b5060fa5461075c9061ffff1681565b60405161ffff90911681526020016104f3565b34801561077b57600080fd5b5061055761078a366004614f2f565b611621565b34801561079b57600080fd5b5060d0546001600160801b0316610557565b3480156107b957600080fd5b5061055760fd5481565b3480156107cf57600080fd5b506104cf6107de366004614f2f565b611674565b3480156107ef57600080fd5b5060d3546105ae906001600160a01b031681565b34801561080f57600080fd5b506104cf61081e366004615134565b611716565b34801561082f57600080fd5b506105576101035481565b34801561084657600080fd5b5061055760fe5481565b34801561085c57600080fd5b5061055760d75481565b34801561087257600080fd5b506104cf61088136600461510d565b6117f1565b34801561089257600080fd5b506104cf6108a1366004614f2f565b611889565b3480156108b257600080fd5b506104cf6108c1366004615134565b6118d6565b3480156108d257600080fd5b506104cf611941565b3480156108e757600080fd5b506105ae7f000000000000000000000000000000000000000000000000000000000000000081565b34801561091b57600080fd5b5061096261092a366004614f2f565b60c96020526000908152604090205461ffff8116906201000081046001600160681b031690600160781b90046001600160801b031683565b6040805161ffff90941684526001600160681b0390921660208401526001600160801b0316908201526060016104f3565b34801561099f57600080fd5b506104cf6109ae366004615024565b611a51565b3480156109bf57600080fd5b50610557600081565b3480156109d457600080fd5b506104cf611b2f565b3480156109e957600080fd5b506104cf6109f8366004615134565b611b6c565b348015610a0957600080fd5b50610557610a18366004614f2f565b6001600160a01b031660009081526097602052604090205490565b348015610a3f57600080fd5b506104cf611c33565b348015610a5457600080fd5b50610a8a610a63366004614f2f565b60cb6020526000908152604090205461ffff8116906201000090046001600160801b031682565b6040805161ffff90931683526001600160801b039091166020830152016104f3565b348015610ab857600080fd5b506104cf610ac7366004615134565b611c69565b348015610ad857600080fd5b5061055760f85481565b348015610aee57600080fd5b50610557610afd366004615134565b60ca6020526000908152604090205481565b348015610b1b57600080fd5b5061055760d55481565b348015610b3157600080fd5b506105ae7f000000000000000000000000000000000000000000000000000000000000000081565b348015610b6557600080fd5b5060d2546001600160a01b03166105ae565b348015610b8357600080fd5b506065546001600160a01b03166105ae565b348015610ba157600080fd5b50610104546105ae906001600160a01b031681565b348015610bc257600080fd5b506104e6611cb3565b348015610bd757600080fd5b50610557611cc2565b348015610bec57600080fd5b506104cf610bfb366004615134565b611cfc565b348015610c0c57600080fd5b5060cc5460cd5460ce54610c5c9260ff808216936101008304909116926001600160a01b036201000090930483169282169166ffffffffffffff600160a01b90910416906001600160681b031686565b60408051961515875260ff90951660208701526001600160a01b03938416948601949094529116606084015266ffffffffffffff1660808301526001600160681b031660a082015260c0016104f3565b348015610cb857600080fd5b5060d15460d254610ce3916001600160a01b039081169190811690600160a01b900463ffffffff1683565b604080516001600160a01b03948516815293909216602084015263ffffffff16908201526060016104f3565b348015610d1b57600080fd5b5060d254600160a01b900463ffffffff16610557565b348015610d3d57600080fd5b5060d1546001600160a01b03166105ae565b348015610d5b57600080fd5b5061051c610d6a366004614fc3565b611df6565b348015610d7b57600080fd5b506104cf610d8a366004615134565b611e8f565b348015610d9b57600080fd5b5061055760d65481565b348015610db157600080fd5b5061051c610dc0366004614fc3565b611f8d565b348015610dd157600080fd5b5060d4546105ae906001600160a01b031681565b348015610df157600080fd5b506105ae7f000000000000000000000000000000000000000000000000000000000000000081565b348015610e2557600080fd5b50610557611f9a565b348015610e3a57600080fd5b5060f6546105ae906001600160a01b031681565b348015610e5a57600080fd5b5061055762093a8081565b348015610e7157600080fd5b506104cf610e80366004615134565b6120c8565b348015610e9157600080fd5b506104cf612135565b348015610ea657600080fd5b506104cf61232b565b348015610ebb57600080fd5b50610557610eca366004614f2f565b6123ce565b348015610edb57600080fd5b506105ae7f000000000000000000000000000000000000000000000000000000000000000081565b348015610f0f57600080fd5b506104cf610f1e366004614f2f565b6123eb565b348015610f2f57600080fd5b5061055760f95481565b348015610f4557600080fd5b506104cf610f54366004615134565b61247a565b348015610f6557600080fd5b506105ae7f000000000000000000000000000000000000000000000000000000000000000081565b348015610f9957600080fd5b50610557610fa8366004614f4b565b6001600160a01b03918216600090815260986020908152604080832093909416825291909152205490565b348015610fdf57600080fd5b506104cf6124e7565b348015610ff457600080fd5b5061055760fb5481565b34801561100a57600080fd5b506104cf611019366004614f2f565b61269b565b34801561102a57600080fd5b506104cf6110393660046150b1565b61278e565b34801561104a57600080fd5b506104cf611059366004614f2f565b6129e6565b6104cf612a81565b34801561107257600080fd5b50611086611081366004614f2f565b612c0d565b604080519283526020830191909152016104f3565b3480156110a757600080fd5b506104cf612cf0565b3480156110bc57600080fd5b506104cf612d45565b3480156110d157600080fd5b5060f7546105ae906001600160a01b031681565b3480156110f157600080fd5b50610101546105ae906001600160a01b031681565b34801561111257600080fd5b50610102546105ae906001600160a01b031681565b34801561113357600080fd5b506104cf611142366004615134565b612f9e565b6065546001600160a01b0316331461117a5760405162461bcd60e51b815260040161117190615395565b60405180910390fd5b61010180546001600160a01b0319166001600160a01b0392909216919091179055565b6060609a80546111ac90615782565b80601f01602080910402602001604051908101604052809291908181526020018280546111d890615782565b80156112255780601f106111fa57610100808354040283529160200191611225565b820191906000526020600020905b81548152906001019060200180831161120857829003601f168201915b5050505050905090565b600061123c33848461307f565b5060015b92915050565b60d4546001600160a01b031633146112705760405162461bcd60e51b815260040161117190615326565b4260d755565b60006112838484846131a4565b6001600160a01b0384166000908152609860209081526040808320338452909152902054828110156113085760405162461bcd60e51b815260206004820152602860248201527f45524332303a207472616e7366657220616d6f756e74206578636565647320616044820152676c6c6f77616e636560c01b6064820152608401611171565b611315853385840361307f565b60019150505b9392505050565b600260015414156113455760405162461bcd60e51b8152600401611171906153eb565b600260015533600090815260c96020526040902060cf5461ffff168261137d5760405162461bcd60e51b8152600401611171906153ca565b815461ffff1681146113c15760405162461bcd60e51b815260206004820152600d60248201526c125b9d985b1a59081c9bdd5b99609a1b6044820152606401611171565b81546201000090046001600160681b0316838110156114125760405162461bcd60e51b815260206004820152600d60248201526c115e18d9595908185b5bdd5b9d609a1b6044820152606401611171565b61141c8185613374565b83546001600160681b0391909116620100000262010000600160781b031990911617835560d054611456906001600160801b031685613374565b60d080546001600160801b0319166001600160801b0392909216919091179055604080518581526020810184905233917fab2daf3c146ca6416cbccd2a86ed2ba995e171ef6319df14a38aef01403a9c96910160405180910390a26114bb3385613380565b5050600180555050565b6065546001600160a01b031633146114ef5760405162461bcd60e51b815260040161117190615395565b6001600160a01b03811661153b5760405162461bcd60e51b815260206004820152601360248201527210b732bba9ba3934b5b2a9b2b632b1ba34b7b760691b6044820152606401611171565b60f780546001600160a01b0319166001600160a01b0392909216919091179055565b600260015414156115805760405162461bcd60e51b8152600401611171906153eb565b6002600155816115a25760405162461bcd60e51b8152600401611171906153ca565b6001600160a01b0381166115b557600080fd5b6115bf82826134e1565b60cc546115dd906201000090046001600160a01b0316333085613773565b505060018055565b3360008181526098602090815260408083206001600160a01b0387168452909152812054909161123c91859061161c9086906155fd565b61307f565b60cc5460009060ff610100909104168161165761163d60995490565b611645611f9a565b60d0546001600160801b0316856137de565b905061166c611665856123ce565b828461381e565b949350505050565b6065546001600160a01b0316331461169e5760405162461bcd60e51b815260040161117190615395565b6001600160a01b0381166116f45760405162461bcd60e51b815260206004820152601860248201527f216e65774f7074696f6e735072656d69756d50726963657200000000000000006044820152606401611171565b60f680546001600160a01b0319166001600160a01b0392909216919091179055565b6065546001600160a01b031633146117405760405162461bcd60e51b815260040161117190615395565b6000811161177a5760405162461bcd60e51b81526020600482015260076024820152660216e65774361760cc1b6044820152606401611171565b61178381613880565b60ce54604080516001600160681b039092168252602082018390527f5f86edbb9d92228a9edc3f0ebc0f001bda1ea345ac7335e0eeef3504b31d1a1c910160405180910390a160ce80546cffffffffffffffffffffffffff19166001600160681b0392909216919091179055565b6065546001600160a01b0316331461181b5760405162461bcd60e51b815260040161117190615395565b6000816001600160801b0316116118635760405162461bcd60e51b815260206004820152600c60248201526b21737472696b65507269636560a01b6044820152606401611171565b6001600160801b031660fb5560cf5460fa805461ffff191661ffff909216919091179055565b6065546001600160a01b031633146118b35760405162461bcd60e51b815260040161117190615395565b61010480546001600160a01b0319166001600160a01b0392909216919091179055565b60d4546001600160a01b031633146119005760405162461bcd60e51b815260040161117190615326565b6000811161193c5760405162461bcd60e51b8152602060048201526009602482015268216d696e507269636560b81b6044820152606401611171565b60f955565b60d4546001600160a01b0316331461196b5760405162461bcd60e51b815260040161117190615326565b6002600154141561198e5760405162461bcd60e51b8152600401611171906153eb565b600260015560d2546040516358ffbb3d60e01b81526001600160a01b037f000000000000000000000000000000000000000000000000000000000000000081166004830152909116602482015273__$753d03423c86e1677c9cdb4291172228a9$__906358ffbb3d9060440160206040518083038186803b158015611a1257600080fd5b505af4158015611a26573d6000803e3d6000fd5b505050506040513d601f19601f82011682018060405250810190611a4a919061514c565b5060018055565b60d4546001600160a01b03163314611a7b5760405162461bcd60e51b815260040161117190615326565b60026001541415611a9e5760405162461bcd60e51b8152600401611171906153eb565b600260015560fd54604051633545cbf360e21b81526001600160a01b037f0000000000000000000000000000000000000000000000000000000000000000169163d5172fcc91611af59190869086906004016154f5565b600060405180830381600087803b158015611b0f57600080fd5b505af1158015611b23573d6000803e3d6000fd5b50506001805550505050565b60026001541415611b525760405162461bcd60e51b8152600401611171906153eb565b6002600181905550611b66600060016138ca565b60018055565b6065546001600160a01b03163314611b965760405162461bcd60e51b815260040161117190615395565b611ba4620f42406064615720565b8110611bf25760405162461bcd60e51b815260206004820152601760248201527f496e76616c696420706572666f726d616e6365206665650000000000000000006044820152606401611171565b60d55460408051918252602082018390527f24867dfb6fcb9970a07be21024956524abe7a1837faa903ff0e99aaa40cf893e910160405180910390a160d555565b6065546001600160a01b03163314611c5d5760405162461bcd60e51b815260040161117190615395565b611c676000613a79565b565b60026001541415611c8c5760405162461bcd60e51b8152600401611171906153eb565b6002600155611c9a81613acb565b61010354611ca89082613c92565b610103555060018055565b6060609b80546111ac90615782565b6000611cf7611cd060995490565b611cd8611f9a565b60d05460cc546001600160801b0390911690610100900460ff166137de565b905090565b60026001541415611d1f5760405162461bcd60e51b8152600401611171906153eb565b600260015580611d5e5760405162461bcd60e51b815260206004820152600a602482015269216e756d526f756e647360b01b6044820152606401611171565b60cf5461ffff1660005b82811015611ded576000611d7c82846155fd565b600081815260ca602052604090205490915015611dc95760405162461bcd60e51b815260206004820152600b60248201526a125b9a5d1a585b1a5e995960aa1b6044820152606401611171565b600090815260ca602052604090206001905580611de5816157bd565b915050611d68565b50506001805550565b3360009081526098602090815260408083206001600160a01b038616845290915281205482811015611e785760405162461bcd60e51b815260206004820152602560248201527f45524332303a2064656372656173656420616c6c6f77616e63652062656c6f77604482015264207a65726f60d81b6064820152608401611171565b611e85338585840361307f565b5060019392505050565b60026001541415611eb25760405162461bcd60e51b8152600401611171906153eb565b6002600155610101546001600160a01b031680611ece57600080fd5b60008211611edb57600080fd5b3360009081526097602052604090205482811015611f0757611f07611f008483613374565b60006138ca565b611f123330856131a4565b611f1d30838561307f565b6040516383df674760e01b815260048101849052336024820152600060448201526001600160a01b038316906383df674790606401600060405180830381600087803b158015611f6c57600080fd5b505af1158015611f80573d6000803e3d6000fd5b5050600180555050505050565b600061123c3384846131a4565b60d2546000906001600160a01b031661202d5760cc546040516370a0823160e01b8152306004820152620100009091046001600160a01b0316906370a082319060240160206040518083038186803b158015611ff557600080fd5b505afa158015612009573d6000803e3d6000fd5b505050506040513d601f19601f82011682018060405250810190611cf7919061514c565b60cc546040516370a0823160e01b8152306004820152611cf7916201000090046001600160a01b0316906370a082319060240160206040518083038186803b15801561207857600080fd5b505afa15801561208c573d6000803e3d6000fd5b505050506040513d601f19601f820116820180604052508101906120b0919061514c565b60cf546201000090046001600160681b031690613c92565b600260015414156120eb5760405162461bcd60e51b8152600401611171906153eb565b60026001558061210d5760405162461bcd60e51b8152600401611171906153ca565b61211781336134e1565b60cc54611a4a906201000090046001600160a01b0316333084613773565b60d4546001600160a01b0316331461215f5760405162461bcd60e51b815260040161117190615326565b600260015414156121825760405162461bcd60e51b8152600401611171906153eb565b600260015560d1546001600160a01b0316806121ce5760405162461bcd60e51b815260206004820152600b60248201526a10b732bc3a27b83a34b7b760a91b6044820152606401611171565b60d280546001600160a01b03199081166001600160a01b03841690811790925560d18054909116905560cf54604051620100009091046001600160681b03168082529133917f045c558fdce4714c5816d53820d27420f4cd860892df203fe636384d8d19aa019060200160405180910390a3604051632904c23960e01b81526001600160a01b037f0000000000000000000000000000000000000000000000000000000000000000811660048301527f000000000000000000000000000000000000000000000000000000000000000081166024830152831660448201526064810182905273__$753d03423c86e1677c9cdb4291172228a9$__90632904c2399060840160206040518083038186803b1580156122ea57600080fd5b505af41580156122fe573d6000803e3d6000fd5b505050506040513d601f19601f82011682018060405250810190612322919061514c565b506115dd613c9e565b610104546001600160a01b03168061234257600080fd5b61234e600060016138ca565b336000818152609760205260409020549061236a90838361307f565b60405163c9c2d4f560e01b8152336004820152602481018290526001600160a01b0383169063c9c2d4f590604401600060405180830381600087803b1580156123b257600080fd5b505af11580156123c6573d6000803e3d6000fd5b505050505050565b60008060006123dc84612c0d565b909250905061166c8282613c92565b6065546001600160a01b031633146124155760405162461bcd60e51b815260040161117190615395565b6001600160a01b0381166124585760405162461bcd60e51b815260206004820152600a60248201526910b732bba5b2b2b832b960b11b6044820152606401611171565b60d480546001600160a01b0319166001600160a01b0392909216919091179055565b6002600154141561249d5760405162461bcd60e51b8152600401611171906153eb565b6002600155806124dc5760405162461bcd60e51b815260206004820152600a602482015269216e756d53686172657360b01b6044820152606401611171565b611a4a8160006138ca565b6002600154141561250a5760405162461bcd60e51b8152600401611171906153eb565b600260015560d2546001600160a01b03168015158061252f575060cf5461ffff166001145b61256a5760405162461bcd60e51b815260206004820152600c60248201526b149bdd5b990818db1bdcd95960a21b6044820152606401611171565b61257381613d70565b600061010354905060008061258a60fe5484613ee6565b60fe81905560d05491935091506000906125b490600160801b90046001600160801b031685613c92565b90506125bf8161416d565b60d080546001600160801b03808416600160801b0291161790556000610103556125e883613880565b60cf805462010000600160781b031916620100006001600160681b0386160217905560006126164282613c92565b905063ffffffff81111561266c5760405162461bcd60e51b815260206004820152601860248201527f4f766572666c6f77206e6578744f7074696f6e526561647900000000000000006044820152606401611171565b60d2805463ffffffff909216600160a01b0263ffffffff60a01b19909216919091179055505060018055505050565b6065546001600160a01b031633146126c55760405162461bcd60e51b815260040161117190615395565b6001600160a01b03811661270e5760405162461bcd60e51b815260206004820152601060248201526f085b995dd19959549958da5c1a595b9d60821b6044820152606401611171565b60d3546001600160a01b038281169116141561276c5760405162461bcd60e51b815260206004820152601860248201527f4d757374206265206e657720666565526563697069656e7400000000000000006044820152606401611171565b60d380546001600160a01b0319166001600160a01b0392909216919091179055565b600054610100900460ff16806127a7575060005460ff16155b6127c35760405162461bcd60e51b815260040161117190615347565b600054610100900460ff161580156127e5576000805461ffff19166101011790555b6128aa6127f56020850185614f2f565b6128056040860160208701614f2f565b6128156060870160408801614f2f565b6060870135608088013561282c60a08a018a6155b8565b8080601f01602080910402602001604051908101604052809392919081815260200183838082843760009201919091525061286e9250505060c08b018b6155b8565b8080601f0160208091040260200160405190810160405280939291908181526020018383808284376000920191909152508c92506141b7915050565b60006128bd610100850160e08601614f2f565b6001600160a01b0316141561290d5760405162461bcd60e51b815260206004820152601660248201527510afb7b83a34b7b739a83932b6b4bab6a83934b1b2b960511b6044820152606401611171565b600061292161012085016101008601614f2f565b6001600160a01b0316141561296c5760405162461bcd60e51b815260206004820152601160248201527010afb9ba3934b5b2a9b2b632b1ba34b7b760791b6044820152606401611171565b61297d610100840160e08501614f2f565b60f680546001600160a01b0319166001600160a01b03929092169190911790556129af61012084016101008501614f2f565b60f780546001600160a01b0319166001600160a01b039290921691909117905580156129e1576000805461ff00191690555b505050565b6065546001600160a01b03163314612a105760405162461bcd60e51b815260040161117190615395565b6001600160a01b038116612a755760405162461bcd60e51b815260206004820152602660248201527f4f776e61626c653a206e6577206f776e657220697320746865207a65726f206160448201526564647265737360d01b6064820152608401611171565b612a7e81613a79565b50565b60026001541415612aa45760405162461bcd60e51b8152600401611171906153eb565b600260015534612adf5760405162461bcd60e51b81526020600482015260066024820152652176616c756560d01b6044820152606401611171565b62015180612af860d7544261337490919063ffffffff16565b1015612b305760405162461bcd60e51b815260206004820152600760248201526610b1baba37b33360c91b6044820152606401611171565b60cc546040516321a3781f60e11b81523460048201526000916201000090046001600160a01b031690634346f03e9060240160206040518083038186803b158015612b7a57600080fd5b505afa158015612b8e573d6000803e3d6000fd5b505050506040513d601f19601f82011682018060405250810190612bb2919061514c565b9050612bbe81336134e1565b734d05e3d48a938db4b7a9a59a802d5b45011bde586001600160a01b031663d0e30db0346040518263ffffffff1660e01b81526004016000604051808303818588803b158015611b0f57600080fd5b6001600160a01b038116600090815260c9602090815260408083208151606081018352905461ffff81168083526201000082046001600160681b031694830194909452600160781b90046001600160801b031691810191909152829160011115612c8f575050506001600160a01b031660009081526097602052604081205491565b60cf54815161ffff908116600090815260ca602052604081205460cc549193612cc593869391169190610100900460ff166143f6565b9050612ce6856001600160a01b031660009081526097602052604090205490565b9590945092505050565b60026001541415612d135760405162461bcd60e51b8152600401611171906153eb565b60026001556000612d22614467565b60fe54909150612d329082613374565b6001600160801b031660fe555060018055565b60d4546001600160a01b03163314612d6f5760405162461bcd60e51b815260040161117190615326565b60026001541415612d925760405162461bcd60e51b8152600401611171906153eb565b600260015560d2546001600160a01b031680158015612db8575060cf5461ffff16600114155b612df75760405162461bcd60e51b815260206004820152601060248201526f149bdd5b99081b9bdd0818db1bdcd95960821b6044820152606401611171565b60408051610120810182526001600160a01b037f0000000000000000000000000000000000000000000000000000000000000000811682527f00000000000000000000000000000000000000000000000000000000000000008116602083015260cc8054620100009004821683850152848216606084015260006080840181905260fa5461ffff1660a085015260fb5460c085015260f754831660e085015260f65490921661010084015292516377e3ce0d60e11b8152919290918291829173__$753d03423c86e1677c9cdb4291172228a9$__9163efc79c1a91612ee391889160cf90600401615422565b60606040518083038186803b158015612efb57600080fd5b505af4158015612f0f573d6000803e3d6000fd5b505050506040513d601f19601f82011682018060405250810190612f339190614fee565b604080518381526020810183905293965091945092507fa217999b1c125c2a996f712c5f26a28addad7167bd8a67d5bd5b2a751148abb0910160405180910390a1505060d180546001600160a01b0319166001600160a01b0392909216919091179055505060018055565b6065546001600160a01b03163314612fc85760405162461bcd60e51b815260040161117190615395565b612fd6620f42406064615720565b811061301d5760405162461bcd60e51b8152602060048201526016602482015275496e76616c6964206d616e6167656d656e742066656560501b6044820152606401611171565b600061303a63031ba30961303484620f4240614624565b90614630565b60d65460408051918252602082018590529192507f4e874b007ab14f7e263baefd44951834c8266f4f224d1092e49e9c254354cc54910160405180910390a160d65550565b6001600160a01b0383166130e15760405162461bcd60e51b8152602060048201526024808201527f45524332303a20617070726f76652066726f6d20746865207a65726f206164646044820152637265737360e01b6064820152608401611171565b6001600160a01b0382166131425760405162461bcd60e51b815260206004820152602260248201527f45524332303a20617070726f766520746f20746865207a65726f206164647265604482015261737360f01b6064820152608401611171565b6001600160a01b0383811660008181526098602090815260408083209487168084529482529182902085905590518481527f8c5be1e5ebec7d5bd14f71427d1e84f3dd0314c0f7b2291e5b200ac8c7c3b92591015b60405180910390a3505050565b6001600160a01b0383166132085760405162461bcd60e51b815260206004820152602560248201527f45524332303a207472616e736665722066726f6d20746865207a65726f206164604482015264647265737360d81b6064820152608401611171565b6001600160a01b03821661326a5760405162461bcd60e51b815260206004820152602360248201527f45524332303a207472616e7366657220746f20746865207a65726f206164647260448201526265737360e81b6064820152608401611171565b6001600160a01b038316600090815260976020526040902054818110156132e25760405162461bcd60e51b815260206004820152602660248201527f45524332303a207472616e7366657220616d6f756e7420657863656564732062604482015265616c616e636560d01b6064820152608401611171565b6001600160a01b038085166000908152609760205260408082208585039055918516815290812080548492906133199084906155fd565b92505081905550826001600160a01b0316846001600160a01b03167fddf252ad1be2c89b69c2b068fc378daa952ba7f163c4a11628f55a4df523b3ef8460405161336591815260200190565b60405180910390a35b50505050565b600061131b828461573f565b60cc546001600160a01b03620100009091048116907f0000000000000000000000000000000000000000000000000000000000000000168114156134cd57604051632e1a7d4d60e01b8152600481018390527f00000000000000000000000000000000000000000000000000000000000000006001600160a01b031690632e1a7d4d90602401600060405180830381600087803b15801561342057600080fd5b505af1158015613434573d6000803e3d6000fd5b505050506000836001600160a01b03168360405160006040518083038185875af1925050503d8060008114613485576040519150601f19603f3d011682016040523d82523d6000602084013e61348a565b606091505b505090508061336e5760405162461bcd60e51b815260206004820152600f60248201526e151c985b9cd9995c8819985a5b1959608a1b6044820152606401611171565b6129e16001600160a01b038216848461463c565b60cf5461ffff1660006134fc846134f6611f9a565b90613c92565b60ce549091506001600160681b03168111156135475760405162461bcd60e51b815260206004820152600a6024820152690457863656564206361760b41b6044820152606401611171565b60cd54600160a01b900466ffffffffffffff168110156135a05760405162461bcd60e51b8152602060048201526014602482015273496e73756666696369656e742062616c616e636560601b6044820152606401611171565b60408051858152602081018490526001600160a01b038516917f90890809c654f11d6e72a28fa60149770a0d11ec6c92319d6ceb2bb0a4ea1a15910160405180910390a26001600160a01b038316600090815260c9602090815260408083208151606081018352905461ffff81168083526201000082046001600160681b031683860152600160781b9091046001600160801b031682840152845260ca90925282205460cc5491929161365f918491879190610100900460ff166143f6565b8251909150869061ffff1685141561369057602083015160009061368c906001600160681b031689613c92565b9150505b61369981613880565b6040805160608101825261ffff80881682526001600160681b0380851660208085019182526001600160801b038089168688019081526001600160a01b038e16600090815260c990935296822095518654935197518216600160781b02600160781b600160f81b03199890951662010000026effffffffffffffffffffffffffffff1990941695169490941791909117949094161790915560d05461373f911689613c92565b905061374a8161416d565b60d080546001600160801b0319166001600160801b039290921691909117905550505050505050565b6040516001600160a01b038085166024830152831660448201526064810182905261336e9085906323b872dd60e01b906084015b60408051601f198184030181529190526020810180516001600160e01b03166001600160e01b03199093169290921790915261466c565b6000806137ec83600a615678565b9050600086116137fc5780613814565b6138148661303461380d8888613374565b8490614624565b9695505050505050565b6000600183116138685760405162461bcd60e51b8152602060048201526015602482015274496e76616c6964206173736574506572536861726560581b6044820152606401611171565b61166c61387683600a615678565b6130348686614624565b6001600160681b03811115612a7e5760405162461bcd60e51b815260206004820152601060248201526f13dd995c999b1bddc81d5a5b9d0c4c0d60821b6044820152606401611171565b33600090815260c9602090815260408083208151606081018352905461ffff8082168084526201000083046001600160681b031684870152600160781b9092046001600160801b03168385015260cf5491865260ca9094529184205460cc54919492909316926139459185918591610100900460ff166143f6565b9050836139525784613954565b805b945084613962575050505050565b808511156139a65760405162461bcd60e51b81526020600482015260116024820152704578636565647320617661696c61626c6560781b6044820152606401611171565b825161ffff168211156139d35733600090815260c960205260409020805462010000600160781b03191690555b6139dc8561416d565b6139e68186613374565b33600081815260c960205260409081902080546001600160801b0394909416600160781b02600160781b600160f81b0319909416939093179092558451915190917fe5b754fb1abb7f01b499791d0b820ae3b6af3424ac1c59768edb53f4ec31a92991613a5f9189825261ffff16602082015260400190565b60405180910390a2613a723033876131a4565b5050505050565b606580546001600160a01b038381166001600160a01b0319831681179093556040519116919082907f8be0079c531659141344cd1fd0a4f28419497f9722a3daafe3b4186f6b6457e090600090a35050565b60008111613b085760405162461bcd60e51b815260206004820152600a602482015269216e756d53686172657360b01b6044820152606401611171565b33600090815260c960205260409020546201000090046001600160681b0316151580613b52575033600090815260c96020526040902054600160781b90046001600160801b031615155b15613b6357613b63600060016138ca565b60cf5433600081815260cb60209081526040918290208054835187815261ffff96871693810184905292959194911685149290917f0c53c82ad07e2d592d88ece3b066777dd60f1118e2a081b380efc4358f0d9e2a910160405180910390a281546201000090046001600160801b031660008215613bec57613be58287613c92565b9050613c4f565b8115613c2e5760405162461bcd60e51b81526020600482015260116024820152704578697374696e6720776974686472617760781b6044820152606401611171565b5033600090815260cb60205260409020805461ffff191661ffff8616179055845b613c588161416d565b33600081815260cb60205260409020805462010000600160901b031916620100006001600160801b038516021790556123c69030886131a4565b600061131b82846155fd565b60d25460f9546040516301c6654960e21b81526001600160a01b0392831660048201819052602482018390527f0000000000000000000000000000000000000000000000000000000000000000909316604482015260cc606482015273__$753d03423c86e1677c9cdb4291172228a9$__9063071995249060840160206040518083038186803b158015613d3157600080fd5b505af4158015613d45573d6000803e3d6000fd5b505050506040513d601f19601f82011682018060405250810190613d69919061514c565b60fd555050565b60cf546201000090046001600160681b03166001600160a01b03821615613dbc5760cf80546cffffffffffffffffffffffffff60781b1916600160781b6001600160681b038416021790555b60cf805462010000600160781b031916905560d280546001600160a01b03191690556001600160a01b03821615613ee257604051636c6fe87f60e11b81526001600160a01b037f000000000000000000000000000000000000000000000000000000000000000016600482015260009073__$753d03423c86e1677c9cdb4291172228a9$__9063d8dfd0fe9060240160206040518083038186803b158015613e6357600080fd5b505af4158015613e77573d6000803e3d6000fd5b505050506040513d601f19601f82011682018060405250810190613e9b919061514c565b9050336001600160a01b0316836001600160a01b03167f7e830f7c1771deb1bdb35c4a7e6051bbac32b376f7f4e4976b8618b0b11997f78360405161319791815260200190565b5050565b60d3546040805160e08101825260cc54610100810460ff16825291516370a0823160e01b815230600482015260009384936001600160a01b0391821693859384938493849373__$753d03423c86e1677c9cdb4291172228a9$__9363d9b874389360cf93602084019262010000909104909116906370a082319060240160206040518083038186803b158015613f7b57600080fd5b505afa158015613f8f573d6000803e3d6000fd5b505050506040513d601f19601f82011682018060405250810190613fb3919061514c565b8152602001613fc160995490565b81526020018d815260200160d554815260200160d65481526020018c8152506040518363ffffffff1660e01b815260040161404e92919060006101008201905083825282516020830152602083015160408301526040830151606083015260608301516080830152608083015160a083015260a083015160c083015260c083015160e08301529392505050565b60c06040518083038186803b15801561406657600080fd5b505af415801561407a573d6000803e3d6000fd5b505050506040513d601f19601f8201168201806040525081019061409e9190615188565b60cf5461ffff16600081815260ca60209081526040918290208790558151858152908101849052908101829052969d50949b50919850965094509250906001600160a01b038716907f0a242f7ecaf711036ca770774ceffae28e60ef042ac113ddd187f2631db0c0069060600160405180910390a260d080546001600160801b031916905561412e8160016155fd565b60cf805461ffff191661ffff92909216919091179055506141519050308461473e565b8015614161576141618482613380565b505050505b9250929050565b6001600160801b03811115612a7e5760405162461bcd60e51b815260206004820152601060248201526f09eeccae4ccd8deee40ead2dce86264760831b6044820152606401611171565b600054610100900460ff16806141d0575060005460ff16155b6141ec5760405162461bcd60e51b815260040161117190615347565b600054610100900460ff1615801561420e576000805461ffff19166101011790555b60405163c72733f760e01b815273__$753d03423c86e1677c9cdb4291172228a9$__9063c72733f790614253908c908c908c908b908d908c908c908c90600401615219565b60006040518083038186803b15801561426b57600080fd5b505af415801561427f573d6000803e3d6000fd5b5050505061428b61481d565b6142958484614890565b61429d61490f565b6142a6896129e6565b60d480546001600160a01b03808b166001600160a01b03199283161790925560d38054928a169290911691909117905560d58590556142f063031ba30961303488620f4240614624565b60d6558160cc6143008282615815565b505060cc546040516370a0823160e01b81523060048201526000916201000090046001600160a01b0316906370a082319060240160206040518083038186803b15801561434c57600080fd5b505afa158015614360573d6000803e3d6000fd5b505050506040513d601f19601f82011682018060405250810190614384919061514c565b905061438f81613880565b60cf805461ffff196001600160681b03909316600160781b02929092167fffffffff00000000000000000000000000ffffffffffffffffffffffffff000090921691909117600117905580156143eb576000805461ff00191690555b505050505050505050565b835160009061ffff16158015906144115750845161ffff1684115b1561445357600061443086602001516001600160681b03168585614976565b604087015190915061444b906001600160801b031682613c92565b91505061166c565b50505050604001516001600160801b031690565b33600090815260cb6020526040812080546001600160801b03620100008204169061ffff16816144c95760405162461bcd60e51b815260206004820152600d60248201526c139bdd081a5b9a5d1a585d1959609a1b6044820152606401611171565b60cf5461ffff1681106145115760405162461bcd60e51b815260206004820152601060248201526f149bdd5b99081b9bdd0818db1bdcd95960821b6044820152606401611171565b33600090815260cb60205260409020805462010000600160901b031916905560d05461454d90600160801b90046001600160801b031683613374565b60d080546001600160801b03928316600160801b029216919091179055600081815260ca602052604081205460cc5461459091859160ff6101009091041661381e565b604080518281526020810186905291925033917ff279e6a1f5e320cca91135676d9cb6e44ca8a08c0b88342bcdb1144f6511b568910160405180910390a26145d830846149d9565b6000811161461a5760405162461bcd60e51b815260206004820152600f60248201526e085dda5d1a191c985dd05b5bdd5b9d608a1b6044820152606401611171565b61166c3382613380565b600061131b8284615720565b600061131b8284615615565b6040516001600160a01b0383166024820152604481018290526129e190849063a9059cbb60e01b906064016137a7565b60006146c1826040518060400160405280602081526020017f5361666545524332303a206c6f772d6c6576656c2063616c6c206661696c6564815250856001600160a01b0316614b279092919063ffffffff16565b8051909150156129e157808060200190518101906146df9190615095565b6129e15760405162461bcd60e51b815260206004820152602a60248201527f5361666545524332303a204552433230206f7065726174696f6e20646964206e6044820152691bdd081cdd58d8d9595960b21b6064820152608401611171565b6001600160a01b0382166147945760405162461bcd60e51b815260206004820152601f60248201527f45524332303a206d696e7420746f20746865207a65726f2061646472657373006044820152606401611171565b80609960008282546147a691906155fd565b90915550506001600160a01b038216600090815260976020526040812080548392906147d39084906155fd565b90915550506040518181526001600160a01b038316906000907fddf252ad1be2c89b69c2b068fc378daa952ba7f163c4a11628f55a4df523b3ef9060200160405180910390a35050565b600054610100900460ff1680614836575060005460ff16155b6148525760405162461bcd60e51b815260040161117190615347565b600054610100900460ff16158015614874576000805461ffff19166101011790555b61487c614b36565b8015612a7e576000805461ff001916905550565b600054610100900460ff16806148a9575060005460ff16155b6148c55760405162461bcd60e51b815260040161117190615347565b600054610100900460ff161580156148e7576000805461ffff19166101011790555b6148ef614ba5565b6148f98383614c0f565b80156129e1576000805461ff0019169055505050565b600054610100900460ff1680614928575060005460ff16155b6149445760405162461bcd60e51b815260040161117190615347565b600054610100900460ff16158015614966576000805461ffff19166101011790555b61496e614ba5565b61487c614ca4565b6000600183116149c05760405162461bcd60e51b8152602060048201526015602482015274496e76616c6964206173736574506572536861726560581b6044820152606401611171565b61166c836130346149d285600a615678565b8790614624565b6001600160a01b038216614a395760405162461bcd60e51b815260206004820152602160248201527f45524332303a206275726e2066726f6d20746865207a65726f206164647265736044820152607360f81b6064820152608401611171565b6001600160a01b03821660009081526097602052604090205481811015614aad5760405162461bcd60e51b815260206004820152602260248201527f45524332303a206275726e20616d6f756e7420657863656564732062616c616e604482015261636560f01b6064820152608401611171565b6001600160a01b0383166000908152609760205260408120838303905560998054849290614adc90849061573f565b90915550506040518281526000906001600160a01b038516907fddf252ad1be2c89b69c2b068fc378daa952ba7f163c4a11628f55a4df523b3ef9060200160405180910390a3505050565b606061166c8484600085614d04565b600054610100900460ff1680614b4f575060005460ff16155b614b6b5760405162461bcd60e51b815260040161117190615347565b600054610100900460ff16158015614b8d576000805461ffff19166101011790555b600180558015612a7e576000805461ff001916905550565b600054610100900460ff1680614bbe575060005460ff16155b614bda5760405162461bcd60e51b815260040161117190615347565b600054610100900460ff1615801561487c576000805461ffff19166101011790558015612a7e576000805461ff001916905550565b600054610100900460ff1680614c28575060005460ff16155b614c445760405162461bcd60e51b815260040161117190615347565b600054610100900460ff16158015614c66576000805461ffff19166101011790555b8251614c7990609a906020860190614e65565b508151614c8d90609b906020850190614e65565b5080156129e1576000805461ff0019169055505050565b600054610100900460ff1680614cbd575060005460ff16155b614cd95760405162461bcd60e51b815260040161117190615347565b600054610100900460ff16158015614cfb576000805461ffff19166101011790555b61487c33613a79565b606082471015614d655760405162461bcd60e51b815260206004820152602660248201527f416464726573733a20696e73756666696369656e742062616c616e636520666f6044820152651c8818d85b1b60d21b6064820152608401611171565b843b614db35760405162461bcd60e51b815260206004820152601d60248201527f416464726573733a2063616c6c20746f206e6f6e2d636f6e74726163740000006044820152606401611171565b600080866001600160a01b03168587604051614dcf91906151fd565b60006040518083038185875af1925050503d8060008114614e0c576040519150601f19603f3d011682016040523d82523d6000602084013e614e11565b606091505b5091509150614e21828286614e2c565b979650505050505050565b60608315614e3b57508161131b565b825115614e4b5782518084602001fd5b8160405162461bcd60e51b81526004016111719190615313565b828054614e7190615782565b90600052602060002090601f016020900481019282614e935760008555614ed9565b82601f10614eac57805160ff1916838001178555614ed9565b82800160010185558215614ed9579182015b82811115614ed9578251825591602001919060010190614ebe565b50614ee5929150614ee9565b5090565b5b80821115614ee55760008155600101614eea565b8035614f0981615926565b919050565b8035614f0981615949565b8035614f098161595e565b8035614f0981615973565b600060208284031215614f40578081fd5b813561131b81615926565b60008060408385031215614f5d578081fd5b8235614f6881615926565b91506020830135614f7881615926565b809150509250929050565b600080600060608486031215614f97578081fd5b8335614fa281615926565b92506020840135614fb281615926565b929592945050506040919091013590565b60008060408385031215614fd5578182fd5b8235614fe081615926565b946020939093013593505050565b600080600060608486031215615002578283fd5b835161500d81615926565b602085015160409095015190969495509392505050565b60008060208385031215615036578182fd5b823567ffffffffffffffff8082111561504d578384fd5b818501915085601f830112615060578384fd5b81358181111561506e578485fd5b86602061012083028501011115615083578485fd5b60209290920196919550909350505050565b6000602082840312156150a6578081fd5b815161131b8161593b565b60008082840360e08112156150c4578283fd5b833567ffffffffffffffff8111156150da578384fd5b840161012081870312156150ec578384fd5b925060c0601f19820112156150ff578182fd5b506020830190509250929050565b60006020828403121561511e578081fd5b81356001600160801b038116811461131b578182fd5b600060208284031215615145578081fd5b5035919050565b60006020828403121561515d578081fd5b5051919050565b60008060408385031215615176578182fd5b823591506020830135614f7881615926565b60008060008060008060c087890312156151a0578384fd5b865195506020870151945060408701519350606087015192506080870151915060a087015190509295509295509295565b600081518084526151e9816020860160208601615756565b601f01601f19169290920160200192915050565b6000825161520f818460208701615756565b9190910192915050565b60006101a060018060a01b03808c168452808b166020850152808a1660408501528860608501528760808501528160a0850152615258828501886151d1565b915083820360c085015261526c82876151d1565b92508435915061527b8261593b565b90151560e084015260208401359061529282615973565b60ff8216610100850152604085013591506152ac82615926565b166101208301526152bf60608401614efe565b6001600160a01b03166101408301526152da60808401614f19565b66ffffffffffffff166101608301526152f560a08401614f0e565b6001600160681b038116610180840152509998505050505050505050565b60208152600061131b60208301846151d1565b60208082526007908201526610b5b2b2b832b960c91b604082015260600190565b6020808252602e908201527f496e697469616c697a61626c653a20636f6e747261637420697320616c72656160408201526d191e481a5b9a5d1a585b1a5e995960921b606082015260800190565b6020808252818101527f4f776e61626c653a2063616c6c6572206973206e6f7420746865206f776e6572604082015260600190565b60208082526007908201526608585b5bdd5b9d60ca1b604082015260600190565b6020808252601f908201527f5265656e7472616e637947756172643a207265656e7472616e742063616c6c00604082015260600190565b83516001600160a01b0316815260208085015161016083019161544f908401826001600160a01b03169052565b50604085015161546a60408401826001600160a01b03169052565b50606085015161548560608401826001600160a01b03169052565b506080850151608083015260a08501516154a560a084018261ffff169052565b5060c085015160c083015260e08501516154ca60e08401826001600160a01b03169052565b50610100858101516001600160a01b0381168483015250506101208201939093526101400152919050565b838152604060208083018290528282018490526000919060609081850187855b888110156155a957813583528382013584840152615534868301614efe565b6001600160a01b03168684015284820135858401526080808301359084015260a0615560818401614efe565b6001600160a01b03169084015260c061557a838201614f24565b60ff169084015260e0828101359084015261010080830135908401526101209283019290910190600101615515565b50909998505050505050505050565b6000808335601e198436030181126155ce578283fd5b83018035915067ffffffffffffffff8211156155e8578283fd5b60200191503681900382131561416657600080fd5b60008219821115615610576156106157d8565b500190565b60008261563057634e487b7160e01b81526012600452602481fd5b500490565b600181815b80851115615670578160001904821115615656576156566157d8565b8085161561566357918102915b93841c939080029061563a565b509250929050565b600061131b838360008261568e57506001611240565b8161569b57506000611240565b81600181146156b157600281146156bb576156d7565b6001915050611240565b60ff8411156156cc576156cc6157d8565b50506001821b611240565b5060208310610133831016604e8410600b84101617156156fa575081810a611240565b6157048383615635565b8060001904821115615718576157186157d8565b029392505050565b600081600019048311821515161561573a5761573a6157d8565b500290565b600082821015615751576157516157d8565b500390565b60005b83811015615771578181015183820152602001615759565b8381111561336e5750506000910152565b600181811c9082168061579657607f821691505b602082108114156157b757634e487b7160e01b600052602260045260246000fd5b50919050565b60006000198214156157d1576157d16157d8565b5060010190565b634e487b7160e01b600052601160045260246000fd5b6000813561124081615926565b6000813561124081615949565b600081356112408161595e565b81356158208161593b565b815460ff19811691151560ff169182178355602084013561584081615973565b61ff008160081b169050808361ffff19841617178455604085013561586481615926565b6001600160b01b0319929092169092179190911760109190911b62010000600160b01b0316178155600181016158bc61589f606085016157ee565b82546001600160a01b0319166001600160a01b0391909116178255565b6158f56158cb60808501615808565b82805466ffffffffffffff60a01b191660a09290921b66ffffffffffffff60a01b16919091179055565b50613ee261590560a084016157fb565b600283016001600160681b0382166001600160681b03198254161781555050565b6001600160a01b0381168114612a7e57600080fd5b8015158114612a7e57600080fd5b6001600160681b0381168114612a7e57600080fd5b66ffffffffffffff81168114612a7e57600080fd5b60ff81168114612a7e57600080fdfea26469706673582212204b4818a2f53b6bd89c54b8c48f8e7d177daa63147804467031ab1272f0cf6bba64736f6c63430008040033",
  "libraries": {
    "VaultLifecycleWithSwap": "0xf7F4260943DB50EEE7e917330C35B460fF70aD54"
  },
  "devdoc": {
    "kind": "dev",
    "methods": {
      "accountVaultBalance(address)": {
        "params": {
          "account": "is the address to lookup balance for"
        },
        "returns": {
          "_0": "the amount of `asset` custodied by the vault for the user"
        }
      },
      "allowance(address,address)": {
        "details": "See {IERC20-allowance}."
      },
      "approve(address,uint256)": {
        "details": "See {IERC20-approve}. Requirements: - `spender` cannot be the zero address."
      },
      "balanceOf(address)": {
        "details": "See {IERC20-balanceOf}."
      },
      "constructor": {
        "params": {
          "_gammaController": "is the contract address for opyn actions",
          "_marginPool": "is the contract address for providing collateral to opyn",
          "_oTokenFactory": "is the contract address for minting new opyn option types (strikes, asset, expiry)",
          "_swapContract": "is the contract address that facilitates bids settlement",
          "_usdc": "is the USDC contract",
          "_weth": "is the Wrapped Ether contract"
        }
      },
      "decreaseAllowance(address,uint256)": {
        "details": "Atomically decreases the allowance granted to `spender` by the caller. This is an alternative to {approve} that can be used as a mitigation for problems described in {IERC20-approve}. Emits an {Approval} event indicating the updated allowance. Requirements: - `spender` cannot be the zero address. - `spender` must have allowance for the caller of at least `subtractedValue`."
      },
      "deposit(uint256)": {
        "params": {
          "amount": "is the amount of `asset` to deposit"
        }
      },
      "depositFor(uint256,address)": {
        "params": {
          "amount": "is the amount of `asset` to deposit",
          "creditor": "is the address that can claim/withdraw deposited amount"
        }
      },
      "increaseAllowance(address,uint256)": {
        "details": "Atomically increases the allowance granted to `spender` by the caller. This is an alternative to {approve} that can be used as a mitigation for problems described in {IERC20-approve}. Emits an {Approval} event indicating the updated allowance. Requirements: - `spender` cannot be the zero address."
      },
      "initRounds(uint256)": {
        "params": {
          "numRounds": "is the number of rounds to initialize in the map"
        }
      },
      "initialize((address,address,address,uint256,uint256,string,string,address,address),(bool,uint8,address,address,uint56,uint104))": {
        "params": {
          "_initParams": "is the struct with vault initialization parameters",
          "_vaultParams": "is the struct with vault general data"
        }
      },
      "initiateWithdraw(uint256)": {
        "params": {
          "numShares": "is the number of shares to withdraw"
        }
      },
      "name()": {
        "details": "Returns the name of the token."
      },
      "owner()": {
        "details": "Returns the address of the current owner."
      },
      "redeem(uint256)": {
        "params": {
          "numShares": "is the number of shares to redeem"
        }
      },
      "renounceOwnership()": {
        "details": "Leaves the contract without owner. It will not be possible to call `onlyOwner` functions anymore. Can only be called by the current owner. NOTE: Renouncing ownership will leave the contract without an owner, thereby removing any functionality that is only available to the owner."
      },
      "setCap(uint256)": {
        "params": {
          "newCap": "is the new cap for deposits"
        }
      },
      "setFeeRecipient(address)": {
        "params": {
          "newFeeRecipient": "is the address of the new fee recipient"
        }
      },
      "setLiquidityGauge(address)": {
        "params": {
          "newLiquidityGauge": "is the address of the new liquidityGauge contract"
        }
      },
      "setManagementFee(uint256)": {
        "params": {
          "newManagementFee": "is the management fee (6 decimals). ex: 2 * 10 ** 6 = 2%"
        }
      },
      "setMinPrice(uint256)": {
        "params": {
          "minPrice": "is the new oToken Premium in the units of 10**18"
        }
      },
      "setNewKeeper(address)": {
        "params": {
          "newKeeper": "is the address of the new keeper"
        }
      },
      "setOptionsPremiumPricer(address)": {
        "params": {
          "newOptionsPremiumPricer": "is the address of the new strike selection contract"
        }
      },
      "setPerformanceFee(uint256)": {
        "params": {
          "newPerformanceFee": "is the performance fee (6 decimals). ex: 20 * 10 ** 6 = 20%"
        }
      },
      "setStrikePrice(uint128)": {
        "params": {
          "strikePrice": "is the strike price of the new oTokens (decimals = 8)"
        }
      },
      "setStrikeSelection(address)": {
        "params": {
          "newStrikeSelection": "is the address of the new strike selection contract"
        }
      },
      "setVaultPauser(address)": {
        "params": {
          "newVaultPauser": "is the address of the new vaultPauser contract"
        }
      },
      "shareBalances(address)": {
        "params": {
          "account": "is the account to lookup share balance for"
        },
        "returns": {
          "heldByAccount": "is the shares held by account",
          "heldByVault": "is the shares held on the vault (unredeemedShares)"
        }
      },
      "shares(address)": {
        "params": {
          "account": "is the account to lookup share balance for"
        },
        "returns": {
          "_0": "the share balance"
        }
      },
      "stake(uint256)": {
        "params": {
          "numShares": "is the number of shares to stake"
        }
      },
      "symbol()": {
        "details": "Returns the symbol of the token, usually a shorter version of the name."
      },
      "totalBalance()": {
        "returns": {
          "_0": "total balance of the vault, including the amounts locked in third party protocols"
        }
      },
      "totalSupply()": {
        "details": "See {IERC20-totalSupply}."
      },
      "transfer(address,uint256)": {
        "details": "See {IERC20-transfer}. Requirements: - `recipient` cannot be the zero address. - the caller must have a balance of at least `amount`."
      },
      "transferFrom(address,address,uint256)": {
        "details": "See {IERC20-transferFrom}. Emits an {Approval} event indicating the updated allowance. This is not required by the EIP. See the note at the beginning of {ERC20}. Requirements: - `sender` and `recipient` cannot be the zero address. - `sender` must have a balance of at least `amount`. - the caller must have allowance for ``sender``'s tokens of at least `amount`."
      },
      "transferOwnership(address)": {
        "details": "Transfers ownership of the contract to a new account (`newOwner`). Can only be called by the current owner."
      },
      "withdrawInstantly(uint256)": {
        "params": {
          "amount": "is the amount to withdraw"
        }
      }
    },
    "version": 1
  },
  "userdoc": {
    "kind": "user",
    "methods": {
      "DELAY()": {
        "notice": "Deprecated: 15 minute timelock between commitAndClose and rollToNexOption."
      },
      "OTOKEN_FACTORY()": {
        "notice": "oTokenFactory is the factory contract used to spawn otokens. Used to lookup otokens."
      },
      "PERIOD()": {
        "notice": "7 day period between each options sale."
      },
      "USDC()": {
        "notice": "USDC 0xA0b86991c6218b36c1d19D4a2e9Eb0cE3606eB48"
      },
      "WETH()": {
        "notice": "WETH9 0xC02aaA39b223FE8D0A0e5C4F27eAD9083C756Cc2"
      },
      "accountVaultBalance(address)": {
        "notice": "Returns the asset balance held on the vault for the account"
      },
      "burnRemainingOTokens()": {
        "notice": "Burn the remaining oTokens left over"
      },
      "closeRound()": {
        "notice": "Closes the existing short and calculate the shares to mint, new price per share & amount of funds to re-allocate as collateral for the new round Since we are incrementing the round here, the options are sold in the beginning of a round instead of at the end of the round. For example, at round 1, we don't sell any options. We start selling options at the beginning of round 2."
      },
      "commitNextOption()": {
        "notice": "Sets the next option the vault will be shorting"
      },
      "completeWithdraw()": {
        "notice": "Completes a scheduled withdrawal from a past round. Uses finalized pps for the round"
      },
      "constructor": {
        "notice": "Initializes the contract with immutable variables"
      },
      "decimals()": {
        "notice": "Returns the token decimals"
      },
      "deposit(uint256)": {
        "notice": "Deposits the `asset` from msg.sender."
      },
      "depositETH()": {
        "notice": "Deposits ETH into the contract and mint vault shares."
      },
      "depositFor(uint256,address)": {
        "notice": "Deposits the `asset` from msg.sender added to `creditor`'s deposit.Used for vault -> vault deposits on the user's behalf"
      },
      "depositReceipts(address)": {
        "notice": "Stores the user's pending deposit for the round"
      },
      "feeRecipient()": {
        "notice": "Fee recipient for the performance and management fees"
      },
      "initRounds(uint256)": {
        "notice": "Helper function that helps to save gas for writing values into the roundPricePerShare map.         Writing `1` into the map makes subsequent writes warm, reducing the gas from 20k to 5k.         Having 1 initialized beforehand will not be an issue as long as we round down share calculations to 0."
      },
      "initialize((address,address,address,uint256,uint256,string,string,address,address),(bool,uint8,address,address,uint56,uint104))": {
        "notice": "Initializes the OptionVault contract with storage variables."
      },
      "initiateWithdraw(uint256)": {
        "notice": "Initiates a withdrawal that can be processed once the round completes"
      },
      "keeper()": {
        "notice": "role in charge of weekly vault operations such as rollToNextOption and burnRemainingOTokens"
      },
      "lastrETHMintCutoff()": {
        "notice": "depositETH transactions within 24hr are paused"
      },
      "managementFee()": {
        "notice": "Management fee charged on entire AUM in rollToNextOption. Only charged when there is no loss."
      },
      "maxRedeem()": {
        "notice": "Redeems the entire unredeemedShares balance that is owed to the account"
      },
      "optionState()": {
        "notice": "Vault's state of the options sold and the timelocked option"
      },
      "pausePosition()": {
        "notice": "pause a user's vault position"
      },
      "performanceFee()": {
        "notice": "Performance fee charged on premiums earned in rollToNextOption. Only charged when there is no loss."
      },
      "pricePerShare()": {
        "notice": "The price of a unit of share denominated in the `asset`"
      },
      "redeem(uint256)": {
        "notice": "Redeems shares that are owed to the account"
      },
      "rollToNextOption()": {
        "notice": "Rolls the vault's funds into a new short position and create a new offer."
      },
      "roundPricePerShare(uint256)": {
        "notice": "On every round's close, the pricePerShare value of an rTHETA token is stored This is used to determine the number of shares to be returned to a user with their DepositReceipt.depositAmount"
      },
      "setCap(uint256)": {
        "notice": "Sets a new cap for deposits"
      },
      "setFeeRecipient(address)": {
        "notice": "Sets the new fee recipient"
      },
      "setLiquidityGauge(address)": {
        "notice": "Sets the new liquidityGauge contract for this vault"
      },
      "setManagementFee(uint256)": {
        "notice": "Sets the management fee for the vault"
      },
      "setMinPrice(uint256)": {
        "notice": "Sets oToken Premium"
      },
      "setNewKeeper(address)": {
        "notice": "Sets the new keeper"
      },
      "setOptionsPremiumPricer(address)": {
        "notice": "Sets the new options premium pricer contract"
      },
      "setPerformanceFee(uint256)": {
        "notice": "Sets the performance fee for the vault"
      },
      "setStrikePrice(uint128)": {
        "notice": "Optionality to set strike price manually Should be called after closeRound if we are setting current week's strike"
      },
      "setStrikeSelection(address)": {
        "notice": "Sets the new strike selection contract"
      },
      "setVaultPauser(address)": {
        "notice": "Sets the new Vault Pauser contract for this vault"
      },
      "settleOffer((uint256,uint256,address,uint256,uint256,address,uint8,bytes32,bytes32)[])": {
        "notice": "Settle current offer"
      },
      "shareBalances(address)": {
        "notice": "Getter for returning the account's share balance split between account and vault holdings"
      },
      "shares(address)": {
        "notice": "Getter for returning the account's share balance including unredeemed shares"
      },
      "stake(uint256)": {
        "notice": "Stakes a users vault shares"
      },
      "totalBalance()": {
        "notice": "Returns the vault's total balance, including the amounts locked into a short position"
      },
      "updaterETHMintCutoff()": {
        "notice": "Sets the new rETH mint cutoff"
      },
      "vaultParams()": {
        "notice": "Vault's parameters like cap, decimals"
      },
      "vaultState()": {
        "notice": "Vault's lifecycle state like round and locked amounts"
      },
      "withdrawInstantly(uint256)": {
        "notice": "Withdraws the assets on the vault using the outstanding `DepositReceipt.amount`"
      },
      "withdrawals(address)": {
        "notice": "Stores pending user withdrawals"
      }
    },
    "notice": "UPGRADEABILITY: Since we use the upgradeable proxy pattern, we must observe the inheritance chain closely. Any changes/appends in storage variable needs to happen in RibbonThetaVaultStorage. RibbonThetaVault should not inherit from any other contract aside from RibbonVault, RibbonThetaVaultStorage",
    "version": 1
  },
  "storageLayout": {
    "storage": [
      {
        "astId": 176,
        "contract": "contracts/vaults/RETHVault/RibbonThetaRETHVault.sol:RibbonThetaRETHVault",
        "label": "_initialized",
        "offset": 0,
        "slot": "0",
        "type": "t_bool"
      },
      {
        "astId": 179,
        "contract": "contracts/vaults/RETHVault/RibbonThetaRETHVault.sol:RibbonThetaRETHVault",
        "label": "_initializing",
        "offset": 1,
        "slot": "0",
        "type": "t_bool"
      },
      {
        "astId": 230,
        "contract": "contracts/vaults/RETHVault/RibbonThetaRETHVault.sol:RibbonThetaRETHVault",
        "label": "_status",
        "offset": 0,
        "slot": "1",
        "type": "t_uint256"
      },
      {
        "astId": 273,
        "contract": "contracts/vaults/RETHVault/RibbonThetaRETHVault.sol:RibbonThetaRETHVault",
        "label": "__gap",
        "offset": 0,
        "slot": "2",
        "type": "t_array(t_uint256)49_storage"
      },
      {
        "astId": 993,
        "contract": "contracts/vaults/RETHVault/RibbonThetaRETHVault.sol:RibbonThetaRETHVault",
        "label": "__gap",
        "offset": 0,
        "slot": "51",
        "type": "t_array(t_uint256)50_storage"
      },
      {
        "astId": 56,
        "contract": "contracts/vaults/RETHVault/RibbonThetaRETHVault.sol:RibbonThetaRETHVault",
        "label": "_owner",
        "offset": 0,
        "slot": "101",
        "type": "t_address"
      },
      {
        "astId": 169,
        "contract": "contracts/vaults/RETHVault/RibbonThetaRETHVault.sol:RibbonThetaRETHVault",
        "label": "__gap",
        "offset": 0,
        "slot": "102",
        "type": "t_array(t_uint256)49_storage"
      },
      {
        "astId": 293,
        "contract": "contracts/vaults/RETHVault/RibbonThetaRETHVault.sol:RibbonThetaRETHVault",
        "label": "_balances",
        "offset": 0,
        "slot": "151",
        "type": "t_mapping(t_address,t_uint256)"
      },
      {
        "astId": 299,
        "contract": "contracts/vaults/RETHVault/RibbonThetaRETHVault.sol:RibbonThetaRETHVault",
        "label": "_allowances",
        "offset": 0,
        "slot": "152",
        "type": "t_mapping(t_address,t_mapping(t_address,t_uint256))"
      },
      {
        "astId": 301,
        "contract": "contracts/vaults/RETHVault/RibbonThetaRETHVault.sol:RibbonThetaRETHVault",
        "label": "_totalSupply",
        "offset": 0,
        "slot": "153",
        "type": "t_uint256"
      },
      {
        "astId": 303,
        "contract": "contracts/vaults/RETHVault/RibbonThetaRETHVault.sol:RibbonThetaRETHVault",
        "label": "_name",
        "offset": 0,
        "slot": "154",
        "type": "t_string_storage"
      },
      {
        "astId": 305,
        "contract": "contracts/vaults/RETHVault/RibbonThetaRETHVault.sol:RibbonThetaRETHVault",
        "label": "_symbol",
        "offset": 0,
        "slot": "155",
        "type": "t_string_storage"
      },
      {
        "astId": 846,
        "contract": "contracts/vaults/RETHVault/RibbonThetaRETHVault.sol:RibbonThetaRETHVault",
        "label": "__gap",
        "offset": 0,
        "slot": "156",
        "type": "t_array(t_uint256)45_storage"
      },
      {
        "astId": 24598,
        "contract": "contracts/vaults/RETHVault/RibbonThetaRETHVault.sol:RibbonThetaRETHVault",
        "label": "depositReceipts",
        "offset": 0,
        "slot": "201",
        "type": "t_mapping(t_address,t_struct(DepositReceipt)6601_storage)"
      },
      {
        "astId": 24603,
        "contract": "contracts/vaults/RETHVault/RibbonThetaRETHVault.sol:RibbonThetaRETHVault",
        "label": "roundPricePerShare",
        "offset": 0,
        "slot": "202",
        "type": "t_mapping(t_uint256,t_uint256)"
      },
      {
        "astId": 24609,
        "contract": "contracts/vaults/RETHVault/RibbonThetaRETHVault.sol:RibbonThetaRETHVault",
        "label": "withdrawals",
        "offset": 0,
        "slot": "203",
        "type": "t_mapping(t_address,t_struct(Withdrawal)6606_storage)"
      },
      {
        "astId": 24613,
        "contract": "contracts/vaults/RETHVault/RibbonThetaRETHVault.sol:RibbonThetaRETHVault",
        "label": "vaultParams",
        "offset": 0,
        "slot": "204",
        "type": "t_struct(VaultParams)6576_storage"
      },
      {
        "astId": 24617,
        "contract": "contracts/vaults/RETHVault/RibbonThetaRETHVault.sol:RibbonThetaRETHVault",
        "label": "vaultState",
        "offset": 0,
        "slot": "207",
        "type": "t_struct(VaultState)6594_storage"
      },
      {
        "astId": 24621,
        "contract": "contracts/vaults/RETHVault/RibbonThetaRETHVault.sol:RibbonThetaRETHVault",
        "label": "optionState",
        "offset": 0,
        "slot": "209",
        "type": "t_struct(OptionState)6583_storage"
      },
      {
        "astId": 24624,
        "contract": "contracts/vaults/RETHVault/RibbonThetaRETHVault.sol:RibbonThetaRETHVault",
        "label": "feeRecipient",
        "offset": 0,
        "slot": "211",
        "type": "t_address"
      },
      {
        "astId": 24627,
        "contract": "contracts/vaults/RETHVault/RibbonThetaRETHVault.sol:RibbonThetaRETHVault",
        "label": "keeper",
        "offset": 0,
        "slot": "212",
        "type": "t_address"
      },
      {
        "astId": 24630,
        "contract": "contracts/vaults/RETHVault/RibbonThetaRETHVault.sol:RibbonThetaRETHVault",
        "label": "performanceFee",
        "offset": 0,
        "slot": "213",
        "type": "t_uint256"
      },
      {
        "astId": 24633,
        "contract": "contracts/vaults/RETHVault/RibbonThetaRETHVault.sol:RibbonThetaRETHVault",
        "label": "managementFee",
        "offset": 0,
        "slot": "214",
        "type": "t_uint256"
      },
      {
        "astId": 24636,
        "contract": "contracts/vaults/RETHVault/RibbonThetaRETHVault.sol:RibbonThetaRETHVault",
        "label": "lastrETHMintCutoff",
        "offset": 0,
        "slot": "215",
        "type": "t_uint256"
      },
      {
        "astId": 24640,
        "contract": "contracts/vaults/RETHVault/RibbonThetaRETHVault.sol:RibbonThetaRETHVault",
        "label": "____gap",
        "offset": 0,
        "slot": "216",
        "type": "t_array(t_uint256)30_storage"
      },
      {
        "astId": 14281,
        "contract": "contracts/vaults/RETHVault/RibbonThetaRETHVault.sol:RibbonThetaRETHVault",
        "label": "optionsPremiumPricer",
        "offset": 0,
        "slot": "246",
        "type": "t_address"
      },
      {
        "astId": 14283,
        "contract": "contracts/vaults/RETHVault/RibbonThetaRETHVault.sol:RibbonThetaRETHVault",
        "label": "strikeSelection",
        "offset": 0,
        "slot": "247",
        "type": "t_address"
      },
      {
        "astId": 14285,
        "contract": "contracts/vaults/RETHVault/RibbonThetaRETHVault.sol:RibbonThetaRETHVault",
        "label": "premiumDiscount",
        "offset": 0,
        "slot": "248",
        "type": "t_uint256"
      },
      {
        "astId": 14287,
        "contract": "contracts/vaults/RETHVault/RibbonThetaRETHVault.sol:RibbonThetaRETHVault",
        "label": "currentOtokenPremium",
        "offset": 0,
        "slot": "249",
        "type": "t_uint256"
      },
      {
        "astId": 14289,
        "contract": "contracts/vaults/RETHVault/RibbonThetaRETHVault.sol:RibbonThetaRETHVault",
        "label": "lastStrikeOverrideRound",
        "offset": 0,
        "slot": "250",
        "type": "t_uint16"
      },
      {
        "astId": 14291,
        "contract": "contracts/vaults/RETHVault/RibbonThetaRETHVault.sol:RibbonThetaRETHVault",
        "label": "overriddenStrikePrice",
        "offset": 0,
        "slot": "251",
        "type": "t_uint256"
      },
      {
        "astId": 14293,
        "contract": "contracts/vaults/RETHVault/RibbonThetaRETHVault.sol:RibbonThetaRETHVault",
        "label": "auctionDuration",
        "offset": 0,
        "slot": "252",
        "type": "t_uint256"
      },
      {
        "astId": 14295,
        "contract": "contracts/vaults/RETHVault/RibbonThetaRETHVault.sol:RibbonThetaRETHVault",
        "label": "optionAuctionID",
        "offset": 0,
        "slot": "253",
        "type": "t_uint256"
      },
      {
        "astId": 14298,
        "contract": "contracts/vaults/RETHVault/RibbonThetaRETHVault.sol:RibbonThetaRETHVault",
        "label": "lastQueuedWithdrawAmount",
        "offset": 0,
        "slot": "254",
        "type": "t_uint256"
      },
      {
        "astId": 14301,
        "contract": "contracts/vaults/RETHVault/RibbonThetaRETHVault.sol:RibbonThetaRETHVault",
        "label": "_isUsdcAuction",
        "offset": 0,
        "slot": "255",
        "type": "t_bool"
      },
      {
        "astId": 14303,
        "contract": "contracts/vaults/RETHVault/RibbonThetaRETHVault.sol:RibbonThetaRETHVault",
        "label": "_swapPath",
        "offset": 0,
        "slot": "256",
        "type": "t_bytes_storage"
      },
      {
        "astId": 14306,
        "contract": "contracts/vaults/RETHVault/RibbonThetaRETHVault.sol:RibbonThetaRETHVault",
        "label": "liquidityGauge",
        "offset": 0,
        "slot": "257",
        "type": "t_address"
      },
      {
        "astId": 14309,
        "contract": "contracts/vaults/RETHVault/RibbonThetaRETHVault.sol:RibbonThetaRETHVault",
        "label": "optionsPurchaseQueue",
        "offset": 0,
        "slot": "258",
        "type": "t_address"
      },
      {
        "astId": 14312,
        "contract": "contracts/vaults/RETHVault/RibbonThetaRETHVault.sol:RibbonThetaRETHVault",
        "label": "currentQueuedWithdrawShares",
        "offset": 0,
        "slot": "259",
        "type": "t_uint256"
      },
      {
        "astId": 14315,
        "contract": "contracts/vaults/RETHVault/RibbonThetaRETHVault.sol:RibbonThetaRETHVault",
        "label": "vaultPauser",
        "offset": 0,
        "slot": "260",
        "type": "t_address"
      },
      {
        "astId": 14318,
        "contract": "contracts/vaults/RETHVault/RibbonThetaRETHVault.sol:RibbonThetaRETHVault",
        "label": "_offerExecutor",
        "offset": 0,
        "slot": "261",
        "type": "t_address"
      }
    ],
    "types": {
      "t_address": {
        "encoding": "inplace",
        "label": "address",
        "numberOfBytes": "20"
      },
      "t_array(t_uint256)30_storage": {
        "base": "t_uint256",
        "encoding": "inplace",
        "label": "uint256[30]",
        "numberOfBytes": "960"
      },
      "t_array(t_uint256)45_storage": {
        "base": "t_uint256",
        "encoding": "inplace",
        "label": "uint256[45]",
        "numberOfBytes": "1440"
      },
      "t_array(t_uint256)49_storage": {
        "base": "t_uint256",
        "encoding": "inplace",
        "label": "uint256[49]",
        "numberOfBytes": "1568"
      },
      "t_array(t_uint256)50_storage": {
        "base": "t_uint256",
        "encoding": "inplace",
        "label": "uint256[50]",
        "numberOfBytes": "1600"
      },
      "t_bool": {
        "encoding": "inplace",
        "label": "bool",
        "numberOfBytes": "1"
      },
      "t_bytes_storage": {
        "encoding": "bytes",
        "label": "bytes",
        "numberOfBytes": "32"
      },
      "t_mapping(t_address,t_mapping(t_address,t_uint256))": {
        "encoding": "mapping",
        "key": "t_address",
        "label": "mapping(address => mapping(address => uint256))",
        "numberOfBytes": "32",
        "value": "t_mapping(t_address,t_uint256)"
      },
      "t_mapping(t_address,t_struct(DepositReceipt)6601_storage)": {
        "encoding": "mapping",
        "key": "t_address",
        "label": "mapping(address => struct Vault.DepositReceipt)",
        "numberOfBytes": "32",
        "value": "t_struct(DepositReceipt)6601_storage"
      },
      "t_mapping(t_address,t_struct(Withdrawal)6606_storage)": {
        "encoding": "mapping",
        "key": "t_address",
        "label": "mapping(address => struct Vault.Withdrawal)",
        "numberOfBytes": "32",
        "value": "t_struct(Withdrawal)6606_storage"
      },
      "t_mapping(t_address,t_uint256)": {
        "encoding": "mapping",
        "key": "t_address",
        "label": "mapping(address => uint256)",
        "numberOfBytes": "32",
        "value": "t_uint256"
      },
      "t_mapping(t_uint256,t_uint256)": {
        "encoding": "mapping",
        "key": "t_uint256",
        "label": "mapping(uint256 => uint256)",
        "numberOfBytes": "32",
        "value": "t_uint256"
      },
      "t_string_storage": {
        "encoding": "bytes",
        "label": "string",
        "numberOfBytes": "32"
      },
      "t_struct(DepositReceipt)6601_storage": {
        "encoding": "inplace",
        "label": "struct Vault.DepositReceipt",
        "members": [
          {
            "astId": 6596,
            "contract": "contracts/vaults/RETHVault/RibbonThetaRETHVault.sol:RibbonThetaRETHVault",
            "label": "round",
            "offset": 0,
            "slot": "0",
            "type": "t_uint16"
          },
          {
            "astId": 6598,
            "contract": "contracts/vaults/RETHVault/RibbonThetaRETHVault.sol:RibbonThetaRETHVault",
            "label": "amount",
            "offset": 2,
            "slot": "0",
            "type": "t_uint104"
          },
          {
            "astId": 6600,
            "contract": "contracts/vaults/RETHVault/RibbonThetaRETHVault.sol:RibbonThetaRETHVault",
            "label": "unredeemedShares",
            "offset": 15,
            "slot": "0",
            "type": "t_uint128"
          }
        ],
        "numberOfBytes": "32"
      },
      "t_struct(OptionState)6583_storage": {
        "encoding": "inplace",
        "label": "struct Vault.OptionState",
        "members": [
          {
            "astId": 6578,
            "contract": "contracts/vaults/RETHVault/RibbonThetaRETHVault.sol:RibbonThetaRETHVault",
            "label": "nextOption",
            "offset": 0,
            "slot": "0",
            "type": "t_address"
          },
          {
            "astId": 6580,
            "contract": "contracts/vaults/RETHVault/RibbonThetaRETHVault.sol:RibbonThetaRETHVault",
            "label": "currentOption",
            "offset": 0,
            "slot": "1",
            "type": "t_address"
          },
          {
            "astId": 6582,
            "contract": "contracts/vaults/RETHVault/RibbonThetaRETHVault.sol:RibbonThetaRETHVault",
            "label": "nextOptionReadyAt",
            "offset": 20,
            "slot": "1",
            "type": "t_uint32"
          }
        ],
        "numberOfBytes": "64"
      },
      "t_struct(VaultParams)6576_storage": {
        "encoding": "inplace",
        "label": "struct Vault.VaultParams",
        "members": [
          {
            "astId": 6565,
            "contract": "contracts/vaults/RETHVault/RibbonThetaRETHVault.sol:RibbonThetaRETHVault",
            "label": "isPut",
            "offset": 0,
            "slot": "0",
            "type": "t_bool"
          },
          {
            "astId": 6567,
            "contract": "contracts/vaults/RETHVault/RibbonThetaRETHVault.sol:RibbonThetaRETHVault",
            "label": "decimals",
            "offset": 1,
            "slot": "0",
            "type": "t_uint8"
          },
          {
            "astId": 6569,
            "contract": "contracts/vaults/RETHVault/RibbonThetaRETHVault.sol:RibbonThetaRETHVault",
            "label": "asset",
            "offset": 2,
            "slot": "0",
            "type": "t_address"
          },
          {
            "astId": 6571,
            "contract": "contracts/vaults/RETHVault/RibbonThetaRETHVault.sol:RibbonThetaRETHVault",
            "label": "underlying",
            "offset": 0,
            "slot": "1",
            "type": "t_address"
          },
          {
            "astId": 6573,
            "contract": "contracts/vaults/RETHVault/RibbonThetaRETHVault.sol:RibbonThetaRETHVault",
            "label": "minimumSupply",
            "offset": 20,
            "slot": "1",
            "type": "t_uint56"
          },
          {
            "astId": 6575,
            "contract": "contracts/vaults/RETHVault/RibbonThetaRETHVault.sol:RibbonThetaRETHVault",
            "label": "cap",
            "offset": 0,
            "slot": "2",
            "type": "t_uint104"
          }
        ],
        "numberOfBytes": "96"
      },
      "t_struct(VaultState)6594_storage": {
        "encoding": "inplace",
        "label": "struct Vault.VaultState",
        "members": [
          {
            "astId": 6585,
            "contract": "contracts/vaults/RETHVault/RibbonThetaRETHVault.sol:RibbonThetaRETHVault",
            "label": "round",
            "offset": 0,
            "slot": "0",
            "type": "t_uint16"
          },
          {
            "astId": 6587,
            "contract": "contracts/vaults/RETHVault/RibbonThetaRETHVault.sol:RibbonThetaRETHVault",
            "label": "lockedAmount",
            "offset": 2,
            "slot": "0",
            "type": "t_uint104"
          },
          {
            "astId": 6589,
            "contract": "contracts/vaults/RETHVault/RibbonThetaRETHVault.sol:RibbonThetaRETHVault",
            "label": "lastLockedAmount",
            "offset": 15,
            "slot": "0",
            "type": "t_uint104"
          },
          {
            "astId": 6591,
            "contract": "contracts/vaults/RETHVault/RibbonThetaRETHVault.sol:RibbonThetaRETHVault",
            "label": "totalPending",
            "offset": 0,
            "slot": "1",
            "type": "t_uint128"
          },
          {
            "astId": 6593,
            "contract": "contracts/vaults/RETHVault/RibbonThetaRETHVault.sol:RibbonThetaRETHVault",
            "label": "queuedWithdrawShares",
            "offset": 16,
            "slot": "1",
            "type": "t_uint128"
          }
        ],
        "numberOfBytes": "64"
      },
      "t_struct(Withdrawal)6606_storage": {
        "encoding": "inplace",
        "label": "struct Vault.Withdrawal",
        "members": [
          {
            "astId": 6603,
            "contract": "contracts/vaults/RETHVault/RibbonThetaRETHVault.sol:RibbonThetaRETHVault",
            "label": "round",
            "offset": 0,
            "slot": "0",
            "type": "t_uint16"
          },
          {
            "astId": 6605,
            "contract": "contracts/vaults/RETHVault/RibbonThetaRETHVault.sol:RibbonThetaRETHVault",
            "label": "shares",
            "offset": 2,
            "slot": "0",
            "type": "t_uint128"
          }
        ],
        "numberOfBytes": "32"
      },
      "t_uint104": {
        "encoding": "inplace",
        "label": "uint104",
        "numberOfBytes": "13"
      },
      "t_uint128": {
        "encoding": "inplace",
        "label": "uint128",
        "numberOfBytes": "16"
      },
      "t_uint16": {
        "encoding": "inplace",
        "label": "uint16",
        "numberOfBytes": "2"
      },
      "t_uint256": {
        "encoding": "inplace",
        "label": "uint256",
        "numberOfBytes": "32"
      },
      "t_uint32": {
        "encoding": "inplace",
        "label": "uint32",
        "numberOfBytes": "4"
      },
      "t_uint56": {
        "encoding": "inplace",
        "label": "uint56",
        "numberOfBytes": "7"
      },
      "t_uint8": {
        "encoding": "inplace",
        "label": "uint8",
        "numberOfBytes": "1"
      }
    }
  }
}