{
  "address": "0x9490CCf93Cd750dc47f72402A163022cfB94CFC9",
  "abi": [
    {
      "inputs": [
        {
          "internalType": "address",
          "name": "_usdc",
          "type": "address"
        },
        {
          "internalType": "address",
          "name": "_oTokenFactory",
          "type": "address"
        },
        {
          "internalType": "address",
          "name": "_gammaController",
          "type": "address"
        },
        {
          "internalType": "address",
          "name": "_marginPool",
          "type": "address"
        }
      ],
      "stateMutability": "nonpayable",
      "type": "constructor"
    },
    {
      "anonymous": false,
      "inputs": [
        {
          "indexed": true,
          "internalType": "address",
          "name": "owner",
          "type": "address"
        },
        {
          "indexed": true,
          "internalType": "address",
          "name": "spender",
          "type": "address"
        },
        {
          "indexed": false,
          "internalType": "uint256",
          "name": "value",
          "type": "uint256"
        }
      ],
      "name": "Approval",
      "type": "event"
    },
    {
      "anonymous": false,
      "inputs": [
        {
          "indexed": false,
          "internalType": "uint256",
          "name": "oldCap",
          "type": "uint256"
        },
        {
          "indexed": false,
          "internalType": "uint256",
          "name": "newCap",
          "type": "uint256"
        }
      ],
      "name": "CapSet",
      "type": "event"
    },
    {
      "anonymous": false,
      "inputs": [
        {
          "indexed": true,
          "internalType": "address",
          "name": "options",
          "type": "address"
        },
        {
          "indexed": false,
          "internalType": "uint256",
          "name": "withdrawAmount",
          "type": "uint256"
        },
        {
          "indexed": true,
          "internalType": "address",
          "name": "manager",
          "type": "address"
        }
      ],
      "name": "CloseShort",
      "type": "event"
    },
    {
      "anonymous": false,
      "inputs": [
        {
          "indexed": false,
          "internalType": "uint256",
          "name": "managementFee",
          "type": "uint256"
        },
        {
          "indexed": false,
          "internalType": "uint256",
          "name": "round",
          "type": "uint256"
        },
        {
          "indexed": true,
          "internalType": "address",
          "name": "feeRecipient",
          "type": "address"
        }
      ],
      "name": "CollectManagementFee",
      "type": "event"
    },
    {
      "anonymous": false,
      "inputs": [
        {
          "indexed": false,
          "internalType": "enum AutocallVaultStorageV1.CouponType",
          "name": "couponType",
          "type": "uint8"
        },
        {
          "indexed": false,
          "internalType": "uint256",
          "name": "newAutocallBarrierPCT",
          "type": "uint256"
        },
        {
          "indexed": false,
          "internalType": "uint256",
          "name": "newCouponBarrierPCT",
          "type": "uint256"
        }
      ],
      "name": "CouponStateSet",
      "type": "event"
    },
    {
      "anonymous": false,
      "inputs": [
        {
          "indexed": true,
          "internalType": "address",
          "name": "account",
          "type": "address"
        },
        {
          "indexed": false,
          "internalType": "uint256",
          "name": "amount",
          "type": "uint256"
        },
        {
          "indexed": false,
          "internalType": "uint256",
          "name": "round",
          "type": "uint256"
        }
      ],
      "name": "Deposit",
      "type": "event"
    },
    {
      "anonymous": false,
      "inputs": [
        {
          "indexed": true,
          "internalType": "address",
          "name": "account",
          "type": "address"
        },
        {
          "indexed": false,
          "internalType": "uint256",
          "name": "shares",
          "type": "uint256"
        },
        {
          "indexed": false,
          "internalType": "uint256",
          "name": "round",
          "type": "uint256"
        }
      ],
      "name": "InitiateWithdraw",
      "type": "event"
    },
    {
      "anonymous": false,
      "inputs": [
        {
          "indexed": true,
          "internalType": "address",
          "name": "account",
          "type": "address"
        },
        {
          "indexed": false,
          "internalType": "uint256",
          "name": "amount",
          "type": "uint256"
        },
        {
          "indexed": false,
          "internalType": "uint256",
          "name": "round",
          "type": "uint256"
        }
      ],
      "name": "InstantWithdraw",
      "type": "event"
    },
    {
      "anonymous": false,
      "inputs": [
        {
          "indexed": false,
          "internalType": "uint256",
          "name": "managementFee",
          "type": "uint256"
        },
        {
          "indexed": false,
          "internalType": "uint256",
          "name": "newManagementFee",
          "type": "uint256"
        }
      ],
      "name": "ManagementFeeSet",
      "type": "event"
    },
    {
      "anonymous": false,
      "inputs": [
        {
          "indexed": false,
          "internalType": "uint256",
          "name": "strikePrice",
          "type": "uint256"
        },
        {
          "indexed": false,
          "internalType": "uint256",
          "name": "delta",
          "type": "uint256"
        }
      ],
      "name": "NewOptionStrikeSelected",
      "type": "event"
    },
    {
      "anonymous": false,
      "inputs": [
        {
          "indexed": true,
          "internalType": "address",
          "name": "options",
          "type": "address"
        },
        {
          "indexed": false,
          "internalType": "uint256",
          "name": "depositAmount",
          "type": "uint256"
        },
        {
          "indexed": true,
          "internalType": "address",
          "name": "manager",
          "type": "address"
        }
      ],
      "name": "OpenShort",
      "type": "event"
    },
    {
      "anonymous": false,
      "inputs": [
        {
          "indexed": false,
          "internalType": "enum AutocallVaultStorageV1.OptionType",
          "name": "optionType",
          "type": "uint8"
        }
      ],
      "name": "OptionTypeSet",
      "type": "event"
    },
    {
      "anonymous": false,
      "inputs": [
        {
          "indexed": true,
          "internalType": "address",
          "name": "previousOwner",
          "type": "address"
        },
        {
          "indexed": true,
          "internalType": "address",
          "name": "newOwner",
          "type": "address"
        }
      ],
      "name": "OwnershipTransferred",
      "type": "event"
    },
    {
      "anonymous": false,
      "inputs": [
        {
          "indexed": false,
          "internalType": "uint256",
          "name": "performanceFee",
          "type": "uint256"
        },
        {
          "indexed": false,
          "internalType": "uint256",
          "name": "newPerformanceFee",
          "type": "uint256"
        }
      ],
      "name": "PerformanceFeeSet",
      "type": "event"
    },
    {
      "anonymous": false,
      "inputs": [
        {
          "indexed": false,
          "internalType": "uint256",
          "name": "obsFreq",
          "type": "uint256"
        },
        {
          "indexed": false,
          "internalType": "uint256",
          "name": "newObservationPeriodFreq",
          "type": "uint256"
        },
        {
          "indexed": false,
          "internalType": "uint256",
          "name": "period",
          "type": "uint256"
        },
        {
          "indexed": false,
          "internalType": "uint256",
          "name": "newPeriod",
          "type": "uint256"
        }
      ],
      "name": "PeriodAndObsFreqSet",
      "type": "event"
    },
    {
      "anonymous": false,
      "inputs": [
        {
          "indexed": true,
          "internalType": "address",
          "name": "account",
          "type": "address"
        },
        {
          "indexed": false,
          "internalType": "uint256",
          "name": "share",
          "type": "uint256"
        },
        {
          "indexed": false,
          "internalType": "uint256",
          "name": "round",
          "type": "uint256"
        }
      ],
      "name": "Redeem",
      "type": "event"
    },
    {
      "anonymous": false,
      "inputs": [
        {
          "indexed": true,
          "internalType": "address",
          "name": "from",
          "type": "address"
        },
        {
          "indexed": true,
          "internalType": "address",
          "name": "to",
          "type": "address"
        },
        {
          "indexed": false,
          "internalType": "uint256",
          "name": "value",
          "type": "uint256"
        }
      ],
      "name": "Transfer",
      "type": "event"
    },
    {
      "anonymous": false,
      "inputs": [
        {
          "indexed": true,
          "internalType": "address",
          "name": "account",
          "type": "address"
        },
        {
          "indexed": false,
          "internalType": "uint256",
          "name": "amount",
          "type": "uint256"
        },
        {
          "indexed": false,
          "internalType": "uint256",
          "name": "shares",
          "type": "uint256"
        }
      ],
      "name": "Withdraw",
      "type": "event"
    },
    {
      "inputs": [],
      "name": "DELAY",
      "outputs": [
        {
          "internalType": "uint256",
          "name": "",
          "type": "uint256"
        }
      ],
      "stateMutability": "view",
      "type": "function"
    },
    {
      "inputs": [],
      "name": "GAMMA_CONTROLLER",
      "outputs": [
        {
          "internalType": "address",
          "name": "",
          "type": "address"
        }
      ],
      "stateMutability": "view",
      "type": "function"
    },
    {
      "inputs": [],
      "name": "MARGIN_POOL",
      "outputs": [
        {
          "internalType": "address",
          "name": "",
          "type": "address"
        }
      ],
      "stateMutability": "view",
      "type": "function"
    },
    {
      "inputs": [],
      "name": "ORACLE",
      "outputs": [
        {
          "internalType": "contract IOracle",
          "name": "",
          "type": "address"
        }
      ],
      "stateMutability": "view",
      "type": "function"
    },
    {
      "inputs": [],
      "name": "OTOKEN_FACTORY",
      "outputs": [
        {
          "internalType": "address",
          "name": "",
          "type": "address"
        }
      ],
      "stateMutability": "view",
      "type": "function"
    },
    {
      "inputs": [],
      "name": "USDC",
      "outputs": [
        {
          "internalType": "address",
          "name": "",
          "type": "address"
        }
      ],
      "stateMutability": "view",
      "type": "function"
    },
    {
      "inputs": [
        {
          "internalType": "address",
          "name": "account",
          "type": "address"
        }
      ],
      "name": "accountVaultBalance",
      "outputs": [
        {
          "internalType": "uint256",
          "name": "",
          "type": "uint256"
        }
      ],
      "stateMutability": "view",
      "type": "function"
    },
    {
      "inputs": [
        {
          "internalType": "address",
          "name": "owner",
          "type": "address"
        },
        {
          "internalType": "address",
          "name": "spender",
          "type": "address"
        }
      ],
      "name": "allowance",
      "outputs": [
        {
          "internalType": "uint256",
          "name": "",
          "type": "uint256"
        }
      ],
      "stateMutability": "view",
      "type": "function"
    },
    {
      "inputs": [
        {
          "internalType": "address",
          "name": "spender",
          "type": "address"
        },
        {
          "internalType": "uint256",
          "name": "amount",
          "type": "uint256"
        }
      ],
      "name": "approve",
      "outputs": [
        {
          "internalType": "bool",
          "name": "",
          "type": "bool"
        }
      ],
      "stateMutability": "nonpayable",
      "type": "function"
    },
    {
      "inputs": [],
      "name": "autocallSeller",
      "outputs": [
        {
          "internalType": "address",
          "name": "",
          "type": "address"
        }
      ],
      "stateMutability": "view",
      "type": "function"
    },
    {
      "inputs": [
        {
          "internalType": "address",
          "name": "account",
          "type": "address"
        }
      ],
      "name": "balanceOf",
      "outputs": [
        {
          "internalType": "uint256",
          "name": "",
          "type": "uint256"
        }
      ],
      "stateMutability": "view",
      "type": "function"
    },
    {
      "inputs": [],
      "name": "burnRemainingOTokens",
      "outputs": [],
      "stateMutability": "nonpayable",
      "type": "function"
    },
    {
      "inputs": [],
      "name": "cap",
      "outputs": [
        {
          "internalType": "uint256",
          "name": "",
          "type": "uint256"
        }
      ],
      "stateMutability": "view",
      "type": "function"
    },
    {
      "inputs": [],
      "name": "commitAndClose",
      "outputs": [],
      "stateMutability": "nonpayable",
      "type": "function"
    },
    {
      "inputs": [],
      "name": "completeWithdraw",
      "outputs": [],
      "stateMutability": "nonpayable",
      "type": "function"
    },
    {
      "inputs": [],
      "name": "couponState",
      "outputs": [
        {
          "internalType": "enum AutocallVaultStorageV1.CouponType",
          "name": "couponType",
          "type": "uint8"
        },
        {
          "internalType": "enum AutocallVaultStorageV1.CouponType",
          "name": "nCouponType",
          "type": "uint8"
        },
        {
          "internalType": "uint256",
          "name": "AB",
          "type": "uint256"
        },
        {
          "internalType": "uint256",
          "name": "nAB",
          "type": "uint256"
        },
        {
          "internalType": "uint256",
          "name": "CB",
          "type": "uint256"
        },
        {
          "internalType": "uint256",
          "name": "nCB",
          "type": "uint256"
        }
      ],
      "stateMutability": "view",
      "type": "function"
    },
    {
      "inputs": [],
      "name": "couponsEarned",
      "outputs": [
        {
          "internalType": "uint256",
          "name": "",
          "type": "uint256"
        },
        {
          "internalType": "uint256",
          "name": "",
          "type": "uint256"
        },
        {
          "internalType": "uint256",
          "name": "",
          "type": "uint256"
        }
      ],
      "stateMutability": "view",
      "type": "function"
    },
    {
      "inputs": [],
      "name": "currentOption",
      "outputs": [
        {
          "internalType": "address",
          "name": "",
          "type": "address"
        }
      ],
      "stateMutability": "view",
      "type": "function"
    },
    {
      "inputs": [],
      "name": "decimals",
      "outputs": [
        {
          "internalType": "uint8",
          "name": "",
          "type": "uint8"
        }
      ],
      "stateMutability": "view",
      "type": "function"
    },
    {
      "inputs": [
        {
          "internalType": "address",
          "name": "spender",
          "type": "address"
        },
        {
          "internalType": "uint256",
          "name": "subtractedValue",
          "type": "uint256"
        }
      ],
      "name": "decreaseAllowance",
      "outputs": [
        {
          "internalType": "bool",
          "name": "",
          "type": "bool"
        }
      ],
      "stateMutability": "nonpayable",
      "type": "function"
    },
    {
      "inputs": [
        {
          "internalType": "uint256",
          "name": "amount",
          "type": "uint256"
        }
      ],
      "name": "deposit",
      "outputs": [],
      "stateMutability": "nonpayable",
      "type": "function"
    },
    {
      "inputs": [
        {
          "internalType": "address",
          "name": "",
          "type": "address"
        }
      ],
      "name": "depositReceipts",
      "outputs": [
        {
          "internalType": "uint16",
          "name": "round",
          "type": "uint16"
        },
        {
          "internalType": "uint104",
          "name": "amount",
          "type": "uint104"
        },
        {
          "internalType": "uint128",
          "name": "unredeemedShares",
          "type": "uint128"
        }
      ],
      "stateMutability": "view",
      "type": "function"
    },
    {
      "inputs": [],
      "name": "feeRecipient",
      "outputs": [
        {
          "internalType": "address",
          "name": "",
          "type": "address"
        }
      ],
      "stateMutability": "view",
      "type": "function"
    },
    {
      "inputs": [
        {
          "internalType": "address",
          "name": "spender",
          "type": "address"
        },
        {
          "internalType": "uint256",
          "name": "addedValue",
          "type": "uint256"
        }
      ],
      "name": "increaseAllowance",
      "outputs": [
        {
          "internalType": "bool",
          "name": "",
          "type": "bool"
        }
      ],
      "stateMutability": "nonpayable",
      "type": "function"
    },
    {
      "inputs": [],
      "name": "initialSpotPrice",
      "outputs": [
        {
          "internalType": "uint256",
          "name": "",
          "type": "uint256"
        }
      ],
      "stateMutability": "view",
      "type": "function"
    },
    {
      "inputs": [
        {
          "components": [
            {
              "internalType": "address",
              "name": "_owner",
              "type": "address"
            },
            {
              "internalType": "address",
              "name": "_keeper",
              "type": "address"
            },
            {
              "internalType": "address",
              "name": "_feeRecipient",
              "type": "address"
            },
            {
              "internalType": "uint256",
              "name": "_managementFee",
              "type": "uint256"
            },
            {
              "internalType": "uint256",
              "name": "_performanceFee",
              "type": "uint256"
            },
            {
              "internalType": "string",
              "name": "_tokenName",
              "type": "string"
            },
            {
              "internalType": "string",
              "name": "_tokenSymbol",
              "type": "string"
            },
            {
              "internalType": "address",
              "name": "_optionsPremiumPricer",
              "type": "address"
            },
            {
              "internalType": "address",
              "name": "_strikeSelection",
              "type": "address"
            },
            {
              "internalType": "uint32",
              "name": "_premiumDiscount",
              "type": "uint32"
            },
            {
              "internalType": "uint256",
              "name": "_auctionDuration",
              "type": "uint256"
            },
            {
              "internalType": "uint256",
              "name": "_period",
              "type": "uint256"
            },
            {
              "internalType": "uint256",
              "name": "_maxDepositors",
              "type": "uint256"
            },
            {
              "internalType": "uint256",
              "name": "_minDeposit",
              "type": "uint256"
            }
          ],
          "internalType": "struct VaultLifecycleTreasury.InitParams",
          "name": "_initParams",
          "type": "tuple"
        },
        {
          "components": [
            {
              "internalType": "bool",
              "name": "isPut",
              "type": "bool"
            },
            {
              "internalType": "uint8",
              "name": "decimals",
              "type": "uint8"
            },
            {
              "internalType": "address",
              "name": "asset",
              "type": "address"
            },
            {
              "internalType": "address",
              "name": "underlying",
              "type": "address"
            },
            {
              "internalType": "uint56",
              "name": "minimumSupply",
              "type": "uint56"
            },
            {
              "internalType": "uint104",
              "name": "cap",
              "type": "uint104"
            }
          ],
          "internalType": "struct Vault.VaultParams",
          "name": "_vaultParams",
          "type": "tuple"
        },
        {
          "internalType": "enum AutocallVaultStorageV1.OptionType",
          "name": "_optionType",
          "type": "uint8"
        },
        {
          "components": [
            {
              "internalType": "enum AutocallVaultStorageV1.CouponType",
              "name": "couponType",
              "type": "uint8"
            },
            {
              "internalType": "enum AutocallVaultStorageV1.CouponType",
              "name": "nCouponType",
              "type": "uint8"
            },
            {
              "internalType": "uint256",
              "name": "AB",
              "type": "uint256"
            },
            {
              "internalType": "uint256",
              "name": "nAB",
              "type": "uint256"
            },
            {
              "internalType": "uint256",
              "name": "CB",
              "type": "uint256"
            },
            {
              "internalType": "uint256",
              "name": "nCB",
              "type": "uint256"
            }
          ],
          "internalType": "struct AutocallVaultStorageV1.CouponState",
          "name": "_couponState",
          "type": "tuple"
        },
        {
          "internalType": "uint256",
          "name": "_obsFreq",
          "type": "uint256"
        },
        {
          "internalType": "address",
          "name": "_autocallSeller",
          "type": "address"
        }
      ],
      "name": "initialize",
      "outputs": [],
      "stateMutability": "nonpayable",
      "type": "function"
    },
    {
      "inputs": [
        {
          "components": [
            {
              "internalType": "address",
              "name": "_owner",
              "type": "address"
            },
            {
              "internalType": "address",
              "name": "_keeper",
              "type": "address"
            },
            {
              "internalType": "address",
              "name": "_feeRecipient",
              "type": "address"
            },
            {
              "internalType": "uint256",
              "name": "_managementFee",
              "type": "uint256"
            },
            {
              "internalType": "uint256",
              "name": "_performanceFee",
              "type": "uint256"
            },
            {
              "internalType": "string",
              "name": "_tokenName",
              "type": "string"
            },
            {
              "internalType": "string",
              "name": "_tokenSymbol",
              "type": "string"
            },
            {
              "internalType": "address",
              "name": "_optionsPremiumPricer",
              "type": "address"
            },
            {
              "internalType": "address",
              "name": "_strikeSelection",
              "type": "address"
            },
            {
              "internalType": "uint32",
              "name": "_premiumDiscount",
              "type": "uint32"
            },
            {
              "internalType": "uint256",
              "name": "_auctionDuration",
              "type": "uint256"
            },
            {
              "internalType": "uint256",
              "name": "_period",
              "type": "uint256"
            },
            {
              "internalType": "uint256",
              "name": "_maxDepositors",
              "type": "uint256"
            },
            {
              "internalType": "uint256",
              "name": "_minDeposit",
              "type": "uint256"
            }
          ],
          "internalType": "struct VaultLifecycleTreasury.InitParams",
          "name": "_initParams",
          "type": "tuple"
        },
        {
          "components": [
            {
              "internalType": "bool",
              "name": "isPut",
              "type": "bool"
            },
            {
              "internalType": "uint8",
              "name": "decimals",
              "type": "uint8"
            },
            {
              "internalType": "address",
              "name": "asset",
              "type": "address"
            },
            {
              "internalType": "address",
              "name": "underlying",
              "type": "address"
            },
            {
              "internalType": "uint56",
              "name": "minimumSupply",
              "type": "uint56"
            },
            {
              "internalType": "uint104",
              "name": "cap",
              "type": "uint104"
            }
          ],
          "internalType": "struct Vault.VaultParams",
          "name": "_vaultParams",
          "type": "tuple"
        }
      ],
      "name": "initialize",
      "outputs": [],
      "stateMutability": "nonpayable",
      "type": "function"
    },
    {
      "inputs": [
        {
          "internalType": "uint256",
          "name": "numShares",
          "type": "uint256"
        }
      ],
      "name": "initiateWithdraw",
      "outputs": [],
      "stateMutability": "nonpayable",
      "type": "function"
    },
    {
      "inputs": [],
      "name": "keeper",
      "outputs": [
        {
          "internalType": "address",
          "name": "",
          "type": "address"
        }
      ],
      "stateMutability": "view",
      "type": "function"
    },
    {
      "inputs": [],
      "name": "lastObservation",
      "outputs": [
        {
          "internalType": "uint256",
          "name": "",
          "type": "uint256"
        },
        {
          "internalType": "uint256",
          "name": "",
          "type": "uint256"
        }
      ],
      "stateMutability": "view",
      "type": "function"
    },
    {
      "inputs": [],
      "name": "lastQueuedWithdrawAmount",
      "outputs": [
        {
          "internalType": "uint256",
          "name": "",
          "type": "uint256"
        }
      ],
      "stateMutability": "view",
      "type": "function"
    },
    {
      "inputs": [],
      "name": "lastStrikeOverrideRound",
      "outputs": [
        {
          "internalType": "uint16",
          "name": "",
          "type": "uint16"
        }
      ],
      "stateMutability": "view",
      "type": "function"
    },
    {
      "inputs": [],
      "name": "managementFee",
      "outputs": [
        {
          "internalType": "uint256",
          "name": "",
          "type": "uint256"
        }
      ],
      "stateMutability": "view",
      "type": "function"
    },
    {
      "inputs": [],
      "name": "maxRedeem",
      "outputs": [],
      "stateMutability": "nonpayable",
      "type": "function"
    },
    {
      "inputs": [],
      "name": "nAutocallSeller",
      "outputs": [
        {
          "internalType": "address",
          "name": "",
          "type": "address"
        }
      ],
      "stateMutability": "view",
      "type": "function"
    },
    {
      "inputs": [],
      "name": "name",
      "outputs": [
        {
          "internalType": "string",
          "name": "",
          "type": "string"
        }
      ],
      "stateMutability": "view",
      "type": "function"
    },
    {
      "inputs": [],
      "name": "nextOption",
      "outputs": [
        {
          "internalType": "address",
          "name": "",
          "type": "address"
        }
      ],
      "stateMutability": "view",
      "type": "function"
    },
    {
      "inputs": [],
      "name": "nextOptionReadyAt",
      "outputs": [
        {
          "internalType": "uint256",
          "name": "",
          "type": "uint256"
        }
      ],
      "stateMutability": "view",
      "type": "function"
    },
    {
      "inputs": [],
      "name": "numTotalObs",
      "outputs": [
        {
          "internalType": "uint256",
          "name": "",
          "type": "uint256"
        }
      ],
      "stateMutability": "view",
      "type": "function"
    },
    {
      "inputs": [],
      "name": "oTokenMintAmount",
      "outputs": [
        {
          "internalType": "uint256",
          "name": "",
          "type": "uint256"
        }
      ],
      "stateMutability": "view",
      "type": "function"
    },
    {
      "inputs": [],
      "name": "obsFreq",
      "outputs": [
        {
          "internalType": "uint256",
          "name": "",
          "type": "uint256"
        }
      ],
      "stateMutability": "view",
      "type": "function"
    },
    {
      "inputs": [],
      "name": "optionState",
      "outputs": [
        {
          "internalType": "address",
          "name": "nextOption",
          "type": "address"
        },
        {
          "internalType": "address",
          "name": "currentOption",
          "type": "address"
        },
        {
          "internalType": "uint32",
          "name": "nextOptionReadyAt",
          "type": "uint32"
        }
      ],
      "stateMutability": "view",
      "type": "function"
    },
    {
      "inputs": [],
      "name": "optionsPremiumPricer",
      "outputs": [
        {
          "internalType": "address",
          "name": "",
          "type": "address"
        }
      ],
      "stateMutability": "view",
      "type": "function"
    },
    {
      "inputs": [],
      "name": "overriddenStrikePrice",
      "outputs": [
        {
          "internalType": "uint256",
          "name": "",
          "type": "uint256"
        }
      ],
      "stateMutability": "view",
      "type": "function"
    },
    {
      "inputs": [],
      "name": "owner",
      "outputs": [
        {
          "internalType": "address",
          "name": "",
          "type": "address"
        }
      ],
      "stateMutability": "view",
      "type": "function"
    },
    {
      "inputs": [],
      "name": "performanceFee",
      "outputs": [
        {
          "internalType": "uint256",
          "name": "",
          "type": "uint256"
        }
      ],
      "stateMutability": "view",
      "type": "function"
    },
    {
      "inputs": [],
      "name": "period",
      "outputs": [
        {
          "internalType": "uint256",
          "name": "",
          "type": "uint256"
        }
      ],
      "stateMutability": "view",
      "type": "function"
    },
    {
      "inputs": [],
      "name": "premiumDiscount",
      "outputs": [
        {
          "internalType": "uint256",
          "name": "",
          "type": "uint256"
        }
      ],
      "stateMutability": "view",
      "type": "function"
    },
    {
      "inputs": [],
      "name": "pricePerShare",
      "outputs": [
        {
          "internalType": "uint256",
          "name": "",
          "type": "uint256"
        }
      ],
      "stateMutability": "view",
      "type": "function"
    },
    {
      "inputs": [],
      "name": "putOption",
      "outputs": [
        {
          "internalType": "enum AutocallVaultStorageV1.OptionType",
          "name": "optionType",
          "type": "uint8"
        },
        {
          "internalType": "enum AutocallVaultStorageV1.OptionType",
          "name": "nOptionType",
          "type": "uint8"
        },
        {
          "internalType": "uint256",
          "name": "payoff",
          "type": "uint256"
        }
      ],
      "stateMutability": "view",
      "type": "function"
    },
    {
      "inputs": [
        {
          "internalType": "uint256",
          "name": "numShares",
          "type": "uint256"
        }
      ],
      "name": "redeem",
      "outputs": [],
      "stateMutability": "nonpayable",
      "type": "function"
    },
    {
      "inputs": [],
      "name": "renounceOwnership",
      "outputs": [],
      "stateMutability": "nonpayable",
      "type": "function"
    },
    {
      "inputs": [],
      "name": "rollToNextOption",
      "outputs": [],
      "stateMutability": "nonpayable",
      "type": "function"
    },
    {
      "inputs": [
        {
          "internalType": "uint256",
          "name": "",
          "type": "uint256"
        }
      ],
      "name": "roundPricePerShare",
      "outputs": [
        {
          "internalType": "uint256",
          "name": "",
          "type": "uint256"
        }
      ],
      "stateMutability": "view",
      "type": "function"
    },
    {
      "inputs": [
        {
          "internalType": "address",
          "name": "_buyer",
          "type": "address"
        }
      ],
      "name": "sendOTokens",
      "outputs": [],
      "stateMutability": "nonpayable",
      "type": "function"
    },
    {
      "inputs": [
        {
          "internalType": "address",
          "name": "_autocallSeller",
          "type": "address"
        }
      ],
      "name": "setAutocallSeller",
      "outputs": [],
      "stateMutability": "nonpayable",
      "type": "function"
    },
    {
      "inputs": [
        {
          "internalType": "uint256",
          "name": "newCap",
          "type": "uint256"
        }
      ],
      "name": "setCap",
      "outputs": [],
      "stateMutability": "nonpayable",
      "type": "function"
    },
    {
      "inputs": [
        {
          "internalType": "enum AutocallVaultStorageV1.CouponType",
          "name": "_couponType",
          "type": "uint8"
        },
        {
          "internalType": "uint256",
          "name": "_AB",
          "type": "uint256"
        },
        {
          "internalType": "uint256",
          "name": "_CB",
          "type": "uint256"
        }
      ],
      "name": "setCouponState",
      "outputs": [],
      "stateMutability": "nonpayable",
      "type": "function"
    },
    {
      "inputs": [
        {
          "internalType": "address",
          "name": "newFeeRecipient",
          "type": "address"
        }
      ],
      "name": "setFeeRecipient",
      "outputs": [],
      "stateMutability": "nonpayable",
      "type": "function"
    },
    {
      "inputs": [
        {
          "internalType": "uint256",
          "name": "newManagementFee",
          "type": "uint256"
        }
      ],
      "name": "setManagementFee",
      "outputs": [],
      "stateMutability": "nonpayable",
      "type": "function"
    },
    {
      "inputs": [
        {
          "internalType": "address",
          "name": "newKeeper",
          "type": "address"
        }
      ],
      "name": "setNewKeeper",
      "outputs": [],
      "stateMutability": "nonpayable",
      "type": "function"
    },
    {
      "inputs": [
        {
          "internalType": "enum AutocallVaultStorageV1.OptionType",
          "name": "_optionType",
          "type": "uint8"
        }
      ],
      "name": "setOptionType",
      "outputs": [],
      "stateMutability": "nonpayable",
      "type": "function"
    },
    {
      "inputs": [
        {
          "internalType": "address",
          "name": "newOptionsPremiumPricer",
          "type": "address"
        }
      ],
      "name": "setOptionsPremiumPricer",
      "outputs": [],
      "stateMutability": "nonpayable",
      "type": "function"
    },
    {
      "inputs": [
        {
          "internalType": "uint256",
          "name": "newPerformanceFee",
          "type": "uint256"
        }
      ],
      "name": "setPerformanceFee",
      "outputs": [],
      "stateMutability": "nonpayable",
      "type": "function"
    },
    {
      "inputs": [
        {
          "internalType": "uint256",
          "name": "_period",
          "type": "uint256"
        },
        {
          "internalType": "uint256",
          "name": "_obsFreq",
          "type": "uint256"
        }
      ],
      "name": "setPeriodAndObservationFrequency",
      "outputs": [],
      "stateMutability": "nonpayable",
      "type": "function"
    },
    {
      "inputs": [
        {
          "internalType": "uint128",
          "name": "strikePrice",
          "type": "uint128"
        }
      ],
      "name": "setStrikePrice",
      "outputs": [],
      "stateMutability": "nonpayable",
      "type": "function"
    },
    {
      "inputs": [
        {
          "internalType": "address",
          "name": "newStrikeSelection",
          "type": "address"
        }
      ],
      "name": "setStrikeSelection",
      "outputs": [],
      "stateMutability": "nonpayable",
      "type": "function"
    },
    {
      "inputs": [
        {
          "internalType": "address",
          "name": "account",
          "type": "address"
        }
      ],
      "name": "shareBalances",
      "outputs": [
        {
          "internalType": "uint256",
          "name": "heldByAccount",
          "type": "uint256"
        },
        {
          "internalType": "uint256",
          "name": "heldByVault",
          "type": "uint256"
        }
      ],
      "stateMutability": "view",
      "type": "function"
    },
    {
      "inputs": [
        {
          "internalType": "address",
          "name": "account",
          "type": "address"
        }
      ],
      "name": "shares",
      "outputs": [
        {
          "internalType": "uint256",
          "name": "",
          "type": "uint256"
        }
      ],
      "stateMutability": "view",
      "type": "function"
    },
    {
      "inputs": [],
      "name": "strikeSelection",
      "outputs": [
        {
          "internalType": "address",
          "name": "",
          "type": "address"
        }
      ],
      "stateMutability": "view",
      "type": "function"
    },
    {
      "inputs": [],
      "name": "symbol",
      "outputs": [
        {
          "internalType": "string",
          "name": "",
          "type": "string"
        }
      ],
      "stateMutability": "view",
      "type": "function"
    },
    {
      "inputs": [],
      "name": "totalBalance",
      "outputs": [
        {
          "internalType": "uint256",
          "name": "",
          "type": "uint256"
        }
      ],
      "stateMutability": "view",
      "type": "function"
    },
    {
      "inputs": [],
      "name": "totalPending",
      "outputs": [
        {
          "internalType": "uint256",
          "name": "",
          "type": "uint256"
        }
      ],
      "stateMutability": "view",
      "type": "function"
    },
    {
      "inputs": [],
      "name": "totalSupply",
      "outputs": [
        {
          "internalType": "uint256",
          "name": "",
          "type": "uint256"
        }
      ],
      "stateMutability": "view",
      "type": "function"
    },
    {
      "inputs": [
        {
          "internalType": "address",
          "name": "recipient",
          "type": "address"
        },
        {
          "internalType": "uint256",
          "name": "amount",
          "type": "uint256"
        }
      ],
      "name": "transfer",
      "outputs": [
        {
          "internalType": "bool",
          "name": "",
          "type": "bool"
        }
      ],
      "stateMutability": "nonpayable",
      "type": "function"
    },
    {
      "inputs": [
        {
          "internalType": "address",
          "name": "sender",
          "type": "address"
        },
        {
          "internalType": "address",
          "name": "recipient",
          "type": "address"
        },
        {
          "internalType": "uint256",
          "name": "amount",
          "type": "uint256"
        }
      ],
      "name": "transferFrom",
      "outputs": [
        {
          "internalType": "bool",
          "name": "",
          "type": "bool"
        }
      ],
      "stateMutability": "nonpayable",
      "type": "function"
    },
    {
      "inputs": [
        {
          "internalType": "address",
          "name": "newOwner",
          "type": "address"
        }
      ],
      "name": "transferOwnership",
      "outputs": [],
      "stateMutability": "nonpayable",
      "type": "function"
    },
    {
      "inputs": [],
      "name": "vaultParams",
      "outputs": [
        {
          "internalType": "bool",
          "name": "isPut",
          "type": "bool"
        },
        {
          "internalType": "uint8",
          "name": "decimals",
          "type": "uint8"
        },
        {
          "internalType": "address",
          "name": "asset",
          "type": "address"
        },
        {
          "internalType": "address",
          "name": "underlying",
          "type": "address"
        },
        {
          "internalType": "uint56",
          "name": "minimumSupply",
          "type": "uint56"
        },
        {
          "internalType": "uint104",
          "name": "cap",
          "type": "uint104"
        }
      ],
      "stateMutability": "view",
      "type": "function"
    },
    {
      "inputs": [],
      "name": "vaultState",
      "outputs": [
        {
          "internalType": "uint16",
          "name": "round",
          "type": "uint16"
        },
        {
          "internalType": "uint104",
          "name": "lockedAmount",
          "type": "uint104"
        },
        {
          "internalType": "uint104",
          "name": "lastLockedAmount",
          "type": "uint104"
        },
        {
          "internalType": "uint128",
          "name": "totalPending",
          "type": "uint128"
        },
        {
          "internalType": "uint128",
          "name": "queuedWithdrawShares",
          "type": "uint128"
        }
      ],
      "stateMutability": "view",
      "type": "function"
    },
    {
      "inputs": [
        {
          "internalType": "uint256",
          "name": "amount",
          "type": "uint256"
        }
      ],
      "name": "withdrawInstantly",
      "outputs": [],
      "stateMutability": "nonpayable",
      "type": "function"
    },
    {
      "inputs": [
        {
          "internalType": "address",
          "name": "",
          "type": "address"
        }
      ],
      "name": "withdrawals",
      "outputs": [
        {
          "internalType": "uint16",
          "name": "round",
          "type": "uint16"
        },
        {
          "internalType": "uint128",
          "name": "shares",
          "type": "uint128"
        }
      ],
      "stateMutability": "view",
      "type": "function"
    }
  ],
  "transactionHash": "0x36116b941a98ce292eb06514645767476bbcae2fd66a5b4c8efbac628f3b62ba",
  "args": [
    "0xA0b86991c6218b36c1d19D4a2e9Eb0cE3606eB48",
    "0x7C06792Af1632E77cb27a558Dc0885338F4Bdf8E",
    "0x4ccc2339F87F6c59c6893E1A678c2266cA58dC72",
    "0x5934807cC0654d46755eBd2848840b616256C6Ef"
  ],
  "solcInputHash": "369f25cf8343ce6d11ae63bb5a83c4f4",
  "bytecode": "0x6101206040523480156200001257600080fd5b506040516200630638038062006306833981016040819052620000359162000234565b838383836001600160a01b0384166200007a5760405162461bcd60e51b8152602060048201526002602482015261543160f01b60448201526064015b60405180910390fd5b6001600160a01b038316620000b75760405162461bcd60e51b81526020600482015260026024820152612a1960f11b604482015260640162000071565b6001600160a01b038216620000f45760405162461bcd60e51b8152602060048201526002602482015261543360f01b604482015260640162000071565b6001600160a01b038116620001315760405162461bcd60e51b8152602060048201526002602482015261150d60f21b604482015260640162000071565b6001600160601b0319606094851b811660805292841b831660e05290831b821660a05290911b1660c052604080516307dc0d1d60e41b815290516001600160a01b03841691637dc0d1d0916004808301926020929190829003018186803b1580156200019c57600080fd5b505afa158015620001b1573d6000803e3d6000fd5b505050506040513d601f19601f82011682018060405250810190620001d7919062000210565b60601b6001600160601b03191661010052506200029092505050565b80516001600160a01b03811681146200020b57600080fd5b919050565b60006020828403121562000222578081fd5b6200022d82620001f3565b9392505050565b600080600080608085870312156200024a578283fd5b6200025585620001f3565b93506200026560208601620001f3565b92506200027560408601620001f3565b91506200028560608601620001f3565b905092959194509250565b60805160601c60a05160601c60c05160601c60e05160601c6101005160601c615fe362000323600039600081816106a00152818161358501528181614184015261433c015260008181610c050152613f080152600081816107ab0152611f9401526000818161053701528181611f6c0152818161315a0152614cc701526000818161094c0152613f2d0152615fe36000f3fe608060405234801561001057600080fd5b506004361061048b5760003560e01c80638778878211610262578063b28669a011610151578063dd62ed3e116100ce578063efc981ed11610092578063efc981ed14610c8d578063f2fde38b14610ca0578063f656ba5114610cb3578063f756fa2114610cc6578063f957a06714610cce578063fe56e23214610ce157600080fd5b8063dd62ed3e14610c27578063e73c63d514610c60578063e74b981b14610c69578063ea00b1ca14610c7c578063ef78d4fd14610c8457600080fd5b8063ce7c2ac211610115578063ce7c2ac214610bb4578063cea1c1f414610bc7578063d164cc1514610bda578063db006a7514610bed578063db43e86214610c0057600080fd5b8063b28669a014610b74578063b6b55f2514610b87578063b9f8092b14610b9a578063c2229e9514610ba2578063c59f564214610bab57600080fd5b8063a285c9e8116101df578063aced1661116101a3578063aced166114610b1a578063ad6cca6214610b2d578063ad7a672f14610b36578063afa6626414610b3e578063b1b76a1814610b5157600080fd5b8063a285c9e814610ac5578063a2db9d8314610ada578063a457c2d714610aeb578063a6f7f5d614610afe578063a9059cbb14610b0757600080fd5b80638da750cc116102265780638da750cc146109ad57806395d89b41146109c057806399530b06146109c85780639fcc2d75146109d0578063a083ff1714610a6f57600080fd5b8063877887821461093e57806389a30271146109475780638a7b8cf21461096e5780638b10cc7c1461098b5780638da5cb5b1461099c57600080fd5b80634610a0001161037e57806369b41170116102fb578063715018a6116102bf578063715018a6146108a35780637a9262a2146108ab5780637e108d521461090257806383536ff31461091557806387153eb11461091e57600080fd5b806369b41170146108445780636db2a59c1461084c5780636f31ab341461085f57806370897b231461086757806370a082311461087a57600080fd5b806355489bb21161034257806355489bb214610782578063600a2cfb1461079557806363f89ca51461079d578063650cce8a146107a65780636719b2ee146107cd57600080fd5b80634610a0001461072d578063469048401461074057806347786d37146107535780634af96d2914610766578063503c70aa1461077957600080fd5b80632859822e1161040c57806339509351116103d057806339509351146106c25780633ec143d3146106d55780633f23bb73146106f65780633f90916a146107095780634603c0aa1461071a57600080fd5b80632859822e1461064757806330630da41461065a578063313ce5671461066d578063355274ea1461068a57806338013f021461069b57600080fd5b80631a92f6c2116104535780631a92f6c2146105325780631c3f18161461057157806323b872dd1461059b5780632728f333146105ae5780632775d01c1461063457600080fd5b806306fdde0314610490578063095ea7b3146104ae57806310f08053146104d157806318059dc7146104e657806318160ddd14610520575b600080fd5b610498610cf4565b6040516104a59190615926565b60405180910390f35b6104c16104bc3660046154fa565b610d86565b60405190151581526020016104a5565b6104e46104df3660046155cb565b610d9d565b005b60e35460e45460e55460e65460e75461050e9460ff8082169561010090920416939092909186565b6040516104a596959493929190615892565b6099545b6040519081526020016104a5565b6105597f000000000000000000000000000000000000000000000000000000000000000081565b6040516001600160a01b0390911681526020016104a5565b60e15460e25461058c9160ff80821692610100909204169083565b6040516104a5939291906158fd565b6104c16105a93660046154ba565b610e3e565b60cc5460cd546105ef9161ffff8116916001600160681b03620100008304811692600160781b900416906001600160801b0380821691600160801b90041685565b6040805161ffff90961686526001600160681b03948516602087015293909216928401929092526001600160801b03918216606084015216608082015260a0016104a5565b6104e46106423660046156e9565b610eea565b6104e4610655366004615632565b611090565b6104e4610668366004615466565b611291565b60c954610100900460ff1660405160ff90911681526020016104a5565b60cb546001600160681b0316610524565b6105597f000000000000000000000000000000000000000000000000000000000000000081565b6104c16106d03660046154fa565b611319565b60dd546106e39061ffff1681565b60405161ffff90911681526020016104a5565b610524610704366004615466565b611355565b60cd546001600160801b0316610524565b6104e4610728366004615466565b6113a8565b6104e461073b366004615466565b611430565b60d354610559906001600160a01b031681565b6104e46107613660046156e9565b6114b7565b6104e46107743660046155e5565b61158e565b61052460db5481565b6104e46107903660046156c2565b611606565b6104e4611695565b61052460e85481565b6105597f000000000000000000000000000000000000000000000000000000000000000081565b6108136107db366004615466565b60d06020526000908152604090205461ffff8116906201000081046001600160681b031690600160781b90046001600160801b031683565b6040805161ffff90941684526001600160681b0390921660208401526001600160801b0316908201526060016104a5565b610524600081565b6104e461085a366004615599565b61170a565b6104e46117be565b6104e46108753660046156e9565b6117f5565b610524610888366004615466565b6001600160a01b031660009081526097602052604090205490565b6104e46118a2565b6108e06108b9366004615466565b60d26020526000908152604090205461ffff8116906201000090046001600160801b031682565b6040805161ffff90931683526001600160801b039091166020830152016104a5565b6104e46109103660046156e9565b6118d8565b61052460d95481565b61052461092c3660046156e9565b60d16020526000908152604090205481565b61052460d75481565b6105597f000000000000000000000000000000000000000000000000000000000000000081565b610976611af2565b604080519283526020830191909152016104a5565b60cf546001600160a01b0316610559565b6065546001600160a01b0316610559565b60ec54610559906001600160a01b031681565b610498611b8e565b610524611b9d565b60c95460ca5460cb54610a1f9260ff808216936101008304909116926001600160a01b036201000090930483169282169166ffffffffffffff600160a01b90910416906001600160681b031686565b60408051961515875260ff90951660208701526001600160a01b03938416948601949094529116606084015266ffffffffffffff1660808301526001600160681b031660a082015260c0016104a5565b60ce5460cf54610a99916001600160a01b039081169190811690600160a01b900463ffffffff1683565b604080516001600160a01b03948516815293909216602084015263ffffffff16908201526060016104a5565b60cf54600160a01b900463ffffffff16610524565b60ce546001600160a01b0316610559565b6104c1610af93660046154fa565b611bd7565b61052460d85481565b6104c1610b153660046154fa565b611c70565b60d454610559906001600160a01b031681565b61052460ea5481565b610524611c7d565b60d554610559906001600160a01b031681565b610b59611d1b565b604080519384526020840192909252908201526060016104a5565b60ed54610559906001600160a01b031681565b6104e4610b953660046156e9565b611dda565b6104e4611e64565b61052460e05481565b61052460de5481565b610524610bc2366004615466565b612043565b6104e4610bd5366004615719565b612060565b6104e4610be8366004615466565b612168565b6104e4610bfb3660046156e9565b6121ef565b6105597f000000000000000000000000000000000000000000000000000000000000000081565b610524610c35366004615482565b6001600160a01b03918216600090815260986020908152604080832093909416825291909152205490565b61052460da5481565b6104e4610c77366004615466565b612255565b6104e461231f565b61052460dc5481565b6104e4610c9b366004615466565b6126bd565b6104e4610cae366004615466565b6127e7565b610976610cc1366004615466565b612882565b6104e4612965565b60d654610559906001600160a01b031681565b6104e4610cef3660046156e9565b6129ba565b6060609a8054610d0390615d8e565b80601f0160208091040260200160405190810160405280929190818152602001828054610d2f90615d8e565b8015610d7c5780601f10610d5157610100808354040283529160200191610d7c565b820191906000526020600020905b815481529060010190602001808311610d5f57829003601f168201915b5050505050905090565b6000610d93338484612a69565b5060015b92915050565b6065546001600160a01b03163314610dd05760405162461bcd60e51b8152600401610dc7906159a7565b60405180910390fd5b60e1805482919061ff001916610100836002811115610dff57634e487b7160e01b600052602160045260246000fd5b02179055507fd69725c68eba29b963f6ffc152d94583306dcba6646ea6883b459a80244a14a281604051610e3391906158ef565b60405180910390a150565b6000610e4b848484612b8e565b6001600160a01b038416600090815260986020908152604080832033845290915290205482811015610ed05760405162461bcd60e51b815260206004820152602860248201527f45524332303a207472616e7366657220616d6f756e74206578636565647320616044820152676c6c6f77616e636560c01b6064820152608401610dc7565b610edd8533858403612a69565b60019150505b9392505050565b60026001541415610f0d5760405162461bcd60e51b8152600401610dc7906159dc565b600260015533600090815260d06020526040902060cc5461ffff1682610f5b5760405162461bcd60e51b815260206004820152600360248201526254313560e81b6044820152606401610dc7565b815461ffff168114610f955760405162461bcd60e51b8152602060048201526003602482015262150c8d60ea1b6044820152606401610dc7565b81546201000090046001600160681b031683811015610fdc5760405162461bcd60e51b815260206004820152600360248201526254323560e81b6044820152606401610dc7565b610fe68482615d4b565b83546001600160681b0391909116620100000262010000600160781b031990911617835560cd546110219085906001600160801b0316615d4b565b60cd80546001600160801b0319166001600160801b0392909216919091179055604080518581526020810184905233917fab2daf3c146ca6416cbccd2a86ed2ba995e171ef6319df14a38aef01403a9c96910160405180910390a26110863385612bea565b5050600180555050565b600054610100900460ff16806110a9575060005460ff16155b6110c55760405162461bcd60e51b8152600401610dc790615959565b600054610100900460ff161580156110e7576000805461ffff19166101011790555b6110f18787612c07565b611110611101602086018661557f565b85604001358660800135612ef7565b6001600160a01b03821661114b5760405162461bcd60e51b8152602060048201526002602482015261413760f01b6044820152606401610dc7565b60dc5483158015906111725750836111668262015180615d2c565b6111709190615dc3565b155b6111a35760405162461bcd60e51b8152602060048201526002602482015261082760f31b6044820152606401610dc7565b60e1805487919061ff0019166101008360028111156111d257634e487b7160e01b600052602160045260246000fd5b02179055506111e4602086018661557f565b60e3805461ff00191661010083600381111561121057634e487b7160e01b600052602160045260246000fd5b0217905550604085013560e555608085013560e75560e984905560eb81905560ec80546001600160a01b0385166001600160a01b0319918216811790925560ed80549091169091179055836112688262015180615d2c565b6112729190615c2d565b60ea55508015611288576000805461ff00191690555b50505050505050565b6065546001600160a01b031633146112bb5760405162461bcd60e51b8152600401610dc7906159a7565b6001600160a01b0381166112f75760405162461bcd60e51b81526020600482015260036024820152622a189960e91b6044820152606401610dc7565b60d680546001600160a01b0319166001600160a01b0392909216919091179055565b3360008181526098602090815260408083206001600160a01b03871684529091528120549091610d93918590611350908690615c15565b612a69565b60c95460009060ff610100909104168161138b61137160995490565b611379611c7d565b60cd546001600160801b03168561304e565b90506113a061139985612043565b8284613094565b949350505050565b6065546001600160a01b031633146113d25760405162461bcd60e51b8152600401610dc7906159a7565b6001600160a01b03811661140e5760405162461bcd60e51b815260206004820152600360248201526254313360e81b6044820152606401610dc7565b60d580546001600160a01b0319166001600160a01b0392909216919091179055565b6065546001600160a01b0316331461145a5760405162461bcd60e51b8152600401610dc7906159a7565b6001600160a01b0381166114955760405162461bcd60e51b8152602060048201526002602482015261413760f01b6044820152606401610dc7565b60ed80546001600160a01b0319166001600160a01b0392909216919091179055565b6065546001600160a01b031633146114e15760405162461bcd60e51b8152600401610dc7906159a7565b600081116115175760405162461bcd60e51b815260206004820152600360248201526254313160e81b6044820152606401610dc7565b611520816130f6565b60cb54604080516001600160681b039092168252602082018390527f5f86edbb9d92228a9edc3f0ebc0f001bda1ea345ac7335e0eeef3504b31d1a1c910160405180910390a160cb80546cffffffffffffffffffffffffff19166001600160681b0392909216919091179055565b600054610100900460ff16806115a7575060005460ff16155b6115c35760405162461bcd60e51b8152600401610dc790615959565b600054610100900460ff161580156115e5576000805461ffff19166101011790555b6115ef8383612c07565b8015611601576000805461ff00191690555b505050565b6065546001600160a01b031633146116305760405162461bcd60e51b8152600401610dc7906159a7565b6000816001600160801b03161161166f5760405162461bcd60e51b8152602060048201526003602482015262150c4d60ea1b6044820152606401610dc7565b6001600160801b031660da5560cc5460dd805461ffff191661ffff909216919091179055565b60d4546001600160a01b031633146116d45760405162461bcd60e51b8152602060048201526002602482015261543560f01b6044820152606401610dc7565b600260015414156116f75760405162461bcd60e51b8152600401610dc7906159dc565b6002600155611704613140565b60018055565b6065546001600160a01b031633146117345760405162461bcd60e51b8152600401610dc7906159a7565b61173f838383612ef7565b60e3805484919061ff00191661010083600381111561176e57634e487b7160e01b600052602160045260246000fd5b021790555060e582905560e78190556040517f92f0f88bbc5641baceae878b26b793690ec5cd7b48fb4e30c5e0bf46cc261c11906117b1908590859085906158d0565b60405180910390a1505050565b600260015414156117e15760405162461bcd60e51b8152600401610dc7906159dc565b600260018190555061170460006001613246565b6065546001600160a01b0316331461181f5760405162461bcd60e51b8152600401610dc7906159a7565b61182d620f42406064615d2c565b81106118615760405162461bcd60e51b815260206004820152600360248201526205431360ec1b6044820152606401610dc7565b60d75460408051918252602082018390527f24867dfb6fcb9970a07be21024956524abe7a1837faa903ff0e99aaa40cf893e910160405180910390a160d755565b6065546001600160a01b031633146118cc5760405162461bcd60e51b8152600401610dc7906159a7565b6118d660006133e7565b565b600260015414156118fb5760405162461bcd60e51b8152600401610dc7906159dc565b6002600155806119335760405162461bcd60e51b81526020600482015260036024820152620a862760eb1b6044820152606401610dc7565b33600090815260d06020526040902080546201000090046001600160681b031615158061197057508054600160781b90046001600160801b031615155b156119815761198160006001613246565b60cc5433600081815260d260209081526040918290208054835188815261ffff96871693810184905292959194911685149290917f0c53c82ad07e2d592d88ece3b066777dd60f1118e2a081b380efc4358f0d9e2a910160405180910390a281546201000090046001600160801b031660008215611a0a57611a038783615c15565b9050611a5f565b8115611a3e5760405162461bcd60e51b815260206004820152600360248201526254313960e81b6044820152606401610dc7565b5033600090815260d260205260409020805461ffff191661ffff8616179055855b611a6881613439565b33600090815260d26020526040812080546001600160801b03808516620100000262010000600160901b03199092169190911790915560cd54611ab4918a91600160801b900416615c15565b9050611abf81613439565b60cd80546001600160801b03808416600160801b029116179055611ae433308a612b8e565b505060018055505050505050565b600080611b8660ce60010160009054906101000a90046001600160a01b03166001600160a01b031663ade6e2aa6040518163ffffffff1660e01b815260040160206040518083038186803b158015611b4957600080fd5b505afa158015611b5d573d6000803e3d6000fd5b505050506040513d601f19601f82011682018060405250810190611b819190615701565b613483565b915091509091565b6060609b8054610d0390615d8e565b6000611bd2611bab60995490565b611bb3611c7d565b60cd5460c9546001600160801b0390911690610100900460ff1661304e565b905090565b3360009081526098602090815260408083206001600160a01b038616845290915281205482811015611c595760405162461bcd60e51b815260206004820152602560248201527f45524332303a2064656372656173656420616c6c6f77616e63652062656c6f77604482015264207a65726f60d81b6064820152608401610dc7565b611c663385858403612a69565b5060019392505050565b6000610d93338484612b8e565b60c9546040516370a0823160e01b81523060048201526000916201000090046001600160a01b0316906370a082319060240160206040518083038186803b158015611cc757600080fd5b505afa158015611cdb573d6000803e3d6000fd5b505050506040513d601f19601f82011682018060405250810190611cff9190615701565b60cc54611bd291906201000090046001600160681b0316615c15565b600080600080600080611db560ce60010160009054906101000a90046001600160a01b03166001600160a01b031663ade6e2aa6040518163ffffffff1660e01b815260040160206040518083038186803b158015611d7857600080fd5b505afa158015611d8c573d6000803e3d6000fd5b505050506040513d601f19601f82011682018060405250810190611db09190615701565b6134f0565b925092509250600080611dc884846136e5565b50909990985094965093945050505050565b60026001541415611dfd5760405162461bcd60e51b8152600401610dc7906159dc565b600260015580611e355760405162461bcd60e51b815260206004820152600360248201526254313560e81b6044820152606401610dc7565b611e3f813361387f565b60c954611e5d906201000090046001600160a01b0316333084613b04565b5060018055565b60d4546001600160a01b03163314611ea35760405162461bcd60e51b8152602060048201526002602482015261543560f01b6044820152606401610dc7565b60026001541415611ec65760405162461bcd60e51b8152600401610dc7906159dc565b60026001819055506000806000611ede60db54613b75565b60db81905591945092509050611ef3826130f6565b60cc805462010000600160781b031916620100006001600160681b0385160217905560405182815233906001600160a01b038516907f045c558fdce4714c5816d53820d27420f4cd860892df203fe636384d8d19aa019060200160405180910390a3604051632904c23960e01b81526001600160a01b037f0000000000000000000000000000000000000000000000000000000000000000811660048301527f000000000000000000000000000000000000000000000000000000000000000081166024830152841660448201526064810183905273A746B0CEEc022D53665840593a0f673f91Cd856b90632904c2399060840160206040518083038186803b158015611fff57600080fd5b505af4158015612013573d6000803e3d6000fd5b505050506040513d601f19601f820116820180604052508101906120379190615701565b60de5550506001805550565b600080600061205184612882565b90925090506113a08183615c15565b6065546001600160a01b0316331461208a5760405162461bcd60e51b8152600401610dc7906159a7565b600082116120bf5760405162461bcd60e51b8152602060048201526002602482015261413960f01b6044820152606401610dc7565b6000811180156120e45750806120d88362015180615d2c565b6120e29190615dc3565b155b6121155760405162461bcd60e51b8152602060048201526002602482015261082760f31b6044820152606401610dc7565b60e85460dc546040805192835260208301849052820152606081018390527f3ad8535c2e3b95d620c7ac7fcdc1322e4cb738b1006c35a5e403f2cee717d9569060800160405180910390a160e95560eb55565b6065546001600160a01b031633146121925760405162461bcd60e51b8152600401610dc7906159a7565b6001600160a01b0381166121cd5760405162461bcd60e51b81526020600482015260026024820152612a1b60f11b6044820152606401610dc7565b60d480546001600160a01b0319166001600160a01b0392909216919091179055565b600260015414156122125760405162461bcd60e51b8152600401610dc7906159dc565b60026001558061224a5760405162461bcd60e51b81526020600482015260036024820152620a862760eb1b6044820152606401610dc7565b611e5d816000613246565b6065546001600160a01b0316331461227f5760405162461bcd60e51b8152600401610dc7906159a7565b6001600160a01b0381166122ba5760405162461bcd60e51b8152602060048201526002602482015261543760f01b6044820152606401610dc7565b60d3546001600160a01b03828116911614156122fd5760405162461bcd60e51b81526020600482015260026024820152610a8760f31b6044820152606401610dc7565b60d380546001600160a01b0319166001600160a01b0392909216919091179055565b600260015414156123425760405162461bcd60e51b8152600401610dc7906159dc565b600260015560cf546001600160a01b031680600081156123d257816001600160a01b031663ade6e2aa6040518163ffffffff1660e01b815260040160206040518083038186803b15801561239557600080fd5b505afa1580156123a9573d6000803e3d6000fd5b505050506040513d601f19601f820116820180604052508101906123cd9190615701565b6123d5565b60005b905060006001600160a01b0384161561245e57826001600160a01b031663c52987cf6040518163ffffffff1660e01b815260040160206040518083038186803b15801561242157600080fd5b505afa158015612435573d6000803e3d6000fd5b505050506040513d601f19601f820116820180604052508101906124599190615701565b612461565b60005b90506000806000612471856134f0565b925092509250600061248383836136e5565b9250505085421015612511574284106124c45760405162461bcd60e51b815260206004820152600360248201526204131360ec1b6044820152606401610dc7565b6124cc613140565b60cc546201000090046001600160681b0316156125115760405162461bcd60e51b815260206004820152600360248201526241313160e81b6044820152606401610dc7565b801561252d5760ec5461252d906001600160a01b031682612bea565b612535613ef1565b61253f8686614158565b6040805160c0810190915260e380546000929190829060ff16600381111561257757634e487b7160e01b600052602160045260246000fd5b600381111561259657634e487b7160e01b600052602160045260246000fd5b81528154602090910190610100900460ff1660038111156125c757634e487b7160e01b600052602160045260246000fd5b60038111156125e657634e487b7160e01b600052602160045260246000fd5b81526020016001820154815260200160028201548152602001600382015481526020016004820154815250509050806020015160e360000160006101000a81548160ff0219169083600381111561264d57634e487b7160e01b600052602160045260246000fd5b0217905550606081015160e45560a081015160e65560e95460e881905560eb5460dc81905561267f9062015180615d2c565b6126899190615c2d565b60ea55505060ed5460ec80546001600160a01b0319166001600160a01b039092169190911790555050600180555050505050565b6065546001600160a01b031633146126e75760405162461bcd60e51b8152600401610dc7906159a7565b6002600154141561270a5760405162461bcd60e51b8152600401610dc7906159dc565b60026001556001600160a01b03811661274b5760405162461bcd60e51b815260206004820152600360248201526254323960e81b6044820152606401610dc7565b60cf546040516370a0823160e01b81523060048201526001600160a01b03909116906127df90839083906370a082319060240160206040518083038186803b15801561279657600080fd5b505afa1580156127aa573d6000803e3d6000fd5b505050506040513d601f19601f820116820180604052508101906127ce9190615701565b6001600160a01b03841691906144a4565b505060018055565b6065546001600160a01b031633146128115760405162461bcd60e51b8152600401610dc7906159a7565b6001600160a01b0381166128765760405162461bcd60e51b815260206004820152602660248201527f4f776e61626c653a206e6577206f776e657220697320746865207a65726f206160448201526564647265737360d01b6064820152608401610dc7565b61287f816133e7565b50565b6001600160a01b038116600090815260d0602090815260408083208151606081018352905461ffff81168083526201000082046001600160681b031694830194909452600160781b90046001600160801b031691810191909152829160011115612904575050506001600160a01b031660009081526097602052604081205491565b60cc54815161ffff908116600090815260d1602052604081205460c954919361293a93869391169190610100900460ff166144d4565b905061295b856001600160a01b031660009081526097602052604090205490565b9590945092505050565b600260015414156129885760405162461bcd60e51b8152600401610dc7906159dc565b60026001556000612997614545565b90508060db546129a79190615d4b565b6001600160801b031660db555060018055565b6065546001600160a01b031633146129e45760405162461bcd60e51b8152600401610dc7906159a7565b6129f2620f42406064615d2c565b8110612a255760405162461bcd60e51b8152602060048201526002602482015261543960f01b6044820152606401610dc7565b612a2e816146e0565b60d881905560408051918252602082018390527f4e874b007ab14f7e263baefd44951834c8266f4f224d1092e49e9c254354cc549101610e33565b6001600160a01b038316612acb5760405162461bcd60e51b8152602060048201526024808201527f45524332303a20617070726f76652066726f6d20746865207a65726f206164646044820152637265737360e01b6064820152608401610dc7565b6001600160a01b038216612b2c5760405162461bcd60e51b815260206004820152602260248201527f45524332303a20617070726f766520746f20746865207a65726f206164647265604482015261737360f01b6064820152608401610dc7565b6001600160a01b0383811660008181526098602090815260408083209487168084529482529182902085905590518481527f8c5be1e5ebec7d5bd14f71427d1e84f3dd0314c0f7b2291e5b200ac8c7c3b92591015b60405180910390a3505050565b6001600160a01b038216301480612bad57506001600160a01b03831630145b612bdf5760405162461bcd60e51b815260206004820152600360248201526205433360ec1b6044820152606401610dc7565b611601838383614752565b60c9546201000090046001600160a01b03166116018184846144a4565b6040516384d831a960e01b815273A746B0CEEc022D53665840593a0f673f91Cd856b906384d831a990612c439085908590600190600401615a13565b60006040518083038186803b158015612c5b57600080fd5b505af4158015612c6f573d6000803e3d6000fd5b50505050612c7b614920565b612d07612c8b60a0840184615b84565b8080601f016020809104026020016040519081016040528093929190818152602001838380828437600092019190915250612ccd9250505060c0850185615b84565b8080601f01602080910402602001604051908101604052809392919081815260200183838082843760009201919091525061499392505050565b612d0f6149fc565b612d1f610cae6020840184615466565b612d2f6040830160208401615466565b60d480546001600160a01b0319166001600160a01b039290921691909117905561016082013560dc55612d69610100830160e08401615466565b60d580546001600160a01b0319166001600160a01b0392909216919091179055612d9b61012083016101008401615466565b60d680546001600160a01b0319166001600160a01b0392909216919091179055612dcd61014083016101208401615779565b63ffffffff1660d955612de66060830160408401615466565b60d380546001600160a01b0319166001600160a01b0392909216919091179055608082013560d755612e1b60608301356146e0565b60d8558060c9612e2b8282615e40565b505060cc805461ffff1916600117905560c9546040516370a0823160e01b81523060048201526000916001600160a01b036201000090910416906370a082319060240160206040518083038186803b158015612e8657600080fd5b505afa158015612e9a573d6000803e3d6000fd5b505050506040513d601f19601f82011682018060405250810190612ebe9190615701565b9050612ec9816130f6565b60cc80546001600160681b03909216600160781b02600160781b600160e01b03199092169190911790555050565b612710821015612f2e5760405162461bcd60e51b8152602060048201526002602482015261413160f01b6044820152606401610dc7565b6000836003811115612f5057634e487b7160e01b600052602160045260246000fd5b1415612f895780156116015760405162461bcd60e51b8152602060048201526002602482015261209960f11b6044820152606401610dc7565b6003836003811115612fab57634e487b7160e01b600052602160045260246000fd5b1415612fe5578181146116015760405162461bcd60e51b8152602060048201526002602482015261413360f01b6044820152606401610dc7565b6000811161301a5760405162461bcd60e51b8152602060048201526002602482015261104d60f21b6044820152606401610dc7565b8181106116015760405162461bcd60e51b8152602060048201526002602482015261413560f01b6044820152606401610dc7565b60008061305c83600a615c84565b90506000861161306c578061308a565b61308a8661308461307d8888614a63565b8490614a6f565b90614a7b565b9695505050505050565b6000600183116130de5760405162461bcd60e51b8152602060048201526015602482015274496e76616c6964206173736574506572536861726560581b6044820152606401610dc7565b6113a06130ec83600a615c84565b6130848686614a6f565b6001600160681b0381111561287f5760405162461bcd60e51b815260206004820152601060248201526f13dd995c999b1bddc81d5a5b9d0c4c0d60821b6044820152606401610dc7565b60cf546040516358ffbb3d60e01b81526001600160a01b037f000000000000000000000000000000000000000000000000000000000000000081166004830152909116602482015260009073A746B0CEEc022D53665840593a0f673f91Cd856b906358ffbb3d9060440160206040518083038186803b1580156131c257600080fd5b505af41580156131d6573d6000803e3d6000fd5b505050506040513d601f19601f820116820180604052508101906131fa9190615701565b60cc5490915061321a9082906201000090046001600160681b0316615d4b565b60cc80546001600160681b0392909216620100000262010000600160781b031990921691909117905550565b33600090815260d0602090815260408083208151606081018352905461ffff8082168084526201000083046001600160681b031684870152600160781b9092046001600160801b03168385015260cc5491865260d19094529184205460c954919492909316926132c19185918591610100900460ff166144d4565b9050836132ce57846132d0565b805b9450846132de575050505050565b808511156133145760405162461bcd60e51b815260206004820152600360248201526254323360e81b6044820152606401610dc7565b825161ffff168211156133415733600090815260d060205260409020805462010000600160781b03191690555b61334a85613439565b6133548582615d4b565b33600081815260d060205260409081902080546001600160801b0394909416600160781b02600160781b600160f81b0319909416939093179092558451915190917fe5b754fb1abb7f01b499791d0b820ae3b6af3424ac1c59768edb53f4ec31a929916133cd9189825261ffff16602082015260400190565b60405180910390a26133e0303387612b8e565b5050505050565b606580546001600160a01b038381166001600160a01b0319831681179093556040519116919082907f8be0079c531659141344cd1fd0a4f28419497f9722a3daafe3b4186f6b6457e090600090a35050565b6001600160801b0381111561287f5760405162461bcd60e51b815260206004820152601060248201526f09eeccae4ccd8deee40ead2dce86264760831b6044820152606401610dc7565b60e85460ea54600091829142851161349c5760006134bc565b81806134a84288615d4b565b6134b29190615c15565b6134bc9190615c2d565b6134c69082615d4b565b9350816134d38583615d4b565b6134dd9190615d2c565b6134e79086615d4b565b92505050915091565b6000808083613507575060009150819050806136de565b60e85460ea54600090829061351e90600190615d4b565b6135289190615d2c565b6135329087615d4b565b9050600061353f87613483565b60ca548998509092506001600160a01b03169050825b8281116136ad576040516301957f8160e01b81526001600160a01b038381166004830152602482018390526000917f0000000000000000000000000000000000000000000000000000000000000000909116906301957f819060440160206040518083038186803b1580156135c957600080fd5b505afa1580156135dd573d6000803e3d6000fd5b505050506040513d601f19601f820116820180604052508101906136019190615701565b9050600081116136395760405162461bcd60e51b815260206004820152600360248201526220989960e91b6044820152606401610dc7565b60e65460e0546127109161364c91615d2c565b6136569190615c2d565b811061369b57613667600189615c15565b975081965061271060e36001015460e0546136829190615d2c565b61368c9190615c2d565b811061369b57819850506136ad565b506136a68582615c15565b9050613555565b5084156136d957836136bf868a615d4b565b6136c99190615c2d565b60ea546136d69190615d4b565b94505b505050505b9193909250565b60df546000908190819081816136fd6008600a615c84565b6137079190615d4b565b60cc546137249084906201000090046001600160681b0316615d2c565b61372e9190615c2d565b60cd5460c9546040516370a0823160e01b815230600482015292935060009284926001600160801b0316916201000090046001600160a01b0316906370a082319060240160206040518083038186803b15801561378a57600080fd5b505afa15801561379e573d6000803e3d6000fd5b505050506040513d601f19601f820116820180604052508101906137c29190615701565b6137cc9190615d4b565b6137d69190615d4b565b60e35490915060ff166000600282600381111561380357634e487b7160e01b600052602160045260246000fd5b148061382e5750600382600381111561382c57634e487b7160e01b600052602160045260246000fd5b145b61383957600061383c565b60015b905080613849578961384b565b885b60ea5490985061385b8985615d2c565b6138659190615c2d565b96506138718784615d4b565b955050505050509250925092565b60cc5461ffff16600083613891611c7d565b61389b9190615c15565b6001600160a01b038416600090815260d060209081526040918290208251606081018452905461ffff811682526001600160681b036201000082048116938301939093526001600160801b03600160781b909104169281019290925260cb549293509091168211156139355760405162461bcd60e51b81526020600482015260036024820152622a189b60e91b6044820152606401610dc7565b60ca54600160a01b900466ffffffffffffff1682101561397d5760405162461bcd60e51b815260206004820152600360248201526254313760e81b6044820152606401610dc7565b60408051868152602081018590526001600160a01b038616917f90890809c654f11d6e72a28fa60149770a0d11ec6c92319d6ceb2bb0a4ea1a15910160405180910390a2805161ffff16600090815260d1602052604081205460c9546139ef918491879190610100900460ff166144d4565b8251909150869061ffff16851415613a205760008784602001516001600160681b0316613a1c9190615c15565b9150505b613a29816130f6565b6040805160608101825261ffff80881682526001600160681b0380851660208085019182526001600160801b038089168688019081526001600160a01b038e16600090815260d090935296822095518654935197518216600160781b02600160781b600160f81b03199890951662010000026effffffffffffffffffffffffffffff1990941695169490941791909117949094161790915560cd54613ad0918a9116615c15565b9050613adb81613439565b60cd80546001600160801b0319166001600160801b039290921691909117905550505050505050565b6040516001600160a01b0380851660248301528316604482015260648101829052613b6f9085906323b872dd60e01b906084015b60408051601f198184030181529190526020810180516001600160e01b03166001600160e01b031990931692909217909152614a87565b50505050565b60cf5460009081908190600160a01b900463ffffffff16421015613bc15760405162461bcd60e51b81526020600482015260036024820152622a191b60e91b6044820152606401610dc7565b60ce546001600160a01b0316925082613c025760405162461bcd60e51b815260206004820152600360248201526254323760e81b6044820152606401610dc7565b60cc805460d3546040805160a08101825260c954610100810460ff16825291516370a0823160e01b815230600482015261ffff909416946001600160a01b03938416946000948594859473A746B0CEEc022D53665840593a0f673f91Cd856b9463686fb2f2949093919260208401926201000090910416906370a082319060240160206040518083038186803b158015613c9b57600080fd5b505afa158015613caf573d6000803e3d6000fd5b505050506040513d601f19601f82011682018060405250810190613cd39190615701565b8152602001613ce160995490565b81526020018d81526020018960011415613cfc576000613d00565b60d8545b9052604080516001600160e01b031960e086901b168152600481019390935281516024840152602082015160448401528101516064830152606081015160848301526080015160a482015260c40160a06040518083038186803b158015613d6657600080fd5b505af4158015613d7a573d6000803e3d6000fd5b505050506040513d601f19601f82011682018060405250810190613d9e919061573a565b809650819750829550839a50849b5050505050508760ce60010160006101000a8154816001600160a01b0302191690836001600160a01b03160217905550600060ce60000160006101000a8154816001600160a01b0302191690836001600160a01b031602179055508060d1600087815260200190815260200160002081905550836001600160a01b03167fd42b93f751df91c40b94860a26f5e43b9fc78089c1e3df5d4602eee07009e5c68387604051613e63929190918252602082015260400190565b60405180910390a260cd80546001600160801b0319169055613e86856001615c15565b60cc805461ffff191661ffff9290921691909117905550613ea73083614b59565b8015613eb757613eb78382612bea565b613ec36008600a615c84565b60df54613ed09088615d2c565b613eda9190615c2d565b613ee49087615d4b565b9550505050509193909250565b60cf546040805160e0810182526001600160a01b037f0000000000000000000000000000000000000000000000000000000000000000811682527f000000000000000000000000000000000000000000000000000000000000000081166020830190815293811682840181815260006060850181815260dd5461ffff9081166080880190815260da5460a0890190815260dc5460c08a0190815260d65460d55460d9549c51635a90235d60e01b8152918b1660048301528a166024820152604481019b909b528951891660648c01529a51881660848b0152945190961660a4890152905160c4880152935190931660e486015251610104850152935161012484015260c961014484015260cc610164840152909181908190819073A746B0CEEc022D53665840593a0f673f91Cd856b90635a90235d906101840160806040518083038186803b15801561404357600080fd5b505af4158015614057573d6000803e3d6000fd5b505050506040513d601f19601f8201168201806040525081019061407b9190615525565b93509350935093507fa217999b1c125c2a996f712c5f26a28addad7167bd8a67d5bd5b2a751148abb082826040516140bd929190918252602082015260400190565b60405180910390a16140ce836130f6565b60ce80546001600160a01b0319166001600160a01b03861617905560006140f58142615c15565b905063ffffffff8111156141315760405162461bcd60e51b81526020600482015260036024820152620a864760eb1b6044820152606401610dc7565b60cf805463ffffffff60a01b1916600160a01b63ffffffff84160217905561128887614c39565b60ca546040516301957f8160e01b81526001600160a01b039182166004820152602481018490526000917f000000000000000000000000000000000000000000000000000000000000000016906301957f819060440160206040518083038186803b1580156141c657600080fd5b505afa1580156141da573d6000803e3d6000fd5b505050506040513d601f19601f820116820180604052508101906141fe9190615701565b604080516060810190915260e18054929350600092829060ff16600281111561423757634e487b7160e01b600052602160045260246000fd5b600281111561425657634e487b7160e01b600052602160045260246000fd5b81528154602090910190610100900460ff16600281111561428757634e487b7160e01b600052602160045260246000fd5b60028111156142a657634e487b7160e01b600052602160045260246000fd5b81526020016001820154815250509050600081604001511180156142ca5750828211155b80156142d557508342115b156143175760ec54614317906001600160a01b03166142f66008600a615c84565b836040015160de546143089190615d2c565b6143129190615c2d565b612bea565b60ca546040516341976e0960e01b81526001600160a01b0391821660048201526000917f000000000000000000000000000000000000000000000000000000000000000016906341976e099060240160206040518083038186803b15801561437e57600080fd5b505afa158015614392573d6000803e3d6000fd5b505050506040513d601f19601f820116820180604052508101906143b69190615701565b9050600060ce60000160009054906101000a90046001600160a01b03166001600160a01b031663c52987cf6040518163ffffffff1660e01b815260040160206040518083038186803b15801561440b57600080fd5b505afa15801561441f573d6000803e3d6000fd5b505050506040513d601f19601f820116820180604052508101906144439190615701565b905061445483602001518383614da5565b61446383602001518383614e34565b60e255602083015160e1805460ff1916600183600281111561449557634e487b7160e01b600052602160045260246000fd5b02179055505060e05550505050565b6040516001600160a01b03831660248201526044810182905261160190849063a9059cbb60e01b90606401613b38565b835160009061ffff16158015906144ef5750845161ffff1684115b1561453157600061450e86602001516001600160681b03168585614ecc565b6040870151909150614529906001600160801b031682614f2f565b9150506113a0565b50505050604001516001600160801b031690565b33600090815260d26020526040812080546001600160801b03620100008204169061ffff168161459d5760405162461bcd60e51b815260206004820152600360248201526205432360ec1b6044820152606401610dc7565b60cc5461ffff1681106145d85760405162461bcd60e51b815260206004820152600360248201526254323160e81b6044820152606401610dc7565b33600090815260d260205260409020805462010000600160901b031916905560cd54614615908390600160801b90046001600160801b0316615d4b565b60cd80546001600160801b03928316600160801b029216919091179055600081815260d1602052604081205460c95461465891859160ff61010090910416613094565b604080518281526020810186905291925033917ff279e6a1f5e320cca91135676d9cb6e44ca8a08c0b88342bcdb1144f6511b568910160405180910390a26146a03084614f3b565b600081116146d65760405162461bcd60e51b81526020600482015260036024820152622a191960e91b6044820152606401610dc7565b6113a03382612bea565b60dc54600090816146f2601e83615dc3565b1561471557614702600783615c2d565b6147109063031ba309615c2d565b614738565b614720601e83615c2d565b61472b90600c615c2d565b61473890620f4240615d2c565b905080614748620f424086615d2c565b6113a09190615c2d565b6001600160a01b0383166147b65760405162461bcd60e51b815260206004820152602560248201527f45524332303a207472616e736665722066726f6d20746865207a65726f206164604482015264647265737360d81b6064820152608401610dc7565b6001600160a01b0382166148185760405162461bcd60e51b815260206004820152602360248201527f45524332303a207472616e7366657220746f20746865207a65726f206164647260448201526265737360e81b6064820152608401610dc7565b6001600160a01b038316600090815260976020526040902054818110156148905760405162461bcd60e51b815260206004820152602660248201527f45524332303a207472616e7366657220616d6f756e7420657863656564732062604482015265616c616e636560d01b6064820152608401610dc7565b6001600160a01b038085166000908152609760205260408082208585039055918516815290812080548492906148c7908490615c15565b92505081905550826001600160a01b0316846001600160a01b03167fddf252ad1be2c89b69c2b068fc378daa952ba7f163c4a11628f55a4df523b3ef8460405161491391815260200190565b60405180910390a3613b6f565b600054610100900460ff1680614939575060005460ff16155b6149555760405162461bcd60e51b8152600401610dc790615959565b600054610100900460ff16158015614977576000805461ffff19166101011790555b61497f615089565b801561287f576000805461ff001916905550565b600054610100900460ff16806149ac575060005460ff16155b6149c85760405162461bcd60e51b8152600401610dc790615959565b600054610100900460ff161580156149ea576000805461ffff19166101011790555b6149f26150f8565b6115ef8383615162565b600054610100900460ff1680614a15575060005460ff16155b614a315760405162461bcd60e51b8152600401610dc790615959565b600054610100900460ff16158015614a53576000805461ffff19166101011790555b614a5b6150f8565b61497f6151f7565b6000610ee38284615d4b565b6000610ee38284615d2c565b6000610ee38284615c2d565b6000614adc826040518060400160405280602081526020017f5361666545524332303a206c6f772d6c6576656c2063616c6c206661696c6564815250856001600160a01b03166152579092919063ffffffff16565b8051909150156116015780806020019051810190614afa9190615563565b6116015760405162461bcd60e51b815260206004820152602a60248201527f5361666545524332303a204552433230206f7065726174696f6e20646964206e6044820152691bdd081cdd58d8d9595960b21b6064820152608401610dc7565b6001600160a01b038216614baf5760405162461bcd60e51b815260206004820152601f60248201527f45524332303a206d696e7420746f20746865207a65726f2061646472657373006044820152606401610dc7565b8060996000828254614bc19190615c15565b90915550506001600160a01b03821660009081526097602052604081208054839290614bee908490615c15565b90915550506040518181526001600160a01b038316906000907fddf252ad1be2c89b69c2b068fc378daa952ba7f163c4a11628f55a4df523b3ef9060200160405180910390a35b5050565b60cc546201000090046001600160681b03166001600160a01b03821615614c7f5760cc8054600160781b600160e01b031916600160781b6001600160681b038416021790555b60cc805462010000600160781b031916905560cf80546001600160a01b03191690556001600160a01b03821615614c3557604051636c6fe87f60e11b81526001600160a01b037f000000000000000000000000000000000000000000000000000000000000000016600482015260009073A746B0CEEc022D53665840593a0f673f91Cd856b9063d8dfd0fe9060240160206040518083038186803b158015614d2657600080fd5b505af4158015614d3a573d6000803e3d6000fd5b505050506040513d601f19601f82011682018060405250810190614d5e9190615701565b9050336001600160a01b0316836001600160a01b03167f7e830f7c1771deb1bdb35c4a7e6051bbac32b376f7f4e4976b8618b0b11997f783604051612b8191815260200190565b6000836002811115614dc757634e487b7160e01b600052602160045260246000fd5b1480614df257506001836002811115614df057634e487b7160e01b600052602160045260246000fd5b145b15614e2a5781614e046008600a615c84565b614e0e8385615d4b565b614e189190615d2c565b614e229190615c2d565b60df55505050565b600060df55505050565b60006001846002811115614e5857634e487b7160e01b600052602160045260246000fd5b1415610ee357614e688284615d4b565b60c954909150610100900460ff1660088111614ea357614e89816008615d4b565b614e9490600a615c84565b614e9e9083615c2d565b614ec3565b614eae600882615d4b565b614eb990600a615c84565b614ec39083615d2c565b95945050505050565b600060018311614f165760405162461bcd60e51b8152602060048201526015602482015274496e76616c6964206173736574506572536861726560581b6044820152606401610dc7565b6113a083613084614f2885600a615c84565b8790614a6f565b6000610ee38284615c15565b6001600160a01b038216614f9b5760405162461bcd60e51b815260206004820152602160248201527f45524332303a206275726e2066726f6d20746865207a65726f206164647265736044820152607360f81b6064820152608401610dc7565b6001600160a01b0382166000908152609760205260409020548181101561500f5760405162461bcd60e51b815260206004820152602260248201527f45524332303a206275726e20616d6f756e7420657863656564732062616c616e604482015261636560f01b6064820152608401610dc7565b6001600160a01b038316600090815260976020526040812083830390556099805484929061503e908490615d4b565b90915550506040518281526000906001600160a01b038516907fddf252ad1be2c89b69c2b068fc378daa952ba7f163c4a11628f55a4df523b3ef9060200160405180910390a3505050565b600054610100900460ff16806150a2575060005460ff16155b6150be5760405162461bcd60e51b8152600401610dc790615959565b600054610100900460ff161580156150e0576000805461ffff19166101011790555b60018055801561287f576000805461ff001916905550565b600054610100900460ff1680615111575060005460ff16155b61512d5760405162461bcd60e51b8152600401610dc790615959565b600054610100900460ff1615801561497f576000805461ffff1916610101179055801561287f576000805461ff001916905550565b600054610100900460ff168061517b575060005460ff16155b6151975760405162461bcd60e51b8152600401610dc790615959565b600054610100900460ff161580156151b9576000805461ffff19166101011790555b82516151cc90609a906020860190615362565b5081516151e090609b906020850190615362565b508015611601576000805461ff0019169055505050565b600054610100900460ff1680615210575060005460ff16155b61522c5760405162461bcd60e51b8152600401610dc790615959565b600054610100900460ff1615801561524e576000805461ffff19166101011790555b61497f336133e7565b60606113a0848460008585843b6152b05760405162461bcd60e51b815260206004820152601d60248201527f416464726573733a2063616c6c20746f206e6f6e2d636f6e74726163740000006044820152606401610dc7565b600080866001600160a01b031685876040516152cc9190615876565b60006040518083038185875af1925050503d8060008114615309576040519150601f19603f3d011682016040523d82523d6000602084013e61530e565b606091505b509150915061531e828286615329565b979650505050505050565b60608315615338575081610ee3565b8251156153485782518084602001fd5b8160405162461bcd60e51b8152600401610dc79190615926565b82805461536e90615d8e565b90600052602060002090601f01602090048101928261539057600085556153d6565b82601f106153a957805160ff19168380011785556153d6565b828001600101855582156153d6579182015b828111156153d65782518255916020019190600101906153bb565b506153e29291506153e6565b5090565b5b808211156153e257600081556001016153e7565b803561540681615f51565b919050565b80356004811061540657600080fd5b80356003811061540657600080fd5b600060c0828403121561543a578081fd5b50919050565b60006101c0828403121561543a578081fd5b803563ffffffff8116811461540657600080fd5b600060208284031215615477578081fd5b8135610ee381615f51565b60008060408385031215615494578081fd5b823561549f81615f51565b915060208301356154af81615f51565b809150509250929050565b6000806000606084860312156154ce578081fd5b83356154d981615f51565b925060208401356154e981615f51565b929592945050506040919091013590565b6000806040838503121561550c578182fd5b823561551781615f51565b946020939093013593505050565b6000806000806080858703121561553a578081fd5b845161554581615f51565b60208601516040870151606090970151919890975090945092505050565b600060208284031215615574578081fd5b8151610ee381615f66565b600060208284031215615590578081fd5b610ee38261540b565b6000806000606084860312156155ad578283fd5b6155b68461540b565b95602085013595506040909401359392505050565b6000602082840312156155dc578081fd5b610ee38261541a565b60008060e083850312156155f7578182fd5b823567ffffffffffffffff81111561560d578283fd5b61561985828601615440565b9250506156298460208501615429565b90509250929050565b600080600080600080610200878903121561564b578384fd5b863567ffffffffffffffff811115615661578485fd5b61566d89828a01615440565b96505061567d8860208901615429565b945061568b60e0880161541a565b935061569b886101008901615429565b92506101c087013591506101e08701356156b481615f51565b809150509295509295509295565b6000602082840312156156d3578081fd5b81356001600160801b0381168114610ee3578182fd5b6000602082840312156156fa578081fd5b5035919050565b600060208284031215615712578081fd5b5051919050565b6000806040838503121561572b578182fd5b50508035926020909101359150565b600080600080600060a08688031215615751578283fd5b5050835160208501516040860151606087015160809097015192989197509594509092509050565b60006020828403121561578a578081fd5b610ee382615452565b600481106157a3576157a3615e03565b9052565b600381106157a3576157a3615e03565b81835281816020850137506000828201602090810191909152601f909101601f19169091010190565b80356157eb81615f66565b1515825260208101356157fd81615f9e565b60ff166020830152604081013561581381615f51565b6001600160a01b03908116604084015260608201359061583282615f51565b166060830152608081013561584681615f89565b66ffffffffffffff16608083015260a081013561586281615f74565b6001600160681b03811660a0840152505050565b60008251615888818460208701615d62565b9190910192915050565b60c081016158a08289615793565b6158ad6020830188615793565b8560408301528460608301528360808301528260a0830152979650505050505050565b606081016158de8286615793565b602082019390935260400152919050565b60208101610d9782846157a7565b6060810161590b82866157a7565b61591860208301856157a7565b826040830152949350505050565b6020815260008251806020840152615945816040850160208701615d62565b601f01601f19169190910160400192915050565b6020808252602e908201527f496e697469616c697a61626c653a20636f6e747261637420697320616c72656160408201526d191e481a5b9a5d1a585b1a5e995960921b606082015260800190565b6020808252818101527f4f776e61626c653a2063616c6c6572206973206e6f7420746865206f776e6572604082015260600190565b6020808252601f908201527f5265656e7472616e637947756172643a207265656e7472616e742063616c6c00604082015260600190565b6000610100808352615a37818401615a2a886153fb565b6001600160a01b03169052565b615a43602087016153fb565b610120615a5a818601836001600160a01b03169052565b615a66604089016153fb565b9150610140615a7f818701846001600160a01b03169052565b610160925060608901358387015261018060808a013581880152615aa660a08b018b615bd0565b6101c06101a081818c0152615ac06102c08c0184866157b7565b9350615acf60c08f018f615bd0565b8c860360ff1901848e01529350615ae78585836157b7565b945050615af660e08f016153fb565b6001600160a01b0381166101e08d01529250615b13898f016153fb565b6001600160a01b0381166102008d01529850615b30878f01615452565b63ffffffff166102208c0152948d01356102408b01525050938a01356102608801528901356102808701528801356102a0860152509150615b76905060208301856157e0565b8260e0830152949350505050565b6000808335601e19843603018112615b9a578283fd5b83018035915067ffffffffffffffff821115615bb4578283fd5b602001915036819003821315615bc957600080fd5b9250929050565b6000808335601e19843603018112615be6578283fd5b830160208101925035905067ffffffffffffffff811115615c0657600080fd5b803603831315615bc957600080fd5b60008219821115615c2857615c28615dd7565b500190565b600082615c3c57615c3c615ded565b500490565b600181815b80851115615c7c578160001904821115615c6257615c62615dd7565b80851615615c6f57918102915b93841c9390800290615c46565b509250929050565b6000610ee38383600082615c9a57506001610d97565b81615ca757506000610d97565b8160018114615cbd5760028114615cc757615ce3565b6001915050610d97565b60ff841115615cd857615cd8615dd7565b50506001821b610d97565b5060208310610133831016604e8410600b8410161715615d06575081810a610d97565b615d108383615c41565b8060001904821115615d2457615d24615dd7565b029392505050565b6000816000190483118215151615615d4657615d46615dd7565b500290565b600082821015615d5d57615d5d615dd7565b500390565b60005b83811015615d7d578181015183820152602001615d65565b83811115613b6f5750506000910152565b600181811c90821680615da257607f821691505b6020821081141561543a57634e487b7160e01b600052602260045260246000fd5b600082615dd257615dd2615ded565b500690565b634e487b7160e01b600052601160045260246000fd5b634e487b7160e01b600052601260045260246000fd5b634e487b7160e01b600052602160045260246000fd5b60008135610d9781615f51565b60008135610d9781615f74565b60008135610d9781615f89565b8135615e4b81615f66565b815460ff19811691151560ff1691821783556020840135615e6b81615f9e565b61ff008160081b169050808361ffff198416171784556040850135615e8f81615f51565b6001600160b01b0319929092169092179190911760109190911b62010000600160b01b031617815560018101615ee7615eca60608501615e19565b82546001600160a01b0319166001600160a01b0391909116178255565b615f20615ef660808501615e33565b82805466ffffffffffffff60a01b191660a09290921b66ffffffffffffff60a01b16919091179055565b50614c35615f3060a08401615e26565b600283016001600160681b0382166001600160681b03198254161781555050565b6001600160a01b038116811461287f57600080fd5b801515811461287f57600080fd5b6001600160681b038116811461287f57600080fd5b66ffffffffffffff8116811461287f57600080fd5b60ff8116811461287f57600080fdfea264697066735822122080d199ce9084cc195a146422fcf2930f2346974b03e552f467623e5188366f2864736f6c63430008040033",
  "deployedBytecode": "0x608060405234801561001057600080fd5b506004361061048b5760003560e01c80638778878211610262578063b28669a011610151578063dd62ed3e116100ce578063efc981ed11610092578063efc981ed14610c8d578063f2fde38b14610ca0578063f656ba5114610cb3578063f756fa2114610cc6578063f957a06714610cce578063fe56e23214610ce157600080fd5b8063dd62ed3e14610c27578063e73c63d514610c60578063e74b981b14610c69578063ea00b1ca14610c7c578063ef78d4fd14610c8457600080fd5b8063ce7c2ac211610115578063ce7c2ac214610bb4578063cea1c1f414610bc7578063d164cc1514610bda578063db006a7514610bed578063db43e86214610c0057600080fd5b8063b28669a014610b74578063b6b55f2514610b87578063b9f8092b14610b9a578063c2229e9514610ba2578063c59f564214610bab57600080fd5b8063a285c9e8116101df578063aced1661116101a3578063aced166114610b1a578063ad6cca6214610b2d578063ad7a672f14610b36578063afa6626414610b3e578063b1b76a1814610b5157600080fd5b8063a285c9e814610ac5578063a2db9d8314610ada578063a457c2d714610aeb578063a6f7f5d614610afe578063a9059cbb14610b0757600080fd5b80638da750cc116102265780638da750cc146109ad57806395d89b41146109c057806399530b06146109c85780639fcc2d75146109d0578063a083ff1714610a6f57600080fd5b8063877887821461093e57806389a30271146109475780638a7b8cf21461096e5780638b10cc7c1461098b5780638da5cb5b1461099c57600080fd5b80634610a0001161037e57806369b41170116102fb578063715018a6116102bf578063715018a6146108a35780637a9262a2146108ab5780637e108d521461090257806383536ff31461091557806387153eb11461091e57600080fd5b806369b41170146108445780636db2a59c1461084c5780636f31ab341461085f57806370897b231461086757806370a082311461087a57600080fd5b806355489bb21161034257806355489bb214610782578063600a2cfb1461079557806363f89ca51461079d578063650cce8a146107a65780636719b2ee146107cd57600080fd5b80634610a0001461072d578063469048401461074057806347786d37146107535780634af96d2914610766578063503c70aa1461077957600080fd5b80632859822e1161040c57806339509351116103d057806339509351146106c25780633ec143d3146106d55780633f23bb73146106f65780633f90916a146107095780634603c0aa1461071a57600080fd5b80632859822e1461064757806330630da41461065a578063313ce5671461066d578063355274ea1461068a57806338013f021461069b57600080fd5b80631a92f6c2116104535780631a92f6c2146105325780631c3f18161461057157806323b872dd1461059b5780632728f333146105ae5780632775d01c1461063457600080fd5b806306fdde0314610490578063095ea7b3146104ae57806310f08053146104d157806318059dc7146104e657806318160ddd14610520575b600080fd5b610498610cf4565b6040516104a59190615926565b60405180910390f35b6104c16104bc3660046154fa565b610d86565b60405190151581526020016104a5565b6104e46104df3660046155cb565b610d9d565b005b60e35460e45460e55460e65460e75461050e9460ff8082169561010090920416939092909186565b6040516104a596959493929190615892565b6099545b6040519081526020016104a5565b6105597f000000000000000000000000000000000000000000000000000000000000000081565b6040516001600160a01b0390911681526020016104a5565b60e15460e25461058c9160ff80821692610100909204169083565b6040516104a5939291906158fd565b6104c16105a93660046154ba565b610e3e565b60cc5460cd546105ef9161ffff8116916001600160681b03620100008304811692600160781b900416906001600160801b0380821691600160801b90041685565b6040805161ffff90961686526001600160681b03948516602087015293909216928401929092526001600160801b03918216606084015216608082015260a0016104a5565b6104e46106423660046156e9565b610eea565b6104e4610655366004615632565b611090565b6104e4610668366004615466565b611291565b60c954610100900460ff1660405160ff90911681526020016104a5565b60cb546001600160681b0316610524565b6105597f000000000000000000000000000000000000000000000000000000000000000081565b6104c16106d03660046154fa565b611319565b60dd546106e39061ffff1681565b60405161ffff90911681526020016104a5565b610524610704366004615466565b611355565b60cd546001600160801b0316610524565b6104e4610728366004615466565b6113a8565b6104e461073b366004615466565b611430565b60d354610559906001600160a01b031681565b6104e46107613660046156e9565b6114b7565b6104e46107743660046155e5565b61158e565b61052460db5481565b6104e46107903660046156c2565b611606565b6104e4611695565b61052460e85481565b6105597f000000000000000000000000000000000000000000000000000000000000000081565b6108136107db366004615466565b60d06020526000908152604090205461ffff8116906201000081046001600160681b031690600160781b90046001600160801b031683565b6040805161ffff90941684526001600160681b0390921660208401526001600160801b0316908201526060016104a5565b610524600081565b6104e461085a366004615599565b61170a565b6104e46117be565b6104e46108753660046156e9565b6117f5565b610524610888366004615466565b6001600160a01b031660009081526097602052604090205490565b6104e46118a2565b6108e06108b9366004615466565b60d26020526000908152604090205461ffff8116906201000090046001600160801b031682565b6040805161ffff90931683526001600160801b039091166020830152016104a5565b6104e46109103660046156e9565b6118d8565b61052460d95481565b61052461092c3660046156e9565b60d16020526000908152604090205481565b61052460d75481565b6105597f000000000000000000000000000000000000000000000000000000000000000081565b610976611af2565b604080519283526020830191909152016104a5565b60cf546001600160a01b0316610559565b6065546001600160a01b0316610559565b60ec54610559906001600160a01b031681565b610498611b8e565b610524611b9d565b60c95460ca5460cb54610a1f9260ff808216936101008304909116926001600160a01b036201000090930483169282169166ffffffffffffff600160a01b90910416906001600160681b031686565b60408051961515875260ff90951660208701526001600160a01b03938416948601949094529116606084015266ffffffffffffff1660808301526001600160681b031660a082015260c0016104a5565b60ce5460cf54610a99916001600160a01b039081169190811690600160a01b900463ffffffff1683565b604080516001600160a01b03948516815293909216602084015263ffffffff16908201526060016104a5565b60cf54600160a01b900463ffffffff16610524565b60ce546001600160a01b0316610559565b6104c1610af93660046154fa565b611bd7565b61052460d85481565b6104c1610b153660046154fa565b611c70565b60d454610559906001600160a01b031681565b61052460ea5481565b610524611c7d565b60d554610559906001600160a01b031681565b610b59611d1b565b604080519384526020840192909252908201526060016104a5565b60ed54610559906001600160a01b031681565b6104e4610b953660046156e9565b611dda565b6104e4611e64565b61052460e05481565b61052460de5481565b610524610bc2366004615466565b612043565b6104e4610bd5366004615719565b612060565b6104e4610be8366004615466565b612168565b6104e4610bfb3660046156e9565b6121ef565b6105597f000000000000000000000000000000000000000000000000000000000000000081565b610524610c35366004615482565b6001600160a01b03918216600090815260986020908152604080832093909416825291909152205490565b61052460da5481565b6104e4610c77366004615466565b612255565b6104e461231f565b61052460dc5481565b6104e4610c9b366004615466565b6126bd565b6104e4610cae366004615466565b6127e7565b610976610cc1366004615466565b612882565b6104e4612965565b60d654610559906001600160a01b031681565b6104e4610cef3660046156e9565b6129ba565b6060609a8054610d0390615d8e565b80601f0160208091040260200160405190810160405280929190818152602001828054610d2f90615d8e565b8015610d7c5780601f10610d5157610100808354040283529160200191610d7c565b820191906000526020600020905b815481529060010190602001808311610d5f57829003601f168201915b5050505050905090565b6000610d93338484612a69565b5060015b92915050565b6065546001600160a01b03163314610dd05760405162461bcd60e51b8152600401610dc7906159a7565b60405180910390fd5b60e1805482919061ff001916610100836002811115610dff57634e487b7160e01b600052602160045260246000fd5b02179055507fd69725c68eba29b963f6ffc152d94583306dcba6646ea6883b459a80244a14a281604051610e3391906158ef565b60405180910390a150565b6000610e4b848484612b8e565b6001600160a01b038416600090815260986020908152604080832033845290915290205482811015610ed05760405162461bcd60e51b815260206004820152602860248201527f45524332303a207472616e7366657220616d6f756e74206578636565647320616044820152676c6c6f77616e636560c01b6064820152608401610dc7565b610edd8533858403612a69565b60019150505b9392505050565b60026001541415610f0d5760405162461bcd60e51b8152600401610dc7906159dc565b600260015533600090815260d06020526040902060cc5461ffff1682610f5b5760405162461bcd60e51b815260206004820152600360248201526254313560e81b6044820152606401610dc7565b815461ffff168114610f955760405162461bcd60e51b8152602060048201526003602482015262150c8d60ea1b6044820152606401610dc7565b81546201000090046001600160681b031683811015610fdc5760405162461bcd60e51b815260206004820152600360248201526254323560e81b6044820152606401610dc7565b610fe68482615d4b565b83546001600160681b0391909116620100000262010000600160781b031990911617835560cd546110219085906001600160801b0316615d4b565b60cd80546001600160801b0319166001600160801b0392909216919091179055604080518581526020810184905233917fab2daf3c146ca6416cbccd2a86ed2ba995e171ef6319df14a38aef01403a9c96910160405180910390a26110863385612bea565b5050600180555050565b600054610100900460ff16806110a9575060005460ff16155b6110c55760405162461bcd60e51b8152600401610dc790615959565b600054610100900460ff161580156110e7576000805461ffff19166101011790555b6110f18787612c07565b611110611101602086018661557f565b85604001358660800135612ef7565b6001600160a01b03821661114b5760405162461bcd60e51b8152602060048201526002602482015261413760f01b6044820152606401610dc7565b60dc5483158015906111725750836111668262015180615d2c565b6111709190615dc3565b155b6111a35760405162461bcd60e51b8152602060048201526002602482015261082760f31b6044820152606401610dc7565b60e1805487919061ff0019166101008360028111156111d257634e487b7160e01b600052602160045260246000fd5b02179055506111e4602086018661557f565b60e3805461ff00191661010083600381111561121057634e487b7160e01b600052602160045260246000fd5b0217905550604085013560e555608085013560e75560e984905560eb81905560ec80546001600160a01b0385166001600160a01b0319918216811790925560ed80549091169091179055836112688262015180615d2c565b6112729190615c2d565b60ea55508015611288576000805461ff00191690555b50505050505050565b6065546001600160a01b031633146112bb5760405162461bcd60e51b8152600401610dc7906159a7565b6001600160a01b0381166112f75760405162461bcd60e51b81526020600482015260036024820152622a189960e91b6044820152606401610dc7565b60d680546001600160a01b0319166001600160a01b0392909216919091179055565b3360008181526098602090815260408083206001600160a01b03871684529091528120549091610d93918590611350908690615c15565b612a69565b60c95460009060ff610100909104168161138b61137160995490565b611379611c7d565b60cd546001600160801b03168561304e565b90506113a061139985612043565b8284613094565b949350505050565b6065546001600160a01b031633146113d25760405162461bcd60e51b8152600401610dc7906159a7565b6001600160a01b03811661140e5760405162461bcd60e51b815260206004820152600360248201526254313360e81b6044820152606401610dc7565b60d580546001600160a01b0319166001600160a01b0392909216919091179055565b6065546001600160a01b0316331461145a5760405162461bcd60e51b8152600401610dc7906159a7565b6001600160a01b0381166114955760405162461bcd60e51b8152602060048201526002602482015261413760f01b6044820152606401610dc7565b60ed80546001600160a01b0319166001600160a01b0392909216919091179055565b6065546001600160a01b031633146114e15760405162461bcd60e51b8152600401610dc7906159a7565b600081116115175760405162461bcd60e51b815260206004820152600360248201526254313160e81b6044820152606401610dc7565b611520816130f6565b60cb54604080516001600160681b039092168252602082018390527f5f86edbb9d92228a9edc3f0ebc0f001bda1ea345ac7335e0eeef3504b31d1a1c910160405180910390a160cb80546cffffffffffffffffffffffffff19166001600160681b0392909216919091179055565b600054610100900460ff16806115a7575060005460ff16155b6115c35760405162461bcd60e51b8152600401610dc790615959565b600054610100900460ff161580156115e5576000805461ffff19166101011790555b6115ef8383612c07565b8015611601576000805461ff00191690555b505050565b6065546001600160a01b031633146116305760405162461bcd60e51b8152600401610dc7906159a7565b6000816001600160801b03161161166f5760405162461bcd60e51b8152602060048201526003602482015262150c4d60ea1b6044820152606401610dc7565b6001600160801b031660da5560cc5460dd805461ffff191661ffff909216919091179055565b60d4546001600160a01b031633146116d45760405162461bcd60e51b8152602060048201526002602482015261543560f01b6044820152606401610dc7565b600260015414156116f75760405162461bcd60e51b8152600401610dc7906159dc565b6002600155611704613140565b60018055565b6065546001600160a01b031633146117345760405162461bcd60e51b8152600401610dc7906159a7565b61173f838383612ef7565b60e3805484919061ff00191661010083600381111561176e57634e487b7160e01b600052602160045260246000fd5b021790555060e582905560e78190556040517f92f0f88bbc5641baceae878b26b793690ec5cd7b48fb4e30c5e0bf46cc261c11906117b1908590859085906158d0565b60405180910390a1505050565b600260015414156117e15760405162461bcd60e51b8152600401610dc7906159dc565b600260018190555061170460006001613246565b6065546001600160a01b0316331461181f5760405162461bcd60e51b8152600401610dc7906159a7565b61182d620f42406064615d2c565b81106118615760405162461bcd60e51b815260206004820152600360248201526205431360ec1b6044820152606401610dc7565b60d75460408051918252602082018390527f24867dfb6fcb9970a07be21024956524abe7a1837faa903ff0e99aaa40cf893e910160405180910390a160d755565b6065546001600160a01b031633146118cc5760405162461bcd60e51b8152600401610dc7906159a7565b6118d660006133e7565b565b600260015414156118fb5760405162461bcd60e51b8152600401610dc7906159dc565b6002600155806119335760405162461bcd60e51b81526020600482015260036024820152620a862760eb1b6044820152606401610dc7565b33600090815260d06020526040902080546201000090046001600160681b031615158061197057508054600160781b90046001600160801b031615155b156119815761198160006001613246565b60cc5433600081815260d260209081526040918290208054835188815261ffff96871693810184905292959194911685149290917f0c53c82ad07e2d592d88ece3b066777dd60f1118e2a081b380efc4358f0d9e2a910160405180910390a281546201000090046001600160801b031660008215611a0a57611a038783615c15565b9050611a5f565b8115611a3e5760405162461bcd60e51b815260206004820152600360248201526254313960e81b6044820152606401610dc7565b5033600090815260d260205260409020805461ffff191661ffff8616179055855b611a6881613439565b33600090815260d26020526040812080546001600160801b03808516620100000262010000600160901b03199092169190911790915560cd54611ab4918a91600160801b900416615c15565b9050611abf81613439565b60cd80546001600160801b03808416600160801b029116179055611ae433308a612b8e565b505060018055505050505050565b600080611b8660ce60010160009054906101000a90046001600160a01b03166001600160a01b031663ade6e2aa6040518163ffffffff1660e01b815260040160206040518083038186803b158015611b4957600080fd5b505afa158015611b5d573d6000803e3d6000fd5b505050506040513d601f19601f82011682018060405250810190611b819190615701565b613483565b915091509091565b6060609b8054610d0390615d8e565b6000611bd2611bab60995490565b611bb3611c7d565b60cd5460c9546001600160801b0390911690610100900460ff1661304e565b905090565b3360009081526098602090815260408083206001600160a01b038616845290915281205482811015611c595760405162461bcd60e51b815260206004820152602560248201527f45524332303a2064656372656173656420616c6c6f77616e63652062656c6f77604482015264207a65726f60d81b6064820152608401610dc7565b611c663385858403612a69565b5060019392505050565b6000610d93338484612b8e565b60c9546040516370a0823160e01b81523060048201526000916201000090046001600160a01b0316906370a082319060240160206040518083038186803b158015611cc757600080fd5b505afa158015611cdb573d6000803e3d6000fd5b505050506040513d601f19601f82011682018060405250810190611cff9190615701565b60cc54611bd291906201000090046001600160681b0316615c15565b600080600080600080611db560ce60010160009054906101000a90046001600160a01b03166001600160a01b031663ade6e2aa6040518163ffffffff1660e01b815260040160206040518083038186803b158015611d7857600080fd5b505afa158015611d8c573d6000803e3d6000fd5b505050506040513d601f19601f82011682018060405250810190611db09190615701565b6134f0565b925092509250600080611dc884846136e5565b50909990985094965093945050505050565b60026001541415611dfd5760405162461bcd60e51b8152600401610dc7906159dc565b600260015580611e355760405162461bcd60e51b815260206004820152600360248201526254313560e81b6044820152606401610dc7565b611e3f813361387f565b60c954611e5d906201000090046001600160a01b0316333084613b04565b5060018055565b60d4546001600160a01b03163314611ea35760405162461bcd60e51b8152602060048201526002602482015261543560f01b6044820152606401610dc7565b60026001541415611ec65760405162461bcd60e51b8152600401610dc7906159dc565b60026001819055506000806000611ede60db54613b75565b60db81905591945092509050611ef3826130f6565b60cc805462010000600160781b031916620100006001600160681b0385160217905560405182815233906001600160a01b038516907f045c558fdce4714c5816d53820d27420f4cd860892df203fe636384d8d19aa019060200160405180910390a3604051632904c23960e01b81526001600160a01b037f0000000000000000000000000000000000000000000000000000000000000000811660048301527f000000000000000000000000000000000000000000000000000000000000000081166024830152841660448201526064810183905273__$2add4d7dc049a04eb39d7a027f8b2a511e$__90632904c2399060840160206040518083038186803b158015611fff57600080fd5b505af4158015612013573d6000803e3d6000fd5b505050506040513d601f19601f820116820180604052508101906120379190615701565b60de5550506001805550565b600080600061205184612882565b90925090506113a08183615c15565b6065546001600160a01b0316331461208a5760405162461bcd60e51b8152600401610dc7906159a7565b600082116120bf5760405162461bcd60e51b8152602060048201526002602482015261413960f01b6044820152606401610dc7565b6000811180156120e45750806120d88362015180615d2c565b6120e29190615dc3565b155b6121155760405162461bcd60e51b8152602060048201526002602482015261082760f31b6044820152606401610dc7565b60e85460dc546040805192835260208301849052820152606081018390527f3ad8535c2e3b95d620c7ac7fcdc1322e4cb738b1006c35a5e403f2cee717d9569060800160405180910390a160e95560eb55565b6065546001600160a01b031633146121925760405162461bcd60e51b8152600401610dc7906159a7565b6001600160a01b0381166121cd5760405162461bcd60e51b81526020600482015260026024820152612a1b60f11b6044820152606401610dc7565b60d480546001600160a01b0319166001600160a01b0392909216919091179055565b600260015414156122125760405162461bcd60e51b8152600401610dc7906159dc565b60026001558061224a5760405162461bcd60e51b81526020600482015260036024820152620a862760eb1b6044820152606401610dc7565b611e5d816000613246565b6065546001600160a01b0316331461227f5760405162461bcd60e51b8152600401610dc7906159a7565b6001600160a01b0381166122ba5760405162461bcd60e51b8152602060048201526002602482015261543760f01b6044820152606401610dc7565b60d3546001600160a01b03828116911614156122fd5760405162461bcd60e51b81526020600482015260026024820152610a8760f31b6044820152606401610dc7565b60d380546001600160a01b0319166001600160a01b0392909216919091179055565b600260015414156123425760405162461bcd60e51b8152600401610dc7906159dc565b600260015560cf546001600160a01b031680600081156123d257816001600160a01b031663ade6e2aa6040518163ffffffff1660e01b815260040160206040518083038186803b15801561239557600080fd5b505afa1580156123a9573d6000803e3d6000fd5b505050506040513d601f19601f820116820180604052508101906123cd9190615701565b6123d5565b60005b905060006001600160a01b0384161561245e57826001600160a01b031663c52987cf6040518163ffffffff1660e01b815260040160206040518083038186803b15801561242157600080fd5b505afa158015612435573d6000803e3d6000fd5b505050506040513d601f19601f820116820180604052508101906124599190615701565b612461565b60005b90506000806000612471856134f0565b925092509250600061248383836136e5565b9250505085421015612511574284106124c45760405162461bcd60e51b815260206004820152600360248201526204131360ec1b6044820152606401610dc7565b6124cc613140565b60cc546201000090046001600160681b0316156125115760405162461bcd60e51b815260206004820152600360248201526241313160e81b6044820152606401610dc7565b801561252d5760ec5461252d906001600160a01b031682612bea565b612535613ef1565b61253f8686614158565b6040805160c0810190915260e380546000929190829060ff16600381111561257757634e487b7160e01b600052602160045260246000fd5b600381111561259657634e487b7160e01b600052602160045260246000fd5b81528154602090910190610100900460ff1660038111156125c757634e487b7160e01b600052602160045260246000fd5b60038111156125e657634e487b7160e01b600052602160045260246000fd5b81526020016001820154815260200160028201548152602001600382015481526020016004820154815250509050806020015160e360000160006101000a81548160ff0219169083600381111561264d57634e487b7160e01b600052602160045260246000fd5b0217905550606081015160e45560a081015160e65560e95460e881905560eb5460dc81905561267f9062015180615d2c565b6126899190615c2d565b60ea55505060ed5460ec80546001600160a01b0319166001600160a01b039092169190911790555050600180555050505050565b6065546001600160a01b031633146126e75760405162461bcd60e51b8152600401610dc7906159a7565b6002600154141561270a5760405162461bcd60e51b8152600401610dc7906159dc565b60026001556001600160a01b03811661274b5760405162461bcd60e51b815260206004820152600360248201526254323960e81b6044820152606401610dc7565b60cf546040516370a0823160e01b81523060048201526001600160a01b03909116906127df90839083906370a082319060240160206040518083038186803b15801561279657600080fd5b505afa1580156127aa573d6000803e3d6000fd5b505050506040513d601f19601f820116820180604052508101906127ce9190615701565b6001600160a01b03841691906144a4565b505060018055565b6065546001600160a01b031633146128115760405162461bcd60e51b8152600401610dc7906159a7565b6001600160a01b0381166128765760405162461bcd60e51b815260206004820152602660248201527f4f776e61626c653a206e6577206f776e657220697320746865207a65726f206160448201526564647265737360d01b6064820152608401610dc7565b61287f816133e7565b50565b6001600160a01b038116600090815260d0602090815260408083208151606081018352905461ffff81168083526201000082046001600160681b031694830194909452600160781b90046001600160801b031691810191909152829160011115612904575050506001600160a01b031660009081526097602052604081205491565b60cc54815161ffff908116600090815260d1602052604081205460c954919361293a93869391169190610100900460ff166144d4565b905061295b856001600160a01b031660009081526097602052604090205490565b9590945092505050565b600260015414156129885760405162461bcd60e51b8152600401610dc7906159dc565b60026001556000612997614545565b90508060db546129a79190615d4b565b6001600160801b031660db555060018055565b6065546001600160a01b031633146129e45760405162461bcd60e51b8152600401610dc7906159a7565b6129f2620f42406064615d2c565b8110612a255760405162461bcd60e51b8152602060048201526002602482015261543960f01b6044820152606401610dc7565b612a2e816146e0565b60d881905560408051918252602082018390527f4e874b007ab14f7e263baefd44951834c8266f4f224d1092e49e9c254354cc549101610e33565b6001600160a01b038316612acb5760405162461bcd60e51b8152602060048201526024808201527f45524332303a20617070726f76652066726f6d20746865207a65726f206164646044820152637265737360e01b6064820152608401610dc7565b6001600160a01b038216612b2c5760405162461bcd60e51b815260206004820152602260248201527f45524332303a20617070726f766520746f20746865207a65726f206164647265604482015261737360f01b6064820152608401610dc7565b6001600160a01b0383811660008181526098602090815260408083209487168084529482529182902085905590518481527f8c5be1e5ebec7d5bd14f71427d1e84f3dd0314c0f7b2291e5b200ac8c7c3b92591015b60405180910390a3505050565b6001600160a01b038216301480612bad57506001600160a01b03831630145b612bdf5760405162461bcd60e51b815260206004820152600360248201526205433360ec1b6044820152606401610dc7565b611601838383614752565b60c9546201000090046001600160a01b03166116018184846144a4565b6040516384d831a960e01b815273__$2add4d7dc049a04eb39d7a027f8b2a511e$__906384d831a990612c439085908590600190600401615a13565b60006040518083038186803b158015612c5b57600080fd5b505af4158015612c6f573d6000803e3d6000fd5b50505050612c7b614920565b612d07612c8b60a0840184615b84565b8080601f016020809104026020016040519081016040528093929190818152602001838380828437600092019190915250612ccd9250505060c0850185615b84565b8080601f01602080910402602001604051908101604052809392919081815260200183838082843760009201919091525061499392505050565b612d0f6149fc565b612d1f610cae6020840184615466565b612d2f6040830160208401615466565b60d480546001600160a01b0319166001600160a01b039290921691909117905561016082013560dc55612d69610100830160e08401615466565b60d580546001600160a01b0319166001600160a01b0392909216919091179055612d9b61012083016101008401615466565b60d680546001600160a01b0319166001600160a01b0392909216919091179055612dcd61014083016101208401615779565b63ffffffff1660d955612de66060830160408401615466565b60d380546001600160a01b0319166001600160a01b0392909216919091179055608082013560d755612e1b60608301356146e0565b60d8558060c9612e2b8282615e40565b505060cc805461ffff1916600117905560c9546040516370a0823160e01b81523060048201526000916001600160a01b036201000090910416906370a082319060240160206040518083038186803b158015612e8657600080fd5b505afa158015612e9a573d6000803e3d6000fd5b505050506040513d601f19601f82011682018060405250810190612ebe9190615701565b9050612ec9816130f6565b60cc80546001600160681b03909216600160781b02600160781b600160e01b03199092169190911790555050565b612710821015612f2e5760405162461bcd60e51b8152602060048201526002602482015261413160f01b6044820152606401610dc7565b6000836003811115612f5057634e487b7160e01b600052602160045260246000fd5b1415612f895780156116015760405162461bcd60e51b8152602060048201526002602482015261209960f11b6044820152606401610dc7565b6003836003811115612fab57634e487b7160e01b600052602160045260246000fd5b1415612fe5578181146116015760405162461bcd60e51b8152602060048201526002602482015261413360f01b6044820152606401610dc7565b6000811161301a5760405162461bcd60e51b8152602060048201526002602482015261104d60f21b6044820152606401610dc7565b8181106116015760405162461bcd60e51b8152602060048201526002602482015261413560f01b6044820152606401610dc7565b60008061305c83600a615c84565b90506000861161306c578061308a565b61308a8661308461307d8888614a63565b8490614a6f565b90614a7b565b9695505050505050565b6000600183116130de5760405162461bcd60e51b8152602060048201526015602482015274496e76616c6964206173736574506572536861726560581b6044820152606401610dc7565b6113a06130ec83600a615c84565b6130848686614a6f565b6001600160681b0381111561287f5760405162461bcd60e51b815260206004820152601060248201526f13dd995c999b1bddc81d5a5b9d0c4c0d60821b6044820152606401610dc7565b60cf546040516358ffbb3d60e01b81526001600160a01b037f000000000000000000000000000000000000000000000000000000000000000081166004830152909116602482015260009073__$2add4d7dc049a04eb39d7a027f8b2a511e$__906358ffbb3d9060440160206040518083038186803b1580156131c257600080fd5b505af41580156131d6573d6000803e3d6000fd5b505050506040513d601f19601f820116820180604052508101906131fa9190615701565b60cc5490915061321a9082906201000090046001600160681b0316615d4b565b60cc80546001600160681b0392909216620100000262010000600160781b031990921691909117905550565b33600090815260d0602090815260408083208151606081018352905461ffff8082168084526201000083046001600160681b031684870152600160781b9092046001600160801b03168385015260cc5491865260d19094529184205460c954919492909316926132c19185918591610100900460ff166144d4565b9050836132ce57846132d0565b805b9450846132de575050505050565b808511156133145760405162461bcd60e51b815260206004820152600360248201526254323360e81b6044820152606401610dc7565b825161ffff168211156133415733600090815260d060205260409020805462010000600160781b03191690555b61334a85613439565b6133548582615d4b565b33600081815260d060205260409081902080546001600160801b0394909416600160781b02600160781b600160f81b0319909416939093179092558451915190917fe5b754fb1abb7f01b499791d0b820ae3b6af3424ac1c59768edb53f4ec31a929916133cd9189825261ffff16602082015260400190565b60405180910390a26133e0303387612b8e565b5050505050565b606580546001600160a01b038381166001600160a01b0319831681179093556040519116919082907f8be0079c531659141344cd1fd0a4f28419497f9722a3daafe3b4186f6b6457e090600090a35050565b6001600160801b0381111561287f5760405162461bcd60e51b815260206004820152601060248201526f09eeccae4ccd8deee40ead2dce86264760831b6044820152606401610dc7565b60e85460ea54600091829142851161349c5760006134bc565b81806134a84288615d4b565b6134b29190615c15565b6134bc9190615c2d565b6134c69082615d4b565b9350816134d38583615d4b565b6134dd9190615d2c565b6134e79086615d4b565b92505050915091565b6000808083613507575060009150819050806136de565b60e85460ea54600090829061351e90600190615d4b565b6135289190615d2c565b6135329087615d4b565b9050600061353f87613483565b60ca548998509092506001600160a01b03169050825b8281116136ad576040516301957f8160e01b81526001600160a01b038381166004830152602482018390526000917f0000000000000000000000000000000000000000000000000000000000000000909116906301957f819060440160206040518083038186803b1580156135c957600080fd5b505afa1580156135dd573d6000803e3d6000fd5b505050506040513d601f19601f820116820180604052508101906136019190615701565b9050600081116136395760405162461bcd60e51b815260206004820152600360248201526220989960e91b6044820152606401610dc7565b60e65460e0546127109161364c91615d2c565b6136569190615c2d565b811061369b57613667600189615c15565b975081965061271060e36001015460e0546136829190615d2c565b61368c9190615c2d565b811061369b57819850506136ad565b506136a68582615c15565b9050613555565b5084156136d957836136bf868a615d4b565b6136c99190615c2d565b60ea546136d69190615d4b565b94505b505050505b9193909250565b60df546000908190819081816136fd6008600a615c84565b6137079190615d4b565b60cc546137249084906201000090046001600160681b0316615d2c565b61372e9190615c2d565b60cd5460c9546040516370a0823160e01b815230600482015292935060009284926001600160801b0316916201000090046001600160a01b0316906370a082319060240160206040518083038186803b15801561378a57600080fd5b505afa15801561379e573d6000803e3d6000fd5b505050506040513d601f19601f820116820180604052508101906137c29190615701565b6137cc9190615d4b565b6137d69190615d4b565b60e35490915060ff166000600282600381111561380357634e487b7160e01b600052602160045260246000fd5b148061382e5750600382600381111561382c57634e487b7160e01b600052602160045260246000fd5b145b61383957600061383c565b60015b905080613849578961384b565b885b60ea5490985061385b8985615d2c565b6138659190615c2d565b96506138718784615d4b565b955050505050509250925092565b60cc5461ffff16600083613891611c7d565b61389b9190615c15565b6001600160a01b038416600090815260d060209081526040918290208251606081018452905461ffff811682526001600160681b036201000082048116938301939093526001600160801b03600160781b909104169281019290925260cb549293509091168211156139355760405162461bcd60e51b81526020600482015260036024820152622a189b60e91b6044820152606401610dc7565b60ca54600160a01b900466ffffffffffffff1682101561397d5760405162461bcd60e51b815260206004820152600360248201526254313760e81b6044820152606401610dc7565b60408051868152602081018590526001600160a01b038616917f90890809c654f11d6e72a28fa60149770a0d11ec6c92319d6ceb2bb0a4ea1a15910160405180910390a2805161ffff16600090815260d1602052604081205460c9546139ef918491879190610100900460ff166144d4565b8251909150869061ffff16851415613a205760008784602001516001600160681b0316613a1c9190615c15565b9150505b613a29816130f6565b6040805160608101825261ffff80881682526001600160681b0380851660208085019182526001600160801b038089168688019081526001600160a01b038e16600090815260d090935296822095518654935197518216600160781b02600160781b600160f81b03199890951662010000026effffffffffffffffffffffffffffff1990941695169490941791909117949094161790915560cd54613ad0918a9116615c15565b9050613adb81613439565b60cd80546001600160801b0319166001600160801b039290921691909117905550505050505050565b6040516001600160a01b0380851660248301528316604482015260648101829052613b6f9085906323b872dd60e01b906084015b60408051601f198184030181529190526020810180516001600160e01b03166001600160e01b031990931692909217909152614a87565b50505050565b60cf5460009081908190600160a01b900463ffffffff16421015613bc15760405162461bcd60e51b81526020600482015260036024820152622a191b60e91b6044820152606401610dc7565b60ce546001600160a01b0316925082613c025760405162461bcd60e51b815260206004820152600360248201526254323760e81b6044820152606401610dc7565b60cc805460d3546040805160a08101825260c954610100810460ff16825291516370a0823160e01b815230600482015261ffff909416946001600160a01b03938416946000948594859473__$2add4d7dc049a04eb39d7a027f8b2a511e$__9463686fb2f2949093919260208401926201000090910416906370a082319060240160206040518083038186803b158015613c9b57600080fd5b505afa158015613caf573d6000803e3d6000fd5b505050506040513d601f19601f82011682018060405250810190613cd39190615701565b8152602001613ce160995490565b81526020018d81526020018960011415613cfc576000613d00565b60d8545b9052604080516001600160e01b031960e086901b168152600481019390935281516024840152602082015160448401528101516064830152606081015160848301526080015160a482015260c40160a06040518083038186803b158015613d6657600080fd5b505af4158015613d7a573d6000803e3d6000fd5b505050506040513d601f19601f82011682018060405250810190613d9e919061573a565b809650819750829550839a50849b5050505050508760ce60010160006101000a8154816001600160a01b0302191690836001600160a01b03160217905550600060ce60000160006101000a8154816001600160a01b0302191690836001600160a01b031602179055508060d1600087815260200190815260200160002081905550836001600160a01b03167fd42b93f751df91c40b94860a26f5e43b9fc78089c1e3df5d4602eee07009e5c68387604051613e63929190918252602082015260400190565b60405180910390a260cd80546001600160801b0319169055613e86856001615c15565b60cc805461ffff191661ffff9290921691909117905550613ea73083614b59565b8015613eb757613eb78382612bea565b613ec36008600a615c84565b60df54613ed09088615d2c565b613eda9190615c2d565b613ee49087615d4b565b9550505050509193909250565b60cf546040805160e0810182526001600160a01b037f0000000000000000000000000000000000000000000000000000000000000000811682527f000000000000000000000000000000000000000000000000000000000000000081166020830190815293811682840181815260006060850181815260dd5461ffff9081166080880190815260da5460a0890190815260dc5460c08a0190815260d65460d55460d9549c51635a90235d60e01b8152918b1660048301528a166024820152604481019b909b528951891660648c01529a51881660848b0152945190961660a4890152905160c4880152935190931660e486015251610104850152935161012484015260c961014484015260cc610164840152909181908190819073__$2add4d7dc049a04eb39d7a027f8b2a511e$__90635a90235d906101840160806040518083038186803b15801561404357600080fd5b505af4158015614057573d6000803e3d6000fd5b505050506040513d601f19601f8201168201806040525081019061407b9190615525565b93509350935093507fa217999b1c125c2a996f712c5f26a28addad7167bd8a67d5bd5b2a751148abb082826040516140bd929190918252602082015260400190565b60405180910390a16140ce836130f6565b60ce80546001600160a01b0319166001600160a01b03861617905560006140f58142615c15565b905063ffffffff8111156141315760405162461bcd60e51b81526020600482015260036024820152620a864760eb1b6044820152606401610dc7565b60cf805463ffffffff60a01b1916600160a01b63ffffffff84160217905561128887614c39565b60ca546040516301957f8160e01b81526001600160a01b039182166004820152602481018490526000917f000000000000000000000000000000000000000000000000000000000000000016906301957f819060440160206040518083038186803b1580156141c657600080fd5b505afa1580156141da573d6000803e3d6000fd5b505050506040513d601f19601f820116820180604052508101906141fe9190615701565b604080516060810190915260e18054929350600092829060ff16600281111561423757634e487b7160e01b600052602160045260246000fd5b600281111561425657634e487b7160e01b600052602160045260246000fd5b81528154602090910190610100900460ff16600281111561428757634e487b7160e01b600052602160045260246000fd5b60028111156142a657634e487b7160e01b600052602160045260246000fd5b81526020016001820154815250509050600081604001511180156142ca5750828211155b80156142d557508342115b156143175760ec54614317906001600160a01b03166142f66008600a615c84565b836040015160de546143089190615d2c565b6143129190615c2d565b612bea565b60ca546040516341976e0960e01b81526001600160a01b0391821660048201526000917f000000000000000000000000000000000000000000000000000000000000000016906341976e099060240160206040518083038186803b15801561437e57600080fd5b505afa158015614392573d6000803e3d6000fd5b505050506040513d601f19601f820116820180604052508101906143b69190615701565b9050600060ce60000160009054906101000a90046001600160a01b03166001600160a01b031663c52987cf6040518163ffffffff1660e01b815260040160206040518083038186803b15801561440b57600080fd5b505afa15801561441f573d6000803e3d6000fd5b505050506040513d601f19601f820116820180604052508101906144439190615701565b905061445483602001518383614da5565b61446383602001518383614e34565b60e255602083015160e1805460ff1916600183600281111561449557634e487b7160e01b600052602160045260246000fd5b02179055505060e05550505050565b6040516001600160a01b03831660248201526044810182905261160190849063a9059cbb60e01b90606401613b38565b835160009061ffff16158015906144ef5750845161ffff1684115b1561453157600061450e86602001516001600160681b03168585614ecc565b6040870151909150614529906001600160801b031682614f2f565b9150506113a0565b50505050604001516001600160801b031690565b33600090815260d26020526040812080546001600160801b03620100008204169061ffff168161459d5760405162461bcd60e51b815260206004820152600360248201526205432360ec1b6044820152606401610dc7565b60cc5461ffff1681106145d85760405162461bcd60e51b815260206004820152600360248201526254323160e81b6044820152606401610dc7565b33600090815260d260205260409020805462010000600160901b031916905560cd54614615908390600160801b90046001600160801b0316615d4b565b60cd80546001600160801b03928316600160801b029216919091179055600081815260d1602052604081205460c95461465891859160ff61010090910416613094565b604080518281526020810186905291925033917ff279e6a1f5e320cca91135676d9cb6e44ca8a08c0b88342bcdb1144f6511b568910160405180910390a26146a03084614f3b565b600081116146d65760405162461bcd60e51b81526020600482015260036024820152622a191960e91b6044820152606401610dc7565b6113a03382612bea565b60dc54600090816146f2601e83615dc3565b1561471557614702600783615c2d565b6147109063031ba309615c2d565b614738565b614720601e83615c2d565b61472b90600c615c2d565b61473890620f4240615d2c565b905080614748620f424086615d2c565b6113a09190615c2d565b6001600160a01b0383166147b65760405162461bcd60e51b815260206004820152602560248201527f45524332303a207472616e736665722066726f6d20746865207a65726f206164604482015264647265737360d81b6064820152608401610dc7565b6001600160a01b0382166148185760405162461bcd60e51b815260206004820152602360248201527f45524332303a207472616e7366657220746f20746865207a65726f206164647260448201526265737360e81b6064820152608401610dc7565b6001600160a01b038316600090815260976020526040902054818110156148905760405162461bcd60e51b815260206004820152602660248201527f45524332303a207472616e7366657220616d6f756e7420657863656564732062604482015265616c616e636560d01b6064820152608401610dc7565b6001600160a01b038085166000908152609760205260408082208585039055918516815290812080548492906148c7908490615c15565b92505081905550826001600160a01b0316846001600160a01b03167fddf252ad1be2c89b69c2b068fc378daa952ba7f163c4a11628f55a4df523b3ef8460405161491391815260200190565b60405180910390a3613b6f565b600054610100900460ff1680614939575060005460ff16155b6149555760405162461bcd60e51b8152600401610dc790615959565b600054610100900460ff16158015614977576000805461ffff19166101011790555b61497f615089565b801561287f576000805461ff001916905550565b600054610100900460ff16806149ac575060005460ff16155b6149c85760405162461bcd60e51b8152600401610dc790615959565b600054610100900460ff161580156149ea576000805461ffff19166101011790555b6149f26150f8565b6115ef8383615162565b600054610100900460ff1680614a15575060005460ff16155b614a315760405162461bcd60e51b8152600401610dc790615959565b600054610100900460ff16158015614a53576000805461ffff19166101011790555b614a5b6150f8565b61497f6151f7565b6000610ee38284615d4b565b6000610ee38284615d2c565b6000610ee38284615c2d565b6000614adc826040518060400160405280602081526020017f5361666545524332303a206c6f772d6c6576656c2063616c6c206661696c6564815250856001600160a01b03166152579092919063ffffffff16565b8051909150156116015780806020019051810190614afa9190615563565b6116015760405162461bcd60e51b815260206004820152602a60248201527f5361666545524332303a204552433230206f7065726174696f6e20646964206e6044820152691bdd081cdd58d8d9595960b21b6064820152608401610dc7565b6001600160a01b038216614baf5760405162461bcd60e51b815260206004820152601f60248201527f45524332303a206d696e7420746f20746865207a65726f2061646472657373006044820152606401610dc7565b8060996000828254614bc19190615c15565b90915550506001600160a01b03821660009081526097602052604081208054839290614bee908490615c15565b90915550506040518181526001600160a01b038316906000907fddf252ad1be2c89b69c2b068fc378daa952ba7f163c4a11628f55a4df523b3ef9060200160405180910390a35b5050565b60cc546201000090046001600160681b03166001600160a01b03821615614c7f5760cc8054600160781b600160e01b031916600160781b6001600160681b038416021790555b60cc805462010000600160781b031916905560cf80546001600160a01b03191690556001600160a01b03821615614c3557604051636c6fe87f60e11b81526001600160a01b037f000000000000000000000000000000000000000000000000000000000000000016600482015260009073__$2add4d7dc049a04eb39d7a027f8b2a511e$__9063d8dfd0fe9060240160206040518083038186803b158015614d2657600080fd5b505af4158015614d3a573d6000803e3d6000fd5b505050506040513d601f19601f82011682018060405250810190614d5e9190615701565b9050336001600160a01b0316836001600160a01b03167f7e830f7c1771deb1bdb35c4a7e6051bbac32b376f7f4e4976b8618b0b11997f783604051612b8191815260200190565b6000836002811115614dc757634e487b7160e01b600052602160045260246000fd5b1480614df257506001836002811115614df057634e487b7160e01b600052602160045260246000fd5b145b15614e2a5781614e046008600a615c84565b614e0e8385615d4b565b614e189190615d2c565b614e229190615c2d565b60df55505050565b600060df55505050565b60006001846002811115614e5857634e487b7160e01b600052602160045260246000fd5b1415610ee357614e688284615d4b565b60c954909150610100900460ff1660088111614ea357614e89816008615d4b565b614e9490600a615c84565b614e9e9083615c2d565b614ec3565b614eae600882615d4b565b614eb990600a615c84565b614ec39083615d2c565b95945050505050565b600060018311614f165760405162461bcd60e51b8152602060048201526015602482015274496e76616c6964206173736574506572536861726560581b6044820152606401610dc7565b6113a083613084614f2885600a615c84565b8790614a6f565b6000610ee38284615c15565b6001600160a01b038216614f9b5760405162461bcd60e51b815260206004820152602160248201527f45524332303a206275726e2066726f6d20746865207a65726f206164647265736044820152607360f81b6064820152608401610dc7565b6001600160a01b0382166000908152609760205260409020548181101561500f5760405162461bcd60e51b815260206004820152602260248201527f45524332303a206275726e20616d6f756e7420657863656564732062616c616e604482015261636560f01b6064820152608401610dc7565b6001600160a01b038316600090815260976020526040812083830390556099805484929061503e908490615d4b565b90915550506040518281526000906001600160a01b038516907fddf252ad1be2c89b69c2b068fc378daa952ba7f163c4a11628f55a4df523b3ef9060200160405180910390a3505050565b600054610100900460ff16806150a2575060005460ff16155b6150be5760405162461bcd60e51b8152600401610dc790615959565b600054610100900460ff161580156150e0576000805461ffff19166101011790555b60018055801561287f576000805461ff001916905550565b600054610100900460ff1680615111575060005460ff16155b61512d5760405162461bcd60e51b8152600401610dc790615959565b600054610100900460ff1615801561497f576000805461ffff1916610101179055801561287f576000805461ff001916905550565b600054610100900460ff168061517b575060005460ff16155b6151975760405162461bcd60e51b8152600401610dc790615959565b600054610100900460ff161580156151b9576000805461ffff19166101011790555b82516151cc90609a906020860190615362565b5081516151e090609b906020850190615362565b508015611601576000805461ff0019169055505050565b600054610100900460ff1680615210575060005460ff16155b61522c5760405162461bcd60e51b8152600401610dc790615959565b600054610100900460ff1615801561524e576000805461ffff19166101011790555b61497f336133e7565b60606113a0848460008585843b6152b05760405162461bcd60e51b815260206004820152601d60248201527f416464726573733a2063616c6c20746f206e6f6e2d636f6e74726163740000006044820152606401610dc7565b600080866001600160a01b031685876040516152cc9190615876565b60006040518083038185875af1925050503d8060008114615309576040519150601f19603f3d011682016040523d82523d6000602084013e61530e565b606091505b509150915061531e828286615329565b979650505050505050565b60608315615338575081610ee3565b8251156153485782518084602001fd5b8160405162461bcd60e51b8152600401610dc79190615926565b82805461536e90615d8e565b90600052602060002090601f01602090048101928261539057600085556153d6565b82601f106153a957805160ff19168380011785556153d6565b828001600101855582156153d6579182015b828111156153d65782518255916020019190600101906153bb565b506153e29291506153e6565b5090565b5b808211156153e257600081556001016153e7565b803561540681615f51565b919050565b80356004811061540657600080fd5b80356003811061540657600080fd5b600060c0828403121561543a578081fd5b50919050565b60006101c0828403121561543a578081fd5b803563ffffffff8116811461540657600080fd5b600060208284031215615477578081fd5b8135610ee381615f51565b60008060408385031215615494578081fd5b823561549f81615f51565b915060208301356154af81615f51565b809150509250929050565b6000806000606084860312156154ce578081fd5b83356154d981615f51565b925060208401356154e981615f51565b929592945050506040919091013590565b6000806040838503121561550c578182fd5b823561551781615f51565b946020939093013593505050565b6000806000806080858703121561553a578081fd5b845161554581615f51565b60208601516040870151606090970151919890975090945092505050565b600060208284031215615574578081fd5b8151610ee381615f66565b600060208284031215615590578081fd5b610ee38261540b565b6000806000606084860312156155ad578283fd5b6155b68461540b565b95602085013595506040909401359392505050565b6000602082840312156155dc578081fd5b610ee38261541a565b60008060e083850312156155f7578182fd5b823567ffffffffffffffff81111561560d578283fd5b61561985828601615440565b9250506156298460208501615429565b90509250929050565b600080600080600080610200878903121561564b578384fd5b863567ffffffffffffffff811115615661578485fd5b61566d89828a01615440565b96505061567d8860208901615429565b945061568b60e0880161541a565b935061569b886101008901615429565b92506101c087013591506101e08701356156b481615f51565b809150509295509295509295565b6000602082840312156156d3578081fd5b81356001600160801b0381168114610ee3578182fd5b6000602082840312156156fa578081fd5b5035919050565b600060208284031215615712578081fd5b5051919050565b6000806040838503121561572b578182fd5b50508035926020909101359150565b600080600080600060a08688031215615751578283fd5b5050835160208501516040860151606087015160809097015192989197509594509092509050565b60006020828403121561578a578081fd5b610ee382615452565b600481106157a3576157a3615e03565b9052565b600381106157a3576157a3615e03565b81835281816020850137506000828201602090810191909152601f909101601f19169091010190565b80356157eb81615f66565b1515825260208101356157fd81615f9e565b60ff166020830152604081013561581381615f51565b6001600160a01b03908116604084015260608201359061583282615f51565b166060830152608081013561584681615f89565b66ffffffffffffff16608083015260a081013561586281615f74565b6001600160681b03811660a0840152505050565b60008251615888818460208701615d62565b9190910192915050565b60c081016158a08289615793565b6158ad6020830188615793565b8560408301528460608301528360808301528260a0830152979650505050505050565b606081016158de8286615793565b602082019390935260400152919050565b60208101610d9782846157a7565b6060810161590b82866157a7565b61591860208301856157a7565b826040830152949350505050565b6020815260008251806020840152615945816040850160208701615d62565b601f01601f19169190910160400192915050565b6020808252602e908201527f496e697469616c697a61626c653a20636f6e747261637420697320616c72656160408201526d191e481a5b9a5d1a585b1a5e995960921b606082015260800190565b6020808252818101527f4f776e61626c653a2063616c6c6572206973206e6f7420746865206f776e6572604082015260600190565b6020808252601f908201527f5265656e7472616e637947756172643a207265656e7472616e742063616c6c00604082015260600190565b6000610100808352615a37818401615a2a886153fb565b6001600160a01b03169052565b615a43602087016153fb565b610120615a5a818601836001600160a01b03169052565b615a66604089016153fb565b9150610140615a7f818701846001600160a01b03169052565b610160925060608901358387015261018060808a013581880152615aa660a08b018b615bd0565b6101c06101a081818c0152615ac06102c08c0184866157b7565b9350615acf60c08f018f615bd0565b8c860360ff1901848e01529350615ae78585836157b7565b945050615af660e08f016153fb565b6001600160a01b0381166101e08d01529250615b13898f016153fb565b6001600160a01b0381166102008d01529850615b30878f01615452565b63ffffffff166102208c0152948d01356102408b01525050938a01356102608801528901356102808701528801356102a0860152509150615b76905060208301856157e0565b8260e0830152949350505050565b6000808335601e19843603018112615b9a578283fd5b83018035915067ffffffffffffffff821115615bb4578283fd5b602001915036819003821315615bc957600080fd5b9250929050565b6000808335601e19843603018112615be6578283fd5b830160208101925035905067ffffffffffffffff811115615c0657600080fd5b803603831315615bc957600080fd5b60008219821115615c2857615c28615dd7565b500190565b600082615c3c57615c3c615ded565b500490565b600181815b80851115615c7c578160001904821115615c6257615c62615dd7565b80851615615c6f57918102915b93841c9390800290615c46565b509250929050565b6000610ee38383600082615c9a57506001610d97565b81615ca757506000610d97565b8160018114615cbd5760028114615cc757615ce3565b6001915050610d97565b60ff841115615cd857615cd8615dd7565b50506001821b610d97565b5060208310610133831016604e8410600b8410161715615d06575081810a610d97565b615d108383615c41565b8060001904821115615d2457615d24615dd7565b029392505050565b6000816000190483118215151615615d4657615d46615dd7565b500290565b600082821015615d5d57615d5d615dd7565b500390565b60005b83811015615d7d578181015183820152602001615d65565b83811115613b6f5750506000910152565b600181811c90821680615da257607f821691505b6020821081141561543a57634e487b7160e01b600052602260045260246000fd5b600082615dd257615dd2615ded565b500690565b634e487b7160e01b600052601160045260246000fd5b634e487b7160e01b600052601260045260246000fd5b634e487b7160e01b600052602160045260246000fd5b60008135610d9781615f51565b60008135610d9781615f74565b60008135610d9781615f89565b8135615e4b81615f66565b815460ff19811691151560ff1691821783556020840135615e6b81615f9e565b61ff008160081b169050808361ffff198416171784556040850135615e8f81615f51565b6001600160b01b0319929092169092179190911760109190911b62010000600160b01b031617815560018101615ee7615eca60608501615e19565b82546001600160a01b0319166001600160a01b0391909116178255565b615f20615ef660808501615e33565b82805466ffffffffffffff60a01b191660a09290921b66ffffffffffffff60a01b16919091179055565b50614c35615f3060a08401615e26565b600283016001600160681b0382166001600160681b03198254161781555050565b6001600160a01b038116811461287f57600080fd5b801515811461287f57600080fd5b6001600160681b038116811461287f57600080fd5b66ffffffffffffff8116811461287f57600080fd5b60ff8116811461287f57600080fdfea264697066735822122080d199ce9084cc195a146422fcf2930f2346974b03e552f467623e5188366f2864736f6c63430008040033",
  "libraries": {
    "VaultLifecycleTreasury": "0xA746B0CEEc022D53665840593a0f673f91Cd856b"
  },
  "devdoc": {
    "kind": "dev",
    "methods": {
      "accountVaultBalance(address)": {
        "params": {
          "account": "is the address to lookup balance for"
        },
        "returns": {
          "_0": "the amount of `asset` custodied by the vault for the user"
        }
      },
      "allowance(address,address)": {
        "details": "See {IERC20-allowance}."
      },
      "approve(address,uint256)": {
        "details": "See {IERC20-approve}. Requirements: - `spender` cannot be the zero address."
      },
      "balanceOf(address)": {
        "details": "See {IERC20-balanceOf}."
      },
      "commitAndClose()": {
        "details": "Overrides RibbonTreasuryVault commitAndClose()"
      },
      "constructor": {
        "params": {
          "_gammaController": "is the contract address for opyn actions",
          "_marginPool": "is the contract address for providing collateral to opyn",
          "_oTokenFactory": "is the contract address for minting new opyn option types (strikes, asset, expiry)",
          "_usdc": "is the USDC contract"
        }
      },
      "couponsEarned()": {
        "details": "Gets coupons earned so far",
        "returns": {
          "_0": "the number of coupons earned",
          "_1": "coupons earned in USDC",
          "_2": "minimum between autocall timestamp and expiry"
        }
      },
      "decreaseAllowance(address,uint256)": {
        "details": "Atomically decreases the allowance granted to `spender` by the caller. This is an alternative to {approve} that can be used as a mitigation for problems described in {IERC20-approve}. Emits an {Approval} event indicating the updated allowance. Requirements: - `spender` cannot be the zero address. - `spender` must have allowance for the caller of at least `subtractedValue`."
      },
      "deposit(uint256)": {
        "params": {
          "amount": "is the amount of `asset` to deposit"
        }
      },
      "increaseAllowance(address,uint256)": {
        "details": "Atomically increases the allowance granted to `spender` by the caller. This is an alternative to {approve} that can be used as a mitigation for problems described in {IERC20-approve}. Emits an {Approval} event indicating the updated allowance. Requirements: - `spender` cannot be the zero address."
      },
      "initialize((address,address,address,uint256,uint256,string,string,address,address,uint32,uint256,uint256,uint256,uint256),(bool,uint8,address,address,uint56,uint104),uint8,(uint8,uint8,uint256,uint256,uint256,uint256),uint256,address)": {
        "params": {
          "_autocallSeller": "is the autocall seller",
          "_couponState": "is the coupon state",
          "_initParams": "is the struct with vault initialization parameters",
          "_obsFreq": "is the observation frequency of autocall",
          "_optionType": "is type of the next put option",
          "_vaultParams": "is the struct with vault general data"
        }
      },
      "initiateWithdraw(uint256)": {
        "params": {
          "numShares": "is the number of shares to withdraw"
        }
      },
      "lastObservation()": {
        "details": "Returns the last autocall observation timestamp and index",
        "returns": {
          "_0": "the last observation timestamp",
          "_1": "the last observation index"
        }
      },
      "name()": {
        "details": "Returns the name of the token."
      },
      "owner()": {
        "details": "Returns the address of the current owner."
      },
      "redeem(uint256)": {
        "params": {
          "numShares": "is the number of shares to redeem"
        }
      },
      "renounceOwnership()": {
        "details": "Leaves the contract without owner. It will not be possible to call `onlyOwner` functions anymore. Can only be called by the current owner. NOTE: Renouncing ownership will leave the contract without an owner, thereby removing any functionality that is only available to the owner."
      },
      "sendOTokens(address)": {
        "params": {
          "_buyer": "is the buyer of the oToken"
        }
      },
      "setAutocallSeller(address)": {
        "params": {
          "_autocallSeller": "is the autocall seller address"
        }
      },
      "setCap(uint256)": {
        "params": {
          "newCap": "is the new cap for deposits"
        }
      },
      "setCouponState(uint8,uint256,uint256)": {
        "params": {
          "_AB": "is the autocall barrier pct",
          "_CB": "is the coupon barrier pct",
          "_couponType": "is the coupon type"
        }
      },
      "setFeeRecipient(address)": {
        "params": {
          "newFeeRecipient": "is the address of the new fee recipient"
        }
      },
      "setManagementFee(uint256)": {
        "params": {
          "newManagementFee": "is the management fee (6 decimals). ex: 2 * 10 ** 6 = 2%"
        }
      },
      "setNewKeeper(address)": {
        "params": {
          "newKeeper": "is the address of the new keeper"
        }
      },
      "setOptionType(uint8)": {
        "params": {
          "_optionType": "is the next option type"
        }
      },
      "setOptionsPremiumPricer(address)": {
        "params": {
          "newOptionsPremiumPricer": "is the address of the new options premium pricer contract"
        }
      },
      "setPerformanceFee(uint256)": {
        "params": {
          "newPerformanceFee": "is the performance fee (6 decimals). ex: 20 * 10 ** 6 = 20%"
        }
      },
      "setPeriodAndObservationFrequency(uint256,uint256)": {
        "params": {
          "_obsFreq": "is the autocall observation period frequency",
          "_period": "is the period"
        }
      },
      "setStrikePrice(uint128)": {
        "params": {
          "strikePrice": "is the strike price of the new oTokens (decimals = 8)"
        }
      },
      "setStrikeSelection(address)": {
        "params": {
          "newStrikeSelection": "is the address of the new strike selection contract"
        }
      },
      "shareBalances(address)": {
        "params": {
          "account": "is the account to lookup share balance for"
        },
        "returns": {
          "heldByAccount": "is the shares held by account",
          "heldByVault": "is the shares held on the vault (unredeemedShares)"
        }
      },
      "shares(address)": {
        "params": {
          "account": "is the account to lookup share balance for"
        },
        "returns": {
          "_0": "the share balance"
        }
      },
      "symbol()": {
        "details": "Returns the symbol of the token, usually a shorter version of the name."
      },
      "totalBalance()": {
        "returns": {
          "_0": "total balance of the vault, including the amounts locked in third party protocols"
        }
      },
      "totalSupply()": {
        "details": "See {IERC20-totalSupply}."
      },
      "transfer(address,uint256)": {
        "details": "See {IERC20-transfer}. Requirements: - `recipient` cannot be the zero address. - the caller must have a balance of at least `amount`."
      },
      "transferFrom(address,address,uint256)": {
        "details": "See {IERC20-transferFrom}. Emits an {Approval} event indicating the updated allowance. This is not required by the EIP. See the note at the beginning of {ERC20}. Requirements: - `sender` and `recipient` cannot be the zero address. - `sender` must have a balance of at least `amount`. - the caller must have allowance for ``sender``'s tokens of at least `amount`."
      },
      "transferOwnership(address)": {
        "details": "Transfers ownership of the contract to a new account (`newOwner`). Can only be called by the current owner."
      },
      "withdrawInstantly(uint256)": {
        "params": {
          "amount": "is the amount to withdraw"
        }
      }
    },
    "version": 1
  },
  "userdoc": {
    "kind": "user",
    "methods": {
      "DELAY()": {
        "notice": "15 minute timelock between commitAndClose and rollToNexOption."
      },
      "OTOKEN_FACTORY()": {
        "notice": "OTOKEN_FACTORY is the factory contract used to spawn otokens. Used to lookup otokens."
      },
      "USDC()": {
        "notice": "USDC 0xA0b86991c6218b36c1d19D4a2e9Eb0cE3606eB48"
      },
      "accountVaultBalance(address)": {
        "notice": "Returns the asset balance held on the vault for the account"
      },
      "burnRemainingOTokens()": {
        "notice": "Burn the remaining oTokens left over from gnosis auction."
      },
      "cap()": {
        "notice": "Returns the maximum capacity of the vault in terms of the vault's asset"
      },
      "completeWithdraw()": {
        "notice": "Completes a scheduled withdrawal from a past round. Uses finalized pps for the round"
      },
      "constructor": {
        "notice": "Initializes the contract with immutable variables"
      },
      "currentOption()": {
        "notice": "Returns the options specification for the current round"
      },
      "decimals()": {
        "notice": "Returns the token decimals"
      },
      "deposit(uint256)": {
        "notice": "Deposits the `asset` from msg.sender."
      },
      "depositReceipts(address)": {
        "notice": "Stores the user's pending deposit for the round"
      },
      "feeRecipient()": {
        "notice": "Fee recipient for the performance and management fees"
      },
      "initialize((address,address,address,uint256,uint256,string,string,address,address,uint32,uint256,uint256,uint256,uint256),(bool,uint8,address,address,uint56,uint104))": {
        "notice": "Initializes the OptionVault contract with storage variables."
      },
      "initialize((address,address,address,uint256,uint256,string,string,address,address,uint32,uint256,uint256,uint256,uint256),(bool,uint8,address,address,uint56,uint104),uint8,(uint8,uint8,uint256,uint256,uint256,uint256),uint256,address)": {
        "notice": "Initializes the OptionVault contract with storage variables."
      },
      "initiateWithdraw(uint256)": {
        "notice": "Initiates a withdrawal that can be processed once the round completes"
      },
      "keeper()": {
        "notice": "role in charge of weekly vault operations such as rollToNextOption and burnRemainingOTokens"
      },
      "lastQueuedWithdrawAmount()": {
        "notice": "Amount locked for scheduled withdrawals last week;"
      },
      "lastStrikeOverrideRound()": {
        "notice": "Last round id at which the strike was manually overridden"
      },
      "managementFee()": {
        "notice": "Management fee charged on entire AUM in rollToNextOption. Only charged when there is no loss."
      },
      "maxRedeem()": {
        "notice": "Redeems the entire unredeemedShares balance that is owed to the account"
      },
      "nextOption()": {
        "notice": "Returns the options specification for the next round"
      },
      "nextOptionReadyAt()": {
        "notice": "Returns the date and time for the next options sale"
      },
      "oTokenMintAmount()": {
        "notice": "Amount of otokens minted in current round"
      },
      "optionState()": {
        "notice": "Vault's state of the options sold and the timelocked option"
      },
      "optionsPremiumPricer()": {
        "notice": "Logic contract used to price options"
      },
      "overriddenStrikePrice()": {
        "notice": "Price last overridden strike set to"
      },
      "performanceFee()": {
        "notice": "Performance fee charged on premiums earned in rollToNextOption. Only charged when there is no loss."
      },
      "period()": {
        "notice": "Period between each options sale. Available options 7 (weekly), 14 (biweekly), 30 (monthly), 90 (quarterly), 180 (biannually)"
      },
      "premiumDiscount()": {
        "notice": "Premium discount on options we are selling (thousandths place: 000 - 999)"
      },
      "pricePerShare()": {
        "notice": "The price of a unit of share denominated in the `asset`"
      },
      "redeem(uint256)": {
        "notice": "Redeems shares that are owed to the account"
      },
      "rollToNextOption()": {
        "notice": "Rolls the vault's funds into a new short position."
      },
      "roundPricePerShare(uint256)": {
        "notice": "On every round's close, the pricePerShare value of an rTHETA token is stored This is used to determine the number of shares to be returned to a user with their DepositReceipt.depositAmount"
      },
      "sendOTokens(address)": {
        "notice": "Sends oToken to buyer"
      },
      "setAutocallSeller(address)": {
        "notice": "Sets the new autocall seller"
      },
      "setCap(uint256)": {
        "notice": "Sets a new cap for deposits"
      },
      "setCouponState(uint8,uint256,uint256)": {
        "notice": "Sets the new coupon state"
      },
      "setFeeRecipient(address)": {
        "notice": "Sets the new fee recipient"
      },
      "setManagementFee(uint256)": {
        "notice": "Sets the management fee for the vault"
      },
      "setNewKeeper(address)": {
        "notice": "Sets the new keeper"
      },
      "setOptionType(uint8)": {
        "notice": "Sets next option type"
      },
      "setOptionsPremiumPricer(address)": {
        "notice": "Sets the new options premium pricer contract"
      },
      "setPerformanceFee(uint256)": {
        "notice": "Sets the performance fee for the vault"
      },
      "setPeriodAndObservationFrequency(uint256,uint256)": {
        "notice": "Sets the new period and autocall observation period frequency"
      },
      "setStrikePrice(uint128)": {
        "notice": "Optionality to set strike price manually"
      },
      "setStrikeSelection(address)": {
        "notice": "Sets the new strike selection contract"
      },
      "shareBalances(address)": {
        "notice": "Getter for returning the account's share balance split between account and vault holdings"
      },
      "shares(address)": {
        "notice": "Getter for returning the account's share balance including unredeemed shares"
      },
      "strikeSelection()": {
        "notice": "Logic contract used to select strike prices"
      },
      "totalBalance()": {
        "notice": "Returns the vault's total balance, including the amounts locked into a short position"
      },
      "totalPending()": {
        "notice": "Returns total pending deposit for the current round"
      },
      "vaultParams()": {
        "notice": "Vault's parameters like cap, decimals"
      },
      "vaultState()": {
        "notice": "Vault's lifecycle state like round and locked amounts"
      },
      "withdrawInstantly(uint256)": {
        "notice": "Withdraws the assets on the vault using the outstanding `DepositReceipt.amount`"
      },
      "withdrawals(address)": {
        "notice": "Stores pending user withdrawals"
      }
    },
    "notice": "Autocall Vault Error Codes A1: !_AB A2: !FIXED A3: !VANILLA A4: !_CB A5: !PHOENIX A7: !_autocallSeller A8: !_obsFreq A9: !_period A10: !autocall A11: !withdrawnCollateral A12: !obsPrice",
    "version": 1
  },
  "storageLayout": {
    "storage": [
      {
        "astId": 176,
        "contract": "contracts/vaults/TreasuryVault/RibbonAutocallVault.sol:RibbonAutocallVault",
        "label": "_initialized",
        "offset": 0,
        "slot": "0",
        "type": "t_bool"
      },
      {
        "astId": 179,
        "contract": "contracts/vaults/TreasuryVault/RibbonAutocallVault.sol:RibbonAutocallVault",
        "label": "_initializing",
        "offset": 1,
        "slot": "0",
        "type": "t_bool"
      },
      {
        "astId": 230,
        "contract": "contracts/vaults/TreasuryVault/RibbonAutocallVault.sol:RibbonAutocallVault",
        "label": "_status",
        "offset": 0,
        "slot": "1",
        "type": "t_uint256"
      },
      {
        "astId": 273,
        "contract": "contracts/vaults/TreasuryVault/RibbonAutocallVault.sol:RibbonAutocallVault",
        "label": "__gap",
        "offset": 0,
        "slot": "2",
        "type": "t_array(t_uint256)49_storage"
      },
      {
        "astId": 993,
        "contract": "contracts/vaults/TreasuryVault/RibbonAutocallVault.sol:RibbonAutocallVault",
        "label": "__gap",
        "offset": 0,
        "slot": "51",
        "type": "t_array(t_uint256)50_storage"
      },
      {
        "astId": 56,
        "contract": "contracts/vaults/TreasuryVault/RibbonAutocallVault.sol:RibbonAutocallVault",
        "label": "_owner",
        "offset": 0,
        "slot": "101",
        "type": "t_address"
      },
      {
        "astId": 169,
        "contract": "contracts/vaults/TreasuryVault/RibbonAutocallVault.sol:RibbonAutocallVault",
        "label": "__gap",
        "offset": 0,
        "slot": "102",
        "type": "t_array(t_uint256)49_storage"
      },
      {
        "astId": 293,
        "contract": "contracts/vaults/TreasuryVault/RibbonAutocallVault.sol:RibbonAutocallVault",
        "label": "_balances",
        "offset": 0,
        "slot": "151",
        "type": "t_mapping(t_address,t_uint256)"
      },
      {
        "astId": 299,
        "contract": "contracts/vaults/TreasuryVault/RibbonAutocallVault.sol:RibbonAutocallVault",
        "label": "_allowances",
        "offset": 0,
        "slot": "152",
        "type": "t_mapping(t_address,t_mapping(t_address,t_uint256))"
      },
      {
        "astId": 301,
        "contract": "contracts/vaults/TreasuryVault/RibbonAutocallVault.sol:RibbonAutocallVault",
        "label": "_totalSupply",
        "offset": 0,
        "slot": "153",
        "type": "t_uint256"
      },
      {
        "astId": 303,
        "contract": "contracts/vaults/TreasuryVault/RibbonAutocallVault.sol:RibbonAutocallVault",
        "label": "_name",
        "offset": 0,
        "slot": "154",
        "type": "t_string_storage"
      },
      {
        "astId": 305,
        "contract": "contracts/vaults/TreasuryVault/RibbonAutocallVault.sol:RibbonAutocallVault",
        "label": "_symbol",
        "offset": 0,
        "slot": "155",
        "type": "t_string_storage"
      },
      {
        "astId": 846,
        "contract": "contracts/vaults/TreasuryVault/RibbonAutocallVault.sol:RibbonAutocallVault",
        "label": "__gap",
        "offset": 0,
        "slot": "156",
        "type": "t_array(t_uint256)45_storage"
      },
      {
        "astId": 16176,
        "contract": "contracts/vaults/TreasuryVault/RibbonAutocallVault.sol:RibbonAutocallVault",
        "label": "vaultParams",
        "offset": 0,
        "slot": "201",
        "type": "t_struct(VaultParams)6649_storage"
      },
      {
        "astId": 16180,
        "contract": "contracts/vaults/TreasuryVault/RibbonAutocallVault.sol:RibbonAutocallVault",
        "label": "vaultState",
        "offset": 0,
        "slot": "204",
        "type": "t_struct(VaultState)6667_storage"
      },
      {
        "astId": 16184,
        "contract": "contracts/vaults/TreasuryVault/RibbonAutocallVault.sol:RibbonAutocallVault",
        "label": "optionState",
        "offset": 0,
        "slot": "206",
        "type": "t_struct(OptionState)6656_storage"
      },
      {
        "astId": 16190,
        "contract": "contracts/vaults/TreasuryVault/RibbonAutocallVault.sol:RibbonAutocallVault",
        "label": "depositReceipts",
        "offset": 0,
        "slot": "208",
        "type": "t_mapping(t_address,t_struct(DepositReceipt)6674_storage)"
      },
      {
        "astId": 16195,
        "contract": "contracts/vaults/TreasuryVault/RibbonAutocallVault.sol:RibbonAutocallVault",
        "label": "roundPricePerShare",
        "offset": 0,
        "slot": "209",
        "type": "t_mapping(t_uint256,t_uint256)"
      },
      {
        "astId": 16201,
        "contract": "contracts/vaults/TreasuryVault/RibbonAutocallVault.sol:RibbonAutocallVault",
        "label": "withdrawals",
        "offset": 0,
        "slot": "210",
        "type": "t_mapping(t_address,t_struct(Withdrawal)6679_storage)"
      },
      {
        "astId": 16204,
        "contract": "contracts/vaults/TreasuryVault/RibbonAutocallVault.sol:RibbonAutocallVault",
        "label": "feeRecipient",
        "offset": 0,
        "slot": "211",
        "type": "t_address"
      },
      {
        "astId": 16207,
        "contract": "contracts/vaults/TreasuryVault/RibbonAutocallVault.sol:RibbonAutocallVault",
        "label": "keeper",
        "offset": 0,
        "slot": "212",
        "type": "t_address"
      },
      {
        "astId": 16210,
        "contract": "contracts/vaults/TreasuryVault/RibbonAutocallVault.sol:RibbonAutocallVault",
        "label": "optionsPremiumPricer",
        "offset": 0,
        "slot": "213",
        "type": "t_address"
      },
      {
        "astId": 16213,
        "contract": "contracts/vaults/TreasuryVault/RibbonAutocallVault.sol:RibbonAutocallVault",
        "label": "strikeSelection",
        "offset": 0,
        "slot": "214",
        "type": "t_address"
      },
      {
        "astId": 16216,
        "contract": "contracts/vaults/TreasuryVault/RibbonAutocallVault.sol:RibbonAutocallVault",
        "label": "performanceFee",
        "offset": 0,
        "slot": "215",
        "type": "t_uint256"
      },
      {
        "astId": 16219,
        "contract": "contracts/vaults/TreasuryVault/RibbonAutocallVault.sol:RibbonAutocallVault",
        "label": "managementFee",
        "offset": 0,
        "slot": "216",
        "type": "t_uint256"
      },
      {
        "astId": 16222,
        "contract": "contracts/vaults/TreasuryVault/RibbonAutocallVault.sol:RibbonAutocallVault",
        "label": "premiumDiscount",
        "offset": 0,
        "slot": "217",
        "type": "t_uint256"
      },
      {
        "astId": 16225,
        "contract": "contracts/vaults/TreasuryVault/RibbonAutocallVault.sol:RibbonAutocallVault",
        "label": "overriddenStrikePrice",
        "offset": 0,
        "slot": "218",
        "type": "t_uint256"
      },
      {
        "astId": 16228,
        "contract": "contracts/vaults/TreasuryVault/RibbonAutocallVault.sol:RibbonAutocallVault",
        "label": "lastQueuedWithdrawAmount",
        "offset": 0,
        "slot": "219",
        "type": "t_uint256"
      },
      {
        "astId": 16231,
        "contract": "contracts/vaults/TreasuryVault/RibbonAutocallVault.sol:RibbonAutocallVault",
        "label": "period",
        "offset": 0,
        "slot": "220",
        "type": "t_uint256"
      },
      {
        "astId": 16234,
        "contract": "contracts/vaults/TreasuryVault/RibbonAutocallVault.sol:RibbonAutocallVault",
        "label": "lastStrikeOverrideRound",
        "offset": 0,
        "slot": "221",
        "type": "t_uint16"
      },
      {
        "astId": 16237,
        "contract": "contracts/vaults/TreasuryVault/RibbonAutocallVault.sol:RibbonAutocallVault",
        "label": "oTokenMintAmount",
        "offset": 0,
        "slot": "222",
        "type": "t_uint256"
      },
      {
        "astId": 16240,
        "contract": "contracts/vaults/TreasuryVault/RibbonAutocallVault.sol:RibbonAutocallVault",
        "label": "reserveRatio",
        "offset": 0,
        "slot": "223",
        "type": "t_uint256"
      },
      {
        "astId": 15968,
        "contract": "contracts/vaults/TreasuryVault/RibbonAutocallVault.sol:RibbonAutocallVault",
        "label": "initialSpotPrice",
        "offset": 0,
        "slot": "224",
        "type": "t_uint256"
      },
      {
        "astId": 15971,
        "contract": "contracts/vaults/TreasuryVault/RibbonAutocallVault.sol:RibbonAutocallVault",
        "label": "putOption",
        "offset": 0,
        "slot": "225",
        "type": "t_struct(PutOption)15951_storage"
      },
      {
        "astId": 15974,
        "contract": "contracts/vaults/TreasuryVault/RibbonAutocallVault.sol:RibbonAutocallVault",
        "label": "couponState",
        "offset": 0,
        "slot": "227",
        "type": "t_struct(CouponState)15966_storage"
      },
      {
        "astId": 15976,
        "contract": "contracts/vaults/TreasuryVault/RibbonAutocallVault.sol:RibbonAutocallVault",
        "label": "obsFreq",
        "offset": 0,
        "slot": "232",
        "type": "t_uint256"
      },
      {
        "astId": 15978,
        "contract": "contracts/vaults/TreasuryVault/RibbonAutocallVault.sol:RibbonAutocallVault",
        "label": "nObsFreq",
        "offset": 0,
        "slot": "233",
        "type": "t_uint256"
      },
      {
        "astId": 15980,
        "contract": "contracts/vaults/TreasuryVault/RibbonAutocallVault.sol:RibbonAutocallVault",
        "label": "numTotalObs",
        "offset": 0,
        "slot": "234",
        "type": "t_uint256"
      },
      {
        "astId": 15982,
        "contract": "contracts/vaults/TreasuryVault/RibbonAutocallVault.sol:RibbonAutocallVault",
        "label": "nPeriod",
        "offset": 0,
        "slot": "235",
        "type": "t_uint256"
      },
      {
        "astId": 15984,
        "contract": "contracts/vaults/TreasuryVault/RibbonAutocallVault.sol:RibbonAutocallVault",
        "label": "autocallSeller",
        "offset": 0,
        "slot": "236",
        "type": "t_address"
      },
      {
        "astId": 15986,
        "contract": "contracts/vaults/TreasuryVault/RibbonAutocallVault.sol:RibbonAutocallVault",
        "label": "nAutocallSeller",
        "offset": 0,
        "slot": "237",
        "type": "t_address"
      }
    ],
    "types": {
      "t_address": {
        "encoding": "inplace",
        "label": "address",
        "numberOfBytes": "20"
      },
      "t_array(t_uint256)45_storage": {
        "base": "t_uint256",
        "encoding": "inplace",
        "label": "uint256[45]",
        "numberOfBytes": "1440"
      },
      "t_array(t_uint256)49_storage": {
        "base": "t_uint256",
        "encoding": "inplace",
        "label": "uint256[49]",
        "numberOfBytes": "1568"
      },
      "t_array(t_uint256)50_storage": {
        "base": "t_uint256",
        "encoding": "inplace",
        "label": "uint256[50]",
        "numberOfBytes": "1600"
      },
      "t_bool": {
        "encoding": "inplace",
        "label": "bool",
        "numberOfBytes": "1"
      },
      "t_enum(CouponType)15942": {
        "encoding": "inplace",
        "label": "enum AutocallVaultStorageV1.CouponType",
        "numberOfBytes": "1"
      },
      "t_enum(OptionType)15937": {
        "encoding": "inplace",
        "label": "enum AutocallVaultStorageV1.OptionType",
        "numberOfBytes": "1"
      },
      "t_mapping(t_address,t_mapping(t_address,t_uint256))": {
        "encoding": "mapping",
        "key": "t_address",
        "label": "mapping(address => mapping(address => uint256))",
        "numberOfBytes": "32",
        "value": "t_mapping(t_address,t_uint256)"
      },
      "t_mapping(t_address,t_struct(DepositReceipt)6674_storage)": {
        "encoding": "mapping",
        "key": "t_address",
        "label": "mapping(address => struct Vault.DepositReceipt)",
        "numberOfBytes": "32",
        "value": "t_struct(DepositReceipt)6674_storage"
      },
      "t_mapping(t_address,t_struct(Withdrawal)6679_storage)": {
        "encoding": "mapping",
        "key": "t_address",
        "label": "mapping(address => struct Vault.Withdrawal)",
        "numberOfBytes": "32",
        "value": "t_struct(Withdrawal)6679_storage"
      },
      "t_mapping(t_address,t_uint256)": {
        "encoding": "mapping",
        "key": "t_address",
        "label": "mapping(address => uint256)",
        "numberOfBytes": "32",
        "value": "t_uint256"
      },
      "t_mapping(t_uint256,t_uint256)": {
        "encoding": "mapping",
        "key": "t_uint256",
        "label": "mapping(uint256 => uint256)",
        "numberOfBytes": "32",
        "value": "t_uint256"
      },
      "t_string_storage": {
        "encoding": "bytes",
        "label": "string",
        "numberOfBytes": "32"
      },
      "t_struct(CouponState)15966_storage": {
        "encoding": "inplace",
        "label": "struct AutocallVaultStorageV1.CouponState",
        "members": [
          {
            "astId": 15954,
            "contract": "contracts/vaults/TreasuryVault/RibbonAutocallVault.sol:RibbonAutocallVault",
            "label": "couponType",
            "offset": 0,
            "slot": "0",
            "type": "t_enum(CouponType)15942"
          },
          {
            "astId": 15957,
            "contract": "contracts/vaults/TreasuryVault/RibbonAutocallVault.sol:RibbonAutocallVault",
            "label": "nCouponType",
            "offset": 1,
            "slot": "0",
            "type": "t_enum(CouponType)15942"
          },
          {
            "astId": 15959,
            "contract": "contracts/vaults/TreasuryVault/RibbonAutocallVault.sol:RibbonAutocallVault",
            "label": "AB",
            "offset": 0,
            "slot": "1",
            "type": "t_uint256"
          },
          {
            "astId": 15961,
            "contract": "contracts/vaults/TreasuryVault/RibbonAutocallVault.sol:RibbonAutocallVault",
            "label": "nAB",
            "offset": 0,
            "slot": "2",
            "type": "t_uint256"
          },
          {
            "astId": 15963,
            "contract": "contracts/vaults/TreasuryVault/RibbonAutocallVault.sol:RibbonAutocallVault",
            "label": "CB",
            "offset": 0,
            "slot": "3",
            "type": "t_uint256"
          },
          {
            "astId": 15965,
            "contract": "contracts/vaults/TreasuryVault/RibbonAutocallVault.sol:RibbonAutocallVault",
            "label": "nCB",
            "offset": 0,
            "slot": "4",
            "type": "t_uint256"
          }
        ],
        "numberOfBytes": "160"
      },
      "t_struct(DepositReceipt)6674_storage": {
        "encoding": "inplace",
        "label": "struct Vault.DepositReceipt",
        "members": [
          {
            "astId": 6669,
            "contract": "contracts/vaults/TreasuryVault/RibbonAutocallVault.sol:RibbonAutocallVault",
            "label": "round",
            "offset": 0,
            "slot": "0",
            "type": "t_uint16"
          },
          {
            "astId": 6671,
            "contract": "contracts/vaults/TreasuryVault/RibbonAutocallVault.sol:RibbonAutocallVault",
            "label": "amount",
            "offset": 2,
            "slot": "0",
            "type": "t_uint104"
          },
          {
            "astId": 6673,
            "contract": "contracts/vaults/TreasuryVault/RibbonAutocallVault.sol:RibbonAutocallVault",
            "label": "unredeemedShares",
            "offset": 15,
            "slot": "0",
            "type": "t_uint128"
          }
        ],
        "numberOfBytes": "32"
      },
      "t_struct(OptionState)6656_storage": {
        "encoding": "inplace",
        "label": "struct Vault.OptionState",
        "members": [
          {
            "astId": 6651,
            "contract": "contracts/vaults/TreasuryVault/RibbonAutocallVault.sol:RibbonAutocallVault",
            "label": "nextOption",
            "offset": 0,
            "slot": "0",
            "type": "t_address"
          },
          {
            "astId": 6653,
            "contract": "contracts/vaults/TreasuryVault/RibbonAutocallVault.sol:RibbonAutocallVault",
            "label": "currentOption",
            "offset": 0,
            "slot": "1",
            "type": "t_address"
          },
          {
            "astId": 6655,
            "contract": "contracts/vaults/TreasuryVault/RibbonAutocallVault.sol:RibbonAutocallVault",
            "label": "nextOptionReadyAt",
            "offset": 20,
            "slot": "1",
            "type": "t_uint32"
          }
        ],
        "numberOfBytes": "64"
      },
      "t_struct(PutOption)15951_storage": {
        "encoding": "inplace",
        "label": "struct AutocallVaultStorageV1.PutOption",
        "members": [
          {
            "astId": 15945,
            "contract": "contracts/vaults/TreasuryVault/RibbonAutocallVault.sol:RibbonAutocallVault",
            "label": "optionType",
            "offset": 0,
            "slot": "0",
            "type": "t_enum(OptionType)15937"
          },
          {
            "astId": 15948,
            "contract": "contracts/vaults/TreasuryVault/RibbonAutocallVault.sol:RibbonAutocallVault",
            "label": "nOptionType",
            "offset": 1,
            "slot": "0",
            "type": "t_enum(OptionType)15937"
          },
          {
            "astId": 15950,
            "contract": "contracts/vaults/TreasuryVault/RibbonAutocallVault.sol:RibbonAutocallVault",
            "label": "payoff",
            "offset": 0,
            "slot": "1",
            "type": "t_uint256"
          }
        ],
        "numberOfBytes": "64"
      },
      "t_struct(VaultParams)6649_storage": {
        "encoding": "inplace",
        "label": "struct Vault.VaultParams",
        "members": [
          {
            "astId": 6638,
            "contract": "contracts/vaults/TreasuryVault/RibbonAutocallVault.sol:RibbonAutocallVault",
            "label": "isPut",
            "offset": 0,
            "slot": "0",
            "type": "t_bool"
          },
          {
            "astId": 6640,
            "contract": "contracts/vaults/TreasuryVault/RibbonAutocallVault.sol:RibbonAutocallVault",
            "label": "decimals",
            "offset": 1,
            "slot": "0",
            "type": "t_uint8"
          },
          {
            "astId": 6642,
            "contract": "contracts/vaults/TreasuryVault/RibbonAutocallVault.sol:RibbonAutocallVault",
            "label": "asset",
            "offset": 2,
            "slot": "0",
            "type": "t_address"
          },
          {
            "astId": 6644,
            "contract": "contracts/vaults/TreasuryVault/RibbonAutocallVault.sol:RibbonAutocallVault",
            "label": "underlying",
            "offset": 0,
            "slot": "1",
            "type": "t_address"
          },
          {
            "astId": 6646,
            "contract": "contracts/vaults/TreasuryVault/RibbonAutocallVault.sol:RibbonAutocallVault",
            "label": "minimumSupply",
            "offset": 20,
            "slot": "1",
            "type": "t_uint56"
          },
          {
            "astId": 6648,
            "contract": "contracts/vaults/TreasuryVault/RibbonAutocallVault.sol:RibbonAutocallVault",
            "label": "cap",
            "offset": 0,
            "slot": "2",
            "type": "t_uint104"
          }
        ],
        "numberOfBytes": "96"
      },
      "t_struct(VaultState)6667_storage": {
        "encoding": "inplace",
        "label": "struct Vault.VaultState",
        "members": [
          {
            "astId": 6658,
            "contract": "contracts/vaults/TreasuryVault/RibbonAutocallVault.sol:RibbonAutocallVault",
            "label": "round",
            "offset": 0,
            "slot": "0",
            "type": "t_uint16"
          },
          {
            "astId": 6660,
            "contract": "contracts/vaults/TreasuryVault/RibbonAutocallVault.sol:RibbonAutocallVault",
            "label": "lockedAmount",
            "offset": 2,
            "slot": "0",
            "type": "t_uint104"
          },
          {
            "astId": 6662,
            "contract": "contracts/vaults/TreasuryVault/RibbonAutocallVault.sol:RibbonAutocallVault",
            "label": "lastLockedAmount",
            "offset": 15,
            "slot": "0",
            "type": "t_uint104"
          },
          {
            "astId": 6664,
            "contract": "contracts/vaults/TreasuryVault/RibbonAutocallVault.sol:RibbonAutocallVault",
            "label": "totalPending",
            "offset": 0,
            "slot": "1",
            "type": "t_uint128"
          },
          {
            "astId": 6666,
            "contract": "contracts/vaults/TreasuryVault/RibbonAutocallVault.sol:RibbonAutocallVault",
            "label": "queuedWithdrawShares",
            "offset": 16,
            "slot": "1",
            "type": "t_uint128"
          }
        ],
        "numberOfBytes": "64"
      },
      "t_struct(Withdrawal)6679_storage": {
        "encoding": "inplace",
        "label": "struct Vault.Withdrawal",
        "members": [
          {
            "astId": 6676,
            "contract": "contracts/vaults/TreasuryVault/RibbonAutocallVault.sol:RibbonAutocallVault",
            "label": "round",
            "offset": 0,
            "slot": "0",
            "type": "t_uint16"
          },
          {
            "astId": 6678,
            "contract": "contracts/vaults/TreasuryVault/RibbonAutocallVault.sol:RibbonAutocallVault",
            "label": "shares",
            "offset": 2,
            "slot": "0",
            "type": "t_uint128"
          }
        ],
        "numberOfBytes": "32"
      },
      "t_uint104": {
        "encoding": "inplace",
        "label": "uint104",
        "numberOfBytes": "13"
      },
      "t_uint128": {
        "encoding": "inplace",
        "label": "uint128",
        "numberOfBytes": "16"
      },
      "t_uint16": {
        "encoding": "inplace",
        "label": "uint16",
        "numberOfBytes": "2"
      },
      "t_uint256": {
        "encoding": "inplace",
        "label": "uint256",
        "numberOfBytes": "32"
      },
      "t_uint32": {
        "encoding": "inplace",
        "label": "uint32",
        "numberOfBytes": "4"
      },
      "t_uint56": {
        "encoding": "inplace",
        "label": "uint56",
        "numberOfBytes": "7"
      },
      "t_uint8": {
        "encoding": "inplace",
        "label": "uint8",
        "numberOfBytes": "1"
      }
    }
  }
}