{
  "address": "0xc51D4DB54EE9B06FE173F701A69633a0b939253E",
  "abi": [
    {
      "inputs": [
        {
          "internalType": "address",
          "name": "_weth",
          "type": "address"
        },
        {
          "internalType": "address",
          "name": "_usdc",
          "type": "address"
        },
        {
          "internalType": "address",
          "name": "_oTokenFactory",
          "type": "address"
        },
        {
          "internalType": "address",
          "name": "_gammaController",
          "type": "address"
        },
        {
          "internalType": "address",
          "name": "_marginPool",
          "type": "address"
        },
        {
          "internalType": "address",
          "name": "_gnosisEasyAuction",
          "type": "address"
        }
      ],
      "stateMutability": "nonpayable",
      "type": "constructor"
    },
    {
      "anonymous": false,
      "inputs": [
        {
          "indexed": true,
          "internalType": "address",
          "name": "owner",
          "type": "address"
        },
        {
          "indexed": true,
          "internalType": "address",
          "name": "spender",
          "type": "address"
        },
        {
          "indexed": false,
          "internalType": "uint256",
          "name": "value",
          "type": "uint256"
        }
      ],
      "name": "Approval",
      "type": "event"
    },
    {
      "anonymous": false,
      "inputs": [
        {
          "indexed": false,
          "internalType": "uint256",
          "name": "auctionDuration",
          "type": "uint256"
        },
        {
          "indexed": false,
          "internalType": "uint256",
          "name": "newAuctionDuration",
          "type": "uint256"
        }
      ],
      "name": "AuctionDurationSet",
      "type": "event"
    },
    {
      "anonymous": false,
      "inputs": [
        {
          "indexed": false,
          "internalType": "uint256",
          "name": "oldCap",
          "type": "uint256"
        },
        {
          "indexed": false,
          "internalType": "uint256",
          "name": "newCap",
          "type": "uint256"
        }
      ],
      "name": "CapSet",
      "type": "event"
    },
    {
      "anonymous": false,
      "inputs": [
        {
          "indexed": true,
          "internalType": "address",
          "name": "options",
          "type": "address"
        },
        {
          "indexed": false,
          "internalType": "uint256",
          "name": "withdrawAmount",
          "type": "uint256"
        },
        {
          "indexed": true,
          "internalType": "address",
          "name": "manager",
          "type": "address"
        }
      ],
      "name": "CloseShort",
      "type": "event"
    },
    {
      "anonymous": false,
      "inputs": [
        {
          "indexed": false,
          "internalType": "uint256",
          "name": "performanceFee",
          "type": "uint256"
        },
        {
          "indexed": false,
          "internalType": "uint256",
          "name": "vaultFee",
          "type": "uint256"
        },
        {
          "indexed": false,
          "internalType": "uint256",
          "name": "round",
          "type": "uint256"
        },
        {
          "indexed": true,
          "internalType": "address",
          "name": "feeRecipient",
          "type": "address"
        }
      ],
      "name": "CollectVaultFees",
      "type": "event"
    },
    {
      "anonymous": false,
      "inputs": [
        {
          "indexed": true,
          "internalType": "address",
          "name": "account",
          "type": "address"
        },
        {
          "indexed": false,
          "internalType": "uint256",
          "name": "amount",
          "type": "uint256"
        },
        {
          "indexed": false,
          "internalType": "uint256",
          "name": "round",
          "type": "uint256"
        }
      ],
      "name": "Deposit",
      "type": "event"
    },
    {
      "anonymous": false,
      "inputs": [
        {
          "indexed": true,
          "internalType": "address",
          "name": "auctioningToken",
          "type": "address"
        },
        {
          "indexed": true,
          "internalType": "address",
          "name": "biddingToken",
          "type": "address"
        },
        {
          "indexed": false,
          "internalType": "uint256",
          "name": "auctionCounter",
          "type": "uint256"
        },
        {
          "indexed": true,
          "internalType": "address",
          "name": "manager",
          "type": "address"
        }
      ],
      "name": "InitiateGnosisAuction",
      "type": "event"
    },
    {
      "anonymous": false,
      "inputs": [
        {
          "indexed": true,
          "internalType": "address",
          "name": "account",
          "type": "address"
        },
        {
          "indexed": false,
          "internalType": "uint256",
          "name": "shares",
          "type": "uint256"
        },
        {
          "indexed": false,
          "internalType": "uint256",
          "name": "round",
          "type": "uint256"
        }
      ],
      "name": "InitiateWithdraw",
      "type": "event"
    },
    {
      "anonymous": false,
      "inputs": [
        {
          "indexed": true,
          "internalType": "address",
          "name": "account",
          "type": "address"
        },
        {
          "indexed": false,
          "internalType": "uint256",
          "name": "amount",
          "type": "uint256"
        },
        {
          "indexed": false,
          "internalType": "uint256",
          "name": "round",
          "type": "uint256"
        }
      ],
      "name": "InstantWithdraw",
      "type": "event"
    },
    {
      "anonymous": false,
      "inputs": [
        {
          "indexed": false,
          "internalType": "uint256",
          "name": "managementFee",
          "type": "uint256"
        },
        {
          "indexed": false,
          "internalType": "uint256",
          "name": "newManagementFee",
          "type": "uint256"
        }
      ],
      "name": "ManagementFeeSet",
      "type": "event"
    },
    {
      "anonymous": false,
      "inputs": [
        {
          "indexed": false,
          "internalType": "uint256",
          "name": "strikePrice",
          "type": "uint256"
        },
        {
          "indexed": false,
          "internalType": "uint256",
          "name": "delta",
          "type": "uint256"
        }
      ],
      "name": "NewOptionStrikeSelected",
      "type": "event"
    },
    {
      "anonymous": false,
      "inputs": [
        {
          "indexed": true,
          "internalType": "address",
          "name": "options",
          "type": "address"
        },
        {
          "indexed": false,
          "internalType": "uint256",
          "name": "depositAmount",
          "type": "uint256"
        },
        {
          "indexed": true,
          "internalType": "address",
          "name": "manager",
          "type": "address"
        }
      ],
      "name": "OpenShort",
      "type": "event"
    },
    {
      "anonymous": false,
      "inputs": [
        {
          "indexed": true,
          "internalType": "address",
          "name": "previousOwner",
          "type": "address"
        },
        {
          "indexed": true,
          "internalType": "address",
          "name": "newOwner",
          "type": "address"
        }
      ],
      "name": "OwnershipTransferred",
      "type": "event"
    },
    {
      "anonymous": false,
      "inputs": [
        {
          "indexed": false,
          "internalType": "uint256",
          "name": "performanceFee",
          "type": "uint256"
        },
        {
          "indexed": false,
          "internalType": "uint256",
          "name": "newPerformanceFee",
          "type": "uint256"
        }
      ],
      "name": "PerformanceFeeSet",
      "type": "event"
    },
    {
      "anonymous": false,
      "inputs": [
        {
          "indexed": false,
          "internalType": "uint256",
          "name": "premiumDiscount",
          "type": "uint256"
        },
        {
          "indexed": false,
          "internalType": "uint256",
          "name": "newPremiumDiscount",
          "type": "uint256"
        }
      ],
      "name": "PremiumDiscountSet",
      "type": "event"
    },
    {
      "anonymous": false,
      "inputs": [
        {
          "indexed": true,
          "internalType": "address",
          "name": "account",
          "type": "address"
        },
        {
          "indexed": false,
          "internalType": "uint256",
          "name": "share",
          "type": "uint256"
        },
        {
          "indexed": false,
          "internalType": "uint256",
          "name": "round",
          "type": "uint256"
        }
      ],
      "name": "Redeem",
      "type": "event"
    },
    {
      "anonymous": false,
      "inputs": [
        {
          "indexed": true,
          "internalType": "address",
          "name": "from",
          "type": "address"
        },
        {
          "indexed": true,
          "internalType": "address",
          "name": "to",
          "type": "address"
        },
        {
          "indexed": false,
          "internalType": "uint256",
          "name": "value",
          "type": "uint256"
        }
      ],
      "name": "Transfer",
      "type": "event"
    },
    {
      "anonymous": false,
      "inputs": [
        {
          "indexed": true,
          "internalType": "address",
          "name": "account",
          "type": "address"
        },
        {
          "indexed": false,
          "internalType": "uint256",
          "name": "amount",
          "type": "uint256"
        },
        {
          "indexed": false,
          "internalType": "uint256",
          "name": "shares",
          "type": "uint256"
        }
      ],
      "name": "Withdraw",
      "type": "event"
    },
    {
      "inputs": [],
      "name": "DELAY",
      "outputs": [
        {
          "internalType": "uint256",
          "name": "",
          "type": "uint256"
        }
      ],
      "stateMutability": "view",
      "type": "function"
    },
    {
      "inputs": [],
      "name": "GAMMA_CONTROLLER",
      "outputs": [
        {
          "internalType": "address",
          "name": "",
          "type": "address"
        }
      ],
      "stateMutability": "view",
      "type": "function"
    },
    {
      "inputs": [],
      "name": "GNOSIS_EASY_AUCTION",
      "outputs": [
        {
          "internalType": "address",
          "name": "",
          "type": "address"
        }
      ],
      "stateMutability": "view",
      "type": "function"
    },
    {
      "inputs": [],
      "name": "MARGIN_POOL",
      "outputs": [
        {
          "internalType": "address",
          "name": "",
          "type": "address"
        }
      ],
      "stateMutability": "view",
      "type": "function"
    },
    {
      "inputs": [],
      "name": "OTOKEN_FACTORY",
      "outputs": [
        {
          "internalType": "address",
          "name": "",
          "type": "address"
        }
      ],
      "stateMutability": "view",
      "type": "function"
    },
    {
      "inputs": [],
      "name": "PERIOD",
      "outputs": [
        {
          "internalType": "uint256",
          "name": "",
          "type": "uint256"
        }
      ],
      "stateMutability": "view",
      "type": "function"
    },
    {
      "inputs": [],
      "name": "USDC",
      "outputs": [
        {
          "internalType": "address",
          "name": "",
          "type": "address"
        }
      ],
      "stateMutability": "view",
      "type": "function"
    },
    {
      "inputs": [],
      "name": "WETH",
      "outputs": [
        {
          "internalType": "address",
          "name": "",
          "type": "address"
        }
      ],
      "stateMutability": "view",
      "type": "function"
    },
    {
      "inputs": [
        {
          "internalType": "address",
          "name": "account",
          "type": "address"
        }
      ],
      "name": "accountVaultBalance",
      "outputs": [
        {
          "internalType": "uint256",
          "name": "",
          "type": "uint256"
        }
      ],
      "stateMutability": "view",
      "type": "function"
    },
    {
      "inputs": [
        {
          "internalType": "address",
          "name": "owner",
          "type": "address"
        },
        {
          "internalType": "address",
          "name": "spender",
          "type": "address"
        }
      ],
      "name": "allowance",
      "outputs": [
        {
          "internalType": "uint256",
          "name": "",
          "type": "uint256"
        }
      ],
      "stateMutability": "view",
      "type": "function"
    },
    {
      "inputs": [
        {
          "internalType": "address",
          "name": "spender",
          "type": "address"
        },
        {
          "internalType": "uint256",
          "name": "amount",
          "type": "uint256"
        }
      ],
      "name": "approve",
      "outputs": [
        {
          "internalType": "bool",
          "name": "",
          "type": "bool"
        }
      ],
      "stateMutability": "nonpayable",
      "type": "function"
    },
    {
      "inputs": [],
      "name": "auctionDuration",
      "outputs": [
        {
          "internalType": "uint256",
          "name": "",
          "type": "uint256"
        }
      ],
      "stateMutability": "view",
      "type": "function"
    },
    {
      "inputs": [
        {
          "internalType": "address",
          "name": "account",
          "type": "address"
        }
      ],
      "name": "balanceOf",
      "outputs": [
        {
          "internalType": "uint256",
          "name": "",
          "type": "uint256"
        }
      ],
      "stateMutability": "view",
      "type": "function"
    },
    {
      "inputs": [],
      "name": "burnRemainingOTokens",
      "outputs": [],
      "stateMutability": "nonpayable",
      "type": "function"
    },
    {
      "inputs": [],
      "name": "cap",
      "outputs": [
        {
          "internalType": "uint256",
          "name": "",
          "type": "uint256"
        }
      ],
      "stateMutability": "view",
      "type": "function"
    },
    {
      "inputs": [],
      "name": "commitAndClose",
      "outputs": [],
      "stateMutability": "nonpayable",
      "type": "function"
    },
    {
      "inputs": [],
      "name": "completeWithdraw",
      "outputs": [],
      "stateMutability": "nonpayable",
      "type": "function"
    },
    {
      "inputs": [],
      "name": "currentOption",
      "outputs": [
        {
          "internalType": "address",
          "name": "",
          "type": "address"
        }
      ],
      "stateMutability": "view",
      "type": "function"
    },
    {
      "inputs": [],
      "name": "currentOtokenPremium",
      "outputs": [
        {
          "internalType": "uint256",
          "name": "",
          "type": "uint256"
        }
      ],
      "stateMutability": "view",
      "type": "function"
    },
    {
      "inputs": [],
      "name": "decimals",
      "outputs": [
        {
          "internalType": "uint8",
          "name": "",
          "type": "uint8"
        }
      ],
      "stateMutability": "view",
      "type": "function"
    },
    {
      "inputs": [
        {
          "internalType": "address",
          "name": "spender",
          "type": "address"
        },
        {
          "internalType": "uint256",
          "name": "subtractedValue",
          "type": "uint256"
        }
      ],
      "name": "decreaseAllowance",
      "outputs": [
        {
          "internalType": "bool",
          "name": "",
          "type": "bool"
        }
      ],
      "stateMutability": "nonpayable",
      "type": "function"
    },
    {
      "inputs": [
        {
          "internalType": "uint256",
          "name": "amount",
          "type": "uint256"
        }
      ],
      "name": "deposit",
      "outputs": [],
      "stateMutability": "nonpayable",
      "type": "function"
    },
    {
      "inputs": [],
      "name": "depositETH",
      "outputs": [],
      "stateMutability": "payable",
      "type": "function"
    },
    {
      "inputs": [
        {
          "internalType": "uint256",
          "name": "amount",
          "type": "uint256"
        },
        {
          "internalType": "address",
          "name": "creditor",
          "type": "address"
        }
      ],
      "name": "depositFor",
      "outputs": [],
      "stateMutability": "nonpayable",
      "type": "function"
    },
    {
      "inputs": [
        {
          "internalType": "address",
          "name": "",
          "type": "address"
        }
      ],
      "name": "depositReceipts",
      "outputs": [
        {
          "internalType": "uint16",
          "name": "round",
          "type": "uint16"
        },
        {
          "internalType": "uint104",
          "name": "amount",
          "type": "uint104"
        },
        {
          "internalType": "uint128",
          "name": "unredeemedShares",
          "type": "uint128"
        }
      ],
      "stateMutability": "view",
      "type": "function"
    },
    {
      "inputs": [],
      "name": "feeRecipient",
      "outputs": [
        {
          "internalType": "address",
          "name": "",
          "type": "address"
        }
      ],
      "stateMutability": "view",
      "type": "function"
    },
    {
      "inputs": [
        {
          "internalType": "address",
          "name": "spender",
          "type": "address"
        },
        {
          "internalType": "uint256",
          "name": "addedValue",
          "type": "uint256"
        }
      ],
      "name": "increaseAllowance",
      "outputs": [
        {
          "internalType": "bool",
          "name": "",
          "type": "bool"
        }
      ],
      "stateMutability": "nonpayable",
      "type": "function"
    },
    {
      "inputs": [
        {
          "internalType": "uint256",
          "name": "numRounds",
          "type": "uint256"
        }
      ],
      "name": "initRounds",
      "outputs": [],
      "stateMutability": "nonpayable",
      "type": "function"
    },
    {
      "inputs": [
        {
          "components": [
            {
              "internalType": "address",
              "name": "_owner",
              "type": "address"
            },
            {
              "internalType": "address",
              "name": "_keeper",
              "type": "address"
            },
            {
              "internalType": "address",
              "name": "_feeRecipient",
              "type": "address"
            },
            {
              "internalType": "uint256",
              "name": "_managementFee",
              "type": "uint256"
            },
            {
              "internalType": "uint256",
              "name": "_performanceFee",
              "type": "uint256"
            },
            {
              "internalType": "string",
              "name": "_tokenName",
              "type": "string"
            },
            {
              "internalType": "string",
              "name": "_tokenSymbol",
              "type": "string"
            },
            {
              "internalType": "address",
              "name": "_optionsPremiumPricer",
              "type": "address"
            },
            {
              "internalType": "address",
              "name": "_strikeSelection",
              "type": "address"
            },
            {
              "internalType": "uint32",
              "name": "_premiumDiscount",
              "type": "uint32"
            },
            {
              "internalType": "uint256",
              "name": "_auctionDuration",
              "type": "uint256"
            }
          ],
          "internalType": "struct RibbonThetaVault.InitParams",
          "name": "_initParams",
          "type": "tuple"
        },
        {
          "components": [
            {
              "internalType": "bool",
              "name": "isPut",
              "type": "bool"
            },
            {
              "internalType": "uint8",
              "name": "decimals",
              "type": "uint8"
            },
            {
              "internalType": "address",
              "name": "asset",
              "type": "address"
            },
            {
              "internalType": "address",
              "name": "underlying",
              "type": "address"
            },
            {
              "internalType": "uint56",
              "name": "minimumSupply",
              "type": "uint56"
            },
            {
              "internalType": "uint104",
              "name": "cap",
              "type": "uint104"
            }
          ],
          "internalType": "struct Vault.VaultParams",
          "name": "_vaultParams",
          "type": "tuple"
        }
      ],
      "name": "initialize",
      "outputs": [],
      "stateMutability": "nonpayable",
      "type": "function"
    },
    {
      "inputs": [
        {
          "internalType": "uint256",
          "name": "numShares",
          "type": "uint256"
        }
      ],
      "name": "initiateWithdraw",
      "outputs": [],
      "stateMutability": "nonpayable",
      "type": "function"
    },
    {
      "inputs": [],
      "name": "keeper",
      "outputs": [
        {
          "internalType": "address",
          "name": "",
          "type": "address"
        }
      ],
      "stateMutability": "view",
      "type": "function"
    },
    {
      "inputs": [],
      "name": "lastQueuedWithdrawAmount",
      "outputs": [
        {
          "internalType": "uint256",
          "name": "",
          "type": "uint256"
        }
      ],
      "stateMutability": "view",
      "type": "function"
    },
    {
      "inputs": [],
      "name": "lastStrikeOverrideRound",
      "outputs": [
        {
          "internalType": "uint16",
          "name": "",
          "type": "uint16"
        }
      ],
      "stateMutability": "view",
      "type": "function"
    },
    {
      "inputs": [],
      "name": "liquidityGauge",
      "outputs": [
        {
          "internalType": "address",
          "name": "",
          "type": "address"
        }
      ],
      "stateMutability": "view",
      "type": "function"
    },
    {
      "inputs": [],
      "name": "managementFee",
      "outputs": [
        {
          "internalType": "uint256",
          "name": "",
          "type": "uint256"
        }
      ],
      "stateMutability": "view",
      "type": "function"
    },
    {
      "inputs": [],
      "name": "maxRedeem",
      "outputs": [],
      "stateMutability": "nonpayable",
      "type": "function"
    },
    {
      "inputs": [],
      "name": "name",
      "outputs": [
        {
          "internalType": "string",
          "name": "",
          "type": "string"
        }
      ],
      "stateMutability": "view",
      "type": "function"
    },
    {
      "inputs": [],
      "name": "nextOption",
      "outputs": [
        {
          "internalType": "address",
          "name": "",
          "type": "address"
        }
      ],
      "stateMutability": "view",
      "type": "function"
    },
    {
      "inputs": [],
      "name": "nextOptionReadyAt",
      "outputs": [
        {
          "internalType": "uint256",
          "name": "",
          "type": "uint256"
        }
      ],
      "stateMutability": "view",
      "type": "function"
    },
    {
      "inputs": [],
      "name": "optionAuctionID",
      "outputs": [
        {
          "internalType": "uint256",
          "name": "",
          "type": "uint256"
        }
      ],
      "stateMutability": "view",
      "type": "function"
    },
    {
      "inputs": [],
      "name": "optionState",
      "outputs": [
        {
          "internalType": "address",
          "name": "nextOption",
          "type": "address"
        },
        {
          "internalType": "address",
          "name": "currentOption",
          "type": "address"
        },
        {
          "internalType": "uint32",
          "name": "nextOptionReadyAt",
          "type": "uint32"
        }
      ],
      "stateMutability": "view",
      "type": "function"
    },
    {
      "inputs": [],
      "name": "optionsPremiumPricer",
      "outputs": [
        {
          "internalType": "address",
          "name": "",
          "type": "address"
        }
      ],
      "stateMutability": "view",
      "type": "function"
    },
    {
      "inputs": [],
      "name": "optionsPurchaseQueue",
      "outputs": [
        {
          "internalType": "address",
          "name": "",
          "type": "address"
        }
      ],
      "stateMutability": "view",
      "type": "function"
    },
    {
      "inputs": [],
      "name": "overriddenStrikePrice",
      "outputs": [
        {
          "internalType": "uint256",
          "name": "",
          "type": "uint256"
        }
      ],
      "stateMutability": "view",
      "type": "function"
    },
    {
      "inputs": [],
      "name": "owner",
      "outputs": [
        {
          "internalType": "address",
          "name": "",
          "type": "address"
        }
      ],
      "stateMutability": "view",
      "type": "function"
    },
    {
      "inputs": [],
      "name": "performanceFee",
      "outputs": [
        {
          "internalType": "uint256",
          "name": "",
          "type": "uint256"
        }
      ],
      "stateMutability": "view",
      "type": "function"
    },
    {
      "inputs": [],
      "name": "premiumDiscount",
      "outputs": [
        {
          "internalType": "uint256",
          "name": "",
          "type": "uint256"
        }
      ],
      "stateMutability": "view",
      "type": "function"
    },
    {
      "inputs": [],
      "name": "pricePerShare",
      "outputs": [
        {
          "internalType": "uint256",
          "name": "",
          "type": "uint256"
        }
      ],
      "stateMutability": "view",
      "type": "function"
    },
    {
      "inputs": [
        {
          "internalType": "address",
          "name": "token",
          "type": "address"
        },
        {
          "internalType": "address",
          "name": "recipient",
          "type": "address"
        }
      ],
      "name": "recoverTokens",
      "outputs": [],
      "stateMutability": "nonpayable",
      "type": "function"
    },
    {
      "inputs": [
        {
          "internalType": "uint256",
          "name": "numShares",
          "type": "uint256"
        }
      ],
      "name": "redeem",
      "outputs": [],
      "stateMutability": "nonpayable",
      "type": "function"
    },
    {
      "inputs": [],
      "name": "renounceOwnership",
      "outputs": [],
      "stateMutability": "nonpayable",
      "type": "function"
    },
    {
      "inputs": [],
      "name": "rollToNextOption",
      "outputs": [],
      "stateMutability": "nonpayable",
      "type": "function"
    },
    {
      "inputs": [
        {
          "internalType": "uint256",
          "name": "",
          "type": "uint256"
        }
      ],
      "name": "roundPricePerShare",
      "outputs": [
        {
          "internalType": "uint256",
          "name": "",
          "type": "uint256"
        }
      ],
      "stateMutability": "view",
      "type": "function"
    },
    {
      "inputs": [],
      "name": "sellOptionsToQueue",
      "outputs": [],
      "stateMutability": "nonpayable",
      "type": "function"
    },
    {
      "inputs": [
        {
          "internalType": "uint256",
          "name": "newAuctionDuration",
          "type": "uint256"
        }
      ],
      "name": "setAuctionDuration",
      "outputs": [],
      "stateMutability": "nonpayable",
      "type": "function"
    },
    {
      "inputs": [
        {
          "internalType": "uint256",
          "name": "newCap",
          "type": "uint256"
        }
      ],
      "name": "setCap",
      "outputs": [],
      "stateMutability": "nonpayable",
      "type": "function"
    },
    {
      "inputs": [
        {
          "internalType": "address",
          "name": "newFeeRecipient",
          "type": "address"
        }
      ],
      "name": "setFeeRecipient",
      "outputs": [],
      "stateMutability": "nonpayable",
      "type": "function"
    },
    {
      "inputs": [
        {
          "internalType": "address",
          "name": "newLiquidityGauge",
          "type": "address"
        }
      ],
      "name": "setLiquidityGauge",
      "outputs": [],
      "stateMutability": "nonpayable",
      "type": "function"
    },
    {
      "inputs": [
        {
          "internalType": "uint256",
          "name": "newManagementFee",
          "type": "uint256"
        }
      ],
      "name": "setManagementFee",
      "outputs": [],
      "stateMutability": "nonpayable",
      "type": "function"
    },
    {
      "inputs": [
        {
          "internalType": "address",
          "name": "newKeeper",
          "type": "address"
        }
      ],
      "name": "setNewKeeper",
      "outputs": [],
      "stateMutability": "nonpayable",
      "type": "function"
    },
    {
      "inputs": [
        {
          "internalType": "address",
          "name": "newOptionsPremiumPricer",
          "type": "address"
        }
      ],
      "name": "setOptionsPremiumPricer",
      "outputs": [],
      "stateMutability": "nonpayable",
      "type": "function"
    },
    {
      "inputs": [
        {
          "internalType": "address",
          "name": "newOptionsPurchaseQueue",
          "type": "address"
        }
      ],
      "name": "setOptionsPurchaseQueue",
      "outputs": [],
      "stateMutability": "nonpayable",
      "type": "function"
    },
    {
      "inputs": [
        {
          "internalType": "uint256",
          "name": "newPerformanceFee",
          "type": "uint256"
        }
      ],
      "name": "setPerformanceFee",
      "outputs": [],
      "stateMutability": "nonpayable",
      "type": "function"
    },
    {
      "inputs": [
        {
          "internalType": "uint256",
          "name": "newPremiumDiscount",
          "type": "uint256"
        }
      ],
      "name": "setPremiumDiscount",
      "outputs": [],
      "stateMutability": "nonpayable",
      "type": "function"
    },
    {
      "inputs": [
        {
          "internalType": "uint128",
          "name": "strikePrice",
          "type": "uint128"
        }
      ],
      "name": "setStrikePrice",
      "outputs": [],
      "stateMutability": "nonpayable",
      "type": "function"
    },
    {
      "inputs": [
        {
          "internalType": "address",
          "name": "newStrikeSelection",
          "type": "address"
        }
      ],
      "name": "setStrikeSelection",
      "outputs": [],
      "stateMutability": "nonpayable",
      "type": "function"
    },
    {
      "inputs": [
        {
          "internalType": "address",
          "name": "account",
          "type": "address"
        }
      ],
      "name": "shareBalances",
      "outputs": [
        {
          "internalType": "uint256",
          "name": "heldByAccount",
          "type": "uint256"
        },
        {
          "internalType": "uint256",
          "name": "heldByVault",
          "type": "uint256"
        }
      ],
      "stateMutability": "view",
      "type": "function"
    },
    {
      "inputs": [
        {
          "internalType": "address",
          "name": "account",
          "type": "address"
        }
      ],
      "name": "shares",
      "outputs": [
        {
          "internalType": "uint256",
          "name": "",
          "type": "uint256"
        }
      ],
      "stateMutability": "view",
      "type": "function"
    },
    {
      "inputs": [
        {
          "internalType": "uint256",
          "name": "numShares",
          "type": "uint256"
        }
      ],
      "name": "stake",
      "outputs": [],
      "stateMutability": "nonpayable",
      "type": "function"
    },
    {
      "inputs": [],
      "name": "startAuction",
      "outputs": [],
      "stateMutability": "nonpayable",
      "type": "function"
    },
    {
      "inputs": [],
      "name": "strikeSelection",
      "outputs": [
        {
          "internalType": "address",
          "name": "",
          "type": "address"
        }
      ],
      "stateMutability": "view",
      "type": "function"
    },
    {
      "inputs": [],
      "name": "symbol",
      "outputs": [
        {
          "internalType": "string",
          "name": "",
          "type": "string"
        }
      ],
      "stateMutability": "view",
      "type": "function"
    },
    {
      "inputs": [],
      "name": "totalBalance",
      "outputs": [
        {
          "internalType": "uint256",
          "name": "",
          "type": "uint256"
        }
      ],
      "stateMutability": "view",
      "type": "function"
    },
    {
      "inputs": [],
      "name": "totalPending",
      "outputs": [
        {
          "internalType": "uint256",
          "name": "",
          "type": "uint256"
        }
      ],
      "stateMutability": "view",
      "type": "function"
    },
    {
      "inputs": [],
      "name": "totalSupply",
      "outputs": [
        {
          "internalType": "uint256",
          "name": "",
          "type": "uint256"
        }
      ],
      "stateMutability": "view",
      "type": "function"
    },
    {
      "inputs": [
        {
          "internalType": "address",
          "name": "recipient",
          "type": "address"
        },
        {
          "internalType": "uint256",
          "name": "amount",
          "type": "uint256"
        }
      ],
      "name": "transfer",
      "outputs": [
        {
          "internalType": "bool",
          "name": "",
          "type": "bool"
        }
      ],
      "stateMutability": "nonpayable",
      "type": "function"
    },
    {
      "inputs": [
        {
          "internalType": "address",
          "name": "sender",
          "type": "address"
        },
        {
          "internalType": "address",
          "name": "recipient",
          "type": "address"
        },
        {
          "internalType": "uint256",
          "name": "amount",
          "type": "uint256"
        }
      ],
      "name": "transferFrom",
      "outputs": [
        {
          "internalType": "bool",
          "name": "",
          "type": "bool"
        }
      ],
      "stateMutability": "nonpayable",
      "type": "function"
    },
    {
      "inputs": [
        {
          "internalType": "address",
          "name": "newOwner",
          "type": "address"
        }
      ],
      "name": "transferOwnership",
      "outputs": [],
      "stateMutability": "nonpayable",
      "type": "function"
    },
    {
      "inputs": [],
      "name": "vaultParams",
      "outputs": [
        {
          "internalType": "bool",
          "name": "isPut",
          "type": "bool"
        },
        {
          "internalType": "uint8",
          "name": "decimals",
          "type": "uint8"
        },
        {
          "internalType": "address",
          "name": "asset",
          "type": "address"
        },
        {
          "internalType": "address",
          "name": "underlying",
          "type": "address"
        },
        {
          "internalType": "uint56",
          "name": "minimumSupply",
          "type": "uint56"
        },
        {
          "internalType": "uint104",
          "name": "cap",
          "type": "uint104"
        }
      ],
      "stateMutability": "view",
      "type": "function"
    },
    {
      "inputs": [],
      "name": "vaultState",
      "outputs": [
        {
          "internalType": "uint16",
          "name": "round",
          "type": "uint16"
        },
        {
          "internalType": "uint104",
          "name": "lockedAmount",
          "type": "uint104"
        },
        {
          "internalType": "uint104",
          "name": "lastLockedAmount",
          "type": "uint104"
        },
        {
          "internalType": "uint128",
          "name": "totalPending",
          "type": "uint128"
        },
        {
          "internalType": "uint128",
          "name": "queuedWithdrawShares",
          "type": "uint128"
        }
      ],
      "stateMutability": "view",
      "type": "function"
    },
    {
      "inputs": [
        {
          "internalType": "uint256",
          "name": "amount",
          "type": "uint256"
        }
      ],
      "name": "withdrawInstantly",
      "outputs": [],
      "stateMutability": "nonpayable",
      "type": "function"
    },
    {
      "inputs": [
        {
          "internalType": "address",
          "name": "",
          "type": "address"
        }
      ],
      "name": "withdrawals",
      "outputs": [
        {
          "internalType": "uint16",
          "name": "round",
          "type": "uint16"
        },
        {
          "internalType": "uint128",
          "name": "shares",
          "type": "uint128"
        }
      ],
      "stateMutability": "view",
      "type": "function"
    }
  ],
  "transactionHash": "0x18293fa612593afd7a770001de54bb68b2f399e796fe86e32fe436b7b9021ce2",
  "args": [
    "0xC02aaA39b223FE8D0A0e5C4F27eAD9083C756Cc2",
    "0xA0b86991c6218b36c1d19D4a2e9Eb0cE3606eB48",
    "0x7C06792Af1632E77cb27a558Dc0885338F4Bdf8E",
    "0x4ccc2339F87F6c59c6893E1A678c2266cA58dC72",
    "0x5934807cC0654d46755eBd2848840b616256C6Ef",
    "0x0b7fFc1f4AD541A4Ed16b40D8c37f0929158D101"
  ],
  "solcInputHash": "984ad5116f75c774a92f56a96cabb2a9",
  "bytecode": "0x6101406040523480156200001257600080fd5b506040516200600e3803806200600e833981016040819052620000359162000261565b85858484846001600160a01b0385166200007f5760405162461bcd60e51b8152602060048201526006602482015265042beeecae8d60d31b60448201526064015b60405180910390fd5b6001600160a01b038416620000c05760405162461bcd60e51b8152602060048201526006602482015265215f7573646360d01b604482015260640162000076565b6001600160a01b038116620001185760405162461bcd60e51b815260206004820152601360248201527f215f676e6f7369734561737941756374696f6e00000000000000000000000000604482015260640162000076565b6001600160a01b038316620001645760405162461bcd60e51b815260206004820152601160248201527010afb3b0b6b6b0a1b7b73a3937b63632b960791b604482015260640162000076565b6001600160a01b038216620001ab5760405162461bcd60e51b815260206004820152600c60248201526b0857db585c99da5b941bdbdb60a21b604482015260640162000076565b6001600160601b0319606095861b811660805293851b841660a05291841b831660c052831b821660e05290911b16610100526001600160a01b038416620002275760405162461bcd60e51b815260206004820152600f60248201526e215f6f546f6b656e466163746f727960881b604482015260640162000076565b50505060601b6001600160601b0319166101205250620002e19050565b80516001600160a01b03811681146200025c57600080fd5b919050565b60008060008060008060c087890312156200027a578182fd5b620002858762000244565b9550620002956020880162000244565b9450620002a56040880162000244565b9350620002b56060880162000244565b9250620002c56080880162000244565b9150620002d560a0880162000244565b90509295509295509295565b60805160601c60a05160601c60c05160601c60e05160601c6101005160601c6101205160601c615c776200039760003960008181610f3c0152612dcf0152600081816109a101528181611f360152613fa00152600081816108bf015261296501526000818161057601528181611dcf0152818161293d015261471c015260008181610b320152612df4015260008181610df1015281816130c00152818161316c0152818161377801526137b50152615c776000f3fe6080604052600436106104895760003560e01c80638778878211610255578063b4d1d79511610144578063e73c63d5116100c1578063f656ba5111610085578063f656ba5114611017578063f756fa211461104c578063f957a06714611061578063f9a0be6814611081578063fba7dc61146110a2578063fe56e232146110c357600080fd5b8063e73c63d514610fa4578063e74b981b14610fba578063ea00b1ca14610fda578063f2fde38b14610fef578063f6326fb31461100f57600080fd5b8063d164cc1511610108578063d164cc1514610ed4578063d5f2638214610ef4578063db006a7514610f0a578063db43e86214610f2a578063dd62ed3e14610f5e57600080fd5b8063b4d1d79514610e48578063b6b55f2514610e5f578063b9f8092b14610e7f578063ce7c2ac214610e94578063d13f1b3e14610eb457600080fd5b8063a2db9d83116101d2578063a9059cbb11610196578063a9059cbb14610d9f578063aced166114610dbf578063ad5c464814610ddf578063ad7a672f14610e13578063afa6626414610e2857600080fd5b8063a2db9d8314610d0b578063a457c2d714610d29578063a497e67414610d49578063a694fc3a14610d69578063a6f7f5d614610d8957600080fd5b806399530b061161021957806399530b0614610ba55780639be43daa14610bba5780639fcc2d7514610bda578063a083ff1714610c86578063a285c9e814610ce957600080fd5b80638778878214610b0a57806389a3027114610b205780638b10cc7c14610b545780638da5cb5b14610b7257806395d89b4114610b9057600080fd5b8063469048401161037c57806369b41170116102f957806370a08231116102bd57806370a08231146109f8578063715018a614610a2e5780637a9262a214610a435780637e108d5214610aa757806383536ff314610ac757806387153eb114610add57600080fd5b806369b41170146109655780636b64c7691461097a5780636c10f66c1461098f5780636f31ab34146109c357806370897b23146109d857600080fd5b806358358207116103405780635835820714610863578063600a2cfb14610883578063611b034d14610898578063650cce8a146108ad5780636719b2ee146108e157600080fd5b806346904840146107cd57806347786d37146107ed5780634ac88cb61461080d578063503c70aa1461082d57806355489bb21461084357600080fd5b806330630da41161040a5780633ec143d3116103ce5780633ec143d31461072b5780633f23bb73146107595780633f90916a14610779578063432833a6146107975780634603c0aa146107ad57600080fd5b806330630da414610683578063313ce567146106a3578063355274ea146106cd57806336efd16f146106eb578063395093511461070b57600080fd5b806318160ddd1161045157806318160ddd1461054f5780631a92f6c21461056457806323b872dd146105b05780632728f333146105d05780632775d01c1461066357600080fd5b8063048bf0851461048e578063056097ac146104b057806306fdde03146104d0578063095ea7b3146104fb5780630cbf54c81461052b575b600080fd5b34801561049a57600080fd5b506104ae6104a93660046152f8565b6110e3565b005b3480156104bc57600080fd5b506104ae6104cb366004615314565b611139565b3480156104dc57600080fd5b506104e561130b565b6040516104f29190615697565b60405180910390f35b34801561050757600080fd5b5061051b61051636600461538c565b61139d565b60405190151581526020016104f2565b34801561053757600080fd5b5061054160fb5481565b6040519081526020016104f2565b34801561055b57600080fd5b50609954610541565b34801561057057600080fd5b506105987f000000000000000000000000000000000000000000000000000000000000000081565b6040516001600160a01b0390911681526020016104f2565b3480156105bc57600080fd5b5061051b6105cb36600461534c565b6113b4565b3480156105dc57600080fd5b5060cf5460d05461061e9161ffff8116916001600160681b03620100008304811692600160781b900416906001600160801b0380821691600160801b90041685565b6040805161ffff90961686526001600160681b03948516602087015293909216928401929092526001600160801b03918216606084015216608082015260a0016104f2565b34801561066f57600080fd5b506104ae61067e366004615494565b611460565b34801561068f57600080fd5b506104ae61069e3660046152f8565b611603565b3480156106af57600080fd5b5060cc54610100900460ff1660405160ff90911681526020016104f2565b3480156106d957600080fd5b5060ce546001600160681b0316610541565b3480156106f757600080fd5b506104ae6107063660046154c4565b61169b565b34801561071757600080fd5b5061051b61072636600461538c565b611723565b34801561073757600080fd5b5060f9546107469061ffff1681565b60405161ffff90911681526020016104f2565b34801561076557600080fd5b506105416107743660046152f8565b61175f565b34801561078557600080fd5b5060d0546001600160801b0316610541565b3480156107a357600080fd5b5061054160fc5481565b3480156107b957600080fd5b506104ae6107c83660046152f8565b6117b2565b3480156107d957600080fd5b5060d354610598906001600160a01b031681565b3480156107f957600080fd5b506104ae610808366004615494565b611854565b34801561081957600080fd5b506104ae6108283660046152f8565b61192f565b34801561083957600080fd5b5061054160fd5481565b34801561084f57600080fd5b506104ae61085e36600461546d565b61197c565b34801561086f57600080fd5b506104ae61087e366004615411565b611a14565b34801561088f57600080fd5b506104ae611d63565b3480156108a457600080fd5b506104ae611ebe565b3480156108b957600080fd5b506105987f000000000000000000000000000000000000000000000000000000000000000081565b3480156108ed57600080fd5b506109346108fc3660046152f8565b60c96020526000908152604090205461ffff8116906201000081046001600160681b031690600160781b90046001600160801b031683565b6040805161ffff90941684526001600160681b0390921660208401526001600160801b0316908201526060016104f2565b34801561097157600080fd5b50610541600081565b34801561098657600080fd5b506104ae611fd8565b34801561099b57600080fd5b506105987f000000000000000000000000000000000000000000000000000000000000000081565b3480156109cf57600080fd5b506104ae612038565b3480156109e457600080fd5b506104ae6109f3366004615494565b61206f565b348015610a0457600080fd5b50610541610a133660046152f8565b6001600160a01b031660009081526097602052604090205490565b348015610a3a57600080fd5b506104ae612136565b348015610a4f57600080fd5b50610a85610a5e3660046152f8565b60cb6020526000908152604090205461ffff8116906201000090046001600160801b031682565b6040805161ffff90931683526001600160801b039091166020830152016104f2565b348015610ab357600080fd5b506104ae610ac2366004615494565b61216c565b348015610ad357600080fd5b5061054160f75481565b348015610ae957600080fd5b50610541610af8366004615494565b60ca6020526000908152604090205481565b348015610b1657600080fd5b5061054160d55481565b348015610b2c57600080fd5b506105987f000000000000000000000000000000000000000000000000000000000000000081565b348015610b6057600080fd5b5060d2546001600160a01b0316610598565b348015610b7e57600080fd5b506065546001600160a01b0316610598565b348015610b9c57600080fd5b506104e56123a7565b348015610bb157600080fd5b506105416123b6565b348015610bc657600080fd5b506104ae610bd5366004615494565b6123f0565b348015610be657600080fd5b5060cc5460cd5460ce54610c369260ff808216936101008304909116926001600160a01b036201000090930483169282169166ffffffffffffff600160a01b90910416906001600160681b031686565b60408051961515875260ff90951660208701526001600160a01b03938416948601949094529116606084015266ffffffffffffff1660808301526001600160681b031660a082015260c0016104f2565b348015610c9257600080fd5b5060d15460d254610cbd916001600160a01b039081169190811690600160a01b900463ffffffff1683565b604080516001600160a01b03948516815293909216602084015263ffffffff16908201526060016104f2565b348015610cf557600080fd5b5060d254600160a01b900463ffffffff16610541565b348015610d1757600080fd5b5060d1546001600160a01b0316610598565b348015610d3557600080fd5b5061051b610d4436600461538c565b6124ea565b348015610d5557600080fd5b506104ae610d64366004615494565b612583565b348015610d7557600080fd5b506104ae610d84366004615494565b612640565b348015610d9557600080fd5b5061054160d65481565b348015610dab57600080fd5b5061051b610dba36600461538c565b612731565b348015610dcb57600080fd5b5060d454610598906001600160a01b031681565b348015610deb57600080fd5b506105987f000000000000000000000000000000000000000000000000000000000000000081565b348015610e1f57600080fd5b5061054161273e565b348015610e3457600080fd5b5060f554610598906001600160a01b031681565b348015610e5457600080fd5b5061054162093a8081565b348015610e6b57600080fd5b506104ae610e7a366004615494565b6127dd565b348015610e8b57600080fd5b506104ae61284a565b348015610ea057600080fd5b50610541610eaf3660046152f8565b612abe565b348015610ec057600080fd5b506104ae610ecf366004615494565b612adb565b348015610ee057600080fd5b506104ae610eef3660046152f8565b612ba0565b348015610f0057600080fd5b5061054160f85481565b348015610f1657600080fd5b506104ae610f25366004615494565b612c2f565b348015610f3657600080fd5b506105987f000000000000000000000000000000000000000000000000000000000000000081565b348015610f6a57600080fd5b50610541610f79366004615314565b6001600160a01b03918216600090815260986020908152604080832093909416825291909152205490565b348015610fb057600080fd5b5061054160fa5481565b348015610fc657600080fd5b506104ae610fd53660046152f8565b612c9c565b348015610fe657600080fd5b506104ae612d8f565b348015610ffb57600080fd5b506104ae61100a3660046152f8565b612ff8565b6104ae613093565b34801561102357600080fd5b506110376110323660046152f8565b6131e4565b604080519283526020830191909152016104f2565b34801561105857600080fd5b506104ae6132c7565b34801561106d57600080fd5b5060f654610598906001600160a01b031681565b34801561108d57600080fd5b5061010054610598906001600160a01b031681565b3480156110ae57600080fd5b5061010154610598906001600160a01b031681565b3480156110cf57600080fd5b506104ae6110de366004615494565b61331c565b6065546001600160a01b031633146111165760405162461bcd60e51b815260040161110d90615719565b60405180910390fd5b61010080546001600160a01b0319166001600160a01b0392909216919091179055565b6065546001600160a01b031633146111635760405162461bcd60e51b815260040161110d90615719565b60cc546001600160a01b03838116620100009092041614156111c75760405162461bcd60e51b815260206004820152601b60248201527f5661756c74206173736574206e6f74207265636f76657261626c650000000000604482015260640161110d565b6001600160a01b0382163014156112205760405162461bcd60e51b815260206004820152601b60248201527f5661756c74207368617265206e6f74207265636f76657261626c650000000000604482015260640161110d565b6001600160a01b0381163014156112795760405162461bcd60e51b815260206004820152601960248201527f526563697069656e742063616e6e6f74206265207661756c7400000000000000604482015260640161110d565b6040516370a0823160e01b81523060048201526113079082906001600160a01b038516906370a082319060240160206040518083038186803b1580156112be57600080fd5b505afa1580156112d2573d6000803e3d6000fd5b505050506040513d601f19601f820116820180604052508101906112f691906154ac565b6001600160a01b03851691906133fd565b5050565b6060609a805461131a90615a41565b80601f016020809104026020016040519081016040528092919081815260200182805461134690615a41565b80156113935780601f1061136857610100808354040283529160200191611393565b820191906000526020600020905b81548152906001019060200180831161137657829003601f168201915b5050505050905090565b60006113aa338484613460565b5060015b92915050565b60006113c1848484613585565b6001600160a01b0384166000908152609860209081526040808320338452909152902054828110156114465760405162461bcd60e51b815260206004820152602860248201527f45524332303a207472616e7366657220616d6f756e74206578636565647320616044820152676c6c6f77616e636560c01b606482015260840161110d565b6114538533858403613460565b60019150505b9392505050565b600260015414156114835760405162461bcd60e51b815260040161110d9061576f565b600260015533600090815260c96020526040902060cf5461ffff16826114bb5760405162461bcd60e51b815260040161110d9061574e565b815461ffff1681146114ff5760405162461bcd60e51b815260206004820152600d60248201526c125b9d985b1a59081c9bdd5b99609a1b604482015260640161110d565b81546201000090046001600160681b0316838110156115505760405162461bcd60e51b815260206004820152600d60248201526c115e18d9595908185b5bdd5b9d609a1b604482015260640161110d565b61155a8185613755565b83546001600160681b0391909116620100000262010000600160781b031990911617835560d054611594906001600160801b031685613755565b60d080546001600160801b0319166001600160801b0392909216919091179055604080518581526020810184905233917fab2daf3c146ca6416cbccd2a86ed2ba995e171ef6319df14a38aef01403a9c96910160405180910390a26115f93385613761565b5050600180555050565b6065546001600160a01b0316331461162d5760405162461bcd60e51b815260040161110d90615719565b6001600160a01b0381166116795760405162461bcd60e51b815260206004820152601360248201527210b732bba9ba3934b5b2a9b2b632b1ba34b7b760691b604482015260640161110d565b60f680546001600160a01b0319166001600160a01b0392909216919091179055565b600260015414156116be5760405162461bcd60e51b815260040161110d9061576f565b6002600155816116e05760405162461bcd60e51b815260040161110d9061574e565b6001600160a01b0381166116f357600080fd5b6116fd82826138c2565b60cc5461171b906201000090046001600160a01b0316333085613b54565b505060018055565b3360008181526098602090815260408083206001600160a01b038716845290915281205490916113aa91859061175a9086906158bc565b613460565b60cc5460009060ff610100909104168161179561177b60995490565b61178361273e565b60d0546001600160801b031685613b8c565b90506117aa6117a385612abe565b8284613bcc565b949350505050565b6065546001600160a01b031633146117dc5760405162461bcd60e51b815260040161110d90615719565b6001600160a01b0381166118325760405162461bcd60e51b815260206004820152601860248201527f216e65774f7074696f6e735072656d69756d5072696365720000000000000000604482015260640161110d565b60f580546001600160a01b0319166001600160a01b0392909216919091179055565b6065546001600160a01b0316331461187e5760405162461bcd60e51b815260040161110d90615719565b600081116118b85760405162461bcd60e51b81526020600482015260076024820152660216e65774361760cc1b604482015260640161110d565b6118c181613c2e565b60ce54604080516001600160681b039092168252602082018390527f5f86edbb9d92228a9edc3f0ebc0f001bda1ea345ac7335e0eeef3504b31d1a1c910160405180910390a160ce80546cffffffffffffffffffffffffff19166001600160681b0392909216919091179055565b6065546001600160a01b031633146119595760405162461bcd60e51b815260040161110d90615719565b61010180546001600160a01b0319166001600160a01b0392909216919091179055565b6065546001600160a01b031633146119a65760405162461bcd60e51b815260040161110d90615719565b6000816001600160801b0316116119ee5760405162461bcd60e51b815260206004820152600c60248201526b21737472696b65507269636560a01b604482015260640161110d565b6001600160801b031660fa5560cf5460f9805461ffff191661ffff909216919091179055565b600054610100900460ff1680611a2d575060005460ff16155b611a495760405162461bcd60e51b815260040161110d906156cb565b600054610100900460ff16158015611a6b576000805461ffff19166101011790555b611b30611a7b60208501856152f8565b611a8b60408601602087016152f8565b611a9b60608701604088016152f8565b60608701356080880135611ab260a08a018a615870565b8080601f016020809104026020016040519081016040528093929190818152602001838380828437600092019190915250611af49250505060c08b018b615870565b8080601f0160208091040260200160405190810160405280939291908181526020018383808284376000920191909152508c9250613c78915050565b6000611b43610100850160e086016152f8565b6001600160a01b03161415611b935760405162461bcd60e51b815260206004820152601660248201527510afb7b83a34b7b739a83932b6b4bab6a83934b1b2b960511b604482015260640161110d565b6000611ba7610120850161010086016152f8565b6001600160a01b03161415611bf25760405162461bcd60e51b815260206004820152601160248201527010afb9ba3934b5b2a9b2b632b1ba34b7b760791b604482015260640161110d565b6000611c0661014085016101208601615531565b63ffffffff16118015611c3a5750611c20600a60646159df565b611c3261014085016101208601615531565b63ffffffff16105b611c7a5760405162461bcd60e51b81526020600482015260116024820152700857dc1c995b5a5d5b511a5cd8dbdd5b9d607a1b604482015260640161110d565b61012c8361014001351015611cc55760405162461bcd60e51b815260206004820152601160248201527010afb0bab1ba34b7b7223ab930ba34b7b760791b604482015260640161110d565b611cd6610100840160e085016152f8565b60f580546001600160a01b0319166001600160a01b0392909216919091179055611d08610120840161010085016152f8565b60f680546001600160a01b0319166001600160a01b0392909216919091179055611d3a61014084016101208501615531565b63ffffffff1660f75561014083013560fb558015611d5e576000805461ff00191690555b505050565b60d4546001600160a01b03163314611d8d5760405162461bcd60e51b815260040161110d906156aa565b60026001541415611db05760405162461bcd60e51b815260040161110d9061576f565b600260015560d2546040516358ffbb3d60e01b81526001600160a01b037f000000000000000000000000000000000000000000000000000000000000000081166004830152909116602482015260009073E6342509ae61b63F015f268953FCA0dE71e61128906358ffbb3d9060440160206040518083038186803b158015611e3757600080fd5b505af4158015611e4b573d6000803e3d6000fd5b505050506040513d601f19601f82011682018060405250810190611e6f91906154ac565b60cf54909150611e8e906201000090046001600160681b031682613755565b60cf80546001600160681b0392909216620100000262010000600160781b03199092169190911790555060018055565b60d4546001600160a01b03163314611ee85760405162461bcd60e51b815260040161110d906156aa565b60026001541415611f0b5760405162461bcd60e51b815260040161110d9061576f565b60026001556101015460fc54604051632288d73760e11b81526001600160a01b0392831660048201527f00000000000000000000000000000000000000000000000000000000000000009092166024830152604482015273E6342509ae61b63F015f268953FCA0dE71e6112890634511ae6e9060640160206040518083038186803b158015611f9957600080fd5b505af4158015611fad573d6000803e3d6000fd5b505050506040513d601f19601f82011682018060405250810190611fd191906154ac565b5060018055565b60d4546001600160a01b031633146120025760405162461bcd60e51b815260040161110d906156aa565b600260015414156120255760405162461bcd60e51b815260040161110d9061576f565b6002600155612032613eb7565b60018055565b6002600154141561205b5760405162461bcd60e51b815260040161110d9061576f565b6002600181905550612032600060016140b3565b6065546001600160a01b031633146120995760405162461bcd60e51b815260040161110d90615719565b6120a7620f424060646159df565b81106120f55760405162461bcd60e51b815260206004820152601760248201527f496e76616c696420706572666f726d616e636520666565000000000000000000604482015260640161110d565b60d55460408051918252602082018390527f24867dfb6fcb9970a07be21024956524abe7a1837faa903ff0e99aaa40cf893e910160405180910390a160d555565b6065546001600160a01b031633146121605760405162461bcd60e51b815260040161110d90615719565b61216a6000614262565b565b6002600154141561218f5760405162461bcd60e51b815260040161110d9061576f565b6002600155806121ce5760405162461bcd60e51b815260206004820152600a602482015269216e756d53686172657360b01b604482015260640161110d565b33600090815260c960205260409020546201000090046001600160681b0316151580612218575033600090815260c96020526040902054600160781b90046001600160801b031615155b1561222957612229600060016140b3565b60cf5433600081815260cb60209081526040918290208054835187815261ffff96871693810184905292959194911685149290917f0c53c82ad07e2d592d88ece3b066777dd60f1118e2a081b380efc4358f0d9e2a910160405180910390a281546201000090046001600160801b0316600082156122b2576122ab82876142b4565b9050612315565b81156122f45760405162461bcd60e51b81526020600482015260116024820152704578697374696e6720776974686472617760781b604482015260640161110d565b5033600090815260cb60205260409020805461ffff191661ffff8616179055845b61231e816142c0565b33600090815260cb6020526040812080546001600160801b03808516620100000262010000600160901b03199092169190911790915560d05461236a91600160801b90910416886142b4565b9050612375816142c0565b60d080546001600160801b03808416600160801b02911617905561239a333089613585565b5050600180555050505050565b6060609b805461131a90615a41565b60006123eb6123c460995490565b6123cc61273e565b60d05460cc546001600160801b0390911690610100900460ff16613b8c565b905090565b600260015414156124135760405162461bcd60e51b815260040161110d9061576f565b6002600155806124525760405162461bcd60e51b815260206004820152600a602482015269216e756d526f756e647360b01b604482015260640161110d565b60cf5461ffff1660005b828110156124e157600061247082846158bc565b600081815260ca6020526040902054909150156124bd5760405162461bcd60e51b815260206004820152600b60248201526a125b9a5d1a585b1a5e995960aa1b604482015260640161110d565b600090815260ca6020526040902060019055806124d981615a7c565b91505061245c565b50506001805550565b3360009081526098602090815260408083206001600160a01b03861684529091528120548281101561256c5760405162461bcd60e51b815260206004820152602560248201527f45524332303a2064656372656173656420616c6c6f77616e63652062656c6f77604482015264207a65726f60d81b606482015260840161110d565b6125793385858403613460565b5060019392505050565b6065546001600160a01b031633146125ad5760405162461bcd60e51b815260040161110d90615719565b61012c8110156125ff5760405162461bcd60e51b815260206004820152601860248201527f496e76616c69642061756374696f6e206475726174696f6e0000000000000000604482015260640161110d565b60fb5460408051918252602082018390527f5acd982e2240ed224a69aa03dab039d3797c108e4b5f288cd7dd6ca181b275f3910160405180910390a160fb55565b600260015414156126635760405162461bcd60e51b815260040161110d9061576f565b6002600155610100546001600160a01b03168061267f57600080fd5b6000821161268c57600080fd5b33600090815260976020526040902054828110156126b8576126b86126b18483613755565b60006140b3565b6126c3333085613585565b6126ce308385613460565b6040516383df674760e01b815260048101849052336024820152600060448201526001600160a01b038316906383df674790606401600060405180830381600087803b15801561271d57600080fd5b505af115801561239a573d6000803e3d6000fd5b60006113aa338484613585565b60cc546040516370a0823160e01b81523060048201526000916123eb91620100009091046001600160a01b0316906370a082319060240160206040518083038186803b15801561278d57600080fd5b505afa1580156127a1573d6000803e3d6000fd5b505050506040513d601f19601f820116820180604052508101906127c591906154ac565b60cf546201000090046001600160681b0316906142b4565b600260015414156128005760405162461bcd60e51b815260040161110d9061576f565b6002600155806128225760405162461bcd60e51b815260040161110d9061574e565b61282c81336138c2565b60cc54611fd1906201000090046001600160a01b0316333084613b54565b60d4546001600160a01b031633146128745760405162461bcd60e51b815260040161110d906156aa565b600260015414156128975760405162461bcd60e51b815260040161110d9061576f565b600260018190555060008060006128af60fd5461430a565b60fd819055919450925090506128c482613c2e565b60cf805462010000600160781b031916620100006001600160681b0385160217905560405182815233906001600160a01b038516907f045c558fdce4714c5816d53820d27420f4cd860892df203fe636384d8d19aa019060200160405180910390a3604051632904c23960e01b81526001600160a01b037f0000000000000000000000000000000000000000000000000000000000000000811660048301527f000000000000000000000000000000000000000000000000000000000000000081166024830152841660448201526064810183905260009073E6342509ae61b63F015f268953FCA0dE71e6112890632904c2399060840160206040518083038186803b1580156129d357600080fd5b505af41580156129e7573d6000803e3d6000fd5b505050506040513d601f19601f82011682018060405250810190612a0b91906154ac565b61010154604051636648c73d60e11b81526001600160a01b039182166004820152908616602482015260448101829052611388606482015290915073E6342509ae61b63F015f268953FCA0dE71e611289063cc918e7a9060840160206040518083038186803b158015612a7d57600080fd5b505af4158015612a91573d6000803e3d6000fd5b505050506040513d601f19601f82011682018060405250810190612ab591906154ac565b506115f9613eb7565b6000806000612acc846131e4565b90925090506117aa82826142b4565b60d4546001600160a01b03163314612b055760405162461bcd60e51b815260040161110d906156aa565b600081118015612b205750612b1c600a60646159df565b8111155b612b5f5760405162461bcd60e51b815260206004820152601060248201526f125b9d985b1a5908191a5cd8dbdd5b9d60821b604482015260640161110d565b60f75460408051918252602082018390527f4cd657fde404967d63a338fb06c5c98751a9df57dfae6dc333a432faf8a5f656910160405180910390a160f755565b6065546001600160a01b03163314612bca5760405162461bcd60e51b815260040161110d90615719565b6001600160a01b038116612c0d5760405162461bcd60e51b815260206004820152600a60248201526910b732bba5b2b2b832b960b11b604482015260640161110d565b60d480546001600160a01b0319166001600160a01b0392909216919091179055565b60026001541415612c525760405162461bcd60e51b815260040161110d9061576f565b600260015580612c915760405162461bcd60e51b815260206004820152600a602482015269216e756d53686172657360b01b604482015260640161110d565b611fd18160006140b3565b6065546001600160a01b03163314612cc65760405162461bcd60e51b815260040161110d90615719565b6001600160a01b038116612d0f5760405162461bcd60e51b815260206004820152601060248201526f085b995dd19959549958da5c1a595b9d60821b604482015260640161110d565b60d3546001600160a01b0382811691161415612d6d5760405162461bcd60e51b815260206004820152601860248201527f4d757374206265206e657720666565526563697069656e740000000000000000604482015260640161110d565b60d380546001600160a01b0319166001600160a01b0392909216919091179055565b60026001541415612db25760405162461bcd60e51b815260040161110d9061576f565b600260015560d25460408051610120810182526001600160a01b037f0000000000000000000000000000000000000000000000000000000000000000811682527f00000000000000000000000000000000000000000000000000000000000000008116602083015292831681830181905260006060830181905260f95461ffff16608084015260fa5460a084015260f654851660c084015260f55490941660e083015260f754610100830152915163f39ad79560e01b81529192909181908190819073E6342509ae61b63F015f268953FCA0dE71e611289063f39ad79590612ea490889060cc9060cf906004016157a6565b60806040518083038186803b158015612ebc57600080fd5b505af4158015612ed0573d6000803e3d6000fd5b505050506040513d601f19601f82011682018060405250810190612ef491906153b7565b93509350935093507fa217999b1c125c2a996f712c5f26a28addad7167bd8a67d5bd5b2a751148abb08282604051612f36929190918252602082015260400190565b60405180910390a1612f4783613c2e565b6001600160681b03831660f85560d180546001600160a01b0319166001600160a01b0386161790556000612f7b42826142b4565b905063ffffffff811115612fd15760405162461bcd60e51b815260206004820152601860248201527f4f766572666c6f77206e6578744f7074696f6e52656164790000000000000000604482015260640161110d565b60d2805463ffffffff60a01b1916600160a01b63ffffffff84160217905561239a87614688565b6065546001600160a01b031633146130225760405162461bcd60e51b815260040161110d90615719565b6001600160a01b0381166130875760405162461bcd60e51b815260206004820152602660248201527f4f776e61626c653a206e6577206f776e657220697320746865207a65726f206160448201526564647265737360d01b606482015260840161110d565b61309081614262565b50565b600260015414156130b65760405162461bcd60e51b815260040161110d9061576f565b600260015560cc547f00000000000000000000000000000000000000000000000000000000000000006001600160a01b039081166201000090920416146131275760405162461bcd60e51b8152602060048201526005602482015264042ae8aa8960db1b604482015260640161110d565b600034116131605760405162461bcd60e51b81526020600482015260066024820152652176616c756560d01b604482015260640161110d565b61316a34336138c2565b7f00000000000000000000000000000000000000000000000000000000000000006001600160a01b031663d0e30db0346040518263ffffffff1660e01b81526004016000604051808303818588803b1580156131c557600080fd5b505af11580156131d9573d6000803e3d6000fd5b505060018055505050565b6001600160a01b038116600090815260c9602090815260408083208151606081018352905461ffff81168083526201000082046001600160681b031694830194909452600160781b90046001600160801b031691810191909152829160011115613266575050506001600160a01b031660009081526097602052604081205491565b60cf54815161ffff908116600090815260ca602052604081205460cc54919361329c93869391169190610100900460ff166147fa565b90506132bd856001600160a01b031660009081526097602052604090205490565b9590945092505050565b600260015414156132ea5760405162461bcd60e51b815260040161110d9061576f565b600260015560006132f961486b565b60fd549091506133099082613755565b6001600160801b031660fd555060018055565b6065546001600160a01b031633146133465760405162461bcd60e51b815260040161110d90615719565b613354620f424060646159df565b811061339b5760405162461bcd60e51b8152602060048201526016602482015275496e76616c6964206d616e6167656d656e742066656560501b604482015260640161110d565b60006133b863031ba3096133b284620f4240614a28565b90614a34565b60d65460408051918252602082018590529192507f4e874b007ab14f7e263baefd44951834c8266f4f224d1092e49e9c254354cc54910160405180910390a160d65550565b6040516001600160a01b038316602482015260448101829052611d5e90849063a9059cbb60e01b906064015b60408051601f198184030181529190526020810180516001600160e01b03166001600160e01b031990931692909217909152614a40565b6001600160a01b0383166134c25760405162461bcd60e51b8152602060048201526024808201527f45524332303a20617070726f76652066726f6d20746865207a65726f206164646044820152637265737360e01b606482015260840161110d565b6001600160a01b0382166135235760405162461bcd60e51b815260206004820152602260248201527f45524332303a20617070726f766520746f20746865207a65726f206164647265604482015261737360f01b606482015260840161110d565b6001600160a01b0383811660008181526098602090815260408083209487168084529482529182902085905590518481527f8c5be1e5ebec7d5bd14f71427d1e84f3dd0314c0f7b2291e5b200ac8c7c3b92591015b60405180910390a3505050565b6001600160a01b0383166135e95760405162461bcd60e51b815260206004820152602560248201527f45524332303a207472616e736665722066726f6d20746865207a65726f206164604482015264647265737360d81b606482015260840161110d565b6001600160a01b03821661364b5760405162461bcd60e51b815260206004820152602360248201527f45524332303a207472616e7366657220746f20746865207a65726f206164647260448201526265737360e81b606482015260840161110d565b6001600160a01b038316600090815260976020526040902054818110156136c35760405162461bcd60e51b815260206004820152602660248201527f45524332303a207472616e7366657220616d6f756e7420657863656564732062604482015265616c616e636560d01b606482015260840161110d565b6001600160a01b038085166000908152609760205260408082208585039055918516815290812080548492906136fa9084906158bc565b92505081905550826001600160a01b0316846001600160a01b03167fddf252ad1be2c89b69c2b068fc378daa952ba7f163c4a11628f55a4df523b3ef8460405161374691815260200190565b60405180910390a35b50505050565b600061145982846159fe565b60cc546001600160a01b03620100009091048116907f0000000000000000000000000000000000000000000000000000000000000000168114156138ae57604051632e1a7d4d60e01b8152600481018390527f00000000000000000000000000000000000000000000000000000000000000006001600160a01b031690632e1a7d4d90602401600060405180830381600087803b15801561380157600080fd5b505af1158015613815573d6000803e3d6000fd5b505050506000836001600160a01b03168360405160006040518083038185875af1925050503d8060008114613866576040519150601f19603f3d011682016040523d82523d6000602084013e61386b565b606091505b505090508061374f5760405162461bcd60e51b815260206004820152600f60248201526e151c985b9cd9995c8819985a5b1959608a1b604482015260640161110d565b611d5e6001600160a01b03821684846133fd565b60cf5461ffff1660006138dd846138d761273e565b906142b4565b60ce549091506001600160681b03168111156139285760405162461bcd60e51b815260206004820152600a6024820152690457863656564206361760b41b604482015260640161110d565b60cd54600160a01b900466ffffffffffffff168110156139815760405162461bcd60e51b8152602060048201526014602482015273496e73756666696369656e742062616c616e636560601b604482015260640161110d565b60408051858152602081018490526001600160a01b038516917f90890809c654f11d6e72a28fa60149770a0d11ec6c92319d6ceb2bb0a4ea1a15910160405180910390a26001600160a01b038316600090815260c9602090815260408083208151606081018352905461ffff81168083526201000082046001600160681b031683860152600160781b9091046001600160801b031682840152845260ca90925282205460cc54919291613a40918491879190610100900460ff166147fa565b8251909150869061ffff16851415613a71576020830151600090613a6d906001600160681b0316896142b4565b9150505b613a7a81613c2e565b6040805160608101825261ffff80881682526001600160681b0380851660208085019182526001600160801b038089168688019081526001600160a01b038e16600090815260c990935296822095518654935197518216600160781b02600160781b600160f81b03199890951662010000026effffffffffffffffffffffffffffff1990941695169490941791909117949094161790915560d054613b209116896142b4565b9050613b2b816142c0565b60d080546001600160801b0319166001600160801b039290921691909117905550505050505050565b6040516001600160a01b038085166024830152831660448201526064810182905261374f9085906323b872dd60e01b90608401613429565b600080613b9a83600a615937565b905060008611613baa5780613bc2565b613bc2866133b2613bbb8888613755565b8490614a28565b9695505050505050565b600060018311613c165760405162461bcd60e51b8152602060048201526015602482015274496e76616c6964206173736574506572536861726560581b604482015260640161110d565b6117aa613c2483600a615937565b6133b28686614a28565b6001600160681b038111156130905760405162461bcd60e51b815260206004820152601060248201526f13dd995c999b1bddc81d5a5b9d0c4c0d60821b604482015260640161110d565b600054610100900460ff1680613c91575060005460ff16155b613cad5760405162461bcd60e51b815260040161110d906156cb565b600054610100900460ff16158015613ccf576000805461ffff19166101011790555b60405163c72733f760e01b815273E6342509ae61b63F015f268953FCA0dE71e611289063c72733f790613d14908c908c908c908b908d908c908c908c9060040161559d565b60006040518083038186803b158015613d2c57600080fd5b505af4158015613d40573d6000803e3d6000fd5b50505050613d4c614b12565b613d568484614b85565b613d5e614c04565b613d6789612ff8565b60d480546001600160a01b03808b166001600160a01b03199283161790925560d38054928a169290911691909117905560d5859055613db163031ba3096133b288620f4240614a28565b60d6558160cc613dc18282615ad4565b505060cc546040516370a0823160e01b81523060048201526000916201000090046001600160a01b0316906370a082319060240160206040518083038186803b158015613e0d57600080fd5b505afa158015613e21573d6000803e3d6000fd5b505050506040513d601f19601f82011682018060405250810190613e4591906154ac565b9050613e5081613c2e565b60cf805461ffff196001600160681b03909316600160781b02929092167fffffffff00000000000000000000000000ffffffffffffffffffffffffff00009092169190911760011790558015613eac576000805461ff00191690555b505050505050505050565b6040805160c081018252600080825260208201819052918101829052606081018290526080810182905260a081019190915260d25460f55460f754604051630f7d679f60e01b81526001600160a01b0393841660048201819052939092166024830152604482015260009073E6342509ae61b63F015f268953FCA0dE71e6112890630f7d679f9060640160206040518083038186803b158015613f5957600080fd5b505af4158015613f6d573d6000803e3d6000fd5b505050506040513d601f19601f82011682018060405250810190613f9191906154ac565b6001600160a01b0383811685527f000000000000000000000000000000000000000000000000000000000000000081166020860190815260cc546201000081048316604080890191825261010090920460ff16606089019081526080890186815260fb5460a08b019081529351633baf17fd60e21b81528a5187166004820152945186166024860152915190941660448401529251606483015291516084820152905160a482015290915073E6342509ae61b63F015f268953FCA0dE71e611289063eebc5ff49060c40160206040518083038186803b15801561407357600080fd5b505af4158015614087573d6000803e3d6000fd5b505050506040513d601f19601f820116820180604052508101906140ab91906154ac565b60fc55505050565b33600090815260c9602090815260408083208151606081018352905461ffff8082168084526201000083046001600160681b031684870152600160781b9092046001600160801b03168385015260cf5491865260ca9094529184205460cc549194929093169261412e9185918591610100900460ff166147fa565b90508361413b578461413d565b805b94508461414b575050505050565b8085111561418f5760405162461bcd60e51b81526020600482015260116024820152704578636565647320617661696c61626c6560781b604482015260640161110d565b825161ffff168211156141bc5733600090815260c960205260409020805462010000600160781b03191690555b6141c5856142c0565b6141cf8186613755565b33600081815260c960205260409081902080546001600160801b0394909416600160781b02600160781b600160f81b0319909416939093179092558451915190917fe5b754fb1abb7f01b499791d0b820ae3b6af3424ac1c59768edb53f4ec31a929916142489189825261ffff16602082015260400190565b60405180910390a261425b303387613585565b5050505050565b606580546001600160a01b038381166001600160a01b0319831681179093556040519116919082907f8be0079c531659141344cd1fd0a4f28419497f9722a3daafe3b4186f6b6457e090600090a35050565b600061145982846158bc565b6001600160801b038111156130905760405162461bcd60e51b815260206004820152601060248201526f09eeccae4ccd8deee40ead2dce86264760831b604482015260640161110d565b60d25460009081908190600160a01b900463ffffffff164210156143595760405162461bcd60e51b815260206004820152600660248201526521726561647960d01b604482015260640161110d565b60d1546001600160a01b03169250826143a25760405162461bcd60e51b815260206004820152600b60248201526a10b732bc3a27b83a34b7b760a91b604482015260640161110d565b60d3546040805160c08101825260cc54610100810460ff16825291516370a0823160e01b81523060048201526001600160a01b039384169360009384938493849373E6342509ae61b63F015f268953FCA0dE71e611289363633c14269360cf939092602084019262010000900416906370a082319060240160206040518083038186803b15801561443257600080fd5b505afa158015614446573d6000803e3d6000fd5b505050506040513d601f19601f8201168201806040525081019061446a91906154ac565b815260200161447860995490565b815260208082018f905260d55460408084019190915260d65460609384015280516001600160e01b031960e088901b16815260048101959095528351602486015290830151604485015282015160648401528101516084830152608081015160a483015260a0015160c482015260e40160c06040518083038186803b15801561450057600080fd5b505af4158015614514573d6000803e3d6000fd5b505050506040513d601f19601f8201168201806040525081019061453891906154e8565b809750819850829950839650849b50859c505050505050508760d160010160006101000a8154816001600160a01b0302191690836001600160a01b03160217905550600060d160000160006101000a8154816001600160a01b0302191690836001600160a01b03160217905550600060cf60000160009054906101000a900461ffff1661ffff1690508160ca600083815260200190815260200160002081905550856001600160a01b03167f0a242f7ecaf711036ca770774ceffae28e60ef042ac113ddd187f2631db0c006858584604051614627939291909283526020830191909152604082015260600190565b60405180910390a260d080546001600160801b031916905561464a8160016158bc565b60cf805461ffff191661ffff929092169190911790555061466d90503084614c6b565b801561467d5761467d8482613761565b505050509193909250565b60cf546201000090046001600160681b03166001600160a01b038216156146d45760cf80546cffffffffffffffffffffffffff60781b1916600160781b6001600160681b038416021790555b60cf805462010000600160781b031916905560d280546001600160a01b03191690556001600160a01b0382161561130757604051636c6fe87f60e11b81526001600160a01b037f000000000000000000000000000000000000000000000000000000000000000016600482015260009073E6342509ae61b63F015f268953FCA0dE71e611289063d8dfd0fe9060240160206040518083038186803b15801561477b57600080fd5b505af415801561478f573d6000803e3d6000fd5b505050506040513d601f19601f820116820180604052508101906147b391906154ac565b9050336001600160a01b0316836001600160a01b03167f7e830f7c1771deb1bdb35c4a7e6051bbac32b376f7f4e4976b8618b0b11997f78360405161357891815260200190565b835160009061ffff16158015906148155750845161ffff1684115b1561485757600061483486602001516001600160681b03168585614d4a565b604087015190915061484f906001600160801b0316826142b4565b9150506117aa565b50505050604001516001600160801b031690565b33600090815260cb6020526040812080546001600160801b03620100008204169061ffff16816148cd5760405162461bcd60e51b815260206004820152600d60248201526c139bdd081a5b9a5d1a585d1959609a1b604482015260640161110d565b60cf5461ffff1681106149155760405162461bcd60e51b815260206004820152601060248201526f149bdd5b99081b9bdd0818db1bdcd95960821b604482015260640161110d565b33600090815260cb60205260409020805462010000600160901b031916905560d05461495190600160801b90046001600160801b031683613755565b60d080546001600160801b03928316600160801b029216919091179055600081815260ca602052604081205460cc5461499491859160ff61010090910416613bcc565b604080518281526020810186905291925033917ff279e6a1f5e320cca91135676d9cb6e44ca8a08c0b88342bcdb1144f6511b568910160405180910390a26149dc3084614dad565b60008111614a1e5760405162461bcd60e51b815260206004820152600f60248201526e085dda5d1a191c985dd05b5bdd5b9d608a1b604482015260640161110d565b6117aa3382613761565b600061145982846159df565b600061145982846158d4565b6000614a95826040518060400160405280602081526020017f5361666545524332303a206c6f772d6c6576656c2063616c6c206661696c6564815250856001600160a01b0316614efb9092919063ffffffff16565b805190915015611d5e5780806020019051810190614ab391906153f5565b611d5e5760405162461bcd60e51b815260206004820152602a60248201527f5361666545524332303a204552433230206f7065726174696f6e20646964206e6044820152691bdd081cdd58d8d9595960b21b606482015260840161110d565b600054610100900460ff1680614b2b575060005460ff16155b614b475760405162461bcd60e51b815260040161110d906156cb565b600054610100900460ff16158015614b69576000805461ffff19166101011790555b614b71614f0a565b8015613090576000805461ff001916905550565b600054610100900460ff1680614b9e575060005460ff16155b614bba5760405162461bcd60e51b815260040161110d906156cb565b600054610100900460ff16158015614bdc576000805461ffff19166101011790555b614be4614f79565b614bee8383614fe3565b8015611d5e576000805461ff0019169055505050565b600054610100900460ff1680614c1d575060005460ff16155b614c395760405162461bcd60e51b815260040161110d906156cb565b600054610100900460ff16158015614c5b576000805461ffff19166101011790555b614c63614f79565b614b71615078565b6001600160a01b038216614cc15760405162461bcd60e51b815260206004820152601f60248201527f45524332303a206d696e7420746f20746865207a65726f206164647265737300604482015260640161110d565b8060996000828254614cd391906158bc565b90915550506001600160a01b03821660009081526097602052604081208054839290614d009084906158bc565b90915550506040518181526001600160a01b038316906000907fddf252ad1be2c89b69c2b068fc378daa952ba7f163c4a11628f55a4df523b3ef9060200160405180910390a35050565b600060018311614d945760405162461bcd60e51b8152602060048201526015602482015274496e76616c6964206173736574506572536861726560581b604482015260640161110d565b6117aa836133b2614da685600a615937565b8790614a28565b6001600160a01b038216614e0d5760405162461bcd60e51b815260206004820152602160248201527f45524332303a206275726e2066726f6d20746865207a65726f206164647265736044820152607360f81b606482015260840161110d565b6001600160a01b03821660009081526097602052604090205481811015614e815760405162461bcd60e51b815260206004820152602260248201527f45524332303a206275726e20616d6f756e7420657863656564732062616c616e604482015261636560f01b606482015260840161110d565b6001600160a01b0383166000908152609760205260408120838303905560998054849290614eb09084906159fe565b90915550506040518281526000906001600160a01b038516907fddf252ad1be2c89b69c2b068fc378daa952ba7f163c4a11628f55a4df523b3ef9060200160405180910390a3505050565b60606117aa84846000856150d8565b600054610100900460ff1680614f23575060005460ff16155b614f3f5760405162461bcd60e51b815260040161110d906156cb565b600054610100900460ff16158015614f61576000805461ffff19166101011790555b600180558015613090576000805461ff001916905550565b600054610100900460ff1680614f92575060005460ff16155b614fae5760405162461bcd60e51b815260040161110d906156cb565b600054610100900460ff16158015614b71576000805461ffff19166101011790558015613090576000805461ff001916905550565b600054610100900460ff1680614ffc575060005460ff16155b6150185760405162461bcd60e51b815260040161110d906156cb565b600054610100900460ff1615801561503a576000805461ffff19166101011790555b825161504d90609a906020860190615239565b50815161506190609b906020850190615239565b508015611d5e576000805461ff0019169055505050565b600054610100900460ff1680615091575060005460ff16155b6150ad5760405162461bcd60e51b815260040161110d906156cb565b600054610100900460ff161580156150cf576000805461ffff19166101011790555b614b7133614262565b6060824710156151395760405162461bcd60e51b815260206004820152602660248201527f416464726573733a20696e73756666696369656e742062616c616e636520666f6044820152651c8818d85b1b60d21b606482015260840161110d565b843b6151875760405162461bcd60e51b815260206004820152601d60248201527f416464726573733a2063616c6c20746f206e6f6e2d636f6e7472616374000000604482015260640161110d565b600080866001600160a01b031685876040516151a39190615581565b60006040518083038185875af1925050503d80600081146151e0576040519150601f19603f3d011682016040523d82523d6000602084013e6151e5565b606091505b50915091506151f5828286615200565b979650505050505050565b6060831561520f575081611459565b82511561521f5782518084602001fd5b8160405162461bcd60e51b815260040161110d9190615697565b82805461524590615a41565b90600052602060002090601f01602090048101928261526757600085556152ad565b82601f1061528057805160ff19168380011785556152ad565b828001600101855582156152ad579182015b828111156152ad578251825591602001919060010190615292565b506152b99291506152bd565b5090565b5b808211156152b957600081556001016152be565b80356152dd81615be5565b919050565b80356152dd81615c08565b80356152dd81615c1d565b600060208284031215615309578081fd5b813561145981615be5565b60008060408385031215615326578081fd5b823561533181615be5565b9150602083013561534181615be5565b809150509250929050565b600080600060608486031215615360578081fd5b833561536b81615be5565b9250602084013561537b81615be5565b929592945050506040919091013590565b6000806040838503121561539e578182fd5b82356153a981615be5565b946020939093013593505050565b600080600080608085870312156153cc578081fd5b84516153d781615be5565b60208601516040870151606090970151919890975090945092505050565b600060208284031215615406578081fd5b815161145981615bfa565b60008082840360e0811215615424578283fd5b833567ffffffffffffffff81111561543a578384fd5b8401610160818703121561544c578384fd5b925060c0601f198201121561545f578182fd5b506020830190509250929050565b60006020828403121561547e578081fd5b81356001600160801b0381168114611459578182fd5b6000602082840312156154a5578081fd5b5035919050565b6000602082840312156154bd578081fd5b5051919050565b600080604083850312156154d6578182fd5b82359150602083013561534181615be5565b60008060008060008060c08789031215615500578182fd5b865195506020870151945060408701519350606087015192506080870151915060a087015190509295509295509295565b600060208284031215615542578081fd5b813563ffffffff81168114611459578182fd5b6000815180845261556d816020860160208601615a15565b601f01601f19169290920160200192915050565b60008251615593818460208701615a15565b9190910192915050565b60006101a060018060a01b03808c168452808b166020850152808a1660408501528860608501528760808501528160a08501526155dc82850188615555565b915083820360c08501526155f08287615555565b9250843591506155ff82615bfa565b90151560e084015260208401359061561682615c32565b60ff82166101008501526040850135915061563082615be5565b16610120830152615643606084016152d2565b6001600160a01b031661014083015261565e608084016152ed565b66ffffffffffffff1661016083015261567960a084016152e2565b6001600160681b038116610180840152509998505050505050505050565b6020815260006114596020830184615555565b60208082526007908201526610b5b2b2b832b960c91b604082015260600190565b6020808252602e908201527f496e697469616c697a61626c653a20636f6e747261637420697320616c72656160408201526d191e481a5b9a5d1a585b1a5e995960921b606082015260800190565b6020808252818101527f4f776e61626c653a2063616c6c6572206973206e6f7420746865206f776e6572604082015260600190565b60208082526007908201526608585b5bdd5b9d60ca1b604082015260600190565b6020808252601f908201527f5265656e7472616e637947756172643a207265656e7472616e742063616c6c00604082015260600190565b83516001600160a01b031681526020808501516101608301916157d3908401826001600160a01b03169052565b5060408501516157ee60408401826001600160a01b03169052565b5060608501516060830152608085015161580e608084018261ffff169052565b5060a085015160a083015260c085015161583360c08401826001600160a01b03169052565b5060e085015161584e60e08401826001600160a01b03169052565b5061010094850151948201949094526101208101929092526101409091015290565b6000808335601e19843603018112615886578283fd5b83018035915067ffffffffffffffff8211156158a0578283fd5b6020019150368190038213156158b557600080fd5b9250929050565b600082198211156158cf576158cf615a97565b500190565b6000826158ef57634e487b7160e01b81526012600452602481fd5b500490565b600181815b8085111561592f57816000190482111561591557615915615a97565b8085161561592257918102915b93841c93908002906158f9565b509250929050565b6000611459838360008261594d575060016113ae565b8161595a575060006113ae565b8160018114615970576002811461597a57615996565b60019150506113ae565b60ff84111561598b5761598b615a97565b50506001821b6113ae565b5060208310610133831016604e8410600b84101617156159b9575081810a6113ae565b6159c383836158f4565b80600019048211156159d7576159d7615a97565b029392505050565b60008160001904831182151516156159f9576159f9615a97565b500290565b600082821015615a1057615a10615a97565b500390565b60005b83811015615a30578181015183820152602001615a18565b8381111561374f5750506000910152565b600181811c90821680615a5557607f821691505b60208210811415615a7657634e487b7160e01b600052602260045260246000fd5b50919050565b6000600019821415615a9057615a90615a97565b5060010190565b634e487b7160e01b600052601160045260246000fd5b600081356113ae81615be5565b600081356113ae81615c08565b600081356113ae81615c1d565b8135615adf81615bfa565b815460ff19811691151560ff1691821783556020840135615aff81615c32565b61ff008160081b169050808361ffff198416171784556040850135615b2381615be5565b6001600160b01b0319929092169092179190911760109190911b62010000600160b01b031617815560018101615b7b615b5e60608501615aad565b82546001600160a01b0319166001600160a01b0391909116178255565b615bb4615b8a60808501615ac7565b82805466ffffffffffffff60a01b191660a09290921b66ffffffffffffff60a01b16919091179055565b50611307615bc460a08401615aba565b600283016001600160681b0382166001600160681b03198254161781555050565b6001600160a01b038116811461309057600080fd5b801515811461309057600080fd5b6001600160681b038116811461309057600080fd5b66ffffffffffffff8116811461309057600080fd5b60ff8116811461309057600080fdfea26469706673582212202bb6d8123202cfad86a6edbc0b7ced47d09563b6ca955313207aa742c4c0fab064736f6c63430008040033",
  "deployedBytecode": "0x6080604052600436106104895760003560e01c80638778878211610255578063b4d1d79511610144578063e73c63d5116100c1578063f656ba5111610085578063f656ba5114611017578063f756fa211461104c578063f957a06714611061578063f9a0be6814611081578063fba7dc61146110a2578063fe56e232146110c357600080fd5b8063e73c63d514610fa4578063e74b981b14610fba578063ea00b1ca14610fda578063f2fde38b14610fef578063f6326fb31461100f57600080fd5b8063d164cc1511610108578063d164cc1514610ed4578063d5f2638214610ef4578063db006a7514610f0a578063db43e86214610f2a578063dd62ed3e14610f5e57600080fd5b8063b4d1d79514610e48578063b6b55f2514610e5f578063b9f8092b14610e7f578063ce7c2ac214610e94578063d13f1b3e14610eb457600080fd5b8063a2db9d83116101d2578063a9059cbb11610196578063a9059cbb14610d9f578063aced166114610dbf578063ad5c464814610ddf578063ad7a672f14610e13578063afa6626414610e2857600080fd5b8063a2db9d8314610d0b578063a457c2d714610d29578063a497e67414610d49578063a694fc3a14610d69578063a6f7f5d614610d8957600080fd5b806399530b061161021957806399530b0614610ba55780639be43daa14610bba5780639fcc2d7514610bda578063a083ff1714610c86578063a285c9e814610ce957600080fd5b80638778878214610b0a57806389a3027114610b205780638b10cc7c14610b545780638da5cb5b14610b7257806395d89b4114610b9057600080fd5b8063469048401161037c57806369b41170116102f957806370a08231116102bd57806370a08231146109f8578063715018a614610a2e5780637a9262a214610a435780637e108d5214610aa757806383536ff314610ac757806387153eb114610add57600080fd5b806369b41170146109655780636b64c7691461097a5780636c10f66c1461098f5780636f31ab34146109c357806370897b23146109d857600080fd5b806358358207116103405780635835820714610863578063600a2cfb14610883578063611b034d14610898578063650cce8a146108ad5780636719b2ee146108e157600080fd5b806346904840146107cd57806347786d37146107ed5780634ac88cb61461080d578063503c70aa1461082d57806355489bb21461084357600080fd5b806330630da41161040a5780633ec143d3116103ce5780633ec143d31461072b5780633f23bb73146107595780633f90916a14610779578063432833a6146107975780634603c0aa146107ad57600080fd5b806330630da414610683578063313ce567146106a3578063355274ea146106cd57806336efd16f146106eb578063395093511461070b57600080fd5b806318160ddd1161045157806318160ddd1461054f5780631a92f6c21461056457806323b872dd146105b05780632728f333146105d05780632775d01c1461066357600080fd5b8063048bf0851461048e578063056097ac146104b057806306fdde03146104d0578063095ea7b3146104fb5780630cbf54c81461052b575b600080fd5b34801561049a57600080fd5b506104ae6104a93660046152f8565b6110e3565b005b3480156104bc57600080fd5b506104ae6104cb366004615314565b611139565b3480156104dc57600080fd5b506104e561130b565b6040516104f29190615697565b60405180910390f35b34801561050757600080fd5b5061051b61051636600461538c565b61139d565b60405190151581526020016104f2565b34801561053757600080fd5b5061054160fb5481565b6040519081526020016104f2565b34801561055b57600080fd5b50609954610541565b34801561057057600080fd5b506105987f000000000000000000000000000000000000000000000000000000000000000081565b6040516001600160a01b0390911681526020016104f2565b3480156105bc57600080fd5b5061051b6105cb36600461534c565b6113b4565b3480156105dc57600080fd5b5060cf5460d05461061e9161ffff8116916001600160681b03620100008304811692600160781b900416906001600160801b0380821691600160801b90041685565b6040805161ffff90961686526001600160681b03948516602087015293909216928401929092526001600160801b03918216606084015216608082015260a0016104f2565b34801561066f57600080fd5b506104ae61067e366004615494565b611460565b34801561068f57600080fd5b506104ae61069e3660046152f8565b611603565b3480156106af57600080fd5b5060cc54610100900460ff1660405160ff90911681526020016104f2565b3480156106d957600080fd5b5060ce546001600160681b0316610541565b3480156106f757600080fd5b506104ae6107063660046154c4565b61169b565b34801561071757600080fd5b5061051b61072636600461538c565b611723565b34801561073757600080fd5b5060f9546107469061ffff1681565b60405161ffff90911681526020016104f2565b34801561076557600080fd5b506105416107743660046152f8565b61175f565b34801561078557600080fd5b5060d0546001600160801b0316610541565b3480156107a357600080fd5b5061054160fc5481565b3480156107b957600080fd5b506104ae6107c83660046152f8565b6117b2565b3480156107d957600080fd5b5060d354610598906001600160a01b031681565b3480156107f957600080fd5b506104ae610808366004615494565b611854565b34801561081957600080fd5b506104ae6108283660046152f8565b61192f565b34801561083957600080fd5b5061054160fd5481565b34801561084f57600080fd5b506104ae61085e36600461546d565b61197c565b34801561086f57600080fd5b506104ae61087e366004615411565b611a14565b34801561088f57600080fd5b506104ae611d63565b3480156108a457600080fd5b506104ae611ebe565b3480156108b957600080fd5b506105987f000000000000000000000000000000000000000000000000000000000000000081565b3480156108ed57600080fd5b506109346108fc3660046152f8565b60c96020526000908152604090205461ffff8116906201000081046001600160681b031690600160781b90046001600160801b031683565b6040805161ffff90941684526001600160681b0390921660208401526001600160801b0316908201526060016104f2565b34801561097157600080fd5b50610541600081565b34801561098657600080fd5b506104ae611fd8565b34801561099b57600080fd5b506105987f000000000000000000000000000000000000000000000000000000000000000081565b3480156109cf57600080fd5b506104ae612038565b3480156109e457600080fd5b506104ae6109f3366004615494565b61206f565b348015610a0457600080fd5b50610541610a133660046152f8565b6001600160a01b031660009081526097602052604090205490565b348015610a3a57600080fd5b506104ae612136565b348015610a4f57600080fd5b50610a85610a5e3660046152f8565b60cb6020526000908152604090205461ffff8116906201000090046001600160801b031682565b6040805161ffff90931683526001600160801b039091166020830152016104f2565b348015610ab357600080fd5b506104ae610ac2366004615494565b61216c565b348015610ad357600080fd5b5061054160f75481565b348015610ae957600080fd5b50610541610af8366004615494565b60ca6020526000908152604090205481565b348015610b1657600080fd5b5061054160d55481565b348015610b2c57600080fd5b506105987f000000000000000000000000000000000000000000000000000000000000000081565b348015610b6057600080fd5b5060d2546001600160a01b0316610598565b348015610b7e57600080fd5b506065546001600160a01b0316610598565b348015610b9c57600080fd5b506104e56123a7565b348015610bb157600080fd5b506105416123b6565b348015610bc657600080fd5b506104ae610bd5366004615494565b6123f0565b348015610be657600080fd5b5060cc5460cd5460ce54610c369260ff808216936101008304909116926001600160a01b036201000090930483169282169166ffffffffffffff600160a01b90910416906001600160681b031686565b60408051961515875260ff90951660208701526001600160a01b03938416948601949094529116606084015266ffffffffffffff1660808301526001600160681b031660a082015260c0016104f2565b348015610c9257600080fd5b5060d15460d254610cbd916001600160a01b039081169190811690600160a01b900463ffffffff1683565b604080516001600160a01b03948516815293909216602084015263ffffffff16908201526060016104f2565b348015610cf557600080fd5b5060d254600160a01b900463ffffffff16610541565b348015610d1757600080fd5b5060d1546001600160a01b0316610598565b348015610d3557600080fd5b5061051b610d4436600461538c565b6124ea565b348015610d5557600080fd5b506104ae610d64366004615494565b612583565b348015610d7557600080fd5b506104ae610d84366004615494565b612640565b348015610d9557600080fd5b5061054160d65481565b348015610dab57600080fd5b5061051b610dba36600461538c565b612731565b348015610dcb57600080fd5b5060d454610598906001600160a01b031681565b348015610deb57600080fd5b506105987f000000000000000000000000000000000000000000000000000000000000000081565b348015610e1f57600080fd5b5061054161273e565b348015610e3457600080fd5b5060f554610598906001600160a01b031681565b348015610e5457600080fd5b5061054162093a8081565b348015610e6b57600080fd5b506104ae610e7a366004615494565b6127dd565b348015610e8b57600080fd5b506104ae61284a565b348015610ea057600080fd5b50610541610eaf3660046152f8565b612abe565b348015610ec057600080fd5b506104ae610ecf366004615494565b612adb565b348015610ee057600080fd5b506104ae610eef3660046152f8565b612ba0565b348015610f0057600080fd5b5061054160f85481565b348015610f1657600080fd5b506104ae610f25366004615494565b612c2f565b348015610f3657600080fd5b506105987f000000000000000000000000000000000000000000000000000000000000000081565b348015610f6a57600080fd5b50610541610f79366004615314565b6001600160a01b03918216600090815260986020908152604080832093909416825291909152205490565b348015610fb057600080fd5b5061054160fa5481565b348015610fc657600080fd5b506104ae610fd53660046152f8565b612c9c565b348015610fe657600080fd5b506104ae612d8f565b348015610ffb57600080fd5b506104ae61100a3660046152f8565b612ff8565b6104ae613093565b34801561102357600080fd5b506110376110323660046152f8565b6131e4565b604080519283526020830191909152016104f2565b34801561105857600080fd5b506104ae6132c7565b34801561106d57600080fd5b5060f654610598906001600160a01b031681565b34801561108d57600080fd5b5061010054610598906001600160a01b031681565b3480156110ae57600080fd5b5061010154610598906001600160a01b031681565b3480156110cf57600080fd5b506104ae6110de366004615494565b61331c565b6065546001600160a01b031633146111165760405162461bcd60e51b815260040161110d90615719565b60405180910390fd5b61010080546001600160a01b0319166001600160a01b0392909216919091179055565b6065546001600160a01b031633146111635760405162461bcd60e51b815260040161110d90615719565b60cc546001600160a01b03838116620100009092041614156111c75760405162461bcd60e51b815260206004820152601b60248201527f5661756c74206173736574206e6f74207265636f76657261626c650000000000604482015260640161110d565b6001600160a01b0382163014156112205760405162461bcd60e51b815260206004820152601b60248201527f5661756c74207368617265206e6f74207265636f76657261626c650000000000604482015260640161110d565b6001600160a01b0381163014156112795760405162461bcd60e51b815260206004820152601960248201527f526563697069656e742063616e6e6f74206265207661756c7400000000000000604482015260640161110d565b6040516370a0823160e01b81523060048201526113079082906001600160a01b038516906370a082319060240160206040518083038186803b1580156112be57600080fd5b505afa1580156112d2573d6000803e3d6000fd5b505050506040513d601f19601f820116820180604052508101906112f691906154ac565b6001600160a01b03851691906133fd565b5050565b6060609a805461131a90615a41565b80601f016020809104026020016040519081016040528092919081815260200182805461134690615a41565b80156113935780601f1061136857610100808354040283529160200191611393565b820191906000526020600020905b81548152906001019060200180831161137657829003601f168201915b5050505050905090565b60006113aa338484613460565b5060015b92915050565b60006113c1848484613585565b6001600160a01b0384166000908152609860209081526040808320338452909152902054828110156114465760405162461bcd60e51b815260206004820152602860248201527f45524332303a207472616e7366657220616d6f756e74206578636565647320616044820152676c6c6f77616e636560c01b606482015260840161110d565b6114538533858403613460565b60019150505b9392505050565b600260015414156114835760405162461bcd60e51b815260040161110d9061576f565b600260015533600090815260c96020526040902060cf5461ffff16826114bb5760405162461bcd60e51b815260040161110d9061574e565b815461ffff1681146114ff5760405162461bcd60e51b815260206004820152600d60248201526c125b9d985b1a59081c9bdd5b99609a1b604482015260640161110d565b81546201000090046001600160681b0316838110156115505760405162461bcd60e51b815260206004820152600d60248201526c115e18d9595908185b5bdd5b9d609a1b604482015260640161110d565b61155a8185613755565b83546001600160681b0391909116620100000262010000600160781b031990911617835560d054611594906001600160801b031685613755565b60d080546001600160801b0319166001600160801b0392909216919091179055604080518581526020810184905233917fab2daf3c146ca6416cbccd2a86ed2ba995e171ef6319df14a38aef01403a9c96910160405180910390a26115f93385613761565b5050600180555050565b6065546001600160a01b0316331461162d5760405162461bcd60e51b815260040161110d90615719565b6001600160a01b0381166116795760405162461bcd60e51b815260206004820152601360248201527210b732bba9ba3934b5b2a9b2b632b1ba34b7b760691b604482015260640161110d565b60f680546001600160a01b0319166001600160a01b0392909216919091179055565b600260015414156116be5760405162461bcd60e51b815260040161110d9061576f565b6002600155816116e05760405162461bcd60e51b815260040161110d9061574e565b6001600160a01b0381166116f357600080fd5b6116fd82826138c2565b60cc5461171b906201000090046001600160a01b0316333085613b54565b505060018055565b3360008181526098602090815260408083206001600160a01b038716845290915281205490916113aa91859061175a9086906158bc565b613460565b60cc5460009060ff610100909104168161179561177b60995490565b61178361273e565b60d0546001600160801b031685613b8c565b90506117aa6117a385612abe565b8284613bcc565b949350505050565b6065546001600160a01b031633146117dc5760405162461bcd60e51b815260040161110d90615719565b6001600160a01b0381166118325760405162461bcd60e51b815260206004820152601860248201527f216e65774f7074696f6e735072656d69756d5072696365720000000000000000604482015260640161110d565b60f580546001600160a01b0319166001600160a01b0392909216919091179055565b6065546001600160a01b0316331461187e5760405162461bcd60e51b815260040161110d90615719565b600081116118b85760405162461bcd60e51b81526020600482015260076024820152660216e65774361760cc1b604482015260640161110d565b6118c181613c2e565b60ce54604080516001600160681b039092168252602082018390527f5f86edbb9d92228a9edc3f0ebc0f001bda1ea345ac7335e0eeef3504b31d1a1c910160405180910390a160ce80546cffffffffffffffffffffffffff19166001600160681b0392909216919091179055565b6065546001600160a01b031633146119595760405162461bcd60e51b815260040161110d90615719565b61010180546001600160a01b0319166001600160a01b0392909216919091179055565b6065546001600160a01b031633146119a65760405162461bcd60e51b815260040161110d90615719565b6000816001600160801b0316116119ee5760405162461bcd60e51b815260206004820152600c60248201526b21737472696b65507269636560a01b604482015260640161110d565b6001600160801b031660fa5560cf5460f9805461ffff191661ffff909216919091179055565b600054610100900460ff1680611a2d575060005460ff16155b611a495760405162461bcd60e51b815260040161110d906156cb565b600054610100900460ff16158015611a6b576000805461ffff19166101011790555b611b30611a7b60208501856152f8565b611a8b60408601602087016152f8565b611a9b60608701604088016152f8565b60608701356080880135611ab260a08a018a615870565b8080601f016020809104026020016040519081016040528093929190818152602001838380828437600092019190915250611af49250505060c08b018b615870565b8080601f0160208091040260200160405190810160405280939291908181526020018383808284376000920191909152508c9250613c78915050565b6000611b43610100850160e086016152f8565b6001600160a01b03161415611b935760405162461bcd60e51b815260206004820152601660248201527510afb7b83a34b7b739a83932b6b4bab6a83934b1b2b960511b604482015260640161110d565b6000611ba7610120850161010086016152f8565b6001600160a01b03161415611bf25760405162461bcd60e51b815260206004820152601160248201527010afb9ba3934b5b2a9b2b632b1ba34b7b760791b604482015260640161110d565b6000611c0661014085016101208601615531565b63ffffffff16118015611c3a5750611c20600a60646159df565b611c3261014085016101208601615531565b63ffffffff16105b611c7a5760405162461bcd60e51b81526020600482015260116024820152700857dc1c995b5a5d5b511a5cd8dbdd5b9d607a1b604482015260640161110d565b61012c8361014001351015611cc55760405162461bcd60e51b815260206004820152601160248201527010afb0bab1ba34b7b7223ab930ba34b7b760791b604482015260640161110d565b611cd6610100840160e085016152f8565b60f580546001600160a01b0319166001600160a01b0392909216919091179055611d08610120840161010085016152f8565b60f680546001600160a01b0319166001600160a01b0392909216919091179055611d3a61014084016101208501615531565b63ffffffff1660f75561014083013560fb558015611d5e576000805461ff00191690555b505050565b60d4546001600160a01b03163314611d8d5760405162461bcd60e51b815260040161110d906156aa565b60026001541415611db05760405162461bcd60e51b815260040161110d9061576f565b600260015560d2546040516358ffbb3d60e01b81526001600160a01b037f000000000000000000000000000000000000000000000000000000000000000081166004830152909116602482015260009073__$c4f279750f4bbb575ac7775e752dc00849$__906358ffbb3d9060440160206040518083038186803b158015611e3757600080fd5b505af4158015611e4b573d6000803e3d6000fd5b505050506040513d601f19601f82011682018060405250810190611e6f91906154ac565b60cf54909150611e8e906201000090046001600160681b031682613755565b60cf80546001600160681b0392909216620100000262010000600160781b03199092169190911790555060018055565b60d4546001600160a01b03163314611ee85760405162461bcd60e51b815260040161110d906156aa565b60026001541415611f0b5760405162461bcd60e51b815260040161110d9061576f565b60026001556101015460fc54604051632288d73760e11b81526001600160a01b0392831660048201527f00000000000000000000000000000000000000000000000000000000000000009092166024830152604482015273__$c4f279750f4bbb575ac7775e752dc00849$__90634511ae6e9060640160206040518083038186803b158015611f9957600080fd5b505af4158015611fad573d6000803e3d6000fd5b505050506040513d601f19601f82011682018060405250810190611fd191906154ac565b5060018055565b60d4546001600160a01b031633146120025760405162461bcd60e51b815260040161110d906156aa565b600260015414156120255760405162461bcd60e51b815260040161110d9061576f565b6002600155612032613eb7565b60018055565b6002600154141561205b5760405162461bcd60e51b815260040161110d9061576f565b6002600181905550612032600060016140b3565b6065546001600160a01b031633146120995760405162461bcd60e51b815260040161110d90615719565b6120a7620f424060646159df565b81106120f55760405162461bcd60e51b815260206004820152601760248201527f496e76616c696420706572666f726d616e636520666565000000000000000000604482015260640161110d565b60d55460408051918252602082018390527f24867dfb6fcb9970a07be21024956524abe7a1837faa903ff0e99aaa40cf893e910160405180910390a160d555565b6065546001600160a01b031633146121605760405162461bcd60e51b815260040161110d90615719565b61216a6000614262565b565b6002600154141561218f5760405162461bcd60e51b815260040161110d9061576f565b6002600155806121ce5760405162461bcd60e51b815260206004820152600a602482015269216e756d53686172657360b01b604482015260640161110d565b33600090815260c960205260409020546201000090046001600160681b0316151580612218575033600090815260c96020526040902054600160781b90046001600160801b031615155b1561222957612229600060016140b3565b60cf5433600081815260cb60209081526040918290208054835187815261ffff96871693810184905292959194911685149290917f0c53c82ad07e2d592d88ece3b066777dd60f1118e2a081b380efc4358f0d9e2a910160405180910390a281546201000090046001600160801b0316600082156122b2576122ab82876142b4565b9050612315565b81156122f45760405162461bcd60e51b81526020600482015260116024820152704578697374696e6720776974686472617760781b604482015260640161110d565b5033600090815260cb60205260409020805461ffff191661ffff8616179055845b61231e816142c0565b33600090815260cb6020526040812080546001600160801b03808516620100000262010000600160901b03199092169190911790915560d05461236a91600160801b90910416886142b4565b9050612375816142c0565b60d080546001600160801b03808416600160801b02911617905561239a333089613585565b5050600180555050505050565b6060609b805461131a90615a41565b60006123eb6123c460995490565b6123cc61273e565b60d05460cc546001600160801b0390911690610100900460ff16613b8c565b905090565b600260015414156124135760405162461bcd60e51b815260040161110d9061576f565b6002600155806124525760405162461bcd60e51b815260206004820152600a602482015269216e756d526f756e647360b01b604482015260640161110d565b60cf5461ffff1660005b828110156124e157600061247082846158bc565b600081815260ca6020526040902054909150156124bd5760405162461bcd60e51b815260206004820152600b60248201526a125b9a5d1a585b1a5e995960aa1b604482015260640161110d565b600090815260ca6020526040902060019055806124d981615a7c565b91505061245c565b50506001805550565b3360009081526098602090815260408083206001600160a01b03861684529091528120548281101561256c5760405162461bcd60e51b815260206004820152602560248201527f45524332303a2064656372656173656420616c6c6f77616e63652062656c6f77604482015264207a65726f60d81b606482015260840161110d565b6125793385858403613460565b5060019392505050565b6065546001600160a01b031633146125ad5760405162461bcd60e51b815260040161110d90615719565b61012c8110156125ff5760405162461bcd60e51b815260206004820152601860248201527f496e76616c69642061756374696f6e206475726174696f6e0000000000000000604482015260640161110d565b60fb5460408051918252602082018390527f5acd982e2240ed224a69aa03dab039d3797c108e4b5f288cd7dd6ca181b275f3910160405180910390a160fb55565b600260015414156126635760405162461bcd60e51b815260040161110d9061576f565b6002600155610100546001600160a01b03168061267f57600080fd5b6000821161268c57600080fd5b33600090815260976020526040902054828110156126b8576126b86126b18483613755565b60006140b3565b6126c3333085613585565b6126ce308385613460565b6040516383df674760e01b815260048101849052336024820152600060448201526001600160a01b038316906383df674790606401600060405180830381600087803b15801561271d57600080fd5b505af115801561239a573d6000803e3d6000fd5b60006113aa338484613585565b60cc546040516370a0823160e01b81523060048201526000916123eb91620100009091046001600160a01b0316906370a082319060240160206040518083038186803b15801561278d57600080fd5b505afa1580156127a1573d6000803e3d6000fd5b505050506040513d601f19601f820116820180604052508101906127c591906154ac565b60cf546201000090046001600160681b0316906142b4565b600260015414156128005760405162461bcd60e51b815260040161110d9061576f565b6002600155806128225760405162461bcd60e51b815260040161110d9061574e565b61282c81336138c2565b60cc54611fd1906201000090046001600160a01b0316333084613b54565b60d4546001600160a01b031633146128745760405162461bcd60e51b815260040161110d906156aa565b600260015414156128975760405162461bcd60e51b815260040161110d9061576f565b600260018190555060008060006128af60fd5461430a565b60fd819055919450925090506128c482613c2e565b60cf805462010000600160781b031916620100006001600160681b0385160217905560405182815233906001600160a01b038516907f045c558fdce4714c5816d53820d27420f4cd860892df203fe636384d8d19aa019060200160405180910390a3604051632904c23960e01b81526001600160a01b037f0000000000000000000000000000000000000000000000000000000000000000811660048301527f000000000000000000000000000000000000000000000000000000000000000081166024830152841660448201526064810183905260009073__$c4f279750f4bbb575ac7775e752dc00849$__90632904c2399060840160206040518083038186803b1580156129d357600080fd5b505af41580156129e7573d6000803e3d6000fd5b505050506040513d601f19601f82011682018060405250810190612a0b91906154ac565b61010154604051636648c73d60e11b81526001600160a01b039182166004820152908616602482015260448101829052611388606482015290915073__$c4f279750f4bbb575ac7775e752dc00849$__9063cc918e7a9060840160206040518083038186803b158015612a7d57600080fd5b505af4158015612a91573d6000803e3d6000fd5b505050506040513d601f19601f82011682018060405250810190612ab591906154ac565b506115f9613eb7565b6000806000612acc846131e4565b90925090506117aa82826142b4565b60d4546001600160a01b03163314612b055760405162461bcd60e51b815260040161110d906156aa565b600081118015612b205750612b1c600a60646159df565b8111155b612b5f5760405162461bcd60e51b815260206004820152601060248201526f125b9d985b1a5908191a5cd8dbdd5b9d60821b604482015260640161110d565b60f75460408051918252602082018390527f4cd657fde404967d63a338fb06c5c98751a9df57dfae6dc333a432faf8a5f656910160405180910390a160f755565b6065546001600160a01b03163314612bca5760405162461bcd60e51b815260040161110d90615719565b6001600160a01b038116612c0d5760405162461bcd60e51b815260206004820152600a60248201526910b732bba5b2b2b832b960b11b604482015260640161110d565b60d480546001600160a01b0319166001600160a01b0392909216919091179055565b60026001541415612c525760405162461bcd60e51b815260040161110d9061576f565b600260015580612c915760405162461bcd60e51b815260206004820152600a602482015269216e756d53686172657360b01b604482015260640161110d565b611fd18160006140b3565b6065546001600160a01b03163314612cc65760405162461bcd60e51b815260040161110d90615719565b6001600160a01b038116612d0f5760405162461bcd60e51b815260206004820152601060248201526f085b995dd19959549958da5c1a595b9d60821b604482015260640161110d565b60d3546001600160a01b0382811691161415612d6d5760405162461bcd60e51b815260206004820152601860248201527f4d757374206265206e657720666565526563697069656e740000000000000000604482015260640161110d565b60d380546001600160a01b0319166001600160a01b0392909216919091179055565b60026001541415612db25760405162461bcd60e51b815260040161110d9061576f565b600260015560d25460408051610120810182526001600160a01b037f0000000000000000000000000000000000000000000000000000000000000000811682527f00000000000000000000000000000000000000000000000000000000000000008116602083015292831681830181905260006060830181905260f95461ffff16608084015260fa5460a084015260f654851660c084015260f55490941660e083015260f754610100830152915163f39ad79560e01b81529192909181908190819073__$c4f279750f4bbb575ac7775e752dc00849$__9063f39ad79590612ea490889060cc9060cf906004016157a6565b60806040518083038186803b158015612ebc57600080fd5b505af4158015612ed0573d6000803e3d6000fd5b505050506040513d601f19601f82011682018060405250810190612ef491906153b7565b93509350935093507fa217999b1c125c2a996f712c5f26a28addad7167bd8a67d5bd5b2a751148abb08282604051612f36929190918252602082015260400190565b60405180910390a1612f4783613c2e565b6001600160681b03831660f85560d180546001600160a01b0319166001600160a01b0386161790556000612f7b42826142b4565b905063ffffffff811115612fd15760405162461bcd60e51b815260206004820152601860248201527f4f766572666c6f77206e6578744f7074696f6e52656164790000000000000000604482015260640161110d565b60d2805463ffffffff60a01b1916600160a01b63ffffffff84160217905561239a87614688565b6065546001600160a01b031633146130225760405162461bcd60e51b815260040161110d90615719565b6001600160a01b0381166130875760405162461bcd60e51b815260206004820152602660248201527f4f776e61626c653a206e6577206f776e657220697320746865207a65726f206160448201526564647265737360d01b606482015260840161110d565b61309081614262565b50565b600260015414156130b65760405162461bcd60e51b815260040161110d9061576f565b600260015560cc547f00000000000000000000000000000000000000000000000000000000000000006001600160a01b039081166201000090920416146131275760405162461bcd60e51b8152602060048201526005602482015264042ae8aa8960db1b604482015260640161110d565b600034116131605760405162461bcd60e51b81526020600482015260066024820152652176616c756560d01b604482015260640161110d565b61316a34336138c2565b7f00000000000000000000000000000000000000000000000000000000000000006001600160a01b031663d0e30db0346040518263ffffffff1660e01b81526004016000604051808303818588803b1580156131c557600080fd5b505af11580156131d9573d6000803e3d6000fd5b505060018055505050565b6001600160a01b038116600090815260c9602090815260408083208151606081018352905461ffff81168083526201000082046001600160681b031694830194909452600160781b90046001600160801b031691810191909152829160011115613266575050506001600160a01b031660009081526097602052604081205491565b60cf54815161ffff908116600090815260ca602052604081205460cc54919361329c93869391169190610100900460ff166147fa565b90506132bd856001600160a01b031660009081526097602052604090205490565b9590945092505050565b600260015414156132ea5760405162461bcd60e51b815260040161110d9061576f565b600260015560006132f961486b565b60fd549091506133099082613755565b6001600160801b031660fd555060018055565b6065546001600160a01b031633146133465760405162461bcd60e51b815260040161110d90615719565b613354620f424060646159df565b811061339b5760405162461bcd60e51b8152602060048201526016602482015275496e76616c6964206d616e6167656d656e742066656560501b604482015260640161110d565b60006133b863031ba3096133b284620f4240614a28565b90614a34565b60d65460408051918252602082018590529192507f4e874b007ab14f7e263baefd44951834c8266f4f224d1092e49e9c254354cc54910160405180910390a160d65550565b6040516001600160a01b038316602482015260448101829052611d5e90849063a9059cbb60e01b906064015b60408051601f198184030181529190526020810180516001600160e01b03166001600160e01b031990931692909217909152614a40565b6001600160a01b0383166134c25760405162461bcd60e51b8152602060048201526024808201527f45524332303a20617070726f76652066726f6d20746865207a65726f206164646044820152637265737360e01b606482015260840161110d565b6001600160a01b0382166135235760405162461bcd60e51b815260206004820152602260248201527f45524332303a20617070726f766520746f20746865207a65726f206164647265604482015261737360f01b606482015260840161110d565b6001600160a01b0383811660008181526098602090815260408083209487168084529482529182902085905590518481527f8c5be1e5ebec7d5bd14f71427d1e84f3dd0314c0f7b2291e5b200ac8c7c3b92591015b60405180910390a3505050565b6001600160a01b0383166135e95760405162461bcd60e51b815260206004820152602560248201527f45524332303a207472616e736665722066726f6d20746865207a65726f206164604482015264647265737360d81b606482015260840161110d565b6001600160a01b03821661364b5760405162461bcd60e51b815260206004820152602360248201527f45524332303a207472616e7366657220746f20746865207a65726f206164647260448201526265737360e81b606482015260840161110d565b6001600160a01b038316600090815260976020526040902054818110156136c35760405162461bcd60e51b815260206004820152602660248201527f45524332303a207472616e7366657220616d6f756e7420657863656564732062604482015265616c616e636560d01b606482015260840161110d565b6001600160a01b038085166000908152609760205260408082208585039055918516815290812080548492906136fa9084906158bc565b92505081905550826001600160a01b0316846001600160a01b03167fddf252ad1be2c89b69c2b068fc378daa952ba7f163c4a11628f55a4df523b3ef8460405161374691815260200190565b60405180910390a35b50505050565b600061145982846159fe565b60cc546001600160a01b03620100009091048116907f0000000000000000000000000000000000000000000000000000000000000000168114156138ae57604051632e1a7d4d60e01b8152600481018390527f00000000000000000000000000000000000000000000000000000000000000006001600160a01b031690632e1a7d4d90602401600060405180830381600087803b15801561380157600080fd5b505af1158015613815573d6000803e3d6000fd5b505050506000836001600160a01b03168360405160006040518083038185875af1925050503d8060008114613866576040519150601f19603f3d011682016040523d82523d6000602084013e61386b565b606091505b505090508061374f5760405162461bcd60e51b815260206004820152600f60248201526e151c985b9cd9995c8819985a5b1959608a1b604482015260640161110d565b611d5e6001600160a01b03821684846133fd565b60cf5461ffff1660006138dd846138d761273e565b906142b4565b60ce549091506001600160681b03168111156139285760405162461bcd60e51b815260206004820152600a6024820152690457863656564206361760b41b604482015260640161110d565b60cd54600160a01b900466ffffffffffffff168110156139815760405162461bcd60e51b8152602060048201526014602482015273496e73756666696369656e742062616c616e636560601b604482015260640161110d565b60408051858152602081018490526001600160a01b038516917f90890809c654f11d6e72a28fa60149770a0d11ec6c92319d6ceb2bb0a4ea1a15910160405180910390a26001600160a01b038316600090815260c9602090815260408083208151606081018352905461ffff81168083526201000082046001600160681b031683860152600160781b9091046001600160801b031682840152845260ca90925282205460cc54919291613a40918491879190610100900460ff166147fa565b8251909150869061ffff16851415613a71576020830151600090613a6d906001600160681b0316896142b4565b9150505b613a7a81613c2e565b6040805160608101825261ffff80881682526001600160681b0380851660208085019182526001600160801b038089168688019081526001600160a01b038e16600090815260c990935296822095518654935197518216600160781b02600160781b600160f81b03199890951662010000026effffffffffffffffffffffffffffff1990941695169490941791909117949094161790915560d054613b209116896142b4565b9050613b2b816142c0565b60d080546001600160801b0319166001600160801b039290921691909117905550505050505050565b6040516001600160a01b038085166024830152831660448201526064810182905261374f9085906323b872dd60e01b90608401613429565b600080613b9a83600a615937565b905060008611613baa5780613bc2565b613bc2866133b2613bbb8888613755565b8490614a28565b9695505050505050565b600060018311613c165760405162461bcd60e51b8152602060048201526015602482015274496e76616c6964206173736574506572536861726560581b604482015260640161110d565b6117aa613c2483600a615937565b6133b28686614a28565b6001600160681b038111156130905760405162461bcd60e51b815260206004820152601060248201526f13dd995c999b1bddc81d5a5b9d0c4c0d60821b604482015260640161110d565b600054610100900460ff1680613c91575060005460ff16155b613cad5760405162461bcd60e51b815260040161110d906156cb565b600054610100900460ff16158015613ccf576000805461ffff19166101011790555b60405163c72733f760e01b815273__$c4f279750f4bbb575ac7775e752dc00849$__9063c72733f790613d14908c908c908c908b908d908c908c908c9060040161559d565b60006040518083038186803b158015613d2c57600080fd5b505af4158015613d40573d6000803e3d6000fd5b50505050613d4c614b12565b613d568484614b85565b613d5e614c04565b613d6789612ff8565b60d480546001600160a01b03808b166001600160a01b03199283161790925560d38054928a169290911691909117905560d5859055613db163031ba3096133b288620f4240614a28565b60d6558160cc613dc18282615ad4565b505060cc546040516370a0823160e01b81523060048201526000916201000090046001600160a01b0316906370a082319060240160206040518083038186803b158015613e0d57600080fd5b505afa158015613e21573d6000803e3d6000fd5b505050506040513d601f19601f82011682018060405250810190613e4591906154ac565b9050613e5081613c2e565b60cf805461ffff196001600160681b03909316600160781b02929092167fffffffff00000000000000000000000000ffffffffffffffffffffffffff00009092169190911760011790558015613eac576000805461ff00191690555b505050505050505050565b6040805160c081018252600080825260208201819052918101829052606081018290526080810182905260a081019190915260d25460f55460f754604051630f7d679f60e01b81526001600160a01b0393841660048201819052939092166024830152604482015260009073__$c4f279750f4bbb575ac7775e752dc00849$__90630f7d679f9060640160206040518083038186803b158015613f5957600080fd5b505af4158015613f6d573d6000803e3d6000fd5b505050506040513d601f19601f82011682018060405250810190613f9191906154ac565b6001600160a01b0383811685527f000000000000000000000000000000000000000000000000000000000000000081166020860190815260cc546201000081048316604080890191825261010090920460ff16606089019081526080890186815260fb5460a08b019081529351633baf17fd60e21b81528a5187166004820152945186166024860152915190941660448401529251606483015291516084820152905160a482015290915073__$c4f279750f4bbb575ac7775e752dc00849$__9063eebc5ff49060c40160206040518083038186803b15801561407357600080fd5b505af4158015614087573d6000803e3d6000fd5b505050506040513d601f19601f820116820180604052508101906140ab91906154ac565b60fc55505050565b33600090815260c9602090815260408083208151606081018352905461ffff8082168084526201000083046001600160681b031684870152600160781b9092046001600160801b03168385015260cf5491865260ca9094529184205460cc549194929093169261412e9185918591610100900460ff166147fa565b90508361413b578461413d565b805b94508461414b575050505050565b8085111561418f5760405162461bcd60e51b81526020600482015260116024820152704578636565647320617661696c61626c6560781b604482015260640161110d565b825161ffff168211156141bc5733600090815260c960205260409020805462010000600160781b03191690555b6141c5856142c0565b6141cf8186613755565b33600081815260c960205260409081902080546001600160801b0394909416600160781b02600160781b600160f81b0319909416939093179092558451915190917fe5b754fb1abb7f01b499791d0b820ae3b6af3424ac1c59768edb53f4ec31a929916142489189825261ffff16602082015260400190565b60405180910390a261425b303387613585565b5050505050565b606580546001600160a01b038381166001600160a01b0319831681179093556040519116919082907f8be0079c531659141344cd1fd0a4f28419497f9722a3daafe3b4186f6b6457e090600090a35050565b600061145982846158bc565b6001600160801b038111156130905760405162461bcd60e51b815260206004820152601060248201526f09eeccae4ccd8deee40ead2dce86264760831b604482015260640161110d565b60d25460009081908190600160a01b900463ffffffff164210156143595760405162461bcd60e51b815260206004820152600660248201526521726561647960d01b604482015260640161110d565b60d1546001600160a01b03169250826143a25760405162461bcd60e51b815260206004820152600b60248201526a10b732bc3a27b83a34b7b760a91b604482015260640161110d565b60d3546040805160c08101825260cc54610100810460ff16825291516370a0823160e01b81523060048201526001600160a01b039384169360009384938493849373__$c4f279750f4bbb575ac7775e752dc00849$__9363633c14269360cf939092602084019262010000900416906370a082319060240160206040518083038186803b15801561443257600080fd5b505afa158015614446573d6000803e3d6000fd5b505050506040513d601f19601f8201168201806040525081019061446a91906154ac565b815260200161447860995490565b815260208082018f905260d55460408084019190915260d65460609384015280516001600160e01b031960e088901b16815260048101959095528351602486015290830151604485015282015160648401528101516084830152608081015160a483015260a0015160c482015260e40160c06040518083038186803b15801561450057600080fd5b505af4158015614514573d6000803e3d6000fd5b505050506040513d601f19601f8201168201806040525081019061453891906154e8565b809750819850829950839650849b50859c505050505050508760d160010160006101000a8154816001600160a01b0302191690836001600160a01b03160217905550600060d160000160006101000a8154816001600160a01b0302191690836001600160a01b03160217905550600060cf60000160009054906101000a900461ffff1661ffff1690508160ca600083815260200190815260200160002081905550856001600160a01b03167f0a242f7ecaf711036ca770774ceffae28e60ef042ac113ddd187f2631db0c006858584604051614627939291909283526020830191909152604082015260600190565b60405180910390a260d080546001600160801b031916905561464a8160016158bc565b60cf805461ffff191661ffff929092169190911790555061466d90503084614c6b565b801561467d5761467d8482613761565b505050509193909250565b60cf546201000090046001600160681b03166001600160a01b038216156146d45760cf80546cffffffffffffffffffffffffff60781b1916600160781b6001600160681b038416021790555b60cf805462010000600160781b031916905560d280546001600160a01b03191690556001600160a01b0382161561130757604051636c6fe87f60e11b81526001600160a01b037f000000000000000000000000000000000000000000000000000000000000000016600482015260009073__$c4f279750f4bbb575ac7775e752dc00849$__9063d8dfd0fe9060240160206040518083038186803b15801561477b57600080fd5b505af415801561478f573d6000803e3d6000fd5b505050506040513d601f19601f820116820180604052508101906147b391906154ac565b9050336001600160a01b0316836001600160a01b03167f7e830f7c1771deb1bdb35c4a7e6051bbac32b376f7f4e4976b8618b0b11997f78360405161357891815260200190565b835160009061ffff16158015906148155750845161ffff1684115b1561485757600061483486602001516001600160681b03168585614d4a565b604087015190915061484f906001600160801b0316826142b4565b9150506117aa565b50505050604001516001600160801b031690565b33600090815260cb6020526040812080546001600160801b03620100008204169061ffff16816148cd5760405162461bcd60e51b815260206004820152600d60248201526c139bdd081a5b9a5d1a585d1959609a1b604482015260640161110d565b60cf5461ffff1681106149155760405162461bcd60e51b815260206004820152601060248201526f149bdd5b99081b9bdd0818db1bdcd95960821b604482015260640161110d565b33600090815260cb60205260409020805462010000600160901b031916905560d05461495190600160801b90046001600160801b031683613755565b60d080546001600160801b03928316600160801b029216919091179055600081815260ca602052604081205460cc5461499491859160ff61010090910416613bcc565b604080518281526020810186905291925033917ff279e6a1f5e320cca91135676d9cb6e44ca8a08c0b88342bcdb1144f6511b568910160405180910390a26149dc3084614dad565b60008111614a1e5760405162461bcd60e51b815260206004820152600f60248201526e085dda5d1a191c985dd05b5bdd5b9d608a1b604482015260640161110d565b6117aa3382613761565b600061145982846159df565b600061145982846158d4565b6000614a95826040518060400160405280602081526020017f5361666545524332303a206c6f772d6c6576656c2063616c6c206661696c6564815250856001600160a01b0316614efb9092919063ffffffff16565b805190915015611d5e5780806020019051810190614ab391906153f5565b611d5e5760405162461bcd60e51b815260206004820152602a60248201527f5361666545524332303a204552433230206f7065726174696f6e20646964206e6044820152691bdd081cdd58d8d9595960b21b606482015260840161110d565b600054610100900460ff1680614b2b575060005460ff16155b614b475760405162461bcd60e51b815260040161110d906156cb565b600054610100900460ff16158015614b69576000805461ffff19166101011790555b614b71614f0a565b8015613090576000805461ff001916905550565b600054610100900460ff1680614b9e575060005460ff16155b614bba5760405162461bcd60e51b815260040161110d906156cb565b600054610100900460ff16158015614bdc576000805461ffff19166101011790555b614be4614f79565b614bee8383614fe3565b8015611d5e576000805461ff0019169055505050565b600054610100900460ff1680614c1d575060005460ff16155b614c395760405162461bcd60e51b815260040161110d906156cb565b600054610100900460ff16158015614c5b576000805461ffff19166101011790555b614c63614f79565b614b71615078565b6001600160a01b038216614cc15760405162461bcd60e51b815260206004820152601f60248201527f45524332303a206d696e7420746f20746865207a65726f206164647265737300604482015260640161110d565b8060996000828254614cd391906158bc565b90915550506001600160a01b03821660009081526097602052604081208054839290614d009084906158bc565b90915550506040518181526001600160a01b038316906000907fddf252ad1be2c89b69c2b068fc378daa952ba7f163c4a11628f55a4df523b3ef9060200160405180910390a35050565b600060018311614d945760405162461bcd60e51b8152602060048201526015602482015274496e76616c6964206173736574506572536861726560581b604482015260640161110d565b6117aa836133b2614da685600a615937565b8790614a28565b6001600160a01b038216614e0d5760405162461bcd60e51b815260206004820152602160248201527f45524332303a206275726e2066726f6d20746865207a65726f206164647265736044820152607360f81b606482015260840161110d565b6001600160a01b03821660009081526097602052604090205481811015614e815760405162461bcd60e51b815260206004820152602260248201527f45524332303a206275726e20616d6f756e7420657863656564732062616c616e604482015261636560f01b606482015260840161110d565b6001600160a01b0383166000908152609760205260408120838303905560998054849290614eb09084906159fe565b90915550506040518281526000906001600160a01b038516907fddf252ad1be2c89b69c2b068fc378daa952ba7f163c4a11628f55a4df523b3ef9060200160405180910390a3505050565b60606117aa84846000856150d8565b600054610100900460ff1680614f23575060005460ff16155b614f3f5760405162461bcd60e51b815260040161110d906156cb565b600054610100900460ff16158015614f61576000805461ffff19166101011790555b600180558015613090576000805461ff001916905550565b600054610100900460ff1680614f92575060005460ff16155b614fae5760405162461bcd60e51b815260040161110d906156cb565b600054610100900460ff16158015614b71576000805461ffff19166101011790558015613090576000805461ff001916905550565b600054610100900460ff1680614ffc575060005460ff16155b6150185760405162461bcd60e51b815260040161110d906156cb565b600054610100900460ff1615801561503a576000805461ffff19166101011790555b825161504d90609a906020860190615239565b50815161506190609b906020850190615239565b508015611d5e576000805461ff0019169055505050565b600054610100900460ff1680615091575060005460ff16155b6150ad5760405162461bcd60e51b815260040161110d906156cb565b600054610100900460ff161580156150cf576000805461ffff19166101011790555b614b7133614262565b6060824710156151395760405162461bcd60e51b815260206004820152602660248201527f416464726573733a20696e73756666696369656e742062616c616e636520666f6044820152651c8818d85b1b60d21b606482015260840161110d565b843b6151875760405162461bcd60e51b815260206004820152601d60248201527f416464726573733a2063616c6c20746f206e6f6e2d636f6e7472616374000000604482015260640161110d565b600080866001600160a01b031685876040516151a39190615581565b60006040518083038185875af1925050503d80600081146151e0576040519150601f19603f3d011682016040523d82523d6000602084013e6151e5565b606091505b50915091506151f5828286615200565b979650505050505050565b6060831561520f575081611459565b82511561521f5782518084602001fd5b8160405162461bcd60e51b815260040161110d9190615697565b82805461524590615a41565b90600052602060002090601f01602090048101928261526757600085556152ad565b82601f1061528057805160ff19168380011785556152ad565b828001600101855582156152ad579182015b828111156152ad578251825591602001919060010190615292565b506152b99291506152bd565b5090565b5b808211156152b957600081556001016152be565b80356152dd81615be5565b919050565b80356152dd81615c08565b80356152dd81615c1d565b600060208284031215615309578081fd5b813561145981615be5565b60008060408385031215615326578081fd5b823561533181615be5565b9150602083013561534181615be5565b809150509250929050565b600080600060608486031215615360578081fd5b833561536b81615be5565b9250602084013561537b81615be5565b929592945050506040919091013590565b6000806040838503121561539e578182fd5b82356153a981615be5565b946020939093013593505050565b600080600080608085870312156153cc578081fd5b84516153d781615be5565b60208601516040870151606090970151919890975090945092505050565b600060208284031215615406578081fd5b815161145981615bfa565b60008082840360e0811215615424578283fd5b833567ffffffffffffffff81111561543a578384fd5b8401610160818703121561544c578384fd5b925060c0601f198201121561545f578182fd5b506020830190509250929050565b60006020828403121561547e578081fd5b81356001600160801b0381168114611459578182fd5b6000602082840312156154a5578081fd5b5035919050565b6000602082840312156154bd578081fd5b5051919050565b600080604083850312156154d6578182fd5b82359150602083013561534181615be5565b60008060008060008060c08789031215615500578182fd5b865195506020870151945060408701519350606087015192506080870151915060a087015190509295509295509295565b600060208284031215615542578081fd5b813563ffffffff81168114611459578182fd5b6000815180845261556d816020860160208601615a15565b601f01601f19169290920160200192915050565b60008251615593818460208701615a15565b9190910192915050565b60006101a060018060a01b03808c168452808b166020850152808a1660408501528860608501528760808501528160a08501526155dc82850188615555565b915083820360c08501526155f08287615555565b9250843591506155ff82615bfa565b90151560e084015260208401359061561682615c32565b60ff82166101008501526040850135915061563082615be5565b16610120830152615643606084016152d2565b6001600160a01b031661014083015261565e608084016152ed565b66ffffffffffffff1661016083015261567960a084016152e2565b6001600160681b038116610180840152509998505050505050505050565b6020815260006114596020830184615555565b60208082526007908201526610b5b2b2b832b960c91b604082015260600190565b6020808252602e908201527f496e697469616c697a61626c653a20636f6e747261637420697320616c72656160408201526d191e481a5b9a5d1a585b1a5e995960921b606082015260800190565b6020808252818101527f4f776e61626c653a2063616c6c6572206973206e6f7420746865206f776e6572604082015260600190565b60208082526007908201526608585b5bdd5b9d60ca1b604082015260600190565b6020808252601f908201527f5265656e7472616e637947756172643a207265656e7472616e742063616c6c00604082015260600190565b83516001600160a01b031681526020808501516101608301916157d3908401826001600160a01b03169052565b5060408501516157ee60408401826001600160a01b03169052565b5060608501516060830152608085015161580e608084018261ffff169052565b5060a085015160a083015260c085015161583360c08401826001600160a01b03169052565b5060e085015161584e60e08401826001600160a01b03169052565b5061010094850151948201949094526101208101929092526101409091015290565b6000808335601e19843603018112615886578283fd5b83018035915067ffffffffffffffff8211156158a0578283fd5b6020019150368190038213156158b557600080fd5b9250929050565b600082198211156158cf576158cf615a97565b500190565b6000826158ef57634e487b7160e01b81526012600452602481fd5b500490565b600181815b8085111561592f57816000190482111561591557615915615a97565b8085161561592257918102915b93841c93908002906158f9565b509250929050565b6000611459838360008261594d575060016113ae565b8161595a575060006113ae565b8160018114615970576002811461597a57615996565b60019150506113ae565b60ff84111561598b5761598b615a97565b50506001821b6113ae565b5060208310610133831016604e8410600b84101617156159b9575081810a6113ae565b6159c383836158f4565b80600019048211156159d7576159d7615a97565b029392505050565b60008160001904831182151516156159f9576159f9615a97565b500290565b600082821015615a1057615a10615a97565b500390565b60005b83811015615a30578181015183820152602001615a18565b8381111561374f5750506000910152565b600181811c90821680615a5557607f821691505b60208210811415615a7657634e487b7160e01b600052602260045260246000fd5b50919050565b6000600019821415615a9057615a90615a97565b5060010190565b634e487b7160e01b600052601160045260246000fd5b600081356113ae81615be5565b600081356113ae81615c08565b600081356113ae81615c1d565b8135615adf81615bfa565b815460ff19811691151560ff1691821783556020840135615aff81615c32565b61ff008160081b169050808361ffff198416171784556040850135615b2381615be5565b6001600160b01b0319929092169092179190911760109190911b62010000600160b01b031617815560018101615b7b615b5e60608501615aad565b82546001600160a01b0319166001600160a01b0391909116178255565b615bb4615b8a60808501615ac7565b82805466ffffffffffffff60a01b191660a09290921b66ffffffffffffff60a01b16919091179055565b50611307615bc460a08401615aba565b600283016001600160681b0382166001600160681b03198254161781555050565b6001600160a01b038116811461309057600080fd5b801515811461309057600080fd5b6001600160681b038116811461309057600080fd5b66ffffffffffffff8116811461309057600080fd5b60ff8116811461309057600080fdfea26469706673582212202bb6d8123202cfad86a6edbc0b7ced47d09563b6ca955313207aa742c4c0fab064736f6c63430008040033",
  "libraries": {
    "VaultLifecycle": "0xE6342509ae61b63F015f268953FCA0dE71e61128"
  },
  "devdoc": {
    "kind": "dev",
    "methods": {
      "accountVaultBalance(address)": {
        "params": {
          "account": "is the address to lookup balance for"
        },
        "returns": {
          "_0": "the amount of `asset` custodied by the vault for the user"
        }
      },
      "allowance(address,address)": {
        "details": "See {IERC20-allowance}."
      },
      "approve(address,uint256)": {
        "details": "See {IERC20-approve}. Requirements: - `spender` cannot be the zero address."
      },
      "balanceOf(address)": {
        "details": "See {IERC20-balanceOf}."
      },
      "constructor": {
        "params": {
          "_gammaController": "is the contract address for opyn actions",
          "_gnosisEasyAuction": "is the contract address that facilitates gnosis auctions",
          "_marginPool": "is the contract address for providing collateral to opyn",
          "_oTokenFactory": "is the contract address for minting new opyn option types (strikes, asset, expiry)",
          "_usdc": "is the USDC contract",
          "_weth": "is the Wrapped Ether contract"
        }
      },
      "decreaseAllowance(address,uint256)": {
        "details": "Atomically decreases the allowance granted to `spender` by the caller. This is an alternative to {approve} that can be used as a mitigation for problems described in {IERC20-approve}. Emits an {Approval} event indicating the updated allowance. Requirements: - `spender` cannot be the zero address. - `spender` must have allowance for the caller of at least `subtractedValue`."
      },
      "deposit(uint256)": {
        "params": {
          "amount": "is the amount of `asset` to deposit"
        }
      },
      "depositFor(uint256,address)": {
        "params": {
          "amount": "is the amount of `asset` to deposit",
          "creditor": "is the address that can claim/withdraw deposited amount"
        }
      },
      "increaseAllowance(address,uint256)": {
        "details": "Atomically increases the allowance granted to `spender` by the caller. This is an alternative to {approve} that can be used as a mitigation for problems described in {IERC20-approve}. Emits an {Approval} event indicating the updated allowance. Requirements: - `spender` cannot be the zero address."
      },
      "initialize((address,address,address,uint256,uint256,string,string,address,address,uint32,uint256),(bool,uint8,address,address,uint56,uint104))": {
        "params": {
          "_initParams": "is the struct with vault initialization parameters",
          "_vaultParams": "is the struct with vault general data"
        }
      },
      "initiateWithdraw(uint256)": {
        "params": {
          "numShares": "is the number of shares to withdraw"
        }
      },
      "name()": {
        "details": "Returns the name of the token."
      },
      "owner()": {
        "details": "Returns the address of the current owner."
      },
      "recoverTokens(address,address)": {
        "params": {
          "recipient": "is the recipient of the recovered tokens",
          "token": "is the ERC20 token to recover from the vault"
        }
      },
      "redeem(uint256)": {
        "params": {
          "numShares": "is the number of shares to redeem"
        }
      },
      "renounceOwnership()": {
        "details": "Leaves the contract without owner. It will not be possible to call `onlyOwner` functions anymore. Can only be called by the current owner. NOTE: Renouncing ownership will leave the contract without an owner, thereby removing any functionality that is only available to the owner."
      },
      "setAuctionDuration(uint256)": {
        "params": {
          "newAuctionDuration": "is the auction duration"
        }
      },
      "setCap(uint256)": {
        "params": {
          "newCap": "is the new cap for deposits"
        }
      },
      "setFeeRecipient(address)": {
        "params": {
          "newFeeRecipient": "is the address of the new fee recipient"
        }
      },
      "setLiquidityGauge(address)": {
        "params": {
          "newLiquidityGauge": "is the address of the new liquidityGauge contract"
        }
      },
      "setManagementFee(uint256)": {
        "params": {
          "newManagementFee": "is the management fee (6 decimals). ex: 2 * 10 ** 6 = 2%"
        }
      },
      "setNewKeeper(address)": {
        "params": {
          "newKeeper": "is the address of the new keeper"
        }
      },
      "setOptionsPremiumPricer(address)": {
        "params": {
          "newOptionsPremiumPricer": "is the address of the new strike selection contract"
        }
      },
      "setOptionsPurchaseQueue(address)": {
        "params": {
          "newOptionsPurchaseQueue": "is the address of the new optionsPurchaseQueue contract"
        }
      },
      "setPerformanceFee(uint256)": {
        "params": {
          "newPerformanceFee": "is the performance fee (6 decimals). ex: 20 * 10 ** 6 = 20%"
        }
      },
      "setPremiumDiscount(uint256)": {
        "params": {
          "newPremiumDiscount": "is the premium discount"
        }
      },
      "setStrikePrice(uint128)": {
        "params": {
          "strikePrice": "is the strike price of the new oTokens (decimals = 8)"
        }
      },
      "setStrikeSelection(address)": {
        "params": {
          "newStrikeSelection": "is the address of the new strike selection contract"
        }
      },
      "shareBalances(address)": {
        "params": {
          "account": "is the account to lookup share balance for"
        },
        "returns": {
          "heldByAccount": "is the shares held by account",
          "heldByVault": "is the shares held on the vault (unredeemedShares)"
        }
      },
      "shares(address)": {
        "params": {
          "account": "is the account to lookup share balance for"
        },
        "returns": {
          "_0": "the share balance"
        }
      },
      "stake(uint256)": {
        "params": {
          "numShares": "is the number of shares to stake"
        }
      },
      "symbol()": {
        "details": "Returns the symbol of the token, usually a shorter version of the name."
      },
      "totalBalance()": {
        "returns": {
          "_0": "total balance of the vault, including the amounts locked in third party protocols"
        }
      },
      "totalSupply()": {
        "details": "See {IERC20-totalSupply}."
      },
      "transfer(address,uint256)": {
        "details": "See {IERC20-transfer}. Requirements: - `recipient` cannot be the zero address. - the caller must have a balance of at least `amount`."
      },
      "transferFrom(address,address,uint256)": {
        "details": "See {IERC20-transferFrom}. Emits an {Approval} event indicating the updated allowance. This is not required by the EIP. See the note at the beginning of {ERC20}. Requirements: - `sender` and `recipient` cannot be the zero address. - `sender` must have a balance of at least `amount`. - the caller must have allowance for ``sender``'s tokens of at least `amount`."
      },
      "transferOwnership(address)": {
        "details": "Transfers ownership of the contract to a new account (`newOwner`). Can only be called by the current owner."
      },
      "withdrawInstantly(uint256)": {
        "params": {
          "amount": "is the amount to withdraw"
        }
      }
    },
    "version": 1
  },
  "userdoc": {
    "kind": "user",
    "methods": {
      "DELAY()": {
        "notice": "Deprecated: 15 minute timelock between commitAndClose and rollToNexOption."
      },
      "OTOKEN_FACTORY()": {
        "notice": "oTokenFactory is the factory contract used to spawn otokens. Used to lookup otokens."
      },
      "PERIOD()": {
        "notice": "7 day period between each options sale."
      },
      "USDC()": {
        "notice": "USDC 0xA0b86991c6218b36c1d19D4a2e9Eb0cE3606eB48"
      },
      "WETH()": {
        "notice": "WETH9 0xC02aaA39b223FE8D0A0e5C4F27eAD9083C756Cc2"
      },
      "accountVaultBalance(address)": {
        "notice": "Returns the asset balance held on the vault for the account"
      },
      "burnRemainingOTokens()": {
        "notice": "Burn the remaining oTokens left over from gnosis auction."
      },
      "commitAndClose()": {
        "notice": "Sets the next option the vault will be shorting, and closes the existing short.         This allows all the users to withdraw if the next option is malicious."
      },
      "completeWithdraw()": {
        "notice": "Completes a scheduled withdrawal from a past round. Uses finalized pps for the round"
      },
      "constructor": {
        "notice": "Initializes the contract with immutable variables"
      },
      "decimals()": {
        "notice": "Returns the token decimals"
      },
      "deposit(uint256)": {
        "notice": "Deposits the `asset` from msg.sender."
      },
      "depositETH()": {
        "notice": "Deposits ETH into the contract and mint vault shares. Reverts if the asset is not WETH."
      },
      "depositFor(uint256,address)": {
        "notice": "Deposits the `asset` from msg.sender added to `creditor`'s deposit.Used for vault -> vault deposits on the user's behalf"
      },
      "depositReceipts(address)": {
        "notice": "Stores the user's pending deposit for the round"
      },
      "feeRecipient()": {
        "notice": "Fee recipient for the performance and management fees"
      },
      "initialize((address,address,address,uint256,uint256,string,string,address,address,uint32,uint256),(bool,uint8,address,address,uint56,uint104))": {
        "notice": "Initializes the OptionVault contract with storage variables."
      },
      "initiateWithdraw(uint256)": {
        "notice": "Initiates a withdrawal that can be processed once the round completes"
      },
      "keeper()": {
        "notice": "role in charge of weekly vault operations such as rollToNextOption and burnRemainingOTokens"
      },
      "managementFee()": {
        "notice": "Management fee charged on entire AUM in rollToNextOption. Only charged when there is no loss."
      },
      "maxRedeem()": {
        "notice": "Redeems the entire unredeemedShares balance that is owed to the account"
      },
      "optionState()": {
        "notice": "Vault's state of the options sold and the timelocked option"
      },
      "performanceFee()": {
        "notice": "Performance fee charged on premiums earned in rollToNextOption. Only charged when there is no loss."
      },
      "pricePerShare()": {
        "notice": "The price of a unit of share denominated in the `asset`"
      },
      "recoverTokens(address,address)": {
        "notice": "Recovery function that returns an ERC20 token to the recipient"
      },
      "redeem(uint256)": {
        "notice": "Redeems shares that are owed to the account"
      },
      "rollToNextOption()": {
        "notice": "Rolls the vault's funds into a new short position."
      },
      "roundPricePerShare(uint256)": {
        "notice": "On every round's close, the pricePerShare value of an rTHETA token is stored This is used to determine the number of shares to be returned to a user with their DepositReceipt.depositAmount"
      },
      "sellOptionsToQueue()": {
        "notice": "Sell the allocated options to the purchase queue post auction settlement"
      },
      "setAuctionDuration(uint256)": {
        "notice": "Sets the new auction duration"
      },
      "setCap(uint256)": {
        "notice": "Sets a new cap for deposits"
      },
      "setFeeRecipient(address)": {
        "notice": "Sets the new fee recipient"
      },
      "setLiquidityGauge(address)": {
        "notice": "Sets the new liquidityGauge contract for this vault"
      },
      "setManagementFee(uint256)": {
        "notice": "Sets the management fee for the vault"
      },
      "setNewKeeper(address)": {
        "notice": "Sets the new keeper"
      },
      "setOptionsPremiumPricer(address)": {
        "notice": "Sets the new options premium pricer contract"
      },
      "setOptionsPurchaseQueue(address)": {
        "notice": "Sets the new optionsPurchaseQueue contract for this vault"
      },
      "setPerformanceFee(uint256)": {
        "notice": "Sets the performance fee for the vault"
      },
      "setPremiumDiscount(uint256)": {
        "notice": "Sets the new discount on premiums for options we are selling"
      },
      "setStrikePrice(uint128)": {
        "notice": "Optionality to set strike price manually"
      },
      "setStrikeSelection(address)": {
        "notice": "Sets the new strike selection contract"
      },
      "shareBalances(address)": {
        "notice": "Getter for returning the account's share balance split between account and vault holdings"
      },
      "shares(address)": {
        "notice": "Getter for returning the account's share balance including unredeemed shares"
      },
      "stake(uint256)": {
        "notice": "Stakes a users vault shares"
      },
      "startAuction()": {
        "notice": "Initiate the gnosis auction."
      },
      "totalBalance()": {
        "notice": "Returns the vault's total balance, including the amounts locked into a short position"
      },
      "vaultParams()": {
        "notice": "Vault's parameters like cap, decimals"
      },
      "vaultState()": {
        "notice": "Vault's lifecycle state like round and locked amounts"
      },
      "withdrawInstantly(uint256)": {
        "notice": "Withdraws the assets on the vault using the outstanding `DepositReceipt.amount`"
      },
      "withdrawals(address)": {
        "notice": "Stores pending user withdrawals"
      }
    },
    "notice": "UPGRADEABILITY: Since we use the upgradeable proxy pattern, we must observe the inheritance chain closely. Any changes/appends in storage variable needs to happen in RibbonThetaVaultStorage. RibbonThetaVault should not inherit from any other contract aside from RibbonVault, RibbonThetaVaultStorage",
    "version": 1
  },
  "storageLayout": {
    "storage": [
      {
        "astId": 176,
        "contract": "contracts/vaults/BaseVaults/RibbonThetaVault.sol:RibbonThetaVault",
        "label": "_initialized",
        "offset": 0,
        "slot": "0",
        "type": "t_bool"
      },
      {
        "astId": 179,
        "contract": "contracts/vaults/BaseVaults/RibbonThetaVault.sol:RibbonThetaVault",
        "label": "_initializing",
        "offset": 1,
        "slot": "0",
        "type": "t_bool"
      },
      {
        "astId": 230,
        "contract": "contracts/vaults/BaseVaults/RibbonThetaVault.sol:RibbonThetaVault",
        "label": "_status",
        "offset": 0,
        "slot": "1",
        "type": "t_uint256"
      },
      {
        "astId": 273,
        "contract": "contracts/vaults/BaseVaults/RibbonThetaVault.sol:RibbonThetaVault",
        "label": "__gap",
        "offset": 0,
        "slot": "2",
        "type": "t_array(t_uint256)49_storage"
      },
      {
        "astId": 993,
        "contract": "contracts/vaults/BaseVaults/RibbonThetaVault.sol:RibbonThetaVault",
        "label": "__gap",
        "offset": 0,
        "slot": "51",
        "type": "t_array(t_uint256)50_storage"
      },
      {
        "astId": 56,
        "contract": "contracts/vaults/BaseVaults/RibbonThetaVault.sol:RibbonThetaVault",
        "label": "_owner",
        "offset": 0,
        "slot": "101",
        "type": "t_address"
      },
      {
        "astId": 169,
        "contract": "contracts/vaults/BaseVaults/RibbonThetaVault.sol:RibbonThetaVault",
        "label": "__gap",
        "offset": 0,
        "slot": "102",
        "type": "t_array(t_uint256)49_storage"
      },
      {
        "astId": 293,
        "contract": "contracts/vaults/BaseVaults/RibbonThetaVault.sol:RibbonThetaVault",
        "label": "_balances",
        "offset": 0,
        "slot": "151",
        "type": "t_mapping(t_address,t_uint256)"
      },
      {
        "astId": 299,
        "contract": "contracts/vaults/BaseVaults/RibbonThetaVault.sol:RibbonThetaVault",
        "label": "_allowances",
        "offset": 0,
        "slot": "152",
        "type": "t_mapping(t_address,t_mapping(t_address,t_uint256))"
      },
      {
        "astId": 301,
        "contract": "contracts/vaults/BaseVaults/RibbonThetaVault.sol:RibbonThetaVault",
        "label": "_totalSupply",
        "offset": 0,
        "slot": "153",
        "type": "t_uint256"
      },
      {
        "astId": 303,
        "contract": "contracts/vaults/BaseVaults/RibbonThetaVault.sol:RibbonThetaVault",
        "label": "_name",
        "offset": 0,
        "slot": "154",
        "type": "t_string_storage"
      },
      {
        "astId": 305,
        "contract": "contracts/vaults/BaseVaults/RibbonThetaVault.sol:RibbonThetaVault",
        "label": "_symbol",
        "offset": 0,
        "slot": "155",
        "type": "t_string_storage"
      },
      {
        "astId": 846,
        "contract": "contracts/vaults/BaseVaults/RibbonThetaVault.sol:RibbonThetaVault",
        "label": "__gap",
        "offset": 0,
        "slot": "156",
        "type": "t_array(t_uint256)45_storage"
      },
      {
        "astId": 19735,
        "contract": "contracts/vaults/BaseVaults/RibbonThetaVault.sol:RibbonThetaVault",
        "label": "depositReceipts",
        "offset": 0,
        "slot": "201",
        "type": "t_mapping(t_address,t_struct(DepositReceipt)6510_storage)"
      },
      {
        "astId": 19740,
        "contract": "contracts/vaults/BaseVaults/RibbonThetaVault.sol:RibbonThetaVault",
        "label": "roundPricePerShare",
        "offset": 0,
        "slot": "202",
        "type": "t_mapping(t_uint256,t_uint256)"
      },
      {
        "astId": 19746,
        "contract": "contracts/vaults/BaseVaults/RibbonThetaVault.sol:RibbonThetaVault",
        "label": "withdrawals",
        "offset": 0,
        "slot": "203",
        "type": "t_mapping(t_address,t_struct(Withdrawal)6515_storage)"
      },
      {
        "astId": 19750,
        "contract": "contracts/vaults/BaseVaults/RibbonThetaVault.sol:RibbonThetaVault",
        "label": "vaultParams",
        "offset": 0,
        "slot": "204",
        "type": "t_struct(VaultParams)6485_storage"
      },
      {
        "astId": 19754,
        "contract": "contracts/vaults/BaseVaults/RibbonThetaVault.sol:RibbonThetaVault",
        "label": "vaultState",
        "offset": 0,
        "slot": "207",
        "type": "t_struct(VaultState)6503_storage"
      },
      {
        "astId": 19758,
        "contract": "contracts/vaults/BaseVaults/RibbonThetaVault.sol:RibbonThetaVault",
        "label": "optionState",
        "offset": 0,
        "slot": "209",
        "type": "t_struct(OptionState)6492_storage"
      },
      {
        "astId": 19761,
        "contract": "contracts/vaults/BaseVaults/RibbonThetaVault.sol:RibbonThetaVault",
        "label": "feeRecipient",
        "offset": 0,
        "slot": "211",
        "type": "t_address"
      },
      {
        "astId": 19764,
        "contract": "contracts/vaults/BaseVaults/RibbonThetaVault.sol:RibbonThetaVault",
        "label": "keeper",
        "offset": 0,
        "slot": "212",
        "type": "t_address"
      },
      {
        "astId": 19767,
        "contract": "contracts/vaults/BaseVaults/RibbonThetaVault.sol:RibbonThetaVault",
        "label": "performanceFee",
        "offset": 0,
        "slot": "213",
        "type": "t_uint256"
      },
      {
        "astId": 19770,
        "contract": "contracts/vaults/BaseVaults/RibbonThetaVault.sol:RibbonThetaVault",
        "label": "managementFee",
        "offset": 0,
        "slot": "214",
        "type": "t_uint256"
      },
      {
        "astId": 19774,
        "contract": "contracts/vaults/BaseVaults/RibbonThetaVault.sol:RibbonThetaVault",
        "label": "____gap",
        "offset": 0,
        "slot": "215",
        "type": "t_array(t_uint256)30_storage"
      },
      {
        "astId": 12470,
        "contract": "contracts/vaults/BaseVaults/RibbonThetaVault.sol:RibbonThetaVault",
        "label": "optionsPremiumPricer",
        "offset": 0,
        "slot": "245",
        "type": "t_address"
      },
      {
        "astId": 12472,
        "contract": "contracts/vaults/BaseVaults/RibbonThetaVault.sol:RibbonThetaVault",
        "label": "strikeSelection",
        "offset": 0,
        "slot": "246",
        "type": "t_address"
      },
      {
        "astId": 12474,
        "contract": "contracts/vaults/BaseVaults/RibbonThetaVault.sol:RibbonThetaVault",
        "label": "premiumDiscount",
        "offset": 0,
        "slot": "247",
        "type": "t_uint256"
      },
      {
        "astId": 12476,
        "contract": "contracts/vaults/BaseVaults/RibbonThetaVault.sol:RibbonThetaVault",
        "label": "currentOtokenPremium",
        "offset": 0,
        "slot": "248",
        "type": "t_uint256"
      },
      {
        "astId": 12478,
        "contract": "contracts/vaults/BaseVaults/RibbonThetaVault.sol:RibbonThetaVault",
        "label": "lastStrikeOverrideRound",
        "offset": 0,
        "slot": "249",
        "type": "t_uint16"
      },
      {
        "astId": 12480,
        "contract": "contracts/vaults/BaseVaults/RibbonThetaVault.sol:RibbonThetaVault",
        "label": "overriddenStrikePrice",
        "offset": 0,
        "slot": "250",
        "type": "t_uint256"
      },
      {
        "astId": 12482,
        "contract": "contracts/vaults/BaseVaults/RibbonThetaVault.sol:RibbonThetaVault",
        "label": "auctionDuration",
        "offset": 0,
        "slot": "251",
        "type": "t_uint256"
      },
      {
        "astId": 12484,
        "contract": "contracts/vaults/BaseVaults/RibbonThetaVault.sol:RibbonThetaVault",
        "label": "optionAuctionID",
        "offset": 0,
        "slot": "252",
        "type": "t_uint256"
      },
      {
        "astId": 12487,
        "contract": "contracts/vaults/BaseVaults/RibbonThetaVault.sol:RibbonThetaVault",
        "label": "lastQueuedWithdrawAmount",
        "offset": 0,
        "slot": "253",
        "type": "t_uint256"
      },
      {
        "astId": 12490,
        "contract": "contracts/vaults/BaseVaults/RibbonThetaVault.sol:RibbonThetaVault",
        "label": "_isUsdcAuction",
        "offset": 0,
        "slot": "254",
        "type": "t_bool"
      },
      {
        "astId": 12492,
        "contract": "contracts/vaults/BaseVaults/RibbonThetaVault.sol:RibbonThetaVault",
        "label": "_swapPath",
        "offset": 0,
        "slot": "255",
        "type": "t_bytes_storage"
      },
      {
        "astId": 12495,
        "contract": "contracts/vaults/BaseVaults/RibbonThetaVault.sol:RibbonThetaVault",
        "label": "liquidityGauge",
        "offset": 0,
        "slot": "256",
        "type": "t_address"
      },
      {
        "astId": 12498,
        "contract": "contracts/vaults/BaseVaults/RibbonThetaVault.sol:RibbonThetaVault",
        "label": "optionsPurchaseQueue",
        "offset": 0,
        "slot": "257",
        "type": "t_address"
      }
    ],
    "types": {
      "t_address": {
        "encoding": "inplace",
        "label": "address",
        "numberOfBytes": "20"
      },
      "t_array(t_uint256)30_storage": {
        "base": "t_uint256",
        "encoding": "inplace",
        "label": "uint256[30]",
        "numberOfBytes": "960"
      },
      "t_array(t_uint256)45_storage": {
        "base": "t_uint256",
        "encoding": "inplace",
        "label": "uint256[45]",
        "numberOfBytes": "1440"
      },
      "t_array(t_uint256)49_storage": {
        "base": "t_uint256",
        "encoding": "inplace",
        "label": "uint256[49]",
        "numberOfBytes": "1568"
      },
      "t_array(t_uint256)50_storage": {
        "base": "t_uint256",
        "encoding": "inplace",
        "label": "uint256[50]",
        "numberOfBytes": "1600"
      },
      "t_bool": {
        "encoding": "inplace",
        "label": "bool",
        "numberOfBytes": "1"
      },
      "t_bytes_storage": {
        "encoding": "bytes",
        "label": "bytes",
        "numberOfBytes": "32"
      },
      "t_mapping(t_address,t_mapping(t_address,t_uint256))": {
        "encoding": "mapping",
        "key": "t_address",
        "label": "mapping(address => mapping(address => uint256))",
        "numberOfBytes": "32",
        "value": "t_mapping(t_address,t_uint256)"
      },
      "t_mapping(t_address,t_struct(DepositReceipt)6510_storage)": {
        "encoding": "mapping",
        "key": "t_address",
        "label": "mapping(address => struct Vault.DepositReceipt)",
        "numberOfBytes": "32",
        "value": "t_struct(DepositReceipt)6510_storage"
      },
      "t_mapping(t_address,t_struct(Withdrawal)6515_storage)": {
        "encoding": "mapping",
        "key": "t_address",
        "label": "mapping(address => struct Vault.Withdrawal)",
        "numberOfBytes": "32",
        "value": "t_struct(Withdrawal)6515_storage"
      },
      "t_mapping(t_address,t_uint256)": {
        "encoding": "mapping",
        "key": "t_address",
        "label": "mapping(address => uint256)",
        "numberOfBytes": "32",
        "value": "t_uint256"
      },
      "t_mapping(t_uint256,t_uint256)": {
        "encoding": "mapping",
        "key": "t_uint256",
        "label": "mapping(uint256 => uint256)",
        "numberOfBytes": "32",
        "value": "t_uint256"
      },
      "t_string_storage": {
        "encoding": "bytes",
        "label": "string",
        "numberOfBytes": "32"
      },
      "t_struct(DepositReceipt)6510_storage": {
        "encoding": "inplace",
        "label": "struct Vault.DepositReceipt",
        "members": [
          {
            "astId": 6505,
            "contract": "contracts/vaults/BaseVaults/RibbonThetaVault.sol:RibbonThetaVault",
            "label": "round",
            "offset": 0,
            "slot": "0",
            "type": "t_uint16"
          },
          {
            "astId": 6507,
            "contract": "contracts/vaults/BaseVaults/RibbonThetaVault.sol:RibbonThetaVault",
            "label": "amount",
            "offset": 2,
            "slot": "0",
            "type": "t_uint104"
          },
          {
            "astId": 6509,
            "contract": "contracts/vaults/BaseVaults/RibbonThetaVault.sol:RibbonThetaVault",
            "label": "unredeemedShares",
            "offset": 15,
            "slot": "0",
            "type": "t_uint128"
          }
        ],
        "numberOfBytes": "32"
      },
      "t_struct(OptionState)6492_storage": {
        "encoding": "inplace",
        "label": "struct Vault.OptionState",
        "members": [
          {
            "astId": 6487,
            "contract": "contracts/vaults/BaseVaults/RibbonThetaVault.sol:RibbonThetaVault",
            "label": "nextOption",
            "offset": 0,
            "slot": "0",
            "type": "t_address"
          },
          {
            "astId": 6489,
            "contract": "contracts/vaults/BaseVaults/RibbonThetaVault.sol:RibbonThetaVault",
            "label": "currentOption",
            "offset": 0,
            "slot": "1",
            "type": "t_address"
          },
          {
            "astId": 6491,
            "contract": "contracts/vaults/BaseVaults/RibbonThetaVault.sol:RibbonThetaVault",
            "label": "nextOptionReadyAt",
            "offset": 20,
            "slot": "1",
            "type": "t_uint32"
          }
        ],
        "numberOfBytes": "64"
      },
      "t_struct(VaultParams)6485_storage": {
        "encoding": "inplace",
        "label": "struct Vault.VaultParams",
        "members": [
          {
            "astId": 6474,
            "contract": "contracts/vaults/BaseVaults/RibbonThetaVault.sol:RibbonThetaVault",
            "label": "isPut",
            "offset": 0,
            "slot": "0",
            "type": "t_bool"
          },
          {
            "astId": 6476,
            "contract": "contracts/vaults/BaseVaults/RibbonThetaVault.sol:RibbonThetaVault",
            "label": "decimals",
            "offset": 1,
            "slot": "0",
            "type": "t_uint8"
          },
          {
            "astId": 6478,
            "contract": "contracts/vaults/BaseVaults/RibbonThetaVault.sol:RibbonThetaVault",
            "label": "asset",
            "offset": 2,
            "slot": "0",
            "type": "t_address"
          },
          {
            "astId": 6480,
            "contract": "contracts/vaults/BaseVaults/RibbonThetaVault.sol:RibbonThetaVault",
            "label": "underlying",
            "offset": 0,
            "slot": "1",
            "type": "t_address"
          },
          {
            "astId": 6482,
            "contract": "contracts/vaults/BaseVaults/RibbonThetaVault.sol:RibbonThetaVault",
            "label": "minimumSupply",
            "offset": 20,
            "slot": "1",
            "type": "t_uint56"
          },
          {
            "astId": 6484,
            "contract": "contracts/vaults/BaseVaults/RibbonThetaVault.sol:RibbonThetaVault",
            "label": "cap",
            "offset": 0,
            "slot": "2",
            "type": "t_uint104"
          }
        ],
        "numberOfBytes": "96"
      },
      "t_struct(VaultState)6503_storage": {
        "encoding": "inplace",
        "label": "struct Vault.VaultState",
        "members": [
          {
            "astId": 6494,
            "contract": "contracts/vaults/BaseVaults/RibbonThetaVault.sol:RibbonThetaVault",
            "label": "round",
            "offset": 0,
            "slot": "0",
            "type": "t_uint16"
          },
          {
            "astId": 6496,
            "contract": "contracts/vaults/BaseVaults/RibbonThetaVault.sol:RibbonThetaVault",
            "label": "lockedAmount",
            "offset": 2,
            "slot": "0",
            "type": "t_uint104"
          },
          {
            "astId": 6498,
            "contract": "contracts/vaults/BaseVaults/RibbonThetaVault.sol:RibbonThetaVault",
            "label": "lastLockedAmount",
            "offset": 15,
            "slot": "0",
            "type": "t_uint104"
          },
          {
            "astId": 6500,
            "contract": "contracts/vaults/BaseVaults/RibbonThetaVault.sol:RibbonThetaVault",
            "label": "totalPending",
            "offset": 0,
            "slot": "1",
            "type": "t_uint128"
          },
          {
            "astId": 6502,
            "contract": "contracts/vaults/BaseVaults/RibbonThetaVault.sol:RibbonThetaVault",
            "label": "queuedWithdrawShares",
            "offset": 16,
            "slot": "1",
            "type": "t_uint128"
          }
        ],
        "numberOfBytes": "64"
      },
      "t_struct(Withdrawal)6515_storage": {
        "encoding": "inplace",
        "label": "struct Vault.Withdrawal",
        "members": [
          {
            "astId": 6512,
            "contract": "contracts/vaults/BaseVaults/RibbonThetaVault.sol:RibbonThetaVault",
            "label": "round",
            "offset": 0,
            "slot": "0",
            "type": "t_uint16"
          },
          {
            "astId": 6514,
            "contract": "contracts/vaults/BaseVaults/RibbonThetaVault.sol:RibbonThetaVault",
            "label": "shares",
            "offset": 2,
            "slot": "0",
            "type": "t_uint128"
          }
        ],
        "numberOfBytes": "32"
      },
      "t_uint104": {
        "encoding": "inplace",
        "label": "uint104",
        "numberOfBytes": "13"
      },
      "t_uint128": {
        "encoding": "inplace",
        "label": "uint128",
        "numberOfBytes": "16"
      },
      "t_uint16": {
        "encoding": "inplace",
        "label": "uint16",
        "numberOfBytes": "2"
      },
      "t_uint256": {
        "encoding": "inplace",
        "label": "uint256",
        "numberOfBytes": "32"
      },
      "t_uint32": {
        "encoding": "inplace",
        "label": "uint32",
        "numberOfBytes": "4"
      },
      "t_uint56": {
        "encoding": "inplace",
        "label": "uint56",
        "numberOfBytes": "7"
      },
      "t_uint8": {
        "encoding": "inplace",
        "label": "uint8",
        "numberOfBytes": "1"
      }
    }
  }
}