{
  "address": "0x21438C87e749920625Dc3bD2742A3e879CaF6C72",
  "abi": [
    {
      "inputs": [
        {
          "internalType": "address",
          "name": "_weth",
          "type": "address"
        },
        {
          "internalType": "address",
          "name": "_usdc",
          "type": "address"
        },
        {
          "internalType": "address",
          "name": "_wsteth",
          "type": "address"
        },
        {
          "internalType": "address",
          "name": "_ldo",
          "type": "address"
        },
        {
          "internalType": "address",
          "name": "_oTokenFactory",
          "type": "address"
        },
        {
          "internalType": "address",
          "name": "_gammaController",
          "type": "address"
        },
        {
          "internalType": "address",
          "name": "_marginPool",
          "type": "address"
        },
        {
          "internalType": "address",
          "name": "_gnosisEasyAuction",
          "type": "address"
        },
        {
          "internalType": "address",
          "name": "_crvPool",
          "type": "address"
        }
      ],
      "stateMutability": "nonpayable",
      "type": "constructor"
    },
    {
      "anonymous": false,
      "inputs": [
        {
          "indexed": true,
          "internalType": "address",
          "name": "owner",
          "type": "address"
        },
        {
          "indexed": true,
          "internalType": "address",
          "name": "spender",
          "type": "address"
        },
        {
          "indexed": false,
          "internalType": "uint256",
          "name": "value",
          "type": "uint256"
        }
      ],
      "name": "Approval",
      "type": "event"
    },
    {
      "anonymous": false,
      "inputs": [
        {
          "indexed": false,
          "internalType": "uint256",
          "name": "auctionDuration",
          "type": "uint256"
        },
        {
          "indexed": false,
          "internalType": "uint256",
          "name": "newAuctionDuration",
          "type": "uint256"
        }
      ],
      "name": "AuctionDurationSet",
      "type": "event"
    },
    {
      "anonymous": false,
      "inputs": [
        {
          "indexed": false,
          "internalType": "uint256",
          "name": "oldCap",
          "type": "uint256"
        },
        {
          "indexed": false,
          "internalType": "uint256",
          "name": "newCap",
          "type": "uint256"
        }
      ],
      "name": "CapSet",
      "type": "event"
    },
    {
      "anonymous": false,
      "inputs": [
        {
          "indexed": true,
          "internalType": "address",
          "name": "options",
          "type": "address"
        },
        {
          "indexed": false,
          "internalType": "uint256",
          "name": "withdrawAmount",
          "type": "uint256"
        },
        {
          "indexed": true,
          "internalType": "address",
          "name": "manager",
          "type": "address"
        }
      ],
      "name": "CloseShort",
      "type": "event"
    },
    {
      "anonymous": false,
      "inputs": [
        {
          "indexed": false,
          "internalType": "uint256",
          "name": "performanceFee",
          "type": "uint256"
        },
        {
          "indexed": false,
          "internalType": "uint256",
          "name": "vaultFee",
          "type": "uint256"
        },
        {
          "indexed": false,
          "internalType": "uint256",
          "name": "round",
          "type": "uint256"
        },
        {
          "indexed": true,
          "internalType": "address",
          "name": "feeRecipient",
          "type": "address"
        }
      ],
      "name": "CollectVaultFees",
      "type": "event"
    },
    {
      "anonymous": false,
      "inputs": [
        {
          "indexed": true,
          "internalType": "address",
          "name": "account",
          "type": "address"
        },
        {
          "indexed": false,
          "internalType": "uint256",
          "name": "amount",
          "type": "uint256"
        },
        {
          "indexed": false,
          "internalType": "uint256",
          "name": "round",
          "type": "uint256"
        }
      ],
      "name": "Deposit",
      "type": "event"
    },
    {
      "anonymous": false,
      "inputs": [
        {
          "indexed": true,
          "internalType": "address",
          "name": "auctioningToken",
          "type": "address"
        },
        {
          "indexed": true,
          "internalType": "address",
          "name": "biddingToken",
          "type": "address"
        },
        {
          "indexed": false,
          "internalType": "uint256",
          "name": "auctionCounter",
          "type": "uint256"
        },
        {
          "indexed": true,
          "internalType": "address",
          "name": "manager",
          "type": "address"
        }
      ],
      "name": "InitiateGnosisAuction",
      "type": "event"
    },
    {
      "anonymous": false,
      "inputs": [
        {
          "indexed": true,
          "internalType": "address",
          "name": "account",
          "type": "address"
        },
        {
          "indexed": false,
          "internalType": "uint256",
          "name": "shares",
          "type": "uint256"
        },
        {
          "indexed": false,
          "internalType": "uint256",
          "name": "round",
          "type": "uint256"
        }
      ],
      "name": "InitiateWithdraw",
      "type": "event"
    },
    {
      "anonymous": false,
      "inputs": [
        {
          "indexed": true,
          "internalType": "address",
          "name": "account",
          "type": "address"
        },
        {
          "indexed": false,
          "internalType": "uint256",
          "name": "amount",
          "type": "uint256"
        },
        {
          "indexed": false,
          "internalType": "uint256",
          "name": "round",
          "type": "uint256"
        }
      ],
      "name": "InstantWithdraw",
      "type": "event"
    },
    {
      "anonymous": false,
      "inputs": [
        {
          "indexed": false,
          "internalType": "uint256",
          "name": "managementFee",
          "type": "uint256"
        },
        {
          "indexed": false,
          "internalType": "uint256",
          "name": "newManagementFee",
          "type": "uint256"
        }
      ],
      "name": "ManagementFeeSet",
      "type": "event"
    },
    {
      "anonymous": false,
      "inputs": [
        {
          "indexed": false,
          "internalType": "uint256",
          "name": "strikePrice",
          "type": "uint256"
        },
        {
          "indexed": false,
          "internalType": "uint256",
          "name": "delta",
          "type": "uint256"
        }
      ],
      "name": "NewOptionStrikeSelected",
      "type": "event"
    },
    {
      "anonymous": false,
      "inputs": [
        {
          "indexed": true,
          "internalType": "address",
          "name": "options",
          "type": "address"
        },
        {
          "indexed": false,
          "internalType": "uint256",
          "name": "depositAmount",
          "type": "uint256"
        },
        {
          "indexed": true,
          "internalType": "address",
          "name": "manager",
          "type": "address"
        }
      ],
      "name": "OpenShort",
      "type": "event"
    },
    {
      "anonymous": false,
      "inputs": [
        {
          "indexed": true,
          "internalType": "address",
          "name": "previousOwner",
          "type": "address"
        },
        {
          "indexed": true,
          "internalType": "address",
          "name": "newOwner",
          "type": "address"
        }
      ],
      "name": "OwnershipTransferred",
      "type": "event"
    },
    {
      "anonymous": false,
      "inputs": [
        {
          "indexed": false,
          "internalType": "uint256",
          "name": "performanceFee",
          "type": "uint256"
        },
        {
          "indexed": false,
          "internalType": "uint256",
          "name": "newPerformanceFee",
          "type": "uint256"
        }
      ],
      "name": "PerformanceFeeSet",
      "type": "event"
    },
    {
      "anonymous": false,
      "inputs": [
        {
          "indexed": false,
          "internalType": "uint256",
          "name": "premiumDiscount",
          "type": "uint256"
        },
        {
          "indexed": false,
          "internalType": "uint256",
          "name": "newPremiumDiscount",
          "type": "uint256"
        }
      ],
      "name": "PremiumDiscountSet",
      "type": "event"
    },
    {
      "anonymous": false,
      "inputs": [
        {
          "indexed": true,
          "internalType": "address",
          "name": "account",
          "type": "address"
        },
        {
          "indexed": false,
          "internalType": "uint256",
          "name": "share",
          "type": "uint256"
        },
        {
          "indexed": false,
          "internalType": "uint256",
          "name": "round",
          "type": "uint256"
        }
      ],
      "name": "Redeem",
      "type": "event"
    },
    {
      "anonymous": false,
      "inputs": [
        {
          "indexed": true,
          "internalType": "address",
          "name": "from",
          "type": "address"
        },
        {
          "indexed": true,
          "internalType": "address",
          "name": "to",
          "type": "address"
        },
        {
          "indexed": false,
          "internalType": "uint256",
          "name": "value",
          "type": "uint256"
        }
      ],
      "name": "Transfer",
      "type": "event"
    },
    {
      "anonymous": false,
      "inputs": [
        {
          "indexed": true,
          "internalType": "address",
          "name": "account",
          "type": "address"
        },
        {
          "indexed": false,
          "internalType": "uint256",
          "name": "amount",
          "type": "uint256"
        },
        {
          "indexed": false,
          "internalType": "uint256",
          "name": "shares",
          "type": "uint256"
        }
      ],
      "name": "Withdraw",
      "type": "event"
    },
    {
      "inputs": [],
      "name": "DELAY",
      "outputs": [
        {
          "internalType": "uint256",
          "name": "",
          "type": "uint256"
        }
      ],
      "stateMutability": "view",
      "type": "function"
    },
    {
      "inputs": [],
      "name": "GAMMA_CONTROLLER",
      "outputs": [
        {
          "internalType": "address",
          "name": "",
          "type": "address"
        }
      ],
      "stateMutability": "view",
      "type": "function"
    },
    {
      "inputs": [],
      "name": "GNOSIS_EASY_AUCTION",
      "outputs": [
        {
          "internalType": "address",
          "name": "",
          "type": "address"
        }
      ],
      "stateMutability": "view",
      "type": "function"
    },
    {
      "inputs": [],
      "name": "LDO",
      "outputs": [
        {
          "internalType": "address",
          "name": "",
          "type": "address"
        }
      ],
      "stateMutability": "view",
      "type": "function"
    },
    {
      "inputs": [],
      "name": "MARGIN_POOL",
      "outputs": [
        {
          "internalType": "address",
          "name": "",
          "type": "address"
        }
      ],
      "stateMutability": "view",
      "type": "function"
    },
    {
      "inputs": [],
      "name": "OTOKEN_FACTORY",
      "outputs": [
        {
          "internalType": "address",
          "name": "",
          "type": "address"
        }
      ],
      "stateMutability": "view",
      "type": "function"
    },
    {
      "inputs": [],
      "name": "PERIOD",
      "outputs": [
        {
          "internalType": "uint256",
          "name": "",
          "type": "uint256"
        }
      ],
      "stateMutability": "view",
      "type": "function"
    },
    {
      "inputs": [],
      "name": "STETH",
      "outputs": [
        {
          "internalType": "address",
          "name": "",
          "type": "address"
        }
      ],
      "stateMutability": "view",
      "type": "function"
    },
    {
      "inputs": [],
      "name": "STETH_ETH_CRV_POOL",
      "outputs": [
        {
          "internalType": "address",
          "name": "",
          "type": "address"
        }
      ],
      "stateMutability": "view",
      "type": "function"
    },
    {
      "inputs": [],
      "name": "USDC",
      "outputs": [
        {
          "internalType": "address",
          "name": "",
          "type": "address"
        }
      ],
      "stateMutability": "view",
      "type": "function"
    },
    {
      "inputs": [],
      "name": "WETH",
      "outputs": [
        {
          "internalType": "address",
          "name": "",
          "type": "address"
        }
      ],
      "stateMutability": "view",
      "type": "function"
    },
    {
      "inputs": [
        {
          "internalType": "address",
          "name": "account",
          "type": "address"
        }
      ],
      "name": "accountVaultBalance",
      "outputs": [
        {
          "internalType": "uint256",
          "name": "",
          "type": "uint256"
        }
      ],
      "stateMutability": "view",
      "type": "function"
    },
    {
      "inputs": [
        {
          "internalType": "address",
          "name": "owner",
          "type": "address"
        },
        {
          "internalType": "address",
          "name": "spender",
          "type": "address"
        }
      ],
      "name": "allowance",
      "outputs": [
        {
          "internalType": "uint256",
          "name": "",
          "type": "uint256"
        }
      ],
      "stateMutability": "view",
      "type": "function"
    },
    {
      "inputs": [
        {
          "internalType": "address",
          "name": "spender",
          "type": "address"
        },
        {
          "internalType": "uint256",
          "name": "amount",
          "type": "uint256"
        }
      ],
      "name": "approve",
      "outputs": [
        {
          "internalType": "bool",
          "name": "",
          "type": "bool"
        }
      ],
      "stateMutability": "nonpayable",
      "type": "function"
    },
    {
      "inputs": [],
      "name": "auctionDuration",
      "outputs": [
        {
          "internalType": "uint256",
          "name": "",
          "type": "uint256"
        }
      ],
      "stateMutability": "view",
      "type": "function"
    },
    {
      "inputs": [
        {
          "internalType": "address",
          "name": "account",
          "type": "address"
        }
      ],
      "name": "balanceOf",
      "outputs": [
        {
          "internalType": "uint256",
          "name": "",
          "type": "uint256"
        }
      ],
      "stateMutability": "view",
      "type": "function"
    },
    {
      "inputs": [],
      "name": "burnRemainingOTokens",
      "outputs": [],
      "stateMutability": "nonpayable",
      "type": "function"
    },
    {
      "inputs": [],
      "name": "cap",
      "outputs": [
        {
          "internalType": "uint256",
          "name": "",
          "type": "uint256"
        }
      ],
      "stateMutability": "view",
      "type": "function"
    },
    {
      "inputs": [],
      "name": "collateralToken",
      "outputs": [
        {
          "internalType": "contract IWSTETH",
          "name": "",
          "type": "address"
        }
      ],
      "stateMutability": "view",
      "type": "function"
    },
    {
      "inputs": [],
      "name": "commitAndClose",
      "outputs": [],
      "stateMutability": "nonpayable",
      "type": "function"
    },
    {
      "inputs": [
        {
          "internalType": "uint256",
          "name": "minETHOut",
          "type": "uint256"
        }
      ],
      "name": "completeWithdraw",
      "outputs": [],
      "stateMutability": "nonpayable",
      "type": "function"
    },
    {
      "inputs": [],
      "name": "currentOption",
      "outputs": [
        {
          "internalType": "address",
          "name": "",
          "type": "address"
        }
      ],
      "stateMutability": "view",
      "type": "function"
    },
    {
      "inputs": [],
      "name": "currentOtokenPremium",
      "outputs": [
        {
          "internalType": "uint256",
          "name": "",
          "type": "uint256"
        }
      ],
      "stateMutability": "view",
      "type": "function"
    },
    {
      "inputs": [],
      "name": "decimals",
      "outputs": [
        {
          "internalType": "uint8",
          "name": "",
          "type": "uint8"
        }
      ],
      "stateMutability": "view",
      "type": "function"
    },
    {
      "inputs": [
        {
          "internalType": "address",
          "name": "spender",
          "type": "address"
        },
        {
          "internalType": "uint256",
          "name": "subtractedValue",
          "type": "uint256"
        }
      ],
      "name": "decreaseAllowance",
      "outputs": [
        {
          "internalType": "bool",
          "name": "",
          "type": "bool"
        }
      ],
      "stateMutability": "nonpayable",
      "type": "function"
    },
    {
      "inputs": [],
      "name": "depositETH",
      "outputs": [],
      "stateMutability": "payable",
      "type": "function"
    },
    {
      "inputs": [
        {
          "internalType": "address",
          "name": "creditor",
          "type": "address"
        }
      ],
      "name": "depositFor",
      "outputs": [],
      "stateMutability": "payable",
      "type": "function"
    },
    {
      "inputs": [
        {
          "internalType": "address",
          "name": "",
          "type": "address"
        }
      ],
      "name": "depositReceipts",
      "outputs": [
        {
          "internalType": "uint16",
          "name": "round",
          "type": "uint16"
        },
        {
          "internalType": "uint104",
          "name": "amount",
          "type": "uint104"
        },
        {
          "internalType": "uint128",
          "name": "unredeemedShares",
          "type": "uint128"
        }
      ],
      "stateMutability": "view",
      "type": "function"
    },
    {
      "inputs": [
        {
          "internalType": "uint256",
          "name": "amount",
          "type": "uint256"
        }
      ],
      "name": "depositYieldToken",
      "outputs": [],
      "stateMutability": "nonpayable",
      "type": "function"
    },
    {
      "inputs": [],
      "name": "feeRecipient",
      "outputs": [
        {
          "internalType": "address",
          "name": "",
          "type": "address"
        }
      ],
      "stateMutability": "view",
      "type": "function"
    },
    {
      "inputs": [
        {
          "internalType": "address",
          "name": "spender",
          "type": "address"
        },
        {
          "internalType": "uint256",
          "name": "addedValue",
          "type": "uint256"
        }
      ],
      "name": "increaseAllowance",
      "outputs": [
        {
          "internalType": "bool",
          "name": "",
          "type": "bool"
        }
      ],
      "stateMutability": "nonpayable",
      "type": "function"
    },
    {
      "inputs": [
        {
          "internalType": "uint256",
          "name": "numRounds",
          "type": "uint256"
        }
      ],
      "name": "initRounds",
      "outputs": [],
      "stateMutability": "nonpayable",
      "type": "function"
    },
    {
      "inputs": [
        {
          "internalType": "address",
          "name": "_owner",
          "type": "address"
        },
        {
          "internalType": "address",
          "name": "_keeper",
          "type": "address"
        },
        {
          "internalType": "address",
          "name": "_feeRecipient",
          "type": "address"
        },
        {
          "internalType": "uint256",
          "name": "_managementFee",
          "type": "uint256"
        },
        {
          "internalType": "uint256",
          "name": "_performanceFee",
          "type": "uint256"
        },
        {
          "internalType": "string",
          "name": "_tokenName",
          "type": "string"
        },
        {
          "internalType": "string",
          "name": "_tokenSymbol",
          "type": "string"
        },
        {
          "internalType": "address",
          "name": "_optionsPremiumPricer",
          "type": "address"
        },
        {
          "internalType": "address",
          "name": "_strikeSelection",
          "type": "address"
        },
        {
          "internalType": "uint32",
          "name": "_premiumDiscount",
          "type": "uint32"
        },
        {
          "internalType": "uint256",
          "name": "_auctionDuration",
          "type": "uint256"
        },
        {
          "components": [
            {
              "internalType": "bool",
              "name": "isPut",
              "type": "bool"
            },
            {
              "internalType": "uint8",
              "name": "decimals",
              "type": "uint8"
            },
            {
              "internalType": "address",
              "name": "asset",
              "type": "address"
            },
            {
              "internalType": "address",
              "name": "underlying",
              "type": "address"
            },
            {
              "internalType": "uint56",
              "name": "minimumSupply",
              "type": "uint56"
            },
            {
              "internalType": "uint104",
              "name": "cap",
              "type": "uint104"
            }
          ],
          "internalType": "struct Vault.VaultParams",
          "name": "_vaultParams",
          "type": "tuple"
        }
      ],
      "name": "initialize",
      "outputs": [],
      "stateMutability": "nonpayable",
      "type": "function"
    },
    {
      "inputs": [
        {
          "internalType": "uint256",
          "name": "numShares",
          "type": "uint256"
        }
      ],
      "name": "initiateWithdraw",
      "outputs": [],
      "stateMutability": "nonpayable",
      "type": "function"
    },
    {
      "inputs": [],
      "name": "keeper",
      "outputs": [
        {
          "internalType": "address",
          "name": "",
          "type": "address"
        }
      ],
      "stateMutability": "view",
      "type": "function"
    },
    {
      "inputs": [],
      "name": "lastQueuedWithdrawAmount",
      "outputs": [
        {
          "internalType": "uint256",
          "name": "",
          "type": "uint256"
        }
      ],
      "stateMutability": "view",
      "type": "function"
    },
    {
      "inputs": [],
      "name": "lastStrikeOverrideRound",
      "outputs": [
        {
          "internalType": "uint16",
          "name": "",
          "type": "uint16"
        }
      ],
      "stateMutability": "view",
      "type": "function"
    },
    {
      "inputs": [],
      "name": "managementFee",
      "outputs": [
        {
          "internalType": "uint256",
          "name": "",
          "type": "uint256"
        }
      ],
      "stateMutability": "view",
      "type": "function"
    },
    {
      "inputs": [],
      "name": "maxRedeem",
      "outputs": [],
      "stateMutability": "nonpayable",
      "type": "function"
    },
    {
      "inputs": [],
      "name": "name",
      "outputs": [
        {
          "internalType": "string",
          "name": "",
          "type": "string"
        }
      ],
      "stateMutability": "view",
      "type": "function"
    },
    {
      "inputs": [],
      "name": "nextOption",
      "outputs": [
        {
          "internalType": "address",
          "name": "",
          "type": "address"
        }
      ],
      "stateMutability": "view",
      "type": "function"
    },
    {
      "inputs": [],
      "name": "nextOptionReadyAt",
      "outputs": [
        {
          "internalType": "uint256",
          "name": "",
          "type": "uint256"
        }
      ],
      "stateMutability": "view",
      "type": "function"
    },
    {
      "inputs": [],
      "name": "optionAuctionID",
      "outputs": [
        {
          "internalType": "uint256",
          "name": "",
          "type": "uint256"
        }
      ],
      "stateMutability": "view",
      "type": "function"
    },
    {
      "inputs": [],
      "name": "optionState",
      "outputs": [
        {
          "internalType": "address",
          "name": "nextOption",
          "type": "address"
        },
        {
          "internalType": "address",
          "name": "currentOption",
          "type": "address"
        },
        {
          "internalType": "uint32",
          "name": "nextOptionReadyAt",
          "type": "uint32"
        }
      ],
      "stateMutability": "view",
      "type": "function"
    },
    {
      "inputs": [],
      "name": "optionsPremiumPricer",
      "outputs": [
        {
          "internalType": "address",
          "name": "",
          "type": "address"
        }
      ],
      "stateMutability": "view",
      "type": "function"
    },
    {
      "inputs": [],
      "name": "overriddenStrikePrice",
      "outputs": [
        {
          "internalType": "uint256",
          "name": "",
          "type": "uint256"
        }
      ],
      "stateMutability": "view",
      "type": "function"
    },
    {
      "inputs": [],
      "name": "owner",
      "outputs": [
        {
          "internalType": "address",
          "name": "",
          "type": "address"
        }
      ],
      "stateMutability": "view",
      "type": "function"
    },
    {
      "inputs": [],
      "name": "performanceFee",
      "outputs": [
        {
          "internalType": "uint256",
          "name": "",
          "type": "uint256"
        }
      ],
      "stateMutability": "view",
      "type": "function"
    },
    {
      "inputs": [],
      "name": "premiumDiscount",
      "outputs": [
        {
          "internalType": "uint256",
          "name": "",
          "type": "uint256"
        }
      ],
      "stateMutability": "view",
      "type": "function"
    },
    {
      "inputs": [],
      "name": "pricePerShare",
      "outputs": [
        {
          "internalType": "uint256",
          "name": "",
          "type": "uint256"
        }
      ],
      "stateMutability": "view",
      "type": "function"
    },
    {
      "inputs": [
        {
          "internalType": "uint256",
          "name": "numShares",
          "type": "uint256"
        }
      ],
      "name": "redeem",
      "outputs": [],
      "stateMutability": "nonpayable",
      "type": "function"
    },
    {
      "inputs": [],
      "name": "renounceOwnership",
      "outputs": [],
      "stateMutability": "nonpayable",
      "type": "function"
    },
    {
      "inputs": [],
      "name": "rollToNextOption",
      "outputs": [],
      "stateMutability": "nonpayable",
      "type": "function"
    },
    {
      "inputs": [
        {
          "internalType": "uint256",
          "name": "",
          "type": "uint256"
        }
      ],
      "name": "roundPricePerShare",
      "outputs": [
        {
          "internalType": "uint256",
          "name": "",
          "type": "uint256"
        }
      ],
      "stateMutability": "view",
      "type": "function"
    },
    {
      "inputs": [],
      "name": "sendLDORewards",
      "outputs": [],
      "stateMutability": "nonpayable",
      "type": "function"
    },
    {
      "inputs": [
        {
          "internalType": "uint256",
          "name": "newAuctionDuration",
          "type": "uint256"
        }
      ],
      "name": "setAuctionDuration",
      "outputs": [],
      "stateMutability": "nonpayable",
      "type": "function"
    },
    {
      "inputs": [
        {
          "internalType": "uint256",
          "name": "newCap",
          "type": "uint256"
        }
      ],
      "name": "setCap",
      "outputs": [],
      "stateMutability": "nonpayable",
      "type": "function"
    },
    {
      "inputs": [
        {
          "internalType": "address",
          "name": "newFeeRecipient",
          "type": "address"
        }
      ],
      "name": "setFeeRecipient",
      "outputs": [],
      "stateMutability": "nonpayable",
      "type": "function"
    },
    {
      "inputs": [
        {
          "internalType": "uint256",
          "name": "newManagementFee",
          "type": "uint256"
        }
      ],
      "name": "setManagementFee",
      "outputs": [],
      "stateMutability": "nonpayable",
      "type": "function"
    },
    {
      "inputs": [
        {
          "internalType": "address",
          "name": "newKeeper",
          "type": "address"
        }
      ],
      "name": "setNewKeeper",
      "outputs": [],
      "stateMutability": "nonpayable",
      "type": "function"
    },
    {
      "inputs": [
        {
          "internalType": "uint256",
          "name": "newPerformanceFee",
          "type": "uint256"
        }
      ],
      "name": "setPerformanceFee",
      "outputs": [],
      "stateMutability": "nonpayable",
      "type": "function"
    },
    {
      "inputs": [
        {
          "internalType": "uint256",
          "name": "newPremiumDiscount",
          "type": "uint256"
        }
      ],
      "name": "setPremiumDiscount",
      "outputs": [],
      "stateMutability": "nonpayable",
      "type": "function"
    },
    {
      "inputs": [
        {
          "internalType": "uint128",
          "name": "strikePrice",
          "type": "uint128"
        }
      ],
      "name": "setStrikePrice",
      "outputs": [],
      "stateMutability": "nonpayable",
      "type": "function"
    },
    {
      "inputs": [
        {
          "internalType": "address",
          "name": "newContract",
          "type": "address"
        },
        {
          "internalType": "bool",
          "name": "isStrikeSelection",
          "type": "bool"
        }
      ],
      "name": "setStrikeSelectionOrPricer",
      "outputs": [],
      "stateMutability": "nonpayable",
      "type": "function"
    },
    {
      "inputs": [
        {
          "internalType": "address",
          "name": "account",
          "type": "address"
        }
      ],
      "name": "shareBalances",
      "outputs": [
        {
          "internalType": "uint256",
          "name": "heldByAccount",
          "type": "uint256"
        },
        {
          "internalType": "uint256",
          "name": "heldByVault",
          "type": "uint256"
        }
      ],
      "stateMutability": "view",
      "type": "function"
    },
    {
      "inputs": [
        {
          "internalType": "address",
          "name": "account",
          "type": "address"
        }
      ],
      "name": "shares",
      "outputs": [
        {
          "internalType": "uint256",
          "name": "",
          "type": "uint256"
        }
      ],
      "stateMutability": "view",
      "type": "function"
    },
    {
      "inputs": [],
      "name": "startAuction",
      "outputs": [],
      "stateMutability": "nonpayable",
      "type": "function"
    },
    {
      "inputs": [],
      "name": "strikeSelection",
      "outputs": [
        {
          "internalType": "address",
          "name": "",
          "type": "address"
        }
      ],
      "stateMutability": "view",
      "type": "function"
    },
    {
      "inputs": [],
      "name": "symbol",
      "outputs": [
        {
          "internalType": "string",
          "name": "",
          "type": "string"
        }
      ],
      "stateMutability": "view",
      "type": "function"
    },
    {
      "inputs": [],
      "name": "totalBalance",
      "outputs": [
        {
          "internalType": "uint256",
          "name": "",
          "type": "uint256"
        }
      ],
      "stateMutability": "view",
      "type": "function"
    },
    {
      "inputs": [],
      "name": "totalPending",
      "outputs": [
        {
          "internalType": "uint256",
          "name": "",
          "type": "uint256"
        }
      ],
      "stateMutability": "view",
      "type": "function"
    },
    {
      "inputs": [],
      "name": "totalSupply",
      "outputs": [
        {
          "internalType": "uint256",
          "name": "",
          "type": "uint256"
        }
      ],
      "stateMutability": "view",
      "type": "function"
    },
    {
      "inputs": [
        {
          "internalType": "address",
          "name": "recipient",
          "type": "address"
        },
        {
          "internalType": "uint256",
          "name": "amount",
          "type": "uint256"
        }
      ],
      "name": "transfer",
      "outputs": [
        {
          "internalType": "bool",
          "name": "",
          "type": "bool"
        }
      ],
      "stateMutability": "nonpayable",
      "type": "function"
    },
    {
      "inputs": [
        {
          "internalType": "address",
          "name": "sender",
          "type": "address"
        },
        {
          "internalType": "address",
          "name": "recipient",
          "type": "address"
        },
        {
          "internalType": "uint256",
          "name": "amount",
          "type": "uint256"
        }
      ],
      "name": "transferFrom",
      "outputs": [
        {
          "internalType": "bool",
          "name": "",
          "type": "bool"
        }
      ],
      "stateMutability": "nonpayable",
      "type": "function"
    },
    {
      "inputs": [
        {
          "internalType": "address",
          "name": "newOwner",
          "type": "address"
        }
      ],
      "name": "transferOwnership",
      "outputs": [],
      "stateMutability": "nonpayable",
      "type": "function"
    },
    {
      "inputs": [],
      "name": "vaultParams",
      "outputs": [
        {
          "internalType": "bool",
          "name": "isPut",
          "type": "bool"
        },
        {
          "internalType": "uint8",
          "name": "decimals",
          "type": "uint8"
        },
        {
          "internalType": "address",
          "name": "asset",
          "type": "address"
        },
        {
          "internalType": "address",
          "name": "underlying",
          "type": "address"
        },
        {
          "internalType": "uint56",
          "name": "minimumSupply",
          "type": "uint56"
        },
        {
          "internalType": "uint104",
          "name": "cap",
          "type": "uint104"
        }
      ],
      "stateMutability": "view",
      "type": "function"
    },
    {
      "inputs": [],
      "name": "vaultState",
      "outputs": [
        {
          "internalType": "uint16",
          "name": "round",
          "type": "uint16"
        },
        {
          "internalType": "uint104",
          "name": "lockedAmount",
          "type": "uint104"
        },
        {
          "internalType": "uint104",
          "name": "lastLockedAmount",
          "type": "uint104"
        },
        {
          "internalType": "uint128",
          "name": "totalPending",
          "type": "uint128"
        },
        {
          "internalType": "uint128",
          "name": "queuedWithdrawShares",
          "type": "uint128"
        }
      ],
      "stateMutability": "view",
      "type": "function"
    },
    {
      "inputs": [
        {
          "internalType": "uint256",
          "name": "amount",
          "type": "uint256"
        },
        {
          "internalType": "uint256",
          "name": "minETHOut",
          "type": "uint256"
        }
      ],
      "name": "withdrawInstantly",
      "outputs": [],
      "stateMutability": "nonpayable",
      "type": "function"
    },
    {
      "inputs": [
        {
          "internalType": "address",
          "name": "",
          "type": "address"
        }
      ],
      "name": "withdrawals",
      "outputs": [
        {
          "internalType": "uint16",
          "name": "round",
          "type": "uint16"
        },
        {
          "internalType": "uint128",
          "name": "shares",
          "type": "uint128"
        }
      ],
      "stateMutability": "view",
      "type": "function"
    }
  ],
  "transactionHash": "0x20fea3e2a5a31db79eed9a9b0a24c4df8c7d2084b0143894f98d8f8d253fcf97",
  "args": [
    "0xC02aaA39b223FE8D0A0e5C4F27eAD9083C756Cc2",
    "0xA0b86991c6218b36c1d19D4a2e9Eb0cE3606eB48",
    "0x7f39C581F595B53c5cb19bD0b3f8dA6c935E2Ca0",
    "0x5A98FcBEA516Cf06857215779Fd812CA3beF1B32",
    "0x7C06792Af1632E77cb27a558Dc0885338F4Bdf8E",
    "0x4ccc2339F87F6c59c6893E1A678c2266cA58dC72",
    "0x5934807cC0654d46755eBd2848840b616256C6Ef",
    "0x0b7fFc1f4AD541A4Ed16b40D8c37f0929158D101",
    "0xDC24316b9AE028F1497c275EB9192a3Ea0f67022"
  ],
  "solcInputHash": "d15e1612820563ab5ca0548612c4c8f1",
  "bytecode": "0x6101c06040523480156200001257600080fd5b506040516200631438038062006314833981016040819052620000359162000402565b88888888878787876001600160a01b038816620000825760405162461bcd60e51b8152602060048201526006602482015265042beeecae8d60d31b60448201526064015b60405180910390fd5b6001600160a01b038716620000c35760405162461bcd60e51b8152602060048201526006602482015265215f7573646360d01b604482015260640162000079565b6001600160a01b038616620001065760405162461bcd60e51b8152602060048201526008602482015267042beeee6e8cae8d60c31b604482015260640162000079565b6001600160a01b038516620001465760405162461bcd60e51b8152602060048201526005602482015264215f6c646f60d81b604482015260640162000079565b6001600160a01b0382166200019e5760405162461bcd60e51b815260206004820152601360248201527f215f676e6f7369734561737941756374696f6e00000000000000000000000000604482015260640162000079565b6001600160a01b038416620001ea5760405162461bcd60e51b815260206004820152601160248201527010afb3b0b6b6b0a1b7b73a3937b63632b960791b604482015260640162000079565b6001600160a01b038316620002315760405162461bcd60e51b815260206004820152600c60248201526b0857db585c99da5b941bdbdb60a21b604482015260640162000079565b6001600160a01b038116620002755760405162461bcd60e51b81526020600482015260096024820152680857d8dc9d941bdbdb60ba1b604482015260640162000079565b6001600160601b0319606089811b821660a05288811b821660c05286901b1660e0526040805163183fc7c960e31b815290516001600160a01b0388169163c1fe3e48916004808301926020929190829003018186803b158015620002d857600080fd5b505afa158015620002ed573d6000803e3d6000fd5b505050506040513d601f19601f82011682018060405250810190620003139190620003de565b6001600160601b0319606091821b81166101805294811b85166101005292831b84166101205290821b831661014052811b8216610160529290921b9091166080525050506001600160a01b038516620003a15760405162461bcd60e51b815260206004820152600f60248201526e215f6f546f6b656e466163746f727960881b604482015260640162000079565b5050505060601b6001600160601b0319166101a05250620004bc92505050565b80516001600160a01b0381168114620003d957600080fd5b919050565b600060208284031215620003f0578081fd5b620003fb82620003c1565b9392505050565b60008060008060008060008060006101208a8c03121562000421578485fd5b6200042c8a620003c1565b98506200043c60208b01620003c1565b97506200044c60408b01620003c1565b96506200045c60608b01620003c1565b95506200046c60808b01620003c1565b94506200047c60a08b01620003c1565b93506200048c60c08b01620003c1565b92506200049c60e08b01620003c1565b9150620004ad6101008b01620003c1565b90509295985092959850929598565b60805160601c60a05160601c60c05160601c60e05160601c6101005160601c6101205160601c6101405160601c6101605160601c6101805160601c6101a05160601c615cf36200062160003960008181610f0b0152613123015260008181610f85015281816112f8015281816115ed01528181611a9b0152818161257901528181612b01015261456101526000818161077e015281816113200152612b290152600081816108e00152613ef80152600081816107fd0152612866015260008181610513015281816118b30152818161283e01526149d7015260008181610eb70152611d78015260008181610aa60152613148015260008181610d5801528181611a4b015281816123c70152818161453f01526146c3015260008181610dc1015281816112d00152818161197801528181611a730152818161245e015281816126b90152818161275001528181612ad9015281816131e601526144ce0152615cf36000f3fe6080604052600436106104685760003560e01c80638b10cc7c1161024a578063b9f8092b11610139578063e00bfe50116100b6578063f2fde38b1161007a578063f2fde38b14611012578063f6326fb314611032578063f656ba511461103a578063f957a0671461106f578063fe56e2321461108f57600080fd5b8063e00bfe5014610f73578063e16fdbd514610fa7578063e73c63d514610fc7578063e74b981b14610fdd578063ea00b1ca14610ffd57600080fd5b8063d5f26382116100fd578063d5f2638214610e8f578063d88bba1114610ea5578063db006a7514610ed9578063db43e86214610ef9578063dd62ed3e14610f2d57600080fd5b8063b9f8092b14610dfa578063c632183914610e0f578063ce7c2ac214610e2f578063d13f1b3e14610e4f578063d164cc1514610e6f57600080fd5b8063a497e674116101c7578063ad5c46481161018b578063ad5c464814610d46578063ad7a672f14610d7a578063afa6626414610d8f578063b2016bd414610daf578063b4d1d79514610de357600080fd5b8063a497e67414610cbd578063a6f7f5d614610cdd578063a9059cbb14610cf3578063aa67c91914610d13578063aced166114610d2657600080fd5b80639fcc2d751161020e5780639fcc2d7514610b4e578063a083ff1714610bfa578063a285c9e814610c5d578063a2db9d8314610c7f578063a457c2d714610c9d57600080fd5b80638b10cc7c14610ac85780638da5cb5b14610ae657806395d89b4114610b0457806399530b0614610b195780639be43daa14610b2e57600080fd5b8063503c70aa1161036657806370a08231116102e35780637e108d52116102a75780637e108d5214610a1b57806383536ff314610a3b57806387153eb114610a515780638778878214610a7e57806389a3027114610a9457600080fd5b806370a0823114610937578063715018a61461096d5780637400173d146109825780637a9262a2146109a25780637bf5108614610a0657600080fd5b806369b411701161032a57806369b41170146108a35780636b64c769146108b95780636c10f66c146108ce5780636f31ab341461090257806370897b231461091757600080fd5b8063503c70aa146107a057806355489bb2146107b6578063600a2cfb146107d6578063650cce8a146107eb5780636719b2ee1461081f57600080fd5b806331807e42116103f45780633f90916a116103b85780633f90916a146106f8578063432833a614610716578063469048401461072c57806347786d371461074c5780634f6e746d1461076c57600080fd5b806331807e421461064c578063355274ea1461066c578063395093511461068a5780633ec143d3146106aa5780633f23bb73146106d857600080fd5b80631a92f6c21161043b5780631a92f6c2146105015780632087ed5c1461054d57806323b872dd1461056f5780632728f3331461058f578063313ce5671461062257600080fd5b806306fdde031461046d578063095ea7b3146104985780630cbf54c8146104c857806318160ddd146104ec575b600080fd5b34801561047957600080fd5b506104826110af565b60405161048f919061583a565b60405180910390f35b3480156104a457600080fd5b506104b86104b336600461551a565b611141565b604051901515815260200161048f565b3480156104d457600080fd5b506104de60fb5481565b60405190815260200161048f565b3480156104f857600080fd5b506099546104de565b34801561050d57600080fd5b506105357f000000000000000000000000000000000000000000000000000000000000000081565b6040516001600160a01b03909116815260200161048f565b34801561055957600080fd5b5061056d6105683660046155c6565b611158565b005b34801561057b57600080fd5b506104b861058a3660046154ad565b6114bf565b34801561059b57600080fd5b5060cf5460d0546105dd9161ffff8116916001600160681b03620100008304811692600160781b900416906001600160801b0380821691600160801b90041685565b6040805161ffff90961686526001600160681b03948516602087015293909216928401929092526001600160801b03918216606084015216608082015260a00161048f565b34801561062e57600080fd5b5060cc54610100900460ff1660405160ff909116815260200161048f565b34801561065857600080fd5b5061056d6106673660046155c6565b61156b565b34801561067857600080fd5b5060ce546001600160681b03166104de565b34801561069657600080fd5b506104b86106a536600461551a565b61161c565b3480156106b657600080fd5b5060f9546106c59061ffff1681565b60405161ffff909116815260200161048f565b3480156106e457600080fd5b506104de6106f336600461535a565b611658565b34801561070457600080fd5b5060d0546001600160801b03166104de565b34801561072257600080fd5b506104de60fc5481565b34801561073857600080fd5b5060d354610535906001600160a01b031681565b34801561075857600080fd5b5061056d6107673660046155c6565b6116ab565b34801561077857600080fd5b506105357f000000000000000000000000000000000000000000000000000000000000000081565b3480156107ac57600080fd5b506104de60fd5481565b3480156107c257600080fd5b5061056d6107d136600461559f565b611786565b3480156107e257600080fd5b5061056d611847565b3480156107f757600080fd5b506105357f000000000000000000000000000000000000000000000000000000000000000081565b34801561082b57600080fd5b5061087261083a36600461535a565b60c96020526000908152604090205461ffff8116906201000081046001600160681b031690600160781b90046001600160801b031683565b6040805161ffff90941684526001600160681b0390921660208401526001600160801b03169082015260600161048f565b3480156108af57600080fd5b506104de61038481565b3480156108c557600080fd5b5061056d611b16565b3480156108da57600080fd5b506105357f000000000000000000000000000000000000000000000000000000000000000081565b34801561090e57600080fd5b5061056d611b76565b34801561092357600080fd5b5061056d6109323660046155c6565b611bad565b34801561094357600080fd5b506104de61095236600461535a565b6001600160a01b031660009081526097602052604090205490565b34801561097957600080fd5b5061056d611c74565b34801561098e57600080fd5b5061056d61099d3660046154ed565b611caa565b3480156109ae57600080fd5b506109e46109bd36600461535a565b60cb6020526000908152604090205461ffff8116906201000090046001600160801b031682565b6040805161ffff90931683526001600160801b0390911660208301520161048f565b348015610a1257600080fd5b5061056d611d60565b348015610a2757600080fd5b5061056d610a363660046155c6565b611e18565b348015610a4757600080fd5b506104de60f75481565b348015610a5d57600080fd5b506104de610a6c3660046155c6565b60ca6020526000908152604090205481565b348015610a8a57600080fd5b506104de60d55481565b348015610aa057600080fd5b506105357f000000000000000000000000000000000000000000000000000000000000000081565b348015610ad457600080fd5b5060d2546001600160a01b0316610535565b348015610af257600080fd5b506065546001600160a01b0316610535565b348015610b1057600080fd5b50610482612053565b348015610b2557600080fd5b506104de612062565b348015610b3a57600080fd5b5061056d610b493660046155c6565b61209c565b348015610b5a57600080fd5b5060cc5460cd5460ce54610baa9260ff808216936101008304909116926001600160a01b036201000090930483169282169166ffffffffffffff600160a01b90910416906001600160681b031686565b60408051961515875260ff90951660208701526001600160a01b03938416948601949094529116606084015266ffffffffffffff1660808301526001600160681b031660a082015260c00161048f565b348015610c0657600080fd5b5060d15460d254610c31916001600160a01b039081169190811690600160a01b900463ffffffff1683565b604080516001600160a01b03948516815293909216602084015263ffffffff169082015260600161048f565b348015610c6957600080fd5b5060d254600160a01b900463ffffffff166104de565b348015610c8b57600080fd5b5060d1546001600160a01b0316610535565b348015610ca957600080fd5b506104b8610cb836600461551a565b612196565b348015610cc957600080fd5b5061056d610cd83660046155c6565b61222f565b348015610ce957600080fd5b506104de60d65481565b348015610cff57600080fd5b506104b8610d0e36600461551a565b6122ec565b61056d610d2136600461535a565b6122f9565b348015610d3257600080fd5b5060d454610535906001600160a01b031681565b348015610d5257600080fd5b506105357f000000000000000000000000000000000000000000000000000000000000000081565b348015610d8657600080fd5b506104de6123a5565b348015610d9b57600080fd5b5060f554610535906001600160a01b031681565b348015610dbb57600080fd5b506105357f000000000000000000000000000000000000000000000000000000000000000081565b348015610def57600080fd5b506104de62093a8081565b348015610e0657600080fd5b5061056d612630565b348015610e1b57600080fd5b5061056d610e2a3660046155f6565b612912565b348015610e3b57600080fd5b506104de610e4a36600461535a565b612c08565b348015610e5b57600080fd5b5061056d610e6a3660046155c6565b612c25565b348015610e7b57600080fd5b5061056d610e8a36600461535a565b612ce9565b348015610e9b57600080fd5b506104de60f85481565b348015610eb157600080fd5b506105357f000000000000000000000000000000000000000000000000000000000000000081565b348015610ee557600080fd5b5061056d610ef43660046155c6565b612d78565b348015610f0557600080fd5b506105357f000000000000000000000000000000000000000000000000000000000000000081565b348015610f3957600080fd5b506104de610f48366004615376565b6001600160a01b03918216600090815260986020908152604080832093909416825291909152205490565b348015610f7f57600080fd5b506105357f000000000000000000000000000000000000000000000000000000000000000081565b348015610fb357600080fd5b5061056d610fc23660046153ae565b612de5565b348015610fd357600080fd5b506104de60fa5481565b348015610fe957600080fd5b5061056d610ff836600461535a565b612ff1565b34801561100957600080fd5b5061056d6130e4565b34801561101e57600080fd5b5061056d61102d36600461535a565b613364565b61056d6133fc565b34801561104657600080fd5b5061105a61105536600461535a565b613466565b6040805192835260208301919091520161048f565b34801561107b57600080fd5b5060f654610535906001600160a01b031681565b34801561109b57600080fd5b5061056d6110aa3660046155c6565b613549565b6060609a80546110be90615aad565b80601f01602080910402602001604051908101604052809291908181526020018280546110ea90615aad565b80156111375780601f1061110c57610100808354040283529160200191611137565b820191906000526020600020905b81548152906001019060200180831161111a57829003601f168201915b5050505050905090565b600061114e33848461362a565b5060015b92915050565b600260015414156111845760405162461bcd60e51b815260040161117b906158f1565b60405180910390fd5b600260015533600090815260cb6020526040902080546001600160801b03620100008204169061ffff16816111eb5760405162461bcd60e51b815260206004820152600d60248201526c139bdd081a5b9a5d1a585d1959609a1b604482015260640161117b565b60cf5461ffff1681106112335760405162461bcd60e51b815260206004820152601060248201526f149bdd5b99081b9bdd0818db1bdcd95960821b604482015260640161117b565b33600090815260cb60205260409020805462010000600160901b031916905560d05461126f90600160801b90046001600160801b03168361374f565b60d080546001600160801b03928316600160801b029216919091179055600081815260ca602052604081205460cc546112b291859160ff6101009091041661375b565b604051631d6c315760e01b8152600481018290526001600160a01b037f0000000000000000000000000000000000000000000000000000000000000000811660248301527f0000000000000000000000000000000000000000000000000000000000000000811660448301527f000000000000000000000000000000000000000000000000000000000000000016606482015260848101879052909150600090735CbB58FBd5E53A8db156C1261403b14dc618F3db90631d6c31579060a40160206040518083038186803b15801561138957600080fd5b505af415801561139d573d6000803e3d6000fd5b505050506040513d601f19601f820116820180604052508101906113c191906155de565b604080518281526020810187905291925033917ff279e6a1f5e320cca91135676d9cb6e44ca8a08c0b88342bcdb1144f6511b568910160405180910390a261140930856137bd565b600081116114495760405162461bcd60e51b815260206004820152600d60248201526c08585b5bdd5b9d11551213dd5d609a1b604482015260640161117b565b604051635c921eb960e01b815233600482015260248101829052735CbB58FBd5E53A8db156C1261403b14dc618F3db90635c921eb9906044015b60006040518083038186803b15801561149b57600080fd5b505af41580156114af573d6000803e3d6000fd5b5050600180555050505050505050565b60006114cc848484613908565b6001600160a01b0384166000908152609860209081526040808320338452909152902054828110156115515760405162461bcd60e51b815260206004820152602860248201527f45524332303a207472616e7366657220616d6f756e74206578636565647320616044820152676c6c6f77616e636560c01b606482015260840161117b565b61155e853385840361362a565b60019150505b9392505050565b6002600154141561158e5760405162461bcd60e51b815260040161117b906158f1565b6002600155806115ca5760405162461bcd60e51b815260206004820152600760248201526608585b5bdd5b9d60ca1b604482015260640161117b565b6115e06115d882600161374f565b336000613ad8565b6116156001600160a01b037f000000000000000000000000000000000000000000000000000000000000000016333084613d77565b5060018055565b3360008181526098602090815260408083206001600160a01b0387168452909152812054909161114e918590611653908690615928565b61362a565b60cc5460009060ff610100909104168161168e61167460995490565b61167c6123a5565b60d0546001600160801b031685613de2565b90506116a361169c85612c08565b828461375b565b949350505050565b6065546001600160a01b031633146116d55760405162461bcd60e51b815260040161117b906158bc565b6000811161170f5760405162461bcd60e51b81526020600482015260076024820152660216e65774361760cc1b604482015260640161117b565b61171881613e22565b60ce54604080516001600160681b039092168252602082018390527f5f86edbb9d92228a9edc3f0ebc0f001bda1ea345ac7335e0eeef3504b31d1a1c910160405180910390a160ce80546cffffffffffffffffffffffffff19166001600160681b0392909216919091179055565b6065546001600160a01b031633146117b05760405162461bcd60e51b815260040161117b906158bc565b600260015414156117d35760405162461bcd60e51b815260040161117b906158f1565b60026001556001600160801b03811661181d5760405162461bcd60e51b815260206004820152600c60248201526b21737472696b65507269636560a01b604482015260640161117b565b6001600160801b031660fa5560cf5460f9805461ffff191661ffff90921691909117905560018055565b60d4546001600160a01b031633146118715760405162461bcd60e51b815260040161117b9061584d565b600260015414156118945760405162461bcd60e51b815260040161117b906158f1565b600260015560d2546040516358ffbb3d60e01b81526001600160a01b037f00000000000000000000000000000000000000000000000000000000000000008116600483015290911660248201526000907335a3e0F233587F6E515bcE363E0a5E42cD69EcC0906358ffbb3d9060440160206040518083038186803b15801561191b57600080fd5b505af415801561192f573d6000803e3d6000fd5b505050506040513d601f19601f8201168201806040525081019061195391906155de565b604051632eca54bf60e21b815260048101829052909150611a0a906001600160a01b037f0000000000000000000000000000000000000000000000000000000000000000169063bb2952fc9060240160206040518083038186803b1580156119ba57600080fd5b505afa1580156119ce573d6000803e3d6000fd5b505050506040513d601f19601f820116820180604052508101906119f291906155de565b60cf546201000090046001600160681b03169061374f565b60cf805462010000600160781b031916620100006001600160681b039390931692909202919091179055604051631989ea7560e21b81526001600160a01b037f0000000000000000000000000000000000000000000000000000000000000000811660048301527f0000000000000000000000000000000000000000000000000000000000000000811660248301527f0000000000000000000000000000000000000000000000000000000000000000166044820152735CbB58FBd5E53A8db156C1261403b14dc618F3db90636627a9d49060640160006040518083038186803b158015611af757600080fd5b505af4158015611b0b573d6000803e3d6000fd5b505060018055505050565b60d4546001600160a01b03163314611b405760405162461bcd60e51b815260040161117b9061584d565b60026001541415611b635760405162461bcd60e51b815260040161117b906158f1565b6002600155611b70613e6c565b60018055565b60026001541415611b995760405162461bcd60e51b815260040161117b906158f1565b6002600181905550611b7060006001614007565b6065546001600160a01b03163314611bd75760405162461bcd60e51b815260040161117b906158bc565b611be5620f42406064615a4b565b8110611c335760405162461bcd60e51b815260206004820152601760248201527f496e76616c696420706572666f726d616e636520666565000000000000000000604482015260640161117b565b60d55460408051918252602082018390527f24867dfb6fcb9970a07be21024956524abe7a1837faa903ff0e99aaa40cf893e910160405180910390a160d555565b6065546001600160a01b03163314611c9e5760405162461bcd60e51b815260040161117b906158bc565b611ca860006141b6565b565b6065546001600160a01b03163314611cd45760405162461bcd60e51b815260040161117b906158bc565b6001600160a01b038216611d195760405162461bcd60e51b815260206004820152600c60248201526b085b995dd0dbdb9d1c9858dd60a21b604482015260640161117b565b8015611d405760f680546001600160a01b0384166001600160a01b03199091161790555050565b60f580546001600160a01b0319166001600160a01b0384161790555b5050565b60d3546040516370a0823160e01b81523060048201527f000000000000000000000000000000000000000000000000000000000000000091611e15916001600160a01b03918216918416906370a082319060240160206040518083038186803b158015611dcc57600080fd5b505afa158015611de0573d6000803e3d6000fd5b505050506040513d601f19601f82011682018060405250810190611e0491906155de565b6001600160a01b0384169190614208565b50565b60026001541415611e3b5760405162461bcd60e51b815260040161117b906158f1565b600260015580611e7a5760405162461bcd60e51b815260206004820152600a602482015269216e756d53686172657360b01b604482015260640161117b565b33600090815260c960205260409020546201000090046001600160681b0316151580611ec4575033600090815260c96020526040902054600160781b90046001600160801b031615155b15611ed557611ed560006001614007565b60cf5433600081815260cb60209081526040918290208054835187815261ffff96871693810184905292959194911685149290917f0c53c82ad07e2d592d88ece3b066777dd60f1118e2a081b380efc4358f0d9e2a910160405180910390a281546201000090046001600160801b031660008215611f5e57611f578287614238565b9050611fc1565b8115611fa05760405162461bcd60e51b81526020600482015260116024820152704578697374696e6720776974686472617760781b604482015260640161117b565b5033600090815260cb60205260409020805461ffff191661ffff8616179055845b611fca81614244565b33600090815260cb6020526040812080546001600160801b03808516620100000262010000600160901b03199092169190911790915560d05461201691600160801b9091041688614238565b905061202181614244565b60d080546001600160801b03808416600160801b029116179055612046333089613908565b5050600180555050505050565b6060609b80546110be90615aad565b600061209761207060995490565b6120786123a5565b60d05460cc546001600160801b0390911690610100900460ff16613de2565b905090565b600260015414156120bf5760405162461bcd60e51b815260040161117b906158f1565b6002600155806120fe5760405162461bcd60e51b815260206004820152600a602482015269216e756d526f756e647360b01b604482015260640161117b565b60cf5461ffff1660005b8281101561218d57600061211c8284615928565b600081815260ca6020526040902054909150156121695760405162461bcd60e51b815260206004820152600b60248201526a125b9a5d1a585b1a5e995960aa1b604482015260640161117b565b600090815260ca60205260409020600190558061218581615ae2565b915050612108565b50506001805550565b3360009081526098602090815260408083206001600160a01b0386168452909152812054828110156122185760405162461bcd60e51b815260206004820152602560248201527f45524332303a2064656372656173656420616c6c6f77616e63652062656c6f77604482015264207a65726f60d81b606482015260840161117b565b612225338585840361362a565b5060019392505050565b6065546001600160a01b031633146122595760405162461bcd60e51b815260040161117b906158bc565b610e108110156122ab5760405162461bcd60e51b815260206004820152601860248201527f496e76616c69642061756374696f6e206475726174696f6e0000000000000000604482015260640161117b565b60fb5460408051918252602082018390527f5acd982e2240ed224a69aa03dab039d3797c108e4b5f288cd7dd6ca181b275f3910160405180910390a160fb55565b600061114e338484613908565b6002600154141561231c5760405162461bcd60e51b815260040161117b906158f1565b6002600155346123575760405162461bcd60e51b81526020600482015260066024820152652176616c756560d01b604482015260640161117b565b6001600160a01b0381166123995760405162461bcd60e51b815260206004820152600960248201526810b1b932b234ba37b960b91b604482015260640161117b565b61161534826001613ad8565b6040516370a0823160e01b815230600482015260009081906001600160a01b037f000000000000000000000000000000000000000000000000000000000000000016906370a082319060240160206040518083038186803b15801561240957600080fd5b505afa15801561241d573d6000803e3d6000fd5b505050506040513d601f19601f8201168201806040525081019061244191906155de565b6040516370a0823160e01b815230600482015290915047906000907f00000000000000000000000000000000000000000000000000000000000000006001600160a01b03169063bb2952fc9082906370a082319060240160206040518083038186803b1580156124b057600080fd5b505afa1580156124c4573d6000803e3d6000fd5b505050506040513d601f19601f820116820180604052508101906124e891906155de565b6040518263ffffffff1660e01b815260040161250691815260200190565b60206040518083038186803b15801561251e57600080fd5b505afa158015612532573d6000803e3d6000fd5b505050506040513d601f19601f8201168201806040525081019061255691906155de565b6040516370a0823160e01b81523060048201529091506000906001600160a01b037f000000000000000000000000000000000000000000000000000000000000000016906370a082319060240160206040518083038186803b1580156125bb57600080fd5b505afa1580156125cf573d6000803e3d6000fd5b505050506040513d601f19601f820116820180604052508101906125f391906155de565b60cf549091506126279082906126219085908290889082908b906201000090046001600160681b0316614238565b90614238565b94505050505090565b60d4546001600160a01b0316331461265a5760405162461bcd60e51b815260040161117b9061584d565b6002600154141561267d5760405162461bcd60e51b815260040161117b906158f1565b600260018190555060008061269360fd5461428e565b60fd81905560405162b0e38960e81b81526004810182905291935091506000906127d8907f00000000000000000000000000000000000000000000000000000000000000006001600160a01b03169063b0e389009060240160206040518083038186803b15801561270357600080fd5b505afa158015612717573d6000803e3d6000fd5b505050506040513d601f19601f8201168201806040525081019061273b91906155de565b6040516370a0823160e01b81523060048201527f00000000000000000000000000000000000000000000000000000000000000006001600160a01b0316906370a082319060240160206040518083038186803b15801561279a57600080fd5b505afa1580156127ae573d6000803e3d6000fd5b505050506040513d601f19601f820116820180604052508101906127d291906155de565b9061374f565b9050336001600160a01b0316836001600160a01b03167f045c558fdce4714c5816d53820d27420f4cd860892df203fe636384d8d19aa018360405161281f91815260200190565b60405180910390a3604051632904c23960e01b81526001600160a01b037f0000000000000000000000000000000000000000000000000000000000000000811660048301527f0000000000000000000000000000000000000000000000000000000000000000811660248301528416604482015260648101829052735CbB58FBd5E53A8db156C1261403b14dc618F3db90632904c2399060840160206040518083038186803b1580156128d157600080fd5b505af41580156128e5573d6000803e3d6000fd5b505050506040513d601f19601f8201168201806040525081019061290991906155de565b5061218d613e6c565b600260015414156129355760405162461bcd60e51b815260040161117b906158f1565b600260015533600090815260c96020526040902060cf5461ffff16836129875760405162461bcd60e51b815260206004820152600760248201526608585b5bdd5b9d60ca1b604482015260640161117b565b815461ffff1681146129cb5760405162461bcd60e51b815260206004820152600d60248201526c125b9d985b1a59081c9bdd5b99609a1b604482015260640161117b565b81546201000090046001600160681b031684811015612a1c5760405162461bcd60e51b815260206004820152600d60248201526c115e18d9595908185b5bdd5b9d609a1b604482015260640161117b565b612a26818661374f565b83546001600160681b0391909116620100000262010000600160781b031990911617835560d054612a60906001600160801b03168661374f565b60d080546001600160801b0319166001600160801b0392909216919091179055604080518681526020810184905233917fab2daf3c146ca6416cbccd2a86ed2ba995e171ef6319df14a38aef01403a9c96910160405180910390a2604051631d6c315760e01b8152600481018690526001600160a01b037f0000000000000000000000000000000000000000000000000000000000000000811660248301527f0000000000000000000000000000000000000000000000000000000000000000811660448301527f000000000000000000000000000000000000000000000000000000000000000016606482015260848101859052600090735CbB58FBd5E53A8db156C1261403b14dc618F3db90631d6c31579060a40160206040518083038186803b158015612b8f57600080fd5b505af4158015612ba3573d6000803e3d6000fd5b505050506040513d601f19601f82011682018060405250810190612bc791906155de565b604051635c921eb960e01b815233600482015260248101829052909150735CbB58FBd5E53A8db156C1261403b14dc618F3db90635c921eb990604401611483565b6000806000612c1684613466565b90925090506116a38282614238565b6065546001600160a01b03163314612c4f5760405162461bcd60e51b815260040161117b906158bc565b600081118015612c695750612c66600a6064615a4b565b81105b612ca85760405162461bcd60e51b815260206004820152601060248201526f125b9d985b1a5908191a5cd8dbdd5b9d60821b604482015260640161117b565b60f75460408051918252602082018390527f4cd657fde404967d63a338fb06c5c98751a9df57dfae6dc333a432faf8a5f656910160405180910390a160f755565b6065546001600160a01b03163314612d135760405162461bcd60e51b815260040161117b906158bc565b6001600160a01b038116612d565760405162461bcd60e51b815260206004820152600a60248201526910b732bba5b2b2b832b960b11b604482015260640161117b565b60d480546001600160a01b0319166001600160a01b0392909216919091179055565b60026001541415612d9b5760405162461bcd60e51b815260040161117b906158f1565b600260015580612dda5760405162461bcd60e51b815260206004820152600a602482015269216e756d53686172657360b01b604482015260640161117b565b611615816000614007565b600054610100900460ff1680612dfe575060005460ff16155b612e1a5760405162461bcd60e51b815260040161117b9061586e565b600054610100900460ff16158015612e3c576000805461ffff19166101011790555b612e4c8d8d8d8d8d8d8d8961477b565b6001600160a01b038616612e9b5760405162461bcd60e51b815260206004820152601660248201527510afb7b83a34b7b739a83932b6b4bab6a83934b1b2b960511b604482015260640161117b565b6001600160a01b038516612ee55760405162461bcd60e51b815260206004820152601160248201527010afb9ba3934b5b2a9b2b632b1ba34b7b760791b604482015260640161117b565b60008463ffffffff16118015612f0b5750612f02600a6064615a4b565b8463ffffffff16105b612f4b5760405162461bcd60e51b81526020600482015260116024820152700857dc1c995b5a5d5b511a5cd8dbdd5b9d607a1b604482015260640161117b565b610e10831015612f915760405162461bcd60e51b815260206004820152601160248201527010afb0bab1ba34b7b7223ab930ba34b7b760791b604482015260640161117b565b60f580546001600160a01b038089166001600160a01b03199283161790925560f680549288169290911691909117905563ffffffff841660f75560fb8390558015612fe2576000805461ff00191690555b50505050505050505050505050565b6065546001600160a01b0316331461301b5760405162461bcd60e51b815260040161117b906158bc565b6001600160a01b0381166130645760405162461bcd60e51b815260206004820152601060248201526f085b995dd19959549958da5c1a595b9d60821b604482015260640161117b565b60d3546001600160a01b03828116911614156130c25760405162461bcd60e51b815260206004820152601860248201527f4d757374206265206e657720666565526563697069656e740000000000000000604482015260640161117b565b60d380546001600160a01b0319166001600160a01b0392909216919091179055565b600260015414156131075760405162461bcd60e51b815260040161117b906158f1565b600260015560d2546040805160c0810182526001600160a01b037f0000000000000000000000000000000000000000000000000000000000000000811682527f000000000000000000000000000000000000000000000000000000000000000081166020830152928316818301819052610384606083015260f95461ffff16608083015260fa5460a083015260f65460f55460f75494516303a20e3d60e01b815292959394600094859485948594735CbB58FBd5E53A8db156C1261403b14dc618F3db946303a20e3d9461320e94938116939216918b9060cc9060cf907f0000000000000000000000000000000000000000000000000000000000000000906004016157a2565b60806040518083038186803b15801561322657600080fd5b505af415801561323a573d6000803e3d6000fd5b505050506040513d601f19601f8201168201806040525081019061325e9190615545565b93509350935093507fa217999b1c125c2a996f712c5f26a28addad7167bd8a67d5bd5b2a751148abb082826040516132a0929190918252602082015260400190565b60405180910390a16132b183613e22565b6001600160681b03831660f85560d180546001600160a01b0319166001600160a01b03861617905560006132e742610384614238565b905063ffffffff81111561333d5760405162461bcd60e51b815260206004820152601860248201527f4f766572666c6f77206e6578744f7074696f6e52656164790000000000000000604482015260640161117b565b60d2805463ffffffff60a01b1916600160a01b63ffffffff84160217905561204687614943565b6065546001600160a01b0316331461338e5760405162461bcd60e51b815260040161117b906158bc565b6001600160a01b0381166133f35760405162461bcd60e51b815260206004820152602660248201527f4f776e61626c653a206e6577206f776e657220697320746865207a65726f206160448201526564647265737360d01b606482015260840161117b565b611e15816141b6565b6002600154141561341f5760405162461bcd60e51b815260040161117b906158f1565b60026001553461345a5760405162461bcd60e51b81526020600482015260066024820152652176616c756560d01b604482015260640161117b565b611b7034336001613ad8565b6001600160a01b038116600090815260c9602090815260408083208151606081018352905461ffff81168083526201000082046001600160681b031694830194909452600160781b90046001600160801b0316918101919091528291600111156134e8575050506001600160a01b031660009081526097602052604081205491565b60cf54815161ffff908116600090815260ca602052604081205460cc54919361351e93869391169190610100900460ff16614ab5565b905061353f856001600160a01b031660009081526097602052604090205490565b9590945092505050565b6065546001600160a01b031633146135735760405162461bcd60e51b815260040161117b906158bc565b613581620f42406064615a4b565b81106135c85760405162461bcd60e51b8152602060048201526016602482015275496e76616c6964206d616e6167656d656e742066656560501b604482015260640161117b565b60006135e563031ba3096135df84620f4240614b26565b90614b32565b60d65460408051918252602082018590529192507f4e874b007ab14f7e263baefd44951834c8266f4f224d1092e49e9c254354cc54910160405180910390a160d65550565b6001600160a01b03831661368c5760405162461bcd60e51b8152602060048201526024808201527f45524332303a20617070726f76652066726f6d20746865207a65726f206164646044820152637265737360e01b606482015260840161117b565b6001600160a01b0382166136ed5760405162461bcd60e51b815260206004820152602260248201527f45524332303a20617070726f766520746f20746865207a65726f206164647265604482015261737360f01b606482015260840161117b565b6001600160a01b0383811660008181526098602090815260408083209487168084529482529182902085905590518481527f8c5be1e5ebec7d5bd14f71427d1e84f3dd0314c0f7b2291e5b200ac8c7c3b92591015b60405180910390a3505050565b60006115648284615a6a565b6000600183116137a55760405162461bcd60e51b8152602060048201526015602482015274496e76616c6964206173736574506572536861726560581b604482015260640161117b565b6116a36137b383600a6159a3565b6135df8686614b26565b6001600160a01b03821661381d5760405162461bcd60e51b815260206004820152602160248201527f45524332303a206275726e2066726f6d20746865207a65726f206164647265736044820152607360f81b606482015260840161117b565b6001600160a01b038216600090815260976020526040902054818110156138915760405162461bcd60e51b815260206004820152602260248201527f45524332303a206275726e20616d6f756e7420657863656564732062616c616e604482015261636560f01b606482015260840161117b565b6001600160a01b03831660009081526097602052604081208383039055609980548492906138c0908490615a6a565b90915550506040518281526000906001600160a01b038516907fddf252ad1be2c89b69c2b068fc378daa952ba7f163c4a11628f55a4df523b3ef90602001613742565b505050565b6001600160a01b03831661396c5760405162461bcd60e51b815260206004820152602560248201527f45524332303a207472616e736665722066726f6d20746865207a65726f206164604482015264647265737360d81b606482015260840161117b565b6001600160a01b0382166139ce5760405162461bcd60e51b815260206004820152602360248201527f45524332303a207472616e7366657220746f20746865207a65726f206164647260448201526265737360e81b606482015260840161117b565b6001600160a01b03831660009081526097602052604090205481811015613a465760405162461bcd60e51b815260206004820152602660248201527f45524332303a207472616e7366657220616d6f756e7420657863656564732062604482015265616c616e636560d01b606482015260840161117b565b6001600160a01b03808516600090815260976020526040808220858503905591851681529081208054849290613a7d908490615928565b92505081905550826001600160a01b0316846001600160a01b03167fddf252ad1be2c89b69c2b068fc378daa952ba7f163c4a11628f55a4df523b3ef84604051613ac991815260200190565b60405180910390a35b50505050565b60cf5461ffff16600082613af757613af2856126216123a5565b613aff565b613aff6123a5565b60ce549091506001600160681b0316811115613b4a5760405162461bcd60e51b815260206004820152600a6024820152690457863656564206361760b41b604482015260640161117b565b60cd54600160a01b900466ffffffffffffff16811015613ba35760405162461bcd60e51b8152602060048201526014602482015273496e73756666696369656e742062616c616e636560601b604482015260640161117b565b60408051868152602081018490526001600160a01b038616917f90890809c654f11d6e72a28fa60149770a0d11ec6c92319d6ceb2bb0a4ea1a15910160405180910390a26001600160a01b038416600090815260c9602090815260408083208151606081018352905461ffff81168083526201000082046001600160681b031683860152600160781b9091046001600160801b031682840152845260ca90925282205460cc54919291613c62918491879190610100900460ff16614ab5565b8251909150879061ffff16851415613c93576020830151600090613c8f906001600160681b03168a614238565b9150505b613c9c81613e22565b6040805160608101825261ffff80881682526001600160681b0380851660208085019182526001600160801b038089168688019081526001600160a01b038f16600090815260c990935296822095518654935197518216600160781b02600160781b600160f81b03199890951662010000026effffffffffffffffffffffffffffff1990941695169490941791909117949094161790915560d054613d4291168a614238565b9050613d4d81614244565b60d080546001600160801b0319166001600160801b03929092169190911790555050505050505050565b6040516001600160a01b0380851660248301528316604482015260648101829052613ad29085906323b872dd60e01b906084015b60408051601f198184030181529190526020810180516001600160e01b03166001600160e01b031990931692909217909152614b3e565b600080613df083600a6159a3565b905060008611613e005780613e18565b613e18866135df613e11888861374f565b8490614b26565b9695505050505050565b6001600160681b03811115611e155760405162461bcd60e51b815260206004820152601060248201526f13dd995c999b1bddc81d5a5b9d0c4c0d60821b604482015260640161117b565b6040805160c081018252600080825260208201819052918101829052606081018290526080810182905260a081019190915260f85480613ee65760405162461bcd60e51b81526020600482015260156024820152742163757272656e744f746f6b656e5072656d69756d60581b604482015260640161117b565b60d2546001600160a01b0390811683527f000000000000000000000000000000000000000000000000000000000000000081166020840190815260cc546201000081048316604080870191825261010090920460ff16606087019081526080870186815260fb5460a089019081529351633baf17fd60e21b8152885187166004820152945186166024860152915190941660448401529251606483015291516084820152905160a48201527335a3e0F233587F6E515bcE363E0a5E42cD69EcC09063eebc5ff49060c40160206040518083038186803b158015613fc857600080fd5b505af4158015613fdc573d6000803e3d6000fd5b505050506040513d601f19601f8201168201806040525081019061400091906155de565b60fc555050565b33600090815260c9602090815260408083208151606081018352905461ffff8082168084526201000083046001600160681b031684870152600160781b9092046001600160801b03168385015260cf5491865260ca9094529184205460cc54919492909316926140829185918591610100900460ff16614ab5565b90508361408f5784614091565b805b94508461409f575050505050565b808511156140e35760405162461bcd60e51b81526020600482015260116024820152704578636565647320617661696c61626c6560781b604482015260640161117b565b825161ffff168211156141105733600090815260c960205260409020805462010000600160781b03191690555b61411985614244565b614123818661374f565b33600081815260c960205260409081902080546001600160801b0394909416600160781b02600160781b600160f81b0319909416939093179092558451915190917fe5b754fb1abb7f01b499791d0b820ae3b6af3424ac1c59768edb53f4ec31a9299161419c9189825261ffff16602082015260400190565b60405180910390a26141af303387613908565b5050505050565b606580546001600160a01b038381166001600160a01b0319831681179093556040519116919082907f8be0079c531659141344cd1fd0a4f28419497f9722a3daafe3b4186f6b6457e090600090a35050565b6040516001600160a01b03831660248201526044810182905261390390849063a9059cbb60e01b90606401613dab565b60006115648284615928565b6001600160801b03811115611e155760405162461bcd60e51b815260206004820152601060248201526f09eeccae4ccd8deee40ead2dce86264760831b604482015260640161117b565b60d2546000908190600160a01b900463ffffffff164210156142db5760405162461bcd60e51b815260206004820152600660248201526521726561647960d01b604482015260640161117b565b60d1546001600160a01b0316806143225760405162461bcd60e51b815260206004820152600b60248201526a10b732bc3a27b83a34b7b760a91b604482015260640161117b565b6000806000806000807335a3e0F233587F6E515bcE363E0a5E42cD69EcC063633c142660cf6040518060c0016040528060cc60000160019054906101000a900460ff1660ff1681526020016143756123a5565b815260200161438360995490565b81526020018e815260200160d554815260200160d6548152506040518363ffffffff1660e01b81526004016143ff929190600060e08201905083825282516020830152602083015160408301526040830151606083015260608301516080830152608083015160a083015260a083015160c08301529392505050565b60c06040518083038186803b15801561441757600080fd5b505af415801561442b573d6000803e3d6000fd5b505050506040513d601f19601f8201168201806040525081019061444f9190615617565b9550955095509550955095508660d160010160006101000a8154816001600160a01b0302191690836001600160a01b03160217905550600060d160000160006101000a8154816001600160a01b0302191690836001600160a01b03160217905550600060d360009054906101000a90046001600160a01b0316905060007f00000000000000000000000000000000000000000000000000000000000000009050600060cf60000160009054906101000a900461ffff1661ffff1690508660ca600083815260200190815260200160002081905550735CbB58FBd5E53A8db156C1261403b14dc618F3db636627a9d47f0000000000000000000000000000000000000000000000000000000000000000847f00000000000000000000000000000000000000000000000000000000000000006040518463ffffffff1660e01b81526004016145bc939291906001600160a01b0393841681529183166020830152909116604082015260600190565b60006040518083038186803b1580156145d457600080fd5b505af41580156145e8573d6000803e3d6000fd5b505060408051888152602081018890529081018490526001600160a01b03861692507f0a242f7ecaf711036ca770774ceffae28e60ef042ac113ddd187f2631db0c006915060600160405180910390a260d080546001600160801b0319169055614653816001615928565b60cf805461ffff191661ffff9290921691909117905561467289613e22565b60cf805462010000600160781b031916620100006001600160681b038c160217905561469e3087614c10565b8315614768576040516305ffc87f60e31b81526001600160a01b0380841660048301527f0000000000000000000000000000000000000000000000000000000000000000811660248301528416604482015260648101859052735CbB58FBd5E53A8db156C1261403b14dc618F3db90632ffe43f89060840160206040518083038186803b15801561472e57600080fd5b505af4158015614742573d6000803e3d6000fd5b505050506040513d601f19601f8201168201806040525081019061476691906155de565b505b50979b959a509498505050505050505050565b600054610100900460ff1680614794575060005460ff16155b6147b05760405162461bcd60e51b815260040161117b9061586e565b600054610100900460ff161580156147d2576000805461ffff19166101011790555b60405163c72733f760e01b81527335a3e0F233587F6E515bcE363E0a5E42cD69EcC09063c72733f790614817908c908c908c908b908d908c908c908c906004016156a8565b60006040518083038186803b15801561482f57600080fd5b505af4158015614843573d6000803e3d6000fd5b5050505061484f614cef565b6148598484614d62565b614861614de1565b61486a89613364565b60d480546001600160a01b03808b166001600160a01b03199283161790925560d38054928a169290911691909117905560d58590556148b463031ba3096135df88620f4240614b26565b60d6558160cc6148c48282615b50565b90505060006148d16123a5565b90506148dc81613e22565b60cf805461ffff196001600160681b03909316600160781b02929092167fffffffff00000000000000000000000000ffffffffffffffffffffffffff00009092169190911760011790558015614938576000805461ff00191690555b505050505050505050565b60cf546201000090046001600160681b03166001600160a01b0382161561498f5760cf80546cffffffffffffffffffffffffff60781b1916600160781b6001600160681b038416021790555b60cf805462010000600160781b031916905560d280546001600160a01b03191690556001600160a01b03821615611d5c57604051636c6fe87f60e11b81526001600160a01b037f00000000000000000000000000000000000000000000000000000000000000001660048201526000907335a3e0F233587F6E515bcE363E0a5E42cD69EcC09063d8dfd0fe9060240160206040518083038186803b158015614a3657600080fd5b505af4158015614a4a573d6000803e3d6000fd5b505050506040513d601f19601f82011682018060405250810190614a6e91906155de565b9050336001600160a01b0316836001600160a01b03167f7e830f7c1771deb1bdb35c4a7e6051bbac32b376f7f4e4976b8618b0b11997f78360405161374291815260200190565b835160009061ffff1615801590614ad05750845161ffff1684115b15614b12576000614aef86602001516001600160681b03168585614e48565b6040870151909150614b0a906001600160801b031682614238565b9150506116a3565b50505050604001516001600160801b031690565b60006115648284615a4b565b60006115648284615940565b6000614b93826040518060400160405280602081526020017f5361666545524332303a206c6f772d6c6576656c2063616c6c206661696c6564815250856001600160a01b0316614eab9092919063ffffffff16565b8051909150156139035780806020019051810190614bb19190615583565b6139035760405162461bcd60e51b815260206004820152602a60248201527f5361666545524332303a204552433230206f7065726174696f6e20646964206e6044820152691bdd081cdd58d8d9595960b21b606482015260840161117b565b6001600160a01b038216614c665760405162461bcd60e51b815260206004820152601f60248201527f45524332303a206d696e7420746f20746865207a65726f206164647265737300604482015260640161117b565b8060996000828254614c789190615928565b90915550506001600160a01b03821660009081526097602052604081208054839290614ca5908490615928565b90915550506040518181526001600160a01b038316906000907fddf252ad1be2c89b69c2b068fc378daa952ba7f163c4a11628f55a4df523b3ef9060200160405180910390a35050565b600054610100900460ff1680614d08575060005460ff16155b614d245760405162461bcd60e51b815260040161117b9061586e565b600054610100900460ff16158015614d46576000805461ffff19166101011790555b614d4e614eba565b8015611e15576000805461ff001916905550565b600054610100900460ff1680614d7b575060005460ff16155b614d975760405162461bcd60e51b815260040161117b9061586e565b600054610100900460ff16158015614db9576000805461ffff19166101011790555b614dc1614f29565b614dcb8383614f93565b8015613903576000805461ff0019169055505050565b600054610100900460ff1680614dfa575060005460ff16155b614e165760405162461bcd60e51b815260040161117b9061586e565b600054610100900460ff16158015614e38576000805461ffff19166101011790555b614e40614f29565b614d4e615028565b600060018311614e925760405162461bcd60e51b8152602060048201526015602482015274496e76616c6964206173736574506572536861726560581b604482015260640161117b565b6116a3836135df614ea485600a6159a3565b8790614b26565b60606116a38484600085615088565b600054610100900460ff1680614ed3575060005460ff16155b614eef5760405162461bcd60e51b815260040161117b9061586e565b600054610100900460ff16158015614f11576000805461ffff19166101011790555b600180558015611e15576000805461ff001916905550565b600054610100900460ff1680614f42575060005460ff16155b614f5e5760405162461bcd60e51b815260040161117b9061586e565b600054610100900460ff16158015614d4e576000805461ffff19166101011790558015611e15576000805461ff001916905550565b600054610100900460ff1680614fac575060005460ff16155b614fc85760405162461bcd60e51b815260040161117b9061586e565b600054610100900460ff16158015614fea576000805461ffff19166101011790555b8251614ffd90609a9060208601906151e9565b50815161501190609b9060208501906151e9565b508015613903576000805461ff0019169055505050565b600054610100900460ff1680615041575060005460ff16155b61505d5760405162461bcd60e51b815260040161117b9061586e565b600054610100900460ff1615801561507f576000805461ffff19166101011790555b614d4e336141b6565b6060824710156150e95760405162461bcd60e51b815260206004820152602660248201527f416464726573733a20696e73756666696369656e742062616c616e636520666f6044820152651c8818d85b1b60d21b606482015260840161117b565b843b6151375760405162461bcd60e51b815260206004820152601d60248201527f416464726573733a2063616c6c20746f206e6f6e2d636f6e7472616374000000604482015260640161117b565b600080866001600160a01b03168587604051615153919061568c565b60006040518083038185875af1925050503d8060008114615190576040519150601f19603f3d011682016040523d82523d6000602084013e615195565b606091505b50915091506151a58282866151b0565b979650505050505050565b606083156151bf575081611564565b8251156151cf5782518084602001fd5b8160405162461bcd60e51b815260040161117b919061583a565b8280546151f590615aad565b90600052602060002090601f016020900481019282615217576000855561525d565b82601f1061523057805160ff191683800117855561525d565b8280016001018555821561525d579182015b8281111561525d578251825591602001919060010190615242565b5061526992915061526d565b5090565b5b80821115615269576000815560010161526e565b803561528d81615c61565b919050565b600082601f8301126152a2578081fd5b813567ffffffffffffffff808211156152bd576152bd615b13565b604051601f8301601f19908116603f011681019082821181831017156152e5576152e5615b13565b816040528381528660208588010111156152fd578485fd5b8360208701602083013792830160200193909352509392505050565b600060c0828403121561532a578081fd5b50919050565b803561528d81615c84565b803563ffffffff8116811461528d57600080fd5b803561528d81615c99565b60006020828403121561536b578081fd5b813561156481615c61565b60008060408385031215615388578081fd5b823561539381615c61565b915060208301356153a381615c61565b809150509250929050565b6000806000806000806000806000806000806102208d8f0312156153d0578788fd5b6153d98d615282565b9b506153e760208e01615282565b9a506153f560408e01615282565b995060608d0135985060808d0135975067ffffffffffffffff60a08e0135111561541d578687fd5b61542d8e60a08f01358f01615292565b965067ffffffffffffffff60c08e01351115615447578586fd5b6154578e60c08f01358f01615292565b955061546560e08e01615282565b94506154746101008e01615282565b93506154836101208e0161533b565b92506101408d0135915061549b8e6101608f01615319565b90509295989b509295989b509295989b565b6000806000606084860312156154c1578283fd5b83356154cc81615c61565b925060208401356154dc81615c61565b929592945050506040919091013590565b600080604083850312156154ff578182fd5b823561550a81615c61565b915060208301356153a381615c76565b6000806040838503121561552c578182fd5b823561553781615c61565b946020939093013593505050565b6000806000806080858703121561555a578384fd5b845161556581615c61565b60208601516040870151606090970151919890975090945092505050565b600060208284031215615594578081fd5b815161156481615c76565b6000602082840312156155b0578081fd5b81356001600160801b0381168114611564578182fd5b6000602082840312156155d7578081fd5b5035919050565b6000602082840312156155ef578081fd5b5051919050565b60008060408385031215615608578182fd5b50508035926020909101359150565b60008060008060008060c0878903121561562f578384fd5b865195506020870151945060408701519350606087015192506080870151915060a087015190509295509295509295565b60008151808452615678816020860160208601615a81565b601f01601f19169290920160200192915050565b6000825161569e818460208701615a81565b9190910192915050565b60006101a060018060a01b03808c168452808b166020850152808a1660408501528860608501528760808501528160a08501526156e782850188615660565b915083820360c08501526156fb8287615660565b92508435915061570a82615c76565b90151560e084015260208401359061572182615cae565b60ff82166101008501526040850135915061573b82615c61565b1661012083015261574e60608401615282565b6001600160a01b03166101408301526157696080840161534f565b66ffffffffffffff1661016083015261578460a08401615330565b6001600160681b038116610180840152509998505050505050505050565b60006101808201905060018060a01b03808a16835280891660208401528760408401528087511660608401528060208801511660808401528060408801511660a084015250606086015160c083015261ffff60808701511660e083015260a0860151610100830152846101208301528361014083015261582e6101608301846001600160a01b03169052565b98975050505050505050565b6020815260006115646020830184615660565b60208082526007908201526610b5b2b2b832b960c91b604082015260600190565b6020808252602e908201527f496e697469616c697a61626c653a20636f6e747261637420697320616c72656160408201526d191e481a5b9a5d1a585b1a5e995960921b606082015260800190565b6020808252818101527f4f776e61626c653a2063616c6c6572206973206e6f7420746865206f776e6572604082015260600190565b6020808252601f908201527f5265656e7472616e637947756172643a207265656e7472616e742063616c6c00604082015260600190565b6000821982111561593b5761593b615afd565b500190565b60008261595b57634e487b7160e01b81526012600452602481fd5b500490565b600181815b8085111561599b57816000190482111561598157615981615afd565b8085161561598e57918102915b93841c9390800290615965565b509250929050565b600061156483836000826159b957506001611152565b816159c657506000611152565b81600181146159dc57600281146159e657615a02565b6001915050611152565b60ff8411156159f7576159f7615afd565b50506001821b611152565b5060208310610133831016604e8410600b8410161715615a25575081810a611152565b615a2f8383615960565b8060001904821115615a4357615a43615afd565b029392505050565b6000816000190483118215151615615a6557615a65615afd565b500290565b600082821015615a7c57615a7c615afd565b500390565b60005b83811015615a9c578181015183820152602001615a84565b83811115613ad25750506000910152565b600181811c90821680615ac157607f821691505b6020821081141561532a57634e487b7160e01b600052602260045260246000fd5b6000600019821415615af657615af6615afd565b5060010190565b634e487b7160e01b600052601160045260246000fd5b634e487b7160e01b600052604160045260246000fd5b6000813561115281615c61565b6000813561115281615c84565b6000813561115281615c99565b8135615b5b81615c76565b815460ff19811691151560ff1691821783556020840135615b7b81615cae565b61ff008160081b169050808361ffff198416171784556040850135615b9f81615c61565b6001600160b01b0319929092169092179190911760109190911b62010000600160b01b031617815560018101615bf7615bda60608501615b29565b82546001600160a01b0319166001600160a01b0391909116178255565b615c30615c0660808501615b43565b82805466ffffffffffffff60a01b191660a09290921b66ffffffffffffff60a01b16919091179055565b50611d5c615c4060a08401615b36565b600283016001600160681b0382166001600160681b03198254161781555050565b6001600160a01b0381168114611e1557600080fd5b8015158114611e1557600080fd5b6001600160681b0381168114611e1557600080fd5b66ffffffffffffff81168114611e1557600080fd5b60ff81168114611e1557600080fdfea264697066735822122052def5b4ac5f258a9f340101925a5b4d3035534a575ba62426ea495455fb6df964736f6c63430008040033",
  "deployedBytecode": "0x6080604052600436106104685760003560e01c80638b10cc7c1161024a578063b9f8092b11610139578063e00bfe50116100b6578063f2fde38b1161007a578063f2fde38b14611012578063f6326fb314611032578063f656ba511461103a578063f957a0671461106f578063fe56e2321461108f57600080fd5b8063e00bfe5014610f73578063e16fdbd514610fa7578063e73c63d514610fc7578063e74b981b14610fdd578063ea00b1ca14610ffd57600080fd5b8063d5f26382116100fd578063d5f2638214610e8f578063d88bba1114610ea5578063db006a7514610ed9578063db43e86214610ef9578063dd62ed3e14610f2d57600080fd5b8063b9f8092b14610dfa578063c632183914610e0f578063ce7c2ac214610e2f578063d13f1b3e14610e4f578063d164cc1514610e6f57600080fd5b8063a497e674116101c7578063ad5c46481161018b578063ad5c464814610d46578063ad7a672f14610d7a578063afa6626414610d8f578063b2016bd414610daf578063b4d1d79514610de357600080fd5b8063a497e67414610cbd578063a6f7f5d614610cdd578063a9059cbb14610cf3578063aa67c91914610d13578063aced166114610d2657600080fd5b80639fcc2d751161020e5780639fcc2d7514610b4e578063a083ff1714610bfa578063a285c9e814610c5d578063a2db9d8314610c7f578063a457c2d714610c9d57600080fd5b80638b10cc7c14610ac85780638da5cb5b14610ae657806395d89b4114610b0457806399530b0614610b195780639be43daa14610b2e57600080fd5b8063503c70aa1161036657806370a08231116102e35780637e108d52116102a75780637e108d5214610a1b57806383536ff314610a3b57806387153eb114610a515780638778878214610a7e57806389a3027114610a9457600080fd5b806370a0823114610937578063715018a61461096d5780637400173d146109825780637a9262a2146109a25780637bf5108614610a0657600080fd5b806369b411701161032a57806369b41170146108a35780636b64c769146108b95780636c10f66c146108ce5780636f31ab341461090257806370897b231461091757600080fd5b8063503c70aa146107a057806355489bb2146107b6578063600a2cfb146107d6578063650cce8a146107eb5780636719b2ee1461081f57600080fd5b806331807e42116103f45780633f90916a116103b85780633f90916a146106f8578063432833a614610716578063469048401461072c57806347786d371461074c5780634f6e746d1461076c57600080fd5b806331807e421461064c578063355274ea1461066c578063395093511461068a5780633ec143d3146106aa5780633f23bb73146106d857600080fd5b80631a92f6c21161043b5780631a92f6c2146105015780632087ed5c1461054d57806323b872dd1461056f5780632728f3331461058f578063313ce5671461062257600080fd5b806306fdde031461046d578063095ea7b3146104985780630cbf54c8146104c857806318160ddd146104ec575b600080fd5b34801561047957600080fd5b506104826110af565b60405161048f919061583a565b60405180910390f35b3480156104a457600080fd5b506104b86104b336600461551a565b611141565b604051901515815260200161048f565b3480156104d457600080fd5b506104de60fb5481565b60405190815260200161048f565b3480156104f857600080fd5b506099546104de565b34801561050d57600080fd5b506105357f000000000000000000000000000000000000000000000000000000000000000081565b6040516001600160a01b03909116815260200161048f565b34801561055957600080fd5b5061056d6105683660046155c6565b611158565b005b34801561057b57600080fd5b506104b861058a3660046154ad565b6114bf565b34801561059b57600080fd5b5060cf5460d0546105dd9161ffff8116916001600160681b03620100008304811692600160781b900416906001600160801b0380821691600160801b90041685565b6040805161ffff90961686526001600160681b03948516602087015293909216928401929092526001600160801b03918216606084015216608082015260a00161048f565b34801561062e57600080fd5b5060cc54610100900460ff1660405160ff909116815260200161048f565b34801561065857600080fd5b5061056d6106673660046155c6565b61156b565b34801561067857600080fd5b5060ce546001600160681b03166104de565b34801561069657600080fd5b506104b86106a536600461551a565b61161c565b3480156106b657600080fd5b5060f9546106c59061ffff1681565b60405161ffff909116815260200161048f565b3480156106e457600080fd5b506104de6106f336600461535a565b611658565b34801561070457600080fd5b5060d0546001600160801b03166104de565b34801561072257600080fd5b506104de60fc5481565b34801561073857600080fd5b5060d354610535906001600160a01b031681565b34801561075857600080fd5b5061056d6107673660046155c6565b6116ab565b34801561077857600080fd5b506105357f000000000000000000000000000000000000000000000000000000000000000081565b3480156107ac57600080fd5b506104de60fd5481565b3480156107c257600080fd5b5061056d6107d136600461559f565b611786565b3480156107e257600080fd5b5061056d611847565b3480156107f757600080fd5b506105357f000000000000000000000000000000000000000000000000000000000000000081565b34801561082b57600080fd5b5061087261083a36600461535a565b60c96020526000908152604090205461ffff8116906201000081046001600160681b031690600160781b90046001600160801b031683565b6040805161ffff90941684526001600160681b0390921660208401526001600160801b03169082015260600161048f565b3480156108af57600080fd5b506104de61038481565b3480156108c557600080fd5b5061056d611b16565b3480156108da57600080fd5b506105357f000000000000000000000000000000000000000000000000000000000000000081565b34801561090e57600080fd5b5061056d611b76565b34801561092357600080fd5b5061056d6109323660046155c6565b611bad565b34801561094357600080fd5b506104de61095236600461535a565b6001600160a01b031660009081526097602052604090205490565b34801561097957600080fd5b5061056d611c74565b34801561098e57600080fd5b5061056d61099d3660046154ed565b611caa565b3480156109ae57600080fd5b506109e46109bd36600461535a565b60cb6020526000908152604090205461ffff8116906201000090046001600160801b031682565b6040805161ffff90931683526001600160801b0390911660208301520161048f565b348015610a1257600080fd5b5061056d611d60565b348015610a2757600080fd5b5061056d610a363660046155c6565b611e18565b348015610a4757600080fd5b506104de60f75481565b348015610a5d57600080fd5b506104de610a6c3660046155c6565b60ca6020526000908152604090205481565b348015610a8a57600080fd5b506104de60d55481565b348015610aa057600080fd5b506105357f000000000000000000000000000000000000000000000000000000000000000081565b348015610ad457600080fd5b5060d2546001600160a01b0316610535565b348015610af257600080fd5b506065546001600160a01b0316610535565b348015610b1057600080fd5b50610482612053565b348015610b2557600080fd5b506104de612062565b348015610b3a57600080fd5b5061056d610b493660046155c6565b61209c565b348015610b5a57600080fd5b5060cc5460cd5460ce54610baa9260ff808216936101008304909116926001600160a01b036201000090930483169282169166ffffffffffffff600160a01b90910416906001600160681b031686565b60408051961515875260ff90951660208701526001600160a01b03938416948601949094529116606084015266ffffffffffffff1660808301526001600160681b031660a082015260c00161048f565b348015610c0657600080fd5b5060d15460d254610c31916001600160a01b039081169190811690600160a01b900463ffffffff1683565b604080516001600160a01b03948516815293909216602084015263ffffffff169082015260600161048f565b348015610c6957600080fd5b5060d254600160a01b900463ffffffff166104de565b348015610c8b57600080fd5b5060d1546001600160a01b0316610535565b348015610ca957600080fd5b506104b8610cb836600461551a565b612196565b348015610cc957600080fd5b5061056d610cd83660046155c6565b61222f565b348015610ce957600080fd5b506104de60d65481565b348015610cff57600080fd5b506104b8610d0e36600461551a565b6122ec565b61056d610d2136600461535a565b6122f9565b348015610d3257600080fd5b5060d454610535906001600160a01b031681565b348015610d5257600080fd5b506105357f000000000000000000000000000000000000000000000000000000000000000081565b348015610d8657600080fd5b506104de6123a5565b348015610d9b57600080fd5b5060f554610535906001600160a01b031681565b348015610dbb57600080fd5b506105357f000000000000000000000000000000000000000000000000000000000000000081565b348015610def57600080fd5b506104de62093a8081565b348015610e0657600080fd5b5061056d612630565b348015610e1b57600080fd5b5061056d610e2a3660046155f6565b612912565b348015610e3b57600080fd5b506104de610e4a36600461535a565b612c08565b348015610e5b57600080fd5b5061056d610e6a3660046155c6565b612c25565b348015610e7b57600080fd5b5061056d610e8a36600461535a565b612ce9565b348015610e9b57600080fd5b506104de60f85481565b348015610eb157600080fd5b506105357f000000000000000000000000000000000000000000000000000000000000000081565b348015610ee557600080fd5b5061056d610ef43660046155c6565b612d78565b348015610f0557600080fd5b506105357f000000000000000000000000000000000000000000000000000000000000000081565b348015610f3957600080fd5b506104de610f48366004615376565b6001600160a01b03918216600090815260986020908152604080832093909416825291909152205490565b348015610f7f57600080fd5b506105357f000000000000000000000000000000000000000000000000000000000000000081565b348015610fb357600080fd5b5061056d610fc23660046153ae565b612de5565b348015610fd357600080fd5b506104de60fa5481565b348015610fe957600080fd5b5061056d610ff836600461535a565b612ff1565b34801561100957600080fd5b5061056d6130e4565b34801561101e57600080fd5b5061056d61102d36600461535a565b613364565b61056d6133fc565b34801561104657600080fd5b5061105a61105536600461535a565b613466565b6040805192835260208301919091520161048f565b34801561107b57600080fd5b5060f654610535906001600160a01b031681565b34801561109b57600080fd5b5061056d6110aa3660046155c6565b613549565b6060609a80546110be90615aad565b80601f01602080910402602001604051908101604052809291908181526020018280546110ea90615aad565b80156111375780601f1061110c57610100808354040283529160200191611137565b820191906000526020600020905b81548152906001019060200180831161111a57829003601f168201915b5050505050905090565b600061114e33848461362a565b5060015b92915050565b600260015414156111845760405162461bcd60e51b815260040161117b906158f1565b60405180910390fd5b600260015533600090815260cb6020526040902080546001600160801b03620100008204169061ffff16816111eb5760405162461bcd60e51b815260206004820152600d60248201526c139bdd081a5b9a5d1a585d1959609a1b604482015260640161117b565b60cf5461ffff1681106112335760405162461bcd60e51b815260206004820152601060248201526f149bdd5b99081b9bdd0818db1bdcd95960821b604482015260640161117b565b33600090815260cb60205260409020805462010000600160901b031916905560d05461126f90600160801b90046001600160801b03168361374f565b60d080546001600160801b03928316600160801b029216919091179055600081815260ca602052604081205460cc546112b291859160ff6101009091041661375b565b604051631d6c315760e01b8152600481018290526001600160a01b037f0000000000000000000000000000000000000000000000000000000000000000811660248301527f0000000000000000000000000000000000000000000000000000000000000000811660448301527f00000000000000000000000000000000000000000000000000000000000000001660648201526084810187905290915060009073__$09b2ed88edfa44a3a64aec022eed7f982f$__90631d6c31579060a40160206040518083038186803b15801561138957600080fd5b505af415801561139d573d6000803e3d6000fd5b505050506040513d601f19601f820116820180604052508101906113c191906155de565b604080518281526020810187905291925033917ff279e6a1f5e320cca91135676d9cb6e44ca8a08c0b88342bcdb1144f6511b568910160405180910390a261140930856137bd565b600081116114495760405162461bcd60e51b815260206004820152600d60248201526c08585b5bdd5b9d11551213dd5d609a1b604482015260640161117b565b604051635c921eb960e01b81523360048201526024810182905273__$09b2ed88edfa44a3a64aec022eed7f982f$__90635c921eb9906044015b60006040518083038186803b15801561149b57600080fd5b505af41580156114af573d6000803e3d6000fd5b5050600180555050505050505050565b60006114cc848484613908565b6001600160a01b0384166000908152609860209081526040808320338452909152902054828110156115515760405162461bcd60e51b815260206004820152602860248201527f45524332303a207472616e7366657220616d6f756e74206578636565647320616044820152676c6c6f77616e636560c01b606482015260840161117b565b61155e853385840361362a565b60019150505b9392505050565b6002600154141561158e5760405162461bcd60e51b815260040161117b906158f1565b6002600155806115ca5760405162461bcd60e51b815260206004820152600760248201526608585b5bdd5b9d60ca1b604482015260640161117b565b6115e06115d882600161374f565b336000613ad8565b6116156001600160a01b037f000000000000000000000000000000000000000000000000000000000000000016333084613d77565b5060018055565b3360008181526098602090815260408083206001600160a01b0387168452909152812054909161114e918590611653908690615928565b61362a565b60cc5460009060ff610100909104168161168e61167460995490565b61167c6123a5565b60d0546001600160801b031685613de2565b90506116a361169c85612c08565b828461375b565b949350505050565b6065546001600160a01b031633146116d55760405162461bcd60e51b815260040161117b906158bc565b6000811161170f5760405162461bcd60e51b81526020600482015260076024820152660216e65774361760cc1b604482015260640161117b565b61171881613e22565b60ce54604080516001600160681b039092168252602082018390527f5f86edbb9d92228a9edc3f0ebc0f001bda1ea345ac7335e0eeef3504b31d1a1c910160405180910390a160ce80546cffffffffffffffffffffffffff19166001600160681b0392909216919091179055565b6065546001600160a01b031633146117b05760405162461bcd60e51b815260040161117b906158bc565b600260015414156117d35760405162461bcd60e51b815260040161117b906158f1565b60026001556001600160801b03811661181d5760405162461bcd60e51b815260206004820152600c60248201526b21737472696b65507269636560a01b604482015260640161117b565b6001600160801b031660fa5560cf5460f9805461ffff191661ffff90921691909117905560018055565b60d4546001600160a01b031633146118715760405162461bcd60e51b815260040161117b9061584d565b600260015414156118945760405162461bcd60e51b815260040161117b906158f1565b600260015560d2546040516358ffbb3d60e01b81526001600160a01b037f000000000000000000000000000000000000000000000000000000000000000081166004830152909116602482015260009073__$c4f279750f4bbb575ac7775e752dc00849$__906358ffbb3d9060440160206040518083038186803b15801561191b57600080fd5b505af415801561192f573d6000803e3d6000fd5b505050506040513d601f19601f8201168201806040525081019061195391906155de565b604051632eca54bf60e21b815260048101829052909150611a0a906001600160a01b037f0000000000000000000000000000000000000000000000000000000000000000169063bb2952fc9060240160206040518083038186803b1580156119ba57600080fd5b505afa1580156119ce573d6000803e3d6000fd5b505050506040513d601f19601f820116820180604052508101906119f291906155de565b60cf546201000090046001600160681b03169061374f565b60cf805462010000600160781b031916620100006001600160681b039390931692909202919091179055604051631989ea7560e21b81526001600160a01b037f0000000000000000000000000000000000000000000000000000000000000000811660048301527f0000000000000000000000000000000000000000000000000000000000000000811660248301527f000000000000000000000000000000000000000000000000000000000000000016604482015273__$09b2ed88edfa44a3a64aec022eed7f982f$__90636627a9d49060640160006040518083038186803b158015611af757600080fd5b505af4158015611b0b573d6000803e3d6000fd5b505060018055505050565b60d4546001600160a01b03163314611b405760405162461bcd60e51b815260040161117b9061584d565b60026001541415611b635760405162461bcd60e51b815260040161117b906158f1565b6002600155611b70613e6c565b60018055565b60026001541415611b995760405162461bcd60e51b815260040161117b906158f1565b6002600181905550611b7060006001614007565b6065546001600160a01b03163314611bd75760405162461bcd60e51b815260040161117b906158bc565b611be5620f42406064615a4b565b8110611c335760405162461bcd60e51b815260206004820152601760248201527f496e76616c696420706572666f726d616e636520666565000000000000000000604482015260640161117b565b60d55460408051918252602082018390527f24867dfb6fcb9970a07be21024956524abe7a1837faa903ff0e99aaa40cf893e910160405180910390a160d555565b6065546001600160a01b03163314611c9e5760405162461bcd60e51b815260040161117b906158bc565b611ca860006141b6565b565b6065546001600160a01b03163314611cd45760405162461bcd60e51b815260040161117b906158bc565b6001600160a01b038216611d195760405162461bcd60e51b815260206004820152600c60248201526b085b995dd0dbdb9d1c9858dd60a21b604482015260640161117b565b8015611d405760f680546001600160a01b0384166001600160a01b03199091161790555050565b60f580546001600160a01b0319166001600160a01b0384161790555b5050565b60d3546040516370a0823160e01b81523060048201527f000000000000000000000000000000000000000000000000000000000000000091611e15916001600160a01b03918216918416906370a082319060240160206040518083038186803b158015611dcc57600080fd5b505afa158015611de0573d6000803e3d6000fd5b505050506040513d601f19601f82011682018060405250810190611e0491906155de565b6001600160a01b0384169190614208565b50565b60026001541415611e3b5760405162461bcd60e51b815260040161117b906158f1565b600260015580611e7a5760405162461bcd60e51b815260206004820152600a602482015269216e756d53686172657360b01b604482015260640161117b565b33600090815260c960205260409020546201000090046001600160681b0316151580611ec4575033600090815260c96020526040902054600160781b90046001600160801b031615155b15611ed557611ed560006001614007565b60cf5433600081815260cb60209081526040918290208054835187815261ffff96871693810184905292959194911685149290917f0c53c82ad07e2d592d88ece3b066777dd60f1118e2a081b380efc4358f0d9e2a910160405180910390a281546201000090046001600160801b031660008215611f5e57611f578287614238565b9050611fc1565b8115611fa05760405162461bcd60e51b81526020600482015260116024820152704578697374696e6720776974686472617760781b604482015260640161117b565b5033600090815260cb60205260409020805461ffff191661ffff8616179055845b611fca81614244565b33600090815260cb6020526040812080546001600160801b03808516620100000262010000600160901b03199092169190911790915560d05461201691600160801b9091041688614238565b905061202181614244565b60d080546001600160801b03808416600160801b029116179055612046333089613908565b5050600180555050505050565b6060609b80546110be90615aad565b600061209761207060995490565b6120786123a5565b60d05460cc546001600160801b0390911690610100900460ff16613de2565b905090565b600260015414156120bf5760405162461bcd60e51b815260040161117b906158f1565b6002600155806120fe5760405162461bcd60e51b815260206004820152600a602482015269216e756d526f756e647360b01b604482015260640161117b565b60cf5461ffff1660005b8281101561218d57600061211c8284615928565b600081815260ca6020526040902054909150156121695760405162461bcd60e51b815260206004820152600b60248201526a125b9a5d1a585b1a5e995960aa1b604482015260640161117b565b600090815260ca60205260409020600190558061218581615ae2565b915050612108565b50506001805550565b3360009081526098602090815260408083206001600160a01b0386168452909152812054828110156122185760405162461bcd60e51b815260206004820152602560248201527f45524332303a2064656372656173656420616c6c6f77616e63652062656c6f77604482015264207a65726f60d81b606482015260840161117b565b612225338585840361362a565b5060019392505050565b6065546001600160a01b031633146122595760405162461bcd60e51b815260040161117b906158bc565b610e108110156122ab5760405162461bcd60e51b815260206004820152601860248201527f496e76616c69642061756374696f6e206475726174696f6e0000000000000000604482015260640161117b565b60fb5460408051918252602082018390527f5acd982e2240ed224a69aa03dab039d3797c108e4b5f288cd7dd6ca181b275f3910160405180910390a160fb55565b600061114e338484613908565b6002600154141561231c5760405162461bcd60e51b815260040161117b906158f1565b6002600155346123575760405162461bcd60e51b81526020600482015260066024820152652176616c756560d01b604482015260640161117b565b6001600160a01b0381166123995760405162461bcd60e51b815260206004820152600960248201526810b1b932b234ba37b960b91b604482015260640161117b565b61161534826001613ad8565b6040516370a0823160e01b815230600482015260009081906001600160a01b037f000000000000000000000000000000000000000000000000000000000000000016906370a082319060240160206040518083038186803b15801561240957600080fd5b505afa15801561241d573d6000803e3d6000fd5b505050506040513d601f19601f8201168201806040525081019061244191906155de565b6040516370a0823160e01b815230600482015290915047906000907f00000000000000000000000000000000000000000000000000000000000000006001600160a01b03169063bb2952fc9082906370a082319060240160206040518083038186803b1580156124b057600080fd5b505afa1580156124c4573d6000803e3d6000fd5b505050506040513d601f19601f820116820180604052508101906124e891906155de565b6040518263ffffffff1660e01b815260040161250691815260200190565b60206040518083038186803b15801561251e57600080fd5b505afa158015612532573d6000803e3d6000fd5b505050506040513d601f19601f8201168201806040525081019061255691906155de565b6040516370a0823160e01b81523060048201529091506000906001600160a01b037f000000000000000000000000000000000000000000000000000000000000000016906370a082319060240160206040518083038186803b1580156125bb57600080fd5b505afa1580156125cf573d6000803e3d6000fd5b505050506040513d601f19601f820116820180604052508101906125f391906155de565b60cf549091506126279082906126219085908290889082908b906201000090046001600160681b0316614238565b90614238565b94505050505090565b60d4546001600160a01b0316331461265a5760405162461bcd60e51b815260040161117b9061584d565b6002600154141561267d5760405162461bcd60e51b815260040161117b906158f1565b600260018190555060008061269360fd5461428e565b60fd81905560405162b0e38960e81b81526004810182905291935091506000906127d8907f00000000000000000000000000000000000000000000000000000000000000006001600160a01b03169063b0e389009060240160206040518083038186803b15801561270357600080fd5b505afa158015612717573d6000803e3d6000fd5b505050506040513d601f19601f8201168201806040525081019061273b91906155de565b6040516370a0823160e01b81523060048201527f00000000000000000000000000000000000000000000000000000000000000006001600160a01b0316906370a082319060240160206040518083038186803b15801561279a57600080fd5b505afa1580156127ae573d6000803e3d6000fd5b505050506040513d601f19601f820116820180604052508101906127d291906155de565b9061374f565b9050336001600160a01b0316836001600160a01b03167f045c558fdce4714c5816d53820d27420f4cd860892df203fe636384d8d19aa018360405161281f91815260200190565b60405180910390a3604051632904c23960e01b81526001600160a01b037f0000000000000000000000000000000000000000000000000000000000000000811660048301527f000000000000000000000000000000000000000000000000000000000000000081166024830152841660448201526064810182905273__$09b2ed88edfa44a3a64aec022eed7f982f$__90632904c2399060840160206040518083038186803b1580156128d157600080fd5b505af41580156128e5573d6000803e3d6000fd5b505050506040513d601f19601f8201168201806040525081019061290991906155de565b5061218d613e6c565b600260015414156129355760405162461bcd60e51b815260040161117b906158f1565b600260015533600090815260c96020526040902060cf5461ffff16836129875760405162461bcd60e51b815260206004820152600760248201526608585b5bdd5b9d60ca1b604482015260640161117b565b815461ffff1681146129cb5760405162461bcd60e51b815260206004820152600d60248201526c125b9d985b1a59081c9bdd5b99609a1b604482015260640161117b565b81546201000090046001600160681b031684811015612a1c5760405162461bcd60e51b815260206004820152600d60248201526c115e18d9595908185b5bdd5b9d609a1b604482015260640161117b565b612a26818661374f565b83546001600160681b0391909116620100000262010000600160781b031990911617835560d054612a60906001600160801b03168661374f565b60d080546001600160801b0319166001600160801b0392909216919091179055604080518681526020810184905233917fab2daf3c146ca6416cbccd2a86ed2ba995e171ef6319df14a38aef01403a9c96910160405180910390a2604051631d6c315760e01b8152600481018690526001600160a01b037f0000000000000000000000000000000000000000000000000000000000000000811660248301527f0000000000000000000000000000000000000000000000000000000000000000811660448301527f00000000000000000000000000000000000000000000000000000000000000001660648201526084810185905260009073__$09b2ed88edfa44a3a64aec022eed7f982f$__90631d6c31579060a40160206040518083038186803b158015612b8f57600080fd5b505af4158015612ba3573d6000803e3d6000fd5b505050506040513d601f19601f82011682018060405250810190612bc791906155de565b604051635c921eb960e01b81523360048201526024810182905290915073__$09b2ed88edfa44a3a64aec022eed7f982f$__90635c921eb990604401611483565b6000806000612c1684613466565b90925090506116a38282614238565b6065546001600160a01b03163314612c4f5760405162461bcd60e51b815260040161117b906158bc565b600081118015612c695750612c66600a6064615a4b565b81105b612ca85760405162461bcd60e51b815260206004820152601060248201526f125b9d985b1a5908191a5cd8dbdd5b9d60821b604482015260640161117b565b60f75460408051918252602082018390527f4cd657fde404967d63a338fb06c5c98751a9df57dfae6dc333a432faf8a5f656910160405180910390a160f755565b6065546001600160a01b03163314612d135760405162461bcd60e51b815260040161117b906158bc565b6001600160a01b038116612d565760405162461bcd60e51b815260206004820152600a60248201526910b732bba5b2b2b832b960b11b604482015260640161117b565b60d480546001600160a01b0319166001600160a01b0392909216919091179055565b60026001541415612d9b5760405162461bcd60e51b815260040161117b906158f1565b600260015580612dda5760405162461bcd60e51b815260206004820152600a602482015269216e756d53686172657360b01b604482015260640161117b565b611615816000614007565b600054610100900460ff1680612dfe575060005460ff16155b612e1a5760405162461bcd60e51b815260040161117b9061586e565b600054610100900460ff16158015612e3c576000805461ffff19166101011790555b612e4c8d8d8d8d8d8d8d8961477b565b6001600160a01b038616612e9b5760405162461bcd60e51b815260206004820152601660248201527510afb7b83a34b7b739a83932b6b4bab6a83934b1b2b960511b604482015260640161117b565b6001600160a01b038516612ee55760405162461bcd60e51b815260206004820152601160248201527010afb9ba3934b5b2a9b2b632b1ba34b7b760791b604482015260640161117b565b60008463ffffffff16118015612f0b5750612f02600a6064615a4b565b8463ffffffff16105b612f4b5760405162461bcd60e51b81526020600482015260116024820152700857dc1c995b5a5d5b511a5cd8dbdd5b9d607a1b604482015260640161117b565b610e10831015612f915760405162461bcd60e51b815260206004820152601160248201527010afb0bab1ba34b7b7223ab930ba34b7b760791b604482015260640161117b565b60f580546001600160a01b038089166001600160a01b03199283161790925560f680549288169290911691909117905563ffffffff841660f75560fb8390558015612fe2576000805461ff00191690555b50505050505050505050505050565b6065546001600160a01b0316331461301b5760405162461bcd60e51b815260040161117b906158bc565b6001600160a01b0381166130645760405162461bcd60e51b815260206004820152601060248201526f085b995dd19959549958da5c1a595b9d60821b604482015260640161117b565b60d3546001600160a01b03828116911614156130c25760405162461bcd60e51b815260206004820152601860248201527f4d757374206265206e657720666565526563697069656e740000000000000000604482015260640161117b565b60d380546001600160a01b0319166001600160a01b0392909216919091179055565b600260015414156131075760405162461bcd60e51b815260040161117b906158f1565b600260015560d2546040805160c0810182526001600160a01b037f0000000000000000000000000000000000000000000000000000000000000000811682527f000000000000000000000000000000000000000000000000000000000000000081166020830152928316818301819052610384606083015260f95461ffff16608083015260fa5460a083015260f65460f55460f75494516303a20e3d60e01b81529295939460009485948594859473__$09b2ed88edfa44a3a64aec022eed7f982f$__946303a20e3d9461320e94938116939216918b9060cc9060cf907f0000000000000000000000000000000000000000000000000000000000000000906004016157a2565b60806040518083038186803b15801561322657600080fd5b505af415801561323a573d6000803e3d6000fd5b505050506040513d601f19601f8201168201806040525081019061325e9190615545565b93509350935093507fa217999b1c125c2a996f712c5f26a28addad7167bd8a67d5bd5b2a751148abb082826040516132a0929190918252602082015260400190565b60405180910390a16132b183613e22565b6001600160681b03831660f85560d180546001600160a01b0319166001600160a01b03861617905560006132e742610384614238565b905063ffffffff81111561333d5760405162461bcd60e51b815260206004820152601860248201527f4f766572666c6f77206e6578744f7074696f6e52656164790000000000000000604482015260640161117b565b60d2805463ffffffff60a01b1916600160a01b63ffffffff84160217905561204687614943565b6065546001600160a01b0316331461338e5760405162461bcd60e51b815260040161117b906158bc565b6001600160a01b0381166133f35760405162461bcd60e51b815260206004820152602660248201527f4f776e61626c653a206e6577206f776e657220697320746865207a65726f206160448201526564647265737360d01b606482015260840161117b565b611e15816141b6565b6002600154141561341f5760405162461bcd60e51b815260040161117b906158f1565b60026001553461345a5760405162461bcd60e51b81526020600482015260066024820152652176616c756560d01b604482015260640161117b565b611b7034336001613ad8565b6001600160a01b038116600090815260c9602090815260408083208151606081018352905461ffff81168083526201000082046001600160681b031694830194909452600160781b90046001600160801b0316918101919091528291600111156134e8575050506001600160a01b031660009081526097602052604081205491565b60cf54815161ffff908116600090815260ca602052604081205460cc54919361351e93869391169190610100900460ff16614ab5565b905061353f856001600160a01b031660009081526097602052604090205490565b9590945092505050565b6065546001600160a01b031633146135735760405162461bcd60e51b815260040161117b906158bc565b613581620f42406064615a4b565b81106135c85760405162461bcd60e51b8152602060048201526016602482015275496e76616c6964206d616e6167656d656e742066656560501b604482015260640161117b565b60006135e563031ba3096135df84620f4240614b26565b90614b32565b60d65460408051918252602082018590529192507f4e874b007ab14f7e263baefd44951834c8266f4f224d1092e49e9c254354cc54910160405180910390a160d65550565b6001600160a01b03831661368c5760405162461bcd60e51b8152602060048201526024808201527f45524332303a20617070726f76652066726f6d20746865207a65726f206164646044820152637265737360e01b606482015260840161117b565b6001600160a01b0382166136ed5760405162461bcd60e51b815260206004820152602260248201527f45524332303a20617070726f766520746f20746865207a65726f206164647265604482015261737360f01b606482015260840161117b565b6001600160a01b0383811660008181526098602090815260408083209487168084529482529182902085905590518481527f8c5be1e5ebec7d5bd14f71427d1e84f3dd0314c0f7b2291e5b200ac8c7c3b92591015b60405180910390a3505050565b60006115648284615a6a565b6000600183116137a55760405162461bcd60e51b8152602060048201526015602482015274496e76616c6964206173736574506572536861726560581b604482015260640161117b565b6116a36137b383600a6159a3565b6135df8686614b26565b6001600160a01b03821661381d5760405162461bcd60e51b815260206004820152602160248201527f45524332303a206275726e2066726f6d20746865207a65726f206164647265736044820152607360f81b606482015260840161117b565b6001600160a01b038216600090815260976020526040902054818110156138915760405162461bcd60e51b815260206004820152602260248201527f45524332303a206275726e20616d6f756e7420657863656564732062616c616e604482015261636560f01b606482015260840161117b565b6001600160a01b03831660009081526097602052604081208383039055609980548492906138c0908490615a6a565b90915550506040518281526000906001600160a01b038516907fddf252ad1be2c89b69c2b068fc378daa952ba7f163c4a11628f55a4df523b3ef90602001613742565b505050565b6001600160a01b03831661396c5760405162461bcd60e51b815260206004820152602560248201527f45524332303a207472616e736665722066726f6d20746865207a65726f206164604482015264647265737360d81b606482015260840161117b565b6001600160a01b0382166139ce5760405162461bcd60e51b815260206004820152602360248201527f45524332303a207472616e7366657220746f20746865207a65726f206164647260448201526265737360e81b606482015260840161117b565b6001600160a01b03831660009081526097602052604090205481811015613a465760405162461bcd60e51b815260206004820152602660248201527f45524332303a207472616e7366657220616d6f756e7420657863656564732062604482015265616c616e636560d01b606482015260840161117b565b6001600160a01b03808516600090815260976020526040808220858503905591851681529081208054849290613a7d908490615928565b92505081905550826001600160a01b0316846001600160a01b03167fddf252ad1be2c89b69c2b068fc378daa952ba7f163c4a11628f55a4df523b3ef84604051613ac991815260200190565b60405180910390a35b50505050565b60cf5461ffff16600082613af757613af2856126216123a5565b613aff565b613aff6123a5565b60ce549091506001600160681b0316811115613b4a5760405162461bcd60e51b815260206004820152600a6024820152690457863656564206361760b41b604482015260640161117b565b60cd54600160a01b900466ffffffffffffff16811015613ba35760405162461bcd60e51b8152602060048201526014602482015273496e73756666696369656e742062616c616e636560601b604482015260640161117b565b60408051868152602081018490526001600160a01b038616917f90890809c654f11d6e72a28fa60149770a0d11ec6c92319d6ceb2bb0a4ea1a15910160405180910390a26001600160a01b038416600090815260c9602090815260408083208151606081018352905461ffff81168083526201000082046001600160681b031683860152600160781b9091046001600160801b031682840152845260ca90925282205460cc54919291613c62918491879190610100900460ff16614ab5565b8251909150879061ffff16851415613c93576020830151600090613c8f906001600160681b03168a614238565b9150505b613c9c81613e22565b6040805160608101825261ffff80881682526001600160681b0380851660208085019182526001600160801b038089168688019081526001600160a01b038f16600090815260c990935296822095518654935197518216600160781b02600160781b600160f81b03199890951662010000026effffffffffffffffffffffffffffff1990941695169490941791909117949094161790915560d054613d4291168a614238565b9050613d4d81614244565b60d080546001600160801b0319166001600160801b03929092169190911790555050505050505050565b6040516001600160a01b0380851660248301528316604482015260648101829052613ad29085906323b872dd60e01b906084015b60408051601f198184030181529190526020810180516001600160e01b03166001600160e01b031990931692909217909152614b3e565b600080613df083600a6159a3565b905060008611613e005780613e18565b613e18866135df613e11888861374f565b8490614b26565b9695505050505050565b6001600160681b03811115611e155760405162461bcd60e51b815260206004820152601060248201526f13dd995c999b1bddc81d5a5b9d0c4c0d60821b604482015260640161117b565b6040805160c081018252600080825260208201819052918101829052606081018290526080810182905260a081019190915260f85480613ee65760405162461bcd60e51b81526020600482015260156024820152742163757272656e744f746f6b656e5072656d69756d60581b604482015260640161117b565b60d2546001600160a01b0390811683527f000000000000000000000000000000000000000000000000000000000000000081166020840190815260cc546201000081048316604080870191825261010090920460ff16606087019081526080870186815260fb5460a089019081529351633baf17fd60e21b8152885187166004820152945186166024860152915190941660448401529251606483015291516084820152905160a482015273__$c4f279750f4bbb575ac7775e752dc00849$__9063eebc5ff49060c40160206040518083038186803b158015613fc857600080fd5b505af4158015613fdc573d6000803e3d6000fd5b505050506040513d601f19601f8201168201806040525081019061400091906155de565b60fc555050565b33600090815260c9602090815260408083208151606081018352905461ffff8082168084526201000083046001600160681b031684870152600160781b9092046001600160801b03168385015260cf5491865260ca9094529184205460cc54919492909316926140829185918591610100900460ff16614ab5565b90508361408f5784614091565b805b94508461409f575050505050565b808511156140e35760405162461bcd60e51b81526020600482015260116024820152704578636565647320617661696c61626c6560781b604482015260640161117b565b825161ffff168211156141105733600090815260c960205260409020805462010000600160781b03191690555b61411985614244565b614123818661374f565b33600081815260c960205260409081902080546001600160801b0394909416600160781b02600160781b600160f81b0319909416939093179092558451915190917fe5b754fb1abb7f01b499791d0b820ae3b6af3424ac1c59768edb53f4ec31a9299161419c9189825261ffff16602082015260400190565b60405180910390a26141af303387613908565b5050505050565b606580546001600160a01b038381166001600160a01b0319831681179093556040519116919082907f8be0079c531659141344cd1fd0a4f28419497f9722a3daafe3b4186f6b6457e090600090a35050565b6040516001600160a01b03831660248201526044810182905261390390849063a9059cbb60e01b90606401613dab565b60006115648284615928565b6001600160801b03811115611e155760405162461bcd60e51b815260206004820152601060248201526f09eeccae4ccd8deee40ead2dce86264760831b604482015260640161117b565b60d2546000908190600160a01b900463ffffffff164210156142db5760405162461bcd60e51b815260206004820152600660248201526521726561647960d01b604482015260640161117b565b60d1546001600160a01b0316806143225760405162461bcd60e51b815260206004820152600b60248201526a10b732bc3a27b83a34b7b760a91b604482015260640161117b565b60008060008060008073__$c4f279750f4bbb575ac7775e752dc00849$__63633c142660cf6040518060c0016040528060cc60000160019054906101000a900460ff1660ff1681526020016143756123a5565b815260200161438360995490565b81526020018e815260200160d554815260200160d6548152506040518363ffffffff1660e01b81526004016143ff929190600060e08201905083825282516020830152602083015160408301526040830151606083015260608301516080830152608083015160a083015260a083015160c08301529392505050565b60c06040518083038186803b15801561441757600080fd5b505af415801561442b573d6000803e3d6000fd5b505050506040513d601f19601f8201168201806040525081019061444f9190615617565b9550955095509550955095508660d160010160006101000a8154816001600160a01b0302191690836001600160a01b03160217905550600060d160000160006101000a8154816001600160a01b0302191690836001600160a01b03160217905550600060d360009054906101000a90046001600160a01b0316905060007f00000000000000000000000000000000000000000000000000000000000000009050600060cf60000160009054906101000a900461ffff1661ffff1690508660ca60008381526020019081526020016000208190555073__$09b2ed88edfa44a3a64aec022eed7f982f$__636627a9d47f0000000000000000000000000000000000000000000000000000000000000000847f00000000000000000000000000000000000000000000000000000000000000006040518463ffffffff1660e01b81526004016145bc939291906001600160a01b0393841681529183166020830152909116604082015260600190565b60006040518083038186803b1580156145d457600080fd5b505af41580156145e8573d6000803e3d6000fd5b505060408051888152602081018890529081018490526001600160a01b03861692507f0a242f7ecaf711036ca770774ceffae28e60ef042ac113ddd187f2631db0c006915060600160405180910390a260d080546001600160801b0319169055614653816001615928565b60cf805461ffff191661ffff9290921691909117905561467289613e22565b60cf805462010000600160781b031916620100006001600160681b038c160217905561469e3087614c10565b8315614768576040516305ffc87f60e31b81526001600160a01b0380841660048301527f000000000000000000000000000000000000000000000000000000000000000081166024830152841660448201526064810185905273__$09b2ed88edfa44a3a64aec022eed7f982f$__90632ffe43f89060840160206040518083038186803b15801561472e57600080fd5b505af4158015614742573d6000803e3d6000fd5b505050506040513d601f19601f8201168201806040525081019061476691906155de565b505b50979b959a509498505050505050505050565b600054610100900460ff1680614794575060005460ff16155b6147b05760405162461bcd60e51b815260040161117b9061586e565b600054610100900460ff161580156147d2576000805461ffff19166101011790555b60405163c72733f760e01b815273__$c4f279750f4bbb575ac7775e752dc00849$__9063c72733f790614817908c908c908c908b908d908c908c908c906004016156a8565b60006040518083038186803b15801561482f57600080fd5b505af4158015614843573d6000803e3d6000fd5b5050505061484f614cef565b6148598484614d62565b614861614de1565b61486a89613364565b60d480546001600160a01b03808b166001600160a01b03199283161790925560d38054928a169290911691909117905560d58590556148b463031ba3096135df88620f4240614b26565b60d6558160cc6148c48282615b50565b90505060006148d16123a5565b90506148dc81613e22565b60cf805461ffff196001600160681b03909316600160781b02929092167fffffffff00000000000000000000000000ffffffffffffffffffffffffff00009092169190911760011790558015614938576000805461ff00191690555b505050505050505050565b60cf546201000090046001600160681b03166001600160a01b0382161561498f5760cf80546cffffffffffffffffffffffffff60781b1916600160781b6001600160681b038416021790555b60cf805462010000600160781b031916905560d280546001600160a01b03191690556001600160a01b03821615611d5c57604051636c6fe87f60e11b81526001600160a01b037f000000000000000000000000000000000000000000000000000000000000000016600482015260009073__$c4f279750f4bbb575ac7775e752dc00849$__9063d8dfd0fe9060240160206040518083038186803b158015614a3657600080fd5b505af4158015614a4a573d6000803e3d6000fd5b505050506040513d601f19601f82011682018060405250810190614a6e91906155de565b9050336001600160a01b0316836001600160a01b03167f7e830f7c1771deb1bdb35c4a7e6051bbac32b376f7f4e4976b8618b0b11997f78360405161374291815260200190565b835160009061ffff1615801590614ad05750845161ffff1684115b15614b12576000614aef86602001516001600160681b03168585614e48565b6040870151909150614b0a906001600160801b031682614238565b9150506116a3565b50505050604001516001600160801b031690565b60006115648284615a4b565b60006115648284615940565b6000614b93826040518060400160405280602081526020017f5361666545524332303a206c6f772d6c6576656c2063616c6c206661696c6564815250856001600160a01b0316614eab9092919063ffffffff16565b8051909150156139035780806020019051810190614bb19190615583565b6139035760405162461bcd60e51b815260206004820152602a60248201527f5361666545524332303a204552433230206f7065726174696f6e20646964206e6044820152691bdd081cdd58d8d9595960b21b606482015260840161117b565b6001600160a01b038216614c665760405162461bcd60e51b815260206004820152601f60248201527f45524332303a206d696e7420746f20746865207a65726f206164647265737300604482015260640161117b565b8060996000828254614c789190615928565b90915550506001600160a01b03821660009081526097602052604081208054839290614ca5908490615928565b90915550506040518181526001600160a01b038316906000907fddf252ad1be2c89b69c2b068fc378daa952ba7f163c4a11628f55a4df523b3ef9060200160405180910390a35050565b600054610100900460ff1680614d08575060005460ff16155b614d245760405162461bcd60e51b815260040161117b9061586e565b600054610100900460ff16158015614d46576000805461ffff19166101011790555b614d4e614eba565b8015611e15576000805461ff001916905550565b600054610100900460ff1680614d7b575060005460ff16155b614d975760405162461bcd60e51b815260040161117b9061586e565b600054610100900460ff16158015614db9576000805461ffff19166101011790555b614dc1614f29565b614dcb8383614f93565b8015613903576000805461ff0019169055505050565b600054610100900460ff1680614dfa575060005460ff16155b614e165760405162461bcd60e51b815260040161117b9061586e565b600054610100900460ff16158015614e38576000805461ffff19166101011790555b614e40614f29565b614d4e615028565b600060018311614e925760405162461bcd60e51b8152602060048201526015602482015274496e76616c6964206173736574506572536861726560581b604482015260640161117b565b6116a3836135df614ea485600a6159a3565b8790614b26565b60606116a38484600085615088565b600054610100900460ff1680614ed3575060005460ff16155b614eef5760405162461bcd60e51b815260040161117b9061586e565b600054610100900460ff16158015614f11576000805461ffff19166101011790555b600180558015611e15576000805461ff001916905550565b600054610100900460ff1680614f42575060005460ff16155b614f5e5760405162461bcd60e51b815260040161117b9061586e565b600054610100900460ff16158015614d4e576000805461ffff19166101011790558015611e15576000805461ff001916905550565b600054610100900460ff1680614fac575060005460ff16155b614fc85760405162461bcd60e51b815260040161117b9061586e565b600054610100900460ff16158015614fea576000805461ffff19166101011790555b8251614ffd90609a9060208601906151e9565b50815161501190609b9060208501906151e9565b508015613903576000805461ff0019169055505050565b600054610100900460ff1680615041575060005460ff16155b61505d5760405162461bcd60e51b815260040161117b9061586e565b600054610100900460ff1615801561507f576000805461ffff19166101011790555b614d4e336141b6565b6060824710156150e95760405162461bcd60e51b815260206004820152602660248201527f416464726573733a20696e73756666696369656e742062616c616e636520666f6044820152651c8818d85b1b60d21b606482015260840161117b565b843b6151375760405162461bcd60e51b815260206004820152601d60248201527f416464726573733a2063616c6c20746f206e6f6e2d636f6e7472616374000000604482015260640161117b565b600080866001600160a01b03168587604051615153919061568c565b60006040518083038185875af1925050503d8060008114615190576040519150601f19603f3d011682016040523d82523d6000602084013e615195565b606091505b50915091506151a58282866151b0565b979650505050505050565b606083156151bf575081611564565b8251156151cf5782518084602001fd5b8160405162461bcd60e51b815260040161117b919061583a565b8280546151f590615aad565b90600052602060002090601f016020900481019282615217576000855561525d565b82601f1061523057805160ff191683800117855561525d565b8280016001018555821561525d579182015b8281111561525d578251825591602001919060010190615242565b5061526992915061526d565b5090565b5b80821115615269576000815560010161526e565b803561528d81615c61565b919050565b600082601f8301126152a2578081fd5b813567ffffffffffffffff808211156152bd576152bd615b13565b604051601f8301601f19908116603f011681019082821181831017156152e5576152e5615b13565b816040528381528660208588010111156152fd578485fd5b8360208701602083013792830160200193909352509392505050565b600060c0828403121561532a578081fd5b50919050565b803561528d81615c84565b803563ffffffff8116811461528d57600080fd5b803561528d81615c99565b60006020828403121561536b578081fd5b813561156481615c61565b60008060408385031215615388578081fd5b823561539381615c61565b915060208301356153a381615c61565b809150509250929050565b6000806000806000806000806000806000806102208d8f0312156153d0578788fd5b6153d98d615282565b9b506153e760208e01615282565b9a506153f560408e01615282565b995060608d0135985060808d0135975067ffffffffffffffff60a08e0135111561541d578687fd5b61542d8e60a08f01358f01615292565b965067ffffffffffffffff60c08e01351115615447578586fd5b6154578e60c08f01358f01615292565b955061546560e08e01615282565b94506154746101008e01615282565b93506154836101208e0161533b565b92506101408d0135915061549b8e6101608f01615319565b90509295989b509295989b509295989b565b6000806000606084860312156154c1578283fd5b83356154cc81615c61565b925060208401356154dc81615c61565b929592945050506040919091013590565b600080604083850312156154ff578182fd5b823561550a81615c61565b915060208301356153a381615c76565b6000806040838503121561552c578182fd5b823561553781615c61565b946020939093013593505050565b6000806000806080858703121561555a578384fd5b845161556581615c61565b60208601516040870151606090970151919890975090945092505050565b600060208284031215615594578081fd5b815161156481615c76565b6000602082840312156155b0578081fd5b81356001600160801b0381168114611564578182fd5b6000602082840312156155d7578081fd5b5035919050565b6000602082840312156155ef578081fd5b5051919050565b60008060408385031215615608578182fd5b50508035926020909101359150565b60008060008060008060c0878903121561562f578384fd5b865195506020870151945060408701519350606087015192506080870151915060a087015190509295509295509295565b60008151808452615678816020860160208601615a81565b601f01601f19169290920160200192915050565b6000825161569e818460208701615a81565b9190910192915050565b60006101a060018060a01b03808c168452808b166020850152808a1660408501528860608501528760808501528160a08501526156e782850188615660565b915083820360c08501526156fb8287615660565b92508435915061570a82615c76565b90151560e084015260208401359061572182615cae565b60ff82166101008501526040850135915061573b82615c61565b1661012083015261574e60608401615282565b6001600160a01b03166101408301526157696080840161534f565b66ffffffffffffff1661016083015261578460a08401615330565b6001600160681b038116610180840152509998505050505050505050565b60006101808201905060018060a01b03808a16835280891660208401528760408401528087511660608401528060208801511660808401528060408801511660a084015250606086015160c083015261ffff60808701511660e083015260a0860151610100830152846101208301528361014083015261582e6101608301846001600160a01b03169052565b98975050505050505050565b6020815260006115646020830184615660565b60208082526007908201526610b5b2b2b832b960c91b604082015260600190565b6020808252602e908201527f496e697469616c697a61626c653a20636f6e747261637420697320616c72656160408201526d191e481a5b9a5d1a585b1a5e995960921b606082015260800190565b6020808252818101527f4f776e61626c653a2063616c6c6572206973206e6f7420746865206f776e6572604082015260600190565b6020808252601f908201527f5265656e7472616e637947756172643a207265656e7472616e742063616c6c00604082015260600190565b6000821982111561593b5761593b615afd565b500190565b60008261595b57634e487b7160e01b81526012600452602481fd5b500490565b600181815b8085111561599b57816000190482111561598157615981615afd565b8085161561598e57918102915b93841c9390800290615965565b509250929050565b600061156483836000826159b957506001611152565b816159c657506000611152565b81600181146159dc57600281146159e657615a02565b6001915050611152565b60ff8411156159f7576159f7615afd565b50506001821b611152565b5060208310610133831016604e8410600b8410161715615a25575081810a611152565b615a2f8383615960565b8060001904821115615a4357615a43615afd565b029392505050565b6000816000190483118215151615615a6557615a65615afd565b500290565b600082821015615a7c57615a7c615afd565b500390565b60005b83811015615a9c578181015183820152602001615a84565b83811115613ad25750506000910152565b600181811c90821680615ac157607f821691505b6020821081141561532a57634e487b7160e01b600052602260045260246000fd5b6000600019821415615af657615af6615afd565b5060010190565b634e487b7160e01b600052601160045260246000fd5b634e487b7160e01b600052604160045260246000fd5b6000813561115281615c61565b6000813561115281615c84565b6000813561115281615c99565b8135615b5b81615c76565b815460ff19811691151560ff1691821783556020840135615b7b81615cae565b61ff008160081b169050808361ffff198416171784556040850135615b9f81615c61565b6001600160b01b0319929092169092179190911760109190911b62010000600160b01b031617815560018101615bf7615bda60608501615b29565b82546001600160a01b0319166001600160a01b0391909116178255565b615c30615c0660808501615b43565b82805466ffffffffffffff60a01b191660a09290921b66ffffffffffffff60a01b16919091179055565b50611d5c615c4060a08401615b36565b600283016001600160681b0382166001600160681b03198254161781555050565b6001600160a01b0381168114611e1557600080fd5b8015158114611e1557600080fd5b6001600160681b0381168114611e1557600080fd5b66ffffffffffffff81168114611e1557600080fd5b60ff81168114611e1557600080fdfea264697066735822122052def5b4ac5f258a9f340101925a5b4d3035534a575ba62426ea495455fb6df964736f6c63430008040033",
  "libraries": {
    "VaultLifecycle": "0x35a3e0F233587F6E515bcE363E0a5E42cD69EcC0",
    "VaultLifecycleSTETH": "0x5CbB58FBd5E53A8db156C1261403b14dc618F3db"
  },
  "devdoc": {
    "kind": "dev",
    "methods": {
      "accountVaultBalance(address)": {
        "params": {
          "account": "is the address to lookup balance for"
        },
        "returns": {
          "_0": "the amount of `asset` custodied by the vault for the user"
        }
      },
      "allowance(address,address)": {
        "details": "See {IERC20-allowance}."
      },
      "approve(address,uint256)": {
        "details": "See {IERC20-approve}. Requirements: - `spender` cannot be the zero address."
      },
      "balanceOf(address)": {
        "details": "See {IERC20-balanceOf}."
      },
      "completeWithdraw(uint256)": {
        "params": {
          "minETHOut": "is the min amount of `asset` to recieve for the swapped amount of steth in crv pool"
        }
      },
      "constructor": {
        "params": {
          "_crvPool": "is the steth/eth crv stables pool",
          "_gammaController": "is the contract address for opyn actions",
          "_gnosisEasyAuction": "is the contract address that facilitates gnosis auctions",
          "_ldo": "is the LDO contract",
          "_marginPool": "is the contract address for providing collateral to opyn",
          "_oTokenFactory": "is the contract address for minting new opyn option types (strikes, asset, expiry)",
          "_usdc": "is the USDC contract",
          "_weth": "is the Wrapped Ether contract",
          "_wsteth": "is the LDO contract"
        }
      },
      "decreaseAllowance(address,uint256)": {
        "details": "Atomically decreases the allowance granted to `spender` by the caller. This is an alternative to {approve} that can be used as a mitigation for problems described in {IERC20-approve}. Emits an {Approval} event indicating the updated allowance. Requirements: - `spender` cannot be the zero address. - `spender` must have allowance for the caller of at least `subtractedValue`."
      },
      "depositFor(address)": {
        "params": {
          "creditor": "is the address that can claim/withdraw deposited amount"
        }
      },
      "depositYieldToken(uint256)": {
        "params": {
          "amount": "is the amount of `collateralAsset` to deposit"
        }
      },
      "increaseAllowance(address,uint256)": {
        "details": "Atomically increases the allowance granted to `spender` by the caller. This is an alternative to {approve} that can be used as a mitigation for problems described in {IERC20-approve}. Emits an {Approval} event indicating the updated allowance. Requirements: - `spender` cannot be the zero address."
      },
      "initialize(address,address,address,uint256,uint256,string,string,address,address,uint32,uint256,(bool,uint8,address,address,uint56,uint104))": {
        "params": {
          "_auctionDuration": "is the duration of the gnosis auction",
          "_feeRecipient": "is the address to recieve vault performance and management fees",
          "_keeper": "is the keeper of the vault with medium permissions (weekly actions)",
          "_managementFee": "is the management fee pct.",
          "_optionsPremiumPricer": "is the address of the contract with the black-scholes premium calculation logic",
          "_owner": "is the owner of the vault with critical permissions",
          "_performanceFee": "is the perfomance fee pct.",
          "_premiumDiscount": "is the vault's discount applied to the premium",
          "_strikeSelection": "is the address of the contract with strike selection logic",
          "_tokenName": "is the name of the token",
          "_tokenSymbol": "is the symbol of the token",
          "_vaultParams": "is the struct with vault general data"
        }
      },
      "initiateWithdraw(uint256)": {
        "params": {
          "numShares": "is the number of shares to withdraw"
        }
      },
      "name()": {
        "details": "Returns the name of the token."
      },
      "owner()": {
        "details": "Returns the address of the current owner."
      },
      "redeem(uint256)": {
        "params": {
          "numShares": "is the number of shares to redeem"
        }
      },
      "renounceOwnership()": {
        "details": "Leaves the contract without owner. It will not be possible to call `onlyOwner` functions anymore. Can only be called by the current owner. NOTE: Renouncing ownership will leave the contract without an owner, thereby removing any functionality that is only available to the owner."
      },
      "setAuctionDuration(uint256)": {
        "params": {
          "newAuctionDuration": "is the auction duration"
        }
      },
      "setCap(uint256)": {
        "params": {
          "newCap": "is the new cap for deposits"
        }
      },
      "setFeeRecipient(address)": {
        "params": {
          "newFeeRecipient": "is the address of the new fee recipient"
        }
      },
      "setManagementFee(uint256)": {
        "params": {
          "newManagementFee": "is the management fee (6 decimals). ex: 2 * 10 ** 6 = 2%"
        }
      },
      "setNewKeeper(address)": {
        "params": {
          "newKeeper": "is the address of the new keeper"
        }
      },
      "setPerformanceFee(uint256)": {
        "params": {
          "newPerformanceFee": "is the performance fee (6 decimals). ex: 20 * 10 ** 6 = 20%"
        }
      },
      "setPremiumDiscount(uint256)": {
        "params": {
          "newPremiumDiscount": "is the premium discount"
        }
      },
      "setStrikePrice(uint128)": {
        "params": {
          "strikePrice": "is the strike price of the new oTokens (decimals = 8)"
        }
      },
      "setStrikeSelectionOrPricer(address,bool)": {
        "params": {
          "isStrikeSelection": "is whether we are setting the strike selection contract",
          "newContract": "is the address of the new strike selection or options premium pricer contract"
        }
      },
      "shareBalances(address)": {
        "params": {
          "account": "is the account to lookup share balance for"
        },
        "returns": {
          "heldByAccount": "is the shares held by account",
          "heldByVault": "is the shares held on the vault (unredeemedShares)"
        }
      },
      "shares(address)": {
        "params": {
          "account": "is the account to lookup share balance for"
        },
        "returns": {
          "_0": "the share balance"
        }
      },
      "symbol()": {
        "details": "Returns the symbol of the token, usually a shorter version of the name."
      },
      "totalBalance()": {
        "returns": {
          "_0": "total balance of the vault, including the amounts locked in third party protocols"
        }
      },
      "totalSupply()": {
        "details": "See {IERC20-totalSupply}."
      },
      "transfer(address,uint256)": {
        "details": "See {IERC20-transfer}. Requirements: - `recipient` cannot be the zero address. - the caller must have a balance of at least `amount`."
      },
      "transferFrom(address,address,uint256)": {
        "details": "See {IERC20-transferFrom}. Emits an {Approval} event indicating the updated allowance. This is not required by the EIP. See the note at the beginning of {ERC20}. Requirements: - `sender` and `recipient` cannot be the zero address. - `sender` must have a balance of at least `amount`. - the caller must have allowance for ``sender``'s tokens of at least `amount`."
      },
      "transferOwnership(address)": {
        "details": "Transfers ownership of the contract to a new account (`newOwner`). Can only be called by the current owner."
      },
      "withdrawInstantly(uint256,uint256)": {
        "params": {
          "amount": "is the amount to withdraw in `asset`",
          "minETHOut": "is the min amount of `asset` to recieve for the swapped amount of steth in crv pool"
        }
      }
    },
    "version": 1
  },
  "userdoc": {
    "kind": "user",
    "methods": {
      "DELAY()": {
        "notice": "15 minute timelock between commitAndClose and rollToNexOption."
      },
      "LDO()": {
        "notice": "Lido DAO token 0x5a98fcbea516cf06857215779fd812ca3bef1b32"
      },
      "OTOKEN_FACTORY()": {
        "notice": "is the factory contract used to spawn otokens. Used to lookup otokens."
      },
      "PERIOD()": {
        "notice": "7 day period between each options sale."
      },
      "STETH()": {
        "notice": "STETH contract address"
      },
      "USDC()": {
        "notice": "USDC 0xA0b86991c6218b36c1d19D4a2e9Eb0cE3606eB48"
      },
      "WETH()": {
        "notice": "WETH9 0xC02aaA39b223FE8D0A0e5C4F27eAD9083C756Cc2"
      },
      "accountVaultBalance(address)": {
        "notice": "Returns the asset balance held on the vault for the account"
      },
      "burnRemainingOTokens()": {
        "notice": "Burn the remaining oTokens left over from gnosis auction."
      },
      "collateralToken()": {
        "notice": "wstETH vault contract"
      },
      "commitAndClose()": {
        "notice": "Sets the next option the vault will be shorting, and closes the existing short.         This allows all the users to withdraw if the next option is malicious."
      },
      "completeWithdraw(uint256)": {
        "notice": "Completes a scheduled withdrawal from a past round. Uses finalized pps for the round"
      },
      "constructor": {
        "notice": "Initializes the contract with immutable variables"
      },
      "decimals()": {
        "notice": "Returns the token decimals"
      },
      "depositETH()": {
        "notice": "Deposits ETH into the contract and mint vault shares."
      },
      "depositFor(address)": {
        "notice": "Deposits the `asset` from msg.sender added to `creditor`'s deposit.Used for vault -> vault deposits on the user's behalf"
      },
      "depositReceipts(address)": {
        "notice": "Stores the user's pending deposit for the round"
      },
      "depositYieldToken(uint256)": {
        "notice": "Deposits the `collateralAsset` into the contract and mint vault shares."
      },
      "feeRecipient()": {
        "notice": "Fee recipient for the performance and management fees"
      },
      "initialize(address,address,address,uint256,uint256,string,string,address,address,uint32,uint256,(bool,uint8,address,address,uint56,uint104))": {
        "notice": "Initializes the OptionVault contract with storage variables."
      },
      "initiateWithdraw(uint256)": {
        "notice": "Initiates a withdrawal that can be processed once the round completes"
      },
      "keeper()": {
        "notice": "role in charge of weekly vault operations such as rollToNextOption and burnRemainingOTokens"
      },
      "managementFee()": {
        "notice": "Management fee charged on entire AUM in rollToNextOption. Only charged when there is no loss."
      },
      "maxRedeem()": {
        "notice": "Redeems the entire unredeemedShares balance that is owed to the account"
      },
      "optionState()": {
        "notice": "Vault's state of the options sold and the timelocked option"
      },
      "performanceFee()": {
        "notice": "Performance fee charged on premiums earned in rollToNextOption. Only charged when there is no loss."
      },
      "pricePerShare()": {
        "notice": "The price of a unit of share denominated in the `asset`"
      },
      "redeem(uint256)": {
        "notice": "Redeems shares that are owed to the account"
      },
      "rollToNextOption()": {
        "notice": "Rolls the vault's funds into a new short position."
      },
      "roundPricePerShare(uint256)": {
        "notice": "On every round's close, the pricePerShare value of an rTHETA token is stored This is used to determine the number of shares to be returned to a user with their DepositReceipt.depositAmount"
      },
      "setAuctionDuration(uint256)": {
        "notice": "Sets the new auction duration"
      },
      "setCap(uint256)": {
        "notice": "Sets a new cap for deposits"
      },
      "setFeeRecipient(address)": {
        "notice": "Sets the new fee recipient"
      },
      "setManagementFee(uint256)": {
        "notice": "Sets the management fee for the vault"
      },
      "setNewKeeper(address)": {
        "notice": "Sets the new keeper"
      },
      "setPerformanceFee(uint256)": {
        "notice": "Sets the performance fee for the vault"
      },
      "setPremiumDiscount(uint256)": {
        "notice": "Sets the new discount on premiums for options we are selling"
      },
      "setStrikePrice(uint128)": {
        "notice": "Optionality to set strike price manually"
      },
      "setStrikeSelectionOrPricer(address,bool)": {
        "notice": "Sets the new strike selection or options premium pricer contract"
      },
      "shareBalances(address)": {
        "notice": "Getter for returning the account's share balance split between account and vault holdings"
      },
      "shares(address)": {
        "notice": "Getter for returning the account's share balance including unredeemed shares"
      },
      "startAuction()": {
        "notice": "Initiate the gnosis auction."
      },
      "totalBalance()": {
        "notice": "Returns the vault's total balance, including the amounts locked into a short position"
      },
      "vaultParams()": {
        "notice": "Vault's parameters like cap, decimals"
      },
      "vaultState()": {
        "notice": "Vault's lifecycle state like round and locked amounts"
      },
      "withdrawInstantly(uint256,uint256)": {
        "notice": "Withdraws the assets on the vault using the outstanding `DepositReceipt.amount`"
      },
      "withdrawals(address)": {
        "notice": "Stores pending user withdrawals"
      }
    },
    "notice": "UPGRADEABILITY: Since we use the upgradeable proxy pattern, we must observe the inheritance chain closely. Any changes/appends in storage variable needs to happen in RibbonThetaSTETHVaultStorage. RibbonThetaSTETHVault should not inherit from any other contract aside from RibbonVault, RibbonThetaSTETHVaultStorage",
    "version": 1
  },
  "storageLayout": {
    "storage": [
      {
        "astId": 130,
        "contract": "contracts/vaults/STETHVault/RibbonThetaSTETHVault.sol:RibbonThetaSTETHVault",
        "label": "_initialized",
        "offset": 0,
        "slot": "0",
        "type": "t_bool"
      },
      {
        "astId": 133,
        "contract": "contracts/vaults/STETHVault/RibbonThetaSTETHVault.sol:RibbonThetaSTETHVault",
        "label": "_initializing",
        "offset": 1,
        "slot": "0",
        "type": "t_bool"
      },
      {
        "astId": 184,
        "contract": "contracts/vaults/STETHVault/RibbonThetaSTETHVault.sol:RibbonThetaSTETHVault",
        "label": "_status",
        "offset": 0,
        "slot": "1",
        "type": "t_uint256"
      },
      {
        "astId": 227,
        "contract": "contracts/vaults/STETHVault/RibbonThetaSTETHVault.sol:RibbonThetaSTETHVault",
        "label": "__gap",
        "offset": 0,
        "slot": "2",
        "type": "t_array(t_uint256)49_storage"
      },
      {
        "astId": 947,
        "contract": "contracts/vaults/STETHVault/RibbonThetaSTETHVault.sol:RibbonThetaSTETHVault",
        "label": "__gap",
        "offset": 0,
        "slot": "51",
        "type": "t_array(t_uint256)50_storage"
      },
      {
        "astId": 10,
        "contract": "contracts/vaults/STETHVault/RibbonThetaSTETHVault.sol:RibbonThetaSTETHVault",
        "label": "_owner",
        "offset": 0,
        "slot": "101",
        "type": "t_address"
      },
      {
        "astId": 123,
        "contract": "contracts/vaults/STETHVault/RibbonThetaSTETHVault.sol:RibbonThetaSTETHVault",
        "label": "__gap",
        "offset": 0,
        "slot": "102",
        "type": "t_array(t_uint256)49_storage"
      },
      {
        "astId": 247,
        "contract": "contracts/vaults/STETHVault/RibbonThetaSTETHVault.sol:RibbonThetaSTETHVault",
        "label": "_balances",
        "offset": 0,
        "slot": "151",
        "type": "t_mapping(t_address,t_uint256)"
      },
      {
        "astId": 253,
        "contract": "contracts/vaults/STETHVault/RibbonThetaSTETHVault.sol:RibbonThetaSTETHVault",
        "label": "_allowances",
        "offset": 0,
        "slot": "152",
        "type": "t_mapping(t_address,t_mapping(t_address,t_uint256))"
      },
      {
        "astId": 255,
        "contract": "contracts/vaults/STETHVault/RibbonThetaSTETHVault.sol:RibbonThetaSTETHVault",
        "label": "_totalSupply",
        "offset": 0,
        "slot": "153",
        "type": "t_uint256"
      },
      {
        "astId": 257,
        "contract": "contracts/vaults/STETHVault/RibbonThetaSTETHVault.sol:RibbonThetaSTETHVault",
        "label": "_name",
        "offset": 0,
        "slot": "154",
        "type": "t_string_storage"
      },
      {
        "astId": 259,
        "contract": "contracts/vaults/STETHVault/RibbonThetaSTETHVault.sol:RibbonThetaSTETHVault",
        "label": "_symbol",
        "offset": 0,
        "slot": "155",
        "type": "t_string_storage"
      },
      {
        "astId": 800,
        "contract": "contracts/vaults/STETHVault/RibbonThetaSTETHVault.sol:RibbonThetaSTETHVault",
        "label": "__gap",
        "offset": 0,
        "slot": "156",
        "type": "t_array(t_uint256)45_storage"
      },
      {
        "astId": 12565,
        "contract": "contracts/vaults/STETHVault/RibbonThetaSTETHVault.sol:RibbonThetaSTETHVault",
        "label": "depositReceipts",
        "offset": 0,
        "slot": "201",
        "type": "t_mapping(t_address,t_struct(DepositReceipt)4384_storage)"
      },
      {
        "astId": 12570,
        "contract": "contracts/vaults/STETHVault/RibbonThetaSTETHVault.sol:RibbonThetaSTETHVault",
        "label": "roundPricePerShare",
        "offset": 0,
        "slot": "202",
        "type": "t_mapping(t_uint256,t_uint256)"
      },
      {
        "astId": 12576,
        "contract": "contracts/vaults/STETHVault/RibbonThetaSTETHVault.sol:RibbonThetaSTETHVault",
        "label": "withdrawals",
        "offset": 0,
        "slot": "203",
        "type": "t_mapping(t_address,t_struct(Withdrawal)4389_storage)"
      },
      {
        "astId": 12580,
        "contract": "contracts/vaults/STETHVault/RibbonThetaSTETHVault.sol:RibbonThetaSTETHVault",
        "label": "vaultParams",
        "offset": 0,
        "slot": "204",
        "type": "t_struct(VaultParams)4359_storage"
      },
      {
        "astId": 12584,
        "contract": "contracts/vaults/STETHVault/RibbonThetaSTETHVault.sol:RibbonThetaSTETHVault",
        "label": "vaultState",
        "offset": 0,
        "slot": "207",
        "type": "t_struct(VaultState)4377_storage"
      },
      {
        "astId": 12588,
        "contract": "contracts/vaults/STETHVault/RibbonThetaSTETHVault.sol:RibbonThetaSTETHVault",
        "label": "optionState",
        "offset": 0,
        "slot": "209",
        "type": "t_struct(OptionState)4366_storage"
      },
      {
        "astId": 12591,
        "contract": "contracts/vaults/STETHVault/RibbonThetaSTETHVault.sol:RibbonThetaSTETHVault",
        "label": "feeRecipient",
        "offset": 0,
        "slot": "211",
        "type": "t_address"
      },
      {
        "astId": 12594,
        "contract": "contracts/vaults/STETHVault/RibbonThetaSTETHVault.sol:RibbonThetaSTETHVault",
        "label": "keeper",
        "offset": 0,
        "slot": "212",
        "type": "t_address"
      },
      {
        "astId": 12597,
        "contract": "contracts/vaults/STETHVault/RibbonThetaSTETHVault.sol:RibbonThetaSTETHVault",
        "label": "performanceFee",
        "offset": 0,
        "slot": "213",
        "type": "t_uint256"
      },
      {
        "astId": 12600,
        "contract": "contracts/vaults/STETHVault/RibbonThetaSTETHVault.sol:RibbonThetaSTETHVault",
        "label": "managementFee",
        "offset": 0,
        "slot": "214",
        "type": "t_uint256"
      },
      {
        "astId": 12608,
        "contract": "contracts/vaults/STETHVault/RibbonThetaSTETHVault.sol:RibbonThetaSTETHVault",
        "label": "____gap",
        "offset": 0,
        "slot": "215",
        "type": "t_array(t_uint256)30_storage"
      },
      {
        "astId": 7650,
        "contract": "contracts/vaults/STETHVault/RibbonThetaSTETHVault.sol:RibbonThetaSTETHVault",
        "label": "optionsPremiumPricer",
        "offset": 0,
        "slot": "245",
        "type": "t_address"
      },
      {
        "astId": 7652,
        "contract": "contracts/vaults/STETHVault/RibbonThetaSTETHVault.sol:RibbonThetaSTETHVault",
        "label": "strikeSelection",
        "offset": 0,
        "slot": "246",
        "type": "t_address"
      },
      {
        "astId": 7654,
        "contract": "contracts/vaults/STETHVault/RibbonThetaSTETHVault.sol:RibbonThetaSTETHVault",
        "label": "premiumDiscount",
        "offset": 0,
        "slot": "247",
        "type": "t_uint256"
      },
      {
        "astId": 7656,
        "contract": "contracts/vaults/STETHVault/RibbonThetaSTETHVault.sol:RibbonThetaSTETHVault",
        "label": "currentOtokenPremium",
        "offset": 0,
        "slot": "248",
        "type": "t_uint256"
      },
      {
        "astId": 7658,
        "contract": "contracts/vaults/STETHVault/RibbonThetaSTETHVault.sol:RibbonThetaSTETHVault",
        "label": "lastStrikeOverrideRound",
        "offset": 0,
        "slot": "249",
        "type": "t_uint16"
      },
      {
        "astId": 7660,
        "contract": "contracts/vaults/STETHVault/RibbonThetaSTETHVault.sol:RibbonThetaSTETHVault",
        "label": "overriddenStrikePrice",
        "offset": 0,
        "slot": "250",
        "type": "t_uint256"
      },
      {
        "astId": 7662,
        "contract": "contracts/vaults/STETHVault/RibbonThetaSTETHVault.sol:RibbonThetaSTETHVault",
        "label": "auctionDuration",
        "offset": 0,
        "slot": "251",
        "type": "t_uint256"
      },
      {
        "astId": 7664,
        "contract": "contracts/vaults/STETHVault/RibbonThetaSTETHVault.sol:RibbonThetaSTETHVault",
        "label": "optionAuctionID",
        "offset": 0,
        "slot": "252",
        "type": "t_uint256"
      },
      {
        "astId": 7667,
        "contract": "contracts/vaults/STETHVault/RibbonThetaSTETHVault.sol:RibbonThetaSTETHVault",
        "label": "lastQueuedWithdrawAmount",
        "offset": 0,
        "slot": "253",
        "type": "t_uint256"
      }
    ],
    "types": {
      "t_address": {
        "encoding": "inplace",
        "label": "address",
        "numberOfBytes": "20"
      },
      "t_array(t_uint256)30_storage": {
        "base": "t_uint256",
        "encoding": "inplace",
        "label": "uint256[30]",
        "numberOfBytes": "960"
      },
      "t_array(t_uint256)45_storage": {
        "base": "t_uint256",
        "encoding": "inplace",
        "label": "uint256[45]",
        "numberOfBytes": "1440"
      },
      "t_array(t_uint256)49_storage": {
        "base": "t_uint256",
        "encoding": "inplace",
        "label": "uint256[49]",
        "numberOfBytes": "1568"
      },
      "t_array(t_uint256)50_storage": {
        "base": "t_uint256",
        "encoding": "inplace",
        "label": "uint256[50]",
        "numberOfBytes": "1600"
      },
      "t_bool": {
        "encoding": "inplace",
        "label": "bool",
        "numberOfBytes": "1"
      },
      "t_mapping(t_address,t_mapping(t_address,t_uint256))": {
        "encoding": "mapping",
        "key": "t_address",
        "label": "mapping(address => mapping(address => uint256))",
        "numberOfBytes": "32",
        "value": "t_mapping(t_address,t_uint256)"
      },
      "t_mapping(t_address,t_struct(DepositReceipt)4384_storage)": {
        "encoding": "mapping",
        "key": "t_address",
        "label": "mapping(address => struct Vault.DepositReceipt)",
        "numberOfBytes": "32",
        "value": "t_struct(DepositReceipt)4384_storage"
      },
      "t_mapping(t_address,t_struct(Withdrawal)4389_storage)": {
        "encoding": "mapping",
        "key": "t_address",
        "label": "mapping(address => struct Vault.Withdrawal)",
        "numberOfBytes": "32",
        "value": "t_struct(Withdrawal)4389_storage"
      },
      "t_mapping(t_address,t_uint256)": {
        "encoding": "mapping",
        "key": "t_address",
        "label": "mapping(address => uint256)",
        "numberOfBytes": "32",
        "value": "t_uint256"
      },
      "t_mapping(t_uint256,t_uint256)": {
        "encoding": "mapping",
        "key": "t_uint256",
        "label": "mapping(uint256 => uint256)",
        "numberOfBytes": "32",
        "value": "t_uint256"
      },
      "t_string_storage": {
        "encoding": "bytes",
        "label": "string",
        "numberOfBytes": "32"
      },
      "t_struct(DepositReceipt)4384_storage": {
        "encoding": "inplace",
        "label": "struct Vault.DepositReceipt",
        "members": [
          {
            "astId": 4379,
            "contract": "contracts/vaults/STETHVault/RibbonThetaSTETHVault.sol:RibbonThetaSTETHVault",
            "label": "round",
            "offset": 0,
            "slot": "0",
            "type": "t_uint16"
          },
          {
            "astId": 4381,
            "contract": "contracts/vaults/STETHVault/RibbonThetaSTETHVault.sol:RibbonThetaSTETHVault",
            "label": "amount",
            "offset": 2,
            "slot": "0",
            "type": "t_uint104"
          },
          {
            "astId": 4383,
            "contract": "contracts/vaults/STETHVault/RibbonThetaSTETHVault.sol:RibbonThetaSTETHVault",
            "label": "unredeemedShares",
            "offset": 15,
            "slot": "0",
            "type": "t_uint128"
          }
        ],
        "numberOfBytes": "32"
      },
      "t_struct(OptionState)4366_storage": {
        "encoding": "inplace",
        "label": "struct Vault.OptionState",
        "members": [
          {
            "astId": 4361,
            "contract": "contracts/vaults/STETHVault/RibbonThetaSTETHVault.sol:RibbonThetaSTETHVault",
            "label": "nextOption",
            "offset": 0,
            "slot": "0",
            "type": "t_address"
          },
          {
            "astId": 4363,
            "contract": "contracts/vaults/STETHVault/RibbonThetaSTETHVault.sol:RibbonThetaSTETHVault",
            "label": "currentOption",
            "offset": 0,
            "slot": "1",
            "type": "t_address"
          },
          {
            "astId": 4365,
            "contract": "contracts/vaults/STETHVault/RibbonThetaSTETHVault.sol:RibbonThetaSTETHVault",
            "label": "nextOptionReadyAt",
            "offset": 20,
            "slot": "1",
            "type": "t_uint32"
          }
        ],
        "numberOfBytes": "64"
      },
      "t_struct(VaultParams)4359_storage": {
        "encoding": "inplace",
        "label": "struct Vault.VaultParams",
        "members": [
          {
            "astId": 4348,
            "contract": "contracts/vaults/STETHVault/RibbonThetaSTETHVault.sol:RibbonThetaSTETHVault",
            "label": "isPut",
            "offset": 0,
            "slot": "0",
            "type": "t_bool"
          },
          {
            "astId": 4350,
            "contract": "contracts/vaults/STETHVault/RibbonThetaSTETHVault.sol:RibbonThetaSTETHVault",
            "label": "decimals",
            "offset": 1,
            "slot": "0",
            "type": "t_uint8"
          },
          {
            "astId": 4352,
            "contract": "contracts/vaults/STETHVault/RibbonThetaSTETHVault.sol:RibbonThetaSTETHVault",
            "label": "asset",
            "offset": 2,
            "slot": "0",
            "type": "t_address"
          },
          {
            "astId": 4354,
            "contract": "contracts/vaults/STETHVault/RibbonThetaSTETHVault.sol:RibbonThetaSTETHVault",
            "label": "underlying",
            "offset": 0,
            "slot": "1",
            "type": "t_address"
          },
          {
            "astId": 4356,
            "contract": "contracts/vaults/STETHVault/RibbonThetaSTETHVault.sol:RibbonThetaSTETHVault",
            "label": "minimumSupply",
            "offset": 20,
            "slot": "1",
            "type": "t_uint56"
          },
          {
            "astId": 4358,
            "contract": "contracts/vaults/STETHVault/RibbonThetaSTETHVault.sol:RibbonThetaSTETHVault",
            "label": "cap",
            "offset": 0,
            "slot": "2",
            "type": "t_uint104"
          }
        ],
        "numberOfBytes": "96"
      },
      "t_struct(VaultState)4377_storage": {
        "encoding": "inplace",
        "label": "struct Vault.VaultState",
        "members": [
          {
            "astId": 4368,
            "contract": "contracts/vaults/STETHVault/RibbonThetaSTETHVault.sol:RibbonThetaSTETHVault",
            "label": "round",
            "offset": 0,
            "slot": "0",
            "type": "t_uint16"
          },
          {
            "astId": 4370,
            "contract": "contracts/vaults/STETHVault/RibbonThetaSTETHVault.sol:RibbonThetaSTETHVault",
            "label": "lockedAmount",
            "offset": 2,
            "slot": "0",
            "type": "t_uint104"
          },
          {
            "astId": 4372,
            "contract": "contracts/vaults/STETHVault/RibbonThetaSTETHVault.sol:RibbonThetaSTETHVault",
            "label": "lastLockedAmount",
            "offset": 15,
            "slot": "0",
            "type": "t_uint104"
          },
          {
            "astId": 4374,
            "contract": "contracts/vaults/STETHVault/RibbonThetaSTETHVault.sol:RibbonThetaSTETHVault",
            "label": "totalPending",
            "offset": 0,
            "slot": "1",
            "type": "t_uint128"
          },
          {
            "astId": 4376,
            "contract": "contracts/vaults/STETHVault/RibbonThetaSTETHVault.sol:RibbonThetaSTETHVault",
            "label": "queuedWithdrawShares",
            "offset": 16,
            "slot": "1",
            "type": "t_uint128"
          }
        ],
        "numberOfBytes": "64"
      },
      "t_struct(Withdrawal)4389_storage": {
        "encoding": "inplace",
        "label": "struct Vault.Withdrawal",
        "members": [
          {
            "astId": 4386,
            "contract": "contracts/vaults/STETHVault/RibbonThetaSTETHVault.sol:RibbonThetaSTETHVault",
            "label": "round",
            "offset": 0,
            "slot": "0",
            "type": "t_uint16"
          },
          {
            "astId": 4388,
            "contract": "contracts/vaults/STETHVault/RibbonThetaSTETHVault.sol:RibbonThetaSTETHVault",
            "label": "shares",
            "offset": 2,
            "slot": "0",
            "type": "t_uint128"
          }
        ],
        "numberOfBytes": "32"
      },
      "t_uint104": {
        "encoding": "inplace",
        "label": "uint104",
        "numberOfBytes": "13"
      },
      "t_uint128": {
        "encoding": "inplace",
        "label": "uint128",
        "numberOfBytes": "16"
      },
      "t_uint16": {
        "encoding": "inplace",
        "label": "uint16",
        "numberOfBytes": "2"
      },
      "t_uint256": {
        "encoding": "inplace",
        "label": "uint256",
        "numberOfBytes": "32"
      },
      "t_uint32": {
        "encoding": "inplace",
        "label": "uint32",
        "numberOfBytes": "4"
      },
      "t_uint56": {
        "encoding": "inplace",
        "label": "uint56",
        "numberOfBytes": "7"
      },
      "t_uint8": {
        "encoding": "inplace",
        "label": "uint8",
        "numberOfBytes": "1"
      }
    }
  }
}