{
  "address": "0x01F1d8744469Da81dbB6b7d3E9811f10029365E7",
  "abi": [
    {
      "inputs": [
        {
          "internalType": "address",
          "name": "_weth",
          "type": "address"
        },
        {
          "internalType": "address",
          "name": "_usdc",
          "type": "address"
        },
        {
          "internalType": "address",
          "name": "_wsteth",
          "type": "address"
        },
        {
          "internalType": "address",
          "name": "_ldo",
          "type": "address"
        },
        {
          "internalType": "address",
          "name": "_oTokenFactory",
          "type": "address"
        },
        {
          "internalType": "address",
          "name": "_gammaController",
          "type": "address"
        },
        {
          "internalType": "address",
          "name": "_marginPool",
          "type": "address"
        },
        {
          "internalType": "address",
          "name": "_gnosisEasyAuction",
          "type": "address"
        }
      ],
      "stateMutability": "nonpayable",
      "type": "constructor"
    },
    {
      "anonymous": false,
      "inputs": [
        {
          "indexed": true,
          "internalType": "address",
          "name": "owner",
          "type": "address"
        },
        {
          "indexed": true,
          "internalType": "address",
          "name": "spender",
          "type": "address"
        },
        {
          "indexed": false,
          "internalType": "uint256",
          "name": "value",
          "type": "uint256"
        }
      ],
      "name": "Approval",
      "type": "event"
    },
    {
      "anonymous": false,
      "inputs": [
        {
          "indexed": false,
          "internalType": "uint256",
          "name": "auctionDuration",
          "type": "uint256"
        },
        {
          "indexed": false,
          "internalType": "uint256",
          "name": "newAuctionDuration",
          "type": "uint256"
        }
      ],
      "name": "AuctionDurationSet",
      "type": "event"
    },
    {
      "anonymous": false,
      "inputs": [
        {
          "indexed": false,
          "internalType": "uint256",
          "name": "oldCap",
          "type": "uint256"
        },
        {
          "indexed": false,
          "internalType": "uint256",
          "name": "newCap",
          "type": "uint256"
        }
      ],
      "name": "CapSet",
      "type": "event"
    },
    {
      "anonymous": false,
      "inputs": [
        {
          "indexed": true,
          "internalType": "address",
          "name": "options",
          "type": "address"
        },
        {
          "indexed": false,
          "internalType": "uint256",
          "name": "withdrawAmount",
          "type": "uint256"
        },
        {
          "indexed": true,
          "internalType": "address",
          "name": "manager",
          "type": "address"
        }
      ],
      "name": "CloseShort",
      "type": "event"
    },
    {
      "anonymous": false,
      "inputs": [
        {
          "indexed": false,
          "internalType": "uint256",
          "name": "performanceFee",
          "type": "uint256"
        },
        {
          "indexed": false,
          "internalType": "uint256",
          "name": "vaultFee",
          "type": "uint256"
        },
        {
          "indexed": false,
          "internalType": "uint256",
          "name": "round",
          "type": "uint256"
        },
        {
          "indexed": true,
          "internalType": "address",
          "name": "feeRecipient",
          "type": "address"
        }
      ],
      "name": "CollectVaultFees",
      "type": "event"
    },
    {
      "anonymous": false,
      "inputs": [
        {
          "indexed": true,
          "internalType": "address",
          "name": "account",
          "type": "address"
        },
        {
          "indexed": false,
          "internalType": "uint256",
          "name": "amount",
          "type": "uint256"
        },
        {
          "indexed": false,
          "internalType": "uint256",
          "name": "round",
          "type": "uint256"
        }
      ],
      "name": "Deposit",
      "type": "event"
    },
    {
      "anonymous": false,
      "inputs": [
        {
          "indexed": true,
          "internalType": "address",
          "name": "auctioningToken",
          "type": "address"
        },
        {
          "indexed": true,
          "internalType": "address",
          "name": "biddingToken",
          "type": "address"
        },
        {
          "indexed": false,
          "internalType": "uint256",
          "name": "auctionCounter",
          "type": "uint256"
        },
        {
          "indexed": true,
          "internalType": "address",
          "name": "manager",
          "type": "address"
        }
      ],
      "name": "InitiateGnosisAuction",
      "type": "event"
    },
    {
      "anonymous": false,
      "inputs": [
        {
          "indexed": true,
          "internalType": "address",
          "name": "account",
          "type": "address"
        },
        {
          "indexed": false,
          "internalType": "uint256",
          "name": "shares",
          "type": "uint256"
        },
        {
          "indexed": false,
          "internalType": "uint256",
          "name": "round",
          "type": "uint256"
        }
      ],
      "name": "InitiateWithdraw",
      "type": "event"
    },
    {
      "anonymous": false,
      "inputs": [
        {
          "indexed": true,
          "internalType": "address",
          "name": "account",
          "type": "address"
        },
        {
          "indexed": false,
          "internalType": "uint256",
          "name": "amount",
          "type": "uint256"
        },
        {
          "indexed": false,
          "internalType": "uint256",
          "name": "round",
          "type": "uint256"
        }
      ],
      "name": "InstantWithdraw",
      "type": "event"
    },
    {
      "anonymous": false,
      "inputs": [
        {
          "indexed": false,
          "internalType": "uint256",
          "name": "managementFee",
          "type": "uint256"
        },
        {
          "indexed": false,
          "internalType": "uint256",
          "name": "newManagementFee",
          "type": "uint256"
        }
      ],
      "name": "ManagementFeeSet",
      "type": "event"
    },
    {
      "anonymous": false,
      "inputs": [
        {
          "indexed": false,
          "internalType": "uint256",
          "name": "strikePrice",
          "type": "uint256"
        },
        {
          "indexed": false,
          "internalType": "uint256",
          "name": "delta",
          "type": "uint256"
        }
      ],
      "name": "NewOptionStrikeSelected",
      "type": "event"
    },
    {
      "anonymous": false,
      "inputs": [
        {
          "indexed": true,
          "internalType": "address",
          "name": "options",
          "type": "address"
        },
        {
          "indexed": false,
          "internalType": "uint256",
          "name": "depositAmount",
          "type": "uint256"
        },
        {
          "indexed": true,
          "internalType": "address",
          "name": "manager",
          "type": "address"
        }
      ],
      "name": "OpenShort",
      "type": "event"
    },
    {
      "anonymous": false,
      "inputs": [
        {
          "indexed": true,
          "internalType": "address",
          "name": "previousOwner",
          "type": "address"
        },
        {
          "indexed": true,
          "internalType": "address",
          "name": "newOwner",
          "type": "address"
        }
      ],
      "name": "OwnershipTransferred",
      "type": "event"
    },
    {
      "anonymous": false,
      "inputs": [
        {
          "indexed": false,
          "internalType": "uint256",
          "name": "performanceFee",
          "type": "uint256"
        },
        {
          "indexed": false,
          "internalType": "uint256",
          "name": "newPerformanceFee",
          "type": "uint256"
        }
      ],
      "name": "PerformanceFeeSet",
      "type": "event"
    },
    {
      "anonymous": false,
      "inputs": [
        {
          "indexed": false,
          "internalType": "uint256",
          "name": "premiumDiscount",
          "type": "uint256"
        },
        {
          "indexed": false,
          "internalType": "uint256",
          "name": "newPremiumDiscount",
          "type": "uint256"
        }
      ],
      "name": "PremiumDiscountSet",
      "type": "event"
    },
    {
      "anonymous": false,
      "inputs": [
        {
          "indexed": true,
          "internalType": "address",
          "name": "account",
          "type": "address"
        },
        {
          "indexed": false,
          "internalType": "uint256",
          "name": "share",
          "type": "uint256"
        },
        {
          "indexed": false,
          "internalType": "uint256",
          "name": "round",
          "type": "uint256"
        }
      ],
      "name": "Redeem",
      "type": "event"
    },
    {
      "anonymous": false,
      "inputs": [
        {
          "indexed": true,
          "internalType": "address",
          "name": "from",
          "type": "address"
        },
        {
          "indexed": true,
          "internalType": "address",
          "name": "to",
          "type": "address"
        },
        {
          "indexed": false,
          "internalType": "uint256",
          "name": "value",
          "type": "uint256"
        }
      ],
      "name": "Transfer",
      "type": "event"
    },
    {
      "anonymous": false,
      "inputs": [
        {
          "indexed": true,
          "internalType": "address",
          "name": "account",
          "type": "address"
        },
        {
          "indexed": false,
          "internalType": "uint256",
          "name": "amount",
          "type": "uint256"
        },
        {
          "indexed": false,
          "internalType": "uint256",
          "name": "shares",
          "type": "uint256"
        }
      ],
      "name": "Withdraw",
      "type": "event"
    },
    {
      "inputs": [],
      "name": "DELAY",
      "outputs": [
        {
          "internalType": "uint256",
          "name": "",
          "type": "uint256"
        }
      ],
      "stateMutability": "view",
      "type": "function"
    },
    {
      "inputs": [],
      "name": "GAMMA_CONTROLLER",
      "outputs": [
        {
          "internalType": "address",
          "name": "",
          "type": "address"
        }
      ],
      "stateMutability": "view",
      "type": "function"
    },
    {
      "inputs": [],
      "name": "GNOSIS_EASY_AUCTION",
      "outputs": [
        {
          "internalType": "address",
          "name": "",
          "type": "address"
        }
      ],
      "stateMutability": "view",
      "type": "function"
    },
    {
      "inputs": [],
      "name": "LDO",
      "outputs": [
        {
          "internalType": "address",
          "name": "",
          "type": "address"
        }
      ],
      "stateMutability": "view",
      "type": "function"
    },
    {
      "inputs": [],
      "name": "MARGIN_POOL",
      "outputs": [
        {
          "internalType": "address",
          "name": "",
          "type": "address"
        }
      ],
      "stateMutability": "view",
      "type": "function"
    },
    {
      "inputs": [],
      "name": "OTOKEN_FACTORY",
      "outputs": [
        {
          "internalType": "address",
          "name": "",
          "type": "address"
        }
      ],
      "stateMutability": "view",
      "type": "function"
    },
    {
      "inputs": [],
      "name": "PERIOD",
      "outputs": [
        {
          "internalType": "uint256",
          "name": "",
          "type": "uint256"
        }
      ],
      "stateMutability": "view",
      "type": "function"
    },
    {
      "inputs": [],
      "name": "STETH",
      "outputs": [
        {
          "internalType": "address",
          "name": "",
          "type": "address"
        }
      ],
      "stateMutability": "view",
      "type": "function"
    },
    {
      "inputs": [],
      "name": "USDC",
      "outputs": [
        {
          "internalType": "address",
          "name": "",
          "type": "address"
        }
      ],
      "stateMutability": "view",
      "type": "function"
    },
    {
      "inputs": [],
      "name": "WETH",
      "outputs": [
        {
          "internalType": "address",
          "name": "",
          "type": "address"
        }
      ],
      "stateMutability": "view",
      "type": "function"
    },
    {
      "inputs": [
        {
          "internalType": "address",
          "name": "account",
          "type": "address"
        }
      ],
      "name": "accountVaultBalance",
      "outputs": [
        {
          "internalType": "uint256",
          "name": "",
          "type": "uint256"
        }
      ],
      "stateMutability": "view",
      "type": "function"
    },
    {
      "inputs": [
        {
          "internalType": "address",
          "name": "owner",
          "type": "address"
        },
        {
          "internalType": "address",
          "name": "spender",
          "type": "address"
        }
      ],
      "name": "allowance",
      "outputs": [
        {
          "internalType": "uint256",
          "name": "",
          "type": "uint256"
        }
      ],
      "stateMutability": "view",
      "type": "function"
    },
    {
      "inputs": [
        {
          "internalType": "address",
          "name": "spender",
          "type": "address"
        },
        {
          "internalType": "uint256",
          "name": "amount",
          "type": "uint256"
        }
      ],
      "name": "approve",
      "outputs": [
        {
          "internalType": "bool",
          "name": "",
          "type": "bool"
        }
      ],
      "stateMutability": "nonpayable",
      "type": "function"
    },
    {
      "inputs": [],
      "name": "auctionDuration",
      "outputs": [
        {
          "internalType": "uint256",
          "name": "",
          "type": "uint256"
        }
      ],
      "stateMutability": "view",
      "type": "function"
    },
    {
      "inputs": [
        {
          "internalType": "address",
          "name": "account",
          "type": "address"
        }
      ],
      "name": "balanceOf",
      "outputs": [
        {
          "internalType": "uint256",
          "name": "",
          "type": "uint256"
        }
      ],
      "stateMutability": "view",
      "type": "function"
    },
    {
      "inputs": [],
      "name": "burnRemainingOTokens",
      "outputs": [],
      "stateMutability": "nonpayable",
      "type": "function"
    },
    {
      "inputs": [],
      "name": "cap",
      "outputs": [
        {
          "internalType": "uint256",
          "name": "",
          "type": "uint256"
        }
      ],
      "stateMutability": "view",
      "type": "function"
    },
    {
      "inputs": [],
      "name": "collateralToken",
      "outputs": [
        {
          "internalType": "contract IWSTETH",
          "name": "",
          "type": "address"
        }
      ],
      "stateMutability": "view",
      "type": "function"
    },
    {
      "inputs": [],
      "name": "commitAndClose",
      "outputs": [],
      "stateMutability": "nonpayable",
      "type": "function"
    },
    {
      "inputs": [],
      "name": "completeWithdraw",
      "outputs": [],
      "stateMutability": "nonpayable",
      "type": "function"
    },
    {
      "inputs": [],
      "name": "currentOption",
      "outputs": [
        {
          "internalType": "address",
          "name": "",
          "type": "address"
        }
      ],
      "stateMutability": "view",
      "type": "function"
    },
    {
      "inputs": [],
      "name": "currentOtokenPremium",
      "outputs": [
        {
          "internalType": "uint256",
          "name": "",
          "type": "uint256"
        }
      ],
      "stateMutability": "view",
      "type": "function"
    },
    {
      "inputs": [],
      "name": "currentQueuedWithdrawShares",
      "outputs": [
        {
          "internalType": "uint256",
          "name": "",
          "type": "uint256"
        }
      ],
      "stateMutability": "view",
      "type": "function"
    },
    {
      "inputs": [],
      "name": "decimals",
      "outputs": [
        {
          "internalType": "uint8",
          "name": "",
          "type": "uint8"
        }
      ],
      "stateMutability": "view",
      "type": "function"
    },
    {
      "inputs": [
        {
          "internalType": "address",
          "name": "spender",
          "type": "address"
        },
        {
          "internalType": "uint256",
          "name": "subtractedValue",
          "type": "uint256"
        }
      ],
      "name": "decreaseAllowance",
      "outputs": [
        {
          "internalType": "bool",
          "name": "",
          "type": "bool"
        }
      ],
      "stateMutability": "nonpayable",
      "type": "function"
    },
    {
      "inputs": [],
      "name": "depositETH",
      "outputs": [],
      "stateMutability": "payable",
      "type": "function"
    },
    {
      "inputs": [
        {
          "internalType": "address",
          "name": "creditor",
          "type": "address"
        }
      ],
      "name": "depositFor",
      "outputs": [],
      "stateMutability": "payable",
      "type": "function"
    },
    {
      "inputs": [
        {
          "internalType": "address",
          "name": "",
          "type": "address"
        }
      ],
      "name": "depositReceipts",
      "outputs": [
        {
          "internalType": "uint16",
          "name": "round",
          "type": "uint16"
        },
        {
          "internalType": "uint104",
          "name": "amount",
          "type": "uint104"
        },
        {
          "internalType": "uint128",
          "name": "unredeemedShares",
          "type": "uint128"
        }
      ],
      "stateMutability": "view",
      "type": "function"
    },
    {
      "inputs": [
        {
          "internalType": "uint256",
          "name": "amount",
          "type": "uint256"
        }
      ],
      "name": "depositYieldToken",
      "outputs": [],
      "stateMutability": "nonpayable",
      "type": "function"
    },
    {
      "inputs": [
        {
          "internalType": "uint256",
          "name": "amount",
          "type": "uint256"
        },
        {
          "internalType": "address",
          "name": "creditor",
          "type": "address"
        }
      ],
      "name": "depositYieldTokenFor",
      "outputs": [],
      "stateMutability": "nonpayable",
      "type": "function"
    },
    {
      "inputs": [],
      "name": "feeRecipient",
      "outputs": [
        {
          "internalType": "address",
          "name": "",
          "type": "address"
        }
      ],
      "stateMutability": "view",
      "type": "function"
    },
    {
      "inputs": [
        {
          "internalType": "address",
          "name": "spender",
          "type": "address"
        },
        {
          "internalType": "uint256",
          "name": "addedValue",
          "type": "uint256"
        }
      ],
      "name": "increaseAllowance",
      "outputs": [
        {
          "internalType": "bool",
          "name": "",
          "type": "bool"
        }
      ],
      "stateMutability": "nonpayable",
      "type": "function"
    },
    {
      "inputs": [
        {
          "internalType": "uint256",
          "name": "numRounds",
          "type": "uint256"
        }
      ],
      "name": "initRounds",
      "outputs": [],
      "stateMutability": "nonpayable",
      "type": "function"
    },
    {
      "inputs": [
        {
          "internalType": "address",
          "name": "_owner",
          "type": "address"
        },
        {
          "internalType": "address",
          "name": "_keeper",
          "type": "address"
        },
        {
          "internalType": "address",
          "name": "_feeRecipient",
          "type": "address"
        },
        {
          "internalType": "uint256",
          "name": "_managementFee",
          "type": "uint256"
        },
        {
          "internalType": "uint256",
          "name": "_performanceFee",
          "type": "uint256"
        },
        {
          "internalType": "string",
          "name": "_tokenName",
          "type": "string"
        },
        {
          "internalType": "string",
          "name": "_tokenSymbol",
          "type": "string"
        },
        {
          "internalType": "address",
          "name": "_optionsPremiumPricer",
          "type": "address"
        },
        {
          "internalType": "address",
          "name": "_strikeSelection",
          "type": "address"
        },
        {
          "internalType": "uint32",
          "name": "_premiumDiscount",
          "type": "uint32"
        },
        {
          "internalType": "uint256",
          "name": "_auctionDuration",
          "type": "uint256"
        },
        {
          "components": [
            {
              "internalType": "bool",
              "name": "isPut",
              "type": "bool"
            },
            {
              "internalType": "uint8",
              "name": "decimals",
              "type": "uint8"
            },
            {
              "internalType": "address",
              "name": "asset",
              "type": "address"
            },
            {
              "internalType": "address",
              "name": "underlying",
              "type": "address"
            },
            {
              "internalType": "uint56",
              "name": "minimumSupply",
              "type": "uint56"
            },
            {
              "internalType": "uint104",
              "name": "cap",
              "type": "uint104"
            }
          ],
          "internalType": "struct Vault.VaultParams",
          "name": "_vaultParams",
          "type": "tuple"
        }
      ],
      "name": "initialize",
      "outputs": [],
      "stateMutability": "nonpayable",
      "type": "function"
    },
    {
      "inputs": [
        {
          "internalType": "uint256",
          "name": "numShares",
          "type": "uint256"
        }
      ],
      "name": "initiateWithdraw",
      "outputs": [],
      "stateMutability": "nonpayable",
      "type": "function"
    },
    {
      "inputs": [],
      "name": "keeper",
      "outputs": [
        {
          "internalType": "address",
          "name": "",
          "type": "address"
        }
      ],
      "stateMutability": "view",
      "type": "function"
    },
    {
      "inputs": [],
      "name": "lastQueuedWithdrawAmount",
      "outputs": [
        {
          "internalType": "uint256",
          "name": "",
          "type": "uint256"
        }
      ],
      "stateMutability": "view",
      "type": "function"
    },
    {
      "inputs": [],
      "name": "lastStrikeOverrideRound",
      "outputs": [
        {
          "internalType": "uint16",
          "name": "",
          "type": "uint16"
        }
      ],
      "stateMutability": "view",
      "type": "function"
    },
    {
      "inputs": [],
      "name": "liquidityGauge",
      "outputs": [
        {
          "internalType": "address",
          "name": "",
          "type": "address"
        }
      ],
      "stateMutability": "view",
      "type": "function"
    },
    {
      "inputs": [],
      "name": "managementFee",
      "outputs": [
        {
          "internalType": "uint256",
          "name": "",
          "type": "uint256"
        }
      ],
      "stateMutability": "view",
      "type": "function"
    },
    {
      "inputs": [],
      "name": "maxRedeem",
      "outputs": [],
      "stateMutability": "nonpayable",
      "type": "function"
    },
    {
      "inputs": [],
      "name": "name",
      "outputs": [
        {
          "internalType": "string",
          "name": "",
          "type": "string"
        }
      ],
      "stateMutability": "view",
      "type": "function"
    },
    {
      "inputs": [],
      "name": "nextOption",
      "outputs": [
        {
          "internalType": "address",
          "name": "",
          "type": "address"
        }
      ],
      "stateMutability": "view",
      "type": "function"
    },
    {
      "inputs": [],
      "name": "nextOptionReadyAt",
      "outputs": [
        {
          "internalType": "uint256",
          "name": "",
          "type": "uint256"
        }
      ],
      "stateMutability": "view",
      "type": "function"
    },
    {
      "inputs": [],
      "name": "optionAuctionID",
      "outputs": [
        {
          "internalType": "uint256",
          "name": "",
          "type": "uint256"
        }
      ],
      "stateMutability": "view",
      "type": "function"
    },
    {
      "inputs": [],
      "name": "optionState",
      "outputs": [
        {
          "internalType": "address",
          "name": "nextOption",
          "type": "address"
        },
        {
          "internalType": "address",
          "name": "currentOption",
          "type": "address"
        },
        {
          "internalType": "uint32",
          "name": "nextOptionReadyAt",
          "type": "uint32"
        }
      ],
      "stateMutability": "view",
      "type": "function"
    },
    {
      "inputs": [],
      "name": "optionsPremiumPricer",
      "outputs": [
        {
          "internalType": "address",
          "name": "",
          "type": "address"
        }
      ],
      "stateMutability": "view",
      "type": "function"
    },
    {
      "inputs": [],
      "name": "overriddenStrikePrice",
      "outputs": [
        {
          "internalType": "uint256",
          "name": "",
          "type": "uint256"
        }
      ],
      "stateMutability": "view",
      "type": "function"
    },
    {
      "inputs": [],
      "name": "owner",
      "outputs": [
        {
          "internalType": "address",
          "name": "",
          "type": "address"
        }
      ],
      "stateMutability": "view",
      "type": "function"
    },
    {
      "inputs": [],
      "name": "pausePosition",
      "outputs": [],
      "stateMutability": "nonpayable",
      "type": "function"
    },
    {
      "inputs": [],
      "name": "performanceFee",
      "outputs": [
        {
          "internalType": "uint256",
          "name": "",
          "type": "uint256"
        }
      ],
      "stateMutability": "view",
      "type": "function"
    },
    {
      "inputs": [],
      "name": "premiumDiscount",
      "outputs": [
        {
          "internalType": "uint256",
          "name": "",
          "type": "uint256"
        }
      ],
      "stateMutability": "view",
      "type": "function"
    },
    {
      "inputs": [],
      "name": "pricePerShare",
      "outputs": [
        {
          "internalType": "uint256",
          "name": "",
          "type": "uint256"
        }
      ],
      "stateMutability": "view",
      "type": "function"
    },
    {
      "inputs": [
        {
          "internalType": "uint256",
          "name": "numShares",
          "type": "uint256"
        }
      ],
      "name": "redeem",
      "outputs": [],
      "stateMutability": "nonpayable",
      "type": "function"
    },
    {
      "inputs": [],
      "name": "renounceOwnership",
      "outputs": [],
      "stateMutability": "nonpayable",
      "type": "function"
    },
    {
      "inputs": [],
      "name": "rollToNextOption",
      "outputs": [],
      "stateMutability": "nonpayable",
      "type": "function"
    },
    {
      "inputs": [
        {
          "internalType": "uint256",
          "name": "",
          "type": "uint256"
        }
      ],
      "name": "roundPricePerShare",
      "outputs": [
        {
          "internalType": "uint256",
          "name": "",
          "type": "uint256"
        }
      ],
      "stateMutability": "view",
      "type": "function"
    },
    {
      "inputs": [],
      "name": "sendLDORewards",
      "outputs": [],
      "stateMutability": "nonpayable",
      "type": "function"
    },
    {
      "inputs": [
        {
          "internalType": "uint256",
          "name": "newAuctionDuration",
          "type": "uint256"
        }
      ],
      "name": "setAuctionDuration",
      "outputs": [],
      "stateMutability": "nonpayable",
      "type": "function"
    },
    {
      "inputs": [
        {
          "internalType": "uint256",
          "name": "newCap",
          "type": "uint256"
        }
      ],
      "name": "setCap",
      "outputs": [],
      "stateMutability": "nonpayable",
      "type": "function"
    },
    {
      "inputs": [
        {
          "internalType": "address",
          "name": "newFeeRecipient",
          "type": "address"
        }
      ],
      "name": "setFeeRecipient",
      "outputs": [],
      "stateMutability": "nonpayable",
      "type": "function"
    },
    {
      "inputs": [
        {
          "internalType": "address",
          "name": "newLiquidityGauge",
          "type": "address"
        }
      ],
      "name": "setLiquidityGauge",
      "outputs": [],
      "stateMutability": "nonpayable",
      "type": "function"
    },
    {
      "inputs": [
        {
          "internalType": "uint256",
          "name": "newManagementFee",
          "type": "uint256"
        }
      ],
      "name": "setManagementFee",
      "outputs": [],
      "stateMutability": "nonpayable",
      "type": "function"
    },
    {
      "inputs": [
        {
          "internalType": "uint256",
          "name": "minPrice",
          "type": "uint256"
        }
      ],
      "name": "setMinPrice",
      "outputs": [],
      "stateMutability": "nonpayable",
      "type": "function"
    },
    {
      "inputs": [
        {
          "internalType": "address",
          "name": "newKeeper",
          "type": "address"
        }
      ],
      "name": "setNewKeeper",
      "outputs": [],
      "stateMutability": "nonpayable",
      "type": "function"
    },
    {
      "inputs": [
        {
          "internalType": "uint256",
          "name": "newPerformanceFee",
          "type": "uint256"
        }
      ],
      "name": "setPerformanceFee",
      "outputs": [],
      "stateMutability": "nonpayable",
      "type": "function"
    },
    {
      "inputs": [
        {
          "internalType": "uint256",
          "name": "newPremiumDiscount",
          "type": "uint256"
        }
      ],
      "name": "setPremiumDiscount",
      "outputs": [],
      "stateMutability": "nonpayable",
      "type": "function"
    },
    {
      "inputs": [
        {
          "internalType": "uint128",
          "name": "strikePrice",
          "type": "uint128"
        }
      ],
      "name": "setStrikePrice",
      "outputs": [],
      "stateMutability": "nonpayable",
      "type": "function"
    },
    {
      "inputs": [
        {
          "internalType": "address",
          "name": "newContract",
          "type": "address"
        },
        {
          "internalType": "bool",
          "name": "isStrikeSelection",
          "type": "bool"
        }
      ],
      "name": "setStrikeSelectionOrPricer",
      "outputs": [],
      "stateMutability": "nonpayable",
      "type": "function"
    },
    {
      "inputs": [
        {
          "internalType": "address",
          "name": "newVaultPauser",
          "type": "address"
        }
      ],
      "name": "setVaultPauser",
      "outputs": [],
      "stateMutability": "nonpayable",
      "type": "function"
    },
    {
      "inputs": [
        {
          "internalType": "address",
          "name": "account",
          "type": "address"
        }
      ],
      "name": "shareBalances",
      "outputs": [
        {
          "internalType": "uint256",
          "name": "heldByAccount",
          "type": "uint256"
        },
        {
          "internalType": "uint256",
          "name": "heldByVault",
          "type": "uint256"
        }
      ],
      "stateMutability": "view",
      "type": "function"
    },
    {
      "inputs": [
        {
          "internalType": "address",
          "name": "account",
          "type": "address"
        }
      ],
      "name": "shares",
      "outputs": [
        {
          "internalType": "uint256",
          "name": "",
          "type": "uint256"
        }
      ],
      "stateMutability": "view",
      "type": "function"
    },
    {
      "inputs": [
        {
          "internalType": "uint256",
          "name": "numShares",
          "type": "uint256"
        }
      ],
      "name": "stake",
      "outputs": [],
      "stateMutability": "nonpayable",
      "type": "function"
    },
    {
      "inputs": [],
      "name": "startAuction",
      "outputs": [],
      "stateMutability": "nonpayable",
      "type": "function"
    },
    {
      "inputs": [],
      "name": "strikeSelection",
      "outputs": [
        {
          "internalType": "address",
          "name": "",
          "type": "address"
        }
      ],
      "stateMutability": "view",
      "type": "function"
    },
    {
      "inputs": [],
      "name": "symbol",
      "outputs": [
        {
          "internalType": "string",
          "name": "",
          "type": "string"
        }
      ],
      "stateMutability": "view",
      "type": "function"
    },
    {
      "inputs": [],
      "name": "totalBalance",
      "outputs": [
        {
          "internalType": "uint256",
          "name": "",
          "type": "uint256"
        }
      ],
      "stateMutability": "view",
      "type": "function"
    },
    {
      "inputs": [],
      "name": "totalPending",
      "outputs": [
        {
          "internalType": "uint256",
          "name": "",
          "type": "uint256"
        }
      ],
      "stateMutability": "view",
      "type": "function"
    },
    {
      "inputs": [],
      "name": "totalSupply",
      "outputs": [
        {
          "internalType": "uint256",
          "name": "",
          "type": "uint256"
        }
      ],
      "stateMutability": "view",
      "type": "function"
    },
    {
      "inputs": [
        {
          "internalType": "address",
          "name": "recipient",
          "type": "address"
        },
        {
          "internalType": "uint256",
          "name": "amount",
          "type": "uint256"
        }
      ],
      "name": "transfer",
      "outputs": [
        {
          "internalType": "bool",
          "name": "",
          "type": "bool"
        }
      ],
      "stateMutability": "nonpayable",
      "type": "function"
    },
    {
      "inputs": [
        {
          "internalType": "address",
          "name": "sender",
          "type": "address"
        },
        {
          "internalType": "address",
          "name": "recipient",
          "type": "address"
        },
        {
          "internalType": "uint256",
          "name": "amount",
          "type": "uint256"
        }
      ],
      "name": "transferFrom",
      "outputs": [
        {
          "internalType": "bool",
          "name": "",
          "type": "bool"
        }
      ],
      "stateMutability": "nonpayable",
      "type": "function"
    },
    {
      "inputs": [
        {
          "internalType": "address",
          "name": "newOwner",
          "type": "address"
        }
      ],
      "name": "transferOwnership",
      "outputs": [],
      "stateMutability": "nonpayable",
      "type": "function"
    },
    {
      "inputs": [],
      "name": "vaultParams",
      "outputs": [
        {
          "internalType": "bool",
          "name": "isPut",
          "type": "bool"
        },
        {
          "internalType": "uint8",
          "name": "decimals",
          "type": "uint8"
        },
        {
          "internalType": "address",
          "name": "asset",
          "type": "address"
        },
        {
          "internalType": "address",
          "name": "underlying",
          "type": "address"
        },
        {
          "internalType": "uint56",
          "name": "minimumSupply",
          "type": "uint56"
        },
        {
          "internalType": "uint104",
          "name": "cap",
          "type": "uint104"
        }
      ],
      "stateMutability": "view",
      "type": "function"
    },
    {
      "inputs": [],
      "name": "vaultPauser",
      "outputs": [
        {
          "internalType": "address",
          "name": "",
          "type": "address"
        }
      ],
      "stateMutability": "view",
      "type": "function"
    },
    {
      "inputs": [],
      "name": "vaultState",
      "outputs": [
        {
          "internalType": "uint16",
          "name": "round",
          "type": "uint16"
        },
        {
          "internalType": "uint104",
          "name": "lockedAmount",
          "type": "uint104"
        },
        {
          "internalType": "uint104",
          "name": "lastLockedAmount",
          "type": "uint104"
        },
        {
          "internalType": "uint128",
          "name": "totalPending",
          "type": "uint128"
        },
        {
          "internalType": "uint128",
          "name": "queuedWithdrawShares",
          "type": "uint128"
        }
      ],
      "stateMutability": "view",
      "type": "function"
    },
    {
      "inputs": [
        {
          "internalType": "uint256",
          "name": "amount",
          "type": "uint256"
        },
        {
          "internalType": "uint256",
          "name": "",
          "type": "uint256"
        }
      ],
      "name": "withdrawInstantly",
      "outputs": [],
      "stateMutability": "nonpayable",
      "type": "function"
    },
    {
      "inputs": [
        {
          "internalType": "address",
          "name": "",
          "type": "address"
        }
      ],
      "name": "withdrawals",
      "outputs": [
        {
          "internalType": "uint16",
          "name": "round",
          "type": "uint16"
        },
        {
          "internalType": "uint128",
          "name": "shares",
          "type": "uint128"
        }
      ],
      "stateMutability": "view",
      "type": "function"
    }
  ],
  "transactionHash": "0xd574977d89659fe3c88109ab6add799f03abb7ca6d42816815edd46a5b6338f8",
  "args": [
    "0xC02aaA39b223FE8D0A0e5C4F27eAD9083C756Cc2",
    "0xA0b86991c6218b36c1d19D4a2e9Eb0cE3606eB48",
    "0x7f39C581F595B53c5cb19bD0b3f8dA6c935E2Ca0",
    "0x5A98FcBEA516Cf06857215779Fd812CA3beF1B32",
    "0x7C06792Af1632E77cb27a558Dc0885338F4Bdf8E",
    "0x4ccc2339F87F6c59c6893E1A678c2266cA58dC72",
    "0x5934807cC0654d46755eBd2848840b616256C6Ef",
    "0x0b7fFc1f4AD541A4Ed16b40D8c37f0929158D101"
  ],
  "solcInputHash": "9be2afd118232434b07255c894c5e6e0",
  "bytecode": "0x6101a06040523480156200001257600080fd5b50604051620065a7380380620065a78339810160408190526200003591620003b3565b878787878686866001600160a01b038716620000815760405162461bcd60e51b8152602060048201526006602482015265042beeecae8d60d31b60448201526064015b60405180910390fd5b6001600160a01b038616620000c25760405162461bcd60e51b8152602060048201526006602482015265215f7573646360d01b604482015260640162000078565b6001600160a01b038516620001055760405162461bcd60e51b8152602060048201526008602482015267042beeee6e8cae8d60c31b604482015260640162000078565b6001600160a01b038416620001455760405162461bcd60e51b8152602060048201526005602482015264215f6c646f60d81b604482015260640162000078565b6001600160a01b0381166200019d5760405162461bcd60e51b815260206004820152601360248201527f215f676e6f7369734561737941756374696f6e00000000000000000000000000604482015260640162000078565b6001600160a01b038316620001e95760405162461bcd60e51b815260206004820152601160248201527010afb3b0b6b6b0a1b7b73a3937b63632b960791b604482015260640162000078565b6001600160a01b038216620002305760405162461bcd60e51b815260206004820152600c60248201526b0857db585c99da5b941bdbdb60a21b604482015260640162000078565b6001600160601b0319606088811b821660a05287811b821660c05285901b1660e0526040805163183fc7c960e31b815290516001600160a01b0387169163c1fe3e48916004808301926020929190829003018186803b1580156200029357600080fd5b505afa158015620002a8573d6000803e3d6000fd5b505050506040513d601f19601f82011682018060405250810190620002ce91906200038f565b6001600160601b0319606091821b81166101605293811b84166101005291821b831661012052811b8216610140529290921b9091166080525050506001600160a01b038416620003535760405162461bcd60e51b815260206004820152600f60248201526e215f6f546f6b656e466163746f727960881b604482015260640162000078565b50505060601b6001600160601b03191661018052506200045a92505050565b80516001600160a01b03811681146200038a57600080fd5b919050565b600060208284031215620003a1578081fd5b620003ac8262000372565b9392505050565b600080600080600080600080610100898b031215620003d0578384fd5b620003db8962000372565b9750620003eb60208a0162000372565b9650620003fb60408a0162000372565b95506200040b60608a0162000372565b94506200041b60808a0162000372565b93506200042b60a08a0162000372565b92506200043b60c08a0162000372565b91506200044b60e08a0162000372565b90509295985092959890939650565b60805160601c60a05160601c60c05160601c60e05160601c6101005160601c6101205160601c6101405160601c6101605160601c6101805160601c615ffd620005aa60003960008181610ffa0152612f4901526000818161107401528181611898015281816122d5015281816128480152818161291c015281816138140152818161442e0152614b7e0152600081816109790152613959015260008181610877015261261701526000818161058d015281816116b0015281816125ef01526148ef015260008181610fa60152611bc6015260008181610b3f0152612f6e015260008181610e3201528181611848015281816121230152818161440c0152614590015260008181610e9b0152818161177501528181611870015281816121ba015281816124630152818161250101528181612870015281816130190152818161439b0152614ba60152615ffd6000f3fe6080604052600436106104c05760003560e01c80638da5cb5b11610276578063c63218391161014f578063e16fdbd5116100c1578063f6326fb311610085578063f6326fb314611121578063f656ba5114611129578063f756fa211461115e578063f957a06714611173578063f9a0be6814611193578063fe56e232146111b357600080fd5b8063e16fdbd514611096578063e73c63d5146110b6578063e74b981b146110cc578063ea00b1ca146110ec578063f2fde38b1461110157600080fd5b8063d5f2638211610113578063d5f2638214610f7e578063d88bba1114610f94578063db006a7514610fc8578063db43e86214610fe8578063dd62ed3e1461101c578063e00bfe501461106257600080fd5b8063c632183914610ee9578063ca59409414610f09578063ce7c2ac214610f1e578063d13f1b3e14610f3e578063d164cc1514610f5e57600080fd5b8063a694fc3a116101e8578063ad5c4648116101ac578063ad5c464814610e20578063ad7a672f14610e54578063afa6626414610e69578063b2016bd414610e89578063b4d1d79514610ebd578063b9f8092b14610ed457600080fd5b8063a694fc3a14610d97578063a6f7f5d614610db7578063a9059cbb14610dcd578063aa67c91914610ded578063aced166114610e0057600080fd5b80639fcc2d751161023a5780639fcc2d7514610c08578063a083ff1714610cb4578063a285c9e814610d17578063a2db9d8314610d39578063a457c2d714610d57578063a497e67414610d7757600080fd5b80638da5cb5b14610b7f578063947061b514610b9d57806395d89b4114610bbe57806399530b0614610bd35780639be43daa14610be857600080fd5b8063573f0d6e116103a857806370a082311161031a5780637e108d52116102de5780637e108d5214610ab457806383536ff314610ad457806387153eb114610aea5780638778878214610b1757806389a3027114610b2d5780638b10cc7c14610b6157600080fd5b806370a08231146109d0578063715018a614610a065780637400173d14610a1b5780637a9262a214610a3b5780637bf5108614610a9f57600080fd5b80636719b2ee1161036c5780636719b2ee146108b957806369b411701461093d5780636b64c769146109525780636c10f66c146109675780636f31ab341461099b57806370897b23146109b057600080fd5b8063573f0d6e146108105780635ea8cd1214610830578063600a2cfb14610850578063650cce8a1461086557806365ea421e1461089957600080fd5b8063355274ea11610441578063432833a611610405578063432833a61461076e578063469048401461078457806347786d37146107a45780634b2431d9146107c4578063503c70aa146107da57806355489bb2146107f057600080fd5b8063355274ea146106c457806339509351146106e25780633ec143d3146107025780633f23bb73146107305780633f90916a1461075057600080fd5b80631a92f6c2116104885780631a92f6c21461057b57806323b872dd146105c75780632728f333146105e7578063313ce5671461067a57806331807e42146106a457600080fd5b8063048bf085146104c557806306fdde03146104e7578063095ea7b3146105125780630cbf54c81461054257806318160ddd14610566575b600080fd5b3480156104d157600080fd5b506104e56104e03660046155fe565b6111d3565b005b3480156104f357600080fd5b506104fc611228565b6040516105099190615a62565b60405180910390f35b34801561051e57600080fd5b5061053261052d3660046157be565b6112ba565b6040519015158152602001610509565b34801561054e57600080fd5b5061055860fb5481565b604051908152602001610509565b34801561057257600080fd5b50609954610558565b34801561058757600080fd5b506105af7f000000000000000000000000000000000000000000000000000000000000000081565b6040516001600160a01b039091168152602001610509565b3480156105d357600080fd5b506105326105e2366004615751565b6112d1565b3480156105f357600080fd5b5060cf5460d0546106359161ffff8116916001600160681b03620100008304811692600160781b900416906001600160801b0380821691600160801b90041685565b6040805161ffff90961686526001600160681b03948516602087015293909216928401929092526001600160801b03918216606084015216608082015260a001610509565b34801561068657600080fd5b5060cc54610100900460ff1660405160ff9091168152602001610509565b3480156106b057600080fd5b506104e56106bf366004615862565b61137d565b3480156106d057600080fd5b5060ce546001600160681b0316610558565b3480156106ee57600080fd5b506105326106fd3660046157be565b61138a565b34801561070e57600080fd5b5060f95461071d9061ffff1681565b60405161ffff9091168152602001610509565b34801561073c57600080fd5b5061055861074b3660046155fe565b6113c6565b34801561075c57600080fd5b5060d0546001600160801b0316610558565b34801561077a57600080fd5b5061055860fc5481565b34801561079057600080fd5b5060d3546105af906001600160a01b031681565b3480156107b057600080fd5b506104e56107bf366004615862565b611419565b3480156107d057600080fd5b5061055860ff5481565b3480156107e657600080fd5b5061055860fd5481565b3480156107fc57600080fd5b506104e561080b36600461583b565b6114f4565b34801561081c57600080fd5b506104e561082b3660046155fe565b61158c565b34801561083c57600080fd5b506104e561084b366004615862565b6115d9565b34801561085c57600080fd5b506104e5611644565b34801561087157600080fd5b506105af7f000000000000000000000000000000000000000000000000000000000000000081565b3480156108a557600080fd5b506104e56108b4366004615892565b611913565b3480156108c557600080fd5b5061090c6108d43660046155fe565b60c96020526000908152604090205461ffff8116906201000081046001600160681b031690600160781b90046001600160801b031683565b6040805161ffff90941684526001600160681b0390921660208401526001600160801b031690820152606001610509565b34801561094957600080fd5b50610558600081565b34801561095e57600080fd5b506104e5611963565b34801561097357600080fd5b506105af7f000000000000000000000000000000000000000000000000000000000000000081565b3480156109a757600080fd5b506104e56119c3565b3480156109bc57600080fd5b506104e56109cb366004615862565b6119fa565b3480156109dc57600080fd5b506105586109eb3660046155fe565b6001600160a01b031660009081526097602052604090205490565b348015610a1257600080fd5b506104e5611ac1565b348015610a2757600080fd5b506104e5610a36366004615791565b611af7565b348015610a4757600080fd5b50610a7d610a563660046155fe565b60cb6020526000908152604090205461ffff8116906201000090046001600160801b031682565b6040805161ffff90931683526001600160801b03909116602083015201610509565b348015610aab57600080fd5b506104e5611bae565b348015610ac057600080fd5b506104e5610acf366004615862565b611c63565b348015610ae057600080fd5b5061055860f75481565b348015610af657600080fd5b50610558610b05366004615862565b60ca6020526000908152604090205481565b348015610b2357600080fd5b5061055860d55481565b348015610b3957600080fd5b506105af7f000000000000000000000000000000000000000000000000000000000000000081565b348015610b6d57600080fd5b5060d2546001600160a01b03166105af565b348015610b8b57600080fd5b506065546001600160a01b03166105af565b348015610ba957600080fd5b50610100546105af906001600160a01b031681565b348015610bca57600080fd5b506104fc611cab565b348015610bdf57600080fd5b50610558611cba565b348015610bf457600080fd5b506104e5610c03366004615862565b611cf4565b348015610c1457600080fd5b5060cc5460cd5460ce54610c649260ff808216936101008304909116926001600160a01b036201000090930483169282169166ffffffffffffff600160a01b90910416906001600160681b031686565b60408051961515875260ff90951660208701526001600160a01b03938416948601949094529116606084015266ffffffffffffff1660808301526001600160681b031660a082015260c001610509565b348015610cc057600080fd5b5060d15460d254610ceb916001600160a01b039081169190811690600160a01b900463ffffffff1683565b604080516001600160a01b03948516815293909216602084015263ffffffff1690820152606001610509565b348015610d2357600080fd5b5060d254600160a01b900463ffffffff16610558565b348015610d4557600080fd5b5060d1546001600160a01b03166105af565b348015610d6357600080fd5b50610532610d723660046157be565b611dee565b348015610d8357600080fd5b506104e5610d92366004615862565b611e87565b348015610da357600080fd5b506104e5610db2366004615862565b611f44565b348015610dc357600080fd5b5061055860d65481565b348015610dd957600080fd5b50610532610de83660046157be565b612041565b6104e5610dfb3660046155fe565b61204e565b348015610e0c57600080fd5b5060d4546105af906001600160a01b031681565b348015610e2c57600080fd5b506105af7f000000000000000000000000000000000000000000000000000000000000000081565b348015610e6057600080fd5b50610558612101565b348015610e7557600080fd5b5060f5546105af906001600160a01b031681565b348015610e9557600080fd5b506105af7f000000000000000000000000000000000000000000000000000000000000000081565b348015610ec957600080fd5b5061055862093a8081565b348015610ee057600080fd5b506104e561238c565b348015610ef557600080fd5b506104e5610f043660046158b6565b6126c3565b348015610f1557600080fd5b506104e5612989565b348015610f2a57600080fd5b50610558610f393660046155fe565b612a2c565b348015610f4a57600080fd5b506104e5610f59366004615862565b612a49565b348015610f6a57600080fd5b506104e5610f793660046155fe565b612b0e565b348015610f8a57600080fd5b5061055860f85481565b348015610fa057600080fd5b506105af7f000000000000000000000000000000000000000000000000000000000000000081565b348015610fd457600080fd5b506104e5610fe3366004615862565b612b9d565b348015610ff457600080fd5b506105af7f000000000000000000000000000000000000000000000000000000000000000081565b34801561102857600080fd5b5061055861103736600461561a565b6001600160a01b03918216600090815260986020908152604080832093909416825291909152205490565b34801561106e57600080fd5b506105af7f000000000000000000000000000000000000000000000000000000000000000081565b3480156110a257600080fd5b506104e56110b1366004615652565b612c0a565b3480156110c257600080fd5b5061055860fa5481565b3480156110d857600080fd5b506104e56110e73660046155fe565b612e16565b3480156110f857600080fd5b506104e5612f09565b34801561110d57600080fd5b506104e561111c3660046155fe565b613182565b6104e561321a565b34801561113557600080fd5b506111496111443660046155fe565b613284565b60408051928352602083019190915201610509565b34801561116a57600080fd5b506104e5613367565b34801561117f57600080fd5b5060f6546105af906001600160a01b031681565b34801561119f57600080fd5b5060fe546105af906001600160a01b031681565b3480156111bf57600080fd5b506104e56111ce366004615862565b6133bc565b6065546001600160a01b031633146112065760405162461bcd60e51b81526004016111fd90615ae4565b60405180910390fd5b60fe80546001600160a01b0319166001600160a01b0392909216919091179055565b6060609a805461123790615db7565b80601f016020809104026020016040519081016040528092919081815260200182805461126390615db7565b80156112b05780601f10611285576101008083540402835291602001916112b0565b820191906000526020600020905b81548152906001019060200180831161129357829003601f168201915b5050505050905090565b60006112c733848461349d565b5060015b92915050565b60006112de8484846135c2565b6001600160a01b0384166000908152609860209081526040808320338452909152902054828110156113635760405162461bcd60e51b815260206004820152602860248201527f45524332303a207472616e7366657220616d6f756e74206578636565647320616044820152676c6c6f77616e636560c01b60648201526084016111fd565b611370853385840361349d565b60019150505b9392505050565b6113878133613792565b50565b3360008181526098602090815260408083206001600160a01b038716845290915281205490916112c79185906113c1908690615c32565b61349d565b60cc5460009060ff61010090910416816113fc6113e260995490565b6113ea612101565b60d0546001600160801b031685613844565b905061141161140a85612a2c565b8284613884565b949350505050565b6065546001600160a01b031633146114435760405162461bcd60e51b81526004016111fd90615ae4565b6000811161147d5760405162461bcd60e51b81526020600482015260076024820152660216e65774361760cc1b60448201526064016111fd565b611486816138e6565b60ce54604080516001600160681b039092168252602082018390527f5f86edbb9d92228a9edc3f0ebc0f001bda1ea345ac7335e0eeef3504b31d1a1c910160405180910390a160ce80546cffffffffffffffffffffffffff19166001600160681b0392909216919091179055565b6065546001600160a01b0316331461151e5760405162461bcd60e51b81526004016111fd90615ae4565b6000816001600160801b0316116115665760405162461bcd60e51b815260206004820152600c60248201526b21737472696b65507269636560a01b60448201526064016111fd565b6001600160801b031660fa5560cf5460f9805461ffff191661ffff909216919091179055565b6065546001600160a01b031633146115b65760405162461bcd60e51b81526004016111fd90615ae4565b61010080546001600160a01b0319166001600160a01b0392909216919091179055565b60d4546001600160a01b031633146116035760405162461bcd60e51b81526004016111fd90615a75565b6000811161163f5760405162461bcd60e51b8152602060048201526009602482015268216d696e507269636560b81b60448201526064016111fd565b60f855565b60d4546001600160a01b0316331461166e5760405162461bcd60e51b81526004016111fd90615a75565b600260015414156116915760405162461bcd60e51b81526004016111fd90615b19565b600260015560d2546040516358ffbb3d60e01b81526001600160a01b037f00000000000000000000000000000000000000000000000000000000000000008116600483015290911660248201526000907325Af99Ff07575Ac55fB3C2D1E6B920Ba3bf67B40906358ffbb3d9060440160206040518083038186803b15801561171857600080fd5b505af415801561172c573d6000803e3d6000fd5b505050506040513d601f19601f82011682018060405250810190611750919061587a565b604051632eca54bf60e21b815260048101829052909150611807906001600160a01b037f0000000000000000000000000000000000000000000000000000000000000000169063bb2952fc9060240160206040518083038186803b1580156117b757600080fd5b505afa1580156117cb573d6000803e3d6000fd5b505050506040513d601f19601f820116820180604052508101906117ef919061587a565b60cf546201000090046001600160681b031690613930565b60cf805462010000600160781b031916620100006001600160681b039390931692909202919091179055604051631989ea7560e21b81526001600160a01b037f0000000000000000000000000000000000000000000000000000000000000000811660048301527f0000000000000000000000000000000000000000000000000000000000000000811660248301527f00000000000000000000000000000000000000000000000000000000000000001660448201527321f0FF1D33F76B938dec63cfFe0eE6171F4Bd6B090636627a9d49060640160006040518083038186803b1580156118f457600080fd5b505af4158015611908573d6000803e3d6000fd5b505060018055505050565b6001600160a01b0381166119555760405162461bcd60e51b815260206004820152600960248201526810b1b932b234ba37b960b91b60448201526064016111fd565b61195f8282613792565b5050565b60d4546001600160a01b0316331461198d5760405162461bcd60e51b81526004016111fd90615a75565b600260015414156119b05760405162461bcd60e51b81526004016111fd90615b19565b60026001556119bd61393c565b60018055565b600260015414156119e65760405162461bcd60e51b81526004016111fd90615b19565b60026001819055506119bd60006001613a6f565b6065546001600160a01b03163314611a245760405162461bcd60e51b81526004016111fd90615ae4565b611a32620f42406064615d55565b8110611a805760405162461bcd60e51b815260206004820152601760248201527f496e76616c696420706572666f726d616e63652066656500000000000000000060448201526064016111fd565b60d55460408051918252602082018390527f24867dfb6fcb9970a07be21024956524abe7a1837faa903ff0e99aaa40cf893e910160405180910390a160d555565b6065546001600160a01b03163314611aeb5760405162461bcd60e51b81526004016111fd90615ae4565b611af56000613c1e565b565b6065546001600160a01b03163314611b215760405162461bcd60e51b81526004016111fd90615ae4565b6001600160a01b038216611b665760405162461bcd60e51b815260206004820152600c60248201526b085b995dd0dbdb9d1c9858dd60a21b60448201526064016111fd565b8015611b8d5760f680546001600160a01b0384166001600160a01b03199091161790555050565b60f580546001600160a01b0384166001600160a01b03199091161790555050565b60d3546040516370a0823160e01b81523060048201527f000000000000000000000000000000000000000000000000000000000000000091611387916001600160a01b03918216918416906370a082319060240160206040518083038186803b158015611c1a57600080fd5b505afa158015611c2e573d6000803e3d6000fd5b505050506040513d601f19601f82011682018060405250810190611c52919061587a565b6001600160a01b0384169190613c70565b60026001541415611c865760405162461bcd60e51b81526004016111fd90615b19565b6002600155611c9481613cd8565b60ff54611ca19082613e9f565b60ff555060018055565b6060609b805461123790615db7565b6000611cef611cc860995490565b611cd0612101565b60d05460cc546001600160801b0390911690610100900460ff16613844565b905090565b60026001541415611d175760405162461bcd60e51b81526004016111fd90615b19565b600260015580611d565760405162461bcd60e51b815260206004820152600a602482015269216e756d526f756e647360b01b60448201526064016111fd565b60cf5461ffff1660005b82811015611de5576000611d748284615c32565b600081815260ca602052604090205490915015611dc15760405162461bcd60e51b815260206004820152600b60248201526a125b9a5d1a585b1a5e995960aa1b60448201526064016111fd565b600090815260ca602052604090206001905580611ddd81615dec565b915050611d60565b50506001805550565b3360009081526098602090815260408083206001600160a01b038616845290915281205482811015611e705760405162461bcd60e51b815260206004820152602560248201527f45524332303a2064656372656173656420616c6c6f77616e63652062656c6f77604482015264207a65726f60d81b60648201526084016111fd565b611e7d338585840361349d565b5060019392505050565b6065546001600160a01b03163314611eb15760405162461bcd60e51b81526004016111fd90615ae4565b61012c811015611f035760405162461bcd60e51b815260206004820152601860248201527f496e76616c69642061756374696f6e206475726174696f6e000000000000000060448201526064016111fd565b60fb5460408051918252602082018390527f5acd982e2240ed224a69aa03dab039d3797c108e4b5f288cd7dd6ca181b275f3910160405180910390a160fb55565b60026001541415611f675760405162461bcd60e51b81526004016111fd90615b19565b600260015560fe546001600160a01b031680611f8257600080fd5b60008211611f8f57600080fd5b3360009081526097602052604090205482811015611fbb57611fbb611fb48483613930565b6000613a6f565b611fc63330856135c2565b611fd130838561349d565b6040516383df674760e01b815260048101849052336024820152600060448201526001600160a01b038316906383df674790606401600060405180830381600087803b15801561202057600080fd5b505af1158015612034573d6000803e3d6000fd5b5050600180555050505050565b60006112c73384846135c2565b600260015414156120715760405162461bcd60e51b81526004016111fd90615b19565b6002600155346120ac5760405162461bcd60e51b81526020600482015260066024820152652176616c756560d01b60448201526064016111fd565b6001600160a01b0381166120ee5760405162461bcd60e51b815260206004820152600960248201526810b1b932b234ba37b960b91b60448201526064016111fd565b6120fa34826001613eab565b5060018055565b6040516370a0823160e01b815230600482015260009081906001600160a01b037f000000000000000000000000000000000000000000000000000000000000000016906370a082319060240160206040518083038186803b15801561216557600080fd5b505afa158015612179573d6000803e3d6000fd5b505050506040513d601f19601f8201168201806040525081019061219d919061587a565b6040516370a0823160e01b815230600482015290915047906000907f00000000000000000000000000000000000000000000000000000000000000006001600160a01b03169063bb2952fc9082906370a082319060240160206040518083038186803b15801561220c57600080fd5b505afa158015612220573d6000803e3d6000fd5b505050506040513d601f19601f82011682018060405250810190612244919061587a565b6040518263ffffffff1660e01b815260040161226291815260200190565b60206040518083038186803b15801561227a57600080fd5b505afa15801561228e573d6000803e3d6000fd5b505050506040513d601f19601f820116820180604052508101906122b2919061587a565b6040516370a0823160e01b81523060048201529091506000906001600160a01b037f000000000000000000000000000000000000000000000000000000000000000016906370a082319060240160206040518083038186803b15801561231757600080fd5b505afa15801561232b573d6000803e3d6000fd5b505050506040513d601f19601f8201168201806040525081019061234f919061587a565b60cf5490915061238390829061237d9085908290889082908b906201000090046001600160681b0316613e9f565b90613e9f565b94505050505090565b60d4546001600160a01b031633146123b65760405162461bcd60e51b81526004016111fd90615a75565b600260015414156123d95760405162461bcd60e51b81526004016111fd90615b19565b600260015560ff5460fd5460009081906123f3908461414a565b60fd81905560d054919350915060009061241d90600160801b90046001600160801b031685613e9f565b905061242881614649565b60d080546001600160801b03808416600160801b029116179055600060ff81905560405162b0e38960e81b8152612589906001600160a01b037f0000000000000000000000000000000000000000000000000000000000000000169063b0e389009061249c90879060040190815260200190565b60206040518083038186803b1580156124b457600080fd5b505afa1580156124c8573d6000803e3d6000fd5b505050506040513d601f19601f820116820180604052508101906124ec919061587a565b6040516370a0823160e01b81523060048201527f00000000000000000000000000000000000000000000000000000000000000006001600160a01b0316906370a082319060240160206040518083038186803b15801561254b57600080fd5b505afa15801561255f573d6000803e3d6000fd5b505050506040513d601f19601f82011682018060405250810190612583919061587a565b90613930565b9050336001600160a01b0316846001600160a01b03167f045c558fdce4714c5816d53820d27420f4cd860892df203fe636384d8d19aa01836040516125d091815260200190565b60405180910390a3604051632904c23960e01b81526001600160a01b037f0000000000000000000000000000000000000000000000000000000000000000811660048301527f00000000000000000000000000000000000000000000000000000000000000008116602483015285166044820152606481018290527321f0FF1D33F76B938dec63cfFe0eE6171F4Bd6B090632904c2399060840160206040518083038186803b15801561268257600080fd5b505af4158015612696573d6000803e3d6000fd5b505050506040513d601f19601f820116820180604052508101906126ba919061587a565b5061190861393c565b600260015414156126e65760405162461bcd60e51b81526004016111fd90615b19565b600260015533600090815260c96020526040902060cf5461ffff16836127385760405162461bcd60e51b815260206004820152600760248201526608585b5bdd5b9d60ca1b60448201526064016111fd565b815461ffff16811461277c5760405162461bcd60e51b815260206004820152600d60248201526c125b9d985b1a59081c9bdd5b99609a1b60448201526064016111fd565b81546201000090046001600160681b0316848110156127cd5760405162461bcd60e51b815260206004820152600d60248201526c115e18d9595908185b5bdd5b9d609a1b60448201526064016111fd565b6127d78186613930565b83546001600160681b0391909116620100000262010000600160781b031990911617835560d054612811906001600160801b031686613930565b60d080546001600160801b0319166001600160801b0392909216919091179055604051633be3450960e11b81526001600160a01b037f0000000000000000000000000000000000000000000000000000000000000000811660048301527f0000000000000000000000000000000000000000000000000000000000000000166024820152604481018690526129439033907321f0FF1D33F76B938dec63cfFe0eE6171F4Bd6B0906377c68a12906064015b60206040518083038186803b1580156128da57600080fd5b505af41580156128ee573d6000803e3d6000fd5b505050506040513d601f19601f82011682018060405250810190612912919061587a565b6001600160a01b037f0000000000000000000000000000000000000000000000000000000000000000169190613c70565b604080518681526020810184905233917fab2daf3c146ca6416cbccd2a86ed2ba995e171ef6319df14a38aef01403a9c96910160405180910390a2505060018055505050565b610100546001600160a01b0316806129a057600080fd5b6129ac60006001613a6f565b33600081815260976020526040902054906129c890838361349d565b60405163c9c2d4f560e01b8152336004820152602481018290526001600160a01b0383169063c9c2d4f590604401600060405180830381600087803b158015612a1057600080fd5b505af1158015612a24573d6000803e3d6000fd5b505050505050565b6000806000612a3a84613284565b90925090506114118282613e9f565b60d4546001600160a01b03163314612a735760405162461bcd60e51b81526004016111fd90615a75565b600081118015612a8e5750612a8a600a6064615d55565b8111155b612acd5760405162461bcd60e51b815260206004820152601060248201526f125b9d985b1a5908191a5cd8dbdd5b9d60821b60448201526064016111fd565b60f75460408051918252602082018390527f4cd657fde404967d63a338fb06c5c98751a9df57dfae6dc333a432faf8a5f656910160405180910390a160f755565b6065546001600160a01b03163314612b385760405162461bcd60e51b81526004016111fd90615ae4565b6001600160a01b038116612b7b5760405162461bcd60e51b815260206004820152600a60248201526910b732bba5b2b2b832b960b11b60448201526064016111fd565b60d480546001600160a01b0319166001600160a01b0392909216919091179055565b60026001541415612bc05760405162461bcd60e51b81526004016111fd90615b19565b600260015580612bff5760405162461bcd60e51b815260206004820152600a602482015269216e756d53686172657360b01b60448201526064016111fd565b6120fa816000613a6f565b600054610100900460ff1680612c23575060005460ff16155b612c3f5760405162461bcd60e51b81526004016111fd90615a96565b600054610100900460ff16158015612c61576000805461ffff19166101011790555b612c718d8d8d8d8d8d8d89614693565b6001600160a01b038616612cc05760405162461bcd60e51b815260206004820152601660248201527510afb7b83a34b7b739a83932b6b4bab6a83934b1b2b960511b60448201526064016111fd565b6001600160a01b038516612d0a5760405162461bcd60e51b815260206004820152601160248201527010afb9ba3934b5b2a9b2b632b1ba34b7b760791b60448201526064016111fd565b60008463ffffffff16118015612d305750612d27600a6064615d55565b8463ffffffff16105b612d705760405162461bcd60e51b81526020600482015260116024820152700857dc1c995b5a5d5b511a5cd8dbdd5b9d607a1b60448201526064016111fd565b61012c831015612db65760405162461bcd60e51b815260206004820152601160248201527010afb0bab1ba34b7b7223ab930ba34b7b760791b60448201526064016111fd565b60f580546001600160a01b038089166001600160a01b03199283161790925560f680549288169290911691909117905563ffffffff841660f75560fb8390558015612e07576000805461ff00191690555b50505050505050505050505050565b6065546001600160a01b03163314612e405760405162461bcd60e51b81526004016111fd90615ae4565b6001600160a01b038116612e895760405162461bcd60e51b815260206004820152601060248201526f085b995dd19959549958da5c1a595b9d60821b60448201526064016111fd565b60d3546001600160a01b0382811691161415612ee75760405162461bcd60e51b815260206004820152601860248201527f4d757374206265206e657720666565526563697069656e74000000000000000060448201526064016111fd565b60d380546001600160a01b0319166001600160a01b0392909216919091179055565b60026001541415612f2c5760405162461bcd60e51b81526004016111fd90615b19565b600260015560d25460408051610120810182526001600160a01b037f0000000000000000000000000000000000000000000000000000000000000000811682527f00000000000000000000000000000000000000000000000000000000000000008116602083015292831681830181905260006060830181905260f95461ffff16608084015260fa5460a084015260f654851660c084015260f55490941660e083015260f75461010083015291516001621eaadd60e11b0319815291929091819081907321f0FF1D33F76B938dec63cfFe0eE6171F4Bd6B09063ffc2aa469061304190879060cc9060cf907f000000000000000000000000000000000000000000000000000000000000000090600401615b50565b60606040518083038186803b15801561305957600080fd5b505af415801561306d573d6000803e3d6000fd5b505050506040513d601f19601f8201168201806040525081019061309191906157e9565b604080518381526020810183905293965091945092507fa217999b1c125c2a996f712c5f26a28addad7167bd8a67d5bd5b2a751148abb0910160405180910390a160d180546001600160a01b0319166001600160a01b03851617905560006130f94282613e9f565b905063ffffffff81111561314f5760405162461bcd60e51b815260206004820152601860248201527f4f766572666c6f77206e6578744f7074696f6e5265616479000000000000000060448201526064016111fd565b60d2805463ffffffff60a01b1916600160a01b63ffffffff8416021790556131768661485b565b50506001805550505050565b6065546001600160a01b031633146131ac5760405162461bcd60e51b81526004016111fd90615ae4565b6001600160a01b0381166132115760405162461bcd60e51b815260206004820152602660248201527f4f776e61626c653a206e6577206f776e657220697320746865207a65726f206160448201526564647265737360d01b60648201526084016111fd565b61138781613c1e565b6002600154141561323d5760405162461bcd60e51b81526004016111fd90615b19565b6002600155346132785760405162461bcd60e51b81526020600482015260066024820152652176616c756560d01b60448201526064016111fd565b6119bd34336001613eab565b6001600160a01b038116600090815260c9602090815260408083208151606081018352905461ffff81168083526201000082046001600160681b031694830194909452600160781b90046001600160801b031691810191909152829160011115613306575050506001600160a01b031660009081526097602052604081205491565b60cf54815161ffff908116600090815260ca602052604081205460cc54919361333c93869391169190610100900460ff166149cd565b905061335d856001600160a01b031660009081526097602052604090205490565b9590945092505050565b6002600154141561338a5760405162461bcd60e51b81526004016111fd90615b19565b60026001556000613399614a3e565b60fd549091506133a99082613930565b6001600160801b031660fd555060018055565b6065546001600160a01b031633146133e65760405162461bcd60e51b81526004016111fd90615ae4565b6133f4620f42406064615d55565b811061343b5760405162461bcd60e51b8152602060048201526016602482015275496e76616c6964206d616e6167656d656e742066656560501b60448201526064016111fd565b600061345863031ba30961345284620f4240614c44565b90614c50565b60d65460408051918252602082018590529192507f4e874b007ab14f7e263baefd44951834c8266f4f224d1092e49e9c254354cc54910160405180910390a160d65550565b6001600160a01b0383166134ff5760405162461bcd60e51b8152602060048201526024808201527f45524332303a20617070726f76652066726f6d20746865207a65726f206164646044820152637265737360e01b60648201526084016111fd565b6001600160a01b0382166135605760405162461bcd60e51b815260206004820152602260248201527f45524332303a20617070726f766520746f20746865207a65726f206164647265604482015261737360f01b60648201526084016111fd565b6001600160a01b0383811660008181526098602090815260408083209487168084529482529182902085905590518481527f8c5be1e5ebec7d5bd14f71427d1e84f3dd0314c0f7b2291e5b200ac8c7c3b92591015b60405180910390a3505050565b6001600160a01b0383166136265760405162461bcd60e51b815260206004820152602560248201527f45524332303a207472616e736665722066726f6d20746865207a65726f206164604482015264647265737360d81b60648201526084016111fd565b6001600160a01b0382166136885760405162461bcd60e51b815260206004820152602360248201527f45524332303a207472616e7366657220746f20746865207a65726f206164647260448201526265737360e81b60648201526084016111fd565b6001600160a01b038316600090815260976020526040902054818110156137005760405162461bcd60e51b815260206004820152602660248201527f45524332303a207472616e7366657220616d6f756e7420657863656564732062604482015265616c616e636560d01b60648201526084016111fd565b6001600160a01b03808516600090815260976020526040808220858503905591851681529081208054849290613737908490615c32565b92505081905550826001600160a01b0316846001600160a01b03167fddf252ad1be2c89b69c2b068fc378daa952ba7f163c4a11628f55a4df523b3ef8460405161378391815260200190565b60405180910390a35b50505050565b600260015414156137b55760405162461bcd60e51b81526004016111fd90615b19565b6002600155816137f15760405162461bcd60e51b815260206004820152600760248201526608585b5bdd5b9d60ca1b60448201526064016111fd565b6138076137ff836001613930565b826000613eab565b61383c6001600160a01b037f000000000000000000000000000000000000000000000000000000000000000016333085614c5c565b505060018055565b60008061385283600a615cad565b905060008611613862578061387a565b61387a866134526138738888613930565b8490614c44565b9695505050505050565b6000600183116138ce5760405162461bcd60e51b8152602060048201526015602482015274496e76616c6964206173736574506572536861726560581b60448201526064016111fd565b6114116138dc83600a615cad565b6134528686614c44565b6001600160681b038111156113875760405162461bcd60e51b815260206004820152601060248201526f13dd995c999b1bddc81d5a5b9d0c4c0d60821b60448201526064016111fd565b60006113768284615d74565b6040805160c08101825260d2546001600160a01b039081168083527f000000000000000000000000000000000000000000000000000000000000000082166020840190815260cc54620100008104841685870190815260ff610100909204919091166060860190815260f8546080870190815260fb5460a088019081529751633baf17fd60e21b8152875187166004820152935186166024850152915190941660448301529251606482015291516084830152925160a48201529091907325Af99Ff07575Ac55fB3C2D1E6B920Ba3bf67B409063eebc5ff49060c40160206040518083038186803b158015613a3057600080fd5b505af4158015613a44573d6000803e3d6000fd5b505050506040513d601f19601f82011682018060405250810190613a68919061587a565b60fc555050565b33600090815260c9602090815260408083208151606081018352905461ffff8082168084526201000083046001600160681b031684870152600160781b9092046001600160801b03168385015260cf5491865260ca9094529184205460cc5491949290931692613aea9185918591610100900460ff166149cd565b905083613af75784613af9565b805b945084613b07575050505050565b80851115613b4b5760405162461bcd60e51b81526020600482015260116024820152704578636565647320617661696c61626c6560781b60448201526064016111fd565b825161ffff16821115613b785733600090815260c960205260409020805462010000600160781b03191690555b613b8185614649565b613b8b8186613930565b33600081815260c960205260409081902080546001600160801b0394909416600160781b02600160781b600160f81b0319909416939093179092558451915190917fe5b754fb1abb7f01b499791d0b820ae3b6af3424ac1c59768edb53f4ec31a92991613c049189825261ffff16602082015260400190565b60405180910390a2613c173033876135c2565b5050505050565b606580546001600160a01b038381166001600160a01b0319831681179093556040519116919082907f8be0079c531659141344cd1fd0a4f28419497f9722a3daafe3b4186f6b6457e090600090a35050565b6040516001600160a01b038316602482015260448101829052613cd390849063a9059cbb60e01b906064015b60408051601f198184030181529190526020810180516001600160e01b03166001600160e01b031990931692909217909152614c94565b505050565b60008111613d155760405162461bcd60e51b815260206004820152600a602482015269216e756d53686172657360b01b60448201526064016111fd565b33600090815260c960205260409020546201000090046001600160681b0316151580613d5f575033600090815260c96020526040902054600160781b90046001600160801b031615155b15613d7057613d7060006001613a6f565b60cf5433600081815260cb60209081526040918290208054835187815261ffff96871693810184905292959194911685149290917f0c53c82ad07e2d592d88ece3b066777dd60f1118e2a081b380efc4358f0d9e2a910160405180910390a281546201000090046001600160801b031660008215613df957613df28287613e9f565b9050613e5c565b8115613e3b5760405162461bcd60e51b81526020600482015260116024820152704578697374696e6720776974686472617760781b60448201526064016111fd565b5033600090815260cb60205260409020805461ffff191661ffff8616179055845b613e6581614649565b33600081815260cb60205260409020805462010000600160901b031916620100006001600160801b03851602179055612a249030886135c2565b60006113768284615c32565b60cf5461ffff16600082613eca57613ec58561237d612101565b613ed2565b613ed2612101565b60ce549091506001600160681b0316811115613f1d5760405162461bcd60e51b815260206004820152600a6024820152690457863656564206361760b41b60448201526064016111fd565b60cd54600160a01b900466ffffffffffffff16811015613f765760405162461bcd60e51b8152602060048201526014602482015273496e73756666696369656e742062616c616e636560601b60448201526064016111fd565b60408051868152602081018490526001600160a01b038616917f90890809c654f11d6e72a28fa60149770a0d11ec6c92319d6ceb2bb0a4ea1a15910160405180910390a26001600160a01b038416600090815260c9602090815260408083208151606081018352905461ffff81168083526201000082046001600160681b031683860152600160781b9091046001600160801b031682840152845260ca90925282205460cc54919291614035918491879190610100900460ff166149cd565b8251909150879061ffff16851415614066576020830151600090614062906001600160681b03168a613e9f565b9150505b61406f816138e6565b6040805160608101825261ffff80881682526001600160681b0380851660208085019182526001600160801b038089168688019081526001600160a01b038f16600090815260c990935296822095518654935197518216600160781b02600160781b600160f81b03199890951662010000026effffffffffffffffffffffffffffff1990941695169490941791909117949094161790915560d05461411591168a613e9f565b905061412081614649565b60d080546001600160801b0319166001600160801b03929092169190911790555050505050505050565b60d2546000908190600160a01b900463ffffffff164210156141975760405162461bcd60e51b815260206004820152600660248201526521726561647960d01b60448201526064016111fd565b60d1546001600160a01b0316806141de5760405162461bcd60e51b815260206004820152600b60248201526a10b732bc3a27b83a34b7b760a91b60448201526064016111fd565b6000806000806000807325Af99Ff07575Ac55fB3C2D1E6B920Ba3bf67B4063633c142660cf6040518060e0016040528060cc60000160019054906101000a900460ff1660ff168152602001614231612101565b815260200161423f60995490565b81526020018f815260200160d554815260200160d65481526020018e8152506040518363ffffffff1660e01b81526004016142cc92919060006101008201905083825282516020830152602083015160408301526040830151606083015260608301516080830152608083015160a083015260a083015160c083015260c083015160e08301529392505050565b60c06040518083038186803b1580156142e457600080fd5b505af41580156142f8573d6000803e3d6000fd5b505050506040513d601f19601f8201168201806040525081019061431c91906158d7565b9550955095509550955095508660d160010160006101000a8154816001600160a01b0302191690836001600160a01b03160217905550600060d160000160006101000a8154816001600160a01b0302191690836001600160a01b03160217905550600060d360009054906101000a90046001600160a01b0316905060007f00000000000000000000000000000000000000000000000000000000000000009050600060cf60000160009054906101000a900461ffff1661ffff1690508660ca6000838152602001908152602001600020819055507321f0FF1D33F76B938dec63cfFe0eE6171F4Bd6B0636627a9d47f0000000000000000000000000000000000000000000000000000000000000000847f00000000000000000000000000000000000000000000000000000000000000006040518463ffffffff1660e01b8152600401614489939291906001600160a01b0393841681529183166020830152909116604082015260600190565b60006040518083038186803b1580156144a157600080fd5b505af41580156144b5573d6000803e3d6000fd5b505060408051888152602081018890529081018490526001600160a01b03861692507f0a242f7ecaf711036ca770774ceffae28e60ef042ac113ddd187f2631db0c006915060600160405180910390a260d080546001600160801b0319169055614520816001615c32565b60cf805461ffff191661ffff9290921691909117905561453f896138e6565b60cf805462010000600160781b031916620100006001600160681b038c160217905561456b3087614d66565b8315614635576040516305ffc87f60e31b81526001600160a01b0380841660048301527f00000000000000000000000000000000000000000000000000000000000000008116602483015284166044820152606481018590527321f0FF1D33F76B938dec63cfFe0eE6171F4Bd6B090632ffe43f89060840160206040518083038186803b1580156145fb57600080fd5b505af415801561460f573d6000803e3d6000fd5b505050506040513d601f19601f82011682018060405250810190614633919061587a565b505b50979c959b50949950505050505050505050565b6001600160801b038111156113875760405162461bcd60e51b815260206004820152601060248201526f09eeccae4ccd8deee40ead2dce86264760831b60448201526064016111fd565b600054610100900460ff16806146ac575060005460ff16155b6146c85760405162461bcd60e51b81526004016111fd90615a96565b600054610100900460ff161580156146ea576000805461ffff19166101011790555b60405163c72733f760e01b81527325Af99Ff07575Ac55fB3C2D1E6B920Ba3bf67B409063c72733f79061472f908c908c908c908b908d908c908c908c90600401615968565b60006040518083038186803b15801561474757600080fd5b505af415801561475b573d6000803e3d6000fd5b50505050614767614e45565b6147718484614eb8565b614779614f37565b61478289613182565b60d480546001600160a01b03808b166001600160a01b03199283161790925560d38054928a169290911691909117905560d58590556147cc63031ba30961345288620f4240614c44565b60d6558160cc6147dc8282615e5a565b90505060006147e9612101565b90506147f4816138e6565b60cf805461ffff196001600160681b03909316600160781b02929092167fffffffff00000000000000000000000000ffffffffffffffffffffffffff00009092169190911760011790558015614850576000805461ff00191690555b505050505050505050565b60cf546201000090046001600160681b03166001600160a01b038216156148a75760cf80546cffffffffffffffffffffffffff60781b1916600160781b6001600160681b038416021790555b60cf805462010000600160781b031916905560d280546001600160a01b03191690556001600160a01b0382161561195f57604051636c6fe87f60e11b81526001600160a01b037f00000000000000000000000000000000000000000000000000000000000000001660048201526000907325Af99Ff07575Ac55fB3C2D1E6B920Ba3bf67B409063d8dfd0fe9060240160206040518083038186803b15801561494e57600080fd5b505af4158015614962573d6000803e3d6000fd5b505050506040513d601f19601f82011682018060405250810190614986919061587a565b9050336001600160a01b0316836001600160a01b03167f7e830f7c1771deb1bdb35c4a7e6051bbac32b376f7f4e4976b8618b0b11997f7836040516135b591815260200190565b835160009061ffff16158015906149e85750845161ffff1684115b15614a2a576000614a0786602001516001600160681b03168585614f9e565b6040870151909150614a22906001600160801b031682613e9f565b915050611411565b50505050604001516001600160801b031690565b33600090815260cb6020526040812080546001600160801b03620100008204169061ffff1681614aa05760405162461bcd60e51b815260206004820152600d60248201526c139bdd081a5b9a5d1a585d1959609a1b60448201526064016111fd565b60cf5461ffff168110614ae85760405162461bcd60e51b815260206004820152601060248201526f149bdd5b99081b9bdd0818db1bdcd95960821b60448201526064016111fd565b33600090815260cb60205260409020805462010000600160901b031916905560d054614b2490600160801b90046001600160801b031683613930565b60d080546001600160801b03928316600160801b029216919091179055600081815260ca602052604081205460cc54614b6791859160ff61010090910416613884565b604051633be3450960e11b81526001600160a01b037f0000000000000000000000000000000000000000000000000000000000000000811660048301527f000000000000000000000000000000000000000000000000000000000000000016602482015260448101829052909150614bff9033907321f0FF1D33F76B938dec63cfFe0eE6171F4Bd6B0906377c68a12906064016128c2565b604080518281526020810185905233917ff279e6a1f5e320cca91135676d9cb6e44ca8a08c0b88342bcdb1144f6511b568910160405180910390a26114113084615001565b60006113768284615d55565b60006113768284615c4a565b6040516001600160a01b038085166024830152831660448201526064810182905261378c9085906323b872dd60e01b90608401613c9c565b6000614ce9826040518060400160405280602081526020017f5361666545524332303a206c6f772d6c6576656c2063616c6c206661696c6564815250856001600160a01b031661514f9092919063ffffffff16565b805190915015613cd35780806020019051810190614d07919061581f565b613cd35760405162461bcd60e51b815260206004820152602a60248201527f5361666545524332303a204552433230206f7065726174696f6e20646964206e6044820152691bdd081cdd58d8d9595960b21b60648201526084016111fd565b6001600160a01b038216614dbc5760405162461bcd60e51b815260206004820152601f60248201527f45524332303a206d696e7420746f20746865207a65726f20616464726573730060448201526064016111fd565b8060996000828254614dce9190615c32565b90915550506001600160a01b03821660009081526097602052604081208054839290614dfb908490615c32565b90915550506040518181526001600160a01b038316906000907fddf252ad1be2c89b69c2b068fc378daa952ba7f163c4a11628f55a4df523b3ef9060200160405180910390a35050565b600054610100900460ff1680614e5e575060005460ff16155b614e7a5760405162461bcd60e51b81526004016111fd90615a96565b600054610100900460ff16158015614e9c576000805461ffff19166101011790555b614ea461515e565b8015611387576000805461ff001916905550565b600054610100900460ff1680614ed1575060005460ff16155b614eed5760405162461bcd60e51b81526004016111fd90615a96565b600054610100900460ff16158015614f0f576000805461ffff19166101011790555b614f176151cd565b614f218383615237565b8015613cd3576000805461ff0019169055505050565b600054610100900460ff1680614f50575060005460ff16155b614f6c5760405162461bcd60e51b81526004016111fd90615a96565b600054610100900460ff16158015614f8e576000805461ffff19166101011790555b614f966151cd565b614ea46152cc565b600060018311614fe85760405162461bcd60e51b8152602060048201526015602482015274496e76616c6964206173736574506572536861726560581b60448201526064016111fd565b61141183613452614ffa85600a615cad565b8790614c44565b6001600160a01b0382166150615760405162461bcd60e51b815260206004820152602160248201527f45524332303a206275726e2066726f6d20746865207a65726f206164647265736044820152607360f81b60648201526084016111fd565b6001600160a01b038216600090815260976020526040902054818110156150d55760405162461bcd60e51b815260206004820152602260248201527f45524332303a206275726e20616d6f756e7420657863656564732062616c616e604482015261636560f01b60648201526084016111fd565b6001600160a01b0383166000908152609760205260408120838303905560998054849290615104908490615d74565b90915550506040518281526000906001600160a01b038516907fddf252ad1be2c89b69c2b068fc378daa952ba7f163c4a11628f55a4df523b3ef9060200160405180910390a3505050565b6060611411848460008561532c565b600054610100900460ff1680615177575060005460ff16155b6151935760405162461bcd60e51b81526004016111fd90615a96565b600054610100900460ff161580156151b5576000805461ffff19166101011790555b600180558015611387576000805461ff001916905550565b600054610100900460ff16806151e6575060005460ff16155b6152025760405162461bcd60e51b81526004016111fd90615a96565b600054610100900460ff16158015614ea4576000805461ffff19166101011790558015611387576000805461ff001916905550565b600054610100900460ff1680615250575060005460ff16155b61526c5760405162461bcd60e51b81526004016111fd90615a96565b600054610100900460ff1615801561528e576000805461ffff19166101011790555b82516152a190609a90602086019061548d565b5081516152b590609b90602085019061548d565b508015613cd3576000805461ff0019169055505050565b600054610100900460ff16806152e5575060005460ff16155b6153015760405162461bcd60e51b81526004016111fd90615a96565b600054610100900460ff16158015615323576000805461ffff19166101011790555b614ea433613c1e565b60608247101561538d5760405162461bcd60e51b815260206004820152602660248201527f416464726573733a20696e73756666696369656e742062616c616e636520666f6044820152651c8818d85b1b60d21b60648201526084016111fd565b843b6153db5760405162461bcd60e51b815260206004820152601d60248201527f416464726573733a2063616c6c20746f206e6f6e2d636f6e747261637400000060448201526064016111fd565b600080866001600160a01b031685876040516153f7919061594c565b60006040518083038185875af1925050503d8060008114615434576040519150601f19603f3d011682016040523d82523d6000602084013e615439565b606091505b5091509150615449828286615454565b979650505050505050565b60608315615463575081611376565b8251156154735782518084602001fd5b8160405162461bcd60e51b81526004016111fd9190615a62565b82805461549990615db7565b90600052602060002090601f0160209004810192826154bb5760008555615501565b82601f106154d457805160ff1916838001178555615501565b82800160010185558215615501579182015b828111156155015782518255916020019190600101906154e6565b5061550d929150615511565b5090565b5b8082111561550d5760008155600101615512565b803561553181615f6b565b919050565b600082601f830112615546578081fd5b813567ffffffffffffffff8082111561556157615561615e1d565b604051601f8301601f19908116603f0116810190828211818310171561558957615589615e1d565b816040528381528660208588010111156155a1578485fd5b8360208701602083013792830160200193909352509392505050565b600060c082840312156155ce578081fd5b50919050565b803561553181615f8e565b803563ffffffff8116811461553157600080fd5b803561553181615fa3565b60006020828403121561560f578081fd5b813561137681615f6b565b6000806040838503121561562c578081fd5b823561563781615f6b565b9150602083013561564781615f6b565b809150509250929050565b6000806000806000806000806000806000806102208d8f031215615674578788fd5b61567d8d615526565b9b5061568b60208e01615526565b9a5061569960408e01615526565b995060608d0135985060808d0135975067ffffffffffffffff60a08e013511156156c1578687fd5b6156d18e60a08f01358f01615536565b965067ffffffffffffffff60c08e013511156156eb578586fd5b6156fb8e60c08f01358f01615536565b955061570960e08e01615526565b94506157186101008e01615526565b93506157276101208e016155df565b92506101408d0135915061573f8e6101608f016155bd565b90509295989b509295989b509295989b565b600080600060608486031215615765578283fd5b833561577081615f6b565b9250602084013561578081615f6b565b929592945050506040919091013590565b600080604083850312156157a3578182fd5b82356157ae81615f6b565b9150602083013561564781615f80565b600080604083850312156157d0578182fd5b82356157db81615f6b565b946020939093013593505050565b6000806000606084860312156157fd578283fd5b835161580881615f6b565b602085015160409095015190969495509392505050565b600060208284031215615830578081fd5b815161137681615f80565b60006020828403121561584c578081fd5b81356001600160801b0381168114611376578182fd5b600060208284031215615873578081fd5b5035919050565b60006020828403121561588b578081fd5b5051919050565b600080604083850312156158a4578182fd5b82359150602083013561564781615f6b565b600080604083850312156158c8578182fd5b50508035926020909101359150565b60008060008060008060c087890312156158ef578384fd5b865195506020870151945060408701519350606087015192506080870151915060a087015190509295509295509295565b60008151808452615938816020860160208601615d8b565b601f01601f19169290920160200192915050565b6000825161595e818460208701615d8b565b9190910192915050565b60006101a060018060a01b03808c168452808b166020850152808a1660408501528860608501528760808501528160a08501526159a782850188615920565b915083820360c08501526159bb8287615920565b9250843591506159ca82615f80565b90151560e08401526020840135906159e182615fb8565b60ff8216610100850152604085013591506159fb82615f6b565b16610120830152615a0e60608401615526565b6001600160a01b0316610140830152615a29608084016155f3565b66ffffffffffffff16610160830152615a4460a084016155d4565b6001600160681b038116610180840152509998505050505050505050565b6020815260006113766020830184615920565b60208082526007908201526610b5b2b2b832b960c91b604082015260600190565b6020808252602e908201527f496e697469616c697a61626c653a20636f6e747261637420697320616c72656160408201526d191e481a5b9a5d1a585b1a5e995960921b606082015260800190565b6020808252818101527f4f776e61626c653a2063616c6c6572206973206e6f7420746865206f776e6572604082015260600190565b6020808252601f908201527f5265656e7472616e637947756172643a207265656e7472616e742063616c6c00604082015260600190565b84516001600160a01b03168152602080860151610180830191615b7d908401826001600160a01b03169052565b506040860151615b9860408401826001600160a01b03169052565b50606086015160608301526080860151615bb8608084018261ffff169052565b5060a086015160a083015260c0860151615bdd60c08401826001600160a01b03169052565b5060e0860151615bf860e08401826001600160a01b03169052565b506101008087015181840152508461012083015283610140830152615c296101608301846001600160a01b03169052565b95945050505050565b60008219821115615c4557615c45615e07565b500190565b600082615c6557634e487b7160e01b81526012600452602481fd5b500490565b600181815b80851115615ca5578160001904821115615c8b57615c8b615e07565b80851615615c9857918102915b93841c9390800290615c6f565b509250929050565b60006113768383600082615cc3575060016112cb565b81615cd0575060006112cb565b8160018114615ce65760028114615cf057615d0c565b60019150506112cb565b60ff841115615d0157615d01615e07565b50506001821b6112cb565b5060208310610133831016604e8410600b8410161715615d2f575081810a6112cb565b615d398383615c6a565b8060001904821115615d4d57615d4d615e07565b029392505050565b6000816000190483118215151615615d6f57615d6f615e07565b500290565b600082821015615d8657615d86615e07565b500390565b60005b83811015615da6578181015183820152602001615d8e565b8381111561378c5750506000910152565b600181811c90821680615dcb57607f821691505b602082108114156155ce57634e487b7160e01b600052602260045260246000fd5b6000600019821415615e0057615e00615e07565b5060010190565b634e487b7160e01b600052601160045260246000fd5b634e487b7160e01b600052604160045260246000fd5b600081356112cb81615f6b565b600081356112cb81615f8e565b600081356112cb81615fa3565b8135615e6581615f80565b815460ff19811691151560ff1691821783556020840135615e8581615fb8565b61ff008160081b169050808361ffff198416171784556040850135615ea981615f6b565b6001600160b01b0319929092169092179190911760109190911b62010000600160b01b031617815560018101615f01615ee460608501615e33565b82546001600160a01b0319166001600160a01b0391909116178255565b615f3a615f1060808501615e4d565b82805466ffffffffffffff60a01b191660a09290921b66ffffffffffffff60a01b16919091179055565b5061195f615f4a60a08401615e40565b600283016001600160681b0382166001600160681b03198254161781555050565b6001600160a01b038116811461138757600080fd5b801515811461138757600080fd5b6001600160681b038116811461138757600080fd5b66ffffffffffffff8116811461138757600080fd5b60ff8116811461138757600080fdfea2646970667358221220defc5bea4343f4fde38e62e52f5d1c6257ef92be315eefff792fcd0cbdc99cce64736f6c63430008040033",
  "deployedBytecode": "0x6080604052600436106104c05760003560e01c80638da5cb5b11610276578063c63218391161014f578063e16fdbd5116100c1578063f6326fb311610085578063f6326fb314611121578063f656ba5114611129578063f756fa211461115e578063f957a06714611173578063f9a0be6814611193578063fe56e232146111b357600080fd5b8063e16fdbd514611096578063e73c63d5146110b6578063e74b981b146110cc578063ea00b1ca146110ec578063f2fde38b1461110157600080fd5b8063d5f2638211610113578063d5f2638214610f7e578063d88bba1114610f94578063db006a7514610fc8578063db43e86214610fe8578063dd62ed3e1461101c578063e00bfe501461106257600080fd5b8063c632183914610ee9578063ca59409414610f09578063ce7c2ac214610f1e578063d13f1b3e14610f3e578063d164cc1514610f5e57600080fd5b8063a694fc3a116101e8578063ad5c4648116101ac578063ad5c464814610e20578063ad7a672f14610e54578063afa6626414610e69578063b2016bd414610e89578063b4d1d79514610ebd578063b9f8092b14610ed457600080fd5b8063a694fc3a14610d97578063a6f7f5d614610db7578063a9059cbb14610dcd578063aa67c91914610ded578063aced166114610e0057600080fd5b80639fcc2d751161023a5780639fcc2d7514610c08578063a083ff1714610cb4578063a285c9e814610d17578063a2db9d8314610d39578063a457c2d714610d57578063a497e67414610d7757600080fd5b80638da5cb5b14610b7f578063947061b514610b9d57806395d89b4114610bbe57806399530b0614610bd35780639be43daa14610be857600080fd5b8063573f0d6e116103a857806370a082311161031a5780637e108d52116102de5780637e108d5214610ab457806383536ff314610ad457806387153eb114610aea5780638778878214610b1757806389a3027114610b2d5780638b10cc7c14610b6157600080fd5b806370a08231146109d0578063715018a614610a065780637400173d14610a1b5780637a9262a214610a3b5780637bf5108614610a9f57600080fd5b80636719b2ee1161036c5780636719b2ee146108b957806369b411701461093d5780636b64c769146109525780636c10f66c146109675780636f31ab341461099b57806370897b23146109b057600080fd5b8063573f0d6e146108105780635ea8cd1214610830578063600a2cfb14610850578063650cce8a1461086557806365ea421e1461089957600080fd5b8063355274ea11610441578063432833a611610405578063432833a61461076e578063469048401461078457806347786d37146107a45780634b2431d9146107c4578063503c70aa146107da57806355489bb2146107f057600080fd5b8063355274ea146106c457806339509351146106e25780633ec143d3146107025780633f23bb73146107305780633f90916a1461075057600080fd5b80631a92f6c2116104885780631a92f6c21461057b57806323b872dd146105c75780632728f333146105e7578063313ce5671461067a57806331807e42146106a457600080fd5b8063048bf085146104c557806306fdde03146104e7578063095ea7b3146105125780630cbf54c81461054257806318160ddd14610566575b600080fd5b3480156104d157600080fd5b506104e56104e03660046155fe565b6111d3565b005b3480156104f357600080fd5b506104fc611228565b6040516105099190615a62565b60405180910390f35b34801561051e57600080fd5b5061053261052d3660046157be565b6112ba565b6040519015158152602001610509565b34801561054e57600080fd5b5061055860fb5481565b604051908152602001610509565b34801561057257600080fd5b50609954610558565b34801561058757600080fd5b506105af7f000000000000000000000000000000000000000000000000000000000000000081565b6040516001600160a01b039091168152602001610509565b3480156105d357600080fd5b506105326105e2366004615751565b6112d1565b3480156105f357600080fd5b5060cf5460d0546106359161ffff8116916001600160681b03620100008304811692600160781b900416906001600160801b0380821691600160801b90041685565b6040805161ffff90961686526001600160681b03948516602087015293909216928401929092526001600160801b03918216606084015216608082015260a001610509565b34801561068657600080fd5b5060cc54610100900460ff1660405160ff9091168152602001610509565b3480156106b057600080fd5b506104e56106bf366004615862565b61137d565b3480156106d057600080fd5b5060ce546001600160681b0316610558565b3480156106ee57600080fd5b506105326106fd3660046157be565b61138a565b34801561070e57600080fd5b5060f95461071d9061ffff1681565b60405161ffff9091168152602001610509565b34801561073c57600080fd5b5061055861074b3660046155fe565b6113c6565b34801561075c57600080fd5b5060d0546001600160801b0316610558565b34801561077a57600080fd5b5061055860fc5481565b34801561079057600080fd5b5060d3546105af906001600160a01b031681565b3480156107b057600080fd5b506104e56107bf366004615862565b611419565b3480156107d057600080fd5b5061055860ff5481565b3480156107e657600080fd5b5061055860fd5481565b3480156107fc57600080fd5b506104e561080b36600461583b565b6114f4565b34801561081c57600080fd5b506104e561082b3660046155fe565b61158c565b34801561083c57600080fd5b506104e561084b366004615862565b6115d9565b34801561085c57600080fd5b506104e5611644565b34801561087157600080fd5b506105af7f000000000000000000000000000000000000000000000000000000000000000081565b3480156108a557600080fd5b506104e56108b4366004615892565b611913565b3480156108c557600080fd5b5061090c6108d43660046155fe565b60c96020526000908152604090205461ffff8116906201000081046001600160681b031690600160781b90046001600160801b031683565b6040805161ffff90941684526001600160681b0390921660208401526001600160801b031690820152606001610509565b34801561094957600080fd5b50610558600081565b34801561095e57600080fd5b506104e5611963565b34801561097357600080fd5b506105af7f000000000000000000000000000000000000000000000000000000000000000081565b3480156109a757600080fd5b506104e56119c3565b3480156109bc57600080fd5b506104e56109cb366004615862565b6119fa565b3480156109dc57600080fd5b506105586109eb3660046155fe565b6001600160a01b031660009081526097602052604090205490565b348015610a1257600080fd5b506104e5611ac1565b348015610a2757600080fd5b506104e5610a36366004615791565b611af7565b348015610a4757600080fd5b50610a7d610a563660046155fe565b60cb6020526000908152604090205461ffff8116906201000090046001600160801b031682565b6040805161ffff90931683526001600160801b03909116602083015201610509565b348015610aab57600080fd5b506104e5611bae565b348015610ac057600080fd5b506104e5610acf366004615862565b611c63565b348015610ae057600080fd5b5061055860f75481565b348015610af657600080fd5b50610558610b05366004615862565b60ca6020526000908152604090205481565b348015610b2357600080fd5b5061055860d55481565b348015610b3957600080fd5b506105af7f000000000000000000000000000000000000000000000000000000000000000081565b348015610b6d57600080fd5b5060d2546001600160a01b03166105af565b348015610b8b57600080fd5b506065546001600160a01b03166105af565b348015610ba957600080fd5b50610100546105af906001600160a01b031681565b348015610bca57600080fd5b506104fc611cab565b348015610bdf57600080fd5b50610558611cba565b348015610bf457600080fd5b506104e5610c03366004615862565b611cf4565b348015610c1457600080fd5b5060cc5460cd5460ce54610c649260ff808216936101008304909116926001600160a01b036201000090930483169282169166ffffffffffffff600160a01b90910416906001600160681b031686565b60408051961515875260ff90951660208701526001600160a01b03938416948601949094529116606084015266ffffffffffffff1660808301526001600160681b031660a082015260c001610509565b348015610cc057600080fd5b5060d15460d254610ceb916001600160a01b039081169190811690600160a01b900463ffffffff1683565b604080516001600160a01b03948516815293909216602084015263ffffffff1690820152606001610509565b348015610d2357600080fd5b5060d254600160a01b900463ffffffff16610558565b348015610d4557600080fd5b5060d1546001600160a01b03166105af565b348015610d6357600080fd5b50610532610d723660046157be565b611dee565b348015610d8357600080fd5b506104e5610d92366004615862565b611e87565b348015610da357600080fd5b506104e5610db2366004615862565b611f44565b348015610dc357600080fd5b5061055860d65481565b348015610dd957600080fd5b50610532610de83660046157be565b612041565b6104e5610dfb3660046155fe565b61204e565b348015610e0c57600080fd5b5060d4546105af906001600160a01b031681565b348015610e2c57600080fd5b506105af7f000000000000000000000000000000000000000000000000000000000000000081565b348015610e6057600080fd5b50610558612101565b348015610e7557600080fd5b5060f5546105af906001600160a01b031681565b348015610e9557600080fd5b506105af7f000000000000000000000000000000000000000000000000000000000000000081565b348015610ec957600080fd5b5061055862093a8081565b348015610ee057600080fd5b506104e561238c565b348015610ef557600080fd5b506104e5610f043660046158b6565b6126c3565b348015610f1557600080fd5b506104e5612989565b348015610f2a57600080fd5b50610558610f393660046155fe565b612a2c565b348015610f4a57600080fd5b506104e5610f59366004615862565b612a49565b348015610f6a57600080fd5b506104e5610f793660046155fe565b612b0e565b348015610f8a57600080fd5b5061055860f85481565b348015610fa057600080fd5b506105af7f000000000000000000000000000000000000000000000000000000000000000081565b348015610fd457600080fd5b506104e5610fe3366004615862565b612b9d565b348015610ff457600080fd5b506105af7f000000000000000000000000000000000000000000000000000000000000000081565b34801561102857600080fd5b5061055861103736600461561a565b6001600160a01b03918216600090815260986020908152604080832093909416825291909152205490565b34801561106e57600080fd5b506105af7f000000000000000000000000000000000000000000000000000000000000000081565b3480156110a257600080fd5b506104e56110b1366004615652565b612c0a565b3480156110c257600080fd5b5061055860fa5481565b3480156110d857600080fd5b506104e56110e73660046155fe565b612e16565b3480156110f857600080fd5b506104e5612f09565b34801561110d57600080fd5b506104e561111c3660046155fe565b613182565b6104e561321a565b34801561113557600080fd5b506111496111443660046155fe565b613284565b60408051928352602083019190915201610509565b34801561116a57600080fd5b506104e5613367565b34801561117f57600080fd5b5060f6546105af906001600160a01b031681565b34801561119f57600080fd5b5060fe546105af906001600160a01b031681565b3480156111bf57600080fd5b506104e56111ce366004615862565b6133bc565b6065546001600160a01b031633146112065760405162461bcd60e51b81526004016111fd90615ae4565b60405180910390fd5b60fe80546001600160a01b0319166001600160a01b0392909216919091179055565b6060609a805461123790615db7565b80601f016020809104026020016040519081016040528092919081815260200182805461126390615db7565b80156112b05780601f10611285576101008083540402835291602001916112b0565b820191906000526020600020905b81548152906001019060200180831161129357829003601f168201915b5050505050905090565b60006112c733848461349d565b5060015b92915050565b60006112de8484846135c2565b6001600160a01b0384166000908152609860209081526040808320338452909152902054828110156113635760405162461bcd60e51b815260206004820152602860248201527f45524332303a207472616e7366657220616d6f756e74206578636565647320616044820152676c6c6f77616e636560c01b60648201526084016111fd565b611370853385840361349d565b60019150505b9392505050565b6113878133613792565b50565b3360008181526098602090815260408083206001600160a01b038716845290915281205490916112c79185906113c1908690615c32565b61349d565b60cc5460009060ff61010090910416816113fc6113e260995490565b6113ea612101565b60d0546001600160801b031685613844565b905061141161140a85612a2c565b8284613884565b949350505050565b6065546001600160a01b031633146114435760405162461bcd60e51b81526004016111fd90615ae4565b6000811161147d5760405162461bcd60e51b81526020600482015260076024820152660216e65774361760cc1b60448201526064016111fd565b611486816138e6565b60ce54604080516001600160681b039092168252602082018390527f5f86edbb9d92228a9edc3f0ebc0f001bda1ea345ac7335e0eeef3504b31d1a1c910160405180910390a160ce80546cffffffffffffffffffffffffff19166001600160681b0392909216919091179055565b6065546001600160a01b0316331461151e5760405162461bcd60e51b81526004016111fd90615ae4565b6000816001600160801b0316116115665760405162461bcd60e51b815260206004820152600c60248201526b21737472696b65507269636560a01b60448201526064016111fd565b6001600160801b031660fa5560cf5460f9805461ffff191661ffff909216919091179055565b6065546001600160a01b031633146115b65760405162461bcd60e51b81526004016111fd90615ae4565b61010080546001600160a01b0319166001600160a01b0392909216919091179055565b60d4546001600160a01b031633146116035760405162461bcd60e51b81526004016111fd90615a75565b6000811161163f5760405162461bcd60e51b8152602060048201526009602482015268216d696e507269636560b81b60448201526064016111fd565b60f855565b60d4546001600160a01b0316331461166e5760405162461bcd60e51b81526004016111fd90615a75565b600260015414156116915760405162461bcd60e51b81526004016111fd90615b19565b600260015560d2546040516358ffbb3d60e01b81526001600160a01b037f000000000000000000000000000000000000000000000000000000000000000081166004830152909116602482015260009073__$c4f279750f4bbb575ac7775e752dc00849$__906358ffbb3d9060440160206040518083038186803b15801561171857600080fd5b505af415801561172c573d6000803e3d6000fd5b505050506040513d601f19601f82011682018060405250810190611750919061587a565b604051632eca54bf60e21b815260048101829052909150611807906001600160a01b037f0000000000000000000000000000000000000000000000000000000000000000169063bb2952fc9060240160206040518083038186803b1580156117b757600080fd5b505afa1580156117cb573d6000803e3d6000fd5b505050506040513d601f19601f820116820180604052508101906117ef919061587a565b60cf546201000090046001600160681b031690613930565b60cf805462010000600160781b031916620100006001600160681b039390931692909202919091179055604051631989ea7560e21b81526001600160a01b037f0000000000000000000000000000000000000000000000000000000000000000811660048301527f0000000000000000000000000000000000000000000000000000000000000000811660248301527f000000000000000000000000000000000000000000000000000000000000000016604482015273__$09b2ed88edfa44a3a64aec022eed7f982f$__90636627a9d49060640160006040518083038186803b1580156118f457600080fd5b505af4158015611908573d6000803e3d6000fd5b505060018055505050565b6001600160a01b0381166119555760405162461bcd60e51b815260206004820152600960248201526810b1b932b234ba37b960b91b60448201526064016111fd565b61195f8282613792565b5050565b60d4546001600160a01b0316331461198d5760405162461bcd60e51b81526004016111fd90615a75565b600260015414156119b05760405162461bcd60e51b81526004016111fd90615b19565b60026001556119bd61393c565b60018055565b600260015414156119e65760405162461bcd60e51b81526004016111fd90615b19565b60026001819055506119bd60006001613a6f565b6065546001600160a01b03163314611a245760405162461bcd60e51b81526004016111fd90615ae4565b611a32620f42406064615d55565b8110611a805760405162461bcd60e51b815260206004820152601760248201527f496e76616c696420706572666f726d616e63652066656500000000000000000060448201526064016111fd565b60d55460408051918252602082018390527f24867dfb6fcb9970a07be21024956524abe7a1837faa903ff0e99aaa40cf893e910160405180910390a160d555565b6065546001600160a01b03163314611aeb5760405162461bcd60e51b81526004016111fd90615ae4565b611af56000613c1e565b565b6065546001600160a01b03163314611b215760405162461bcd60e51b81526004016111fd90615ae4565b6001600160a01b038216611b665760405162461bcd60e51b815260206004820152600c60248201526b085b995dd0dbdb9d1c9858dd60a21b60448201526064016111fd565b8015611b8d5760f680546001600160a01b0384166001600160a01b03199091161790555050565b60f580546001600160a01b0384166001600160a01b03199091161790555050565b60d3546040516370a0823160e01b81523060048201527f000000000000000000000000000000000000000000000000000000000000000091611387916001600160a01b03918216918416906370a082319060240160206040518083038186803b158015611c1a57600080fd5b505afa158015611c2e573d6000803e3d6000fd5b505050506040513d601f19601f82011682018060405250810190611c52919061587a565b6001600160a01b0384169190613c70565b60026001541415611c865760405162461bcd60e51b81526004016111fd90615b19565b6002600155611c9481613cd8565b60ff54611ca19082613e9f565b60ff555060018055565b6060609b805461123790615db7565b6000611cef611cc860995490565b611cd0612101565b60d05460cc546001600160801b0390911690610100900460ff16613844565b905090565b60026001541415611d175760405162461bcd60e51b81526004016111fd90615b19565b600260015580611d565760405162461bcd60e51b815260206004820152600a602482015269216e756d526f756e647360b01b60448201526064016111fd565b60cf5461ffff1660005b82811015611de5576000611d748284615c32565b600081815260ca602052604090205490915015611dc15760405162461bcd60e51b815260206004820152600b60248201526a125b9a5d1a585b1a5e995960aa1b60448201526064016111fd565b600090815260ca602052604090206001905580611ddd81615dec565b915050611d60565b50506001805550565b3360009081526098602090815260408083206001600160a01b038616845290915281205482811015611e705760405162461bcd60e51b815260206004820152602560248201527f45524332303a2064656372656173656420616c6c6f77616e63652062656c6f77604482015264207a65726f60d81b60648201526084016111fd565b611e7d338585840361349d565b5060019392505050565b6065546001600160a01b03163314611eb15760405162461bcd60e51b81526004016111fd90615ae4565b61012c811015611f035760405162461bcd60e51b815260206004820152601860248201527f496e76616c69642061756374696f6e206475726174696f6e000000000000000060448201526064016111fd565b60fb5460408051918252602082018390527f5acd982e2240ed224a69aa03dab039d3797c108e4b5f288cd7dd6ca181b275f3910160405180910390a160fb55565b60026001541415611f675760405162461bcd60e51b81526004016111fd90615b19565b600260015560fe546001600160a01b031680611f8257600080fd5b60008211611f8f57600080fd5b3360009081526097602052604090205482811015611fbb57611fbb611fb48483613930565b6000613a6f565b611fc63330856135c2565b611fd130838561349d565b6040516383df674760e01b815260048101849052336024820152600060448201526001600160a01b038316906383df674790606401600060405180830381600087803b15801561202057600080fd5b505af1158015612034573d6000803e3d6000fd5b5050600180555050505050565b60006112c73384846135c2565b600260015414156120715760405162461bcd60e51b81526004016111fd90615b19565b6002600155346120ac5760405162461bcd60e51b81526020600482015260066024820152652176616c756560d01b60448201526064016111fd565b6001600160a01b0381166120ee5760405162461bcd60e51b815260206004820152600960248201526810b1b932b234ba37b960b91b60448201526064016111fd565b6120fa34826001613eab565b5060018055565b6040516370a0823160e01b815230600482015260009081906001600160a01b037f000000000000000000000000000000000000000000000000000000000000000016906370a082319060240160206040518083038186803b15801561216557600080fd5b505afa158015612179573d6000803e3d6000fd5b505050506040513d601f19601f8201168201806040525081019061219d919061587a565b6040516370a0823160e01b815230600482015290915047906000907f00000000000000000000000000000000000000000000000000000000000000006001600160a01b03169063bb2952fc9082906370a082319060240160206040518083038186803b15801561220c57600080fd5b505afa158015612220573d6000803e3d6000fd5b505050506040513d601f19601f82011682018060405250810190612244919061587a565b6040518263ffffffff1660e01b815260040161226291815260200190565b60206040518083038186803b15801561227a57600080fd5b505afa15801561228e573d6000803e3d6000fd5b505050506040513d601f19601f820116820180604052508101906122b2919061587a565b6040516370a0823160e01b81523060048201529091506000906001600160a01b037f000000000000000000000000000000000000000000000000000000000000000016906370a082319060240160206040518083038186803b15801561231757600080fd5b505afa15801561232b573d6000803e3d6000fd5b505050506040513d601f19601f8201168201806040525081019061234f919061587a565b60cf5490915061238390829061237d9085908290889082908b906201000090046001600160681b0316613e9f565b90613e9f565b94505050505090565b60d4546001600160a01b031633146123b65760405162461bcd60e51b81526004016111fd90615a75565b600260015414156123d95760405162461bcd60e51b81526004016111fd90615b19565b600260015560ff5460fd5460009081906123f3908461414a565b60fd81905560d054919350915060009061241d90600160801b90046001600160801b031685613e9f565b905061242881614649565b60d080546001600160801b03808416600160801b029116179055600060ff81905560405162b0e38960e81b8152612589906001600160a01b037f0000000000000000000000000000000000000000000000000000000000000000169063b0e389009061249c90879060040190815260200190565b60206040518083038186803b1580156124b457600080fd5b505afa1580156124c8573d6000803e3d6000fd5b505050506040513d601f19601f820116820180604052508101906124ec919061587a565b6040516370a0823160e01b81523060048201527f00000000000000000000000000000000000000000000000000000000000000006001600160a01b0316906370a082319060240160206040518083038186803b15801561254b57600080fd5b505afa15801561255f573d6000803e3d6000fd5b505050506040513d601f19601f82011682018060405250810190612583919061587a565b90613930565b9050336001600160a01b0316846001600160a01b03167f045c558fdce4714c5816d53820d27420f4cd860892df203fe636384d8d19aa01836040516125d091815260200190565b60405180910390a3604051632904c23960e01b81526001600160a01b037f0000000000000000000000000000000000000000000000000000000000000000811660048301527f000000000000000000000000000000000000000000000000000000000000000081166024830152851660448201526064810182905273__$09b2ed88edfa44a3a64aec022eed7f982f$__90632904c2399060840160206040518083038186803b15801561268257600080fd5b505af4158015612696573d6000803e3d6000fd5b505050506040513d601f19601f820116820180604052508101906126ba919061587a565b5061190861393c565b600260015414156126e65760405162461bcd60e51b81526004016111fd90615b19565b600260015533600090815260c96020526040902060cf5461ffff16836127385760405162461bcd60e51b815260206004820152600760248201526608585b5bdd5b9d60ca1b60448201526064016111fd565b815461ffff16811461277c5760405162461bcd60e51b815260206004820152600d60248201526c125b9d985b1a59081c9bdd5b99609a1b60448201526064016111fd565b81546201000090046001600160681b0316848110156127cd5760405162461bcd60e51b815260206004820152600d60248201526c115e18d9595908185b5bdd5b9d609a1b60448201526064016111fd565b6127d78186613930565b83546001600160681b0391909116620100000262010000600160781b031990911617835560d054612811906001600160801b031686613930565b60d080546001600160801b0319166001600160801b0392909216919091179055604051633be3450960e11b81526001600160a01b037f0000000000000000000000000000000000000000000000000000000000000000811660048301527f00000000000000000000000000000000000000000000000000000000000000001660248201526044810186905261294390339073__$09b2ed88edfa44a3a64aec022eed7f982f$__906377c68a12906064015b60206040518083038186803b1580156128da57600080fd5b505af41580156128ee573d6000803e3d6000fd5b505050506040513d601f19601f82011682018060405250810190612912919061587a565b6001600160a01b037f0000000000000000000000000000000000000000000000000000000000000000169190613c70565b604080518681526020810184905233917fab2daf3c146ca6416cbccd2a86ed2ba995e171ef6319df14a38aef01403a9c96910160405180910390a2505060018055505050565b610100546001600160a01b0316806129a057600080fd5b6129ac60006001613a6f565b33600081815260976020526040902054906129c890838361349d565b60405163c9c2d4f560e01b8152336004820152602481018290526001600160a01b0383169063c9c2d4f590604401600060405180830381600087803b158015612a1057600080fd5b505af1158015612a24573d6000803e3d6000fd5b505050505050565b6000806000612a3a84613284565b90925090506114118282613e9f565b60d4546001600160a01b03163314612a735760405162461bcd60e51b81526004016111fd90615a75565b600081118015612a8e5750612a8a600a6064615d55565b8111155b612acd5760405162461bcd60e51b815260206004820152601060248201526f125b9d985b1a5908191a5cd8dbdd5b9d60821b60448201526064016111fd565b60f75460408051918252602082018390527f4cd657fde404967d63a338fb06c5c98751a9df57dfae6dc333a432faf8a5f656910160405180910390a160f755565b6065546001600160a01b03163314612b385760405162461bcd60e51b81526004016111fd90615ae4565b6001600160a01b038116612b7b5760405162461bcd60e51b815260206004820152600a60248201526910b732bba5b2b2b832b960b11b60448201526064016111fd565b60d480546001600160a01b0319166001600160a01b0392909216919091179055565b60026001541415612bc05760405162461bcd60e51b81526004016111fd90615b19565b600260015580612bff5760405162461bcd60e51b815260206004820152600a602482015269216e756d53686172657360b01b60448201526064016111fd565b6120fa816000613a6f565b600054610100900460ff1680612c23575060005460ff16155b612c3f5760405162461bcd60e51b81526004016111fd90615a96565b600054610100900460ff16158015612c61576000805461ffff19166101011790555b612c718d8d8d8d8d8d8d89614693565b6001600160a01b038616612cc05760405162461bcd60e51b815260206004820152601660248201527510afb7b83a34b7b739a83932b6b4bab6a83934b1b2b960511b60448201526064016111fd565b6001600160a01b038516612d0a5760405162461bcd60e51b815260206004820152601160248201527010afb9ba3934b5b2a9b2b632b1ba34b7b760791b60448201526064016111fd565b60008463ffffffff16118015612d305750612d27600a6064615d55565b8463ffffffff16105b612d705760405162461bcd60e51b81526020600482015260116024820152700857dc1c995b5a5d5b511a5cd8dbdd5b9d607a1b60448201526064016111fd565b61012c831015612db65760405162461bcd60e51b815260206004820152601160248201527010afb0bab1ba34b7b7223ab930ba34b7b760791b60448201526064016111fd565b60f580546001600160a01b038089166001600160a01b03199283161790925560f680549288169290911691909117905563ffffffff841660f75560fb8390558015612e07576000805461ff00191690555b50505050505050505050505050565b6065546001600160a01b03163314612e405760405162461bcd60e51b81526004016111fd90615ae4565b6001600160a01b038116612e895760405162461bcd60e51b815260206004820152601060248201526f085b995dd19959549958da5c1a595b9d60821b60448201526064016111fd565b60d3546001600160a01b0382811691161415612ee75760405162461bcd60e51b815260206004820152601860248201527f4d757374206265206e657720666565526563697069656e74000000000000000060448201526064016111fd565b60d380546001600160a01b0319166001600160a01b0392909216919091179055565b60026001541415612f2c5760405162461bcd60e51b81526004016111fd90615b19565b600260015560d25460408051610120810182526001600160a01b037f0000000000000000000000000000000000000000000000000000000000000000811682527f00000000000000000000000000000000000000000000000000000000000000008116602083015292831681830181905260006060830181905260f95461ffff16608084015260fa5460a084015260f654851660c084015260f55490941660e083015260f75461010083015291516001621eaadd60e11b03198152919290918190819073__$09b2ed88edfa44a3a64aec022eed7f982f$__9063ffc2aa469061304190879060cc9060cf907f000000000000000000000000000000000000000000000000000000000000000090600401615b50565b60606040518083038186803b15801561305957600080fd5b505af415801561306d573d6000803e3d6000fd5b505050506040513d601f19601f8201168201806040525081019061309191906157e9565b604080518381526020810183905293965091945092507fa217999b1c125c2a996f712c5f26a28addad7167bd8a67d5bd5b2a751148abb0910160405180910390a160d180546001600160a01b0319166001600160a01b03851617905560006130f94282613e9f565b905063ffffffff81111561314f5760405162461bcd60e51b815260206004820152601860248201527f4f766572666c6f77206e6578744f7074696f6e5265616479000000000000000060448201526064016111fd565b60d2805463ffffffff60a01b1916600160a01b63ffffffff8416021790556131768661485b565b50506001805550505050565b6065546001600160a01b031633146131ac5760405162461bcd60e51b81526004016111fd90615ae4565b6001600160a01b0381166132115760405162461bcd60e51b815260206004820152602660248201527f4f776e61626c653a206e6577206f776e657220697320746865207a65726f206160448201526564647265737360d01b60648201526084016111fd565b61138781613c1e565b6002600154141561323d5760405162461bcd60e51b81526004016111fd90615b19565b6002600155346132785760405162461bcd60e51b81526020600482015260066024820152652176616c756560d01b60448201526064016111fd565b6119bd34336001613eab565b6001600160a01b038116600090815260c9602090815260408083208151606081018352905461ffff81168083526201000082046001600160681b031694830194909452600160781b90046001600160801b031691810191909152829160011115613306575050506001600160a01b031660009081526097602052604081205491565b60cf54815161ffff908116600090815260ca602052604081205460cc54919361333c93869391169190610100900460ff166149cd565b905061335d856001600160a01b031660009081526097602052604090205490565b9590945092505050565b6002600154141561338a5760405162461bcd60e51b81526004016111fd90615b19565b60026001556000613399614a3e565b60fd549091506133a99082613930565b6001600160801b031660fd555060018055565b6065546001600160a01b031633146133e65760405162461bcd60e51b81526004016111fd90615ae4565b6133f4620f42406064615d55565b811061343b5760405162461bcd60e51b8152602060048201526016602482015275496e76616c6964206d616e6167656d656e742066656560501b60448201526064016111fd565b600061345863031ba30961345284620f4240614c44565b90614c50565b60d65460408051918252602082018590529192507f4e874b007ab14f7e263baefd44951834c8266f4f224d1092e49e9c254354cc54910160405180910390a160d65550565b6001600160a01b0383166134ff5760405162461bcd60e51b8152602060048201526024808201527f45524332303a20617070726f76652066726f6d20746865207a65726f206164646044820152637265737360e01b60648201526084016111fd565b6001600160a01b0382166135605760405162461bcd60e51b815260206004820152602260248201527f45524332303a20617070726f766520746f20746865207a65726f206164647265604482015261737360f01b60648201526084016111fd565b6001600160a01b0383811660008181526098602090815260408083209487168084529482529182902085905590518481527f8c5be1e5ebec7d5bd14f71427d1e84f3dd0314c0f7b2291e5b200ac8c7c3b92591015b60405180910390a3505050565b6001600160a01b0383166136265760405162461bcd60e51b815260206004820152602560248201527f45524332303a207472616e736665722066726f6d20746865207a65726f206164604482015264647265737360d81b60648201526084016111fd565b6001600160a01b0382166136885760405162461bcd60e51b815260206004820152602360248201527f45524332303a207472616e7366657220746f20746865207a65726f206164647260448201526265737360e81b60648201526084016111fd565b6001600160a01b038316600090815260976020526040902054818110156137005760405162461bcd60e51b815260206004820152602660248201527f45524332303a207472616e7366657220616d6f756e7420657863656564732062604482015265616c616e636560d01b60648201526084016111fd565b6001600160a01b03808516600090815260976020526040808220858503905591851681529081208054849290613737908490615c32565b92505081905550826001600160a01b0316846001600160a01b03167fddf252ad1be2c89b69c2b068fc378daa952ba7f163c4a11628f55a4df523b3ef8460405161378391815260200190565b60405180910390a35b50505050565b600260015414156137b55760405162461bcd60e51b81526004016111fd90615b19565b6002600155816137f15760405162461bcd60e51b815260206004820152600760248201526608585b5bdd5b9d60ca1b60448201526064016111fd565b6138076137ff836001613930565b826000613eab565b61383c6001600160a01b037f000000000000000000000000000000000000000000000000000000000000000016333085614c5c565b505060018055565b60008061385283600a615cad565b905060008611613862578061387a565b61387a866134526138738888613930565b8490614c44565b9695505050505050565b6000600183116138ce5760405162461bcd60e51b8152602060048201526015602482015274496e76616c6964206173736574506572536861726560581b60448201526064016111fd565b6114116138dc83600a615cad565b6134528686614c44565b6001600160681b038111156113875760405162461bcd60e51b815260206004820152601060248201526f13dd995c999b1bddc81d5a5b9d0c4c0d60821b60448201526064016111fd565b60006113768284615d74565b6040805160c08101825260d2546001600160a01b039081168083527f000000000000000000000000000000000000000000000000000000000000000082166020840190815260cc54620100008104841685870190815260ff610100909204919091166060860190815260f8546080870190815260fb5460a088019081529751633baf17fd60e21b8152875187166004820152935186166024850152915190941660448301529251606482015291516084830152925160a482015290919073__$c4f279750f4bbb575ac7775e752dc00849$__9063eebc5ff49060c40160206040518083038186803b158015613a3057600080fd5b505af4158015613a44573d6000803e3d6000fd5b505050506040513d601f19601f82011682018060405250810190613a68919061587a565b60fc555050565b33600090815260c9602090815260408083208151606081018352905461ffff8082168084526201000083046001600160681b031684870152600160781b9092046001600160801b03168385015260cf5491865260ca9094529184205460cc5491949290931692613aea9185918591610100900460ff166149cd565b905083613af75784613af9565b805b945084613b07575050505050565b80851115613b4b5760405162461bcd60e51b81526020600482015260116024820152704578636565647320617661696c61626c6560781b60448201526064016111fd565b825161ffff16821115613b785733600090815260c960205260409020805462010000600160781b03191690555b613b8185614649565b613b8b8186613930565b33600081815260c960205260409081902080546001600160801b0394909416600160781b02600160781b600160f81b0319909416939093179092558451915190917fe5b754fb1abb7f01b499791d0b820ae3b6af3424ac1c59768edb53f4ec31a92991613c049189825261ffff16602082015260400190565b60405180910390a2613c173033876135c2565b5050505050565b606580546001600160a01b038381166001600160a01b0319831681179093556040519116919082907f8be0079c531659141344cd1fd0a4f28419497f9722a3daafe3b4186f6b6457e090600090a35050565b6040516001600160a01b038316602482015260448101829052613cd390849063a9059cbb60e01b906064015b60408051601f198184030181529190526020810180516001600160e01b03166001600160e01b031990931692909217909152614c94565b505050565b60008111613d155760405162461bcd60e51b815260206004820152600a602482015269216e756d53686172657360b01b60448201526064016111fd565b33600090815260c960205260409020546201000090046001600160681b0316151580613d5f575033600090815260c96020526040902054600160781b90046001600160801b031615155b15613d7057613d7060006001613a6f565b60cf5433600081815260cb60209081526040918290208054835187815261ffff96871693810184905292959194911685149290917f0c53c82ad07e2d592d88ece3b066777dd60f1118e2a081b380efc4358f0d9e2a910160405180910390a281546201000090046001600160801b031660008215613df957613df28287613e9f565b9050613e5c565b8115613e3b5760405162461bcd60e51b81526020600482015260116024820152704578697374696e6720776974686472617760781b60448201526064016111fd565b5033600090815260cb60205260409020805461ffff191661ffff8616179055845b613e6581614649565b33600081815260cb60205260409020805462010000600160901b031916620100006001600160801b03851602179055612a249030886135c2565b60006113768284615c32565b60cf5461ffff16600082613eca57613ec58561237d612101565b613ed2565b613ed2612101565b60ce549091506001600160681b0316811115613f1d5760405162461bcd60e51b815260206004820152600a6024820152690457863656564206361760b41b60448201526064016111fd565b60cd54600160a01b900466ffffffffffffff16811015613f765760405162461bcd60e51b8152602060048201526014602482015273496e73756666696369656e742062616c616e636560601b60448201526064016111fd565b60408051868152602081018490526001600160a01b038616917f90890809c654f11d6e72a28fa60149770a0d11ec6c92319d6ceb2bb0a4ea1a15910160405180910390a26001600160a01b038416600090815260c9602090815260408083208151606081018352905461ffff81168083526201000082046001600160681b031683860152600160781b9091046001600160801b031682840152845260ca90925282205460cc54919291614035918491879190610100900460ff166149cd565b8251909150879061ffff16851415614066576020830151600090614062906001600160681b03168a613e9f565b9150505b61406f816138e6565b6040805160608101825261ffff80881682526001600160681b0380851660208085019182526001600160801b038089168688019081526001600160a01b038f16600090815260c990935296822095518654935197518216600160781b02600160781b600160f81b03199890951662010000026effffffffffffffffffffffffffffff1990941695169490941791909117949094161790915560d05461411591168a613e9f565b905061412081614649565b60d080546001600160801b0319166001600160801b03929092169190911790555050505050505050565b60d2546000908190600160a01b900463ffffffff164210156141975760405162461bcd60e51b815260206004820152600660248201526521726561647960d01b60448201526064016111fd565b60d1546001600160a01b0316806141de5760405162461bcd60e51b815260206004820152600b60248201526a10b732bc3a27b83a34b7b760a91b60448201526064016111fd565b60008060008060008073__$c4f279750f4bbb575ac7775e752dc00849$__63633c142660cf6040518060e0016040528060cc60000160019054906101000a900460ff1660ff168152602001614231612101565b815260200161423f60995490565b81526020018f815260200160d554815260200160d65481526020018e8152506040518363ffffffff1660e01b81526004016142cc92919060006101008201905083825282516020830152602083015160408301526040830151606083015260608301516080830152608083015160a083015260a083015160c083015260c083015160e08301529392505050565b60c06040518083038186803b1580156142e457600080fd5b505af41580156142f8573d6000803e3d6000fd5b505050506040513d601f19601f8201168201806040525081019061431c91906158d7565b9550955095509550955095508660d160010160006101000a8154816001600160a01b0302191690836001600160a01b03160217905550600060d160000160006101000a8154816001600160a01b0302191690836001600160a01b03160217905550600060d360009054906101000a90046001600160a01b0316905060007f00000000000000000000000000000000000000000000000000000000000000009050600060cf60000160009054906101000a900461ffff1661ffff1690508660ca60008381526020019081526020016000208190555073__$09b2ed88edfa44a3a64aec022eed7f982f$__636627a9d47f0000000000000000000000000000000000000000000000000000000000000000847f00000000000000000000000000000000000000000000000000000000000000006040518463ffffffff1660e01b8152600401614489939291906001600160a01b0393841681529183166020830152909116604082015260600190565b60006040518083038186803b1580156144a157600080fd5b505af41580156144b5573d6000803e3d6000fd5b505060408051888152602081018890529081018490526001600160a01b03861692507f0a242f7ecaf711036ca770774ceffae28e60ef042ac113ddd187f2631db0c006915060600160405180910390a260d080546001600160801b0319169055614520816001615c32565b60cf805461ffff191661ffff9290921691909117905561453f896138e6565b60cf805462010000600160781b031916620100006001600160681b038c160217905561456b3087614d66565b8315614635576040516305ffc87f60e31b81526001600160a01b0380841660048301527f000000000000000000000000000000000000000000000000000000000000000081166024830152841660448201526064810185905273__$09b2ed88edfa44a3a64aec022eed7f982f$__90632ffe43f89060840160206040518083038186803b1580156145fb57600080fd5b505af415801561460f573d6000803e3d6000fd5b505050506040513d601f19601f82011682018060405250810190614633919061587a565b505b50979c959b50949950505050505050505050565b6001600160801b038111156113875760405162461bcd60e51b815260206004820152601060248201526f09eeccae4ccd8deee40ead2dce86264760831b60448201526064016111fd565b600054610100900460ff16806146ac575060005460ff16155b6146c85760405162461bcd60e51b81526004016111fd90615a96565b600054610100900460ff161580156146ea576000805461ffff19166101011790555b60405163c72733f760e01b815273__$c4f279750f4bbb575ac7775e752dc00849$__9063c72733f79061472f908c908c908c908b908d908c908c908c90600401615968565b60006040518083038186803b15801561474757600080fd5b505af415801561475b573d6000803e3d6000fd5b50505050614767614e45565b6147718484614eb8565b614779614f37565b61478289613182565b60d480546001600160a01b03808b166001600160a01b03199283161790925560d38054928a169290911691909117905560d58590556147cc63031ba30961345288620f4240614c44565b60d6558160cc6147dc8282615e5a565b90505060006147e9612101565b90506147f4816138e6565b60cf805461ffff196001600160681b03909316600160781b02929092167fffffffff00000000000000000000000000ffffffffffffffffffffffffff00009092169190911760011790558015614850576000805461ff00191690555b505050505050505050565b60cf546201000090046001600160681b03166001600160a01b038216156148a75760cf80546cffffffffffffffffffffffffff60781b1916600160781b6001600160681b038416021790555b60cf805462010000600160781b031916905560d280546001600160a01b03191690556001600160a01b0382161561195f57604051636c6fe87f60e11b81526001600160a01b037f000000000000000000000000000000000000000000000000000000000000000016600482015260009073__$c4f279750f4bbb575ac7775e752dc00849$__9063d8dfd0fe9060240160206040518083038186803b15801561494e57600080fd5b505af4158015614962573d6000803e3d6000fd5b505050506040513d601f19601f82011682018060405250810190614986919061587a565b9050336001600160a01b0316836001600160a01b03167f7e830f7c1771deb1bdb35c4a7e6051bbac32b376f7f4e4976b8618b0b11997f7836040516135b591815260200190565b835160009061ffff16158015906149e85750845161ffff1684115b15614a2a576000614a0786602001516001600160681b03168585614f9e565b6040870151909150614a22906001600160801b031682613e9f565b915050611411565b50505050604001516001600160801b031690565b33600090815260cb6020526040812080546001600160801b03620100008204169061ffff1681614aa05760405162461bcd60e51b815260206004820152600d60248201526c139bdd081a5b9a5d1a585d1959609a1b60448201526064016111fd565b60cf5461ffff168110614ae85760405162461bcd60e51b815260206004820152601060248201526f149bdd5b99081b9bdd0818db1bdcd95960821b60448201526064016111fd565b33600090815260cb60205260409020805462010000600160901b031916905560d054614b2490600160801b90046001600160801b031683613930565b60d080546001600160801b03928316600160801b029216919091179055600081815260ca602052604081205460cc54614b6791859160ff61010090910416613884565b604051633be3450960e11b81526001600160a01b037f0000000000000000000000000000000000000000000000000000000000000000811660048301527f000000000000000000000000000000000000000000000000000000000000000016602482015260448101829052909150614bff90339073__$09b2ed88edfa44a3a64aec022eed7f982f$__906377c68a12906064016128c2565b604080518281526020810185905233917ff279e6a1f5e320cca91135676d9cb6e44ca8a08c0b88342bcdb1144f6511b568910160405180910390a26114113084615001565b60006113768284615d55565b60006113768284615c4a565b6040516001600160a01b038085166024830152831660448201526064810182905261378c9085906323b872dd60e01b90608401613c9c565b6000614ce9826040518060400160405280602081526020017f5361666545524332303a206c6f772d6c6576656c2063616c6c206661696c6564815250856001600160a01b031661514f9092919063ffffffff16565b805190915015613cd35780806020019051810190614d07919061581f565b613cd35760405162461bcd60e51b815260206004820152602a60248201527f5361666545524332303a204552433230206f7065726174696f6e20646964206e6044820152691bdd081cdd58d8d9595960b21b60648201526084016111fd565b6001600160a01b038216614dbc5760405162461bcd60e51b815260206004820152601f60248201527f45524332303a206d696e7420746f20746865207a65726f20616464726573730060448201526064016111fd565b8060996000828254614dce9190615c32565b90915550506001600160a01b03821660009081526097602052604081208054839290614dfb908490615c32565b90915550506040518181526001600160a01b038316906000907fddf252ad1be2c89b69c2b068fc378daa952ba7f163c4a11628f55a4df523b3ef9060200160405180910390a35050565b600054610100900460ff1680614e5e575060005460ff16155b614e7a5760405162461bcd60e51b81526004016111fd90615a96565b600054610100900460ff16158015614e9c576000805461ffff19166101011790555b614ea461515e565b8015611387576000805461ff001916905550565b600054610100900460ff1680614ed1575060005460ff16155b614eed5760405162461bcd60e51b81526004016111fd90615a96565b600054610100900460ff16158015614f0f576000805461ffff19166101011790555b614f176151cd565b614f218383615237565b8015613cd3576000805461ff0019169055505050565b600054610100900460ff1680614f50575060005460ff16155b614f6c5760405162461bcd60e51b81526004016111fd90615a96565b600054610100900460ff16158015614f8e576000805461ffff19166101011790555b614f966151cd565b614ea46152cc565b600060018311614fe85760405162461bcd60e51b8152602060048201526015602482015274496e76616c6964206173736574506572536861726560581b60448201526064016111fd565b61141183613452614ffa85600a615cad565b8790614c44565b6001600160a01b0382166150615760405162461bcd60e51b815260206004820152602160248201527f45524332303a206275726e2066726f6d20746865207a65726f206164647265736044820152607360f81b60648201526084016111fd565b6001600160a01b038216600090815260976020526040902054818110156150d55760405162461bcd60e51b815260206004820152602260248201527f45524332303a206275726e20616d6f756e7420657863656564732062616c616e604482015261636560f01b60648201526084016111fd565b6001600160a01b0383166000908152609760205260408120838303905560998054849290615104908490615d74565b90915550506040518281526000906001600160a01b038516907fddf252ad1be2c89b69c2b068fc378daa952ba7f163c4a11628f55a4df523b3ef9060200160405180910390a3505050565b6060611411848460008561532c565b600054610100900460ff1680615177575060005460ff16155b6151935760405162461bcd60e51b81526004016111fd90615a96565b600054610100900460ff161580156151b5576000805461ffff19166101011790555b600180558015611387576000805461ff001916905550565b600054610100900460ff16806151e6575060005460ff16155b6152025760405162461bcd60e51b81526004016111fd90615a96565b600054610100900460ff16158015614ea4576000805461ffff19166101011790558015611387576000805461ff001916905550565b600054610100900460ff1680615250575060005460ff16155b61526c5760405162461bcd60e51b81526004016111fd90615a96565b600054610100900460ff1615801561528e576000805461ffff19166101011790555b82516152a190609a90602086019061548d565b5081516152b590609b90602085019061548d565b508015613cd3576000805461ff0019169055505050565b600054610100900460ff16806152e5575060005460ff16155b6153015760405162461bcd60e51b81526004016111fd90615a96565b600054610100900460ff16158015615323576000805461ffff19166101011790555b614ea433613c1e565b60608247101561538d5760405162461bcd60e51b815260206004820152602660248201527f416464726573733a20696e73756666696369656e742062616c616e636520666f6044820152651c8818d85b1b60d21b60648201526084016111fd565b843b6153db5760405162461bcd60e51b815260206004820152601d60248201527f416464726573733a2063616c6c20746f206e6f6e2d636f6e747261637400000060448201526064016111fd565b600080866001600160a01b031685876040516153f7919061594c565b60006040518083038185875af1925050503d8060008114615434576040519150601f19603f3d011682016040523d82523d6000602084013e615439565b606091505b5091509150615449828286615454565b979650505050505050565b60608315615463575081611376565b8251156154735782518084602001fd5b8160405162461bcd60e51b81526004016111fd9190615a62565b82805461549990615db7565b90600052602060002090601f0160209004810192826154bb5760008555615501565b82601f106154d457805160ff1916838001178555615501565b82800160010185558215615501579182015b828111156155015782518255916020019190600101906154e6565b5061550d929150615511565b5090565b5b8082111561550d5760008155600101615512565b803561553181615f6b565b919050565b600082601f830112615546578081fd5b813567ffffffffffffffff8082111561556157615561615e1d565b604051601f8301601f19908116603f0116810190828211818310171561558957615589615e1d565b816040528381528660208588010111156155a1578485fd5b8360208701602083013792830160200193909352509392505050565b600060c082840312156155ce578081fd5b50919050565b803561553181615f8e565b803563ffffffff8116811461553157600080fd5b803561553181615fa3565b60006020828403121561560f578081fd5b813561137681615f6b565b6000806040838503121561562c578081fd5b823561563781615f6b565b9150602083013561564781615f6b565b809150509250929050565b6000806000806000806000806000806000806102208d8f031215615674578788fd5b61567d8d615526565b9b5061568b60208e01615526565b9a5061569960408e01615526565b995060608d0135985060808d0135975067ffffffffffffffff60a08e013511156156c1578687fd5b6156d18e60a08f01358f01615536565b965067ffffffffffffffff60c08e013511156156eb578586fd5b6156fb8e60c08f01358f01615536565b955061570960e08e01615526565b94506157186101008e01615526565b93506157276101208e016155df565b92506101408d0135915061573f8e6101608f016155bd565b90509295989b509295989b509295989b565b600080600060608486031215615765578283fd5b833561577081615f6b565b9250602084013561578081615f6b565b929592945050506040919091013590565b600080604083850312156157a3578182fd5b82356157ae81615f6b565b9150602083013561564781615f80565b600080604083850312156157d0578182fd5b82356157db81615f6b565b946020939093013593505050565b6000806000606084860312156157fd578283fd5b835161580881615f6b565b602085015160409095015190969495509392505050565b600060208284031215615830578081fd5b815161137681615f80565b60006020828403121561584c578081fd5b81356001600160801b0381168114611376578182fd5b600060208284031215615873578081fd5b5035919050565b60006020828403121561588b578081fd5b5051919050565b600080604083850312156158a4578182fd5b82359150602083013561564781615f6b565b600080604083850312156158c8578182fd5b50508035926020909101359150565b60008060008060008060c087890312156158ef578384fd5b865195506020870151945060408701519350606087015192506080870151915060a087015190509295509295509295565b60008151808452615938816020860160208601615d8b565b601f01601f19169290920160200192915050565b6000825161595e818460208701615d8b565b9190910192915050565b60006101a060018060a01b03808c168452808b166020850152808a1660408501528860608501528760808501528160a08501526159a782850188615920565b915083820360c08501526159bb8287615920565b9250843591506159ca82615f80565b90151560e08401526020840135906159e182615fb8565b60ff8216610100850152604085013591506159fb82615f6b565b16610120830152615a0e60608401615526565b6001600160a01b0316610140830152615a29608084016155f3565b66ffffffffffffff16610160830152615a4460a084016155d4565b6001600160681b038116610180840152509998505050505050505050565b6020815260006113766020830184615920565b60208082526007908201526610b5b2b2b832b960c91b604082015260600190565b6020808252602e908201527f496e697469616c697a61626c653a20636f6e747261637420697320616c72656160408201526d191e481a5b9a5d1a585b1a5e995960921b606082015260800190565b6020808252818101527f4f776e61626c653a2063616c6c6572206973206e6f7420746865206f776e6572604082015260600190565b6020808252601f908201527f5265656e7472616e637947756172643a207265656e7472616e742063616c6c00604082015260600190565b84516001600160a01b03168152602080860151610180830191615b7d908401826001600160a01b03169052565b506040860151615b9860408401826001600160a01b03169052565b50606086015160608301526080860151615bb8608084018261ffff169052565b5060a086015160a083015260c0860151615bdd60c08401826001600160a01b03169052565b5060e0860151615bf860e08401826001600160a01b03169052565b506101008087015181840152508461012083015283610140830152615c296101608301846001600160a01b03169052565b95945050505050565b60008219821115615c4557615c45615e07565b500190565b600082615c6557634e487b7160e01b81526012600452602481fd5b500490565b600181815b80851115615ca5578160001904821115615c8b57615c8b615e07565b80851615615c9857918102915b93841c9390800290615c6f565b509250929050565b60006113768383600082615cc3575060016112cb565b81615cd0575060006112cb565b8160018114615ce65760028114615cf057615d0c565b60019150506112cb565b60ff841115615d0157615d01615e07565b50506001821b6112cb565b5060208310610133831016604e8410600b8410161715615d2f575081810a6112cb565b615d398383615c6a565b8060001904821115615d4d57615d4d615e07565b029392505050565b6000816000190483118215151615615d6f57615d6f615e07565b500290565b600082821015615d8657615d86615e07565b500390565b60005b83811015615da6578181015183820152602001615d8e565b8381111561378c5750506000910152565b600181811c90821680615dcb57607f821691505b602082108114156155ce57634e487b7160e01b600052602260045260246000fd5b6000600019821415615e0057615e00615e07565b5060010190565b634e487b7160e01b600052601160045260246000fd5b634e487b7160e01b600052604160045260246000fd5b600081356112cb81615f6b565b600081356112cb81615f8e565b600081356112cb81615fa3565b8135615e6581615f80565b815460ff19811691151560ff1691821783556020840135615e8581615fb8565b61ff008160081b169050808361ffff198416171784556040850135615ea981615f6b565b6001600160b01b0319929092169092179190911760109190911b62010000600160b01b031617815560018101615f01615ee460608501615e33565b82546001600160a01b0319166001600160a01b0391909116178255565b615f3a615f1060808501615e4d565b82805466ffffffffffffff60a01b191660a09290921b66ffffffffffffff60a01b16919091179055565b5061195f615f4a60a08401615e40565b600283016001600160681b0382166001600160681b03198254161781555050565b6001600160a01b038116811461138757600080fd5b801515811461138757600080fd5b6001600160681b038116811461138757600080fd5b66ffffffffffffff8116811461138757600080fd5b60ff8116811461138757600080fdfea2646970667358221220defc5bea4343f4fde38e62e52f5d1c6257ef92be315eefff792fcd0cbdc99cce64736f6c63430008040033",
  "libraries": {
    "VaultLifecycle": "0x25Af99Ff07575Ac55fB3C2D1E6B920Ba3bf67B40",
    "VaultLifecycleSTETH": "0x21f0FF1D33F76B938dec63cfFe0eE6171F4Bd6B0"
  },
  "devdoc": {
    "kind": "dev",
    "methods": {
      "accountVaultBalance(address)": {
        "params": {
          "account": "is the address to lookup balance for"
        },
        "returns": {
          "_0": "the amount of `asset` custodied by the vault for the user"
        }
      },
      "allowance(address,address)": {
        "details": "See {IERC20-allowance}."
      },
      "approve(address,uint256)": {
        "details": "See {IERC20-approve}. Requirements: - `spender` cannot be the zero address."
      },
      "balanceOf(address)": {
        "details": "See {IERC20-balanceOf}."
      },
      "constructor": {
        "params": {
          "_gammaController": "is the contract address for opyn actions",
          "_gnosisEasyAuction": "is the contract address that facilitates gnosis auctions",
          "_ldo": "is the LDO contract",
          "_marginPool": "is the contract address for providing collateral to opyn",
          "_oTokenFactory": "is the contract address for minting new opyn option types (strikes, asset, expiry)",
          "_usdc": "is the USDC contract",
          "_weth": "is the Wrapped Ether contract",
          "_wsteth": "is the LDO contract"
        }
      },
      "decreaseAllowance(address,uint256)": {
        "details": "Atomically decreases the allowance granted to `spender` by the caller. This is an alternative to {approve} that can be used as a mitigation for problems described in {IERC20-approve}. Emits an {Approval} event indicating the updated allowance. Requirements: - `spender` cannot be the zero address. - `spender` must have allowance for the caller of at least `subtractedValue`."
      },
      "depositFor(address)": {
        "params": {
          "creditor": "is the address that can claim/withdraw deposited amount"
        }
      },
      "depositYieldTokenFor(uint256,address)": {
        "params": {
          "amount": "is the amount of `collateralAsset` to deposit",
          "creditor": "is the amount of `collateralAsset` to deposit"
        }
      },
      "increaseAllowance(address,uint256)": {
        "details": "Atomically increases the allowance granted to `spender` by the caller. This is an alternative to {approve} that can be used as a mitigation for problems described in {IERC20-approve}. Emits an {Approval} event indicating the updated allowance. Requirements: - `spender` cannot be the zero address."
      },
      "initRounds(uint256)": {
        "params": {
          "numRounds": "is the number of rounds to initialize in the map"
        }
      },
      "initialize(address,address,address,uint256,uint256,string,string,address,address,uint32,uint256,(bool,uint8,address,address,uint56,uint104))": {
        "params": {
          "_auctionDuration": "is the duration of the gnosis auction",
          "_feeRecipient": "is the address to recieve vault performance and management fees",
          "_keeper": "is the keeper of the vault with medium permissions (weekly actions)",
          "_managementFee": "is the management fee pct.",
          "_optionsPremiumPricer": "is the address of the contract with the black-scholes premium calculation logic",
          "_owner": "is the owner of the vault with critical permissions",
          "_performanceFee": "is the perfomance fee pct.",
          "_premiumDiscount": "is the vault's discount applied to the premium",
          "_strikeSelection": "is the address of the contract with strike selection logic",
          "_tokenName": "is the name of the token",
          "_tokenSymbol": "is the symbol of the token",
          "_vaultParams": "is the struct with vault general data"
        }
      },
      "initiateWithdraw(uint256)": {
        "params": {
          "numShares": "is the number of shares to withdraw"
        }
      },
      "name()": {
        "details": "Returns the name of the token."
      },
      "owner()": {
        "details": "Returns the address of the current owner."
      },
      "redeem(uint256)": {
        "params": {
          "numShares": "is the number of shares to redeem"
        }
      },
      "renounceOwnership()": {
        "details": "Leaves the contract without owner. It will not be possible to call `onlyOwner` functions anymore. Can only be called by the current owner. NOTE: Renouncing ownership will leave the contract without an owner, thereby removing any functionality that is only available to the owner."
      },
      "setAuctionDuration(uint256)": {
        "params": {
          "newAuctionDuration": "is the auction duration"
        }
      },
      "setCap(uint256)": {
        "params": {
          "newCap": "is the new cap for deposits"
        }
      },
      "setFeeRecipient(address)": {
        "params": {
          "newFeeRecipient": "is the address of the new fee recipient"
        }
      },
      "setLiquidityGauge(address)": {
        "params": {
          "newLiquidityGauge": "is the address of the new liquidityGauge contract"
        }
      },
      "setManagementFee(uint256)": {
        "params": {
          "newManagementFee": "is the management fee (6 decimals). ex: 2 * 10 ** 6 = 2%"
        }
      },
      "setMinPrice(uint256)": {
        "params": {
          "minPrice": "is the new oToken Premium in the units of 10**18"
        }
      },
      "setNewKeeper(address)": {
        "params": {
          "newKeeper": "is the address of the new keeper"
        }
      },
      "setPerformanceFee(uint256)": {
        "params": {
          "newPerformanceFee": "is the performance fee (6 decimals). ex: 20 * 10 ** 6 = 20%"
        }
      },
      "setPremiumDiscount(uint256)": {
        "params": {
          "newPremiumDiscount": "is the premium discount"
        }
      },
      "setStrikePrice(uint128)": {
        "params": {
          "strikePrice": "is the strike price of the new oTokens (decimals = 8)"
        }
      },
      "setStrikeSelectionOrPricer(address,bool)": {
        "params": {
          "isStrikeSelection": "is whether we are setting the strike selection contract",
          "newContract": "is the address of the new strike selection or options premium pricer contract"
        }
      },
      "setVaultPauser(address)": {
        "params": {
          "newVaultPauser": "is the address of the new vaultPauser contract"
        }
      },
      "shareBalances(address)": {
        "params": {
          "account": "is the account to lookup share balance for"
        },
        "returns": {
          "heldByAccount": "is the shares held by account",
          "heldByVault": "is the shares held on the vault (unredeemedShares)"
        }
      },
      "shares(address)": {
        "params": {
          "account": "is the account to lookup share balance for"
        },
        "returns": {
          "_0": "the share balance"
        }
      },
      "stake(uint256)": {
        "params": {
          "numShares": "is the number of shares to stake"
        }
      },
      "symbol()": {
        "details": "Returns the symbol of the token, usually a shorter version of the name."
      },
      "totalBalance()": {
        "returns": {
          "_0": "total balance of the vault, including the amounts locked in third party protocols"
        }
      },
      "totalSupply()": {
        "details": "See {IERC20-totalSupply}."
      },
      "transfer(address,uint256)": {
        "details": "See {IERC20-transfer}. Requirements: - `recipient` cannot be the zero address. - the caller must have a balance of at least `amount`."
      },
      "transferFrom(address,address,uint256)": {
        "details": "See {IERC20-transferFrom}. Emits an {Approval} event indicating the updated allowance. This is not required by the EIP. See the note at the beginning of {ERC20}. Requirements: - `sender` and `recipient` cannot be the zero address. - `sender` must have a balance of at least `amount`. - the caller must have allowance for ``sender``'s tokens of at least `amount`."
      },
      "transferOwnership(address)": {
        "details": "Transfers ownership of the contract to a new account (`newOwner`). Can only be called by the current owner."
      },
      "withdrawInstantly(uint256,uint256)": {
        "params": {
          "amount": "is the amount to withdraw in `asset`"
        }
      }
    },
    "version": 1
  },
  "userdoc": {
    "kind": "user",
    "methods": {
      "DELAY()": {
        "notice": "15 minute timelock between commitAndClose and rollToNexOption."
      },
      "LDO()": {
        "notice": "Lido DAO token 0x5a98fcbea516cf06857215779fd812ca3bef1b32"
      },
      "OTOKEN_FACTORY()": {
        "notice": "is the factory contract used to spawn otokens. Used to lookup otokens."
      },
      "PERIOD()": {
        "notice": "7 day period between each options sale."
      },
      "STETH()": {
        "notice": "STETH contract address"
      },
      "USDC()": {
        "notice": "USDC 0xA0b86991c6218b36c1d19D4a2e9Eb0cE3606eB48"
      },
      "WETH()": {
        "notice": "WETH9 0xC02aaA39b223FE8D0A0e5C4F27eAD9083C756Cc2"
      },
      "accountVaultBalance(address)": {
        "notice": "Returns the asset balance held on the vault for the account"
      },
      "burnRemainingOTokens()": {
        "notice": "Burn the remaining oTokens left over from gnosis auction."
      },
      "collateralToken()": {
        "notice": "wstETH vault contract"
      },
      "commitAndClose()": {
        "notice": "Sets the next option the vault will be shorting, and closes the existing short.         This allows all the users to withdraw if the next option is malicious."
      },
      "completeWithdraw()": {
        "notice": "Completes a scheduled withdrawal from a past round. Uses finalized pps for the round"
      },
      "constructor": {
        "notice": "Initializes the contract with immutable variables"
      },
      "decimals()": {
        "notice": "Returns the token decimals"
      },
      "depositETH()": {
        "notice": "Deposits ETH into the contract and mint vault shares."
      },
      "depositFor(address)": {
        "notice": "Deposits the `asset` from msg.sender added to `creditor`'s deposit.Used for vault -> vault deposits on the user's behalf"
      },
      "depositReceipts(address)": {
        "notice": "Stores the user's pending deposit for the round"
      },
      "depositYieldTokenFor(uint256,address)": {
        "notice": "Deposits the `collateralAsset` into the contract and mint vault shares."
      },
      "feeRecipient()": {
        "notice": "Fee recipient for the performance and management fees"
      },
      "initRounds(uint256)": {
        "notice": "Helper function that helps to save gas for writing values into the roundPricePerShare map.         Writing `1` into the map makes subsequent writes warm, reducing the gas from 20k to 5k.         Having 1 initialized beforehand will not be an issue as long as we round down share calculations to 0."
      },
      "initialize(address,address,address,uint256,uint256,string,string,address,address,uint32,uint256,(bool,uint8,address,address,uint56,uint104))": {
        "notice": "Initializes the OptionVault contract with storage variables."
      },
      "initiateWithdraw(uint256)": {
        "notice": "Initiates a withdrawal that can be processed once the round completes"
      },
      "keeper()": {
        "notice": "role in charge of weekly vault operations such as rollToNextOption and burnRemainingOTokens"
      },
      "managementFee()": {
        "notice": "Management fee charged on entire AUM in rollToNextOption. Only charged when there is no loss."
      },
      "maxRedeem()": {
        "notice": "Redeems the entire unredeemedShares balance that is owed to the account"
      },
      "optionState()": {
        "notice": "Vault's state of the options sold and the timelocked option"
      },
      "pausePosition()": {
        "notice": "pause a user's vault position"
      },
      "performanceFee()": {
        "notice": "Performance fee charged on premiums earned in rollToNextOption. Only charged when there is no loss."
      },
      "pricePerShare()": {
        "notice": "The price of a unit of share denominated in the `asset`"
      },
      "redeem(uint256)": {
        "notice": "Redeems shares that are owed to the account"
      },
      "rollToNextOption()": {
        "notice": "Rolls the vault's funds into a new short position."
      },
      "roundPricePerShare(uint256)": {
        "notice": "On every round's close, the pricePerShare value of an rTHETA token is stored This is used to determine the number of shares to be returned to a user with their DepositReceipt.depositAmount"
      },
      "setAuctionDuration(uint256)": {
        "notice": "Sets the new auction duration"
      },
      "setCap(uint256)": {
        "notice": "Sets a new cap for deposits"
      },
      "setFeeRecipient(address)": {
        "notice": "Sets the new fee recipient"
      },
      "setLiquidityGauge(address)": {
        "notice": "Sets the new liquidityGauge contract for this vault"
      },
      "setManagementFee(uint256)": {
        "notice": "Sets the management fee for the vault"
      },
      "setMinPrice(uint256)": {
        "notice": "Sets oToken Premium"
      },
      "setNewKeeper(address)": {
        "notice": "Sets the new keeper"
      },
      "setPerformanceFee(uint256)": {
        "notice": "Sets the performance fee for the vault"
      },
      "setPremiumDiscount(uint256)": {
        "notice": "Sets the new discount on premiums for options we are selling"
      },
      "setStrikePrice(uint128)": {
        "notice": "Optionality to set strike price manually"
      },
      "setStrikeSelectionOrPricer(address,bool)": {
        "notice": "Sets the new strike selection or options premium pricer contract"
      },
      "setVaultPauser(address)": {
        "notice": "Sets the new Vault Pauser contract for this vault"
      },
      "shareBalances(address)": {
        "notice": "Getter for returning the account's share balance split between account and vault holdings"
      },
      "shares(address)": {
        "notice": "Getter for returning the account's share balance including unredeemed shares"
      },
      "stake(uint256)": {
        "notice": "Stakes a users vault shares"
      },
      "startAuction()": {
        "notice": "Initiate the gnosis auction."
      },
      "totalBalance()": {
        "notice": "Returns the vault's total balance, including the amounts locked into a short position"
      },
      "vaultParams()": {
        "notice": "Vault's parameters like cap, decimals"
      },
      "vaultState()": {
        "notice": "Vault's lifecycle state like round and locked amounts"
      },
      "withdrawInstantly(uint256,uint256)": {
        "notice": "Withdraws the assets on the vault using the outstanding `DepositReceipt.amount`"
      },
      "withdrawals(address)": {
        "notice": "Stores pending user withdrawals"
      }
    },
    "notice": "UPGRADEABILITY: Since we use the upgradeable proxy pattern, we must observe the inheritance chain closely. Any changes/appends in storage variable needs to happen in RibbonThetaSTETHVaultStorage. RibbonThetaSTETHVault should not inherit from any other contract aside from RibbonVault, RibbonThetaSTETHVaultStorage",
    "version": 1
  },
  "storageLayout": {
    "storage": [
      {
        "astId": 176,
        "contract": "contracts/vaults/STETHVault/RibbonThetaSTETHVault.sol:RibbonThetaSTETHVault",
        "label": "_initialized",
        "offset": 0,
        "slot": "0",
        "type": "t_bool"
      },
      {
        "astId": 179,
        "contract": "contracts/vaults/STETHVault/RibbonThetaSTETHVault.sol:RibbonThetaSTETHVault",
        "label": "_initializing",
        "offset": 1,
        "slot": "0",
        "type": "t_bool"
      },
      {
        "astId": 230,
        "contract": "contracts/vaults/STETHVault/RibbonThetaSTETHVault.sol:RibbonThetaSTETHVault",
        "label": "_status",
        "offset": 0,
        "slot": "1",
        "type": "t_uint256"
      },
      {
        "astId": 273,
        "contract": "contracts/vaults/STETHVault/RibbonThetaSTETHVault.sol:RibbonThetaSTETHVault",
        "label": "__gap",
        "offset": 0,
        "slot": "2",
        "type": "t_array(t_uint256)49_storage"
      },
      {
        "astId": 993,
        "contract": "contracts/vaults/STETHVault/RibbonThetaSTETHVault.sol:RibbonThetaSTETHVault",
        "label": "__gap",
        "offset": 0,
        "slot": "51",
        "type": "t_array(t_uint256)50_storage"
      },
      {
        "astId": 56,
        "contract": "contracts/vaults/STETHVault/RibbonThetaSTETHVault.sol:RibbonThetaSTETHVault",
        "label": "_owner",
        "offset": 0,
        "slot": "101",
        "type": "t_address"
      },
      {
        "astId": 169,
        "contract": "contracts/vaults/STETHVault/RibbonThetaSTETHVault.sol:RibbonThetaSTETHVault",
        "label": "__gap",
        "offset": 0,
        "slot": "102",
        "type": "t_array(t_uint256)49_storage"
      },
      {
        "astId": 293,
        "contract": "contracts/vaults/STETHVault/RibbonThetaSTETHVault.sol:RibbonThetaSTETHVault",
        "label": "_balances",
        "offset": 0,
        "slot": "151",
        "type": "t_mapping(t_address,t_uint256)"
      },
      {
        "astId": 299,
        "contract": "contracts/vaults/STETHVault/RibbonThetaSTETHVault.sol:RibbonThetaSTETHVault",
        "label": "_allowances",
        "offset": 0,
        "slot": "152",
        "type": "t_mapping(t_address,t_mapping(t_address,t_uint256))"
      },
      {
        "astId": 301,
        "contract": "contracts/vaults/STETHVault/RibbonThetaSTETHVault.sol:RibbonThetaSTETHVault",
        "label": "_totalSupply",
        "offset": 0,
        "slot": "153",
        "type": "t_uint256"
      },
      {
        "astId": 303,
        "contract": "contracts/vaults/STETHVault/RibbonThetaSTETHVault.sol:RibbonThetaSTETHVault",
        "label": "_name",
        "offset": 0,
        "slot": "154",
        "type": "t_string_storage"
      },
      {
        "astId": 305,
        "contract": "contracts/vaults/STETHVault/RibbonThetaSTETHVault.sol:RibbonThetaSTETHVault",
        "label": "_symbol",
        "offset": 0,
        "slot": "155",
        "type": "t_string_storage"
      },
      {
        "astId": 846,
        "contract": "contracts/vaults/STETHVault/RibbonThetaSTETHVault.sol:RibbonThetaSTETHVault",
        "label": "__gap",
        "offset": 0,
        "slot": "156",
        "type": "t_array(t_uint256)45_storage"
      },
      {
        "astId": 24624,
        "contract": "contracts/vaults/STETHVault/RibbonThetaSTETHVault.sol:RibbonThetaSTETHVault",
        "label": "depositReceipts",
        "offset": 0,
        "slot": "201",
        "type": "t_mapping(t_address,t_struct(DepositReceipt)6582_storage)"
      },
      {
        "astId": 24629,
        "contract": "contracts/vaults/STETHVault/RibbonThetaSTETHVault.sol:RibbonThetaSTETHVault",
        "label": "roundPricePerShare",
        "offset": 0,
        "slot": "202",
        "type": "t_mapping(t_uint256,t_uint256)"
      },
      {
        "astId": 24635,
        "contract": "contracts/vaults/STETHVault/RibbonThetaSTETHVault.sol:RibbonThetaSTETHVault",
        "label": "withdrawals",
        "offset": 0,
        "slot": "203",
        "type": "t_mapping(t_address,t_struct(Withdrawal)6587_storage)"
      },
      {
        "astId": 24639,
        "contract": "contracts/vaults/STETHVault/RibbonThetaSTETHVault.sol:RibbonThetaSTETHVault",
        "label": "vaultParams",
        "offset": 0,
        "slot": "204",
        "type": "t_struct(VaultParams)6557_storage"
      },
      {
        "astId": 24643,
        "contract": "contracts/vaults/STETHVault/RibbonThetaSTETHVault.sol:RibbonThetaSTETHVault",
        "label": "vaultState",
        "offset": 0,
        "slot": "207",
        "type": "t_struct(VaultState)6575_storage"
      },
      {
        "astId": 24647,
        "contract": "contracts/vaults/STETHVault/RibbonThetaSTETHVault.sol:RibbonThetaSTETHVault",
        "label": "optionState",
        "offset": 0,
        "slot": "209",
        "type": "t_struct(OptionState)6564_storage"
      },
      {
        "astId": 24650,
        "contract": "contracts/vaults/STETHVault/RibbonThetaSTETHVault.sol:RibbonThetaSTETHVault",
        "label": "feeRecipient",
        "offset": 0,
        "slot": "211",
        "type": "t_address"
      },
      {
        "astId": 24653,
        "contract": "contracts/vaults/STETHVault/RibbonThetaSTETHVault.sol:RibbonThetaSTETHVault",
        "label": "keeper",
        "offset": 0,
        "slot": "212",
        "type": "t_address"
      },
      {
        "astId": 24656,
        "contract": "contracts/vaults/STETHVault/RibbonThetaSTETHVault.sol:RibbonThetaSTETHVault",
        "label": "performanceFee",
        "offset": 0,
        "slot": "213",
        "type": "t_uint256"
      },
      {
        "astId": 24659,
        "contract": "contracts/vaults/STETHVault/RibbonThetaSTETHVault.sol:RibbonThetaSTETHVault",
        "label": "managementFee",
        "offset": 0,
        "slot": "214",
        "type": "t_uint256"
      },
      {
        "astId": 24667,
        "contract": "contracts/vaults/STETHVault/RibbonThetaSTETHVault.sol:RibbonThetaSTETHVault",
        "label": "____gap",
        "offset": 0,
        "slot": "215",
        "type": "t_array(t_uint256)30_storage"
      },
      {
        "astId": 14303,
        "contract": "contracts/vaults/STETHVault/RibbonThetaSTETHVault.sol:RibbonThetaSTETHVault",
        "label": "optionsPremiumPricer",
        "offset": 0,
        "slot": "245",
        "type": "t_address"
      },
      {
        "astId": 14305,
        "contract": "contracts/vaults/STETHVault/RibbonThetaSTETHVault.sol:RibbonThetaSTETHVault",
        "label": "strikeSelection",
        "offset": 0,
        "slot": "246",
        "type": "t_address"
      },
      {
        "astId": 14307,
        "contract": "contracts/vaults/STETHVault/RibbonThetaSTETHVault.sol:RibbonThetaSTETHVault",
        "label": "premiumDiscount",
        "offset": 0,
        "slot": "247",
        "type": "t_uint256"
      },
      {
        "astId": 14309,
        "contract": "contracts/vaults/STETHVault/RibbonThetaSTETHVault.sol:RibbonThetaSTETHVault",
        "label": "currentOtokenPremium",
        "offset": 0,
        "slot": "248",
        "type": "t_uint256"
      },
      {
        "astId": 14311,
        "contract": "contracts/vaults/STETHVault/RibbonThetaSTETHVault.sol:RibbonThetaSTETHVault",
        "label": "lastStrikeOverrideRound",
        "offset": 0,
        "slot": "249",
        "type": "t_uint16"
      },
      {
        "astId": 14313,
        "contract": "contracts/vaults/STETHVault/RibbonThetaSTETHVault.sol:RibbonThetaSTETHVault",
        "label": "overriddenStrikePrice",
        "offset": 0,
        "slot": "250",
        "type": "t_uint256"
      },
      {
        "astId": 14315,
        "contract": "contracts/vaults/STETHVault/RibbonThetaSTETHVault.sol:RibbonThetaSTETHVault",
        "label": "auctionDuration",
        "offset": 0,
        "slot": "251",
        "type": "t_uint256"
      },
      {
        "astId": 14317,
        "contract": "contracts/vaults/STETHVault/RibbonThetaSTETHVault.sol:RibbonThetaSTETHVault",
        "label": "optionAuctionID",
        "offset": 0,
        "slot": "252",
        "type": "t_uint256"
      },
      {
        "astId": 14320,
        "contract": "contracts/vaults/STETHVault/RibbonThetaSTETHVault.sol:RibbonThetaSTETHVault",
        "label": "lastQueuedWithdrawAmount",
        "offset": 0,
        "slot": "253",
        "type": "t_uint256"
      },
      {
        "astId": 14323,
        "contract": "contracts/vaults/STETHVault/RibbonThetaSTETHVault.sol:RibbonThetaSTETHVault",
        "label": "liquidityGauge",
        "offset": 0,
        "slot": "254",
        "type": "t_address"
      },
      {
        "astId": 14326,
        "contract": "contracts/vaults/STETHVault/RibbonThetaSTETHVault.sol:RibbonThetaSTETHVault",
        "label": "currentQueuedWithdrawShares",
        "offset": 0,
        "slot": "255",
        "type": "t_uint256"
      },
      {
        "astId": 14329,
        "contract": "contracts/vaults/STETHVault/RibbonThetaSTETHVault.sol:RibbonThetaSTETHVault",
        "label": "vaultPauser",
        "offset": 0,
        "slot": "256",
        "type": "t_address"
      }
    ],
    "types": {
      "t_address": {
        "encoding": "inplace",
        "label": "address",
        "numberOfBytes": "20"
      },
      "t_array(t_uint256)30_storage": {
        "base": "t_uint256",
        "encoding": "inplace",
        "label": "uint256[30]",
        "numberOfBytes": "960"
      },
      "t_array(t_uint256)45_storage": {
        "base": "t_uint256",
        "encoding": "inplace",
        "label": "uint256[45]",
        "numberOfBytes": "1440"
      },
      "t_array(t_uint256)49_storage": {
        "base": "t_uint256",
        "encoding": "inplace",
        "label": "uint256[49]",
        "numberOfBytes": "1568"
      },
      "t_array(t_uint256)50_storage": {
        "base": "t_uint256",
        "encoding": "inplace",
        "label": "uint256[50]",
        "numberOfBytes": "1600"
      },
      "t_bool": {
        "encoding": "inplace",
        "label": "bool",
        "numberOfBytes": "1"
      },
      "t_mapping(t_address,t_mapping(t_address,t_uint256))": {
        "encoding": "mapping",
        "key": "t_address",
        "label": "mapping(address => mapping(address => uint256))",
        "numberOfBytes": "32",
        "value": "t_mapping(t_address,t_uint256)"
      },
      "t_mapping(t_address,t_struct(DepositReceipt)6582_storage)": {
        "encoding": "mapping",
        "key": "t_address",
        "label": "mapping(address => struct Vault.DepositReceipt)",
        "numberOfBytes": "32",
        "value": "t_struct(DepositReceipt)6582_storage"
      },
      "t_mapping(t_address,t_struct(Withdrawal)6587_storage)": {
        "encoding": "mapping",
        "key": "t_address",
        "label": "mapping(address => struct Vault.Withdrawal)",
        "numberOfBytes": "32",
        "value": "t_struct(Withdrawal)6587_storage"
      },
      "t_mapping(t_address,t_uint256)": {
        "encoding": "mapping",
        "key": "t_address",
        "label": "mapping(address => uint256)",
        "numberOfBytes": "32",
        "value": "t_uint256"
      },
      "t_mapping(t_uint256,t_uint256)": {
        "encoding": "mapping",
        "key": "t_uint256",
        "label": "mapping(uint256 => uint256)",
        "numberOfBytes": "32",
        "value": "t_uint256"
      },
      "t_string_storage": {
        "encoding": "bytes",
        "label": "string",
        "numberOfBytes": "32"
      },
      "t_struct(DepositReceipt)6582_storage": {
        "encoding": "inplace",
        "label": "struct Vault.DepositReceipt",
        "members": [
          {
            "astId": 6577,
            "contract": "contracts/vaults/STETHVault/RibbonThetaSTETHVault.sol:RibbonThetaSTETHVault",
            "label": "round",
            "offset": 0,
            "slot": "0",
            "type": "t_uint16"
          },
          {
            "astId": 6579,
            "contract": "contracts/vaults/STETHVault/RibbonThetaSTETHVault.sol:RibbonThetaSTETHVault",
            "label": "amount",
            "offset": 2,
            "slot": "0",
            "type": "t_uint104"
          },
          {
            "astId": 6581,
            "contract": "contracts/vaults/STETHVault/RibbonThetaSTETHVault.sol:RibbonThetaSTETHVault",
            "label": "unredeemedShares",
            "offset": 15,
            "slot": "0",
            "type": "t_uint128"
          }
        ],
        "numberOfBytes": "32"
      },
      "t_struct(OptionState)6564_storage": {
        "encoding": "inplace",
        "label": "struct Vault.OptionState",
        "members": [
          {
            "astId": 6559,
            "contract": "contracts/vaults/STETHVault/RibbonThetaSTETHVault.sol:RibbonThetaSTETHVault",
            "label": "nextOption",
            "offset": 0,
            "slot": "0",
            "type": "t_address"
          },
          {
            "astId": 6561,
            "contract": "contracts/vaults/STETHVault/RibbonThetaSTETHVault.sol:RibbonThetaSTETHVault",
            "label": "currentOption",
            "offset": 0,
            "slot": "1",
            "type": "t_address"
          },
          {
            "astId": 6563,
            "contract": "contracts/vaults/STETHVault/RibbonThetaSTETHVault.sol:RibbonThetaSTETHVault",
            "label": "nextOptionReadyAt",
            "offset": 20,
            "slot": "1",
            "type": "t_uint32"
          }
        ],
        "numberOfBytes": "64"
      },
      "t_struct(VaultParams)6557_storage": {
        "encoding": "inplace",
        "label": "struct Vault.VaultParams",
        "members": [
          {
            "astId": 6546,
            "contract": "contracts/vaults/STETHVault/RibbonThetaSTETHVault.sol:RibbonThetaSTETHVault",
            "label": "isPut",
            "offset": 0,
            "slot": "0",
            "type": "t_bool"
          },
          {
            "astId": 6548,
            "contract": "contracts/vaults/STETHVault/RibbonThetaSTETHVault.sol:RibbonThetaSTETHVault",
            "label": "decimals",
            "offset": 1,
            "slot": "0",
            "type": "t_uint8"
          },
          {
            "astId": 6550,
            "contract": "contracts/vaults/STETHVault/RibbonThetaSTETHVault.sol:RibbonThetaSTETHVault",
            "label": "asset",
            "offset": 2,
            "slot": "0",
            "type": "t_address"
          },
          {
            "astId": 6552,
            "contract": "contracts/vaults/STETHVault/RibbonThetaSTETHVault.sol:RibbonThetaSTETHVault",
            "label": "underlying",
            "offset": 0,
            "slot": "1",
            "type": "t_address"
          },
          {
            "astId": 6554,
            "contract": "contracts/vaults/STETHVault/RibbonThetaSTETHVault.sol:RibbonThetaSTETHVault",
            "label": "minimumSupply",
            "offset": 20,
            "slot": "1",
            "type": "t_uint56"
          },
          {
            "astId": 6556,
            "contract": "contracts/vaults/STETHVault/RibbonThetaSTETHVault.sol:RibbonThetaSTETHVault",
            "label": "cap",
            "offset": 0,
            "slot": "2",
            "type": "t_uint104"
          }
        ],
        "numberOfBytes": "96"
      },
      "t_struct(VaultState)6575_storage": {
        "encoding": "inplace",
        "label": "struct Vault.VaultState",
        "members": [
          {
            "astId": 6566,
            "contract": "contracts/vaults/STETHVault/RibbonThetaSTETHVault.sol:RibbonThetaSTETHVault",
            "label": "round",
            "offset": 0,
            "slot": "0",
            "type": "t_uint16"
          },
          {
            "astId": 6568,
            "contract": "contracts/vaults/STETHVault/RibbonThetaSTETHVault.sol:RibbonThetaSTETHVault",
            "label": "lockedAmount",
            "offset": 2,
            "slot": "0",
            "type": "t_uint104"
          },
          {
            "astId": 6570,
            "contract": "contracts/vaults/STETHVault/RibbonThetaSTETHVault.sol:RibbonThetaSTETHVault",
            "label": "lastLockedAmount",
            "offset": 15,
            "slot": "0",
            "type": "t_uint104"
          },
          {
            "astId": 6572,
            "contract": "contracts/vaults/STETHVault/RibbonThetaSTETHVault.sol:RibbonThetaSTETHVault",
            "label": "totalPending",
            "offset": 0,
            "slot": "1",
            "type": "t_uint128"
          },
          {
            "astId": 6574,
            "contract": "contracts/vaults/STETHVault/RibbonThetaSTETHVault.sol:RibbonThetaSTETHVault",
            "label": "queuedWithdrawShares",
            "offset": 16,
            "slot": "1",
            "type": "t_uint128"
          }
        ],
        "numberOfBytes": "64"
      },
      "t_struct(Withdrawal)6587_storage": {
        "encoding": "inplace",
        "label": "struct Vault.Withdrawal",
        "members": [
          {
            "astId": 6584,
            "contract": "contracts/vaults/STETHVault/RibbonThetaSTETHVault.sol:RibbonThetaSTETHVault",
            "label": "round",
            "offset": 0,
            "slot": "0",
            "type": "t_uint16"
          },
          {
            "astId": 6586,
            "contract": "contracts/vaults/STETHVault/RibbonThetaSTETHVault.sol:RibbonThetaSTETHVault",
            "label": "shares",
            "offset": 2,
            "slot": "0",
            "type": "t_uint128"
          }
        ],
        "numberOfBytes": "32"
      },
      "t_uint104": {
        "encoding": "inplace",
        "label": "uint104",
        "numberOfBytes": "13"
      },
      "t_uint128": {
        "encoding": "inplace",
        "label": "uint128",
        "numberOfBytes": "16"
      },
      "t_uint16": {
        "encoding": "inplace",
        "label": "uint16",
        "numberOfBytes": "2"
      },
      "t_uint256": {
        "encoding": "inplace",
        "label": "uint256",
        "numberOfBytes": "32"
      },
      "t_uint32": {
        "encoding": "inplace",
        "label": "uint32",
        "numberOfBytes": "4"
      },
      "t_uint56": {
        "encoding": "inplace",
        "label": "uint56",
        "numberOfBytes": "7"
      },
      "t_uint8": {
        "encoding": "inplace",
        "label": "uint8",
        "numberOfBytes": "1"
      }
    }
  }
}