{
  "address": "0x280Ed02db2b90e37c1DE2cC33AeFdb110e572577",
  "abi": [
    {
      "inputs": [
        {
          "internalType": "address",
          "name": "_weth",
          "type": "address"
        },
        {
          "internalType": "address",
          "name": "_usdc",
          "type": "address"
        },
        {
          "internalType": "address",
          "name": "_wsteth",
          "type": "address"
        },
        {
          "internalType": "address",
          "name": "_ldo",
          "type": "address"
        },
        {
          "internalType": "address",
          "name": "_oTokenFactory",
          "type": "address"
        },
        {
          "internalType": "address",
          "name": "_gammaController",
          "type": "address"
        },
        {
          "internalType": "address",
          "name": "_marginPool",
          "type": "address"
        },
        {
          "internalType": "address",
          "name": "_gnosisEasyAuction",
          "type": "address"
        },
        {
          "internalType": "address",
          "name": "_crvPool",
          "type": "address"
        }
      ],
      "stateMutability": "nonpayable",
      "type": "constructor"
    },
    {
      "anonymous": false,
      "inputs": [
        {
          "indexed": true,
          "internalType": "address",
          "name": "owner",
          "type": "address"
        },
        {
          "indexed": true,
          "internalType": "address",
          "name": "spender",
          "type": "address"
        },
        {
          "indexed": false,
          "internalType": "uint256",
          "name": "value",
          "type": "uint256"
        }
      ],
      "name": "Approval",
      "type": "event"
    },
    {
      "anonymous": false,
      "inputs": [
        {
          "indexed": false,
          "internalType": "uint256",
          "name": "auctionDuration",
          "type": "uint256"
        },
        {
          "indexed": false,
          "internalType": "uint256",
          "name": "newAuctionDuration",
          "type": "uint256"
        }
      ],
      "name": "AuctionDurationSet",
      "type": "event"
    },
    {
      "anonymous": false,
      "inputs": [
        {
          "indexed": false,
          "internalType": "uint256",
          "name": "oldCap",
          "type": "uint256"
        },
        {
          "indexed": false,
          "internalType": "uint256",
          "name": "newCap",
          "type": "uint256"
        }
      ],
      "name": "CapSet",
      "type": "event"
    },
    {
      "anonymous": false,
      "inputs": [
        {
          "indexed": true,
          "internalType": "address",
          "name": "options",
          "type": "address"
        },
        {
          "indexed": false,
          "internalType": "uint256",
          "name": "withdrawAmount",
          "type": "uint256"
        },
        {
          "indexed": true,
          "internalType": "address",
          "name": "manager",
          "type": "address"
        }
      ],
      "name": "CloseShort",
      "type": "event"
    },
    {
      "anonymous": false,
      "inputs": [
        {
          "indexed": false,
          "internalType": "uint256",
          "name": "performanceFee",
          "type": "uint256"
        },
        {
          "indexed": false,
          "internalType": "uint256",
          "name": "vaultFee",
          "type": "uint256"
        },
        {
          "indexed": false,
          "internalType": "uint256",
          "name": "round",
          "type": "uint256"
        },
        {
          "indexed": true,
          "internalType": "address",
          "name": "feeRecipient",
          "type": "address"
        }
      ],
      "name": "CollectVaultFees",
      "type": "event"
    },
    {
      "anonymous": false,
      "inputs": [
        {
          "indexed": true,
          "internalType": "address",
          "name": "account",
          "type": "address"
        },
        {
          "indexed": false,
          "internalType": "uint256",
          "name": "amount",
          "type": "uint256"
        },
        {
          "indexed": false,
          "internalType": "uint256",
          "name": "round",
          "type": "uint256"
        }
      ],
      "name": "Deposit",
      "type": "event"
    },
    {
      "anonymous": false,
      "inputs": [
        {
          "indexed": true,
          "internalType": "address",
          "name": "auctioningToken",
          "type": "address"
        },
        {
          "indexed": true,
          "internalType": "address",
          "name": "biddingToken",
          "type": "address"
        },
        {
          "indexed": false,
          "internalType": "uint256",
          "name": "auctionCounter",
          "type": "uint256"
        },
        {
          "indexed": true,
          "internalType": "address",
          "name": "manager",
          "type": "address"
        }
      ],
      "name": "InitiateGnosisAuction",
      "type": "event"
    },
    {
      "anonymous": false,
      "inputs": [
        {
          "indexed": true,
          "internalType": "address",
          "name": "account",
          "type": "address"
        },
        {
          "indexed": false,
          "internalType": "uint256",
          "name": "shares",
          "type": "uint256"
        },
        {
          "indexed": false,
          "internalType": "uint256",
          "name": "round",
          "type": "uint256"
        }
      ],
      "name": "InitiateWithdraw",
      "type": "event"
    },
    {
      "anonymous": false,
      "inputs": [
        {
          "indexed": true,
          "internalType": "address",
          "name": "account",
          "type": "address"
        },
        {
          "indexed": false,
          "internalType": "uint256",
          "name": "amount",
          "type": "uint256"
        },
        {
          "indexed": false,
          "internalType": "uint256",
          "name": "round",
          "type": "uint256"
        }
      ],
      "name": "InstantWithdraw",
      "type": "event"
    },
    {
      "anonymous": false,
      "inputs": [
        {
          "indexed": false,
          "internalType": "uint256",
          "name": "managementFee",
          "type": "uint256"
        },
        {
          "indexed": false,
          "internalType": "uint256",
          "name": "newManagementFee",
          "type": "uint256"
        }
      ],
      "name": "ManagementFeeSet",
      "type": "event"
    },
    {
      "anonymous": false,
      "inputs": [
        {
          "indexed": false,
          "internalType": "uint256",
          "name": "strikePrice",
          "type": "uint256"
        },
        {
          "indexed": false,
          "internalType": "uint256",
          "name": "delta",
          "type": "uint256"
        }
      ],
      "name": "NewOptionStrikeSelected",
      "type": "event"
    },
    {
      "anonymous": false,
      "inputs": [
        {
          "indexed": true,
          "internalType": "address",
          "name": "options",
          "type": "address"
        },
        {
          "indexed": false,
          "internalType": "uint256",
          "name": "depositAmount",
          "type": "uint256"
        },
        {
          "indexed": true,
          "internalType": "address",
          "name": "manager",
          "type": "address"
        }
      ],
      "name": "OpenShort",
      "type": "event"
    },
    {
      "anonymous": false,
      "inputs": [
        {
          "indexed": true,
          "internalType": "address",
          "name": "previousOwner",
          "type": "address"
        },
        {
          "indexed": true,
          "internalType": "address",
          "name": "newOwner",
          "type": "address"
        }
      ],
      "name": "OwnershipTransferred",
      "type": "event"
    },
    {
      "anonymous": false,
      "inputs": [
        {
          "indexed": false,
          "internalType": "uint256",
          "name": "performanceFee",
          "type": "uint256"
        },
        {
          "indexed": false,
          "internalType": "uint256",
          "name": "newPerformanceFee",
          "type": "uint256"
        }
      ],
      "name": "PerformanceFeeSet",
      "type": "event"
    },
    {
      "anonymous": false,
      "inputs": [
        {
          "indexed": false,
          "internalType": "uint256",
          "name": "premiumDiscount",
          "type": "uint256"
        },
        {
          "indexed": false,
          "internalType": "uint256",
          "name": "newPremiumDiscount",
          "type": "uint256"
        }
      ],
      "name": "PremiumDiscountSet",
      "type": "event"
    },
    {
      "anonymous": false,
      "inputs": [
        {
          "indexed": true,
          "internalType": "address",
          "name": "account",
          "type": "address"
        },
        {
          "indexed": false,
          "internalType": "uint256",
          "name": "share",
          "type": "uint256"
        },
        {
          "indexed": false,
          "internalType": "uint256",
          "name": "round",
          "type": "uint256"
        }
      ],
      "name": "Redeem",
      "type": "event"
    },
    {
      "anonymous": false,
      "inputs": [
        {
          "indexed": true,
          "internalType": "address",
          "name": "from",
          "type": "address"
        },
        {
          "indexed": true,
          "internalType": "address",
          "name": "to",
          "type": "address"
        },
        {
          "indexed": false,
          "internalType": "uint256",
          "name": "value",
          "type": "uint256"
        }
      ],
      "name": "Transfer",
      "type": "event"
    },
    {
      "anonymous": false,
      "inputs": [
        {
          "indexed": true,
          "internalType": "address",
          "name": "account",
          "type": "address"
        },
        {
          "indexed": false,
          "internalType": "uint256",
          "name": "amount",
          "type": "uint256"
        },
        {
          "indexed": false,
          "internalType": "uint256",
          "name": "shares",
          "type": "uint256"
        }
      ],
      "name": "Withdraw",
      "type": "event"
    },
    {
      "inputs": [],
      "name": "DELAY",
      "outputs": [
        {
          "internalType": "uint256",
          "name": "",
          "type": "uint256"
        }
      ],
      "stateMutability": "view",
      "type": "function"
    },
    {
      "inputs": [],
      "name": "GAMMA_CONTROLLER",
      "outputs": [
        {
          "internalType": "address",
          "name": "",
          "type": "address"
        }
      ],
      "stateMutability": "view",
      "type": "function"
    },
    {
      "inputs": [],
      "name": "GNOSIS_EASY_AUCTION",
      "outputs": [
        {
          "internalType": "address",
          "name": "",
          "type": "address"
        }
      ],
      "stateMutability": "view",
      "type": "function"
    },
    {
      "inputs": [],
      "name": "LDO",
      "outputs": [
        {
          "internalType": "address",
          "name": "",
          "type": "address"
        }
      ],
      "stateMutability": "view",
      "type": "function"
    },
    {
      "inputs": [],
      "name": "MARGIN_POOL",
      "outputs": [
        {
          "internalType": "address",
          "name": "",
          "type": "address"
        }
      ],
      "stateMutability": "view",
      "type": "function"
    },
    {
      "inputs": [],
      "name": "OTOKEN_FACTORY",
      "outputs": [
        {
          "internalType": "address",
          "name": "",
          "type": "address"
        }
      ],
      "stateMutability": "view",
      "type": "function"
    },
    {
      "inputs": [],
      "name": "PERIOD",
      "outputs": [
        {
          "internalType": "uint256",
          "name": "",
          "type": "uint256"
        }
      ],
      "stateMutability": "view",
      "type": "function"
    },
    {
      "inputs": [],
      "name": "STETH",
      "outputs": [
        {
          "internalType": "address",
          "name": "",
          "type": "address"
        }
      ],
      "stateMutability": "view",
      "type": "function"
    },
    {
      "inputs": [],
      "name": "STETH_ETH_CRV_POOL",
      "outputs": [
        {
          "internalType": "address",
          "name": "",
          "type": "address"
        }
      ],
      "stateMutability": "view",
      "type": "function"
    },
    {
      "inputs": [],
      "name": "USDC",
      "outputs": [
        {
          "internalType": "address",
          "name": "",
          "type": "address"
        }
      ],
      "stateMutability": "view",
      "type": "function"
    },
    {
      "inputs": [],
      "name": "WETH",
      "outputs": [
        {
          "internalType": "address",
          "name": "",
          "type": "address"
        }
      ],
      "stateMutability": "view",
      "type": "function"
    },
    {
      "inputs": [
        {
          "internalType": "address",
          "name": "account",
          "type": "address"
        }
      ],
      "name": "accountVaultBalance",
      "outputs": [
        {
          "internalType": "uint256",
          "name": "",
          "type": "uint256"
        }
      ],
      "stateMutability": "view",
      "type": "function"
    },
    {
      "inputs": [
        {
          "internalType": "address",
          "name": "owner",
          "type": "address"
        },
        {
          "internalType": "address",
          "name": "spender",
          "type": "address"
        }
      ],
      "name": "allowance",
      "outputs": [
        {
          "internalType": "uint256",
          "name": "",
          "type": "uint256"
        }
      ],
      "stateMutability": "view",
      "type": "function"
    },
    {
      "inputs": [
        {
          "internalType": "address",
          "name": "spender",
          "type": "address"
        },
        {
          "internalType": "uint256",
          "name": "amount",
          "type": "uint256"
        }
      ],
      "name": "approve",
      "outputs": [
        {
          "internalType": "bool",
          "name": "",
          "type": "bool"
        }
      ],
      "stateMutability": "nonpayable",
      "type": "function"
    },
    {
      "inputs": [],
      "name": "auctionDuration",
      "outputs": [
        {
          "internalType": "uint256",
          "name": "",
          "type": "uint256"
        }
      ],
      "stateMutability": "view",
      "type": "function"
    },
    {
      "inputs": [
        {
          "internalType": "address",
          "name": "account",
          "type": "address"
        }
      ],
      "name": "balanceOf",
      "outputs": [
        {
          "internalType": "uint256",
          "name": "",
          "type": "uint256"
        }
      ],
      "stateMutability": "view",
      "type": "function"
    },
    {
      "inputs": [],
      "name": "burnRemainingOTokens",
      "outputs": [],
      "stateMutability": "nonpayable",
      "type": "function"
    },
    {
      "inputs": [],
      "name": "cap",
      "outputs": [
        {
          "internalType": "uint256",
          "name": "",
          "type": "uint256"
        }
      ],
      "stateMutability": "view",
      "type": "function"
    },
    {
      "inputs": [],
      "name": "collateralToken",
      "outputs": [
        {
          "internalType": "contract IWSTETH",
          "name": "",
          "type": "address"
        }
      ],
      "stateMutability": "view",
      "type": "function"
    },
    {
      "inputs": [],
      "name": "commitAndClose",
      "outputs": [],
      "stateMutability": "nonpayable",
      "type": "function"
    },
    {
      "inputs": [],
      "name": "completeWithdraw",
      "outputs": [],
      "stateMutability": "nonpayable",
      "type": "function"
    },
    {
      "inputs": [],
      "name": "currentOption",
      "outputs": [
        {
          "internalType": "address",
          "name": "",
          "type": "address"
        }
      ],
      "stateMutability": "view",
      "type": "function"
    },
    {
      "inputs": [],
      "name": "currentOtokenPremium",
      "outputs": [
        {
          "internalType": "uint256",
          "name": "",
          "type": "uint256"
        }
      ],
      "stateMutability": "view",
      "type": "function"
    },
    {
      "inputs": [],
      "name": "decimals",
      "outputs": [
        {
          "internalType": "uint8",
          "name": "",
          "type": "uint8"
        }
      ],
      "stateMutability": "view",
      "type": "function"
    },
    {
      "inputs": [
        {
          "internalType": "address",
          "name": "spender",
          "type": "address"
        },
        {
          "internalType": "uint256",
          "name": "subtractedValue",
          "type": "uint256"
        }
      ],
      "name": "decreaseAllowance",
      "outputs": [
        {
          "internalType": "bool",
          "name": "",
          "type": "bool"
        }
      ],
      "stateMutability": "nonpayable",
      "type": "function"
    },
    {
      "inputs": [],
      "name": "depositETH",
      "outputs": [],
      "stateMutability": "payable",
      "type": "function"
    },
    {
      "inputs": [
        {
          "internalType": "address",
          "name": "creditor",
          "type": "address"
        }
      ],
      "name": "depositFor",
      "outputs": [],
      "stateMutability": "payable",
      "type": "function"
    },
    {
      "inputs": [
        {
          "internalType": "address",
          "name": "",
          "type": "address"
        }
      ],
      "name": "depositReceipts",
      "outputs": [
        {
          "internalType": "uint16",
          "name": "round",
          "type": "uint16"
        },
        {
          "internalType": "uint104",
          "name": "amount",
          "type": "uint104"
        },
        {
          "internalType": "uint128",
          "name": "unredeemedShares",
          "type": "uint128"
        }
      ],
      "stateMutability": "view",
      "type": "function"
    },
    {
      "inputs": [
        {
          "internalType": "uint256",
          "name": "amount",
          "type": "uint256"
        }
      ],
      "name": "depositYieldToken",
      "outputs": [],
      "stateMutability": "nonpayable",
      "type": "function"
    },
    {
      "inputs": [],
      "name": "feeRecipient",
      "outputs": [
        {
          "internalType": "address",
          "name": "",
          "type": "address"
        }
      ],
      "stateMutability": "view",
      "type": "function"
    },
    {
      "inputs": [
        {
          "internalType": "address",
          "name": "spender",
          "type": "address"
        },
        {
          "internalType": "uint256",
          "name": "addedValue",
          "type": "uint256"
        }
      ],
      "name": "increaseAllowance",
      "outputs": [
        {
          "internalType": "bool",
          "name": "",
          "type": "bool"
        }
      ],
      "stateMutability": "nonpayable",
      "type": "function"
    },
    {
      "inputs": [
        {
          "internalType": "uint256",
          "name": "numRounds",
          "type": "uint256"
        }
      ],
      "name": "initRounds",
      "outputs": [],
      "stateMutability": "nonpayable",
      "type": "function"
    },
    {
      "inputs": [
        {
          "internalType": "address",
          "name": "_owner",
          "type": "address"
        },
        {
          "internalType": "address",
          "name": "_keeper",
          "type": "address"
        },
        {
          "internalType": "address",
          "name": "_feeRecipient",
          "type": "address"
        },
        {
          "internalType": "uint256",
          "name": "_managementFee",
          "type": "uint256"
        },
        {
          "internalType": "uint256",
          "name": "_performanceFee",
          "type": "uint256"
        },
        {
          "internalType": "string",
          "name": "_tokenName",
          "type": "string"
        },
        {
          "internalType": "string",
          "name": "_tokenSymbol",
          "type": "string"
        },
        {
          "internalType": "address",
          "name": "_optionsPremiumPricer",
          "type": "address"
        },
        {
          "internalType": "address",
          "name": "_strikeSelection",
          "type": "address"
        },
        {
          "internalType": "uint32",
          "name": "_premiumDiscount",
          "type": "uint32"
        },
        {
          "internalType": "uint256",
          "name": "_auctionDuration",
          "type": "uint256"
        },
        {
          "components": [
            {
              "internalType": "bool",
              "name": "isPut",
              "type": "bool"
            },
            {
              "internalType": "uint8",
              "name": "decimals",
              "type": "uint8"
            },
            {
              "internalType": "address",
              "name": "asset",
              "type": "address"
            },
            {
              "internalType": "address",
              "name": "underlying",
              "type": "address"
            },
            {
              "internalType": "uint56",
              "name": "minimumSupply",
              "type": "uint56"
            },
            {
              "internalType": "uint104",
              "name": "cap",
              "type": "uint104"
            }
          ],
          "internalType": "struct Vault.VaultParams",
          "name": "_vaultParams",
          "type": "tuple"
        }
      ],
      "name": "initialize",
      "outputs": [],
      "stateMutability": "nonpayable",
      "type": "function"
    },
    {
      "inputs": [
        {
          "internalType": "uint256",
          "name": "numShares",
          "type": "uint256"
        }
      ],
      "name": "initiateWithdraw",
      "outputs": [],
      "stateMutability": "nonpayable",
      "type": "function"
    },
    {
      "inputs": [],
      "name": "keeper",
      "outputs": [
        {
          "internalType": "address",
          "name": "",
          "type": "address"
        }
      ],
      "stateMutability": "view",
      "type": "function"
    },
    {
      "inputs": [],
      "name": "lastQueuedWithdrawAmount",
      "outputs": [
        {
          "internalType": "uint256",
          "name": "",
          "type": "uint256"
        }
      ],
      "stateMutability": "view",
      "type": "function"
    },
    {
      "inputs": [],
      "name": "lastStrikeOverrideRound",
      "outputs": [
        {
          "internalType": "uint16",
          "name": "",
          "type": "uint16"
        }
      ],
      "stateMutability": "view",
      "type": "function"
    },
    {
      "inputs": [],
      "name": "liquidityGauge",
      "outputs": [
        {
          "internalType": "address",
          "name": "",
          "type": "address"
        }
      ],
      "stateMutability": "view",
      "type": "function"
    },
    {
      "inputs": [],
      "name": "managementFee",
      "outputs": [
        {
          "internalType": "uint256",
          "name": "",
          "type": "uint256"
        }
      ],
      "stateMutability": "view",
      "type": "function"
    },
    {
      "inputs": [],
      "name": "maxRedeem",
      "outputs": [],
      "stateMutability": "nonpayable",
      "type": "function"
    },
    {
      "inputs": [],
      "name": "name",
      "outputs": [
        {
          "internalType": "string",
          "name": "",
          "type": "string"
        }
      ],
      "stateMutability": "view",
      "type": "function"
    },
    {
      "inputs": [],
      "name": "nextOption",
      "outputs": [
        {
          "internalType": "address",
          "name": "",
          "type": "address"
        }
      ],
      "stateMutability": "view",
      "type": "function"
    },
    {
      "inputs": [],
      "name": "nextOptionReadyAt",
      "outputs": [
        {
          "internalType": "uint256",
          "name": "",
          "type": "uint256"
        }
      ],
      "stateMutability": "view",
      "type": "function"
    },
    {
      "inputs": [],
      "name": "optionAuctionID",
      "outputs": [
        {
          "internalType": "uint256",
          "name": "",
          "type": "uint256"
        }
      ],
      "stateMutability": "view",
      "type": "function"
    },
    {
      "inputs": [],
      "name": "optionState",
      "outputs": [
        {
          "internalType": "address",
          "name": "nextOption",
          "type": "address"
        },
        {
          "internalType": "address",
          "name": "currentOption",
          "type": "address"
        },
        {
          "internalType": "uint32",
          "name": "nextOptionReadyAt",
          "type": "uint32"
        }
      ],
      "stateMutability": "view",
      "type": "function"
    },
    {
      "inputs": [],
      "name": "optionsPremiumPricer",
      "outputs": [
        {
          "internalType": "address",
          "name": "",
          "type": "address"
        }
      ],
      "stateMutability": "view",
      "type": "function"
    },
    {
      "inputs": [],
      "name": "overriddenStrikePrice",
      "outputs": [
        {
          "internalType": "uint256",
          "name": "",
          "type": "uint256"
        }
      ],
      "stateMutability": "view",
      "type": "function"
    },
    {
      "inputs": [],
      "name": "owner",
      "outputs": [
        {
          "internalType": "address",
          "name": "",
          "type": "address"
        }
      ],
      "stateMutability": "view",
      "type": "function"
    },
    {
      "inputs": [],
      "name": "performanceFee",
      "outputs": [
        {
          "internalType": "uint256",
          "name": "",
          "type": "uint256"
        }
      ],
      "stateMutability": "view",
      "type": "function"
    },
    {
      "inputs": [],
      "name": "premiumDiscount",
      "outputs": [
        {
          "internalType": "uint256",
          "name": "",
          "type": "uint256"
        }
      ],
      "stateMutability": "view",
      "type": "function"
    },
    {
      "inputs": [],
      "name": "pricePerShare",
      "outputs": [
        {
          "internalType": "uint256",
          "name": "",
          "type": "uint256"
        }
      ],
      "stateMutability": "view",
      "type": "function"
    },
    {
      "inputs": [
        {
          "internalType": "uint256",
          "name": "numShares",
          "type": "uint256"
        }
      ],
      "name": "redeem",
      "outputs": [],
      "stateMutability": "nonpayable",
      "type": "function"
    },
    {
      "inputs": [],
      "name": "renounceOwnership",
      "outputs": [],
      "stateMutability": "nonpayable",
      "type": "function"
    },
    {
      "inputs": [],
      "name": "rollToNextOption",
      "outputs": [],
      "stateMutability": "nonpayable",
      "type": "function"
    },
    {
      "inputs": [
        {
          "internalType": "uint256",
          "name": "",
          "type": "uint256"
        }
      ],
      "name": "roundPricePerShare",
      "outputs": [
        {
          "internalType": "uint256",
          "name": "",
          "type": "uint256"
        }
      ],
      "stateMutability": "view",
      "type": "function"
    },
    {
      "inputs": [],
      "name": "sendLDORewards",
      "outputs": [],
      "stateMutability": "nonpayable",
      "type": "function"
    },
    {
      "inputs": [
        {
          "internalType": "uint256",
          "name": "newAuctionDuration",
          "type": "uint256"
        }
      ],
      "name": "setAuctionDuration",
      "outputs": [],
      "stateMutability": "nonpayable",
      "type": "function"
    },
    {
      "inputs": [
        {
          "internalType": "uint256",
          "name": "newCap",
          "type": "uint256"
        }
      ],
      "name": "setCap",
      "outputs": [],
      "stateMutability": "nonpayable",
      "type": "function"
    },
    {
      "inputs": [
        {
          "internalType": "address",
          "name": "newFeeRecipient",
          "type": "address"
        }
      ],
      "name": "setFeeRecipient",
      "outputs": [],
      "stateMutability": "nonpayable",
      "type": "function"
    },
    {
      "inputs": [
        {
          "internalType": "address",
          "name": "newLiquidityGauge",
          "type": "address"
        }
      ],
      "name": "setLiquidityGauge",
      "outputs": [],
      "stateMutability": "nonpayable",
      "type": "function"
    },
    {
      "inputs": [
        {
          "internalType": "uint256",
          "name": "newManagementFee",
          "type": "uint256"
        }
      ],
      "name": "setManagementFee",
      "outputs": [],
      "stateMutability": "nonpayable",
      "type": "function"
    },
    {
      "inputs": [
        {
          "internalType": "address",
          "name": "newKeeper",
          "type": "address"
        }
      ],
      "name": "setNewKeeper",
      "outputs": [],
      "stateMutability": "nonpayable",
      "type": "function"
    },
    {
      "inputs": [
        {
          "internalType": "uint256",
          "name": "newPerformanceFee",
          "type": "uint256"
        }
      ],
      "name": "setPerformanceFee",
      "outputs": [],
      "stateMutability": "nonpayable",
      "type": "function"
    },
    {
      "inputs": [
        {
          "internalType": "uint256",
          "name": "newPremiumDiscount",
          "type": "uint256"
        }
      ],
      "name": "setPremiumDiscount",
      "outputs": [],
      "stateMutability": "nonpayable",
      "type": "function"
    },
    {
      "inputs": [
        {
          "internalType": "uint128",
          "name": "strikePrice",
          "type": "uint128"
        }
      ],
      "name": "setStrikePrice",
      "outputs": [],
      "stateMutability": "nonpayable",
      "type": "function"
    },
    {
      "inputs": [
        {
          "internalType": "address",
          "name": "newContract",
          "type": "address"
        },
        {
          "internalType": "bool",
          "name": "isStrikeSelection",
          "type": "bool"
        }
      ],
      "name": "setStrikeSelectionOrPricer",
      "outputs": [],
      "stateMutability": "nonpayable",
      "type": "function"
    },
    {
      "inputs": [
        {
          "internalType": "address",
          "name": "account",
          "type": "address"
        }
      ],
      "name": "shareBalances",
      "outputs": [
        {
          "internalType": "uint256",
          "name": "heldByAccount",
          "type": "uint256"
        },
        {
          "internalType": "uint256",
          "name": "heldByVault",
          "type": "uint256"
        }
      ],
      "stateMutability": "view",
      "type": "function"
    },
    {
      "inputs": [
        {
          "internalType": "address",
          "name": "account",
          "type": "address"
        }
      ],
      "name": "shares",
      "outputs": [
        {
          "internalType": "uint256",
          "name": "",
          "type": "uint256"
        }
      ],
      "stateMutability": "view",
      "type": "function"
    },
    {
      "inputs": [
        {
          "internalType": "uint256",
          "name": "numShares",
          "type": "uint256"
        }
      ],
      "name": "stake",
      "outputs": [],
      "stateMutability": "nonpayable",
      "type": "function"
    },
    {
      "inputs": [],
      "name": "startAuction",
      "outputs": [],
      "stateMutability": "nonpayable",
      "type": "function"
    },
    {
      "inputs": [],
      "name": "strikeSelection",
      "outputs": [
        {
          "internalType": "address",
          "name": "",
          "type": "address"
        }
      ],
      "stateMutability": "view",
      "type": "function"
    },
    {
      "inputs": [],
      "name": "symbol",
      "outputs": [
        {
          "internalType": "string",
          "name": "",
          "type": "string"
        }
      ],
      "stateMutability": "view",
      "type": "function"
    },
    {
      "inputs": [],
      "name": "totalBalance",
      "outputs": [
        {
          "internalType": "uint256",
          "name": "",
          "type": "uint256"
        }
      ],
      "stateMutability": "view",
      "type": "function"
    },
    {
      "inputs": [],
      "name": "totalPending",
      "outputs": [
        {
          "internalType": "uint256",
          "name": "",
          "type": "uint256"
        }
      ],
      "stateMutability": "view",
      "type": "function"
    },
    {
      "inputs": [],
      "name": "totalSupply",
      "outputs": [
        {
          "internalType": "uint256",
          "name": "",
          "type": "uint256"
        }
      ],
      "stateMutability": "view",
      "type": "function"
    },
    {
      "inputs": [
        {
          "internalType": "address",
          "name": "recipient",
          "type": "address"
        },
        {
          "internalType": "uint256",
          "name": "amount",
          "type": "uint256"
        }
      ],
      "name": "transfer",
      "outputs": [
        {
          "internalType": "bool",
          "name": "",
          "type": "bool"
        }
      ],
      "stateMutability": "nonpayable",
      "type": "function"
    },
    {
      "inputs": [
        {
          "internalType": "address",
          "name": "sender",
          "type": "address"
        },
        {
          "internalType": "address",
          "name": "recipient",
          "type": "address"
        },
        {
          "internalType": "uint256",
          "name": "amount",
          "type": "uint256"
        }
      ],
      "name": "transferFrom",
      "outputs": [
        {
          "internalType": "bool",
          "name": "",
          "type": "bool"
        }
      ],
      "stateMutability": "nonpayable",
      "type": "function"
    },
    {
      "inputs": [
        {
          "internalType": "address",
          "name": "newOwner",
          "type": "address"
        }
      ],
      "name": "transferOwnership",
      "outputs": [],
      "stateMutability": "nonpayable",
      "type": "function"
    },
    {
      "inputs": [],
      "name": "vaultParams",
      "outputs": [
        {
          "internalType": "bool",
          "name": "isPut",
          "type": "bool"
        },
        {
          "internalType": "uint8",
          "name": "decimals",
          "type": "uint8"
        },
        {
          "internalType": "address",
          "name": "asset",
          "type": "address"
        },
        {
          "internalType": "address",
          "name": "underlying",
          "type": "address"
        },
        {
          "internalType": "uint56",
          "name": "minimumSupply",
          "type": "uint56"
        },
        {
          "internalType": "uint104",
          "name": "cap",
          "type": "uint104"
        }
      ],
      "stateMutability": "view",
      "type": "function"
    },
    {
      "inputs": [],
      "name": "vaultState",
      "outputs": [
        {
          "internalType": "uint16",
          "name": "round",
          "type": "uint16"
        },
        {
          "internalType": "uint104",
          "name": "lockedAmount",
          "type": "uint104"
        },
        {
          "internalType": "uint104",
          "name": "lastLockedAmount",
          "type": "uint104"
        },
        {
          "internalType": "uint128",
          "name": "totalPending",
          "type": "uint128"
        },
        {
          "internalType": "uint128",
          "name": "queuedWithdrawShares",
          "type": "uint128"
        }
      ],
      "stateMutability": "view",
      "type": "function"
    },
    {
      "inputs": [
        {
          "internalType": "uint256",
          "name": "amount",
          "type": "uint256"
        },
        {
          "internalType": "uint256",
          "name": "",
          "type": "uint256"
        }
      ],
      "name": "withdrawInstantly",
      "outputs": [],
      "stateMutability": "nonpayable",
      "type": "function"
    },
    {
      "inputs": [
        {
          "internalType": "address",
          "name": "",
          "type": "address"
        }
      ],
      "name": "withdrawals",
      "outputs": [
        {
          "internalType": "uint16",
          "name": "round",
          "type": "uint16"
        },
        {
          "internalType": "uint128",
          "name": "shares",
          "type": "uint128"
        }
      ],
      "stateMutability": "view",
      "type": "function"
    }
  ],
  "transactionHash": "0x4a1be93153b502978808ec59f5dfa1bc63d60813f90941f546a6296897023a8a",
  "args": [
    "0xC02aaA39b223FE8D0A0e5C4F27eAD9083C756Cc2",
    "0xA0b86991c6218b36c1d19D4a2e9Eb0cE3606eB48",
    "0x7f39C581F595B53c5cb19bD0b3f8dA6c935E2Ca0",
    "0x5A98FcBEA516Cf06857215779Fd812CA3beF1B32",
    "0x7C06792Af1632E77cb27a558Dc0885338F4Bdf8E",
    "0x4ccc2339F87F6c59c6893E1A678c2266cA58dC72",
    "0x5934807cC0654d46755eBd2848840b616256C6Ef",
    "0x0b7fFc1f4AD541A4Ed16b40D8c37f0929158D101",
    "0xDC24316b9AE028F1497c275EB9192a3Ea0f67022"
  ],
  "solcInputHash": "984ad5116f75c774a92f56a96cabb2a9",
  "bytecode": "0x6101c06040523480156200001257600080fd5b506040516200645338038062006453833981016040819052620000359162000402565b88888888878787876001600160a01b038816620000825760405162461bcd60e51b8152602060048201526006602482015265042beeecae8d60d31b60448201526064015b60405180910390fd5b6001600160a01b038716620000c35760405162461bcd60e51b8152602060048201526006602482015265215f7573646360d01b604482015260640162000079565b6001600160a01b038616620001065760405162461bcd60e51b8152602060048201526008602482015267042beeee6e8cae8d60c31b604482015260640162000079565b6001600160a01b038516620001465760405162461bcd60e51b8152602060048201526005602482015264215f6c646f60d81b604482015260640162000079565b6001600160a01b0382166200019e5760405162461bcd60e51b815260206004820152601360248201527f215f676e6f7369734561737941756374696f6e00000000000000000000000000604482015260640162000079565b6001600160a01b038416620001ea5760405162461bcd60e51b815260206004820152601160248201527010afb3b0b6b6b0a1b7b73a3937b63632b960791b604482015260640162000079565b6001600160a01b038316620002315760405162461bcd60e51b815260206004820152600c60248201526b0857db585c99da5b941bdbdb60a21b604482015260640162000079565b6001600160a01b038116620002755760405162461bcd60e51b81526020600482015260096024820152680857d8dc9d941bdbdb60ba1b604482015260640162000079565b6001600160601b0319606089811b821660a05288811b821660c05286901b1660e0526040805163183fc7c960e31b815290516001600160a01b0388169163c1fe3e48916004808301926020929190829003018186803b158015620002d857600080fd5b505afa158015620002ed573d6000803e3d6000fd5b505050506040513d601f19601f82011682018060405250810190620003139190620003de565b6001600160601b0319606091821b81166101805294811b85166101005292831b84166101205290821b831661014052811b8216610160529290921b9091166080525050506001600160a01b038516620003a15760405162461bcd60e51b815260206004820152600f60248201526e215f6f546f6b656e466163746f727960881b604482015260640162000079565b5050505060601b6001600160601b0319166101a05250620004bc92505050565b80516001600160a01b0381168114620003d957600080fd5b919050565b600060208284031215620003f0578081fd5b620003fb82620003c1565b9392505050565b60008060008060008060008060006101208a8c03121562000421578485fd5b6200042c8a620003c1565b98506200043c60208b01620003c1565b97506200044c60408b01620003c1565b96506200045c60608b01620003c1565b95506200046c60808b01620003c1565b94506200047c60a08b01620003c1565b93506200048c60c08b01620003c1565b92506200049c60e08b01620003c1565b9150620004ad6101008b01620003c1565b90509295985092959850929598565b60805160601c60a05160601c60c05160601c60e05160601c6101005160601c6101205160601c6101405160601c6101605160601c6101805160601c6101a05160601c615e326200062160003960008181610f4b0152612f1f015260008181610fc501528181611350015281816117d5015281816123a3015281816128c101528181612995015281816143020152614a070152600061079f0152600081816109000152613c9001526000818161081e0152612690015260008181610556015281816115ed015281816126680152614778015260008181610ef70152611ab2015260008181610ac60152612f44015260008181610d9801528181611785015281816121f1015281816142e00152614464015260008181610e01015281816116b2015281816117ad01528181612288015281816124e30152818161257a015281816128e901528181612ff101528181613be90152818161426f0152614a2f0152615e326000f3fe6080604052600436106104895760003560e01c806395d89b4111610255578063c632183911610144578063e16fdbd5116100c1578063f6326fb311610085578063f6326fb314611072578063f656ba511461107a578063f756fa21146110af578063f957a067146110c4578063f9a0be68146110e4578063fe56e2321461110457600080fd5b8063e16fdbd514610fe7578063e73c63d514611007578063e74b981b1461101d578063ea00b1ca1461103d578063f2fde38b1461105257600080fd5b8063d88bba1111610108578063d88bba1114610ee5578063db006a7514610f19578063db43e86214610f39578063dd62ed3e14610f6d578063e00bfe5014610fb357600080fd5b8063c632183914610e4f578063ce7c2ac214610e6f578063d13f1b3e14610e8f578063d164cc1514610eaf578063d5f2638214610ecf57600080fd5b8063a6f7f5d6116101d2578063ad7a672f11610196578063ad7a672f14610dba578063afa6626414610dcf578063b2016bd414610def578063b4d1d79514610e23578063b9f8092b14610e3a57600080fd5b8063a6f7f5d614610d1d578063a9059cbb14610d33578063aa67c91914610d53578063aced166114610d66578063ad5c464814610d8657600080fd5b8063a285c9e811610219578063a285c9e814610c7d578063a2db9d8314610c9f578063a457c2d714610cbd578063a497e67414610cdd578063a694fc3a14610cfd57600080fd5b806395d89b4114610b2457806399530b0614610b395780639be43daa14610b4e5780639fcc2d7514610b6e578063a083ff1714610c1a57600080fd5b806355489bb21161037c578063715018a6116102f957806383536ff3116102bd57806383536ff314610a5b57806387153eb114610a715780638778878214610a9e57806389a3027114610ab45780638b10cc7c14610ae85780638da5cb5b14610b0657600080fd5b8063715018a61461098d5780637400173d146109a25780637a9262a2146109c25780637bf5108614610a265780637e108d5214610a3b57600080fd5b80636b64c769116103405780636b64c769146108d95780636c10f66c146108ee5780636f31ab341461092257806370897b231461093757806370a082311461095757600080fd5b806355489bb2146107d7578063600a2cfb146107f7578063650cce8a1461080c5780636719b2ee1461084057806369b41170146108c457600080fd5b8063355274ea1161040a578063432833a6116103ce578063432833a614610737578063469048401461074d57806347786d371461076d5780634f6e746d1461078d578063503c70aa146107c157600080fd5b8063355274ea1461068d57806339509351146106ab5780633ec143d3146106cb5780633f23bb73146106f95780633f90916a1461071957600080fd5b80631a92f6c2116104515780631a92f6c21461054457806323b872dd146105905780632728f333146105b0578063313ce5671461064357806331807e421461066d57600080fd5b8063048bf0851461048e57806306fdde03146104b0578063095ea7b3146104db5780630cbf54c81461050b57806318160ddd1461052f575b600080fd5b34801561049a57600080fd5b506104ae6104a936600461544f565b611124565b005b3480156104bc57600080fd5b506104c5611179565b6040516104d29190615897565b60405180910390f35b3480156104e757600080fd5b506104fb6104f636600461560f565b61120b565b60405190151581526020016104d2565b34801561051757600080fd5b5061052160fb5481565b6040519081526020016104d2565b34801561053b57600080fd5b50609954610521565b34801561055057600080fd5b506105787f000000000000000000000000000000000000000000000000000000000000000081565b6040516001600160a01b0390911681526020016104d2565b34801561059c57600080fd5b506104fb6105ab3660046155a2565b611222565b3480156105bc57600080fd5b5060cf5460d0546105fe9161ffff8116916001600160681b03620100008304811692600160781b900416906001600160801b0380821691600160801b90041685565b6040805161ffff90961686526001600160681b03948516602087015293909216928401929092526001600160801b03918216606084015216608082015260a0016104d2565b34801561064f57600080fd5b5060cc54610100900460ff1660405160ff90911681526020016104d2565b34801561067957600080fd5b506104ae6106883660046156bb565b6112ce565b34801561069957600080fd5b5060ce546001600160681b0316610521565b3480156106b757600080fd5b506104fb6106c636600461560f565b61137f565b3480156106d757600080fd5b5060f9546106e69061ffff1681565b60405161ffff90911681526020016104d2565b34801561070557600080fd5b5061052161071436600461544f565b6113bb565b34801561072557600080fd5b5060d0546001600160801b0316610521565b34801561074357600080fd5b5061052160fc5481565b34801561075957600080fd5b5060d354610578906001600160a01b031681565b34801561077957600080fd5b506104ae6107883660046156bb565b61140e565b34801561079957600080fd5b506105787f000000000000000000000000000000000000000000000000000000000000000081565b3480156107cd57600080fd5b5061052160fd5481565b3480156107e357600080fd5b506104ae6107f2366004615694565b6114e9565b34801561080357600080fd5b506104ae611581565b34801561081857600080fd5b506105787f000000000000000000000000000000000000000000000000000000000000000081565b34801561084c57600080fd5b5061089361085b36600461544f565b60c96020526000908152604090205461ffff8116906201000081046001600160681b031690600160781b90046001600160801b031683565b6040805161ffff90941684526001600160681b0390921660208401526001600160801b0316908201526060016104d2565b3480156108d057600080fd5b50610521600081565b3480156108e557600080fd5b506104ae611850565b3480156108fa57600080fd5b506105787f000000000000000000000000000000000000000000000000000000000000000081565b34801561092e57600080fd5b506104ae6118b0565b34801561094357600080fd5b506104ae6109523660046156bb565b6118e7565b34801561096357600080fd5b5061052161097236600461544f565b6001600160a01b031660009081526097602052604090205490565b34801561099957600080fd5b506104ae6119ae565b3480156109ae57600080fd5b506104ae6109bd3660046155e2565b6119e4565b3480156109ce57600080fd5b50610a046109dd36600461544f565b60cb6020526000908152604090205461ffff8116906201000090046001600160801b031682565b6040805161ffff90931683526001600160801b039091166020830152016104d2565b348015610a3257600080fd5b506104ae611a9a565b348015610a4757600080fd5b506104ae610a563660046156bb565b611b52565b348015610a6757600080fd5b5061052160f75481565b348015610a7d57600080fd5b50610521610a8c3660046156bb565b60ca6020526000908152604090205481565b348015610aaa57600080fd5b5061052160d55481565b348015610ac057600080fd5b506105787f000000000000000000000000000000000000000000000000000000000000000081565b348015610af457600080fd5b5060d2546001600160a01b0316610578565b348015610b1257600080fd5b506065546001600160a01b0316610578565b348015610b3057600080fd5b506104c5611d8d565b348015610b4557600080fd5b50610521611d9c565b348015610b5a57600080fd5b506104ae610b693660046156bb565b611dd6565b348015610b7a57600080fd5b5060cc5460cd5460ce54610bca9260ff808216936101008304909116926001600160a01b036201000090930483169282169166ffffffffffffff600160a01b90910416906001600160681b031686565b60408051961515875260ff90951660208701526001600160a01b03938416948601949094529116606084015266ffffffffffffff1660808301526001600160681b031660a082015260c0016104d2565b348015610c2657600080fd5b5060d15460d254610c51916001600160a01b039081169190811690600160a01b900463ffffffff1683565b604080516001600160a01b03948516815293909216602084015263ffffffff16908201526060016104d2565b348015610c8957600080fd5b5060d254600160a01b900463ffffffff16610521565b348015610cab57600080fd5b5060d1546001600160a01b0316610578565b348015610cc957600080fd5b506104fb610cd836600461560f565b611ed0565b348015610ce957600080fd5b506104ae610cf83660046156bb565b611f69565b348015610d0957600080fd5b506104ae610d183660046156bb565b612026565b348015610d2957600080fd5b5061052160d65481565b348015610d3f57600080fd5b506104fb610d4e36600461560f565b612116565b6104ae610d6136600461544f565b612123565b348015610d7257600080fd5b5060d454610578906001600160a01b031681565b348015610d9257600080fd5b506105787f000000000000000000000000000000000000000000000000000000000000000081565b348015610dc657600080fd5b506105216121cf565b348015610ddb57600080fd5b5060f554610578906001600160a01b031681565b348015610dfb57600080fd5b506105787f000000000000000000000000000000000000000000000000000000000000000081565b348015610e2f57600080fd5b5061052162093a8081565b348015610e4657600080fd5b506104ae61245a565b348015610e5b57600080fd5b506104ae610e6a3660046156eb565b61273c565b348015610e7b57600080fd5b50610521610e8a36600461544f565b612a02565b348015610e9b57600080fd5b506104ae610eaa3660046156bb565b612a1f565b348015610ebb57600080fd5b506104ae610eca36600461544f565b612ae4565b348015610edb57600080fd5b5061052160f85481565b348015610ef157600080fd5b506105787f000000000000000000000000000000000000000000000000000000000000000081565b348015610f2557600080fd5b506104ae610f343660046156bb565b612b73565b348015610f4557600080fd5b506105787f000000000000000000000000000000000000000000000000000000000000000081565b348015610f7957600080fd5b50610521610f8836600461546b565b6001600160a01b03918216600090815260986020908152604080832093909416825291909152205490565b348015610fbf57600080fd5b506105787f000000000000000000000000000000000000000000000000000000000000000081565b348015610ff357600080fd5b506104ae6110023660046154a3565b612be0565b34801561101357600080fd5b5061052160fa5481565b34801561102957600080fd5b506104ae61103836600461544f565b612dec565b34801561104957600080fd5b506104ae612edf565b34801561105e57600080fd5b506104ae61106d36600461544f565b61316d565b6104ae613205565b34801561108657600080fd5b5061109a61109536600461544f565b61326f565b604080519283526020830191909152016104d2565b3480156110bb57600080fd5b506104ae613352565b3480156110d057600080fd5b5060f654610578906001600160a01b031681565b3480156110f057600080fd5b5060fe54610578906001600160a01b031681565b34801561111057600080fd5b506104ae61111f3660046156bb565b6133a7565b6065546001600160a01b031633146111575760405162461bcd60e51b815260040161114e90615919565b60405180910390fd5b60fe80546001600160a01b0319166001600160a01b0392909216919091179055565b6060609a805461118890615bec565b80601f01602080910402602001604051908101604052809291908181526020018280546111b490615bec565b80156112015780601f106111d657610100808354040283529160200191611201565b820191906000526020600020905b8154815290600101906020018083116111e457829003601f168201915b5050505050905090565b6000611218338484613488565b5060015b92915050565b600061122f8484846135ad565b6001600160a01b0384166000908152609860209081526040808320338452909152902054828110156112b45760405162461bcd60e51b815260206004820152602860248201527f45524332303a207472616e7366657220616d6f756e74206578636565647320616044820152676c6c6f77616e636560c01b606482015260840161114e565b6112c18533858403613488565b60019150505b9392505050565b600260015414156112f15760405162461bcd60e51b815260040161114e9061594e565b60026001558061132d5760405162461bcd60e51b815260206004820152600760248201526608585b5bdd5b9d60ca1b604482015260640161114e565b61134361133b82600161377d565b336000613789565b6113786001600160a01b037f000000000000000000000000000000000000000000000000000000000000000016333084613a28565b5060018055565b3360008181526098602090815260408083206001600160a01b038716845290915281205490916112189185906113b6908690615a67565b613488565b60cc5460009060ff61010090910416816113f16113d760995490565b6113df6121cf565b60d0546001600160801b031685613a93565b90506114066113ff85612a02565b8284613ad3565b949350505050565b6065546001600160a01b031633146114385760405162461bcd60e51b815260040161114e90615919565b600081116114725760405162461bcd60e51b81526020600482015260076024820152660216e65774361760cc1b604482015260640161114e565b61147b81613b35565b60ce54604080516001600160681b039092168252602082018390527f5f86edbb9d92228a9edc3f0ebc0f001bda1ea345ac7335e0eeef3504b31d1a1c910160405180910390a160ce80546cffffffffffffffffffffffffff19166001600160681b0392909216919091179055565b6065546001600160a01b031633146115135760405162461bcd60e51b815260040161114e90615919565b6000816001600160801b03161161155b5760405162461bcd60e51b815260206004820152600c60248201526b21737472696b65507269636560a01b604482015260640161114e565b6001600160801b031660fa5560cf5460f9805461ffff191661ffff909216919091179055565b60d4546001600160a01b031633146115ab5760405162461bcd60e51b815260040161114e906158aa565b600260015414156115ce5760405162461bcd60e51b815260040161114e9061594e565b600260015560d2546040516358ffbb3d60e01b81526001600160a01b037f000000000000000000000000000000000000000000000000000000000000000081166004830152909116602482015260009073E6342509ae61b63F015f268953FCA0dE71e61128906358ffbb3d9060440160206040518083038186803b15801561165557600080fd5b505af4158015611669573d6000803e3d6000fd5b505050506040513d601f19601f8201168201806040525081019061168d91906156d3565b604051632eca54bf60e21b815260048101829052909150611744906001600160a01b037f0000000000000000000000000000000000000000000000000000000000000000169063bb2952fc9060240160206040518083038186803b1580156116f457600080fd5b505afa158015611708573d6000803e3d6000fd5b505050506040513d601f19601f8201168201806040525081019061172c91906156d3565b60cf546201000090046001600160681b03169061377d565b60cf805462010000600160781b031916620100006001600160681b039390931692909202919091179055604051631989ea7560e21b81526001600160a01b037f0000000000000000000000000000000000000000000000000000000000000000811660048301527f0000000000000000000000000000000000000000000000000000000000000000811660248301527f000000000000000000000000000000000000000000000000000000000000000016604482015273a0025d92bEaEAB39495237A162590D200cDCdc8290636627a9d49060640160006040518083038186803b15801561183157600080fd5b505af4158015611845573d6000803e3d6000fd5b505060018055505050565b60d4546001600160a01b0316331461187a5760405162461bcd60e51b815260040161114e906158aa565b6002600154141561189d5760405162461bcd60e51b815260040161114e9061594e565b60026001556118aa613b7f565b60018055565b600260015414156118d35760405162461bcd60e51b815260040161114e9061594e565b60026001819055506118aa60006001613da3565b6065546001600160a01b031633146119115760405162461bcd60e51b815260040161114e90615919565b61191f620f42406064615b8a565b811061196d5760405162461bcd60e51b815260206004820152601760248201527f496e76616c696420706572666f726d616e636520666565000000000000000000604482015260640161114e565b60d55460408051918252602082018390527f24867dfb6fcb9970a07be21024956524abe7a1837faa903ff0e99aaa40cf893e910160405180910390a160d555565b6065546001600160a01b031633146119d85760405162461bcd60e51b815260040161114e90615919565b6119e26000613f52565b565b6065546001600160a01b03163314611a0e5760405162461bcd60e51b815260040161114e90615919565b6001600160a01b038216611a535760405162461bcd60e51b815260206004820152600c60248201526b085b995dd0dbdb9d1c9858dd60a21b604482015260640161114e565b8015611a7a5760f680546001600160a01b0384166001600160a01b03199091161790555050565b60f580546001600160a01b0319166001600160a01b0384161790555b5050565b60d3546040516370a0823160e01b81523060048201527f000000000000000000000000000000000000000000000000000000000000000091611b4f916001600160a01b03918216918416906370a082319060240160206040518083038186803b158015611b0657600080fd5b505afa158015611b1a573d6000803e3d6000fd5b505050506040513d601f19601f82011682018060405250810190611b3e91906156d3565b6001600160a01b0384169190613fa4565b50565b60026001541415611b755760405162461bcd60e51b815260040161114e9061594e565b600260015580611bb45760405162461bcd60e51b815260206004820152600a602482015269216e756d53686172657360b01b604482015260640161114e565b33600090815260c960205260409020546201000090046001600160681b0316151580611bfe575033600090815260c96020526040902054600160781b90046001600160801b031615155b15611c0f57611c0f60006001613da3565b60cf5433600081815260cb60209081526040918290208054835187815261ffff96871693810184905292959194911685149290917f0c53c82ad07e2d592d88ece3b066777dd60f1118e2a081b380efc4358f0d9e2a910160405180910390a281546201000090046001600160801b031660008215611c9857611c918287613fd9565b9050611cfb565b8115611cda5760405162461bcd60e51b81526020600482015260116024820152704578697374696e6720776974686472617760781b604482015260640161114e565b5033600090815260cb60205260409020805461ffff191661ffff8616179055845b611d0481613fe5565b33600090815260cb6020526040812080546001600160801b03808516620100000262010000600160901b03199092169190911790915560d054611d5091600160801b9091041688613fd9565b9050611d5b81613fe5565b60d080546001600160801b03808416600160801b029116179055611d803330896135ad565b5050600180555050505050565b6060609b805461118890615bec565b6000611dd1611daa60995490565b611db26121cf565b60d05460cc546001600160801b0390911690610100900460ff16613a93565b905090565b60026001541415611df95760405162461bcd60e51b815260040161114e9061594e565b600260015580611e385760405162461bcd60e51b815260206004820152600a602482015269216e756d526f756e647360b01b604482015260640161114e565b60cf5461ffff1660005b82811015611ec7576000611e568284615a67565b600081815260ca602052604090205490915015611ea35760405162461bcd60e51b815260206004820152600b60248201526a125b9a5d1a585b1a5e995960aa1b604482015260640161114e565b600090815260ca602052604090206001905580611ebf81615c21565b915050611e42565b50506001805550565b3360009081526098602090815260408083206001600160a01b038616845290915281205482811015611f525760405162461bcd60e51b815260206004820152602560248201527f45524332303a2064656372656173656420616c6c6f77616e63652062656c6f77604482015264207a65726f60d81b606482015260840161114e565b611f5f3385858403613488565b5060019392505050565b6065546001600160a01b03163314611f935760405162461bcd60e51b815260040161114e90615919565b61012c811015611fe55760405162461bcd60e51b815260206004820152601860248201527f496e76616c69642061756374696f6e206475726174696f6e0000000000000000604482015260640161114e565b60fb5460408051918252602082018390527f5acd982e2240ed224a69aa03dab039d3797c108e4b5f288cd7dd6ca181b275f3910160405180910390a160fb55565b600260015414156120495760405162461bcd60e51b815260040161114e9061594e565b600260015560fe546001600160a01b03168061206457600080fd5b6000821161207157600080fd5b336000908152609760205260409020548281101561209d5761209d612096848361377d565b6000613da3565b6120a83330856135ad565b6120b3308385613488565b6040516383df674760e01b815260048101849052336024820152600060448201526001600160a01b038316906383df674790606401600060405180830381600087803b15801561210257600080fd5b505af1158015611d80573d6000803e3d6000fd5b60006112183384846135ad565b600260015414156121465760405162461bcd60e51b815260040161114e9061594e565b6002600155346121815760405162461bcd60e51b81526020600482015260066024820152652176616c756560d01b604482015260640161114e565b6001600160a01b0381166121c35760405162461bcd60e51b815260206004820152600960248201526810b1b932b234ba37b960b91b604482015260640161114e565b61137834826001613789565b6040516370a0823160e01b815230600482015260009081906001600160a01b037f000000000000000000000000000000000000000000000000000000000000000016906370a082319060240160206040518083038186803b15801561223357600080fd5b505afa158015612247573d6000803e3d6000fd5b505050506040513d601f19601f8201168201806040525081019061226b91906156d3565b6040516370a0823160e01b815230600482015290915047906000907f00000000000000000000000000000000000000000000000000000000000000006001600160a01b03169063bb2952fc9082906370a082319060240160206040518083038186803b1580156122da57600080fd5b505afa1580156122ee573d6000803e3d6000fd5b505050506040513d601f19601f8201168201806040525081019061231291906156d3565b6040518263ffffffff1660e01b815260040161233091815260200190565b60206040518083038186803b15801561234857600080fd5b505afa15801561235c573d6000803e3d6000fd5b505050506040513d601f19601f8201168201806040525081019061238091906156d3565b6040516370a0823160e01b81523060048201529091506000906001600160a01b037f000000000000000000000000000000000000000000000000000000000000000016906370a082319060240160206040518083038186803b1580156123e557600080fd5b505afa1580156123f9573d6000803e3d6000fd5b505050506040513d601f19601f8201168201806040525081019061241d91906156d3565b60cf5490915061245190829061244b9085908290889082908b906201000090046001600160681b0316613fd9565b90613fd9565b94505050505090565b60d4546001600160a01b031633146124845760405162461bcd60e51b815260040161114e906158aa565b600260015414156124a75760405162461bcd60e51b815260040161114e9061594e565b60026001819055506000806124bd60fd5461402f565b60fd81905560405162b0e38960e81b8152600481018290529193509150600090612602907f00000000000000000000000000000000000000000000000000000000000000006001600160a01b03169063b0e389009060240160206040518083038186803b15801561252d57600080fd5b505afa158015612541573d6000803e3d6000fd5b505050506040513d601f19601f8201168201806040525081019061256591906156d3565b6040516370a0823160e01b81523060048201527f00000000000000000000000000000000000000000000000000000000000000006001600160a01b0316906370a082319060240160206040518083038186803b1580156125c457600080fd5b505afa1580156125d8573d6000803e3d6000fd5b505050506040513d601f19601f820116820180604052508101906125fc91906156d3565b9061377d565b9050336001600160a01b0316836001600160a01b03167f045c558fdce4714c5816d53820d27420f4cd860892df203fe636384d8d19aa018360405161264991815260200190565b60405180910390a3604051632904c23960e01b81526001600160a01b037f0000000000000000000000000000000000000000000000000000000000000000811660048301527f000000000000000000000000000000000000000000000000000000000000000081166024830152841660448201526064810182905273a0025d92bEaEAB39495237A162590D200cDCdc8290632904c2399060840160206040518083038186803b1580156126fb57600080fd5b505af415801561270f573d6000803e3d6000fd5b505050506040513d601f19601f8201168201806040525081019061273391906156d3565b50611ec7613b7f565b6002600154141561275f5760405162461bcd60e51b815260040161114e9061594e565b600260015533600090815260c96020526040902060cf5461ffff16836127b15760405162461bcd60e51b815260206004820152600760248201526608585b5bdd5b9d60ca1b604482015260640161114e565b815461ffff1681146127f55760405162461bcd60e51b815260206004820152600d60248201526c125b9d985b1a59081c9bdd5b99609a1b604482015260640161114e565b81546201000090046001600160681b0316848110156128465760405162461bcd60e51b815260206004820152600d60248201526c115e18d9595908185b5bdd5b9d609a1b604482015260640161114e565b612850818661377d565b83546001600160681b0391909116620100000262010000600160781b031990911617835560d05461288a906001600160801b03168661377d565b60d080546001600160801b0319166001600160801b0392909216919091179055604051633be3450960e11b81526001600160a01b037f0000000000000000000000000000000000000000000000000000000000000000811660048301527f0000000000000000000000000000000000000000000000000000000000000000166024820152604481018690526129bc90339073a0025d92bEaEAB39495237A162590D200cDCdc82906377c68a12906064015b60206040518083038186803b15801561295357600080fd5b505af4158015612967573d6000803e3d6000fd5b505050506040513d601f19601f8201168201806040525081019061298b91906156d3565b6001600160a01b037f0000000000000000000000000000000000000000000000000000000000000000169190613fa4565b604080518681526020810184905233917fab2daf3c146ca6416cbccd2a86ed2ba995e171ef6319df14a38aef01403a9c96910160405180910390a2505060018055505050565b6000806000612a108461326f565b90925090506114068282613fd9565b60d4546001600160a01b03163314612a495760405162461bcd60e51b815260040161114e906158aa565b600081118015612a645750612a60600a6064615b8a565b8111155b612aa35760405162461bcd60e51b815260206004820152601060248201526f125b9d985b1a5908191a5cd8dbdd5b9d60821b604482015260640161114e565b60f75460408051918252602082018390527f4cd657fde404967d63a338fb06c5c98751a9df57dfae6dc333a432faf8a5f656910160405180910390a160f755565b6065546001600160a01b03163314612b0e5760405162461bcd60e51b815260040161114e90615919565b6001600160a01b038116612b515760405162461bcd60e51b815260206004820152600a60248201526910b732bba5b2b2b832b960b11b604482015260640161114e565b60d480546001600160a01b0319166001600160a01b0392909216919091179055565b60026001541415612b965760405162461bcd60e51b815260040161114e9061594e565b600260015580612bd55760405162461bcd60e51b815260206004820152600a602482015269216e756d53686172657360b01b604482015260640161114e565b611378816000613da3565b600054610100900460ff1680612bf9575060005460ff16155b612c155760405162461bcd60e51b815260040161114e906158cb565b600054610100900460ff16158015612c37576000805461ffff19166101011790555b612c478d8d8d8d8d8d8d8961451c565b6001600160a01b038616612c965760405162461bcd60e51b815260206004820152601660248201527510afb7b83a34b7b739a83932b6b4bab6a83934b1b2b960511b604482015260640161114e565b6001600160a01b038516612ce05760405162461bcd60e51b815260206004820152601160248201527010afb9ba3934b5b2a9b2b632b1ba34b7b760791b604482015260640161114e565b60008463ffffffff16118015612d065750612cfd600a6064615b8a565b8463ffffffff16105b612d465760405162461bcd60e51b81526020600482015260116024820152700857dc1c995b5a5d5b511a5cd8dbdd5b9d607a1b604482015260640161114e565b61012c831015612d8c5760405162461bcd60e51b815260206004820152601160248201527010afb0bab1ba34b7b7223ab930ba34b7b760791b604482015260640161114e565b60f580546001600160a01b038089166001600160a01b03199283161790925560f680549288169290911691909117905563ffffffff841660f75560fb8390558015612ddd576000805461ff00191690555b50505050505050505050505050565b6065546001600160a01b03163314612e165760405162461bcd60e51b815260040161114e90615919565b6001600160a01b038116612e5f5760405162461bcd60e51b815260206004820152601060248201526f085b995dd19959549958da5c1a595b9d60821b604482015260640161114e565b60d3546001600160a01b0382811691161415612ebd5760405162461bcd60e51b815260206004820152601860248201527f4d757374206265206e657720666565526563697069656e740000000000000000604482015260640161114e565b60d380546001600160a01b0319166001600160a01b0392909216919091179055565b60026001541415612f025760405162461bcd60e51b815260040161114e9061594e565b600260015560d25460408051610120810182526001600160a01b037f0000000000000000000000000000000000000000000000000000000000000000811682527f00000000000000000000000000000000000000000000000000000000000000008116602083015292831681830181905260006060830181905260f95461ffff16608084015260fa5460a084015260f654851660c084015260f55490941660e083015260f75461010083015291516001621eaadd60e11b031981529192909181908190819073a0025d92bEaEAB39495237A162590D200cDCdc829063ffc2aa469061301990889060cc9060cf907f000000000000000000000000000000000000000000000000000000000000000090600401615985565b60806040518083038186803b15801561303157600080fd5b505af4158015613045573d6000803e3d6000fd5b505050506040513d601f19601f82011682018060405250810190613069919061563a565b93509350935093507fa217999b1c125c2a996f712c5f26a28addad7167bd8a67d5bd5b2a751148abb082826040516130ab929190918252602082015260400190565b60405180910390a16130bc83613b35565b6001600160681b03831660f85560d180546001600160a01b0319166001600160a01b03861617905560006130f04282613fd9565b905063ffffffff8111156131465760405162461bcd60e51b815260206004820152601860248201527f4f766572666c6f77206e6578744f7074696f6e52656164790000000000000000604482015260640161114e565b60d2805463ffffffff60a01b1916600160a01b63ffffffff841602179055611d80876146e4565b6065546001600160a01b031633146131975760405162461bcd60e51b815260040161114e90615919565b6001600160a01b0381166131fc5760405162461bcd60e51b815260206004820152602660248201527f4f776e61626c653a206e6577206f776e657220697320746865207a65726f206160448201526564647265737360d01b606482015260840161114e565b611b4f81613f52565b600260015414156132285760405162461bcd60e51b815260040161114e9061594e565b6002600155346132635760405162461bcd60e51b81526020600482015260066024820152652176616c756560d01b604482015260640161114e565b6118aa34336001613789565b6001600160a01b038116600090815260c9602090815260408083208151606081018352905461ffff81168083526201000082046001600160681b031694830194909452600160781b90046001600160801b0316918101919091528291600111156132f1575050506001600160a01b031660009081526097602052604081205491565b60cf54815161ffff908116600090815260ca602052604081205460cc54919361332793869391169190610100900460ff16614856565b9050613348856001600160a01b031660009081526097602052604090205490565b9590945092505050565b600260015414156133755760405162461bcd60e51b815260040161114e9061594e565b600260015560006133846148c7565b60fd54909150613394908261377d565b6001600160801b031660fd555060018055565b6065546001600160a01b031633146133d15760405162461bcd60e51b815260040161114e90615919565b6133df620f42406064615b8a565b81106134265760405162461bcd60e51b8152602060048201526016602482015275496e76616c6964206d616e6167656d656e742066656560501b604482015260640161114e565b600061344363031ba30961343d84620f4240614acd565b90614ad9565b60d65460408051918252602082018590529192507f4e874b007ab14f7e263baefd44951834c8266f4f224d1092e49e9c254354cc54910160405180910390a160d65550565b6001600160a01b0383166134ea5760405162461bcd60e51b8152602060048201526024808201527f45524332303a20617070726f76652066726f6d20746865207a65726f206164646044820152637265737360e01b606482015260840161114e565b6001600160a01b03821661354b5760405162461bcd60e51b815260206004820152602260248201527f45524332303a20617070726f766520746f20746865207a65726f206164647265604482015261737360f01b606482015260840161114e565b6001600160a01b0383811660008181526098602090815260408083209487168084529482529182902085905590518481527f8c5be1e5ebec7d5bd14f71427d1e84f3dd0314c0f7b2291e5b200ac8c7c3b92591015b60405180910390a3505050565b6001600160a01b0383166136115760405162461bcd60e51b815260206004820152602560248201527f45524332303a207472616e736665722066726f6d20746865207a65726f206164604482015264647265737360d81b606482015260840161114e565b6001600160a01b0382166136735760405162461bcd60e51b815260206004820152602360248201527f45524332303a207472616e7366657220746f20746865207a65726f206164647260448201526265737360e81b606482015260840161114e565b6001600160a01b038316600090815260976020526040902054818110156136eb5760405162461bcd60e51b815260206004820152602660248201527f45524332303a207472616e7366657220616d6f756e7420657863656564732062604482015265616c616e636560d01b606482015260840161114e565b6001600160a01b03808516600090815260976020526040808220858503905591851681529081208054849290613722908490615a67565b92505081905550826001600160a01b0316846001600160a01b03167fddf252ad1be2c89b69c2b068fc378daa952ba7f163c4a11628f55a4df523b3ef8460405161376e91815260200190565b60405180910390a35b50505050565b60006112c78284615ba9565b60cf5461ffff166000826137a8576137a38561244b6121cf565b6137b0565b6137b06121cf565b60ce549091506001600160681b03168111156137fb5760405162461bcd60e51b815260206004820152600a6024820152690457863656564206361760b41b604482015260640161114e565b60cd54600160a01b900466ffffffffffffff168110156138545760405162461bcd60e51b8152602060048201526014602482015273496e73756666696369656e742062616c616e636560601b604482015260640161114e565b60408051868152602081018490526001600160a01b038616917f90890809c654f11d6e72a28fa60149770a0d11ec6c92319d6ceb2bb0a4ea1a15910160405180910390a26001600160a01b038416600090815260c9602090815260408083208151606081018352905461ffff81168083526201000082046001600160681b031683860152600160781b9091046001600160801b031682840152845260ca90925282205460cc54919291613913918491879190610100900460ff16614856565b8251909150879061ffff16851415613944576020830151600090613940906001600160681b03168a613fd9565b9150505b61394d81613b35565b6040805160608101825261ffff80881682526001600160681b0380851660208085019182526001600160801b038089168688019081526001600160a01b038f16600090815260c990935296822095518654935197518216600160781b02600160781b600160f81b03199890951662010000026effffffffffffffffffffffffffffff1990941695169490941791909117949094161790915560d0546139f391168a613fd9565b90506139fe81613fe5565b60d080546001600160801b0319166001600160801b03929092169190911790555050505050505050565b6040516001600160a01b03808516602483015283166044820152606481018290526137779085906323b872dd60e01b906084015b60408051601f198184030181529190526020810180516001600160e01b03166001600160e01b031990931692909217909152614ae5565b600080613aa183600a615ae2565b905060008611613ab15780613ac9565b613ac98661343d613ac2888861377d565b8490614acd565b9695505050505050565b600060018311613b1d5760405162461bcd60e51b8152602060048201526015602482015274496e76616c6964206173736574506572536861726560581b604482015260640161114e565b611406613b2b83600a615ae2565b61343d8686614acd565b6001600160681b03811115611b4f5760405162461bcd60e51b815260206004820152601060248201526f13dd995c999b1bddc81d5a5b9d0c4c0d60821b604482015260640161114e565b6040805160c081018252600080825260208201819052818301819052606082018190526080820181905260a0820181905260d25460f55460f754945163188b696960e31b81526001600160a01b0392831660048201819052918316602482015260448101959095527f00000000000000000000000000000000000000000000000000000000000000009091166064850152919273a0025d92bEaEAB39495237A162590D200cDCdc829063c45b4b489060840160206040518083038186803b158015613c4957600080fd5b505af4158015613c5d573d6000803e3d6000fd5b505050506040513d601f19601f82011682018060405250810190613c8191906156d3565b6001600160a01b0383811685527f000000000000000000000000000000000000000000000000000000000000000081166020860190815260cc546201000081048316604080890191825261010090920460ff16606089019081526080890186815260fb5460a08b019081529351633baf17fd60e21b81528a5187166004820152945186166024860152915190941660448401529251606483015291516084820152905160a482015290915073E6342509ae61b63F015f268953FCA0dE71e611289063eebc5ff49060c40160206040518083038186803b158015613d6357600080fd5b505af4158015613d77573d6000803e3d6000fd5b505050506040513d601f19601f82011682018060405250810190613d9b91906156d3565b60fc55505050565b33600090815260c9602090815260408083208151606081018352905461ffff8082168084526201000083046001600160681b031684870152600160781b9092046001600160801b03168385015260cf5491865260ca9094529184205460cc5491949290931692613e1e9185918591610100900460ff16614856565b905083613e2b5784613e2d565b805b945084613e3b575050505050565b80851115613e7f5760405162461bcd60e51b81526020600482015260116024820152704578636565647320617661696c61626c6560781b604482015260640161114e565b825161ffff16821115613eac5733600090815260c960205260409020805462010000600160781b03191690555b613eb585613fe5565b613ebf818661377d565b33600081815260c960205260409081902080546001600160801b0394909416600160781b02600160781b600160f81b0319909416939093179092558451915190917fe5b754fb1abb7f01b499791d0b820ae3b6af3424ac1c59768edb53f4ec31a92991613f389189825261ffff16602082015260400190565b60405180910390a2613f4b3033876135ad565b5050505050565b606580546001600160a01b038381166001600160a01b0319831681179093556040519116919082907f8be0079c531659141344cd1fd0a4f28419497f9722a3daafe3b4186f6b6457e090600090a35050565b6040516001600160a01b038316602482015260448101829052613fd490849063a9059cbb60e01b90606401613a5c565b505050565b60006112c78284615a67565b6001600160801b03811115611b4f5760405162461bcd60e51b815260206004820152601060248201526f09eeccae4ccd8deee40ead2dce86264760831b604482015260640161114e565b60d2546000908190600160a01b900463ffffffff1642101561407c5760405162461bcd60e51b815260206004820152600660248201526521726561647960d01b604482015260640161114e565b60d1546001600160a01b0316806140c35760405162461bcd60e51b815260206004820152600b60248201526a10b732bc3a27b83a34b7b760a91b604482015260640161114e565b60008060008060008073E6342509ae61b63F015f268953FCA0dE71e6112863633c142660cf6040518060c0016040528060cc60000160019054906101000a900460ff1660ff1681526020016141166121cf565b815260200161412460995490565b81526020018e815260200160d554815260200160d6548152506040518363ffffffff1660e01b81526004016141a0929190600060e08201905083825282516020830152602083015160408301526040830151606083015260608301516080830152608083015160a083015260a083015160c08301529392505050565b60c06040518083038186803b1580156141b857600080fd5b505af41580156141cc573d6000803e3d6000fd5b505050506040513d601f19601f820116820180604052508101906141f0919061570c565b9550955095509550955095508660d160010160006101000a8154816001600160a01b0302191690836001600160a01b03160217905550600060d160000160006101000a8154816001600160a01b0302191690836001600160a01b03160217905550600060d360009054906101000a90046001600160a01b0316905060007f00000000000000000000000000000000000000000000000000000000000000009050600060cf60000160009054906101000a900461ffff1661ffff1690508660ca60008381526020019081526020016000208190555073a0025d92bEaEAB39495237A162590D200cDCdc82636627a9d47f0000000000000000000000000000000000000000000000000000000000000000847f00000000000000000000000000000000000000000000000000000000000000006040518463ffffffff1660e01b815260040161435d939291906001600160a01b0393841681529183166020830152909116604082015260600190565b60006040518083038186803b15801561437557600080fd5b505af4158015614389573d6000803e3d6000fd5b505060408051888152602081018890529081018490526001600160a01b03861692507f0a242f7ecaf711036ca770774ceffae28e60ef042ac113ddd187f2631db0c006915060600160405180910390a260d080546001600160801b03191690556143f4816001615a67565b60cf805461ffff191661ffff9290921691909117905561441389613b35565b60cf805462010000600160781b031916620100006001600160681b038c160217905561443f3087614bb7565b8315614509576040516305ffc87f60e31b81526001600160a01b0380841660048301527f000000000000000000000000000000000000000000000000000000000000000081166024830152841660448201526064810185905273a0025d92bEaEAB39495237A162590D200cDCdc8290632ffe43f89060840160206040518083038186803b1580156144cf57600080fd5b505af41580156144e3573d6000803e3d6000fd5b505050506040513d601f19601f8201168201806040525081019061450791906156d3565b505b50979b959a509498505050505050505050565b600054610100900460ff1680614535575060005460ff16155b6145515760405162461bcd60e51b815260040161114e906158cb565b600054610100900460ff16158015614573576000805461ffff19166101011790555b60405163c72733f760e01b815273E6342509ae61b63F015f268953FCA0dE71e611289063c72733f7906145b8908c908c908c908b908d908c908c908c9060040161579d565b60006040518083038186803b1580156145d057600080fd5b505af41580156145e4573d6000803e3d6000fd5b505050506145f0614c96565b6145fa8484614d09565b614602614d88565b61460b8961316d565b60d480546001600160a01b03808b166001600160a01b03199283161790925560d38054928a169290911691909117905560d585905561465563031ba30961343d88620f4240614acd565b60d6558160cc6146658282615c8f565b90505060006146726121cf565b905061467d81613b35565b60cf805461ffff196001600160681b03909316600160781b02929092167fffffffff00000000000000000000000000ffffffffffffffffffffffffff000090921691909117600117905580156146d9576000805461ff00191690555b505050505050505050565b60cf546201000090046001600160681b03166001600160a01b038216156147305760cf80546cffffffffffffffffffffffffff60781b1916600160781b6001600160681b038416021790555b60cf805462010000600160781b031916905560d280546001600160a01b03191690556001600160a01b03821615611a9657604051636c6fe87f60e11b81526001600160a01b037f000000000000000000000000000000000000000000000000000000000000000016600482015260009073E6342509ae61b63F015f268953FCA0dE71e611289063d8dfd0fe9060240160206040518083038186803b1580156147d757600080fd5b505af41580156147eb573d6000803e3d6000fd5b505050506040513d601f19601f8201168201806040525081019061480f91906156d3565b9050336001600160a01b0316836001600160a01b03167f7e830f7c1771deb1bdb35c4a7e6051bbac32b376f7f4e4976b8618b0b11997f7836040516135a091815260200190565b835160009061ffff16158015906148715750845161ffff1684115b156148b357600061489086602001516001600160681b03168585614def565b60408701519091506148ab906001600160801b031682613fd9565b915050611406565b50505050604001516001600160801b031690565b33600090815260cb6020526040812080546001600160801b03620100008204169061ffff16816149295760405162461bcd60e51b815260206004820152600d60248201526c139bdd081a5b9a5d1a585d1959609a1b604482015260640161114e565b60cf5461ffff1681106149715760405162461bcd60e51b815260206004820152601060248201526f149bdd5b99081b9bdd0818db1bdcd95960821b604482015260640161114e565b33600090815260cb60205260409020805462010000600160901b031916905560d0546149ad90600160801b90046001600160801b03168361377d565b60d080546001600160801b03928316600160801b029216919091179055600081815260ca602052604081205460cc546149f091859160ff61010090910416613ad3565b604051633be3450960e11b81526001600160a01b037f0000000000000000000000000000000000000000000000000000000000000000811660048301527f000000000000000000000000000000000000000000000000000000000000000016602482015260448101829052909150614a8890339073a0025d92bEaEAB39495237A162590D200cDCdc82906377c68a129060640161293b565b604080518281526020810185905233917ff279e6a1f5e320cca91135676d9cb6e44ca8a08c0b88342bcdb1144f6511b568910160405180910390a26114063084614e52565b60006112c78284615b8a565b60006112c78284615a7f565b6000614b3a826040518060400160405280602081526020017f5361666545524332303a206c6f772d6c6576656c2063616c6c206661696c6564815250856001600160a01b0316614fa09092919063ffffffff16565b805190915015613fd45780806020019051810190614b589190615678565b613fd45760405162461bcd60e51b815260206004820152602a60248201527f5361666545524332303a204552433230206f7065726174696f6e20646964206e6044820152691bdd081cdd58d8d9595960b21b606482015260840161114e565b6001600160a01b038216614c0d5760405162461bcd60e51b815260206004820152601f60248201527f45524332303a206d696e7420746f20746865207a65726f206164647265737300604482015260640161114e565b8060996000828254614c1f9190615a67565b90915550506001600160a01b03821660009081526097602052604081208054839290614c4c908490615a67565b90915550506040518181526001600160a01b038316906000907fddf252ad1be2c89b69c2b068fc378daa952ba7f163c4a11628f55a4df523b3ef9060200160405180910390a35050565b600054610100900460ff1680614caf575060005460ff16155b614ccb5760405162461bcd60e51b815260040161114e906158cb565b600054610100900460ff16158015614ced576000805461ffff19166101011790555b614cf5614faf565b8015611b4f576000805461ff001916905550565b600054610100900460ff1680614d22575060005460ff16155b614d3e5760405162461bcd60e51b815260040161114e906158cb565b600054610100900460ff16158015614d60576000805461ffff19166101011790555b614d6861501e565b614d728383615088565b8015613fd4576000805461ff0019169055505050565b600054610100900460ff1680614da1575060005460ff16155b614dbd5760405162461bcd60e51b815260040161114e906158cb565b600054610100900460ff16158015614ddf576000805461ffff19166101011790555b614de761501e565b614cf561511d565b600060018311614e395760405162461bcd60e51b8152602060048201526015602482015274496e76616c6964206173736574506572536861726560581b604482015260640161114e565b6114068361343d614e4b85600a615ae2565b8790614acd565b6001600160a01b038216614eb25760405162461bcd60e51b815260206004820152602160248201527f45524332303a206275726e2066726f6d20746865207a65726f206164647265736044820152607360f81b606482015260840161114e565b6001600160a01b03821660009081526097602052604090205481811015614f265760405162461bcd60e51b815260206004820152602260248201527f45524332303a206275726e20616d6f756e7420657863656564732062616c616e604482015261636560f01b606482015260840161114e565b6001600160a01b0383166000908152609760205260408120838303905560998054849290614f55908490615ba9565b90915550506040518281526000906001600160a01b038516907fddf252ad1be2c89b69c2b068fc378daa952ba7f163c4a11628f55a4df523b3ef9060200160405180910390a3505050565b6060611406848460008561517d565b600054610100900460ff1680614fc8575060005460ff16155b614fe45760405162461bcd60e51b815260040161114e906158cb565b600054610100900460ff16158015615006576000805461ffff19166101011790555b600180558015611b4f576000805461ff001916905550565b600054610100900460ff1680615037575060005460ff16155b6150535760405162461bcd60e51b815260040161114e906158cb565b600054610100900460ff16158015614cf5576000805461ffff19166101011790558015611b4f576000805461ff001916905550565b600054610100900460ff16806150a1575060005460ff16155b6150bd5760405162461bcd60e51b815260040161114e906158cb565b600054610100900460ff161580156150df576000805461ffff19166101011790555b82516150f290609a9060208601906152de565b50815161510690609b9060208501906152de565b508015613fd4576000805461ff0019169055505050565b600054610100900460ff1680615136575060005460ff16155b6151525760405162461bcd60e51b815260040161114e906158cb565b600054610100900460ff16158015615174576000805461ffff19166101011790555b614cf533613f52565b6060824710156151de5760405162461bcd60e51b815260206004820152602660248201527f416464726573733a20696e73756666696369656e742062616c616e636520666f6044820152651c8818d85b1b60d21b606482015260840161114e565b843b61522c5760405162461bcd60e51b815260206004820152601d60248201527f416464726573733a2063616c6c20746f206e6f6e2d636f6e7472616374000000604482015260640161114e565b600080866001600160a01b031685876040516152489190615781565b60006040518083038185875af1925050503d8060008114615285576040519150601f19603f3d011682016040523d82523d6000602084013e61528a565b606091505b509150915061529a8282866152a5565b979650505050505050565b606083156152b45750816112c7565b8251156152c45782518084602001fd5b8160405162461bcd60e51b815260040161114e9190615897565b8280546152ea90615bec565b90600052602060002090601f01602090048101928261530c5760008555615352565b82601f1061532557805160ff1916838001178555615352565b82800160010185558215615352579182015b82811115615352578251825591602001919060010190615337565b5061535e929150615362565b5090565b5b8082111561535e5760008155600101615363565b803561538281615da0565b919050565b600082601f830112615397578081fd5b813567ffffffffffffffff808211156153b2576153b2615c52565b604051601f8301601f19908116603f011681019082821181831017156153da576153da615c52565b816040528381528660208588010111156153f2578485fd5b8360208701602083013792830160200193909352509392505050565b600060c0828403121561541f578081fd5b50919050565b803561538281615dc3565b803563ffffffff8116811461538257600080fd5b803561538281615dd8565b600060208284031215615460578081fd5b81356112c781615da0565b6000806040838503121561547d578081fd5b823561548881615da0565b9150602083013561549881615da0565b809150509250929050565b6000806000806000806000806000806000806102208d8f0312156154c5578788fd5b6154ce8d615377565b9b506154dc60208e01615377565b9a506154ea60408e01615377565b995060608d0135985060808d0135975067ffffffffffffffff60a08e01351115615512578687fd5b6155228e60a08f01358f01615387565b965067ffffffffffffffff60c08e0135111561553c578586fd5b61554c8e60c08f01358f01615387565b955061555a60e08e01615377565b94506155696101008e01615377565b93506155786101208e01615430565b92506101408d013591506155908e6101608f0161540e565b90509295989b509295989b509295989b565b6000806000606084860312156155b6578283fd5b83356155c181615da0565b925060208401356155d181615da0565b929592945050506040919091013590565b600080604083850312156155f4578182fd5b82356155ff81615da0565b9150602083013561549881615db5565b60008060408385031215615621578182fd5b823561562c81615da0565b946020939093013593505050565b6000806000806080858703121561564f578384fd5b845161565a81615da0565b60208601516040870151606090970151919890975090945092505050565b600060208284031215615689578081fd5b81516112c781615db5565b6000602082840312156156a5578081fd5b81356001600160801b03811681146112c7578182fd5b6000602082840312156156cc578081fd5b5035919050565b6000602082840312156156e4578081fd5b5051919050565b600080604083850312156156fd578182fd5b50508035926020909101359150565b60008060008060008060c08789031215615724578384fd5b865195506020870151945060408701519350606087015192506080870151915060a087015190509295509295509295565b6000815180845261576d816020860160208601615bc0565b601f01601f19169290920160200192915050565b60008251615793818460208701615bc0565b9190910192915050565b60006101a060018060a01b03808c168452808b166020850152808a1660408501528860608501528760808501528160a08501526157dc82850188615755565b915083820360c08501526157f08287615755565b9250843591506157ff82615db5565b90151560e084015260208401359061581682615ded565b60ff82166101008501526040850135915061583082615da0565b1661012083015261584360608401615377565b6001600160a01b031661014083015261585e60808401615444565b66ffffffffffffff1661016083015261587960a08401615425565b6001600160681b038116610180840152509998505050505050505050565b6020815260006112c76020830184615755565b60208082526007908201526610b5b2b2b832b960c91b604082015260600190565b6020808252602e908201527f496e697469616c697a61626c653a20636f6e747261637420697320616c72656160408201526d191e481a5b9a5d1a585b1a5e995960921b606082015260800190565b6020808252818101527f4f776e61626c653a2063616c6c6572206973206e6f7420746865206f776e6572604082015260600190565b6020808252601f908201527f5265656e7472616e637947756172643a207265656e7472616e742063616c6c00604082015260600190565b84516001600160a01b031681526020808601516101808301916159b2908401826001600160a01b03169052565b5060408601516159cd60408401826001600160a01b03169052565b506060860151606083015260808601516159ed608084018261ffff169052565b5060a086015160a083015260c0860151615a1260c08401826001600160a01b03169052565b5060e0860151615a2d60e08401826001600160a01b03169052565b506101008087015181840152508461012083015283610140830152615a5e6101608301846001600160a01b03169052565b95945050505050565b60008219821115615a7a57615a7a615c3c565b500190565b600082615a9a57634e487b7160e01b81526012600452602481fd5b500490565b600181815b80851115615ada578160001904821115615ac057615ac0615c3c565b80851615615acd57918102915b93841c9390800290615aa4565b509250929050565b60006112c78383600082615af85750600161121c565b81615b055750600061121c565b8160018114615b1b5760028114615b2557615b41565b600191505061121c565b60ff841115615b3657615b36615c3c565b50506001821b61121c565b5060208310610133831016604e8410600b8410161715615b64575081810a61121c565b615b6e8383615a9f565b8060001904821115615b8257615b82615c3c565b029392505050565b6000816000190483118215151615615ba457615ba4615c3c565b500290565b600082821015615bbb57615bbb615c3c565b500390565b60005b83811015615bdb578181015183820152602001615bc3565b838111156137775750506000910152565b600181811c90821680615c0057607f821691505b6020821081141561541f57634e487b7160e01b600052602260045260246000fd5b6000600019821415615c3557615c35615c3c565b5060010190565b634e487b7160e01b600052601160045260246000fd5b634e487b7160e01b600052604160045260246000fd5b6000813561121c81615da0565b6000813561121c81615dc3565b6000813561121c81615dd8565b8135615c9a81615db5565b815460ff19811691151560ff1691821783556020840135615cba81615ded565b61ff008160081b169050808361ffff198416171784556040850135615cde81615da0565b6001600160b01b0319929092169092179190911760109190911b62010000600160b01b031617815560018101615d36615d1960608501615c68565b82546001600160a01b0319166001600160a01b0391909116178255565b615d6f615d4560808501615c82565b82805466ffffffffffffff60a01b191660a09290921b66ffffffffffffff60a01b16919091179055565b50611a96615d7f60a08401615c75565b600283016001600160681b0382166001600160681b03198254161781555050565b6001600160a01b0381168114611b4f57600080fd5b8015158114611b4f57600080fd5b6001600160681b0381168114611b4f57600080fd5b66ffffffffffffff81168114611b4f57600080fd5b60ff81168114611b4f57600080fdfea2646970667358221220f10f9b0ff24402d0b81bf1d9f260204fdc8104fe5b3bd221c2fb79dfa56623bf64736f6c63430008040033",
  "deployedBytecode": "0x6080604052600436106104895760003560e01c806395d89b4111610255578063c632183911610144578063e16fdbd5116100c1578063f6326fb311610085578063f6326fb314611072578063f656ba511461107a578063f756fa21146110af578063f957a067146110c4578063f9a0be68146110e4578063fe56e2321461110457600080fd5b8063e16fdbd514610fe7578063e73c63d514611007578063e74b981b1461101d578063ea00b1ca1461103d578063f2fde38b1461105257600080fd5b8063d88bba1111610108578063d88bba1114610ee5578063db006a7514610f19578063db43e86214610f39578063dd62ed3e14610f6d578063e00bfe5014610fb357600080fd5b8063c632183914610e4f578063ce7c2ac214610e6f578063d13f1b3e14610e8f578063d164cc1514610eaf578063d5f2638214610ecf57600080fd5b8063a6f7f5d6116101d2578063ad7a672f11610196578063ad7a672f14610dba578063afa6626414610dcf578063b2016bd414610def578063b4d1d79514610e23578063b9f8092b14610e3a57600080fd5b8063a6f7f5d614610d1d578063a9059cbb14610d33578063aa67c91914610d53578063aced166114610d66578063ad5c464814610d8657600080fd5b8063a285c9e811610219578063a285c9e814610c7d578063a2db9d8314610c9f578063a457c2d714610cbd578063a497e67414610cdd578063a694fc3a14610cfd57600080fd5b806395d89b4114610b2457806399530b0614610b395780639be43daa14610b4e5780639fcc2d7514610b6e578063a083ff1714610c1a57600080fd5b806355489bb21161037c578063715018a6116102f957806383536ff3116102bd57806383536ff314610a5b57806387153eb114610a715780638778878214610a9e57806389a3027114610ab45780638b10cc7c14610ae85780638da5cb5b14610b0657600080fd5b8063715018a61461098d5780637400173d146109a25780637a9262a2146109c25780637bf5108614610a265780637e108d5214610a3b57600080fd5b80636b64c769116103405780636b64c769146108d95780636c10f66c146108ee5780636f31ab341461092257806370897b231461093757806370a082311461095757600080fd5b806355489bb2146107d7578063600a2cfb146107f7578063650cce8a1461080c5780636719b2ee1461084057806369b41170146108c457600080fd5b8063355274ea1161040a578063432833a6116103ce578063432833a614610737578063469048401461074d57806347786d371461076d5780634f6e746d1461078d578063503c70aa146107c157600080fd5b8063355274ea1461068d57806339509351146106ab5780633ec143d3146106cb5780633f23bb73146106f95780633f90916a1461071957600080fd5b80631a92f6c2116104515780631a92f6c21461054457806323b872dd146105905780632728f333146105b0578063313ce5671461064357806331807e421461066d57600080fd5b8063048bf0851461048e57806306fdde03146104b0578063095ea7b3146104db5780630cbf54c81461050b57806318160ddd1461052f575b600080fd5b34801561049a57600080fd5b506104ae6104a936600461544f565b611124565b005b3480156104bc57600080fd5b506104c5611179565b6040516104d29190615897565b60405180910390f35b3480156104e757600080fd5b506104fb6104f636600461560f565b61120b565b60405190151581526020016104d2565b34801561051757600080fd5b5061052160fb5481565b6040519081526020016104d2565b34801561053b57600080fd5b50609954610521565b34801561055057600080fd5b506105787f000000000000000000000000000000000000000000000000000000000000000081565b6040516001600160a01b0390911681526020016104d2565b34801561059c57600080fd5b506104fb6105ab3660046155a2565b611222565b3480156105bc57600080fd5b5060cf5460d0546105fe9161ffff8116916001600160681b03620100008304811692600160781b900416906001600160801b0380821691600160801b90041685565b6040805161ffff90961686526001600160681b03948516602087015293909216928401929092526001600160801b03918216606084015216608082015260a0016104d2565b34801561064f57600080fd5b5060cc54610100900460ff1660405160ff90911681526020016104d2565b34801561067957600080fd5b506104ae6106883660046156bb565b6112ce565b34801561069957600080fd5b5060ce546001600160681b0316610521565b3480156106b757600080fd5b506104fb6106c636600461560f565b61137f565b3480156106d757600080fd5b5060f9546106e69061ffff1681565b60405161ffff90911681526020016104d2565b34801561070557600080fd5b5061052161071436600461544f565b6113bb565b34801561072557600080fd5b5060d0546001600160801b0316610521565b34801561074357600080fd5b5061052160fc5481565b34801561075957600080fd5b5060d354610578906001600160a01b031681565b34801561077957600080fd5b506104ae6107883660046156bb565b61140e565b34801561079957600080fd5b506105787f000000000000000000000000000000000000000000000000000000000000000081565b3480156107cd57600080fd5b5061052160fd5481565b3480156107e357600080fd5b506104ae6107f2366004615694565b6114e9565b34801561080357600080fd5b506104ae611581565b34801561081857600080fd5b506105787f000000000000000000000000000000000000000000000000000000000000000081565b34801561084c57600080fd5b5061089361085b36600461544f565b60c96020526000908152604090205461ffff8116906201000081046001600160681b031690600160781b90046001600160801b031683565b6040805161ffff90941684526001600160681b0390921660208401526001600160801b0316908201526060016104d2565b3480156108d057600080fd5b50610521600081565b3480156108e557600080fd5b506104ae611850565b3480156108fa57600080fd5b506105787f000000000000000000000000000000000000000000000000000000000000000081565b34801561092e57600080fd5b506104ae6118b0565b34801561094357600080fd5b506104ae6109523660046156bb565b6118e7565b34801561096357600080fd5b5061052161097236600461544f565b6001600160a01b031660009081526097602052604090205490565b34801561099957600080fd5b506104ae6119ae565b3480156109ae57600080fd5b506104ae6109bd3660046155e2565b6119e4565b3480156109ce57600080fd5b50610a046109dd36600461544f565b60cb6020526000908152604090205461ffff8116906201000090046001600160801b031682565b6040805161ffff90931683526001600160801b039091166020830152016104d2565b348015610a3257600080fd5b506104ae611a9a565b348015610a4757600080fd5b506104ae610a563660046156bb565b611b52565b348015610a6757600080fd5b5061052160f75481565b348015610a7d57600080fd5b50610521610a8c3660046156bb565b60ca6020526000908152604090205481565b348015610aaa57600080fd5b5061052160d55481565b348015610ac057600080fd5b506105787f000000000000000000000000000000000000000000000000000000000000000081565b348015610af457600080fd5b5060d2546001600160a01b0316610578565b348015610b1257600080fd5b506065546001600160a01b0316610578565b348015610b3057600080fd5b506104c5611d8d565b348015610b4557600080fd5b50610521611d9c565b348015610b5a57600080fd5b506104ae610b693660046156bb565b611dd6565b348015610b7a57600080fd5b5060cc5460cd5460ce54610bca9260ff808216936101008304909116926001600160a01b036201000090930483169282169166ffffffffffffff600160a01b90910416906001600160681b031686565b60408051961515875260ff90951660208701526001600160a01b03938416948601949094529116606084015266ffffffffffffff1660808301526001600160681b031660a082015260c0016104d2565b348015610c2657600080fd5b5060d15460d254610c51916001600160a01b039081169190811690600160a01b900463ffffffff1683565b604080516001600160a01b03948516815293909216602084015263ffffffff16908201526060016104d2565b348015610c8957600080fd5b5060d254600160a01b900463ffffffff16610521565b348015610cab57600080fd5b5060d1546001600160a01b0316610578565b348015610cc957600080fd5b506104fb610cd836600461560f565b611ed0565b348015610ce957600080fd5b506104ae610cf83660046156bb565b611f69565b348015610d0957600080fd5b506104ae610d183660046156bb565b612026565b348015610d2957600080fd5b5061052160d65481565b348015610d3f57600080fd5b506104fb610d4e36600461560f565b612116565b6104ae610d6136600461544f565b612123565b348015610d7257600080fd5b5060d454610578906001600160a01b031681565b348015610d9257600080fd5b506105787f000000000000000000000000000000000000000000000000000000000000000081565b348015610dc657600080fd5b506105216121cf565b348015610ddb57600080fd5b5060f554610578906001600160a01b031681565b348015610dfb57600080fd5b506105787f000000000000000000000000000000000000000000000000000000000000000081565b348015610e2f57600080fd5b5061052162093a8081565b348015610e4657600080fd5b506104ae61245a565b348015610e5b57600080fd5b506104ae610e6a3660046156eb565b61273c565b348015610e7b57600080fd5b50610521610e8a36600461544f565b612a02565b348015610e9b57600080fd5b506104ae610eaa3660046156bb565b612a1f565b348015610ebb57600080fd5b506104ae610eca36600461544f565b612ae4565b348015610edb57600080fd5b5061052160f85481565b348015610ef157600080fd5b506105787f000000000000000000000000000000000000000000000000000000000000000081565b348015610f2557600080fd5b506104ae610f343660046156bb565b612b73565b348015610f4557600080fd5b506105787f000000000000000000000000000000000000000000000000000000000000000081565b348015610f7957600080fd5b50610521610f8836600461546b565b6001600160a01b03918216600090815260986020908152604080832093909416825291909152205490565b348015610fbf57600080fd5b506105787f000000000000000000000000000000000000000000000000000000000000000081565b348015610ff357600080fd5b506104ae6110023660046154a3565b612be0565b34801561101357600080fd5b5061052160fa5481565b34801561102957600080fd5b506104ae61103836600461544f565b612dec565b34801561104957600080fd5b506104ae612edf565b34801561105e57600080fd5b506104ae61106d36600461544f565b61316d565b6104ae613205565b34801561108657600080fd5b5061109a61109536600461544f565b61326f565b604080519283526020830191909152016104d2565b3480156110bb57600080fd5b506104ae613352565b3480156110d057600080fd5b5060f654610578906001600160a01b031681565b3480156110f057600080fd5b5060fe54610578906001600160a01b031681565b34801561111057600080fd5b506104ae61111f3660046156bb565b6133a7565b6065546001600160a01b031633146111575760405162461bcd60e51b815260040161114e90615919565b60405180910390fd5b60fe80546001600160a01b0319166001600160a01b0392909216919091179055565b6060609a805461118890615bec565b80601f01602080910402602001604051908101604052809291908181526020018280546111b490615bec565b80156112015780601f106111d657610100808354040283529160200191611201565b820191906000526020600020905b8154815290600101906020018083116111e457829003601f168201915b5050505050905090565b6000611218338484613488565b5060015b92915050565b600061122f8484846135ad565b6001600160a01b0384166000908152609860209081526040808320338452909152902054828110156112b45760405162461bcd60e51b815260206004820152602860248201527f45524332303a207472616e7366657220616d6f756e74206578636565647320616044820152676c6c6f77616e636560c01b606482015260840161114e565b6112c18533858403613488565b60019150505b9392505050565b600260015414156112f15760405162461bcd60e51b815260040161114e9061594e565b60026001558061132d5760405162461bcd60e51b815260206004820152600760248201526608585b5bdd5b9d60ca1b604482015260640161114e565b61134361133b82600161377d565b336000613789565b6113786001600160a01b037f000000000000000000000000000000000000000000000000000000000000000016333084613a28565b5060018055565b3360008181526098602090815260408083206001600160a01b038716845290915281205490916112189185906113b6908690615a67565b613488565b60cc5460009060ff61010090910416816113f16113d760995490565b6113df6121cf565b60d0546001600160801b031685613a93565b90506114066113ff85612a02565b8284613ad3565b949350505050565b6065546001600160a01b031633146114385760405162461bcd60e51b815260040161114e90615919565b600081116114725760405162461bcd60e51b81526020600482015260076024820152660216e65774361760cc1b604482015260640161114e565b61147b81613b35565b60ce54604080516001600160681b039092168252602082018390527f5f86edbb9d92228a9edc3f0ebc0f001bda1ea345ac7335e0eeef3504b31d1a1c910160405180910390a160ce80546cffffffffffffffffffffffffff19166001600160681b0392909216919091179055565b6065546001600160a01b031633146115135760405162461bcd60e51b815260040161114e90615919565b6000816001600160801b03161161155b5760405162461bcd60e51b815260206004820152600c60248201526b21737472696b65507269636560a01b604482015260640161114e565b6001600160801b031660fa5560cf5460f9805461ffff191661ffff909216919091179055565b60d4546001600160a01b031633146115ab5760405162461bcd60e51b815260040161114e906158aa565b600260015414156115ce5760405162461bcd60e51b815260040161114e9061594e565b600260015560d2546040516358ffbb3d60e01b81526001600160a01b037f000000000000000000000000000000000000000000000000000000000000000081166004830152909116602482015260009073__$c4f279750f4bbb575ac7775e752dc00849$__906358ffbb3d9060440160206040518083038186803b15801561165557600080fd5b505af4158015611669573d6000803e3d6000fd5b505050506040513d601f19601f8201168201806040525081019061168d91906156d3565b604051632eca54bf60e21b815260048101829052909150611744906001600160a01b037f0000000000000000000000000000000000000000000000000000000000000000169063bb2952fc9060240160206040518083038186803b1580156116f457600080fd5b505afa158015611708573d6000803e3d6000fd5b505050506040513d601f19601f8201168201806040525081019061172c91906156d3565b60cf546201000090046001600160681b03169061377d565b60cf805462010000600160781b031916620100006001600160681b039390931692909202919091179055604051631989ea7560e21b81526001600160a01b037f0000000000000000000000000000000000000000000000000000000000000000811660048301527f0000000000000000000000000000000000000000000000000000000000000000811660248301527f000000000000000000000000000000000000000000000000000000000000000016604482015273__$09b2ed88edfa44a3a64aec022eed7f982f$__90636627a9d49060640160006040518083038186803b15801561183157600080fd5b505af4158015611845573d6000803e3d6000fd5b505060018055505050565b60d4546001600160a01b0316331461187a5760405162461bcd60e51b815260040161114e906158aa565b6002600154141561189d5760405162461bcd60e51b815260040161114e9061594e565b60026001556118aa613b7f565b60018055565b600260015414156118d35760405162461bcd60e51b815260040161114e9061594e565b60026001819055506118aa60006001613da3565b6065546001600160a01b031633146119115760405162461bcd60e51b815260040161114e90615919565b61191f620f42406064615b8a565b811061196d5760405162461bcd60e51b815260206004820152601760248201527f496e76616c696420706572666f726d616e636520666565000000000000000000604482015260640161114e565b60d55460408051918252602082018390527f24867dfb6fcb9970a07be21024956524abe7a1837faa903ff0e99aaa40cf893e910160405180910390a160d555565b6065546001600160a01b031633146119d85760405162461bcd60e51b815260040161114e90615919565b6119e26000613f52565b565b6065546001600160a01b03163314611a0e5760405162461bcd60e51b815260040161114e90615919565b6001600160a01b038216611a535760405162461bcd60e51b815260206004820152600c60248201526b085b995dd0dbdb9d1c9858dd60a21b604482015260640161114e565b8015611a7a5760f680546001600160a01b0384166001600160a01b03199091161790555050565b60f580546001600160a01b0319166001600160a01b0384161790555b5050565b60d3546040516370a0823160e01b81523060048201527f000000000000000000000000000000000000000000000000000000000000000091611b4f916001600160a01b03918216918416906370a082319060240160206040518083038186803b158015611b0657600080fd5b505afa158015611b1a573d6000803e3d6000fd5b505050506040513d601f19601f82011682018060405250810190611b3e91906156d3565b6001600160a01b0384169190613fa4565b50565b60026001541415611b755760405162461bcd60e51b815260040161114e9061594e565b600260015580611bb45760405162461bcd60e51b815260206004820152600a602482015269216e756d53686172657360b01b604482015260640161114e565b33600090815260c960205260409020546201000090046001600160681b0316151580611bfe575033600090815260c96020526040902054600160781b90046001600160801b031615155b15611c0f57611c0f60006001613da3565b60cf5433600081815260cb60209081526040918290208054835187815261ffff96871693810184905292959194911685149290917f0c53c82ad07e2d592d88ece3b066777dd60f1118e2a081b380efc4358f0d9e2a910160405180910390a281546201000090046001600160801b031660008215611c9857611c918287613fd9565b9050611cfb565b8115611cda5760405162461bcd60e51b81526020600482015260116024820152704578697374696e6720776974686472617760781b604482015260640161114e565b5033600090815260cb60205260409020805461ffff191661ffff8616179055845b611d0481613fe5565b33600090815260cb6020526040812080546001600160801b03808516620100000262010000600160901b03199092169190911790915560d054611d5091600160801b9091041688613fd9565b9050611d5b81613fe5565b60d080546001600160801b03808416600160801b029116179055611d803330896135ad565b5050600180555050505050565b6060609b805461118890615bec565b6000611dd1611daa60995490565b611db26121cf565b60d05460cc546001600160801b0390911690610100900460ff16613a93565b905090565b60026001541415611df95760405162461bcd60e51b815260040161114e9061594e565b600260015580611e385760405162461bcd60e51b815260206004820152600a602482015269216e756d526f756e647360b01b604482015260640161114e565b60cf5461ffff1660005b82811015611ec7576000611e568284615a67565b600081815260ca602052604090205490915015611ea35760405162461bcd60e51b815260206004820152600b60248201526a125b9a5d1a585b1a5e995960aa1b604482015260640161114e565b600090815260ca602052604090206001905580611ebf81615c21565b915050611e42565b50506001805550565b3360009081526098602090815260408083206001600160a01b038616845290915281205482811015611f525760405162461bcd60e51b815260206004820152602560248201527f45524332303a2064656372656173656420616c6c6f77616e63652062656c6f77604482015264207a65726f60d81b606482015260840161114e565b611f5f3385858403613488565b5060019392505050565b6065546001600160a01b03163314611f935760405162461bcd60e51b815260040161114e90615919565b61012c811015611fe55760405162461bcd60e51b815260206004820152601860248201527f496e76616c69642061756374696f6e206475726174696f6e0000000000000000604482015260640161114e565b60fb5460408051918252602082018390527f5acd982e2240ed224a69aa03dab039d3797c108e4b5f288cd7dd6ca181b275f3910160405180910390a160fb55565b600260015414156120495760405162461bcd60e51b815260040161114e9061594e565b600260015560fe546001600160a01b03168061206457600080fd5b6000821161207157600080fd5b336000908152609760205260409020548281101561209d5761209d612096848361377d565b6000613da3565b6120a83330856135ad565b6120b3308385613488565b6040516383df674760e01b815260048101849052336024820152600060448201526001600160a01b038316906383df674790606401600060405180830381600087803b15801561210257600080fd5b505af1158015611d80573d6000803e3d6000fd5b60006112183384846135ad565b600260015414156121465760405162461bcd60e51b815260040161114e9061594e565b6002600155346121815760405162461bcd60e51b81526020600482015260066024820152652176616c756560d01b604482015260640161114e565b6001600160a01b0381166121c35760405162461bcd60e51b815260206004820152600960248201526810b1b932b234ba37b960b91b604482015260640161114e565b61137834826001613789565b6040516370a0823160e01b815230600482015260009081906001600160a01b037f000000000000000000000000000000000000000000000000000000000000000016906370a082319060240160206040518083038186803b15801561223357600080fd5b505afa158015612247573d6000803e3d6000fd5b505050506040513d601f19601f8201168201806040525081019061226b91906156d3565b6040516370a0823160e01b815230600482015290915047906000907f00000000000000000000000000000000000000000000000000000000000000006001600160a01b03169063bb2952fc9082906370a082319060240160206040518083038186803b1580156122da57600080fd5b505afa1580156122ee573d6000803e3d6000fd5b505050506040513d601f19601f8201168201806040525081019061231291906156d3565b6040518263ffffffff1660e01b815260040161233091815260200190565b60206040518083038186803b15801561234857600080fd5b505afa15801561235c573d6000803e3d6000fd5b505050506040513d601f19601f8201168201806040525081019061238091906156d3565b6040516370a0823160e01b81523060048201529091506000906001600160a01b037f000000000000000000000000000000000000000000000000000000000000000016906370a082319060240160206040518083038186803b1580156123e557600080fd5b505afa1580156123f9573d6000803e3d6000fd5b505050506040513d601f19601f8201168201806040525081019061241d91906156d3565b60cf5490915061245190829061244b9085908290889082908b906201000090046001600160681b0316613fd9565b90613fd9565b94505050505090565b60d4546001600160a01b031633146124845760405162461bcd60e51b815260040161114e906158aa565b600260015414156124a75760405162461bcd60e51b815260040161114e9061594e565b60026001819055506000806124bd60fd5461402f565b60fd81905560405162b0e38960e81b8152600481018290529193509150600090612602907f00000000000000000000000000000000000000000000000000000000000000006001600160a01b03169063b0e389009060240160206040518083038186803b15801561252d57600080fd5b505afa158015612541573d6000803e3d6000fd5b505050506040513d601f19601f8201168201806040525081019061256591906156d3565b6040516370a0823160e01b81523060048201527f00000000000000000000000000000000000000000000000000000000000000006001600160a01b0316906370a082319060240160206040518083038186803b1580156125c457600080fd5b505afa1580156125d8573d6000803e3d6000fd5b505050506040513d601f19601f820116820180604052508101906125fc91906156d3565b9061377d565b9050336001600160a01b0316836001600160a01b03167f045c558fdce4714c5816d53820d27420f4cd860892df203fe636384d8d19aa018360405161264991815260200190565b60405180910390a3604051632904c23960e01b81526001600160a01b037f0000000000000000000000000000000000000000000000000000000000000000811660048301527f000000000000000000000000000000000000000000000000000000000000000081166024830152841660448201526064810182905273__$09b2ed88edfa44a3a64aec022eed7f982f$__90632904c2399060840160206040518083038186803b1580156126fb57600080fd5b505af415801561270f573d6000803e3d6000fd5b505050506040513d601f19601f8201168201806040525081019061273391906156d3565b50611ec7613b7f565b6002600154141561275f5760405162461bcd60e51b815260040161114e9061594e565b600260015533600090815260c96020526040902060cf5461ffff16836127b15760405162461bcd60e51b815260206004820152600760248201526608585b5bdd5b9d60ca1b604482015260640161114e565b815461ffff1681146127f55760405162461bcd60e51b815260206004820152600d60248201526c125b9d985b1a59081c9bdd5b99609a1b604482015260640161114e565b81546201000090046001600160681b0316848110156128465760405162461bcd60e51b815260206004820152600d60248201526c115e18d9595908185b5bdd5b9d609a1b604482015260640161114e565b612850818661377d565b83546001600160681b0391909116620100000262010000600160781b031990911617835560d05461288a906001600160801b03168661377d565b60d080546001600160801b0319166001600160801b0392909216919091179055604051633be3450960e11b81526001600160a01b037f0000000000000000000000000000000000000000000000000000000000000000811660048301527f0000000000000000000000000000000000000000000000000000000000000000166024820152604481018690526129bc90339073__$09b2ed88edfa44a3a64aec022eed7f982f$__906377c68a12906064015b60206040518083038186803b15801561295357600080fd5b505af4158015612967573d6000803e3d6000fd5b505050506040513d601f19601f8201168201806040525081019061298b91906156d3565b6001600160a01b037f0000000000000000000000000000000000000000000000000000000000000000169190613fa4565b604080518681526020810184905233917fab2daf3c146ca6416cbccd2a86ed2ba995e171ef6319df14a38aef01403a9c96910160405180910390a2505060018055505050565b6000806000612a108461326f565b90925090506114068282613fd9565b60d4546001600160a01b03163314612a495760405162461bcd60e51b815260040161114e906158aa565b600081118015612a645750612a60600a6064615b8a565b8111155b612aa35760405162461bcd60e51b815260206004820152601060248201526f125b9d985b1a5908191a5cd8dbdd5b9d60821b604482015260640161114e565b60f75460408051918252602082018390527f4cd657fde404967d63a338fb06c5c98751a9df57dfae6dc333a432faf8a5f656910160405180910390a160f755565b6065546001600160a01b03163314612b0e5760405162461bcd60e51b815260040161114e90615919565b6001600160a01b038116612b515760405162461bcd60e51b815260206004820152600a60248201526910b732bba5b2b2b832b960b11b604482015260640161114e565b60d480546001600160a01b0319166001600160a01b0392909216919091179055565b60026001541415612b965760405162461bcd60e51b815260040161114e9061594e565b600260015580612bd55760405162461bcd60e51b815260206004820152600a602482015269216e756d53686172657360b01b604482015260640161114e565b611378816000613da3565b600054610100900460ff1680612bf9575060005460ff16155b612c155760405162461bcd60e51b815260040161114e906158cb565b600054610100900460ff16158015612c37576000805461ffff19166101011790555b612c478d8d8d8d8d8d8d8961451c565b6001600160a01b038616612c965760405162461bcd60e51b815260206004820152601660248201527510afb7b83a34b7b739a83932b6b4bab6a83934b1b2b960511b604482015260640161114e565b6001600160a01b038516612ce05760405162461bcd60e51b815260206004820152601160248201527010afb9ba3934b5b2a9b2b632b1ba34b7b760791b604482015260640161114e565b60008463ffffffff16118015612d065750612cfd600a6064615b8a565b8463ffffffff16105b612d465760405162461bcd60e51b81526020600482015260116024820152700857dc1c995b5a5d5b511a5cd8dbdd5b9d607a1b604482015260640161114e565b61012c831015612d8c5760405162461bcd60e51b815260206004820152601160248201527010afb0bab1ba34b7b7223ab930ba34b7b760791b604482015260640161114e565b60f580546001600160a01b038089166001600160a01b03199283161790925560f680549288169290911691909117905563ffffffff841660f75560fb8390558015612ddd576000805461ff00191690555b50505050505050505050505050565b6065546001600160a01b03163314612e165760405162461bcd60e51b815260040161114e90615919565b6001600160a01b038116612e5f5760405162461bcd60e51b815260206004820152601060248201526f085b995dd19959549958da5c1a595b9d60821b604482015260640161114e565b60d3546001600160a01b0382811691161415612ebd5760405162461bcd60e51b815260206004820152601860248201527f4d757374206265206e657720666565526563697069656e740000000000000000604482015260640161114e565b60d380546001600160a01b0319166001600160a01b0392909216919091179055565b60026001541415612f025760405162461bcd60e51b815260040161114e9061594e565b600260015560d25460408051610120810182526001600160a01b037f0000000000000000000000000000000000000000000000000000000000000000811682527f00000000000000000000000000000000000000000000000000000000000000008116602083015292831681830181905260006060830181905260f95461ffff16608084015260fa5460a084015260f654851660c084015260f55490941660e083015260f75461010083015291516001621eaadd60e11b031981529192909181908190819073__$09b2ed88edfa44a3a64aec022eed7f982f$__9063ffc2aa469061301990889060cc9060cf907f000000000000000000000000000000000000000000000000000000000000000090600401615985565b60806040518083038186803b15801561303157600080fd5b505af4158015613045573d6000803e3d6000fd5b505050506040513d601f19601f82011682018060405250810190613069919061563a565b93509350935093507fa217999b1c125c2a996f712c5f26a28addad7167bd8a67d5bd5b2a751148abb082826040516130ab929190918252602082015260400190565b60405180910390a16130bc83613b35565b6001600160681b03831660f85560d180546001600160a01b0319166001600160a01b03861617905560006130f04282613fd9565b905063ffffffff8111156131465760405162461bcd60e51b815260206004820152601860248201527f4f766572666c6f77206e6578744f7074696f6e52656164790000000000000000604482015260640161114e565b60d2805463ffffffff60a01b1916600160a01b63ffffffff841602179055611d80876146e4565b6065546001600160a01b031633146131975760405162461bcd60e51b815260040161114e90615919565b6001600160a01b0381166131fc5760405162461bcd60e51b815260206004820152602660248201527f4f776e61626c653a206e6577206f776e657220697320746865207a65726f206160448201526564647265737360d01b606482015260840161114e565b611b4f81613f52565b600260015414156132285760405162461bcd60e51b815260040161114e9061594e565b6002600155346132635760405162461bcd60e51b81526020600482015260066024820152652176616c756560d01b604482015260640161114e565b6118aa34336001613789565b6001600160a01b038116600090815260c9602090815260408083208151606081018352905461ffff81168083526201000082046001600160681b031694830194909452600160781b90046001600160801b0316918101919091528291600111156132f1575050506001600160a01b031660009081526097602052604081205491565b60cf54815161ffff908116600090815260ca602052604081205460cc54919361332793869391169190610100900460ff16614856565b9050613348856001600160a01b031660009081526097602052604090205490565b9590945092505050565b600260015414156133755760405162461bcd60e51b815260040161114e9061594e565b600260015560006133846148c7565b60fd54909150613394908261377d565b6001600160801b031660fd555060018055565b6065546001600160a01b031633146133d15760405162461bcd60e51b815260040161114e90615919565b6133df620f42406064615b8a565b81106134265760405162461bcd60e51b8152602060048201526016602482015275496e76616c6964206d616e6167656d656e742066656560501b604482015260640161114e565b600061344363031ba30961343d84620f4240614acd565b90614ad9565b60d65460408051918252602082018590529192507f4e874b007ab14f7e263baefd44951834c8266f4f224d1092e49e9c254354cc54910160405180910390a160d65550565b6001600160a01b0383166134ea5760405162461bcd60e51b8152602060048201526024808201527f45524332303a20617070726f76652066726f6d20746865207a65726f206164646044820152637265737360e01b606482015260840161114e565b6001600160a01b03821661354b5760405162461bcd60e51b815260206004820152602260248201527f45524332303a20617070726f766520746f20746865207a65726f206164647265604482015261737360f01b606482015260840161114e565b6001600160a01b0383811660008181526098602090815260408083209487168084529482529182902085905590518481527f8c5be1e5ebec7d5bd14f71427d1e84f3dd0314c0f7b2291e5b200ac8c7c3b92591015b60405180910390a3505050565b6001600160a01b0383166136115760405162461bcd60e51b815260206004820152602560248201527f45524332303a207472616e736665722066726f6d20746865207a65726f206164604482015264647265737360d81b606482015260840161114e565b6001600160a01b0382166136735760405162461bcd60e51b815260206004820152602360248201527f45524332303a207472616e7366657220746f20746865207a65726f206164647260448201526265737360e81b606482015260840161114e565b6001600160a01b038316600090815260976020526040902054818110156136eb5760405162461bcd60e51b815260206004820152602660248201527f45524332303a207472616e7366657220616d6f756e7420657863656564732062604482015265616c616e636560d01b606482015260840161114e565b6001600160a01b03808516600090815260976020526040808220858503905591851681529081208054849290613722908490615a67565b92505081905550826001600160a01b0316846001600160a01b03167fddf252ad1be2c89b69c2b068fc378daa952ba7f163c4a11628f55a4df523b3ef8460405161376e91815260200190565b60405180910390a35b50505050565b60006112c78284615ba9565b60cf5461ffff166000826137a8576137a38561244b6121cf565b6137b0565b6137b06121cf565b60ce549091506001600160681b03168111156137fb5760405162461bcd60e51b815260206004820152600a6024820152690457863656564206361760b41b604482015260640161114e565b60cd54600160a01b900466ffffffffffffff168110156138545760405162461bcd60e51b8152602060048201526014602482015273496e73756666696369656e742062616c616e636560601b604482015260640161114e565b60408051868152602081018490526001600160a01b038616917f90890809c654f11d6e72a28fa60149770a0d11ec6c92319d6ceb2bb0a4ea1a15910160405180910390a26001600160a01b038416600090815260c9602090815260408083208151606081018352905461ffff81168083526201000082046001600160681b031683860152600160781b9091046001600160801b031682840152845260ca90925282205460cc54919291613913918491879190610100900460ff16614856565b8251909150879061ffff16851415613944576020830151600090613940906001600160681b03168a613fd9565b9150505b61394d81613b35565b6040805160608101825261ffff80881682526001600160681b0380851660208085019182526001600160801b038089168688019081526001600160a01b038f16600090815260c990935296822095518654935197518216600160781b02600160781b600160f81b03199890951662010000026effffffffffffffffffffffffffffff1990941695169490941791909117949094161790915560d0546139f391168a613fd9565b90506139fe81613fe5565b60d080546001600160801b0319166001600160801b03929092169190911790555050505050505050565b6040516001600160a01b03808516602483015283166044820152606481018290526137779085906323b872dd60e01b906084015b60408051601f198184030181529190526020810180516001600160e01b03166001600160e01b031990931692909217909152614ae5565b600080613aa183600a615ae2565b905060008611613ab15780613ac9565b613ac98661343d613ac2888861377d565b8490614acd565b9695505050505050565b600060018311613b1d5760405162461bcd60e51b8152602060048201526015602482015274496e76616c6964206173736574506572536861726560581b604482015260640161114e565b611406613b2b83600a615ae2565b61343d8686614acd565b6001600160681b03811115611b4f5760405162461bcd60e51b815260206004820152601060248201526f13dd995c999b1bddc81d5a5b9d0c4c0d60821b604482015260640161114e565b6040805160c081018252600080825260208201819052818301819052606082018190526080820181905260a0820181905260d25460f55460f754945163188b696960e31b81526001600160a01b0392831660048201819052918316602482015260448101959095527f00000000000000000000000000000000000000000000000000000000000000009091166064850152919273__$09b2ed88edfa44a3a64aec022eed7f982f$__9063c45b4b489060840160206040518083038186803b158015613c4957600080fd5b505af4158015613c5d573d6000803e3d6000fd5b505050506040513d601f19601f82011682018060405250810190613c8191906156d3565b6001600160a01b0383811685527f000000000000000000000000000000000000000000000000000000000000000081166020860190815260cc546201000081048316604080890191825261010090920460ff16606089019081526080890186815260fb5460a08b019081529351633baf17fd60e21b81528a5187166004820152945186166024860152915190941660448401529251606483015291516084820152905160a482015290915073__$c4f279750f4bbb575ac7775e752dc00849$__9063eebc5ff49060c40160206040518083038186803b158015613d6357600080fd5b505af4158015613d77573d6000803e3d6000fd5b505050506040513d601f19601f82011682018060405250810190613d9b91906156d3565b60fc55505050565b33600090815260c9602090815260408083208151606081018352905461ffff8082168084526201000083046001600160681b031684870152600160781b9092046001600160801b03168385015260cf5491865260ca9094529184205460cc5491949290931692613e1e9185918591610100900460ff16614856565b905083613e2b5784613e2d565b805b945084613e3b575050505050565b80851115613e7f5760405162461bcd60e51b81526020600482015260116024820152704578636565647320617661696c61626c6560781b604482015260640161114e565b825161ffff16821115613eac5733600090815260c960205260409020805462010000600160781b03191690555b613eb585613fe5565b613ebf818661377d565b33600081815260c960205260409081902080546001600160801b0394909416600160781b02600160781b600160f81b0319909416939093179092558451915190917fe5b754fb1abb7f01b499791d0b820ae3b6af3424ac1c59768edb53f4ec31a92991613f389189825261ffff16602082015260400190565b60405180910390a2613f4b3033876135ad565b5050505050565b606580546001600160a01b038381166001600160a01b0319831681179093556040519116919082907f8be0079c531659141344cd1fd0a4f28419497f9722a3daafe3b4186f6b6457e090600090a35050565b6040516001600160a01b038316602482015260448101829052613fd490849063a9059cbb60e01b90606401613a5c565b505050565b60006112c78284615a67565b6001600160801b03811115611b4f5760405162461bcd60e51b815260206004820152601060248201526f09eeccae4ccd8deee40ead2dce86264760831b604482015260640161114e565b60d2546000908190600160a01b900463ffffffff1642101561407c5760405162461bcd60e51b815260206004820152600660248201526521726561647960d01b604482015260640161114e565b60d1546001600160a01b0316806140c35760405162461bcd60e51b815260206004820152600b60248201526a10b732bc3a27b83a34b7b760a91b604482015260640161114e565b60008060008060008073__$c4f279750f4bbb575ac7775e752dc00849$__63633c142660cf6040518060c0016040528060cc60000160019054906101000a900460ff1660ff1681526020016141166121cf565b815260200161412460995490565b81526020018e815260200160d554815260200160d6548152506040518363ffffffff1660e01b81526004016141a0929190600060e08201905083825282516020830152602083015160408301526040830151606083015260608301516080830152608083015160a083015260a083015160c08301529392505050565b60c06040518083038186803b1580156141b857600080fd5b505af41580156141cc573d6000803e3d6000fd5b505050506040513d601f19601f820116820180604052508101906141f0919061570c565b9550955095509550955095508660d160010160006101000a8154816001600160a01b0302191690836001600160a01b03160217905550600060d160000160006101000a8154816001600160a01b0302191690836001600160a01b03160217905550600060d360009054906101000a90046001600160a01b0316905060007f00000000000000000000000000000000000000000000000000000000000000009050600060cf60000160009054906101000a900461ffff1661ffff1690508660ca60008381526020019081526020016000208190555073__$09b2ed88edfa44a3a64aec022eed7f982f$__636627a9d47f0000000000000000000000000000000000000000000000000000000000000000847f00000000000000000000000000000000000000000000000000000000000000006040518463ffffffff1660e01b815260040161435d939291906001600160a01b0393841681529183166020830152909116604082015260600190565b60006040518083038186803b15801561437557600080fd5b505af4158015614389573d6000803e3d6000fd5b505060408051888152602081018890529081018490526001600160a01b03861692507f0a242f7ecaf711036ca770774ceffae28e60ef042ac113ddd187f2631db0c006915060600160405180910390a260d080546001600160801b03191690556143f4816001615a67565b60cf805461ffff191661ffff9290921691909117905561441389613b35565b60cf805462010000600160781b031916620100006001600160681b038c160217905561443f3087614bb7565b8315614509576040516305ffc87f60e31b81526001600160a01b0380841660048301527f000000000000000000000000000000000000000000000000000000000000000081166024830152841660448201526064810185905273__$09b2ed88edfa44a3a64aec022eed7f982f$__90632ffe43f89060840160206040518083038186803b1580156144cf57600080fd5b505af41580156144e3573d6000803e3d6000fd5b505050506040513d601f19601f8201168201806040525081019061450791906156d3565b505b50979b959a509498505050505050505050565b600054610100900460ff1680614535575060005460ff16155b6145515760405162461bcd60e51b815260040161114e906158cb565b600054610100900460ff16158015614573576000805461ffff19166101011790555b60405163c72733f760e01b815273__$c4f279750f4bbb575ac7775e752dc00849$__9063c72733f7906145b8908c908c908c908b908d908c908c908c9060040161579d565b60006040518083038186803b1580156145d057600080fd5b505af41580156145e4573d6000803e3d6000fd5b505050506145f0614c96565b6145fa8484614d09565b614602614d88565b61460b8961316d565b60d480546001600160a01b03808b166001600160a01b03199283161790925560d38054928a169290911691909117905560d585905561465563031ba30961343d88620f4240614acd565b60d6558160cc6146658282615c8f565b90505060006146726121cf565b905061467d81613b35565b60cf805461ffff196001600160681b03909316600160781b02929092167fffffffff00000000000000000000000000ffffffffffffffffffffffffff000090921691909117600117905580156146d9576000805461ff00191690555b505050505050505050565b60cf546201000090046001600160681b03166001600160a01b038216156147305760cf80546cffffffffffffffffffffffffff60781b1916600160781b6001600160681b038416021790555b60cf805462010000600160781b031916905560d280546001600160a01b03191690556001600160a01b03821615611a9657604051636c6fe87f60e11b81526001600160a01b037f000000000000000000000000000000000000000000000000000000000000000016600482015260009073__$c4f279750f4bbb575ac7775e752dc00849$__9063d8dfd0fe9060240160206040518083038186803b1580156147d757600080fd5b505af41580156147eb573d6000803e3d6000fd5b505050506040513d601f19601f8201168201806040525081019061480f91906156d3565b9050336001600160a01b0316836001600160a01b03167f7e830f7c1771deb1bdb35c4a7e6051bbac32b376f7f4e4976b8618b0b11997f7836040516135a091815260200190565b835160009061ffff16158015906148715750845161ffff1684115b156148b357600061489086602001516001600160681b03168585614def565b60408701519091506148ab906001600160801b031682613fd9565b915050611406565b50505050604001516001600160801b031690565b33600090815260cb6020526040812080546001600160801b03620100008204169061ffff16816149295760405162461bcd60e51b815260206004820152600d60248201526c139bdd081a5b9a5d1a585d1959609a1b604482015260640161114e565b60cf5461ffff1681106149715760405162461bcd60e51b815260206004820152601060248201526f149bdd5b99081b9bdd0818db1bdcd95960821b604482015260640161114e565b33600090815260cb60205260409020805462010000600160901b031916905560d0546149ad90600160801b90046001600160801b03168361377d565b60d080546001600160801b03928316600160801b029216919091179055600081815260ca602052604081205460cc546149f091859160ff61010090910416613ad3565b604051633be3450960e11b81526001600160a01b037f0000000000000000000000000000000000000000000000000000000000000000811660048301527f000000000000000000000000000000000000000000000000000000000000000016602482015260448101829052909150614a8890339073__$09b2ed88edfa44a3a64aec022eed7f982f$__906377c68a129060640161293b565b604080518281526020810185905233917ff279e6a1f5e320cca91135676d9cb6e44ca8a08c0b88342bcdb1144f6511b568910160405180910390a26114063084614e52565b60006112c78284615b8a565b60006112c78284615a7f565b6000614b3a826040518060400160405280602081526020017f5361666545524332303a206c6f772d6c6576656c2063616c6c206661696c6564815250856001600160a01b0316614fa09092919063ffffffff16565b805190915015613fd45780806020019051810190614b589190615678565b613fd45760405162461bcd60e51b815260206004820152602a60248201527f5361666545524332303a204552433230206f7065726174696f6e20646964206e6044820152691bdd081cdd58d8d9595960b21b606482015260840161114e565b6001600160a01b038216614c0d5760405162461bcd60e51b815260206004820152601f60248201527f45524332303a206d696e7420746f20746865207a65726f206164647265737300604482015260640161114e565b8060996000828254614c1f9190615a67565b90915550506001600160a01b03821660009081526097602052604081208054839290614c4c908490615a67565b90915550506040518181526001600160a01b038316906000907fddf252ad1be2c89b69c2b068fc378daa952ba7f163c4a11628f55a4df523b3ef9060200160405180910390a35050565b600054610100900460ff1680614caf575060005460ff16155b614ccb5760405162461bcd60e51b815260040161114e906158cb565b600054610100900460ff16158015614ced576000805461ffff19166101011790555b614cf5614faf565b8015611b4f576000805461ff001916905550565b600054610100900460ff1680614d22575060005460ff16155b614d3e5760405162461bcd60e51b815260040161114e906158cb565b600054610100900460ff16158015614d60576000805461ffff19166101011790555b614d6861501e565b614d728383615088565b8015613fd4576000805461ff0019169055505050565b600054610100900460ff1680614da1575060005460ff16155b614dbd5760405162461bcd60e51b815260040161114e906158cb565b600054610100900460ff16158015614ddf576000805461ffff19166101011790555b614de761501e565b614cf561511d565b600060018311614e395760405162461bcd60e51b8152602060048201526015602482015274496e76616c6964206173736574506572536861726560581b604482015260640161114e565b6114068361343d614e4b85600a615ae2565b8790614acd565b6001600160a01b038216614eb25760405162461bcd60e51b815260206004820152602160248201527f45524332303a206275726e2066726f6d20746865207a65726f206164647265736044820152607360f81b606482015260840161114e565b6001600160a01b03821660009081526097602052604090205481811015614f265760405162461bcd60e51b815260206004820152602260248201527f45524332303a206275726e20616d6f756e7420657863656564732062616c616e604482015261636560f01b606482015260840161114e565b6001600160a01b0383166000908152609760205260408120838303905560998054849290614f55908490615ba9565b90915550506040518281526000906001600160a01b038516907fddf252ad1be2c89b69c2b068fc378daa952ba7f163c4a11628f55a4df523b3ef9060200160405180910390a3505050565b6060611406848460008561517d565b600054610100900460ff1680614fc8575060005460ff16155b614fe45760405162461bcd60e51b815260040161114e906158cb565b600054610100900460ff16158015615006576000805461ffff19166101011790555b600180558015611b4f576000805461ff001916905550565b600054610100900460ff1680615037575060005460ff16155b6150535760405162461bcd60e51b815260040161114e906158cb565b600054610100900460ff16158015614cf5576000805461ffff19166101011790558015611b4f576000805461ff001916905550565b600054610100900460ff16806150a1575060005460ff16155b6150bd5760405162461bcd60e51b815260040161114e906158cb565b600054610100900460ff161580156150df576000805461ffff19166101011790555b82516150f290609a9060208601906152de565b50815161510690609b9060208501906152de565b508015613fd4576000805461ff0019169055505050565b600054610100900460ff1680615136575060005460ff16155b6151525760405162461bcd60e51b815260040161114e906158cb565b600054610100900460ff16158015615174576000805461ffff19166101011790555b614cf533613f52565b6060824710156151de5760405162461bcd60e51b815260206004820152602660248201527f416464726573733a20696e73756666696369656e742062616c616e636520666f6044820152651c8818d85b1b60d21b606482015260840161114e565b843b61522c5760405162461bcd60e51b815260206004820152601d60248201527f416464726573733a2063616c6c20746f206e6f6e2d636f6e7472616374000000604482015260640161114e565b600080866001600160a01b031685876040516152489190615781565b60006040518083038185875af1925050503d8060008114615285576040519150601f19603f3d011682016040523d82523d6000602084013e61528a565b606091505b509150915061529a8282866152a5565b979650505050505050565b606083156152b45750816112c7565b8251156152c45782518084602001fd5b8160405162461bcd60e51b815260040161114e9190615897565b8280546152ea90615bec565b90600052602060002090601f01602090048101928261530c5760008555615352565b82601f1061532557805160ff1916838001178555615352565b82800160010185558215615352579182015b82811115615352578251825591602001919060010190615337565b5061535e929150615362565b5090565b5b8082111561535e5760008155600101615363565b803561538281615da0565b919050565b600082601f830112615397578081fd5b813567ffffffffffffffff808211156153b2576153b2615c52565b604051601f8301601f19908116603f011681019082821181831017156153da576153da615c52565b816040528381528660208588010111156153f2578485fd5b8360208701602083013792830160200193909352509392505050565b600060c0828403121561541f578081fd5b50919050565b803561538281615dc3565b803563ffffffff8116811461538257600080fd5b803561538281615dd8565b600060208284031215615460578081fd5b81356112c781615da0565b6000806040838503121561547d578081fd5b823561548881615da0565b9150602083013561549881615da0565b809150509250929050565b6000806000806000806000806000806000806102208d8f0312156154c5578788fd5b6154ce8d615377565b9b506154dc60208e01615377565b9a506154ea60408e01615377565b995060608d0135985060808d0135975067ffffffffffffffff60a08e01351115615512578687fd5b6155228e60a08f01358f01615387565b965067ffffffffffffffff60c08e0135111561553c578586fd5b61554c8e60c08f01358f01615387565b955061555a60e08e01615377565b94506155696101008e01615377565b93506155786101208e01615430565b92506101408d013591506155908e6101608f0161540e565b90509295989b509295989b509295989b565b6000806000606084860312156155b6578283fd5b83356155c181615da0565b925060208401356155d181615da0565b929592945050506040919091013590565b600080604083850312156155f4578182fd5b82356155ff81615da0565b9150602083013561549881615db5565b60008060408385031215615621578182fd5b823561562c81615da0565b946020939093013593505050565b6000806000806080858703121561564f578384fd5b845161565a81615da0565b60208601516040870151606090970151919890975090945092505050565b600060208284031215615689578081fd5b81516112c781615db5565b6000602082840312156156a5578081fd5b81356001600160801b03811681146112c7578182fd5b6000602082840312156156cc578081fd5b5035919050565b6000602082840312156156e4578081fd5b5051919050565b600080604083850312156156fd578182fd5b50508035926020909101359150565b60008060008060008060c08789031215615724578384fd5b865195506020870151945060408701519350606087015192506080870151915060a087015190509295509295509295565b6000815180845261576d816020860160208601615bc0565b601f01601f19169290920160200192915050565b60008251615793818460208701615bc0565b9190910192915050565b60006101a060018060a01b03808c168452808b166020850152808a1660408501528860608501528760808501528160a08501526157dc82850188615755565b915083820360c08501526157f08287615755565b9250843591506157ff82615db5565b90151560e084015260208401359061581682615ded565b60ff82166101008501526040850135915061583082615da0565b1661012083015261584360608401615377565b6001600160a01b031661014083015261585e60808401615444565b66ffffffffffffff1661016083015261587960a08401615425565b6001600160681b038116610180840152509998505050505050505050565b6020815260006112c76020830184615755565b60208082526007908201526610b5b2b2b832b960c91b604082015260600190565b6020808252602e908201527f496e697469616c697a61626c653a20636f6e747261637420697320616c72656160408201526d191e481a5b9a5d1a585b1a5e995960921b606082015260800190565b6020808252818101527f4f776e61626c653a2063616c6c6572206973206e6f7420746865206f776e6572604082015260600190565b6020808252601f908201527f5265656e7472616e637947756172643a207265656e7472616e742063616c6c00604082015260600190565b84516001600160a01b031681526020808601516101808301916159b2908401826001600160a01b03169052565b5060408601516159cd60408401826001600160a01b03169052565b506060860151606083015260808601516159ed608084018261ffff169052565b5060a086015160a083015260c0860151615a1260c08401826001600160a01b03169052565b5060e0860151615a2d60e08401826001600160a01b03169052565b506101008087015181840152508461012083015283610140830152615a5e6101608301846001600160a01b03169052565b95945050505050565b60008219821115615a7a57615a7a615c3c565b500190565b600082615a9a57634e487b7160e01b81526012600452602481fd5b500490565b600181815b80851115615ada578160001904821115615ac057615ac0615c3c565b80851615615acd57918102915b93841c9390800290615aa4565b509250929050565b60006112c78383600082615af85750600161121c565b81615b055750600061121c565b8160018114615b1b5760028114615b2557615b41565b600191505061121c565b60ff841115615b3657615b36615c3c565b50506001821b61121c565b5060208310610133831016604e8410600b8410161715615b64575081810a61121c565b615b6e8383615a9f565b8060001904821115615b8257615b82615c3c565b029392505050565b6000816000190483118215151615615ba457615ba4615c3c565b500290565b600082821015615bbb57615bbb615c3c565b500390565b60005b83811015615bdb578181015183820152602001615bc3565b838111156137775750506000910152565b600181811c90821680615c0057607f821691505b6020821081141561541f57634e487b7160e01b600052602260045260246000fd5b6000600019821415615c3557615c35615c3c565b5060010190565b634e487b7160e01b600052601160045260246000fd5b634e487b7160e01b600052604160045260246000fd5b6000813561121c81615da0565b6000813561121c81615dc3565b6000813561121c81615dd8565b8135615c9a81615db5565b815460ff19811691151560ff1691821783556020840135615cba81615ded565b61ff008160081b169050808361ffff198416171784556040850135615cde81615da0565b6001600160b01b0319929092169092179190911760109190911b62010000600160b01b031617815560018101615d36615d1960608501615c68565b82546001600160a01b0319166001600160a01b0391909116178255565b615d6f615d4560808501615c82565b82805466ffffffffffffff60a01b191660a09290921b66ffffffffffffff60a01b16919091179055565b50611a96615d7f60a08401615c75565b600283016001600160681b0382166001600160681b03198254161781555050565b6001600160a01b0381168114611b4f57600080fd5b8015158114611b4f57600080fd5b6001600160681b0381168114611b4f57600080fd5b66ffffffffffffff81168114611b4f57600080fd5b60ff81168114611b4f57600080fdfea2646970667358221220f10f9b0ff24402d0b81bf1d9f260204fdc8104fe5b3bd221c2fb79dfa56623bf64736f6c63430008040033",
  "libraries": {
    "VaultLifecycle": "0xE6342509ae61b63F015f268953FCA0dE71e61128",
    "VaultLifecycleSTETH": "0xa0025d92bEaEAB39495237A162590D200cDCdc82"
  },
  "devdoc": {
    "kind": "dev",
    "methods": {
      "accountVaultBalance(address)": {
        "params": {
          "account": "is the address to lookup balance for"
        },
        "returns": {
          "_0": "the amount of `asset` custodied by the vault for the user"
        }
      },
      "allowance(address,address)": {
        "details": "See {IERC20-allowance}."
      },
      "approve(address,uint256)": {
        "details": "See {IERC20-approve}. Requirements: - `spender` cannot be the zero address."
      },
      "balanceOf(address)": {
        "details": "See {IERC20-balanceOf}."
      },
      "constructor": {
        "params": {
          "_crvPool": "is the steth/eth crv stables pool",
          "_gammaController": "is the contract address for opyn actions",
          "_gnosisEasyAuction": "is the contract address that facilitates gnosis auctions",
          "_ldo": "is the LDO contract",
          "_marginPool": "is the contract address for providing collateral to opyn",
          "_oTokenFactory": "is the contract address for minting new opyn option types (strikes, asset, expiry)",
          "_usdc": "is the USDC contract",
          "_weth": "is the Wrapped Ether contract",
          "_wsteth": "is the LDO contract"
        }
      },
      "decreaseAllowance(address,uint256)": {
        "details": "Atomically decreases the allowance granted to `spender` by the caller. This is an alternative to {approve} that can be used as a mitigation for problems described in {IERC20-approve}. Emits an {Approval} event indicating the updated allowance. Requirements: - `spender` cannot be the zero address. - `spender` must have allowance for the caller of at least `subtractedValue`."
      },
      "depositFor(address)": {
        "params": {
          "creditor": "is the address that can claim/withdraw deposited amount"
        }
      },
      "depositYieldToken(uint256)": {
        "params": {
          "amount": "is the amount of `collateralAsset` to deposit"
        }
      },
      "increaseAllowance(address,uint256)": {
        "details": "Atomically increases the allowance granted to `spender` by the caller. This is an alternative to {approve} that can be used as a mitigation for problems described in {IERC20-approve}. Emits an {Approval} event indicating the updated allowance. Requirements: - `spender` cannot be the zero address."
      },
      "initialize(address,address,address,uint256,uint256,string,string,address,address,uint32,uint256,(bool,uint8,address,address,uint56,uint104))": {
        "params": {
          "_auctionDuration": "is the duration of the gnosis auction",
          "_feeRecipient": "is the address to recieve vault performance and management fees",
          "_keeper": "is the keeper of the vault with medium permissions (weekly actions)",
          "_managementFee": "is the management fee pct.",
          "_optionsPremiumPricer": "is the address of the contract with the black-scholes premium calculation logic",
          "_owner": "is the owner of the vault with critical permissions",
          "_performanceFee": "is the perfomance fee pct.",
          "_premiumDiscount": "is the vault's discount applied to the premium",
          "_strikeSelection": "is the address of the contract with strike selection logic",
          "_tokenName": "is the name of the token",
          "_tokenSymbol": "is the symbol of the token",
          "_vaultParams": "is the struct with vault general data"
        }
      },
      "initiateWithdraw(uint256)": {
        "params": {
          "numShares": "is the number of shares to withdraw"
        }
      },
      "name()": {
        "details": "Returns the name of the token."
      },
      "owner()": {
        "details": "Returns the address of the current owner."
      },
      "redeem(uint256)": {
        "params": {
          "numShares": "is the number of shares to redeem"
        }
      },
      "renounceOwnership()": {
        "details": "Leaves the contract without owner. It will not be possible to call `onlyOwner` functions anymore. Can only be called by the current owner. NOTE: Renouncing ownership will leave the contract without an owner, thereby removing any functionality that is only available to the owner."
      },
      "setAuctionDuration(uint256)": {
        "params": {
          "newAuctionDuration": "is the auction duration"
        }
      },
      "setCap(uint256)": {
        "params": {
          "newCap": "is the new cap for deposits"
        }
      },
      "setFeeRecipient(address)": {
        "params": {
          "newFeeRecipient": "is the address of the new fee recipient"
        }
      },
      "setLiquidityGauge(address)": {
        "params": {
          "newLiquidityGauge": "is the address of the new liquidityGauge contract"
        }
      },
      "setManagementFee(uint256)": {
        "params": {
          "newManagementFee": "is the management fee (6 decimals). ex: 2 * 10 ** 6 = 2%"
        }
      },
      "setNewKeeper(address)": {
        "params": {
          "newKeeper": "is the address of the new keeper"
        }
      },
      "setPerformanceFee(uint256)": {
        "params": {
          "newPerformanceFee": "is the performance fee (6 decimals). ex: 20 * 10 ** 6 = 20%"
        }
      },
      "setPremiumDiscount(uint256)": {
        "params": {
          "newPremiumDiscount": "is the premium discount"
        }
      },
      "setStrikePrice(uint128)": {
        "params": {
          "strikePrice": "is the strike price of the new oTokens (decimals = 8)"
        }
      },
      "setStrikeSelectionOrPricer(address,bool)": {
        "params": {
          "isStrikeSelection": "is whether we are setting the strike selection contract",
          "newContract": "is the address of the new strike selection or options premium pricer contract"
        }
      },
      "shareBalances(address)": {
        "params": {
          "account": "is the account to lookup share balance for"
        },
        "returns": {
          "heldByAccount": "is the shares held by account",
          "heldByVault": "is the shares held on the vault (unredeemedShares)"
        }
      },
      "shares(address)": {
        "params": {
          "account": "is the account to lookup share balance for"
        },
        "returns": {
          "_0": "the share balance"
        }
      },
      "stake(uint256)": {
        "params": {
          "numShares": "is the number of shares to stake"
        }
      },
      "symbol()": {
        "details": "Returns the symbol of the token, usually a shorter version of the name."
      },
      "totalBalance()": {
        "returns": {
          "_0": "total balance of the vault, including the amounts locked in third party protocols"
        }
      },
      "totalSupply()": {
        "details": "See {IERC20-totalSupply}."
      },
      "transfer(address,uint256)": {
        "details": "See {IERC20-transfer}. Requirements: - `recipient` cannot be the zero address. - the caller must have a balance of at least `amount`."
      },
      "transferFrom(address,address,uint256)": {
        "details": "See {IERC20-transferFrom}. Emits an {Approval} event indicating the updated allowance. This is not required by the EIP. See the note at the beginning of {ERC20}. Requirements: - `sender` and `recipient` cannot be the zero address. - `sender` must have a balance of at least `amount`. - the caller must have allowance for ``sender``'s tokens of at least `amount`."
      },
      "transferOwnership(address)": {
        "details": "Transfers ownership of the contract to a new account (`newOwner`). Can only be called by the current owner."
      },
      "withdrawInstantly(uint256,uint256)": {
        "params": {
          "amount": "is the amount to withdraw in `asset`"
        }
      }
    },
    "version": 1
  },
  "userdoc": {
    "kind": "user",
    "methods": {
      "DELAY()": {
        "notice": "15 minute timelock between commitAndClose and rollToNexOption."
      },
      "LDO()": {
        "notice": "Lido DAO token 0x5a98fcbea516cf06857215779fd812ca3bef1b32"
      },
      "OTOKEN_FACTORY()": {
        "notice": "is the factory contract used to spawn otokens. Used to lookup otokens."
      },
      "PERIOD()": {
        "notice": "7 day period between each options sale."
      },
      "STETH()": {
        "notice": "STETH contract address"
      },
      "USDC()": {
        "notice": "USDC 0xA0b86991c6218b36c1d19D4a2e9Eb0cE3606eB48"
      },
      "WETH()": {
        "notice": "WETH9 0xC02aaA39b223FE8D0A0e5C4F27eAD9083C756Cc2"
      },
      "accountVaultBalance(address)": {
        "notice": "Returns the asset balance held on the vault for the account"
      },
      "burnRemainingOTokens()": {
        "notice": "Burn the remaining oTokens left over from gnosis auction."
      },
      "collateralToken()": {
        "notice": "wstETH vault contract"
      },
      "commitAndClose()": {
        "notice": "Sets the next option the vault will be shorting, and closes the existing short.         This allows all the users to withdraw if the next option is malicious."
      },
      "completeWithdraw()": {
        "notice": "Completes a scheduled withdrawal from a past round. Uses finalized pps for the round"
      },
      "constructor": {
        "notice": "Initializes the contract with immutable variables"
      },
      "decimals()": {
        "notice": "Returns the token decimals"
      },
      "depositETH()": {
        "notice": "Deposits ETH into the contract and mint vault shares."
      },
      "depositFor(address)": {
        "notice": "Deposits the `asset` from msg.sender added to `creditor`'s deposit.Used for vault -> vault deposits on the user's behalf"
      },
      "depositReceipts(address)": {
        "notice": "Stores the user's pending deposit for the round"
      },
      "depositYieldToken(uint256)": {
        "notice": "Deposits the `collateralAsset` into the contract and mint vault shares."
      },
      "feeRecipient()": {
        "notice": "Fee recipient for the performance and management fees"
      },
      "initialize(address,address,address,uint256,uint256,string,string,address,address,uint32,uint256,(bool,uint8,address,address,uint56,uint104))": {
        "notice": "Initializes the OptionVault contract with storage variables."
      },
      "initiateWithdraw(uint256)": {
        "notice": "Initiates a withdrawal that can be processed once the round completes"
      },
      "keeper()": {
        "notice": "role in charge of weekly vault operations such as rollToNextOption and burnRemainingOTokens"
      },
      "managementFee()": {
        "notice": "Management fee charged on entire AUM in rollToNextOption. Only charged when there is no loss."
      },
      "maxRedeem()": {
        "notice": "Redeems the entire unredeemedShares balance that is owed to the account"
      },
      "optionState()": {
        "notice": "Vault's state of the options sold and the timelocked option"
      },
      "performanceFee()": {
        "notice": "Performance fee charged on premiums earned in rollToNextOption. Only charged when there is no loss."
      },
      "pricePerShare()": {
        "notice": "The price of a unit of share denominated in the `asset`"
      },
      "redeem(uint256)": {
        "notice": "Redeems shares that are owed to the account"
      },
      "rollToNextOption()": {
        "notice": "Rolls the vault's funds into a new short position."
      },
      "roundPricePerShare(uint256)": {
        "notice": "On every round's close, the pricePerShare value of an rTHETA token is stored This is used to determine the number of shares to be returned to a user with their DepositReceipt.depositAmount"
      },
      "setAuctionDuration(uint256)": {
        "notice": "Sets the new auction duration"
      },
      "setCap(uint256)": {
        "notice": "Sets a new cap for deposits"
      },
      "setFeeRecipient(address)": {
        "notice": "Sets the new fee recipient"
      },
      "setLiquidityGauge(address)": {
        "notice": "Sets the new liquidityGauge contract for this vault"
      },
      "setManagementFee(uint256)": {
        "notice": "Sets the management fee for the vault"
      },
      "setNewKeeper(address)": {
        "notice": "Sets the new keeper"
      },
      "setPerformanceFee(uint256)": {
        "notice": "Sets the performance fee for the vault"
      },
      "setPremiumDiscount(uint256)": {
        "notice": "Sets the new discount on premiums for options we are selling"
      },
      "setStrikePrice(uint128)": {
        "notice": "Optionality to set strike price manually"
      },
      "setStrikeSelectionOrPricer(address,bool)": {
        "notice": "Sets the new strike selection or options premium pricer contract"
      },
      "shareBalances(address)": {
        "notice": "Getter for returning the account's share balance split between account and vault holdings"
      },
      "shares(address)": {
        "notice": "Getter for returning the account's share balance including unredeemed shares"
      },
      "stake(uint256)": {
        "notice": "Stakes a users vault shares"
      },
      "startAuction()": {
        "notice": "Initiate the gnosis auction."
      },
      "totalBalance()": {
        "notice": "Returns the vault's total balance, including the amounts locked into a short position"
      },
      "vaultParams()": {
        "notice": "Vault's parameters like cap, decimals"
      },
      "vaultState()": {
        "notice": "Vault's lifecycle state like round and locked amounts"
      },
      "withdrawInstantly(uint256,uint256)": {
        "notice": "Withdraws the assets on the vault using the outstanding `DepositReceipt.amount`"
      },
      "withdrawals(address)": {
        "notice": "Stores pending user withdrawals"
      }
    },
    "notice": "UPGRADEABILITY: Since we use the upgradeable proxy pattern, we must observe the inheritance chain closely. Any changes/appends in storage variable needs to happen in RibbonThetaSTETHVaultStorage. RibbonThetaSTETHVault should not inherit from any other contract aside from RibbonVault, RibbonThetaSTETHVaultStorage",
    "version": 1
  },
  "storageLayout": {
    "storage": [
      {
        "astId": 176,
        "contract": "contracts/vaults/STETHVault/RibbonThetaSTETHVault.sol:RibbonThetaSTETHVault",
        "label": "_initialized",
        "offset": 0,
        "slot": "0",
        "type": "t_bool"
      },
      {
        "astId": 179,
        "contract": "contracts/vaults/STETHVault/RibbonThetaSTETHVault.sol:RibbonThetaSTETHVault",
        "label": "_initializing",
        "offset": 1,
        "slot": "0",
        "type": "t_bool"
      },
      {
        "astId": 230,
        "contract": "contracts/vaults/STETHVault/RibbonThetaSTETHVault.sol:RibbonThetaSTETHVault",
        "label": "_status",
        "offset": 0,
        "slot": "1",
        "type": "t_uint256"
      },
      {
        "astId": 273,
        "contract": "contracts/vaults/STETHVault/RibbonThetaSTETHVault.sol:RibbonThetaSTETHVault",
        "label": "__gap",
        "offset": 0,
        "slot": "2",
        "type": "t_array(t_uint256)49_storage"
      },
      {
        "astId": 993,
        "contract": "contracts/vaults/STETHVault/RibbonThetaSTETHVault.sol:RibbonThetaSTETHVault",
        "label": "__gap",
        "offset": 0,
        "slot": "51",
        "type": "t_array(t_uint256)50_storage"
      },
      {
        "astId": 56,
        "contract": "contracts/vaults/STETHVault/RibbonThetaSTETHVault.sol:RibbonThetaSTETHVault",
        "label": "_owner",
        "offset": 0,
        "slot": "101",
        "type": "t_address"
      },
      {
        "astId": 169,
        "contract": "contracts/vaults/STETHVault/RibbonThetaSTETHVault.sol:RibbonThetaSTETHVault",
        "label": "__gap",
        "offset": 0,
        "slot": "102",
        "type": "t_array(t_uint256)49_storage"
      },
      {
        "astId": 293,
        "contract": "contracts/vaults/STETHVault/RibbonThetaSTETHVault.sol:RibbonThetaSTETHVault",
        "label": "_balances",
        "offset": 0,
        "slot": "151",
        "type": "t_mapping(t_address,t_uint256)"
      },
      {
        "astId": 299,
        "contract": "contracts/vaults/STETHVault/RibbonThetaSTETHVault.sol:RibbonThetaSTETHVault",
        "label": "_allowances",
        "offset": 0,
        "slot": "152",
        "type": "t_mapping(t_address,t_mapping(t_address,t_uint256))"
      },
      {
        "astId": 301,
        "contract": "contracts/vaults/STETHVault/RibbonThetaSTETHVault.sol:RibbonThetaSTETHVault",
        "label": "_totalSupply",
        "offset": 0,
        "slot": "153",
        "type": "t_uint256"
      },
      {
        "astId": 303,
        "contract": "contracts/vaults/STETHVault/RibbonThetaSTETHVault.sol:RibbonThetaSTETHVault",
        "label": "_name",
        "offset": 0,
        "slot": "154",
        "type": "t_string_storage"
      },
      {
        "astId": 305,
        "contract": "contracts/vaults/STETHVault/RibbonThetaSTETHVault.sol:RibbonThetaSTETHVault",
        "label": "_symbol",
        "offset": 0,
        "slot": "155",
        "type": "t_string_storage"
      },
      {
        "astId": 846,
        "contract": "contracts/vaults/STETHVault/RibbonThetaSTETHVault.sol:RibbonThetaSTETHVault",
        "label": "__gap",
        "offset": 0,
        "slot": "156",
        "type": "t_array(t_uint256)45_storage"
      },
      {
        "astId": 22375,
        "contract": "contracts/vaults/STETHVault/RibbonThetaSTETHVault.sol:RibbonThetaSTETHVault",
        "label": "depositReceipts",
        "offset": 0,
        "slot": "201",
        "type": "t_mapping(t_address,t_struct(DepositReceipt)6510_storage)"
      },
      {
        "astId": 22380,
        "contract": "contracts/vaults/STETHVault/RibbonThetaSTETHVault.sol:RibbonThetaSTETHVault",
        "label": "roundPricePerShare",
        "offset": 0,
        "slot": "202",
        "type": "t_mapping(t_uint256,t_uint256)"
      },
      {
        "astId": 22386,
        "contract": "contracts/vaults/STETHVault/RibbonThetaSTETHVault.sol:RibbonThetaSTETHVault",
        "label": "withdrawals",
        "offset": 0,
        "slot": "203",
        "type": "t_mapping(t_address,t_struct(Withdrawal)6515_storage)"
      },
      {
        "astId": 22390,
        "contract": "contracts/vaults/STETHVault/RibbonThetaSTETHVault.sol:RibbonThetaSTETHVault",
        "label": "vaultParams",
        "offset": 0,
        "slot": "204",
        "type": "t_struct(VaultParams)6485_storage"
      },
      {
        "astId": 22394,
        "contract": "contracts/vaults/STETHVault/RibbonThetaSTETHVault.sol:RibbonThetaSTETHVault",
        "label": "vaultState",
        "offset": 0,
        "slot": "207",
        "type": "t_struct(VaultState)6503_storage"
      },
      {
        "astId": 22398,
        "contract": "contracts/vaults/STETHVault/RibbonThetaSTETHVault.sol:RibbonThetaSTETHVault",
        "label": "optionState",
        "offset": 0,
        "slot": "209",
        "type": "t_struct(OptionState)6492_storage"
      },
      {
        "astId": 22401,
        "contract": "contracts/vaults/STETHVault/RibbonThetaSTETHVault.sol:RibbonThetaSTETHVault",
        "label": "feeRecipient",
        "offset": 0,
        "slot": "211",
        "type": "t_address"
      },
      {
        "astId": 22404,
        "contract": "contracts/vaults/STETHVault/RibbonThetaSTETHVault.sol:RibbonThetaSTETHVault",
        "label": "keeper",
        "offset": 0,
        "slot": "212",
        "type": "t_address"
      },
      {
        "astId": 22407,
        "contract": "contracts/vaults/STETHVault/RibbonThetaSTETHVault.sol:RibbonThetaSTETHVault",
        "label": "performanceFee",
        "offset": 0,
        "slot": "213",
        "type": "t_uint256"
      },
      {
        "astId": 22410,
        "contract": "contracts/vaults/STETHVault/RibbonThetaSTETHVault.sol:RibbonThetaSTETHVault",
        "label": "managementFee",
        "offset": 0,
        "slot": "214",
        "type": "t_uint256"
      },
      {
        "astId": 22418,
        "contract": "contracts/vaults/STETHVault/RibbonThetaSTETHVault.sol:RibbonThetaSTETHVault",
        "label": "____gap",
        "offset": 0,
        "slot": "215",
        "type": "t_array(t_uint256)30_storage"
      },
      {
        "astId": 12438,
        "contract": "contracts/vaults/STETHVault/RibbonThetaSTETHVault.sol:RibbonThetaSTETHVault",
        "label": "optionsPremiumPricer",
        "offset": 0,
        "slot": "245",
        "type": "t_address"
      },
      {
        "astId": 12440,
        "contract": "contracts/vaults/STETHVault/RibbonThetaSTETHVault.sol:RibbonThetaSTETHVault",
        "label": "strikeSelection",
        "offset": 0,
        "slot": "246",
        "type": "t_address"
      },
      {
        "astId": 12442,
        "contract": "contracts/vaults/STETHVault/RibbonThetaSTETHVault.sol:RibbonThetaSTETHVault",
        "label": "premiumDiscount",
        "offset": 0,
        "slot": "247",
        "type": "t_uint256"
      },
      {
        "astId": 12444,
        "contract": "contracts/vaults/STETHVault/RibbonThetaSTETHVault.sol:RibbonThetaSTETHVault",
        "label": "currentOtokenPremium",
        "offset": 0,
        "slot": "248",
        "type": "t_uint256"
      },
      {
        "astId": 12446,
        "contract": "contracts/vaults/STETHVault/RibbonThetaSTETHVault.sol:RibbonThetaSTETHVault",
        "label": "lastStrikeOverrideRound",
        "offset": 0,
        "slot": "249",
        "type": "t_uint16"
      },
      {
        "astId": 12448,
        "contract": "contracts/vaults/STETHVault/RibbonThetaSTETHVault.sol:RibbonThetaSTETHVault",
        "label": "overriddenStrikePrice",
        "offset": 0,
        "slot": "250",
        "type": "t_uint256"
      },
      {
        "astId": 12450,
        "contract": "contracts/vaults/STETHVault/RibbonThetaSTETHVault.sol:RibbonThetaSTETHVault",
        "label": "auctionDuration",
        "offset": 0,
        "slot": "251",
        "type": "t_uint256"
      },
      {
        "astId": 12452,
        "contract": "contracts/vaults/STETHVault/RibbonThetaSTETHVault.sol:RibbonThetaSTETHVault",
        "label": "optionAuctionID",
        "offset": 0,
        "slot": "252",
        "type": "t_uint256"
      },
      {
        "astId": 12455,
        "contract": "contracts/vaults/STETHVault/RibbonThetaSTETHVault.sol:RibbonThetaSTETHVault",
        "label": "lastQueuedWithdrawAmount",
        "offset": 0,
        "slot": "253",
        "type": "t_uint256"
      },
      {
        "astId": 12458,
        "contract": "contracts/vaults/STETHVault/RibbonThetaSTETHVault.sol:RibbonThetaSTETHVault",
        "label": "liquidityGauge",
        "offset": 0,
        "slot": "254",
        "type": "t_address"
      }
    ],
    "types": {
      "t_address": {
        "encoding": "inplace",
        "label": "address",
        "numberOfBytes": "20"
      },
      "t_array(t_uint256)30_storage": {
        "base": "t_uint256",
        "encoding": "inplace",
        "label": "uint256[30]",
        "numberOfBytes": "960"
      },
      "t_array(t_uint256)45_storage": {
        "base": "t_uint256",
        "encoding": "inplace",
        "label": "uint256[45]",
        "numberOfBytes": "1440"
      },
      "t_array(t_uint256)49_storage": {
        "base": "t_uint256",
        "encoding": "inplace",
        "label": "uint256[49]",
        "numberOfBytes": "1568"
      },
      "t_array(t_uint256)50_storage": {
        "base": "t_uint256",
        "encoding": "inplace",
        "label": "uint256[50]",
        "numberOfBytes": "1600"
      },
      "t_bool": {
        "encoding": "inplace",
        "label": "bool",
        "numberOfBytes": "1"
      },
      "t_mapping(t_address,t_mapping(t_address,t_uint256))": {
        "encoding": "mapping",
        "key": "t_address",
        "label": "mapping(address => mapping(address => uint256))",
        "numberOfBytes": "32",
        "value": "t_mapping(t_address,t_uint256)"
      },
      "t_mapping(t_address,t_struct(DepositReceipt)6510_storage)": {
        "encoding": "mapping",
        "key": "t_address",
        "label": "mapping(address => struct Vault.DepositReceipt)",
        "numberOfBytes": "32",
        "value": "t_struct(DepositReceipt)6510_storage"
      },
      "t_mapping(t_address,t_struct(Withdrawal)6515_storage)": {
        "encoding": "mapping",
        "key": "t_address",
        "label": "mapping(address => struct Vault.Withdrawal)",
        "numberOfBytes": "32",
        "value": "t_struct(Withdrawal)6515_storage"
      },
      "t_mapping(t_address,t_uint256)": {
        "encoding": "mapping",
        "key": "t_address",
        "label": "mapping(address => uint256)",
        "numberOfBytes": "32",
        "value": "t_uint256"
      },
      "t_mapping(t_uint256,t_uint256)": {
        "encoding": "mapping",
        "key": "t_uint256",
        "label": "mapping(uint256 => uint256)",
        "numberOfBytes": "32",
        "value": "t_uint256"
      },
      "t_string_storage": {
        "encoding": "bytes",
        "label": "string",
        "numberOfBytes": "32"
      },
      "t_struct(DepositReceipt)6510_storage": {
        "encoding": "inplace",
        "label": "struct Vault.DepositReceipt",
        "members": [
          {
            "astId": 6505,
            "contract": "contracts/vaults/STETHVault/RibbonThetaSTETHVault.sol:RibbonThetaSTETHVault",
            "label": "round",
            "offset": 0,
            "slot": "0",
            "type": "t_uint16"
          },
          {
            "astId": 6507,
            "contract": "contracts/vaults/STETHVault/RibbonThetaSTETHVault.sol:RibbonThetaSTETHVault",
            "label": "amount",
            "offset": 2,
            "slot": "0",
            "type": "t_uint104"
          },
          {
            "astId": 6509,
            "contract": "contracts/vaults/STETHVault/RibbonThetaSTETHVault.sol:RibbonThetaSTETHVault",
            "label": "unredeemedShares",
            "offset": 15,
            "slot": "0",
            "type": "t_uint128"
          }
        ],
        "numberOfBytes": "32"
      },
      "t_struct(OptionState)6492_storage": {
        "encoding": "inplace",
        "label": "struct Vault.OptionState",
        "members": [
          {
            "astId": 6487,
            "contract": "contracts/vaults/STETHVault/RibbonThetaSTETHVault.sol:RibbonThetaSTETHVault",
            "label": "nextOption",
            "offset": 0,
            "slot": "0",
            "type": "t_address"
          },
          {
            "astId": 6489,
            "contract": "contracts/vaults/STETHVault/RibbonThetaSTETHVault.sol:RibbonThetaSTETHVault",
            "label": "currentOption",
            "offset": 0,
            "slot": "1",
            "type": "t_address"
          },
          {
            "astId": 6491,
            "contract": "contracts/vaults/STETHVault/RibbonThetaSTETHVault.sol:RibbonThetaSTETHVault",
            "label": "nextOptionReadyAt",
            "offset": 20,
            "slot": "1",
            "type": "t_uint32"
          }
        ],
        "numberOfBytes": "64"
      },
      "t_struct(VaultParams)6485_storage": {
        "encoding": "inplace",
        "label": "struct Vault.VaultParams",
        "members": [
          {
            "astId": 6474,
            "contract": "contracts/vaults/STETHVault/RibbonThetaSTETHVault.sol:RibbonThetaSTETHVault",
            "label": "isPut",
            "offset": 0,
            "slot": "0",
            "type": "t_bool"
          },
          {
            "astId": 6476,
            "contract": "contracts/vaults/STETHVault/RibbonThetaSTETHVault.sol:RibbonThetaSTETHVault",
            "label": "decimals",
            "offset": 1,
            "slot": "0",
            "type": "t_uint8"
          },
          {
            "astId": 6478,
            "contract": "contracts/vaults/STETHVault/RibbonThetaSTETHVault.sol:RibbonThetaSTETHVault",
            "label": "asset",
            "offset": 2,
            "slot": "0",
            "type": "t_address"
          },
          {
            "astId": 6480,
            "contract": "contracts/vaults/STETHVault/RibbonThetaSTETHVault.sol:RibbonThetaSTETHVault",
            "label": "underlying",
            "offset": 0,
            "slot": "1",
            "type": "t_address"
          },
          {
            "astId": 6482,
            "contract": "contracts/vaults/STETHVault/RibbonThetaSTETHVault.sol:RibbonThetaSTETHVault",
            "label": "minimumSupply",
            "offset": 20,
            "slot": "1",
            "type": "t_uint56"
          },
          {
            "astId": 6484,
            "contract": "contracts/vaults/STETHVault/RibbonThetaSTETHVault.sol:RibbonThetaSTETHVault",
            "label": "cap",
            "offset": 0,
            "slot": "2",
            "type": "t_uint104"
          }
        ],
        "numberOfBytes": "96"
      },
      "t_struct(VaultState)6503_storage": {
        "encoding": "inplace",
        "label": "struct Vault.VaultState",
        "members": [
          {
            "astId": 6494,
            "contract": "contracts/vaults/STETHVault/RibbonThetaSTETHVault.sol:RibbonThetaSTETHVault",
            "label": "round",
            "offset": 0,
            "slot": "0",
            "type": "t_uint16"
          },
          {
            "astId": 6496,
            "contract": "contracts/vaults/STETHVault/RibbonThetaSTETHVault.sol:RibbonThetaSTETHVault",
            "label": "lockedAmount",
            "offset": 2,
            "slot": "0",
            "type": "t_uint104"
          },
          {
            "astId": 6498,
            "contract": "contracts/vaults/STETHVault/RibbonThetaSTETHVault.sol:RibbonThetaSTETHVault",
            "label": "lastLockedAmount",
            "offset": 15,
            "slot": "0",
            "type": "t_uint104"
          },
          {
            "astId": 6500,
            "contract": "contracts/vaults/STETHVault/RibbonThetaSTETHVault.sol:RibbonThetaSTETHVault",
            "label": "totalPending",
            "offset": 0,
            "slot": "1",
            "type": "t_uint128"
          },
          {
            "astId": 6502,
            "contract": "contracts/vaults/STETHVault/RibbonThetaSTETHVault.sol:RibbonThetaSTETHVault",
            "label": "queuedWithdrawShares",
            "offset": 16,
            "slot": "1",
            "type": "t_uint128"
          }
        ],
        "numberOfBytes": "64"
      },
      "t_struct(Withdrawal)6515_storage": {
        "encoding": "inplace",
        "label": "struct Vault.Withdrawal",
        "members": [
          {
            "astId": 6512,
            "contract": "contracts/vaults/STETHVault/RibbonThetaSTETHVault.sol:RibbonThetaSTETHVault",
            "label": "round",
            "offset": 0,
            "slot": "0",
            "type": "t_uint16"
          },
          {
            "astId": 6514,
            "contract": "contracts/vaults/STETHVault/RibbonThetaSTETHVault.sol:RibbonThetaSTETHVault",
            "label": "shares",
            "offset": 2,
            "slot": "0",
            "type": "t_uint128"
          }
        ],
        "numberOfBytes": "32"
      },
      "t_uint104": {
        "encoding": "inplace",
        "label": "uint104",
        "numberOfBytes": "13"
      },
      "t_uint128": {
        "encoding": "inplace",
        "label": "uint128",
        "numberOfBytes": "16"
      },
      "t_uint16": {
        "encoding": "inplace",
        "label": "uint16",
        "numberOfBytes": "2"
      },
      "t_uint256": {
        "encoding": "inplace",
        "label": "uint256",
        "numberOfBytes": "32"
      },
      "t_uint32": {
        "encoding": "inplace",
        "label": "uint32",
        "numberOfBytes": "4"
      },
      "t_uint56": {
        "encoding": "inplace",
        "label": "uint56",
        "numberOfBytes": "7"
      },
      "t_uint8": {
        "encoding": "inplace",
        "label": "uint8",
        "numberOfBytes": "1"
      }
    }
  }
}