{
  "address": "0x0FF7C2D2a935d31D354bF7ea7FDaD39DE0141a5A",
  "abi": [
    {
      "inputs": [
        {
          "internalType": "address",
          "name": "_weth",
          "type": "address"
        },
        {
          "internalType": "address",
          "name": "_usdc",
          "type": "address"
        },
        {
          "internalType": "address",
          "name": "_oTokenFactory",
          "type": "address"
        },
        {
          "internalType": "address",
          "name": "_gammaController",
          "type": "address"
        },
        {
          "internalType": "address",
          "name": "_marginPool",
          "type": "address"
        },
        {
          "internalType": "address",
          "name": "_gnosisEasyAuction",
          "type": "address"
        }
      ],
      "stateMutability": "nonpayable",
      "type": "constructor"
    },
    {
      "anonymous": false,
      "inputs": [
        {
          "indexed": true,
          "internalType": "address",
          "name": "owner",
          "type": "address"
        },
        {
          "indexed": true,
          "internalType": "address",
          "name": "spender",
          "type": "address"
        },
        {
          "indexed": false,
          "internalType": "uint256",
          "name": "value",
          "type": "uint256"
        }
      ],
      "name": "Approval",
      "type": "event"
    },
    {
      "anonymous": false,
      "inputs": [
        {
          "indexed": false,
          "internalType": "uint256",
          "name": "auctionDuration",
          "type": "uint256"
        },
        {
          "indexed": false,
          "internalType": "uint256",
          "name": "newAuctionDuration",
          "type": "uint256"
        }
      ],
      "name": "AuctionDurationSet",
      "type": "event"
    },
    {
      "anonymous": false,
      "inputs": [
        {
          "indexed": false,
          "internalType": "uint256",
          "name": "oldCap",
          "type": "uint256"
        },
        {
          "indexed": false,
          "internalType": "uint256",
          "name": "newCap",
          "type": "uint256"
        }
      ],
      "name": "CapSet",
      "type": "event"
    },
    {
      "anonymous": false,
      "inputs": [
        {
          "indexed": true,
          "internalType": "address",
          "name": "options",
          "type": "address"
        },
        {
          "indexed": false,
          "internalType": "uint256",
          "name": "withdrawAmount",
          "type": "uint256"
        },
        {
          "indexed": true,
          "internalType": "address",
          "name": "manager",
          "type": "address"
        }
      ],
      "name": "CloseShort",
      "type": "event"
    },
    {
      "anonymous": false,
      "inputs": [
        {
          "indexed": false,
          "internalType": "uint256",
          "name": "performanceFee",
          "type": "uint256"
        },
        {
          "indexed": false,
          "internalType": "uint256",
          "name": "vaultFee",
          "type": "uint256"
        },
        {
          "indexed": false,
          "internalType": "uint256",
          "name": "round",
          "type": "uint256"
        },
        {
          "indexed": true,
          "internalType": "address",
          "name": "feeRecipient",
          "type": "address"
        }
      ],
      "name": "CollectVaultFees",
      "type": "event"
    },
    {
      "anonymous": false,
      "inputs": [
        {
          "indexed": true,
          "internalType": "address",
          "name": "account",
          "type": "address"
        },
        {
          "indexed": false,
          "internalType": "uint256",
          "name": "amount",
          "type": "uint256"
        },
        {
          "indexed": false,
          "internalType": "uint256",
          "name": "round",
          "type": "uint256"
        }
      ],
      "name": "Deposit",
      "type": "event"
    },
    {
      "anonymous": false,
      "inputs": [
        {
          "indexed": true,
          "internalType": "address",
          "name": "auctioningToken",
          "type": "address"
        },
        {
          "indexed": true,
          "internalType": "address",
          "name": "biddingToken",
          "type": "address"
        },
        {
          "indexed": false,
          "internalType": "uint256",
          "name": "auctionCounter",
          "type": "uint256"
        },
        {
          "indexed": true,
          "internalType": "address",
          "name": "manager",
          "type": "address"
        }
      ],
      "name": "InitiateGnosisAuction",
      "type": "event"
    },
    {
      "anonymous": false,
      "inputs": [
        {
          "indexed": true,
          "internalType": "address",
          "name": "account",
          "type": "address"
        },
        {
          "indexed": false,
          "internalType": "uint256",
          "name": "shares",
          "type": "uint256"
        },
        {
          "indexed": false,
          "internalType": "uint256",
          "name": "round",
          "type": "uint256"
        }
      ],
      "name": "InitiateWithdraw",
      "type": "event"
    },
    {
      "anonymous": false,
      "inputs": [
        {
          "indexed": true,
          "internalType": "address",
          "name": "account",
          "type": "address"
        },
        {
          "indexed": false,
          "internalType": "uint256",
          "name": "amount",
          "type": "uint256"
        },
        {
          "indexed": false,
          "internalType": "uint256",
          "name": "round",
          "type": "uint256"
        }
      ],
      "name": "InstantWithdraw",
      "type": "event"
    },
    {
      "anonymous": false,
      "inputs": [
        {
          "indexed": false,
          "internalType": "uint256",
          "name": "managementFee",
          "type": "uint256"
        },
        {
          "indexed": false,
          "internalType": "uint256",
          "name": "newManagementFee",
          "type": "uint256"
        }
      ],
      "name": "ManagementFeeSet",
      "type": "event"
    },
    {
      "anonymous": false,
      "inputs": [
        {
          "indexed": false,
          "internalType": "uint256",
          "name": "strikePrice",
          "type": "uint256"
        },
        {
          "indexed": false,
          "internalType": "uint256",
          "name": "delta",
          "type": "uint256"
        }
      ],
      "name": "NewOptionStrikeSelected",
      "type": "event"
    },
    {
      "anonymous": false,
      "inputs": [
        {
          "indexed": true,
          "internalType": "address",
          "name": "options",
          "type": "address"
        },
        {
          "indexed": false,
          "internalType": "uint256",
          "name": "depositAmount",
          "type": "uint256"
        },
        {
          "indexed": true,
          "internalType": "address",
          "name": "manager",
          "type": "address"
        }
      ],
      "name": "OpenShort",
      "type": "event"
    },
    {
      "anonymous": false,
      "inputs": [
        {
          "indexed": true,
          "internalType": "address",
          "name": "previousOwner",
          "type": "address"
        },
        {
          "indexed": true,
          "internalType": "address",
          "name": "newOwner",
          "type": "address"
        }
      ],
      "name": "OwnershipTransferred",
      "type": "event"
    },
    {
      "anonymous": false,
      "inputs": [
        {
          "indexed": false,
          "internalType": "uint256",
          "name": "performanceFee",
          "type": "uint256"
        },
        {
          "indexed": false,
          "internalType": "uint256",
          "name": "newPerformanceFee",
          "type": "uint256"
        }
      ],
      "name": "PerformanceFeeSet",
      "type": "event"
    },
    {
      "anonymous": false,
      "inputs": [
        {
          "indexed": false,
          "internalType": "uint256",
          "name": "premiumDiscount",
          "type": "uint256"
        },
        {
          "indexed": false,
          "internalType": "uint256",
          "name": "newPremiumDiscount",
          "type": "uint256"
        }
      ],
      "name": "PremiumDiscountSet",
      "type": "event"
    },
    {
      "anonymous": false,
      "inputs": [
        {
          "indexed": true,
          "internalType": "address",
          "name": "account",
          "type": "address"
        },
        {
          "indexed": false,
          "internalType": "uint256",
          "name": "share",
          "type": "uint256"
        },
        {
          "indexed": false,
          "internalType": "uint256",
          "name": "round",
          "type": "uint256"
        }
      ],
      "name": "Redeem",
      "type": "event"
    },
    {
      "anonymous": false,
      "inputs": [
        {
          "indexed": true,
          "internalType": "address",
          "name": "from",
          "type": "address"
        },
        {
          "indexed": true,
          "internalType": "address",
          "name": "to",
          "type": "address"
        },
        {
          "indexed": false,
          "internalType": "uint256",
          "name": "value",
          "type": "uint256"
        }
      ],
      "name": "Transfer",
      "type": "event"
    },
    {
      "anonymous": false,
      "inputs": [
        {
          "indexed": true,
          "internalType": "address",
          "name": "account",
          "type": "address"
        },
        {
          "indexed": false,
          "internalType": "uint256",
          "name": "amount",
          "type": "uint256"
        },
        {
          "indexed": false,
          "internalType": "uint256",
          "name": "shares",
          "type": "uint256"
        }
      ],
      "name": "Withdraw",
      "type": "event"
    },
    {
      "inputs": [],
      "name": "DELAY",
      "outputs": [
        {
          "internalType": "uint256",
          "name": "",
          "type": "uint256"
        }
      ],
      "stateMutability": "view",
      "type": "function"
    },
    {
      "inputs": [],
      "name": "GAMMA_CONTROLLER",
      "outputs": [
        {
          "internalType": "address",
          "name": "",
          "type": "address"
        }
      ],
      "stateMutability": "view",
      "type": "function"
    },
    {
      "inputs": [],
      "name": "GNOSIS_EASY_AUCTION",
      "outputs": [
        {
          "internalType": "address",
          "name": "",
          "type": "address"
        }
      ],
      "stateMutability": "view",
      "type": "function"
    },
    {
      "inputs": [],
      "name": "MARGIN_POOL",
      "outputs": [
        {
          "internalType": "address",
          "name": "",
          "type": "address"
        }
      ],
      "stateMutability": "view",
      "type": "function"
    },
    {
      "inputs": [],
      "name": "OTOKEN_FACTORY",
      "outputs": [
        {
          "internalType": "address",
          "name": "",
          "type": "address"
        }
      ],
      "stateMutability": "view",
      "type": "function"
    },
    {
      "inputs": [],
      "name": "PERIOD",
      "outputs": [
        {
          "internalType": "uint256",
          "name": "",
          "type": "uint256"
        }
      ],
      "stateMutability": "view",
      "type": "function"
    },
    {
      "inputs": [],
      "name": "USDC",
      "outputs": [
        {
          "internalType": "address",
          "name": "",
          "type": "address"
        }
      ],
      "stateMutability": "view",
      "type": "function"
    },
    {
      "inputs": [],
      "name": "WETH",
      "outputs": [
        {
          "internalType": "address",
          "name": "",
          "type": "address"
        }
      ],
      "stateMutability": "view",
      "type": "function"
    },
    {
      "inputs": [
        {
          "internalType": "address",
          "name": "account",
          "type": "address"
        }
      ],
      "name": "accountVaultBalance",
      "outputs": [
        {
          "internalType": "uint256",
          "name": "",
          "type": "uint256"
        }
      ],
      "stateMutability": "view",
      "type": "function"
    },
    {
      "inputs": [
        {
          "internalType": "address",
          "name": "owner",
          "type": "address"
        },
        {
          "internalType": "address",
          "name": "spender",
          "type": "address"
        }
      ],
      "name": "allowance",
      "outputs": [
        {
          "internalType": "uint256",
          "name": "",
          "type": "uint256"
        }
      ],
      "stateMutability": "view",
      "type": "function"
    },
    {
      "inputs": [
        {
          "internalType": "address",
          "name": "spender",
          "type": "address"
        },
        {
          "internalType": "uint256",
          "name": "amount",
          "type": "uint256"
        }
      ],
      "name": "approve",
      "outputs": [
        {
          "internalType": "bool",
          "name": "",
          "type": "bool"
        }
      ],
      "stateMutability": "nonpayable",
      "type": "function"
    },
    {
      "inputs": [],
      "name": "auctionDuration",
      "outputs": [
        {
          "internalType": "uint256",
          "name": "",
          "type": "uint256"
        }
      ],
      "stateMutability": "view",
      "type": "function"
    },
    {
      "inputs": [
        {
          "internalType": "address",
          "name": "account",
          "type": "address"
        }
      ],
      "name": "balanceOf",
      "outputs": [
        {
          "internalType": "uint256",
          "name": "",
          "type": "uint256"
        }
      ],
      "stateMutability": "view",
      "type": "function"
    },
    {
      "inputs": [],
      "name": "burnRemainingOTokens",
      "outputs": [],
      "stateMutability": "nonpayable",
      "type": "function"
    },
    {
      "inputs": [],
      "name": "cap",
      "outputs": [
        {
          "internalType": "uint256",
          "name": "",
          "type": "uint256"
        }
      ],
      "stateMutability": "view",
      "type": "function"
    },
    {
      "inputs": [],
      "name": "commitAndClose",
      "outputs": [],
      "stateMutability": "nonpayable",
      "type": "function"
    },
    {
      "inputs": [],
      "name": "completeWithdraw",
      "outputs": [],
      "stateMutability": "nonpayable",
      "type": "function"
    },
    {
      "inputs": [],
      "name": "currentOption",
      "outputs": [
        {
          "internalType": "address",
          "name": "",
          "type": "address"
        }
      ],
      "stateMutability": "view",
      "type": "function"
    },
    {
      "inputs": [],
      "name": "currentOtokenPremium",
      "outputs": [
        {
          "internalType": "uint256",
          "name": "",
          "type": "uint256"
        }
      ],
      "stateMutability": "view",
      "type": "function"
    },
    {
      "inputs": [],
      "name": "currentQueuedWithdrawShares",
      "outputs": [
        {
          "internalType": "uint256",
          "name": "",
          "type": "uint256"
        }
      ],
      "stateMutability": "view",
      "type": "function"
    },
    {
      "inputs": [],
      "name": "decimals",
      "outputs": [
        {
          "internalType": "uint8",
          "name": "",
          "type": "uint8"
        }
      ],
      "stateMutability": "view",
      "type": "function"
    },
    {
      "inputs": [
        {
          "internalType": "address",
          "name": "spender",
          "type": "address"
        },
        {
          "internalType": "uint256",
          "name": "subtractedValue",
          "type": "uint256"
        }
      ],
      "name": "decreaseAllowance",
      "outputs": [
        {
          "internalType": "bool",
          "name": "",
          "type": "bool"
        }
      ],
      "stateMutability": "nonpayable",
      "type": "function"
    },
    {
      "inputs": [
        {
          "internalType": "uint256",
          "name": "amount",
          "type": "uint256"
        }
      ],
      "name": "deposit",
      "outputs": [],
      "stateMutability": "nonpayable",
      "type": "function"
    },
    {
      "inputs": [],
      "name": "depositETH",
      "outputs": [],
      "stateMutability": "payable",
      "type": "function"
    },
    {
      "inputs": [
        {
          "internalType": "uint256",
          "name": "amount",
          "type": "uint256"
        },
        {
          "internalType": "address",
          "name": "creditor",
          "type": "address"
        }
      ],
      "name": "depositFor",
      "outputs": [],
      "stateMutability": "nonpayable",
      "type": "function"
    },
    {
      "inputs": [
        {
          "internalType": "address",
          "name": "",
          "type": "address"
        }
      ],
      "name": "depositReceipts",
      "outputs": [
        {
          "internalType": "uint16",
          "name": "round",
          "type": "uint16"
        },
        {
          "internalType": "uint104",
          "name": "amount",
          "type": "uint104"
        },
        {
          "internalType": "uint128",
          "name": "unredeemedShares",
          "type": "uint128"
        }
      ],
      "stateMutability": "view",
      "type": "function"
    },
    {
      "inputs": [],
      "name": "feeRecipient",
      "outputs": [
        {
          "internalType": "address",
          "name": "",
          "type": "address"
        }
      ],
      "stateMutability": "view",
      "type": "function"
    },
    {
      "inputs": [
        {
          "internalType": "address",
          "name": "spender",
          "type": "address"
        },
        {
          "internalType": "uint256",
          "name": "addedValue",
          "type": "uint256"
        }
      ],
      "name": "increaseAllowance",
      "outputs": [
        {
          "internalType": "bool",
          "name": "",
          "type": "bool"
        }
      ],
      "stateMutability": "nonpayable",
      "type": "function"
    },
    {
      "inputs": [
        {
          "internalType": "uint256",
          "name": "numRounds",
          "type": "uint256"
        }
      ],
      "name": "initRounds",
      "outputs": [],
      "stateMutability": "nonpayable",
      "type": "function"
    },
    {
      "inputs": [
        {
          "components": [
            {
              "internalType": "address",
              "name": "_owner",
              "type": "address"
            },
            {
              "internalType": "address",
              "name": "_keeper",
              "type": "address"
            },
            {
              "internalType": "address",
              "name": "_feeRecipient",
              "type": "address"
            },
            {
              "internalType": "uint256",
              "name": "_managementFee",
              "type": "uint256"
            },
            {
              "internalType": "uint256",
              "name": "_performanceFee",
              "type": "uint256"
            },
            {
              "internalType": "string",
              "name": "_tokenName",
              "type": "string"
            },
            {
              "internalType": "string",
              "name": "_tokenSymbol",
              "type": "string"
            },
            {
              "internalType": "address",
              "name": "_optionsPremiumPricer",
              "type": "address"
            },
            {
              "internalType": "address",
              "name": "_strikeSelection",
              "type": "address"
            },
            {
              "internalType": "uint32",
              "name": "_premiumDiscount",
              "type": "uint32"
            },
            {
              "internalType": "uint256",
              "name": "_auctionDuration",
              "type": "uint256"
            }
          ],
          "internalType": "struct RibbonThetaVault.InitParams",
          "name": "_initParams",
          "type": "tuple"
        },
        {
          "components": [
            {
              "internalType": "bool",
              "name": "isPut",
              "type": "bool"
            },
            {
              "internalType": "uint8",
              "name": "decimals",
              "type": "uint8"
            },
            {
              "internalType": "address",
              "name": "asset",
              "type": "address"
            },
            {
              "internalType": "address",
              "name": "underlying",
              "type": "address"
            },
            {
              "internalType": "uint56",
              "name": "minimumSupply",
              "type": "uint56"
            },
            {
              "internalType": "uint104",
              "name": "cap",
              "type": "uint104"
            }
          ],
          "internalType": "struct Vault.VaultParams",
          "name": "_vaultParams",
          "type": "tuple"
        }
      ],
      "name": "initialize",
      "outputs": [],
      "stateMutability": "nonpayable",
      "type": "function"
    },
    {
      "inputs": [
        {
          "internalType": "uint256",
          "name": "numShares",
          "type": "uint256"
        }
      ],
      "name": "initiateWithdraw",
      "outputs": [],
      "stateMutability": "nonpayable",
      "type": "function"
    },
    {
      "inputs": [],
      "name": "keeper",
      "outputs": [
        {
          "internalType": "address",
          "name": "",
          "type": "address"
        }
      ],
      "stateMutability": "view",
      "type": "function"
    },
    {
      "inputs": [],
      "name": "lastQueuedWithdrawAmount",
      "outputs": [
        {
          "internalType": "uint256",
          "name": "",
          "type": "uint256"
        }
      ],
      "stateMutability": "view",
      "type": "function"
    },
    {
      "inputs": [],
      "name": "lastStrikeOverrideRound",
      "outputs": [
        {
          "internalType": "uint16",
          "name": "",
          "type": "uint16"
        }
      ],
      "stateMutability": "view",
      "type": "function"
    },
    {
      "inputs": [],
      "name": "liquidityGauge",
      "outputs": [
        {
          "internalType": "address",
          "name": "",
          "type": "address"
        }
      ],
      "stateMutability": "view",
      "type": "function"
    },
    {
      "inputs": [],
      "name": "managementFee",
      "outputs": [
        {
          "internalType": "uint256",
          "name": "",
          "type": "uint256"
        }
      ],
      "stateMutability": "view",
      "type": "function"
    },
    {
      "inputs": [],
      "name": "maxRedeem",
      "outputs": [],
      "stateMutability": "nonpayable",
      "type": "function"
    },
    {
      "inputs": [],
      "name": "name",
      "outputs": [
        {
          "internalType": "string",
          "name": "",
          "type": "string"
        }
      ],
      "stateMutability": "view",
      "type": "function"
    },
    {
      "inputs": [],
      "name": "nextOption",
      "outputs": [
        {
          "internalType": "address",
          "name": "",
          "type": "address"
        }
      ],
      "stateMutability": "view",
      "type": "function"
    },
    {
      "inputs": [],
      "name": "nextOptionReadyAt",
      "outputs": [
        {
          "internalType": "uint256",
          "name": "",
          "type": "uint256"
        }
      ],
      "stateMutability": "view",
      "type": "function"
    },
    {
      "inputs": [],
      "name": "optionAuctionID",
      "outputs": [
        {
          "internalType": "uint256",
          "name": "",
          "type": "uint256"
        }
      ],
      "stateMutability": "view",
      "type": "function"
    },
    {
      "inputs": [],
      "name": "optionState",
      "outputs": [
        {
          "internalType": "address",
          "name": "nextOption",
          "type": "address"
        },
        {
          "internalType": "address",
          "name": "currentOption",
          "type": "address"
        },
        {
          "internalType": "uint32",
          "name": "nextOptionReadyAt",
          "type": "uint32"
        }
      ],
      "stateMutability": "view",
      "type": "function"
    },
    {
      "inputs": [],
      "name": "optionsPremiumPricer",
      "outputs": [
        {
          "internalType": "address",
          "name": "",
          "type": "address"
        }
      ],
      "stateMutability": "view",
      "type": "function"
    },
    {
      "inputs": [],
      "name": "optionsPurchaseQueue",
      "outputs": [
        {
          "internalType": "address",
          "name": "",
          "type": "address"
        }
      ],
      "stateMutability": "view",
      "type": "function"
    },
    {
      "inputs": [],
      "name": "overriddenStrikePrice",
      "outputs": [
        {
          "internalType": "uint256",
          "name": "",
          "type": "uint256"
        }
      ],
      "stateMutability": "view",
      "type": "function"
    },
    {
      "inputs": [],
      "name": "owner",
      "outputs": [
        {
          "internalType": "address",
          "name": "",
          "type": "address"
        }
      ],
      "stateMutability": "view",
      "type": "function"
    },
    {
      "inputs": [],
      "name": "pausePosition",
      "outputs": [],
      "stateMutability": "nonpayable",
      "type": "function"
    },
    {
      "inputs": [],
      "name": "performanceFee",
      "outputs": [
        {
          "internalType": "uint256",
          "name": "",
          "type": "uint256"
        }
      ],
      "stateMutability": "view",
      "type": "function"
    },
    {
      "inputs": [],
      "name": "premiumDiscount",
      "outputs": [
        {
          "internalType": "uint256",
          "name": "",
          "type": "uint256"
        }
      ],
      "stateMutability": "view",
      "type": "function"
    },
    {
      "inputs": [],
      "name": "pricePerShare",
      "outputs": [
        {
          "internalType": "uint256",
          "name": "",
          "type": "uint256"
        }
      ],
      "stateMutability": "view",
      "type": "function"
    },
    {
      "inputs": [
        {
          "internalType": "address",
          "name": "token",
          "type": "address"
        },
        {
          "internalType": "address",
          "name": "recipient",
          "type": "address"
        }
      ],
      "name": "recoverTokens",
      "outputs": [],
      "stateMutability": "nonpayable",
      "type": "function"
    },
    {
      "inputs": [
        {
          "internalType": "uint256",
          "name": "numShares",
          "type": "uint256"
        }
      ],
      "name": "redeem",
      "outputs": [],
      "stateMutability": "nonpayable",
      "type": "function"
    },
    {
      "inputs": [],
      "name": "renounceOwnership",
      "outputs": [],
      "stateMutability": "nonpayable",
      "type": "function"
    },
    {
      "inputs": [],
      "name": "rollToNextOption",
      "outputs": [],
      "stateMutability": "nonpayable",
      "type": "function"
    },
    {
      "inputs": [
        {
          "internalType": "uint256",
          "name": "",
          "type": "uint256"
        }
      ],
      "name": "roundPricePerShare",
      "outputs": [
        {
          "internalType": "uint256",
          "name": "",
          "type": "uint256"
        }
      ],
      "stateMutability": "view",
      "type": "function"
    },
    {
      "inputs": [],
      "name": "sellOptionsToQueue",
      "outputs": [],
      "stateMutability": "nonpayable",
      "type": "function"
    },
    {
      "inputs": [
        {
          "internalType": "uint256",
          "name": "newAuctionDuration",
          "type": "uint256"
        }
      ],
      "name": "setAuctionDuration",
      "outputs": [],
      "stateMutability": "nonpayable",
      "type": "function"
    },
    {
      "inputs": [
        {
          "internalType": "uint256",
          "name": "newCap",
          "type": "uint256"
        }
      ],
      "name": "setCap",
      "outputs": [],
      "stateMutability": "nonpayable",
      "type": "function"
    },
    {
      "inputs": [
        {
          "internalType": "address",
          "name": "newFeeRecipient",
          "type": "address"
        }
      ],
      "name": "setFeeRecipient",
      "outputs": [],
      "stateMutability": "nonpayable",
      "type": "function"
    },
    {
      "inputs": [
        {
          "internalType": "address",
          "name": "newLiquidityGauge",
          "type": "address"
        }
      ],
      "name": "setLiquidityGauge",
      "outputs": [],
      "stateMutability": "nonpayable",
      "type": "function"
    },
    {
      "inputs": [
        {
          "internalType": "uint256",
          "name": "newManagementFee",
          "type": "uint256"
        }
      ],
      "name": "setManagementFee",
      "outputs": [],
      "stateMutability": "nonpayable",
      "type": "function"
    },
    {
      "inputs": [
        {
          "internalType": "uint256",
          "name": "minPrice",
          "type": "uint256"
        }
      ],
      "name": "setMinPrice",
      "outputs": [],
      "stateMutability": "nonpayable",
      "type": "function"
    },
    {
      "inputs": [
        {
          "internalType": "address",
          "name": "newKeeper",
          "type": "address"
        }
      ],
      "name": "setNewKeeper",
      "outputs": [],
      "stateMutability": "nonpayable",
      "type": "function"
    },
    {
      "inputs": [
        {
          "internalType": "address",
          "name": "newOptionsPremiumPricer",
          "type": "address"
        }
      ],
      "name": "setOptionsPremiumPricer",
      "outputs": [],
      "stateMutability": "nonpayable",
      "type": "function"
    },
    {
      "inputs": [
        {
          "internalType": "address",
          "name": "newOptionsPurchaseQueue",
          "type": "address"
        }
      ],
      "name": "setOptionsPurchaseQueue",
      "outputs": [],
      "stateMutability": "nonpayable",
      "type": "function"
    },
    {
      "inputs": [
        {
          "internalType": "uint256",
          "name": "newPerformanceFee",
          "type": "uint256"
        }
      ],
      "name": "setPerformanceFee",
      "outputs": [],
      "stateMutability": "nonpayable",
      "type": "function"
    },
    {
      "inputs": [
        {
          "internalType": "uint256",
          "name": "newPremiumDiscount",
          "type": "uint256"
        }
      ],
      "name": "setPremiumDiscount",
      "outputs": [],
      "stateMutability": "nonpayable",
      "type": "function"
    },
    {
      "inputs": [
        {
          "internalType": "uint128",
          "name": "strikePrice",
          "type": "uint128"
        }
      ],
      "name": "setStrikePrice",
      "outputs": [],
      "stateMutability": "nonpayable",
      "type": "function"
    },
    {
      "inputs": [
        {
          "internalType": "address",
          "name": "newStrikeSelection",
          "type": "address"
        }
      ],
      "name": "setStrikeSelection",
      "outputs": [],
      "stateMutability": "nonpayable",
      "type": "function"
    },
    {
      "inputs": [
        {
          "internalType": "address",
          "name": "newVaultPauser",
          "type": "address"
        }
      ],
      "name": "setVaultPauser",
      "outputs": [],
      "stateMutability": "nonpayable",
      "type": "function"
    },
    {
      "inputs": [
        {
          "internalType": "address",
          "name": "account",
          "type": "address"
        }
      ],
      "name": "shareBalances",
      "outputs": [
        {
          "internalType": "uint256",
          "name": "heldByAccount",
          "type": "uint256"
        },
        {
          "internalType": "uint256",
          "name": "heldByVault",
          "type": "uint256"
        }
      ],
      "stateMutability": "view",
      "type": "function"
    },
    {
      "inputs": [
        {
          "internalType": "address",
          "name": "account",
          "type": "address"
        }
      ],
      "name": "shares",
      "outputs": [
        {
          "internalType": "uint256",
          "name": "",
          "type": "uint256"
        }
      ],
      "stateMutability": "view",
      "type": "function"
    },
    {
      "inputs": [
        {
          "internalType": "uint256",
          "name": "numShares",
          "type": "uint256"
        }
      ],
      "name": "stake",
      "outputs": [],
      "stateMutability": "nonpayable",
      "type": "function"
    },
    {
      "inputs": [],
      "name": "startAuction",
      "outputs": [],
      "stateMutability": "nonpayable",
      "type": "function"
    },
    {
      "inputs": [],
      "name": "strikeSelection",
      "outputs": [
        {
          "internalType": "address",
          "name": "",
          "type": "address"
        }
      ],
      "stateMutability": "view",
      "type": "function"
    },
    {
      "inputs": [],
      "name": "symbol",
      "outputs": [
        {
          "internalType": "string",
          "name": "",
          "type": "string"
        }
      ],
      "stateMutability": "view",
      "type": "function"
    },
    {
      "inputs": [],
      "name": "totalBalance",
      "outputs": [
        {
          "internalType": "uint256",
          "name": "",
          "type": "uint256"
        }
      ],
      "stateMutability": "view",
      "type": "function"
    },
    {
      "inputs": [],
      "name": "totalPending",
      "outputs": [
        {
          "internalType": "uint256",
          "name": "",
          "type": "uint256"
        }
      ],
      "stateMutability": "view",
      "type": "function"
    },
    {
      "inputs": [],
      "name": "totalSupply",
      "outputs": [
        {
          "internalType": "uint256",
          "name": "",
          "type": "uint256"
        }
      ],
      "stateMutability": "view",
      "type": "function"
    },
    {
      "inputs": [
        {
          "internalType": "address",
          "name": "recipient",
          "type": "address"
        },
        {
          "internalType": "uint256",
          "name": "amount",
          "type": "uint256"
        }
      ],
      "name": "transfer",
      "outputs": [
        {
          "internalType": "bool",
          "name": "",
          "type": "bool"
        }
      ],
      "stateMutability": "nonpayable",
      "type": "function"
    },
    {
      "inputs": [
        {
          "internalType": "address",
          "name": "sender",
          "type": "address"
        },
        {
          "internalType": "address",
          "name": "recipient",
          "type": "address"
        },
        {
          "internalType": "uint256",
          "name": "amount",
          "type": "uint256"
        }
      ],
      "name": "transferFrom",
      "outputs": [
        {
          "internalType": "bool",
          "name": "",
          "type": "bool"
        }
      ],
      "stateMutability": "nonpayable",
      "type": "function"
    },
    {
      "inputs": [
        {
          "internalType": "address",
          "name": "newOwner",
          "type": "address"
        }
      ],
      "name": "transferOwnership",
      "outputs": [],
      "stateMutability": "nonpayable",
      "type": "function"
    },
    {
      "inputs": [],
      "name": "vaultParams",
      "outputs": [
        {
          "internalType": "bool",
          "name": "isPut",
          "type": "bool"
        },
        {
          "internalType": "uint8",
          "name": "decimals",
          "type": "uint8"
        },
        {
          "internalType": "address",
          "name": "asset",
          "type": "address"
        },
        {
          "internalType": "address",
          "name": "underlying",
          "type": "address"
        },
        {
          "internalType": "uint56",
          "name": "minimumSupply",
          "type": "uint56"
        },
        {
          "internalType": "uint104",
          "name": "cap",
          "type": "uint104"
        }
      ],
      "stateMutability": "view",
      "type": "function"
    },
    {
      "inputs": [],
      "name": "vaultPauser",
      "outputs": [
        {
          "internalType": "address",
          "name": "",
          "type": "address"
        }
      ],
      "stateMutability": "view",
      "type": "function"
    },
    {
      "inputs": [],
      "name": "vaultState",
      "outputs": [
        {
          "internalType": "uint16",
          "name": "round",
          "type": "uint16"
        },
        {
          "internalType": "uint104",
          "name": "lockedAmount",
          "type": "uint104"
        },
        {
          "internalType": "uint104",
          "name": "lastLockedAmount",
          "type": "uint104"
        },
        {
          "internalType": "uint128",
          "name": "totalPending",
          "type": "uint128"
        },
        {
          "internalType": "uint128",
          "name": "queuedWithdrawShares",
          "type": "uint128"
        }
      ],
      "stateMutability": "view",
      "type": "function"
    },
    {
      "inputs": [
        {
          "internalType": "uint256",
          "name": "amount",
          "type": "uint256"
        }
      ],
      "name": "withdrawInstantly",
      "outputs": [],
      "stateMutability": "nonpayable",
      "type": "function"
    },
    {
      "inputs": [
        {
          "internalType": "address",
          "name": "",
          "type": "address"
        }
      ],
      "name": "withdrawals",
      "outputs": [
        {
          "internalType": "uint16",
          "name": "round",
          "type": "uint16"
        },
        {
          "internalType": "uint128",
          "name": "shares",
          "type": "uint128"
        }
      ],
      "stateMutability": "view",
      "type": "function"
    }
  ],
  "transactionHash": "0xfe9c57bb4c7962ad16f7626869fad4fe10e685ceda47facfce820f2aee5e20c3",
  "args": [
    "0xC02aaA39b223FE8D0A0e5C4F27eAD9083C756Cc2",
    "0xA0b86991c6218b36c1d19D4a2e9Eb0cE3606eB48",
    "0x4114b7C04bBbA682130cae2bA26FC5d2473B4Ddc",
    "0x4bec71A4Ac41eE9761440F6921DD17bA1C1213B1",
    "0x3c212a044760de5a529b3ba59363ddeccc2210be",
    "0x0b7fFc1f4AD541A4Ed16b40D8c37f0929158D101"
  ],
  "solcInputHash": "9be2afd118232434b07255c894c5e6e0",
  "bytecode": "0x6101406040523480156200001257600080fd5b506040516200619838038062006198833981016040819052620000359162000261565b85858484846001600160a01b0385166200007f5760405162461bcd60e51b8152602060048201526006602482015265042beeecae8d60d31b60448201526064015b60405180910390fd5b6001600160a01b038416620000c05760405162461bcd60e51b8152602060048201526006602482015265215f7573646360d01b604482015260640162000076565b6001600160a01b038116620001185760405162461bcd60e51b815260206004820152601360248201527f215f676e6f7369734561737941756374696f6e00000000000000000000000000604482015260640162000076565b6001600160a01b038316620001645760405162461bcd60e51b815260206004820152601160248201527010afb3b0b6b6b0a1b7b73a3937b63632b960791b604482015260640162000076565b6001600160a01b038216620001ab5760405162461bcd60e51b815260206004820152600c60248201526b0857db585c99da5b941bdbdb60a21b604482015260640162000076565b6001600160601b0319606095861b811660805293851b841660a05291841b831660c052831b821660e05290911b16610100526001600160a01b038416620002275760405162461bcd60e51b815260206004820152600f60248201526e215f6f546f6b656e466163746f727960881b604482015260640162000076565b50505060601b6001600160601b0319166101205250620002e19050565b80516001600160a01b03811681146200025c57600080fd5b919050565b60008060008060008060c087890312156200027a578182fd5b620002858762000244565b9550620002956020880162000244565b9450620002a56040880162000244565b9350620002b56060880162000244565b9250620002c56080880162000244565b9150620002d560a0880162000244565b90509295509295509295565b60805160601c60a05160601c60c05160601c60e05160601c6101005160601c6101205160601c615e0162000397600039600081816110000152612e67015260008181610a2f015281816120b20152613f4b01526000818161094d015261294e0152600081816105ad01528181611f4b0152818161292601526148ae015260008181610bc00152612e8c015260008181610ea001528181613137015281816131e3015281816137ef015261382c0152615e016000f3fe6080604052600436106104c05760003560e01c806387153eb111610276578063b4d1d7951161014f578063e73c63d5116100c1578063f656ba5111610085578063f656ba51146110db578063f756fa2114611110578063f957a06714611125578063f9a0be6814611145578063fba7dc6114611166578063fe56e2321461118757600080fd5b8063e73c63d514611068578063e74b981b1461107e578063ea00b1ca1461109e578063f2fde38b146110b3578063f6326fb3146110d357600080fd5b8063d13f1b3e11610113578063d13f1b3e14610f78578063d164cc1514610f98578063d5f2638214610fb8578063db006a7514610fce578063db43e86214610fee578063dd62ed3e1461102257600080fd5b8063b4d1d79514610ef7578063b6b55f2514610f0e578063b9f8092b14610f2e578063ca59409414610f43578063ce7c2ac214610f5857600080fd5b8063a285c9e8116101e8578063a6f7f5d6116101ac578063a6f7f5d614610e38578063a9059cbb14610e4e578063aced166114610e6e578063ad5c464814610e8e578063ad7a672f14610ec2578063afa6626414610ed757600080fd5b8063a285c9e814610d98578063a2db9d8314610dba578063a457c2d714610dd8578063a497e67414610df8578063a694fc3a14610e1857600080fd5b8063947061b51161023a578063947061b514610c1e57806395d89b4114610c3f57806399530b0614610c545780639be43daa14610c695780639fcc2d7514610c89578063a083ff1714610d3557600080fd5b806387153eb114610b6b5780638778878214610b9857806389a3027114610bae5780638b10cc7c14610be25780638da5cb5b14610c0057600080fd5b806347786d37116103a85780636719b2ee1161031a57806370897b23116102de57806370897b2314610a6657806370a0823114610a86578063715018a614610abc5780637a9262a214610ad15780637e108d5214610b3557806383536ff314610b5557600080fd5b80636719b2ee1461096f57806369b41170146109f35780636b64c76914610a085780636c10f66c14610a1d5780636f31ab3414610a5157600080fd5b8063573f0d6e1161036c578063573f0d6e146108b157806358358207146108d15780635ea8cd12146108f1578063600a2cfb14610911578063611b034d14610926578063650cce8a1461093b57600080fd5b806347786d37146108245780634ac88cb6146108445780634b2431d914610864578063503c70aa1461087b57806355489bb21461089157600080fd5b806330630da4116104415780633ec143d3116104055780633ec143d3146107625780633f23bb73146107905780633f90916a146107b0578063432833a6146107ce5780634603c0aa146107e4578063469048401461080457600080fd5b806330630da4146106ba578063313ce567146106da578063355274ea1461070457806336efd16f14610722578063395093511461074257600080fd5b806318160ddd1161048857806318160ddd146105865780631a92f6c21461059b57806323b872dd146105e75780632728f333146106075780632775d01c1461069a57600080fd5b8063048bf085146104c5578063056097ac146104e757806306fdde0314610507578063095ea7b3146105325780630cbf54c814610562575b600080fd5b3480156104d157600080fd5b506104e56104e036600461548a565b6111a7565b005b3480156104f357600080fd5b506104e56105023660046154a6565b6111fd565b34801561051357600080fd5b5061051c6113cf565b6040516105299190615821565b60405180910390f35b34801561053e57600080fd5b5061055261054d36600461551e565b611461565b6040519015158152602001610529565b34801561056e57600080fd5b5061057860fb5481565b604051908152602001610529565b34801561059257600080fd5b50609954610578565b3480156105a757600080fd5b506105cf7f000000000000000000000000000000000000000000000000000000000000000081565b6040516001600160a01b039091168152602001610529565b3480156105f357600080fd5b506105526106023660046154de565b611478565b34801561061357600080fd5b5060cf5460d0546106559161ffff8116916001600160681b03620100008304811692600160781b900416906001600160801b0380821691600160801b90041685565b6040805161ffff90961686526001600160681b03948516602087015293909216928401929092526001600160801b03918216606084015216608082015260a001610529565b3480156106a657600080fd5b506104e56106b536600461561e565b611524565b3480156106c657600080fd5b506104e56106d536600461548a565b6116c7565b3480156106e657600080fd5b5060cc54610100900460ff1660405160ff9091168152602001610529565b34801561071057600080fd5b5060ce546001600160681b0316610578565b34801561072e57600080fd5b506104e561073d36600461564e565b61175f565b34801561074e57600080fd5b5061055261075d36600461551e565b6117e7565b34801561076e57600080fd5b5060f95461077d9061ffff1681565b60405161ffff9091168152602001610529565b34801561079c57600080fd5b506105786107ab36600461548a565b611823565b3480156107bc57600080fd5b5060d0546001600160801b0316610578565b3480156107da57600080fd5b5061057860fc5481565b3480156107f057600080fd5b506104e56107ff36600461548a565b611876565b34801561081057600080fd5b5060d3546105cf906001600160a01b031681565b34801561083057600080fd5b506104e561083f36600461561e565b611918565b34801561085057600080fd5b506104e561085f36600461548a565b6119f3565b34801561087057600080fd5b506105786101025481565b34801561088757600080fd5b5061057860fd5481565b34801561089d57600080fd5b506104e56108ac3660046155f7565b611a40565b3480156108bd57600080fd5b506104e56108cc36600461548a565b611ad8565b3480156108dd57600080fd5b506104e56108ec36600461559b565b611b25565b3480156108fd57600080fd5b506104e561090c36600461561e565b611e74565b34801561091d57600080fd5b506104e5611edf565b34801561093257600080fd5b506104e561203a565b34801561094757600080fd5b506105cf7f000000000000000000000000000000000000000000000000000000000000000081565b34801561097b57600080fd5b506109c261098a36600461548a565b60c96020526000908152604090205461ffff8116906201000081046001600160681b031690600160781b90046001600160801b031683565b6040805161ffff90941684526001600160681b0390921660208401526001600160801b031690820152606001610529565b3480156109ff57600080fd5b50610578600081565b348015610a1457600080fd5b506104e5612154565b348015610a2957600080fd5b506105cf7f000000000000000000000000000000000000000000000000000000000000000081565b348015610a5d57600080fd5b506104e56121b4565b348015610a7257600080fd5b506104e5610a8136600461561e565b6121eb565b348015610a9257600080fd5b50610578610aa136600461548a565b6001600160a01b031660009081526097602052604090205490565b348015610ac857600080fd5b506104e56122b2565b348015610add57600080fd5b50610b13610aec36600461548a565b60cb6020526000908152604090205461ffff8116906201000090046001600160801b031682565b6040805161ffff90931683526001600160801b03909116602083015201610529565b348015610b4157600080fd5b506104e5610b5036600461561e565b6122e8565b348015610b6157600080fd5b5061057860f75481565b348015610b7757600080fd5b50610578610b8636600461561e565b60ca6020526000908152604090205481565b348015610ba457600080fd5b5061057860d55481565b348015610bba57600080fd5b506105cf7f000000000000000000000000000000000000000000000000000000000000000081565b348015610bee57600080fd5b5060d2546001600160a01b03166105cf565b348015610c0c57600080fd5b506065546001600160a01b03166105cf565b348015610c2a57600080fd5b50610103546105cf906001600160a01b031681565b348015610c4b57600080fd5b5061051c612332565b348015610c6057600080fd5b50610578612341565b348015610c7557600080fd5b506104e5610c8436600461561e565b61237b565b348015610c9557600080fd5b5060cc5460cd5460ce54610ce59260ff808216936101008304909116926001600160a01b036201000090930483169282169166ffffffffffffff600160a01b90910416906001600160681b031686565b60408051961515875260ff90951660208701526001600160a01b03938416948601949094529116606084015266ffffffffffffff1660808301526001600160681b031660a082015260c001610529565b348015610d4157600080fd5b5060d15460d254610d6c916001600160a01b039081169190811690600160a01b900463ffffffff1683565b604080516001600160a01b03948516815293909216602084015263ffffffff1690820152606001610529565b348015610da457600080fd5b5060d254600160a01b900463ffffffff16610578565b348015610dc657600080fd5b5060d1546001600160a01b03166105cf565b348015610de457600080fd5b50610552610df336600461551e565b612475565b348015610e0457600080fd5b506104e5610e1336600461561e565b61250e565b348015610e2457600080fd5b506104e5610e3336600461561e565b6125cb565b348015610e4457600080fd5b5061057860d65481565b348015610e5a57600080fd5b50610552610e6936600461551e565b6126c9565b348015610e7a57600080fd5b5060d4546105cf906001600160a01b031681565b348015610e9a57600080fd5b506105cf7f000000000000000000000000000000000000000000000000000000000000000081565b348015610ece57600080fd5b506105786126d6565b348015610ee357600080fd5b5060f5546105cf906001600160a01b031681565b348015610f0357600080fd5b5061057862093a8081565b348015610f1a57600080fd5b506104e5610f2936600461561e565b612775565b348015610f3a57600080fd5b506104e56127e2565b348015610f4f57600080fd5b506104e5612ab3565b348015610f6457600080fd5b50610578610f7336600461548a565b612b56565b348015610f8457600080fd5b506104e5610f9336600461561e565b612b73565b348015610fa457600080fd5b506104e5610fb336600461548a565b612c38565b348015610fc457600080fd5b5061057860f85481565b348015610fda57600080fd5b506104e5610fe936600461561e565b612cc7565b348015610ffa57600080fd5b506105cf7f000000000000000000000000000000000000000000000000000000000000000081565b34801561102e57600080fd5b5061057861103d3660046154a6565b6001600160a01b03918216600090815260986020908152604080832093909416825291909152205490565b34801561107457600080fd5b5061057860fa5481565b34801561108a57600080fd5b506104e561109936600461548a565b612d34565b3480156110aa57600080fd5b506104e5612e27565b3480156110bf57600080fd5b506104e56110ce36600461548a565b61306f565b6104e561310a565b3480156110e757600080fd5b506110fb6110f636600461548a565b61325b565b60408051928352602083019190915201610529565b34801561111c57600080fd5b506104e561333e565b34801561113157600080fd5b5060f6546105cf906001600160a01b031681565b34801561115157600080fd5b50610100546105cf906001600160a01b031681565b34801561117257600080fd5b50610101546105cf906001600160a01b031681565b34801561119357600080fd5b506104e56111a236600461561e565b613393565b6065546001600160a01b031633146111da5760405162461bcd60e51b81526004016111d1906158a3565b60405180910390fd5b61010080546001600160a01b0319166001600160a01b0392909216919091179055565b6065546001600160a01b031633146112275760405162461bcd60e51b81526004016111d1906158a3565b60cc546001600160a01b038381166201000090920416141561128b5760405162461bcd60e51b815260206004820152601b60248201527f5661756c74206173736574206e6f74207265636f76657261626c65000000000060448201526064016111d1565b6001600160a01b0382163014156112e45760405162461bcd60e51b815260206004820152601b60248201527f5661756c74207368617265206e6f74207265636f76657261626c65000000000060448201526064016111d1565b6001600160a01b03811630141561133d5760405162461bcd60e51b815260206004820152601960248201527f526563697069656e742063616e6e6f74206265207661756c740000000000000060448201526064016111d1565b6040516370a0823160e01b81523060048201526113cb9082906001600160a01b038516906370a082319060240160206040518083038186803b15801561138257600080fd5b505afa158015611396573d6000803e3d6000fd5b505050506040513d601f19601f820116820180604052508101906113ba9190615636565b6001600160a01b0385169190613474565b5050565b6060609a80546113de90615bcb565b80601f016020809104026020016040519081016040528092919081815260200182805461140a90615bcb565b80156114575780601f1061142c57610100808354040283529160200191611457565b820191906000526020600020905b81548152906001019060200180831161143a57829003601f168201915b5050505050905090565b600061146e3384846134d7565b5060015b92915050565b60006114858484846135fc565b6001600160a01b03841660009081526098602090815260408083203384529091529020548281101561150a5760405162461bcd60e51b815260206004820152602860248201527f45524332303a207472616e7366657220616d6f756e74206578636565647320616044820152676c6c6f77616e636560c01b60648201526084016111d1565b61151785338584036134d7565b60019150505b9392505050565b600260015414156115475760405162461bcd60e51b81526004016111d1906158f9565b600260015533600090815260c96020526040902060cf5461ffff168261157f5760405162461bcd60e51b81526004016111d1906158d8565b815461ffff1681146115c35760405162461bcd60e51b815260206004820152600d60248201526c125b9d985b1a59081c9bdd5b99609a1b60448201526064016111d1565b81546201000090046001600160681b0316838110156116145760405162461bcd60e51b815260206004820152600d60248201526c115e18d9595908185b5bdd5b9d609a1b60448201526064016111d1565b61161e81856137cc565b83546001600160681b0391909116620100000262010000600160781b031990911617835560d054611658906001600160801b0316856137cc565b60d080546001600160801b0319166001600160801b0392909216919091179055604080518581526020810184905233917fab2daf3c146ca6416cbccd2a86ed2ba995e171ef6319df14a38aef01403a9c96910160405180910390a26116bd33856137d8565b5050600180555050565b6065546001600160a01b031633146116f15760405162461bcd60e51b81526004016111d1906158a3565b6001600160a01b03811661173d5760405162461bcd60e51b815260206004820152601360248201527210b732bba9ba3934b5b2a9b2b632b1ba34b7b760691b60448201526064016111d1565b60f680546001600160a01b0319166001600160a01b0392909216919091179055565b600260015414156117825760405162461bcd60e51b81526004016111d1906158f9565b6002600155816117a45760405162461bcd60e51b81526004016111d1906158d8565b6001600160a01b0381166117b757600080fd5b6117c18282613939565b60cc546117df906201000090046001600160a01b0316333085613bcb565b505060018055565b3360008181526098602090815260408083206001600160a01b0387168452909152812054909161146e91859061181e908690615a46565b6134d7565b60cc5460009060ff610100909104168161185961183f60995490565b6118476126d6565b60d0546001600160801b031685613c03565b905061186e61186785612b56565b8284613c43565b949350505050565b6065546001600160a01b031633146118a05760405162461bcd60e51b81526004016111d1906158a3565b6001600160a01b0381166118f65760405162461bcd60e51b815260206004820152601860248201527f216e65774f7074696f6e735072656d69756d507269636572000000000000000060448201526064016111d1565b60f580546001600160a01b0319166001600160a01b0392909216919091179055565b6065546001600160a01b031633146119425760405162461bcd60e51b81526004016111d1906158a3565b6000811161197c5760405162461bcd60e51b81526020600482015260076024820152660216e65774361760cc1b60448201526064016111d1565b61198581613ca5565b60ce54604080516001600160681b039092168252602082018390527f5f86edbb9d92228a9edc3f0ebc0f001bda1ea345ac7335e0eeef3504b31d1a1c910160405180910390a160ce80546cffffffffffffffffffffffffff19166001600160681b0392909216919091179055565b6065546001600160a01b03163314611a1d5760405162461bcd60e51b81526004016111d1906158a3565b61010180546001600160a01b0319166001600160a01b0392909216919091179055565b6065546001600160a01b03163314611a6a5760405162461bcd60e51b81526004016111d1906158a3565b6000816001600160801b031611611ab25760405162461bcd60e51b815260206004820152600c60248201526b21737472696b65507269636560a01b60448201526064016111d1565b6001600160801b031660fa5560cf5460f9805461ffff191661ffff909216919091179055565b6065546001600160a01b03163314611b025760405162461bcd60e51b81526004016111d1906158a3565b61010380546001600160a01b0319166001600160a01b0392909216919091179055565b600054610100900460ff1680611b3e575060005460ff16155b611b5a5760405162461bcd60e51b81526004016111d190615855565b600054610100900460ff16158015611b7c576000805461ffff19166101011790555b611c41611b8c602085018561548a565b611b9c604086016020870161548a565b611bac606087016040880161548a565b60608701356080880135611bc360a08a018a6159fa565b8080601f016020809104026020016040519081016040528093929190818152602001838380828437600092019190915250611c059250505060c08b018b6159fa565b8080601f0160208091040260200160405190810160405280939291908181526020018383808284376000920191909152508c9250613cef915050565b6000611c54610100850160e0860161548a565b6001600160a01b03161415611ca45760405162461bcd60e51b815260206004820152601660248201527510afb7b83a34b7b739a83932b6b4bab6a83934b1b2b960511b60448201526064016111d1565b6000611cb86101208501610100860161548a565b6001600160a01b03161415611d035760405162461bcd60e51b815260206004820152601160248201527010afb9ba3934b5b2a9b2b632b1ba34b7b760791b60448201526064016111d1565b6000611d17610140850161012086016156bb565b63ffffffff16118015611d4b5750611d31600a6064615b69565b611d43610140850161012086016156bb565b63ffffffff16105b611d8b5760405162461bcd60e51b81526020600482015260116024820152700857dc1c995b5a5d5b511a5cd8dbdd5b9d607a1b60448201526064016111d1565b61012c8361014001351015611dd65760405162461bcd60e51b815260206004820152601160248201527010afb0bab1ba34b7b7223ab930ba34b7b760791b60448201526064016111d1565b611de7610100840160e0850161548a565b60f580546001600160a01b0319166001600160a01b0392909216919091179055611e196101208401610100850161548a565b60f680546001600160a01b0319166001600160a01b0392909216919091179055611e4b610140840161012085016156bb565b63ffffffff1660f75561014083013560fb558015611e6f576000805461ff00191690555b505050565b60d4546001600160a01b03163314611e9e5760405162461bcd60e51b81526004016111d190615834565b60008111611eda5760405162461bcd60e51b8152602060048201526009602482015268216d696e507269636560b81b60448201526064016111d1565b60f855565b60d4546001600160a01b03163314611f095760405162461bcd60e51b81526004016111d190615834565b60026001541415611f2c5760405162461bcd60e51b81526004016111d1906158f9565b600260015560d2546040516358ffbb3d60e01b81526001600160a01b037f00000000000000000000000000000000000000000000000000000000000000008116600483015290911660248201526000907325Af99Ff07575Ac55fB3C2D1E6B920Ba3bf67B40906358ffbb3d9060440160206040518083038186803b158015611fb357600080fd5b505af4158015611fc7573d6000803e3d6000fd5b505050506040513d601f19601f82011682018060405250810190611feb9190615636565b60cf5490915061200a906201000090046001600160681b0316826137cc565b60cf80546001600160681b0392909216620100000262010000600160781b03199092169190911790555060018055565b60d4546001600160a01b031633146120645760405162461bcd60e51b81526004016111d190615834565b600260015414156120875760405162461bcd60e51b81526004016111d1906158f9565b60026001556101015460fc54604051632288d73760e11b81526001600160a01b0392831660048201527f0000000000000000000000000000000000000000000000000000000000000000909216602483015260448201527325Af99Ff07575Ac55fB3C2D1E6B920Ba3bf67B4090634511ae6e9060640160206040518083038186803b15801561211557600080fd5b505af4158015612129573d6000803e3d6000fd5b505050506040513d601f19601f8201168201806040525081019061214d9190615636565b5060018055565b60d4546001600160a01b0316331461217e5760405162461bcd60e51b81526004016111d190615834565b600260015414156121a15760405162461bcd60e51b81526004016111d1906158f9565b60026001556121ae613f2e565b60018055565b600260015414156121d75760405162461bcd60e51b81526004016111d1906158f9565b60026001819055506121ae60006001614061565b6065546001600160a01b031633146122155760405162461bcd60e51b81526004016111d1906158a3565b612223620f42406064615b69565b81106122715760405162461bcd60e51b815260206004820152601760248201527f496e76616c696420706572666f726d616e63652066656500000000000000000060448201526064016111d1565b60d55460408051918252602082018390527f24867dfb6fcb9970a07be21024956524abe7a1837faa903ff0e99aaa40cf893e910160405180910390a160d555565b6065546001600160a01b031633146122dc5760405162461bcd60e51b81526004016111d1906158a3565b6122e66000614210565b565b6002600154141561230b5760405162461bcd60e51b81526004016111d1906158f9565b600260015561231981614262565b610102546123279082614429565b610102555060018055565b6060609b80546113de90615bcb565b600061237661234f60995490565b6123576126d6565b60d05460cc546001600160801b0390911690610100900460ff16613c03565b905090565b6002600154141561239e5760405162461bcd60e51b81526004016111d1906158f9565b6002600155806123dd5760405162461bcd60e51b815260206004820152600a602482015269216e756d526f756e647360b01b60448201526064016111d1565b60cf5461ffff1660005b8281101561246c5760006123fb8284615a46565b600081815260ca6020526040902054909150156124485760405162461bcd60e51b815260206004820152600b60248201526a125b9a5d1a585b1a5e995960aa1b60448201526064016111d1565b600090815260ca60205260409020600190558061246481615c06565b9150506123e7565b50506001805550565b3360009081526098602090815260408083206001600160a01b0386168452909152812054828110156124f75760405162461bcd60e51b815260206004820152602560248201527f45524332303a2064656372656173656420616c6c6f77616e63652062656c6f77604482015264207a65726f60d81b60648201526084016111d1565b61250433858584036134d7565b5060019392505050565b6065546001600160a01b031633146125385760405162461bcd60e51b81526004016111d1906158a3565b61012c81101561258a5760405162461bcd60e51b815260206004820152601860248201527f496e76616c69642061756374696f6e206475726174696f6e000000000000000060448201526064016111d1565b60fb5460408051918252602082018390527f5acd982e2240ed224a69aa03dab039d3797c108e4b5f288cd7dd6ca181b275f3910160405180910390a160fb55565b600260015414156125ee5760405162461bcd60e51b81526004016111d1906158f9565b6002600155610100546001600160a01b03168061260a57600080fd5b6000821161261757600080fd5b33600090815260976020526040902054828110156126435761264361263c84836137cc565b6000614061565b61264e3330856135fc565b6126593083856134d7565b6040516383df674760e01b815260048101849052336024820152600060448201526001600160a01b038316906383df674790606401600060405180830381600087803b1580156126a857600080fd5b505af11580156126bc573d6000803e3d6000fd5b5050600180555050505050565b600061146e3384846135fc565b60cc546040516370a0823160e01b815230600482015260009161237691620100009091046001600160a01b0316906370a082319060240160206040518083038186803b15801561272557600080fd5b505afa158015612739573d6000803e3d6000fd5b505050506040513d601f19601f8201168201806040525081019061275d9190615636565b60cf546201000090046001600160681b031690614429565b600260015414156127985760405162461bcd60e51b81526004016111d1906158f9565b6002600155806127ba5760405162461bcd60e51b81526004016111d1906158d8565b6127c48133613939565b60cc5461214d906201000090046001600160a01b0316333084613bcb565b60d4546001600160a01b0316331461280c5760405162461bcd60e51b81526004016111d190615834565b6002600154141561282f5760405162461bcd60e51b81526004016111d1906158f9565b60026001556101025460fd546000908190819061284c9085614435565b60fd81905560d054929550909350915060009061287990600160801b90046001600160801b031686614429565b9050612884816147d0565b60d080546001600160801b03808416600160801b0291161790556000610102556128ad83613ca5565b60cf805462010000600160781b031916620100006001600160681b0386160217905560405183815233906001600160a01b038616907f045c558fdce4714c5816d53820d27420f4cd860892df203fe636384d8d19aa019060200160405180910390a3604051632904c23960e01b81526001600160a01b037f0000000000000000000000000000000000000000000000000000000000000000811660048301527f00000000000000000000000000000000000000000000000000000000000000008116602483015285166044820152606481018490526000907325Af99Ff07575Ac55fB3C2D1E6B920Ba3bf67B4090632904c2399060840160206040518083038186803b1580156129bc57600080fd5b505af41580156129d0573d6000803e3d6000fd5b505050506040513d601f19601f820116820180604052508101906129f49190615636565b61010154604051636648c73d60e11b81526001600160a01b03918216600482015290871660248201526044810182905261138860648201529091507325Af99Ff07575Ac55fB3C2D1E6B920Ba3bf67B409063cc918e7a9060840160206040518083038186803b158015612a6657600080fd5b505af4158015612a7a573d6000803e3d6000fd5b505050506040513d601f19601f82011682018060405250810190612a9e9190615636565b50612aa7613f2e565b50506001805550505050565b610103546001600160a01b031680612aca57600080fd5b612ad660006001614061565b3360008181526097602052604090205490612af29083836134d7565b60405163c9c2d4f560e01b8152336004820152602481018290526001600160a01b0383169063c9c2d4f590604401600060405180830381600087803b158015612b3a57600080fd5b505af1158015612b4e573d6000803e3d6000fd5b505050505050565b6000806000612b648461325b565b909250905061186e8282614429565b60d4546001600160a01b03163314612b9d5760405162461bcd60e51b81526004016111d190615834565b600081118015612bb85750612bb4600a6064615b69565b8111155b612bf75760405162461bcd60e51b815260206004820152601060248201526f125b9d985b1a5908191a5cd8dbdd5b9d60821b60448201526064016111d1565b60f75460408051918252602082018390527f4cd657fde404967d63a338fb06c5c98751a9df57dfae6dc333a432faf8a5f656910160405180910390a160f755565b6065546001600160a01b03163314612c625760405162461bcd60e51b81526004016111d1906158a3565b6001600160a01b038116612ca55760405162461bcd60e51b815260206004820152600a60248201526910b732bba5b2b2b832b960b11b60448201526064016111d1565b60d480546001600160a01b0319166001600160a01b0392909216919091179055565b60026001541415612cea5760405162461bcd60e51b81526004016111d1906158f9565b600260015580612d295760405162461bcd60e51b815260206004820152600a602482015269216e756d53686172657360b01b60448201526064016111d1565b61214d816000614061565b6065546001600160a01b03163314612d5e5760405162461bcd60e51b81526004016111d1906158a3565b6001600160a01b038116612da75760405162461bcd60e51b815260206004820152601060248201526f085b995dd19959549958da5c1a595b9d60821b60448201526064016111d1565b60d3546001600160a01b0382811691161415612e055760405162461bcd60e51b815260206004820152601860248201527f4d757374206265206e657720666565526563697069656e74000000000000000060448201526064016111d1565b60d380546001600160a01b0319166001600160a01b0392909216919091179055565b60026001541415612e4a5760405162461bcd60e51b81526004016111d1906158f9565b600260015560d25460408051610120810182526001600160a01b037f0000000000000000000000000000000000000000000000000000000000000000811682527f00000000000000000000000000000000000000000000000000000000000000008116602083015292831681830181905260006060830181905260f95461ffff16608084015260fa5460a084015260f654851660c084015260f55490941660e083015260f754610100830152915163f39ad79560e01b815291929091819081907325Af99Ff07575Ac55fB3C2D1E6B920Ba3bf67B409063f39ad79590612f3a90879060cc9060cf90600401615930565b60606040518083038186803b158015612f5257600080fd5b505af4158015612f66573d6000803e3d6000fd5b505050506040513d601f19601f82011682018060405250810190612f8a9190615549565b604080518381526020810183905293965091945092507fa217999b1c125c2a996f712c5f26a28addad7167bd8a67d5bd5b2a751148abb0910160405180910390a160d180546001600160a01b0319166001600160a01b0385161790556000612ff24282614429565b905063ffffffff8111156130485760405162461bcd60e51b815260206004820152601860248201527f4f766572666c6f77206e6578744f7074696f6e5265616479000000000000000060448201526064016111d1565b60d2805463ffffffff60a01b1916600160a01b63ffffffff841602179055612aa78661481a565b6065546001600160a01b031633146130995760405162461bcd60e51b81526004016111d1906158a3565b6001600160a01b0381166130fe5760405162461bcd60e51b815260206004820152602660248201527f4f776e61626c653a206e6577206f776e657220697320746865207a65726f206160448201526564647265737360d01b60648201526084016111d1565b61310781614210565b50565b6002600154141561312d5760405162461bcd60e51b81526004016111d1906158f9565b600260015560cc547f00000000000000000000000000000000000000000000000000000000000000006001600160a01b0390811662010000909204161461319e5760405162461bcd60e51b8152602060048201526005602482015264042ae8aa8960db1b60448201526064016111d1565b600034116131d75760405162461bcd60e51b81526020600482015260066024820152652176616c756560d01b60448201526064016111d1565b6131e13433613939565b7f00000000000000000000000000000000000000000000000000000000000000006001600160a01b031663d0e30db0346040518263ffffffff1660e01b81526004016000604051808303818588803b15801561323c57600080fd5b505af1158015613250573d6000803e3d6000fd5b505060018055505050565b6001600160a01b038116600090815260c9602090815260408083208151606081018352905461ffff81168083526201000082046001600160681b031694830194909452600160781b90046001600160801b0316918101919091528291600111156132dd575050506001600160a01b031660009081526097602052604081205491565b60cf54815161ffff908116600090815260ca602052604081205460cc54919361331393869391169190610100900460ff1661498c565b9050613334856001600160a01b031660009081526097602052604090205490565b9590945092505050565b600260015414156133615760405162461bcd60e51b81526004016111d1906158f9565b600260015560006133706149fd565b60fd5490915061338090826137cc565b6001600160801b031660fd555060018055565b6065546001600160a01b031633146133bd5760405162461bcd60e51b81526004016111d1906158a3565b6133cb620f42406064615b69565b81106134125760405162461bcd60e51b8152602060048201526016602482015275496e76616c6964206d616e6167656d656e742066656560501b60448201526064016111d1565b600061342f63031ba30961342984620f4240614bba565b90614bc6565b60d65460408051918252602082018590529192507f4e874b007ab14f7e263baefd44951834c8266f4f224d1092e49e9c254354cc54910160405180910390a160d65550565b6040516001600160a01b038316602482015260448101829052611e6f90849063a9059cbb60e01b906064015b60408051601f198184030181529190526020810180516001600160e01b03166001600160e01b031990931692909217909152614bd2565b6001600160a01b0383166135395760405162461bcd60e51b8152602060048201526024808201527f45524332303a20617070726f76652066726f6d20746865207a65726f206164646044820152637265737360e01b60648201526084016111d1565b6001600160a01b03821661359a5760405162461bcd60e51b815260206004820152602260248201527f45524332303a20617070726f766520746f20746865207a65726f206164647265604482015261737360f01b60648201526084016111d1565b6001600160a01b0383811660008181526098602090815260408083209487168084529482529182902085905590518481527f8c5be1e5ebec7d5bd14f71427d1e84f3dd0314c0f7b2291e5b200ac8c7c3b92591015b60405180910390a3505050565b6001600160a01b0383166136605760405162461bcd60e51b815260206004820152602560248201527f45524332303a207472616e736665722066726f6d20746865207a65726f206164604482015264647265737360d81b60648201526084016111d1565b6001600160a01b0382166136c25760405162461bcd60e51b815260206004820152602360248201527f45524332303a207472616e7366657220746f20746865207a65726f206164647260448201526265737360e81b60648201526084016111d1565b6001600160a01b0383166000908152609760205260409020548181101561373a5760405162461bcd60e51b815260206004820152602660248201527f45524332303a207472616e7366657220616d6f756e7420657863656564732062604482015265616c616e636560d01b60648201526084016111d1565b6001600160a01b03808516600090815260976020526040808220858503905591851681529081208054849290613771908490615a46565b92505081905550826001600160a01b0316846001600160a01b03167fddf252ad1be2c89b69c2b068fc378daa952ba7f163c4a11628f55a4df523b3ef846040516137bd91815260200190565b60405180910390a35b50505050565b600061151d8284615b88565b60cc546001600160a01b03620100009091048116907f00000000000000000000000000000000000000000000000000000000000000001681141561392557604051632e1a7d4d60e01b8152600481018390527f00000000000000000000000000000000000000000000000000000000000000006001600160a01b031690632e1a7d4d90602401600060405180830381600087803b15801561387857600080fd5b505af115801561388c573d6000803e3d6000fd5b505050506000836001600160a01b03168360405160006040518083038185875af1925050503d80600081146138dd576040519150601f19603f3d011682016040523d82523d6000602084013e6138e2565b606091505b50509050806137c65760405162461bcd60e51b815260206004820152600f60248201526e151c985b9cd9995c8819985a5b1959608a1b60448201526064016111d1565b611e6f6001600160a01b0382168484613474565b60cf5461ffff1660006139548461394e6126d6565b90614429565b60ce549091506001600160681b031681111561399f5760405162461bcd60e51b815260206004820152600a6024820152690457863656564206361760b41b60448201526064016111d1565b60cd54600160a01b900466ffffffffffffff168110156139f85760405162461bcd60e51b8152602060048201526014602482015273496e73756666696369656e742062616c616e636560601b60448201526064016111d1565b60408051858152602081018490526001600160a01b038516917f90890809c654f11d6e72a28fa60149770a0d11ec6c92319d6ceb2bb0a4ea1a15910160405180910390a26001600160a01b038316600090815260c9602090815260408083208151606081018352905461ffff81168083526201000082046001600160681b031683860152600160781b9091046001600160801b031682840152845260ca90925282205460cc54919291613ab7918491879190610100900460ff1661498c565b8251909150869061ffff16851415613ae8576020830151600090613ae4906001600160681b031689614429565b9150505b613af181613ca5565b6040805160608101825261ffff80881682526001600160681b0380851660208085019182526001600160801b038089168688019081526001600160a01b038e16600090815260c990935296822095518654935197518216600160781b02600160781b600160f81b03199890951662010000026effffffffffffffffffffffffffffff1990941695169490941791909117949094161790915560d054613b97911689614429565b9050613ba2816147d0565b60d080546001600160801b0319166001600160801b039290921691909117905550505050505050565b6040516001600160a01b03808516602483015283166044820152606481018290526137c69085906323b872dd60e01b906084016134a0565b600080613c1183600a615ac1565b905060008611613c215780613c39565b613c3986613429613c3288886137cc565b8490614bba565b9695505050505050565b600060018311613c8d5760405162461bcd60e51b8152602060048201526015602482015274496e76616c6964206173736574506572536861726560581b60448201526064016111d1565b61186e613c9b83600a615ac1565b6134298686614bba565b6001600160681b038111156131075760405162461bcd60e51b815260206004820152601060248201526f13dd995c999b1bddc81d5a5b9d0c4c0d60821b60448201526064016111d1565b600054610100900460ff1680613d08575060005460ff16155b613d245760405162461bcd60e51b81526004016111d190615855565b600054610100900460ff16158015613d46576000805461ffff19166101011790555b60405163c72733f760e01b81527325Af99Ff07575Ac55fB3C2D1E6B920Ba3bf67B409063c72733f790613d8b908c908c908c908b908d908c908c908c90600401615727565b60006040518083038186803b158015613da357600080fd5b505af4158015613db7573d6000803e3d6000fd5b50505050613dc3614ca4565b613dcd8484614d17565b613dd5614d96565b613dde8961306f565b60d480546001600160a01b03808b166001600160a01b03199283161790925560d38054928a169290911691909117905560d5859055613e2863031ba30961342988620f4240614bba565b60d6558160cc613e388282615c5e565b505060cc546040516370a0823160e01b81523060048201526000916201000090046001600160a01b0316906370a082319060240160206040518083038186803b158015613e8457600080fd5b505afa158015613e98573d6000803e3d6000fd5b505050506040513d601f19601f82011682018060405250810190613ebc9190615636565b9050613ec781613ca5565b60cf805461ffff196001600160681b03909316600160781b02929092167fffffffff00000000000000000000000000ffffffffffffffffffffffffff00009092169190911760011790558015613f23576000805461ff00191690555b505050505050505050565b6040805160c08101825260d2546001600160a01b039081168083527f000000000000000000000000000000000000000000000000000000000000000082166020840190815260cc54620100008104841685870190815260ff610100909204919091166060860190815260f8546080870190815260fb5460a088019081529751633baf17fd60e21b8152875187166004820152935186166024850152915190941660448301529251606482015291516084830152925160a48201529091907325Af99Ff07575Ac55fB3C2D1E6B920Ba3bf67B409063eebc5ff49060c40160206040518083038186803b15801561402257600080fd5b505af4158015614036573d6000803e3d6000fd5b505050506040513d601f19601f8201168201806040525081019061405a9190615636565b60fc555050565b33600090815260c9602090815260408083208151606081018352905461ffff8082168084526201000083046001600160681b031684870152600160781b9092046001600160801b03168385015260cf5491865260ca9094529184205460cc54919492909316926140dc9185918591610100900460ff1661498c565b9050836140e957846140eb565b805b9450846140f9575050505050565b8085111561413d5760405162461bcd60e51b81526020600482015260116024820152704578636565647320617661696c61626c6560781b60448201526064016111d1565b825161ffff1682111561416a5733600090815260c960205260409020805462010000600160781b03191690555b614173856147d0565b61417d81866137cc565b33600081815260c960205260409081902080546001600160801b0394909416600160781b02600160781b600160f81b0319909416939093179092558451915190917fe5b754fb1abb7f01b499791d0b820ae3b6af3424ac1c59768edb53f4ec31a929916141f69189825261ffff16602082015260400190565b60405180910390a26142093033876135fc565b5050505050565b606580546001600160a01b038381166001600160a01b0319831681179093556040519116919082907f8be0079c531659141344cd1fd0a4f28419497f9722a3daafe3b4186f6b6457e090600090a35050565b6000811161429f5760405162461bcd60e51b815260206004820152600a602482015269216e756d53686172657360b01b60448201526064016111d1565b33600090815260c960205260409020546201000090046001600160681b03161515806142e9575033600090815260c96020526040902054600160781b90046001600160801b031615155b156142fa576142fa60006001614061565b60cf5433600081815260cb60209081526040918290208054835187815261ffff96871693810184905292959194911685149290917f0c53c82ad07e2d592d88ece3b066777dd60f1118e2a081b380efc4358f0d9e2a910160405180910390a281546201000090046001600160801b0316600082156143835761437c8287614429565b90506143e6565b81156143c55760405162461bcd60e51b81526020600482015260116024820152704578697374696e6720776974686472617760781b60448201526064016111d1565b5033600090815260cb60205260409020805461ffff191661ffff8616179055845b6143ef816147d0565b33600081815260cb60205260409020805462010000600160901b031916620100006001600160801b03851602179055612b4e9030886135fc565b600061151d8284615a46565b60d25460009081908190600160a01b900463ffffffff164210156144845760405162461bcd60e51b815260206004820152600660248201526521726561647960d01b60448201526064016111d1565b60d1546001600160a01b03169250826144cd5760405162461bcd60e51b815260206004820152600b60248201526a10b732bc3a27b83a34b7b760a91b60448201526064016111d1565b60d3546040805160e08101825260cc54610100810460ff16825291516370a0823160e01b81523060048201526001600160a01b03938416936000938493849384937325Af99Ff07575Ac55fB3C2D1E6B920Ba3bf67B409363633c14269360cf939092602084019262010000900416906370a082319060240160206040518083038186803b15801561455d57600080fd5b505afa158015614571573d6000803e3d6000fd5b505050506040513d601f19601f820116820180604052508101906145959190615636565b81526020016145a360995490565b81526020018e815260200160d554815260200160d65481526020018d8152506040518363ffffffff1660e01b815260040161463092919060006101008201905083825282516020830152602083015160408301526040830151606083015260608301516080830152608083015160a083015260a083015160c083015260c083015160e08301529392505050565b60c06040518083038186803b15801561464857600080fd5b505af415801561465c573d6000803e3d6000fd5b505050506040513d601f19601f820116820180604052508101906146809190615672565b809750819850829950839650849b50859c505050505050508760d160010160006101000a8154816001600160a01b0302191690836001600160a01b03160217905550600060d160000160006101000a8154816001600160a01b0302191690836001600160a01b03160217905550600060cf60000160009054906101000a900461ffff1661ffff1690508160ca600083815260200190815260200160002081905550856001600160a01b03167f0a242f7ecaf711036ca770774ceffae28e60ef042ac113ddd187f2631db0c00685858460405161476f939291909283526020830191909152604082015260600190565b60405180910390a260d080546001600160801b0319169055614792816001615a46565b60cf805461ffff191661ffff92909216919091179055506147b590503084614dfd565b80156147c5576147c584826137d8565b505050509250925092565b6001600160801b038111156131075760405162461bcd60e51b815260206004820152601060248201526f09eeccae4ccd8deee40ead2dce86264760831b60448201526064016111d1565b60cf546201000090046001600160681b03166001600160a01b038216156148665760cf80546cffffffffffffffffffffffffff60781b1916600160781b6001600160681b038416021790555b60cf805462010000600160781b031916905560d280546001600160a01b03191690556001600160a01b038216156113cb57604051636c6fe87f60e11b81526001600160a01b037f00000000000000000000000000000000000000000000000000000000000000001660048201526000907325Af99Ff07575Ac55fB3C2D1E6B920Ba3bf67B409063d8dfd0fe9060240160206040518083038186803b15801561490d57600080fd5b505af4158015614921573d6000803e3d6000fd5b505050506040513d601f19601f820116820180604052508101906149459190615636565b9050336001600160a01b0316836001600160a01b03167f7e830f7c1771deb1bdb35c4a7e6051bbac32b376f7f4e4976b8618b0b11997f7836040516135ef91815260200190565b835160009061ffff16158015906149a75750845161ffff1684115b156149e95760006149c686602001516001600160681b03168585614edc565b60408701519091506149e1906001600160801b031682614429565b91505061186e565b50505050604001516001600160801b031690565b33600090815260cb6020526040812080546001600160801b03620100008204169061ffff1681614a5f5760405162461bcd60e51b815260206004820152600d60248201526c139bdd081a5b9a5d1a585d1959609a1b60448201526064016111d1565b60cf5461ffff168110614aa75760405162461bcd60e51b815260206004820152601060248201526f149bdd5b99081b9bdd0818db1bdcd95960821b60448201526064016111d1565b33600090815260cb60205260409020805462010000600160901b031916905560d054614ae390600160801b90046001600160801b0316836137cc565b60d080546001600160801b03928316600160801b029216919091179055600081815260ca602052604081205460cc54614b2691859160ff61010090910416613c43565b604080518281526020810186905291925033917ff279e6a1f5e320cca91135676d9cb6e44ca8a08c0b88342bcdb1144f6511b568910160405180910390a2614b6e3084614f3f565b60008111614bb05760405162461bcd60e51b815260206004820152600f60248201526e085dda5d1a191c985dd05b5bdd5b9d608a1b60448201526064016111d1565b61186e33826137d8565b600061151d8284615b69565b600061151d8284615a5e565b6000614c27826040518060400160405280602081526020017f5361666545524332303a206c6f772d6c6576656c2063616c6c206661696c6564815250856001600160a01b031661508d9092919063ffffffff16565b805190915015611e6f5780806020019051810190614c45919061557f565b611e6f5760405162461bcd60e51b815260206004820152602a60248201527f5361666545524332303a204552433230206f7065726174696f6e20646964206e6044820152691bdd081cdd58d8d9595960b21b60648201526084016111d1565b600054610100900460ff1680614cbd575060005460ff16155b614cd95760405162461bcd60e51b81526004016111d190615855565b600054610100900460ff16158015614cfb576000805461ffff19166101011790555b614d0361509c565b8015613107576000805461ff001916905550565b600054610100900460ff1680614d30575060005460ff16155b614d4c5760405162461bcd60e51b81526004016111d190615855565b600054610100900460ff16158015614d6e576000805461ffff19166101011790555b614d7661510b565b614d808383615175565b8015611e6f576000805461ff0019169055505050565b600054610100900460ff1680614daf575060005460ff16155b614dcb5760405162461bcd60e51b81526004016111d190615855565b600054610100900460ff16158015614ded576000805461ffff19166101011790555b614df561510b565b614d0361520a565b6001600160a01b038216614e535760405162461bcd60e51b815260206004820152601f60248201527f45524332303a206d696e7420746f20746865207a65726f20616464726573730060448201526064016111d1565b8060996000828254614e659190615a46565b90915550506001600160a01b03821660009081526097602052604081208054839290614e92908490615a46565b90915550506040518181526001600160a01b038316906000907fddf252ad1be2c89b69c2b068fc378daa952ba7f163c4a11628f55a4df523b3ef9060200160405180910390a35050565b600060018311614f265760405162461bcd60e51b8152602060048201526015602482015274496e76616c6964206173736574506572536861726560581b60448201526064016111d1565b61186e83613429614f3885600a615ac1565b8790614bba565b6001600160a01b038216614f9f5760405162461bcd60e51b815260206004820152602160248201527f45524332303a206275726e2066726f6d20746865207a65726f206164647265736044820152607360f81b60648201526084016111d1565b6001600160a01b038216600090815260976020526040902054818110156150135760405162461bcd60e51b815260206004820152602260248201527f45524332303a206275726e20616d6f756e7420657863656564732062616c616e604482015261636560f01b60648201526084016111d1565b6001600160a01b0383166000908152609760205260408120838303905560998054849290615042908490615b88565b90915550506040518281526000906001600160a01b038516907fddf252ad1be2c89b69c2b068fc378daa952ba7f163c4a11628f55a4df523b3ef9060200160405180910390a3505050565b606061186e848460008561526a565b600054610100900460ff16806150b5575060005460ff16155b6150d15760405162461bcd60e51b81526004016111d190615855565b600054610100900460ff161580156150f3576000805461ffff19166101011790555b600180558015613107576000805461ff001916905550565b600054610100900460ff1680615124575060005460ff16155b6151405760405162461bcd60e51b81526004016111d190615855565b600054610100900460ff16158015614d03576000805461ffff19166101011790558015613107576000805461ff001916905550565b600054610100900460ff168061518e575060005460ff16155b6151aa5760405162461bcd60e51b81526004016111d190615855565b600054610100900460ff161580156151cc576000805461ffff19166101011790555b82516151df90609a9060208601906153cb565b5081516151f390609b9060208501906153cb565b508015611e6f576000805461ff0019169055505050565b600054610100900460ff1680615223575060005460ff16155b61523f5760405162461bcd60e51b81526004016111d190615855565b600054610100900460ff16158015615261576000805461ffff19166101011790555b614d0333614210565b6060824710156152cb5760405162461bcd60e51b815260206004820152602660248201527f416464726573733a20696e73756666696369656e742062616c616e636520666f6044820152651c8818d85b1b60d21b60648201526084016111d1565b843b6153195760405162461bcd60e51b815260206004820152601d60248201527f416464726573733a2063616c6c20746f206e6f6e2d636f6e747261637400000060448201526064016111d1565b600080866001600160a01b03168587604051615335919061570b565b60006040518083038185875af1925050503d8060008114615372576040519150601f19603f3d011682016040523d82523d6000602084013e615377565b606091505b5091509150615387828286615392565b979650505050505050565b606083156153a157508161151d565b8251156153b15782518084602001fd5b8160405162461bcd60e51b81526004016111d19190615821565b8280546153d790615bcb565b90600052602060002090601f0160209004810192826153f9576000855561543f565b82601f1061541257805160ff191683800117855561543f565b8280016001018555821561543f579182015b8281111561543f578251825591602001919060010190615424565b5061544b92915061544f565b5090565b5b8082111561544b5760008155600101615450565b803561546f81615d6f565b919050565b803561546f81615d92565b803561546f81615da7565b60006020828403121561549b578081fd5b813561151d81615d6f565b600080604083850312156154b8578081fd5b82356154c381615d6f565b915060208301356154d381615d6f565b809150509250929050565b6000806000606084860312156154f2578081fd5b83356154fd81615d6f565b9250602084013561550d81615d6f565b929592945050506040919091013590565b60008060408385031215615530578182fd5b823561553b81615d6f565b946020939093013593505050565b60008060006060848603121561555d578283fd5b835161556881615d6f565b602085015160409095015190969495509392505050565b600060208284031215615590578081fd5b815161151d81615d84565b60008082840360e08112156155ae578283fd5b833567ffffffffffffffff8111156155c4578384fd5b840161016081870312156155d6578384fd5b925060c0601f19820112156155e9578182fd5b506020830190509250929050565b600060208284031215615608578081fd5b81356001600160801b038116811461151d578182fd5b60006020828403121561562f578081fd5b5035919050565b600060208284031215615647578081fd5b5051919050565b60008060408385031215615660578182fd5b8235915060208301356154d381615d6f565b60008060008060008060c0878903121561568a578182fd5b865195506020870151945060408701519350606087015192506080870151915060a087015190509295509295509295565b6000602082840312156156cc578081fd5b813563ffffffff8116811461151d578182fd5b600081518084526156f7816020860160208601615b9f565b601f01601f19169290920160200192915050565b6000825161571d818460208701615b9f565b9190910192915050565b60006101a060018060a01b03808c168452808b166020850152808a1660408501528860608501528760808501528160a0850152615766828501886156df565b915083820360c085015261577a82876156df565b92508435915061578982615d84565b90151560e08401526020840135906157a082615dbc565b60ff8216610100850152604085013591506157ba82615d6f565b166101208301526157cd60608401615464565b6001600160a01b03166101408301526157e86080840161547f565b66ffffffffffffff1661016083015261580360a08401615474565b6001600160681b038116610180840152509998505050505050505050565b60208152600061151d60208301846156df565b60208082526007908201526610b5b2b2b832b960c91b604082015260600190565b6020808252602e908201527f496e697469616c697a61626c653a20636f6e747261637420697320616c72656160408201526d191e481a5b9a5d1a585b1a5e995960921b606082015260800190565b6020808252818101527f4f776e61626c653a2063616c6c6572206973206e6f7420746865206f776e6572604082015260600190565b60208082526007908201526608585b5bdd5b9d60ca1b604082015260600190565b6020808252601f908201527f5265656e7472616e637947756172643a207265656e7472616e742063616c6c00604082015260600190565b83516001600160a01b0316815260208085015161016083019161595d908401826001600160a01b03169052565b50604085015161597860408401826001600160a01b03169052565b50606085015160608301526080850151615998608084018261ffff169052565b5060a085015160a083015260c08501516159bd60c08401826001600160a01b03169052565b5060e08501516159d860e08401826001600160a01b03169052565b5061010094850151948201949094526101208101929092526101409091015290565b6000808335601e19843603018112615a10578283fd5b83018035915067ffffffffffffffff821115615a2a578283fd5b602001915036819003821315615a3f57600080fd5b9250929050565b60008219821115615a5957615a59615c21565b500190565b600082615a7957634e487b7160e01b81526012600452602481fd5b500490565b600181815b80851115615ab9578160001904821115615a9f57615a9f615c21565b80851615615aac57918102915b93841c9390800290615a83565b509250929050565b600061151d8383600082615ad757506001611472565b81615ae457506000611472565b8160018114615afa5760028114615b0457615b20565b6001915050611472565b60ff841115615b1557615b15615c21565b50506001821b611472565b5060208310610133831016604e8410600b8410161715615b43575081810a611472565b615b4d8383615a7e565b8060001904821115615b6157615b61615c21565b029392505050565b6000816000190483118215151615615b8357615b83615c21565b500290565b600082821015615b9a57615b9a615c21565b500390565b60005b83811015615bba578181015183820152602001615ba2565b838111156137c65750506000910152565b600181811c90821680615bdf57607f821691505b60208210811415615c0057634e487b7160e01b600052602260045260246000fd5b50919050565b6000600019821415615c1a57615c1a615c21565b5060010190565b634e487b7160e01b600052601160045260246000fd5b6000813561147281615d6f565b6000813561147281615d92565b6000813561147281615da7565b8135615c6981615d84565b815460ff19811691151560ff1691821783556020840135615c8981615dbc565b61ff008160081b169050808361ffff198416171784556040850135615cad81615d6f565b6001600160b01b0319929092169092179190911760109190911b62010000600160b01b031617815560018101615d05615ce860608501615c37565b82546001600160a01b0319166001600160a01b0391909116178255565b615d3e615d1460808501615c51565b82805466ffffffffffffff60a01b191660a09290921b66ffffffffffffff60a01b16919091179055565b506113cb615d4e60a08401615c44565b600283016001600160681b0382166001600160681b03198254161781555050565b6001600160a01b038116811461310757600080fd5b801515811461310757600080fd5b6001600160681b038116811461310757600080fd5b66ffffffffffffff8116811461310757600080fd5b60ff8116811461310757600080fdfea26469706673582212205fbcaa8781187325d25b31e13bacef69edce6157041a37dc50e9cf290afbc57364736f6c63430008040033",
  "deployedBytecode": "0x6080604052600436106104c05760003560e01c806387153eb111610276578063b4d1d7951161014f578063e73c63d5116100c1578063f656ba5111610085578063f656ba51146110db578063f756fa2114611110578063f957a06714611125578063f9a0be6814611145578063fba7dc6114611166578063fe56e2321461118757600080fd5b8063e73c63d514611068578063e74b981b1461107e578063ea00b1ca1461109e578063f2fde38b146110b3578063f6326fb3146110d357600080fd5b8063d13f1b3e11610113578063d13f1b3e14610f78578063d164cc1514610f98578063d5f2638214610fb8578063db006a7514610fce578063db43e86214610fee578063dd62ed3e1461102257600080fd5b8063b4d1d79514610ef7578063b6b55f2514610f0e578063b9f8092b14610f2e578063ca59409414610f43578063ce7c2ac214610f5857600080fd5b8063a285c9e8116101e8578063a6f7f5d6116101ac578063a6f7f5d614610e38578063a9059cbb14610e4e578063aced166114610e6e578063ad5c464814610e8e578063ad7a672f14610ec2578063afa6626414610ed757600080fd5b8063a285c9e814610d98578063a2db9d8314610dba578063a457c2d714610dd8578063a497e67414610df8578063a694fc3a14610e1857600080fd5b8063947061b51161023a578063947061b514610c1e57806395d89b4114610c3f57806399530b0614610c545780639be43daa14610c695780639fcc2d7514610c89578063a083ff1714610d3557600080fd5b806387153eb114610b6b5780638778878214610b9857806389a3027114610bae5780638b10cc7c14610be25780638da5cb5b14610c0057600080fd5b806347786d37116103a85780636719b2ee1161031a57806370897b23116102de57806370897b2314610a6657806370a0823114610a86578063715018a614610abc5780637a9262a214610ad15780637e108d5214610b3557806383536ff314610b5557600080fd5b80636719b2ee1461096f57806369b41170146109f35780636b64c76914610a085780636c10f66c14610a1d5780636f31ab3414610a5157600080fd5b8063573f0d6e1161036c578063573f0d6e146108b157806358358207146108d15780635ea8cd12146108f1578063600a2cfb14610911578063611b034d14610926578063650cce8a1461093b57600080fd5b806347786d37146108245780634ac88cb6146108445780634b2431d914610864578063503c70aa1461087b57806355489bb21461089157600080fd5b806330630da4116104415780633ec143d3116104055780633ec143d3146107625780633f23bb73146107905780633f90916a146107b0578063432833a6146107ce5780634603c0aa146107e4578063469048401461080457600080fd5b806330630da4146106ba578063313ce567146106da578063355274ea1461070457806336efd16f14610722578063395093511461074257600080fd5b806318160ddd1161048857806318160ddd146105865780631a92f6c21461059b57806323b872dd146105e75780632728f333146106075780632775d01c1461069a57600080fd5b8063048bf085146104c5578063056097ac146104e757806306fdde0314610507578063095ea7b3146105325780630cbf54c814610562575b600080fd5b3480156104d157600080fd5b506104e56104e036600461548a565b6111a7565b005b3480156104f357600080fd5b506104e56105023660046154a6565b6111fd565b34801561051357600080fd5b5061051c6113cf565b6040516105299190615821565b60405180910390f35b34801561053e57600080fd5b5061055261054d36600461551e565b611461565b6040519015158152602001610529565b34801561056e57600080fd5b5061057860fb5481565b604051908152602001610529565b34801561059257600080fd5b50609954610578565b3480156105a757600080fd5b506105cf7f000000000000000000000000000000000000000000000000000000000000000081565b6040516001600160a01b039091168152602001610529565b3480156105f357600080fd5b506105526106023660046154de565b611478565b34801561061357600080fd5b5060cf5460d0546106559161ffff8116916001600160681b03620100008304811692600160781b900416906001600160801b0380821691600160801b90041685565b6040805161ffff90961686526001600160681b03948516602087015293909216928401929092526001600160801b03918216606084015216608082015260a001610529565b3480156106a657600080fd5b506104e56106b536600461561e565b611524565b3480156106c657600080fd5b506104e56106d536600461548a565b6116c7565b3480156106e657600080fd5b5060cc54610100900460ff1660405160ff9091168152602001610529565b34801561071057600080fd5b5060ce546001600160681b0316610578565b34801561072e57600080fd5b506104e561073d36600461564e565b61175f565b34801561074e57600080fd5b5061055261075d36600461551e565b6117e7565b34801561076e57600080fd5b5060f95461077d9061ffff1681565b60405161ffff9091168152602001610529565b34801561079c57600080fd5b506105786107ab36600461548a565b611823565b3480156107bc57600080fd5b5060d0546001600160801b0316610578565b3480156107da57600080fd5b5061057860fc5481565b3480156107f057600080fd5b506104e56107ff36600461548a565b611876565b34801561081057600080fd5b5060d3546105cf906001600160a01b031681565b34801561083057600080fd5b506104e561083f36600461561e565b611918565b34801561085057600080fd5b506104e561085f36600461548a565b6119f3565b34801561087057600080fd5b506105786101025481565b34801561088757600080fd5b5061057860fd5481565b34801561089d57600080fd5b506104e56108ac3660046155f7565b611a40565b3480156108bd57600080fd5b506104e56108cc36600461548a565b611ad8565b3480156108dd57600080fd5b506104e56108ec36600461559b565b611b25565b3480156108fd57600080fd5b506104e561090c36600461561e565b611e74565b34801561091d57600080fd5b506104e5611edf565b34801561093257600080fd5b506104e561203a565b34801561094757600080fd5b506105cf7f000000000000000000000000000000000000000000000000000000000000000081565b34801561097b57600080fd5b506109c261098a36600461548a565b60c96020526000908152604090205461ffff8116906201000081046001600160681b031690600160781b90046001600160801b031683565b6040805161ffff90941684526001600160681b0390921660208401526001600160801b031690820152606001610529565b3480156109ff57600080fd5b50610578600081565b348015610a1457600080fd5b506104e5612154565b348015610a2957600080fd5b506105cf7f000000000000000000000000000000000000000000000000000000000000000081565b348015610a5d57600080fd5b506104e56121b4565b348015610a7257600080fd5b506104e5610a8136600461561e565b6121eb565b348015610a9257600080fd5b50610578610aa136600461548a565b6001600160a01b031660009081526097602052604090205490565b348015610ac857600080fd5b506104e56122b2565b348015610add57600080fd5b50610b13610aec36600461548a565b60cb6020526000908152604090205461ffff8116906201000090046001600160801b031682565b6040805161ffff90931683526001600160801b03909116602083015201610529565b348015610b4157600080fd5b506104e5610b5036600461561e565b6122e8565b348015610b6157600080fd5b5061057860f75481565b348015610b7757600080fd5b50610578610b8636600461561e565b60ca6020526000908152604090205481565b348015610ba457600080fd5b5061057860d55481565b348015610bba57600080fd5b506105cf7f000000000000000000000000000000000000000000000000000000000000000081565b348015610bee57600080fd5b5060d2546001600160a01b03166105cf565b348015610c0c57600080fd5b506065546001600160a01b03166105cf565b348015610c2a57600080fd5b50610103546105cf906001600160a01b031681565b348015610c4b57600080fd5b5061051c612332565b348015610c6057600080fd5b50610578612341565b348015610c7557600080fd5b506104e5610c8436600461561e565b61237b565b348015610c9557600080fd5b5060cc5460cd5460ce54610ce59260ff808216936101008304909116926001600160a01b036201000090930483169282169166ffffffffffffff600160a01b90910416906001600160681b031686565b60408051961515875260ff90951660208701526001600160a01b03938416948601949094529116606084015266ffffffffffffff1660808301526001600160681b031660a082015260c001610529565b348015610d4157600080fd5b5060d15460d254610d6c916001600160a01b039081169190811690600160a01b900463ffffffff1683565b604080516001600160a01b03948516815293909216602084015263ffffffff1690820152606001610529565b348015610da457600080fd5b5060d254600160a01b900463ffffffff16610578565b348015610dc657600080fd5b5060d1546001600160a01b03166105cf565b348015610de457600080fd5b50610552610df336600461551e565b612475565b348015610e0457600080fd5b506104e5610e1336600461561e565b61250e565b348015610e2457600080fd5b506104e5610e3336600461561e565b6125cb565b348015610e4457600080fd5b5061057860d65481565b348015610e5a57600080fd5b50610552610e6936600461551e565b6126c9565b348015610e7a57600080fd5b5060d4546105cf906001600160a01b031681565b348015610e9a57600080fd5b506105cf7f000000000000000000000000000000000000000000000000000000000000000081565b348015610ece57600080fd5b506105786126d6565b348015610ee357600080fd5b5060f5546105cf906001600160a01b031681565b348015610f0357600080fd5b5061057862093a8081565b348015610f1a57600080fd5b506104e5610f2936600461561e565b612775565b348015610f3a57600080fd5b506104e56127e2565b348015610f4f57600080fd5b506104e5612ab3565b348015610f6457600080fd5b50610578610f7336600461548a565b612b56565b348015610f8457600080fd5b506104e5610f9336600461561e565b612b73565b348015610fa457600080fd5b506104e5610fb336600461548a565b612c38565b348015610fc457600080fd5b5061057860f85481565b348015610fda57600080fd5b506104e5610fe936600461561e565b612cc7565b348015610ffa57600080fd5b506105cf7f000000000000000000000000000000000000000000000000000000000000000081565b34801561102e57600080fd5b5061057861103d3660046154a6565b6001600160a01b03918216600090815260986020908152604080832093909416825291909152205490565b34801561107457600080fd5b5061057860fa5481565b34801561108a57600080fd5b506104e561109936600461548a565b612d34565b3480156110aa57600080fd5b506104e5612e27565b3480156110bf57600080fd5b506104e56110ce36600461548a565b61306f565b6104e561310a565b3480156110e757600080fd5b506110fb6110f636600461548a565b61325b565b60408051928352602083019190915201610529565b34801561111c57600080fd5b506104e561333e565b34801561113157600080fd5b5060f6546105cf906001600160a01b031681565b34801561115157600080fd5b50610100546105cf906001600160a01b031681565b34801561117257600080fd5b50610101546105cf906001600160a01b031681565b34801561119357600080fd5b506104e56111a236600461561e565b613393565b6065546001600160a01b031633146111da5760405162461bcd60e51b81526004016111d1906158a3565b60405180910390fd5b61010080546001600160a01b0319166001600160a01b0392909216919091179055565b6065546001600160a01b031633146112275760405162461bcd60e51b81526004016111d1906158a3565b60cc546001600160a01b038381166201000090920416141561128b5760405162461bcd60e51b815260206004820152601b60248201527f5661756c74206173736574206e6f74207265636f76657261626c65000000000060448201526064016111d1565b6001600160a01b0382163014156112e45760405162461bcd60e51b815260206004820152601b60248201527f5661756c74207368617265206e6f74207265636f76657261626c65000000000060448201526064016111d1565b6001600160a01b03811630141561133d5760405162461bcd60e51b815260206004820152601960248201527f526563697069656e742063616e6e6f74206265207661756c740000000000000060448201526064016111d1565b6040516370a0823160e01b81523060048201526113cb9082906001600160a01b038516906370a082319060240160206040518083038186803b15801561138257600080fd5b505afa158015611396573d6000803e3d6000fd5b505050506040513d601f19601f820116820180604052508101906113ba9190615636565b6001600160a01b0385169190613474565b5050565b6060609a80546113de90615bcb565b80601f016020809104026020016040519081016040528092919081815260200182805461140a90615bcb565b80156114575780601f1061142c57610100808354040283529160200191611457565b820191906000526020600020905b81548152906001019060200180831161143a57829003601f168201915b5050505050905090565b600061146e3384846134d7565b5060015b92915050565b60006114858484846135fc565b6001600160a01b03841660009081526098602090815260408083203384529091529020548281101561150a5760405162461bcd60e51b815260206004820152602860248201527f45524332303a207472616e7366657220616d6f756e74206578636565647320616044820152676c6c6f77616e636560c01b60648201526084016111d1565b61151785338584036134d7565b60019150505b9392505050565b600260015414156115475760405162461bcd60e51b81526004016111d1906158f9565b600260015533600090815260c96020526040902060cf5461ffff168261157f5760405162461bcd60e51b81526004016111d1906158d8565b815461ffff1681146115c35760405162461bcd60e51b815260206004820152600d60248201526c125b9d985b1a59081c9bdd5b99609a1b60448201526064016111d1565b81546201000090046001600160681b0316838110156116145760405162461bcd60e51b815260206004820152600d60248201526c115e18d9595908185b5bdd5b9d609a1b60448201526064016111d1565b61161e81856137cc565b83546001600160681b0391909116620100000262010000600160781b031990911617835560d054611658906001600160801b0316856137cc565b60d080546001600160801b0319166001600160801b0392909216919091179055604080518581526020810184905233917fab2daf3c146ca6416cbccd2a86ed2ba995e171ef6319df14a38aef01403a9c96910160405180910390a26116bd33856137d8565b5050600180555050565b6065546001600160a01b031633146116f15760405162461bcd60e51b81526004016111d1906158a3565b6001600160a01b03811661173d5760405162461bcd60e51b815260206004820152601360248201527210b732bba9ba3934b5b2a9b2b632b1ba34b7b760691b60448201526064016111d1565b60f680546001600160a01b0319166001600160a01b0392909216919091179055565b600260015414156117825760405162461bcd60e51b81526004016111d1906158f9565b6002600155816117a45760405162461bcd60e51b81526004016111d1906158d8565b6001600160a01b0381166117b757600080fd5b6117c18282613939565b60cc546117df906201000090046001600160a01b0316333085613bcb565b505060018055565b3360008181526098602090815260408083206001600160a01b0387168452909152812054909161146e91859061181e908690615a46565b6134d7565b60cc5460009060ff610100909104168161185961183f60995490565b6118476126d6565b60d0546001600160801b031685613c03565b905061186e61186785612b56565b8284613c43565b949350505050565b6065546001600160a01b031633146118a05760405162461bcd60e51b81526004016111d1906158a3565b6001600160a01b0381166118f65760405162461bcd60e51b815260206004820152601860248201527f216e65774f7074696f6e735072656d69756d507269636572000000000000000060448201526064016111d1565b60f580546001600160a01b0319166001600160a01b0392909216919091179055565b6065546001600160a01b031633146119425760405162461bcd60e51b81526004016111d1906158a3565b6000811161197c5760405162461bcd60e51b81526020600482015260076024820152660216e65774361760cc1b60448201526064016111d1565b61198581613ca5565b60ce54604080516001600160681b039092168252602082018390527f5f86edbb9d92228a9edc3f0ebc0f001bda1ea345ac7335e0eeef3504b31d1a1c910160405180910390a160ce80546cffffffffffffffffffffffffff19166001600160681b0392909216919091179055565b6065546001600160a01b03163314611a1d5760405162461bcd60e51b81526004016111d1906158a3565b61010180546001600160a01b0319166001600160a01b0392909216919091179055565b6065546001600160a01b03163314611a6a5760405162461bcd60e51b81526004016111d1906158a3565b6000816001600160801b031611611ab25760405162461bcd60e51b815260206004820152600c60248201526b21737472696b65507269636560a01b60448201526064016111d1565b6001600160801b031660fa5560cf5460f9805461ffff191661ffff909216919091179055565b6065546001600160a01b03163314611b025760405162461bcd60e51b81526004016111d1906158a3565b61010380546001600160a01b0319166001600160a01b0392909216919091179055565b600054610100900460ff1680611b3e575060005460ff16155b611b5a5760405162461bcd60e51b81526004016111d190615855565b600054610100900460ff16158015611b7c576000805461ffff19166101011790555b611c41611b8c602085018561548a565b611b9c604086016020870161548a565b611bac606087016040880161548a565b60608701356080880135611bc360a08a018a6159fa565b8080601f016020809104026020016040519081016040528093929190818152602001838380828437600092019190915250611c059250505060c08b018b6159fa565b8080601f0160208091040260200160405190810160405280939291908181526020018383808284376000920191909152508c9250613cef915050565b6000611c54610100850160e0860161548a565b6001600160a01b03161415611ca45760405162461bcd60e51b815260206004820152601660248201527510afb7b83a34b7b739a83932b6b4bab6a83934b1b2b960511b60448201526064016111d1565b6000611cb86101208501610100860161548a565b6001600160a01b03161415611d035760405162461bcd60e51b815260206004820152601160248201527010afb9ba3934b5b2a9b2b632b1ba34b7b760791b60448201526064016111d1565b6000611d17610140850161012086016156bb565b63ffffffff16118015611d4b5750611d31600a6064615b69565b611d43610140850161012086016156bb565b63ffffffff16105b611d8b5760405162461bcd60e51b81526020600482015260116024820152700857dc1c995b5a5d5b511a5cd8dbdd5b9d607a1b60448201526064016111d1565b61012c8361014001351015611dd65760405162461bcd60e51b815260206004820152601160248201527010afb0bab1ba34b7b7223ab930ba34b7b760791b60448201526064016111d1565b611de7610100840160e0850161548a565b60f580546001600160a01b0319166001600160a01b0392909216919091179055611e196101208401610100850161548a565b60f680546001600160a01b0319166001600160a01b0392909216919091179055611e4b610140840161012085016156bb565b63ffffffff1660f75561014083013560fb558015611e6f576000805461ff00191690555b505050565b60d4546001600160a01b03163314611e9e5760405162461bcd60e51b81526004016111d190615834565b60008111611eda5760405162461bcd60e51b8152602060048201526009602482015268216d696e507269636560b81b60448201526064016111d1565b60f855565b60d4546001600160a01b03163314611f095760405162461bcd60e51b81526004016111d190615834565b60026001541415611f2c5760405162461bcd60e51b81526004016111d1906158f9565b600260015560d2546040516358ffbb3d60e01b81526001600160a01b037f000000000000000000000000000000000000000000000000000000000000000081166004830152909116602482015260009073__$c4f279750f4bbb575ac7775e752dc00849$__906358ffbb3d9060440160206040518083038186803b158015611fb357600080fd5b505af4158015611fc7573d6000803e3d6000fd5b505050506040513d601f19601f82011682018060405250810190611feb9190615636565b60cf5490915061200a906201000090046001600160681b0316826137cc565b60cf80546001600160681b0392909216620100000262010000600160781b03199092169190911790555060018055565b60d4546001600160a01b031633146120645760405162461bcd60e51b81526004016111d190615834565b600260015414156120875760405162461bcd60e51b81526004016111d1906158f9565b60026001556101015460fc54604051632288d73760e11b81526001600160a01b0392831660048201527f00000000000000000000000000000000000000000000000000000000000000009092166024830152604482015273__$c4f279750f4bbb575ac7775e752dc00849$__90634511ae6e9060640160206040518083038186803b15801561211557600080fd5b505af4158015612129573d6000803e3d6000fd5b505050506040513d601f19601f8201168201806040525081019061214d9190615636565b5060018055565b60d4546001600160a01b0316331461217e5760405162461bcd60e51b81526004016111d190615834565b600260015414156121a15760405162461bcd60e51b81526004016111d1906158f9565b60026001556121ae613f2e565b60018055565b600260015414156121d75760405162461bcd60e51b81526004016111d1906158f9565b60026001819055506121ae60006001614061565b6065546001600160a01b031633146122155760405162461bcd60e51b81526004016111d1906158a3565b612223620f42406064615b69565b81106122715760405162461bcd60e51b815260206004820152601760248201527f496e76616c696420706572666f726d616e63652066656500000000000000000060448201526064016111d1565b60d55460408051918252602082018390527f24867dfb6fcb9970a07be21024956524abe7a1837faa903ff0e99aaa40cf893e910160405180910390a160d555565b6065546001600160a01b031633146122dc5760405162461bcd60e51b81526004016111d1906158a3565b6122e66000614210565b565b6002600154141561230b5760405162461bcd60e51b81526004016111d1906158f9565b600260015561231981614262565b610102546123279082614429565b610102555060018055565b6060609b80546113de90615bcb565b600061237661234f60995490565b6123576126d6565b60d05460cc546001600160801b0390911690610100900460ff16613c03565b905090565b6002600154141561239e5760405162461bcd60e51b81526004016111d1906158f9565b6002600155806123dd5760405162461bcd60e51b815260206004820152600a602482015269216e756d526f756e647360b01b60448201526064016111d1565b60cf5461ffff1660005b8281101561246c5760006123fb8284615a46565b600081815260ca6020526040902054909150156124485760405162461bcd60e51b815260206004820152600b60248201526a125b9a5d1a585b1a5e995960aa1b60448201526064016111d1565b600090815260ca60205260409020600190558061246481615c06565b9150506123e7565b50506001805550565b3360009081526098602090815260408083206001600160a01b0386168452909152812054828110156124f75760405162461bcd60e51b815260206004820152602560248201527f45524332303a2064656372656173656420616c6c6f77616e63652062656c6f77604482015264207a65726f60d81b60648201526084016111d1565b61250433858584036134d7565b5060019392505050565b6065546001600160a01b031633146125385760405162461bcd60e51b81526004016111d1906158a3565b61012c81101561258a5760405162461bcd60e51b815260206004820152601860248201527f496e76616c69642061756374696f6e206475726174696f6e000000000000000060448201526064016111d1565b60fb5460408051918252602082018390527f5acd982e2240ed224a69aa03dab039d3797c108e4b5f288cd7dd6ca181b275f3910160405180910390a160fb55565b600260015414156125ee5760405162461bcd60e51b81526004016111d1906158f9565b6002600155610100546001600160a01b03168061260a57600080fd5b6000821161261757600080fd5b33600090815260976020526040902054828110156126435761264361263c84836137cc565b6000614061565b61264e3330856135fc565b6126593083856134d7565b6040516383df674760e01b815260048101849052336024820152600060448201526001600160a01b038316906383df674790606401600060405180830381600087803b1580156126a857600080fd5b505af11580156126bc573d6000803e3d6000fd5b5050600180555050505050565b600061146e3384846135fc565b60cc546040516370a0823160e01b815230600482015260009161237691620100009091046001600160a01b0316906370a082319060240160206040518083038186803b15801561272557600080fd5b505afa158015612739573d6000803e3d6000fd5b505050506040513d601f19601f8201168201806040525081019061275d9190615636565b60cf546201000090046001600160681b031690614429565b600260015414156127985760405162461bcd60e51b81526004016111d1906158f9565b6002600155806127ba5760405162461bcd60e51b81526004016111d1906158d8565b6127c48133613939565b60cc5461214d906201000090046001600160a01b0316333084613bcb565b60d4546001600160a01b0316331461280c5760405162461bcd60e51b81526004016111d190615834565b6002600154141561282f5760405162461bcd60e51b81526004016111d1906158f9565b60026001556101025460fd546000908190819061284c9085614435565b60fd81905560d054929550909350915060009061287990600160801b90046001600160801b031686614429565b9050612884816147d0565b60d080546001600160801b03808416600160801b0291161790556000610102556128ad83613ca5565b60cf805462010000600160781b031916620100006001600160681b0386160217905560405183815233906001600160a01b038616907f045c558fdce4714c5816d53820d27420f4cd860892df203fe636384d8d19aa019060200160405180910390a3604051632904c23960e01b81526001600160a01b037f0000000000000000000000000000000000000000000000000000000000000000811660048301527f000000000000000000000000000000000000000000000000000000000000000081166024830152851660448201526064810184905260009073__$c4f279750f4bbb575ac7775e752dc00849$__90632904c2399060840160206040518083038186803b1580156129bc57600080fd5b505af41580156129d0573d6000803e3d6000fd5b505050506040513d601f19601f820116820180604052508101906129f49190615636565b61010154604051636648c73d60e11b81526001600160a01b039182166004820152908716602482015260448101829052611388606482015290915073__$c4f279750f4bbb575ac7775e752dc00849$__9063cc918e7a9060840160206040518083038186803b158015612a6657600080fd5b505af4158015612a7a573d6000803e3d6000fd5b505050506040513d601f19601f82011682018060405250810190612a9e9190615636565b50612aa7613f2e565b50506001805550505050565b610103546001600160a01b031680612aca57600080fd5b612ad660006001614061565b3360008181526097602052604090205490612af29083836134d7565b60405163c9c2d4f560e01b8152336004820152602481018290526001600160a01b0383169063c9c2d4f590604401600060405180830381600087803b158015612b3a57600080fd5b505af1158015612b4e573d6000803e3d6000fd5b505050505050565b6000806000612b648461325b565b909250905061186e8282614429565b60d4546001600160a01b03163314612b9d5760405162461bcd60e51b81526004016111d190615834565b600081118015612bb85750612bb4600a6064615b69565b8111155b612bf75760405162461bcd60e51b815260206004820152601060248201526f125b9d985b1a5908191a5cd8dbdd5b9d60821b60448201526064016111d1565b60f75460408051918252602082018390527f4cd657fde404967d63a338fb06c5c98751a9df57dfae6dc333a432faf8a5f656910160405180910390a160f755565b6065546001600160a01b03163314612c625760405162461bcd60e51b81526004016111d1906158a3565b6001600160a01b038116612ca55760405162461bcd60e51b815260206004820152600a60248201526910b732bba5b2b2b832b960b11b60448201526064016111d1565b60d480546001600160a01b0319166001600160a01b0392909216919091179055565b60026001541415612cea5760405162461bcd60e51b81526004016111d1906158f9565b600260015580612d295760405162461bcd60e51b815260206004820152600a602482015269216e756d53686172657360b01b60448201526064016111d1565b61214d816000614061565b6065546001600160a01b03163314612d5e5760405162461bcd60e51b81526004016111d1906158a3565b6001600160a01b038116612da75760405162461bcd60e51b815260206004820152601060248201526f085b995dd19959549958da5c1a595b9d60821b60448201526064016111d1565b60d3546001600160a01b0382811691161415612e055760405162461bcd60e51b815260206004820152601860248201527f4d757374206265206e657720666565526563697069656e74000000000000000060448201526064016111d1565b60d380546001600160a01b0319166001600160a01b0392909216919091179055565b60026001541415612e4a5760405162461bcd60e51b81526004016111d1906158f9565b600260015560d25460408051610120810182526001600160a01b037f0000000000000000000000000000000000000000000000000000000000000000811682527f00000000000000000000000000000000000000000000000000000000000000008116602083015292831681830181905260006060830181905260f95461ffff16608084015260fa5460a084015260f654851660c084015260f55490941660e083015260f754610100830152915163f39ad79560e01b8152919290918190819073__$c4f279750f4bbb575ac7775e752dc00849$__9063f39ad79590612f3a90879060cc9060cf90600401615930565b60606040518083038186803b158015612f5257600080fd5b505af4158015612f66573d6000803e3d6000fd5b505050506040513d601f19601f82011682018060405250810190612f8a9190615549565b604080518381526020810183905293965091945092507fa217999b1c125c2a996f712c5f26a28addad7167bd8a67d5bd5b2a751148abb0910160405180910390a160d180546001600160a01b0319166001600160a01b0385161790556000612ff24282614429565b905063ffffffff8111156130485760405162461bcd60e51b815260206004820152601860248201527f4f766572666c6f77206e6578744f7074696f6e5265616479000000000000000060448201526064016111d1565b60d2805463ffffffff60a01b1916600160a01b63ffffffff841602179055612aa78661481a565b6065546001600160a01b031633146130995760405162461bcd60e51b81526004016111d1906158a3565b6001600160a01b0381166130fe5760405162461bcd60e51b815260206004820152602660248201527f4f776e61626c653a206e6577206f776e657220697320746865207a65726f206160448201526564647265737360d01b60648201526084016111d1565b61310781614210565b50565b6002600154141561312d5760405162461bcd60e51b81526004016111d1906158f9565b600260015560cc547f00000000000000000000000000000000000000000000000000000000000000006001600160a01b0390811662010000909204161461319e5760405162461bcd60e51b8152602060048201526005602482015264042ae8aa8960db1b60448201526064016111d1565b600034116131d75760405162461bcd60e51b81526020600482015260066024820152652176616c756560d01b60448201526064016111d1565b6131e13433613939565b7f00000000000000000000000000000000000000000000000000000000000000006001600160a01b031663d0e30db0346040518263ffffffff1660e01b81526004016000604051808303818588803b15801561323c57600080fd5b505af1158015613250573d6000803e3d6000fd5b505060018055505050565b6001600160a01b038116600090815260c9602090815260408083208151606081018352905461ffff81168083526201000082046001600160681b031694830194909452600160781b90046001600160801b0316918101919091528291600111156132dd575050506001600160a01b031660009081526097602052604081205491565b60cf54815161ffff908116600090815260ca602052604081205460cc54919361331393869391169190610100900460ff1661498c565b9050613334856001600160a01b031660009081526097602052604090205490565b9590945092505050565b600260015414156133615760405162461bcd60e51b81526004016111d1906158f9565b600260015560006133706149fd565b60fd5490915061338090826137cc565b6001600160801b031660fd555060018055565b6065546001600160a01b031633146133bd5760405162461bcd60e51b81526004016111d1906158a3565b6133cb620f42406064615b69565b81106134125760405162461bcd60e51b8152602060048201526016602482015275496e76616c6964206d616e6167656d656e742066656560501b60448201526064016111d1565b600061342f63031ba30961342984620f4240614bba565b90614bc6565b60d65460408051918252602082018590529192507f4e874b007ab14f7e263baefd44951834c8266f4f224d1092e49e9c254354cc54910160405180910390a160d65550565b6040516001600160a01b038316602482015260448101829052611e6f90849063a9059cbb60e01b906064015b60408051601f198184030181529190526020810180516001600160e01b03166001600160e01b031990931692909217909152614bd2565b6001600160a01b0383166135395760405162461bcd60e51b8152602060048201526024808201527f45524332303a20617070726f76652066726f6d20746865207a65726f206164646044820152637265737360e01b60648201526084016111d1565b6001600160a01b03821661359a5760405162461bcd60e51b815260206004820152602260248201527f45524332303a20617070726f766520746f20746865207a65726f206164647265604482015261737360f01b60648201526084016111d1565b6001600160a01b0383811660008181526098602090815260408083209487168084529482529182902085905590518481527f8c5be1e5ebec7d5bd14f71427d1e84f3dd0314c0f7b2291e5b200ac8c7c3b92591015b60405180910390a3505050565b6001600160a01b0383166136605760405162461bcd60e51b815260206004820152602560248201527f45524332303a207472616e736665722066726f6d20746865207a65726f206164604482015264647265737360d81b60648201526084016111d1565b6001600160a01b0382166136c25760405162461bcd60e51b815260206004820152602360248201527f45524332303a207472616e7366657220746f20746865207a65726f206164647260448201526265737360e81b60648201526084016111d1565b6001600160a01b0383166000908152609760205260409020548181101561373a5760405162461bcd60e51b815260206004820152602660248201527f45524332303a207472616e7366657220616d6f756e7420657863656564732062604482015265616c616e636560d01b60648201526084016111d1565b6001600160a01b03808516600090815260976020526040808220858503905591851681529081208054849290613771908490615a46565b92505081905550826001600160a01b0316846001600160a01b03167fddf252ad1be2c89b69c2b068fc378daa952ba7f163c4a11628f55a4df523b3ef846040516137bd91815260200190565b60405180910390a35b50505050565b600061151d8284615b88565b60cc546001600160a01b03620100009091048116907f00000000000000000000000000000000000000000000000000000000000000001681141561392557604051632e1a7d4d60e01b8152600481018390527f00000000000000000000000000000000000000000000000000000000000000006001600160a01b031690632e1a7d4d90602401600060405180830381600087803b15801561387857600080fd5b505af115801561388c573d6000803e3d6000fd5b505050506000836001600160a01b03168360405160006040518083038185875af1925050503d80600081146138dd576040519150601f19603f3d011682016040523d82523d6000602084013e6138e2565b606091505b50509050806137c65760405162461bcd60e51b815260206004820152600f60248201526e151c985b9cd9995c8819985a5b1959608a1b60448201526064016111d1565b611e6f6001600160a01b0382168484613474565b60cf5461ffff1660006139548461394e6126d6565b90614429565b60ce549091506001600160681b031681111561399f5760405162461bcd60e51b815260206004820152600a6024820152690457863656564206361760b41b60448201526064016111d1565b60cd54600160a01b900466ffffffffffffff168110156139f85760405162461bcd60e51b8152602060048201526014602482015273496e73756666696369656e742062616c616e636560601b60448201526064016111d1565b60408051858152602081018490526001600160a01b038516917f90890809c654f11d6e72a28fa60149770a0d11ec6c92319d6ceb2bb0a4ea1a15910160405180910390a26001600160a01b038316600090815260c9602090815260408083208151606081018352905461ffff81168083526201000082046001600160681b031683860152600160781b9091046001600160801b031682840152845260ca90925282205460cc54919291613ab7918491879190610100900460ff1661498c565b8251909150869061ffff16851415613ae8576020830151600090613ae4906001600160681b031689614429565b9150505b613af181613ca5565b6040805160608101825261ffff80881682526001600160681b0380851660208085019182526001600160801b038089168688019081526001600160a01b038e16600090815260c990935296822095518654935197518216600160781b02600160781b600160f81b03199890951662010000026effffffffffffffffffffffffffffff1990941695169490941791909117949094161790915560d054613b97911689614429565b9050613ba2816147d0565b60d080546001600160801b0319166001600160801b039290921691909117905550505050505050565b6040516001600160a01b03808516602483015283166044820152606481018290526137c69085906323b872dd60e01b906084016134a0565b600080613c1183600a615ac1565b905060008611613c215780613c39565b613c3986613429613c3288886137cc565b8490614bba565b9695505050505050565b600060018311613c8d5760405162461bcd60e51b8152602060048201526015602482015274496e76616c6964206173736574506572536861726560581b60448201526064016111d1565b61186e613c9b83600a615ac1565b6134298686614bba565b6001600160681b038111156131075760405162461bcd60e51b815260206004820152601060248201526f13dd995c999b1bddc81d5a5b9d0c4c0d60821b60448201526064016111d1565b600054610100900460ff1680613d08575060005460ff16155b613d245760405162461bcd60e51b81526004016111d190615855565b600054610100900460ff16158015613d46576000805461ffff19166101011790555b60405163c72733f760e01b815273__$c4f279750f4bbb575ac7775e752dc00849$__9063c72733f790613d8b908c908c908c908b908d908c908c908c90600401615727565b60006040518083038186803b158015613da357600080fd5b505af4158015613db7573d6000803e3d6000fd5b50505050613dc3614ca4565b613dcd8484614d17565b613dd5614d96565b613dde8961306f565b60d480546001600160a01b03808b166001600160a01b03199283161790925560d38054928a169290911691909117905560d5859055613e2863031ba30961342988620f4240614bba565b60d6558160cc613e388282615c5e565b505060cc546040516370a0823160e01b81523060048201526000916201000090046001600160a01b0316906370a082319060240160206040518083038186803b158015613e8457600080fd5b505afa158015613e98573d6000803e3d6000fd5b505050506040513d601f19601f82011682018060405250810190613ebc9190615636565b9050613ec781613ca5565b60cf805461ffff196001600160681b03909316600160781b02929092167fffffffff00000000000000000000000000ffffffffffffffffffffffffff00009092169190911760011790558015613f23576000805461ff00191690555b505050505050505050565b6040805160c08101825260d2546001600160a01b039081168083527f000000000000000000000000000000000000000000000000000000000000000082166020840190815260cc54620100008104841685870190815260ff610100909204919091166060860190815260f8546080870190815260fb5460a088019081529751633baf17fd60e21b8152875187166004820152935186166024850152915190941660448301529251606482015291516084830152925160a482015290919073__$c4f279750f4bbb575ac7775e752dc00849$__9063eebc5ff49060c40160206040518083038186803b15801561402257600080fd5b505af4158015614036573d6000803e3d6000fd5b505050506040513d601f19601f8201168201806040525081019061405a9190615636565b60fc555050565b33600090815260c9602090815260408083208151606081018352905461ffff8082168084526201000083046001600160681b031684870152600160781b9092046001600160801b03168385015260cf5491865260ca9094529184205460cc54919492909316926140dc9185918591610100900460ff1661498c565b9050836140e957846140eb565b805b9450846140f9575050505050565b8085111561413d5760405162461bcd60e51b81526020600482015260116024820152704578636565647320617661696c61626c6560781b60448201526064016111d1565b825161ffff1682111561416a5733600090815260c960205260409020805462010000600160781b03191690555b614173856147d0565b61417d81866137cc565b33600081815260c960205260409081902080546001600160801b0394909416600160781b02600160781b600160f81b0319909416939093179092558451915190917fe5b754fb1abb7f01b499791d0b820ae3b6af3424ac1c59768edb53f4ec31a929916141f69189825261ffff16602082015260400190565b60405180910390a26142093033876135fc565b5050505050565b606580546001600160a01b038381166001600160a01b0319831681179093556040519116919082907f8be0079c531659141344cd1fd0a4f28419497f9722a3daafe3b4186f6b6457e090600090a35050565b6000811161429f5760405162461bcd60e51b815260206004820152600a602482015269216e756d53686172657360b01b60448201526064016111d1565b33600090815260c960205260409020546201000090046001600160681b03161515806142e9575033600090815260c96020526040902054600160781b90046001600160801b031615155b156142fa576142fa60006001614061565b60cf5433600081815260cb60209081526040918290208054835187815261ffff96871693810184905292959194911685149290917f0c53c82ad07e2d592d88ece3b066777dd60f1118e2a081b380efc4358f0d9e2a910160405180910390a281546201000090046001600160801b0316600082156143835761437c8287614429565b90506143e6565b81156143c55760405162461bcd60e51b81526020600482015260116024820152704578697374696e6720776974686472617760781b60448201526064016111d1565b5033600090815260cb60205260409020805461ffff191661ffff8616179055845b6143ef816147d0565b33600081815260cb60205260409020805462010000600160901b031916620100006001600160801b03851602179055612b4e9030886135fc565b600061151d8284615a46565b60d25460009081908190600160a01b900463ffffffff164210156144845760405162461bcd60e51b815260206004820152600660248201526521726561647960d01b60448201526064016111d1565b60d1546001600160a01b03169250826144cd5760405162461bcd60e51b815260206004820152600b60248201526a10b732bc3a27b83a34b7b760a91b60448201526064016111d1565b60d3546040805160e08101825260cc54610100810460ff16825291516370a0823160e01b81523060048201526001600160a01b039384169360009384938493849373__$c4f279750f4bbb575ac7775e752dc00849$__9363633c14269360cf939092602084019262010000900416906370a082319060240160206040518083038186803b15801561455d57600080fd5b505afa158015614571573d6000803e3d6000fd5b505050506040513d601f19601f820116820180604052508101906145959190615636565b81526020016145a360995490565b81526020018e815260200160d554815260200160d65481526020018d8152506040518363ffffffff1660e01b815260040161463092919060006101008201905083825282516020830152602083015160408301526040830151606083015260608301516080830152608083015160a083015260a083015160c083015260c083015160e08301529392505050565b60c06040518083038186803b15801561464857600080fd5b505af415801561465c573d6000803e3d6000fd5b505050506040513d601f19601f820116820180604052508101906146809190615672565b809750819850829950839650849b50859c505050505050508760d160010160006101000a8154816001600160a01b0302191690836001600160a01b03160217905550600060d160000160006101000a8154816001600160a01b0302191690836001600160a01b03160217905550600060cf60000160009054906101000a900461ffff1661ffff1690508160ca600083815260200190815260200160002081905550856001600160a01b03167f0a242f7ecaf711036ca770774ceffae28e60ef042ac113ddd187f2631db0c00685858460405161476f939291909283526020830191909152604082015260600190565b60405180910390a260d080546001600160801b0319169055614792816001615a46565b60cf805461ffff191661ffff92909216919091179055506147b590503084614dfd565b80156147c5576147c584826137d8565b505050509250925092565b6001600160801b038111156131075760405162461bcd60e51b815260206004820152601060248201526f09eeccae4ccd8deee40ead2dce86264760831b60448201526064016111d1565b60cf546201000090046001600160681b03166001600160a01b038216156148665760cf80546cffffffffffffffffffffffffff60781b1916600160781b6001600160681b038416021790555b60cf805462010000600160781b031916905560d280546001600160a01b03191690556001600160a01b038216156113cb57604051636c6fe87f60e11b81526001600160a01b037f000000000000000000000000000000000000000000000000000000000000000016600482015260009073__$c4f279750f4bbb575ac7775e752dc00849$__9063d8dfd0fe9060240160206040518083038186803b15801561490d57600080fd5b505af4158015614921573d6000803e3d6000fd5b505050506040513d601f19601f820116820180604052508101906149459190615636565b9050336001600160a01b0316836001600160a01b03167f7e830f7c1771deb1bdb35c4a7e6051bbac32b376f7f4e4976b8618b0b11997f7836040516135ef91815260200190565b835160009061ffff16158015906149a75750845161ffff1684115b156149e95760006149c686602001516001600160681b03168585614edc565b60408701519091506149e1906001600160801b031682614429565b91505061186e565b50505050604001516001600160801b031690565b33600090815260cb6020526040812080546001600160801b03620100008204169061ffff1681614a5f5760405162461bcd60e51b815260206004820152600d60248201526c139bdd081a5b9a5d1a585d1959609a1b60448201526064016111d1565b60cf5461ffff168110614aa75760405162461bcd60e51b815260206004820152601060248201526f149bdd5b99081b9bdd0818db1bdcd95960821b60448201526064016111d1565b33600090815260cb60205260409020805462010000600160901b031916905560d054614ae390600160801b90046001600160801b0316836137cc565b60d080546001600160801b03928316600160801b029216919091179055600081815260ca602052604081205460cc54614b2691859160ff61010090910416613c43565b604080518281526020810186905291925033917ff279e6a1f5e320cca91135676d9cb6e44ca8a08c0b88342bcdb1144f6511b568910160405180910390a2614b6e3084614f3f565b60008111614bb05760405162461bcd60e51b815260206004820152600f60248201526e085dda5d1a191c985dd05b5bdd5b9d608a1b60448201526064016111d1565b61186e33826137d8565b600061151d8284615b69565b600061151d8284615a5e565b6000614c27826040518060400160405280602081526020017f5361666545524332303a206c6f772d6c6576656c2063616c6c206661696c6564815250856001600160a01b031661508d9092919063ffffffff16565b805190915015611e6f5780806020019051810190614c45919061557f565b611e6f5760405162461bcd60e51b815260206004820152602a60248201527f5361666545524332303a204552433230206f7065726174696f6e20646964206e6044820152691bdd081cdd58d8d9595960b21b60648201526084016111d1565b600054610100900460ff1680614cbd575060005460ff16155b614cd95760405162461bcd60e51b81526004016111d190615855565b600054610100900460ff16158015614cfb576000805461ffff19166101011790555b614d0361509c565b8015613107576000805461ff001916905550565b600054610100900460ff1680614d30575060005460ff16155b614d4c5760405162461bcd60e51b81526004016111d190615855565b600054610100900460ff16158015614d6e576000805461ffff19166101011790555b614d7661510b565b614d808383615175565b8015611e6f576000805461ff0019169055505050565b600054610100900460ff1680614daf575060005460ff16155b614dcb5760405162461bcd60e51b81526004016111d190615855565b600054610100900460ff16158015614ded576000805461ffff19166101011790555b614df561510b565b614d0361520a565b6001600160a01b038216614e535760405162461bcd60e51b815260206004820152601f60248201527f45524332303a206d696e7420746f20746865207a65726f20616464726573730060448201526064016111d1565b8060996000828254614e659190615a46565b90915550506001600160a01b03821660009081526097602052604081208054839290614e92908490615a46565b90915550506040518181526001600160a01b038316906000907fddf252ad1be2c89b69c2b068fc378daa952ba7f163c4a11628f55a4df523b3ef9060200160405180910390a35050565b600060018311614f265760405162461bcd60e51b8152602060048201526015602482015274496e76616c6964206173736574506572536861726560581b60448201526064016111d1565b61186e83613429614f3885600a615ac1565b8790614bba565b6001600160a01b038216614f9f5760405162461bcd60e51b815260206004820152602160248201527f45524332303a206275726e2066726f6d20746865207a65726f206164647265736044820152607360f81b60648201526084016111d1565b6001600160a01b038216600090815260976020526040902054818110156150135760405162461bcd60e51b815260206004820152602260248201527f45524332303a206275726e20616d6f756e7420657863656564732062616c616e604482015261636560f01b60648201526084016111d1565b6001600160a01b0383166000908152609760205260408120838303905560998054849290615042908490615b88565b90915550506040518281526000906001600160a01b038516907fddf252ad1be2c89b69c2b068fc378daa952ba7f163c4a11628f55a4df523b3ef9060200160405180910390a3505050565b606061186e848460008561526a565b600054610100900460ff16806150b5575060005460ff16155b6150d15760405162461bcd60e51b81526004016111d190615855565b600054610100900460ff161580156150f3576000805461ffff19166101011790555b600180558015613107576000805461ff001916905550565b600054610100900460ff1680615124575060005460ff16155b6151405760405162461bcd60e51b81526004016111d190615855565b600054610100900460ff16158015614d03576000805461ffff19166101011790558015613107576000805461ff001916905550565b600054610100900460ff168061518e575060005460ff16155b6151aa5760405162461bcd60e51b81526004016111d190615855565b600054610100900460ff161580156151cc576000805461ffff19166101011790555b82516151df90609a9060208601906153cb565b5081516151f390609b9060208501906153cb565b508015611e6f576000805461ff0019169055505050565b600054610100900460ff1680615223575060005460ff16155b61523f5760405162461bcd60e51b81526004016111d190615855565b600054610100900460ff16158015615261576000805461ffff19166101011790555b614d0333614210565b6060824710156152cb5760405162461bcd60e51b815260206004820152602660248201527f416464726573733a20696e73756666696369656e742062616c616e636520666f6044820152651c8818d85b1b60d21b60648201526084016111d1565b843b6153195760405162461bcd60e51b815260206004820152601d60248201527f416464726573733a2063616c6c20746f206e6f6e2d636f6e747261637400000060448201526064016111d1565b600080866001600160a01b03168587604051615335919061570b565b60006040518083038185875af1925050503d8060008114615372576040519150601f19603f3d011682016040523d82523d6000602084013e615377565b606091505b5091509150615387828286615392565b979650505050505050565b606083156153a157508161151d565b8251156153b15782518084602001fd5b8160405162461bcd60e51b81526004016111d19190615821565b8280546153d790615bcb565b90600052602060002090601f0160209004810192826153f9576000855561543f565b82601f1061541257805160ff191683800117855561543f565b8280016001018555821561543f579182015b8281111561543f578251825591602001919060010190615424565b5061544b92915061544f565b5090565b5b8082111561544b5760008155600101615450565b803561546f81615d6f565b919050565b803561546f81615d92565b803561546f81615da7565b60006020828403121561549b578081fd5b813561151d81615d6f565b600080604083850312156154b8578081fd5b82356154c381615d6f565b915060208301356154d381615d6f565b809150509250929050565b6000806000606084860312156154f2578081fd5b83356154fd81615d6f565b9250602084013561550d81615d6f565b929592945050506040919091013590565b60008060408385031215615530578182fd5b823561553b81615d6f565b946020939093013593505050565b60008060006060848603121561555d578283fd5b835161556881615d6f565b602085015160409095015190969495509392505050565b600060208284031215615590578081fd5b815161151d81615d84565b60008082840360e08112156155ae578283fd5b833567ffffffffffffffff8111156155c4578384fd5b840161016081870312156155d6578384fd5b925060c0601f19820112156155e9578182fd5b506020830190509250929050565b600060208284031215615608578081fd5b81356001600160801b038116811461151d578182fd5b60006020828403121561562f578081fd5b5035919050565b600060208284031215615647578081fd5b5051919050565b60008060408385031215615660578182fd5b8235915060208301356154d381615d6f565b60008060008060008060c0878903121561568a578182fd5b865195506020870151945060408701519350606087015192506080870151915060a087015190509295509295509295565b6000602082840312156156cc578081fd5b813563ffffffff8116811461151d578182fd5b600081518084526156f7816020860160208601615b9f565b601f01601f19169290920160200192915050565b6000825161571d818460208701615b9f565b9190910192915050565b60006101a060018060a01b03808c168452808b166020850152808a1660408501528860608501528760808501528160a0850152615766828501886156df565b915083820360c085015261577a82876156df565b92508435915061578982615d84565b90151560e08401526020840135906157a082615dbc565b60ff8216610100850152604085013591506157ba82615d6f565b166101208301526157cd60608401615464565b6001600160a01b03166101408301526157e86080840161547f565b66ffffffffffffff1661016083015261580360a08401615474565b6001600160681b038116610180840152509998505050505050505050565b60208152600061151d60208301846156df565b60208082526007908201526610b5b2b2b832b960c91b604082015260600190565b6020808252602e908201527f496e697469616c697a61626c653a20636f6e747261637420697320616c72656160408201526d191e481a5b9a5d1a585b1a5e995960921b606082015260800190565b6020808252818101527f4f776e61626c653a2063616c6c6572206973206e6f7420746865206f776e6572604082015260600190565b60208082526007908201526608585b5bdd5b9d60ca1b604082015260600190565b6020808252601f908201527f5265656e7472616e637947756172643a207265656e7472616e742063616c6c00604082015260600190565b83516001600160a01b0316815260208085015161016083019161595d908401826001600160a01b03169052565b50604085015161597860408401826001600160a01b03169052565b50606085015160608301526080850151615998608084018261ffff169052565b5060a085015160a083015260c08501516159bd60c08401826001600160a01b03169052565b5060e08501516159d860e08401826001600160a01b03169052565b5061010094850151948201949094526101208101929092526101409091015290565b6000808335601e19843603018112615a10578283fd5b83018035915067ffffffffffffffff821115615a2a578283fd5b602001915036819003821315615a3f57600080fd5b9250929050565b60008219821115615a5957615a59615c21565b500190565b600082615a7957634e487b7160e01b81526012600452602481fd5b500490565b600181815b80851115615ab9578160001904821115615a9f57615a9f615c21565b80851615615aac57918102915b93841c9390800290615a83565b509250929050565b600061151d8383600082615ad757506001611472565b81615ae457506000611472565b8160018114615afa5760028114615b0457615b20565b6001915050611472565b60ff841115615b1557615b15615c21565b50506001821b611472565b5060208310610133831016604e8410600b8410161715615b43575081810a611472565b615b4d8383615a7e565b8060001904821115615b6157615b61615c21565b029392505050565b6000816000190483118215151615615b8357615b83615c21565b500290565b600082821015615b9a57615b9a615c21565b500390565b60005b83811015615bba578181015183820152602001615ba2565b838111156137c65750506000910152565b600181811c90821680615bdf57607f821691505b60208210811415615c0057634e487b7160e01b600052602260045260246000fd5b50919050565b6000600019821415615c1a57615c1a615c21565b5060010190565b634e487b7160e01b600052601160045260246000fd5b6000813561147281615d6f565b6000813561147281615d92565b6000813561147281615da7565b8135615c6981615d84565b815460ff19811691151560ff1691821783556020840135615c8981615dbc565b61ff008160081b169050808361ffff198416171784556040850135615cad81615d6f565b6001600160b01b0319929092169092179190911760109190911b62010000600160b01b031617815560018101615d05615ce860608501615c37565b82546001600160a01b0319166001600160a01b0391909116178255565b615d3e615d1460808501615c51565b82805466ffffffffffffff60a01b191660a09290921b66ffffffffffffff60a01b16919091179055565b506113cb615d4e60a08401615c44565b600283016001600160681b0382166001600160681b03198254161781555050565b6001600160a01b038116811461310757600080fd5b801515811461310757600080fd5b6001600160681b038116811461310757600080fd5b66ffffffffffffff8116811461310757600080fd5b60ff8116811461310757600080fdfea26469706673582212205fbcaa8781187325d25b31e13bacef69edce6157041a37dc50e9cf290afbc57364736f6c63430008040033",
  "libraries": {
    "VaultLifecycle": "0x25Af99Ff07575Ac55fB3C2D1E6B920Ba3bf67B40"
  },
  "devdoc": {
    "kind": "dev",
    "methods": {
      "accountVaultBalance(address)": {
        "params": {
          "account": "is the address to lookup balance for"
        },
        "returns": {
          "_0": "the amount of `asset` custodied by the vault for the user"
        }
      },
      "allowance(address,address)": {
        "details": "See {IERC20-allowance}."
      },
      "approve(address,uint256)": {
        "details": "See {IERC20-approve}. Requirements: - `spender` cannot be the zero address."
      },
      "balanceOf(address)": {
        "details": "See {IERC20-balanceOf}."
      },
      "constructor": {
        "params": {
          "_gammaController": "is the contract address for opyn actions",
          "_gnosisEasyAuction": "is the contract address that facilitates gnosis auctions",
          "_marginPool": "is the contract address for providing collateral to opyn",
          "_oTokenFactory": "is the contract address for minting new opyn option types (strikes, asset, expiry)",
          "_usdc": "is the USDC contract",
          "_weth": "is the Wrapped Ether contract"
        }
      },
      "decreaseAllowance(address,uint256)": {
        "details": "Atomically decreases the allowance granted to `spender` by the caller. This is an alternative to {approve} that can be used as a mitigation for problems described in {IERC20-approve}. Emits an {Approval} event indicating the updated allowance. Requirements: - `spender` cannot be the zero address. - `spender` must have allowance for the caller of at least `subtractedValue`."
      },
      "deposit(uint256)": {
        "params": {
          "amount": "is the amount of `asset` to deposit"
        }
      },
      "depositFor(uint256,address)": {
        "params": {
          "amount": "is the amount of `asset` to deposit",
          "creditor": "is the address that can claim/withdraw deposited amount"
        }
      },
      "increaseAllowance(address,uint256)": {
        "details": "Atomically increases the allowance granted to `spender` by the caller. This is an alternative to {approve} that can be used as a mitigation for problems described in {IERC20-approve}. Emits an {Approval} event indicating the updated allowance. Requirements: - `spender` cannot be the zero address."
      },
      "initRounds(uint256)": {
        "params": {
          "numRounds": "is the number of rounds to initialize in the map"
        }
      },
      "initialize((address,address,address,uint256,uint256,string,string,address,address,uint32,uint256),(bool,uint8,address,address,uint56,uint104))": {
        "params": {
          "_initParams": "is the struct with vault initialization parameters",
          "_vaultParams": "is the struct with vault general data"
        }
      },
      "initiateWithdraw(uint256)": {
        "params": {
          "numShares": "is the number of shares to withdraw"
        }
      },
      "name()": {
        "details": "Returns the name of the token."
      },
      "owner()": {
        "details": "Returns the address of the current owner."
      },
      "recoverTokens(address,address)": {
        "params": {
          "recipient": "is the recipient of the recovered tokens",
          "token": "is the ERC20 token to recover from the vault"
        }
      },
      "redeem(uint256)": {
        "params": {
          "numShares": "is the number of shares to redeem"
        }
      },
      "renounceOwnership()": {
        "details": "Leaves the contract without owner. It will not be possible to call `onlyOwner` functions anymore. Can only be called by the current owner. NOTE: Renouncing ownership will leave the contract without an owner, thereby removing any functionality that is only available to the owner."
      },
      "setAuctionDuration(uint256)": {
        "params": {
          "newAuctionDuration": "is the auction duration"
        }
      },
      "setCap(uint256)": {
        "params": {
          "newCap": "is the new cap for deposits"
        }
      },
      "setFeeRecipient(address)": {
        "params": {
          "newFeeRecipient": "is the address of the new fee recipient"
        }
      },
      "setLiquidityGauge(address)": {
        "params": {
          "newLiquidityGauge": "is the address of the new liquidityGauge contract"
        }
      },
      "setManagementFee(uint256)": {
        "params": {
          "newManagementFee": "is the management fee (6 decimals). ex: 2 * 10 ** 6 = 2%"
        }
      },
      "setMinPrice(uint256)": {
        "params": {
          "minPrice": "is the new oToken Premium in the units of 10**18"
        }
      },
      "setNewKeeper(address)": {
        "params": {
          "newKeeper": "is the address of the new keeper"
        }
      },
      "setOptionsPremiumPricer(address)": {
        "params": {
          "newOptionsPremiumPricer": "is the address of the new strike selection contract"
        }
      },
      "setOptionsPurchaseQueue(address)": {
        "params": {
          "newOptionsPurchaseQueue": "is the address of the new optionsPurchaseQueue contract"
        }
      },
      "setPerformanceFee(uint256)": {
        "params": {
          "newPerformanceFee": "is the performance fee (6 decimals). ex: 20 * 10 ** 6 = 20%"
        }
      },
      "setPremiumDiscount(uint256)": {
        "params": {
          "newPremiumDiscount": "is the premium discount"
        }
      },
      "setStrikePrice(uint128)": {
        "params": {
          "strikePrice": "is the strike price of the new oTokens (decimals = 8)"
        }
      },
      "setStrikeSelection(address)": {
        "params": {
          "newStrikeSelection": "is the address of the new strike selection contract"
        }
      },
      "setVaultPauser(address)": {
        "params": {
          "newVaultPauser": "is the address of the new vaultPauser contract"
        }
      },
      "shareBalances(address)": {
        "params": {
          "account": "is the account to lookup share balance for"
        },
        "returns": {
          "heldByAccount": "is the shares held by account",
          "heldByVault": "is the shares held on the vault (unredeemedShares)"
        }
      },
      "shares(address)": {
        "params": {
          "account": "is the account to lookup share balance for"
        },
        "returns": {
          "_0": "the share balance"
        }
      },
      "stake(uint256)": {
        "params": {
          "numShares": "is the number of shares to stake"
        }
      },
      "symbol()": {
        "details": "Returns the symbol of the token, usually a shorter version of the name."
      },
      "totalBalance()": {
        "returns": {
          "_0": "total balance of the vault, including the amounts locked in third party protocols"
        }
      },
      "totalSupply()": {
        "details": "See {IERC20-totalSupply}."
      },
      "transfer(address,uint256)": {
        "details": "See {IERC20-transfer}. Requirements: - `recipient` cannot be the zero address. - the caller must have a balance of at least `amount`."
      },
      "transferFrom(address,address,uint256)": {
        "details": "See {IERC20-transferFrom}. Emits an {Approval} event indicating the updated allowance. This is not required by the EIP. See the note at the beginning of {ERC20}. Requirements: - `sender` and `recipient` cannot be the zero address. - `sender` must have a balance of at least `amount`. - the caller must have allowance for ``sender``'s tokens of at least `amount`."
      },
      "transferOwnership(address)": {
        "details": "Transfers ownership of the contract to a new account (`newOwner`). Can only be called by the current owner."
      },
      "withdrawInstantly(uint256)": {
        "params": {
          "amount": "is the amount to withdraw"
        }
      }
    },
    "version": 1
  },
  "userdoc": {
    "kind": "user",
    "methods": {
      "DELAY()": {
        "notice": "Deprecated: 15 minute timelock between commitAndClose and rollToNexOption."
      },
      "OTOKEN_FACTORY()": {
        "notice": "oTokenFactory is the factory contract used to spawn otokens. Used to lookup otokens."
      },
      "PERIOD()": {
        "notice": "7 day period between each options sale."
      },
      "USDC()": {
        "notice": "USDC 0xA0b86991c6218b36c1d19D4a2e9Eb0cE3606eB48"
      },
      "WETH()": {
        "notice": "WETH9 0xC02aaA39b223FE8D0A0e5C4F27eAD9083C756Cc2"
      },
      "accountVaultBalance(address)": {
        "notice": "Returns the asset balance held on the vault for the account"
      },
      "burnRemainingOTokens()": {
        "notice": "Burn the remaining oTokens left over from gnosis auction."
      },
      "commitAndClose()": {
        "notice": "Sets the next option the vault will be shorting, and closes the existing short.         This allows all the users to withdraw if the next option is malicious."
      },
      "completeWithdraw()": {
        "notice": "Completes a scheduled withdrawal from a past round. Uses finalized pps for the round"
      },
      "constructor": {
        "notice": "Initializes the contract with immutable variables"
      },
      "decimals()": {
        "notice": "Returns the token decimals"
      },
      "deposit(uint256)": {
        "notice": "Deposits the `asset` from msg.sender."
      },
      "depositETH()": {
        "notice": "Deposits ETH into the contract and mint vault shares. Reverts if the asset is not WETH."
      },
      "depositFor(uint256,address)": {
        "notice": "Deposits the `asset` from msg.sender added to `creditor`'s deposit.Used for vault -> vault deposits on the user's behalf"
      },
      "depositReceipts(address)": {
        "notice": "Stores the user's pending deposit for the round"
      },
      "feeRecipient()": {
        "notice": "Fee recipient for the performance and management fees"
      },
      "initRounds(uint256)": {
        "notice": "Helper function that helps to save gas for writing values into the roundPricePerShare map.         Writing `1` into the map makes subsequent writes warm, reducing the gas from 20k to 5k.         Having 1 initialized beforehand will not be an issue as long as we round down share calculations to 0."
      },
      "initialize((address,address,address,uint256,uint256,string,string,address,address,uint32,uint256),(bool,uint8,address,address,uint56,uint104))": {
        "notice": "Initializes the OptionVault contract with storage variables."
      },
      "initiateWithdraw(uint256)": {
        "notice": "Initiates a withdrawal that can be processed once the round completes"
      },
      "keeper()": {
        "notice": "role in charge of weekly vault operations such as rollToNextOption and burnRemainingOTokens"
      },
      "managementFee()": {
        "notice": "Management fee charged on entire AUM in rollToNextOption. Only charged when there is no loss."
      },
      "maxRedeem()": {
        "notice": "Redeems the entire unredeemedShares balance that is owed to the account"
      },
      "optionState()": {
        "notice": "Vault's state of the options sold and the timelocked option"
      },
      "pausePosition()": {
        "notice": "pause a user's vault position"
      },
      "performanceFee()": {
        "notice": "Performance fee charged on premiums earned in rollToNextOption. Only charged when there is no loss."
      },
      "pricePerShare()": {
        "notice": "The price of a unit of share denominated in the `asset`"
      },
      "recoverTokens(address,address)": {
        "notice": "Recovery function that returns an ERC20 token to the recipient"
      },
      "redeem(uint256)": {
        "notice": "Redeems shares that are owed to the account"
      },
      "rollToNextOption()": {
        "notice": "Rolls the vault's funds into a new short position."
      },
      "roundPricePerShare(uint256)": {
        "notice": "On every round's close, the pricePerShare value of an rTHETA token is stored This is used to determine the number of shares to be returned to a user with their DepositReceipt.depositAmount"
      },
      "sellOptionsToQueue()": {
        "notice": "Sell the allocated options to the purchase queue post auction settlement"
      },
      "setAuctionDuration(uint256)": {
        "notice": "Sets the new auction duration"
      },
      "setCap(uint256)": {
        "notice": "Sets a new cap for deposits"
      },
      "setFeeRecipient(address)": {
        "notice": "Sets the new fee recipient"
      },
      "setLiquidityGauge(address)": {
        "notice": "Sets the new liquidityGauge contract for this vault"
      },
      "setManagementFee(uint256)": {
        "notice": "Sets the management fee for the vault"
      },
      "setMinPrice(uint256)": {
        "notice": "Sets oToken Premium"
      },
      "setNewKeeper(address)": {
        "notice": "Sets the new keeper"
      },
      "setOptionsPremiumPricer(address)": {
        "notice": "Sets the new options premium pricer contract"
      },
      "setOptionsPurchaseQueue(address)": {
        "notice": "Sets the new optionsPurchaseQueue contract for this vault"
      },
      "setPerformanceFee(uint256)": {
        "notice": "Sets the performance fee for the vault"
      },
      "setPremiumDiscount(uint256)": {
        "notice": "Sets the new discount on premiums for options we are selling"
      },
      "setStrikePrice(uint128)": {
        "notice": "Optionality to set strike price manually"
      },
      "setStrikeSelection(address)": {
        "notice": "Sets the new strike selection contract"
      },
      "setVaultPauser(address)": {
        "notice": "Sets the new Vault Pauser contract for this vault"
      },
      "shareBalances(address)": {
        "notice": "Getter for returning the account's share balance split between account and vault holdings"
      },
      "shares(address)": {
        "notice": "Getter for returning the account's share balance including unredeemed shares"
      },
      "stake(uint256)": {
        "notice": "Stakes a users vault shares"
      },
      "startAuction()": {
        "notice": "Initiate the gnosis auction."
      },
      "totalBalance()": {
        "notice": "Returns the vault's total balance, including the amounts locked into a short position"
      },
      "vaultParams()": {
        "notice": "Vault's parameters like cap, decimals"
      },
      "vaultState()": {
        "notice": "Vault's lifecycle state like round and locked amounts"
      },
      "withdrawInstantly(uint256)": {
        "notice": "Withdraws the assets on the vault using the outstanding `DepositReceipt.amount`"
      },
      "withdrawals(address)": {
        "notice": "Stores pending user withdrawals"
      }
    },
    "notice": "UPGRADEABILITY: Since we use the upgradeable proxy pattern, we must observe the inheritance chain closely. Any changes/appends in storage variable needs to happen in RibbonThetaVaultStorage. RibbonThetaVault should not inherit from any other contract aside from RibbonVault, RibbonThetaVaultStorage",
    "version": 1
  },
  "storageLayout": {
    "storage": [
      {
        "astId": 176,
        "contract": "contracts/vaults/BaseVaults/RibbonThetaVault.sol:RibbonThetaVault",
        "label": "_initialized",
        "offset": 0,
        "slot": "0",
        "type": "t_bool"
      },
      {
        "astId": 179,
        "contract": "contracts/vaults/BaseVaults/RibbonThetaVault.sol:RibbonThetaVault",
        "label": "_initializing",
        "offset": 1,
        "slot": "0",
        "type": "t_bool"
      },
      {
        "astId": 230,
        "contract": "contracts/vaults/BaseVaults/RibbonThetaVault.sol:RibbonThetaVault",
        "label": "_status",
        "offset": 0,
        "slot": "1",
        "type": "t_uint256"
      },
      {
        "astId": 273,
        "contract": "contracts/vaults/BaseVaults/RibbonThetaVault.sol:RibbonThetaVault",
        "label": "__gap",
        "offset": 0,
        "slot": "2",
        "type": "t_array(t_uint256)49_storage"
      },
      {
        "astId": 993,
        "contract": "contracts/vaults/BaseVaults/RibbonThetaVault.sol:RibbonThetaVault",
        "label": "__gap",
        "offset": 0,
        "slot": "51",
        "type": "t_array(t_uint256)50_storage"
      },
      {
        "astId": 56,
        "contract": "contracts/vaults/BaseVaults/RibbonThetaVault.sol:RibbonThetaVault",
        "label": "_owner",
        "offset": 0,
        "slot": "101",
        "type": "t_address"
      },
      {
        "astId": 169,
        "contract": "contracts/vaults/BaseVaults/RibbonThetaVault.sol:RibbonThetaVault",
        "label": "__gap",
        "offset": 0,
        "slot": "102",
        "type": "t_array(t_uint256)49_storage"
      },
      {
        "astId": 293,
        "contract": "contracts/vaults/BaseVaults/RibbonThetaVault.sol:RibbonThetaVault",
        "label": "_balances",
        "offset": 0,
        "slot": "151",
        "type": "t_mapping(t_address,t_uint256)"
      },
      {
        "astId": 299,
        "contract": "contracts/vaults/BaseVaults/RibbonThetaVault.sol:RibbonThetaVault",
        "label": "_allowances",
        "offset": 0,
        "slot": "152",
        "type": "t_mapping(t_address,t_mapping(t_address,t_uint256))"
      },
      {
        "astId": 301,
        "contract": "contracts/vaults/BaseVaults/RibbonThetaVault.sol:RibbonThetaVault",
        "label": "_totalSupply",
        "offset": 0,
        "slot": "153",
        "type": "t_uint256"
      },
      {
        "astId": 303,
        "contract": "contracts/vaults/BaseVaults/RibbonThetaVault.sol:RibbonThetaVault",
        "label": "_name",
        "offset": 0,
        "slot": "154",
        "type": "t_string_storage"
      },
      {
        "astId": 305,
        "contract": "contracts/vaults/BaseVaults/RibbonThetaVault.sol:RibbonThetaVault",
        "label": "_symbol",
        "offset": 0,
        "slot": "155",
        "type": "t_string_storage"
      },
      {
        "astId": 846,
        "contract": "contracts/vaults/BaseVaults/RibbonThetaVault.sol:RibbonThetaVault",
        "label": "__gap",
        "offset": 0,
        "slot": "156",
        "type": "t_array(t_uint256)45_storage"
      },
      {
        "astId": 21905,
        "contract": "contracts/vaults/BaseVaults/RibbonThetaVault.sol:RibbonThetaVault",
        "label": "depositReceipts",
        "offset": 0,
        "slot": "201",
        "type": "t_mapping(t_address,t_struct(DepositReceipt)6582_storage)"
      },
      {
        "astId": 21910,
        "contract": "contracts/vaults/BaseVaults/RibbonThetaVault.sol:RibbonThetaVault",
        "label": "roundPricePerShare",
        "offset": 0,
        "slot": "202",
        "type": "t_mapping(t_uint256,t_uint256)"
      },
      {
        "astId": 21916,
        "contract": "contracts/vaults/BaseVaults/RibbonThetaVault.sol:RibbonThetaVault",
        "label": "withdrawals",
        "offset": 0,
        "slot": "203",
        "type": "t_mapping(t_address,t_struct(Withdrawal)6587_storage)"
      },
      {
        "astId": 21920,
        "contract": "contracts/vaults/BaseVaults/RibbonThetaVault.sol:RibbonThetaVault",
        "label": "vaultParams",
        "offset": 0,
        "slot": "204",
        "type": "t_struct(VaultParams)6557_storage"
      },
      {
        "astId": 21924,
        "contract": "contracts/vaults/BaseVaults/RibbonThetaVault.sol:RibbonThetaVault",
        "label": "vaultState",
        "offset": 0,
        "slot": "207",
        "type": "t_struct(VaultState)6575_storage"
      },
      {
        "astId": 21928,
        "contract": "contracts/vaults/BaseVaults/RibbonThetaVault.sol:RibbonThetaVault",
        "label": "optionState",
        "offset": 0,
        "slot": "209",
        "type": "t_struct(OptionState)6564_storage"
      },
      {
        "astId": 21931,
        "contract": "contracts/vaults/BaseVaults/RibbonThetaVault.sol:RibbonThetaVault",
        "label": "feeRecipient",
        "offset": 0,
        "slot": "211",
        "type": "t_address"
      },
      {
        "astId": 21934,
        "contract": "contracts/vaults/BaseVaults/RibbonThetaVault.sol:RibbonThetaVault",
        "label": "keeper",
        "offset": 0,
        "slot": "212",
        "type": "t_address"
      },
      {
        "astId": 21937,
        "contract": "contracts/vaults/BaseVaults/RibbonThetaVault.sol:RibbonThetaVault",
        "label": "performanceFee",
        "offset": 0,
        "slot": "213",
        "type": "t_uint256"
      },
      {
        "astId": 21940,
        "contract": "contracts/vaults/BaseVaults/RibbonThetaVault.sol:RibbonThetaVault",
        "label": "managementFee",
        "offset": 0,
        "slot": "214",
        "type": "t_uint256"
      },
      {
        "astId": 21944,
        "contract": "contracts/vaults/BaseVaults/RibbonThetaVault.sol:RibbonThetaVault",
        "label": "____gap",
        "offset": 0,
        "slot": "215",
        "type": "t_array(t_uint256)30_storage"
      },
      {
        "astId": 14345,
        "contract": "contracts/vaults/BaseVaults/RibbonThetaVault.sol:RibbonThetaVault",
        "label": "optionsPremiumPricer",
        "offset": 0,
        "slot": "245",
        "type": "t_address"
      },
      {
        "astId": 14347,
        "contract": "contracts/vaults/BaseVaults/RibbonThetaVault.sol:RibbonThetaVault",
        "label": "strikeSelection",
        "offset": 0,
        "slot": "246",
        "type": "t_address"
      },
      {
        "astId": 14349,
        "contract": "contracts/vaults/BaseVaults/RibbonThetaVault.sol:RibbonThetaVault",
        "label": "premiumDiscount",
        "offset": 0,
        "slot": "247",
        "type": "t_uint256"
      },
      {
        "astId": 14351,
        "contract": "contracts/vaults/BaseVaults/RibbonThetaVault.sol:RibbonThetaVault",
        "label": "currentOtokenPremium",
        "offset": 0,
        "slot": "248",
        "type": "t_uint256"
      },
      {
        "astId": 14353,
        "contract": "contracts/vaults/BaseVaults/RibbonThetaVault.sol:RibbonThetaVault",
        "label": "lastStrikeOverrideRound",
        "offset": 0,
        "slot": "249",
        "type": "t_uint16"
      },
      {
        "astId": 14355,
        "contract": "contracts/vaults/BaseVaults/RibbonThetaVault.sol:RibbonThetaVault",
        "label": "overriddenStrikePrice",
        "offset": 0,
        "slot": "250",
        "type": "t_uint256"
      },
      {
        "astId": 14357,
        "contract": "contracts/vaults/BaseVaults/RibbonThetaVault.sol:RibbonThetaVault",
        "label": "auctionDuration",
        "offset": 0,
        "slot": "251",
        "type": "t_uint256"
      },
      {
        "astId": 14359,
        "contract": "contracts/vaults/BaseVaults/RibbonThetaVault.sol:RibbonThetaVault",
        "label": "optionAuctionID",
        "offset": 0,
        "slot": "252",
        "type": "t_uint256"
      },
      {
        "astId": 14362,
        "contract": "contracts/vaults/BaseVaults/RibbonThetaVault.sol:RibbonThetaVault",
        "label": "lastQueuedWithdrawAmount",
        "offset": 0,
        "slot": "253",
        "type": "t_uint256"
      },
      {
        "astId": 14365,
        "contract": "contracts/vaults/BaseVaults/RibbonThetaVault.sol:RibbonThetaVault",
        "label": "_isUsdcAuction",
        "offset": 0,
        "slot": "254",
        "type": "t_bool"
      },
      {
        "astId": 14367,
        "contract": "contracts/vaults/BaseVaults/RibbonThetaVault.sol:RibbonThetaVault",
        "label": "_swapPath",
        "offset": 0,
        "slot": "255",
        "type": "t_bytes_storage"
      },
      {
        "astId": 14370,
        "contract": "contracts/vaults/BaseVaults/RibbonThetaVault.sol:RibbonThetaVault",
        "label": "liquidityGauge",
        "offset": 0,
        "slot": "256",
        "type": "t_address"
      },
      {
        "astId": 14373,
        "contract": "contracts/vaults/BaseVaults/RibbonThetaVault.sol:RibbonThetaVault",
        "label": "optionsPurchaseQueue",
        "offset": 0,
        "slot": "257",
        "type": "t_address"
      },
      {
        "astId": 14376,
        "contract": "contracts/vaults/BaseVaults/RibbonThetaVault.sol:RibbonThetaVault",
        "label": "currentQueuedWithdrawShares",
        "offset": 0,
        "slot": "258",
        "type": "t_uint256"
      },
      {
        "astId": 14379,
        "contract": "contracts/vaults/BaseVaults/RibbonThetaVault.sol:RibbonThetaVault",
        "label": "vaultPauser",
        "offset": 0,
        "slot": "259",
        "type": "t_address"
      }
    ],
    "types": {
      "t_address": {
        "encoding": "inplace",
        "label": "address",
        "numberOfBytes": "20"
      },
      "t_array(t_uint256)30_storage": {
        "base": "t_uint256",
        "encoding": "inplace",
        "label": "uint256[30]",
        "numberOfBytes": "960"
      },
      "t_array(t_uint256)45_storage": {
        "base": "t_uint256",
        "encoding": "inplace",
        "label": "uint256[45]",
        "numberOfBytes": "1440"
      },
      "t_array(t_uint256)49_storage": {
        "base": "t_uint256",
        "encoding": "inplace",
        "label": "uint256[49]",
        "numberOfBytes": "1568"
      },
      "t_array(t_uint256)50_storage": {
        "base": "t_uint256",
        "encoding": "inplace",
        "label": "uint256[50]",
        "numberOfBytes": "1600"
      },
      "t_bool": {
        "encoding": "inplace",
        "label": "bool",
        "numberOfBytes": "1"
      },
      "t_bytes_storage": {
        "encoding": "bytes",
        "label": "bytes",
        "numberOfBytes": "32"
      },
      "t_mapping(t_address,t_mapping(t_address,t_uint256))": {
        "encoding": "mapping",
        "key": "t_address",
        "label": "mapping(address => mapping(address => uint256))",
        "numberOfBytes": "32",
        "value": "t_mapping(t_address,t_uint256)"
      },
      "t_mapping(t_address,t_struct(DepositReceipt)6582_storage)": {
        "encoding": "mapping",
        "key": "t_address",
        "label": "mapping(address => struct Vault.DepositReceipt)",
        "numberOfBytes": "32",
        "value": "t_struct(DepositReceipt)6582_storage"
      },
      "t_mapping(t_address,t_struct(Withdrawal)6587_storage)": {
        "encoding": "mapping",
        "key": "t_address",
        "label": "mapping(address => struct Vault.Withdrawal)",
        "numberOfBytes": "32",
        "value": "t_struct(Withdrawal)6587_storage"
      },
      "t_mapping(t_address,t_uint256)": {
        "encoding": "mapping",
        "key": "t_address",
        "label": "mapping(address => uint256)",
        "numberOfBytes": "32",
        "value": "t_uint256"
      },
      "t_mapping(t_uint256,t_uint256)": {
        "encoding": "mapping",
        "key": "t_uint256",
        "label": "mapping(uint256 => uint256)",
        "numberOfBytes": "32",
        "value": "t_uint256"
      },
      "t_string_storage": {
        "encoding": "bytes",
        "label": "string",
        "numberOfBytes": "32"
      },
      "t_struct(DepositReceipt)6582_storage": {
        "encoding": "inplace",
        "label": "struct Vault.DepositReceipt",
        "members": [
          {
            "astId": 6577,
            "contract": "contracts/vaults/BaseVaults/RibbonThetaVault.sol:RibbonThetaVault",
            "label": "round",
            "offset": 0,
            "slot": "0",
            "type": "t_uint16"
          },
          {
            "astId": 6579,
            "contract": "contracts/vaults/BaseVaults/RibbonThetaVault.sol:RibbonThetaVault",
            "label": "amount",
            "offset": 2,
            "slot": "0",
            "type": "t_uint104"
          },
          {
            "astId": 6581,
            "contract": "contracts/vaults/BaseVaults/RibbonThetaVault.sol:RibbonThetaVault",
            "label": "unredeemedShares",
            "offset": 15,
            "slot": "0",
            "type": "t_uint128"
          }
        ],
        "numberOfBytes": "32"
      },
      "t_struct(OptionState)6564_storage": {
        "encoding": "inplace",
        "label": "struct Vault.OptionState",
        "members": [
          {
            "astId": 6559,
            "contract": "contracts/vaults/BaseVaults/RibbonThetaVault.sol:RibbonThetaVault",
            "label": "nextOption",
            "offset": 0,
            "slot": "0",
            "type": "t_address"
          },
          {
            "astId": 6561,
            "contract": "contracts/vaults/BaseVaults/RibbonThetaVault.sol:RibbonThetaVault",
            "label": "currentOption",
            "offset": 0,
            "slot": "1",
            "type": "t_address"
          },
          {
            "astId": 6563,
            "contract": "contracts/vaults/BaseVaults/RibbonThetaVault.sol:RibbonThetaVault",
            "label": "nextOptionReadyAt",
            "offset": 20,
            "slot": "1",
            "type": "t_uint32"
          }
        ],
        "numberOfBytes": "64"
      },
      "t_struct(VaultParams)6557_storage": {
        "encoding": "inplace",
        "label": "struct Vault.VaultParams",
        "members": [
          {
            "astId": 6546,
            "contract": "contracts/vaults/BaseVaults/RibbonThetaVault.sol:RibbonThetaVault",
            "label": "isPut",
            "offset": 0,
            "slot": "0",
            "type": "t_bool"
          },
          {
            "astId": 6548,
            "contract": "contracts/vaults/BaseVaults/RibbonThetaVault.sol:RibbonThetaVault",
            "label": "decimals",
            "offset": 1,
            "slot": "0",
            "type": "t_uint8"
          },
          {
            "astId": 6550,
            "contract": "contracts/vaults/BaseVaults/RibbonThetaVault.sol:RibbonThetaVault",
            "label": "asset",
            "offset": 2,
            "slot": "0",
            "type": "t_address"
          },
          {
            "astId": 6552,
            "contract": "contracts/vaults/BaseVaults/RibbonThetaVault.sol:RibbonThetaVault",
            "label": "underlying",
            "offset": 0,
            "slot": "1",
            "type": "t_address"
          },
          {
            "astId": 6554,
            "contract": "contracts/vaults/BaseVaults/RibbonThetaVault.sol:RibbonThetaVault",
            "label": "minimumSupply",
            "offset": 20,
            "slot": "1",
            "type": "t_uint56"
          },
          {
            "astId": 6556,
            "contract": "contracts/vaults/BaseVaults/RibbonThetaVault.sol:RibbonThetaVault",
            "label": "cap",
            "offset": 0,
            "slot": "2",
            "type": "t_uint104"
          }
        ],
        "numberOfBytes": "96"
      },
      "t_struct(VaultState)6575_storage": {
        "encoding": "inplace",
        "label": "struct Vault.VaultState",
        "members": [
          {
            "astId": 6566,
            "contract": "contracts/vaults/BaseVaults/RibbonThetaVault.sol:RibbonThetaVault",
            "label": "round",
            "offset": 0,
            "slot": "0",
            "type": "t_uint16"
          },
          {
            "astId": 6568,
            "contract": "contracts/vaults/BaseVaults/RibbonThetaVault.sol:RibbonThetaVault",
            "label": "lockedAmount",
            "offset": 2,
            "slot": "0",
            "type": "t_uint104"
          },
          {
            "astId": 6570,
            "contract": "contracts/vaults/BaseVaults/RibbonThetaVault.sol:RibbonThetaVault",
            "label": "lastLockedAmount",
            "offset": 15,
            "slot": "0",
            "type": "t_uint104"
          },
          {
            "astId": 6572,
            "contract": "contracts/vaults/BaseVaults/RibbonThetaVault.sol:RibbonThetaVault",
            "label": "totalPending",
            "offset": 0,
            "slot": "1",
            "type": "t_uint128"
          },
          {
            "astId": 6574,
            "contract": "contracts/vaults/BaseVaults/RibbonThetaVault.sol:RibbonThetaVault",
            "label": "queuedWithdrawShares",
            "offset": 16,
            "slot": "1",
            "type": "t_uint128"
          }
        ],
        "numberOfBytes": "64"
      },
      "t_struct(Withdrawal)6587_storage": {
        "encoding": "inplace",
        "label": "struct Vault.Withdrawal",
        "members": [
          {
            "astId": 6584,
            "contract": "contracts/vaults/BaseVaults/RibbonThetaVault.sol:RibbonThetaVault",
            "label": "round",
            "offset": 0,
            "slot": "0",
            "type": "t_uint16"
          },
          {
            "astId": 6586,
            "contract": "contracts/vaults/BaseVaults/RibbonThetaVault.sol:RibbonThetaVault",
            "label": "shares",
            "offset": 2,
            "slot": "0",
            "type": "t_uint128"
          }
        ],
        "numberOfBytes": "32"
      },
      "t_uint104": {
        "encoding": "inplace",
        "label": "uint104",
        "numberOfBytes": "13"
      },
      "t_uint128": {
        "encoding": "inplace",
        "label": "uint128",
        "numberOfBytes": "16"
      },
      "t_uint16": {
        "encoding": "inplace",
        "label": "uint16",
        "numberOfBytes": "2"
      },
      "t_uint256": {
        "encoding": "inplace",
        "label": "uint256",
        "numberOfBytes": "32"
      },
      "t_uint32": {
        "encoding": "inplace",
        "label": "uint32",
        "numberOfBytes": "4"
      },
      "t_uint56": {
        "encoding": "inplace",
        "label": "uint56",
        "numberOfBytes": "7"
      },
      "t_uint8": {
        "encoding": "inplace",
        "label": "uint8",
        "numberOfBytes": "1"
      }
    }
  }
}