{
  "address": "0x6eC571bEE204dC17eF7CaD5547Dc9084D28031f8",
  "abi": [
    {
      "inputs": [
        {
          "internalType": "address",
          "name": "_weth",
          "type": "address"
        },
        {
          "internalType": "address",
          "name": "_usdc",
          "type": "address"
        },
        {
          "internalType": "address",
          "name": "_oTokenFactory",
          "type": "address"
        },
        {
          "internalType": "address",
          "name": "_gammaController",
          "type": "address"
        },
        {
          "internalType": "address",
          "name": "_marginPool",
          "type": "address"
        },
        {
          "internalType": "address",
          "name": "_gnosisEasyAuction",
          "type": "address"
        }
      ],
      "stateMutability": "nonpayable",
      "type": "constructor"
    },
    {
      "anonymous": false,
      "inputs": [
        {
          "indexed": true,
          "internalType": "address",
          "name": "owner",
          "type": "address"
        },
        {
          "indexed": true,
          "internalType": "address",
          "name": "spender",
          "type": "address"
        },
        {
          "indexed": false,
          "internalType": "uint256",
          "name": "value",
          "type": "uint256"
        }
      ],
      "name": "Approval",
      "type": "event"
    },
    {
      "anonymous": false,
      "inputs": [
        {
          "indexed": false,
          "internalType": "uint256",
          "name": "auctionDuration",
          "type": "uint256"
        },
        {
          "indexed": false,
          "internalType": "uint256",
          "name": "newAuctionDuration",
          "type": "uint256"
        }
      ],
      "name": "AuctionDurationSet",
      "type": "event"
    },
    {
      "anonymous": false,
      "inputs": [
        {
          "indexed": true,
          "internalType": "address",
          "name": "options",
          "type": "address"
        },
        {
          "indexed": false,
          "internalType": "uint256",
          "name": "withdrawAmount",
          "type": "uint256"
        },
        {
          "indexed": false,
          "internalType": "address",
          "name": "manager",
          "type": "address"
        }
      ],
      "name": "CloseShort",
      "type": "event"
    },
    {
      "anonymous": false,
      "inputs": [
        {
          "indexed": false,
          "internalType": "uint256",
          "name": "performanceFee",
          "type": "uint256"
        },
        {
          "indexed": false,
          "internalType": "uint256",
          "name": "vaultFee",
          "type": "uint256"
        },
        {
          "indexed": false,
          "internalType": "uint256",
          "name": "round",
          "type": "uint256"
        }
      ],
      "name": "CollectVaultFees",
      "type": "event"
    },
    {
      "anonymous": false,
      "inputs": [
        {
          "indexed": true,
          "internalType": "address",
          "name": "account",
          "type": "address"
        },
        {
          "indexed": false,
          "internalType": "uint256",
          "name": "amount",
          "type": "uint256"
        },
        {
          "indexed": false,
          "internalType": "uint256",
          "name": "round",
          "type": "uint256"
        }
      ],
      "name": "Deposit",
      "type": "event"
    },
    {
      "anonymous": false,
      "inputs": [
        {
          "indexed": false,
          "internalType": "address",
          "name": "auctioningToken",
          "type": "address"
        },
        {
          "indexed": false,
          "internalType": "address",
          "name": "biddingToken",
          "type": "address"
        },
        {
          "indexed": false,
          "internalType": "uint256",
          "name": "auctionCounter",
          "type": "uint256"
        },
        {
          "indexed": false,
          "internalType": "address",
          "name": "manager",
          "type": "address"
        }
      ],
      "name": "InitiateGnosisAuction",
      "type": "event"
    },
    {
      "anonymous": false,
      "inputs": [
        {
          "indexed": false,
          "internalType": "address",
          "name": "account",
          "type": "address"
        },
        {
          "indexed": false,
          "internalType": "uint256",
          "name": "shares",
          "type": "uint256"
        },
        {
          "indexed": false,
          "internalType": "uint256",
          "name": "round",
          "type": "uint256"
        }
      ],
      "name": "InitiateWithdraw",
      "type": "event"
    },
    {
      "anonymous": false,
      "inputs": [
        {
          "indexed": true,
          "internalType": "address",
          "name": "account",
          "type": "address"
        },
        {
          "indexed": false,
          "internalType": "uint256",
          "name": "amount",
          "type": "uint256"
        },
        {
          "indexed": false,
          "internalType": "uint256",
          "name": "round",
          "type": "uint256"
        }
      ],
      "name": "InstantWithdraw",
      "type": "event"
    },
    {
      "anonymous": false,
      "inputs": [
        {
          "indexed": false,
          "internalType": "uint256",
          "name": "strikePrice",
          "type": "uint256"
        },
        {
          "indexed": false,
          "internalType": "uint256",
          "name": "delta",
          "type": "uint256"
        }
      ],
      "name": "NewOptionStrikeSelected",
      "type": "event"
    },
    {
      "anonymous": false,
      "inputs": [
        {
          "indexed": true,
          "internalType": "address",
          "name": "options",
          "type": "address"
        },
        {
          "indexed": false,
          "internalType": "uint256",
          "name": "depositAmount",
          "type": "uint256"
        },
        {
          "indexed": false,
          "internalType": "address",
          "name": "manager",
          "type": "address"
        }
      ],
      "name": "OpenShort",
      "type": "event"
    },
    {
      "anonymous": false,
      "inputs": [
        {
          "indexed": true,
          "internalType": "address",
          "name": "previousOwner",
          "type": "address"
        },
        {
          "indexed": true,
          "internalType": "address",
          "name": "newOwner",
          "type": "address"
        }
      ],
      "name": "OwnershipTransferred",
      "type": "event"
    },
    {
      "anonymous": false,
      "inputs": [
        {
          "indexed": false,
          "internalType": "uint256",
          "name": "premiumDiscount",
          "type": "uint256"
        },
        {
          "indexed": false,
          "internalType": "uint256",
          "name": "newPremiumDiscount",
          "type": "uint256"
        }
      ],
      "name": "PremiumDiscountSet",
      "type": "event"
    },
    {
      "anonymous": false,
      "inputs": [
        {
          "indexed": true,
          "internalType": "address",
          "name": "account",
          "type": "address"
        },
        {
          "indexed": false,
          "internalType": "uint256",
          "name": "share",
          "type": "uint256"
        },
        {
          "indexed": false,
          "internalType": "uint256",
          "name": "round",
          "type": "uint256"
        }
      ],
      "name": "Redeem",
      "type": "event"
    },
    {
      "anonymous": false,
      "inputs": [
        {
          "indexed": true,
          "internalType": "address",
          "name": "from",
          "type": "address"
        },
        {
          "indexed": true,
          "internalType": "address",
          "name": "to",
          "type": "address"
        },
        {
          "indexed": false,
          "internalType": "uint256",
          "name": "value",
          "type": "uint256"
        }
      ],
      "name": "Transfer",
      "type": "event"
    },
    {
      "anonymous": false,
      "inputs": [
        {
          "indexed": false,
          "internalType": "address",
          "name": "account",
          "type": "address"
        },
        {
          "indexed": false,
          "internalType": "uint256",
          "name": "amount",
          "type": "uint256"
        },
        {
          "indexed": false,
          "internalType": "uint256",
          "name": "shares",
          "type": "uint256"
        }
      ],
      "name": "Withdraw",
      "type": "event"
    },
    {
      "inputs": [],
      "name": "GAMMA_CONTROLLER",
      "outputs": [
        {
          "internalType": "address",
          "name": "",
          "type": "address"
        }
      ],
      "stateMutability": "view",
      "type": "function"
    },
    {
      "inputs": [],
      "name": "GNOSIS_EASY_AUCTION",
      "outputs": [
        {
          "internalType": "address",
          "name": "",
          "type": "address"
        }
      ],
      "stateMutability": "view",
      "type": "function"
    },
    {
      "inputs": [],
      "name": "MARGIN_POOL",
      "outputs": [
        {
          "internalType": "address",
          "name": "",
          "type": "address"
        }
      ],
      "stateMutability": "view",
      "type": "function"
    },
    {
      "inputs": [],
      "name": "OTOKEN_FACTORY",
      "outputs": [
        {
          "internalType": "address",
          "name": "",
          "type": "address"
        }
      ],
      "stateMutability": "view",
      "type": "function"
    },
    {
      "inputs": [],
      "name": "USDC",
      "outputs": [
        {
          "internalType": "address",
          "name": "",
          "type": "address"
        }
      ],
      "stateMutability": "view",
      "type": "function"
    },
    {
      "inputs": [],
      "name": "WETH",
      "outputs": [
        {
          "internalType": "address",
          "name": "",
          "type": "address"
        }
      ],
      "stateMutability": "view",
      "type": "function"
    },
    {
      "inputs": [
        {
          "internalType": "address",
          "name": "account",
          "type": "address"
        }
      ],
      "name": "accountVaultBalance",
      "outputs": [
        {
          "internalType": "uint256",
          "name": "",
          "type": "uint256"
        }
      ],
      "stateMutability": "view",
      "type": "function"
    },
    {
      "inputs": [
        {
          "internalType": "address",
          "name": "owner",
          "type": "address"
        },
        {
          "internalType": "address",
          "name": "spender",
          "type": "address"
        }
      ],
      "name": "allowance",
      "outputs": [
        {
          "internalType": "uint256",
          "name": "",
          "type": "uint256"
        }
      ],
      "stateMutability": "view",
      "type": "function"
    },
    {
      "inputs": [
        {
          "internalType": "address",
          "name": "spender",
          "type": "address"
        },
        {
          "internalType": "uint256",
          "name": "amount",
          "type": "uint256"
        }
      ],
      "name": "approve",
      "outputs": [
        {
          "internalType": "bool",
          "name": "",
          "type": "bool"
        }
      ],
      "stateMutability": "nonpayable",
      "type": "function"
    },
    {
      "inputs": [],
      "name": "auctionDuration",
      "outputs": [
        {
          "internalType": "uint256",
          "name": "",
          "type": "uint256"
        }
      ],
      "stateMutability": "view",
      "type": "function"
    },
    {
      "inputs": [
        {
          "internalType": "address",
          "name": "account",
          "type": "address"
        }
      ],
      "name": "balanceOf",
      "outputs": [
        {
          "internalType": "uint256",
          "name": "",
          "type": "uint256"
        }
      ],
      "stateMutability": "view",
      "type": "function"
    },
    {
      "inputs": [],
      "name": "burnRemainingOTokens",
      "outputs": [],
      "stateMutability": "nonpayable",
      "type": "function"
    },
    {
      "inputs": [],
      "name": "cap",
      "outputs": [
        {
          "internalType": "uint256",
          "name": "",
          "type": "uint256"
        }
      ],
      "stateMutability": "view",
      "type": "function"
    },
    {
      "inputs": [],
      "name": "commitAndClose",
      "outputs": [],
      "stateMutability": "nonpayable",
      "type": "function"
    },
    {
      "inputs": [],
      "name": "completeWithdraw",
      "outputs": [],
      "stateMutability": "nonpayable",
      "type": "function"
    },
    {
      "inputs": [],
      "name": "currentOption",
      "outputs": [
        {
          "internalType": "address",
          "name": "",
          "type": "address"
        }
      ],
      "stateMutability": "view",
      "type": "function"
    },
    {
      "inputs": [],
      "name": "currentOtokenPremium",
      "outputs": [
        {
          "internalType": "uint256",
          "name": "",
          "type": "uint256"
        }
      ],
      "stateMutability": "view",
      "type": "function"
    },
    {
      "inputs": [],
      "name": "decimals",
      "outputs": [
        {
          "internalType": "uint8",
          "name": "",
          "type": "uint8"
        }
      ],
      "stateMutability": "view",
      "type": "function"
    },
    {
      "inputs": [
        {
          "internalType": "address",
          "name": "spender",
          "type": "address"
        },
        {
          "internalType": "uint256",
          "name": "subtractedValue",
          "type": "uint256"
        }
      ],
      "name": "decreaseAllowance",
      "outputs": [
        {
          "internalType": "bool",
          "name": "",
          "type": "bool"
        }
      ],
      "stateMutability": "nonpayable",
      "type": "function"
    },
    {
      "inputs": [],
      "name": "delay",
      "outputs": [
        {
          "internalType": "uint256",
          "name": "",
          "type": "uint256"
        }
      ],
      "stateMutability": "view",
      "type": "function"
    },
    {
      "inputs": [
        {
          "internalType": "uint256",
          "name": "amount",
          "type": "uint256"
        }
      ],
      "name": "deposit",
      "outputs": [],
      "stateMutability": "nonpayable",
      "type": "function"
    },
    {
      "inputs": [],
      "name": "depositETH",
      "outputs": [],
      "stateMutability": "payable",
      "type": "function"
    },
    {
      "inputs": [
        {
          "internalType": "uint256",
          "name": "amount",
          "type": "uint256"
        },
        {
          "internalType": "address",
          "name": "creditor",
          "type": "address"
        }
      ],
      "name": "depositFor",
      "outputs": [],
      "stateMutability": "nonpayable",
      "type": "function"
    },
    {
      "inputs": [
        {
          "internalType": "address",
          "name": "",
          "type": "address"
        }
      ],
      "name": "depositReceipts",
      "outputs": [
        {
          "internalType": "uint16",
          "name": "round",
          "type": "uint16"
        },
        {
          "internalType": "uint104",
          "name": "amount",
          "type": "uint104"
        },
        {
          "internalType": "uint128",
          "name": "unredeemedShares",
          "type": "uint128"
        }
      ],
      "stateMutability": "view",
      "type": "function"
    },
    {
      "inputs": [],
      "name": "feeRecipient",
      "outputs": [
        {
          "internalType": "address",
          "name": "",
          "type": "address"
        }
      ],
      "stateMutability": "view",
      "type": "function"
    },
    {
      "inputs": [
        {
          "internalType": "address",
          "name": "spender",
          "type": "address"
        },
        {
          "internalType": "uint256",
          "name": "addedValue",
          "type": "uint256"
        }
      ],
      "name": "increaseAllowance",
      "outputs": [
        {
          "internalType": "bool",
          "name": "",
          "type": "bool"
        }
      ],
      "stateMutability": "nonpayable",
      "type": "function"
    },
    {
      "inputs": [
        {
          "internalType": "uint256",
          "name": "numRounds",
          "type": "uint256"
        }
      ],
      "name": "initRounds",
      "outputs": [],
      "stateMutability": "nonpayable",
      "type": "function"
    },
    {
      "inputs": [
        {
          "internalType": "address",
          "name": "_owner",
          "type": "address"
        },
        {
          "internalType": "address",
          "name": "_keeper",
          "type": "address"
        },
        {
          "internalType": "address",
          "name": "_feeRecipient",
          "type": "address"
        },
        {
          "internalType": "uint256",
          "name": "_managementFee",
          "type": "uint256"
        },
        {
          "internalType": "uint256",
          "name": "_performanceFee",
          "type": "uint256"
        },
        {
          "internalType": "string",
          "name": "tokenName",
          "type": "string"
        },
        {
          "internalType": "string",
          "name": "tokenSymbol",
          "type": "string"
        },
        {
          "internalType": "address",
          "name": "_optionsPremiumPricer",
          "type": "address"
        },
        {
          "internalType": "address",
          "name": "_strikeSelection",
          "type": "address"
        },
        {
          "internalType": "uint32",
          "name": "_premiumDiscount",
          "type": "uint32"
        },
        {
          "internalType": "uint256",
          "name": "_auctionDuration",
          "type": "uint256"
        },
        {
          "components": [
            {
              "internalType": "bool",
              "name": "isPut",
              "type": "bool"
            },
            {
              "internalType": "uint8",
              "name": "decimals",
              "type": "uint8"
            },
            {
              "internalType": "address",
              "name": "asset",
              "type": "address"
            },
            {
              "internalType": "address",
              "name": "underlying",
              "type": "address"
            },
            {
              "internalType": "uint56",
              "name": "minimumSupply",
              "type": "uint56"
            },
            {
              "internalType": "uint104",
              "name": "cap",
              "type": "uint104"
            }
          ],
          "internalType": "struct Vault.VaultParams",
          "name": "_vaultParams",
          "type": "tuple"
        }
      ],
      "name": "initialize",
      "outputs": [],
      "stateMutability": "nonpayable",
      "type": "function"
    },
    {
      "inputs": [
        {
          "internalType": "uint128",
          "name": "shares",
          "type": "uint128"
        }
      ],
      "name": "initiateWithdraw",
      "outputs": [],
      "stateMutability": "nonpayable",
      "type": "function"
    },
    {
      "inputs": [],
      "name": "keeper",
      "outputs": [
        {
          "internalType": "address",
          "name": "",
          "type": "address"
        }
      ],
      "stateMutability": "view",
      "type": "function"
    },
    {
      "inputs": [],
      "name": "lastStrikeOverride",
      "outputs": [
        {
          "internalType": "uint256",
          "name": "",
          "type": "uint256"
        }
      ],
      "stateMutability": "view",
      "type": "function"
    },
    {
      "inputs": [],
      "name": "managementFee",
      "outputs": [
        {
          "internalType": "uint256",
          "name": "",
          "type": "uint256"
        }
      ],
      "stateMutability": "view",
      "type": "function"
    },
    {
      "inputs": [],
      "name": "maxRedeem",
      "outputs": [],
      "stateMutability": "nonpayable",
      "type": "function"
    },
    {
      "inputs": [],
      "name": "name",
      "outputs": [
        {
          "internalType": "string",
          "name": "",
          "type": "string"
        }
      ],
      "stateMutability": "view",
      "type": "function"
    },
    {
      "inputs": [],
      "name": "nextOption",
      "outputs": [
        {
          "internalType": "address",
          "name": "",
          "type": "address"
        }
      ],
      "stateMutability": "view",
      "type": "function"
    },
    {
      "inputs": [],
      "name": "nextOptionReadyAt",
      "outputs": [
        {
          "internalType": "uint256",
          "name": "",
          "type": "uint256"
        }
      ],
      "stateMutability": "view",
      "type": "function"
    },
    {
      "inputs": [],
      "name": "optionAuctionID",
      "outputs": [
        {
          "internalType": "uint256",
          "name": "",
          "type": "uint256"
        }
      ],
      "stateMutability": "view",
      "type": "function"
    },
    {
      "inputs": [],
      "name": "optionState",
      "outputs": [
        {
          "internalType": "address",
          "name": "nextOption",
          "type": "address"
        },
        {
          "internalType": "address",
          "name": "currentOption",
          "type": "address"
        },
        {
          "internalType": "uint32",
          "name": "nextOptionReadyAt",
          "type": "uint32"
        }
      ],
      "stateMutability": "view",
      "type": "function"
    },
    {
      "inputs": [],
      "name": "optionsPremiumPricer",
      "outputs": [
        {
          "internalType": "address",
          "name": "",
          "type": "address"
        }
      ],
      "stateMutability": "view",
      "type": "function"
    },
    {
      "inputs": [],
      "name": "overriddenStrikePrice",
      "outputs": [
        {
          "internalType": "uint256",
          "name": "",
          "type": "uint256"
        }
      ],
      "stateMutability": "view",
      "type": "function"
    },
    {
      "inputs": [],
      "name": "owner",
      "outputs": [
        {
          "internalType": "address",
          "name": "",
          "type": "address"
        }
      ],
      "stateMutability": "view",
      "type": "function"
    },
    {
      "inputs": [],
      "name": "performanceFee",
      "outputs": [
        {
          "internalType": "uint256",
          "name": "",
          "type": "uint256"
        }
      ],
      "stateMutability": "view",
      "type": "function"
    },
    {
      "inputs": [],
      "name": "premiumDiscount",
      "outputs": [
        {
          "internalType": "uint256",
          "name": "",
          "type": "uint256"
        }
      ],
      "stateMutability": "view",
      "type": "function"
    },
    {
      "inputs": [],
      "name": "pricePerShare",
      "outputs": [
        {
          "internalType": "uint256",
          "name": "",
          "type": "uint256"
        }
      ],
      "stateMutability": "view",
      "type": "function"
    },
    {
      "inputs": [
        {
          "internalType": "uint256",
          "name": "shares",
          "type": "uint256"
        }
      ],
      "name": "redeem",
      "outputs": [],
      "stateMutability": "nonpayable",
      "type": "function"
    },
    {
      "inputs": [],
      "name": "renounceOwnership",
      "outputs": [],
      "stateMutability": "nonpayable",
      "type": "function"
    },
    {
      "inputs": [],
      "name": "rollToNextOption",
      "outputs": [],
      "stateMutability": "nonpayable",
      "type": "function"
    },
    {
      "inputs": [
        {
          "internalType": "uint256",
          "name": "",
          "type": "uint256"
        }
      ],
      "name": "roundPricePerShare",
      "outputs": [
        {
          "internalType": "uint256",
          "name": "",
          "type": "uint256"
        }
      ],
      "stateMutability": "view",
      "type": "function"
    },
    {
      "inputs": [
        {
          "internalType": "uint256",
          "name": "newAuctionDuration",
          "type": "uint256"
        }
      ],
      "name": "setAuctionDuration",
      "outputs": [],
      "stateMutability": "nonpayable",
      "type": "function"
    },
    {
      "inputs": [
        {
          "internalType": "uint256",
          "name": "newCap",
          "type": "uint256"
        }
      ],
      "name": "setCap",
      "outputs": [],
      "stateMutability": "nonpayable",
      "type": "function"
    },
    {
      "inputs": [
        {
          "internalType": "address",
          "name": "newFeeRecipient",
          "type": "address"
        }
      ],
      "name": "setFeeRecipient",
      "outputs": [],
      "stateMutability": "nonpayable",
      "type": "function"
    },
    {
      "inputs": [
        {
          "internalType": "uint256",
          "name": "newManagementFee",
          "type": "uint256"
        }
      ],
      "name": "setManagementFee",
      "outputs": [],
      "stateMutability": "nonpayable",
      "type": "function"
    },
    {
      "inputs": [
        {
          "internalType": "address",
          "name": "newKeeper",
          "type": "address"
        }
      ],
      "name": "setNewKeeper",
      "outputs": [],
      "stateMutability": "nonpayable",
      "type": "function"
    },
    {
      "inputs": [
        {
          "internalType": "address",
          "name": "newOptionsPremiumPricer",
          "type": "address"
        }
      ],
      "name": "setOptionsPremiumPricer",
      "outputs": [],
      "stateMutability": "nonpayable",
      "type": "function"
    },
    {
      "inputs": [
        {
          "internalType": "uint256",
          "name": "newPerformanceFee",
          "type": "uint256"
        }
      ],
      "name": "setPerformanceFee",
      "outputs": [],
      "stateMutability": "nonpayable",
      "type": "function"
    },
    {
      "inputs": [
        {
          "internalType": "uint256",
          "name": "newPremiumDiscount",
          "type": "uint256"
        }
      ],
      "name": "setPremiumDiscount",
      "outputs": [],
      "stateMutability": "nonpayable",
      "type": "function"
    },
    {
      "inputs": [
        {
          "internalType": "uint128",
          "name": "strikePrice",
          "type": "uint128"
        }
      ],
      "name": "setStrikePrice",
      "outputs": [],
      "stateMutability": "nonpayable",
      "type": "function"
    },
    {
      "inputs": [
        {
          "internalType": "address",
          "name": "newStrikeSelection",
          "type": "address"
        }
      ],
      "name": "setStrikeSelection",
      "outputs": [],
      "stateMutability": "nonpayable",
      "type": "function"
    },
    {
      "inputs": [
        {
          "internalType": "address",
          "name": "account",
          "type": "address"
        }
      ],
      "name": "shareBalances",
      "outputs": [
        {
          "internalType": "uint256",
          "name": "heldByAccount",
          "type": "uint256"
        },
        {
          "internalType": "uint256",
          "name": "heldByVault",
          "type": "uint256"
        }
      ],
      "stateMutability": "view",
      "type": "function"
    },
    {
      "inputs": [
        {
          "internalType": "address",
          "name": "account",
          "type": "address"
        }
      ],
      "name": "shares",
      "outputs": [
        {
          "internalType": "uint256",
          "name": "",
          "type": "uint256"
        }
      ],
      "stateMutability": "view",
      "type": "function"
    },
    {
      "inputs": [],
      "name": "startAuction",
      "outputs": [],
      "stateMutability": "nonpayable",
      "type": "function"
    },
    {
      "inputs": [],
      "name": "strikeSelection",
      "outputs": [
        {
          "internalType": "address",
          "name": "",
          "type": "address"
        }
      ],
      "stateMutability": "view",
      "type": "function"
    },
    {
      "inputs": [],
      "name": "symbol",
      "outputs": [
        {
          "internalType": "string",
          "name": "",
          "type": "string"
        }
      ],
      "stateMutability": "view",
      "type": "function"
    },
    {
      "inputs": [],
      "name": "totalBalance",
      "outputs": [
        {
          "internalType": "uint256",
          "name": "",
          "type": "uint256"
        }
      ],
      "stateMutability": "view",
      "type": "function"
    },
    {
      "inputs": [],
      "name": "totalPending",
      "outputs": [
        {
          "internalType": "uint256",
          "name": "",
          "type": "uint256"
        }
      ],
      "stateMutability": "view",
      "type": "function"
    },
    {
      "inputs": [],
      "name": "totalSupply",
      "outputs": [
        {
          "internalType": "uint256",
          "name": "",
          "type": "uint256"
        }
      ],
      "stateMutability": "view",
      "type": "function"
    },
    {
      "inputs": [
        {
          "internalType": "address",
          "name": "recipient",
          "type": "address"
        },
        {
          "internalType": "uint256",
          "name": "amount",
          "type": "uint256"
        }
      ],
      "name": "transfer",
      "outputs": [
        {
          "internalType": "bool",
          "name": "",
          "type": "bool"
        }
      ],
      "stateMutability": "nonpayable",
      "type": "function"
    },
    {
      "inputs": [
        {
          "internalType": "address",
          "name": "sender",
          "type": "address"
        },
        {
          "internalType": "address",
          "name": "recipient",
          "type": "address"
        },
        {
          "internalType": "uint256",
          "name": "amount",
          "type": "uint256"
        }
      ],
      "name": "transferFrom",
      "outputs": [
        {
          "internalType": "bool",
          "name": "",
          "type": "bool"
        }
      ],
      "stateMutability": "nonpayable",
      "type": "function"
    },
    {
      "inputs": [
        {
          "internalType": "address",
          "name": "newOwner",
          "type": "address"
        }
      ],
      "name": "transferOwnership",
      "outputs": [],
      "stateMutability": "nonpayable",
      "type": "function"
    },
    {
      "inputs": [],
      "name": "vaultParams",
      "outputs": [
        {
          "internalType": "bool",
          "name": "isPut",
          "type": "bool"
        },
        {
          "internalType": "uint8",
          "name": "decimals",
          "type": "uint8"
        },
        {
          "internalType": "address",
          "name": "asset",
          "type": "address"
        },
        {
          "internalType": "address",
          "name": "underlying",
          "type": "address"
        },
        {
          "internalType": "uint56",
          "name": "minimumSupply",
          "type": "uint56"
        },
        {
          "internalType": "uint104",
          "name": "cap",
          "type": "uint104"
        }
      ],
      "stateMutability": "view",
      "type": "function"
    },
    {
      "inputs": [],
      "name": "vaultState",
      "outputs": [
        {
          "internalType": "uint16",
          "name": "round",
          "type": "uint16"
        },
        {
          "internalType": "uint104",
          "name": "lockedAmount",
          "type": "uint104"
        },
        {
          "internalType": "uint104",
          "name": "lastLockedAmount",
          "type": "uint104"
        },
        {
          "internalType": "uint128",
          "name": "totalPending",
          "type": "uint128"
        },
        {
          "internalType": "uint128",
          "name": "queuedWithdrawShares",
          "type": "uint128"
        }
      ],
      "stateMutability": "view",
      "type": "function"
    },
    {
      "inputs": [
        {
          "internalType": "uint256",
          "name": "amount",
          "type": "uint256"
        }
      ],
      "name": "withdrawInstantly",
      "outputs": [],
      "stateMutability": "nonpayable",
      "type": "function"
    },
    {
      "inputs": [
        {
          "internalType": "address",
          "name": "",
          "type": "address"
        }
      ],
      "name": "withdrawals",
      "outputs": [
        {
          "internalType": "uint16",
          "name": "round",
          "type": "uint16"
        },
        {
          "internalType": "uint128",
          "name": "shares",
          "type": "uint128"
        }
      ],
      "stateMutability": "view",
      "type": "function"
    }
  ],
  "transactionHash": "0x37c8b48be7cc402d4c4fd5dcaa4f93fe5459212e19013abdce1695b5f9005dc2",
  "args": [
    "0xC02aaA39b223FE8D0A0e5C4F27eAD9083C756Cc2",
    "0xA0b86991c6218b36c1d19D4a2e9Eb0cE3606eB48",
    "0x7C06792Af1632E77cb27a558Dc0885338F4Bdf8E",
    "0x4ccc2339F87F6c59c6893E1A678c2266cA58dC72",
    "0x5934807cC0654d46755eBd2848840b616256C6Ef",
    "0x0b7fFc1f4AD541A4Ed16b40D8c37f0929158D101"
  ],
  "solcInputHash": "2e4925995c2a59c872739f2df55ffe63",
  "bytecode": "0x6101406040523480156200001257600080fd5b5060405162005d2838038062005d288339810160408190526200003591620001a5565b85858484846001600160a01b0385166200006c5760405162461bcd60e51b8152600401620000639062000250565b60405180910390fd5b6001600160a01b038416620000955760405162461bcd60e51b81526004016200006390620002f6565b6001600160a01b038116620000be5760405162461bcd60e51b8152600401620000639062000270565b6001600160a01b038316620000e75760405162461bcd60e51b8152600401620000639062000225565b6001600160a01b038216620001105760405162461bcd60e51b81526004016200006390620002d0565b6001600160601b0319606095861b811660805293851b841660a05291841b831660c052831b821660e05290911b16610100526001600160a01b0384166200016b5760405162461bcd60e51b81526004016200006390620002a7565b50505060601b6001600160601b0319166101205250620003169050565b80516001600160a01b0381168114620001a057600080fd5b919050565b60008060008060008060c08789031215620001be578182fd5b620001c98762000188565b9550620001d96020880162000188565b9450620001e96040880162000188565b9350620001f96060880162000188565b9250620002096080880162000188565b91506200021960a0880162000188565b90509295509295509295565b60208082526011908201527010afb3b0b6b6b0a1b7b73a3937b63632b960791b604082015260600190565b602080825260069082015265042beeecae8d60d31b604082015260600190565b60208082526013908201527f215f676e6f7369734561737941756374696f6e00000000000000000000000000604082015260600190565b6020808252600f908201526e215f6f546f6b656e466163746f727960881b604082015260600190565b6020808252600c908201526b0857db585c99da5b941bdbdb60a21b604082015260600190565b602080825260069082015265215f7573646360d01b604082015260600190565b60805160601c60a05160601c60c05160601c60e05160601c6101005160601c6101205160601c61597f620003a96000398061229852806125485250806117e852806118ce5250806117245280612063525080610cdb528061165852806120415280613902525080611a7f528061256d525080611dfb528061280752806128825280612e075280612e45525061597f6000f3fe6080604052600436106104265760003560e01c80638b10cc7c11610229578063b9f8092b1161012e578063e73c63d5116100b6578063f6326fb31161007a578063f6326fb314610b99578063f656ba5114610ba1578063f756fa2114610bcf578063f957a06714610be4578063fe56e23214610bf957610426565b8063e73c63d514610b1a578063e74b981b14610b2f578063ea00b1ca14610b4f578063f17addd314610b64578063f2fde38b14610b7957610426565b8063d5f26382116100fd578063d5f2638214610a90578063db006a7514610aa5578063db43e86214610ac5578063dd62ed3e14610ada578063e16fdbd514610afa57610426565b8063b9f8092b14610a1b578063ce7c2ac214610a30578063d13f1b3e14610a50578063d164cc1514610a7057610426565b8063a457c2d7116101b1578063aced166111610180578063aced1661146109a7578063ad5c4648146109bc578063ad7a672f146109d1578063afa66264146109e6578063b6b55f25146109fb57610426565b8063a457c2d714610932578063a497e67414610952578063a6f7f5d614610972578063a9059cbb1461098757610426565b80639be43daa116101f85780639be43daa1461089d5780639fcc2d75146108bd578063a083ff17146108e4578063a285c9e814610908578063a2db9d831461091d57610426565b80638b10cc7c146108495780638da5cb5b1461085e57806395d89b411461087357806399530b061461088857610426565b806347786d371161032f5780636f31ab34116102b75780637a9262a2116102865780637a9262a2146107bc57806383536ff3146107ea57806387153eb1146107ff578063877887821461081f57806389a302711461083457610426565b80636f31ab341461075257806370897b231461076757806370a0823114610787578063715018a6146107a757610426565b8063650cce8a116102fe578063650cce8a146106cf5780636719b2ee146106e45780636a42b8f8146107135780636b64c769146107285780636c10f66c1461073d57610426565b806347786d371461065a57806355489bb21461067a5780635dc25e7b1461069a578063600a2cfb146106ba57610426565b8063313ce567116103b25780633f23bb73116103815780633f23bb73146105db5780633f90916a146105fb578063432833a6146106105780634603c0aa14610625578063469048401461064557610426565b8063313ce56714610564578063355274ea1461058657806336efd16f1461059b57806339509351146105bb57610426565b80631a92f6c2116103f95780631a92f6c2146104ba57806323b872dd146104dc5780632728f333146104fc5780632775d01c1461052257806330630da41461054457610426565b806306fdde031461042b578063095ea7b3146104565780630cbf54c81461048357806318160ddd146104a5575b600080fd5b34801561043757600080fd5b50610440610c19565b60405161044d9190614b5b565b60405180910390f35b34801561046257600080fd5b5061047661047136600461466f565b610caf565b60405161044d9190614b07565b34801561048f57600080fd5b50610498610ccd565b60405161044d9190615662565b3480156104b157600080fd5b50610498610cd3565b3480156104c657600080fd5b506104cf610cd9565b60405161044d919061485c565b3480156104e857600080fd5b506104766104f736600461462f565b610cfd565b34801561050857600080fd5b50610511610d85565b60405161044d9594939291906155d9565b34801561052e57600080fd5b5061054261053d36600461471b565b610dc3565b005b34801561055057600080fd5b5061054261055f3660046144dc565b610f30565b34801561057057600080fd5b50610579610fb7565b60405161044d91906156e2565b34801561059257600080fd5b50610498610fc5565b3480156105a757600080fd5b506105426105b636600461474b565b610fd4565b3480156105c757600080fd5b506104766105d636600461466f565b61105c565b3480156105e757600080fd5b506104986105f63660046144dc565b6110aa565b34801561060757600080fd5b50610498611122565b34801561061c57600080fd5b50610498611131565b34801561063157600080fd5b506105426106403660046144dc565b611137565b34801561065157600080fd5b506104cf6111be565b34801561066657600080fd5b5061054261067536600461471b565b6111cd565b34801561068657600080fd5b506105426106953660046146f4565b61125d565b3480156106a657600080fd5b506105426106b53660046146f4565b611306565b3480156106c657600080fd5b50610542611531565b3480156106db57600080fd5b506104cf611722565b3480156106f057600080fd5b506107046106ff3660046144dc565b611746565b60405161044d93929190615617565b34801561071f57600080fd5b5061049861177e565b34801561073457600080fd5b50610542611784565b34801561074957600080fd5b506104cf6118cc565b34801561075e57600080fd5b506105426118f0565b34801561077357600080fd5b5061054261078236600461471b565b61192d565b34801561079357600080fd5b506104986107a23660046144dc565b611994565b3480156107b357600080fd5b506105426119af565b3480156107c857600080fd5b506107dc6107d73660046144dc565b611a38565b60405161044d929190615645565b3480156107f657600080fd5b50610498611a5f565b34801561080b57600080fd5b5061049861081a36600461471b565b611a65565b34801561082b57600080fd5b50610498611a77565b34801561084057600080fd5b506104cf611a7d565b34801561085557600080fd5b506104cf611aa1565b34801561086a57600080fd5b506104cf611ab0565b34801561087f57600080fd5b50610440611abf565b34801561089457600080fd5b50610498611b20565b3480156108a957600080fd5b506105426108b836600461471b565b611b68565b3480156108c957600080fd5b506108d2611c34565b60405161044d96959493929190614b12565b3480156108f057600080fd5b506108f9611c80565b60405161044d93929190614ac5565b34801561091457600080fd5b50610498611ca5565b34801561092957600080fd5b506104cf611cb8565b34801561093e57600080fd5b5061047661094d36600461466f565b611cc7565b34801561095e57600080fd5b5061054261096d36600461471b565b611d2f565b34801561097e57600080fd5b50610498611dd0565b34801561099357600080fd5b506104766109a236600461466f565b611dd6565b3480156109b357600080fd5b506104cf611dea565b3480156109c857600080fd5b506104cf611df9565b3480156109dd57600080fd5b50610498611e1d565b3480156109f257600080fd5b506104cf611ec6565b348015610a0757600080fd5b50610542610a1636600461471b565b611ed5565b348015610a2757600080fd5b50610542611f49565b348015610a3c57600080fd5b50610498610a4b3660046144dc565b6120e8565b348015610a5c57600080fd5b50610542610a6b36600461471b565b61210d565b348015610a7c57600080fd5b50610542610a8b3660046144dc565b6121b9565b348015610a9c57600080fd5b50610498612240565b348015610ab157600080fd5b50610542610ac036600461471b565b612246565b348015610ad157600080fd5b506104cf612296565b348015610ae657600080fd5b50610498610af53660046144f8565b6122ba565b348015610b0657600080fd5b50610542610b15366004614530565b6122e5565b348015610b2657600080fd5b5061049861246a565b348015610b3b57600080fd5b50610542610b4a3660046144dc565b612470565b348015610b5b57600080fd5b506105426124f7565b348015610b7057600080fd5b50610498612713565b348015610b8557600080fd5b50610542610b943660046144dc565b612719565b6105426127da565b348015610bad57600080fd5b50610bc1610bbc3660046144dc565b6128ef565b60405161044d9291906156ba565b348015610bdb57600080fd5b506105426129bf565b348015610bf057600080fd5b506104cf612b43565b348015610c0557600080fd5b50610542610c1436600461471b565b612b52565b609a8054604080516020601f6002600019610100600188161502019095169490940493840181900481028201810190925282815260609390929091830182828015610ca55780601f10610c7a57610100808354040283529160200191610ca5565b820191906000526020600020905b815481529060010190602001808311610c8857829003601f168201915b5050505050905090565b6000610cc3610cbc612bcf565b8484612bd3565b5060015b92915050565b60dd5481565b60995490565b7f000000000000000000000000000000000000000000000000000000000000000081565b6000610d0a848484612c87565b610d7a84610d16612bcf565b610d75856040518060600160405280602881526020016158fd602891396001600160a01b038a16600090815260986020526040812090610d54612bcf565b6001600160a01b031681526020810191909152604001600020549190612d9c565b612bd3565b5060015b9392505050565b60cf5460d05461ffff8216916001600160681b03620100008204811692600160781b90920416906001600160801b0380821691600160801b90041685565b60026001541415610def5760405162461bcd60e51b8152600401610de6906154bd565b60405180910390fd5b600260015533600090815260c96020526040902060cf5461ffff1682610e275760405162461bcd60e51b8152600401610de690615409565b815461ffff168114610e4b5760405162461bcd60e51b8152600401610de690614e08565b81546201000090046001600160681b031683811015610e7c5760405162461bcd60e51b8152600401610de6906152f8565b610e868185612dc8565b83546001600160681b0391909116620100000262010000600160781b031990911617835560d054610ec0906001600160801b031685612dc8565b60d080546001600160801b0319166001600160801b039290921691909117905560405133907fab2daf3c146ca6416cbccd2a86ed2ba995e171ef6319df14a38aef01403a9c9690610f1490879086906156ba565b60405180910390a2610f263385612df0565b5050600180555050565b610f38612bcf565b6001600160a01b0316610f49611ab0565b6001600160a01b031614610f6f5760405162461bcd60e51b8152600401610de6906150e8565b6001600160a01b038116610f955760405162461bcd60e51b8152600401610de690614ddb565b60d880546001600160a01b0319166001600160a01b0392909216919091179055565b60cc54610100900460ff1690565b60ce546001600160681b031690565b60026001541415610ff75760405162461bcd60e51b8152600401610de6906154bd565b6002600155816110195760405162461bcd60e51b8152600401610de690615409565b6001600160a01b03811661102c57600080fd5b6110368282612f49565b60cc54611054906201000090046001600160a01b0316333085613193565b505060018055565b6000610cc3611069612bcf565b84610d75856098600061107a612bcf565b6001600160a01b03908116825260208083019390935260409182016000908120918c1681529252902054906131f1565b60cc54600090610100900460ff16816110c2846120e8565b905060006111076110d1610cd3565b60d0546111019060ff8716600a0a906110fb906001600160801b03166110f5611e1d565b90612dc8565b90613216565b90613250565b905061111782828560ff16613282565b93505050505b919050565b60d0546001600160801b031690565b60de5481565b61113f612bcf565b6001600160a01b0316611150611ab0565b6001600160a01b0316146111765760405162461bcd60e51b8152600401610de6906150e8565b6001600160a01b03811661119c5760405162461bcd60e51b8152600401610de690615579565b60d780546001600160a01b0319166001600160a01b0392909216919091179055565b60d3546001600160a01b031681565b6111d5612bcf565b6001600160a01b03166111e6611ab0565b6001600160a01b03161461120c5760405162461bcd60e51b8152600401610de6906150e8565b6000811161122c5760405162461bcd60e51b8152600401610de69061511d565b611235816132b6565b60ce80546cffffffffffffffffffffffffff19166001600160681b0392909216919091179055565b611265612bcf565b6001600160a01b0316611276611ab0565b6001600160a01b03161461129c5760405162461bcd60e51b8152600401610de6906150e8565b600260015414156112bf5760405162461bcd60e51b8152600401610de6906154bd565b60026001556001600160801b0381166112ea5760405162461bcd60e51b8152600401610de69061528d565b6001600160801b031660dc5560cf5461ffff1660db5560018055565b600260015414156113295760405162461bcd60e51b8152600401610de6906154bd565b60026001556001600160801b0381166113545760405162461bcd60e51b8152600401610de690615194565b33600090815260c960205260409020546201000090046001600160681b031615158061139e575033600090815260c96020526040902054600160781b90046001600160801b031615155b156113af576113af600060016132e0565b60cf5433600081815260cb6020526040908190208054915161ffff948516949193919092168414917f0c53c82ad07e2d592d88ece3b066777dd60f1118e2a081b380efc4358f0d9e2a916114069187908790614870565b60405180910390a181546201000090046001600160801b0316811561147f57600061143a826001600160801b0388166131f1565b9050611445816134a4565b33600090815260cb6020526040902080546001600160801b03909216620100000262010000600160901b03199092169190911790556114db565b806114c35733600090815260cb60205260409020805462010000600160901b031916620100006001600160801b038816021761ffff191661ffff86161790556114db565b60405162461bcd60e51b8152600401610de69061531f565b60d0546114fc90600160801b90046001600160801b039081169087166131f1565b60d080546001600160801b03928316600160801b0290831617905561152690339030908816612c87565b505060018055505050565b60d4546001600160a01b0316331461155b5760405162461bcd60e51b8152600401610de690614fb0565b6002600154141561157e5760405162461bcd60e51b8152600401610de6906154bd565b600260015560d2546040516370a0823160e01b81526000916001600160a01b0316906370a08231906115b490309060040161485c565b60206040518083038186803b1580156115cc57600080fd5b505afa1580156115e0573d6000803e3d6000fd5b505050506040513d601f19601f820116820180604052508101906116049190614733565b9050600081116116265760405162461bcd60e51b8152600401610de69061503e565b60405163f60c4fc760e01b81526000907393C48f3dC0Df467ca9089925bD8256C62Af1F5229063f60c4fc790611682907f0000000000000000000000000000000000000000000000000000000000000000908690600401614aee565b60206040518083038186803b15801561169a57600080fd5b505af41580156116ae573d6000803e3d6000fd5b505050506040513d601f19601f820116820180604052508101906116d29190614733565b60cf549091506116f1906201000090046001600160681b031682612dc8565b60cf80546001600160681b0392909216620100000262010000600160781b0319909216919091179055505060018055565b7f000000000000000000000000000000000000000000000000000000000000000081565b60c96020526000908152604090205461ffff8116906201000081046001600160681b031690600160781b90046001600160801b031683565b610e1081565b60d4546001600160a01b031633146117ae5760405162461bcd60e51b8152600401610de690614fb0565b6117b66142fa565b60da54806117d65760405162461bcd60e51b8152600401610de690614c28565b60d2546001600160a01b0390811683527f00000000000000000000000000000000000000000000000000000000000000008116602084015260cc5462010000810490911660408085019190915261010090910460ff1660608401526080830182905260dd5460a084015251633baf17fd60e21b81527393C48f3dC0Df467ca9089925bD8256C62Af1F5229063eebc5ff4906118759085906004016155b0565b60206040518083038186803b15801561188d57600080fd5b505af41580156118a1573d6000803e3d6000fd5b505050506040513d601f19601f820116820180604052508101906118c59190614733565b60de555050565b7f000000000000000000000000000000000000000000000000000000000000000081565b600260015414156119135760405162461bcd60e51b8152600401610de6906154bd565b6002600181905550611927600060016132e0565b60018055565b611935612bcf565b6001600160a01b0316611946611ab0565b6001600160a01b03161461196c5760405162461bcd60e51b8152600401610de6906150e8565b6305f5e100811061198f5760405162461bcd60e51b8152600401610de69061515d565b60d555565b6001600160a01b031660009081526097602052604090205490565b6119b7612bcf565b6001600160a01b03166119c8611ab0565b6001600160a01b0316146119ee5760405162461bcd60e51b8152600401610de6906150e8565b6065546040516000916001600160a01b0316907f8be0079c531659141344cd1fd0a4f28419497f9722a3daafe3b4186f6b6457e0908390a3606580546001600160a01b0319169055565b60cb6020526000908152604090205461ffff8116906201000090046001600160801b031682565b60d95481565b60ca6020526000908152604090205481565b60d55481565b7f000000000000000000000000000000000000000000000000000000000000000081565b60d2546001600160a01b031690565b6065546001600160a01b031690565b609b8054604080516020601f6002600019610100600188161502019095169490940493840181900481028201810190925282815260609390929091830182828015610ca55780601f10610c7a57610100808354040283529160200191610ca5565b60d0546000908190611b3d906001600160801b03166110f5611e1d565b9050611b62611b4a610cd3565b60cc5461110190610100900460ff16600a0a84613216565b91505090565b60026001541415611b8b5760405162461bcd60e51b8152600401610de6906154bd565b600260015560348110611bb05760405162461bcd60e51b8152600401610de690614f5d565b60cf5461ffff1660005b82811015611c2b5781810182811015611be55760405162461bcd60e51b8152600401610de690614bdb565b600081815260ca602052604090205415611c115760405162461bcd60e51b8152600401610de6906153e4565b600090815260ca6020526040902060019081905501611bba565b50506001805550565b60cc5460cd5460ce5460ff80841693610100810490911692620100009091046001600160a01b039081169290821691600160a01b900466ffffffffffffff16906001600160681b031686565b60d15460d2546001600160a01b0391821691811690600160a01b900463ffffffff1683565b60d254600160a01b900463ffffffff1690565b60d1546001600160a01b031690565b6000610cc3611cd4612bcf565b84610d75856040518060600160405280602581526020016159256025913960986000611cfe612bcf565b6001600160a01b03908116825260208083019390935260409182016000908120918d16815292529020549190612d9c565b611d37612bcf565b6001600160a01b0316611d48611ab0565b6001600160a01b031614611d6e5760405162461bcd60e51b8152600401610de6906150e8565b610e10811015611d905760405162461bcd60e51b8152600401610de6906151f6565b7f5acd982e2240ed224a69aa03dab039d3797c108e4b5f288cd7dd6ca181b275f360dd5482604051611dc39291906156ba565b60405180910390a160dd55565b60d65481565b6000610cc3611de3612bcf565b8484612c87565b60d4546001600160a01b031681565b7f000000000000000000000000000000000000000000000000000000000000000081565b60cc546040516370a0823160e01b8152600091611ec191620100009091046001600160a01b0316906370a0823190611e5990309060040161485c565b60206040518083038186803b158015611e7157600080fd5b505afa158015611e85573d6000803e3d6000fd5b505050506040513d601f19601f82011682018060405250810190611ea99190614733565b60cf546201000090046001600160681b0316906131f1565b905090565b60d7546001600160a01b031681565b60026001541415611ef85760405162461bcd60e51b8152600401610de6906154bd565b600260015580611f1a5760405162461bcd60e51b8152600401610de690615409565b611f248133612f49565b60cc54611f42906201000090046001600160a01b0316333084613193565b5060018055565b60d4546001600160a01b03163314611f735760405162461bcd60e51b8152600401610de690614fb0565b60026001541415611f965760405162461bcd60e51b8152600401610de6906154bd565b6002600155600080611fa66134cb565b60cf805462010000600160781b031916620100006001600160681b0384160217905560405191935091506001600160a01b038316907f045c558fdce4714c5816d53820d27420f4cd860892df203fe636384d8d19aa019061200a908490339061566b565b60405180910390a2604051632904c23960e01b81527393C48f3dC0Df467ca9089925bD8256C62Af1F52290632904c2399061208f907f0000000000000000000000000000000000000000000000000000000000000000907f000000000000000000000000000000000000000000000000000000000000000090879087906004016148bb565b60206040518083038186803b1580156120a757600080fd5b505af41580156120bb573d6000803e3d6000fd5b505050506040513d601f19601f820116820180604052508101906120df9190614733565b50611054611784565b60008060006120f6846128ef565b909250905061210582826131f1565b949350505050565b612115612bcf565b6001600160a01b0316612126611ab0565b6001600160a01b03161461214c5760405162461bcd60e51b8152600401610de6906150e8565b60008111801561215d57506103e881105b6121795760405162461bcd60e51b8152600401610de690614b6e565b7f4cd657fde404967d63a338fb06c5c98751a9df57dfae6dc333a432faf8a5f65660d954826040516121ac9291906156ba565b60405180910390a160d955565b6121c1612bcf565b6001600160a01b03166121d2611ab0565b6001600160a01b0316146121f85760405162461bcd60e51b8152600401610de6906150e8565b6001600160a01b03811661221e5760405162461bcd60e51b8152600401610de690615499565b60d480546001600160a01b0319166001600160a01b0392909216919091179055565b60da5481565b600260015414156122695760405162461bcd60e51b8152600401610de6906154bd565b60026001558061228b5760405162461bcd60e51b8152600401610de690615194565b611f428160006132e0565b7f000000000000000000000000000000000000000000000000000000000000000081565b6001600160a01b03918216600090815260986020908152604080832093909416825291909152205490565b600054610100900460ff16806122fe57506122fe61368c565b8061230c575060005460ff16155b6123285760405162461bcd60e51b8152600401610de690614ff0565b600054610100900460ff16158015612353576000805460ff1961ff0019909116610100171660011790555b6123638d8d8d8d8d8d8d8961369d565b6001600160a01b0386166123895760405162461bcd60e51b8152600401610de69061525d565b6001600160a01b0385166123af5760405162461bcd60e51b8152600401610de690614bfd565b60008463ffffffff161180156123cc57506103e88463ffffffff16105b6123e85760405162461bcd60e51b8152600401610de690614ca6565b610e1083101561240a5760405162461bcd60e51b8152600401610de690614c57565b60d780546001600160a01b038089166001600160a01b03199283161790925560d880549288169290911691909117905563ffffffff841660d95560dd839055801561245b576000805461ff00191690555b50505050505050505050505050565b60dc5481565b612478612bcf565b6001600160a01b0316612489611ab0565b6001600160a01b0316146124af5760405162461bcd60e51b8152600401610de6906150e8565b6001600160a01b0381166124d55760405162461bcd60e51b8152600401610de690614f86565b60d380546001600160a01b0319166001600160a01b0392909216919091179055565b6002600154141561251a5760405162461bcd60e51b8152600401610de6906154bd565b600260015560d2546001600160a01b03166125336142fa565b506040805160c0810182526001600160a01b037f0000000000000000000000000000000000000000000000000000000000000000811682527f00000000000000000000000000000000000000000000000000000000000000008116602083015283811682840152610e10606083015260db54608083015260dc5460a083015260d85460d75460d9549451630349525360e11b815293946000948594859485947393C48f3dC0Df467ca9089925bD8256C62Af1F52294630692a4a69461260b949384169392909216918b9060cc9060cf90600401614a08565b60806040518083038186803b15801561262357600080fd5b505af4158015612637573d6000803e3d6000fd5b505050506040513d601f19601f8201168201806040525081019061265b919061469a565b93509350935093507fa217999b1c125c2a996f712c5f26a28addad7167bd8a67d5bd5b2a751148abb082826040516126949291906156ba565b60405180910390a16126a5836132b6565b6001600160681b03831660da5560d180546001600160a01b0319166001600160a01b0386161790556126d942610e106131f1565b60d2805463ffffffff92909216600160a01b0263ffffffff60a01b1990921691909117905561270786613849565b50506001805550505050565b60db5481565b612721612bcf565b6001600160a01b0316612732611ab0565b6001600160a01b0316146127585760405162461bcd60e51b8152600401610de6906150e8565b6001600160a01b03811661277e5760405162461bcd60e51b8152600401610de690614cf1565b6065546040516001600160a01b038084169216907f8be0079c531659141344cd1fd0a4f28419497f9722a3daafe3b4186f6b6457e090600090a3606580546001600160a01b0319166001600160a01b0392909216919091179055565b600260015414156127fd5760405162461bcd60e51b8152600401610de6906154bd565b600260015560cc547f00000000000000000000000000000000000000000000000000000000000000006001600160a01b039081166201000090920416146128565760405162461bcd60e51b8152600401610de690614fd1565b600034116128765760405162461bcd60e51b8152600401610de690614cd1565b6128803433612f49565b7f00000000000000000000000000000000000000000000000000000000000000006001600160a01b031663d0e30db0346040518263ffffffff1660e01b81526004016000604051808303818588803b1580156128db57600080fd5b505af1158015611526573d6000803e3d6000fd5b6000806128fa61434b565b506001600160a01b038316600090815260c960209081526040918290208251606081018452905461ffff81168083526201000082046001600160681b031693830193909352600160781b90046001600160801b031692810192909252600111156129735761296784611994565b600092509250506129ba565b60cf54815161ffff908116600090815260ca602052604081205460cc5491936129a993869391169190610100900460ff166139c4565b90506129b485611994565b93509150505b915091565b600260015414156129e25760405162461bcd60e51b8152600401610de6906154bd565b600260015533600090815260cb6020526040902080546001600160801b03620100008204169061ffff1681612a295760405162461bcd60e51b8152600401610de6906150c1565b60cf5461ffff168110612a4e5760405162461bcd60e51b8152600401610de690614e94565b33600090815260cb60205260409020805462010000600160901b031916905560d054612a8a90600160801b90046001600160801b031683612dc8565b60d080546001600160801b03928316600160801b02921691909117905561ffff8116600090815260ca602052604081205460cc54612ad291859160ff61010090910416613282565b90507ff279e6a1f5e320cca91135676d9cb6e44ca8a08c0b88342bcdb1144f6511b568338285604051612b079392919061489a565b60405180910390a1612b193084613a35565b60008111612b395760405162461bcd60e51b8152600401610de6906154f4565b610f263382612df0565b60d8546001600160a01b031681565b612b5a612bcf565b6001600160a01b0316612b6b611ab0565b6001600160a01b031614612b915760405162461bcd60e51b8152600401610de6906150e8565b6305f5e1008110612bb45760405162461bcd60e51b8152600401610de69061522d565b612bc963031ba30961110183620f4240613216565b60d65550565b3390565b6001600160a01b038316612bf95760405162461bcd60e51b8152600401610de69061534a565b6001600160a01b038216612c1f5760405162461bcd60e51b8152600401610de690614d37565b6001600160a01b0380841660008181526098602090815260408083209487168084529490915290819020849055517f8c5be1e5ebec7d5bd14f71427d1e84f3dd0314c0f7b2291e5b200ac8c7c3b92590612c7a908590615662565b60405180910390a3505050565b6001600160a01b038316612cad5760405162461bcd60e51b8152600401610de6906152b3565b6001600160a01b038216612cd35760405162461bcd60e51b8152600401610de690614b98565b612cde838383612f43565b612d1b816040518060600160405280602681526020016158d7602691396001600160a01b0386166000908152609760205260409020549190612d9c565b6001600160a01b038085166000908152609760205260408082209390935590841681522054612d4a90826131f1565b6001600160a01b0380841660008181526097602052604090819020939093559151908516907fddf252ad1be2c89b69c2b068fc378daa952ba7f163c4a11628f55a4df523b3ef90612c7a908590615662565b60008184841115612dc05760405162461bcd60e51b8152600401610de69190614b5b565b505050900390565b600082821115612dea5760405162461bcd60e51b8152600401610de690614e5d565b50900390565b60cc546001600160a01b03620100009091048116907f000000000000000000000000000000000000000000000000000000000000000016811415612f2f57604051632e1a7d4d60e01b81526001600160a01b037f00000000000000000000000000000000000000000000000000000000000000001690632e1a7d4d90612e7a908590600401615662565b600060405180830381600087803b158015612e9457600080fd5b505af1158015612ea8573d6000803e3d6000fd5b505050506000836001600160a01b031683604051612ec590614859565b60006040518083038185875af1925050503d8060008114612f02576040519150601f19603f3d011682016040523d82523d6000602084013e612f07565b606091505b5050905080612f285760405162461bcd60e51b8152600401610de690614f3b565b5050612f45565b612f436001600160a01b0382168484613b17565b505b5050565b60cf5461ffff166000612f6484612f5e611e1d565b906131f1565b60ce549091506001600160681b0316811115612f925760405162461bcd60e51b8152600401610de690614c82565b60cd54600160a01b900466ffffffffffffff16811015612fc45760405162461bcd60e51b8152600401610de690614e2f565b826001600160a01b03167f90890809c654f11d6e72a28fa60149770a0d11ec6c92319d6ceb2bb0a4ea1a158584604051612fff9291906156ba565b60405180910390a261300f61434b565b506001600160a01b038316600090815260c9602090815260408083208151606081018352905461ffff81168083526201000082046001600160681b031683860152600160781b9091046001600160801b031682840152845260ca90925282205460cc5491929161308b918491879190610100900460ff166139c4565b8251909150869061ffff168514156130bc5760208301516000906130b8906001600160681b0316896131f1565b9150505b6130c5816132b6565b6040805160608101825261ffff87811682526001600160681b0384811660208085019182528783168587019081526001600160a01b038d16600090815260c9909252959020935184549151955161ffff1990921693169290921762010000600160781b03191662010000949091169390930292909217600160781b600160f81b031916600160781b6001600160801b039384160217905560d05461316a9116886131f1565b60d080546001600160801b0319166001600160801b039290921691909117905550505050505050565b6131eb846323b872dd60e01b8585856040516024016131b4939291906149e4565b60408051601f198184030181529190526020810180516001600160e01b03166001600160e01b031990931692909217909152613b36565b50505050565b600082820183811015610d7e5760405162461bcd60e51b8152600401610de690614d79565b60008261322557506000610cc7565b8282028284828161323257fe5b0414610d7e5760405162461bcd60e51b8152600401610de690615060565b60008082116132715760405162461bcd60e51b8152600401610de690614f04565b81838161327a57fe5b049392505050565b6000600183116132a45760405162461bcd60e51b8152600401610de69061542a565b612105600a83900a6111018686613216565b6001600160681b038111156132dd5760405162461bcd60e51b8152600401610de69061513e565b50565b6132e9826134a4565b33600090815260c96020908152604080832060cf54815461ffff80821680885260ca87528588205460cc5487516060810189528381526201000086046001600160681b031699810199909952600160781b9094046001600160801b03169688019690965293969216949293919261336c929091869190610100900460ff166139c4565b905084613379578561337b565b805b95506000861161339d5760405162461bcd60e51b8152600401610de690615194565b808611156133bd5760405162461bcd60e51b8152600401610de690614db0565b8282106133da5783546201000090046001600160681b03166133dd565b60005b33600090815260c96020526040902080546001600160681b0392909216620100000262010000600160781b031990921691909117905561341d8187612dc8565b33600081815260c960205260409081902080546001600160801b0394909416600160781b02600160781b600160f81b03199094169390931790925590517fe5b754fb1abb7f01b499791d0b820ae3b6af3424ac1c59768edb53f4ec31a9299061348990899086906156ba565b60405180910390a261349c303388612c87565b505050505050565b6001600160801b038111156132dd5760405162461bcd60e51b8152600401610de6906153c5565b60d2546000908190600160a01b900463ffffffff164210156134ff5760405162461bcd60e51b8152600401610de6906150a1565b60d1546001600160a01b0316806135285760405162461bcd60e51b8152600401610de69061551d565b60008060007393C48f3dC0Df467ca9089925bD8256C62Af1F52263afc0a5db61354f610cd3565b60cc5460d05460405160e085901b6001600160e01b03191681526135a593926201000081046001600160a01b03169261010090910460ff16916001600160801b0380831692600160801b90041690600401615682565b60606040518083038186803b1580156135bd57600080fd5b505af41580156135d1573d6000803e3d6000fd5b505050506040513d601f19601f820116820180604052508101906135f5919061476f565b60d280546001600160a01b0389166001600160a01b03199182161790915560d18054909116905560cf5461ffff16600081815260ca60205260409020839055929550909350915061364f61364885613bc5565b8590612dc8565b60d080546001600160801b031916905560cf805461ffff19166001840161ffff16179055935061367f3083613ccb565b5092945090925050509091565b600061369730613d7f565b15905090565b600054610100900460ff16806136b657506136b661368c565b806136c4575060005460ff16155b6136e05760405162461bcd60e51b8152600401610de690614ff0565b600054610100900460ff1615801561370b576000805460ff1961ff0019909116610100171660011790555b60405163a5a9dde760e01b81527393C48f3dC0Df467ca9089925bD8256C62Af1F5229063a5a9dde79061374e908c908c908c908b908b908b908b906004016148e5565b60006040518083038186803b15801561376657600080fd5b505af415801561377a573d6000803e3d6000fd5b50505050613786613d85565b6137908484613e0f565b613798613ea5565b6137a189612719565b60d480546001600160a01b03808b166001600160a01b03199283161790925560d38054928a169290911691909117905560d58590556137eb63031ba30961110188620f4240613216565b60d6558160cc6137fb8282615764565b505060cf805461ffff19600160781b600160e01b03199091166cffffffffffffffffffffffffff60781b17166001179055801561383e576000805461ff00191690555b505050505050505050565b60d280546001600160a01b031916905560cf546201000090046001600160681b0316806138885760cf54600160781b90046001600160681b031661388a565b805b60cf805462010000600160781b03196001600160681b0393909316600160781b02600160781b600160e01b0319909116179190911690556001600160a01b03821615612f4557604051636c6fe87f60e11b81526000907393C48f3dC0Df467ca9089925bD8256C62Af1F5229063d8dfd0fe9061392a907f00000000000000000000000000000000000000000000000000000000000000009060040161485c565b60206040518083038186803b15801561394257600080fd5b505af4158015613956573d6000803e3d6000fd5b505050506040513d601f19601f8201168201806040525081019061397a9190614733565b9050826001600160a01b03167f7e830f7c1771deb1bdb35c4a7e6051bbac32b376f7f4e4976b8618b0b11997f782336040516139b792919061566b565b60405180910390a2505050565b835160009061ffff16158015906139df5750845161ffff1684115b15613a215760006139fe86602001516001600160681b03168585613f23565b6040870151909150613a19906001600160801b0316826131f1565b915050612105565b50505050604001516001600160801b031690565b6001600160a01b038216613a5b5760405162461bcd60e51b8152600401610de6906151b5565b613a6782600083612f43565b613aa4816040518060600160405280602281526020016158b5602291396001600160a01b0385166000908152609760205260409020549190612d9c565b6001600160a01b038316600090815260976020526040902055609954613aca9082612dc8565b6099556040516000906001600160a01b038416907fddf252ad1be2c89b69c2b068fc378daa952ba7f163c4a11628f55a4df523b3ef90613b0b908590615662565b60405180910390a35050565b612f438363a9059cbb60e01b84846040516024016131b4929190614aee565b6060613b8b826040518060400160405280602081526020017f5361666545524332303a206c6f772d6c6576656c2063616c6c206661696c6564815250856001600160a01b0316613f579092919063ffffffff16565b805190915015612f435780806020019051810190613ba991906146d8565b612f435760405162461bcd60e51b8152600401610de69061544f565b60008060007393C48f3dC0Df467ca9089925bD8256C62Af1F52263d38e319760cf8660d55460d6546040518563ffffffff1660e01b8152600401613c0c94939291906155be565b60606040518083038186803b158015613c2457600080fd5b505af4158015613c38573d6000803e3d6000fd5b505050506040513d601f19601f82011682018060405250810190613c5c919061476f565b92505091506000811115610d7e5760d354613c80906001600160a01b031682612df0565b60cf546040517fada62e8302f1310b252c959c188269b9a41b22ae1730d21f69eec09488dee14491613cbc918591859161ffff909116906156c8565b60405180910390a19392505050565b6001600160a01b038216613cf15760405162461bcd60e51b8152600401610de690615542565b613cfd60008383612f43565b609954613d0a90826131f1565b6099556001600160a01b038216600090815260976020526040902054613d3090826131f1565b6001600160a01b0383166000818152609760205260408082209390935591519091907fddf252ad1be2c89b69c2b068fc378daa952ba7f163c4a11628f55a4df523b3ef90613b0b908590615662565b3b151590565b600054610100900460ff1680613d9e5750613d9e61368c565b80613dac575060005460ff16155b613dc85760405162461bcd60e51b8152600401610de690614ff0565b600054610100900460ff16158015613df3576000805460ff1961ff0019909116610100171660011790555b613dfb613f66565b80156132dd576000805461ff001916905550565b600054610100900460ff1680613e285750613e2861368c565b80613e36575060005460ff16155b613e525760405162461bcd60e51b8152600401610de690614ff0565b600054610100900460ff16158015613e7d576000805460ff1961ff0019909116610100171660011790555b613e85613fec565b613e8f838361406d565b8015612f43576000805461ff0019169055505050565b600054610100900460ff1680613ebe5750613ebe61368c565b80613ecc575060005460ff16155b613ee85760405162461bcd60e51b8152600401610de690614ff0565b600054610100900460ff16158015613f13576000805460ff1961ff0019909116610100171660011790555b613f1b613fec565b613dfb614126565b600060018311613f455760405162461bcd60e51b8152600401610de69061542a565b6121058361110186600a86900a613216565b60606121058484600085614200565b600054610100900460ff1680613f7f5750613f7f61368c565b80613f8d575060005460ff16155b613fa95760405162461bcd60e51b8152600401610de690614ff0565b600054610100900460ff16158015613fd4576000805460ff1961ff0019909116610100171660011790555b6001805580156132dd576000805461ff001916905550565b600054610100900460ff1680614005575061400561368c565b80614013575060005460ff16155b61402f5760405162461bcd60e51b8152600401610de690614ff0565b600054610100900460ff16158015613dfb576000805460ff1961ff00199091166101001716600117905580156132dd576000805461ff001916905550565b600054610100900460ff1680614086575061408661368c565b80614094575060005460ff16155b6140b05760405162461bcd60e51b8152600401610de690614ff0565b600054610100900460ff161580156140db576000805460ff1961ff0019909116610100171660011790555b82516140ee90609a90602086019061436b565b50815161410290609b90602085019061436b565b50609c805460ff191660121790558015612f43576000805461ff0019169055505050565b600054610100900460ff168061413f575061413f61368c565b8061414d575060005460ff16155b6141695760405162461bcd60e51b8152600401610de690614ff0565b600054610100900460ff16158015614194576000805460ff1961ff0019909116610100171660011790555b600061419e612bcf565b606580546001600160a01b0319166001600160a01b038316908117909155604051919250906000907f8be0079c531659141344cd1fd0a4f28419497f9722a3daafe3b4186f6b6457e0908290a35080156132dd576000805461ff001916905550565b6060824710156142225760405162461bcd60e51b8152600401610de690614ebe565b61422b85613d7f565b6142475760405162461bcd60e51b8152600401610de69061538e565b60006060866001600160a01b03168587604051614264919061483d565b60006040518083038185875af1925050503d80600081146142a1576040519150601f19603f3d011682016040523d82523d6000602084013e6142a6565b606091505b50915091506142b68282866142c1565b979650505050505050565b606083156142d0575081610d7e565b8251156142e05782518084602001fd5b8160405162461bcd60e51b8152600401610de69190614b5b565b6040518060c0016040528060006001600160a01b0316815260200160006001600160a01b0316815260200160006001600160a01b031681526020016000815260200160008152602001600081525090565b604080516060810182526000808252602082018190529181019190915290565b828054600181600116156101000203166002900490600052602060002090601f016020900481019282601f106143ac57805160ff19168380011785556143d9565b828001600101855582156143d9579182015b828111156143d95782518255916020019190600101906143be565b506143e59291506143e9565b5090565b5b808211156143e557600081556001016143ea565b803561111d81615891565b600082601f830112614419578081fd5b813567ffffffffffffffff8082111561442e57fe5b604051601f8301601f19168101602001828111828210171561444c57fe5b60405282815292508284830160200186101561446757600080fd5b8260208601602083013760006020848301015250505092915050565b600060c08284031215614494578081fd5b50919050565b80356001600160681b038116811461111d57600080fd5b803563ffffffff8116811461111d57600080fd5b803566ffffffffffffff8116811461111d57600080fd5b6000602082840312156144ed578081fd5b8135610d7e81615891565b6000806040838503121561450a578081fd5b823561451581615891565b9150602083013561452581615891565b809150509250929050565b6000806000806000806000806000806000806102208d8f031215614552578788fd5b61455b8d6143fe565b9b5061456960208e016143fe565b9a5061457760408e016143fe565b995060608d0135985060808d0135975067ffffffffffffffff60a08e0135111561459f578687fd5b6145af8e60a08f01358f01614409565b965067ffffffffffffffff60c08e013511156145c9578586fd5b6145d98e60c08f01358f01614409565b95506145e760e08e016143fe565b94506145f66101008e016143fe565b93506146056101208e016144b1565b92506101408d0135915061461d8e6101608f01614483565b90509295989b509295989b509295989b565b600080600060608486031215614643578283fd5b833561464e81615891565b9250602084013561465e81615891565b929592945050506040919091013590565b60008060408385031215614681578182fd5b823561468c81615891565b946020939093013593505050565b600080600080608085870312156146af578384fd5b84516146ba81615891565b60208601516040870151606090970151919890975090945092505050565b6000602082840312156146e9578081fd5b8151610d7e816158a6565b600060208284031215614705578081fd5b81356001600160801b0381168114610d7e578182fd5b60006020828403121561472c578081fd5b5035919050565b600060208284031215614744578081fd5b5051919050565b6000806040838503121561475d578182fd5b82359150602083013561452581615891565b600080600060608486031215614783578081fd5b8351925060208401519150604084015190509250925092565b6001600160a01b03169052565b600081518084526147c18160208601602086016156f0565b601f01601f19169290920160200192915050565b80516001600160a01b03908116835260208083015182169084015260408083015190911690830152606080820151908301526080808201519083015260a090810151910152565b6001600160681b03169052565b66ffffffffffffff169052565b60ff169052565b6000825161484f8184602087016156f0565b9190910192915050565b90565b6001600160a01b0391909116815260200190565b6001600160a01b039390931683526001600160801b03919091166020830152604082015260600190565b6001600160a01b039390931683526020830191909152604082015260600190565b6001600160a01b039485168152928416602084015292166040820152606081019190915260800190565b6001600160a01b0388811682528781166020830152861660408201526060810185905261018060808201819052600090614921838201876147a9565b905082810360a084015261493581866147a9565b9150508235614943816158a6565b151560c0830152602083013560ff8116811461495e57600080fd5b61496b60e0840182614836565b50614978604084016143fe565b61498661010084018261479c565b50614993606084016143fe565b6149a161012084018261479c565b506149ae608084016144c5565b6149bc610140840182614829565b506149c960a0840161449a565b6149d761016084018261481c565b5098975050505050505050565b6001600160a01b039384168152919092166020820152604081019190915260600190565b6001600160a01b038781168252868116602083015260408201869052610200820190614a3760608401876147d5565b845460ff8116151561012085015260ff8160081c16610140850152614a656101608501838360101c1661479c565b506001850154614a7b610180850183831661479c565b614a956101a0850166ffffffffffffff8360a01c16614829565b5050614aa4600285015461571c565b614ab26101c084018261481c565b50826101e0830152979650505050505050565b6001600160a01b03938416815291909216602082015263ffffffff909116604082015260600190565b6001600160a01b03929092168252602082015260400190565b901515815260200190565b951515865260ff9490941660208601526001600160a01b0392831660408601529116606084015266ffffffffffffff1660808301526001600160681b031660a082015260c00190565b600060208252610d7e60208301846147a9565b60208082526010908201526f125b9d985b1a5908191a5cd8dbdd5b9d60821b604082015260600190565b60208082526023908201527f45524332303a207472616e7366657220746f20746865207a65726f206164647260408201526265737360e81b606082015260800190565b6020808252600890820152674f766572666c6f7760c01b604082015260600190565b60208082526011908201527010afb9ba3934b5b2a9b2b632b1ba34b7b760791b604082015260600190565b6020808252601590820152742163757272656e744f746f6b656e5072656d69756d60581b604082015260600190565b60208082526011908201527010afb0bab1ba34b7b7223ab930ba34b7b760791b604082015260600190565b6020808252600a90820152690457863656564206361760b41b604082015260600190565b6020808252601190820152700857dc1c995b5a5d5b511a5cd8dbdd5b9d607a1b604082015260600190565b6020808252600690820152652176616c756560d01b604082015260600190565b60208082526026908201527f4f776e61626c653a206e6577206f776e657220697320746865207a65726f206160408201526564647265737360d01b606082015260800190565b60208082526022908201527f45524332303a20617070726f766520746f20746865207a65726f206164647265604082015261737360f01b606082015260800190565b6020808252601b908201527f536166654d6174683a206164646974696f6e206f766572666c6f770000000000604082015260600190565b6020808252601190820152704578636565647320617661696c61626c6560781b604082015260600190565b60208082526013908201527210b732bba9ba3934b5b2a9b2b632b1ba34b7b760691b604082015260600190565b6020808252600d908201526c125b9d985b1a59081c9bdd5b99609a1b604082015260600190565b602080825260149082015273496e73756666696369656e742062616c616e636560601b604082015260600190565b6020808252601e908201527f536166654d6174683a207375627472616374696f6e206f766572666c6f770000604082015260600190565b60208082526010908201526f149bdd5b99081b9bdd0818db1bdcd95960821b604082015260600190565b60208082526026908201527f416464726573733a20696e73756666696369656e742062616c616e636520666f6040820152651c8818d85b1b60d21b606082015260800190565b6020808252601a908201527f536166654d6174683a206469766973696f6e206279207a65726f000000000000604082015260600190565b602080825260089082015267217375636365737360c01b604082015260600190565b6020808252600f908201526e373ab6a937bab73239901f1e901a9960891b604082015260600190565b60208082526010908201526f085b995dd19959549958da5c1a595b9d60821b604082015260600190565b60208082526007908201526610b5b2b2b832b960c91b604082015260600190565b602080825260059082015264042ae8aa8960db1b604082015260600190565b6020808252602e908201527f496e697469616c697a61626c653a20636f6e747261637420697320616c72656160408201526d191e481a5b9a5d1a585b1a5e995960921b606082015260800190565b602080825260089082015267216f746f6b656e7360c01b604082015260600190565b60208082526021908201527f536166654d6174683a206d756c7469706c69636174696f6e206f766572666c6f6040820152607760f81b606082015260800190565b60208082526006908201526521726561647960d01b604082015260600190565b6020808252600d908201526c139bdd081a5b9a5d1a585d1959609a1b604082015260600190565b6020808252818101527f4f776e61626c653a2063616c6c6572206973206e6f7420746865206f776e6572604082015260600190565b6020808252600790820152660216e65774361760cc1b604082015260600190565b6020808252600590820152640f954c4c0d60da1b604082015260600190565b60208082526017908201527f496e76616c696420706572666f726d616e636520666565000000000000000000604082015260600190565b6020808252600790820152662173686172657360c81b604082015260600190565b60208082526021908201527f45524332303a206275726e2066726f6d20746865207a65726f206164647265736040820152607360f81b606082015260800190565b60208082526018908201527f496e76616c69642061756374696f6e206475726174696f6e0000000000000000604082015260600190565b602080825260169082015275496e76616c6964206d616e6167656d656e742066656560501b604082015260600190565b60208082526016908201527510afb7b83a34b7b739a83932b6b4bab6a83934b1b2b960511b604082015260600190565b6020808252600c908201526b21737472696b65507269636560a01b604082015260600190565b60208082526025908201527f45524332303a207472616e736665722066726f6d20746865207a65726f206164604082015264647265737360d81b606082015260800190565b6020808252600d908201526c115e18d9595908185b5bdd5b9d609a1b604082015260600190565b6020808252601190820152704578697374696e6720776974686472617760781b604082015260600190565b60208082526024908201527f45524332303a20617070726f76652066726f6d20746865207a65726f206164646040820152637265737360e01b606082015260800190565b6020808252601d908201527f416464726573733a2063616c6c20746f206e6f6e2d636f6e7472616374000000604082015260600190565b60208082526005908201526407caa6264760db1b604082015260600190565b6020808252600b908201526a125b9a5d1a585b1a5e995960aa1b604082015260600190565b60208082526007908201526608585b5bdd5b9d60ca1b604082015260600190565b6020808252600b908201526a496e76616c69642070707360a81b604082015260600190565b6020808252602a908201527f5361666545524332303a204552433230206f7065726174696f6e20646964206e6040820152691bdd081cdd58d8d9595960b21b606082015260800190565b6020808252600a908201526910b732bba5b2b2b832b960b11b604082015260600190565b6020808252601f908201527f5265656e7472616e637947756172643a207265656e7472616e742063616c6c00604082015260600190565b6020808252600f908201526e085dda5d1a191c985dd05b5bdd5b9d608a1b604082015260600190565b6020808252600b908201526a10b732bc3a27b83a34b7b760a91b604082015260600190565b6020808252601f908201527f45524332303a206d696e7420746f20746865207a65726f206164647265737300604082015260600190565b60208082526018908201527f216e65774f7074696f6e735072656d69756d5072696365720000000000000000604082015260600190565b60c08101610cc782846147d5565b93845260208401929092526040830152606082015260800190565b61ffff9590951685526001600160681b0393841660208601529190921660408401526001600160801b03918216606084015216608082015260a00190565b61ffff9390931683526001600160681b039190911660208301526001600160801b0316604082015260600190565b61ffff9290921682526001600160801b0316602082015260400190565b90815260200190565b9182526001600160a01b0316602082015260400190565b9485526001600160a01b0393909316602085015260ff91909116604084015260608301526001600160801b0316608082015260a00190565b918252602082015260400190565b928352602083019190915261ffff16604082015260600190565b60ff91909116815260200190565b60005b8381101561570b5781810151838201526020016156f3565b838111156131eb5750506000910152565b6001600160681b031690565b80356001600160a01b038116811461111d57fe5b80356001600160681b038116811461111d57fe5b803566ffffffffffffff8116811461111d57fe5b8135801515811461577157fe5b60ff1982541660ff8216811783555050602082013560ff8116811461579257fe5b61579e8160018461582b565b506157b66157ae60408401615728565b600283615805565b6157c260608301615728565b600182016157d282600083615805565b6157e96157e160808601615750565b60148361586d565b5050612f456157fa60a0840161573c565b600060028401615849565b805460089290920292831b6001600160a01b0390931b9283169219909116919091179055565b80546008830260ff811b8086831b1681198416178455505050505050565b8054600883026001600160681b03811b8086831b1681198416178455505050505050565b80546008830266ffffffffffffff811b8086831b1681198416178455505050505050565b6001600160a01b03811681146132dd57600080fd5b80151581146132dd57600080fdfe45524332303a206275726e20616d6f756e7420657863656564732062616c616e636545524332303a207472616e7366657220616d6f756e7420657863656564732062616c616e636545524332303a207472616e7366657220616d6f756e74206578636565647320616c6c6f77616e636545524332303a2064656372656173656420616c6c6f77616e63652062656c6f77207a65726fa2646970667358221220706faa5d258dc1a6952148b0254cdc5de31ffdd0deb83241bf21bcef4af258a464736f6c63430007030033",
  "deployedBytecode": "0x6080604052600436106104265760003560e01c80638b10cc7c11610229578063b9f8092b1161012e578063e73c63d5116100b6578063f6326fb31161007a578063f6326fb314610b99578063f656ba5114610ba1578063f756fa2114610bcf578063f957a06714610be4578063fe56e23214610bf957610426565b8063e73c63d514610b1a578063e74b981b14610b2f578063ea00b1ca14610b4f578063f17addd314610b64578063f2fde38b14610b7957610426565b8063d5f26382116100fd578063d5f2638214610a90578063db006a7514610aa5578063db43e86214610ac5578063dd62ed3e14610ada578063e16fdbd514610afa57610426565b8063b9f8092b14610a1b578063ce7c2ac214610a30578063d13f1b3e14610a50578063d164cc1514610a7057610426565b8063a457c2d7116101b1578063aced166111610180578063aced1661146109a7578063ad5c4648146109bc578063ad7a672f146109d1578063afa66264146109e6578063b6b55f25146109fb57610426565b8063a457c2d714610932578063a497e67414610952578063a6f7f5d614610972578063a9059cbb1461098757610426565b80639be43daa116101f85780639be43daa1461089d5780639fcc2d75146108bd578063a083ff17146108e4578063a285c9e814610908578063a2db9d831461091d57610426565b80638b10cc7c146108495780638da5cb5b1461085e57806395d89b411461087357806399530b061461088857610426565b806347786d371161032f5780636f31ab34116102b75780637a9262a2116102865780637a9262a2146107bc57806383536ff3146107ea57806387153eb1146107ff578063877887821461081f57806389a302711461083457610426565b80636f31ab341461075257806370897b231461076757806370a0823114610787578063715018a6146107a757610426565b8063650cce8a116102fe578063650cce8a146106cf5780636719b2ee146106e45780636a42b8f8146107135780636b64c769146107285780636c10f66c1461073d57610426565b806347786d371461065a57806355489bb21461067a5780635dc25e7b1461069a578063600a2cfb146106ba57610426565b8063313ce567116103b25780633f23bb73116103815780633f23bb73146105db5780633f90916a146105fb578063432833a6146106105780634603c0aa14610625578063469048401461064557610426565b8063313ce56714610564578063355274ea1461058657806336efd16f1461059b57806339509351146105bb57610426565b80631a92f6c2116103f95780631a92f6c2146104ba57806323b872dd146104dc5780632728f333146104fc5780632775d01c1461052257806330630da41461054457610426565b806306fdde031461042b578063095ea7b3146104565780630cbf54c81461048357806318160ddd146104a5575b600080fd5b34801561043757600080fd5b50610440610c19565b60405161044d9190614b5b565b60405180910390f35b34801561046257600080fd5b5061047661047136600461466f565b610caf565b60405161044d9190614b07565b34801561048f57600080fd5b50610498610ccd565b60405161044d9190615662565b3480156104b157600080fd5b50610498610cd3565b3480156104c657600080fd5b506104cf610cd9565b60405161044d919061485c565b3480156104e857600080fd5b506104766104f736600461462f565b610cfd565b34801561050857600080fd5b50610511610d85565b60405161044d9594939291906155d9565b34801561052e57600080fd5b5061054261053d36600461471b565b610dc3565b005b34801561055057600080fd5b5061054261055f3660046144dc565b610f30565b34801561057057600080fd5b50610579610fb7565b60405161044d91906156e2565b34801561059257600080fd5b50610498610fc5565b3480156105a757600080fd5b506105426105b636600461474b565b610fd4565b3480156105c757600080fd5b506104766105d636600461466f565b61105c565b3480156105e757600080fd5b506104986105f63660046144dc565b6110aa565b34801561060757600080fd5b50610498611122565b34801561061c57600080fd5b50610498611131565b34801561063157600080fd5b506105426106403660046144dc565b611137565b34801561065157600080fd5b506104cf6111be565b34801561066657600080fd5b5061054261067536600461471b565b6111cd565b34801561068657600080fd5b506105426106953660046146f4565b61125d565b3480156106a657600080fd5b506105426106b53660046146f4565b611306565b3480156106c657600080fd5b50610542611531565b3480156106db57600080fd5b506104cf611722565b3480156106f057600080fd5b506107046106ff3660046144dc565b611746565b60405161044d93929190615617565b34801561071f57600080fd5b5061049861177e565b34801561073457600080fd5b50610542611784565b34801561074957600080fd5b506104cf6118cc565b34801561075e57600080fd5b506105426118f0565b34801561077357600080fd5b5061054261078236600461471b565b61192d565b34801561079357600080fd5b506104986107a23660046144dc565b611994565b3480156107b357600080fd5b506105426119af565b3480156107c857600080fd5b506107dc6107d73660046144dc565b611a38565b60405161044d929190615645565b3480156107f657600080fd5b50610498611a5f565b34801561080b57600080fd5b5061049861081a36600461471b565b611a65565b34801561082b57600080fd5b50610498611a77565b34801561084057600080fd5b506104cf611a7d565b34801561085557600080fd5b506104cf611aa1565b34801561086a57600080fd5b506104cf611ab0565b34801561087f57600080fd5b50610440611abf565b34801561089457600080fd5b50610498611b20565b3480156108a957600080fd5b506105426108b836600461471b565b611b68565b3480156108c957600080fd5b506108d2611c34565b60405161044d96959493929190614b12565b3480156108f057600080fd5b506108f9611c80565b60405161044d93929190614ac5565b34801561091457600080fd5b50610498611ca5565b34801561092957600080fd5b506104cf611cb8565b34801561093e57600080fd5b5061047661094d36600461466f565b611cc7565b34801561095e57600080fd5b5061054261096d36600461471b565b611d2f565b34801561097e57600080fd5b50610498611dd0565b34801561099357600080fd5b506104766109a236600461466f565b611dd6565b3480156109b357600080fd5b506104cf611dea565b3480156109c857600080fd5b506104cf611df9565b3480156109dd57600080fd5b50610498611e1d565b3480156109f257600080fd5b506104cf611ec6565b348015610a0757600080fd5b50610542610a1636600461471b565b611ed5565b348015610a2757600080fd5b50610542611f49565b348015610a3c57600080fd5b50610498610a4b3660046144dc565b6120e8565b348015610a5c57600080fd5b50610542610a6b36600461471b565b61210d565b348015610a7c57600080fd5b50610542610a8b3660046144dc565b6121b9565b348015610a9c57600080fd5b50610498612240565b348015610ab157600080fd5b50610542610ac036600461471b565b612246565b348015610ad157600080fd5b506104cf612296565b348015610ae657600080fd5b50610498610af53660046144f8565b6122ba565b348015610b0657600080fd5b50610542610b15366004614530565b6122e5565b348015610b2657600080fd5b5061049861246a565b348015610b3b57600080fd5b50610542610b4a3660046144dc565b612470565b348015610b5b57600080fd5b506105426124f7565b348015610b7057600080fd5b50610498612713565b348015610b8557600080fd5b50610542610b943660046144dc565b612719565b6105426127da565b348015610bad57600080fd5b50610bc1610bbc3660046144dc565b6128ef565b60405161044d9291906156ba565b348015610bdb57600080fd5b506105426129bf565b348015610bf057600080fd5b506104cf612b43565b348015610c0557600080fd5b50610542610c1436600461471b565b612b52565b609a8054604080516020601f6002600019610100600188161502019095169490940493840181900481028201810190925282815260609390929091830182828015610ca55780601f10610c7a57610100808354040283529160200191610ca5565b820191906000526020600020905b815481529060010190602001808311610c8857829003601f168201915b5050505050905090565b6000610cc3610cbc612bcf565b8484612bd3565b5060015b92915050565b60dd5481565b60995490565b7f000000000000000000000000000000000000000000000000000000000000000081565b6000610d0a848484612c87565b610d7a84610d16612bcf565b610d75856040518060600160405280602881526020016158fd602891396001600160a01b038a16600090815260986020526040812090610d54612bcf565b6001600160a01b031681526020810191909152604001600020549190612d9c565b612bd3565b5060015b9392505050565b60cf5460d05461ffff8216916001600160681b03620100008204811692600160781b90920416906001600160801b0380821691600160801b90041685565b60026001541415610def5760405162461bcd60e51b8152600401610de6906154bd565b60405180910390fd5b600260015533600090815260c96020526040902060cf5461ffff1682610e275760405162461bcd60e51b8152600401610de690615409565b815461ffff168114610e4b5760405162461bcd60e51b8152600401610de690614e08565b81546201000090046001600160681b031683811015610e7c5760405162461bcd60e51b8152600401610de6906152f8565b610e868185612dc8565b83546001600160681b0391909116620100000262010000600160781b031990911617835560d054610ec0906001600160801b031685612dc8565b60d080546001600160801b0319166001600160801b039290921691909117905560405133907fab2daf3c146ca6416cbccd2a86ed2ba995e171ef6319df14a38aef01403a9c9690610f1490879086906156ba565b60405180910390a2610f263385612df0565b5050600180555050565b610f38612bcf565b6001600160a01b0316610f49611ab0565b6001600160a01b031614610f6f5760405162461bcd60e51b8152600401610de6906150e8565b6001600160a01b038116610f955760405162461bcd60e51b8152600401610de690614ddb565b60d880546001600160a01b0319166001600160a01b0392909216919091179055565b60cc54610100900460ff1690565b60ce546001600160681b031690565b60026001541415610ff75760405162461bcd60e51b8152600401610de6906154bd565b6002600155816110195760405162461bcd60e51b8152600401610de690615409565b6001600160a01b03811661102c57600080fd5b6110368282612f49565b60cc54611054906201000090046001600160a01b0316333085613193565b505060018055565b6000610cc3611069612bcf565b84610d75856098600061107a612bcf565b6001600160a01b03908116825260208083019390935260409182016000908120918c1681529252902054906131f1565b60cc54600090610100900460ff16816110c2846120e8565b905060006111076110d1610cd3565b60d0546111019060ff8716600a0a906110fb906001600160801b03166110f5611e1d565b90612dc8565b90613216565b90613250565b905061111782828560ff16613282565b93505050505b919050565b60d0546001600160801b031690565b60de5481565b61113f612bcf565b6001600160a01b0316611150611ab0565b6001600160a01b0316146111765760405162461bcd60e51b8152600401610de6906150e8565b6001600160a01b03811661119c5760405162461bcd60e51b8152600401610de690615579565b60d780546001600160a01b0319166001600160a01b0392909216919091179055565b60d3546001600160a01b031681565b6111d5612bcf565b6001600160a01b03166111e6611ab0565b6001600160a01b03161461120c5760405162461bcd60e51b8152600401610de6906150e8565b6000811161122c5760405162461bcd60e51b8152600401610de69061511d565b611235816132b6565b60ce80546cffffffffffffffffffffffffff19166001600160681b0392909216919091179055565b611265612bcf565b6001600160a01b0316611276611ab0565b6001600160a01b03161461129c5760405162461bcd60e51b8152600401610de6906150e8565b600260015414156112bf5760405162461bcd60e51b8152600401610de6906154bd565b60026001556001600160801b0381166112ea5760405162461bcd60e51b8152600401610de69061528d565b6001600160801b031660dc5560cf5461ffff1660db5560018055565b600260015414156113295760405162461bcd60e51b8152600401610de6906154bd565b60026001556001600160801b0381166113545760405162461bcd60e51b8152600401610de690615194565b33600090815260c960205260409020546201000090046001600160681b031615158061139e575033600090815260c96020526040902054600160781b90046001600160801b031615155b156113af576113af600060016132e0565b60cf5433600081815260cb6020526040908190208054915161ffff948516949193919092168414917f0c53c82ad07e2d592d88ece3b066777dd60f1118e2a081b380efc4358f0d9e2a916114069187908790614870565b60405180910390a181546201000090046001600160801b0316811561147f57600061143a826001600160801b0388166131f1565b9050611445816134a4565b33600090815260cb6020526040902080546001600160801b03909216620100000262010000600160901b03199092169190911790556114db565b806114c35733600090815260cb60205260409020805462010000600160901b031916620100006001600160801b038816021761ffff191661ffff86161790556114db565b60405162461bcd60e51b8152600401610de69061531f565b60d0546114fc90600160801b90046001600160801b039081169087166131f1565b60d080546001600160801b03928316600160801b0290831617905561152690339030908816612c87565b505060018055505050565b60d4546001600160a01b0316331461155b5760405162461bcd60e51b8152600401610de690614fb0565b6002600154141561157e5760405162461bcd60e51b8152600401610de6906154bd565b600260015560d2546040516370a0823160e01b81526000916001600160a01b0316906370a08231906115b490309060040161485c565b60206040518083038186803b1580156115cc57600080fd5b505afa1580156115e0573d6000803e3d6000fd5b505050506040513d601f19601f820116820180604052508101906116049190614733565b9050600081116116265760405162461bcd60e51b8152600401610de69061503e565b60405163f60c4fc760e01b815260009073__$c4f279750f4bbb575ac7775e752dc00849$__9063f60c4fc790611682907f0000000000000000000000000000000000000000000000000000000000000000908690600401614aee565b60206040518083038186803b15801561169a57600080fd5b505af41580156116ae573d6000803e3d6000fd5b505050506040513d601f19601f820116820180604052508101906116d29190614733565b60cf549091506116f1906201000090046001600160681b031682612dc8565b60cf80546001600160681b0392909216620100000262010000600160781b0319909216919091179055505060018055565b7f000000000000000000000000000000000000000000000000000000000000000081565b60c96020526000908152604090205461ffff8116906201000081046001600160681b031690600160781b90046001600160801b031683565b610e1081565b60d4546001600160a01b031633146117ae5760405162461bcd60e51b8152600401610de690614fb0565b6117b66142fa565b60da54806117d65760405162461bcd60e51b8152600401610de690614c28565b60d2546001600160a01b0390811683527f00000000000000000000000000000000000000000000000000000000000000008116602084015260cc5462010000810490911660408085019190915261010090910460ff1660608401526080830182905260dd5460a084015251633baf17fd60e21b815273__$c4f279750f4bbb575ac7775e752dc00849$__9063eebc5ff4906118759085906004016155b0565b60206040518083038186803b15801561188d57600080fd5b505af41580156118a1573d6000803e3d6000fd5b505050506040513d601f19601f820116820180604052508101906118c59190614733565b60de555050565b7f000000000000000000000000000000000000000000000000000000000000000081565b600260015414156119135760405162461bcd60e51b8152600401610de6906154bd565b6002600181905550611927600060016132e0565b60018055565b611935612bcf565b6001600160a01b0316611946611ab0565b6001600160a01b03161461196c5760405162461bcd60e51b8152600401610de6906150e8565b6305f5e100811061198f5760405162461bcd60e51b8152600401610de69061515d565b60d555565b6001600160a01b031660009081526097602052604090205490565b6119b7612bcf565b6001600160a01b03166119c8611ab0565b6001600160a01b0316146119ee5760405162461bcd60e51b8152600401610de6906150e8565b6065546040516000916001600160a01b0316907f8be0079c531659141344cd1fd0a4f28419497f9722a3daafe3b4186f6b6457e0908390a3606580546001600160a01b0319169055565b60cb6020526000908152604090205461ffff8116906201000090046001600160801b031682565b60d95481565b60ca6020526000908152604090205481565b60d55481565b7f000000000000000000000000000000000000000000000000000000000000000081565b60d2546001600160a01b031690565b6065546001600160a01b031690565b609b8054604080516020601f6002600019610100600188161502019095169490940493840181900481028201810190925282815260609390929091830182828015610ca55780601f10610c7a57610100808354040283529160200191610ca5565b60d0546000908190611b3d906001600160801b03166110f5611e1d565b9050611b62611b4a610cd3565b60cc5461110190610100900460ff16600a0a84613216565b91505090565b60026001541415611b8b5760405162461bcd60e51b8152600401610de6906154bd565b600260015560348110611bb05760405162461bcd60e51b8152600401610de690614f5d565b60cf5461ffff1660005b82811015611c2b5781810182811015611be55760405162461bcd60e51b8152600401610de690614bdb565b600081815260ca602052604090205415611c115760405162461bcd60e51b8152600401610de6906153e4565b600090815260ca6020526040902060019081905501611bba565b50506001805550565b60cc5460cd5460ce5460ff80841693610100810490911692620100009091046001600160a01b039081169290821691600160a01b900466ffffffffffffff16906001600160681b031686565b60d15460d2546001600160a01b0391821691811690600160a01b900463ffffffff1683565b60d254600160a01b900463ffffffff1690565b60d1546001600160a01b031690565b6000610cc3611cd4612bcf565b84610d75856040518060600160405280602581526020016159256025913960986000611cfe612bcf565b6001600160a01b03908116825260208083019390935260409182016000908120918d16815292529020549190612d9c565b611d37612bcf565b6001600160a01b0316611d48611ab0565b6001600160a01b031614611d6e5760405162461bcd60e51b8152600401610de6906150e8565b610e10811015611d905760405162461bcd60e51b8152600401610de6906151f6565b7f5acd982e2240ed224a69aa03dab039d3797c108e4b5f288cd7dd6ca181b275f360dd5482604051611dc39291906156ba565b60405180910390a160dd55565b60d65481565b6000610cc3611de3612bcf565b8484612c87565b60d4546001600160a01b031681565b7f000000000000000000000000000000000000000000000000000000000000000081565b60cc546040516370a0823160e01b8152600091611ec191620100009091046001600160a01b0316906370a0823190611e5990309060040161485c565b60206040518083038186803b158015611e7157600080fd5b505afa158015611e85573d6000803e3d6000fd5b505050506040513d601f19601f82011682018060405250810190611ea99190614733565b60cf546201000090046001600160681b0316906131f1565b905090565b60d7546001600160a01b031681565b60026001541415611ef85760405162461bcd60e51b8152600401610de6906154bd565b600260015580611f1a5760405162461bcd60e51b8152600401610de690615409565b611f248133612f49565b60cc54611f42906201000090046001600160a01b0316333084613193565b5060018055565b60d4546001600160a01b03163314611f735760405162461bcd60e51b8152600401610de690614fb0565b60026001541415611f965760405162461bcd60e51b8152600401610de6906154bd565b6002600155600080611fa66134cb565b60cf805462010000600160781b031916620100006001600160681b0384160217905560405191935091506001600160a01b038316907f045c558fdce4714c5816d53820d27420f4cd860892df203fe636384d8d19aa019061200a908490339061566b565b60405180910390a2604051632904c23960e01b815273__$c4f279750f4bbb575ac7775e752dc00849$__90632904c2399061208f907f0000000000000000000000000000000000000000000000000000000000000000907f000000000000000000000000000000000000000000000000000000000000000090879087906004016148bb565b60206040518083038186803b1580156120a757600080fd5b505af41580156120bb573d6000803e3d6000fd5b505050506040513d601f19601f820116820180604052508101906120df9190614733565b50611054611784565b60008060006120f6846128ef565b909250905061210582826131f1565b949350505050565b612115612bcf565b6001600160a01b0316612126611ab0565b6001600160a01b03161461214c5760405162461bcd60e51b8152600401610de6906150e8565b60008111801561215d57506103e881105b6121795760405162461bcd60e51b8152600401610de690614b6e565b7f4cd657fde404967d63a338fb06c5c98751a9df57dfae6dc333a432faf8a5f65660d954826040516121ac9291906156ba565b60405180910390a160d955565b6121c1612bcf565b6001600160a01b03166121d2611ab0565b6001600160a01b0316146121f85760405162461bcd60e51b8152600401610de6906150e8565b6001600160a01b03811661221e5760405162461bcd60e51b8152600401610de690615499565b60d480546001600160a01b0319166001600160a01b0392909216919091179055565b60da5481565b600260015414156122695760405162461bcd60e51b8152600401610de6906154bd565b60026001558061228b5760405162461bcd60e51b8152600401610de690615194565b611f428160006132e0565b7f000000000000000000000000000000000000000000000000000000000000000081565b6001600160a01b03918216600090815260986020908152604080832093909416825291909152205490565b600054610100900460ff16806122fe57506122fe61368c565b8061230c575060005460ff16155b6123285760405162461bcd60e51b8152600401610de690614ff0565b600054610100900460ff16158015612353576000805460ff1961ff0019909116610100171660011790555b6123638d8d8d8d8d8d8d8961369d565b6001600160a01b0386166123895760405162461bcd60e51b8152600401610de69061525d565b6001600160a01b0385166123af5760405162461bcd60e51b8152600401610de690614bfd565b60008463ffffffff161180156123cc57506103e88463ffffffff16105b6123e85760405162461bcd60e51b8152600401610de690614ca6565b610e1083101561240a5760405162461bcd60e51b8152600401610de690614c57565b60d780546001600160a01b038089166001600160a01b03199283161790925560d880549288169290911691909117905563ffffffff841660d95560dd839055801561245b576000805461ff00191690555b50505050505050505050505050565b60dc5481565b612478612bcf565b6001600160a01b0316612489611ab0565b6001600160a01b0316146124af5760405162461bcd60e51b8152600401610de6906150e8565b6001600160a01b0381166124d55760405162461bcd60e51b8152600401610de690614f86565b60d380546001600160a01b0319166001600160a01b0392909216919091179055565b6002600154141561251a5760405162461bcd60e51b8152600401610de6906154bd565b600260015560d2546001600160a01b03166125336142fa565b506040805160c0810182526001600160a01b037f0000000000000000000000000000000000000000000000000000000000000000811682527f00000000000000000000000000000000000000000000000000000000000000008116602083015283811682840152610e10606083015260db54608083015260dc5460a083015260d85460d75460d9549451630349525360e11b8152939460009485948594859473__$c4f279750f4bbb575ac7775e752dc00849$__94630692a4a69461260b949384169392909216918b9060cc9060cf90600401614a08565b60806040518083038186803b15801561262357600080fd5b505af4158015612637573d6000803e3d6000fd5b505050506040513d601f19601f8201168201806040525081019061265b919061469a565b93509350935093507fa217999b1c125c2a996f712c5f26a28addad7167bd8a67d5bd5b2a751148abb082826040516126949291906156ba565b60405180910390a16126a5836132b6565b6001600160681b03831660da5560d180546001600160a01b0319166001600160a01b0386161790556126d942610e106131f1565b60d2805463ffffffff92909216600160a01b0263ffffffff60a01b1990921691909117905561270786613849565b50506001805550505050565b60db5481565b612721612bcf565b6001600160a01b0316612732611ab0565b6001600160a01b0316146127585760405162461bcd60e51b8152600401610de6906150e8565b6001600160a01b03811661277e5760405162461bcd60e51b8152600401610de690614cf1565b6065546040516001600160a01b038084169216907f8be0079c531659141344cd1fd0a4f28419497f9722a3daafe3b4186f6b6457e090600090a3606580546001600160a01b0319166001600160a01b0392909216919091179055565b600260015414156127fd5760405162461bcd60e51b8152600401610de6906154bd565b600260015560cc547f00000000000000000000000000000000000000000000000000000000000000006001600160a01b039081166201000090920416146128565760405162461bcd60e51b8152600401610de690614fd1565b600034116128765760405162461bcd60e51b8152600401610de690614cd1565b6128803433612f49565b7f00000000000000000000000000000000000000000000000000000000000000006001600160a01b031663d0e30db0346040518263ffffffff1660e01b81526004016000604051808303818588803b1580156128db57600080fd5b505af1158015611526573d6000803e3d6000fd5b6000806128fa61434b565b506001600160a01b038316600090815260c960209081526040918290208251606081018452905461ffff81168083526201000082046001600160681b031693830193909352600160781b90046001600160801b031692810192909252600111156129735761296784611994565b600092509250506129ba565b60cf54815161ffff908116600090815260ca602052604081205460cc5491936129a993869391169190610100900460ff166139c4565b90506129b485611994565b93509150505b915091565b600260015414156129e25760405162461bcd60e51b8152600401610de6906154bd565b600260015533600090815260cb6020526040902080546001600160801b03620100008204169061ffff1681612a295760405162461bcd60e51b8152600401610de6906150c1565b60cf5461ffff168110612a4e5760405162461bcd60e51b8152600401610de690614e94565b33600090815260cb60205260409020805462010000600160901b031916905560d054612a8a90600160801b90046001600160801b031683612dc8565b60d080546001600160801b03928316600160801b02921691909117905561ffff8116600090815260ca602052604081205460cc54612ad291859160ff61010090910416613282565b90507ff279e6a1f5e320cca91135676d9cb6e44ca8a08c0b88342bcdb1144f6511b568338285604051612b079392919061489a565b60405180910390a1612b193084613a35565b60008111612b395760405162461bcd60e51b8152600401610de6906154f4565b610f263382612df0565b60d8546001600160a01b031681565b612b5a612bcf565b6001600160a01b0316612b6b611ab0565b6001600160a01b031614612b915760405162461bcd60e51b8152600401610de6906150e8565b6305f5e1008110612bb45760405162461bcd60e51b8152600401610de69061522d565b612bc963031ba30961110183620f4240613216565b60d65550565b3390565b6001600160a01b038316612bf95760405162461bcd60e51b8152600401610de69061534a565b6001600160a01b038216612c1f5760405162461bcd60e51b8152600401610de690614d37565b6001600160a01b0380841660008181526098602090815260408083209487168084529490915290819020849055517f8c5be1e5ebec7d5bd14f71427d1e84f3dd0314c0f7b2291e5b200ac8c7c3b92590612c7a908590615662565b60405180910390a3505050565b6001600160a01b038316612cad5760405162461bcd60e51b8152600401610de6906152b3565b6001600160a01b038216612cd35760405162461bcd60e51b8152600401610de690614b98565b612cde838383612f43565b612d1b816040518060600160405280602681526020016158d7602691396001600160a01b0386166000908152609760205260409020549190612d9c565b6001600160a01b038085166000908152609760205260408082209390935590841681522054612d4a90826131f1565b6001600160a01b0380841660008181526097602052604090819020939093559151908516907fddf252ad1be2c89b69c2b068fc378daa952ba7f163c4a11628f55a4df523b3ef90612c7a908590615662565b60008184841115612dc05760405162461bcd60e51b8152600401610de69190614b5b565b505050900390565b600082821115612dea5760405162461bcd60e51b8152600401610de690614e5d565b50900390565b60cc546001600160a01b03620100009091048116907f000000000000000000000000000000000000000000000000000000000000000016811415612f2f57604051632e1a7d4d60e01b81526001600160a01b037f00000000000000000000000000000000000000000000000000000000000000001690632e1a7d4d90612e7a908590600401615662565b600060405180830381600087803b158015612e9457600080fd5b505af1158015612ea8573d6000803e3d6000fd5b505050506000836001600160a01b031683604051612ec590614859565b60006040518083038185875af1925050503d8060008114612f02576040519150601f19603f3d011682016040523d82523d6000602084013e612f07565b606091505b5050905080612f285760405162461bcd60e51b8152600401610de690614f3b565b5050612f45565b612f436001600160a01b0382168484613b17565b505b5050565b60cf5461ffff166000612f6484612f5e611e1d565b906131f1565b60ce549091506001600160681b0316811115612f925760405162461bcd60e51b8152600401610de690614c82565b60cd54600160a01b900466ffffffffffffff16811015612fc45760405162461bcd60e51b8152600401610de690614e2f565b826001600160a01b03167f90890809c654f11d6e72a28fa60149770a0d11ec6c92319d6ceb2bb0a4ea1a158584604051612fff9291906156ba565b60405180910390a261300f61434b565b506001600160a01b038316600090815260c9602090815260408083208151606081018352905461ffff81168083526201000082046001600160681b031683860152600160781b9091046001600160801b031682840152845260ca90925282205460cc5491929161308b918491879190610100900460ff166139c4565b8251909150869061ffff168514156130bc5760208301516000906130b8906001600160681b0316896131f1565b9150505b6130c5816132b6565b6040805160608101825261ffff87811682526001600160681b0384811660208085019182528783168587019081526001600160a01b038d16600090815260c9909252959020935184549151955161ffff1990921693169290921762010000600160781b03191662010000949091169390930292909217600160781b600160f81b031916600160781b6001600160801b039384160217905560d05461316a9116886131f1565b60d080546001600160801b0319166001600160801b039290921691909117905550505050505050565b6131eb846323b872dd60e01b8585856040516024016131b4939291906149e4565b60408051601f198184030181529190526020810180516001600160e01b03166001600160e01b031990931692909217909152613b36565b50505050565b600082820183811015610d7e5760405162461bcd60e51b8152600401610de690614d79565b60008261322557506000610cc7565b8282028284828161323257fe5b0414610d7e5760405162461bcd60e51b8152600401610de690615060565b60008082116132715760405162461bcd60e51b8152600401610de690614f04565b81838161327a57fe5b049392505050565b6000600183116132a45760405162461bcd60e51b8152600401610de69061542a565b612105600a83900a6111018686613216565b6001600160681b038111156132dd5760405162461bcd60e51b8152600401610de69061513e565b50565b6132e9826134a4565b33600090815260c96020908152604080832060cf54815461ffff80821680885260ca87528588205460cc5487516060810189528381526201000086046001600160681b031699810199909952600160781b9094046001600160801b03169688019690965293969216949293919261336c929091869190610100900460ff166139c4565b905084613379578561337b565b805b95506000861161339d5760405162461bcd60e51b8152600401610de690615194565b808611156133bd5760405162461bcd60e51b8152600401610de690614db0565b8282106133da5783546201000090046001600160681b03166133dd565b60005b33600090815260c96020526040902080546001600160681b0392909216620100000262010000600160781b031990921691909117905561341d8187612dc8565b33600081815260c960205260409081902080546001600160801b0394909416600160781b02600160781b600160f81b03199094169390931790925590517fe5b754fb1abb7f01b499791d0b820ae3b6af3424ac1c59768edb53f4ec31a9299061348990899086906156ba565b60405180910390a261349c303388612c87565b505050505050565b6001600160801b038111156132dd5760405162461bcd60e51b8152600401610de6906153c5565b60d2546000908190600160a01b900463ffffffff164210156134ff5760405162461bcd60e51b8152600401610de6906150a1565b60d1546001600160a01b0316806135285760405162461bcd60e51b8152600401610de69061551d565b600080600073__$c4f279750f4bbb575ac7775e752dc00849$__63afc0a5db61354f610cd3565b60cc5460d05460405160e085901b6001600160e01b03191681526135a593926201000081046001600160a01b03169261010090910460ff16916001600160801b0380831692600160801b90041690600401615682565b60606040518083038186803b1580156135bd57600080fd5b505af41580156135d1573d6000803e3d6000fd5b505050506040513d601f19601f820116820180604052508101906135f5919061476f565b60d280546001600160a01b0389166001600160a01b03199182161790915560d18054909116905560cf5461ffff16600081815260ca60205260409020839055929550909350915061364f61364885613bc5565b8590612dc8565b60d080546001600160801b031916905560cf805461ffff19166001840161ffff16179055935061367f3083613ccb565b5092945090925050509091565b600061369730613d7f565b15905090565b600054610100900460ff16806136b657506136b661368c565b806136c4575060005460ff16155b6136e05760405162461bcd60e51b8152600401610de690614ff0565b600054610100900460ff1615801561370b576000805460ff1961ff0019909116610100171660011790555b60405163a5a9dde760e01b815273__$c4f279750f4bbb575ac7775e752dc00849$__9063a5a9dde79061374e908c908c908c908b908b908b908b906004016148e5565b60006040518083038186803b15801561376657600080fd5b505af415801561377a573d6000803e3d6000fd5b50505050613786613d85565b6137908484613e0f565b613798613ea5565b6137a189612719565b60d480546001600160a01b03808b166001600160a01b03199283161790925560d38054928a169290911691909117905560d58590556137eb63031ba30961110188620f4240613216565b60d6558160cc6137fb8282615764565b505060cf805461ffff19600160781b600160e01b03199091166cffffffffffffffffffffffffff60781b17166001179055801561383e576000805461ff00191690555b505050505050505050565b60d280546001600160a01b031916905560cf546201000090046001600160681b0316806138885760cf54600160781b90046001600160681b031661388a565b805b60cf805462010000600160781b03196001600160681b0393909316600160781b02600160781b600160e01b0319909116179190911690556001600160a01b03821615612f4557604051636c6fe87f60e11b815260009073__$c4f279750f4bbb575ac7775e752dc00849$__9063d8dfd0fe9061392a907f00000000000000000000000000000000000000000000000000000000000000009060040161485c565b60206040518083038186803b15801561394257600080fd5b505af4158015613956573d6000803e3d6000fd5b505050506040513d601f19601f8201168201806040525081019061397a9190614733565b9050826001600160a01b03167f7e830f7c1771deb1bdb35c4a7e6051bbac32b376f7f4e4976b8618b0b11997f782336040516139b792919061566b565b60405180910390a2505050565b835160009061ffff16158015906139df5750845161ffff1684115b15613a215760006139fe86602001516001600160681b03168585613f23565b6040870151909150613a19906001600160801b0316826131f1565b915050612105565b50505050604001516001600160801b031690565b6001600160a01b038216613a5b5760405162461bcd60e51b8152600401610de6906151b5565b613a6782600083612f43565b613aa4816040518060600160405280602281526020016158b5602291396001600160a01b0385166000908152609760205260409020549190612d9c565b6001600160a01b038316600090815260976020526040902055609954613aca9082612dc8565b6099556040516000906001600160a01b038416907fddf252ad1be2c89b69c2b068fc378daa952ba7f163c4a11628f55a4df523b3ef90613b0b908590615662565b60405180910390a35050565b612f438363a9059cbb60e01b84846040516024016131b4929190614aee565b6060613b8b826040518060400160405280602081526020017f5361666545524332303a206c6f772d6c6576656c2063616c6c206661696c6564815250856001600160a01b0316613f579092919063ffffffff16565b805190915015612f435780806020019051810190613ba991906146d8565b612f435760405162461bcd60e51b8152600401610de69061544f565b600080600073__$c4f279750f4bbb575ac7775e752dc00849$__63d38e319760cf8660d55460d6546040518563ffffffff1660e01b8152600401613c0c94939291906155be565b60606040518083038186803b158015613c2457600080fd5b505af4158015613c38573d6000803e3d6000fd5b505050506040513d601f19601f82011682018060405250810190613c5c919061476f565b92505091506000811115610d7e5760d354613c80906001600160a01b031682612df0565b60cf546040517fada62e8302f1310b252c959c188269b9a41b22ae1730d21f69eec09488dee14491613cbc918591859161ffff909116906156c8565b60405180910390a19392505050565b6001600160a01b038216613cf15760405162461bcd60e51b8152600401610de690615542565b613cfd60008383612f43565b609954613d0a90826131f1565b6099556001600160a01b038216600090815260976020526040902054613d3090826131f1565b6001600160a01b0383166000818152609760205260408082209390935591519091907fddf252ad1be2c89b69c2b068fc378daa952ba7f163c4a11628f55a4df523b3ef90613b0b908590615662565b3b151590565b600054610100900460ff1680613d9e5750613d9e61368c565b80613dac575060005460ff16155b613dc85760405162461bcd60e51b8152600401610de690614ff0565b600054610100900460ff16158015613df3576000805460ff1961ff0019909116610100171660011790555b613dfb613f66565b80156132dd576000805461ff001916905550565b600054610100900460ff1680613e285750613e2861368c565b80613e36575060005460ff16155b613e525760405162461bcd60e51b8152600401610de690614ff0565b600054610100900460ff16158015613e7d576000805460ff1961ff0019909116610100171660011790555b613e85613fec565b613e8f838361406d565b8015612f43576000805461ff0019169055505050565b600054610100900460ff1680613ebe5750613ebe61368c565b80613ecc575060005460ff16155b613ee85760405162461bcd60e51b8152600401610de690614ff0565b600054610100900460ff16158015613f13576000805460ff1961ff0019909116610100171660011790555b613f1b613fec565b613dfb614126565b600060018311613f455760405162461bcd60e51b8152600401610de69061542a565b6121058361110186600a86900a613216565b60606121058484600085614200565b600054610100900460ff1680613f7f5750613f7f61368c565b80613f8d575060005460ff16155b613fa95760405162461bcd60e51b8152600401610de690614ff0565b600054610100900460ff16158015613fd4576000805460ff1961ff0019909116610100171660011790555b6001805580156132dd576000805461ff001916905550565b600054610100900460ff1680614005575061400561368c565b80614013575060005460ff16155b61402f5760405162461bcd60e51b8152600401610de690614ff0565b600054610100900460ff16158015613dfb576000805460ff1961ff00199091166101001716600117905580156132dd576000805461ff001916905550565b600054610100900460ff1680614086575061408661368c565b80614094575060005460ff16155b6140b05760405162461bcd60e51b8152600401610de690614ff0565b600054610100900460ff161580156140db576000805460ff1961ff0019909116610100171660011790555b82516140ee90609a90602086019061436b565b50815161410290609b90602085019061436b565b50609c805460ff191660121790558015612f43576000805461ff0019169055505050565b600054610100900460ff168061413f575061413f61368c565b8061414d575060005460ff16155b6141695760405162461bcd60e51b8152600401610de690614ff0565b600054610100900460ff16158015614194576000805460ff1961ff0019909116610100171660011790555b600061419e612bcf565b606580546001600160a01b0319166001600160a01b038316908117909155604051919250906000907f8be0079c531659141344cd1fd0a4f28419497f9722a3daafe3b4186f6b6457e0908290a35080156132dd576000805461ff001916905550565b6060824710156142225760405162461bcd60e51b8152600401610de690614ebe565b61422b85613d7f565b6142475760405162461bcd60e51b8152600401610de69061538e565b60006060866001600160a01b03168587604051614264919061483d565b60006040518083038185875af1925050503d80600081146142a1576040519150601f19603f3d011682016040523d82523d6000602084013e6142a6565b606091505b50915091506142b68282866142c1565b979650505050505050565b606083156142d0575081610d7e565b8251156142e05782518084602001fd5b8160405162461bcd60e51b8152600401610de69190614b5b565b6040518060c0016040528060006001600160a01b0316815260200160006001600160a01b0316815260200160006001600160a01b031681526020016000815260200160008152602001600081525090565b604080516060810182526000808252602082018190529181019190915290565b828054600181600116156101000203166002900490600052602060002090601f016020900481019282601f106143ac57805160ff19168380011785556143d9565b828001600101855582156143d9579182015b828111156143d95782518255916020019190600101906143be565b506143e59291506143e9565b5090565b5b808211156143e557600081556001016143ea565b803561111d81615891565b600082601f830112614419578081fd5b813567ffffffffffffffff8082111561442e57fe5b604051601f8301601f19168101602001828111828210171561444c57fe5b60405282815292508284830160200186101561446757600080fd5b8260208601602083013760006020848301015250505092915050565b600060c08284031215614494578081fd5b50919050565b80356001600160681b038116811461111d57600080fd5b803563ffffffff8116811461111d57600080fd5b803566ffffffffffffff8116811461111d57600080fd5b6000602082840312156144ed578081fd5b8135610d7e81615891565b6000806040838503121561450a578081fd5b823561451581615891565b9150602083013561452581615891565b809150509250929050565b6000806000806000806000806000806000806102208d8f031215614552578788fd5b61455b8d6143fe565b9b5061456960208e016143fe565b9a5061457760408e016143fe565b995060608d0135985060808d0135975067ffffffffffffffff60a08e0135111561459f578687fd5b6145af8e60a08f01358f01614409565b965067ffffffffffffffff60c08e013511156145c9578586fd5b6145d98e60c08f01358f01614409565b95506145e760e08e016143fe565b94506145f66101008e016143fe565b93506146056101208e016144b1565b92506101408d0135915061461d8e6101608f01614483565b90509295989b509295989b509295989b565b600080600060608486031215614643578283fd5b833561464e81615891565b9250602084013561465e81615891565b929592945050506040919091013590565b60008060408385031215614681578182fd5b823561468c81615891565b946020939093013593505050565b600080600080608085870312156146af578384fd5b84516146ba81615891565b60208601516040870151606090970151919890975090945092505050565b6000602082840312156146e9578081fd5b8151610d7e816158a6565b600060208284031215614705578081fd5b81356001600160801b0381168114610d7e578182fd5b60006020828403121561472c578081fd5b5035919050565b600060208284031215614744578081fd5b5051919050565b6000806040838503121561475d578182fd5b82359150602083013561452581615891565b600080600060608486031215614783578081fd5b8351925060208401519150604084015190509250925092565b6001600160a01b03169052565b600081518084526147c18160208601602086016156f0565b601f01601f19169290920160200192915050565b80516001600160a01b03908116835260208083015182169084015260408083015190911690830152606080820151908301526080808201519083015260a090810151910152565b6001600160681b03169052565b66ffffffffffffff169052565b60ff169052565b6000825161484f8184602087016156f0565b9190910192915050565b90565b6001600160a01b0391909116815260200190565b6001600160a01b039390931683526001600160801b03919091166020830152604082015260600190565b6001600160a01b039390931683526020830191909152604082015260600190565b6001600160a01b039485168152928416602084015292166040820152606081019190915260800190565b6001600160a01b0388811682528781166020830152861660408201526060810185905261018060808201819052600090614921838201876147a9565b905082810360a084015261493581866147a9565b9150508235614943816158a6565b151560c0830152602083013560ff8116811461495e57600080fd5b61496b60e0840182614836565b50614978604084016143fe565b61498661010084018261479c565b50614993606084016143fe565b6149a161012084018261479c565b506149ae608084016144c5565b6149bc610140840182614829565b506149c960a0840161449a565b6149d761016084018261481c565b5098975050505050505050565b6001600160a01b039384168152919092166020820152604081019190915260600190565b6001600160a01b038781168252868116602083015260408201869052610200820190614a3760608401876147d5565b845460ff8116151561012085015260ff8160081c16610140850152614a656101608501838360101c1661479c565b506001850154614a7b610180850183831661479c565b614a956101a0850166ffffffffffffff8360a01c16614829565b5050614aa4600285015461571c565b614ab26101c084018261481c565b50826101e0830152979650505050505050565b6001600160a01b03938416815291909216602082015263ffffffff909116604082015260600190565b6001600160a01b03929092168252602082015260400190565b901515815260200190565b951515865260ff9490941660208601526001600160a01b0392831660408601529116606084015266ffffffffffffff1660808301526001600160681b031660a082015260c00190565b600060208252610d7e60208301846147a9565b60208082526010908201526f125b9d985b1a5908191a5cd8dbdd5b9d60821b604082015260600190565b60208082526023908201527f45524332303a207472616e7366657220746f20746865207a65726f206164647260408201526265737360e81b606082015260800190565b6020808252600890820152674f766572666c6f7760c01b604082015260600190565b60208082526011908201527010afb9ba3934b5b2a9b2b632b1ba34b7b760791b604082015260600190565b6020808252601590820152742163757272656e744f746f6b656e5072656d69756d60581b604082015260600190565b60208082526011908201527010afb0bab1ba34b7b7223ab930ba34b7b760791b604082015260600190565b6020808252600a90820152690457863656564206361760b41b604082015260600190565b6020808252601190820152700857dc1c995b5a5d5b511a5cd8dbdd5b9d607a1b604082015260600190565b6020808252600690820152652176616c756560d01b604082015260600190565b60208082526026908201527f4f776e61626c653a206e6577206f776e657220697320746865207a65726f206160408201526564647265737360d01b606082015260800190565b60208082526022908201527f45524332303a20617070726f766520746f20746865207a65726f206164647265604082015261737360f01b606082015260800190565b6020808252601b908201527f536166654d6174683a206164646974696f6e206f766572666c6f770000000000604082015260600190565b6020808252601190820152704578636565647320617661696c61626c6560781b604082015260600190565b60208082526013908201527210b732bba9ba3934b5b2a9b2b632b1ba34b7b760691b604082015260600190565b6020808252600d908201526c125b9d985b1a59081c9bdd5b99609a1b604082015260600190565b602080825260149082015273496e73756666696369656e742062616c616e636560601b604082015260600190565b6020808252601e908201527f536166654d6174683a207375627472616374696f6e206f766572666c6f770000604082015260600190565b60208082526010908201526f149bdd5b99081b9bdd0818db1bdcd95960821b604082015260600190565b60208082526026908201527f416464726573733a20696e73756666696369656e742062616c616e636520666f6040820152651c8818d85b1b60d21b606082015260800190565b6020808252601a908201527f536166654d6174683a206469766973696f6e206279207a65726f000000000000604082015260600190565b602080825260089082015267217375636365737360c01b604082015260600190565b6020808252600f908201526e373ab6a937bab73239901f1e901a9960891b604082015260600190565b60208082526010908201526f085b995dd19959549958da5c1a595b9d60821b604082015260600190565b60208082526007908201526610b5b2b2b832b960c91b604082015260600190565b602080825260059082015264042ae8aa8960db1b604082015260600190565b6020808252602e908201527f496e697469616c697a61626c653a20636f6e747261637420697320616c72656160408201526d191e481a5b9a5d1a585b1a5e995960921b606082015260800190565b602080825260089082015267216f746f6b656e7360c01b604082015260600190565b60208082526021908201527f536166654d6174683a206d756c7469706c69636174696f6e206f766572666c6f6040820152607760f81b606082015260800190565b60208082526006908201526521726561647960d01b604082015260600190565b6020808252600d908201526c139bdd081a5b9a5d1a585d1959609a1b604082015260600190565b6020808252818101527f4f776e61626c653a2063616c6c6572206973206e6f7420746865206f776e6572604082015260600190565b6020808252600790820152660216e65774361760cc1b604082015260600190565b6020808252600590820152640f954c4c0d60da1b604082015260600190565b60208082526017908201527f496e76616c696420706572666f726d616e636520666565000000000000000000604082015260600190565b6020808252600790820152662173686172657360c81b604082015260600190565b60208082526021908201527f45524332303a206275726e2066726f6d20746865207a65726f206164647265736040820152607360f81b606082015260800190565b60208082526018908201527f496e76616c69642061756374696f6e206475726174696f6e0000000000000000604082015260600190565b602080825260169082015275496e76616c6964206d616e6167656d656e742066656560501b604082015260600190565b60208082526016908201527510afb7b83a34b7b739a83932b6b4bab6a83934b1b2b960511b604082015260600190565b6020808252600c908201526b21737472696b65507269636560a01b604082015260600190565b60208082526025908201527f45524332303a207472616e736665722066726f6d20746865207a65726f206164604082015264647265737360d81b606082015260800190565b6020808252600d908201526c115e18d9595908185b5bdd5b9d609a1b604082015260600190565b6020808252601190820152704578697374696e6720776974686472617760781b604082015260600190565b60208082526024908201527f45524332303a20617070726f76652066726f6d20746865207a65726f206164646040820152637265737360e01b606082015260800190565b6020808252601d908201527f416464726573733a2063616c6c20746f206e6f6e2d636f6e7472616374000000604082015260600190565b60208082526005908201526407caa6264760db1b604082015260600190565b6020808252600b908201526a125b9a5d1a585b1a5e995960aa1b604082015260600190565b60208082526007908201526608585b5bdd5b9d60ca1b604082015260600190565b6020808252600b908201526a496e76616c69642070707360a81b604082015260600190565b6020808252602a908201527f5361666545524332303a204552433230206f7065726174696f6e20646964206e6040820152691bdd081cdd58d8d9595960b21b606082015260800190565b6020808252600a908201526910b732bba5b2b2b832b960b11b604082015260600190565b6020808252601f908201527f5265656e7472616e637947756172643a207265656e7472616e742063616c6c00604082015260600190565b6020808252600f908201526e085dda5d1a191c985dd05b5bdd5b9d608a1b604082015260600190565b6020808252600b908201526a10b732bc3a27b83a34b7b760a91b604082015260600190565b6020808252601f908201527f45524332303a206d696e7420746f20746865207a65726f206164647265737300604082015260600190565b60208082526018908201527f216e65774f7074696f6e735072656d69756d5072696365720000000000000000604082015260600190565b60c08101610cc782846147d5565b93845260208401929092526040830152606082015260800190565b61ffff9590951685526001600160681b0393841660208601529190921660408401526001600160801b03918216606084015216608082015260a00190565b61ffff9390931683526001600160681b039190911660208301526001600160801b0316604082015260600190565b61ffff9290921682526001600160801b0316602082015260400190565b90815260200190565b9182526001600160a01b0316602082015260400190565b9485526001600160a01b0393909316602085015260ff91909116604084015260608301526001600160801b0316608082015260a00190565b918252602082015260400190565b928352602083019190915261ffff16604082015260600190565b60ff91909116815260200190565b60005b8381101561570b5781810151838201526020016156f3565b838111156131eb5750506000910152565b6001600160681b031690565b80356001600160a01b038116811461111d57fe5b80356001600160681b038116811461111d57fe5b803566ffffffffffffff8116811461111d57fe5b8135801515811461577157fe5b60ff1982541660ff8216811783555050602082013560ff8116811461579257fe5b61579e8160018461582b565b506157b66157ae60408401615728565b600283615805565b6157c260608301615728565b600182016157d282600083615805565b6157e96157e160808601615750565b60148361586d565b5050612f456157fa60a0840161573c565b600060028401615849565b805460089290920292831b6001600160a01b0390931b9283169219909116919091179055565b80546008830260ff811b8086831b1681198416178455505050505050565b8054600883026001600160681b03811b8086831b1681198416178455505050505050565b80546008830266ffffffffffffff811b8086831b1681198416178455505050505050565b6001600160a01b03811681146132dd57600080fd5b80151581146132dd57600080fdfe45524332303a206275726e20616d6f756e7420657863656564732062616c616e636545524332303a207472616e7366657220616d6f756e7420657863656564732062616c616e636545524332303a207472616e7366657220616d6f756e74206578636565647320616c6c6f77616e636545524332303a2064656372656173656420616c6c6f77616e63652062656c6f77207a65726fa2646970667358221220706faa5d258dc1a6952148b0254cdc5de31ffdd0deb83241bf21bcef4af258a464736f6c63430007030033",
  "libraries": {
    "VaultLifecycle": "0x93C48f3dC0Df467ca9089925bD8256C62Af1F522"
  },
  "devdoc": {
    "kind": "dev",
    "methods": {
      "accountVaultBalance(address)": {
        "params": {
          "account": "is the address to lookup balance for"
        }
      },
      "allowance(address,address)": {
        "details": "See {IERC20-allowance}."
      },
      "approve(address,uint256)": {
        "details": "See {IERC20-approve}. Requirements: - `spender` cannot be the zero address."
      },
      "balanceOf(address)": {
        "details": "See {IERC20-balanceOf}."
      },
      "constructor": {
        "params": {
          "_gammaController": "is the contract address for opyn actions",
          "_gnosisEasyAuction": "is the contract address that facilitates gnosis auctions",
          "_marginPool": "is the contract address for providing collateral to opyn",
          "_oTokenFactory": "is the contract address for minting new opyn option types (strikes, asset, expiry)",
          "_usdc": "is the USDC contract",
          "_weth": "is the Wrapped Ether contract"
        }
      },
      "decreaseAllowance(address,uint256)": {
        "details": "Atomically decreases the allowance granted to `spender` by the caller. This is an alternative to {approve} that can be used as a mitigation for problems described in {IERC20-approve}. Emits an {Approval} event indicating the updated allowance. Requirements: - `spender` cannot be the zero address. - `spender` must have allowance for the caller of at least `subtractedValue`."
      },
      "deposit(uint256)": {
        "params": {
          "amount": "is the amount of `asset` to deposit"
        }
      },
      "depositFor(uint256,address)": {
        "params": {
          "amount": "is the amount of `asset` to deposit",
          "creditor": "is the address that can claim/withdraw deposited amount"
        }
      },
      "increaseAllowance(address,uint256)": {
        "details": "Atomically increases the allowance granted to `spender` by the caller. This is an alternative to {approve} that can be used as a mitigation for problems described in {IERC20-approve}. Emits an {Approval} event indicating the updated allowance. Requirements: - `spender` cannot be the zero address."
      },
      "initiateWithdraw(uint128)": {
        "params": {
          "shares": "is the number of shares to withdraw"
        }
      },
      "name()": {
        "details": "Returns the name of the token."
      },
      "owner()": {
        "details": "Returns the address of the current owner."
      },
      "redeem(uint256)": {
        "params": {
          "shares": "is the number of shares to redeem"
        }
      },
      "renounceOwnership()": {
        "details": "Leaves the contract without owner. It will not be possible to call `onlyOwner` functions anymore. Can only be called by the current owner. NOTE: Renouncing ownership will leave the contract without an owner, thereby removing any functionality that is only available to the owner."
      },
      "setAuctionDuration(uint256)": {
        "params": {
          "newAuctionDuration": "is the auction duration"
        }
      },
      "setCap(uint256)": {
        "params": {
          "newCap": "is the new cap for deposits"
        }
      },
      "setFeeRecipient(address)": {
        "params": {
          "newFeeRecipient": "is the address of the new fee recipient"
        }
      },
      "setManagementFee(uint256)": {
        "params": {
          "newManagementFee": "is the management fee (6 decimals). ex: 2 * 10 ** 6 = 2%"
        }
      },
      "setNewKeeper(address)": {
        "params": {
          "newKeeper": "is the address of the new keeper"
        }
      },
      "setOptionsPremiumPricer(address)": {
        "params": {
          "newOptionsPremiumPricer": "is the address of the new strike selection contract"
        }
      },
      "setPerformanceFee(uint256)": {
        "params": {
          "newPerformanceFee": "is the performance fee (6 decimals). ex: 20 * 10 ** 6 = 20%"
        }
      },
      "setPremiumDiscount(uint256)": {
        "params": {
          "newPremiumDiscount": "is the premium discount"
        }
      },
      "setStrikePrice(uint128)": {
        "params": {
          "strikePrice": "is the strike price of the new oTokens (decimals = 8)"
        }
      },
      "setStrikeSelection(address)": {
        "params": {
          "newStrikeSelection": "is the address of the new strike selection contract"
        }
      },
      "shareBalances(address)": {
        "params": {
          "account": "is the account to lookup share balance for"
        },
        "returns": {
          "heldByAccount": "is the shares held by account",
          "heldByVault": "is the shares held on the vault (unredeemedShares)"
        }
      },
      "shares(address)": {
        "params": {
          "account": "is the account to lookup share balance for"
        },
        "returns": {
          "_0": "the share balance"
        }
      },
      "symbol()": {
        "details": "Returns the symbol of the token, usually a shorter version of the name."
      },
      "totalBalance()": {
        "returns": {
          "_0": "total balance of the vault, including the amounts locked in third party protocols"
        }
      },
      "totalSupply()": {
        "details": "See {IERC20-totalSupply}."
      },
      "transfer(address,uint256)": {
        "details": "See {IERC20-transfer}. Requirements: - `recipient` cannot be the zero address. - the caller must have a balance of at least `amount`."
      },
      "transferFrom(address,address,uint256)": {
        "details": "See {IERC20-transferFrom}. Emits an {Approval} event indicating the updated allowance. This is not required by the EIP. See the note at the beginning of {ERC20}. Requirements: - `sender` and `recipient` cannot be the zero address. - `sender` must have a balance of at least `amount`. - the caller must have allowance for ``sender``'s tokens of at least `amount`."
      },
      "transferOwnership(address)": {
        "details": "Transfers ownership of the contract to a new account (`newOwner`). Can only be called by the current owner."
      },
      "withdrawInstantly(uint256)": {
        "params": {
          "amount": "is the amount to withdraw"
        }
      }
    },
    "version": 1
  },
  "userdoc": {
    "kind": "user",
    "methods": {
      "accountVaultBalance(address)": {
        "notice": "Returns the underlying balance held on the vault for the account"
      },
      "burnRemainingOTokens()": {
        "notice": "Burn the remaining oTokens left over from gnosis auction."
      },
      "commitAndClose()": {
        "notice": "Sets the next option the vault will be shorting, and closes the existing short.         This allows all the users to withdraw if the next option is malicious."
      },
      "completeWithdraw()": {
        "notice": "Completes a scheduled withdrawal from a past round. Uses finalized pps for the round"
      },
      "constructor": {
        "notice": "Initializes the contract with immutable variables"
      },
      "decimals()": {
        "notice": "Returns the token decimals"
      },
      "deposit(uint256)": {
        "notice": "Deposits the `asset` from msg.sender."
      },
      "depositETH()": {
        "notice": "Deposits ETH into the contract and mint vault shares. Reverts if the asset is not WETH."
      },
      "depositFor(uint256,address)": {
        "notice": "Deposits the `asset` from msg.sender added to `creditor`'s deposit.Used for vault -> vault deposits on the user's behalf"
      },
      "depositReceipts(address)": {
        "notice": "Stores the user's pending deposit for the round"
      },
      "initialize(address,address,address,uint256,uint256,string,string,address,address,uint32,uint256,(bool,uint8,address,address,uint56,uint104))": {
        "notice": "Initializes the OptionVault contract with storage variables."
      },
      "initiateWithdraw(uint128)": {
        "notice": "Initiates a withdrawal that can be processed once the round completes"
      },
      "maxRedeem()": {
        "notice": "Redeems the entire unredeemedShares balance that is owed to the account"
      },
      "pricePerShare()": {
        "notice": "The price of a unit of share denominated in the `collateral`"
      },
      "redeem(uint256)": {
        "notice": "Redeems shares that are owed to the account"
      },
      "rollToNextOption()": {
        "notice": "Rolls the vault's funds into a new short position."
      },
      "roundPricePerShare(uint256)": {
        "notice": "On every round's close, the pricePerShare value of an rTHETA token is stored This is used to determine the number of shares to be returned to a user with their DepositReceipt.depositAmount"
      },
      "setAuctionDuration(uint256)": {
        "notice": "Sets the new auction duration"
      },
      "setCap(uint256)": {
        "notice": "Sets a new cap for deposits"
      },
      "setFeeRecipient(address)": {
        "notice": "Sets the new fee recipient"
      },
      "setManagementFee(uint256)": {
        "notice": "Sets the management fee for the vault"
      },
      "setNewKeeper(address)": {
        "notice": "Sets the new keeper"
      },
      "setOptionsPremiumPricer(address)": {
        "notice": "Sets the new options premium pricer contract"
      },
      "setPerformanceFee(uint256)": {
        "notice": "Sets the performance fee for the vault"
      },
      "setPremiumDiscount(uint256)": {
        "notice": "Sets the new discount on premiums for options we are selling"
      },
      "setStrikePrice(uint128)": {
        "notice": "Optionality to set strike price manually"
      },
      "setStrikeSelection(address)": {
        "notice": "Sets the new strike selection contract"
      },
      "shareBalances(address)": {
        "notice": "Getter for returning the account's share balance split between account and vault holdings"
      },
      "shares(address)": {
        "notice": "Getter for returning the account's share balance including unredeemed shares"
      },
      "startAuction()": {
        "notice": "Initiate the gnosis auction."
      },
      "totalBalance()": {
        "notice": "Returns the vault's total balance, including the amounts locked into a short position"
      },
      "withdrawInstantly(uint256)": {
        "notice": "Withdraws the assets on the vault using the outstanding `DepositReceipt.amount`"
      },
      "withdrawals(address)": {
        "notice": "Stores pending user withdrawals"
      }
    },
    "version": 1
  },
  "storageLayout": {
    "storage": [
      {
        "astId": 492,
        "contract": "contracts/vaults/BaseVaults/RibbonThetaVault.sol:RibbonThetaVault",
        "label": "_initialized",
        "offset": 0,
        "slot": "0",
        "type": "t_bool"
      },
      {
        "astId": 495,
        "contract": "contracts/vaults/BaseVaults/RibbonThetaVault.sol:RibbonThetaVault",
        "label": "_initializing",
        "offset": 1,
        "slot": "0",
        "type": "t_bool"
      },
      {
        "astId": 1462,
        "contract": "contracts/vaults/BaseVaults/RibbonThetaVault.sol:RibbonThetaVault",
        "label": "_status",
        "offset": 0,
        "slot": "1",
        "type": "t_uint256"
      },
      {
        "astId": 1505,
        "contract": "contracts/vaults/BaseVaults/RibbonThetaVault.sol:RibbonThetaVault",
        "label": "__gap",
        "offset": 0,
        "slot": "2",
        "type": "t_array(t_uint256)49_storage"
      },
      {
        "astId": 1447,
        "contract": "contracts/vaults/BaseVaults/RibbonThetaVault.sol:RibbonThetaVault",
        "label": "__gap",
        "offset": 0,
        "slot": "51",
        "type": "t_array(t_uint256)50_storage"
      },
      {
        "astId": 10,
        "contract": "contracts/vaults/BaseVaults/RibbonThetaVault.sol:RibbonThetaVault",
        "label": "_owner",
        "offset": 0,
        "slot": "101",
        "type": "t_address"
      },
      {
        "astId": 129,
        "contract": "contracts/vaults/BaseVaults/RibbonThetaVault.sol:RibbonThetaVault",
        "label": "__gap",
        "offset": 0,
        "slot": "102",
        "type": "t_array(t_uint256)49_storage"
      },
      {
        "astId": 571,
        "contract": "contracts/vaults/BaseVaults/RibbonThetaVault.sol:RibbonThetaVault",
        "label": "_balances",
        "offset": 0,
        "slot": "151",
        "type": "t_mapping(t_address,t_uint256)"
      },
      {
        "astId": 577,
        "contract": "contracts/vaults/BaseVaults/RibbonThetaVault.sol:RibbonThetaVault",
        "label": "_allowances",
        "offset": 0,
        "slot": "152",
        "type": "t_mapping(t_address,t_mapping(t_address,t_uint256))"
      },
      {
        "astId": 579,
        "contract": "contracts/vaults/BaseVaults/RibbonThetaVault.sol:RibbonThetaVault",
        "label": "_totalSupply",
        "offset": 0,
        "slot": "153",
        "type": "t_uint256"
      },
      {
        "astId": 581,
        "contract": "contracts/vaults/BaseVaults/RibbonThetaVault.sol:RibbonThetaVault",
        "label": "_name",
        "offset": 0,
        "slot": "154",
        "type": "t_string_storage"
      },
      {
        "astId": 583,
        "contract": "contracts/vaults/BaseVaults/RibbonThetaVault.sol:RibbonThetaVault",
        "label": "_symbol",
        "offset": 0,
        "slot": "155",
        "type": "t_string_storage"
      },
      {
        "astId": 585,
        "contract": "contracts/vaults/BaseVaults/RibbonThetaVault.sol:RibbonThetaVault",
        "label": "_decimals",
        "offset": 0,
        "slot": "156",
        "type": "t_uint8"
      },
      {
        "astId": 1080,
        "contract": "contracts/vaults/BaseVaults/RibbonThetaVault.sol:RibbonThetaVault",
        "label": "__gap",
        "offset": 0,
        "slot": "157",
        "type": "t_array(t_uint256)44_storage"
      },
      {
        "astId": 9788,
        "contract": "contracts/vaults/BaseVaults/RibbonThetaVault.sol:RibbonThetaVault",
        "label": "depositReceipts",
        "offset": 0,
        "slot": "201",
        "type": "t_mapping(t_address,t_struct(DepositReceipt)4739_storage)"
      },
      {
        "astId": 9793,
        "contract": "contracts/vaults/BaseVaults/RibbonThetaVault.sol:RibbonThetaVault",
        "label": "roundPricePerShare",
        "offset": 0,
        "slot": "202",
        "type": "t_mapping(t_uint256,t_uint256)"
      },
      {
        "astId": 9798,
        "contract": "contracts/vaults/BaseVaults/RibbonThetaVault.sol:RibbonThetaVault",
        "label": "withdrawals",
        "offset": 0,
        "slot": "203",
        "type": "t_mapping(t_address,t_struct(Withdrawal)4744_storage)"
      },
      {
        "astId": 9800,
        "contract": "contracts/vaults/BaseVaults/RibbonThetaVault.sol:RibbonThetaVault",
        "label": "vaultParams",
        "offset": 0,
        "slot": "204",
        "type": "t_struct(VaultParams)4714_storage"
      },
      {
        "astId": 9802,
        "contract": "contracts/vaults/BaseVaults/RibbonThetaVault.sol:RibbonThetaVault",
        "label": "vaultState",
        "offset": 0,
        "slot": "207",
        "type": "t_struct(VaultState)4732_storage"
      },
      {
        "astId": 9804,
        "contract": "contracts/vaults/BaseVaults/RibbonThetaVault.sol:RibbonThetaVault",
        "label": "optionState",
        "offset": 0,
        "slot": "209",
        "type": "t_struct(OptionState)4721_storage"
      },
      {
        "astId": 9806,
        "contract": "contracts/vaults/BaseVaults/RibbonThetaVault.sol:RibbonThetaVault",
        "label": "feeRecipient",
        "offset": 0,
        "slot": "211",
        "type": "t_address"
      },
      {
        "astId": 9808,
        "contract": "contracts/vaults/BaseVaults/RibbonThetaVault.sol:RibbonThetaVault",
        "label": "keeper",
        "offset": 0,
        "slot": "212",
        "type": "t_address"
      },
      {
        "astId": 9810,
        "contract": "contracts/vaults/BaseVaults/RibbonThetaVault.sol:RibbonThetaVault",
        "label": "performanceFee",
        "offset": 0,
        "slot": "213",
        "type": "t_uint256"
      },
      {
        "astId": 9812,
        "contract": "contracts/vaults/BaseVaults/RibbonThetaVault.sol:RibbonThetaVault",
        "label": "managementFee",
        "offset": 0,
        "slot": "214",
        "type": "t_uint256"
      },
      {
        "astId": 9815,
        "contract": "contracts/vaults/BaseVaults/RibbonThetaVault.sol:RibbonThetaVault",
        "label": "optionsPremiumPricer",
        "offset": 0,
        "slot": "215",
        "type": "t_address"
      },
      {
        "astId": 9817,
        "contract": "contracts/vaults/BaseVaults/RibbonThetaVault.sol:RibbonThetaVault",
        "label": "strikeSelection",
        "offset": 0,
        "slot": "216",
        "type": "t_address"
      },
      {
        "astId": 9819,
        "contract": "contracts/vaults/BaseVaults/RibbonThetaVault.sol:RibbonThetaVault",
        "label": "premiumDiscount",
        "offset": 0,
        "slot": "217",
        "type": "t_uint256"
      },
      {
        "astId": 9821,
        "contract": "contracts/vaults/BaseVaults/RibbonThetaVault.sol:RibbonThetaVault",
        "label": "currentOtokenPremium",
        "offset": 0,
        "slot": "218",
        "type": "t_uint256"
      },
      {
        "astId": 9823,
        "contract": "contracts/vaults/BaseVaults/RibbonThetaVault.sol:RibbonThetaVault",
        "label": "lastStrikeOverride",
        "offset": 0,
        "slot": "219",
        "type": "t_uint256"
      },
      {
        "astId": 9825,
        "contract": "contracts/vaults/BaseVaults/RibbonThetaVault.sol:RibbonThetaVault",
        "label": "overriddenStrikePrice",
        "offset": 0,
        "slot": "220",
        "type": "t_uint256"
      },
      {
        "astId": 9827,
        "contract": "contracts/vaults/BaseVaults/RibbonThetaVault.sol:RibbonThetaVault",
        "label": "auctionDuration",
        "offset": 0,
        "slot": "221",
        "type": "t_uint256"
      },
      {
        "astId": 9829,
        "contract": "contracts/vaults/BaseVaults/RibbonThetaVault.sol:RibbonThetaVault",
        "label": "optionAuctionID",
        "offset": 0,
        "slot": "222",
        "type": "t_uint256"
      }
    ],
    "types": {
      "t_address": {
        "encoding": "inplace",
        "label": "address",
        "numberOfBytes": "20"
      },
      "t_array(t_uint256)44_storage": {
        "base": "t_uint256",
        "encoding": "inplace",
        "label": "uint256[44]",
        "numberOfBytes": "1408"
      },
      "t_array(t_uint256)49_storage": {
        "base": "t_uint256",
        "encoding": "inplace",
        "label": "uint256[49]",
        "numberOfBytes": "1568"
      },
      "t_array(t_uint256)50_storage": {
        "base": "t_uint256",
        "encoding": "inplace",
        "label": "uint256[50]",
        "numberOfBytes": "1600"
      },
      "t_bool": {
        "encoding": "inplace",
        "label": "bool",
        "numberOfBytes": "1"
      },
      "t_mapping(t_address,t_mapping(t_address,t_uint256))": {
        "encoding": "mapping",
        "key": "t_address",
        "label": "mapping(address => mapping(address => uint256))",
        "numberOfBytes": "32",
        "value": "t_mapping(t_address,t_uint256)"
      },
      "t_mapping(t_address,t_struct(DepositReceipt)4739_storage)": {
        "encoding": "mapping",
        "key": "t_address",
        "label": "mapping(address => struct Vault.DepositReceipt)",
        "numberOfBytes": "32",
        "value": "t_struct(DepositReceipt)4739_storage"
      },
      "t_mapping(t_address,t_struct(Withdrawal)4744_storage)": {
        "encoding": "mapping",
        "key": "t_address",
        "label": "mapping(address => struct Vault.Withdrawal)",
        "numberOfBytes": "32",
        "value": "t_struct(Withdrawal)4744_storage"
      },
      "t_mapping(t_address,t_uint256)": {
        "encoding": "mapping",
        "key": "t_address",
        "label": "mapping(address => uint256)",
        "numberOfBytes": "32",
        "value": "t_uint256"
      },
      "t_mapping(t_uint256,t_uint256)": {
        "encoding": "mapping",
        "key": "t_uint256",
        "label": "mapping(uint256 => uint256)",
        "numberOfBytes": "32",
        "value": "t_uint256"
      },
      "t_string_storage": {
        "encoding": "bytes",
        "label": "string",
        "numberOfBytes": "32"
      },
      "t_struct(DepositReceipt)4739_storage": {
        "encoding": "inplace",
        "label": "struct Vault.DepositReceipt",
        "members": [
          {
            "astId": 4734,
            "contract": "contracts/vaults/BaseVaults/RibbonThetaVault.sol:RibbonThetaVault",
            "label": "round",
            "offset": 0,
            "slot": "0",
            "type": "t_uint16"
          },
          {
            "astId": 4736,
            "contract": "contracts/vaults/BaseVaults/RibbonThetaVault.sol:RibbonThetaVault",
            "label": "amount",
            "offset": 2,
            "slot": "0",
            "type": "t_uint104"
          },
          {
            "astId": 4738,
            "contract": "contracts/vaults/BaseVaults/RibbonThetaVault.sol:RibbonThetaVault",
            "label": "unredeemedShares",
            "offset": 15,
            "slot": "0",
            "type": "t_uint128"
          }
        ],
        "numberOfBytes": "32"
      },
      "t_struct(OptionState)4721_storage": {
        "encoding": "inplace",
        "label": "struct Vault.OptionState",
        "members": [
          {
            "astId": 4716,
            "contract": "contracts/vaults/BaseVaults/RibbonThetaVault.sol:RibbonThetaVault",
            "label": "nextOption",
            "offset": 0,
            "slot": "0",
            "type": "t_address"
          },
          {
            "astId": 4718,
            "contract": "contracts/vaults/BaseVaults/RibbonThetaVault.sol:RibbonThetaVault",
            "label": "currentOption",
            "offset": 0,
            "slot": "1",
            "type": "t_address"
          },
          {
            "astId": 4720,
            "contract": "contracts/vaults/BaseVaults/RibbonThetaVault.sol:RibbonThetaVault",
            "label": "nextOptionReadyAt",
            "offset": 20,
            "slot": "1",
            "type": "t_uint32"
          }
        ],
        "numberOfBytes": "64"
      },
      "t_struct(VaultParams)4714_storage": {
        "encoding": "inplace",
        "label": "struct Vault.VaultParams",
        "members": [
          {
            "astId": 4703,
            "contract": "contracts/vaults/BaseVaults/RibbonThetaVault.sol:RibbonThetaVault",
            "label": "isPut",
            "offset": 0,
            "slot": "0",
            "type": "t_bool"
          },
          {
            "astId": 4705,
            "contract": "contracts/vaults/BaseVaults/RibbonThetaVault.sol:RibbonThetaVault",
            "label": "decimals",
            "offset": 1,
            "slot": "0",
            "type": "t_uint8"
          },
          {
            "astId": 4707,
            "contract": "contracts/vaults/BaseVaults/RibbonThetaVault.sol:RibbonThetaVault",
            "label": "asset",
            "offset": 2,
            "slot": "0",
            "type": "t_address"
          },
          {
            "astId": 4709,
            "contract": "contracts/vaults/BaseVaults/RibbonThetaVault.sol:RibbonThetaVault",
            "label": "underlying",
            "offset": 0,
            "slot": "1",
            "type": "t_address"
          },
          {
            "astId": 4711,
            "contract": "contracts/vaults/BaseVaults/RibbonThetaVault.sol:RibbonThetaVault",
            "label": "minimumSupply",
            "offset": 20,
            "slot": "1",
            "type": "t_uint56"
          },
          {
            "astId": 4713,
            "contract": "contracts/vaults/BaseVaults/RibbonThetaVault.sol:RibbonThetaVault",
            "label": "cap",
            "offset": 0,
            "slot": "2",
            "type": "t_uint104"
          }
        ],
        "numberOfBytes": "96"
      },
      "t_struct(VaultState)4732_storage": {
        "encoding": "inplace",
        "label": "struct Vault.VaultState",
        "members": [
          {
            "astId": 4723,
            "contract": "contracts/vaults/BaseVaults/RibbonThetaVault.sol:RibbonThetaVault",
            "label": "round",
            "offset": 0,
            "slot": "0",
            "type": "t_uint16"
          },
          {
            "astId": 4725,
            "contract": "contracts/vaults/BaseVaults/RibbonThetaVault.sol:RibbonThetaVault",
            "label": "lockedAmount",
            "offset": 2,
            "slot": "0",
            "type": "t_uint104"
          },
          {
            "astId": 4727,
            "contract": "contracts/vaults/BaseVaults/RibbonThetaVault.sol:RibbonThetaVault",
            "label": "lastLockedAmount",
            "offset": 15,
            "slot": "0",
            "type": "t_uint104"
          },
          {
            "astId": 4729,
            "contract": "contracts/vaults/BaseVaults/RibbonThetaVault.sol:RibbonThetaVault",
            "label": "totalPending",
            "offset": 0,
            "slot": "1",
            "type": "t_uint128"
          },
          {
            "astId": 4731,
            "contract": "contracts/vaults/BaseVaults/RibbonThetaVault.sol:RibbonThetaVault",
            "label": "queuedWithdrawShares",
            "offset": 16,
            "slot": "1",
            "type": "t_uint128"
          }
        ],
        "numberOfBytes": "64"
      },
      "t_struct(Withdrawal)4744_storage": {
        "encoding": "inplace",
        "label": "struct Vault.Withdrawal",
        "members": [
          {
            "astId": 4741,
            "contract": "contracts/vaults/BaseVaults/RibbonThetaVault.sol:RibbonThetaVault",
            "label": "round",
            "offset": 0,
            "slot": "0",
            "type": "t_uint16"
          },
          {
            "astId": 4743,
            "contract": "contracts/vaults/BaseVaults/RibbonThetaVault.sol:RibbonThetaVault",
            "label": "shares",
            "offset": 2,
            "slot": "0",
            "type": "t_uint128"
          }
        ],
        "numberOfBytes": "32"
      },
      "t_uint104": {
        "encoding": "inplace",
        "label": "uint104",
        "numberOfBytes": "13"
      },
      "t_uint128": {
        "encoding": "inplace",
        "label": "uint128",
        "numberOfBytes": "16"
      },
      "t_uint16": {
        "encoding": "inplace",
        "label": "uint16",
        "numberOfBytes": "2"
      },
      "t_uint256": {
        "encoding": "inplace",
        "label": "uint256",
        "numberOfBytes": "32"
      },
      "t_uint32": {
        "encoding": "inplace",
        "label": "uint32",
        "numberOfBytes": "4"
      },
      "t_uint56": {
        "encoding": "inplace",
        "label": "uint56",
        "numberOfBytes": "7"
      },
      "t_uint8": {
        "encoding": "inplace",
        "label": "uint8",
        "numberOfBytes": "1"
      }
    }
  }
}