{
  "address": "0x34f394C902284D7722109F264923b38Fe8471C39",
  "abi": [
    {
      "inputs": [
        {
          "internalType": "address",
          "name": "_weth",
          "type": "address"
        },
        {
          "internalType": "address",
          "name": "_usdc",
          "type": "address"
        },
        {
          "internalType": "address",
          "name": "_oTokenFactory",
          "type": "address"
        },
        {
          "internalType": "address",
          "name": "_gammaController",
          "type": "address"
        },
        {
          "internalType": "address",
          "name": "_marginPool",
          "type": "address"
        },
        {
          "internalType": "address",
          "name": "_gnosisEasyAuction",
          "type": "address"
        },
        {
          "internalType": "address",
          "name": "_yearnRegistry",
          "type": "address"
        }
      ],
      "stateMutability": "nonpayable",
      "type": "constructor"
    },
    {
      "anonymous": false,
      "inputs": [
        {
          "indexed": true,
          "internalType": "address",
          "name": "owner",
          "type": "address"
        },
        {
          "indexed": true,
          "internalType": "address",
          "name": "spender",
          "type": "address"
        },
        {
          "indexed": false,
          "internalType": "uint256",
          "name": "value",
          "type": "uint256"
        }
      ],
      "name": "Approval",
      "type": "event"
    },
    {
      "anonymous": false,
      "inputs": [
        {
          "indexed": false,
          "internalType": "uint256",
          "name": "auctionDuration",
          "type": "uint256"
        },
        {
          "indexed": false,
          "internalType": "uint256",
          "name": "newAuctionDuration",
          "type": "uint256"
        }
      ],
      "name": "AuctionDurationSet",
      "type": "event"
    },
    {
      "anonymous": false,
      "inputs": [
        {
          "indexed": false,
          "internalType": "uint256",
          "name": "oldCap",
          "type": "uint256"
        },
        {
          "indexed": false,
          "internalType": "uint256",
          "name": "newCap",
          "type": "uint256"
        }
      ],
      "name": "CapSet",
      "type": "event"
    },
    {
      "anonymous": false,
      "inputs": [
        {
          "indexed": true,
          "internalType": "address",
          "name": "options",
          "type": "address"
        },
        {
          "indexed": false,
          "internalType": "uint256",
          "name": "withdrawAmount",
          "type": "uint256"
        },
        {
          "indexed": true,
          "internalType": "address",
          "name": "manager",
          "type": "address"
        }
      ],
      "name": "CloseShort",
      "type": "event"
    },
    {
      "anonymous": false,
      "inputs": [
        {
          "indexed": false,
          "internalType": "uint256",
          "name": "performanceFee",
          "type": "uint256"
        },
        {
          "indexed": false,
          "internalType": "uint256",
          "name": "vaultFee",
          "type": "uint256"
        },
        {
          "indexed": false,
          "internalType": "uint256",
          "name": "round",
          "type": "uint256"
        },
        {
          "indexed": true,
          "internalType": "address",
          "name": "feeRecipient",
          "type": "address"
        }
      ],
      "name": "CollectVaultFees",
      "type": "event"
    },
    {
      "anonymous": false,
      "inputs": [
        {
          "indexed": true,
          "internalType": "address",
          "name": "account",
          "type": "address"
        },
        {
          "indexed": false,
          "internalType": "uint256",
          "name": "amount",
          "type": "uint256"
        },
        {
          "indexed": false,
          "internalType": "uint256",
          "name": "round",
          "type": "uint256"
        }
      ],
      "name": "Deposit",
      "type": "event"
    },
    {
      "anonymous": false,
      "inputs": [
        {
          "indexed": true,
          "internalType": "address",
          "name": "auctioningToken",
          "type": "address"
        },
        {
          "indexed": true,
          "internalType": "address",
          "name": "biddingToken",
          "type": "address"
        },
        {
          "indexed": false,
          "internalType": "uint256",
          "name": "auctionCounter",
          "type": "uint256"
        },
        {
          "indexed": true,
          "internalType": "address",
          "name": "manager",
          "type": "address"
        }
      ],
      "name": "InitiateGnosisAuction",
      "type": "event"
    },
    {
      "anonymous": false,
      "inputs": [
        {
          "indexed": true,
          "internalType": "address",
          "name": "account",
          "type": "address"
        },
        {
          "indexed": false,
          "internalType": "uint256",
          "name": "shares",
          "type": "uint256"
        },
        {
          "indexed": false,
          "internalType": "uint256",
          "name": "round",
          "type": "uint256"
        }
      ],
      "name": "InitiateWithdraw",
      "type": "event"
    },
    {
      "anonymous": false,
      "inputs": [
        {
          "indexed": true,
          "internalType": "address",
          "name": "account",
          "type": "address"
        },
        {
          "indexed": false,
          "internalType": "uint256",
          "name": "amount",
          "type": "uint256"
        },
        {
          "indexed": false,
          "internalType": "uint256",
          "name": "round",
          "type": "uint256"
        }
      ],
      "name": "InstantWithdraw",
      "type": "event"
    },
    {
      "anonymous": false,
      "inputs": [
        {
          "indexed": false,
          "internalType": "uint256",
          "name": "managementFee",
          "type": "uint256"
        },
        {
          "indexed": false,
          "internalType": "uint256",
          "name": "newManagementFee",
          "type": "uint256"
        }
      ],
      "name": "ManagementFeeSet",
      "type": "event"
    },
    {
      "anonymous": false,
      "inputs": [
        {
          "indexed": false,
          "internalType": "uint256",
          "name": "strikePrice",
          "type": "uint256"
        },
        {
          "indexed": false,
          "internalType": "uint256",
          "name": "delta",
          "type": "uint256"
        }
      ],
      "name": "NewOptionStrikeSelected",
      "type": "event"
    },
    {
      "anonymous": false,
      "inputs": [
        {
          "indexed": true,
          "internalType": "address",
          "name": "options",
          "type": "address"
        },
        {
          "indexed": false,
          "internalType": "uint256",
          "name": "depositAmount",
          "type": "uint256"
        },
        {
          "indexed": true,
          "internalType": "address",
          "name": "manager",
          "type": "address"
        }
      ],
      "name": "OpenShort",
      "type": "event"
    },
    {
      "anonymous": false,
      "inputs": [
        {
          "indexed": true,
          "internalType": "address",
          "name": "previousOwner",
          "type": "address"
        },
        {
          "indexed": true,
          "internalType": "address",
          "name": "newOwner",
          "type": "address"
        }
      ],
      "name": "OwnershipTransferred",
      "type": "event"
    },
    {
      "anonymous": false,
      "inputs": [
        {
          "indexed": false,
          "internalType": "uint256",
          "name": "performanceFee",
          "type": "uint256"
        },
        {
          "indexed": false,
          "internalType": "uint256",
          "name": "newPerformanceFee",
          "type": "uint256"
        }
      ],
      "name": "PerformanceFeeSet",
      "type": "event"
    },
    {
      "anonymous": false,
      "inputs": [
        {
          "indexed": false,
          "internalType": "uint256",
          "name": "premiumDiscount",
          "type": "uint256"
        },
        {
          "indexed": false,
          "internalType": "uint256",
          "name": "newPremiumDiscount",
          "type": "uint256"
        }
      ],
      "name": "PremiumDiscountSet",
      "type": "event"
    },
    {
      "anonymous": false,
      "inputs": [
        {
          "indexed": true,
          "internalType": "address",
          "name": "account",
          "type": "address"
        },
        {
          "indexed": false,
          "internalType": "uint256",
          "name": "share",
          "type": "uint256"
        },
        {
          "indexed": false,
          "internalType": "uint256",
          "name": "round",
          "type": "uint256"
        }
      ],
      "name": "Redeem",
      "type": "event"
    },
    {
      "anonymous": false,
      "inputs": [
        {
          "indexed": true,
          "internalType": "address",
          "name": "from",
          "type": "address"
        },
        {
          "indexed": true,
          "internalType": "address",
          "name": "to",
          "type": "address"
        },
        {
          "indexed": false,
          "internalType": "uint256",
          "name": "value",
          "type": "uint256"
        }
      ],
      "name": "Transfer",
      "type": "event"
    },
    {
      "anonymous": false,
      "inputs": [
        {
          "indexed": true,
          "internalType": "address",
          "name": "account",
          "type": "address"
        },
        {
          "indexed": false,
          "internalType": "uint256",
          "name": "amount",
          "type": "uint256"
        },
        {
          "indexed": false,
          "internalType": "uint256",
          "name": "shares",
          "type": "uint256"
        }
      ],
      "name": "Withdraw",
      "type": "event"
    },
    {
      "inputs": [],
      "name": "DELAY",
      "outputs": [
        {
          "internalType": "uint256",
          "name": "",
          "type": "uint256"
        }
      ],
      "stateMutability": "view",
      "type": "function"
    },
    {
      "inputs": [],
      "name": "GAMMA_CONTROLLER",
      "outputs": [
        {
          "internalType": "address",
          "name": "",
          "type": "address"
        }
      ],
      "stateMutability": "view",
      "type": "function"
    },
    {
      "inputs": [],
      "name": "GNOSIS_EASY_AUCTION",
      "outputs": [
        {
          "internalType": "address",
          "name": "",
          "type": "address"
        }
      ],
      "stateMutability": "view",
      "type": "function"
    },
    {
      "inputs": [],
      "name": "MARGIN_POOL",
      "outputs": [
        {
          "internalType": "address",
          "name": "",
          "type": "address"
        }
      ],
      "stateMutability": "view",
      "type": "function"
    },
    {
      "inputs": [],
      "name": "OTOKEN_FACTORY",
      "outputs": [
        {
          "internalType": "address",
          "name": "",
          "type": "address"
        }
      ],
      "stateMutability": "view",
      "type": "function"
    },
    {
      "inputs": [],
      "name": "PERIOD",
      "outputs": [
        {
          "internalType": "uint256",
          "name": "",
          "type": "uint256"
        }
      ],
      "stateMutability": "view",
      "type": "function"
    },
    {
      "inputs": [],
      "name": "USDC",
      "outputs": [
        {
          "internalType": "address",
          "name": "",
          "type": "address"
        }
      ],
      "stateMutability": "view",
      "type": "function"
    },
    {
      "inputs": [],
      "name": "WETH",
      "outputs": [
        {
          "internalType": "address",
          "name": "",
          "type": "address"
        }
      ],
      "stateMutability": "view",
      "type": "function"
    },
    {
      "inputs": [],
      "name": "YEARN_REGISTRY",
      "outputs": [
        {
          "internalType": "address",
          "name": "",
          "type": "address"
        }
      ],
      "stateMutability": "view",
      "type": "function"
    },
    {
      "inputs": [],
      "name": "YEARN_WITHDRAWAL_BUFFER",
      "outputs": [
        {
          "internalType": "uint256",
          "name": "",
          "type": "uint256"
        }
      ],
      "stateMutability": "view",
      "type": "function"
    },
    {
      "inputs": [],
      "name": "YEARN_WITHDRAWAL_SLIPPAGE",
      "outputs": [
        {
          "internalType": "uint256",
          "name": "",
          "type": "uint256"
        }
      ],
      "stateMutability": "view",
      "type": "function"
    },
    {
      "inputs": [
        {
          "internalType": "address",
          "name": "account",
          "type": "address"
        }
      ],
      "name": "accountVaultBalance",
      "outputs": [
        {
          "internalType": "uint256",
          "name": "",
          "type": "uint256"
        }
      ],
      "stateMutability": "view",
      "type": "function"
    },
    {
      "inputs": [
        {
          "internalType": "address",
          "name": "owner",
          "type": "address"
        },
        {
          "internalType": "address",
          "name": "spender",
          "type": "address"
        }
      ],
      "name": "allowance",
      "outputs": [
        {
          "internalType": "uint256",
          "name": "",
          "type": "uint256"
        }
      ],
      "stateMutability": "view",
      "type": "function"
    },
    {
      "inputs": [
        {
          "internalType": "address",
          "name": "spender",
          "type": "address"
        },
        {
          "internalType": "uint256",
          "name": "amount",
          "type": "uint256"
        }
      ],
      "name": "approve",
      "outputs": [
        {
          "internalType": "bool",
          "name": "",
          "type": "bool"
        }
      ],
      "stateMutability": "nonpayable",
      "type": "function"
    },
    {
      "inputs": [],
      "name": "auctionDuration",
      "outputs": [
        {
          "internalType": "uint256",
          "name": "",
          "type": "uint256"
        }
      ],
      "stateMutability": "view",
      "type": "function"
    },
    {
      "inputs": [
        {
          "internalType": "address",
          "name": "account",
          "type": "address"
        }
      ],
      "name": "balanceOf",
      "outputs": [
        {
          "internalType": "uint256",
          "name": "",
          "type": "uint256"
        }
      ],
      "stateMutability": "view",
      "type": "function"
    },
    {
      "inputs": [],
      "name": "burnRemainingOTokens",
      "outputs": [],
      "stateMutability": "nonpayable",
      "type": "function"
    },
    {
      "inputs": [],
      "name": "cap",
      "outputs": [
        {
          "internalType": "uint256",
          "name": "",
          "type": "uint256"
        }
      ],
      "stateMutability": "view",
      "type": "function"
    },
    {
      "inputs": [],
      "name": "collateralToken",
      "outputs": [
        {
          "internalType": "contract IYearnVault",
          "name": "",
          "type": "address"
        }
      ],
      "stateMutability": "view",
      "type": "function"
    },
    {
      "inputs": [],
      "name": "commitAndClose",
      "outputs": [],
      "stateMutability": "nonpayable",
      "type": "function"
    },
    {
      "inputs": [],
      "name": "completeWithdraw",
      "outputs": [],
      "stateMutability": "nonpayable",
      "type": "function"
    },
    {
      "inputs": [],
      "name": "currentOption",
      "outputs": [
        {
          "internalType": "address",
          "name": "",
          "type": "address"
        }
      ],
      "stateMutability": "view",
      "type": "function"
    },
    {
      "inputs": [],
      "name": "currentOtokenPremium",
      "outputs": [
        {
          "internalType": "uint256",
          "name": "",
          "type": "uint256"
        }
      ],
      "stateMutability": "view",
      "type": "function"
    },
    {
      "inputs": [],
      "name": "decimals",
      "outputs": [
        {
          "internalType": "uint8",
          "name": "",
          "type": "uint8"
        }
      ],
      "stateMutability": "view",
      "type": "function"
    },
    {
      "inputs": [
        {
          "internalType": "address",
          "name": "spender",
          "type": "address"
        },
        {
          "internalType": "uint256",
          "name": "subtractedValue",
          "type": "uint256"
        }
      ],
      "name": "decreaseAllowance",
      "outputs": [
        {
          "internalType": "bool",
          "name": "",
          "type": "bool"
        }
      ],
      "stateMutability": "nonpayable",
      "type": "function"
    },
    {
      "inputs": [
        {
          "internalType": "uint256",
          "name": "amount",
          "type": "uint256"
        }
      ],
      "name": "deposit",
      "outputs": [],
      "stateMutability": "nonpayable",
      "type": "function"
    },
    {
      "inputs": [
        {
          "internalType": "uint256",
          "name": "amount",
          "type": "uint256"
        },
        {
          "internalType": "address",
          "name": "creditor",
          "type": "address"
        }
      ],
      "name": "depositFor",
      "outputs": [],
      "stateMutability": "nonpayable",
      "type": "function"
    },
    {
      "inputs": [
        {
          "internalType": "address",
          "name": "",
          "type": "address"
        }
      ],
      "name": "depositReceipts",
      "outputs": [
        {
          "internalType": "uint16",
          "name": "round",
          "type": "uint16"
        },
        {
          "internalType": "uint104",
          "name": "amount",
          "type": "uint104"
        },
        {
          "internalType": "uint128",
          "name": "unredeemedShares",
          "type": "uint128"
        }
      ],
      "stateMutability": "view",
      "type": "function"
    },
    {
      "inputs": [
        {
          "internalType": "uint256",
          "name": "amount",
          "type": "uint256"
        }
      ],
      "name": "depositYieldToken",
      "outputs": [],
      "stateMutability": "nonpayable",
      "type": "function"
    },
    {
      "inputs": [],
      "name": "feeRecipient",
      "outputs": [
        {
          "internalType": "address",
          "name": "",
          "type": "address"
        }
      ],
      "stateMutability": "view",
      "type": "function"
    },
    {
      "inputs": [
        {
          "internalType": "address",
          "name": "spender",
          "type": "address"
        },
        {
          "internalType": "uint256",
          "name": "addedValue",
          "type": "uint256"
        }
      ],
      "name": "increaseAllowance",
      "outputs": [
        {
          "internalType": "bool",
          "name": "",
          "type": "bool"
        }
      ],
      "stateMutability": "nonpayable",
      "type": "function"
    },
    {
      "inputs": [
        {
          "internalType": "uint256",
          "name": "numRounds",
          "type": "uint256"
        }
      ],
      "name": "initRounds",
      "outputs": [],
      "stateMutability": "nonpayable",
      "type": "function"
    },
    {
      "inputs": [
        {
          "internalType": "address",
          "name": "_owner",
          "type": "address"
        },
        {
          "internalType": "address",
          "name": "_keeper",
          "type": "address"
        },
        {
          "internalType": "address",
          "name": "_feeRecipient",
          "type": "address"
        },
        {
          "internalType": "uint256",
          "name": "_managementFee",
          "type": "uint256"
        },
        {
          "internalType": "uint256",
          "name": "_performanceFee",
          "type": "uint256"
        },
        {
          "internalType": "string",
          "name": "_tokenName",
          "type": "string"
        },
        {
          "internalType": "string",
          "name": "_tokenSymbol",
          "type": "string"
        },
        {
          "internalType": "address",
          "name": "_optionsPremiumPricer",
          "type": "address"
        },
        {
          "internalType": "address",
          "name": "_strikeSelection",
          "type": "address"
        },
        {
          "internalType": "uint32",
          "name": "_premiumDiscount",
          "type": "uint32"
        },
        {
          "internalType": "uint256",
          "name": "_auctionDuration",
          "type": "uint256"
        },
        {
          "components": [
            {
              "internalType": "bool",
              "name": "isPut",
              "type": "bool"
            },
            {
              "internalType": "uint8",
              "name": "decimals",
              "type": "uint8"
            },
            {
              "internalType": "address",
              "name": "asset",
              "type": "address"
            },
            {
              "internalType": "address",
              "name": "underlying",
              "type": "address"
            },
            {
              "internalType": "uint56",
              "name": "minimumSupply",
              "type": "uint56"
            },
            {
              "internalType": "uint104",
              "name": "cap",
              "type": "uint104"
            }
          ],
          "internalType": "struct Vault.VaultParams",
          "name": "_vaultParams",
          "type": "tuple"
        }
      ],
      "name": "initialize",
      "outputs": [],
      "stateMutability": "nonpayable",
      "type": "function"
    },
    {
      "inputs": [
        {
          "internalType": "uint256",
          "name": "numShares",
          "type": "uint256"
        }
      ],
      "name": "initiateWithdraw",
      "outputs": [],
      "stateMutability": "nonpayable",
      "type": "function"
    },
    {
      "inputs": [],
      "name": "keeper",
      "outputs": [
        {
          "internalType": "address",
          "name": "",
          "type": "address"
        }
      ],
      "stateMutability": "view",
      "type": "function"
    },
    {
      "inputs": [],
      "name": "lastQueuedWithdrawAmount",
      "outputs": [
        {
          "internalType": "uint256",
          "name": "",
          "type": "uint256"
        }
      ],
      "stateMutability": "view",
      "type": "function"
    },
    {
      "inputs": [],
      "name": "lastStrikeOverrideRound",
      "outputs": [
        {
          "internalType": "uint16",
          "name": "",
          "type": "uint16"
        }
      ],
      "stateMutability": "view",
      "type": "function"
    },
    {
      "inputs": [],
      "name": "managementFee",
      "outputs": [
        {
          "internalType": "uint256",
          "name": "",
          "type": "uint256"
        }
      ],
      "stateMutability": "view",
      "type": "function"
    },
    {
      "inputs": [],
      "name": "maxRedeem",
      "outputs": [],
      "stateMutability": "nonpayable",
      "type": "function"
    },
    {
      "inputs": [],
      "name": "name",
      "outputs": [
        {
          "internalType": "string",
          "name": "",
          "type": "string"
        }
      ],
      "stateMutability": "view",
      "type": "function"
    },
    {
      "inputs": [],
      "name": "nextOption",
      "outputs": [
        {
          "internalType": "address",
          "name": "",
          "type": "address"
        }
      ],
      "stateMutability": "view",
      "type": "function"
    },
    {
      "inputs": [],
      "name": "nextOptionReadyAt",
      "outputs": [
        {
          "internalType": "uint256",
          "name": "",
          "type": "uint256"
        }
      ],
      "stateMutability": "view",
      "type": "function"
    },
    {
      "inputs": [],
      "name": "optionAuctionID",
      "outputs": [
        {
          "internalType": "uint256",
          "name": "",
          "type": "uint256"
        }
      ],
      "stateMutability": "view",
      "type": "function"
    },
    {
      "inputs": [],
      "name": "optionState",
      "outputs": [
        {
          "internalType": "address",
          "name": "nextOption",
          "type": "address"
        },
        {
          "internalType": "address",
          "name": "currentOption",
          "type": "address"
        },
        {
          "internalType": "uint32",
          "name": "nextOptionReadyAt",
          "type": "uint32"
        }
      ],
      "stateMutability": "view",
      "type": "function"
    },
    {
      "inputs": [],
      "name": "optionsPremiumPricer",
      "outputs": [
        {
          "internalType": "address",
          "name": "",
          "type": "address"
        }
      ],
      "stateMutability": "view",
      "type": "function"
    },
    {
      "inputs": [],
      "name": "overriddenStrikePrice",
      "outputs": [
        {
          "internalType": "uint256",
          "name": "",
          "type": "uint256"
        }
      ],
      "stateMutability": "view",
      "type": "function"
    },
    {
      "inputs": [],
      "name": "owner",
      "outputs": [
        {
          "internalType": "address",
          "name": "",
          "type": "address"
        }
      ],
      "stateMutability": "view",
      "type": "function"
    },
    {
      "inputs": [],
      "name": "performanceFee",
      "outputs": [
        {
          "internalType": "uint256",
          "name": "",
          "type": "uint256"
        }
      ],
      "stateMutability": "view",
      "type": "function"
    },
    {
      "inputs": [],
      "name": "premiumDiscount",
      "outputs": [
        {
          "internalType": "uint256",
          "name": "",
          "type": "uint256"
        }
      ],
      "stateMutability": "view",
      "type": "function"
    },
    {
      "inputs": [],
      "name": "pricePerShare",
      "outputs": [
        {
          "internalType": "uint256",
          "name": "",
          "type": "uint256"
        }
      ],
      "stateMutability": "view",
      "type": "function"
    },
    {
      "inputs": [
        {
          "internalType": "uint256",
          "name": "numShares",
          "type": "uint256"
        }
      ],
      "name": "redeem",
      "outputs": [],
      "stateMutability": "nonpayable",
      "type": "function"
    },
    {
      "inputs": [],
      "name": "renounceOwnership",
      "outputs": [],
      "stateMutability": "nonpayable",
      "type": "function"
    },
    {
      "inputs": [],
      "name": "rollToNextOption",
      "outputs": [],
      "stateMutability": "nonpayable",
      "type": "function"
    },
    {
      "inputs": [
        {
          "internalType": "uint256",
          "name": "",
          "type": "uint256"
        }
      ],
      "name": "roundPricePerShare",
      "outputs": [
        {
          "internalType": "uint256",
          "name": "",
          "type": "uint256"
        }
      ],
      "stateMutability": "view",
      "type": "function"
    },
    {
      "inputs": [
        {
          "internalType": "uint256",
          "name": "newAuctionDuration",
          "type": "uint256"
        }
      ],
      "name": "setAuctionDuration",
      "outputs": [],
      "stateMutability": "nonpayable",
      "type": "function"
    },
    {
      "inputs": [
        {
          "internalType": "uint256",
          "name": "newCap",
          "type": "uint256"
        }
      ],
      "name": "setCap",
      "outputs": [],
      "stateMutability": "nonpayable",
      "type": "function"
    },
    {
      "inputs": [
        {
          "internalType": "address",
          "name": "newFeeRecipient",
          "type": "address"
        }
      ],
      "name": "setFeeRecipient",
      "outputs": [],
      "stateMutability": "nonpayable",
      "type": "function"
    },
    {
      "inputs": [
        {
          "internalType": "uint256",
          "name": "newManagementFee",
          "type": "uint256"
        }
      ],
      "name": "setManagementFee",
      "outputs": [],
      "stateMutability": "nonpayable",
      "type": "function"
    },
    {
      "inputs": [
        {
          "internalType": "address",
          "name": "newKeeper",
          "type": "address"
        }
      ],
      "name": "setNewKeeper",
      "outputs": [],
      "stateMutability": "nonpayable",
      "type": "function"
    },
    {
      "inputs": [
        {
          "internalType": "address",
          "name": "newOptionsPremiumPricer",
          "type": "address"
        }
      ],
      "name": "setOptionsPremiumPricer",
      "outputs": [],
      "stateMutability": "nonpayable",
      "type": "function"
    },
    {
      "inputs": [
        {
          "internalType": "uint256",
          "name": "newPerformanceFee",
          "type": "uint256"
        }
      ],
      "name": "setPerformanceFee",
      "outputs": [],
      "stateMutability": "nonpayable",
      "type": "function"
    },
    {
      "inputs": [
        {
          "internalType": "uint256",
          "name": "newPremiumDiscount",
          "type": "uint256"
        }
      ],
      "name": "setPremiumDiscount",
      "outputs": [],
      "stateMutability": "nonpayable",
      "type": "function"
    },
    {
      "inputs": [
        {
          "internalType": "uint128",
          "name": "strikePrice",
          "type": "uint128"
        }
      ],
      "name": "setStrikePrice",
      "outputs": [],
      "stateMutability": "nonpayable",
      "type": "function"
    },
    {
      "inputs": [
        {
          "internalType": "address",
          "name": "newStrikeSelection",
          "type": "address"
        }
      ],
      "name": "setStrikeSelection",
      "outputs": [],
      "stateMutability": "nonpayable",
      "type": "function"
    },
    {
      "inputs": [
        {
          "internalType": "address",
          "name": "account",
          "type": "address"
        }
      ],
      "name": "shareBalances",
      "outputs": [
        {
          "internalType": "uint256",
          "name": "heldByAccount",
          "type": "uint256"
        },
        {
          "internalType": "uint256",
          "name": "heldByVault",
          "type": "uint256"
        }
      ],
      "stateMutability": "view",
      "type": "function"
    },
    {
      "inputs": [
        {
          "internalType": "address",
          "name": "account",
          "type": "address"
        }
      ],
      "name": "shares",
      "outputs": [
        {
          "internalType": "uint256",
          "name": "",
          "type": "uint256"
        }
      ],
      "stateMutability": "view",
      "type": "function"
    },
    {
      "inputs": [],
      "name": "startAuction",
      "outputs": [],
      "stateMutability": "nonpayable",
      "type": "function"
    },
    {
      "inputs": [],
      "name": "strikeSelection",
      "outputs": [
        {
          "internalType": "address",
          "name": "",
          "type": "address"
        }
      ],
      "stateMutability": "view",
      "type": "function"
    },
    {
      "inputs": [],
      "name": "symbol",
      "outputs": [
        {
          "internalType": "string",
          "name": "",
          "type": "string"
        }
      ],
      "stateMutability": "view",
      "type": "function"
    },
    {
      "inputs": [],
      "name": "totalBalance",
      "outputs": [
        {
          "internalType": "uint256",
          "name": "",
          "type": "uint256"
        }
      ],
      "stateMutability": "view",
      "type": "function"
    },
    {
      "inputs": [],
      "name": "totalPending",
      "outputs": [
        {
          "internalType": "uint256",
          "name": "",
          "type": "uint256"
        }
      ],
      "stateMutability": "view",
      "type": "function"
    },
    {
      "inputs": [],
      "name": "totalSupply",
      "outputs": [
        {
          "internalType": "uint256",
          "name": "",
          "type": "uint256"
        }
      ],
      "stateMutability": "view",
      "type": "function"
    },
    {
      "inputs": [
        {
          "internalType": "address",
          "name": "recipient",
          "type": "address"
        },
        {
          "internalType": "uint256",
          "name": "amount",
          "type": "uint256"
        }
      ],
      "name": "transfer",
      "outputs": [
        {
          "internalType": "bool",
          "name": "",
          "type": "bool"
        }
      ],
      "stateMutability": "nonpayable",
      "type": "function"
    },
    {
      "inputs": [
        {
          "internalType": "address",
          "name": "sender",
          "type": "address"
        },
        {
          "internalType": "address",
          "name": "recipient",
          "type": "address"
        },
        {
          "internalType": "uint256",
          "name": "amount",
          "type": "uint256"
        }
      ],
      "name": "transferFrom",
      "outputs": [
        {
          "internalType": "bool",
          "name": "",
          "type": "bool"
        }
      ],
      "stateMutability": "nonpayable",
      "type": "function"
    },
    {
      "inputs": [
        {
          "internalType": "address",
          "name": "newOwner",
          "type": "address"
        }
      ],
      "name": "transferOwnership",
      "outputs": [],
      "stateMutability": "nonpayable",
      "type": "function"
    },
    {
      "inputs": [],
      "name": "upgradeYearnVault",
      "outputs": [],
      "stateMutability": "nonpayable",
      "type": "function"
    },
    {
      "inputs": [],
      "name": "vaultParams",
      "outputs": [
        {
          "internalType": "bool",
          "name": "isPut",
          "type": "bool"
        },
        {
          "internalType": "uint8",
          "name": "decimals",
          "type": "uint8"
        },
        {
          "internalType": "address",
          "name": "asset",
          "type": "address"
        },
        {
          "internalType": "address",
          "name": "underlying",
          "type": "address"
        },
        {
          "internalType": "uint56",
          "name": "minimumSupply",
          "type": "uint56"
        },
        {
          "internalType": "uint104",
          "name": "cap",
          "type": "uint104"
        }
      ],
      "stateMutability": "view",
      "type": "function"
    },
    {
      "inputs": [],
      "name": "vaultState",
      "outputs": [
        {
          "internalType": "uint16",
          "name": "round",
          "type": "uint16"
        },
        {
          "internalType": "uint104",
          "name": "lockedAmount",
          "type": "uint104"
        },
        {
          "internalType": "uint104",
          "name": "lastLockedAmount",
          "type": "uint104"
        },
        {
          "internalType": "uint128",
          "name": "totalPending",
          "type": "uint128"
        },
        {
          "internalType": "uint128",
          "name": "queuedWithdrawShares",
          "type": "uint128"
        }
      ],
      "stateMutability": "view",
      "type": "function"
    },
    {
      "inputs": [
        {
          "internalType": "uint256",
          "name": "amount",
          "type": "uint256"
        }
      ],
      "name": "withdrawInstantly",
      "outputs": [],
      "stateMutability": "nonpayable",
      "type": "function"
    },
    {
      "inputs": [
        {
          "internalType": "address",
          "name": "",
          "type": "address"
        }
      ],
      "name": "withdrawals",
      "outputs": [
        {
          "internalType": "uint16",
          "name": "round",
          "type": "uint16"
        },
        {
          "internalType": "uint128",
          "name": "shares",
          "type": "uint128"
        }
      ],
      "stateMutability": "view",
      "type": "function"
    }
  ],
  "transactionHash": "0xfd159beb875c1ed716bfe120de7081e150a2af57d715f758cbd4e45f6ba41f7d",
  "args": [
    "0xC02aaA39b223FE8D0A0e5C4F27eAD9083C756Cc2",
    "0xA0b86991c6218b36c1d19D4a2e9Eb0cE3606eB48",
    "0x7C06792Af1632E77cb27a558Dc0885338F4Bdf8E",
    "0x4ccc2339F87F6c59c6893E1A678c2266cA58dC72",
    "0x5934807cC0654d46755eBd2848840b616256C6Ef",
    "0x0b7fFc1f4AD541A4Ed16b40D8c37f0929158D101",
    "0x50c1a2eA0a861A967D9d0FFE2AE4012c2E053804"
  ],
  "solcInputHash": "4cdc1b767ae0212b68c072fe76e3cd8c",
  "bytecode": "0x6101606040523480156200001257600080fd5b5060405162005de138038062005de18339810160408190526200003591620002b6565b8686858585856001600160a01b038616620000805760405162461bcd60e51b8152602060048201526006602482015265042beeecae8d60d31b60448201526064015b60405180910390fd5b6001600160a01b038516620000c15760405162461bcd60e51b8152602060048201526006602482015265215f7573646360d01b604482015260640162000077565b6001600160a01b038216620001195760405162461bcd60e51b815260206004820152601360248201527f215f676e6f7369734561737941756374696f6e00000000000000000000000000604482015260640162000077565b6001600160a01b038416620001655760405162461bcd60e51b815260206004820152601160248201527010afb3b0b6b6b0a1b7b73a3937b63632b960791b604482015260640162000077565b6001600160a01b038316620001ac5760405162461bcd60e51b815260206004820152600c60248201526b0857db585c99da5b941bdbdb60a21b604482015260640162000077565b6001600160a01b038116620001f65760405162461bcd60e51b815260206004820152600f60248201526e215f796561726e526567697374727960881b604482015260640162000077565b6001600160601b0319606096871b811660805294861b851660a05292851b841660c05290841b831660e052831b82166101005290911b16610120526001600160a01b0385166200027b5760405162461bcd60e51b815260206004820152600f60248201526e215f6f546f6b656e466163746f727960881b604482015260640162000077565b5050505060601b6001600160601b03191661014052506200034a9050565b80516001600160a01b0381168114620002b157600080fd5b919050565b600080600080600080600060e0888a031215620002d1578283fd5b620002dc8862000299565b9650620002ec6020890162000299565b9550620002fc6040890162000299565b94506200030c6060890162000299565b93506200031c6080890162000299565b92506200032c60a0890162000299565b91506200033c60c0890162000299565b905092959891949750929550565b60805160601c60a05160601c60c05160601c60e05160601c6101005160601c6101205160601c6101405160601c6159da6200040760003960008181610b9b0152612975015260008181610696015261397b0152600081816107d101526135ea01526000818161072301526123d50152600081816104ea015281816116db015281816123b301526141970152600081816108e8015261299a015260008181610acc0152818161104501528181613e35015261456301526159da6000f3fe608060405234801561001057600080fd5b50600436106104805760003560e01c806389a3027111610257578063b4d1d79511610146578063dd62ed3e116100c3578063f2fde38b11610087578063f2fde38b14610c2d578063f656ba5114610c40578063f756fa2114610c68578063f957a06714610c70578063fe56e23214610c8357600080fd5b8063dd62ed3e14610bbd578063e16fdbd514610bf6578063e73c63d514610c09578063e74b981b14610c12578063ea00b1ca14610c2557600080fd5b8063d13f1b3e1161010a578063d13f1b3e14610b54578063d164cc1514610b67578063d5f2638214610b7a578063db006a7514610b83578063db43e86214610b9657600080fd5b8063b4d1d79514610b1c578063b6b55f2514610b26578063b9f8092b14610b39578063c1c4230d146107f3578063ce7c2ac214610b4157600080fd5b8063a457c2d7116101d4578063aced166111610198578063aced166114610ab4578063ad5c464814610ac7578063ad7a672f14610aee578063afa6626414610af6578063b2016bd414610b0957600080fd5b8063a457c2d714610a6a578063a497e67414610a7d578063a6f7f5d614610a90578063a7a4490114610a99578063a9059cbb14610aa157600080fd5b80639be43daa1161021b5780639be43daa1461093c5780639fcc2d751461094f578063a083ff17146109ee578063a285c9e814610a44578063a2db9d8314610a5957600080fd5b806389a30271146108e35780638b10cc7c1461090a5780638da5cb5b1461091b57806395d89b411461092c57806399530b061461093457600080fd5b806346904840116103735780636f14fba2116102f05780637a9262a2116102b45780637a9262a2146108475780637e108d521461089e57806383536ff3146108b157806387153eb1146108ba57806387788782146108da57600080fd5b80636f14fba2146107f35780636f31ab34146107fb57806370897b231461080357806370a0823114610816578063715018a61461083f57600080fd5b8063650cce8a11610337578063650cce8a1461071e5780636719b2ee1461074557806369b41170146107bc5780636b64c769146107c45780636c10f66c146107cc57600080fd5b806346904840146106d457806347786d37146106e7578063503c70aa146106fa57806355489bb214610703578063600a2cfb1461071657600080fd5b806331807e42116104015780633f23bb73116103c55780633f23bb731461066d5780633f90916a146106805780634215d91514610691578063432833a6146106b85780634603c0aa146106c157600080fd5b806331807e4214610602578063355274ea1461061557806336efd16f1461062657806339509351146106395780633ec143d31461064c57600080fd5b806323b872dd1161044857806323b872dd146105245780632728f333146105375780632775d01c146105bd57806330630da4146105d2578063313ce567146105e557600080fd5b806306fdde0314610485578063095ea7b3146104a35780630cbf54c8146104c657806318160ddd146104dd5780631a92f6c2146104e5575b600080fd5b61048d610c96565b60405161049a9190615500565b60405180910390f35b6104b66104b13660046151b3565b610d28565b604051901515815260200161049a565b6104cf60fc5481565b60405190815260200161049a565b6099546104cf565b61050c7f000000000000000000000000000000000000000000000000000000000000000081565b6040516001600160a01b03909116815260200161049a565b6104b6610532366004615173565b610d3f565b60cf5460d0546105789161ffff8116916001600160681b03620100008304811692600160781b900416906001600160801b0380821691600160801b90041685565b6040805161ffff90961686526001600160681b03948516602087015293909216928401929092526001600160801b03918216606084015216608082015260a00161049a565b6105d06105cb36600461525f565b610df0565b005b6105d06105e0366004615004565b6110bc565b60cc54610100900460ff1660405160ff909116815260200161049a565b6105d061061036600461525f565b611154565b60ce546001600160681b03166104cf565b6105d061063436600461528f565b6112f3565b6104b66106473660046151b3565b6113a2565b60fa5461065a9061ffff1681565b60405161ffff909116815260200161049a565b6104cf61067b366004615004565b6113de565b60d0546001600160801b03166104cf565b61050c7f000000000000000000000000000000000000000000000000000000000000000081565b6104cf60fd5481565b6105d06106cf366004615004565b611431565b60d35461050c906001600160a01b031681565b6105d06106f536600461525f565b6114d3565b6104cf60fe5481565b6105d0610711366004615238565b6115ae565b6105d061166f565b61050c7f000000000000000000000000000000000000000000000000000000000000000081565b61078b610753366004615004565b60c96020526000908152604090205461ffff8116906201000081046001600160681b031690600160781b90046001600160801b031683565b6040805161ffff90941684526001600160681b0390921660208401526001600160801b03169082015260600161049a565b6104cf600081565b6105d0611842565b61050c7f000000000000000000000000000000000000000000000000000000000000000081565b6104cf600581565b6105d06118a2565b6105d061081136600461525f565b6118d9565b6104cf610824366004615004565b6001600160a01b031660009081526097602052604090205490565b6105d06119a0565b61087c610855366004615004565b60cb6020526000908152604090205461ffff8116906201000090046001600160801b031682565b6040805161ffff90931683526001600160801b0390911660208301520161049a565b6105d06108ac36600461525f565b6119d6565b6104cf60f85481565b6104cf6108c836600461525f565b60ca6020526000908152604090205481565b6104cf60d55481565b61050c7f000000000000000000000000000000000000000000000000000000000000000081565b60d2546001600160a01b031661050c565b6065546001600160a01b031661050c565b61048d611c11565b6104cf611c20565b6105d061094a36600461525f565b611c5a565b60cc5460cd5460ce5461099e9260ff808216936101008304909116926001600160a01b036201000090930483169282169166ffffffffffffff600160a01b90910416906001600160681b031686565b60408051961515875260ff90951660208701526001600160a01b03938416948601949094529116606084015266ffffffffffffff1660808301526001600160681b031660a082015260c00161049a565b60d15460d254610a18916001600160a01b039081169190811690600160a01b900463ffffffff1683565b604080516001600160a01b03948516815293909216602084015263ffffffff169082015260600161049a565b60d254600160a01b900463ffffffff166104cf565b60d1546001600160a01b031661050c565b6104b6610a783660046151b3565b611d54565b6105d0610a8b36600461525f565b611ded565b6104cf60d65481565b6105d0611eaa565b6104b6610aaf3660046151b3565b611fe3565b60d45461050c906001600160a01b031681565b61050c7f000000000000000000000000000000000000000000000000000000000000000081565b6104cf611ff0565b60f65461050c906001600160a01b031681565b60d75461050c906001600160a01b031681565b6104cf62093a8081565b6105d0610b3436600461525f565b61215d565b6105d06121d1565b6104cf610b4f366004615004565b61245a565b6105d0610b6236600461525f565b612477565b6105d0610b75366004615004565b61253b565b6104cf60f95481565b6105d0610b9136600461525f565b6125ca565b61050c7f000000000000000000000000000000000000000000000000000000000000000081565b6104cf610bcb36600461503c565b6001600160a01b03918216600090815260986020908152604080832093909416825291909152205490565b6105d0610c04366004615074565b612637565b6104cf60fb5481565b6105d0610c20366004615004565b612843565b6105d0612936565b6105d0610c3b366004615004565b612b9a565b610c53610c4e366004615004565b612c32565b6040805192835260208301919091520161049a565b6105d0612d15565b60f75461050c906001600160a01b031681565b6105d0610c9136600461525f565b612d6a565b6060609a8054610ca590615794565b80601f0160208091040260200160405190810160405280929190818152602001828054610cd190615794565b8015610d1e5780601f10610cf357610100808354040283529160200191610d1e565b820191906000526020600020905b815481529060010190602001808311610d0157829003601f168201915b5050505050905090565b6000610d35338484612e45565b5060015b92915050565b6000610d4c848484612f6a565b6001600160a01b038416600090815260986020908152604080832033845290915290205482811015610dd65760405162461bcd60e51b815260206004820152602860248201527f45524332303a207472616e7366657220616d6f756e74206578636565647320616044820152676c6c6f77616e636560c01b60648201526084015b60405180910390fd5b610de38533858403612e45565b60019150505b9392505050565b60026001541415610e135760405162461bcd60e51b8152600401610dcd906155d8565b600260015533600090815260c96020526040902060cf5461ffff1682610e4b5760405162461bcd60e51b8152600401610dcd906155b7565b815461ffff168114610e8f5760405162461bcd60e51b815260206004820152600d60248201526c125b9d985b1a59081c9bdd5b99609a1b6044820152606401610dcd565b81546201000090046001600160681b031683811015610ee05760405162461bcd60e51b815260206004820152600d60248201526c115e18d9595908185b5bdd5b9d609a1b6044820152606401610dcd565b610eea818561313a565b83546001600160681b0391909116620100000262010000600160781b031990911617835560d054610f24906001600160801b03168561313a565b60d080546001600160801b0319166001600160801b0392909216919091179055604080518581526020810184905233917fab2daf3c146ca6416cbccd2a86ed2ba995e171ef6319df14a38aef01403a9c96910160405180910390a260cc5460d754604051633fd5c25d60e11b815260048101879052620100009092046001600160a01b03908116602484015216604482015260056064820181905260848201527307e18F15845E919c09Df350dcd8AD4030F58780990637fab84ba9060a40160006040518083038186803b158015610ffb57600080fd5b505af415801561100f573d6000803e3d6000fd5b505060cc54604051634cc8d10160e11b81527307e18F15845E919c09Df350dcd8AD4030F5878099350639991a2029250611082917f000000000000000000000000000000000000000000000000000000000000000091620100009091046001600160a01b03169033908a90600401615344565b60006040518083038186803b15801561109a57600080fd5b505af41580156110ae573d6000803e3d6000fd5b505060018055505050505050565b6065546001600160a01b031633146110e65760405162461bcd60e51b8152600401610dcd90615582565b6001600160a01b0381166111325760405162461bcd60e51b815260206004820152601360248201527210b732bba9ba3934b5b2a9b2b632b1ba34b7b760691b6044820152606401610dcd565b60f780546001600160a01b0319166001600160a01b0392909216919091179055565b600260015414156111775760405162461bcd60e51b8152600401610dcd906155d8565b6002600155806111995760405162461bcd60e51b8152600401610dcd906155b7565b60d754604051630c279a2f60e41b81526001600160a01b0390911660048201526000906112c79083906112c2907307e18F15845E919c09Df350dcd8AD4030F5878099063c279a2f0906024015b60206040518083038186803b1580156111fe57600080fd5b505af4158015611212573d6000803e3d6000fd5b505050506040513d601f19601f820116820180604052508101906112369190615277565b60d760009054906101000a90046001600160a01b03166001600160a01b03166399530b066040518163ffffffff1660e01b815260040160206040518083038186803b15801561128457600080fd5b505afa158015611298573d6000803e3d6000fd5b505050506040513d601f19601f820116820180604052508101906112bc9190615277565b90613146565b613152565b90506112d3813361318c565b60d7546112eb906001600160a01b0316333085613418565b505060018055565b600260015414156113165760405162461bcd60e51b8152600401610dcd906155d8565b6002600155816113385760405162461bcd60e51b8152600401610dcd906155b7565b6001600160a01b03811661137a5760405162461bcd60e51b815260206004820152600960248201526810b1b932b234ba37b960b91b6044820152606401610dcd565b611384828261318c565b60cc546112eb906201000090046001600160a01b0316333085613418565b3360008181526098602090815260408083206001600160a01b03871684529091528120549091610d359185906113d990869061560f565b612e45565b60cc5460009060ff61010090910416816114146113fa60995490565b611402611ff0565b60d0546001600160801b031685613472565b90506114296114228561245a565b82846134b2565b949350505050565b6065546001600160a01b0316331461145b5760405162461bcd60e51b8152600401610dcd90615582565b6001600160a01b0381166114b15760405162461bcd60e51b815260206004820152601860248201527f216e65774f7074696f6e735072656d69756d50726963657200000000000000006044820152606401610dcd565b60f680546001600160a01b0319166001600160a01b0392909216919091179055565b6065546001600160a01b031633146114fd5760405162461bcd60e51b8152600401610dcd90615582565b600081116115375760405162461bcd60e51b81526020600482015260076024820152660216e65774361760cc1b6044820152606401610dcd565b61154081613514565b60ce54604080516001600160681b039092168252602082018390527f5f86edbb9d92228a9edc3f0ebc0f001bda1ea345ac7335e0eeef3504b31d1a1c910160405180910390a160ce80546cffffffffffffffffffffffffff19166001600160681b0392909216919091179055565b6065546001600160a01b031633146115d85760405162461bcd60e51b8152600401610dcd90615582565b600260015414156115fb5760405162461bcd60e51b8152600401610dcd906155d8565b60026001556001600160801b0381166116455760405162461bcd60e51b815260206004820152600c60248201526b21737472696b65507269636560a01b6044820152606401610dcd565b6001600160801b031660fb5560cf5460fa805461ffff191661ffff90921691909117905560018055565b60d4546001600160a01b031633146116995760405162461bcd60e51b8152600401610dcd90615513565b600260015414156116bc5760405162461bcd60e51b8152600401610dcd906155d8565b600260015560d2546040516358ffbb3d60e01b81526001600160a01b037f000000000000000000000000000000000000000000000000000000000000000081166004830152909116602482015260009073e64524Ba73b9E74956f59F137821039254994f36906358ffbb3d9060440160206040518083038186803b15801561174357600080fd5b505af4158015611757573d6000803e3d6000fd5b505050506040513d601f19601f8201168201806040525081019061177b9190615277565b60cf5490915061179a906201000090046001600160681b03168261313a565b60cf805462010000600160781b031916620100006001600160681b0393909316830217905560cc5460d754604051634c03c9a760e01b8152929091046001600160a01b0390811660048401521660248201527307e18F15845E919c09Df350dcd8AD4030F58780990634c03c9a79060440160006040518083038186803b15801561182357600080fd5b505af4158015611837573d6000803e3d6000fd5b505060018055505050565b60d4546001600160a01b0316331461186c5760405162461bcd60e51b8152600401610dcd90615513565b6002600154141561188f5760405162461bcd60e51b8152600401610dcd906155d8565b600260015561189c61355e565b60018055565b600260015414156118c55760405162461bcd60e51b8152600401610dcd906155d8565b600260018190555061189c600060016136f9565b6065546001600160a01b031633146119035760405162461bcd60e51b8152600401610dcd90615582565b611911620f42406064615732565b811061195f5760405162461bcd60e51b815260206004820152601760248201527f496e76616c696420706572666f726d616e6365206665650000000000000000006044820152606401610dcd565b60d55460408051918252602082018390527f24867dfb6fcb9970a07be21024956524abe7a1837faa903ff0e99aaa40cf893e910160405180910390a160d555565b6065546001600160a01b031633146119ca5760405162461bcd60e51b8152600401610dcd90615582565b6119d460006138a8565b565b600260015414156119f95760405162461bcd60e51b8152600401610dcd906155d8565b600260015580611a385760405162461bcd60e51b815260206004820152600a602482015269216e756d53686172657360b01b6044820152606401610dcd565b33600090815260c960205260409020546201000090046001600160681b0316151580611a82575033600090815260c96020526040902054600160781b90046001600160801b031615155b15611a9357611a93600060016136f9565b60cf5433600081815260cb60209081526040918290208054835187815261ffff96871693810184905292959194911685149290917f0c53c82ad07e2d592d88ece3b066777dd60f1118e2a081b380efc4358f0d9e2a910160405180910390a281546201000090046001600160801b031660008215611b1c57611b1582876138fa565b9050611b7f565b8115611b5e5760405162461bcd60e51b81526020600482015260116024820152704578697374696e6720776974686472617760781b6044820152606401610dcd565b5033600090815260cb60205260409020805461ffff191661ffff8616179055845b611b8881613906565b33600090815260cb6020526040812080546001600160801b03808516620100000262010000600160901b03199092169190911790915560d054611bd491600160801b90910416886138fa565b9050611bdf81613906565b60d080546001600160801b03808416600160801b029116179055611c04333089612f6a565b5050600180555050505050565b6060609b8054610ca590615794565b6000611c55611c2e60995490565b611c36611ff0565b60d05460cc546001600160801b0390911690610100900460ff16613472565b905090565b60026001541415611c7d5760405162461bcd60e51b8152600401610dcd906155d8565b600260015580611cbc5760405162461bcd60e51b815260206004820152600a602482015269216e756d526f756e647360b01b6044820152606401610dcd565b60cf5461ffff1660005b82811015611d4b576000611cda828461560f565b600081815260ca602052604090205490915015611d275760405162461bcd60e51b815260206004820152600b60248201526a125b9a5d1a585b1a5e995960aa1b6044820152606401610dcd565b600090815260ca602052604090206001905580611d43816157c9565b915050611cc6565b50506001805550565b3360009081526098602090815260408083206001600160a01b038616845290915281205482811015611dd65760405162461bcd60e51b815260206004820152602560248201527f45524332303a2064656372656173656420616c6c6f77616e63652062656c6f77604482015264207a65726f60d81b6064820152608401610dcd565b611de33385858403612e45565b5060019392505050565b6065546001600160a01b03163314611e175760405162461bcd60e51b8152600401610dcd90615582565b61012c811015611e695760405162461bcd60e51b815260206004820152601860248201527f496e76616c69642061756374696f6e206475726174696f6e00000000000000006044820152606401610dcd565b60fc5460408051918252602082018390527f5acd982e2240ed224a69aa03dab039d3797c108e4b5f288cd7dd6ca181b275f3910160405180910390a160fc55565b6065546001600160a01b03163314611ed45760405162461bcd60e51b8152600401610dcd90615582565b60d7546040516370a0823160e01b81523060048201526001600160a01b0390911690819063e63697c89082906370a082319060240160206040518083038186803b158015611f2157600080fd5b505afa158015611f35573d6000803e3d6000fd5b505050506040513d601f19601f82011682018060405250810190611f599190615277565b6040516001600160e01b031960e084901b168152600481019190915230602482015260056044820152606401602060405180830381600087803b158015611f9f57600080fd5b505af1158015611fb3573d6000803e3d6000fd5b505050506040513d601f19601f82011682018060405250810190611fd79190615277565b50611fe0613950565b50565b6000610d35338484612f6a565b60d7546040516370a0823160e01b8152306004820152600091611c55916120bc916001600160a01b0316906370a082319060240160206040518083038186803b15801561203c57600080fd5b505afa158015612050573d6000803e3d6000fd5b505050506040513d601f19601f820116820180604052508101906120749190615277565b60d754604051630c279a2f60e41b81526001600160a01b0390911660048201526112c2907307e18F15845E919c09Df350dcd8AD4030F5878099063c279a2f0906024016111e6565b60cc546040516370a0823160e01b8152306004820152612157916201000090046001600160a01b0316906370a082319060240160206040518083038186803b15801561210757600080fd5b505afa15801561211b573d6000803e3d6000fd5b505050506040513d601f19601f8201168201806040525081019061213f9190615277565b60cf546201000090046001600160681b0316906138fa565b906138fa565b600260015414156121805760405162461bcd60e51b8152600401610dcd906155d8565b6002600155806121a25760405162461bcd60e51b8152600401610dcd906155b7565b6121ac813361318c565b60cc546121ca906201000090046001600160a01b0316333084613418565b5060018055565b60d4546001600160a01b031633146121fb5760405162461bcd60e51b8152600401610dcd90615513565b6002600154141561221e5760405162461bcd60e51b8152600401610dcd906155d8565b600260018190555060008061223460fe54613a64565b60fe819055909250905060006123356122b461226761226061271061225a876005613146565b90613f04565b85906138fa565b60d754604051630c279a2f60e41b81526001600160a01b0390911660048201526122af907307e18F15845E919c09Df350dcd8AD4030F5878099063c279a2f0906024016111e6565b613f10565b60d7546040516370a0823160e01b81523060048201526001600160a01b03909116906370a082319060240160206040518083038186803b1580156122f757600080fd5b505afa15801561230b573d6000803e3d6000fd5b505050506040513d601f19601f8201168201806040525081019061232f9190615277565b9061313a565b9050336001600160a01b0316836001600160a01b03167f045c558fdce4714c5816d53820d27420f4cd860892df203fe636384d8d19aa018360405161237c91815260200190565b60405180910390a3604051632904c23960e01b815273e64524Ba73b9E74956f59F137821039254994f3690632904c23990612401907f0000000000000000000000000000000000000000000000000000000000000000907f00000000000000000000000000000000000000000000000000000000000000009088908790600401615344565b60206040518083038186803b15801561241957600080fd5b505af415801561242d573d6000803e3d6000fd5b505050506040513d601f19601f820116820180604052508101906124519190615277565b50611d4b61355e565b600080600061246884612c32565b909250905061142982826138fa565b6065546001600160a01b031633146124a15760405162461bcd60e51b8152600401610dcd90615582565b6000811180156124bb57506124b8600a6064615732565b81105b6124fa5760405162461bcd60e51b815260206004820152601060248201526f125b9d985b1a5908191a5cd8dbdd5b9d60821b6044820152606401610dcd565b60f85460408051918252602082018390527f4cd657fde404967d63a338fb06c5c98751a9df57dfae6dc333a432faf8a5f656910160405180910390a160f855565b6065546001600160a01b031633146125655760405162461bcd60e51b8152600401610dcd90615582565b6001600160a01b0381166125a85760405162461bcd60e51b815260206004820152600a60248201526910b732bba5b2b2b832b960b11b6044820152606401610dcd565b60d480546001600160a01b0319166001600160a01b0392909216919091179055565b600260015414156125ed5760405162461bcd60e51b8152600401610dcd906155d8565b60026001558061262c5760405162461bcd60e51b815260206004820152600a602482015269216e756d53686172657360b01b6044820152606401610dcd565b6121ca8160006136f9565b600054610100900460ff1680612650575060005460ff16155b61266c5760405162461bcd60e51b8152600401610dcd90615534565b600054610100900460ff1615801561268e576000805461ffff19166101011790555b61269e8d8d8d8d8d8d8d89613f33565b6001600160a01b0386166126ed5760405162461bcd60e51b815260206004820152601660248201527510afb7b83a34b7b739a83932b6b4bab6a83934b1b2b960511b6044820152606401610dcd565b6001600160a01b0385166127375760405162461bcd60e51b815260206004820152601160248201527010afb9ba3934b5b2a9b2b632b1ba34b7b760791b6044820152606401610dcd565b60008463ffffffff1611801561275d5750612754600a6064615732565b8463ffffffff16105b61279d5760405162461bcd60e51b81526020600482015260116024820152700857dc1c995b5a5d5b511a5cd8dbdd5b9d607a1b6044820152606401610dcd565b61012c8310156127e35760405162461bcd60e51b815260206004820152601160248201527010afb0bab1ba34b7b7223ab930ba34b7b760791b6044820152606401610dcd565b60f680546001600160a01b038089166001600160a01b03199283161790925560f780549288169290911691909117905563ffffffff841660f85560fc8390558015612834576000805461ff00191690555b50505050505050505050505050565b6065546001600160a01b0316331461286d5760405162461bcd60e51b8152600401610dcd90615582565b6001600160a01b0381166128b65760405162461bcd60e51b815260206004820152601060248201526f085b995dd19959549958da5c1a595b9d60821b6044820152606401610dcd565b60d3546001600160a01b03828116911614156129145760405162461bcd60e51b815260206004820152601860248201527f4d757374206265206e657720666565526563697069656e7400000000000000006044820152606401610dcd565b60d380546001600160a01b0319166001600160a01b0392909216919091179055565b600260015414156129595760405162461bcd60e51b8152600401610dcd906155d8565b600260015560d2546040805160c0810182526001600160a01b037f0000000000000000000000000000000000000000000000000000000000000000811682527f00000000000000000000000000000000000000000000000000000000000000008116602083015292831681830181905260006060830181905260fa5461ffff16608084015260fb5460a084015260f75460f65460f85460d75496516303a20e3d60e01b81529497959693958695869586957307e18F15845E919c09Df350dcd8AD4030F587809956303a20e3d95612a4695928316949183169390928d9260cc9260cf921690600401615468565b60806040518083038186803b158015612a5e57600080fd5b505af4158015612a72573d6000803e3d6000fd5b505050506040513d601f19601f82011682018060405250810190612a9691906151de565b93509350935093507fa217999b1c125c2a996f712c5f26a28addad7167bd8a67d5bd5b2a751148abb08282604051612ad8929190918252602082015260400190565b60405180910390a1612ae983613514565b6001600160681b03831660f95560d180546001600160a01b0319166001600160a01b0386161790556000612b1d42826138fa565b905063ffffffff811115612b735760405162461bcd60e51b815260206004820152601860248201527f4f766572666c6f77206e6578744f7074696f6e526561647900000000000000006044820152606401610dcd565b60d2805463ffffffff60a01b1916600160a01b63ffffffff841602179055611c0487614103565b6065546001600160a01b03163314612bc45760405162461bcd60e51b8152600401610dcd90615582565b6001600160a01b038116612c295760405162461bcd60e51b815260206004820152602660248201527f4f776e61626c653a206e6577206f776e657220697320746865207a65726f206160448201526564647265737360d01b6064820152608401610dcd565b611fe0816138a8565b6001600160a01b038116600090815260c9602090815260408083208151606081018352905461ffff81168083526201000082046001600160681b031694830194909452600160781b90046001600160801b031691810191909152829160011115612cb4575050506001600160a01b031660009081526097602052604081205491565b60cf54815161ffff908116600090815260ca602052604081205460cc549193612cea93869391169190610100900460ff16614279565b9050612d0b856001600160a01b031660009081526097602052604090205490565b9590945092505050565b60026001541415612d385760405162461bcd60e51b8152600401610dcd906155d8565b60026001556000612d476142ea565b60fe54909150612d57908261313a565b6001600160801b031660fe555060018055565b6065546001600160a01b03163314612d945760405162461bcd60e51b8152600401610dcd90615582565b612da2620f42406064615732565b8110612de95760405162461bcd60e51b8152602060048201526016602482015275496e76616c6964206d616e6167656d656e742066656560501b6044820152606401610dcd565b6000612e0063031ba30961225a84620f4240613146565b60d65460408051918252602082018590529192507f4e874b007ab14f7e263baefd44951834c8266f4f224d1092e49e9c254354cc54910160405180910390a160d65550565b6001600160a01b038316612ea75760405162461bcd60e51b8152602060048201526024808201527f45524332303a20617070726f76652066726f6d20746865207a65726f206164646044820152637265737360e01b6064820152608401610dcd565b6001600160a01b038216612f085760405162461bcd60e51b815260206004820152602260248201527f45524332303a20617070726f766520746f20746865207a65726f206164647265604482015261737360f01b6064820152608401610dcd565b6001600160a01b0383811660008181526098602090815260408083209487168084529482529182902085905590518481527f8c5be1e5ebec7d5bd14f71427d1e84f3dd0314c0f7b2291e5b200ac8c7c3b92591015b60405180910390a3505050565b6001600160a01b038316612fce5760405162461bcd60e51b815260206004820152602560248201527f45524332303a207472616e736665722066726f6d20746865207a65726f206164604482015264647265737360d81b6064820152608401610dcd565b6001600160a01b0382166130305760405162461bcd60e51b815260206004820152602360248201527f45524332303a207472616e7366657220746f20746865207a65726f206164647260448201526265737360e81b6064820152608401610dcd565b6001600160a01b038316600090815260976020526040902054818110156130a85760405162461bcd60e51b815260206004820152602660248201527f45524332303a207472616e7366657220616d6f756e7420657863656564732062604482015265616c616e636560d01b6064820152608401610dcd565b6001600160a01b038085166000908152609760205260408082208585039055918516815290812080548492906130df90849061560f565b92505081905550826001600160a01b0316846001600160a01b03167fddf252ad1be2c89b69c2b068fc378daa952ba7f163c4a11628f55a4df523b3ef8460405161312b91815260200190565b60405180910390a35b50505050565b6000610de98284615751565b6000610de98284615732565b6000670de0b6b3a764000061318261316a85856145de565b61317d6002670de0b6b3a7640000615627565b614645565b610de99190615627565b60cf5461ffff1660006131a184612157611ff0565b60ce549091506001600160681b03168111156131ec5760405162461bcd60e51b815260206004820152600a6024820152690457863656564206361760b41b6044820152606401610dcd565b60cd54600160a01b900466ffffffffffffff168110156132455760405162461bcd60e51b8152602060048201526014602482015273496e73756666696369656e742062616c616e636560601b6044820152606401610dcd565b60408051858152602081018490526001600160a01b038516917f90890809c654f11d6e72a28fa60149770a0d11ec6c92319d6ceb2bb0a4ea1a15910160405180910390a26001600160a01b038316600090815260c9602090815260408083208151606081018352905461ffff81168083526201000082046001600160681b031683860152600160781b9091046001600160801b031682840152845260ca90925282205460cc54919291613304918491879190610100900460ff16614279565b8251909150869061ffff16851415613335576020830151600090613331906001600160681b0316896138fa565b9150505b61333e81613514565b6040805160608101825261ffff80881682526001600160681b0380851660208085019182526001600160801b038089168688019081526001600160a01b038e16600090815260c990935296822095518654935197518216600160781b02600160781b600160f81b03199890951662010000026effffffffffffffffffffffffffffff1990941695169490941791909117949094161790915560d0546133e49116896138fa565b90506133ef81613906565b60d080546001600160801b0319166001600160801b039290921691909117905550505050505050565b604080516001600160a01b0385811660248301528416604482015260648082018490528251808303909101815260849091019091526020810180516001600160e01b03166323b872dd60e01b17905261313490859061469a565b60008061348083600a61568a565b90506000861161349057806134a8565b6134a88661225a6134a1888861313a565b8490613146565b9695505050505050565b6000600183116134fc5760405162461bcd60e51b8152602060048201526015602482015274496e76616c6964206173736574506572536861726560581b6044820152606401610dcd565b61142961350a83600a61568a565b61225a8686613146565b6001600160681b03811115611fe05760405162461bcd60e51b815260206004820152601060248201526f13dd995c999b1bddc81d5a5b9d0c4c0d60821b6044820152606401610dcd565b6040805160c081018252600080825260208201819052918101829052606081018290526080810182905260a081019190915260f954806135d85760405162461bcd60e51b81526020600482015260156024820152742163757272656e744f746f6b656e5072656d69756d60581b6044820152606401610dcd565b60d2546001600160a01b0390811683527f000000000000000000000000000000000000000000000000000000000000000081166020840190815260cc546201000081048316604080870191825261010090920460ff16606087019081526080870186815260fc5460a089019081529351633baf17fd60e21b8152885187166004820152945186166024860152915190941660448401529251606483015291516084820152905160a482015273e64524Ba73b9E74956f59F137821039254994f369063eebc5ff49060c40160206040518083038186803b1580156136ba57600080fd5b505af41580156136ce573d6000803e3d6000fd5b505050506040513d601f19601f820116820180604052508101906136f29190615277565b60fd555050565b33600090815260c9602090815260408083208151606081018352905461ffff8082168084526201000083046001600160681b031684870152600160781b9092046001600160801b03168385015260cf5491865260ca9094529184205460cc54919492909316926137749185918591610100900460ff16614279565b9050836137815784613783565b805b945084613791575050505050565b808511156137d55760405162461bcd60e51b81526020600482015260116024820152704578636565647320617661696c61626c6560781b6044820152606401610dcd565b825161ffff168211156138025733600090815260c960205260409020805462010000600160781b03191690555b61380b85613906565b613815818661313a565b33600081815260c960205260409081902080546001600160801b0394909416600160781b02600160781b600160f81b0319909416939093179092558451915190917fe5b754fb1abb7f01b499791d0b820ae3b6af3424ac1c59768edb53f4ec31a9299161388e9189825261ffff16602082015260400190565b60405180910390a26138a1303387612f6a565b5050505050565b606580546001600160a01b038381166001600160a01b0319831681179093556040519116919082907f8be0079c531659141344cd1fd0a4f28419497f9722a3daafe3b4186f6b6457e090600090a35050565b6000610de9828461560f565b6001600160801b03811115611fe05760405162461bcd60e51b815260206004820152601060248201526f09eeccae4ccd8deee40ead2dce86264760831b6044820152606401610dcd565b60cc54604051630e177dc760e41b81526001600160a01b0362010000909204821660048201526000917f0000000000000000000000000000000000000000000000000000000000000000169063e177dc7090602401602060405180830381600087803b1580156139bf57600080fd5b505af11580156139d3573d6000803e3d6000fd5b505050506040513d601f19601f820116820180604052508101906139f79190615020565b90506001600160a01b038116613a425760405162461bcd60e51b815260206004820152601060248201526f10b1b7b63630ba32b930b62a37b5b2b760811b6044820152606401610dcd565b60d780546001600160a01b0319166001600160a01b0392909216919091179055565b60d2546000908190600160a01b900463ffffffff16421015613ab15760405162461bcd60e51b815260206004820152600660248201526521726561647960d01b6044820152606401610dcd565b60d1546001600160a01b031680613af85760405162461bcd60e51b815260206004820152600b60248201526a10b732bc3a27b83a34b7b760a91b6044820152606401610dcd565b60008060008060008073e64524Ba73b9E74956f59F137821039254994f3663633c142660cf6040518060c0016040528060cc60000160019054906101000a900460ff1660ff168152602001613b4b611ff0565b8152602001613b5960995490565b81526020018e815260200160d554815260200160d6548152506040518363ffffffff1660e01b8152600401613bd5929190600060e08201905083825282516020830152602083015160408301526040830151606083015260608301516080830152608083015160a083015260a083015160c08301529392505050565b60c06040518083038186803b158015613bed57600080fd5b505af4158015613c01573d6000803e3d6000fd5b505050506040513d601f19601f82011682018060405250810190613c2591906152b3565b9550955095509550955095508660d160010160006101000a8154816001600160a01b0302191690836001600160a01b03160217905550600060d160000160006101000a8154816001600160a01b0302191690836001600160a01b03160217905550600060cf60000160009054906101000a900461ffff1661ffff1690508460ca600083815260200190815260200160002081905550600060d360009054906101000a90046001600160a01b03169050806001600160a01b03167f0a242f7ecaf711036ca770774ceffae28e60ef042ac113ddd187f2631db0c006858585604051613d22939291909283526020830191909152604082015260600190565b60405180910390a260d080546001600160801b0319169055613d4582600161560f565b60cf805461ffff191661ffff92909216919091179055613d6488613514565b60cf805462010000600160781b031916620100006001600160681b038b1602179055613d90308661476c565b60d75460cc54604051634c03c9a760e01b81526001600160a01b036201000090920482166004820152911660248201819052907307e18F15845E919c09Df350dcd8AD4030F58780990634c03c9a79060440160006040518083038186803b158015613dfa57600080fd5b505af4158015613e0e573d6000803e3d6000fd5b505050506000841115613ef15760cc54604051631474764f60e11b81526001600160a01b037f000000000000000000000000000000000000000000000000000000000000000081166004830152620100009092048216602482015282821660448201529083166064820152608481018590527307e18F15845E919c09Df350dcd8AD4030F587809906328e8ec9e9060a40160206040518083038186803b158015613eb757600080fd5b505af4158015613ecb573d6000803e3d6000fd5b505050506040513d601f19601f82011682018060405250810190613eef9190615277565b505b50979b959a509498505050505050505050565b6000610de98284615627565b600081613182613f2885670de0b6b3a76400006145de565b61317d600286615627565b600054610100900460ff1680613f4c575060005460ff16155b613f685760405162461bcd60e51b8152600401610dcd90615534565b600054610100900460ff16158015613f8a576000805461ffff19166101011790555b60405163c72733f760e01b815273e64524Ba73b9E74956f59F137821039254994f369063c72733f790613fcf908c908c908c908b908d908c908c908c9060040161536e565b60006040518083038186803b158015613fe757600080fd5b505af4158015613ffb573d6000803e3d6000fd5b5050505061400761484b565b61401184846148be565b61401961493d565b61402289612b9a565b60d480546001600160a01b03808b166001600160a01b03199283161790925560d38054928a169290911691909117905560d585905561406c63031ba30961225a88620f4240613146565b60d6558160cc61407c8282615837565b905050614087613950565b6000614091611ff0565b905061409c81613514565b60cf805461ffff196001600160681b03909316600160781b02929092167fffffffff00000000000000000000000000ffffffffffffffffffffffffff000090921691909117600117905580156140f8576000805461ff00191690555b505050505050505050565b60cf546201000090046001600160681b03166001600160a01b0382161561414f5760cf80546cffffffffffffffffffffffffff60781b1916600160781b6001600160681b038416021790555b60cf805462010000600160781b031916905560d280546001600160a01b03191690556001600160a01b0382161561427557604051636c6fe87f60e11b81526001600160a01b037f000000000000000000000000000000000000000000000000000000000000000016600482015260009073e64524Ba73b9E74956f59F137821039254994f369063d8dfd0fe9060240160206040518083038186803b1580156141f657600080fd5b505af415801561420a573d6000803e3d6000fd5b505050506040513d601f19601f8201168201806040525081019061422e9190615277565b9050336001600160a01b0316836001600160a01b03167f7e830f7c1771deb1bdb35c4a7e6051bbac32b376f7f4e4976b8618b0b11997f783604051612f5d91815260200190565b5050565b835160009061ffff16158015906142945750845161ffff1684115b156142d65760006142b386602001516001600160681b031685856149a4565b60408701519091506142ce906001600160801b0316826138fa565b915050611429565b50505050604001516001600160801b031690565b33600090815260cb6020526040812080546001600160801b03620100008204169061ffff168161434c5760405162461bcd60e51b815260206004820152600d60248201526c139bdd081a5b9a5d1a585d1959609a1b6044820152606401610dcd565b60cf5461ffff1681106143945760405162461bcd60e51b815260206004820152601060248201526f149bdd5b99081b9bdd0818db1bdcd95960821b6044820152606401610dcd565b33600090815260cb60205260409020805462010000600160901b031916905560d0546143d090600160801b90046001600160801b03168361313a565b60d080546001600160801b03928316600160801b029216919091179055600081815260ca602052604081205460cc5461441391859160ff610100909104166134b2565b604080518281526020810186905291925033917ff279e6a1f5e320cca91135676d9cb6e44ca8a08c0b88342bcdb1144f6511b568910160405180910390a261445b3084614a07565b60cc5460d754604051633fd5c25d60e11b815260048101849052620100009092046001600160a01b03908116602484015216604482015260056064820181905260848201527307e18F15845E919c09Df350dcd8AD4030F58780990637fab84ba9060a40160006040518083038186803b1580156144d757600080fd5b505af41580156144eb573d6000803e3d6000fd5b50505050600081116145315760405162461bcd60e51b815260206004820152600f60248201526e085dda5d1a191c985dd05b5bdd5b9d608a1b6044820152606401610dcd565b60cc54604051634cc8d10160e11b81527307e18F15845E919c09Df350dcd8AD4030F58780991639991a202916145a0917f000000000000000000000000000000000000000000000000000000000000000091620100009091046001600160a01b03169033908790600401615344565b60006040518083038186803b1580156145b857600080fd5b505af41580156145cc573d6000803e3d6000fd5b5092979650505050505050565b505050565b6000811580614602575082826145f48183615732565b92506146009083615627565b145b610d395760405162461bcd60e51b815260206004820152601460248201527364732d6d6174682d6d756c2d6f766572666c6f7760601b6044820152606401610dcd565b600082614652838261560f565b9150811015610d395760405162461bcd60e51b815260206004820152601460248201527364732d6d6174682d6164642d6f766572666c6f7760601b6044820152606401610dcd565b60006146ef826040518060400160405280602081526020017f5361666545524332303a206c6f772d6c6576656c2063616c6c206661696c6564815250856001600160a01b0316614b559092919063ffffffff16565b8051909150156145d9578080602001905181019061470d919061521c565b6145d95760405162461bcd60e51b815260206004820152602a60248201527f5361666545524332303a204552433230206f7065726174696f6e20646964206e6044820152691bdd081cdd58d8d9595960b21b6064820152608401610dcd565b6001600160a01b0382166147c25760405162461bcd60e51b815260206004820152601f60248201527f45524332303a206d696e7420746f20746865207a65726f2061646472657373006044820152606401610dcd565b80609960008282546147d4919061560f565b90915550506001600160a01b0382166000908152609760205260408120805483929061480190849061560f565b90915550506040518181526001600160a01b038316906000907fddf252ad1be2c89b69c2b068fc378daa952ba7f163c4a11628f55a4df523b3ef9060200160405180910390a35050565b600054610100900460ff1680614864575060005460ff16155b6148805760405162461bcd60e51b8152600401610dcd90615534565b600054610100900460ff161580156148a2576000805461ffff19166101011790555b6148aa614b64565b8015611fe0576000805461ff001916905550565b600054610100900460ff16806148d7575060005460ff16155b6148f35760405162461bcd60e51b8152600401610dcd90615534565b600054610100900460ff16158015614915576000805461ffff19166101011790555b61491d614bd3565b6149278383614c3d565b80156145d9576000805461ff0019169055505050565b600054610100900460ff1680614956575060005460ff16155b6149725760405162461bcd60e51b8152600401610dcd90615534565b600054610100900460ff16158015614994576000805461ffff19166101011790555b61499c614bd3565b6148aa614cd2565b6000600183116149ee5760405162461bcd60e51b8152602060048201526015602482015274496e76616c6964206173736574506572536861726560581b6044820152606401610dcd565b6114298361225a614a0085600a61568a565b8790613146565b6001600160a01b038216614a675760405162461bcd60e51b815260206004820152602160248201527f45524332303a206275726e2066726f6d20746865207a65726f206164647265736044820152607360f81b6064820152608401610dcd565b6001600160a01b03821660009081526097602052604090205481811015614adb5760405162461bcd60e51b815260206004820152602260248201527f45524332303a206275726e20616d6f756e7420657863656564732062616c616e604482015261636560f01b6064820152608401610dcd565b6001600160a01b0383166000908152609760205260408120838303905560998054849290614b0a908490615751565b90915550506040518281526000906001600160a01b038516907fddf252ad1be2c89b69c2b068fc378daa952ba7f163c4a11628f55a4df523b3ef9060200160405180910390a3505050565b60606114298484600085614d32565b600054610100900460ff1680614b7d575060005460ff16155b614b995760405162461bcd60e51b8152600401610dcd90615534565b600054610100900460ff16158015614bbb576000805461ffff19166101011790555b600180558015611fe0576000805461ff001916905550565b600054610100900460ff1680614bec575060005460ff16155b614c085760405162461bcd60e51b8152600401610dcd90615534565b600054610100900460ff161580156148aa576000805461ffff19166101011790558015611fe0576000805461ff001916905550565b600054610100900460ff1680614c56575060005460ff16155b614c725760405162461bcd60e51b8152600401610dcd90615534565b600054610100900460ff16158015614c94576000805461ffff19166101011790555b8251614ca790609a906020860190614e93565b508151614cbb90609b906020850190614e93565b5080156145d9576000805461ff0019169055505050565b600054610100900460ff1680614ceb575060005460ff16155b614d075760405162461bcd60e51b8152600401610dcd90615534565b600054610100900460ff16158015614d29576000805461ffff19166101011790555b6148aa336138a8565b606082471015614d935760405162461bcd60e51b815260206004820152602660248201527f416464726573733a20696e73756666696369656e742062616c616e636520666f6044820152651c8818d85b1b60d21b6064820152608401610dcd565b843b614de15760405162461bcd60e51b815260206004820152601d60248201527f416464726573733a2063616c6c20746f206e6f6e2d636f6e74726163740000006044820152606401610dcd565b600080866001600160a01b03168587604051614dfd9190615328565b60006040518083038185875af1925050503d8060008114614e3a576040519150601f19603f3d011682016040523d82523d6000602084013e614e3f565b606091505b5091509150614e4f828286614e5a565b979650505050505050565b60608315614e69575081610de9565b825115614e795782518084602001fd5b8160405162461bcd60e51b8152600401610dcd9190615500565b828054614e9f90615794565b90600052602060002090601f016020900481019282614ec15760008555614f07565b82601f10614eda57805160ff1916838001178555614f07565b82800160010185558215614f07579182015b82811115614f07578251825591602001919060010190614eec565b50614f13929150614f17565b5090565b5b80821115614f135760008155600101614f18565b8035614f3781615948565b919050565b600082601f830112614f4c578081fd5b813567ffffffffffffffff80821115614f6757614f676157fa565b604051601f8301601f19908116603f01168101908282118183101715614f8f57614f8f6157fa565b81604052838152866020858801011115614fa7578485fd5b8360208701602083013792830160200193909352509392505050565b600060c08284031215614fd4578081fd5b50919050565b8035614f378161596b565b803563ffffffff81168114614f3757600080fd5b8035614f3781615980565b600060208284031215615015578081fd5b8135610de981615948565b600060208284031215615031578081fd5b8151610de981615948565b6000806040838503121561504e578081fd5b823561505981615948565b9150602083013561506981615948565b809150509250929050565b6000806000806000806000806000806000806102208d8f031215615096578788fd5b61509f8d614f2c565b9b506150ad60208e01614f2c565b9a506150bb60408e01614f2c565b995060608d0135985060808d0135975067ffffffffffffffff60a08e013511156150e3578687fd5b6150f38e60a08f01358f01614f3c565b965067ffffffffffffffff60c08e0135111561510d578586fd5b61511d8e60c08f01358f01614f3c565b955061512b60e08e01614f2c565b945061513a6101008e01614f2c565b93506151496101208e01614fe5565b92506101408d013591506151618e6101608f01614fc3565b90509295989b509295989b509295989b565b600080600060608486031215615187578283fd5b833561519281615948565b925060208401356151a281615948565b929592945050506040919091013590565b600080604083850312156151c5578182fd5b82356151d081615948565b946020939093013593505050565b600080600080608085870312156151f3578384fd5b84516151fe81615948565b60208601516040870151606090970151919890975090945092505050565b60006020828403121561522d578081fd5b8151610de98161595d565b600060208284031215615249578081fd5b81356001600160801b0381168114610de9578182fd5b600060208284031215615270578081fd5b5035919050565b600060208284031215615288578081fd5b5051919050565b600080604083850312156152a1578182fd5b82359150602083013561506981615948565b60008060008060008060c087890312156152cb578384fd5b865195506020870151945060408701519350606087015192506080870151915060a087015190509295509295509295565b60008151808452615314816020860160208601615768565b601f01601f19169290920160200192915050565b6000825161533a818460208701615768565b9190910192915050565b6001600160a01b039485168152928416602084015292166040820152606081019190915260800190565b60006101a060018060a01b03808c168452808b166020850152808a1660408501528860608501528760808501528160a08501526153ad828501886152fc565b915083820360c08501526153c182876152fc565b9250843591506153d08261595d565b90151560e08401526020840135906153e782615995565b60ff82166101008501526040850135915061540182615948565b1661012083015261541460608401614f2c565b6001600160a01b031661014083015261542f60808401614ff9565b66ffffffffffffff1661016083015261544a60a08401614fda565b6001600160681b038116610180840152509998505050505050505050565b60006101808201905060018060a01b03808a16835280891660208401528760408401528087511660608401528060208801511660808401528060408801511660a084015250606086015160c083015261ffff60808701511660e083015260a086015161010083015284610120830152836101408301526154f46101608301846001600160a01b03169052565b98975050505050505050565b602081526000610de960208301846152fc565b60208082526007908201526610b5b2b2b832b960c91b604082015260600190565b6020808252602e908201527f496e697469616c697a61626c653a20636f6e747261637420697320616c72656160408201526d191e481a5b9a5d1a585b1a5e995960921b606082015260800190565b6020808252818101527f4f776e61626c653a2063616c6c6572206973206e6f7420746865206f776e6572604082015260600190565b60208082526007908201526608585b5bdd5b9d60ca1b604082015260600190565b6020808252601f908201527f5265656e7472616e637947756172643a207265656e7472616e742063616c6c00604082015260600190565b60008219821115615622576156226157e4565b500190565b60008261564257634e487b7160e01b81526012600452602481fd5b500490565b600181815b80851115615682578160001904821115615668576156686157e4565b8085161561567557918102915b93841c939080029061564c565b509250929050565b6000610de983836000826156a057506001610d39565b816156ad57506000610d39565b81600181146156c357600281146156cd576156e9565b6001915050610d39565b60ff8411156156de576156de6157e4565b50506001821b610d39565b5060208310610133831016604e8410600b841016171561570c575081810a610d39565b6157168383615647565b806000190482111561572a5761572a6157e4565b029392505050565b600081600019048311821515161561574c5761574c6157e4565b500290565b600082821015615763576157636157e4565b500390565b60005b8381101561578357818101518382015260200161576b565b838111156131345750506000910152565b600181811c908216806157a857607f821691505b60208210811415614fd457634e487b7160e01b600052602260045260246000fd5b60006000198214156157dd576157dd6157e4565b5060010190565b634e487b7160e01b600052601160045260246000fd5b634e487b7160e01b600052604160045260246000fd5b60008135610d3981615948565b60008135610d398161596b565b60008135610d3981615980565b81356158428161595d565b815460ff19811691151560ff169182178355602084013561586281615995565b61ff008160081b169050808361ffff19841617178455604085013561588681615948565b6001600160b01b0319929092169092179190911760109190911b62010000600160b01b0316178155600181016158de6158c160608501615810565b82546001600160a01b0319166001600160a01b0391909116178255565b6159176158ed6080850161582a565b82805466ffffffffffffff60a01b191660a09290921b66ffffffffffffff60a01b16919091179055565b5061427561592760a0840161581d565b600283016001600160681b0382166001600160681b03198254161781555050565b6001600160a01b0381168114611fe057600080fd5b8015158114611fe057600080fd5b6001600160681b0381168114611fe057600080fd5b66ffffffffffffff81168114611fe057600080fd5b60ff81168114611fe057600080fdfea2646970667358221220ab8818f45bb85e776a5d95e39075222cc5ce5d2a2a7282602b39c62751e9079164736f6c63430008040033",
  "deployedBytecode": "0x608060405234801561001057600080fd5b50600436106104805760003560e01c806389a3027111610257578063b4d1d79511610146578063dd62ed3e116100c3578063f2fde38b11610087578063f2fde38b14610c2d578063f656ba5114610c40578063f756fa2114610c68578063f957a06714610c70578063fe56e23214610c8357600080fd5b8063dd62ed3e14610bbd578063e16fdbd514610bf6578063e73c63d514610c09578063e74b981b14610c12578063ea00b1ca14610c2557600080fd5b8063d13f1b3e1161010a578063d13f1b3e14610b54578063d164cc1514610b67578063d5f2638214610b7a578063db006a7514610b83578063db43e86214610b9657600080fd5b8063b4d1d79514610b1c578063b6b55f2514610b26578063b9f8092b14610b39578063c1c4230d146107f3578063ce7c2ac214610b4157600080fd5b8063a457c2d7116101d4578063aced166111610198578063aced166114610ab4578063ad5c464814610ac7578063ad7a672f14610aee578063afa6626414610af6578063b2016bd414610b0957600080fd5b8063a457c2d714610a6a578063a497e67414610a7d578063a6f7f5d614610a90578063a7a4490114610a99578063a9059cbb14610aa157600080fd5b80639be43daa1161021b5780639be43daa1461093c5780639fcc2d751461094f578063a083ff17146109ee578063a285c9e814610a44578063a2db9d8314610a5957600080fd5b806389a30271146108e35780638b10cc7c1461090a5780638da5cb5b1461091b57806395d89b411461092c57806399530b061461093457600080fd5b806346904840116103735780636f14fba2116102f05780637a9262a2116102b45780637a9262a2146108475780637e108d521461089e57806383536ff3146108b157806387153eb1146108ba57806387788782146108da57600080fd5b80636f14fba2146107f35780636f31ab34146107fb57806370897b231461080357806370a0823114610816578063715018a61461083f57600080fd5b8063650cce8a11610337578063650cce8a1461071e5780636719b2ee1461074557806369b41170146107bc5780636b64c769146107c45780636c10f66c146107cc57600080fd5b806346904840146106d457806347786d37146106e7578063503c70aa146106fa57806355489bb214610703578063600a2cfb1461071657600080fd5b806331807e42116104015780633f23bb73116103c55780633f23bb731461066d5780633f90916a146106805780634215d91514610691578063432833a6146106b85780634603c0aa146106c157600080fd5b806331807e4214610602578063355274ea1461061557806336efd16f1461062657806339509351146106395780633ec143d31461064c57600080fd5b806323b872dd1161044857806323b872dd146105245780632728f333146105375780632775d01c146105bd57806330630da4146105d2578063313ce567146105e557600080fd5b806306fdde0314610485578063095ea7b3146104a35780630cbf54c8146104c657806318160ddd146104dd5780631a92f6c2146104e5575b600080fd5b61048d610c96565b60405161049a9190615500565b60405180910390f35b6104b66104b13660046151b3565b610d28565b604051901515815260200161049a565b6104cf60fc5481565b60405190815260200161049a565b6099546104cf565b61050c7f000000000000000000000000000000000000000000000000000000000000000081565b6040516001600160a01b03909116815260200161049a565b6104b6610532366004615173565b610d3f565b60cf5460d0546105789161ffff8116916001600160681b03620100008304811692600160781b900416906001600160801b0380821691600160801b90041685565b6040805161ffff90961686526001600160681b03948516602087015293909216928401929092526001600160801b03918216606084015216608082015260a00161049a565b6105d06105cb36600461525f565b610df0565b005b6105d06105e0366004615004565b6110bc565b60cc54610100900460ff1660405160ff909116815260200161049a565b6105d061061036600461525f565b611154565b60ce546001600160681b03166104cf565b6105d061063436600461528f565b6112f3565b6104b66106473660046151b3565b6113a2565b60fa5461065a9061ffff1681565b60405161ffff909116815260200161049a565b6104cf61067b366004615004565b6113de565b60d0546001600160801b03166104cf565b61050c7f000000000000000000000000000000000000000000000000000000000000000081565b6104cf60fd5481565b6105d06106cf366004615004565b611431565b60d35461050c906001600160a01b031681565b6105d06106f536600461525f565b6114d3565b6104cf60fe5481565b6105d0610711366004615238565b6115ae565b6105d061166f565b61050c7f000000000000000000000000000000000000000000000000000000000000000081565b61078b610753366004615004565b60c96020526000908152604090205461ffff8116906201000081046001600160681b031690600160781b90046001600160801b031683565b6040805161ffff90941684526001600160681b0390921660208401526001600160801b03169082015260600161049a565b6104cf600081565b6105d0611842565b61050c7f000000000000000000000000000000000000000000000000000000000000000081565b6104cf600581565b6105d06118a2565b6105d061081136600461525f565b6118d9565b6104cf610824366004615004565b6001600160a01b031660009081526097602052604090205490565b6105d06119a0565b61087c610855366004615004565b60cb6020526000908152604090205461ffff8116906201000090046001600160801b031682565b6040805161ffff90931683526001600160801b0390911660208301520161049a565b6105d06108ac36600461525f565b6119d6565b6104cf60f85481565b6104cf6108c836600461525f565b60ca6020526000908152604090205481565b6104cf60d55481565b61050c7f000000000000000000000000000000000000000000000000000000000000000081565b60d2546001600160a01b031661050c565b6065546001600160a01b031661050c565b61048d611c11565b6104cf611c20565b6105d061094a36600461525f565b611c5a565b60cc5460cd5460ce5461099e9260ff808216936101008304909116926001600160a01b036201000090930483169282169166ffffffffffffff600160a01b90910416906001600160681b031686565b60408051961515875260ff90951660208701526001600160a01b03938416948601949094529116606084015266ffffffffffffff1660808301526001600160681b031660a082015260c00161049a565b60d15460d254610a18916001600160a01b039081169190811690600160a01b900463ffffffff1683565b604080516001600160a01b03948516815293909216602084015263ffffffff169082015260600161049a565b60d254600160a01b900463ffffffff166104cf565b60d1546001600160a01b031661050c565b6104b6610a783660046151b3565b611d54565b6105d0610a8b36600461525f565b611ded565b6104cf60d65481565b6105d0611eaa565b6104b6610aaf3660046151b3565b611fe3565b60d45461050c906001600160a01b031681565b61050c7f000000000000000000000000000000000000000000000000000000000000000081565b6104cf611ff0565b60f65461050c906001600160a01b031681565b60d75461050c906001600160a01b031681565b6104cf62093a8081565b6105d0610b3436600461525f565b61215d565b6105d06121d1565b6104cf610b4f366004615004565b61245a565b6105d0610b6236600461525f565b612477565b6105d0610b75366004615004565b61253b565b6104cf60f95481565b6105d0610b9136600461525f565b6125ca565b61050c7f000000000000000000000000000000000000000000000000000000000000000081565b6104cf610bcb36600461503c565b6001600160a01b03918216600090815260986020908152604080832093909416825291909152205490565b6105d0610c04366004615074565b612637565b6104cf60fb5481565b6105d0610c20366004615004565b612843565b6105d0612936565b6105d0610c3b366004615004565b612b9a565b610c53610c4e366004615004565b612c32565b6040805192835260208301919091520161049a565b6105d0612d15565b60f75461050c906001600160a01b031681565b6105d0610c9136600461525f565b612d6a565b6060609a8054610ca590615794565b80601f0160208091040260200160405190810160405280929190818152602001828054610cd190615794565b8015610d1e5780601f10610cf357610100808354040283529160200191610d1e565b820191906000526020600020905b815481529060010190602001808311610d0157829003601f168201915b5050505050905090565b6000610d35338484612e45565b5060015b92915050565b6000610d4c848484612f6a565b6001600160a01b038416600090815260986020908152604080832033845290915290205482811015610dd65760405162461bcd60e51b815260206004820152602860248201527f45524332303a207472616e7366657220616d6f756e74206578636565647320616044820152676c6c6f77616e636560c01b60648201526084015b60405180910390fd5b610de38533858403612e45565b60019150505b9392505050565b60026001541415610e135760405162461bcd60e51b8152600401610dcd906155d8565b600260015533600090815260c96020526040902060cf5461ffff1682610e4b5760405162461bcd60e51b8152600401610dcd906155b7565b815461ffff168114610e8f5760405162461bcd60e51b815260206004820152600d60248201526c125b9d985b1a59081c9bdd5b99609a1b6044820152606401610dcd565b81546201000090046001600160681b031683811015610ee05760405162461bcd60e51b815260206004820152600d60248201526c115e18d9595908185b5bdd5b9d609a1b6044820152606401610dcd565b610eea818561313a565b83546001600160681b0391909116620100000262010000600160781b031990911617835560d054610f24906001600160801b03168561313a565b60d080546001600160801b0319166001600160801b0392909216919091179055604080518581526020810184905233917fab2daf3c146ca6416cbccd2a86ed2ba995e171ef6319df14a38aef01403a9c96910160405180910390a260cc5460d754604051633fd5c25d60e11b815260048101879052620100009092046001600160a01b039081166024840152166044820152600560648201819052608482015273__$284794d205a530c1a37f8f90001a836887$__90637fab84ba9060a40160006040518083038186803b158015610ffb57600080fd5b505af415801561100f573d6000803e3d6000fd5b505060cc54604051634cc8d10160e11b815273__$284794d205a530c1a37f8f90001a836887$__9350639991a2029250611082917f000000000000000000000000000000000000000000000000000000000000000091620100009091046001600160a01b03169033908a90600401615344565b60006040518083038186803b15801561109a57600080fd5b505af41580156110ae573d6000803e3d6000fd5b505060018055505050505050565b6065546001600160a01b031633146110e65760405162461bcd60e51b8152600401610dcd90615582565b6001600160a01b0381166111325760405162461bcd60e51b815260206004820152601360248201527210b732bba9ba3934b5b2a9b2b632b1ba34b7b760691b6044820152606401610dcd565b60f780546001600160a01b0319166001600160a01b0392909216919091179055565b600260015414156111775760405162461bcd60e51b8152600401610dcd906155d8565b6002600155806111995760405162461bcd60e51b8152600401610dcd906155b7565b60d754604051630c279a2f60e41b81526001600160a01b0390911660048201526000906112c79083906112c29073__$284794d205a530c1a37f8f90001a836887$__9063c279a2f0906024015b60206040518083038186803b1580156111fe57600080fd5b505af4158015611212573d6000803e3d6000fd5b505050506040513d601f19601f820116820180604052508101906112369190615277565b60d760009054906101000a90046001600160a01b03166001600160a01b03166399530b066040518163ffffffff1660e01b815260040160206040518083038186803b15801561128457600080fd5b505afa158015611298573d6000803e3d6000fd5b505050506040513d601f19601f820116820180604052508101906112bc9190615277565b90613146565b613152565b90506112d3813361318c565b60d7546112eb906001600160a01b0316333085613418565b505060018055565b600260015414156113165760405162461bcd60e51b8152600401610dcd906155d8565b6002600155816113385760405162461bcd60e51b8152600401610dcd906155b7565b6001600160a01b03811661137a5760405162461bcd60e51b815260206004820152600960248201526810b1b932b234ba37b960b91b6044820152606401610dcd565b611384828261318c565b60cc546112eb906201000090046001600160a01b0316333085613418565b3360008181526098602090815260408083206001600160a01b03871684529091528120549091610d359185906113d990869061560f565b612e45565b60cc5460009060ff61010090910416816114146113fa60995490565b611402611ff0565b60d0546001600160801b031685613472565b90506114296114228561245a565b82846134b2565b949350505050565b6065546001600160a01b0316331461145b5760405162461bcd60e51b8152600401610dcd90615582565b6001600160a01b0381166114b15760405162461bcd60e51b815260206004820152601860248201527f216e65774f7074696f6e735072656d69756d50726963657200000000000000006044820152606401610dcd565b60f680546001600160a01b0319166001600160a01b0392909216919091179055565b6065546001600160a01b031633146114fd5760405162461bcd60e51b8152600401610dcd90615582565b600081116115375760405162461bcd60e51b81526020600482015260076024820152660216e65774361760cc1b6044820152606401610dcd565b61154081613514565b60ce54604080516001600160681b039092168252602082018390527f5f86edbb9d92228a9edc3f0ebc0f001bda1ea345ac7335e0eeef3504b31d1a1c910160405180910390a160ce80546cffffffffffffffffffffffffff19166001600160681b0392909216919091179055565b6065546001600160a01b031633146115d85760405162461bcd60e51b8152600401610dcd90615582565b600260015414156115fb5760405162461bcd60e51b8152600401610dcd906155d8565b60026001556001600160801b0381166116455760405162461bcd60e51b815260206004820152600c60248201526b21737472696b65507269636560a01b6044820152606401610dcd565b6001600160801b031660fb5560cf5460fa805461ffff191661ffff90921691909117905560018055565b60d4546001600160a01b031633146116995760405162461bcd60e51b8152600401610dcd90615513565b600260015414156116bc5760405162461bcd60e51b8152600401610dcd906155d8565b600260015560d2546040516358ffbb3d60e01b81526001600160a01b037f000000000000000000000000000000000000000000000000000000000000000081166004830152909116602482015260009073__$c4f279750f4bbb575ac7775e752dc00849$__906358ffbb3d9060440160206040518083038186803b15801561174357600080fd5b505af4158015611757573d6000803e3d6000fd5b505050506040513d601f19601f8201168201806040525081019061177b9190615277565b60cf5490915061179a906201000090046001600160681b03168261313a565b60cf805462010000600160781b031916620100006001600160681b0393909316830217905560cc5460d754604051634c03c9a760e01b8152929091046001600160a01b03908116600484015216602482015273__$284794d205a530c1a37f8f90001a836887$__90634c03c9a79060440160006040518083038186803b15801561182357600080fd5b505af4158015611837573d6000803e3d6000fd5b505060018055505050565b60d4546001600160a01b0316331461186c5760405162461bcd60e51b8152600401610dcd90615513565b6002600154141561188f5760405162461bcd60e51b8152600401610dcd906155d8565b600260015561189c61355e565b60018055565b600260015414156118c55760405162461bcd60e51b8152600401610dcd906155d8565b600260018190555061189c600060016136f9565b6065546001600160a01b031633146119035760405162461bcd60e51b8152600401610dcd90615582565b611911620f42406064615732565b811061195f5760405162461bcd60e51b815260206004820152601760248201527f496e76616c696420706572666f726d616e6365206665650000000000000000006044820152606401610dcd565b60d55460408051918252602082018390527f24867dfb6fcb9970a07be21024956524abe7a1837faa903ff0e99aaa40cf893e910160405180910390a160d555565b6065546001600160a01b031633146119ca5760405162461bcd60e51b8152600401610dcd90615582565b6119d460006138a8565b565b600260015414156119f95760405162461bcd60e51b8152600401610dcd906155d8565b600260015580611a385760405162461bcd60e51b815260206004820152600a602482015269216e756d53686172657360b01b6044820152606401610dcd565b33600090815260c960205260409020546201000090046001600160681b0316151580611a82575033600090815260c96020526040902054600160781b90046001600160801b031615155b15611a9357611a93600060016136f9565b60cf5433600081815260cb60209081526040918290208054835187815261ffff96871693810184905292959194911685149290917f0c53c82ad07e2d592d88ece3b066777dd60f1118e2a081b380efc4358f0d9e2a910160405180910390a281546201000090046001600160801b031660008215611b1c57611b1582876138fa565b9050611b7f565b8115611b5e5760405162461bcd60e51b81526020600482015260116024820152704578697374696e6720776974686472617760781b6044820152606401610dcd565b5033600090815260cb60205260409020805461ffff191661ffff8616179055845b611b8881613906565b33600090815260cb6020526040812080546001600160801b03808516620100000262010000600160901b03199092169190911790915560d054611bd491600160801b90910416886138fa565b9050611bdf81613906565b60d080546001600160801b03808416600160801b029116179055611c04333089612f6a565b5050600180555050505050565b6060609b8054610ca590615794565b6000611c55611c2e60995490565b611c36611ff0565b60d05460cc546001600160801b0390911690610100900460ff16613472565b905090565b60026001541415611c7d5760405162461bcd60e51b8152600401610dcd906155d8565b600260015580611cbc5760405162461bcd60e51b815260206004820152600a602482015269216e756d526f756e647360b01b6044820152606401610dcd565b60cf5461ffff1660005b82811015611d4b576000611cda828461560f565b600081815260ca602052604090205490915015611d275760405162461bcd60e51b815260206004820152600b60248201526a125b9a5d1a585b1a5e995960aa1b6044820152606401610dcd565b600090815260ca602052604090206001905580611d43816157c9565b915050611cc6565b50506001805550565b3360009081526098602090815260408083206001600160a01b038616845290915281205482811015611dd65760405162461bcd60e51b815260206004820152602560248201527f45524332303a2064656372656173656420616c6c6f77616e63652062656c6f77604482015264207a65726f60d81b6064820152608401610dcd565b611de33385858403612e45565b5060019392505050565b6065546001600160a01b03163314611e175760405162461bcd60e51b8152600401610dcd90615582565b61012c811015611e695760405162461bcd60e51b815260206004820152601860248201527f496e76616c69642061756374696f6e206475726174696f6e00000000000000006044820152606401610dcd565b60fc5460408051918252602082018390527f5acd982e2240ed224a69aa03dab039d3797c108e4b5f288cd7dd6ca181b275f3910160405180910390a160fc55565b6065546001600160a01b03163314611ed45760405162461bcd60e51b8152600401610dcd90615582565b60d7546040516370a0823160e01b81523060048201526001600160a01b0390911690819063e63697c89082906370a082319060240160206040518083038186803b158015611f2157600080fd5b505afa158015611f35573d6000803e3d6000fd5b505050506040513d601f19601f82011682018060405250810190611f599190615277565b6040516001600160e01b031960e084901b168152600481019190915230602482015260056044820152606401602060405180830381600087803b158015611f9f57600080fd5b505af1158015611fb3573d6000803e3d6000fd5b505050506040513d601f19601f82011682018060405250810190611fd79190615277565b50611fe0613950565b50565b6000610d35338484612f6a565b60d7546040516370a0823160e01b8152306004820152600091611c55916120bc916001600160a01b0316906370a082319060240160206040518083038186803b15801561203c57600080fd5b505afa158015612050573d6000803e3d6000fd5b505050506040513d601f19601f820116820180604052508101906120749190615277565b60d754604051630c279a2f60e41b81526001600160a01b0390911660048201526112c29073__$284794d205a530c1a37f8f90001a836887$__9063c279a2f0906024016111e6565b60cc546040516370a0823160e01b8152306004820152612157916201000090046001600160a01b0316906370a082319060240160206040518083038186803b15801561210757600080fd5b505afa15801561211b573d6000803e3d6000fd5b505050506040513d601f19601f8201168201806040525081019061213f9190615277565b60cf546201000090046001600160681b0316906138fa565b906138fa565b600260015414156121805760405162461bcd60e51b8152600401610dcd906155d8565b6002600155806121a25760405162461bcd60e51b8152600401610dcd906155b7565b6121ac813361318c565b60cc546121ca906201000090046001600160a01b0316333084613418565b5060018055565b60d4546001600160a01b031633146121fb5760405162461bcd60e51b8152600401610dcd90615513565b6002600154141561221e5760405162461bcd60e51b8152600401610dcd906155d8565b600260018190555060008061223460fe54613a64565b60fe819055909250905060006123356122b461226761226061271061225a876005613146565b90613f04565b85906138fa565b60d754604051630c279a2f60e41b81526001600160a01b0390911660048201526122af9073__$284794d205a530c1a37f8f90001a836887$__9063c279a2f0906024016111e6565b613f10565b60d7546040516370a0823160e01b81523060048201526001600160a01b03909116906370a082319060240160206040518083038186803b1580156122f757600080fd5b505afa15801561230b573d6000803e3d6000fd5b505050506040513d601f19601f8201168201806040525081019061232f9190615277565b9061313a565b9050336001600160a01b0316836001600160a01b03167f045c558fdce4714c5816d53820d27420f4cd860892df203fe636384d8d19aa018360405161237c91815260200190565b60405180910390a3604051632904c23960e01b815273__$c4f279750f4bbb575ac7775e752dc00849$__90632904c23990612401907f0000000000000000000000000000000000000000000000000000000000000000907f00000000000000000000000000000000000000000000000000000000000000009088908790600401615344565b60206040518083038186803b15801561241957600080fd5b505af415801561242d573d6000803e3d6000fd5b505050506040513d601f19601f820116820180604052508101906124519190615277565b50611d4b61355e565b600080600061246884612c32565b909250905061142982826138fa565b6065546001600160a01b031633146124a15760405162461bcd60e51b8152600401610dcd90615582565b6000811180156124bb57506124b8600a6064615732565b81105b6124fa5760405162461bcd60e51b815260206004820152601060248201526f125b9d985b1a5908191a5cd8dbdd5b9d60821b6044820152606401610dcd565b60f85460408051918252602082018390527f4cd657fde404967d63a338fb06c5c98751a9df57dfae6dc333a432faf8a5f656910160405180910390a160f855565b6065546001600160a01b031633146125655760405162461bcd60e51b8152600401610dcd90615582565b6001600160a01b0381166125a85760405162461bcd60e51b815260206004820152600a60248201526910b732bba5b2b2b832b960b11b6044820152606401610dcd565b60d480546001600160a01b0319166001600160a01b0392909216919091179055565b600260015414156125ed5760405162461bcd60e51b8152600401610dcd906155d8565b60026001558061262c5760405162461bcd60e51b815260206004820152600a602482015269216e756d53686172657360b01b6044820152606401610dcd565b6121ca8160006136f9565b600054610100900460ff1680612650575060005460ff16155b61266c5760405162461bcd60e51b8152600401610dcd90615534565b600054610100900460ff1615801561268e576000805461ffff19166101011790555b61269e8d8d8d8d8d8d8d89613f33565b6001600160a01b0386166126ed5760405162461bcd60e51b815260206004820152601660248201527510afb7b83a34b7b739a83932b6b4bab6a83934b1b2b960511b6044820152606401610dcd565b6001600160a01b0385166127375760405162461bcd60e51b815260206004820152601160248201527010afb9ba3934b5b2a9b2b632b1ba34b7b760791b6044820152606401610dcd565b60008463ffffffff1611801561275d5750612754600a6064615732565b8463ffffffff16105b61279d5760405162461bcd60e51b81526020600482015260116024820152700857dc1c995b5a5d5b511a5cd8dbdd5b9d607a1b6044820152606401610dcd565b61012c8310156127e35760405162461bcd60e51b815260206004820152601160248201527010afb0bab1ba34b7b7223ab930ba34b7b760791b6044820152606401610dcd565b60f680546001600160a01b038089166001600160a01b03199283161790925560f780549288169290911691909117905563ffffffff841660f85560fc8390558015612834576000805461ff00191690555b50505050505050505050505050565b6065546001600160a01b0316331461286d5760405162461bcd60e51b8152600401610dcd90615582565b6001600160a01b0381166128b65760405162461bcd60e51b815260206004820152601060248201526f085b995dd19959549958da5c1a595b9d60821b6044820152606401610dcd565b60d3546001600160a01b03828116911614156129145760405162461bcd60e51b815260206004820152601860248201527f4d757374206265206e657720666565526563697069656e7400000000000000006044820152606401610dcd565b60d380546001600160a01b0319166001600160a01b0392909216919091179055565b600260015414156129595760405162461bcd60e51b8152600401610dcd906155d8565b600260015560d2546040805160c0810182526001600160a01b037f0000000000000000000000000000000000000000000000000000000000000000811682527f00000000000000000000000000000000000000000000000000000000000000008116602083015292831681830181905260006060830181905260fa5461ffff16608084015260fb5460a084015260f75460f65460f85460d75496516303a20e3d60e01b815294979596939586958695869573__$284794d205a530c1a37f8f90001a836887$__956303a20e3d95612a4695928316949183169390928d9260cc9260cf921690600401615468565b60806040518083038186803b158015612a5e57600080fd5b505af4158015612a72573d6000803e3d6000fd5b505050506040513d601f19601f82011682018060405250810190612a9691906151de565b93509350935093507fa217999b1c125c2a996f712c5f26a28addad7167bd8a67d5bd5b2a751148abb08282604051612ad8929190918252602082015260400190565b60405180910390a1612ae983613514565b6001600160681b03831660f95560d180546001600160a01b0319166001600160a01b0386161790556000612b1d42826138fa565b905063ffffffff811115612b735760405162461bcd60e51b815260206004820152601860248201527f4f766572666c6f77206e6578744f7074696f6e526561647900000000000000006044820152606401610dcd565b60d2805463ffffffff60a01b1916600160a01b63ffffffff841602179055611c0487614103565b6065546001600160a01b03163314612bc45760405162461bcd60e51b8152600401610dcd90615582565b6001600160a01b038116612c295760405162461bcd60e51b815260206004820152602660248201527f4f776e61626c653a206e6577206f776e657220697320746865207a65726f206160448201526564647265737360d01b6064820152608401610dcd565b611fe0816138a8565b6001600160a01b038116600090815260c9602090815260408083208151606081018352905461ffff81168083526201000082046001600160681b031694830194909452600160781b90046001600160801b031691810191909152829160011115612cb4575050506001600160a01b031660009081526097602052604081205491565b60cf54815161ffff908116600090815260ca602052604081205460cc549193612cea93869391169190610100900460ff16614279565b9050612d0b856001600160a01b031660009081526097602052604090205490565b9590945092505050565b60026001541415612d385760405162461bcd60e51b8152600401610dcd906155d8565b60026001556000612d476142ea565b60fe54909150612d57908261313a565b6001600160801b031660fe555060018055565b6065546001600160a01b03163314612d945760405162461bcd60e51b8152600401610dcd90615582565b612da2620f42406064615732565b8110612de95760405162461bcd60e51b8152602060048201526016602482015275496e76616c6964206d616e6167656d656e742066656560501b6044820152606401610dcd565b6000612e0063031ba30961225a84620f4240613146565b60d65460408051918252602082018590529192507f4e874b007ab14f7e263baefd44951834c8266f4f224d1092e49e9c254354cc54910160405180910390a160d65550565b6001600160a01b038316612ea75760405162461bcd60e51b8152602060048201526024808201527f45524332303a20617070726f76652066726f6d20746865207a65726f206164646044820152637265737360e01b6064820152608401610dcd565b6001600160a01b038216612f085760405162461bcd60e51b815260206004820152602260248201527f45524332303a20617070726f766520746f20746865207a65726f206164647265604482015261737360f01b6064820152608401610dcd565b6001600160a01b0383811660008181526098602090815260408083209487168084529482529182902085905590518481527f8c5be1e5ebec7d5bd14f71427d1e84f3dd0314c0f7b2291e5b200ac8c7c3b92591015b60405180910390a3505050565b6001600160a01b038316612fce5760405162461bcd60e51b815260206004820152602560248201527f45524332303a207472616e736665722066726f6d20746865207a65726f206164604482015264647265737360d81b6064820152608401610dcd565b6001600160a01b0382166130305760405162461bcd60e51b815260206004820152602360248201527f45524332303a207472616e7366657220746f20746865207a65726f206164647260448201526265737360e81b6064820152608401610dcd565b6001600160a01b038316600090815260976020526040902054818110156130a85760405162461bcd60e51b815260206004820152602660248201527f45524332303a207472616e7366657220616d6f756e7420657863656564732062604482015265616c616e636560d01b6064820152608401610dcd565b6001600160a01b038085166000908152609760205260408082208585039055918516815290812080548492906130df90849061560f565b92505081905550826001600160a01b0316846001600160a01b03167fddf252ad1be2c89b69c2b068fc378daa952ba7f163c4a11628f55a4df523b3ef8460405161312b91815260200190565b60405180910390a35b50505050565b6000610de98284615751565b6000610de98284615732565b6000670de0b6b3a764000061318261316a85856145de565b61317d6002670de0b6b3a7640000615627565b614645565b610de99190615627565b60cf5461ffff1660006131a184612157611ff0565b60ce549091506001600160681b03168111156131ec5760405162461bcd60e51b815260206004820152600a6024820152690457863656564206361760b41b6044820152606401610dcd565b60cd54600160a01b900466ffffffffffffff168110156132455760405162461bcd60e51b8152602060048201526014602482015273496e73756666696369656e742062616c616e636560601b6044820152606401610dcd565b60408051858152602081018490526001600160a01b038516917f90890809c654f11d6e72a28fa60149770a0d11ec6c92319d6ceb2bb0a4ea1a15910160405180910390a26001600160a01b038316600090815260c9602090815260408083208151606081018352905461ffff81168083526201000082046001600160681b031683860152600160781b9091046001600160801b031682840152845260ca90925282205460cc54919291613304918491879190610100900460ff16614279565b8251909150869061ffff16851415613335576020830151600090613331906001600160681b0316896138fa565b9150505b61333e81613514565b6040805160608101825261ffff80881682526001600160681b0380851660208085019182526001600160801b038089168688019081526001600160a01b038e16600090815260c990935296822095518654935197518216600160781b02600160781b600160f81b03199890951662010000026effffffffffffffffffffffffffffff1990941695169490941791909117949094161790915560d0546133e49116896138fa565b90506133ef81613906565b60d080546001600160801b0319166001600160801b039290921691909117905550505050505050565b604080516001600160a01b0385811660248301528416604482015260648082018490528251808303909101815260849091019091526020810180516001600160e01b03166323b872dd60e01b17905261313490859061469a565b60008061348083600a61568a565b90506000861161349057806134a8565b6134a88661225a6134a1888861313a565b8490613146565b9695505050505050565b6000600183116134fc5760405162461bcd60e51b8152602060048201526015602482015274496e76616c6964206173736574506572536861726560581b6044820152606401610dcd565b61142961350a83600a61568a565b61225a8686613146565b6001600160681b03811115611fe05760405162461bcd60e51b815260206004820152601060248201526f13dd995c999b1bddc81d5a5b9d0c4c0d60821b6044820152606401610dcd565b6040805160c081018252600080825260208201819052918101829052606081018290526080810182905260a081019190915260f954806135d85760405162461bcd60e51b81526020600482015260156024820152742163757272656e744f746f6b656e5072656d69756d60581b6044820152606401610dcd565b60d2546001600160a01b0390811683527f000000000000000000000000000000000000000000000000000000000000000081166020840190815260cc546201000081048316604080870191825261010090920460ff16606087019081526080870186815260fc5460a089019081529351633baf17fd60e21b8152885187166004820152945186166024860152915190941660448401529251606483015291516084820152905160a482015273__$c4f279750f4bbb575ac7775e752dc00849$__9063eebc5ff49060c40160206040518083038186803b1580156136ba57600080fd5b505af41580156136ce573d6000803e3d6000fd5b505050506040513d601f19601f820116820180604052508101906136f29190615277565b60fd555050565b33600090815260c9602090815260408083208151606081018352905461ffff8082168084526201000083046001600160681b031684870152600160781b9092046001600160801b03168385015260cf5491865260ca9094529184205460cc54919492909316926137749185918591610100900460ff16614279565b9050836137815784613783565b805b945084613791575050505050565b808511156137d55760405162461bcd60e51b81526020600482015260116024820152704578636565647320617661696c61626c6560781b6044820152606401610dcd565b825161ffff168211156138025733600090815260c960205260409020805462010000600160781b03191690555b61380b85613906565b613815818661313a565b33600081815260c960205260409081902080546001600160801b0394909416600160781b02600160781b600160f81b0319909416939093179092558451915190917fe5b754fb1abb7f01b499791d0b820ae3b6af3424ac1c59768edb53f4ec31a9299161388e9189825261ffff16602082015260400190565b60405180910390a26138a1303387612f6a565b5050505050565b606580546001600160a01b038381166001600160a01b0319831681179093556040519116919082907f8be0079c531659141344cd1fd0a4f28419497f9722a3daafe3b4186f6b6457e090600090a35050565b6000610de9828461560f565b6001600160801b03811115611fe05760405162461bcd60e51b815260206004820152601060248201526f09eeccae4ccd8deee40ead2dce86264760831b6044820152606401610dcd565b60cc54604051630e177dc760e41b81526001600160a01b0362010000909204821660048201526000917f0000000000000000000000000000000000000000000000000000000000000000169063e177dc7090602401602060405180830381600087803b1580156139bf57600080fd5b505af11580156139d3573d6000803e3d6000fd5b505050506040513d601f19601f820116820180604052508101906139f79190615020565b90506001600160a01b038116613a425760405162461bcd60e51b815260206004820152601060248201526f10b1b7b63630ba32b930b62a37b5b2b760811b6044820152606401610dcd565b60d780546001600160a01b0319166001600160a01b0392909216919091179055565b60d2546000908190600160a01b900463ffffffff16421015613ab15760405162461bcd60e51b815260206004820152600660248201526521726561647960d01b6044820152606401610dcd565b60d1546001600160a01b031680613af85760405162461bcd60e51b815260206004820152600b60248201526a10b732bc3a27b83a34b7b760a91b6044820152606401610dcd565b60008060008060008073__$c4f279750f4bbb575ac7775e752dc00849$__63633c142660cf6040518060c0016040528060cc60000160019054906101000a900460ff1660ff168152602001613b4b611ff0565b8152602001613b5960995490565b81526020018e815260200160d554815260200160d6548152506040518363ffffffff1660e01b8152600401613bd5929190600060e08201905083825282516020830152602083015160408301526040830151606083015260608301516080830152608083015160a083015260a083015160c08301529392505050565b60c06040518083038186803b158015613bed57600080fd5b505af4158015613c01573d6000803e3d6000fd5b505050506040513d601f19601f82011682018060405250810190613c2591906152b3565b9550955095509550955095508660d160010160006101000a8154816001600160a01b0302191690836001600160a01b03160217905550600060d160000160006101000a8154816001600160a01b0302191690836001600160a01b03160217905550600060cf60000160009054906101000a900461ffff1661ffff1690508460ca600083815260200190815260200160002081905550600060d360009054906101000a90046001600160a01b03169050806001600160a01b03167f0a242f7ecaf711036ca770774ceffae28e60ef042ac113ddd187f2631db0c006858585604051613d22939291909283526020830191909152604082015260600190565b60405180910390a260d080546001600160801b0319169055613d4582600161560f565b60cf805461ffff191661ffff92909216919091179055613d6488613514565b60cf805462010000600160781b031916620100006001600160681b038b1602179055613d90308661476c565b60d75460cc54604051634c03c9a760e01b81526001600160a01b0362010000909204821660048201529116602482018190529073__$284794d205a530c1a37f8f90001a836887$__90634c03c9a79060440160006040518083038186803b158015613dfa57600080fd5b505af4158015613e0e573d6000803e3d6000fd5b505050506000841115613ef15760cc54604051631474764f60e11b81526001600160a01b037f0000000000000000000000000000000000000000000000000000000000000000811660048301526201000090920482166024820152828216604482015290831660648201526084810185905273__$284794d205a530c1a37f8f90001a836887$__906328e8ec9e9060a40160206040518083038186803b158015613eb757600080fd5b505af4158015613ecb573d6000803e3d6000fd5b505050506040513d601f19601f82011682018060405250810190613eef9190615277565b505b50979b959a509498505050505050505050565b6000610de98284615627565b600081613182613f2885670de0b6b3a76400006145de565b61317d600286615627565b600054610100900460ff1680613f4c575060005460ff16155b613f685760405162461bcd60e51b8152600401610dcd90615534565b600054610100900460ff16158015613f8a576000805461ffff19166101011790555b60405163c72733f760e01b815273__$c4f279750f4bbb575ac7775e752dc00849$__9063c72733f790613fcf908c908c908c908b908d908c908c908c9060040161536e565b60006040518083038186803b158015613fe757600080fd5b505af4158015613ffb573d6000803e3d6000fd5b5050505061400761484b565b61401184846148be565b61401961493d565b61402289612b9a565b60d480546001600160a01b03808b166001600160a01b03199283161790925560d38054928a169290911691909117905560d585905561406c63031ba30961225a88620f4240613146565b60d6558160cc61407c8282615837565b905050614087613950565b6000614091611ff0565b905061409c81613514565b60cf805461ffff196001600160681b03909316600160781b02929092167fffffffff00000000000000000000000000ffffffffffffffffffffffffff000090921691909117600117905580156140f8576000805461ff00191690555b505050505050505050565b60cf546201000090046001600160681b03166001600160a01b0382161561414f5760cf80546cffffffffffffffffffffffffff60781b1916600160781b6001600160681b038416021790555b60cf805462010000600160781b031916905560d280546001600160a01b03191690556001600160a01b0382161561427557604051636c6fe87f60e11b81526001600160a01b037f000000000000000000000000000000000000000000000000000000000000000016600482015260009073__$c4f279750f4bbb575ac7775e752dc00849$__9063d8dfd0fe9060240160206040518083038186803b1580156141f657600080fd5b505af415801561420a573d6000803e3d6000fd5b505050506040513d601f19601f8201168201806040525081019061422e9190615277565b9050336001600160a01b0316836001600160a01b03167f7e830f7c1771deb1bdb35c4a7e6051bbac32b376f7f4e4976b8618b0b11997f783604051612f5d91815260200190565b5050565b835160009061ffff16158015906142945750845161ffff1684115b156142d65760006142b386602001516001600160681b031685856149a4565b60408701519091506142ce906001600160801b0316826138fa565b915050611429565b50505050604001516001600160801b031690565b33600090815260cb6020526040812080546001600160801b03620100008204169061ffff168161434c5760405162461bcd60e51b815260206004820152600d60248201526c139bdd081a5b9a5d1a585d1959609a1b6044820152606401610dcd565b60cf5461ffff1681106143945760405162461bcd60e51b815260206004820152601060248201526f149bdd5b99081b9bdd0818db1bdcd95960821b6044820152606401610dcd565b33600090815260cb60205260409020805462010000600160901b031916905560d0546143d090600160801b90046001600160801b03168361313a565b60d080546001600160801b03928316600160801b029216919091179055600081815260ca602052604081205460cc5461441391859160ff610100909104166134b2565b604080518281526020810186905291925033917ff279e6a1f5e320cca91135676d9cb6e44ca8a08c0b88342bcdb1144f6511b568910160405180910390a261445b3084614a07565b60cc5460d754604051633fd5c25d60e11b815260048101849052620100009092046001600160a01b039081166024840152166044820152600560648201819052608482015273__$284794d205a530c1a37f8f90001a836887$__90637fab84ba9060a40160006040518083038186803b1580156144d757600080fd5b505af41580156144eb573d6000803e3d6000fd5b50505050600081116145315760405162461bcd60e51b815260206004820152600f60248201526e085dda5d1a191c985dd05b5bdd5b9d608a1b6044820152606401610dcd565b60cc54604051634cc8d10160e11b815273__$284794d205a530c1a37f8f90001a836887$__91639991a202916145a0917f000000000000000000000000000000000000000000000000000000000000000091620100009091046001600160a01b03169033908790600401615344565b60006040518083038186803b1580156145b857600080fd5b505af41580156145cc573d6000803e3d6000fd5b5092979650505050505050565b505050565b6000811580614602575082826145f48183615732565b92506146009083615627565b145b610d395760405162461bcd60e51b815260206004820152601460248201527364732d6d6174682d6d756c2d6f766572666c6f7760601b6044820152606401610dcd565b600082614652838261560f565b9150811015610d395760405162461bcd60e51b815260206004820152601460248201527364732d6d6174682d6164642d6f766572666c6f7760601b6044820152606401610dcd565b60006146ef826040518060400160405280602081526020017f5361666545524332303a206c6f772d6c6576656c2063616c6c206661696c6564815250856001600160a01b0316614b559092919063ffffffff16565b8051909150156145d9578080602001905181019061470d919061521c565b6145d95760405162461bcd60e51b815260206004820152602a60248201527f5361666545524332303a204552433230206f7065726174696f6e20646964206e6044820152691bdd081cdd58d8d9595960b21b6064820152608401610dcd565b6001600160a01b0382166147c25760405162461bcd60e51b815260206004820152601f60248201527f45524332303a206d696e7420746f20746865207a65726f2061646472657373006044820152606401610dcd565b80609960008282546147d4919061560f565b90915550506001600160a01b0382166000908152609760205260408120805483929061480190849061560f565b90915550506040518181526001600160a01b038316906000907fddf252ad1be2c89b69c2b068fc378daa952ba7f163c4a11628f55a4df523b3ef9060200160405180910390a35050565b600054610100900460ff1680614864575060005460ff16155b6148805760405162461bcd60e51b8152600401610dcd90615534565b600054610100900460ff161580156148a2576000805461ffff19166101011790555b6148aa614b64565b8015611fe0576000805461ff001916905550565b600054610100900460ff16806148d7575060005460ff16155b6148f35760405162461bcd60e51b8152600401610dcd90615534565b600054610100900460ff16158015614915576000805461ffff19166101011790555b61491d614bd3565b6149278383614c3d565b80156145d9576000805461ff0019169055505050565b600054610100900460ff1680614956575060005460ff16155b6149725760405162461bcd60e51b8152600401610dcd90615534565b600054610100900460ff16158015614994576000805461ffff19166101011790555b61499c614bd3565b6148aa614cd2565b6000600183116149ee5760405162461bcd60e51b8152602060048201526015602482015274496e76616c6964206173736574506572536861726560581b6044820152606401610dcd565b6114298361225a614a0085600a61568a565b8790613146565b6001600160a01b038216614a675760405162461bcd60e51b815260206004820152602160248201527f45524332303a206275726e2066726f6d20746865207a65726f206164647265736044820152607360f81b6064820152608401610dcd565b6001600160a01b03821660009081526097602052604090205481811015614adb5760405162461bcd60e51b815260206004820152602260248201527f45524332303a206275726e20616d6f756e7420657863656564732062616c616e604482015261636560f01b6064820152608401610dcd565b6001600160a01b0383166000908152609760205260408120838303905560998054849290614b0a908490615751565b90915550506040518281526000906001600160a01b038516907fddf252ad1be2c89b69c2b068fc378daa952ba7f163c4a11628f55a4df523b3ef9060200160405180910390a3505050565b60606114298484600085614d32565b600054610100900460ff1680614b7d575060005460ff16155b614b995760405162461bcd60e51b8152600401610dcd90615534565b600054610100900460ff16158015614bbb576000805461ffff19166101011790555b600180558015611fe0576000805461ff001916905550565b600054610100900460ff1680614bec575060005460ff16155b614c085760405162461bcd60e51b8152600401610dcd90615534565b600054610100900460ff161580156148aa576000805461ffff19166101011790558015611fe0576000805461ff001916905550565b600054610100900460ff1680614c56575060005460ff16155b614c725760405162461bcd60e51b8152600401610dcd90615534565b600054610100900460ff16158015614c94576000805461ffff19166101011790555b8251614ca790609a906020860190614e93565b508151614cbb90609b906020850190614e93565b5080156145d9576000805461ff0019169055505050565b600054610100900460ff1680614ceb575060005460ff16155b614d075760405162461bcd60e51b8152600401610dcd90615534565b600054610100900460ff16158015614d29576000805461ffff19166101011790555b6148aa336138a8565b606082471015614d935760405162461bcd60e51b815260206004820152602660248201527f416464726573733a20696e73756666696369656e742062616c616e636520666f6044820152651c8818d85b1b60d21b6064820152608401610dcd565b843b614de15760405162461bcd60e51b815260206004820152601d60248201527f416464726573733a2063616c6c20746f206e6f6e2d636f6e74726163740000006044820152606401610dcd565b600080866001600160a01b03168587604051614dfd9190615328565b60006040518083038185875af1925050503d8060008114614e3a576040519150601f19603f3d011682016040523d82523d6000602084013e614e3f565b606091505b5091509150614e4f828286614e5a565b979650505050505050565b60608315614e69575081610de9565b825115614e795782518084602001fd5b8160405162461bcd60e51b8152600401610dcd9190615500565b828054614e9f90615794565b90600052602060002090601f016020900481019282614ec15760008555614f07565b82601f10614eda57805160ff1916838001178555614f07565b82800160010185558215614f07579182015b82811115614f07578251825591602001919060010190614eec565b50614f13929150614f17565b5090565b5b80821115614f135760008155600101614f18565b8035614f3781615948565b919050565b600082601f830112614f4c578081fd5b813567ffffffffffffffff80821115614f6757614f676157fa565b604051601f8301601f19908116603f01168101908282118183101715614f8f57614f8f6157fa565b81604052838152866020858801011115614fa7578485fd5b8360208701602083013792830160200193909352509392505050565b600060c08284031215614fd4578081fd5b50919050565b8035614f378161596b565b803563ffffffff81168114614f3757600080fd5b8035614f3781615980565b600060208284031215615015578081fd5b8135610de981615948565b600060208284031215615031578081fd5b8151610de981615948565b6000806040838503121561504e578081fd5b823561505981615948565b9150602083013561506981615948565b809150509250929050565b6000806000806000806000806000806000806102208d8f031215615096578788fd5b61509f8d614f2c565b9b506150ad60208e01614f2c565b9a506150bb60408e01614f2c565b995060608d0135985060808d0135975067ffffffffffffffff60a08e013511156150e3578687fd5b6150f38e60a08f01358f01614f3c565b965067ffffffffffffffff60c08e0135111561510d578586fd5b61511d8e60c08f01358f01614f3c565b955061512b60e08e01614f2c565b945061513a6101008e01614f2c565b93506151496101208e01614fe5565b92506101408d013591506151618e6101608f01614fc3565b90509295989b509295989b509295989b565b600080600060608486031215615187578283fd5b833561519281615948565b925060208401356151a281615948565b929592945050506040919091013590565b600080604083850312156151c5578182fd5b82356151d081615948565b946020939093013593505050565b600080600080608085870312156151f3578384fd5b84516151fe81615948565b60208601516040870151606090970151919890975090945092505050565b60006020828403121561522d578081fd5b8151610de98161595d565b600060208284031215615249578081fd5b81356001600160801b0381168114610de9578182fd5b600060208284031215615270578081fd5b5035919050565b600060208284031215615288578081fd5b5051919050565b600080604083850312156152a1578182fd5b82359150602083013561506981615948565b60008060008060008060c087890312156152cb578384fd5b865195506020870151945060408701519350606087015192506080870151915060a087015190509295509295509295565b60008151808452615314816020860160208601615768565b601f01601f19169290920160200192915050565b6000825161533a818460208701615768565b9190910192915050565b6001600160a01b039485168152928416602084015292166040820152606081019190915260800190565b60006101a060018060a01b03808c168452808b166020850152808a1660408501528860608501528760808501528160a08501526153ad828501886152fc565b915083820360c08501526153c182876152fc565b9250843591506153d08261595d565b90151560e08401526020840135906153e782615995565b60ff82166101008501526040850135915061540182615948565b1661012083015261541460608401614f2c565b6001600160a01b031661014083015261542f60808401614ff9565b66ffffffffffffff1661016083015261544a60a08401614fda565b6001600160681b038116610180840152509998505050505050505050565b60006101808201905060018060a01b03808a16835280891660208401528760408401528087511660608401528060208801511660808401528060408801511660a084015250606086015160c083015261ffff60808701511660e083015260a086015161010083015284610120830152836101408301526154f46101608301846001600160a01b03169052565b98975050505050505050565b602081526000610de960208301846152fc565b60208082526007908201526610b5b2b2b832b960c91b604082015260600190565b6020808252602e908201527f496e697469616c697a61626c653a20636f6e747261637420697320616c72656160408201526d191e481a5b9a5d1a585b1a5e995960921b606082015260800190565b6020808252818101527f4f776e61626c653a2063616c6c6572206973206e6f7420746865206f776e6572604082015260600190565b60208082526007908201526608585b5bdd5b9d60ca1b604082015260600190565b6020808252601f908201527f5265656e7472616e637947756172643a207265656e7472616e742063616c6c00604082015260600190565b60008219821115615622576156226157e4565b500190565b60008261564257634e487b7160e01b81526012600452602481fd5b500490565b600181815b80851115615682578160001904821115615668576156686157e4565b8085161561567557918102915b93841c939080029061564c565b509250929050565b6000610de983836000826156a057506001610d39565b816156ad57506000610d39565b81600181146156c357600281146156cd576156e9565b6001915050610d39565b60ff8411156156de576156de6157e4565b50506001821b610d39565b5060208310610133831016604e8410600b841016171561570c575081810a610d39565b6157168383615647565b806000190482111561572a5761572a6157e4565b029392505050565b600081600019048311821515161561574c5761574c6157e4565b500290565b600082821015615763576157636157e4565b500390565b60005b8381101561578357818101518382015260200161576b565b838111156131345750506000910152565b600181811c908216806157a857607f821691505b60208210811415614fd457634e487b7160e01b600052602260045260246000fd5b60006000198214156157dd576157dd6157e4565b5060010190565b634e487b7160e01b600052601160045260246000fd5b634e487b7160e01b600052604160045260246000fd5b60008135610d3981615948565b60008135610d398161596b565b60008135610d3981615980565b81356158428161595d565b815460ff19811691151560ff169182178355602084013561586281615995565b61ff008160081b169050808361ffff19841617178455604085013561588681615948565b6001600160b01b0319929092169092179190911760109190911b62010000600160b01b0316178155600181016158de6158c160608501615810565b82546001600160a01b0319166001600160a01b0391909116178255565b6159176158ed6080850161582a565b82805466ffffffffffffff60a01b191660a09290921b66ffffffffffffff60a01b16919091179055565b5061427561592760a0840161581d565b600283016001600160681b0382166001600160681b03198254161781555050565b6001600160a01b0381168114611fe057600080fd5b8015158114611fe057600080fd5b6001600160681b0381168114611fe057600080fd5b66ffffffffffffff81168114611fe057600080fd5b60ff81168114611fe057600080fdfea2646970667358221220ab8818f45bb85e776a5d95e39075222cc5ce5d2a2a7282602b39c62751e9079164736f6c63430008040033",
  "libraries": {
    "VaultLifecycle": "0xe64524Ba73b9E74956f59F137821039254994f36",
    "VaultLifecycleYearn": "0x07e18F15845E919c09Df350dcd8AD4030F587809"
  },
  "devdoc": {
    "kind": "dev",
    "methods": {
      "accountVaultBalance(address)": {
        "params": {
          "account": "is the address to lookup balance for"
        },
        "returns": {
          "_0": "the amount of `asset` custodied by the vault for the user"
        }
      },
      "allowance(address,address)": {
        "details": "See {IERC20-allowance}."
      },
      "approve(address,uint256)": {
        "details": "See {IERC20-approve}. Requirements: - `spender` cannot be the zero address."
      },
      "balanceOf(address)": {
        "details": "See {IERC20-balanceOf}."
      },
      "constructor": {
        "params": {
          "_gammaController": "is the contract address for opyn actions",
          "_gnosisEasyAuction": "is the contract address that facilitates gnosis auctions",
          "_marginPool": "is the contract address for providing collateral to opyn",
          "_oTokenFactory": "is the contract address for minting new opyn option types (strikes, asset, expiry)",
          "_usdc": "is the USDC contract",
          "_weth": "is the Wrapped Ether contract",
          "_yearnRegistry": "is the address of the yearn registry from token to vault token"
        }
      },
      "decreaseAllowance(address,uint256)": {
        "details": "Atomically decreases the allowance granted to `spender` by the caller. This is an alternative to {approve} that can be used as a mitigation for problems described in {IERC20-approve}. Emits an {Approval} event indicating the updated allowance. Requirements: - `spender` cannot be the zero address. - `spender` must have allowance for the caller of at least `subtractedValue`."
      },
      "deposit(uint256)": {
        "params": {
          "amount": "is the amount of `asset` to deposit"
        }
      },
      "depositFor(uint256,address)": {
        "params": {
          "amount": "is the amount of `asset` to deposit",
          "creditor": "is the address that can claim/withdraw deposited amount"
        }
      },
      "depositYieldToken(uint256)": {
        "params": {
          "amount": "is the amount of `collateralToken` to deposit"
        }
      },
      "increaseAllowance(address,uint256)": {
        "details": "Atomically increases the allowance granted to `spender` by the caller. This is an alternative to {approve} that can be used as a mitigation for problems described in {IERC20-approve}. Emits an {Approval} event indicating the updated allowance. Requirements: - `spender` cannot be the zero address."
      },
      "initialize(address,address,address,uint256,uint256,string,string,address,address,uint32,uint256,(bool,uint8,address,address,uint56,uint104))": {
        "params": {
          "_auctionDuration": "is the duration of the gnosis auction",
          "_feeRecipient": "is the address to recieve vault performance and management fees",
          "_keeper": "is the keeper of the vault with medium permissions (weekly actions)",
          "_managementFee": "is the management fee pct.",
          "_optionsPremiumPricer": "is the address of the contract with the black-scholes premium calculation logic",
          "_owner": "is the owner of the vault with critical permissions",
          "_performanceFee": "is the perfomance fee pct.",
          "_premiumDiscount": "is the vault's discount applied to the premium",
          "_strikeSelection": "is the address of the contract with strike selection logic",
          "_tokenName": "is the name of the token",
          "_tokenSymbol": "is the symbol of the token",
          "_vaultParams": "is the struct with vault general data"
        }
      },
      "initiateWithdraw(uint256)": {
        "params": {
          "numShares": "is the number of shares to withdraw"
        }
      },
      "name()": {
        "details": "Returns the name of the token."
      },
      "owner()": {
        "details": "Returns the address of the current owner."
      },
      "redeem(uint256)": {
        "params": {
          "numShares": "is the number of shares to redeem"
        }
      },
      "renounceOwnership()": {
        "details": "Leaves the contract without owner. It will not be possible to call `onlyOwner` functions anymore. Can only be called by the current owner. NOTE: Renouncing ownership will leave the contract without an owner, thereby removing any functionality that is only available to the owner."
      },
      "setAuctionDuration(uint256)": {
        "params": {
          "newAuctionDuration": "is the auction duration"
        }
      },
      "setCap(uint256)": {
        "params": {
          "newCap": "is the new cap for deposits"
        }
      },
      "setFeeRecipient(address)": {
        "params": {
          "newFeeRecipient": "is the address of the new fee recipient"
        }
      },
      "setManagementFee(uint256)": {
        "params": {
          "newManagementFee": "is the management fee (6 decimals). ex: 2 * 10 ** 6 = 2%"
        }
      },
      "setNewKeeper(address)": {
        "params": {
          "newKeeper": "is the address of the new keeper"
        }
      },
      "setOptionsPremiumPricer(address)": {
        "params": {
          "newOptionsPremiumPricer": "is the address of the new strike selection contract"
        }
      },
      "setPerformanceFee(uint256)": {
        "params": {
          "newPerformanceFee": "is the performance fee (6 decimals). ex: 20 * 10 ** 6 = 20%"
        }
      },
      "setPremiumDiscount(uint256)": {
        "params": {
          "newPremiumDiscount": "is the premium discount"
        }
      },
      "setStrikePrice(uint128)": {
        "params": {
          "strikePrice": "is the strike price of the new oTokens (decimals = 8)"
        }
      },
      "setStrikeSelection(address)": {
        "params": {
          "newStrikeSelection": "is the address of the new strike selection contract"
        }
      },
      "shareBalances(address)": {
        "params": {
          "account": "is the account to lookup share balance for"
        },
        "returns": {
          "heldByAccount": "is the shares held by account",
          "heldByVault": "is the shares held on the vault (unredeemedShares)"
        }
      },
      "shares(address)": {
        "params": {
          "account": "is the account to lookup share balance for"
        },
        "returns": {
          "_0": "the share balance"
        }
      },
      "symbol()": {
        "details": "Returns the symbol of the token, usually a shorter version of the name."
      },
      "totalBalance()": {
        "returns": {
          "_0": "total balance of the vault, including the amounts locked in third party protocols"
        }
      },
      "totalSupply()": {
        "details": "See {IERC20-totalSupply}."
      },
      "transfer(address,uint256)": {
        "details": "See {IERC20-transfer}. Requirements: - `recipient` cannot be the zero address. - the caller must have a balance of at least `amount`."
      },
      "transferFrom(address,address,uint256)": {
        "details": "See {IERC20-transferFrom}. Emits an {Approval} event indicating the updated allowance. This is not required by the EIP. See the note at the beginning of {ERC20}. Requirements: - `sender` and `recipient` cannot be the zero address. - `sender` must have a balance of at least `amount`. - the caller must have allowance for ``sender``'s tokens of at least `amount`."
      },
      "transferOwnership(address)": {
        "details": "Transfers ownership of the contract to a new account (`newOwner`). Can only be called by the current owner."
      },
      "withdrawInstantly(uint256)": {
        "params": {
          "amount": "is the amount to withdraw"
        }
      }
    },
    "version": 1
  },
  "userdoc": {
    "kind": "user",
    "methods": {
      "DELAY()": {
        "notice": "15 minute timelock between commitAndClose and rollToNexOption."
      },
      "OTOKEN_FACTORY()": {
        "notice": "oTokenFactory is the factory contract used to spawn otokens. Used to lookup otokens."
      },
      "PERIOD()": {
        "notice": "7 day period between each options sale."
      },
      "USDC()": {
        "notice": "USDC 0xA0b86991c6218b36c1d19D4a2e9Eb0cE3606eB48"
      },
      "WETH()": {
        "notice": "WETH9 0xC02aaA39b223FE8D0A0e5C4F27eAD9083C756Cc2"
      },
      "YEARN_WITHDRAWAL_BUFFER()": {
        "notice": "Withdrawal buffer for yearn vault"
      },
      "YEARN_WITHDRAWAL_SLIPPAGE()": {
        "notice": "Slippage incurred during withdrawal"
      },
      "accountVaultBalance(address)": {
        "notice": "Returns the asset balance held on the vault for the account"
      },
      "burnRemainingOTokens()": {
        "notice": "Burn the remaining oTokens left over from gnosis auction."
      },
      "collateralToken()": {
        "notice": "Yearn vault contract"
      },
      "commitAndClose()": {
        "notice": "Sets the next option the vault will be shorting, and closes the existing short.         This allows all the users to withdraw if the next option is malicious."
      },
      "completeWithdraw()": {
        "notice": "Completes a scheduled withdrawal from a past round. Uses finalized pps for the round"
      },
      "constructor": {
        "notice": "Initializes the contract with immutable variables"
      },
      "decimals()": {
        "notice": "Returns the token decimals"
      },
      "deposit(uint256)": {
        "notice": "Deposits the `asset` from msg.sender."
      },
      "depositFor(uint256,address)": {
        "notice": "Deposits the `asset` from msg.sender added to `creditor`'s deposit.Used for vault -> vault deposits on the user's behalf"
      },
      "depositReceipts(address)": {
        "notice": "Stores the user's pending deposit for the round"
      },
      "depositYieldToken(uint256)": {
        "notice": "Deposits the `collateralToken` into the contract and mint vault shares."
      },
      "feeRecipient()": {
        "notice": "Fee recipient for the performance and management fees"
      },
      "initialize(address,address,address,uint256,uint256,string,string,address,address,uint32,uint256,(bool,uint8,address,address,uint56,uint104))": {
        "notice": "Initializes the OptionVault contract with storage variables."
      },
      "initiateWithdraw(uint256)": {
        "notice": "Initiates a withdrawal that can be processed once the round completes"
      },
      "keeper()": {
        "notice": "role in charge of weekly vault operations such as rollToNextOption and burnRemainingOTokens"
      },
      "managementFee()": {
        "notice": "Management fee charged on entire AUM in rollToNextOption. Only charged when there is no loss."
      },
      "maxRedeem()": {
        "notice": "Redeems the entire unredeemedShares balance that is owed to the account"
      },
      "optionState()": {
        "notice": "Vault's state of the options sold and the timelocked option"
      },
      "performanceFee()": {
        "notice": "Performance fee charged on premiums earned in rollToNextOption. Only charged when there is no loss."
      },
      "pricePerShare()": {
        "notice": "The price of a unit of share denominated in the `asset`"
      },
      "redeem(uint256)": {
        "notice": "Redeems shares that are owed to the account"
      },
      "rollToNextOption()": {
        "notice": "Rolls the vault's funds into a new short position."
      },
      "roundPricePerShare(uint256)": {
        "notice": "On every round's close, the pricePerShare value of an rTHETA token is stored This is used to determine the number of shares to be returned to a user with their DepositReceipt.depositAmount"
      },
      "setAuctionDuration(uint256)": {
        "notice": "Sets the new auction duration"
      },
      "setCap(uint256)": {
        "notice": "Sets a new cap for deposits"
      },
      "setFeeRecipient(address)": {
        "notice": "Sets the new fee recipient"
      },
      "setManagementFee(uint256)": {
        "notice": "Sets the management fee for the vault"
      },
      "setNewKeeper(address)": {
        "notice": "Sets the new keeper"
      },
      "setOptionsPremiumPricer(address)": {
        "notice": "Sets the new options premium pricer contract"
      },
      "setPerformanceFee(uint256)": {
        "notice": "Sets the performance fee for the vault"
      },
      "setPremiumDiscount(uint256)": {
        "notice": "Sets the new discount on premiums for options we are selling"
      },
      "setStrikePrice(uint128)": {
        "notice": "Optionality to set strike price manually"
      },
      "setStrikeSelection(address)": {
        "notice": "Sets the new strike selection contract"
      },
      "shareBalances(address)": {
        "notice": "Getter for returning the account's share balance split between account and vault holdings"
      },
      "shares(address)": {
        "notice": "Getter for returning the account's share balance including unredeemed shares"
      },
      "startAuction()": {
        "notice": "Initiate the gnosis auction."
      },
      "totalBalance()": {
        "notice": "Returns the vault's total balance, including the amounts locked into a short position"
      },
      "vaultParams()": {
        "notice": "Vault's parameters like cap, decimals"
      },
      "vaultState()": {
        "notice": "Vault's lifecycle state like round and locked amounts"
      },
      "withdrawInstantly(uint256)": {
        "notice": "Withdraws the assets on the vault using the outstanding `DepositReceipt.amount`"
      },
      "withdrawals(address)": {
        "notice": "Stores pending user withdrawals"
      }
    },
    "notice": "UPGRADEABILITY: Since we use the upgradeable proxy pattern, we must observe the inheritance chain closely. Any changes/appends in storage variable needs to happen in RibbonThetaYearnVaultStorage. RibbonThetaYearnVault should not inherit from any other contract aside from RibbonVault, RibbonThetaYearnVaultStorage",
    "version": 1
  },
  "storageLayout": {
    "storage": [
      {
        "astId": 130,
        "contract": "contracts/vaults/YearnVaults/RibbonThetaYearnVault.sol:RibbonThetaYearnVault",
        "label": "_initialized",
        "offset": 0,
        "slot": "0",
        "type": "t_bool"
      },
      {
        "astId": 133,
        "contract": "contracts/vaults/YearnVaults/RibbonThetaYearnVault.sol:RibbonThetaYearnVault",
        "label": "_initializing",
        "offset": 1,
        "slot": "0",
        "type": "t_bool"
      },
      {
        "astId": 184,
        "contract": "contracts/vaults/YearnVaults/RibbonThetaYearnVault.sol:RibbonThetaYearnVault",
        "label": "_status",
        "offset": 0,
        "slot": "1",
        "type": "t_uint256"
      },
      {
        "astId": 227,
        "contract": "contracts/vaults/YearnVaults/RibbonThetaYearnVault.sol:RibbonThetaYearnVault",
        "label": "__gap",
        "offset": 0,
        "slot": "2",
        "type": "t_array(t_uint256)49_storage"
      },
      {
        "astId": 947,
        "contract": "contracts/vaults/YearnVaults/RibbonThetaYearnVault.sol:RibbonThetaYearnVault",
        "label": "__gap",
        "offset": 0,
        "slot": "51",
        "type": "t_array(t_uint256)50_storage"
      },
      {
        "astId": 10,
        "contract": "contracts/vaults/YearnVaults/RibbonThetaYearnVault.sol:RibbonThetaYearnVault",
        "label": "_owner",
        "offset": 0,
        "slot": "101",
        "type": "t_address"
      },
      {
        "astId": 123,
        "contract": "contracts/vaults/YearnVaults/RibbonThetaYearnVault.sol:RibbonThetaYearnVault",
        "label": "__gap",
        "offset": 0,
        "slot": "102",
        "type": "t_array(t_uint256)49_storage"
      },
      {
        "astId": 247,
        "contract": "contracts/vaults/YearnVaults/RibbonThetaYearnVault.sol:RibbonThetaYearnVault",
        "label": "_balances",
        "offset": 0,
        "slot": "151",
        "type": "t_mapping(t_address,t_uint256)"
      },
      {
        "astId": 253,
        "contract": "contracts/vaults/YearnVaults/RibbonThetaYearnVault.sol:RibbonThetaYearnVault",
        "label": "_allowances",
        "offset": 0,
        "slot": "152",
        "type": "t_mapping(t_address,t_mapping(t_address,t_uint256))"
      },
      {
        "astId": 255,
        "contract": "contracts/vaults/YearnVaults/RibbonThetaYearnVault.sol:RibbonThetaYearnVault",
        "label": "_totalSupply",
        "offset": 0,
        "slot": "153",
        "type": "t_uint256"
      },
      {
        "astId": 257,
        "contract": "contracts/vaults/YearnVaults/RibbonThetaYearnVault.sol:RibbonThetaYearnVault",
        "label": "_name",
        "offset": 0,
        "slot": "154",
        "type": "t_string_storage"
      },
      {
        "astId": 259,
        "contract": "contracts/vaults/YearnVaults/RibbonThetaYearnVault.sol:RibbonThetaYearnVault",
        "label": "_symbol",
        "offset": 0,
        "slot": "155",
        "type": "t_string_storage"
      },
      {
        "astId": 800,
        "contract": "contracts/vaults/YearnVaults/RibbonThetaYearnVault.sol:RibbonThetaYearnVault",
        "label": "__gap",
        "offset": 0,
        "slot": "156",
        "type": "t_array(t_uint256)45_storage"
      },
      {
        "astId": 21699,
        "contract": "contracts/vaults/YearnVaults/RibbonThetaYearnVault.sol:RibbonThetaYearnVault",
        "label": "depositReceipts",
        "offset": 0,
        "slot": "201",
        "type": "t_mapping(t_address,t_struct(DepositReceipt)5734_storage)"
      },
      {
        "astId": 21704,
        "contract": "contracts/vaults/YearnVaults/RibbonThetaYearnVault.sol:RibbonThetaYearnVault",
        "label": "roundPricePerShare",
        "offset": 0,
        "slot": "202",
        "type": "t_mapping(t_uint256,t_uint256)"
      },
      {
        "astId": 21710,
        "contract": "contracts/vaults/YearnVaults/RibbonThetaYearnVault.sol:RibbonThetaYearnVault",
        "label": "withdrawals",
        "offset": 0,
        "slot": "203",
        "type": "t_mapping(t_address,t_struct(Withdrawal)5739_storage)"
      },
      {
        "astId": 21714,
        "contract": "contracts/vaults/YearnVaults/RibbonThetaYearnVault.sol:RibbonThetaYearnVault",
        "label": "vaultParams",
        "offset": 0,
        "slot": "204",
        "type": "t_struct(VaultParams)5709_storage"
      },
      {
        "astId": 21718,
        "contract": "contracts/vaults/YearnVaults/RibbonThetaYearnVault.sol:RibbonThetaYearnVault",
        "label": "vaultState",
        "offset": 0,
        "slot": "207",
        "type": "t_struct(VaultState)5727_storage"
      },
      {
        "astId": 21722,
        "contract": "contracts/vaults/YearnVaults/RibbonThetaYearnVault.sol:RibbonThetaYearnVault",
        "label": "optionState",
        "offset": 0,
        "slot": "209",
        "type": "t_struct(OptionState)5716_storage"
      },
      {
        "astId": 21725,
        "contract": "contracts/vaults/YearnVaults/RibbonThetaYearnVault.sol:RibbonThetaYearnVault",
        "label": "feeRecipient",
        "offset": 0,
        "slot": "211",
        "type": "t_address"
      },
      {
        "astId": 21728,
        "contract": "contracts/vaults/YearnVaults/RibbonThetaYearnVault.sol:RibbonThetaYearnVault",
        "label": "keeper",
        "offset": 0,
        "slot": "212",
        "type": "t_address"
      },
      {
        "astId": 21731,
        "contract": "contracts/vaults/YearnVaults/RibbonThetaYearnVault.sol:RibbonThetaYearnVault",
        "label": "performanceFee",
        "offset": 0,
        "slot": "213",
        "type": "t_uint256"
      },
      {
        "astId": 21734,
        "contract": "contracts/vaults/YearnVaults/RibbonThetaYearnVault.sol:RibbonThetaYearnVault",
        "label": "managementFee",
        "offset": 0,
        "slot": "214",
        "type": "t_uint256"
      },
      {
        "astId": 21738,
        "contract": "contracts/vaults/YearnVaults/RibbonThetaYearnVault.sol:RibbonThetaYearnVault",
        "label": "collateralToken",
        "offset": 0,
        "slot": "215",
        "type": "t_contract(IYearnVault)3646"
      },
      {
        "astId": 21742,
        "contract": "contracts/vaults/YearnVaults/RibbonThetaYearnVault.sol:RibbonThetaYearnVault",
        "label": "____gap",
        "offset": 0,
        "slot": "216",
        "type": "t_array(t_uint256)30_storage"
      },
      {
        "astId": 10890,
        "contract": "contracts/vaults/YearnVaults/RibbonThetaYearnVault.sol:RibbonThetaYearnVault",
        "label": "optionsPremiumPricer",
        "offset": 0,
        "slot": "246",
        "type": "t_address"
      },
      {
        "astId": 10892,
        "contract": "contracts/vaults/YearnVaults/RibbonThetaYearnVault.sol:RibbonThetaYearnVault",
        "label": "strikeSelection",
        "offset": 0,
        "slot": "247",
        "type": "t_address"
      },
      {
        "astId": 10894,
        "contract": "contracts/vaults/YearnVaults/RibbonThetaYearnVault.sol:RibbonThetaYearnVault",
        "label": "premiumDiscount",
        "offset": 0,
        "slot": "248",
        "type": "t_uint256"
      },
      {
        "astId": 10896,
        "contract": "contracts/vaults/YearnVaults/RibbonThetaYearnVault.sol:RibbonThetaYearnVault",
        "label": "currentOtokenPremium",
        "offset": 0,
        "slot": "249",
        "type": "t_uint256"
      },
      {
        "astId": 10898,
        "contract": "contracts/vaults/YearnVaults/RibbonThetaYearnVault.sol:RibbonThetaYearnVault",
        "label": "lastStrikeOverrideRound",
        "offset": 0,
        "slot": "250",
        "type": "t_uint16"
      },
      {
        "astId": 10900,
        "contract": "contracts/vaults/YearnVaults/RibbonThetaYearnVault.sol:RibbonThetaYearnVault",
        "label": "overriddenStrikePrice",
        "offset": 0,
        "slot": "251",
        "type": "t_uint256"
      },
      {
        "astId": 10902,
        "contract": "contracts/vaults/YearnVaults/RibbonThetaYearnVault.sol:RibbonThetaYearnVault",
        "label": "auctionDuration",
        "offset": 0,
        "slot": "252",
        "type": "t_uint256"
      },
      {
        "astId": 10904,
        "contract": "contracts/vaults/YearnVaults/RibbonThetaYearnVault.sol:RibbonThetaYearnVault",
        "label": "optionAuctionID",
        "offset": 0,
        "slot": "253",
        "type": "t_uint256"
      },
      {
        "astId": 10907,
        "contract": "contracts/vaults/YearnVaults/RibbonThetaYearnVault.sol:RibbonThetaYearnVault",
        "label": "lastQueuedWithdrawAmount",
        "offset": 0,
        "slot": "254",
        "type": "t_uint256"
      }
    ],
    "types": {
      "t_address": {
        "encoding": "inplace",
        "label": "address",
        "numberOfBytes": "20"
      },
      "t_array(t_uint256)30_storage": {
        "base": "t_uint256",
        "encoding": "inplace",
        "label": "uint256[30]",
        "numberOfBytes": "960"
      },
      "t_array(t_uint256)45_storage": {
        "base": "t_uint256",
        "encoding": "inplace",
        "label": "uint256[45]",
        "numberOfBytes": "1440"
      },
      "t_array(t_uint256)49_storage": {
        "base": "t_uint256",
        "encoding": "inplace",
        "label": "uint256[49]",
        "numberOfBytes": "1568"
      },
      "t_array(t_uint256)50_storage": {
        "base": "t_uint256",
        "encoding": "inplace",
        "label": "uint256[50]",
        "numberOfBytes": "1600"
      },
      "t_bool": {
        "encoding": "inplace",
        "label": "bool",
        "numberOfBytes": "1"
      },
      "t_contract(IYearnVault)3646": {
        "encoding": "inplace",
        "label": "contract IYearnVault",
        "numberOfBytes": "20"
      },
      "t_mapping(t_address,t_mapping(t_address,t_uint256))": {
        "encoding": "mapping",
        "key": "t_address",
        "label": "mapping(address => mapping(address => uint256))",
        "numberOfBytes": "32",
        "value": "t_mapping(t_address,t_uint256)"
      },
      "t_mapping(t_address,t_struct(DepositReceipt)5734_storage)": {
        "encoding": "mapping",
        "key": "t_address",
        "label": "mapping(address => struct Vault.DepositReceipt)",
        "numberOfBytes": "32",
        "value": "t_struct(DepositReceipt)5734_storage"
      },
      "t_mapping(t_address,t_struct(Withdrawal)5739_storage)": {
        "encoding": "mapping",
        "key": "t_address",
        "label": "mapping(address => struct Vault.Withdrawal)",
        "numberOfBytes": "32",
        "value": "t_struct(Withdrawal)5739_storage"
      },
      "t_mapping(t_address,t_uint256)": {
        "encoding": "mapping",
        "key": "t_address",
        "label": "mapping(address => uint256)",
        "numberOfBytes": "32",
        "value": "t_uint256"
      },
      "t_mapping(t_uint256,t_uint256)": {
        "encoding": "mapping",
        "key": "t_uint256",
        "label": "mapping(uint256 => uint256)",
        "numberOfBytes": "32",
        "value": "t_uint256"
      },
      "t_string_storage": {
        "encoding": "bytes",
        "label": "string",
        "numberOfBytes": "32"
      },
      "t_struct(DepositReceipt)5734_storage": {
        "encoding": "inplace",
        "label": "struct Vault.DepositReceipt",
        "members": [
          {
            "astId": 5729,
            "contract": "contracts/vaults/YearnVaults/RibbonThetaYearnVault.sol:RibbonThetaYearnVault",
            "label": "round",
            "offset": 0,
            "slot": "0",
            "type": "t_uint16"
          },
          {
            "astId": 5731,
            "contract": "contracts/vaults/YearnVaults/RibbonThetaYearnVault.sol:RibbonThetaYearnVault",
            "label": "amount",
            "offset": 2,
            "slot": "0",
            "type": "t_uint104"
          },
          {
            "astId": 5733,
            "contract": "contracts/vaults/YearnVaults/RibbonThetaYearnVault.sol:RibbonThetaYearnVault",
            "label": "unredeemedShares",
            "offset": 15,
            "slot": "0",
            "type": "t_uint128"
          }
        ],
        "numberOfBytes": "32"
      },
      "t_struct(OptionState)5716_storage": {
        "encoding": "inplace",
        "label": "struct Vault.OptionState",
        "members": [
          {
            "astId": 5711,
            "contract": "contracts/vaults/YearnVaults/RibbonThetaYearnVault.sol:RibbonThetaYearnVault",
            "label": "nextOption",
            "offset": 0,
            "slot": "0",
            "type": "t_address"
          },
          {
            "astId": 5713,
            "contract": "contracts/vaults/YearnVaults/RibbonThetaYearnVault.sol:RibbonThetaYearnVault",
            "label": "currentOption",
            "offset": 0,
            "slot": "1",
            "type": "t_address"
          },
          {
            "astId": 5715,
            "contract": "contracts/vaults/YearnVaults/RibbonThetaYearnVault.sol:RibbonThetaYearnVault",
            "label": "nextOptionReadyAt",
            "offset": 20,
            "slot": "1",
            "type": "t_uint32"
          }
        ],
        "numberOfBytes": "64"
      },
      "t_struct(VaultParams)5709_storage": {
        "encoding": "inplace",
        "label": "struct Vault.VaultParams",
        "members": [
          {
            "astId": 5698,
            "contract": "contracts/vaults/YearnVaults/RibbonThetaYearnVault.sol:RibbonThetaYearnVault",
            "label": "isPut",
            "offset": 0,
            "slot": "0",
            "type": "t_bool"
          },
          {
            "astId": 5700,
            "contract": "contracts/vaults/YearnVaults/RibbonThetaYearnVault.sol:RibbonThetaYearnVault",
            "label": "decimals",
            "offset": 1,
            "slot": "0",
            "type": "t_uint8"
          },
          {
            "astId": 5702,
            "contract": "contracts/vaults/YearnVaults/RibbonThetaYearnVault.sol:RibbonThetaYearnVault",
            "label": "asset",
            "offset": 2,
            "slot": "0",
            "type": "t_address"
          },
          {
            "astId": 5704,
            "contract": "contracts/vaults/YearnVaults/RibbonThetaYearnVault.sol:RibbonThetaYearnVault",
            "label": "underlying",
            "offset": 0,
            "slot": "1",
            "type": "t_address"
          },
          {
            "astId": 5706,
            "contract": "contracts/vaults/YearnVaults/RibbonThetaYearnVault.sol:RibbonThetaYearnVault",
            "label": "minimumSupply",
            "offset": 20,
            "slot": "1",
            "type": "t_uint56"
          },
          {
            "astId": 5708,
            "contract": "contracts/vaults/YearnVaults/RibbonThetaYearnVault.sol:RibbonThetaYearnVault",
            "label": "cap",
            "offset": 0,
            "slot": "2",
            "type": "t_uint104"
          }
        ],
        "numberOfBytes": "96"
      },
      "t_struct(VaultState)5727_storage": {
        "encoding": "inplace",
        "label": "struct Vault.VaultState",
        "members": [
          {
            "astId": 5718,
            "contract": "contracts/vaults/YearnVaults/RibbonThetaYearnVault.sol:RibbonThetaYearnVault",
            "label": "round",
            "offset": 0,
            "slot": "0",
            "type": "t_uint16"
          },
          {
            "astId": 5720,
            "contract": "contracts/vaults/YearnVaults/RibbonThetaYearnVault.sol:RibbonThetaYearnVault",
            "label": "lockedAmount",
            "offset": 2,
            "slot": "0",
            "type": "t_uint104"
          },
          {
            "astId": 5722,
            "contract": "contracts/vaults/YearnVaults/RibbonThetaYearnVault.sol:RibbonThetaYearnVault",
            "label": "lastLockedAmount",
            "offset": 15,
            "slot": "0",
            "type": "t_uint104"
          },
          {
            "astId": 5724,
            "contract": "contracts/vaults/YearnVaults/RibbonThetaYearnVault.sol:RibbonThetaYearnVault",
            "label": "totalPending",
            "offset": 0,
            "slot": "1",
            "type": "t_uint128"
          },
          {
            "astId": 5726,
            "contract": "contracts/vaults/YearnVaults/RibbonThetaYearnVault.sol:RibbonThetaYearnVault",
            "label": "queuedWithdrawShares",
            "offset": 16,
            "slot": "1",
            "type": "t_uint128"
          }
        ],
        "numberOfBytes": "64"
      },
      "t_struct(Withdrawal)5739_storage": {
        "encoding": "inplace",
        "label": "struct Vault.Withdrawal",
        "members": [
          {
            "astId": 5736,
            "contract": "contracts/vaults/YearnVaults/RibbonThetaYearnVault.sol:RibbonThetaYearnVault",
            "label": "round",
            "offset": 0,
            "slot": "0",
            "type": "t_uint16"
          },
          {
            "astId": 5738,
            "contract": "contracts/vaults/YearnVaults/RibbonThetaYearnVault.sol:RibbonThetaYearnVault",
            "label": "shares",
            "offset": 2,
            "slot": "0",
            "type": "t_uint128"
          }
        ],
        "numberOfBytes": "32"
      },
      "t_uint104": {
        "encoding": "inplace",
        "label": "uint104",
        "numberOfBytes": "13"
      },
      "t_uint128": {
        "encoding": "inplace",
        "label": "uint128",
        "numberOfBytes": "16"
      },
      "t_uint16": {
        "encoding": "inplace",
        "label": "uint16",
        "numberOfBytes": "2"
      },
      "t_uint256": {
        "encoding": "inplace",
        "label": "uint256",
        "numberOfBytes": "32"
      },
      "t_uint32": {
        "encoding": "inplace",
        "label": "uint32",
        "numberOfBytes": "4"
      },
      "t_uint56": {
        "encoding": "inplace",
        "label": "uint56",
        "numberOfBytes": "7"
      },
      "t_uint8": {
        "encoding": "inplace",
        "label": "uint8",
        "numberOfBytes": "1"
      }
    }
  }
}