{
  "address": "0x779065c57ecdc536Ae0910F158386BBfc5A17BA1",
  "abi": [
    {
      "inputs": [
        {
          "internalType": "address",
          "name": "_weth",
          "type": "address"
        },
        {
          "internalType": "address",
          "name": "_usdc",
          "type": "address"
        },
        {
          "internalType": "address",
          "name": "_oTokenFactory",
          "type": "address"
        },
        {
          "internalType": "address",
          "name": "_gammaController",
          "type": "address"
        },
        {
          "internalType": "address",
          "name": "_marginPool",
          "type": "address"
        },
        {
          "internalType": "address",
          "name": "_gnosisEasyAuction",
          "type": "address"
        },
        {
          "internalType": "address",
          "name": "_yearnRegistry",
          "type": "address"
        }
      ],
      "stateMutability": "nonpayable",
      "type": "constructor"
    },
    {
      "anonymous": false,
      "inputs": [
        {
          "indexed": true,
          "internalType": "address",
          "name": "owner",
          "type": "address"
        },
        {
          "indexed": true,
          "internalType": "address",
          "name": "spender",
          "type": "address"
        },
        {
          "indexed": false,
          "internalType": "uint256",
          "name": "value",
          "type": "uint256"
        }
      ],
      "name": "Approval",
      "type": "event"
    },
    {
      "anonymous": false,
      "inputs": [
        {
          "indexed": false,
          "internalType": "uint256",
          "name": "auctionDuration",
          "type": "uint256"
        },
        {
          "indexed": false,
          "internalType": "uint256",
          "name": "newAuctionDuration",
          "type": "uint256"
        }
      ],
      "name": "AuctionDurationSet",
      "type": "event"
    },
    {
      "anonymous": false,
      "inputs": [
        {
          "indexed": false,
          "internalType": "uint256",
          "name": "oldCap",
          "type": "uint256"
        },
        {
          "indexed": false,
          "internalType": "uint256",
          "name": "newCap",
          "type": "uint256"
        },
        {
          "indexed": false,
          "internalType": "address",
          "name": "manager",
          "type": "address"
        }
      ],
      "name": "CapSet",
      "type": "event"
    },
    {
      "anonymous": false,
      "inputs": [
        {
          "indexed": true,
          "internalType": "address",
          "name": "options",
          "type": "address"
        },
        {
          "indexed": false,
          "internalType": "uint256",
          "name": "withdrawAmount",
          "type": "uint256"
        },
        {
          "indexed": true,
          "internalType": "address",
          "name": "manager",
          "type": "address"
        }
      ],
      "name": "CloseShort",
      "type": "event"
    },
    {
      "anonymous": false,
      "inputs": [
        {
          "indexed": false,
          "internalType": "uint256",
          "name": "performanceFee",
          "type": "uint256"
        },
        {
          "indexed": false,
          "internalType": "uint256",
          "name": "vaultFee",
          "type": "uint256"
        },
        {
          "indexed": false,
          "internalType": "uint256",
          "name": "round",
          "type": "uint256"
        },
        {
          "indexed": true,
          "internalType": "address",
          "name": "feeRecipient",
          "type": "address"
        }
      ],
      "name": "CollectVaultFees",
      "type": "event"
    },
    {
      "anonymous": false,
      "inputs": [
        {
          "indexed": true,
          "internalType": "address",
          "name": "account",
          "type": "address"
        },
        {
          "indexed": false,
          "internalType": "uint256",
          "name": "amount",
          "type": "uint256"
        },
        {
          "indexed": false,
          "internalType": "uint256",
          "name": "round",
          "type": "uint256"
        }
      ],
      "name": "Deposit",
      "type": "event"
    },
    {
      "anonymous": false,
      "inputs": [
        {
          "indexed": true,
          "internalType": "address",
          "name": "auctioningToken",
          "type": "address"
        },
        {
          "indexed": true,
          "internalType": "address",
          "name": "biddingToken",
          "type": "address"
        },
        {
          "indexed": false,
          "internalType": "uint256",
          "name": "auctionCounter",
          "type": "uint256"
        },
        {
          "indexed": true,
          "internalType": "address",
          "name": "manager",
          "type": "address"
        }
      ],
      "name": "InitiateGnosisAuction",
      "type": "event"
    },
    {
      "anonymous": false,
      "inputs": [
        {
          "indexed": true,
          "internalType": "address",
          "name": "account",
          "type": "address"
        },
        {
          "indexed": false,
          "internalType": "uint256",
          "name": "shares",
          "type": "uint256"
        },
        {
          "indexed": false,
          "internalType": "uint256",
          "name": "round",
          "type": "uint256"
        }
      ],
      "name": "InitiateWithdraw",
      "type": "event"
    },
    {
      "anonymous": false,
      "inputs": [
        {
          "indexed": true,
          "internalType": "address",
          "name": "account",
          "type": "address"
        },
        {
          "indexed": false,
          "internalType": "uint256",
          "name": "amount",
          "type": "uint256"
        },
        {
          "indexed": false,
          "internalType": "uint256",
          "name": "round",
          "type": "uint256"
        }
      ],
      "name": "InstantWithdraw",
      "type": "event"
    },
    {
      "anonymous": false,
      "inputs": [
        {
          "indexed": false,
          "internalType": "uint256",
          "name": "managementFee",
          "type": "uint256"
        },
        {
          "indexed": false,
          "internalType": "uint256",
          "name": "newManagementFee",
          "type": "uint256"
        }
      ],
      "name": "ManagementFeeSet",
      "type": "event"
    },
    {
      "anonymous": false,
      "inputs": [
        {
          "indexed": false,
          "internalType": "uint256",
          "name": "strikePrice",
          "type": "uint256"
        },
        {
          "indexed": false,
          "internalType": "uint256",
          "name": "delta",
          "type": "uint256"
        }
      ],
      "name": "NewOptionStrikeSelected",
      "type": "event"
    },
    {
      "anonymous": false,
      "inputs": [
        {
          "indexed": true,
          "internalType": "address",
          "name": "options",
          "type": "address"
        },
        {
          "indexed": false,
          "internalType": "uint256",
          "name": "depositAmount",
          "type": "uint256"
        },
        {
          "indexed": true,
          "internalType": "address",
          "name": "manager",
          "type": "address"
        }
      ],
      "name": "OpenShort",
      "type": "event"
    },
    {
      "anonymous": false,
      "inputs": [
        {
          "indexed": true,
          "internalType": "address",
          "name": "previousOwner",
          "type": "address"
        },
        {
          "indexed": true,
          "internalType": "address",
          "name": "newOwner",
          "type": "address"
        }
      ],
      "name": "OwnershipTransferred",
      "type": "event"
    },
    {
      "anonymous": false,
      "inputs": [
        {
          "indexed": false,
          "internalType": "uint256",
          "name": "performanceFee",
          "type": "uint256"
        },
        {
          "indexed": false,
          "internalType": "uint256",
          "name": "newPerformanceFee",
          "type": "uint256"
        }
      ],
      "name": "PerformanceFeeSet",
      "type": "event"
    },
    {
      "anonymous": false,
      "inputs": [
        {
          "indexed": false,
          "internalType": "uint256",
          "name": "premiumDiscount",
          "type": "uint256"
        },
        {
          "indexed": false,
          "internalType": "uint256",
          "name": "newPremiumDiscount",
          "type": "uint256"
        }
      ],
      "name": "PremiumDiscountSet",
      "type": "event"
    },
    {
      "anonymous": false,
      "inputs": [
        {
          "indexed": true,
          "internalType": "address",
          "name": "account",
          "type": "address"
        },
        {
          "indexed": false,
          "internalType": "uint256",
          "name": "share",
          "type": "uint256"
        },
        {
          "indexed": false,
          "internalType": "uint256",
          "name": "round",
          "type": "uint256"
        }
      ],
      "name": "Redeem",
      "type": "event"
    },
    {
      "anonymous": false,
      "inputs": [
        {
          "indexed": true,
          "internalType": "address",
          "name": "from",
          "type": "address"
        },
        {
          "indexed": true,
          "internalType": "address",
          "name": "to",
          "type": "address"
        },
        {
          "indexed": false,
          "internalType": "uint256",
          "name": "value",
          "type": "uint256"
        }
      ],
      "name": "Transfer",
      "type": "event"
    },
    {
      "anonymous": false,
      "inputs": [
        {
          "indexed": true,
          "internalType": "address",
          "name": "account",
          "type": "address"
        },
        {
          "indexed": false,
          "internalType": "uint256",
          "name": "amount",
          "type": "uint256"
        },
        {
          "indexed": false,
          "internalType": "uint256",
          "name": "shares",
          "type": "uint256"
        }
      ],
      "name": "Withdraw",
      "type": "event"
    },
    {
      "inputs": [],
      "name": "DELAY",
      "outputs": [
        {
          "internalType": "uint256",
          "name": "",
          "type": "uint256"
        }
      ],
      "stateMutability": "view",
      "type": "function"
    },
    {
      "inputs": [],
      "name": "GAMMA_CONTROLLER",
      "outputs": [
        {
          "internalType": "address",
          "name": "",
          "type": "address"
        }
      ],
      "stateMutability": "view",
      "type": "function"
    },
    {
      "inputs": [],
      "name": "GNOSIS_EASY_AUCTION",
      "outputs": [
        {
          "internalType": "address",
          "name": "",
          "type": "address"
        }
      ],
      "stateMutability": "view",
      "type": "function"
    },
    {
      "inputs": [],
      "name": "MARGIN_POOL",
      "outputs": [
        {
          "internalType": "address",
          "name": "",
          "type": "address"
        }
      ],
      "stateMutability": "view",
      "type": "function"
    },
    {
      "inputs": [],
      "name": "OTOKEN_FACTORY",
      "outputs": [
        {
          "internalType": "address",
          "name": "",
          "type": "address"
        }
      ],
      "stateMutability": "view",
      "type": "function"
    },
    {
      "inputs": [],
      "name": "PERIOD",
      "outputs": [
        {
          "internalType": "uint256",
          "name": "",
          "type": "uint256"
        }
      ],
      "stateMutability": "view",
      "type": "function"
    },
    {
      "inputs": [],
      "name": "USDC",
      "outputs": [
        {
          "internalType": "address",
          "name": "",
          "type": "address"
        }
      ],
      "stateMutability": "view",
      "type": "function"
    },
    {
      "inputs": [],
      "name": "WETH",
      "outputs": [
        {
          "internalType": "address",
          "name": "",
          "type": "address"
        }
      ],
      "stateMutability": "view",
      "type": "function"
    },
    {
      "inputs": [],
      "name": "YEARN_REGISTRY",
      "outputs": [
        {
          "internalType": "address",
          "name": "",
          "type": "address"
        }
      ],
      "stateMutability": "view",
      "type": "function"
    },
    {
      "inputs": [],
      "name": "YEARN_WITHDRAWAL_BUFFER",
      "outputs": [
        {
          "internalType": "uint256",
          "name": "",
          "type": "uint256"
        }
      ],
      "stateMutability": "view",
      "type": "function"
    },
    {
      "inputs": [],
      "name": "YEARN_WITHDRAWAL_SLIPPAGE",
      "outputs": [
        {
          "internalType": "uint256",
          "name": "",
          "type": "uint256"
        }
      ],
      "stateMutability": "view",
      "type": "function"
    },
    {
      "inputs": [
        {
          "internalType": "address",
          "name": "account",
          "type": "address"
        }
      ],
      "name": "accountVaultBalance",
      "outputs": [
        {
          "internalType": "uint256",
          "name": "",
          "type": "uint256"
        }
      ],
      "stateMutability": "view",
      "type": "function"
    },
    {
      "inputs": [
        {
          "internalType": "address",
          "name": "owner",
          "type": "address"
        },
        {
          "internalType": "address",
          "name": "spender",
          "type": "address"
        }
      ],
      "name": "allowance",
      "outputs": [
        {
          "internalType": "uint256",
          "name": "",
          "type": "uint256"
        }
      ],
      "stateMutability": "view",
      "type": "function"
    },
    {
      "inputs": [
        {
          "internalType": "address",
          "name": "spender",
          "type": "address"
        },
        {
          "internalType": "uint256",
          "name": "amount",
          "type": "uint256"
        }
      ],
      "name": "approve",
      "outputs": [
        {
          "internalType": "bool",
          "name": "",
          "type": "bool"
        }
      ],
      "stateMutability": "nonpayable",
      "type": "function"
    },
    {
      "inputs": [],
      "name": "auctionDuration",
      "outputs": [
        {
          "internalType": "uint256",
          "name": "",
          "type": "uint256"
        }
      ],
      "stateMutability": "view",
      "type": "function"
    },
    {
      "inputs": [
        {
          "internalType": "address",
          "name": "account",
          "type": "address"
        }
      ],
      "name": "balanceOf",
      "outputs": [
        {
          "internalType": "uint256",
          "name": "",
          "type": "uint256"
        }
      ],
      "stateMutability": "view",
      "type": "function"
    },
    {
      "inputs": [],
      "name": "burnRemainingOTokens",
      "outputs": [],
      "stateMutability": "nonpayable",
      "type": "function"
    },
    {
      "inputs": [],
      "name": "cap",
      "outputs": [
        {
          "internalType": "uint256",
          "name": "",
          "type": "uint256"
        }
      ],
      "stateMutability": "view",
      "type": "function"
    },
    {
      "inputs": [],
      "name": "collateralToken",
      "outputs": [
        {
          "internalType": "contract IYearnVault",
          "name": "",
          "type": "address"
        }
      ],
      "stateMutability": "view",
      "type": "function"
    },
    {
      "inputs": [],
      "name": "commitAndClose",
      "outputs": [],
      "stateMutability": "nonpayable",
      "type": "function"
    },
    {
      "inputs": [],
      "name": "completeWithdraw",
      "outputs": [],
      "stateMutability": "nonpayable",
      "type": "function"
    },
    {
      "inputs": [],
      "name": "currentOption",
      "outputs": [
        {
          "internalType": "address",
          "name": "",
          "type": "address"
        }
      ],
      "stateMutability": "view",
      "type": "function"
    },
    {
      "inputs": [],
      "name": "currentOtokenPremium",
      "outputs": [
        {
          "internalType": "uint256",
          "name": "",
          "type": "uint256"
        }
      ],
      "stateMutability": "view",
      "type": "function"
    },
    {
      "inputs": [],
      "name": "decimals",
      "outputs": [
        {
          "internalType": "uint8",
          "name": "",
          "type": "uint8"
        }
      ],
      "stateMutability": "view",
      "type": "function"
    },
    {
      "inputs": [
        {
          "internalType": "address",
          "name": "spender",
          "type": "address"
        },
        {
          "internalType": "uint256",
          "name": "subtractedValue",
          "type": "uint256"
        }
      ],
      "name": "decreaseAllowance",
      "outputs": [
        {
          "internalType": "bool",
          "name": "",
          "type": "bool"
        }
      ],
      "stateMutability": "nonpayable",
      "type": "function"
    },
    {
      "inputs": [
        {
          "internalType": "uint256",
          "name": "amount",
          "type": "uint256"
        }
      ],
      "name": "deposit",
      "outputs": [],
      "stateMutability": "nonpayable",
      "type": "function"
    },
    {
      "inputs": [
        {
          "internalType": "uint256",
          "name": "amount",
          "type": "uint256"
        },
        {
          "internalType": "address",
          "name": "creditor",
          "type": "address"
        }
      ],
      "name": "depositFor",
      "outputs": [],
      "stateMutability": "nonpayable",
      "type": "function"
    },
    {
      "inputs": [
        {
          "internalType": "address",
          "name": "",
          "type": "address"
        }
      ],
      "name": "depositReceipts",
      "outputs": [
        {
          "internalType": "uint16",
          "name": "round",
          "type": "uint16"
        },
        {
          "internalType": "uint104",
          "name": "amount",
          "type": "uint104"
        },
        {
          "internalType": "uint128",
          "name": "unredeemedShares",
          "type": "uint128"
        }
      ],
      "stateMutability": "view",
      "type": "function"
    },
    {
      "inputs": [
        {
          "internalType": "uint256",
          "name": "amount",
          "type": "uint256"
        }
      ],
      "name": "depositYieldToken",
      "outputs": [],
      "stateMutability": "nonpayable",
      "type": "function"
    },
    {
      "inputs": [],
      "name": "feeRecipient",
      "outputs": [
        {
          "internalType": "address",
          "name": "",
          "type": "address"
        }
      ],
      "stateMutability": "view",
      "type": "function"
    },
    {
      "inputs": [
        {
          "internalType": "address",
          "name": "spender",
          "type": "address"
        },
        {
          "internalType": "uint256",
          "name": "addedValue",
          "type": "uint256"
        }
      ],
      "name": "increaseAllowance",
      "outputs": [
        {
          "internalType": "bool",
          "name": "",
          "type": "bool"
        }
      ],
      "stateMutability": "nonpayable",
      "type": "function"
    },
    {
      "inputs": [
        {
          "internalType": "uint256",
          "name": "numRounds",
          "type": "uint256"
        }
      ],
      "name": "initRounds",
      "outputs": [],
      "stateMutability": "nonpayable",
      "type": "function"
    },
    {
      "inputs": [
        {
          "internalType": "address",
          "name": "_owner",
          "type": "address"
        },
        {
          "internalType": "address",
          "name": "_keeper",
          "type": "address"
        },
        {
          "internalType": "address",
          "name": "_feeRecipient",
          "type": "address"
        },
        {
          "internalType": "uint256",
          "name": "_managementFee",
          "type": "uint256"
        },
        {
          "internalType": "uint256",
          "name": "_performanceFee",
          "type": "uint256"
        },
        {
          "internalType": "string",
          "name": "_tokenName",
          "type": "string"
        },
        {
          "internalType": "string",
          "name": "_tokenSymbol",
          "type": "string"
        },
        {
          "internalType": "address",
          "name": "_optionsPremiumPricer",
          "type": "address"
        },
        {
          "internalType": "address",
          "name": "_strikeSelection",
          "type": "address"
        },
        {
          "internalType": "uint32",
          "name": "_premiumDiscount",
          "type": "uint32"
        },
        {
          "internalType": "uint256",
          "name": "_auctionDuration",
          "type": "uint256"
        },
        {
          "components": [
            {
              "internalType": "bool",
              "name": "isPut",
              "type": "bool"
            },
            {
              "internalType": "uint8",
              "name": "decimals",
              "type": "uint8"
            },
            {
              "internalType": "address",
              "name": "asset",
              "type": "address"
            },
            {
              "internalType": "address",
              "name": "underlying",
              "type": "address"
            },
            {
              "internalType": "uint56",
              "name": "minimumSupply",
              "type": "uint56"
            },
            {
              "internalType": "uint104",
              "name": "cap",
              "type": "uint104"
            }
          ],
          "internalType": "struct Vault.VaultParams",
          "name": "_vaultParams",
          "type": "tuple"
        }
      ],
      "name": "initialize",
      "outputs": [],
      "stateMutability": "nonpayable",
      "type": "function"
    },
    {
      "inputs": [
        {
          "internalType": "uint256",
          "name": "numShares",
          "type": "uint256"
        }
      ],
      "name": "initiateWithdraw",
      "outputs": [],
      "stateMutability": "nonpayable",
      "type": "function"
    },
    {
      "inputs": [],
      "name": "keeper",
      "outputs": [
        {
          "internalType": "address",
          "name": "",
          "type": "address"
        }
      ],
      "stateMutability": "view",
      "type": "function"
    },
    {
      "inputs": [],
      "name": "lastStrikeOverrideRound",
      "outputs": [
        {
          "internalType": "uint16",
          "name": "",
          "type": "uint16"
        }
      ],
      "stateMutability": "view",
      "type": "function"
    },
    {
      "inputs": [],
      "name": "managementFee",
      "outputs": [
        {
          "internalType": "uint256",
          "name": "",
          "type": "uint256"
        }
      ],
      "stateMutability": "view",
      "type": "function"
    },
    {
      "inputs": [],
      "name": "maxRedeem",
      "outputs": [],
      "stateMutability": "nonpayable",
      "type": "function"
    },
    {
      "inputs": [],
      "name": "name",
      "outputs": [
        {
          "internalType": "string",
          "name": "",
          "type": "string"
        }
      ],
      "stateMutability": "view",
      "type": "function"
    },
    {
      "inputs": [],
      "name": "nextOption",
      "outputs": [
        {
          "internalType": "address",
          "name": "",
          "type": "address"
        }
      ],
      "stateMutability": "view",
      "type": "function"
    },
    {
      "inputs": [],
      "name": "nextOptionReadyAt",
      "outputs": [
        {
          "internalType": "uint256",
          "name": "",
          "type": "uint256"
        }
      ],
      "stateMutability": "view",
      "type": "function"
    },
    {
      "inputs": [],
      "name": "optionAuctionID",
      "outputs": [
        {
          "internalType": "uint256",
          "name": "",
          "type": "uint256"
        }
      ],
      "stateMutability": "view",
      "type": "function"
    },
    {
      "inputs": [],
      "name": "optionState",
      "outputs": [
        {
          "internalType": "address",
          "name": "nextOption",
          "type": "address"
        },
        {
          "internalType": "address",
          "name": "currentOption",
          "type": "address"
        },
        {
          "internalType": "uint32",
          "name": "nextOptionReadyAt",
          "type": "uint32"
        }
      ],
      "stateMutability": "view",
      "type": "function"
    },
    {
      "inputs": [],
      "name": "optionsPremiumPricer",
      "outputs": [
        {
          "internalType": "address",
          "name": "",
          "type": "address"
        }
      ],
      "stateMutability": "view",
      "type": "function"
    },
    {
      "inputs": [],
      "name": "overriddenStrikePrice",
      "outputs": [
        {
          "internalType": "uint256",
          "name": "",
          "type": "uint256"
        }
      ],
      "stateMutability": "view",
      "type": "function"
    },
    {
      "inputs": [],
      "name": "owner",
      "outputs": [
        {
          "internalType": "address",
          "name": "",
          "type": "address"
        }
      ],
      "stateMutability": "view",
      "type": "function"
    },
    {
      "inputs": [],
      "name": "performanceFee",
      "outputs": [
        {
          "internalType": "uint256",
          "name": "",
          "type": "uint256"
        }
      ],
      "stateMutability": "view",
      "type": "function"
    },
    {
      "inputs": [],
      "name": "premiumDiscount",
      "outputs": [
        {
          "internalType": "uint256",
          "name": "",
          "type": "uint256"
        }
      ],
      "stateMutability": "view",
      "type": "function"
    },
    {
      "inputs": [],
      "name": "pricePerShare",
      "outputs": [
        {
          "internalType": "uint256",
          "name": "",
          "type": "uint256"
        }
      ],
      "stateMutability": "view",
      "type": "function"
    },
    {
      "inputs": [
        {
          "internalType": "uint256",
          "name": "numShares",
          "type": "uint256"
        }
      ],
      "name": "redeem",
      "outputs": [],
      "stateMutability": "nonpayable",
      "type": "function"
    },
    {
      "inputs": [],
      "name": "renounceOwnership",
      "outputs": [],
      "stateMutability": "nonpayable",
      "type": "function"
    },
    {
      "inputs": [],
      "name": "rollToNextOption",
      "outputs": [],
      "stateMutability": "nonpayable",
      "type": "function"
    },
    {
      "inputs": [
        {
          "internalType": "uint256",
          "name": "",
          "type": "uint256"
        }
      ],
      "name": "roundPricePerShare",
      "outputs": [
        {
          "internalType": "uint256",
          "name": "",
          "type": "uint256"
        }
      ],
      "stateMutability": "view",
      "type": "function"
    },
    {
      "inputs": [
        {
          "internalType": "uint256",
          "name": "newAuctionDuration",
          "type": "uint256"
        }
      ],
      "name": "setAuctionDuration",
      "outputs": [],
      "stateMutability": "nonpayable",
      "type": "function"
    },
    {
      "inputs": [
        {
          "internalType": "uint256",
          "name": "newCap",
          "type": "uint256"
        }
      ],
      "name": "setCap",
      "outputs": [],
      "stateMutability": "nonpayable",
      "type": "function"
    },
    {
      "inputs": [
        {
          "internalType": "address",
          "name": "newFeeRecipient",
          "type": "address"
        }
      ],
      "name": "setFeeRecipient",
      "outputs": [],
      "stateMutability": "nonpayable",
      "type": "function"
    },
    {
      "inputs": [
        {
          "internalType": "uint256",
          "name": "newManagementFee",
          "type": "uint256"
        }
      ],
      "name": "setManagementFee",
      "outputs": [],
      "stateMutability": "nonpayable",
      "type": "function"
    },
    {
      "inputs": [
        {
          "internalType": "address",
          "name": "newKeeper",
          "type": "address"
        }
      ],
      "name": "setNewKeeper",
      "outputs": [],
      "stateMutability": "nonpayable",
      "type": "function"
    },
    {
      "inputs": [
        {
          "internalType": "address",
          "name": "newOptionsPremiumPricer",
          "type": "address"
        }
      ],
      "name": "setOptionsPremiumPricer",
      "outputs": [],
      "stateMutability": "nonpayable",
      "type": "function"
    },
    {
      "inputs": [
        {
          "internalType": "uint256",
          "name": "newPerformanceFee",
          "type": "uint256"
        }
      ],
      "name": "setPerformanceFee",
      "outputs": [],
      "stateMutability": "nonpayable",
      "type": "function"
    },
    {
      "inputs": [
        {
          "internalType": "uint256",
          "name": "newPremiumDiscount",
          "type": "uint256"
        }
      ],
      "name": "setPremiumDiscount",
      "outputs": [],
      "stateMutability": "nonpayable",
      "type": "function"
    },
    {
      "inputs": [
        {
          "internalType": "uint128",
          "name": "strikePrice",
          "type": "uint128"
        }
      ],
      "name": "setStrikePrice",
      "outputs": [],
      "stateMutability": "nonpayable",
      "type": "function"
    },
    {
      "inputs": [
        {
          "internalType": "address",
          "name": "newStrikeSelection",
          "type": "address"
        }
      ],
      "name": "setStrikeSelection",
      "outputs": [],
      "stateMutability": "nonpayable",
      "type": "function"
    },
    {
      "inputs": [
        {
          "internalType": "address",
          "name": "account",
          "type": "address"
        }
      ],
      "name": "shareBalances",
      "outputs": [
        {
          "internalType": "uint256",
          "name": "heldByAccount",
          "type": "uint256"
        },
        {
          "internalType": "uint256",
          "name": "heldByVault",
          "type": "uint256"
        }
      ],
      "stateMutability": "view",
      "type": "function"
    },
    {
      "inputs": [
        {
          "internalType": "address",
          "name": "account",
          "type": "address"
        }
      ],
      "name": "shares",
      "outputs": [
        {
          "internalType": "uint256",
          "name": "",
          "type": "uint256"
        }
      ],
      "stateMutability": "view",
      "type": "function"
    },
    {
      "inputs": [],
      "name": "startAuction",
      "outputs": [],
      "stateMutability": "nonpayable",
      "type": "function"
    },
    {
      "inputs": [],
      "name": "strikeSelection",
      "outputs": [
        {
          "internalType": "address",
          "name": "",
          "type": "address"
        }
      ],
      "stateMutability": "view",
      "type": "function"
    },
    {
      "inputs": [],
      "name": "symbol",
      "outputs": [
        {
          "internalType": "string",
          "name": "",
          "type": "string"
        }
      ],
      "stateMutability": "view",
      "type": "function"
    },
    {
      "inputs": [],
      "name": "totalBalance",
      "outputs": [
        {
          "internalType": "uint256",
          "name": "",
          "type": "uint256"
        }
      ],
      "stateMutability": "view",
      "type": "function"
    },
    {
      "inputs": [],
      "name": "totalPending",
      "outputs": [
        {
          "internalType": "uint256",
          "name": "",
          "type": "uint256"
        }
      ],
      "stateMutability": "view",
      "type": "function"
    },
    {
      "inputs": [],
      "name": "totalSupply",
      "outputs": [
        {
          "internalType": "uint256",
          "name": "",
          "type": "uint256"
        }
      ],
      "stateMutability": "view",
      "type": "function"
    },
    {
      "inputs": [
        {
          "internalType": "address",
          "name": "recipient",
          "type": "address"
        },
        {
          "internalType": "uint256",
          "name": "amount",
          "type": "uint256"
        }
      ],
      "name": "transfer",
      "outputs": [
        {
          "internalType": "bool",
          "name": "",
          "type": "bool"
        }
      ],
      "stateMutability": "nonpayable",
      "type": "function"
    },
    {
      "inputs": [
        {
          "internalType": "address",
          "name": "sender",
          "type": "address"
        },
        {
          "internalType": "address",
          "name": "recipient",
          "type": "address"
        },
        {
          "internalType": "uint256",
          "name": "amount",
          "type": "uint256"
        }
      ],
      "name": "transferFrom",
      "outputs": [
        {
          "internalType": "bool",
          "name": "",
          "type": "bool"
        }
      ],
      "stateMutability": "nonpayable",
      "type": "function"
    },
    {
      "inputs": [
        {
          "internalType": "address",
          "name": "newOwner",
          "type": "address"
        }
      ],
      "name": "transferOwnership",
      "outputs": [],
      "stateMutability": "nonpayable",
      "type": "function"
    },
    {
      "inputs": [],
      "name": "upgradeYearnVault",
      "outputs": [],
      "stateMutability": "nonpayable",
      "type": "function"
    },
    {
      "inputs": [],
      "name": "vaultParams",
      "outputs": [
        {
          "internalType": "bool",
          "name": "isPut",
          "type": "bool"
        },
        {
          "internalType": "uint8",
          "name": "decimals",
          "type": "uint8"
        },
        {
          "internalType": "address",
          "name": "asset",
          "type": "address"
        },
        {
          "internalType": "address",
          "name": "underlying",
          "type": "address"
        },
        {
          "internalType": "uint56",
          "name": "minimumSupply",
          "type": "uint56"
        },
        {
          "internalType": "uint104",
          "name": "cap",
          "type": "uint104"
        }
      ],
      "stateMutability": "view",
      "type": "function"
    },
    {
      "inputs": [],
      "name": "vaultState",
      "outputs": [
        {
          "internalType": "uint16",
          "name": "round",
          "type": "uint16"
        },
        {
          "internalType": "uint104",
          "name": "lockedAmount",
          "type": "uint104"
        },
        {
          "internalType": "uint104",
          "name": "lastLockedAmount",
          "type": "uint104"
        },
        {
          "internalType": "uint128",
          "name": "totalPending",
          "type": "uint128"
        },
        {
          "internalType": "uint128",
          "name": "queuedWithdrawShares",
          "type": "uint128"
        }
      ],
      "stateMutability": "view",
      "type": "function"
    },
    {
      "inputs": [
        {
          "internalType": "uint256",
          "name": "amount",
          "type": "uint256"
        }
      ],
      "name": "withdrawInstantly",
      "outputs": [],
      "stateMutability": "nonpayable",
      "type": "function"
    },
    {
      "inputs": [
        {
          "internalType": "address",
          "name": "",
          "type": "address"
        }
      ],
      "name": "withdrawals",
      "outputs": [
        {
          "internalType": "uint16",
          "name": "round",
          "type": "uint16"
        },
        {
          "internalType": "uint128",
          "name": "shares",
          "type": "uint128"
        }
      ],
      "stateMutability": "view",
      "type": "function"
    }
  ],
  "transactionHash": "0x9b57a850bbbb8cfaad9d0bd64eaf5cafd3e51c46acddc06ec213992caedf93cf",
  "args": [
    "0xC02aaA39b223FE8D0A0e5C4F27eAD9083C756Cc2",
    "0xA0b86991c6218b36c1d19D4a2e9Eb0cE3606eB48",
    "0x7C06792Af1632E77cb27a558Dc0885338F4Bdf8E",
    "0x4ccc2339F87F6c59c6893E1A678c2266cA58dC72",
    "0x5934807cC0654d46755eBd2848840b616256C6Ef",
    "0x0b7fFc1f4AD541A4Ed16b40D8c37f0929158D101",
    "0x50c1a2eA0a861A967D9d0FFE2AE4012c2E053804"
  ],
  "solcInputHash": "4eed84bc941fd476eed24e6d422071d6",
  "bytecode": "0x6101606040523480156200001257600080fd5b5060405162005db738038062005db78339810160408190526200003591620002b6565b8686858585856001600160a01b038616620000805760405162461bcd60e51b8152602060048201526006602482015265042beeecae8d60d31b60448201526064015b60405180910390fd5b6001600160a01b038516620000c15760405162461bcd60e51b8152602060048201526006602482015265215f7573646360d01b604482015260640162000077565b6001600160a01b038216620001195760405162461bcd60e51b815260206004820152601360248201527f215f676e6f7369734561737941756374696f6e00000000000000000000000000604482015260640162000077565b6001600160a01b038416620001655760405162461bcd60e51b815260206004820152601160248201527010afb3b0b6b6b0a1b7b73a3937b63632b960791b604482015260640162000077565b6001600160a01b038316620001ac5760405162461bcd60e51b815260206004820152600c60248201526b0857db585c99da5b941bdbdb60a21b604482015260640162000077565b6001600160a01b038116620001f65760405162461bcd60e51b815260206004820152600f60248201526e215f796561726e526567697374727960881b604482015260640162000077565b6001600160601b0319606096871b811660805294861b851660a05292851b841660c05290841b831660e052831b82166101005290911b16610120526001600160a01b0385166200027b5760405162461bcd60e51b815260206004820152600f60248201526e215f6f546f6b656e466163746f727960881b604482015260640162000077565b5050505060601b6001600160601b03191661014052506200034a9050565b80516001600160a01b0381168114620002b157600080fd5b919050565b600080600080600080600060e0888a031215620002d1578283fd5b620002dc8862000299565b9650620002ec6020890162000299565b9550620002fc6040890162000299565b94506200030c6060890162000299565b93506200031c6080890162000299565b92506200032c60a0890162000299565b91506200033c60c0890162000299565b905092959891949750929550565b60805160601c60a05160601c60c05160601c60e05160601c6101005160601c6101205160601c6101405160601c6159b06200040760003960008181610b88015261293d01526000818161068b0152613ba50152600081816107be01526137f201526000818161070f015261239d0152600081816104df015281816116740152818161237b01526142320152600081816108d50152612962015260008181610ab90152818161102401528181612f76015261473001526159b06000f3fe608060405234801561001057600080fd5b50600436106104755760003560e01c806389a3027111610257578063b4d1d79511610146578063dd62ed3e116100c3578063f2fde38b11610087578063f2fde38b14610c1a578063f656ba5114610c2d578063f756fa2114610c55578063f957a06714610c5d578063fe56e23214610c7057600080fd5b8063dd62ed3e14610baa578063e16fdbd514610be3578063e73c63d514610bf6578063e74b981b14610bff578063ea00b1ca14610c1257600080fd5b8063d13f1b3e1161010a578063d13f1b3e14610b41578063d164cc1514610b54578063d5f2638214610b67578063db006a7514610b70578063db43e86214610b8357600080fd5b8063b4d1d79514610b09578063b6b55f2514610b13578063b9f8092b14610b26578063c1c4230d146107e0578063ce7c2ac214610b2e57600080fd5b8063a457c2d7116101d4578063aced166111610198578063aced166114610aa1578063ad5c464814610ab4578063ad7a672f14610adb578063afa6626414610ae3578063b2016bd414610af657600080fd5b8063a457c2d714610a57578063a497e67414610a6a578063a6f7f5d614610a7d578063a7a4490114610a86578063a9059cbb14610a8e57600080fd5b80639be43daa1161021b5780639be43daa146109295780639fcc2d751461093c578063a083ff17146109db578063a285c9e814610a31578063a2db9d8314610a4657600080fd5b806389a30271146108d05780638b10cc7c146108f75780638da5cb5b1461090857806395d89b411461091957806399530b061461092157600080fd5b80634603c0aa116103735780636f14fba2116102f05780637a9262a2116102b45780637a9262a2146108345780637e108d521461088b57806383536ff31461089e57806387153eb1146108a757806387788782146108c757600080fd5b80636f14fba2146107e05780636f31ab34146107e857806370897b23146107f057806370a0823114610803578063715018a61461082c57600080fd5b8063650cce8a11610337578063650cce8a1461070a5780636719b2ee1461073157806369b41170146107a85780636b64c769146107b15780636c10f66c146107b957600080fd5b80634603c0aa146106b657806346904840146106c957806347786d37146106dc57806355489bb2146106ef578063600a2cfb1461070257600080fd5b8063313ce567116104015780633ec143d3116103c55780633ec143d3146106415780633f23bb73146106625780633f90916a146106755780634215d91514610686578063432833a6146106ad57600080fd5b8063313ce567146105da57806331807e42146105f7578063355274ea1461060a57806336efd16f1461061b578063395093511461062e57600080fd5b80631a92f6c2116104485780631a92f6c2146104da57806323b872dd146105195780632728f3331461052c5780632775d01c146105b257806330630da4146105c757600080fd5b806306fdde031461047a578063095ea7b3146104985780630cbf54c8146104bb57806318160ddd146104d2575b600080fd5b610482610c83565b60405161048f91906154a7565b60405180910390f35b6104ab6104a6366004615141565b610d15565b604051901515815260200161048f565b6104c460fc5481565b60405190815260200161048f565b6099546104c4565b6105017f000000000000000000000000000000000000000000000000000000000000000081565b6040516001600160a01b03909116815260200161048f565b6104ab610527366004615101565b610d2c565b60cf5460d05461056d9161ffff8116916001600160681b03620100008304811692600160781b900416906001600160801b0380821691600160801b90041685565b6040805161ffff90961686526001600160681b03948516602087015293909216928401929092526001600160801b03918216606084015216608082015260a00161048f565b6105c56105c03660046151ed565b610ddd565b005b6105c56105d5366004614f92565b61109b565b60cc54610100900460ff1660405160ff909116815260200161048f565b6105c56106053660046151ed565b611133565b60ce546001600160681b03166104c4565b6105c561062936600461521d565b6112d2565b6104ab61063c366004615141565b611381565b60fa5461064f9061ffff1681565b60405161ffff909116815260200161048f565b6104c4610670366004614f92565b6113bd565b60d0546001600160801b03166104c4565b6105017f000000000000000000000000000000000000000000000000000000000000000081565b6104c460fd5481565b6105c56106c4366004614f92565b611410565b60d354610501906001600160a01b031681565b6105c56106ea3660046151ed565b6114b2565b6105c56106fd3660046151c6565b611547565b6105c5611608565b6105017f000000000000000000000000000000000000000000000000000000000000000081565b61077761073f366004614f92565b60c96020526000908152604090205461ffff8116906201000081046001600160681b031690600160781b90046001600160801b031683565b6040805161ffff90941684526001600160681b0390921660208401526001600160801b03169082015260600161048f565b6104c461038481565b6105c56117db565b6105017f000000000000000000000000000000000000000000000000000000000000000081565b6104c4600581565b6105c561183b565b6105c56107fe3660046151ed565b611872565b6104c4610811366004614f92565b6001600160a01b031660009081526097602052604090205490565b6105c5611939565b610869610842366004614f92565b60cb6020526000908152604090205461ffff8116906201000090046001600160801b031682565b6040805161ffff90931683526001600160801b0390911660208301520161048f565b6105c56108993660046151ed565b61196f565b6104c460f85481565b6104c46108b53660046151ed565b60ca6020526000908152604090205481565b6104c460d55481565b6105017f000000000000000000000000000000000000000000000000000000000000000081565b60d2546001600160a01b0316610501565b6065546001600160a01b0316610501565b610482611baa565b6104c4611bb9565b6105c56109373660046151ed565b611bf3565b60cc5460cd5460ce5461098b9260ff808216936101008304909116926001600160a01b036201000090930483169282169166ffffffffffffff600160a01b90910416906001600160681b031686565b60408051961515875260ff90951660208701526001600160a01b03938416948601949094529116606084015266ffffffffffffff1660808301526001600160681b031660a082015260c00161048f565b60d15460d254610a05916001600160a01b039081169190811690600160a01b900463ffffffff1683565b604080516001600160a01b03948516815293909216602084015263ffffffff169082015260600161048f565b60d254600160a01b900463ffffffff166104c4565b60d1546001600160a01b0316610501565b6104ab610a65366004615141565b611d27565b6105c5610a783660046151ed565b611dc0565b6104c460d65481565b6105c5611e7d565b6104ab610a9c366004615141565b611fb6565b60d454610501906001600160a01b031681565b6105017f000000000000000000000000000000000000000000000000000000000000000081565b6104c4611fc3565b60f654610501906001600160a01b031681565b60d754610501906001600160a01b031681565b6104c462093a8081565b6105c5610b213660046151ed565b612130565b6105c56121a4565b6104c4610b3c366004614f92565b612422565b6105c5610b4f3660046151ed565b61243f565b6105c5610b62366004614f92565b612503565b6104c460f95481565b6105c5610b7e3660046151ed565b612592565b6105017f000000000000000000000000000000000000000000000000000000000000000081565b6104c4610bb8366004614fca565b6001600160a01b03918216600090815260986020908152604080832093909416825291909152205490565b6105c5610bf1366004615002565b6125ff565b6104c460fb5481565b6105c5610c0d366004614f92565b61280b565b6105c56128fe565b6105c5610c28366004614f92565b612b65565b610c40610c3b366004614f92565b612c00565b6040805192835260208301919091520161048f565b6105c5612ce3565b60f754610501906001600160a01b031681565b6105c5610c7e3660046151ed565b612fb3565b6060609a8054610c929061576a565b80601f0160208091040260200160405190810160405280929190818152602001828054610cbe9061576a565b8015610d0b5780601f10610ce057610100808354040283529160200191610d0b565b820191906000526020600020905b815481529060010190602001808311610cee57829003601f168201915b5050505050905090565b6000610d2233848461304d565b5060015b92915050565b6000610d39848484613172565b6001600160a01b038416600090815260986020908152604080832033845290915290205482811015610dc35760405162461bcd60e51b815260206004820152602860248201527f45524332303a207472616e7366657220616d6f756e74206578636565647320616044820152676c6c6f77616e636560c01b60648201526084015b60405180910390fd5b610dd0853385840361304d565b60019150505b9392505050565b60026001541415610e005760405162461bcd60e51b8152600401610dba9061557f565b600260015533600090815260c96020526040902060cf5461ffff1682610e385760405162461bcd60e51b8152600401610dba9061555e565b815461ffff168114610e7c5760405162461bcd60e51b815260206004820152600d60248201526c125b9d985b1a59081c9bdd5b99609a1b6044820152606401610dba565b81546201000090046001600160681b031683811015610ecd5760405162461bcd60e51b815260206004820152600d60248201526c115e18d9595908185b5bdd5b9d609a1b6044820152606401610dba565b610ed78185613342565b83546001600160681b0391909116620100000262010000600160781b031990911617835560d054610f11906001600160801b031685613342565b60d080546001600160801b0319166001600160801b0392909216919091179055604080518581526020810184905233917fab2daf3c146ca6416cbccd2a86ed2ba995e171ef6319df14a38aef01403a9c96910160405180910390a260cc5460d754604051633fd5c25d60e11b815273aCB7f3Baf1D9986760c0A470CD14cEcA7544D4D092637fab84ba92610fc29289926001600160a01b0362010000909104811692169060059081906004016155b6565b60006040518083038186803b158015610fda57600080fd5b505af4158015610fee573d6000803e3d6000fd5b505060cc54604051634cc8d10160e11b815273aCB7f3Baf1D9986760c0A470CD14cEcA7544D4D09350639991a2029250611061917f000000000000000000000000000000000000000000000000000000000000000091620100009091046001600160a01b03169033908a906004016152eb565b60006040518083038186803b15801561107957600080fd5b505af415801561108d573d6000803e3d6000fd5b505060018055505050505050565b6065546001600160a01b031633146110c55760405162461bcd60e51b8152600401610dba90615529565b6001600160a01b0381166111115760405162461bcd60e51b815260206004820152601360248201527210b732bba9ba3934b5b2a9b2b632b1ba34b7b760691b6044820152606401610dba565b60f780546001600160a01b0319166001600160a01b0392909216919091179055565b600260015414156111565760405162461bcd60e51b8152600401610dba9061557f565b6002600155806111785760405162461bcd60e51b8152600401610dba9061555e565b60d754604051630c279a2f60e41b81526001600160a01b0390911660048201526000906112a69083906112a19073aCB7f3Baf1D9986760c0A470CD14cEcA7544D4D09063c279a2f0906024015b60206040518083038186803b1580156111dd57600080fd5b505af41580156111f1573d6000803e3d6000fd5b505050506040513d601f19601f820116820180604052508101906112159190615205565b60d760009054906101000a90046001600160a01b03166001600160a01b03166399530b066040518163ffffffff1660e01b815260040160206040518083038186803b15801561126357600080fd5b505afa158015611277573d6000803e3d6000fd5b505050506040513d601f19601f8201168201806040525081019061129b9190615205565b9061334e565b61335a565b90506112b28133613394565b60d7546112ca906001600160a01b0316333085613620565b505060018055565b600260015414156112f55760405162461bcd60e51b8152600401610dba9061557f565b6002600155816113175760405162461bcd60e51b8152600401610dba9061555e565b6001600160a01b0381166113595760405162461bcd60e51b815260206004820152600960248201526810b1b932b234ba37b960b91b6044820152606401610dba565b6113638282613394565b60cc546112ca906201000090046001600160a01b0316333085613620565b3360008181526098602090815260408083206001600160a01b03871684529091528120549091610d229185906113b89086906155e5565b61304d565b60cc5460009060ff61010090910416816113f36113d960995490565b6113e1611fc3565b60d0546001600160801b03168561367a565b905061140861140185612422565b82846136ba565b949350505050565b6065546001600160a01b0316331461143a5760405162461bcd60e51b8152600401610dba90615529565b6001600160a01b0381166114905760405162461bcd60e51b815260206004820152601860248201527f216e65774f7074696f6e735072656d69756d50726963657200000000000000006044820152606401610dba565b60f680546001600160a01b0319166001600160a01b0392909216919091179055565b6065546001600160a01b031633146114dc5760405162461bcd60e51b8152600401610dba90615529565b600081116115165760405162461bcd60e51b81526020600482015260076024820152660216e65774361760cc1b6044820152606401610dba565b61151f8161371c565b60ce80546cffffffffffffffffffffffffff19166001600160681b0392909216919091179055565b6065546001600160a01b031633146115715760405162461bcd60e51b8152600401610dba90615529565b600260015414156115945760405162461bcd60e51b8152600401610dba9061557f565b60026001556001600160801b0381166115de5760405162461bcd60e51b815260206004820152600c60248201526b21737472696b65507269636560a01b6044820152606401610dba565b6001600160801b031660fb5560cf5460fa805461ffff191661ffff90921691909117905560018055565b60d4546001600160a01b031633146116325760405162461bcd60e51b8152600401610dba906154ba565b600260015414156116555760405162461bcd60e51b8152600401610dba9061557f565b600260015560d2546040516358ffbb3d60e01b81526001600160a01b037f00000000000000000000000000000000000000000000000000000000000000008116600483015290911660248201526000907314Cc2c0b624e437202B53E533147982842865511906358ffbb3d9060440160206040518083038186803b1580156116dc57600080fd5b505af41580156116f0573d6000803e3d6000fd5b505050506040513d601f19601f820116820180604052508101906117149190615205565b60cf54909150611733906201000090046001600160681b031682613342565b60cf805462010000600160781b031916620100006001600160681b0393909316830217905560cc5460d754604051634c03c9a760e01b8152929091046001600160a01b03908116600484015216602482015273aCB7f3Baf1D9986760c0A470CD14cEcA7544D4D090634c03c9a79060440160006040518083038186803b1580156117bc57600080fd5b505af41580156117d0573d6000803e3d6000fd5b505060018055505050565b60d4546001600160a01b031633146118055760405162461bcd60e51b8152600401610dba906154ba565b600260015414156118285760405162461bcd60e51b8152600401610dba9061557f565b6002600155611835613766565b60018055565b6002600154141561185e5760405162461bcd60e51b8152600401610dba9061557f565b600260018190555061183560006001613901565b6065546001600160a01b0316331461189c5760405162461bcd60e51b8152600401610dba90615529565b6118aa620f42406064615708565b81106118f85760405162461bcd60e51b815260206004820152601760248201527f496e76616c696420706572666f726d616e6365206665650000000000000000006044820152606401610dba565b60d55460408051918252602082018390527f24867dfb6fcb9970a07be21024956524abe7a1837faa903ff0e99aaa40cf893e910160405180910390a160d555565b6065546001600160a01b031633146119635760405162461bcd60e51b8152600401610dba90615529565b61196d6000613ad2565b565b600260015414156119925760405162461bcd60e51b8152600401610dba9061557f565b6002600155806119d15760405162461bcd60e51b815260206004820152600a602482015269216e756d53686172657360b01b6044820152606401610dba565b33600090815260c960205260409020546201000090046001600160681b0316151580611a1b575033600090815260c96020526040902054600160781b90046001600160801b031615155b15611a2c57611a2c60006001613901565b60cf5433600081815260cb60209081526040918290208054835187815261ffff96871693810184905292959194911685149290917f0c53c82ad07e2d592d88ece3b066777dd60f1118e2a081b380efc4358f0d9e2a910160405180910390a281546201000090046001600160801b031660008215611ab557611aae8287613b24565b9050611b18565b8115611af75760405162461bcd60e51b81526020600482015260116024820152704578697374696e6720776974686472617760781b6044820152606401610dba565b5033600090815260cb60205260409020805461ffff191661ffff8616179055845b611b2181613b30565b33600090815260cb6020526040812080546001600160801b03808516620100000262010000600160901b03199092169190911790915560d054611b6d91600160801b9091041688613b24565b9050611b7881613b30565b60d080546001600160801b03808416600160801b029116179055611b9d333089613172565b5050600180555050505050565b6060609b8054610c929061576a565b6000611bee611bc760995490565b611bcf611fc3565b60d05460cc546001600160801b0390911690610100900460ff1661367a565b905090565b60026001541415611c165760405162461bcd60e51b8152600401610dba9061557f565b600260015580611c555760405162461bcd60e51b815260206004820152600a602482015269216e756d526f756e647360b01b6044820152606401610dba565b60cf5461ffff1660005b82811015611d1e576000611c7382846155e5565b905082811015611cb05760405162461bcd60e51b81526020600482015260086024820152674f766572666c6f7760c01b6044820152606401610dba565b600081815260ca602052604090205415611cfa5760405162461bcd60e51b815260206004820152600b60248201526a125b9a5d1a585b1a5e995960aa1b6044820152606401610dba565b600090815260ca602052604090206001905580611d168161579f565b915050611c5f565b50506001805550565b3360009081526098602090815260408083206001600160a01b038616845290915281205482811015611da95760405162461bcd60e51b815260206004820152602560248201527f45524332303a2064656372656173656420616c6c6f77616e63652062656c6f77604482015264207a65726f60d81b6064820152608401610dba565b611db6338585840361304d565b5060019392505050565b6065546001600160a01b03163314611dea5760405162461bcd60e51b8152600401610dba90615529565b610e10811015611e3c5760405162461bcd60e51b815260206004820152601860248201527f496e76616c69642061756374696f6e206475726174696f6e00000000000000006044820152606401610dba565b60fc5460408051918252602082018390527f5acd982e2240ed224a69aa03dab039d3797c108e4b5f288cd7dd6ca181b275f3910160405180910390a160fc55565b6065546001600160a01b03163314611ea75760405162461bcd60e51b8152600401610dba90615529565b60d7546040516370a0823160e01b815230600482015273aCB7f3Baf1D9986760c0A470CD14cEcA7544D4D091637fab84ba916001600160a01b03909116906370a082319060240160206040518083038186803b158015611f0657600080fd5b505afa158015611f1a573d6000803e3d6000fd5b505050506040513d601f19601f82011682018060405250810190611f3e9190615205565b60cc5460d7546040516001600160e01b031960e086901b168152611f7e93926001600160a01b0362010000909104811692169060059081906004016155b6565b60006040518083038186803b158015611f9657600080fd5b505af4158015611faa573d6000803e3d6000fd5b5050505061196d613b7a565b6000610d22338484613172565b60d7546040516370a0823160e01b8152306004820152600091611bee9161208f916001600160a01b0316906370a082319060240160206040518083038186803b15801561200f57600080fd5b505afa158015612023573d6000803e3d6000fd5b505050506040513d601f19601f820116820180604052508101906120479190615205565b60d754604051630c279a2f60e41b81526001600160a01b0390911660048201526112a19073aCB7f3Baf1D9986760c0A470CD14cEcA7544D4D09063c279a2f0906024016111c5565b60cc546040516370a0823160e01b815230600482015261212a916201000090046001600160a01b0316906370a082319060240160206040518083038186803b1580156120da57600080fd5b505afa1580156120ee573d6000803e3d6000fd5b505050506040513d601f19601f820116820180604052508101906121129190615205565b60cf546201000090046001600160681b031690613b24565b90613b24565b600260015414156121535760405162461bcd60e51b8152600401610dba9061557f565b6002600155806121755760405162461bcd60e51b8152600401610dba9061555e565b61217f8133613394565b60cc5461219d906201000090046001600160a01b0316333084613620565b5060018055565b60d4546001600160a01b031633146121ce5760405162461bcd60e51b8152600401610dba906154ba565b600260015414156121f15760405162461bcd60e51b8152600401610dba9061557f565b6002600155600080612201613c8e565b909250905060006122fd61227c61222f61222861271061222287600561334e565b90613fc2565b8590613b24565b60d754604051630c279a2f60e41b81526001600160a01b0390911660048201526122779073aCB7f3Baf1D9986760c0A470CD14cEcA7544D4D09063c279a2f0906024016111c5565b613fce565b60d7546040516370a0823160e01b81523060048201526001600160a01b03909116906370a082319060240160206040518083038186803b1580156122bf57600080fd5b505afa1580156122d3573d6000803e3d6000fd5b505050506040513d601f19601f820116820180604052508101906122f79190615205565b90613342565b9050336001600160a01b0316836001600160a01b03167f045c558fdce4714c5816d53820d27420f4cd860892df203fe636384d8d19aa018360405161234491815260200190565b60405180910390a3604051632904c23960e01b81527314Cc2c0b624e437202B53E53314798284286551190632904c239906123c9907f0000000000000000000000000000000000000000000000000000000000000000907f000000000000000000000000000000000000000000000000000000000000000090889087906004016152eb565b60206040518083038186803b1580156123e157600080fd5b505af41580156123f5573d6000803e3d6000fd5b505050506040513d601f19601f820116820180604052508101906124199190615205565b50611d1e613766565b600080600061243084612c00565b90925090506114088282613b24565b6065546001600160a01b031633146124695760405162461bcd60e51b8152600401610dba90615529565b6000811180156124835750612480600a6064615708565b81105b6124c25760405162461bcd60e51b815260206004820152601060248201526f125b9d985b1a5908191a5cd8dbdd5b9d60821b6044820152606401610dba565b60f85460408051918252602082018390527f4cd657fde404967d63a338fb06c5c98751a9df57dfae6dc333a432faf8a5f656910160405180910390a160f855565b6065546001600160a01b0316331461252d5760405162461bcd60e51b8152600401610dba90615529565b6001600160a01b0381166125705760405162461bcd60e51b815260206004820152600a60248201526910b732bba5b2b2b832b960b11b6044820152606401610dba565b60d480546001600160a01b0319166001600160a01b0392909216919091179055565b600260015414156125b55760405162461bcd60e51b8152600401610dba9061557f565b6002600155806125f45760405162461bcd60e51b815260206004820152600a602482015269216e756d53686172657360b01b6044820152606401610dba565b61219d816000613901565b600054610100900460ff1680612618575060005460ff16155b6126345760405162461bcd60e51b8152600401610dba906154db565b600054610100900460ff16158015612656576000805461ffff19166101011790555b6126668d8d8d8d8d8d8d89613ff1565b6001600160a01b0386166126b55760405162461bcd60e51b815260206004820152601660248201527510afb7b83a34b7b739a83932b6b4bab6a83934b1b2b960511b6044820152606401610dba565b6001600160a01b0385166126ff5760405162461bcd60e51b815260206004820152601160248201527010afb9ba3934b5b2a9b2b632b1ba34b7b760791b6044820152606401610dba565b60008463ffffffff16118015612725575061271c600a6064615708565b8463ffffffff16105b6127655760405162461bcd60e51b81526020600482015260116024820152700857dc1c995b5a5d5b511a5cd8dbdd5b9d607a1b6044820152606401610dba565b610e108310156127ab5760405162461bcd60e51b815260206004820152601160248201527010afb0bab1ba34b7b7223ab930ba34b7b760791b6044820152606401610dba565b60f680546001600160a01b038089166001600160a01b03199283161790925560f780549288169290911691909117905563ffffffff841660f85560fc83905580156127fc576000805461ff00191690555b50505050505050505050505050565b6065546001600160a01b031633146128355760405162461bcd60e51b8152600401610dba90615529565b6001600160a01b03811661287e5760405162461bcd60e51b815260206004820152601060248201526f085b995dd19959549958da5c1a595b9d60821b6044820152606401610dba565b60d3546001600160a01b03828116911614156128dc5760405162461bcd60e51b815260206004820152601860248201527f4d757374206265206e657720666565526563697069656e7400000000000000006044820152606401610dba565b60d380546001600160a01b0319166001600160a01b0392909216919091179055565b600260015414156129215760405162461bcd60e51b8152600401610dba9061557f565b600260015560d2546040805160c0810182526001600160a01b037f0000000000000000000000000000000000000000000000000000000000000000811682527f000000000000000000000000000000000000000000000000000000000000000081166020830152928316818301819052610384606083015260fa5461ffff16608083015260fb5460a083015260f75460f65460f85460d75495516303a20e3d60e01b81529396949560009586958695869573aCB7f3Baf1D9986760c0A470CD14cEcA7544D4D0956303a20e3d95612a0f95938416949284169391928d9260cc9260cf9291169060040161540f565b60806040518083038186803b158015612a2757600080fd5b505af4158015612a3b573d6000803e3d6000fd5b505050506040513d601f19601f82011682018060405250810190612a5f919061516c565b93509350935093507fa217999b1c125c2a996f712c5f26a28addad7167bd8a67d5bd5b2a751148abb08282604051612aa1929190918252602082015260400190565b60405180910390a1612ab28361371c565b6001600160681b03831660f95560d180546001600160a01b0319166001600160a01b0386161790556000612ae842610384613b24565b905063ffffffff811115612b3e5760405162461bcd60e51b815260206004820152601860248201527f4f766572666c6f77206e6578744f7074696f6e526561647900000000000000006044820152606401610dba565b60d2805463ffffffff60a01b1916600160a01b63ffffffff841602179055611b9d876141c1565b6065546001600160a01b03163314612b8f5760405162461bcd60e51b8152600401610dba90615529565b6001600160a01b038116612bf45760405162461bcd60e51b815260206004820152602660248201527f4f776e61626c653a206e6577206f776e657220697320746865207a65726f206160448201526564647265737360d01b6064820152608401610dba565b612bfd81613ad2565b50565b6001600160a01b038116600090815260c9602090815260408083208151606081018352905461ffff81168083526201000082046001600160681b031694830194909452600160781b90046001600160801b031691810191909152829160011115612c82575050506001600160a01b031660009081526097602052604081205491565b60cf54815161ffff908116600090815260ca602052604081205460cc549193612cb893869391169190610100900460ff16614314565b9050612cd9856001600160a01b031660009081526097602052604090205490565b9590945092505050565b60026001541415612d065760405162461bcd60e51b8152600401610dba9061557f565b600260015533600090815260cb6020526040902080546001600160801b03620100008204169061ffff1681612d6d5760405162461bcd60e51b815260206004820152600d60248201526c139bdd081a5b9a5d1a585d1959609a1b6044820152606401610dba565b60cf5461ffff168110612db55760405162461bcd60e51b815260206004820152601060248201526f149bdd5b99081b9bdd0818db1bdcd95960821b6044820152606401610dba565b33600090815260cb60205260409020805462010000600160901b031916905560d054612df190600160801b90046001600160801b031683613342565b60d080546001600160801b03928316600160801b029216919091179055600081815260ca602052604081205460cc54612e3491859160ff610100909104166136ba565b604080518281526020810186905291925033917ff279e6a1f5e320cca91135676d9cb6e44ca8a08c0b88342bcdb1144f6511b568910160405180910390a2612e7c3084614385565b60cc5460d754604051633fd5c25d60e11b815273aCB7f3Baf1D9986760c0A470CD14cEcA7544D4D092637fab84ba92612ed29286926001600160a01b0362010000909104811692169060059081906004016155b6565b60006040518083038186803b158015612eea57600080fd5b505af4158015612efe573d6000803e3d6000fd5b5050505060008111612f445760405162461bcd60e51b815260206004820152600f60248201526e085dda5d1a191c985dd05b5bdd5b9d608a1b6044820152606401610dba565b60cc54604051634cc8d10160e11b815273aCB7f3Baf1D9986760c0A470CD14cEcA7544D4D091639991a20291611061917f000000000000000000000000000000000000000000000000000000000000000091620100009091046001600160a01b031690339087906004016152eb565b6065546001600160a01b03163314612fdd5760405162461bcd60e51b8152600401610dba90615529565b612feb620f42406064615708565b81106130325760405162461bcd60e51b8152602060048201526016602482015275496e76616c6964206d616e6167656d656e742066656560501b6044820152606401610dba565b61304763031ba30961222283620f424061334e565b60d65550565b6001600160a01b0383166130af5760405162461bcd60e51b8152602060048201526024808201527f45524332303a20617070726f76652066726f6d20746865207a65726f206164646044820152637265737360e01b6064820152608401610dba565b6001600160a01b0382166131105760405162461bcd60e51b815260206004820152602260248201527f45524332303a20617070726f766520746f20746865207a65726f206164647265604482015261737360f01b6064820152608401610dba565b6001600160a01b0383811660008181526098602090815260408083209487168084529482529182902085905590518481527f8c5be1e5ebec7d5bd14f71427d1e84f3dd0314c0f7b2291e5b200ac8c7c3b92591015b60405180910390a3505050565b6001600160a01b0383166131d65760405162461bcd60e51b815260206004820152602560248201527f45524332303a207472616e736665722066726f6d20746865207a65726f206164604482015264647265737360d81b6064820152608401610dba565b6001600160a01b0382166132385760405162461bcd60e51b815260206004820152602360248201527f45524332303a207472616e7366657220746f20746865207a65726f206164647260448201526265737360e81b6064820152608401610dba565b6001600160a01b038316600090815260976020526040902054818110156132b05760405162461bcd60e51b815260206004820152602660248201527f45524332303a207472616e7366657220616d6f756e7420657863656564732062604482015265616c616e636560d01b6064820152608401610dba565b6001600160a01b038085166000908152609760205260408082208585039055918516815290812080548492906132e79084906155e5565b92505081905550826001600160a01b0316846001600160a01b03167fddf252ad1be2c89b69c2b068fc378daa952ba7f163c4a11628f55a4df523b3ef8460405161333391815260200190565b60405180910390a35b50505050565b6000610dd68284615727565b6000610dd68284615708565b6000670de0b6b3a764000061338a61337285856144d0565b6133856002670de0b6b3a76400006155fd565b614537565b610dd691906155fd565b60cf5461ffff1660006133a98461212a611fc3565b60ce549091506001600160681b03168111156133f45760405162461bcd60e51b815260206004820152600a6024820152690457863656564206361760b41b6044820152606401610dba565b60cd54600160a01b900466ffffffffffffff1681101561344d5760405162461bcd60e51b8152602060048201526014602482015273496e73756666696369656e742062616c616e636560601b6044820152606401610dba565b60408051858152602081018490526001600160a01b038516917f90890809c654f11d6e72a28fa60149770a0d11ec6c92319d6ceb2bb0a4ea1a15910160405180910390a26001600160a01b038316600090815260c9602090815260408083208151606081018352905461ffff81168083526201000082046001600160681b031683860152600160781b9091046001600160801b031682840152845260ca90925282205460cc5491929161350c918491879190610100900460ff16614314565b8251909150869061ffff1685141561353d576020830151600090613539906001600160681b031689613b24565b9150505b6135468161371c565b6040805160608101825261ffff80881682526001600160681b0380851660208085019182526001600160801b038089168688019081526001600160a01b038e16600090815260c990935296822095518654935197518216600160781b02600160781b600160f81b03199890951662010000026effffffffffffffffffffffffffffff1990941695169490941791909117949094161790915560d0546135ec911689613b24565b90506135f781613b30565b60d080546001600160801b0319166001600160801b039290921691909117905550505050505050565b604080516001600160a01b0385811660248301528416604482015260648082018490528251808303909101815260849091019091526020810180516001600160e01b03166323b872dd60e01b17905261333c90859061458c565b60008061368883600a615660565b90506000861161369857806136b0565b6136b0866122226136a98888613342565b849061334e565b9695505050505050565b6000600183116137045760405162461bcd60e51b8152602060048201526015602482015274496e76616c6964206173736574506572536861726560581b6044820152606401610dba565b61140861371283600a615660565b612222868661334e565b6001600160681b03811115612bfd5760405162461bcd60e51b815260206004820152601060248201526f13dd995c999b1bddc81d5a5b9d0c4c0d60821b6044820152606401610dba565b6040805160c081018252600080825260208201819052918101829052606081018290526080810182905260a081019190915260f954806137e05760405162461bcd60e51b81526020600482015260156024820152742163757272656e744f746f6b656e5072656d69756d60581b6044820152606401610dba565b60d2546001600160a01b0390811683527f000000000000000000000000000000000000000000000000000000000000000081166020840190815260cc546201000081048316604080870191825261010090920460ff16606087019081526080870186815260fc5460a089019081529351633baf17fd60e21b8152885187166004820152945186166024860152915190941660448401529251606483015291516084820152905160a48201527314Cc2c0b624e437202B53E5331479828428655119063eebc5ff49060c40160206040518083038186803b1580156138c257600080fd5b505af41580156138d6573d6000803e3d6000fd5b505050506040513d601f19601f820116820180604052508101906138fa9190615205565b60fd555050565b33600090815260c9602090815260408083208151606081018352905461ffff8082168084526201000083046001600160681b031684870152600160781b9092046001600160801b03168385015260cf5491865260ca9094529184205460cc549194929093169261397c9185918591610100900460ff16614314565b905083613989578461398b565b805b945084613999575050505050565b808511156139dd5760405162461bcd60e51b81526020600482015260116024820152704578636565647320617661696c61626c6560781b6044820152606401610dba565b825161ffff1682116139f35782602001516139f6565b60005b33600090815260c96020526040902080546001600160681b0392909216620100000262010000600160781b0319909216919091179055613a3585613b30565b613a3f8186613342565b33600081815260c960205260409081902080546001600160801b0394909416600160781b02600160781b600160f81b0319909416939093179092558451915190917fe5b754fb1abb7f01b499791d0b820ae3b6af3424ac1c59768edb53f4ec31a92991613ab89189825261ffff16602082015260400190565b60405180910390a2613acb303387613172565b5050505050565b606580546001600160a01b038381166001600160a01b0319831681179093556040519116919082907f8be0079c531659141344cd1fd0a4f28419497f9722a3daafe3b4186f6b6457e090600090a35050565b6000610dd682846155e5565b6001600160801b03811115612bfd5760405162461bcd60e51b815260206004820152601060248201526f09eeccae4ccd8deee40ead2dce86264760831b6044820152606401610dba565b60cc54604051630e177dc760e41b81526001600160a01b0362010000909204821660048201526000917f0000000000000000000000000000000000000000000000000000000000000000169063e177dc7090602401602060405180830381600087803b158015613be957600080fd5b505af1158015613bfd573d6000803e3d6000fd5b505050506040513d601f19601f82011682018060405250810190613c219190614fae565b90506001600160a01b038116613c6c5760405162461bcd60e51b815260206004820152601060248201526f10b1b7b63630ba32b930b62a37b5b2b760811b6044820152606401610dba565b60d780546001600160a01b0319166001600160a01b0392909216919091179055565b60d2546000908190600160a01b900463ffffffff16421015613cdb5760405162461bcd60e51b815260206004820152600660248201526521726561647960d01b6044820152606401610dba565b60d1546001600160a01b031680613d225760405162461bcd60e51b815260206004820152600b60248201526a10b732bc3a27b83a34b7b760a91b6044820152606401610dba565b60008060008073aCB7f3Baf1D9986760c0A470CD14cEcA7544D4D063c29d2a3c613d4b60995490565b613d53611fc3565b6040516001600160e01b031960e085901b1681526004810192909252602482015260cc5460ff80821615156044840152600882901c1660648301526001600160a01b03601091821c8116608484015260cd5490811660a484015260a01c66ffffffffffffff1660c483015260ce546001600160681b0390811660e484015260cf5461ffff81166101048501529182901c811661012484015260789190911c1661014482015260d0546001600160801b03811661016483015260801c6101848201526101a40160806040518083038186803b158015613e3057600080fd5b505af4158015613e44573d6000803e3d6000fd5b505050506040513d601f19601f82011682018060405250810190613e68919061526e565b60d280546001600160a01b038b166001600160a01b03199182161790915560d18054909116905560cf5461ffff16600081815260ca6020526040902083905593975091955093509150613ecd613ec6613ec18787613b24565b61465e565b8690613342565b60d080546001600160801b03191690559450613eea8160016155e5565b60cf805461ffff191661ffff92909216919091179055613f098561371c565b60cf805462010000600160781b031916620100006001600160681b03881602179055613f353083614848565b60cc5460d754604051634c03c9a760e01b8152620100009092046001600160a01b03908116600484015216602482015273aCB7f3Baf1D9986760c0A470CD14cEcA7544D4D090634c03c9a79060440160006040518083038186803b158015613f9c57600080fd5b505af4158015613fb0573d6000803e3d6000fd5b50979a95995094975050505050505050565b6000610dd682846155fd565b60008161338a613fe685670de0b6b3a76400006144d0565b6133856002866155fd565b600054610100900460ff168061400a575060005460ff16155b6140265760405162461bcd60e51b8152600401610dba906154db565b600054610100900460ff16158015614048576000805461ffff19166101011790555b60405163c72733f760e01b81527314Cc2c0b624e437202B53E5331479828428655119063c72733f79061408d908c908c908c908b908d908c908c908c90600401615315565b60006040518083038186803b1580156140a557600080fd5b505af41580156140b9573d6000803e3d6000fd5b505050506140c5614927565b6140cf848461499a565b6140d7614a19565b6140e089612b65565b60d480546001600160a01b03808b166001600160a01b03199283161790925560d38054928a169290911691909117905560d585905561412a63031ba30961222288620f424061334e565b60d6558160cc61413a828261580d565b905050614145613b7a565b600061414f611fc3565b905061415a8161371c565b60cf805461ffff196001600160681b03909316600160781b02929092167fffffffff00000000000000000000000000ffffffffffffffffffffffffff000090921691909117600117905580156141b6576000805461ff00191690555b505050505050505050565b60d280546001600160a01b031916905560cf805462010000600160e01b03198116620100009091046001600160681b0316600160781b810262010000600160781b031916919091179091556001600160a01b0382161561431057604051636c6fe87f60e11b81526001600160a01b037f00000000000000000000000000000000000000000000000000000000000000001660048201526000907314Cc2c0b624e437202B53E5331479828428655119063d8dfd0fe9060240160206040518083038186803b15801561429157600080fd5b505af41580156142a5573d6000803e3d6000fd5b505050506040513d601f19601f820116820180604052508101906142c99190615205565b9050336001600160a01b0316836001600160a01b03167f7e830f7c1771deb1bdb35c4a7e6051bbac32b376f7f4e4976b8618b0b11997f78360405161316591815260200190565b5050565b835160009061ffff161580159061432f5750845161ffff1684115b1561437157600061434e86602001516001600160681b03168585614a80565b6040870151909150614369906001600160801b031682613b24565b915050611408565b50505050604001516001600160801b031690565b6001600160a01b0382166143e55760405162461bcd60e51b815260206004820152602160248201527f45524332303a206275726e2066726f6d20746865207a65726f206164647265736044820152607360f81b6064820152608401610dba565b6001600160a01b038216600090815260976020526040902054818110156144595760405162461bcd60e51b815260206004820152602260248201527f45524332303a206275726e20616d6f756e7420657863656564732062616c616e604482015261636560f01b6064820152608401610dba565b6001600160a01b0383166000908152609760205260408120838303905560998054849290614488908490615727565b90915550506040518281526000906001600160a01b038516907fddf252ad1be2c89b69c2b068fc378daa952ba7f163c4a11628f55a4df523b3ef90602001613165565b505050565b60008115806144f4575082826144e68183615708565b92506144f290836155fd565b145b610d265760405162461bcd60e51b815260206004820152601460248201527364732d6d6174682d6d756c2d6f766572666c6f7760601b6044820152606401610dba565b60008261454483826155e5565b9150811015610d265760405162461bcd60e51b815260206004820152601460248201527364732d6d6174682d6164642d6f766572666c6f7760601b6044820152606401610dba565b60006145e1826040518060400160405280602081526020017f5361666545524332303a206c6f772d6c6576656c2063616c6c206661696c6564815250856001600160a01b0316614ae39092919063ffffffff16565b8051909150156144cb57808060200190518101906145ff91906151aa565b6144cb5760405162461bcd60e51b815260206004820152602a60248201527f5361666545524332303a204552433230206f7065726174696f6e20646964206e6044820152691bdd081cdd58d8d9595960b21b6064820152608401610dba565b60d55460d65460405163d38e319760e01b815260cf60048201526024810184905260448101929092526064820152600090819081907314Cc2c0b624e437202B53E5331479828428655119063d38e31979060840160606040518083038186803b1580156146ca57600080fd5b505af41580156146de573d6000803e3d6000fd5b505050506040513d601f19601f820116820180604052508101906147029190615241565b92505091506000811115610dd65760cc5460d75460d354604051631474764f60e11b81526001600160a01b037f000000000000000000000000000000000000000000000000000000000000000081166004830152620100009094048416602482015291831660448301529190911660648201526084810182905273aCB7f3Baf1D9986760c0A470CD14cEcA7544D4D0906328e8ec9e9060a40160206040518083038186803b1580156147b357600080fd5b505af41580156147c7573d6000803e3d6000fd5b505050506040513d601f19601f820116820180604052508101906147eb9190615205565b5060d35460cf54604080518581526020810185905261ffff90921682820152516001600160a01b03909216917f0a242f7ecaf711036ca770774ceffae28e60ef042ac113ddd187f2631db0c0069181900360600190a29392505050565b6001600160a01b03821661489e5760405162461bcd60e51b815260206004820152601f60248201527f45524332303a206d696e7420746f20746865207a65726f2061646472657373006044820152606401610dba565b80609960008282546148b091906155e5565b90915550506001600160a01b038216600090815260976020526040812080548392906148dd9084906155e5565b90915550506040518181526001600160a01b038316906000907fddf252ad1be2c89b69c2b068fc378daa952ba7f163c4a11628f55a4df523b3ef9060200160405180910390a35050565b600054610100900460ff1680614940575060005460ff16155b61495c5760405162461bcd60e51b8152600401610dba906154db565b600054610100900460ff1615801561497e576000805461ffff19166101011790555b614986614af2565b8015612bfd576000805461ff001916905550565b600054610100900460ff16806149b3575060005460ff16155b6149cf5760405162461bcd60e51b8152600401610dba906154db565b600054610100900460ff161580156149f1576000805461ffff19166101011790555b6149f9614b61565b614a038383614bcb565b80156144cb576000805461ff0019169055505050565b600054610100900460ff1680614a32575060005460ff16155b614a4e5760405162461bcd60e51b8152600401610dba906154db565b600054610100900460ff16158015614a70576000805461ffff19166101011790555b614a78614b61565b614986614c60565b600060018311614aca5760405162461bcd60e51b8152602060048201526015602482015274496e76616c6964206173736574506572536861726560581b6044820152606401610dba565b61140883612222614adc85600a615660565b879061334e565b60606114088484600085614cc0565b600054610100900460ff1680614b0b575060005460ff16155b614b275760405162461bcd60e51b8152600401610dba906154db565b600054610100900460ff16158015614b49576000805461ffff19166101011790555b600180558015612bfd576000805461ff001916905550565b600054610100900460ff1680614b7a575060005460ff16155b614b965760405162461bcd60e51b8152600401610dba906154db565b600054610100900460ff16158015614986576000805461ffff19166101011790558015612bfd576000805461ff001916905550565b600054610100900460ff1680614be4575060005460ff16155b614c005760405162461bcd60e51b8152600401610dba906154db565b600054610100900460ff16158015614c22576000805461ffff19166101011790555b8251614c3590609a906020860190614e21565b508151614c4990609b906020850190614e21565b5080156144cb576000805461ff0019169055505050565b600054610100900460ff1680614c79575060005460ff16155b614c955760405162461bcd60e51b8152600401610dba906154db565b600054610100900460ff16158015614cb7576000805461ffff19166101011790555b61498633613ad2565b606082471015614d215760405162461bcd60e51b815260206004820152602660248201527f416464726573733a20696e73756666696369656e742062616c616e636520666f6044820152651c8818d85b1b60d21b6064820152608401610dba565b843b614d6f5760405162461bcd60e51b815260206004820152601d60248201527f416464726573733a2063616c6c20746f206e6f6e2d636f6e74726163740000006044820152606401610dba565b600080866001600160a01b03168587604051614d8b91906152cf565b60006040518083038185875af1925050503d8060008114614dc8576040519150601f19603f3d011682016040523d82523d6000602084013e614dcd565b606091505b5091509150614ddd828286614de8565b979650505050505050565b60608315614df7575081610dd6565b825115614e075782518084602001fd5b8160405162461bcd60e51b8152600401610dba91906154a7565b828054614e2d9061576a565b90600052602060002090601f016020900481019282614e4f5760008555614e95565b82601f10614e6857805160ff1916838001178555614e95565b82800160010185558215614e95579182015b82811115614e95578251825591602001919060010190614e7a565b50614ea1929150614ea5565b5090565b5b80821115614ea15760008155600101614ea6565b8035614ec58161591e565b919050565b600082601f830112614eda578081fd5b813567ffffffffffffffff80821115614ef557614ef56157d0565b604051601f8301601f19908116603f01168101908282118183101715614f1d57614f1d6157d0565b81604052838152866020858801011115614f35578485fd5b8360208701602083013792830160200193909352509392505050565b600060c08284031215614f62578081fd5b50919050565b8035614ec581615941565b803563ffffffff81168114614ec557600080fd5b8035614ec581615956565b600060208284031215614fa3578081fd5b8135610dd68161591e565b600060208284031215614fbf578081fd5b8151610dd68161591e565b60008060408385031215614fdc578081fd5b8235614fe78161591e565b91506020830135614ff78161591e565b809150509250929050565b6000806000806000806000806000806000806102208d8f031215615024578788fd5b61502d8d614eba565b9b5061503b60208e01614eba565b9a5061504960408e01614eba565b995060608d0135985060808d0135975067ffffffffffffffff60a08e01351115615071578687fd5b6150818e60a08f01358f01614eca565b965067ffffffffffffffff60c08e0135111561509b578586fd5b6150ab8e60c08f01358f01614eca565b95506150b960e08e01614eba565b94506150c86101008e01614eba565b93506150d76101208e01614f73565b92506101408d013591506150ef8e6101608f01614f51565b90509295989b509295989b509295989b565b600080600060608486031215615115578283fd5b83356151208161591e565b925060208401356151308161591e565b929592945050506040919091013590565b60008060408385031215615153578182fd5b823561515e8161591e565b946020939093013593505050565b60008060008060808587031215615181578384fd5b845161518c8161591e565b60208601516040870151606090970151919890975090945092505050565b6000602082840312156151bb578081fd5b8151610dd681615933565b6000602082840312156151d7578081fd5b81356001600160801b0381168114610dd6578182fd5b6000602082840312156151fe578081fd5b5035919050565b600060208284031215615216578081fd5b5051919050565b6000806040838503121561522f578182fd5b823591506020830135614ff78161591e565b600080600060608486031215615255578081fd5b8351925060208401519150604084015190509250925092565b60008060008060808587031215615283578182fd5b505082516020840151604085015160609095015191969095509092509050565b600081518084526152bb81602086016020860161573e565b601f01601f19169290920160200192915050565b600082516152e181846020870161573e565b9190910192915050565b6001600160a01b039485168152928416602084015292166040820152606081019190915260800190565b60006101a060018060a01b03808c168452808b166020850152808a1660408501528860608501528760808501528160a0850152615354828501886152a3565b915083820360c085015261536882876152a3565b92508435915061537782615933565b90151560e084015260208401359061538e8261596b565b60ff8216610100850152604085013591506153a88261591e565b166101208301526153bb60608401614eba565b6001600160a01b03166101408301526153d660808401614f87565b66ffffffffffffff166101608301526153f160a08401614f68565b6001600160681b038116610180840152509998505050505050505050565b60006101808201905060018060a01b03808a16835280891660208401528760408401528087511660608401528060208801511660808401528060408801511660a084015250606086015160c083015261ffff60808701511660e083015260a0860151610100830152846101208301528361014083015261549b6101608301846001600160a01b03169052565b98975050505050505050565b602081526000610dd660208301846152a3565b60208082526007908201526610b5b2b2b832b960c91b604082015260600190565b6020808252602e908201527f496e697469616c697a61626c653a20636f6e747261637420697320616c72656160408201526d191e481a5b9a5d1a585b1a5e995960921b606082015260800190565b6020808252818101527f4f776e61626c653a2063616c6c6572206973206e6f7420746865206f776e6572604082015260600190565b60208082526007908201526608585b5bdd5b9d60ca1b604082015260600190565b6020808252601f908201527f5265656e7472616e637947756172643a207265656e7472616e742063616c6c00604082015260600190565b9485526001600160a01b0393841660208601529190921660408401526060830191909152608082015260a00190565b600082198211156155f8576155f86157ba565b500190565b60008261561857634e487b7160e01b81526012600452602481fd5b500490565b600181815b8085111561565857816000190482111561563e5761563e6157ba565b8085161561564b57918102915b93841c9390800290615622565b509250929050565b6000610dd6838360008261567657506001610d26565b8161568357506000610d26565b816001811461569957600281146156a3576156bf565b6001915050610d26565b60ff8411156156b4576156b46157ba565b50506001821b610d26565b5060208310610133831016604e8410600b84101617156156e2575081810a610d26565b6156ec838361561d565b8060001904821115615700576157006157ba565b029392505050565b6000816000190483118215151615615722576157226157ba565b500290565b600082821015615739576157396157ba565b500390565b60005b83811015615759578181015183820152602001615741565b8381111561333c5750506000910152565b600181811c9082168061577e57607f821691505b60208210811415614f6257634e487b7160e01b600052602260045260246000fd5b60006000198214156157b3576157b36157ba565b5060010190565b634e487b7160e01b600052601160045260246000fd5b634e487b7160e01b600052604160045260246000fd5b60008135610d268161591e565b60008135610d2681615941565b60008135610d2681615956565b813561581881615933565b815460ff19811691151560ff16918217835560208401356158388161596b565b61ff008160081b169050808361ffff19841617178455604085013561585c8161591e565b6001600160b01b0319929092169092179190911760109190911b62010000600160b01b0316178155600181016158b4615897606085016157e6565b82546001600160a01b0319166001600160a01b0391909116178255565b6158ed6158c360808501615800565b82805466ffffffffffffff60a01b191660a09290921b66ffffffffffffff60a01b16919091179055565b506143106158fd60a084016157f3565b600283016001600160681b0382166001600160681b03198254161781555050565b6001600160a01b0381168114612bfd57600080fd5b8015158114612bfd57600080fd5b6001600160681b0381168114612bfd57600080fd5b66ffffffffffffff81168114612bfd57600080fd5b60ff81168114612bfd57600080fdfea2646970667358221220a0956959b6a9028ae89017d2916fcd37892c04a0b5c2ff30fadba4db5574852664736f6c63430008040033",
  "deployedBytecode": "0x608060405234801561001057600080fd5b50600436106104755760003560e01c806389a3027111610257578063b4d1d79511610146578063dd62ed3e116100c3578063f2fde38b11610087578063f2fde38b14610c1a578063f656ba5114610c2d578063f756fa2114610c55578063f957a06714610c5d578063fe56e23214610c7057600080fd5b8063dd62ed3e14610baa578063e16fdbd514610be3578063e73c63d514610bf6578063e74b981b14610bff578063ea00b1ca14610c1257600080fd5b8063d13f1b3e1161010a578063d13f1b3e14610b41578063d164cc1514610b54578063d5f2638214610b67578063db006a7514610b70578063db43e86214610b8357600080fd5b8063b4d1d79514610b09578063b6b55f2514610b13578063b9f8092b14610b26578063c1c4230d146107e0578063ce7c2ac214610b2e57600080fd5b8063a457c2d7116101d4578063aced166111610198578063aced166114610aa1578063ad5c464814610ab4578063ad7a672f14610adb578063afa6626414610ae3578063b2016bd414610af657600080fd5b8063a457c2d714610a57578063a497e67414610a6a578063a6f7f5d614610a7d578063a7a4490114610a86578063a9059cbb14610a8e57600080fd5b80639be43daa1161021b5780639be43daa146109295780639fcc2d751461093c578063a083ff17146109db578063a285c9e814610a31578063a2db9d8314610a4657600080fd5b806389a30271146108d05780638b10cc7c146108f75780638da5cb5b1461090857806395d89b411461091957806399530b061461092157600080fd5b80634603c0aa116103735780636f14fba2116102f05780637a9262a2116102b45780637a9262a2146108345780637e108d521461088b57806383536ff31461089e57806387153eb1146108a757806387788782146108c757600080fd5b80636f14fba2146107e05780636f31ab34146107e857806370897b23146107f057806370a0823114610803578063715018a61461082c57600080fd5b8063650cce8a11610337578063650cce8a1461070a5780636719b2ee1461073157806369b41170146107a85780636b64c769146107b15780636c10f66c146107b957600080fd5b80634603c0aa146106b657806346904840146106c957806347786d37146106dc57806355489bb2146106ef578063600a2cfb1461070257600080fd5b8063313ce567116104015780633ec143d3116103c55780633ec143d3146106415780633f23bb73146106625780633f90916a146106755780634215d91514610686578063432833a6146106ad57600080fd5b8063313ce567146105da57806331807e42146105f7578063355274ea1461060a57806336efd16f1461061b578063395093511461062e57600080fd5b80631a92f6c2116104485780631a92f6c2146104da57806323b872dd146105195780632728f3331461052c5780632775d01c146105b257806330630da4146105c757600080fd5b806306fdde031461047a578063095ea7b3146104985780630cbf54c8146104bb57806318160ddd146104d2575b600080fd5b610482610c83565b60405161048f91906154a7565b60405180910390f35b6104ab6104a6366004615141565b610d15565b604051901515815260200161048f565b6104c460fc5481565b60405190815260200161048f565b6099546104c4565b6105017f000000000000000000000000000000000000000000000000000000000000000081565b6040516001600160a01b03909116815260200161048f565b6104ab610527366004615101565b610d2c565b60cf5460d05461056d9161ffff8116916001600160681b03620100008304811692600160781b900416906001600160801b0380821691600160801b90041685565b6040805161ffff90961686526001600160681b03948516602087015293909216928401929092526001600160801b03918216606084015216608082015260a00161048f565b6105c56105c03660046151ed565b610ddd565b005b6105c56105d5366004614f92565b61109b565b60cc54610100900460ff1660405160ff909116815260200161048f565b6105c56106053660046151ed565b611133565b60ce546001600160681b03166104c4565b6105c561062936600461521d565b6112d2565b6104ab61063c366004615141565b611381565b60fa5461064f9061ffff1681565b60405161ffff909116815260200161048f565b6104c4610670366004614f92565b6113bd565b60d0546001600160801b03166104c4565b6105017f000000000000000000000000000000000000000000000000000000000000000081565b6104c460fd5481565b6105c56106c4366004614f92565b611410565b60d354610501906001600160a01b031681565b6105c56106ea3660046151ed565b6114b2565b6105c56106fd3660046151c6565b611547565b6105c5611608565b6105017f000000000000000000000000000000000000000000000000000000000000000081565b61077761073f366004614f92565b60c96020526000908152604090205461ffff8116906201000081046001600160681b031690600160781b90046001600160801b031683565b6040805161ffff90941684526001600160681b0390921660208401526001600160801b03169082015260600161048f565b6104c461038481565b6105c56117db565b6105017f000000000000000000000000000000000000000000000000000000000000000081565b6104c4600581565b6105c561183b565b6105c56107fe3660046151ed565b611872565b6104c4610811366004614f92565b6001600160a01b031660009081526097602052604090205490565b6105c5611939565b610869610842366004614f92565b60cb6020526000908152604090205461ffff8116906201000090046001600160801b031682565b6040805161ffff90931683526001600160801b0390911660208301520161048f565b6105c56108993660046151ed565b61196f565b6104c460f85481565b6104c46108b53660046151ed565b60ca6020526000908152604090205481565b6104c460d55481565b6105017f000000000000000000000000000000000000000000000000000000000000000081565b60d2546001600160a01b0316610501565b6065546001600160a01b0316610501565b610482611baa565b6104c4611bb9565b6105c56109373660046151ed565b611bf3565b60cc5460cd5460ce5461098b9260ff808216936101008304909116926001600160a01b036201000090930483169282169166ffffffffffffff600160a01b90910416906001600160681b031686565b60408051961515875260ff90951660208701526001600160a01b03938416948601949094529116606084015266ffffffffffffff1660808301526001600160681b031660a082015260c00161048f565b60d15460d254610a05916001600160a01b039081169190811690600160a01b900463ffffffff1683565b604080516001600160a01b03948516815293909216602084015263ffffffff169082015260600161048f565b60d254600160a01b900463ffffffff166104c4565b60d1546001600160a01b0316610501565b6104ab610a65366004615141565b611d27565b6105c5610a783660046151ed565b611dc0565b6104c460d65481565b6105c5611e7d565b6104ab610a9c366004615141565b611fb6565b60d454610501906001600160a01b031681565b6105017f000000000000000000000000000000000000000000000000000000000000000081565b6104c4611fc3565b60f654610501906001600160a01b031681565b60d754610501906001600160a01b031681565b6104c462093a8081565b6105c5610b213660046151ed565b612130565b6105c56121a4565b6104c4610b3c366004614f92565b612422565b6105c5610b4f3660046151ed565b61243f565b6105c5610b62366004614f92565b612503565b6104c460f95481565b6105c5610b7e3660046151ed565b612592565b6105017f000000000000000000000000000000000000000000000000000000000000000081565b6104c4610bb8366004614fca565b6001600160a01b03918216600090815260986020908152604080832093909416825291909152205490565b6105c5610bf1366004615002565b6125ff565b6104c460fb5481565b6105c5610c0d366004614f92565b61280b565b6105c56128fe565b6105c5610c28366004614f92565b612b65565b610c40610c3b366004614f92565b612c00565b6040805192835260208301919091520161048f565b6105c5612ce3565b60f754610501906001600160a01b031681565b6105c5610c7e3660046151ed565b612fb3565b6060609a8054610c929061576a565b80601f0160208091040260200160405190810160405280929190818152602001828054610cbe9061576a565b8015610d0b5780601f10610ce057610100808354040283529160200191610d0b565b820191906000526020600020905b815481529060010190602001808311610cee57829003601f168201915b5050505050905090565b6000610d2233848461304d565b5060015b92915050565b6000610d39848484613172565b6001600160a01b038416600090815260986020908152604080832033845290915290205482811015610dc35760405162461bcd60e51b815260206004820152602860248201527f45524332303a207472616e7366657220616d6f756e74206578636565647320616044820152676c6c6f77616e636560c01b60648201526084015b60405180910390fd5b610dd0853385840361304d565b60019150505b9392505050565b60026001541415610e005760405162461bcd60e51b8152600401610dba9061557f565b600260015533600090815260c96020526040902060cf5461ffff1682610e385760405162461bcd60e51b8152600401610dba9061555e565b815461ffff168114610e7c5760405162461bcd60e51b815260206004820152600d60248201526c125b9d985b1a59081c9bdd5b99609a1b6044820152606401610dba565b81546201000090046001600160681b031683811015610ecd5760405162461bcd60e51b815260206004820152600d60248201526c115e18d9595908185b5bdd5b9d609a1b6044820152606401610dba565b610ed78185613342565b83546001600160681b0391909116620100000262010000600160781b031990911617835560d054610f11906001600160801b031685613342565b60d080546001600160801b0319166001600160801b0392909216919091179055604080518581526020810184905233917fab2daf3c146ca6416cbccd2a86ed2ba995e171ef6319df14a38aef01403a9c96910160405180910390a260cc5460d754604051633fd5c25d60e11b815273__$284794d205a530c1a37f8f90001a836887$__92637fab84ba92610fc29289926001600160a01b0362010000909104811692169060059081906004016155b6565b60006040518083038186803b158015610fda57600080fd5b505af4158015610fee573d6000803e3d6000fd5b505060cc54604051634cc8d10160e11b815273__$284794d205a530c1a37f8f90001a836887$__9350639991a2029250611061917f000000000000000000000000000000000000000000000000000000000000000091620100009091046001600160a01b03169033908a906004016152eb565b60006040518083038186803b15801561107957600080fd5b505af415801561108d573d6000803e3d6000fd5b505060018055505050505050565b6065546001600160a01b031633146110c55760405162461bcd60e51b8152600401610dba90615529565b6001600160a01b0381166111115760405162461bcd60e51b815260206004820152601360248201527210b732bba9ba3934b5b2a9b2b632b1ba34b7b760691b6044820152606401610dba565b60f780546001600160a01b0319166001600160a01b0392909216919091179055565b600260015414156111565760405162461bcd60e51b8152600401610dba9061557f565b6002600155806111785760405162461bcd60e51b8152600401610dba9061555e565b60d754604051630c279a2f60e41b81526001600160a01b0390911660048201526000906112a69083906112a19073__$284794d205a530c1a37f8f90001a836887$__9063c279a2f0906024015b60206040518083038186803b1580156111dd57600080fd5b505af41580156111f1573d6000803e3d6000fd5b505050506040513d601f19601f820116820180604052508101906112159190615205565b60d760009054906101000a90046001600160a01b03166001600160a01b03166399530b066040518163ffffffff1660e01b815260040160206040518083038186803b15801561126357600080fd5b505afa158015611277573d6000803e3d6000fd5b505050506040513d601f19601f8201168201806040525081019061129b9190615205565b9061334e565b61335a565b90506112b28133613394565b60d7546112ca906001600160a01b0316333085613620565b505060018055565b600260015414156112f55760405162461bcd60e51b8152600401610dba9061557f565b6002600155816113175760405162461bcd60e51b8152600401610dba9061555e565b6001600160a01b0381166113595760405162461bcd60e51b815260206004820152600960248201526810b1b932b234ba37b960b91b6044820152606401610dba565b6113638282613394565b60cc546112ca906201000090046001600160a01b0316333085613620565b3360008181526098602090815260408083206001600160a01b03871684529091528120549091610d229185906113b89086906155e5565b61304d565b60cc5460009060ff61010090910416816113f36113d960995490565b6113e1611fc3565b60d0546001600160801b03168561367a565b905061140861140185612422565b82846136ba565b949350505050565b6065546001600160a01b0316331461143a5760405162461bcd60e51b8152600401610dba90615529565b6001600160a01b0381166114905760405162461bcd60e51b815260206004820152601860248201527f216e65774f7074696f6e735072656d69756d50726963657200000000000000006044820152606401610dba565b60f680546001600160a01b0319166001600160a01b0392909216919091179055565b6065546001600160a01b031633146114dc5760405162461bcd60e51b8152600401610dba90615529565b600081116115165760405162461bcd60e51b81526020600482015260076024820152660216e65774361760cc1b6044820152606401610dba565b61151f8161371c565b60ce80546cffffffffffffffffffffffffff19166001600160681b0392909216919091179055565b6065546001600160a01b031633146115715760405162461bcd60e51b8152600401610dba90615529565b600260015414156115945760405162461bcd60e51b8152600401610dba9061557f565b60026001556001600160801b0381166115de5760405162461bcd60e51b815260206004820152600c60248201526b21737472696b65507269636560a01b6044820152606401610dba565b6001600160801b031660fb5560cf5460fa805461ffff191661ffff90921691909117905560018055565b60d4546001600160a01b031633146116325760405162461bcd60e51b8152600401610dba906154ba565b600260015414156116555760405162461bcd60e51b8152600401610dba9061557f565b600260015560d2546040516358ffbb3d60e01b81526001600160a01b037f000000000000000000000000000000000000000000000000000000000000000081166004830152909116602482015260009073__$c4f279750f4bbb575ac7775e752dc00849$__906358ffbb3d9060440160206040518083038186803b1580156116dc57600080fd5b505af41580156116f0573d6000803e3d6000fd5b505050506040513d601f19601f820116820180604052508101906117149190615205565b60cf54909150611733906201000090046001600160681b031682613342565b60cf805462010000600160781b031916620100006001600160681b0393909316830217905560cc5460d754604051634c03c9a760e01b8152929091046001600160a01b03908116600484015216602482015273__$284794d205a530c1a37f8f90001a836887$__90634c03c9a79060440160006040518083038186803b1580156117bc57600080fd5b505af41580156117d0573d6000803e3d6000fd5b505060018055505050565b60d4546001600160a01b031633146118055760405162461bcd60e51b8152600401610dba906154ba565b600260015414156118285760405162461bcd60e51b8152600401610dba9061557f565b6002600155611835613766565b60018055565b6002600154141561185e5760405162461bcd60e51b8152600401610dba9061557f565b600260018190555061183560006001613901565b6065546001600160a01b0316331461189c5760405162461bcd60e51b8152600401610dba90615529565b6118aa620f42406064615708565b81106118f85760405162461bcd60e51b815260206004820152601760248201527f496e76616c696420706572666f726d616e6365206665650000000000000000006044820152606401610dba565b60d55460408051918252602082018390527f24867dfb6fcb9970a07be21024956524abe7a1837faa903ff0e99aaa40cf893e910160405180910390a160d555565b6065546001600160a01b031633146119635760405162461bcd60e51b8152600401610dba90615529565b61196d6000613ad2565b565b600260015414156119925760405162461bcd60e51b8152600401610dba9061557f565b6002600155806119d15760405162461bcd60e51b815260206004820152600a602482015269216e756d53686172657360b01b6044820152606401610dba565b33600090815260c960205260409020546201000090046001600160681b0316151580611a1b575033600090815260c96020526040902054600160781b90046001600160801b031615155b15611a2c57611a2c60006001613901565b60cf5433600081815260cb60209081526040918290208054835187815261ffff96871693810184905292959194911685149290917f0c53c82ad07e2d592d88ece3b066777dd60f1118e2a081b380efc4358f0d9e2a910160405180910390a281546201000090046001600160801b031660008215611ab557611aae8287613b24565b9050611b18565b8115611af75760405162461bcd60e51b81526020600482015260116024820152704578697374696e6720776974686472617760781b6044820152606401610dba565b5033600090815260cb60205260409020805461ffff191661ffff8616179055845b611b2181613b30565b33600090815260cb6020526040812080546001600160801b03808516620100000262010000600160901b03199092169190911790915560d054611b6d91600160801b9091041688613b24565b9050611b7881613b30565b60d080546001600160801b03808416600160801b029116179055611b9d333089613172565b5050600180555050505050565b6060609b8054610c929061576a565b6000611bee611bc760995490565b611bcf611fc3565b60d05460cc546001600160801b0390911690610100900460ff1661367a565b905090565b60026001541415611c165760405162461bcd60e51b8152600401610dba9061557f565b600260015580611c555760405162461bcd60e51b815260206004820152600a602482015269216e756d526f756e647360b01b6044820152606401610dba565b60cf5461ffff1660005b82811015611d1e576000611c7382846155e5565b905082811015611cb05760405162461bcd60e51b81526020600482015260086024820152674f766572666c6f7760c01b6044820152606401610dba565b600081815260ca602052604090205415611cfa5760405162461bcd60e51b815260206004820152600b60248201526a125b9a5d1a585b1a5e995960aa1b6044820152606401610dba565b600090815260ca602052604090206001905580611d168161579f565b915050611c5f565b50506001805550565b3360009081526098602090815260408083206001600160a01b038616845290915281205482811015611da95760405162461bcd60e51b815260206004820152602560248201527f45524332303a2064656372656173656420616c6c6f77616e63652062656c6f77604482015264207a65726f60d81b6064820152608401610dba565b611db6338585840361304d565b5060019392505050565b6065546001600160a01b03163314611dea5760405162461bcd60e51b8152600401610dba90615529565b610e10811015611e3c5760405162461bcd60e51b815260206004820152601860248201527f496e76616c69642061756374696f6e206475726174696f6e00000000000000006044820152606401610dba565b60fc5460408051918252602082018390527f5acd982e2240ed224a69aa03dab039d3797c108e4b5f288cd7dd6ca181b275f3910160405180910390a160fc55565b6065546001600160a01b03163314611ea75760405162461bcd60e51b8152600401610dba90615529565b60d7546040516370a0823160e01b815230600482015273__$284794d205a530c1a37f8f90001a836887$__91637fab84ba916001600160a01b03909116906370a082319060240160206040518083038186803b158015611f0657600080fd5b505afa158015611f1a573d6000803e3d6000fd5b505050506040513d601f19601f82011682018060405250810190611f3e9190615205565b60cc5460d7546040516001600160e01b031960e086901b168152611f7e93926001600160a01b0362010000909104811692169060059081906004016155b6565b60006040518083038186803b158015611f9657600080fd5b505af4158015611faa573d6000803e3d6000fd5b5050505061196d613b7a565b6000610d22338484613172565b60d7546040516370a0823160e01b8152306004820152600091611bee9161208f916001600160a01b0316906370a082319060240160206040518083038186803b15801561200f57600080fd5b505afa158015612023573d6000803e3d6000fd5b505050506040513d601f19601f820116820180604052508101906120479190615205565b60d754604051630c279a2f60e41b81526001600160a01b0390911660048201526112a19073__$284794d205a530c1a37f8f90001a836887$__9063c279a2f0906024016111c5565b60cc546040516370a0823160e01b815230600482015261212a916201000090046001600160a01b0316906370a082319060240160206040518083038186803b1580156120da57600080fd5b505afa1580156120ee573d6000803e3d6000fd5b505050506040513d601f19601f820116820180604052508101906121129190615205565b60cf546201000090046001600160681b031690613b24565b90613b24565b600260015414156121535760405162461bcd60e51b8152600401610dba9061557f565b6002600155806121755760405162461bcd60e51b8152600401610dba9061555e565b61217f8133613394565b60cc5461219d906201000090046001600160a01b0316333084613620565b5060018055565b60d4546001600160a01b031633146121ce5760405162461bcd60e51b8152600401610dba906154ba565b600260015414156121f15760405162461bcd60e51b8152600401610dba9061557f565b6002600155600080612201613c8e565b909250905060006122fd61227c61222f61222861271061222287600561334e565b90613fc2565b8590613b24565b60d754604051630c279a2f60e41b81526001600160a01b0390911660048201526122779073__$284794d205a530c1a37f8f90001a836887$__9063c279a2f0906024016111c5565b613fce565b60d7546040516370a0823160e01b81523060048201526001600160a01b03909116906370a082319060240160206040518083038186803b1580156122bf57600080fd5b505afa1580156122d3573d6000803e3d6000fd5b505050506040513d601f19601f820116820180604052508101906122f79190615205565b90613342565b9050336001600160a01b0316836001600160a01b03167f045c558fdce4714c5816d53820d27420f4cd860892df203fe636384d8d19aa018360405161234491815260200190565b60405180910390a3604051632904c23960e01b815273__$c4f279750f4bbb575ac7775e752dc00849$__90632904c239906123c9907f0000000000000000000000000000000000000000000000000000000000000000907f000000000000000000000000000000000000000000000000000000000000000090889087906004016152eb565b60206040518083038186803b1580156123e157600080fd5b505af41580156123f5573d6000803e3d6000fd5b505050506040513d601f19601f820116820180604052508101906124199190615205565b50611d1e613766565b600080600061243084612c00565b90925090506114088282613b24565b6065546001600160a01b031633146124695760405162461bcd60e51b8152600401610dba90615529565b6000811180156124835750612480600a6064615708565b81105b6124c25760405162461bcd60e51b815260206004820152601060248201526f125b9d985b1a5908191a5cd8dbdd5b9d60821b6044820152606401610dba565b60f85460408051918252602082018390527f4cd657fde404967d63a338fb06c5c98751a9df57dfae6dc333a432faf8a5f656910160405180910390a160f855565b6065546001600160a01b0316331461252d5760405162461bcd60e51b8152600401610dba90615529565b6001600160a01b0381166125705760405162461bcd60e51b815260206004820152600a60248201526910b732bba5b2b2b832b960b11b6044820152606401610dba565b60d480546001600160a01b0319166001600160a01b0392909216919091179055565b600260015414156125b55760405162461bcd60e51b8152600401610dba9061557f565b6002600155806125f45760405162461bcd60e51b815260206004820152600a602482015269216e756d53686172657360b01b6044820152606401610dba565b61219d816000613901565b600054610100900460ff1680612618575060005460ff16155b6126345760405162461bcd60e51b8152600401610dba906154db565b600054610100900460ff16158015612656576000805461ffff19166101011790555b6126668d8d8d8d8d8d8d89613ff1565b6001600160a01b0386166126b55760405162461bcd60e51b815260206004820152601660248201527510afb7b83a34b7b739a83932b6b4bab6a83934b1b2b960511b6044820152606401610dba565b6001600160a01b0385166126ff5760405162461bcd60e51b815260206004820152601160248201527010afb9ba3934b5b2a9b2b632b1ba34b7b760791b6044820152606401610dba565b60008463ffffffff16118015612725575061271c600a6064615708565b8463ffffffff16105b6127655760405162461bcd60e51b81526020600482015260116024820152700857dc1c995b5a5d5b511a5cd8dbdd5b9d607a1b6044820152606401610dba565b610e108310156127ab5760405162461bcd60e51b815260206004820152601160248201527010afb0bab1ba34b7b7223ab930ba34b7b760791b6044820152606401610dba565b60f680546001600160a01b038089166001600160a01b03199283161790925560f780549288169290911691909117905563ffffffff841660f85560fc83905580156127fc576000805461ff00191690555b50505050505050505050505050565b6065546001600160a01b031633146128355760405162461bcd60e51b8152600401610dba90615529565b6001600160a01b03811661287e5760405162461bcd60e51b815260206004820152601060248201526f085b995dd19959549958da5c1a595b9d60821b6044820152606401610dba565b60d3546001600160a01b03828116911614156128dc5760405162461bcd60e51b815260206004820152601860248201527f4d757374206265206e657720666565526563697069656e7400000000000000006044820152606401610dba565b60d380546001600160a01b0319166001600160a01b0392909216919091179055565b600260015414156129215760405162461bcd60e51b8152600401610dba9061557f565b600260015560d2546040805160c0810182526001600160a01b037f0000000000000000000000000000000000000000000000000000000000000000811682527f000000000000000000000000000000000000000000000000000000000000000081166020830152928316818301819052610384606083015260fa5461ffff16608083015260fb5460a083015260f75460f65460f85460d75495516303a20e3d60e01b81529396949560009586958695869573__$284794d205a530c1a37f8f90001a836887$__956303a20e3d95612a0f95938416949284169391928d9260cc9260cf9291169060040161540f565b60806040518083038186803b158015612a2757600080fd5b505af4158015612a3b573d6000803e3d6000fd5b505050506040513d601f19601f82011682018060405250810190612a5f919061516c565b93509350935093507fa217999b1c125c2a996f712c5f26a28addad7167bd8a67d5bd5b2a751148abb08282604051612aa1929190918252602082015260400190565b60405180910390a1612ab28361371c565b6001600160681b03831660f95560d180546001600160a01b0319166001600160a01b0386161790556000612ae842610384613b24565b905063ffffffff811115612b3e5760405162461bcd60e51b815260206004820152601860248201527f4f766572666c6f77206e6578744f7074696f6e526561647900000000000000006044820152606401610dba565b60d2805463ffffffff60a01b1916600160a01b63ffffffff841602179055611b9d876141c1565b6065546001600160a01b03163314612b8f5760405162461bcd60e51b8152600401610dba90615529565b6001600160a01b038116612bf45760405162461bcd60e51b815260206004820152602660248201527f4f776e61626c653a206e6577206f776e657220697320746865207a65726f206160448201526564647265737360d01b6064820152608401610dba565b612bfd81613ad2565b50565b6001600160a01b038116600090815260c9602090815260408083208151606081018352905461ffff81168083526201000082046001600160681b031694830194909452600160781b90046001600160801b031691810191909152829160011115612c82575050506001600160a01b031660009081526097602052604081205491565b60cf54815161ffff908116600090815260ca602052604081205460cc549193612cb893869391169190610100900460ff16614314565b9050612cd9856001600160a01b031660009081526097602052604090205490565b9590945092505050565b60026001541415612d065760405162461bcd60e51b8152600401610dba9061557f565b600260015533600090815260cb6020526040902080546001600160801b03620100008204169061ffff1681612d6d5760405162461bcd60e51b815260206004820152600d60248201526c139bdd081a5b9a5d1a585d1959609a1b6044820152606401610dba565b60cf5461ffff168110612db55760405162461bcd60e51b815260206004820152601060248201526f149bdd5b99081b9bdd0818db1bdcd95960821b6044820152606401610dba565b33600090815260cb60205260409020805462010000600160901b031916905560d054612df190600160801b90046001600160801b031683613342565b60d080546001600160801b03928316600160801b029216919091179055600081815260ca602052604081205460cc54612e3491859160ff610100909104166136ba565b604080518281526020810186905291925033917ff279e6a1f5e320cca91135676d9cb6e44ca8a08c0b88342bcdb1144f6511b568910160405180910390a2612e7c3084614385565b60cc5460d754604051633fd5c25d60e11b815273__$284794d205a530c1a37f8f90001a836887$__92637fab84ba92612ed29286926001600160a01b0362010000909104811692169060059081906004016155b6565b60006040518083038186803b158015612eea57600080fd5b505af4158015612efe573d6000803e3d6000fd5b5050505060008111612f445760405162461bcd60e51b815260206004820152600f60248201526e085dda5d1a191c985dd05b5bdd5b9d608a1b6044820152606401610dba565b60cc54604051634cc8d10160e11b815273__$284794d205a530c1a37f8f90001a836887$__91639991a20291611061917f000000000000000000000000000000000000000000000000000000000000000091620100009091046001600160a01b031690339087906004016152eb565b6065546001600160a01b03163314612fdd5760405162461bcd60e51b8152600401610dba90615529565b612feb620f42406064615708565b81106130325760405162461bcd60e51b8152602060048201526016602482015275496e76616c6964206d616e6167656d656e742066656560501b6044820152606401610dba565b61304763031ba30961222283620f424061334e565b60d65550565b6001600160a01b0383166130af5760405162461bcd60e51b8152602060048201526024808201527f45524332303a20617070726f76652066726f6d20746865207a65726f206164646044820152637265737360e01b6064820152608401610dba565b6001600160a01b0382166131105760405162461bcd60e51b815260206004820152602260248201527f45524332303a20617070726f766520746f20746865207a65726f206164647265604482015261737360f01b6064820152608401610dba565b6001600160a01b0383811660008181526098602090815260408083209487168084529482529182902085905590518481527f8c5be1e5ebec7d5bd14f71427d1e84f3dd0314c0f7b2291e5b200ac8c7c3b92591015b60405180910390a3505050565b6001600160a01b0383166131d65760405162461bcd60e51b815260206004820152602560248201527f45524332303a207472616e736665722066726f6d20746865207a65726f206164604482015264647265737360d81b6064820152608401610dba565b6001600160a01b0382166132385760405162461bcd60e51b815260206004820152602360248201527f45524332303a207472616e7366657220746f20746865207a65726f206164647260448201526265737360e81b6064820152608401610dba565b6001600160a01b038316600090815260976020526040902054818110156132b05760405162461bcd60e51b815260206004820152602660248201527f45524332303a207472616e7366657220616d6f756e7420657863656564732062604482015265616c616e636560d01b6064820152608401610dba565b6001600160a01b038085166000908152609760205260408082208585039055918516815290812080548492906132e79084906155e5565b92505081905550826001600160a01b0316846001600160a01b03167fddf252ad1be2c89b69c2b068fc378daa952ba7f163c4a11628f55a4df523b3ef8460405161333391815260200190565b60405180910390a35b50505050565b6000610dd68284615727565b6000610dd68284615708565b6000670de0b6b3a764000061338a61337285856144d0565b6133856002670de0b6b3a76400006155fd565b614537565b610dd691906155fd565b60cf5461ffff1660006133a98461212a611fc3565b60ce549091506001600160681b03168111156133f45760405162461bcd60e51b815260206004820152600a6024820152690457863656564206361760b41b6044820152606401610dba565b60cd54600160a01b900466ffffffffffffff1681101561344d5760405162461bcd60e51b8152602060048201526014602482015273496e73756666696369656e742062616c616e636560601b6044820152606401610dba565b60408051858152602081018490526001600160a01b038516917f90890809c654f11d6e72a28fa60149770a0d11ec6c92319d6ceb2bb0a4ea1a15910160405180910390a26001600160a01b038316600090815260c9602090815260408083208151606081018352905461ffff81168083526201000082046001600160681b031683860152600160781b9091046001600160801b031682840152845260ca90925282205460cc5491929161350c918491879190610100900460ff16614314565b8251909150869061ffff1685141561353d576020830151600090613539906001600160681b031689613b24565b9150505b6135468161371c565b6040805160608101825261ffff80881682526001600160681b0380851660208085019182526001600160801b038089168688019081526001600160a01b038e16600090815260c990935296822095518654935197518216600160781b02600160781b600160f81b03199890951662010000026effffffffffffffffffffffffffffff1990941695169490941791909117949094161790915560d0546135ec911689613b24565b90506135f781613b30565b60d080546001600160801b0319166001600160801b039290921691909117905550505050505050565b604080516001600160a01b0385811660248301528416604482015260648082018490528251808303909101815260849091019091526020810180516001600160e01b03166323b872dd60e01b17905261333c90859061458c565b60008061368883600a615660565b90506000861161369857806136b0565b6136b0866122226136a98888613342565b849061334e565b9695505050505050565b6000600183116137045760405162461bcd60e51b8152602060048201526015602482015274496e76616c6964206173736574506572536861726560581b6044820152606401610dba565b61140861371283600a615660565b612222868661334e565b6001600160681b03811115612bfd5760405162461bcd60e51b815260206004820152601060248201526f13dd995c999b1bddc81d5a5b9d0c4c0d60821b6044820152606401610dba565b6040805160c081018252600080825260208201819052918101829052606081018290526080810182905260a081019190915260f954806137e05760405162461bcd60e51b81526020600482015260156024820152742163757272656e744f746f6b656e5072656d69756d60581b6044820152606401610dba565b60d2546001600160a01b0390811683527f000000000000000000000000000000000000000000000000000000000000000081166020840190815260cc546201000081048316604080870191825261010090920460ff16606087019081526080870186815260fc5460a089019081529351633baf17fd60e21b8152885187166004820152945186166024860152915190941660448401529251606483015291516084820152905160a482015273__$c4f279750f4bbb575ac7775e752dc00849$__9063eebc5ff49060c40160206040518083038186803b1580156138c257600080fd5b505af41580156138d6573d6000803e3d6000fd5b505050506040513d601f19601f820116820180604052508101906138fa9190615205565b60fd555050565b33600090815260c9602090815260408083208151606081018352905461ffff8082168084526201000083046001600160681b031684870152600160781b9092046001600160801b03168385015260cf5491865260ca9094529184205460cc549194929093169261397c9185918591610100900460ff16614314565b905083613989578461398b565b805b945084613999575050505050565b808511156139dd5760405162461bcd60e51b81526020600482015260116024820152704578636565647320617661696c61626c6560781b6044820152606401610dba565b825161ffff1682116139f35782602001516139f6565b60005b33600090815260c96020526040902080546001600160681b0392909216620100000262010000600160781b0319909216919091179055613a3585613b30565b613a3f8186613342565b33600081815260c960205260409081902080546001600160801b0394909416600160781b02600160781b600160f81b0319909416939093179092558451915190917fe5b754fb1abb7f01b499791d0b820ae3b6af3424ac1c59768edb53f4ec31a92991613ab89189825261ffff16602082015260400190565b60405180910390a2613acb303387613172565b5050505050565b606580546001600160a01b038381166001600160a01b0319831681179093556040519116919082907f8be0079c531659141344cd1fd0a4f28419497f9722a3daafe3b4186f6b6457e090600090a35050565b6000610dd682846155e5565b6001600160801b03811115612bfd5760405162461bcd60e51b815260206004820152601060248201526f09eeccae4ccd8deee40ead2dce86264760831b6044820152606401610dba565b60cc54604051630e177dc760e41b81526001600160a01b0362010000909204821660048201526000917f0000000000000000000000000000000000000000000000000000000000000000169063e177dc7090602401602060405180830381600087803b158015613be957600080fd5b505af1158015613bfd573d6000803e3d6000fd5b505050506040513d601f19601f82011682018060405250810190613c219190614fae565b90506001600160a01b038116613c6c5760405162461bcd60e51b815260206004820152601060248201526f10b1b7b63630ba32b930b62a37b5b2b760811b6044820152606401610dba565b60d780546001600160a01b0319166001600160a01b0392909216919091179055565b60d2546000908190600160a01b900463ffffffff16421015613cdb5760405162461bcd60e51b815260206004820152600660248201526521726561647960d01b6044820152606401610dba565b60d1546001600160a01b031680613d225760405162461bcd60e51b815260206004820152600b60248201526a10b732bc3a27b83a34b7b760a91b6044820152606401610dba565b60008060008073__$284794d205a530c1a37f8f90001a836887$__63c29d2a3c613d4b60995490565b613d53611fc3565b6040516001600160e01b031960e085901b1681526004810192909252602482015260cc5460ff80821615156044840152600882901c1660648301526001600160a01b03601091821c8116608484015260cd5490811660a484015260a01c66ffffffffffffff1660c483015260ce546001600160681b0390811660e484015260cf5461ffff81166101048501529182901c811661012484015260789190911c1661014482015260d0546001600160801b03811661016483015260801c6101848201526101a40160806040518083038186803b158015613e3057600080fd5b505af4158015613e44573d6000803e3d6000fd5b505050506040513d601f19601f82011682018060405250810190613e68919061526e565b60d280546001600160a01b038b166001600160a01b03199182161790915560d18054909116905560cf5461ffff16600081815260ca6020526040902083905593975091955093509150613ecd613ec6613ec18787613b24565b61465e565b8690613342565b60d080546001600160801b03191690559450613eea8160016155e5565b60cf805461ffff191661ffff92909216919091179055613f098561371c565b60cf805462010000600160781b031916620100006001600160681b03881602179055613f353083614848565b60cc5460d754604051634c03c9a760e01b8152620100009092046001600160a01b03908116600484015216602482015273__$284794d205a530c1a37f8f90001a836887$__90634c03c9a79060440160006040518083038186803b158015613f9c57600080fd5b505af4158015613fb0573d6000803e3d6000fd5b50979a95995094975050505050505050565b6000610dd682846155fd565b60008161338a613fe685670de0b6b3a76400006144d0565b6133856002866155fd565b600054610100900460ff168061400a575060005460ff16155b6140265760405162461bcd60e51b8152600401610dba906154db565b600054610100900460ff16158015614048576000805461ffff19166101011790555b60405163c72733f760e01b815273__$c4f279750f4bbb575ac7775e752dc00849$__9063c72733f79061408d908c908c908c908b908d908c908c908c90600401615315565b60006040518083038186803b1580156140a557600080fd5b505af41580156140b9573d6000803e3d6000fd5b505050506140c5614927565b6140cf848461499a565b6140d7614a19565b6140e089612b65565b60d480546001600160a01b03808b166001600160a01b03199283161790925560d38054928a169290911691909117905560d585905561412a63031ba30961222288620f424061334e565b60d6558160cc61413a828261580d565b905050614145613b7a565b600061414f611fc3565b905061415a8161371c565b60cf805461ffff196001600160681b03909316600160781b02929092167fffffffff00000000000000000000000000ffffffffffffffffffffffffff000090921691909117600117905580156141b6576000805461ff00191690555b505050505050505050565b60d280546001600160a01b031916905560cf805462010000600160e01b03198116620100009091046001600160681b0316600160781b810262010000600160781b031916919091179091556001600160a01b0382161561431057604051636c6fe87f60e11b81526001600160a01b037f000000000000000000000000000000000000000000000000000000000000000016600482015260009073__$c4f279750f4bbb575ac7775e752dc00849$__9063d8dfd0fe9060240160206040518083038186803b15801561429157600080fd5b505af41580156142a5573d6000803e3d6000fd5b505050506040513d601f19601f820116820180604052508101906142c99190615205565b9050336001600160a01b0316836001600160a01b03167f7e830f7c1771deb1bdb35c4a7e6051bbac32b376f7f4e4976b8618b0b11997f78360405161316591815260200190565b5050565b835160009061ffff161580159061432f5750845161ffff1684115b1561437157600061434e86602001516001600160681b03168585614a80565b6040870151909150614369906001600160801b031682613b24565b915050611408565b50505050604001516001600160801b031690565b6001600160a01b0382166143e55760405162461bcd60e51b815260206004820152602160248201527f45524332303a206275726e2066726f6d20746865207a65726f206164647265736044820152607360f81b6064820152608401610dba565b6001600160a01b038216600090815260976020526040902054818110156144595760405162461bcd60e51b815260206004820152602260248201527f45524332303a206275726e20616d6f756e7420657863656564732062616c616e604482015261636560f01b6064820152608401610dba565b6001600160a01b0383166000908152609760205260408120838303905560998054849290614488908490615727565b90915550506040518281526000906001600160a01b038516907fddf252ad1be2c89b69c2b068fc378daa952ba7f163c4a11628f55a4df523b3ef90602001613165565b505050565b60008115806144f4575082826144e68183615708565b92506144f290836155fd565b145b610d265760405162461bcd60e51b815260206004820152601460248201527364732d6d6174682d6d756c2d6f766572666c6f7760601b6044820152606401610dba565b60008261454483826155e5565b9150811015610d265760405162461bcd60e51b815260206004820152601460248201527364732d6d6174682d6164642d6f766572666c6f7760601b6044820152606401610dba565b60006145e1826040518060400160405280602081526020017f5361666545524332303a206c6f772d6c6576656c2063616c6c206661696c6564815250856001600160a01b0316614ae39092919063ffffffff16565b8051909150156144cb57808060200190518101906145ff91906151aa565b6144cb5760405162461bcd60e51b815260206004820152602a60248201527f5361666545524332303a204552433230206f7065726174696f6e20646964206e6044820152691bdd081cdd58d8d9595960b21b6064820152608401610dba565b60d55460d65460405163d38e319760e01b815260cf600482015260248101849052604481019290925260648201526000908190819073__$c4f279750f4bbb575ac7775e752dc00849$__9063d38e31979060840160606040518083038186803b1580156146ca57600080fd5b505af41580156146de573d6000803e3d6000fd5b505050506040513d601f19601f820116820180604052508101906147029190615241565b92505091506000811115610dd65760cc5460d75460d354604051631474764f60e11b81526001600160a01b037f000000000000000000000000000000000000000000000000000000000000000081166004830152620100009094048416602482015291831660448301529190911660648201526084810182905273__$284794d205a530c1a37f8f90001a836887$__906328e8ec9e9060a40160206040518083038186803b1580156147b357600080fd5b505af41580156147c7573d6000803e3d6000fd5b505050506040513d601f19601f820116820180604052508101906147eb9190615205565b5060d35460cf54604080518581526020810185905261ffff90921682820152516001600160a01b03909216917f0a242f7ecaf711036ca770774ceffae28e60ef042ac113ddd187f2631db0c0069181900360600190a29392505050565b6001600160a01b03821661489e5760405162461bcd60e51b815260206004820152601f60248201527f45524332303a206d696e7420746f20746865207a65726f2061646472657373006044820152606401610dba565b80609960008282546148b091906155e5565b90915550506001600160a01b038216600090815260976020526040812080548392906148dd9084906155e5565b90915550506040518181526001600160a01b038316906000907fddf252ad1be2c89b69c2b068fc378daa952ba7f163c4a11628f55a4df523b3ef9060200160405180910390a35050565b600054610100900460ff1680614940575060005460ff16155b61495c5760405162461bcd60e51b8152600401610dba906154db565b600054610100900460ff1615801561497e576000805461ffff19166101011790555b614986614af2565b8015612bfd576000805461ff001916905550565b600054610100900460ff16806149b3575060005460ff16155b6149cf5760405162461bcd60e51b8152600401610dba906154db565b600054610100900460ff161580156149f1576000805461ffff19166101011790555b6149f9614b61565b614a038383614bcb565b80156144cb576000805461ff0019169055505050565b600054610100900460ff1680614a32575060005460ff16155b614a4e5760405162461bcd60e51b8152600401610dba906154db565b600054610100900460ff16158015614a70576000805461ffff19166101011790555b614a78614b61565b614986614c60565b600060018311614aca5760405162461bcd60e51b8152602060048201526015602482015274496e76616c6964206173736574506572536861726560581b6044820152606401610dba565b61140883612222614adc85600a615660565b879061334e565b60606114088484600085614cc0565b600054610100900460ff1680614b0b575060005460ff16155b614b275760405162461bcd60e51b8152600401610dba906154db565b600054610100900460ff16158015614b49576000805461ffff19166101011790555b600180558015612bfd576000805461ff001916905550565b600054610100900460ff1680614b7a575060005460ff16155b614b965760405162461bcd60e51b8152600401610dba906154db565b600054610100900460ff16158015614986576000805461ffff19166101011790558015612bfd576000805461ff001916905550565b600054610100900460ff1680614be4575060005460ff16155b614c005760405162461bcd60e51b8152600401610dba906154db565b600054610100900460ff16158015614c22576000805461ffff19166101011790555b8251614c3590609a906020860190614e21565b508151614c4990609b906020850190614e21565b5080156144cb576000805461ff0019169055505050565b600054610100900460ff1680614c79575060005460ff16155b614c955760405162461bcd60e51b8152600401610dba906154db565b600054610100900460ff16158015614cb7576000805461ffff19166101011790555b61498633613ad2565b606082471015614d215760405162461bcd60e51b815260206004820152602660248201527f416464726573733a20696e73756666696369656e742062616c616e636520666f6044820152651c8818d85b1b60d21b6064820152608401610dba565b843b614d6f5760405162461bcd60e51b815260206004820152601d60248201527f416464726573733a2063616c6c20746f206e6f6e2d636f6e74726163740000006044820152606401610dba565b600080866001600160a01b03168587604051614d8b91906152cf565b60006040518083038185875af1925050503d8060008114614dc8576040519150601f19603f3d011682016040523d82523d6000602084013e614dcd565b606091505b5091509150614ddd828286614de8565b979650505050505050565b60608315614df7575081610dd6565b825115614e075782518084602001fd5b8160405162461bcd60e51b8152600401610dba91906154a7565b828054614e2d9061576a565b90600052602060002090601f016020900481019282614e4f5760008555614e95565b82601f10614e6857805160ff1916838001178555614e95565b82800160010185558215614e95579182015b82811115614e95578251825591602001919060010190614e7a565b50614ea1929150614ea5565b5090565b5b80821115614ea15760008155600101614ea6565b8035614ec58161591e565b919050565b600082601f830112614eda578081fd5b813567ffffffffffffffff80821115614ef557614ef56157d0565b604051601f8301601f19908116603f01168101908282118183101715614f1d57614f1d6157d0565b81604052838152866020858801011115614f35578485fd5b8360208701602083013792830160200193909352509392505050565b600060c08284031215614f62578081fd5b50919050565b8035614ec581615941565b803563ffffffff81168114614ec557600080fd5b8035614ec581615956565b600060208284031215614fa3578081fd5b8135610dd68161591e565b600060208284031215614fbf578081fd5b8151610dd68161591e565b60008060408385031215614fdc578081fd5b8235614fe78161591e565b91506020830135614ff78161591e565b809150509250929050565b6000806000806000806000806000806000806102208d8f031215615024578788fd5b61502d8d614eba565b9b5061503b60208e01614eba565b9a5061504960408e01614eba565b995060608d0135985060808d0135975067ffffffffffffffff60a08e01351115615071578687fd5b6150818e60a08f01358f01614eca565b965067ffffffffffffffff60c08e0135111561509b578586fd5b6150ab8e60c08f01358f01614eca565b95506150b960e08e01614eba565b94506150c86101008e01614eba565b93506150d76101208e01614f73565b92506101408d013591506150ef8e6101608f01614f51565b90509295989b509295989b509295989b565b600080600060608486031215615115578283fd5b83356151208161591e565b925060208401356151308161591e565b929592945050506040919091013590565b60008060408385031215615153578182fd5b823561515e8161591e565b946020939093013593505050565b60008060008060808587031215615181578384fd5b845161518c8161591e565b60208601516040870151606090970151919890975090945092505050565b6000602082840312156151bb578081fd5b8151610dd681615933565b6000602082840312156151d7578081fd5b81356001600160801b0381168114610dd6578182fd5b6000602082840312156151fe578081fd5b5035919050565b600060208284031215615216578081fd5b5051919050565b6000806040838503121561522f578182fd5b823591506020830135614ff78161591e565b600080600060608486031215615255578081fd5b8351925060208401519150604084015190509250925092565b60008060008060808587031215615283578182fd5b505082516020840151604085015160609095015191969095509092509050565b600081518084526152bb81602086016020860161573e565b601f01601f19169290920160200192915050565b600082516152e181846020870161573e565b9190910192915050565b6001600160a01b039485168152928416602084015292166040820152606081019190915260800190565b60006101a060018060a01b03808c168452808b166020850152808a1660408501528860608501528760808501528160a0850152615354828501886152a3565b915083820360c085015261536882876152a3565b92508435915061537782615933565b90151560e084015260208401359061538e8261596b565b60ff8216610100850152604085013591506153a88261591e565b166101208301526153bb60608401614eba565b6001600160a01b03166101408301526153d660808401614f87565b66ffffffffffffff166101608301526153f160a08401614f68565b6001600160681b038116610180840152509998505050505050505050565b60006101808201905060018060a01b03808a16835280891660208401528760408401528087511660608401528060208801511660808401528060408801511660a084015250606086015160c083015261ffff60808701511660e083015260a0860151610100830152846101208301528361014083015261549b6101608301846001600160a01b03169052565b98975050505050505050565b602081526000610dd660208301846152a3565b60208082526007908201526610b5b2b2b832b960c91b604082015260600190565b6020808252602e908201527f496e697469616c697a61626c653a20636f6e747261637420697320616c72656160408201526d191e481a5b9a5d1a585b1a5e995960921b606082015260800190565b6020808252818101527f4f776e61626c653a2063616c6c6572206973206e6f7420746865206f776e6572604082015260600190565b60208082526007908201526608585b5bdd5b9d60ca1b604082015260600190565b6020808252601f908201527f5265656e7472616e637947756172643a207265656e7472616e742063616c6c00604082015260600190565b9485526001600160a01b0393841660208601529190921660408401526060830191909152608082015260a00190565b600082198211156155f8576155f86157ba565b500190565b60008261561857634e487b7160e01b81526012600452602481fd5b500490565b600181815b8085111561565857816000190482111561563e5761563e6157ba565b8085161561564b57918102915b93841c9390800290615622565b509250929050565b6000610dd6838360008261567657506001610d26565b8161568357506000610d26565b816001811461569957600281146156a3576156bf565b6001915050610d26565b60ff8411156156b4576156b46157ba565b50506001821b610d26565b5060208310610133831016604e8410600b84101617156156e2575081810a610d26565b6156ec838361561d565b8060001904821115615700576157006157ba565b029392505050565b6000816000190483118215151615615722576157226157ba565b500290565b600082821015615739576157396157ba565b500390565b60005b83811015615759578181015183820152602001615741565b8381111561333c5750506000910152565b600181811c9082168061577e57607f821691505b60208210811415614f6257634e487b7160e01b600052602260045260246000fd5b60006000198214156157b3576157b36157ba565b5060010190565b634e487b7160e01b600052601160045260246000fd5b634e487b7160e01b600052604160045260246000fd5b60008135610d268161591e565b60008135610d2681615941565b60008135610d2681615956565b813561581881615933565b815460ff19811691151560ff16918217835560208401356158388161596b565b61ff008160081b169050808361ffff19841617178455604085013561585c8161591e565b6001600160b01b0319929092169092179190911760109190911b62010000600160b01b0316178155600181016158b4615897606085016157e6565b82546001600160a01b0319166001600160a01b0391909116178255565b6158ed6158c360808501615800565b82805466ffffffffffffff60a01b191660a09290921b66ffffffffffffff60a01b16919091179055565b506143106158fd60a084016157f3565b600283016001600160681b0382166001600160681b03198254161781555050565b6001600160a01b0381168114612bfd57600080fd5b8015158114612bfd57600080fd5b6001600160681b0381168114612bfd57600080fd5b66ffffffffffffff81168114612bfd57600080fd5b60ff81168114612bfd57600080fdfea2646970667358221220a0956959b6a9028ae89017d2916fcd37892c04a0b5c2ff30fadba4db5574852664736f6c63430008040033",
  "libraries": {
    "VaultLifecycle": "0x14Cc2c0b624e437202B53E533147982842865511",
    "VaultLifecycleYearn": "0xaCB7f3Baf1D9986760c0A470CD14cEcA7544D4D0"
  },
  "devdoc": {
    "kind": "dev",
    "methods": {
      "accountVaultBalance(address)": {
        "params": {
          "account": "is the address to lookup balance for"
        },
        "returns": {
          "_0": "the amount of `asset` custodied by the vault for the user"
        }
      },
      "allowance(address,address)": {
        "details": "See {IERC20-allowance}."
      },
      "approve(address,uint256)": {
        "details": "See {IERC20-approve}. Requirements: - `spender` cannot be the zero address."
      },
      "balanceOf(address)": {
        "details": "See {IERC20-balanceOf}."
      },
      "constructor": {
        "params": {
          "_gammaController": "is the contract address for opyn actions",
          "_gnosisEasyAuction": "is the contract address that facilitates gnosis auctions",
          "_marginPool": "is the contract address for providing collateral to opyn",
          "_oTokenFactory": "is the contract address for minting new opyn option types (strikes, asset, expiry)",
          "_usdc": "is the USDC contract",
          "_weth": "is the Wrapped Ether contract",
          "_yearnRegistry": "is the address of the yearn registry from token to vault token"
        }
      },
      "decreaseAllowance(address,uint256)": {
        "details": "Atomically decreases the allowance granted to `spender` by the caller. This is an alternative to {approve} that can be used as a mitigation for problems described in {IERC20-approve}. Emits an {Approval} event indicating the updated allowance. Requirements: - `spender` cannot be the zero address. - `spender` must have allowance for the caller of at least `subtractedValue`."
      },
      "deposit(uint256)": {
        "params": {
          "amount": "is the amount of `asset` to deposit"
        }
      },
      "depositFor(uint256,address)": {
        "params": {
          "amount": "is the amount of `asset` to deposit",
          "creditor": "is the address that can claim/withdraw deposited amount"
        }
      },
      "depositYieldToken(uint256)": {
        "params": {
          "amount": "is the amount of `collateralToken` to deposit"
        }
      },
      "increaseAllowance(address,uint256)": {
        "details": "Atomically increases the allowance granted to `spender` by the caller. This is an alternative to {approve} that can be used as a mitigation for problems described in {IERC20-approve}. Emits an {Approval} event indicating the updated allowance. Requirements: - `spender` cannot be the zero address."
      },
      "initialize(address,address,address,uint256,uint256,string,string,address,address,uint32,uint256,(bool,uint8,address,address,uint56,uint104))": {
        "params": {
          "_auctionDuration": "is the duration of the gnosis auction",
          "_feeRecipient": "is the address to recieve vault performance and management fees",
          "_keeper": "is the keeper of the vault with medium permissions (weekly actions)",
          "_managementFee": "is the management fee pct.",
          "_optionsPremiumPricer": "is the address of the contract with the black-scholes premium calculation logic",
          "_owner": "is the owner of the vault with critical permissions",
          "_performanceFee": "is the perfomance fee pct.",
          "_premiumDiscount": "is the vault's discount applied to the premium",
          "_strikeSelection": "is the address of the contract with strike selection logic",
          "_tokenName": "is the name of the token",
          "_tokenSymbol": "is the symbol of the token",
          "_vaultParams": "is the struct with vault general data"
        }
      },
      "initiateWithdraw(uint256)": {
        "params": {
          "numShares": "is the number of shares to withdraw"
        }
      },
      "name()": {
        "details": "Returns the name of the token."
      },
      "owner()": {
        "details": "Returns the address of the current owner."
      },
      "redeem(uint256)": {
        "params": {
          "numShares": "is the number of shares to redeem"
        }
      },
      "renounceOwnership()": {
        "details": "Leaves the contract without owner. It will not be possible to call `onlyOwner` functions anymore. Can only be called by the current owner. NOTE: Renouncing ownership will leave the contract without an owner, thereby removing any functionality that is only available to the owner."
      },
      "setAuctionDuration(uint256)": {
        "params": {
          "newAuctionDuration": "is the auction duration"
        }
      },
      "setCap(uint256)": {
        "params": {
          "newCap": "is the new cap for deposits"
        }
      },
      "setFeeRecipient(address)": {
        "params": {
          "newFeeRecipient": "is the address of the new fee recipient"
        }
      },
      "setManagementFee(uint256)": {
        "params": {
          "newManagementFee": "is the management fee (6 decimals). ex: 2 * 10 ** 6 = 2%"
        }
      },
      "setNewKeeper(address)": {
        "params": {
          "newKeeper": "is the address of the new keeper"
        }
      },
      "setOptionsPremiumPricer(address)": {
        "params": {
          "newOptionsPremiumPricer": "is the address of the new strike selection contract"
        }
      },
      "setPerformanceFee(uint256)": {
        "params": {
          "newPerformanceFee": "is the performance fee (6 decimals). ex: 20 * 10 ** 6 = 20%"
        }
      },
      "setPremiumDiscount(uint256)": {
        "params": {
          "newPremiumDiscount": "is the premium discount"
        }
      },
      "setStrikePrice(uint128)": {
        "params": {
          "strikePrice": "is the strike price of the new oTokens (decimals = 8)"
        }
      },
      "setStrikeSelection(address)": {
        "params": {
          "newStrikeSelection": "is the address of the new strike selection contract"
        }
      },
      "shareBalances(address)": {
        "params": {
          "account": "is the account to lookup share balance for"
        },
        "returns": {
          "heldByAccount": "is the shares held by account",
          "heldByVault": "is the shares held on the vault (unredeemedShares)"
        }
      },
      "shares(address)": {
        "params": {
          "account": "is the account to lookup share balance for"
        },
        "returns": {
          "_0": "the share balance"
        }
      },
      "symbol()": {
        "details": "Returns the symbol of the token, usually a shorter version of the name."
      },
      "totalBalance()": {
        "returns": {
          "_0": "total balance of the vault, including the amounts locked in third party protocols"
        }
      },
      "totalSupply()": {
        "details": "See {IERC20-totalSupply}."
      },
      "transfer(address,uint256)": {
        "details": "See {IERC20-transfer}. Requirements: - `recipient` cannot be the zero address. - the caller must have a balance of at least `amount`."
      },
      "transferFrom(address,address,uint256)": {
        "details": "See {IERC20-transferFrom}. Emits an {Approval} event indicating the updated allowance. This is not required by the EIP. See the note at the beginning of {ERC20}. Requirements: - `sender` and `recipient` cannot be the zero address. - `sender` must have a balance of at least `amount`. - the caller must have allowance for ``sender``'s tokens of at least `amount`."
      },
      "transferOwnership(address)": {
        "details": "Transfers ownership of the contract to a new account (`newOwner`). Can only be called by the current owner."
      },
      "withdrawInstantly(uint256)": {
        "params": {
          "amount": "is the amount to withdraw"
        }
      }
    },
    "version": 1
  },
  "userdoc": {
    "kind": "user",
    "methods": {
      "DELAY()": {
        "notice": "15 minute timelock between commitAndClose and rollToNexOption."
      },
      "OTOKEN_FACTORY()": {
        "notice": "oTokenFactory is the factory contract used to spawn otokens. Used to lookup otokens."
      },
      "PERIOD()": {
        "notice": "7 day period between each options sale."
      },
      "USDC()": {
        "notice": "USDC 0xA0b86991c6218b36c1d19D4a2e9Eb0cE3606eB48"
      },
      "WETH()": {
        "notice": "WETH9 0xC02aaA39b223FE8D0A0e5C4F27eAD9083C756Cc2"
      },
      "YEARN_WITHDRAWAL_BUFFER()": {
        "notice": "Withdrawal buffer for yearn vault"
      },
      "YEARN_WITHDRAWAL_SLIPPAGE()": {
        "notice": "Slippage incurred during withdrawal"
      },
      "accountVaultBalance(address)": {
        "notice": "Returns the asset balance held on the vault for the account"
      },
      "burnRemainingOTokens()": {
        "notice": "Burn the remaining oTokens left over from gnosis auction."
      },
      "collateralToken()": {
        "notice": "Yearn vault contract"
      },
      "commitAndClose()": {
        "notice": "Sets the next option the vault will be shorting, and closes the existing short.         This allows all the users to withdraw if the next option is malicious."
      },
      "completeWithdraw()": {
        "notice": "Completes a scheduled withdrawal from a past round. Uses finalized pps for the round"
      },
      "constructor": {
        "notice": "Initializes the contract with immutable variables"
      },
      "decimals()": {
        "notice": "Returns the token decimals"
      },
      "deposit(uint256)": {
        "notice": "Deposits the `asset` from msg.sender."
      },
      "depositFor(uint256,address)": {
        "notice": "Deposits the `asset` from msg.sender added to `creditor`'s deposit.Used for vault -> vault deposits on the user's behalf"
      },
      "depositReceipts(address)": {
        "notice": "Stores the user's pending deposit for the round"
      },
      "depositYieldToken(uint256)": {
        "notice": "Deposits the `collateralToken` into the contract and mint vault shares."
      },
      "feeRecipient()": {
        "notice": "Fee recipient for the performance and management fees"
      },
      "initialize(address,address,address,uint256,uint256,string,string,address,address,uint32,uint256,(bool,uint8,address,address,uint56,uint104))": {
        "notice": "Initializes the OptionVault contract with storage variables."
      },
      "initiateWithdraw(uint256)": {
        "notice": "Initiates a withdrawal that can be processed once the round completes"
      },
      "keeper()": {
        "notice": "role in charge of weekly vault operations such as rollToNextOption and burnRemainingOTokens"
      },
      "managementFee()": {
        "notice": "Management fee charged on entire AUM in rollToNextOption. Only charged when there is no loss."
      },
      "maxRedeem()": {
        "notice": "Redeems the entire unredeemedShares balance that is owed to the account"
      },
      "optionState()": {
        "notice": "Vault's state of the options sold and the timelocked option"
      },
      "performanceFee()": {
        "notice": "Performance fee charged on premiums earned in rollToNextOption. Only charged when there is no loss."
      },
      "pricePerShare()": {
        "notice": "The price of a unit of share denominated in the `asset`"
      },
      "redeem(uint256)": {
        "notice": "Redeems shares that are owed to the account"
      },
      "rollToNextOption()": {
        "notice": "Rolls the vault's funds into a new short position."
      },
      "roundPricePerShare(uint256)": {
        "notice": "On every round's close, the pricePerShare value of an rTHETA token is stored This is used to determine the number of shares to be returned to a user with their DepositReceipt.depositAmount"
      },
      "setAuctionDuration(uint256)": {
        "notice": "Sets the new auction duration"
      },
      "setCap(uint256)": {
        "notice": "Sets a new cap for deposits"
      },
      "setFeeRecipient(address)": {
        "notice": "Sets the new fee recipient"
      },
      "setManagementFee(uint256)": {
        "notice": "Sets the management fee for the vault"
      },
      "setNewKeeper(address)": {
        "notice": "Sets the new keeper"
      },
      "setOptionsPremiumPricer(address)": {
        "notice": "Sets the new options premium pricer contract"
      },
      "setPerformanceFee(uint256)": {
        "notice": "Sets the performance fee for the vault"
      },
      "setPremiumDiscount(uint256)": {
        "notice": "Sets the new discount on premiums for options we are selling"
      },
      "setStrikePrice(uint128)": {
        "notice": "Optionality to set strike price manually"
      },
      "setStrikeSelection(address)": {
        "notice": "Sets the new strike selection contract"
      },
      "shareBalances(address)": {
        "notice": "Getter for returning the account's share balance split between account and vault holdings"
      },
      "shares(address)": {
        "notice": "Getter for returning the account's share balance including unredeemed shares"
      },
      "startAuction()": {
        "notice": "Initiate the gnosis auction."
      },
      "totalBalance()": {
        "notice": "Returns the vault's total balance, including the amounts locked into a short position"
      },
      "vaultParams()": {
        "notice": "Vault's parameters like cap, decimals"
      },
      "vaultState()": {
        "notice": "Vault's lifecycle state like round and locked amounts"
      },
      "withdrawInstantly(uint256)": {
        "notice": "Withdraws the assets on the vault using the outstanding `DepositReceipt.amount`"
      },
      "withdrawals(address)": {
        "notice": "Stores pending user withdrawals"
      }
    },
    "notice": "UPGRADEABILITY: Since we use the upgradeable proxy pattern, we must observe the inheritance chain closely. Any changes/appends in storage variable needs to happen in RibbonThetaYearnVaultStorage. RibbonThetaYearnVault should not inherit from any other contract aside from RibbonVault, RibbonThetaYearnVaultStorage",
    "version": 1
  },
  "storageLayout": {
    "storage": [
      {
        "astId": 130,
        "contract": "contracts/vaults/YearnVaults/RibbonThetaYearnVault.sol:RibbonThetaYearnVault",
        "label": "_initialized",
        "offset": 0,
        "slot": "0",
        "type": "t_bool"
      },
      {
        "astId": 133,
        "contract": "contracts/vaults/YearnVaults/RibbonThetaYearnVault.sol:RibbonThetaYearnVault",
        "label": "_initializing",
        "offset": 1,
        "slot": "0",
        "type": "t_bool"
      },
      {
        "astId": 184,
        "contract": "contracts/vaults/YearnVaults/RibbonThetaYearnVault.sol:RibbonThetaYearnVault",
        "label": "_status",
        "offset": 0,
        "slot": "1",
        "type": "t_uint256"
      },
      {
        "astId": 227,
        "contract": "contracts/vaults/YearnVaults/RibbonThetaYearnVault.sol:RibbonThetaYearnVault",
        "label": "__gap",
        "offset": 0,
        "slot": "2",
        "type": "t_array(t_uint256)49_storage"
      },
      {
        "astId": 947,
        "contract": "contracts/vaults/YearnVaults/RibbonThetaYearnVault.sol:RibbonThetaYearnVault",
        "label": "__gap",
        "offset": 0,
        "slot": "51",
        "type": "t_array(t_uint256)50_storage"
      },
      {
        "astId": 10,
        "contract": "contracts/vaults/YearnVaults/RibbonThetaYearnVault.sol:RibbonThetaYearnVault",
        "label": "_owner",
        "offset": 0,
        "slot": "101",
        "type": "t_address"
      },
      {
        "astId": 123,
        "contract": "contracts/vaults/YearnVaults/RibbonThetaYearnVault.sol:RibbonThetaYearnVault",
        "label": "__gap",
        "offset": 0,
        "slot": "102",
        "type": "t_array(t_uint256)49_storage"
      },
      {
        "astId": 247,
        "contract": "contracts/vaults/YearnVaults/RibbonThetaYearnVault.sol:RibbonThetaYearnVault",
        "label": "_balances",
        "offset": 0,
        "slot": "151",
        "type": "t_mapping(t_address,t_uint256)"
      },
      {
        "astId": 253,
        "contract": "contracts/vaults/YearnVaults/RibbonThetaYearnVault.sol:RibbonThetaYearnVault",
        "label": "_allowances",
        "offset": 0,
        "slot": "152",
        "type": "t_mapping(t_address,t_mapping(t_address,t_uint256))"
      },
      {
        "astId": 255,
        "contract": "contracts/vaults/YearnVaults/RibbonThetaYearnVault.sol:RibbonThetaYearnVault",
        "label": "_totalSupply",
        "offset": 0,
        "slot": "153",
        "type": "t_uint256"
      },
      {
        "astId": 257,
        "contract": "contracts/vaults/YearnVaults/RibbonThetaYearnVault.sol:RibbonThetaYearnVault",
        "label": "_name",
        "offset": 0,
        "slot": "154",
        "type": "t_string_storage"
      },
      {
        "astId": 259,
        "contract": "contracts/vaults/YearnVaults/RibbonThetaYearnVault.sol:RibbonThetaYearnVault",
        "label": "_symbol",
        "offset": 0,
        "slot": "155",
        "type": "t_string_storage"
      },
      {
        "astId": 800,
        "contract": "contracts/vaults/YearnVaults/RibbonThetaYearnVault.sol:RibbonThetaYearnVault",
        "label": "__gap",
        "offset": 0,
        "slot": "156",
        "type": "t_array(t_uint256)45_storage"
      },
      {
        "astId": 14751,
        "contract": "contracts/vaults/YearnVaults/RibbonThetaYearnVault.sol:RibbonThetaYearnVault",
        "label": "depositReceipts",
        "offset": 0,
        "slot": "201",
        "type": "t_mapping(t_address,t_struct(DepositReceipt)4384_storage)"
      },
      {
        "astId": 14756,
        "contract": "contracts/vaults/YearnVaults/RibbonThetaYearnVault.sol:RibbonThetaYearnVault",
        "label": "roundPricePerShare",
        "offset": 0,
        "slot": "202",
        "type": "t_mapping(t_uint256,t_uint256)"
      },
      {
        "astId": 14762,
        "contract": "contracts/vaults/YearnVaults/RibbonThetaYearnVault.sol:RibbonThetaYearnVault",
        "label": "withdrawals",
        "offset": 0,
        "slot": "203",
        "type": "t_mapping(t_address,t_struct(Withdrawal)4389_storage)"
      },
      {
        "astId": 14766,
        "contract": "contracts/vaults/YearnVaults/RibbonThetaYearnVault.sol:RibbonThetaYearnVault",
        "label": "vaultParams",
        "offset": 0,
        "slot": "204",
        "type": "t_struct(VaultParams)4359_storage"
      },
      {
        "astId": 14770,
        "contract": "contracts/vaults/YearnVaults/RibbonThetaYearnVault.sol:RibbonThetaYearnVault",
        "label": "vaultState",
        "offset": 0,
        "slot": "207",
        "type": "t_struct(VaultState)4377_storage"
      },
      {
        "astId": 14774,
        "contract": "contracts/vaults/YearnVaults/RibbonThetaYearnVault.sol:RibbonThetaYearnVault",
        "label": "optionState",
        "offset": 0,
        "slot": "209",
        "type": "t_struct(OptionState)4366_storage"
      },
      {
        "astId": 14777,
        "contract": "contracts/vaults/YearnVaults/RibbonThetaYearnVault.sol:RibbonThetaYearnVault",
        "label": "feeRecipient",
        "offset": 0,
        "slot": "211",
        "type": "t_address"
      },
      {
        "astId": 14780,
        "contract": "contracts/vaults/YearnVaults/RibbonThetaYearnVault.sol:RibbonThetaYearnVault",
        "label": "keeper",
        "offset": 0,
        "slot": "212",
        "type": "t_address"
      },
      {
        "astId": 14783,
        "contract": "contracts/vaults/YearnVaults/RibbonThetaYearnVault.sol:RibbonThetaYearnVault",
        "label": "performanceFee",
        "offset": 0,
        "slot": "213",
        "type": "t_uint256"
      },
      {
        "astId": 14786,
        "contract": "contracts/vaults/YearnVaults/RibbonThetaYearnVault.sol:RibbonThetaYearnVault",
        "label": "managementFee",
        "offset": 0,
        "slot": "214",
        "type": "t_uint256"
      },
      {
        "astId": 14790,
        "contract": "contracts/vaults/YearnVaults/RibbonThetaYearnVault.sol:RibbonThetaYearnVault",
        "label": "collateralToken",
        "offset": 0,
        "slot": "215",
        "type": "t_contract(IYearnVault)3508"
      },
      {
        "astId": 14794,
        "contract": "contracts/vaults/YearnVaults/RibbonThetaYearnVault.sol:RibbonThetaYearnVault",
        "label": "____gap",
        "offset": 0,
        "slot": "216",
        "type": "t_array(t_uint256)30_storage"
      },
      {
        "astId": 7439,
        "contract": "contracts/vaults/YearnVaults/RibbonThetaYearnVault.sol:RibbonThetaYearnVault",
        "label": "optionsPremiumPricer",
        "offset": 0,
        "slot": "246",
        "type": "t_address"
      },
      {
        "astId": 7441,
        "contract": "contracts/vaults/YearnVaults/RibbonThetaYearnVault.sol:RibbonThetaYearnVault",
        "label": "strikeSelection",
        "offset": 0,
        "slot": "247",
        "type": "t_address"
      },
      {
        "astId": 7443,
        "contract": "contracts/vaults/YearnVaults/RibbonThetaYearnVault.sol:RibbonThetaYearnVault",
        "label": "premiumDiscount",
        "offset": 0,
        "slot": "248",
        "type": "t_uint256"
      },
      {
        "astId": 7445,
        "contract": "contracts/vaults/YearnVaults/RibbonThetaYearnVault.sol:RibbonThetaYearnVault",
        "label": "currentOtokenPremium",
        "offset": 0,
        "slot": "249",
        "type": "t_uint256"
      },
      {
        "astId": 7447,
        "contract": "contracts/vaults/YearnVaults/RibbonThetaYearnVault.sol:RibbonThetaYearnVault",
        "label": "lastStrikeOverrideRound",
        "offset": 0,
        "slot": "250",
        "type": "t_uint16"
      },
      {
        "astId": 7449,
        "contract": "contracts/vaults/YearnVaults/RibbonThetaYearnVault.sol:RibbonThetaYearnVault",
        "label": "overriddenStrikePrice",
        "offset": 0,
        "slot": "251",
        "type": "t_uint256"
      },
      {
        "astId": 7451,
        "contract": "contracts/vaults/YearnVaults/RibbonThetaYearnVault.sol:RibbonThetaYearnVault",
        "label": "auctionDuration",
        "offset": 0,
        "slot": "252",
        "type": "t_uint256"
      },
      {
        "astId": 7453,
        "contract": "contracts/vaults/YearnVaults/RibbonThetaYearnVault.sol:RibbonThetaYearnVault",
        "label": "optionAuctionID",
        "offset": 0,
        "slot": "253",
        "type": "t_uint256"
      }
    ],
    "types": {
      "t_address": {
        "encoding": "inplace",
        "label": "address",
        "numberOfBytes": "20"
      },
      "t_array(t_uint256)30_storage": {
        "base": "t_uint256",
        "encoding": "inplace",
        "label": "uint256[30]",
        "numberOfBytes": "960"
      },
      "t_array(t_uint256)45_storage": {
        "base": "t_uint256",
        "encoding": "inplace",
        "label": "uint256[45]",
        "numberOfBytes": "1440"
      },
      "t_array(t_uint256)49_storage": {
        "base": "t_uint256",
        "encoding": "inplace",
        "label": "uint256[49]",
        "numberOfBytes": "1568"
      },
      "t_array(t_uint256)50_storage": {
        "base": "t_uint256",
        "encoding": "inplace",
        "label": "uint256[50]",
        "numberOfBytes": "1600"
      },
      "t_bool": {
        "encoding": "inplace",
        "label": "bool",
        "numberOfBytes": "1"
      },
      "t_contract(IYearnVault)3508": {
        "encoding": "inplace",
        "label": "contract IYearnVault",
        "numberOfBytes": "20"
      },
      "t_mapping(t_address,t_mapping(t_address,t_uint256))": {
        "encoding": "mapping",
        "key": "t_address",
        "label": "mapping(address => mapping(address => uint256))",
        "numberOfBytes": "32",
        "value": "t_mapping(t_address,t_uint256)"
      },
      "t_mapping(t_address,t_struct(DepositReceipt)4384_storage)": {
        "encoding": "mapping",
        "key": "t_address",
        "label": "mapping(address => struct Vault.DepositReceipt)",
        "numberOfBytes": "32",
        "value": "t_struct(DepositReceipt)4384_storage"
      },
      "t_mapping(t_address,t_struct(Withdrawal)4389_storage)": {
        "encoding": "mapping",
        "key": "t_address",
        "label": "mapping(address => struct Vault.Withdrawal)",
        "numberOfBytes": "32",
        "value": "t_struct(Withdrawal)4389_storage"
      },
      "t_mapping(t_address,t_uint256)": {
        "encoding": "mapping",
        "key": "t_address",
        "label": "mapping(address => uint256)",
        "numberOfBytes": "32",
        "value": "t_uint256"
      },
      "t_mapping(t_uint256,t_uint256)": {
        "encoding": "mapping",
        "key": "t_uint256",
        "label": "mapping(uint256 => uint256)",
        "numberOfBytes": "32",
        "value": "t_uint256"
      },
      "t_string_storage": {
        "encoding": "bytes",
        "label": "string",
        "numberOfBytes": "32"
      },
      "t_struct(DepositReceipt)4384_storage": {
        "encoding": "inplace",
        "label": "struct Vault.DepositReceipt",
        "members": [
          {
            "astId": 4379,
            "contract": "contracts/vaults/YearnVaults/RibbonThetaYearnVault.sol:RibbonThetaYearnVault",
            "label": "round",
            "offset": 0,
            "slot": "0",
            "type": "t_uint16"
          },
          {
            "astId": 4381,
            "contract": "contracts/vaults/YearnVaults/RibbonThetaYearnVault.sol:RibbonThetaYearnVault",
            "label": "amount",
            "offset": 2,
            "slot": "0",
            "type": "t_uint104"
          },
          {
            "astId": 4383,
            "contract": "contracts/vaults/YearnVaults/RibbonThetaYearnVault.sol:RibbonThetaYearnVault",
            "label": "unredeemedShares",
            "offset": 15,
            "slot": "0",
            "type": "t_uint128"
          }
        ],
        "numberOfBytes": "32"
      },
      "t_struct(OptionState)4366_storage": {
        "encoding": "inplace",
        "label": "struct Vault.OptionState",
        "members": [
          {
            "astId": 4361,
            "contract": "contracts/vaults/YearnVaults/RibbonThetaYearnVault.sol:RibbonThetaYearnVault",
            "label": "nextOption",
            "offset": 0,
            "slot": "0",
            "type": "t_address"
          },
          {
            "astId": 4363,
            "contract": "contracts/vaults/YearnVaults/RibbonThetaYearnVault.sol:RibbonThetaYearnVault",
            "label": "currentOption",
            "offset": 0,
            "slot": "1",
            "type": "t_address"
          },
          {
            "astId": 4365,
            "contract": "contracts/vaults/YearnVaults/RibbonThetaYearnVault.sol:RibbonThetaYearnVault",
            "label": "nextOptionReadyAt",
            "offset": 20,
            "slot": "1",
            "type": "t_uint32"
          }
        ],
        "numberOfBytes": "64"
      },
      "t_struct(VaultParams)4359_storage": {
        "encoding": "inplace",
        "label": "struct Vault.VaultParams",
        "members": [
          {
            "astId": 4348,
            "contract": "contracts/vaults/YearnVaults/RibbonThetaYearnVault.sol:RibbonThetaYearnVault",
            "label": "isPut",
            "offset": 0,
            "slot": "0",
            "type": "t_bool"
          },
          {
            "astId": 4350,
            "contract": "contracts/vaults/YearnVaults/RibbonThetaYearnVault.sol:RibbonThetaYearnVault",
            "label": "decimals",
            "offset": 1,
            "slot": "0",
            "type": "t_uint8"
          },
          {
            "astId": 4352,
            "contract": "contracts/vaults/YearnVaults/RibbonThetaYearnVault.sol:RibbonThetaYearnVault",
            "label": "asset",
            "offset": 2,
            "slot": "0",
            "type": "t_address"
          },
          {
            "astId": 4354,
            "contract": "contracts/vaults/YearnVaults/RibbonThetaYearnVault.sol:RibbonThetaYearnVault",
            "label": "underlying",
            "offset": 0,
            "slot": "1",
            "type": "t_address"
          },
          {
            "astId": 4356,
            "contract": "contracts/vaults/YearnVaults/RibbonThetaYearnVault.sol:RibbonThetaYearnVault",
            "label": "minimumSupply",
            "offset": 20,
            "slot": "1",
            "type": "t_uint56"
          },
          {
            "astId": 4358,
            "contract": "contracts/vaults/YearnVaults/RibbonThetaYearnVault.sol:RibbonThetaYearnVault",
            "label": "cap",
            "offset": 0,
            "slot": "2",
            "type": "t_uint104"
          }
        ],
        "numberOfBytes": "96"
      },
      "t_struct(VaultState)4377_storage": {
        "encoding": "inplace",
        "label": "struct Vault.VaultState",
        "members": [
          {
            "astId": 4368,
            "contract": "contracts/vaults/YearnVaults/RibbonThetaYearnVault.sol:RibbonThetaYearnVault",
            "label": "round",
            "offset": 0,
            "slot": "0",
            "type": "t_uint16"
          },
          {
            "astId": 4370,
            "contract": "contracts/vaults/YearnVaults/RibbonThetaYearnVault.sol:RibbonThetaYearnVault",
            "label": "lockedAmount",
            "offset": 2,
            "slot": "0",
            "type": "t_uint104"
          },
          {
            "astId": 4372,
            "contract": "contracts/vaults/YearnVaults/RibbonThetaYearnVault.sol:RibbonThetaYearnVault",
            "label": "lastLockedAmount",
            "offset": 15,
            "slot": "0",
            "type": "t_uint104"
          },
          {
            "astId": 4374,
            "contract": "contracts/vaults/YearnVaults/RibbonThetaYearnVault.sol:RibbonThetaYearnVault",
            "label": "totalPending",
            "offset": 0,
            "slot": "1",
            "type": "t_uint128"
          },
          {
            "astId": 4376,
            "contract": "contracts/vaults/YearnVaults/RibbonThetaYearnVault.sol:RibbonThetaYearnVault",
            "label": "queuedWithdrawShares",
            "offset": 16,
            "slot": "1",
            "type": "t_uint128"
          }
        ],
        "numberOfBytes": "64"
      },
      "t_struct(Withdrawal)4389_storage": {
        "encoding": "inplace",
        "label": "struct Vault.Withdrawal",
        "members": [
          {
            "astId": 4386,
            "contract": "contracts/vaults/YearnVaults/RibbonThetaYearnVault.sol:RibbonThetaYearnVault",
            "label": "round",
            "offset": 0,
            "slot": "0",
            "type": "t_uint16"
          },
          {
            "astId": 4388,
            "contract": "contracts/vaults/YearnVaults/RibbonThetaYearnVault.sol:RibbonThetaYearnVault",
            "label": "shares",
            "offset": 2,
            "slot": "0",
            "type": "t_uint128"
          }
        ],
        "numberOfBytes": "32"
      },
      "t_uint104": {
        "encoding": "inplace",
        "label": "uint104",
        "numberOfBytes": "13"
      },
      "t_uint128": {
        "encoding": "inplace",
        "label": "uint128",
        "numberOfBytes": "16"
      },
      "t_uint16": {
        "encoding": "inplace",
        "label": "uint16",
        "numberOfBytes": "2"
      },
      "t_uint256": {
        "encoding": "inplace",
        "label": "uint256",
        "numberOfBytes": "32"
      },
      "t_uint32": {
        "encoding": "inplace",
        "label": "uint32",
        "numberOfBytes": "4"
      },
      "t_uint56": {
        "encoding": "inplace",
        "label": "uint56",
        "numberOfBytes": "7"
      },
      "t_uint8": {
        "encoding": "inplace",
        "label": "uint8",
        "numberOfBytes": "1"
      }
    }
  }
}