{
  "address": "0x2e56d6E444Ab148eC1375Be108313AA759dfd248",
  "abi": [
    {
      "inputs": [
        {
          "internalType": "address",
          "name": "_weth",
          "type": "address"
        },
        {
          "internalType": "address",
          "name": "_usdc",
          "type": "address"
        },
        {
          "internalType": "address",
          "name": "_oTokenFactory",
          "type": "address"
        },
        {
          "internalType": "address",
          "name": "_gammaController",
          "type": "address"
        },
        {
          "internalType": "address",
          "name": "_marginPool",
          "type": "address"
        },
        {
          "internalType": "address",
          "name": "_gnosisEasyAuction",
          "type": "address"
        }
      ],
      "stateMutability": "nonpayable",
      "type": "constructor"
    },
    {
      "anonymous": false,
      "inputs": [
        {
          "indexed": true,
          "internalType": "address",
          "name": "owner",
          "type": "address"
        },
        {
          "indexed": true,
          "internalType": "address",
          "name": "spender",
          "type": "address"
        },
        {
          "indexed": false,
          "internalType": "uint256",
          "name": "value",
          "type": "uint256"
        }
      ],
      "name": "Approval",
      "type": "event"
    },
    {
      "anonymous": false,
      "inputs": [
        {
          "indexed": false,
          "internalType": "uint256",
          "name": "auctionDuration",
          "type": "uint256"
        },
        {
          "indexed": false,
          "internalType": "uint256",
          "name": "newAuctionDuration",
          "type": "uint256"
        }
      ],
      "name": "AuctionDurationSet",
      "type": "event"
    },
    {
      "anonymous": false,
      "inputs": [
        {
          "indexed": false,
          "internalType": "uint256",
          "name": "oldCap",
          "type": "uint256"
        },
        {
          "indexed": false,
          "internalType": "uint256",
          "name": "newCap",
          "type": "uint256"
        }
      ],
      "name": "CapSet",
      "type": "event"
    },
    {
      "anonymous": false,
      "inputs": [
        {
          "indexed": true,
          "internalType": "address",
          "name": "options",
          "type": "address"
        },
        {
          "indexed": false,
          "internalType": "uint256",
          "name": "withdrawAmount",
          "type": "uint256"
        },
        {
          "indexed": true,
          "internalType": "address",
          "name": "manager",
          "type": "address"
        }
      ],
      "name": "CloseShort",
      "type": "event"
    },
    {
      "anonymous": false,
      "inputs": [
        {
          "indexed": false,
          "internalType": "uint256",
          "name": "managementFee",
          "type": "uint256"
        },
        {
          "indexed": false,
          "internalType": "uint256",
          "name": "round",
          "type": "uint256"
        },
        {
          "indexed": true,
          "internalType": "address",
          "name": "feeRecipient",
          "type": "address"
        }
      ],
      "name": "CollectManagementFee",
      "type": "event"
    },
    {
      "anonymous": false,
      "inputs": [
        {
          "indexed": false,
          "internalType": "uint256",
          "name": "performanceFee",
          "type": "uint256"
        },
        {
          "indexed": false,
          "internalType": "uint256",
          "name": "round",
          "type": "uint256"
        },
        {
          "indexed": true,
          "internalType": "address",
          "name": "feeRecipient",
          "type": "address"
        }
      ],
      "name": "CollectPerformanceFee",
      "type": "event"
    },
    {
      "anonymous": false,
      "inputs": [
        {
          "indexed": true,
          "internalType": "address",
          "name": "account",
          "type": "address"
        },
        {
          "indexed": false,
          "internalType": "uint256",
          "name": "amount",
          "type": "uint256"
        },
        {
          "indexed": false,
          "internalType": "uint256",
          "name": "round",
          "type": "uint256"
        }
      ],
      "name": "Deposit",
      "type": "event"
    },
    {
      "anonymous": false,
      "inputs": [
        {
          "indexed": false,
          "internalType": "uint256",
          "name": "amount",
          "type": "uint256"
        },
        {
          "indexed": false,
          "internalType": "uint256[]",
          "name": "amounts",
          "type": "uint256[]"
        },
        {
          "indexed": false,
          "internalType": "address[]",
          "name": "recipients",
          "type": "address[]"
        },
        {
          "indexed": false,
          "internalType": "uint256",
          "name": "round",
          "type": "uint256"
        }
      ],
      "name": "DistributePremium",
      "type": "event"
    },
    {
      "anonymous": false,
      "inputs": [
        {
          "indexed": true,
          "internalType": "address",
          "name": "auctioningToken",
          "type": "address"
        },
        {
          "indexed": true,
          "internalType": "address",
          "name": "biddingToken",
          "type": "address"
        },
        {
          "indexed": false,
          "internalType": "uint256",
          "name": "auctionCounter",
          "type": "uint256"
        },
        {
          "indexed": true,
          "internalType": "address",
          "name": "manager",
          "type": "address"
        }
      ],
      "name": "InitiateGnosisAuction",
      "type": "event"
    },
    {
      "anonymous": false,
      "inputs": [
        {
          "indexed": true,
          "internalType": "address",
          "name": "account",
          "type": "address"
        },
        {
          "indexed": false,
          "internalType": "uint256",
          "name": "shares",
          "type": "uint256"
        },
        {
          "indexed": false,
          "internalType": "uint256",
          "name": "round",
          "type": "uint256"
        }
      ],
      "name": "InitiateWithdraw",
      "type": "event"
    },
    {
      "anonymous": false,
      "inputs": [
        {
          "indexed": true,
          "internalType": "address",
          "name": "account",
          "type": "address"
        },
        {
          "indexed": false,
          "internalType": "uint256",
          "name": "amount",
          "type": "uint256"
        },
        {
          "indexed": false,
          "internalType": "uint256",
          "name": "round",
          "type": "uint256"
        }
      ],
      "name": "InstantWithdraw",
      "type": "event"
    },
    {
      "anonymous": false,
      "inputs": [
        {
          "indexed": false,
          "internalType": "uint256",
          "name": "managementFee",
          "type": "uint256"
        },
        {
          "indexed": false,
          "internalType": "uint256",
          "name": "newManagementFee",
          "type": "uint256"
        }
      ],
      "name": "ManagementFeeSet",
      "type": "event"
    },
    {
      "anonymous": false,
      "inputs": [
        {
          "indexed": false,
          "internalType": "uint256",
          "name": "strikePrice",
          "type": "uint256"
        },
        {
          "indexed": false,
          "internalType": "uint256",
          "name": "delta",
          "type": "uint256"
        }
      ],
      "name": "NewOptionStrikeSelected",
      "type": "event"
    },
    {
      "anonymous": false,
      "inputs": [
        {
          "indexed": true,
          "internalType": "address",
          "name": "options",
          "type": "address"
        },
        {
          "indexed": false,
          "internalType": "uint256",
          "name": "depositAmount",
          "type": "uint256"
        },
        {
          "indexed": true,
          "internalType": "address",
          "name": "manager",
          "type": "address"
        }
      ],
      "name": "OpenShort",
      "type": "event"
    },
    {
      "anonymous": false,
      "inputs": [
        {
          "indexed": true,
          "internalType": "address",
          "name": "previousOwner",
          "type": "address"
        },
        {
          "indexed": true,
          "internalType": "address",
          "name": "newOwner",
          "type": "address"
        }
      ],
      "name": "OwnershipTransferred",
      "type": "event"
    },
    {
      "anonymous": false,
      "inputs": [
        {
          "indexed": false,
          "internalType": "uint256",
          "name": "performanceFee",
          "type": "uint256"
        },
        {
          "indexed": false,
          "internalType": "uint256",
          "name": "newPerformanceFee",
          "type": "uint256"
        }
      ],
      "name": "PerformanceFeeSet",
      "type": "event"
    },
    {
      "anonymous": false,
      "inputs": [
        {
          "indexed": false,
          "internalType": "uint256",
          "name": "premiumDiscount",
          "type": "uint256"
        },
        {
          "indexed": false,
          "internalType": "uint256",
          "name": "newPremiumDiscount",
          "type": "uint256"
        }
      ],
      "name": "PremiumDiscountSet",
      "type": "event"
    },
    {
      "anonymous": false,
      "inputs": [
        {
          "indexed": true,
          "internalType": "address",
          "name": "account",
          "type": "address"
        },
        {
          "indexed": false,
          "internalType": "uint256",
          "name": "share",
          "type": "uint256"
        },
        {
          "indexed": false,
          "internalType": "uint256",
          "name": "round",
          "type": "uint256"
        }
      ],
      "name": "Redeem",
      "type": "event"
    },
    {
      "anonymous": false,
      "inputs": [
        {
          "indexed": true,
          "internalType": "address",
          "name": "from",
          "type": "address"
        },
        {
          "indexed": true,
          "internalType": "address",
          "name": "to",
          "type": "address"
        },
        {
          "indexed": false,
          "internalType": "uint256",
          "name": "value",
          "type": "uint256"
        }
      ],
      "name": "Transfer",
      "type": "event"
    },
    {
      "anonymous": false,
      "inputs": [
        {
          "indexed": true,
          "internalType": "address",
          "name": "account",
          "type": "address"
        },
        {
          "indexed": false,
          "internalType": "uint256",
          "name": "amount",
          "type": "uint256"
        },
        {
          "indexed": false,
          "internalType": "uint256",
          "name": "shares",
          "type": "uint256"
        }
      ],
      "name": "Withdraw",
      "type": "event"
    },
    {
      "inputs": [],
      "name": "DELAY",
      "outputs": [
        {
          "internalType": "uint256",
          "name": "",
          "type": "uint256"
        }
      ],
      "stateMutability": "view",
      "type": "function"
    },
    {
      "inputs": [],
      "name": "GAMMA_CONTROLLER",
      "outputs": [
        {
          "internalType": "address",
          "name": "",
          "type": "address"
        }
      ],
      "stateMutability": "view",
      "type": "function"
    },
    {
      "inputs": [],
      "name": "GNOSIS_EASY_AUCTION",
      "outputs": [
        {
          "internalType": "address",
          "name": "",
          "type": "address"
        }
      ],
      "stateMutability": "view",
      "type": "function"
    },
    {
      "inputs": [],
      "name": "MARGIN_POOL",
      "outputs": [
        {
          "internalType": "address",
          "name": "",
          "type": "address"
        }
      ],
      "stateMutability": "view",
      "type": "function"
    },
    {
      "inputs": [],
      "name": "OTOKEN_FACTORY",
      "outputs": [
        {
          "internalType": "address",
          "name": "",
          "type": "address"
        }
      ],
      "stateMutability": "view",
      "type": "function"
    },
    {
      "inputs": [],
      "name": "USDC",
      "outputs": [
        {
          "internalType": "address",
          "name": "",
          "type": "address"
        }
      ],
      "stateMutability": "view",
      "type": "function"
    },
    {
      "inputs": [],
      "name": "WETH",
      "outputs": [
        {
          "internalType": "address",
          "name": "",
          "type": "address"
        }
      ],
      "stateMutability": "view",
      "type": "function"
    },
    {
      "inputs": [
        {
          "internalType": "address",
          "name": "account",
          "type": "address"
        }
      ],
      "name": "accountVaultBalance",
      "outputs": [
        {
          "internalType": "uint256",
          "name": "",
          "type": "uint256"
        }
      ],
      "stateMutability": "view",
      "type": "function"
    },
    {
      "inputs": [
        {
          "internalType": "address",
          "name": "owner",
          "type": "address"
        },
        {
          "internalType": "address",
          "name": "spender",
          "type": "address"
        }
      ],
      "name": "allowance",
      "outputs": [
        {
          "internalType": "uint256",
          "name": "",
          "type": "uint256"
        }
      ],
      "stateMutability": "view",
      "type": "function"
    },
    {
      "inputs": [
        {
          "internalType": "address",
          "name": "spender",
          "type": "address"
        },
        {
          "internalType": "uint256",
          "name": "amount",
          "type": "uint256"
        }
      ],
      "name": "approve",
      "outputs": [
        {
          "internalType": "bool",
          "name": "",
          "type": "bool"
        }
      ],
      "stateMutability": "nonpayable",
      "type": "function"
    },
    {
      "inputs": [],
      "name": "auctionDuration",
      "outputs": [
        {
          "internalType": "uint256",
          "name": "",
          "type": "uint256"
        }
      ],
      "stateMutability": "view",
      "type": "function"
    },
    {
      "inputs": [
        {
          "internalType": "address",
          "name": "account",
          "type": "address"
        }
      ],
      "name": "balanceOf",
      "outputs": [
        {
          "internalType": "uint256",
          "name": "",
          "type": "uint256"
        }
      ],
      "stateMutability": "view",
      "type": "function"
    },
    {
      "inputs": [],
      "name": "burnRemainingOTokens",
      "outputs": [],
      "stateMutability": "nonpayable",
      "type": "function"
    },
    {
      "inputs": [],
      "name": "cap",
      "outputs": [
        {
          "internalType": "uint256",
          "name": "",
          "type": "uint256"
        }
      ],
      "stateMutability": "view",
      "type": "function"
    },
    {
      "inputs": [],
      "name": "chargeAndDistribute",
      "outputs": [],
      "stateMutability": "nonpayable",
      "type": "function"
    },
    {
      "inputs": [],
      "name": "commitAndClose",
      "outputs": [],
      "stateMutability": "nonpayable",
      "type": "function"
    },
    {
      "inputs": [],
      "name": "completeWithdraw",
      "outputs": [],
      "stateMutability": "nonpayable",
      "type": "function"
    },
    {
      "inputs": [],
      "name": "concludeOptionsSale",
      "outputs": [],
      "stateMutability": "nonpayable",
      "type": "function"
    },
    {
      "inputs": [],
      "name": "currentOption",
      "outputs": [
        {
          "internalType": "address",
          "name": "",
          "type": "address"
        }
      ],
      "stateMutability": "view",
      "type": "function"
    },
    {
      "inputs": [],
      "name": "currentOtokenPremium",
      "outputs": [
        {
          "internalType": "uint256",
          "name": "",
          "type": "uint256"
        }
      ],
      "stateMutability": "view",
      "type": "function"
    },
    {
      "inputs": [],
      "name": "decimals",
      "outputs": [
        {
          "internalType": "uint8",
          "name": "",
          "type": "uint8"
        }
      ],
      "stateMutability": "view",
      "type": "function"
    },
    {
      "inputs": [
        {
          "internalType": "address",
          "name": "spender",
          "type": "address"
        },
        {
          "internalType": "uint256",
          "name": "subtractedValue",
          "type": "uint256"
        }
      ],
      "name": "decreaseAllowance",
      "outputs": [
        {
          "internalType": "bool",
          "name": "",
          "type": "bool"
        }
      ],
      "stateMutability": "nonpayable",
      "type": "function"
    },
    {
      "inputs": [
        {
          "internalType": "uint256",
          "name": "amount",
          "type": "uint256"
        }
      ],
      "name": "deposit",
      "outputs": [],
      "stateMutability": "nonpayable",
      "type": "function"
    },
    {
      "inputs": [
        {
          "internalType": "address",
          "name": "",
          "type": "address"
        }
      ],
      "name": "depositReceipts",
      "outputs": [
        {
          "internalType": "uint16",
          "name": "round",
          "type": "uint16"
        },
        {
          "internalType": "uint104",
          "name": "amount",
          "type": "uint104"
        },
        {
          "internalType": "uint128",
          "name": "unredeemedShares",
          "type": "uint128"
        }
      ],
      "stateMutability": "view",
      "type": "function"
    },
    {
      "inputs": [
        {
          "internalType": "uint256",
          "name": "",
          "type": "uint256"
        }
      ],
      "name": "depositorsArray",
      "outputs": [
        {
          "internalType": "address",
          "name": "",
          "type": "address"
        }
      ],
      "stateMutability": "view",
      "type": "function"
    },
    {
      "inputs": [
        {
          "internalType": "address",
          "name": "",
          "type": "address"
        }
      ],
      "name": "depositorsMap",
      "outputs": [
        {
          "internalType": "bool",
          "name": "",
          "type": "bool"
        }
      ],
      "stateMutability": "view",
      "type": "function"
    },
    {
      "inputs": [],
      "name": "feeRecipient",
      "outputs": [
        {
          "internalType": "address",
          "name": "",
          "type": "address"
        }
      ],
      "stateMutability": "view",
      "type": "function"
    },
    {
      "inputs": [
        {
          "internalType": "address",
          "name": "spender",
          "type": "address"
        },
        {
          "internalType": "uint256",
          "name": "addedValue",
          "type": "uint256"
        }
      ],
      "name": "increaseAllowance",
      "outputs": [
        {
          "internalType": "bool",
          "name": "",
          "type": "bool"
        }
      ],
      "stateMutability": "nonpayable",
      "type": "function"
    },
    {
      "inputs": [
        {
          "internalType": "uint256",
          "name": "numRounds",
          "type": "uint256"
        }
      ],
      "name": "initRounds",
      "outputs": [],
      "stateMutability": "nonpayable",
      "type": "function"
    },
    {
      "inputs": [
        {
          "components": [
            {
              "internalType": "address",
              "name": "_owner",
              "type": "address"
            },
            {
              "internalType": "address",
              "name": "_keeper",
              "type": "address"
            },
            {
              "internalType": "address",
              "name": "_feeRecipient",
              "type": "address"
            },
            {
              "internalType": "uint256",
              "name": "_managementFee",
              "type": "uint256"
            },
            {
              "internalType": "uint256",
              "name": "_performanceFee",
              "type": "uint256"
            },
            {
              "internalType": "string",
              "name": "_tokenName",
              "type": "string"
            },
            {
              "internalType": "string",
              "name": "_tokenSymbol",
              "type": "string"
            },
            {
              "internalType": "address",
              "name": "_optionsPremiumPricer",
              "type": "address"
            },
            {
              "internalType": "address",
              "name": "_strikeSelection",
              "type": "address"
            },
            {
              "internalType": "uint32",
              "name": "_premiumDiscount",
              "type": "uint32"
            },
            {
              "internalType": "uint256",
              "name": "_auctionDuration",
              "type": "uint256"
            },
            {
              "internalType": "uint256",
              "name": "_period",
              "type": "uint256"
            },
            {
              "internalType": "uint256",
              "name": "_maxDepositors",
              "type": "uint256"
            },
            {
              "internalType": "uint256",
              "name": "_minDeposit",
              "type": "uint256"
            }
          ],
          "internalType": "struct VaultLifecycleTreasuryBare.InitParams",
          "name": "_initParams",
          "type": "tuple"
        },
        {
          "components": [
            {
              "internalType": "bool",
              "name": "isPut",
              "type": "bool"
            },
            {
              "internalType": "uint8",
              "name": "decimals",
              "type": "uint8"
            },
            {
              "internalType": "address",
              "name": "asset",
              "type": "address"
            },
            {
              "internalType": "address",
              "name": "underlying",
              "type": "address"
            },
            {
              "internalType": "uint56",
              "name": "minimumSupply",
              "type": "uint56"
            },
            {
              "internalType": "uint104",
              "name": "cap",
              "type": "uint104"
            }
          ],
          "internalType": "struct Vault.VaultParams",
          "name": "_vaultParams",
          "type": "tuple"
        }
      ],
      "name": "initialize",
      "outputs": [],
      "stateMutability": "nonpayable",
      "type": "function"
    },
    {
      "inputs": [
        {
          "internalType": "uint256",
          "name": "numShares",
          "type": "uint256"
        }
      ],
      "name": "initiateWithdraw",
      "outputs": [],
      "stateMutability": "nonpayable",
      "type": "function"
    },
    {
      "inputs": [],
      "name": "keeper",
      "outputs": [
        {
          "internalType": "address",
          "name": "",
          "type": "address"
        }
      ],
      "stateMutability": "view",
      "type": "function"
    },
    {
      "inputs": [],
      "name": "lastQueuedWithdrawAmount",
      "outputs": [
        {
          "internalType": "uint256",
          "name": "",
          "type": "uint256"
        }
      ],
      "stateMutability": "view",
      "type": "function"
    },
    {
      "inputs": [],
      "name": "lastStrikeOverrideRound",
      "outputs": [
        {
          "internalType": "uint16",
          "name": "",
          "type": "uint16"
        }
      ],
      "stateMutability": "view",
      "type": "function"
    },
    {
      "inputs": [],
      "name": "managementFee",
      "outputs": [
        {
          "internalType": "uint256",
          "name": "",
          "type": "uint256"
        }
      ],
      "stateMutability": "view",
      "type": "function"
    },
    {
      "inputs": [],
      "name": "maxDepositors",
      "outputs": [
        {
          "internalType": "uint256",
          "name": "",
          "type": "uint256"
        }
      ],
      "stateMutability": "view",
      "type": "function"
    },
    {
      "inputs": [],
      "name": "maxRedeem",
      "outputs": [],
      "stateMutability": "nonpayable",
      "type": "function"
    },
    {
      "inputs": [],
      "name": "minDeposit",
      "outputs": [
        {
          "internalType": "uint256",
          "name": "",
          "type": "uint256"
        }
      ],
      "stateMutability": "view",
      "type": "function"
    },
    {
      "inputs": [],
      "name": "name",
      "outputs": [
        {
          "internalType": "string",
          "name": "",
          "type": "string"
        }
      ],
      "stateMutability": "view",
      "type": "function"
    },
    {
      "inputs": [],
      "name": "nextOption",
      "outputs": [
        {
          "internalType": "address",
          "name": "",
          "type": "address"
        }
      ],
      "stateMutability": "view",
      "type": "function"
    },
    {
      "inputs": [],
      "name": "nextOptionReadyAt",
      "outputs": [
        {
          "internalType": "uint256",
          "name": "",
          "type": "uint256"
        }
      ],
      "stateMutability": "view",
      "type": "function"
    },
    {
      "inputs": [],
      "name": "optionAuctionID",
      "outputs": [
        {
          "internalType": "uint256",
          "name": "",
          "type": "uint256"
        }
      ],
      "stateMutability": "view",
      "type": "function"
    },
    {
      "inputs": [],
      "name": "optionState",
      "outputs": [
        {
          "internalType": "address",
          "name": "nextOption",
          "type": "address"
        },
        {
          "internalType": "address",
          "name": "currentOption",
          "type": "address"
        },
        {
          "internalType": "uint32",
          "name": "nextOptionReadyAt",
          "type": "uint32"
        }
      ],
      "stateMutability": "view",
      "type": "function"
    },
    {
      "inputs": [],
      "name": "optionsPremiumPricer",
      "outputs": [
        {
          "internalType": "address",
          "name": "",
          "type": "address"
        }
      ],
      "stateMutability": "view",
      "type": "function"
    },
    {
      "inputs": [],
      "name": "overriddenStrikePrice",
      "outputs": [
        {
          "internalType": "uint256",
          "name": "",
          "type": "uint256"
        }
      ],
      "stateMutability": "view",
      "type": "function"
    },
    {
      "inputs": [],
      "name": "owner",
      "outputs": [
        {
          "internalType": "address",
          "name": "",
          "type": "address"
        }
      ],
      "stateMutability": "view",
      "type": "function"
    },
    {
      "inputs": [],
      "name": "performanceFee",
      "outputs": [
        {
          "internalType": "uint256",
          "name": "",
          "type": "uint256"
        }
      ],
      "stateMutability": "view",
      "type": "function"
    },
    {
      "inputs": [],
      "name": "period",
      "outputs": [
        {
          "internalType": "uint256",
          "name": "",
          "type": "uint256"
        }
      ],
      "stateMutability": "view",
      "type": "function"
    },
    {
      "inputs": [],
      "name": "premiumDiscount",
      "outputs": [
        {
          "internalType": "uint256",
          "name": "",
          "type": "uint256"
        }
      ],
      "stateMutability": "view",
      "type": "function"
    },
    {
      "inputs": [],
      "name": "pricePerShare",
      "outputs": [
        {
          "internalType": "uint256",
          "name": "",
          "type": "uint256"
        }
      ],
      "stateMutability": "view",
      "type": "function"
    },
    {
      "inputs": [
        {
          "internalType": "uint256",
          "name": "numShares",
          "type": "uint256"
        }
      ],
      "name": "redeem",
      "outputs": [],
      "stateMutability": "nonpayable",
      "type": "function"
    },
    {
      "inputs": [],
      "name": "renounceOwnership",
      "outputs": [],
      "stateMutability": "nonpayable",
      "type": "function"
    },
    {
      "inputs": [],
      "name": "rollToNextOption",
      "outputs": [],
      "stateMutability": "nonpayable",
      "type": "function"
    },
    {
      "inputs": [
        {
          "internalType": "uint256",
          "name": "",
          "type": "uint256"
        }
      ],
      "name": "roundPricePerShare",
      "outputs": [
        {
          "internalType": "uint256",
          "name": "",
          "type": "uint256"
        }
      ],
      "stateMutability": "view",
      "type": "function"
    },
    {
      "inputs": [
        {
          "internalType": "uint256",
          "name": "newAuctionDuration",
          "type": "uint256"
        }
      ],
      "name": "setAuctionDuration",
      "outputs": [],
      "stateMutability": "nonpayable",
      "type": "function"
    },
    {
      "inputs": [
        {
          "internalType": "uint256",
          "name": "newCap",
          "type": "uint256"
        }
      ],
      "name": "setCap",
      "outputs": [],
      "stateMutability": "nonpayable",
      "type": "function"
    },
    {
      "inputs": [
        {
          "internalType": "uint256",
          "name": "newOtokenPremium",
          "type": "uint256"
        }
      ],
      "name": "setCurrentOtokenPremium",
      "outputs": [],
      "stateMutability": "nonpayable",
      "type": "function"
    },
    {
      "inputs": [
        {
          "internalType": "address",
          "name": "newFeeRecipient",
          "type": "address"
        }
      ],
      "name": "setFeeRecipient",
      "outputs": [],
      "stateMutability": "nonpayable",
      "type": "function"
    },
    {
      "inputs": [
        {
          "internalType": "uint256",
          "name": "newManagementFee",
          "type": "uint256"
        }
      ],
      "name": "setManagementFee",
      "outputs": [],
      "stateMutability": "nonpayable",
      "type": "function"
    },
    {
      "inputs": [
        {
          "internalType": "uint256",
          "name": "newMaxDepositors",
          "type": "uint256"
        }
      ],
      "name": "setMaxDepositors",
      "outputs": [],
      "stateMutability": "nonpayable",
      "type": "function"
    },
    {
      "inputs": [
        {
          "internalType": "uint256",
          "name": "newMinDeposit",
          "type": "uint256"
        }
      ],
      "name": "setMinDeposit",
      "outputs": [],
      "stateMutability": "nonpayable",
      "type": "function"
    },
    {
      "inputs": [
        {
          "internalType": "address",
          "name": "newKeeper",
          "type": "address"
        }
      ],
      "name": "setNewKeeper",
      "outputs": [],
      "stateMutability": "nonpayable",
      "type": "function"
    },
    {
      "inputs": [
        {
          "internalType": "address",
          "name": "newOptionsPremiumPricer",
          "type": "address"
        }
      ],
      "name": "setOptionsPremiumPricer",
      "outputs": [],
      "stateMutability": "nonpayable",
      "type": "function"
    },
    {
      "inputs": [
        {
          "internalType": "uint256",
          "name": "newPerformanceFee",
          "type": "uint256"
        }
      ],
      "name": "setPerformanceFee",
      "outputs": [],
      "stateMutability": "nonpayable",
      "type": "function"
    },
    {
      "inputs": [
        {
          "internalType": "uint256",
          "name": "newPremiumDiscount",
          "type": "uint256"
        }
      ],
      "name": "setPremiumDiscount",
      "outputs": [],
      "stateMutability": "nonpayable",
      "type": "function"
    },
    {
      "inputs": [
        {
          "internalType": "uint128",
          "name": "strikePrice",
          "type": "uint128"
        }
      ],
      "name": "setStrikePrice",
      "outputs": [],
      "stateMutability": "nonpayable",
      "type": "function"
    },
    {
      "inputs": [
        {
          "internalType": "address",
          "name": "newStrikeSelection",
          "type": "address"
        }
      ],
      "name": "setStrikeSelection",
      "outputs": [],
      "stateMutability": "nonpayable",
      "type": "function"
    },
    {
      "inputs": [
        {
          "internalType": "address",
          "name": "account",
          "type": "address"
        }
      ],
      "name": "shareBalances",
      "outputs": [
        {
          "internalType": "uint256",
          "name": "heldByAccount",
          "type": "uint256"
        },
        {
          "internalType": "uint256",
          "name": "heldByVault",
          "type": "uint256"
        }
      ],
      "stateMutability": "view",
      "type": "function"
    },
    {
      "inputs": [
        {
          "internalType": "address",
          "name": "account",
          "type": "address"
        }
      ],
      "name": "shares",
      "outputs": [
        {
          "internalType": "uint256",
          "name": "",
          "type": "uint256"
        }
      ],
      "stateMutability": "view",
      "type": "function"
    },
    {
      "inputs": [],
      "name": "startAuction",
      "outputs": [],
      "stateMutability": "nonpayable",
      "type": "function"
    },
    {
      "inputs": [],
      "name": "strikeSelection",
      "outputs": [
        {
          "internalType": "address",
          "name": "",
          "type": "address"
        }
      ],
      "stateMutability": "view",
      "type": "function"
    },
    {
      "inputs": [],
      "name": "symbol",
      "outputs": [
        {
          "internalType": "string",
          "name": "",
          "type": "string"
        }
      ],
      "stateMutability": "view",
      "type": "function"
    },
    {
      "inputs": [],
      "name": "totalBalance",
      "outputs": [
        {
          "internalType": "uint256",
          "name": "",
          "type": "uint256"
        }
      ],
      "stateMutability": "view",
      "type": "function"
    },
    {
      "inputs": [],
      "name": "totalPending",
      "outputs": [
        {
          "internalType": "uint256",
          "name": "",
          "type": "uint256"
        }
      ],
      "stateMutability": "view",
      "type": "function"
    },
    {
      "inputs": [],
      "name": "totalSupply",
      "outputs": [
        {
          "internalType": "uint256",
          "name": "",
          "type": "uint256"
        }
      ],
      "stateMutability": "view",
      "type": "function"
    },
    {
      "inputs": [
        {
          "internalType": "address",
          "name": "recipient",
          "type": "address"
        },
        {
          "internalType": "uint256",
          "name": "amount",
          "type": "uint256"
        }
      ],
      "name": "transfer",
      "outputs": [
        {
          "internalType": "bool",
          "name": "",
          "type": "bool"
        }
      ],
      "stateMutability": "nonpayable",
      "type": "function"
    },
    {
      "inputs": [
        {
          "internalType": "address",
          "name": "sender",
          "type": "address"
        },
        {
          "internalType": "address",
          "name": "recipient",
          "type": "address"
        },
        {
          "internalType": "uint256",
          "name": "amount",
          "type": "uint256"
        }
      ],
      "name": "transferFrom",
      "outputs": [
        {
          "internalType": "bool",
          "name": "",
          "type": "bool"
        }
      ],
      "stateMutability": "nonpayable",
      "type": "function"
    },
    {
      "inputs": [
        {
          "internalType": "address",
          "name": "newOwner",
          "type": "address"
        }
      ],
      "name": "transferOwnership",
      "outputs": [],
      "stateMutability": "nonpayable",
      "type": "function"
    },
    {
      "inputs": [],
      "name": "vaultParams",
      "outputs": [
        {
          "internalType": "bool",
          "name": "isPut",
          "type": "bool"
        },
        {
          "internalType": "uint8",
          "name": "decimals",
          "type": "uint8"
        },
        {
          "internalType": "address",
          "name": "asset",
          "type": "address"
        },
        {
          "internalType": "address",
          "name": "underlying",
          "type": "address"
        },
        {
          "internalType": "uint56",
          "name": "minimumSupply",
          "type": "uint56"
        },
        {
          "internalType": "uint104",
          "name": "cap",
          "type": "uint104"
        }
      ],
      "stateMutability": "view",
      "type": "function"
    },
    {
      "inputs": [],
      "name": "vaultState",
      "outputs": [
        {
          "internalType": "uint16",
          "name": "round",
          "type": "uint16"
        },
        {
          "internalType": "uint104",
          "name": "lockedAmount",
          "type": "uint104"
        },
        {
          "internalType": "uint104",
          "name": "lastLockedAmount",
          "type": "uint104"
        },
        {
          "internalType": "uint128",
          "name": "totalPending",
          "type": "uint128"
        },
        {
          "internalType": "uint128",
          "name": "queuedWithdrawShares",
          "type": "uint128"
        }
      ],
      "stateMutability": "view",
      "type": "function"
    },
    {
      "inputs": [
        {
          "internalType": "uint256",
          "name": "amount",
          "type": "uint256"
        }
      ],
      "name": "withdrawInstantly",
      "outputs": [],
      "stateMutability": "nonpayable",
      "type": "function"
    },
    {
      "inputs": [
        {
          "internalType": "address",
          "name": "",
          "type": "address"
        }
      ],
      "name": "withdrawals",
      "outputs": [
        {
          "internalType": "uint16",
          "name": "round",
          "type": "uint16"
        },
        {
          "internalType": "uint128",
          "name": "shares",
          "type": "uint128"
        }
      ],
      "stateMutability": "view",
      "type": "function"
    }
  ],
  "transactionHash": "0x8470d63bac49dd54b480e2ff48e5cfbd02d0042cf129f7f03c9e6c8217a0c32f",
  "args": [
    "0xC02aaA39b223FE8D0A0e5C4F27eAD9083C756Cc2",
    "0xA0b86991c6218b36c1d19D4a2e9Eb0cE3606eB48",
    "0x4114b7C04bBbA682130cae2bA26FC5d2473B4Ddc",
    "0x4bec71A4Ac41eE9761440F6921DD17bA1C1213B1",
    "0x3c212A044760DE5a529B3Ba59363ddeCcc2210bE",
    "0x0b7fFc1f4AD541A4Ed16b40D8c37f0929158D101"
  ],
  "solcInputHash": "0232c075463a411144edc48198345e9b",
  "bytecode": "0x6101406040523480156200001257600080fd5b50604051620061873803806200618783398101604081905262000035916200024e565b6001600160a01b0386166200007a5760405162461bcd60e51b8152602060048201526006602482015265042beeecae8d60d31b60448201526064015b60405180910390fd5b6001600160a01b038516620000bb5760405162461bcd60e51b8152602060048201526006602482015265215f7573646360d01b604482015260640162000071565b6001600160a01b038416620001055760405162461bcd60e51b815260206004820152600f60248201526e215f6f546f6b656e466163746f727960881b604482015260640162000071565b6001600160a01b038316620001515760405162461bcd60e51b815260206004820152601160248201527010afb3b0b6b6b0a1b7b73a3937b63632b960791b604482015260640162000071565b6001600160a01b038216620001985760405162461bcd60e51b815260206004820152600c60248201526b0857db585c99da5b941bdbdb60a21b604482015260640162000071565b6001600160a01b038116620001f05760405162461bcd60e51b815260206004820152601360248201527f215f676e6f7369734561737941756374696f6e00000000000000000000000000604482015260640162000071565b6001600160601b0319606096871b811660805294861b851660a05292851b84166101205290841b831660c052831b821660e05290911b1661010052620002ce565b80516001600160a01b03811681146200024957600080fd5b919050565b60008060008060008060c0878903121562000267578182fd5b620002728762000231565b9550620002826020880162000231565b9450620002926040880162000231565b9350620002a26060880162000231565b9250620002b26080880162000231565b9150620002c260a0880162000231565b90509295509295509295565b60805160601c60a05160601c60c05160601c60e05160601c6101005160601c6101205160601c615dfc6200038b60003960008181610ba5015261285f0152600081816107c901528181611ebe01526136c801526000818161071b01526124a4015260008181610500015281816117ae0152818161247c01526144950152600081816108d801528181611efd0152818161288401528181612af101528181613627015281816136f20152613a4e01526000610ae00152615dfc6000f3fe608060405234801561001057600080fd5b50600436106104965760003560e01c80638da5cb5b11610262578063b4befff211610151578063e73c63d5116100ce578063f656ba5111610092578063f656ba5114610c40578063f756fa2114610c68578063f79d8d1214610c70578063f957a06714610c93578063fc29738014610ca6578063fe56e23214610cb957600080fd5b8063e73c63d514610c00578063e74b981b14610c09578063ea00b1ca14610c1c578063ef78d4fd14610c24578063f2fde38b14610c2d57600080fd5b8063d164cc1511610115578063d164cc1514610b71578063d5f2638214610b84578063db006a7514610b8d578063db43e86214610ba0578063dd62ed3e14610bc757600080fd5b8063b4befff214610b1d578063b6b55f2514610b30578063b9f8092b14610b43578063ce7c2ac214610b4b578063d13f1b3e14610b5e57600080fd5b8063a285c9e8116101df578063a9059cbb116101a3578063a9059cbb14610ab5578063aced166114610ac8578063ad5c464814610adb578063ad7a672f14610b02578063afa6626414610b0a57600080fd5b8063a285c9e814610a60578063a2db9d8314610a75578063a457c2d714610a86578063a497e67414610a99578063a6f7f5d614610aac57600080fd5b806399530b061161022657806399530b06146109475780639b2e601b1461094f5780639be43daa146109585780639fcc2d751461096b578063a083ff1714610a0a57600080fd5b80638da5cb5b1461090b5780638fcc9cfb1461091c57806395d89b411461092f57806396d2a76b14610937578063990c56101461093f57600080fd5b80634af96d29116103895780636f31ab34116103065780637e108d52116102ca5780637e108d521461088e57806383536ff3146108a157806387153eb1146108aa57806387788782146108ca57806389a30271146108d35780638b10cc7c146108fa57600080fd5b80636f31ab34146107eb57806370897b23146107f357806370a0823114610806578063715018a61461082f5780637a9262a21461083757600080fd5b8063650cce8a1161034d578063650cce8a146107165780636719b2ee1461073d57806369b41170146107b45780636b64c769146107bc5780636c10f66c146107c457600080fd5b80634af96d29146106cc578063503c70aa146106df57806355489bb2146106e8578063600a2cfb146106fb578063601d6ba91461070357600080fd5b8063355274ea1161041757806341b3d185116103db57806341b3d18514610681578063432833a61461068a5780634603c0aa1461069357806346904840146106a657806347786d37146106b957600080fd5b8063355274ea1461061857806339509351146106295780633ec143d31461063c5780633f23bb731461065d5780633f90916a1461067057600080fd5b806323b872dd1161045e57806323b872dd1461053a5780632728f3331461054d5780632775d01c146105d357806330630da4146105e8578063313ce567146105fb57600080fd5b806306fdde031461049b578063095ea7b3146104b95780630cbf54c8146104dc57806318160ddd146104f35780631a92f6c2146104fb575b600080fd5b6104a3610ccc565b6040516104b0919061561f565b60405180910390f35b6104cc6104c7366004615397565b610d5e565b60405190151581526020016104b0565b6104e560de5481565b6040519081526020016104b0565b6099546104e5565b6105227f000000000000000000000000000000000000000000000000000000000000000081565b6040516001600160a01b0390911681526020016104b0565b6104cc610548366004615357565b610d75565b60cc5460cd5461058e9161ffff8116916001600160681b03620100008304811692600160781b900416906001600160801b0380821691600160801b90041685565b6040805161ffff90961686526001600160681b03948516602087015293909216928401929092526001600160801b03918216606084015216608082015260a0016104b0565b6105e66105e13660046154b7565b610e26565b005b6105e66105f6366004615303565b611067565b60c954610100900460ff1660405160ff90911681526020016104b0565b60cb546001600160681b03166104e5565b6104cc610637366004615397565b6110ff565b60e45461064a9061ffff1681565b60405161ffff90911681526020016104b0565b6104e561066b366004615303565b61113b565b60cd546001600160801b03166104e5565b6104e560e35481565b6104e560df5481565b6105e66106a1366004615303565b61118e565b60d554610522906001600160a01b031681565b6105e66106c73660046154b7565b611230565b6105e66106da366004615434565b61130b565b6104e560e05481565b6105e66106f6366004615490565b611681565b6105e6611742565b6105226107113660046154b7565b61189d565b6105227f000000000000000000000000000000000000000000000000000000000000000081565b61078361074b366004615303565b60d06020526000908152604090205461ffff8116906201000081046001600160681b031690600160781b90046001600160801b031683565b6040805161ffff90941684526001600160681b0390921660208401526001600160801b0316908201526060016104b0565b6104e5600081565b6105e66118c7565b6105227f000000000000000000000000000000000000000000000000000000000000000081565b6105e6611927565b6105e66108013660046154b7565b61195e565b6104e5610814366004615303565b6001600160a01b031660009081526097602052604090205490565b6105e6611a25565b61086c610845366004615303565b60d26020526000908152604090205461ffff8116906201000090046001600160801b031682565b6040805161ffff90931683526001600160801b039091166020830152016104b0565b6105e661089c3660046154b7565b611a5b565b6104e560db5481565b6104e56108b83660046154b7565b60d16020526000908152604090205481565b6104e560d95481565b6105227f000000000000000000000000000000000000000000000000000000000000000081565b60cf546001600160a01b0316610522565b6065546001600160a01b0316610522565b6105e661092a3660046154b7565b611d61565b6104a3611dfa565b6105e6611e09565b6105e6611e63565b6104e5611f8d565b6104e560e25481565b6105e66109663660046154b7565b611fc7565b60c95460ca5460cb546109ba9260ff808216936101008304909116926001600160a01b036201000090930483169282169166ffffffffffffff600160a01b90910416906001600160681b031686565b60408051961515875260ff90951660208701526001600160a01b03938416948601949094529116606084015266ffffffffffffff1660808301526001600160681b031660a082015260c0016104b0565b60ce5460cf54610a34916001600160a01b039081169190811690600160a01b900463ffffffff1683565b604080516001600160a01b03948516815293909216602084015263ffffffff16908201526060016104b0565b60cf54600160a01b900463ffffffff166104e5565b60ce546001600160a01b0316610522565b6104cc610a94366004615397565b6120c1565b6105e6610aa73660046154b7565b61215a565b6104e560da5481565b6104cc610ac3366004615397565b612217565b60d654610522906001600160a01b031681565b6105227f000000000000000000000000000000000000000000000000000000000000000081565b6104e5612224565b60d754610522906001600160a01b031681565b6105e6610b2b3660046154b7565b6122c3565b6105e6610b3e3660046154b7565b6122f2565b6105e6612389565b6104e5610b59366004615303565b612550565b6105e6610b6c3660046154b7565b61256d565b6105e6610b7f366004615303565b612631565b6104e560dc5481565b6105e6610b9b3660046154b7565b6126c0565b6105227f000000000000000000000000000000000000000000000000000000000000000081565b6104e5610bd536600461531f565b6001600160a01b03918216600090815260986020908152604080832093909416825291909152205490565b6104e560dd5481565b6105e6610c17366004615303565b61272d565b6105e6612820565b6104e560e15481565b6105e6610c3b366004615303565b612b8e565b610c53610c4e366004615303565b612c29565b604080519283526020830191909152016104b0565b6105e6612d0c565b6104cc610c7e366004615303565b60d36020526000908152604090205460ff1681565b60d854610522906001600160a01b031681565b6105e6610cb43660046154b7565b612d61565b6105e6610cc73660046154b7565b612dfd565b6060609a8054610cdb90615b9c565b80601f0160208091040260200160405190810160405280929190818152602001828054610d0790615b9c565b8015610d545780601f10610d2957610100808354040283529160200191610d54565b820191906000526020600020905b815481529060010190602001808311610d3757829003601f168201915b5050505050905090565b6000610d6b338484612ec6565b5060015b92915050565b6000610d82848484612feb565b6001600160a01b038416600090815260986020908152604080832033845290915290205482811015610e0c5760405162461bcd60e51b815260206004820152602860248201527f45524332303a207472616e7366657220616d6f756e74206578636565647320616044820152676c6c6f77616e636560c01b60648201526084015b60405180910390fd5b610e198533858403612ec6565b60019150505b9392505050565b60026001541415610e495760405162461bcd60e51b8152600401610e039061572d565b600260015533600090815260d06020526040902060cc5461ffff1682610e9b5760405162461bcd60e51b815260206004820152600760248201526608585b5bdd5b9d60ca1b6044820152606401610e03565b815461ffff168114610edf5760405162461bcd60e51b815260206004820152600d60248201526c125b9d985b1a59081c9bdd5b99609a1b6044820152606401610e03565b81546201000090046001600160681b031683811015610f305760405162461bcd60e51b815260206004820152600d60248201526c115e18d9595908185b5bdd5b9d609a1b6044820152606401610e03565b6000610f4582610f3f3361113b565b9061306d565b905084811115610f81576000610f5b8287613079565b905060e354811015610f7f5760405162461bcd60e51b8152600401610e03906156f6565b505b610f8b8286613079565b84546001600160681b0391909116620100000262010000600160781b031990911617845560cd54610fc5906001600160801b031686613079565b60cd80546001600160801b0319166001600160801b0392909216919091179055604080518681526020810185905233917fab2daf3c146ca6416cbccd2a86ed2ba995e171ef6319df14a38aef01403a9c96910160405180910390a283546201000090046001600160681b0316158015611044575061104233612550565b155b156110525761105233613085565b61105c33866132d6565b505060018055505050565b6065546001600160a01b031633146110915760405162461bcd60e51b8152600401610e03906156c1565b6001600160a01b0381166110dd5760405162461bcd60e51b815260206004820152601360248201527210b732bba9ba3934b5b2a9b2b632b1ba34b7b760691b6044820152606401610e03565b60d880546001600160a01b0319166001600160a01b0392909216919091179055565b3360008181526098602090815260408083206001600160a01b03871684529091528120549091610d6b918590611136908690615a00565b612ec6565b60c95460009060ff610100909104168161117161115760995490565b61115f612224565b60cd546001600160801b0316856132f3565b905061118661117f85612550565b8284613339565b949350505050565b6065546001600160a01b031633146111b85760405162461bcd60e51b8152600401610e03906156c1565b6001600160a01b03811661120e5760405162461bcd60e51b815260206004820152601860248201527f216e65774f7074696f6e735072656d69756d50726963657200000000000000006044820152606401610e03565b60d780546001600160a01b0319166001600160a01b0392909216919091179055565b6065546001600160a01b0316331461125a5760405162461bcd60e51b8152600401610e03906156c1565b600081116112945760405162461bcd60e51b81526020600482015260076024820152660216e65774361760cc1b6044820152606401610e03565b61129d8161339b565b60cb54604080516001600160681b039092168252602082018390527f5f86edbb9d92228a9edc3f0ebc0f001bda1ea345ac7335e0eeef3504b31d1a1c910160405180910390a160cb80546cffffffffffffffffffffffffff19166001600160681b0392909216919091179055565b600054610100900460ff1680611324575060005460ff16155b6113405760405162461bcd60e51b8152600401610e0390615673565b600054610100900460ff16158015611362576000805461ffff19166101011790555b604051636a1f213760e01b815273B4a1b54141cE6C70b40527CeBd6F00fF70d94eEf90636a1f21379061139f908690869061012c90600401615764565b60006040518083038186803b1580156113b757600080fd5b505af41580156113cb573d6000803e3d6000fd5b505050506113d76133e5565b6114636113e760a085018561596f565b8080601f0160208091040260200160405190810160405280939291908181526020018383808284376000920191909152506114299250505060c086018661596f565b8080601f01602080910402602001604051908101604052809392919081815260200183838082843760009201919091525061345892505050565b61146b6134d7565b61147b610c3b6020850185615303565b61148b6040840160208501615303565b60d680546001600160a01b0319166001600160a01b039290921691909117905561016083013560e1556114c5610100840160e08501615303565b60d780546001600160a01b0319166001600160a01b03929092169190911790556114f761012084016101008501615303565b60d880546001600160a01b0319166001600160a01b03929092169190911790556115296101408401610120850161550e565b63ffffffff1660db5561014083013560de5561154b6060840160408501615303565b60d580546001600160a01b0319166001600160a01b0392909216919091179055608083013560d955611580606084013561353e565b60da5561018083013560e2556101a083013560e3558160c96115a28282615c59565b505060cc805461ffff1916600117905560c9546040516370a0823160e01b81523060048201526000916001600160a01b036201000090910416906370a082319060240160206040518083038186803b1580156115fd57600080fd5b505afa158015611611573d6000803e3d6000fd5b505050506040513d601f19601f82011682018060405250810190611635919061541c565b90506116408161339b565b60cc80546001600160681b03909216600160781b02600160781b600160e01b0319909216919091179055801561167c576000805461ff00191690555b505050565b6065546001600160a01b031633146116ab5760405162461bcd60e51b8152600401610e03906156c1565b600260015414156116ce5760405162461bcd60e51b8152600401610e039061572d565b60026001556001600160801b0381166117185760405162461bcd60e51b815260206004820152600c60248201526b21737472696b65507269636560a01b6044820152606401610e03565b6001600160801b031660dd5560cc5460e4805461ffff191661ffff90921691909117905560018055565b60d6546001600160a01b0316331461176c5760405162461bcd60e51b8152600401610e0390615652565b6002600154141561178f5760405162461bcd60e51b8152600401610e039061572d565b600260015560cf546040516358ffbb3d60e01b81526001600160a01b037f000000000000000000000000000000000000000000000000000000000000000081166004830152909116602482015260009073B4a1b54141cE6C70b40527CeBd6F00fF70d94eEf906358ffbb3d9060440160206040518083038186803b15801561181657600080fd5b505af415801561182a573d6000803e3d6000fd5b505050506040513d601f19601f8201168201806040525081019061184e919061541c565b60cc5490915061186d906201000090046001600160681b031682613079565b60cc80546001600160681b0392909216620100000262010000600160781b03199092169190911790555060018055565b60d481815481106118ad57600080fd5b6000918252602090912001546001600160a01b0316905081565b60d6546001600160a01b031633146118f15760405162461bcd60e51b8152600401610e0390615652565b600260015414156119145760405162461bcd60e51b8152600401610e039061572d565b60026001556119216135a9565b60018055565b6002600154141561194a5760405162461bcd60e51b8152600401610e039061572d565b6002600181905550611921600060016137ee565b6065546001600160a01b031633146119885760405162461bcd60e51b8152600401610e03906156c1565b611996620f42406064615b17565b81106119e45760405162461bcd60e51b815260206004820152601760248201527f496e76616c696420706572666f726d616e6365206665650000000000000000006044820152606401610e03565b60d95460408051918252602082018390527f24867dfb6fcb9970a07be21024956524abe7a1837faa903ff0e99aaa40cf893e910160405180910390a160d955565b6065546001600160a01b03163314611a4f5760405162461bcd60e51b8152600401610e03906156c1565b611a59600061399d565b565b60026001541415611a7e5760405162461bcd60e51b8152600401610e039061572d565b600260015580611abd5760405162461bcd60e51b815260206004820152600a602482015269216e756d53686172657360b01b6044820152606401610e03565b33600090815260d06020526040902080546201000090046001600160681b0316151580611afa57508054600160781b90046001600160801b031615155b15611b0b57611b0b600060016137ee565b60cc5433600081815260d260209081526040918290208054835188815261ffff96871693810184905292959194911692838614927f0c53c82ad07e2d592d88ece3b066777dd60f1118e2a081b380efc4358f0d9e2a910160405180910390a282546201000090046001600160801b031660008215611b9457611b8d828961306d565b9050611bf7565b8115611bd65760405162461bcd60e51b81526020600482015260116024820152704578697374696e6720776974686472617760781b6044820152606401610e03565b5033600090815260d260205260409020805461ffff191661ffff8716179055865b60c954610100900460ff166000611c0d3361113b565b90506000611c538b8a60011415611c2e57611c2985600a615a6f565b611c4d565b60d16000611c3d60018e615b59565b8152602001908152602001600020545b85613339565b905080821115611c8f576000611c698383613079565b905060e354811015611c8d5760405162461bcd60e51b8152600401610e03906156f6565b505b611c98846139ef565b33600090815260d26020526040812080546001600160801b03808816620100000262010000600160901b03199092169190911790915560cd54611ce491600160801b909104168d61306d565b9050611cef816139ef565b60cd80546001600160801b03808416600160801b0291161790558a546001600160681b036201000090910416158015611d365750336000908152609760205260409020548c145b15611d4457611d4433613085565b611d4f33308e612feb565b50506001805550505050505050505050565b6065546001600160a01b03163314611d8b5760405162461bcd60e51b8152600401610e03906156c1565b60026001541415611dae5760405162461bcd60e51b8152600401610e039061572d565b600260015580611df15760405162461bcd60e51b815260206004820152600e60248201526d085b995dd35a5b91195c1bdcda5d60921b6044820152606401610e03565b60e35560018055565b6060609b8054610cdb90615b9c565b60d6546001600160a01b03163314611e335760405162461bcd60e51b8152600401610e0390615652565b60026001541415611e565760405162461bcd60e51b8152600401610e039061572d565b6002600155611921613a39565b60d6546001600160a01b03163314611e8d5760405162461bcd60e51b8152600401610e0390615652565b60026001541415611eb05760405162461bcd60e51b8152600401610e039061572d565b600260015560df54611ee3907f000000000000000000000000000000000000000000000000000000000000000090613bb7565b6040516370a0823160e01b815230600482015262989680907f00000000000000000000000000000000000000000000000000000000000000006001600160a01b0316906370a082319060240160206040518083038186803b158015611f4757600080fd5b505afa158015611f5b573d6000803e3d6000fd5b505050506040513d601f19601f82011682018060405250810190611f7f919061541c565b111561192157611921613a39565b6000611fc2611f9b60995490565b611fa3612224565b60cd5460c9546001600160801b0390911690610100900460ff166132f3565b905090565b60026001541415611fea5760405162461bcd60e51b8152600401610e039061572d565b6002600155806120295760405162461bcd60e51b815260206004820152600a602482015269216e756d526f756e647360b01b6044820152606401610e03565b60cc5461ffff1660005b828110156120b85760006120478284615a00565b600081815260d16020526040902054909150156120945760405162461bcd60e51b815260206004820152600b60248201526a125b9a5d1a585b1a5e995960aa1b6044820152606401610e03565b600090815260d16020526040902060019055806120b081615bd7565b915050612033565b50506001805550565b3360009081526098602090815260408083206001600160a01b0386168452909152812054828110156121435760405162461bcd60e51b815260206004820152602560248201527f45524332303a2064656372656173656420616c6c6f77616e63652062656c6f77604482015264207a65726f60d81b6064820152608401610e03565b6121503385858403612ec6565b5060019392505050565b6065546001600160a01b031633146121845760405162461bcd60e51b8152600401610e03906156c1565b61012c8110156121d65760405162461bcd60e51b815260206004820152601860248201527f496e76616c69642061756374696f6e206475726174696f6e00000000000000006044820152606401610e03565b60de5460408051918252602082018390527f5acd982e2240ed224a69aa03dab039d3797c108e4b5f288cd7dd6ca181b275f3910160405180910390a160de55565b6000610d6b338484612feb565b60c9546040516370a0823160e01b8152306004820152600091611fc291620100009091046001600160a01b0316906370a082319060240160206040518083038186803b15801561227357600080fd5b505afa158015612287573d6000803e3d6000fd5b505050506040513d601f19601f820116820180604052508101906122ab919061541c565b60cc546201000090046001600160681b03169061306d565b60d6546001600160a01b031633146122ed5760405162461bcd60e51b8152600401610e0390615652565b60dc55565b600260015414156123155760405162461bcd60e51b8152600401610e039061572d565b6002600155806123515760405162461bcd60e51b815260206004820152600760248201526608585b5bdd5b9d60ca1b6044820152606401610e03565b61235a33613c31565b6123648133613d70565b60c954612382906201000090046001600160a01b031633308461403e565b5060018055565b60d6546001600160a01b031633146123b35760405162461bcd60e51b8152600401610e0390615652565b600260015414156123d65760405162461bcd60e51b8152600401610e039061572d565b600260018190555060008060006123ee60e0546140af565b60e0819055919450925090506124038261339b565b60cc805462010000600160781b031916620100006001600160681b0385160217905560405182815233906001600160a01b038516907f045c558fdce4714c5816d53820d27420f4cd860892df203fe636384d8d19aa019060200160405180910390a3604051632904c23960e01b81526001600160a01b037f0000000000000000000000000000000000000000000000000000000000000000811660048301527f000000000000000000000000000000000000000000000000000000000000000081166024830152841660448201526064810183905273B4a1b54141cE6C70b40527CeBd6F00fF70d94eEf90632904c2399060840160206040518083038186803b15801561250f57600080fd5b505af4158015612523573d6000803e3d6000fd5b505050506040513d601f19601f82011682018060405250810190612547919061541c565b506120b86135a9565b600080600061255e84612c29565b9092509050611186828261306d565b6065546001600160a01b031633146125975760405162461bcd60e51b8152600401610e03906156c1565b6000811180156125b157506125ae600a6064615b17565b81105b6125f05760405162461bcd60e51b815260206004820152601060248201526f125b9d985b1a5908191a5cd8dbdd5b9d60821b6044820152606401610e03565b60db5460408051918252602082018390527f4cd657fde404967d63a338fb06c5c98751a9df57dfae6dc333a432faf8a5f656910160405180910390a160db55565b6065546001600160a01b0316331461265b5760405162461bcd60e51b8152600401610e03906156c1565b6001600160a01b03811661269e5760405162461bcd60e51b815260206004820152600a60248201526910b732bba5b2b2b832b960b11b6044820152606401610e03565b60d680546001600160a01b0319166001600160a01b0392909216919091179055565b600260015414156126e35760405162461bcd60e51b8152600401610e039061572d565b6002600155806127225760405162461bcd60e51b815260206004820152600a602482015269216e756d53686172657360b01b6044820152606401610e03565b6123828160006137ee565b6065546001600160a01b031633146127575760405162461bcd60e51b8152600401610e03906156c1565b6001600160a01b0381166127a05760405162461bcd60e51b815260206004820152601060248201526f085b995dd19959549958da5c1a595b9d60821b6044820152606401610e03565b60d5546001600160a01b03828116911614156127fe5760405162461bcd60e51b815260206004820152601860248201527f4d757374206265206e657720666565526563697069656e7400000000000000006044820152606401610e03565b60d580546001600160a01b0319166001600160a01b0392909216919091179055565b600260015414156128435760405162461bcd60e51b8152600401610e039061572d565b600260015560cf546040805160e0810182526001600160a01b037f0000000000000000000000000000000000000000000000000000000000000000811682527f000000000000000000000000000000000000000000000000000000000000000081166020830190815293811682840181815260006060850181815260e4805461ffff9081166080890190815260dd5460a08a0190815260e15460c08b0190815260d85460d75460db549d5163f71d2fd360e01b8152918c1660048301528b166024820152604481019c909c528a518a1660648d01529b51891660848c0152955190971660a48a0152915160c48901529451169386019390935251610104850152935161012484015260c961014484015260cc610164840152909181908190819073B4a1b54141cE6C70b40527CeBd6F00fF70d94eEf9063f71d2fd3906101840160806040518083038186803b15801561299b57600080fd5b505af41580156129af573d6000803e3d6000fd5b505050506040513d601f19601f820116820180604052508101906129d391906153c2565b93509350935093507fa217999b1c125c2a996f712c5f26a28addad7167bd8a67d5bd5b2a751148abb08282604051612a15929190918252602082015260400190565b60405180910390a1612a268361339b565b6001600160681b03831660dc5560ce80546001600160a01b0319166001600160a01b0386161790556000612a5a428261306d565b905063ffffffff811115612ab05760405162461bcd60e51b815260206004820152601860248201527f4f766572666c6f77206e6578744f7074696f6e526561647900000000000000006044820152606401610e03565b60cf805463ffffffff60a01b1916600160a01b63ffffffff841602179055612ad787614407565b6040516370a0823160e01b815230600482015262989680907f00000000000000000000000000000000000000000000000000000000000000006001600160a01b0316906370a082319060240160206040518083038186803b158015612b3b57600080fd5b505afa158015612b4f573d6000803e3d6000fd5b505050506040513d601f19601f82011682018060405250810190612b73919061541c565b1115612b8157612b81613a39565b5050600180555050505050565b6065546001600160a01b03163314612bb85760405162461bcd60e51b8152600401610e03906156c1565b6001600160a01b038116612c1d5760405162461bcd60e51b815260206004820152602660248201527f4f776e61626c653a206e6577206f776e657220697320746865207a65726f206160448201526564647265737360d01b6064820152608401610e03565b612c268161399d565b50565b6001600160a01b038116600090815260d0602090815260408083208151606081018352905461ffff81168083526201000082046001600160681b031694830194909452600160781b90046001600160801b031691810191909152829160011115612cab575050506001600160a01b031660009081526097602052604081205491565b60cc54815161ffff908116600090815260d1602052604081205460c9549193612ce193869391169190610100900460ff16614573565b9050612d02856001600160a01b031660009081526097602052604090205490565b9590945092505050565b60026001541415612d2f5760405162461bcd60e51b8152600401610e039061572d565b60026001556000612d3e6145e4565b60e054909150612d4e9082613079565b6001600160801b031660e0555060018055565b6065546001600160a01b03163314612d8b5760405162461bcd60e51b8152600401610e03906156c1565b60026001541415612dae5760405162461bcd60e51b8152600401610e039061572d565b600260015580612df45760405162461bcd60e51b8152602060048201526011602482015270216e65774d61784465706f7369746f727360781b6044820152606401610e03565b60e25560018055565b6065546001600160a01b03163314612e275760405162461bcd60e51b8152600401610e03906156c1565b612e35620f42406064615b17565b8110612e7c5760405162461bcd60e51b8152602060048201526016602482015275496e76616c6964206d616e6167656d656e742066656560501b6044820152606401610e03565b612e858161353e565b60da81905560408051918252602082018390527f4e874b007ab14f7e263baefd44951834c8266f4f224d1092e49e9c254354cc54910160405180910390a150565b6001600160a01b038316612f285760405162461bcd60e51b8152602060048201526024808201527f45524332303a20617070726f76652066726f6d20746865207a65726f206164646044820152637265737360e01b6064820152608401610e03565b6001600160a01b038216612f895760405162461bcd60e51b815260206004820152602260248201527f45524332303a20617070726f766520746f20746865207a65726f206164647265604482015261737360f01b6064820152608401610e03565b6001600160a01b0383811660008181526098602090815260408083209487168084529482529182902085905590518481527f8c5be1e5ebec7d5bd14f71427d1e84f3dd0314c0f7b2291e5b200ac8c7c3b92591015b60405180910390a3505050565b6001600160a01b03821630148061300a57506001600160a01b03831630145b6130625760405162461bcd60e51b8152602060048201526024808201527f54726561737572792072546f6b656e206973206e6f74207472616e736665727260448201526361626c6560e01b6064820152608401610e03565b61167c8383836147a1565b6000610e1f8284615a00565b6000610e1f8284615b59565b60d480546001600160a01b038316600090815260d3602052604090205460ff166130f15760405162461bcd60e51b815260206004820152601860248201527f4465706f7369746f7220646f6573206e6f7420657869737400000000000000006044820152606401610e03565b6001600160a01b038316600090815260d360205260408120805460ff191690555b61311d600183615b59565b8110156132905782818154811061314457634e487b7160e01b600052603260045260246000fd5b6000918252602090912001546001600160a01b038581169116141561327e578261316f600184615b59565b8154811061318d57634e487b7160e01b600052603260045260246000fd5b9060005260206000200160009054906101000a90046001600160a01b03168382815481106131cb57634e487b7160e01b600052603260045260246000fd5b9060005260206000200160009054906101000a90046001600160a01b031684838154811061320957634e487b7160e01b600052603260045260246000fd5b600091825260208220019086613220600188615b59565b8154811061323e57634e487b7160e01b600052603260045260246000fd5b600091825260209091200180546001600160a01b039485166001600160a01b031990911617905581549383166101009190910a9081029202199092161790555b8061328881615bd7565b915050613112565b50818054806132af57634e487b7160e01b600052603160045260246000fd5b600082815260209020810160001990810180546001600160a01b0319169055019055505050565b60c9546201000090046001600160a01b031661167c81848461496f565b60008061330183600a615a6f565b905060008611613311578061332f565b61332f866133296133228888613079565b849061499f565b906149ab565b9695505050505050565b6000600183116133835760405162461bcd60e51b8152602060048201526015602482015274496e76616c6964206173736574506572536861726560581b6044820152606401610e03565b61118661339183600a615a6f565b613329868661499f565b6001600160681b03811115612c265760405162461bcd60e51b815260206004820152601060248201526f13dd995c999b1bddc81d5a5b9d0c4c0d60821b6044820152606401610e03565b600054610100900460ff16806133fe575060005460ff16155b61341a5760405162461bcd60e51b8152600401610e0390615673565b600054610100900460ff1615801561343c576000805461ffff19166101011790555b6134446149b7565b8015612c26576000805461ff001916905550565b600054610100900460ff1680613471575060005460ff16155b61348d5760405162461bcd60e51b8152600401610e0390615673565b600054610100900460ff161580156134af576000805461ffff19166101011790555b6134b7614a26565b6134c18383614a90565b801561167c576000805461ff0019169055505050565b600054610100900460ff16806134f0575060005460ff16155b61350c5760405162461bcd60e51b8152600401610e0390615673565b600054610100900460ff1615801561352e576000805461ffff19166101011790555b613536614a26565b613444614b25565b60e15460009081613550601e83615bf2565b1561357357613560600783615a18565b61356e9063031ba309615a18565b613596565b61357e601e83615a18565b61358990600c615a18565b61359690620f4240615b17565b90506111868161332986620f424061499f565b6040805160c081018252600080825260208201819052918101829052606081018290526080810182905260a081019190915260dc54806136235760405162461bcd60e51b81526020600482015260156024820152742163757272656e744f746f6b656e5072656d69756d60581b6044820152606401610e03565b60007f00000000000000000000000000000000000000000000000000000000000000006001600160a01b031663313ce5676040518163ffffffff1660e01b815260040160206040518083038186803b15801561367e57600080fd5b505afa158015613692573d6000803e3d6000fd5b505050506040513d601f19601f820116820180604052508101906136b69190615528565b60cf546001600160a01b0390811685527f00000000000000000000000000000000000000000000000000000000000000008116602086019081527f00000000000000000000000000000000000000000000000000000000000000008216604080880191825260ff94909416606088018181526080890188815260de5460a08b019081529651633baf17fd60e21b81528a51871660048201529451861660248601529251909416604484015292516064830152516084820152915160a4830152915073B4a1b54141cE6C70b40527CeBd6F00fF70d94eEf9063eebc5ff49060c40160206040518083038186803b1580156137ae57600080fd5b505af41580156137c2573d6000803e3d6000fd5b505050506040513d601f19601f820116820180604052508101906137e6919061541c565b60df55505050565b33600090815260d0602090815260408083208151606081018352905461ffff8082168084526201000083046001600160681b031684870152600160781b9092046001600160801b03168385015260cc5491865260d19094529184205460c954919492909316926138699185918591610100900460ff16614573565b9050836138765784613878565b805b945084613886575050505050565b808511156138ca5760405162461bcd60e51b81526020600482015260116024820152704578636565647320617661696c61626c6560781b6044820152606401610e03565b825161ffff168211156138f75733600090815260d060205260409020805462010000600160781b03191690555b613900856139ef565b61390a8186613079565b33600081815260d060205260409081902080546001600160801b0394909416600160781b02600160781b600160f81b0319909416939093179092558451915190917fe5b754fb1abb7f01b499791d0b820ae3b6af3424ac1c59768edb53f4ec31a929916139839189825261ffff16602082015260400190565b60405180910390a2613996303387612feb565b5050505050565b606580546001600160a01b038381166001600160a01b0319831681179093556040519116919082907f8be0079c531659141344cd1fd0a4f28419497f9722a3daafe3b4186f6b6457e090600090a35050565b6001600160801b03811115612c265760405162461bcd60e51b815260206004820152601060248201526f09eeccae4ccd8deee40ead2dce86264760831b6044820152606401610e03565b6040516370a0823160e01b81523060048201527f0000000000000000000000000000000000000000000000000000000000000000906000906001600160a01b038316906370a082319060240160206040518083038186803b158015613a9d57600080fd5b505afa158015613ab1573d6000803e3d6000fd5b505050506040513d601f19601f82011682018060405250810190613ad5919061541c565b905060008111613b275760405162461bcd60e51b815260206004820152601860248201527f6e6f207072656d69756d20746f206469737472696275746500000000000000006044820152606401610e03565b613b318282614b85565b6040516370a0823160e01b8152306004820152613bb39083906001600160a01b038216906370a082319060240160206040518083038186803b158015613b7657600080fd5b505afa158015613b8a573d6000803e3d6000fd5b505050506040513d601f19601f82011682018060405250810190613bae919061541c565b614c2b565b5050565b604051632e99361160e01b8152600481018290526001600160a01b03831690632e99361190602401602060405180830381600087803b158015613bf957600080fd5b505af1158015613c0d573d6000803e3d6000fd5b505050506040513d601f19601f8201168201806040525081019061167c919061541c565b6001600160a01b038116600090815260d3602052604090205460ff16612c26576001600160a01b038116613ca05760405162461bcd60e51b815260206004820152601660248201527511195c1bdcda5d1bdc881859191c995cdcc81b9d5b1b60521b6044820152606401610e03565b60e25460d454613cb1906001615a00565b1115613d0a5760405162461bcd60e51b815260206004820152602260248201527f4e756d626572206f66206465706f7369746f72732065786365656473206c696d6044820152611a5d60f21b6064820152608401610e03565b6001600160a01b0316600081815260d360205260408120805460ff1916600190811790915560d4805491820181559091527f9780e26d96b1f2a9a18ef8fc72d589dbf03ef788137b64f43897e83a91e7feec0180546001600160a01b0319169091179055565b60cc5461ffff166000613d8584610f3f612224565b6001600160a01b038416600090815260d0602090815260408083208151606081018352905461ffff811682526201000081046001600160681b0316938201849052600160781b90046001600160801b031691810191909152929350613df1908790610f3f90813361113b565b60cb549091506001600160681b0316831115613e3c5760405162461bcd60e51b815260206004820152600a6024820152690457863656564206361760b41b6044820152606401610e03565b60ca54600160a01b900466ffffffffffffff16831015613e955760405162461bcd60e51b8152602060048201526014602482015273496e73756666696369656e742062616c616e636560601b6044820152606401610e03565b60e354811015613eb75760405162461bcd60e51b8152600401610e03906156f6565b60408051878152602081018690526001600160a01b038716917f90890809c654f11d6e72a28fa60149770a0d11ec6c92319d6ceb2bb0a4ea1a15910160405180910390a2815161ffff16600090815260d1602052604081205460c954613f29918591889190610100900460ff16614573565b8351909150879061ffff16861415613f5a576020840151600090613f56906001600160681b03168a61306d565b9150505b613f638161339b565b6040805160608101825261ffff80891682526001600160681b0380851660208085019182526001600160801b038089168688019081526001600160a01b038f16600090815260d090935296822095518654935197518216600160781b02600160781b600160f81b03199890951662010000026effffffffffffffffffffffffffffff1990941695169490941791909117949094161790915560cd5461400991168a61306d565b9050614014816139ef565b60cd80546001600160801b0319166001600160801b03929092169190911790555050505050505050565b6040516001600160a01b03808516602483015283166044820152606481018290526140a99085906323b872dd60e01b906084015b60408051601f198184030181529190526020810180516001600160e01b03166001600160e01b031990931692909217909152614dd9565b50505050565b60cf5460009081908190600160a01b900463ffffffff164210156140fe5760405162461bcd60e51b815260206004820152600660248201526521726561647960d01b6044820152606401610e03565b60ce546001600160a01b03169250826141475760405162461bcd60e51b815260206004820152600b60248201526a10b732bc3a27b83a34b7b760a91b6044820152606401610e03565b60cc805460d5546040805160a08101825260c954610100810460ff16825291516370a0823160e01b815230600482015261ffff909416946001600160a01b03938416946000948594859473B4a1b54141cE6C70b40527CeBd6F00fF70d94eEf94633bafb7d6949093919260208401926201000090910416906370a082319060240160206040518083038186803b1580156141e057600080fd5b505afa1580156141f4573d6000803e3d6000fd5b505050506040513d601f19601f82011682018060405250810190614218919061541c565b815260200161422660995490565b81526020018d81526020018960011415614241576000614245565b60da545b9052604080516001600160e01b031960e086901b168152600481019390935281516024840152602082015160448401528101516064830152606081015160848301526080015160a482015260c40160a06040518083038186803b1580156142ab57600080fd5b505af41580156142bf573d6000803e3d6000fd5b505050506040513d601f19601f820116820180604052508101906142e391906154cf565b809650819750829550839a50849b5050505050508760ce60010160006101000a8154816001600160a01b0302191690836001600160a01b03160217905550600060ce60000160006101000a8154816001600160a01b0302191690836001600160a01b031602179055508060d1600087815260200190815260200160002081905550836001600160a01b03167fd42b93f751df91c40b94860a26f5e43b9fc78089c1e3df5d4602eee07009e5c683876040516143a8929190918252602082015260400190565b60405180910390a260cd80546001600160801b03191690556143cb856001615a00565b60cc805461ffff191661ffff92909216919091179055506143ec3083614eab565b80156143fc576143fc83826132d6565b505050509193909250565b60cc546201000090046001600160681b03166001600160a01b0382161561444d5760cc8054600160781b600160e01b031916600160781b6001600160681b038416021790555b60cc805462010000600160781b031916905560cf80546001600160a01b03191690556001600160a01b03821615613bb357604051636c6fe87f60e11b81526001600160a01b037f000000000000000000000000000000000000000000000000000000000000000016600482015260009073B4a1b54141cE6C70b40527CeBd6F00fF70d94eEf9063d8dfd0fe9060240160206040518083038186803b1580156144f457600080fd5b505af4158015614508573d6000803e3d6000fd5b505050506040513d601f19601f8201168201806040525081019061452c919061541c565b9050336001600160a01b0316836001600160a01b03167f7e830f7c1771deb1bdb35c4a7e6051bbac32b376f7f4e4976b8618b0b11997f783604051612fde91815260200190565b835160009061ffff161580159061458e5750845161ffff1684115b156145d05760006145ad86602001516001600160681b03168585614f8a565b60408701519091506145c8906001600160801b03168261306d565b915050611186565b50505050604001516001600160801b031690565b33600090815260d26020526040812080546001600160801b03620100008204169061ffff16816146465760405162461bcd60e51b815260206004820152600d60248201526c139bdd081a5b9a5d1a585d1959609a1b6044820152606401610e03565b60cc5461ffff16811061468e5760405162461bcd60e51b815260206004820152601060248201526f149bdd5b99081b9bdd0818db1bdcd95960821b6044820152606401610e03565b33600090815260d260205260409020805462010000600160901b031916905560cd546146ca90600160801b90046001600160801b031683613079565b60cd80546001600160801b03928316600160801b029216919091179055600081815260d1602052604081205460c95461470d91859160ff61010090910416613339565b604080518281526020810186905291925033917ff279e6a1f5e320cca91135676d9cb6e44ca8a08c0b88342bcdb1144f6511b568910160405180910390a26147553084614fed565b600081116147975760405162461bcd60e51b815260206004820152600f60248201526e085dda5d1a191c985dd05b5bdd5b9d608a1b6044820152606401610e03565b61118633826132d6565b6001600160a01b0383166148055760405162461bcd60e51b815260206004820152602560248201527f45524332303a207472616e736665722066726f6d20746865207a65726f206164604482015264647265737360d81b6064820152608401610e03565b6001600160a01b0382166148675760405162461bcd60e51b815260206004820152602360248201527f45524332303a207472616e7366657220746f20746865207a65726f206164647260448201526265737360e81b6064820152608401610e03565b6001600160a01b038316600090815260976020526040902054818110156148df5760405162461bcd60e51b815260206004820152602660248201527f45524332303a207472616e7366657220616d6f756e7420657863656564732062604482015265616c616e636560d01b6064820152608401610e03565b6001600160a01b03808516600090815260976020526040808220858503905591851681529081208054849290614916908490615a00565b92505081905550826001600160a01b0316846001600160a01b03167fddf252ad1be2c89b69c2b068fc378daa952ba7f163c4a11628f55a4df523b3ef8460405161496291815260200190565b60405180910390a36140a9565b6040516001600160a01b03831660248201526044810182905261167c90849063a9059cbb60e01b90606401614072565b6000610e1f8284615b17565b6000610e1f8284615a18565b600054610100900460ff16806149d0575060005460ff16155b6149ec5760405162461bcd60e51b8152600401610e0390615673565b600054610100900460ff16158015614a0e576000805461ffff19166101011790555b600180558015612c26576000805461ff001916905550565b600054610100900460ff1680614a3f575060005460ff16155b614a5b5760405162461bcd60e51b8152600401610e0390615673565b600054610100900460ff16158015613444576000805461ffff19166101011790558015612c26576000805461ff001916905550565b600054610100900460ff1680614aa9575060005460ff16155b614ac55760405162461bcd60e51b8152600401610e0390615673565b600054610100900460ff16158015614ae7576000805461ffff19166101011790555b8251614afa90609a906020860190615246565b508151614b0e90609b906020850190615246565b50801561167c576000805461ff0019169055505050565b600054610100900460ff1680614b3e575060005460ff16155b614b5a5760405162461bcd60e51b8152600401610e0390615673565b600054610100900460ff16158015614b7c576000805461ffff19166101011790555b6134443361399d565b60d5546001600160a01b03166000614bb2614ba4620f42406064615b17565b60d95461332990869061499f565b9050614bc86001600160a01b038516838361496f565b60cc546001600160a01b038316907f8df5f80a19898219351b3c8e70c8cffe1adc78e2394d21dc2da56a39e5dabfe8908390614c0a9060019061ffff16615b36565b6040805192835261ffff90911660208301520160405180910390a250505050565b60d4805460009067ffffffffffffffff811115614c5857634e487b7160e01b600052604160045260246000fd5b604051908082528060200260200182016040528015614c81578160200160208202803683370190505b509050600060e054614c9260995490565b614c9c9190615b59565b905060005b8354811015614d7e576000848281548110614ccc57634e487b7160e01b600052603260045260246000fd5b6000918252602090912001546001600160a01b03169050614cfa8361332988614cf485612550565b9061499f565b848381518110614d1a57634e487b7160e01b600052603260045260246000fd5b602002602001018181525050614d6b81858481518110614d4a57634e487b7160e01b600052603260045260246000fd5b6020026020010151896001600160a01b031661496f9092919063ffffffff16565b5080614d7681615bd7565b915050614ca1565b5060cc547fe55fc5ddbb2bfc597b0e1d510ece6ff2733bd909a81db6e2b6e092aeda7af1c390859084908690614dba9060019061ffff16615b36565b604051614dca94939291906158d5565b60405180910390a15050505050565b6000614e2e826040518060400160405280602081526020017f5361666545524332303a206c6f772d6c6576656c2063616c6c206661696c6564815250856001600160a01b031661513b9092919063ffffffff16565b80519091501561167c5780806020019051810190614e4c9190615400565b61167c5760405162461bcd60e51b815260206004820152602a60248201527f5361666545524332303a204552433230206f7065726174696f6e20646964206e6044820152691bdd081cdd58d8d9595960b21b6064820152608401610e03565b6001600160a01b038216614f015760405162461bcd60e51b815260206004820152601f60248201527f45524332303a206d696e7420746f20746865207a65726f2061646472657373006044820152606401610e03565b8060996000828254614f139190615a00565b90915550506001600160a01b03821660009081526097602052604081208054839290614f40908490615a00565b90915550506040518181526001600160a01b038316906000907fddf252ad1be2c89b69c2b068fc378daa952ba7f163c4a11628f55a4df523b3ef9060200160405180910390a35050565b600060018311614fd45760405162461bcd60e51b8152602060048201526015602482015274496e76616c6964206173736574506572536861726560581b6044820152606401610e03565b61118683613329614fe685600a615a6f565b879061499f565b6001600160a01b03821661504d5760405162461bcd60e51b815260206004820152602160248201527f45524332303a206275726e2066726f6d20746865207a65726f206164647265736044820152607360f81b6064820152608401610e03565b6001600160a01b038216600090815260976020526040902054818110156150c15760405162461bcd60e51b815260206004820152602260248201527f45524332303a206275726e20616d6f756e7420657863656564732062616c616e604482015261636560f01b6064820152608401610e03565b6001600160a01b03831660009081526097602052604081208383039055609980548492906150f0908490615b59565b90915550506040518281526000906001600160a01b038516907fddf252ad1be2c89b69c2b068fc378daa952ba7f163c4a11628f55a4df523b3ef9060200160405180910390a3505050565b6060611186848460008585843b6151945760405162461bcd60e51b815260206004820152601d60248201527f416464726573733a2063616c6c20746f206e6f6e2d636f6e74726163740000006044820152606401610e03565b600080866001600160a01b031685876040516151b09190615603565b60006040518083038185875af1925050503d80600081146151ed576040519150601f19603f3d011682016040523d82523d6000602084013e6151f2565b606091505b509150915061520282828661520d565b979650505050505050565b6060831561521c575081610e1f565b82511561522c5782518084602001fd5b8160405162461bcd60e51b8152600401610e03919061561f565b82805461525290615b9c565b90600052602060002090601f01602090048101928261527457600085556152ba565b82601f1061528d57805160ff19168380011785556152ba565b828001600101855582156152ba579182015b828111156152ba57825182559160200191906001019061529f565b506152c69291506152ca565b5090565b5b808211156152c657600081556001016152cb565b80356152ea81615d6a565b919050565b803563ffffffff811681146152ea57600080fd5b600060208284031215615314578081fd5b8135610e1f81615d6a565b60008060408385031215615331578081fd5b823561533c81615d6a565b9150602083013561534c81615d6a565b809150509250929050565b60008060006060848603121561536b578081fd5b833561537681615d6a565b9250602084013561538681615d6a565b929592945050506040919091013590565b600080604083850312156153a9578182fd5b82356153b481615d6a565b946020939093013593505050565b600080600080608085870312156153d7578081fd5b84516153e281615d6a565b60208601516040870151606090970151919890975090945092505050565b600060208284031215615411578081fd5b8151610e1f81615d7f565b60006020828403121561542d578081fd5b5051919050565b60008082840360e0811215615447578283fd5b833567ffffffffffffffff81111561545d578384fd5b84016101c0818703121561546f578384fd5b925060c0601f1982011215615482578182fd5b506020830190509250929050565b6000602082840312156154a1578081fd5b81356001600160801b0381168114610e1f578182fd5b6000602082840312156154c8578081fd5b5035919050565b600080600080600060a086880312156154e6578283fd5b5050835160208501516040860151606087015160809097015192989197509594509092509050565b60006020828403121561551f578081fd5b610e1f826152ef565b600060208284031215615539578081fd5b8151610e1f81615db7565b81835281816020850137506000828201602090810191909152601f909101601f19169091010190565b803561557881615d7f565b15158252602081013561558a81615db7565b60ff16602083015260408101356155a081615d6a565b6001600160a01b0390811660408401526060820135906155bf82615d6a565b16606083015260808101356155d381615da2565b66ffffffffffffff16608083015260a08101356155ef81615d8d565b6001600160681b03811660a0840152505050565b60008251615615818460208701615b70565b9190910192915050565b602081526000825180602084015261563e816040850160208701615b70565b601f01601f19169190910160400192915050565b60208082526007908201526610b5b2b2b832b960c91b604082015260600190565b6020808252602e908201527f496e697469616c697a61626c653a20636f6e747261637420697320616c72656160408201526d191e481a5b9a5d1a585b1a5e995960921b606082015260800190565b6020808252818101527f4f776e61626c653a2063616c6c6572206973206e6f7420746865206f776e6572604082015260600190565b6020808252601b908201527f4d696e696d756d206465706f736974206e6f7420726561636865640000000000604082015260600190565b6020808252601f908201527f5265656e7472616e637947756172643a207265656e7472616e742063616c6c00604082015260600190565b600061010080835261578881840161577b886152df565b6001600160a01b03169052565b615794602087016152df565b6101206157ab818601836001600160a01b03169052565b6157b7604089016152df565b91506101406157d0818701846001600160a01b03169052565b610160925060608901358387015261018060808a0135818801526157f760a08b018b6159bb565b6101c06101a081818c01526158116102c08c018486615544565b935061582060c08f018f6159bb565b8c860360ff1901848e01529350615838858583615544565b94505061584760e08f016152df565b6001600160a01b0381166101e08d01529250615864898f016152df565b6001600160a01b0381166102008d01529850615881878f016152ef565b63ffffffff166102208c0152948d01356102408b01525050938a01356102608801528901356102808701528801356102a08601525091506158c79050602083018561556d565b8260e0830152949350505050565b600060808201868352602060808185015281875180845260a0860191508289019350845b81811015615915578451835293830193918301916001016158f9565b5050848103604086015286548082528785528285209183019350845b818110156159565782546001600160a01b031685529383019360019283019201615931565b50505061ffff8516606085015250905095945050505050565b6000808335601e19843603018112615985578283fd5b83018035915067ffffffffffffffff82111561599f578283fd5b6020019150368190038213156159b457600080fd5b9250929050565b6000808335601e198436030181126159d1578283fd5b830160208101925035905067ffffffffffffffff8111156159f157600080fd5b8036038313156159b457600080fd5b60008219821115615a1357615a13615c06565b500190565b600082615a2757615a27615c1c565b500490565b600181815b80851115615a67578160001904821115615a4d57615a4d615c06565b80851615615a5a57918102915b93841c9390800290615a31565b509250929050565b6000610e1f8383600082615a8557506001610d6f565b81615a9257506000610d6f565b8160018114615aa85760028114615ab257615ace565b6001915050610d6f565b60ff841115615ac357615ac3615c06565b50506001821b610d6f565b5060208310610133831016604e8410600b8410161715615af1575081810a610d6f565b615afb8383615a2c565b8060001904821115615b0f57615b0f615c06565b029392505050565b6000816000190483118215151615615b3157615b31615c06565b500290565b600061ffff83811690831681811015615b5157615b51615c06565b039392505050565b600082821015615b6b57615b6b615c06565b500390565b60005b83811015615b8b578181015183820152602001615b73565b838111156140a95750506000910152565b600181811c90821680615bb057607f821691505b60208210811415615bd157634e487b7160e01b600052602260045260246000fd5b50919050565b6000600019821415615beb57615beb615c06565b5060010190565b600082615c0157615c01615c1c565b500690565b634e487b7160e01b600052601160045260246000fd5b634e487b7160e01b600052601260045260246000fd5b60008135610d6f81615d6a565b60008135610d6f81615d8d565b60008135610d6f81615da2565b8135615c6481615d7f565b815460ff19811691151560ff1691821783556020840135615c8481615db7565b61ff008160081b169050808361ffff198416171784556040850135615ca881615d6a565b6001600160b01b0319929092169092179190911760109190911b62010000600160b01b031617815560018101615d00615ce360608501615c32565b82546001600160a01b0319166001600160a01b0391909116178255565b615d39615d0f60808501615c4c565b82805466ffffffffffffff60a01b191660a09290921b66ffffffffffffff60a01b16919091179055565b50613bb3615d4960a08401615c3f565b600283016001600160681b0382166001600160681b03198254161781555050565b6001600160a01b0381168114612c2657600080fd5b8015158114612c2657600080fd5b6001600160681b0381168114612c2657600080fd5b66ffffffffffffff81168114612c2657600080fd5b60ff81168114612c2657600080fdfea264697066735822122042ddfeefb1741c8992492e73209bde0a15bc72e6187d94790bab5c9d4fbac16f64736f6c63430008040033",
  "deployedBytecode": "0x608060405234801561001057600080fd5b50600436106104965760003560e01c80638da5cb5b11610262578063b4befff211610151578063e73c63d5116100ce578063f656ba5111610092578063f656ba5114610c40578063f756fa2114610c68578063f79d8d1214610c70578063f957a06714610c93578063fc29738014610ca6578063fe56e23214610cb957600080fd5b8063e73c63d514610c00578063e74b981b14610c09578063ea00b1ca14610c1c578063ef78d4fd14610c24578063f2fde38b14610c2d57600080fd5b8063d164cc1511610115578063d164cc1514610b71578063d5f2638214610b84578063db006a7514610b8d578063db43e86214610ba0578063dd62ed3e14610bc757600080fd5b8063b4befff214610b1d578063b6b55f2514610b30578063b9f8092b14610b43578063ce7c2ac214610b4b578063d13f1b3e14610b5e57600080fd5b8063a285c9e8116101df578063a9059cbb116101a3578063a9059cbb14610ab5578063aced166114610ac8578063ad5c464814610adb578063ad7a672f14610b02578063afa6626414610b0a57600080fd5b8063a285c9e814610a60578063a2db9d8314610a75578063a457c2d714610a86578063a497e67414610a99578063a6f7f5d614610aac57600080fd5b806399530b061161022657806399530b06146109475780639b2e601b1461094f5780639be43daa146109585780639fcc2d751461096b578063a083ff1714610a0a57600080fd5b80638da5cb5b1461090b5780638fcc9cfb1461091c57806395d89b411461092f57806396d2a76b14610937578063990c56101461093f57600080fd5b80634af96d29116103895780636f31ab34116103065780637e108d52116102ca5780637e108d521461088e57806383536ff3146108a157806387153eb1146108aa57806387788782146108ca57806389a30271146108d35780638b10cc7c146108fa57600080fd5b80636f31ab34146107eb57806370897b23146107f357806370a0823114610806578063715018a61461082f5780637a9262a21461083757600080fd5b8063650cce8a1161034d578063650cce8a146107165780636719b2ee1461073d57806369b41170146107b45780636b64c769146107bc5780636c10f66c146107c457600080fd5b80634af96d29146106cc578063503c70aa146106df57806355489bb2146106e8578063600a2cfb146106fb578063601d6ba91461070357600080fd5b8063355274ea1161041757806341b3d185116103db57806341b3d18514610681578063432833a61461068a5780634603c0aa1461069357806346904840146106a657806347786d37146106b957600080fd5b8063355274ea1461061857806339509351146106295780633ec143d31461063c5780633f23bb731461065d5780633f90916a1461067057600080fd5b806323b872dd1161045e57806323b872dd1461053a5780632728f3331461054d5780632775d01c146105d357806330630da4146105e8578063313ce567146105fb57600080fd5b806306fdde031461049b578063095ea7b3146104b95780630cbf54c8146104dc57806318160ddd146104f35780631a92f6c2146104fb575b600080fd5b6104a3610ccc565b6040516104b0919061561f565b60405180910390f35b6104cc6104c7366004615397565b610d5e565b60405190151581526020016104b0565b6104e560de5481565b6040519081526020016104b0565b6099546104e5565b6105227f000000000000000000000000000000000000000000000000000000000000000081565b6040516001600160a01b0390911681526020016104b0565b6104cc610548366004615357565b610d75565b60cc5460cd5461058e9161ffff8116916001600160681b03620100008304811692600160781b900416906001600160801b0380821691600160801b90041685565b6040805161ffff90961686526001600160681b03948516602087015293909216928401929092526001600160801b03918216606084015216608082015260a0016104b0565b6105e66105e13660046154b7565b610e26565b005b6105e66105f6366004615303565b611067565b60c954610100900460ff1660405160ff90911681526020016104b0565b60cb546001600160681b03166104e5565b6104cc610637366004615397565b6110ff565b60e45461064a9061ffff1681565b60405161ffff90911681526020016104b0565b6104e561066b366004615303565b61113b565b60cd546001600160801b03166104e5565b6104e560e35481565b6104e560df5481565b6105e66106a1366004615303565b61118e565b60d554610522906001600160a01b031681565b6105e66106c73660046154b7565b611230565b6105e66106da366004615434565b61130b565b6104e560e05481565b6105e66106f6366004615490565b611681565b6105e6611742565b6105226107113660046154b7565b61189d565b6105227f000000000000000000000000000000000000000000000000000000000000000081565b61078361074b366004615303565b60d06020526000908152604090205461ffff8116906201000081046001600160681b031690600160781b90046001600160801b031683565b6040805161ffff90941684526001600160681b0390921660208401526001600160801b0316908201526060016104b0565b6104e5600081565b6105e66118c7565b6105227f000000000000000000000000000000000000000000000000000000000000000081565b6105e6611927565b6105e66108013660046154b7565b61195e565b6104e5610814366004615303565b6001600160a01b031660009081526097602052604090205490565b6105e6611a25565b61086c610845366004615303565b60d26020526000908152604090205461ffff8116906201000090046001600160801b031682565b6040805161ffff90931683526001600160801b039091166020830152016104b0565b6105e661089c3660046154b7565b611a5b565b6104e560db5481565b6104e56108b83660046154b7565b60d16020526000908152604090205481565b6104e560d95481565b6105227f000000000000000000000000000000000000000000000000000000000000000081565b60cf546001600160a01b0316610522565b6065546001600160a01b0316610522565b6105e661092a3660046154b7565b611d61565b6104a3611dfa565b6105e6611e09565b6105e6611e63565b6104e5611f8d565b6104e560e25481565b6105e66109663660046154b7565b611fc7565b60c95460ca5460cb546109ba9260ff808216936101008304909116926001600160a01b036201000090930483169282169166ffffffffffffff600160a01b90910416906001600160681b031686565b60408051961515875260ff90951660208701526001600160a01b03938416948601949094529116606084015266ffffffffffffff1660808301526001600160681b031660a082015260c0016104b0565b60ce5460cf54610a34916001600160a01b039081169190811690600160a01b900463ffffffff1683565b604080516001600160a01b03948516815293909216602084015263ffffffff16908201526060016104b0565b60cf54600160a01b900463ffffffff166104e5565b60ce546001600160a01b0316610522565b6104cc610a94366004615397565b6120c1565b6105e6610aa73660046154b7565b61215a565b6104e560da5481565b6104cc610ac3366004615397565b612217565b60d654610522906001600160a01b031681565b6105227f000000000000000000000000000000000000000000000000000000000000000081565b6104e5612224565b60d754610522906001600160a01b031681565b6105e6610b2b3660046154b7565b6122c3565b6105e6610b3e3660046154b7565b6122f2565b6105e6612389565b6104e5610b59366004615303565b612550565b6105e6610b6c3660046154b7565b61256d565b6105e6610b7f366004615303565b612631565b6104e560dc5481565b6105e6610b9b3660046154b7565b6126c0565b6105227f000000000000000000000000000000000000000000000000000000000000000081565b6104e5610bd536600461531f565b6001600160a01b03918216600090815260986020908152604080832093909416825291909152205490565b6104e560dd5481565b6105e6610c17366004615303565b61272d565b6105e6612820565b6104e560e15481565b6105e6610c3b366004615303565b612b8e565b610c53610c4e366004615303565b612c29565b604080519283526020830191909152016104b0565b6105e6612d0c565b6104cc610c7e366004615303565b60d36020526000908152604090205460ff1681565b60d854610522906001600160a01b031681565b6105e6610cb43660046154b7565b612d61565b6105e6610cc73660046154b7565b612dfd565b6060609a8054610cdb90615b9c565b80601f0160208091040260200160405190810160405280929190818152602001828054610d0790615b9c565b8015610d545780601f10610d2957610100808354040283529160200191610d54565b820191906000526020600020905b815481529060010190602001808311610d3757829003601f168201915b5050505050905090565b6000610d6b338484612ec6565b5060015b92915050565b6000610d82848484612feb565b6001600160a01b038416600090815260986020908152604080832033845290915290205482811015610e0c5760405162461bcd60e51b815260206004820152602860248201527f45524332303a207472616e7366657220616d6f756e74206578636565647320616044820152676c6c6f77616e636560c01b60648201526084015b60405180910390fd5b610e198533858403612ec6565b60019150505b9392505050565b60026001541415610e495760405162461bcd60e51b8152600401610e039061572d565b600260015533600090815260d06020526040902060cc5461ffff1682610e9b5760405162461bcd60e51b815260206004820152600760248201526608585b5bdd5b9d60ca1b6044820152606401610e03565b815461ffff168114610edf5760405162461bcd60e51b815260206004820152600d60248201526c125b9d985b1a59081c9bdd5b99609a1b6044820152606401610e03565b81546201000090046001600160681b031683811015610f305760405162461bcd60e51b815260206004820152600d60248201526c115e18d9595908185b5bdd5b9d609a1b6044820152606401610e03565b6000610f4582610f3f3361113b565b9061306d565b905084811115610f81576000610f5b8287613079565b905060e354811015610f7f5760405162461bcd60e51b8152600401610e03906156f6565b505b610f8b8286613079565b84546001600160681b0391909116620100000262010000600160781b031990911617845560cd54610fc5906001600160801b031686613079565b60cd80546001600160801b0319166001600160801b0392909216919091179055604080518681526020810185905233917fab2daf3c146ca6416cbccd2a86ed2ba995e171ef6319df14a38aef01403a9c96910160405180910390a283546201000090046001600160681b0316158015611044575061104233612550565b155b156110525761105233613085565b61105c33866132d6565b505060018055505050565b6065546001600160a01b031633146110915760405162461bcd60e51b8152600401610e03906156c1565b6001600160a01b0381166110dd5760405162461bcd60e51b815260206004820152601360248201527210b732bba9ba3934b5b2a9b2b632b1ba34b7b760691b6044820152606401610e03565b60d880546001600160a01b0319166001600160a01b0392909216919091179055565b3360008181526098602090815260408083206001600160a01b03871684529091528120549091610d6b918590611136908690615a00565b612ec6565b60c95460009060ff610100909104168161117161115760995490565b61115f612224565b60cd546001600160801b0316856132f3565b905061118661117f85612550565b8284613339565b949350505050565b6065546001600160a01b031633146111b85760405162461bcd60e51b8152600401610e03906156c1565b6001600160a01b03811661120e5760405162461bcd60e51b815260206004820152601860248201527f216e65774f7074696f6e735072656d69756d50726963657200000000000000006044820152606401610e03565b60d780546001600160a01b0319166001600160a01b0392909216919091179055565b6065546001600160a01b0316331461125a5760405162461bcd60e51b8152600401610e03906156c1565b600081116112945760405162461bcd60e51b81526020600482015260076024820152660216e65774361760cc1b6044820152606401610e03565b61129d8161339b565b60cb54604080516001600160681b039092168252602082018390527f5f86edbb9d92228a9edc3f0ebc0f001bda1ea345ac7335e0eeef3504b31d1a1c910160405180910390a160cb80546cffffffffffffffffffffffffff19166001600160681b0392909216919091179055565b600054610100900460ff1680611324575060005460ff16155b6113405760405162461bcd60e51b8152600401610e0390615673565b600054610100900460ff16158015611362576000805461ffff19166101011790555b604051636a1f213760e01b815273__$96b216381db19e3be8352ccbc8a6bfdf78$__90636a1f21379061139f908690869061012c90600401615764565b60006040518083038186803b1580156113b757600080fd5b505af41580156113cb573d6000803e3d6000fd5b505050506113d76133e5565b6114636113e760a085018561596f565b8080601f0160208091040260200160405190810160405280939291908181526020018383808284376000920191909152506114299250505060c086018661596f565b8080601f01602080910402602001604051908101604052809392919081815260200183838082843760009201919091525061345892505050565b61146b6134d7565b61147b610c3b6020850185615303565b61148b6040840160208501615303565b60d680546001600160a01b0319166001600160a01b039290921691909117905561016083013560e1556114c5610100840160e08501615303565b60d780546001600160a01b0319166001600160a01b03929092169190911790556114f761012084016101008501615303565b60d880546001600160a01b0319166001600160a01b03929092169190911790556115296101408401610120850161550e565b63ffffffff1660db5561014083013560de5561154b6060840160408501615303565b60d580546001600160a01b0319166001600160a01b0392909216919091179055608083013560d955611580606084013561353e565b60da5561018083013560e2556101a083013560e3558160c96115a28282615c59565b505060cc805461ffff1916600117905560c9546040516370a0823160e01b81523060048201526000916001600160a01b036201000090910416906370a082319060240160206040518083038186803b1580156115fd57600080fd5b505afa158015611611573d6000803e3d6000fd5b505050506040513d601f19601f82011682018060405250810190611635919061541c565b90506116408161339b565b60cc80546001600160681b03909216600160781b02600160781b600160e01b0319909216919091179055801561167c576000805461ff00191690555b505050565b6065546001600160a01b031633146116ab5760405162461bcd60e51b8152600401610e03906156c1565b600260015414156116ce5760405162461bcd60e51b8152600401610e039061572d565b60026001556001600160801b0381166117185760405162461bcd60e51b815260206004820152600c60248201526b21737472696b65507269636560a01b6044820152606401610e03565b6001600160801b031660dd5560cc5460e4805461ffff191661ffff90921691909117905560018055565b60d6546001600160a01b0316331461176c5760405162461bcd60e51b8152600401610e0390615652565b6002600154141561178f5760405162461bcd60e51b8152600401610e039061572d565b600260015560cf546040516358ffbb3d60e01b81526001600160a01b037f000000000000000000000000000000000000000000000000000000000000000081166004830152909116602482015260009073__$96b216381db19e3be8352ccbc8a6bfdf78$__906358ffbb3d9060440160206040518083038186803b15801561181657600080fd5b505af415801561182a573d6000803e3d6000fd5b505050506040513d601f19601f8201168201806040525081019061184e919061541c565b60cc5490915061186d906201000090046001600160681b031682613079565b60cc80546001600160681b0392909216620100000262010000600160781b03199092169190911790555060018055565b60d481815481106118ad57600080fd5b6000918252602090912001546001600160a01b0316905081565b60d6546001600160a01b031633146118f15760405162461bcd60e51b8152600401610e0390615652565b600260015414156119145760405162461bcd60e51b8152600401610e039061572d565b60026001556119216135a9565b60018055565b6002600154141561194a5760405162461bcd60e51b8152600401610e039061572d565b6002600181905550611921600060016137ee565b6065546001600160a01b031633146119885760405162461bcd60e51b8152600401610e03906156c1565b611996620f42406064615b17565b81106119e45760405162461bcd60e51b815260206004820152601760248201527f496e76616c696420706572666f726d616e6365206665650000000000000000006044820152606401610e03565b60d95460408051918252602082018390527f24867dfb6fcb9970a07be21024956524abe7a1837faa903ff0e99aaa40cf893e910160405180910390a160d955565b6065546001600160a01b03163314611a4f5760405162461bcd60e51b8152600401610e03906156c1565b611a59600061399d565b565b60026001541415611a7e5760405162461bcd60e51b8152600401610e039061572d565b600260015580611abd5760405162461bcd60e51b815260206004820152600a602482015269216e756d53686172657360b01b6044820152606401610e03565b33600090815260d06020526040902080546201000090046001600160681b0316151580611afa57508054600160781b90046001600160801b031615155b15611b0b57611b0b600060016137ee565b60cc5433600081815260d260209081526040918290208054835188815261ffff96871693810184905292959194911692838614927f0c53c82ad07e2d592d88ece3b066777dd60f1118e2a081b380efc4358f0d9e2a910160405180910390a282546201000090046001600160801b031660008215611b9457611b8d828961306d565b9050611bf7565b8115611bd65760405162461bcd60e51b81526020600482015260116024820152704578697374696e6720776974686472617760781b6044820152606401610e03565b5033600090815260d260205260409020805461ffff191661ffff8716179055865b60c954610100900460ff166000611c0d3361113b565b90506000611c538b8a60011415611c2e57611c2985600a615a6f565b611c4d565b60d16000611c3d60018e615b59565b8152602001908152602001600020545b85613339565b905080821115611c8f576000611c698383613079565b905060e354811015611c8d5760405162461bcd60e51b8152600401610e03906156f6565b505b611c98846139ef565b33600090815260d26020526040812080546001600160801b03808816620100000262010000600160901b03199092169190911790915560cd54611ce491600160801b909104168d61306d565b9050611cef816139ef565b60cd80546001600160801b03808416600160801b0291161790558a546001600160681b036201000090910416158015611d365750336000908152609760205260409020548c145b15611d4457611d4433613085565b611d4f33308e612feb565b50506001805550505050505050505050565b6065546001600160a01b03163314611d8b5760405162461bcd60e51b8152600401610e03906156c1565b60026001541415611dae5760405162461bcd60e51b8152600401610e039061572d565b600260015580611df15760405162461bcd60e51b815260206004820152600e60248201526d085b995dd35a5b91195c1bdcda5d60921b6044820152606401610e03565b60e35560018055565b6060609b8054610cdb90615b9c565b60d6546001600160a01b03163314611e335760405162461bcd60e51b8152600401610e0390615652565b60026001541415611e565760405162461bcd60e51b8152600401610e039061572d565b6002600155611921613a39565b60d6546001600160a01b03163314611e8d5760405162461bcd60e51b8152600401610e0390615652565b60026001541415611eb05760405162461bcd60e51b8152600401610e039061572d565b600260015560df54611ee3907f000000000000000000000000000000000000000000000000000000000000000090613bb7565b6040516370a0823160e01b815230600482015262989680907f00000000000000000000000000000000000000000000000000000000000000006001600160a01b0316906370a082319060240160206040518083038186803b158015611f4757600080fd5b505afa158015611f5b573d6000803e3d6000fd5b505050506040513d601f19601f82011682018060405250810190611f7f919061541c565b111561192157611921613a39565b6000611fc2611f9b60995490565b611fa3612224565b60cd5460c9546001600160801b0390911690610100900460ff166132f3565b905090565b60026001541415611fea5760405162461bcd60e51b8152600401610e039061572d565b6002600155806120295760405162461bcd60e51b815260206004820152600a602482015269216e756d526f756e647360b01b6044820152606401610e03565b60cc5461ffff1660005b828110156120b85760006120478284615a00565b600081815260d16020526040902054909150156120945760405162461bcd60e51b815260206004820152600b60248201526a125b9a5d1a585b1a5e995960aa1b6044820152606401610e03565b600090815260d16020526040902060019055806120b081615bd7565b915050612033565b50506001805550565b3360009081526098602090815260408083206001600160a01b0386168452909152812054828110156121435760405162461bcd60e51b815260206004820152602560248201527f45524332303a2064656372656173656420616c6c6f77616e63652062656c6f77604482015264207a65726f60d81b6064820152608401610e03565b6121503385858403612ec6565b5060019392505050565b6065546001600160a01b031633146121845760405162461bcd60e51b8152600401610e03906156c1565b61012c8110156121d65760405162461bcd60e51b815260206004820152601860248201527f496e76616c69642061756374696f6e206475726174696f6e00000000000000006044820152606401610e03565b60de5460408051918252602082018390527f5acd982e2240ed224a69aa03dab039d3797c108e4b5f288cd7dd6ca181b275f3910160405180910390a160de55565b6000610d6b338484612feb565b60c9546040516370a0823160e01b8152306004820152600091611fc291620100009091046001600160a01b0316906370a082319060240160206040518083038186803b15801561227357600080fd5b505afa158015612287573d6000803e3d6000fd5b505050506040513d601f19601f820116820180604052508101906122ab919061541c565b60cc546201000090046001600160681b03169061306d565b60d6546001600160a01b031633146122ed5760405162461bcd60e51b8152600401610e0390615652565b60dc55565b600260015414156123155760405162461bcd60e51b8152600401610e039061572d565b6002600155806123515760405162461bcd60e51b815260206004820152600760248201526608585b5bdd5b9d60ca1b6044820152606401610e03565b61235a33613c31565b6123648133613d70565b60c954612382906201000090046001600160a01b031633308461403e565b5060018055565b60d6546001600160a01b031633146123b35760405162461bcd60e51b8152600401610e0390615652565b600260015414156123d65760405162461bcd60e51b8152600401610e039061572d565b600260018190555060008060006123ee60e0546140af565b60e0819055919450925090506124038261339b565b60cc805462010000600160781b031916620100006001600160681b0385160217905560405182815233906001600160a01b038516907f045c558fdce4714c5816d53820d27420f4cd860892df203fe636384d8d19aa019060200160405180910390a3604051632904c23960e01b81526001600160a01b037f0000000000000000000000000000000000000000000000000000000000000000811660048301527f000000000000000000000000000000000000000000000000000000000000000081166024830152841660448201526064810183905273__$96b216381db19e3be8352ccbc8a6bfdf78$__90632904c2399060840160206040518083038186803b15801561250f57600080fd5b505af4158015612523573d6000803e3d6000fd5b505050506040513d601f19601f82011682018060405250810190612547919061541c565b506120b86135a9565b600080600061255e84612c29565b9092509050611186828261306d565b6065546001600160a01b031633146125975760405162461bcd60e51b8152600401610e03906156c1565b6000811180156125b157506125ae600a6064615b17565b81105b6125f05760405162461bcd60e51b815260206004820152601060248201526f125b9d985b1a5908191a5cd8dbdd5b9d60821b6044820152606401610e03565b60db5460408051918252602082018390527f4cd657fde404967d63a338fb06c5c98751a9df57dfae6dc333a432faf8a5f656910160405180910390a160db55565b6065546001600160a01b0316331461265b5760405162461bcd60e51b8152600401610e03906156c1565b6001600160a01b03811661269e5760405162461bcd60e51b815260206004820152600a60248201526910b732bba5b2b2b832b960b11b6044820152606401610e03565b60d680546001600160a01b0319166001600160a01b0392909216919091179055565b600260015414156126e35760405162461bcd60e51b8152600401610e039061572d565b6002600155806127225760405162461bcd60e51b815260206004820152600a602482015269216e756d53686172657360b01b6044820152606401610e03565b6123828160006137ee565b6065546001600160a01b031633146127575760405162461bcd60e51b8152600401610e03906156c1565b6001600160a01b0381166127a05760405162461bcd60e51b815260206004820152601060248201526f085b995dd19959549958da5c1a595b9d60821b6044820152606401610e03565b60d5546001600160a01b03828116911614156127fe5760405162461bcd60e51b815260206004820152601860248201527f4d757374206265206e657720666565526563697069656e7400000000000000006044820152606401610e03565b60d580546001600160a01b0319166001600160a01b0392909216919091179055565b600260015414156128435760405162461bcd60e51b8152600401610e039061572d565b600260015560cf546040805160e0810182526001600160a01b037f0000000000000000000000000000000000000000000000000000000000000000811682527f000000000000000000000000000000000000000000000000000000000000000081166020830190815293811682840181815260006060850181815260e4805461ffff9081166080890190815260dd5460a08a0190815260e15460c08b0190815260d85460d75460db549d5163f71d2fd360e01b8152918c1660048301528b166024820152604481019c909c528a518a1660648d01529b51891660848c0152955190971660a48a0152915160c48901529451169386019390935251610104850152935161012484015260c961014484015260cc610164840152909181908190819073__$96b216381db19e3be8352ccbc8a6bfdf78$__9063f71d2fd3906101840160806040518083038186803b15801561299b57600080fd5b505af41580156129af573d6000803e3d6000fd5b505050506040513d601f19601f820116820180604052508101906129d391906153c2565b93509350935093507fa217999b1c125c2a996f712c5f26a28addad7167bd8a67d5bd5b2a751148abb08282604051612a15929190918252602082015260400190565b60405180910390a1612a268361339b565b6001600160681b03831660dc5560ce80546001600160a01b0319166001600160a01b0386161790556000612a5a428261306d565b905063ffffffff811115612ab05760405162461bcd60e51b815260206004820152601860248201527f4f766572666c6f77206e6578744f7074696f6e526561647900000000000000006044820152606401610e03565b60cf805463ffffffff60a01b1916600160a01b63ffffffff841602179055612ad787614407565b6040516370a0823160e01b815230600482015262989680907f00000000000000000000000000000000000000000000000000000000000000006001600160a01b0316906370a082319060240160206040518083038186803b158015612b3b57600080fd5b505afa158015612b4f573d6000803e3d6000fd5b505050506040513d601f19601f82011682018060405250810190612b73919061541c565b1115612b8157612b81613a39565b5050600180555050505050565b6065546001600160a01b03163314612bb85760405162461bcd60e51b8152600401610e03906156c1565b6001600160a01b038116612c1d5760405162461bcd60e51b815260206004820152602660248201527f4f776e61626c653a206e6577206f776e657220697320746865207a65726f206160448201526564647265737360d01b6064820152608401610e03565b612c268161399d565b50565b6001600160a01b038116600090815260d0602090815260408083208151606081018352905461ffff81168083526201000082046001600160681b031694830194909452600160781b90046001600160801b031691810191909152829160011115612cab575050506001600160a01b031660009081526097602052604081205491565b60cc54815161ffff908116600090815260d1602052604081205460c9549193612ce193869391169190610100900460ff16614573565b9050612d02856001600160a01b031660009081526097602052604090205490565b9590945092505050565b60026001541415612d2f5760405162461bcd60e51b8152600401610e039061572d565b60026001556000612d3e6145e4565b60e054909150612d4e9082613079565b6001600160801b031660e0555060018055565b6065546001600160a01b03163314612d8b5760405162461bcd60e51b8152600401610e03906156c1565b60026001541415612dae5760405162461bcd60e51b8152600401610e039061572d565b600260015580612df45760405162461bcd60e51b8152602060048201526011602482015270216e65774d61784465706f7369746f727360781b6044820152606401610e03565b60e25560018055565b6065546001600160a01b03163314612e275760405162461bcd60e51b8152600401610e03906156c1565b612e35620f42406064615b17565b8110612e7c5760405162461bcd60e51b8152602060048201526016602482015275496e76616c6964206d616e6167656d656e742066656560501b6044820152606401610e03565b612e858161353e565b60da81905560408051918252602082018390527f4e874b007ab14f7e263baefd44951834c8266f4f224d1092e49e9c254354cc54910160405180910390a150565b6001600160a01b038316612f285760405162461bcd60e51b8152602060048201526024808201527f45524332303a20617070726f76652066726f6d20746865207a65726f206164646044820152637265737360e01b6064820152608401610e03565b6001600160a01b038216612f895760405162461bcd60e51b815260206004820152602260248201527f45524332303a20617070726f766520746f20746865207a65726f206164647265604482015261737360f01b6064820152608401610e03565b6001600160a01b0383811660008181526098602090815260408083209487168084529482529182902085905590518481527f8c5be1e5ebec7d5bd14f71427d1e84f3dd0314c0f7b2291e5b200ac8c7c3b92591015b60405180910390a3505050565b6001600160a01b03821630148061300a57506001600160a01b03831630145b6130625760405162461bcd60e51b8152602060048201526024808201527f54726561737572792072546f6b656e206973206e6f74207472616e736665727260448201526361626c6560e01b6064820152608401610e03565b61167c8383836147a1565b6000610e1f8284615a00565b6000610e1f8284615b59565b60d480546001600160a01b038316600090815260d3602052604090205460ff166130f15760405162461bcd60e51b815260206004820152601860248201527f4465706f7369746f7220646f6573206e6f7420657869737400000000000000006044820152606401610e03565b6001600160a01b038316600090815260d360205260408120805460ff191690555b61311d600183615b59565b8110156132905782818154811061314457634e487b7160e01b600052603260045260246000fd5b6000918252602090912001546001600160a01b038581169116141561327e578261316f600184615b59565b8154811061318d57634e487b7160e01b600052603260045260246000fd5b9060005260206000200160009054906101000a90046001600160a01b03168382815481106131cb57634e487b7160e01b600052603260045260246000fd5b9060005260206000200160009054906101000a90046001600160a01b031684838154811061320957634e487b7160e01b600052603260045260246000fd5b600091825260208220019086613220600188615b59565b8154811061323e57634e487b7160e01b600052603260045260246000fd5b600091825260209091200180546001600160a01b039485166001600160a01b031990911617905581549383166101009190910a9081029202199092161790555b8061328881615bd7565b915050613112565b50818054806132af57634e487b7160e01b600052603160045260246000fd5b600082815260209020810160001990810180546001600160a01b0319169055019055505050565b60c9546201000090046001600160a01b031661167c81848461496f565b60008061330183600a615a6f565b905060008611613311578061332f565b61332f866133296133228888613079565b849061499f565b906149ab565b9695505050505050565b6000600183116133835760405162461bcd60e51b8152602060048201526015602482015274496e76616c6964206173736574506572536861726560581b6044820152606401610e03565b61118661339183600a615a6f565b613329868661499f565b6001600160681b03811115612c265760405162461bcd60e51b815260206004820152601060248201526f13dd995c999b1bddc81d5a5b9d0c4c0d60821b6044820152606401610e03565b600054610100900460ff16806133fe575060005460ff16155b61341a5760405162461bcd60e51b8152600401610e0390615673565b600054610100900460ff1615801561343c576000805461ffff19166101011790555b6134446149b7565b8015612c26576000805461ff001916905550565b600054610100900460ff1680613471575060005460ff16155b61348d5760405162461bcd60e51b8152600401610e0390615673565b600054610100900460ff161580156134af576000805461ffff19166101011790555b6134b7614a26565b6134c18383614a90565b801561167c576000805461ff0019169055505050565b600054610100900460ff16806134f0575060005460ff16155b61350c5760405162461bcd60e51b8152600401610e0390615673565b600054610100900460ff1615801561352e576000805461ffff19166101011790555b613536614a26565b613444614b25565b60e15460009081613550601e83615bf2565b1561357357613560600783615a18565b61356e9063031ba309615a18565b613596565b61357e601e83615a18565b61358990600c615a18565b61359690620f4240615b17565b90506111868161332986620f424061499f565b6040805160c081018252600080825260208201819052918101829052606081018290526080810182905260a081019190915260dc54806136235760405162461bcd60e51b81526020600482015260156024820152742163757272656e744f746f6b656e5072656d69756d60581b6044820152606401610e03565b60007f00000000000000000000000000000000000000000000000000000000000000006001600160a01b031663313ce5676040518163ffffffff1660e01b815260040160206040518083038186803b15801561367e57600080fd5b505afa158015613692573d6000803e3d6000fd5b505050506040513d601f19601f820116820180604052508101906136b69190615528565b60cf546001600160a01b0390811685527f00000000000000000000000000000000000000000000000000000000000000008116602086019081527f00000000000000000000000000000000000000000000000000000000000000008216604080880191825260ff94909416606088018181526080890188815260de5460a08b019081529651633baf17fd60e21b81528a51871660048201529451861660248601529251909416604484015292516064830152516084820152915160a4830152915073__$96b216381db19e3be8352ccbc8a6bfdf78$__9063eebc5ff49060c40160206040518083038186803b1580156137ae57600080fd5b505af41580156137c2573d6000803e3d6000fd5b505050506040513d601f19601f820116820180604052508101906137e6919061541c565b60df55505050565b33600090815260d0602090815260408083208151606081018352905461ffff8082168084526201000083046001600160681b031684870152600160781b9092046001600160801b03168385015260cc5491865260d19094529184205460c954919492909316926138699185918591610100900460ff16614573565b9050836138765784613878565b805b945084613886575050505050565b808511156138ca5760405162461bcd60e51b81526020600482015260116024820152704578636565647320617661696c61626c6560781b6044820152606401610e03565b825161ffff168211156138f75733600090815260d060205260409020805462010000600160781b03191690555b613900856139ef565b61390a8186613079565b33600081815260d060205260409081902080546001600160801b0394909416600160781b02600160781b600160f81b0319909416939093179092558451915190917fe5b754fb1abb7f01b499791d0b820ae3b6af3424ac1c59768edb53f4ec31a929916139839189825261ffff16602082015260400190565b60405180910390a2613996303387612feb565b5050505050565b606580546001600160a01b038381166001600160a01b0319831681179093556040519116919082907f8be0079c531659141344cd1fd0a4f28419497f9722a3daafe3b4186f6b6457e090600090a35050565b6001600160801b03811115612c265760405162461bcd60e51b815260206004820152601060248201526f09eeccae4ccd8deee40ead2dce86264760831b6044820152606401610e03565b6040516370a0823160e01b81523060048201527f0000000000000000000000000000000000000000000000000000000000000000906000906001600160a01b038316906370a082319060240160206040518083038186803b158015613a9d57600080fd5b505afa158015613ab1573d6000803e3d6000fd5b505050506040513d601f19601f82011682018060405250810190613ad5919061541c565b905060008111613b275760405162461bcd60e51b815260206004820152601860248201527f6e6f207072656d69756d20746f206469737472696275746500000000000000006044820152606401610e03565b613b318282614b85565b6040516370a0823160e01b8152306004820152613bb39083906001600160a01b038216906370a082319060240160206040518083038186803b158015613b7657600080fd5b505afa158015613b8a573d6000803e3d6000fd5b505050506040513d601f19601f82011682018060405250810190613bae919061541c565b614c2b565b5050565b604051632e99361160e01b8152600481018290526001600160a01b03831690632e99361190602401602060405180830381600087803b158015613bf957600080fd5b505af1158015613c0d573d6000803e3d6000fd5b505050506040513d601f19601f8201168201806040525081019061167c919061541c565b6001600160a01b038116600090815260d3602052604090205460ff16612c26576001600160a01b038116613ca05760405162461bcd60e51b815260206004820152601660248201527511195c1bdcda5d1bdc881859191c995cdcc81b9d5b1b60521b6044820152606401610e03565b60e25460d454613cb1906001615a00565b1115613d0a5760405162461bcd60e51b815260206004820152602260248201527f4e756d626572206f66206465706f7369746f72732065786365656473206c696d6044820152611a5d60f21b6064820152608401610e03565b6001600160a01b0316600081815260d360205260408120805460ff1916600190811790915560d4805491820181559091527f9780e26d96b1f2a9a18ef8fc72d589dbf03ef788137b64f43897e83a91e7feec0180546001600160a01b0319169091179055565b60cc5461ffff166000613d8584610f3f612224565b6001600160a01b038416600090815260d0602090815260408083208151606081018352905461ffff811682526201000081046001600160681b0316938201849052600160781b90046001600160801b031691810191909152929350613df1908790610f3f90813361113b565b60cb549091506001600160681b0316831115613e3c5760405162461bcd60e51b815260206004820152600a6024820152690457863656564206361760b41b6044820152606401610e03565b60ca54600160a01b900466ffffffffffffff16831015613e955760405162461bcd60e51b8152602060048201526014602482015273496e73756666696369656e742062616c616e636560601b6044820152606401610e03565b60e354811015613eb75760405162461bcd60e51b8152600401610e03906156f6565b60408051878152602081018690526001600160a01b038716917f90890809c654f11d6e72a28fa60149770a0d11ec6c92319d6ceb2bb0a4ea1a15910160405180910390a2815161ffff16600090815260d1602052604081205460c954613f29918591889190610100900460ff16614573565b8351909150879061ffff16861415613f5a576020840151600090613f56906001600160681b03168a61306d565b9150505b613f638161339b565b6040805160608101825261ffff80891682526001600160681b0380851660208085019182526001600160801b038089168688019081526001600160a01b038f16600090815260d090935296822095518654935197518216600160781b02600160781b600160f81b03199890951662010000026effffffffffffffffffffffffffffff1990941695169490941791909117949094161790915560cd5461400991168a61306d565b9050614014816139ef565b60cd80546001600160801b0319166001600160801b03929092169190911790555050505050505050565b6040516001600160a01b03808516602483015283166044820152606481018290526140a99085906323b872dd60e01b906084015b60408051601f198184030181529190526020810180516001600160e01b03166001600160e01b031990931692909217909152614dd9565b50505050565b60cf5460009081908190600160a01b900463ffffffff164210156140fe5760405162461bcd60e51b815260206004820152600660248201526521726561647960d01b6044820152606401610e03565b60ce546001600160a01b03169250826141475760405162461bcd60e51b815260206004820152600b60248201526a10b732bc3a27b83a34b7b760a91b6044820152606401610e03565b60cc805460d5546040805160a08101825260c954610100810460ff16825291516370a0823160e01b815230600482015261ffff909416946001600160a01b03938416946000948594859473__$96b216381db19e3be8352ccbc8a6bfdf78$__94633bafb7d6949093919260208401926201000090910416906370a082319060240160206040518083038186803b1580156141e057600080fd5b505afa1580156141f4573d6000803e3d6000fd5b505050506040513d601f19601f82011682018060405250810190614218919061541c565b815260200161422660995490565b81526020018d81526020018960011415614241576000614245565b60da545b9052604080516001600160e01b031960e086901b168152600481019390935281516024840152602082015160448401528101516064830152606081015160848301526080015160a482015260c40160a06040518083038186803b1580156142ab57600080fd5b505af41580156142bf573d6000803e3d6000fd5b505050506040513d601f19601f820116820180604052508101906142e391906154cf565b809650819750829550839a50849b5050505050508760ce60010160006101000a8154816001600160a01b0302191690836001600160a01b03160217905550600060ce60000160006101000a8154816001600160a01b0302191690836001600160a01b031602179055508060d1600087815260200190815260200160002081905550836001600160a01b03167fd42b93f751df91c40b94860a26f5e43b9fc78089c1e3df5d4602eee07009e5c683876040516143a8929190918252602082015260400190565b60405180910390a260cd80546001600160801b03191690556143cb856001615a00565b60cc805461ffff191661ffff92909216919091179055506143ec3083614eab565b80156143fc576143fc83826132d6565b505050509193909250565b60cc546201000090046001600160681b03166001600160a01b0382161561444d5760cc8054600160781b600160e01b031916600160781b6001600160681b038416021790555b60cc805462010000600160781b031916905560cf80546001600160a01b03191690556001600160a01b03821615613bb357604051636c6fe87f60e11b81526001600160a01b037f000000000000000000000000000000000000000000000000000000000000000016600482015260009073__$96b216381db19e3be8352ccbc8a6bfdf78$__9063d8dfd0fe9060240160206040518083038186803b1580156144f457600080fd5b505af4158015614508573d6000803e3d6000fd5b505050506040513d601f19601f8201168201806040525081019061452c919061541c565b9050336001600160a01b0316836001600160a01b03167f7e830f7c1771deb1bdb35c4a7e6051bbac32b376f7f4e4976b8618b0b11997f783604051612fde91815260200190565b835160009061ffff161580159061458e5750845161ffff1684115b156145d05760006145ad86602001516001600160681b03168585614f8a565b60408701519091506145c8906001600160801b03168261306d565b915050611186565b50505050604001516001600160801b031690565b33600090815260d26020526040812080546001600160801b03620100008204169061ffff16816146465760405162461bcd60e51b815260206004820152600d60248201526c139bdd081a5b9a5d1a585d1959609a1b6044820152606401610e03565b60cc5461ffff16811061468e5760405162461bcd60e51b815260206004820152601060248201526f149bdd5b99081b9bdd0818db1bdcd95960821b6044820152606401610e03565b33600090815260d260205260409020805462010000600160901b031916905560cd546146ca90600160801b90046001600160801b031683613079565b60cd80546001600160801b03928316600160801b029216919091179055600081815260d1602052604081205460c95461470d91859160ff61010090910416613339565b604080518281526020810186905291925033917ff279e6a1f5e320cca91135676d9cb6e44ca8a08c0b88342bcdb1144f6511b568910160405180910390a26147553084614fed565b600081116147975760405162461bcd60e51b815260206004820152600f60248201526e085dda5d1a191c985dd05b5bdd5b9d608a1b6044820152606401610e03565b61118633826132d6565b6001600160a01b0383166148055760405162461bcd60e51b815260206004820152602560248201527f45524332303a207472616e736665722066726f6d20746865207a65726f206164604482015264647265737360d81b6064820152608401610e03565b6001600160a01b0382166148675760405162461bcd60e51b815260206004820152602360248201527f45524332303a207472616e7366657220746f20746865207a65726f206164647260448201526265737360e81b6064820152608401610e03565b6001600160a01b038316600090815260976020526040902054818110156148df5760405162461bcd60e51b815260206004820152602660248201527f45524332303a207472616e7366657220616d6f756e7420657863656564732062604482015265616c616e636560d01b6064820152608401610e03565b6001600160a01b03808516600090815260976020526040808220858503905591851681529081208054849290614916908490615a00565b92505081905550826001600160a01b0316846001600160a01b03167fddf252ad1be2c89b69c2b068fc378daa952ba7f163c4a11628f55a4df523b3ef8460405161496291815260200190565b60405180910390a36140a9565b6040516001600160a01b03831660248201526044810182905261167c90849063a9059cbb60e01b90606401614072565b6000610e1f8284615b17565b6000610e1f8284615a18565b600054610100900460ff16806149d0575060005460ff16155b6149ec5760405162461bcd60e51b8152600401610e0390615673565b600054610100900460ff16158015614a0e576000805461ffff19166101011790555b600180558015612c26576000805461ff001916905550565b600054610100900460ff1680614a3f575060005460ff16155b614a5b5760405162461bcd60e51b8152600401610e0390615673565b600054610100900460ff16158015613444576000805461ffff19166101011790558015612c26576000805461ff001916905550565b600054610100900460ff1680614aa9575060005460ff16155b614ac55760405162461bcd60e51b8152600401610e0390615673565b600054610100900460ff16158015614ae7576000805461ffff19166101011790555b8251614afa90609a906020860190615246565b508151614b0e90609b906020850190615246565b50801561167c576000805461ff0019169055505050565b600054610100900460ff1680614b3e575060005460ff16155b614b5a5760405162461bcd60e51b8152600401610e0390615673565b600054610100900460ff16158015614b7c576000805461ffff19166101011790555b6134443361399d565b60d5546001600160a01b03166000614bb2614ba4620f42406064615b17565b60d95461332990869061499f565b9050614bc86001600160a01b038516838361496f565b60cc546001600160a01b038316907f8df5f80a19898219351b3c8e70c8cffe1adc78e2394d21dc2da56a39e5dabfe8908390614c0a9060019061ffff16615b36565b6040805192835261ffff90911660208301520160405180910390a250505050565b60d4805460009067ffffffffffffffff811115614c5857634e487b7160e01b600052604160045260246000fd5b604051908082528060200260200182016040528015614c81578160200160208202803683370190505b509050600060e054614c9260995490565b614c9c9190615b59565b905060005b8354811015614d7e576000848281548110614ccc57634e487b7160e01b600052603260045260246000fd5b6000918252602090912001546001600160a01b03169050614cfa8361332988614cf485612550565b9061499f565b848381518110614d1a57634e487b7160e01b600052603260045260246000fd5b602002602001018181525050614d6b81858481518110614d4a57634e487b7160e01b600052603260045260246000fd5b6020026020010151896001600160a01b031661496f9092919063ffffffff16565b5080614d7681615bd7565b915050614ca1565b5060cc547fe55fc5ddbb2bfc597b0e1d510ece6ff2733bd909a81db6e2b6e092aeda7af1c390859084908690614dba9060019061ffff16615b36565b604051614dca94939291906158d5565b60405180910390a15050505050565b6000614e2e826040518060400160405280602081526020017f5361666545524332303a206c6f772d6c6576656c2063616c6c206661696c6564815250856001600160a01b031661513b9092919063ffffffff16565b80519091501561167c5780806020019051810190614e4c9190615400565b61167c5760405162461bcd60e51b815260206004820152602a60248201527f5361666545524332303a204552433230206f7065726174696f6e20646964206e6044820152691bdd081cdd58d8d9595960b21b6064820152608401610e03565b6001600160a01b038216614f015760405162461bcd60e51b815260206004820152601f60248201527f45524332303a206d696e7420746f20746865207a65726f2061646472657373006044820152606401610e03565b8060996000828254614f139190615a00565b90915550506001600160a01b03821660009081526097602052604081208054839290614f40908490615a00565b90915550506040518181526001600160a01b038316906000907fddf252ad1be2c89b69c2b068fc378daa952ba7f163c4a11628f55a4df523b3ef9060200160405180910390a35050565b600060018311614fd45760405162461bcd60e51b8152602060048201526015602482015274496e76616c6964206173736574506572536861726560581b6044820152606401610e03565b61118683613329614fe685600a615a6f565b879061499f565b6001600160a01b03821661504d5760405162461bcd60e51b815260206004820152602160248201527f45524332303a206275726e2066726f6d20746865207a65726f206164647265736044820152607360f81b6064820152608401610e03565b6001600160a01b038216600090815260976020526040902054818110156150c15760405162461bcd60e51b815260206004820152602260248201527f45524332303a206275726e20616d6f756e7420657863656564732062616c616e604482015261636560f01b6064820152608401610e03565b6001600160a01b03831660009081526097602052604081208383039055609980548492906150f0908490615b59565b90915550506040518281526000906001600160a01b038516907fddf252ad1be2c89b69c2b068fc378daa952ba7f163c4a11628f55a4df523b3ef9060200160405180910390a3505050565b6060611186848460008585843b6151945760405162461bcd60e51b815260206004820152601d60248201527f416464726573733a2063616c6c20746f206e6f6e2d636f6e74726163740000006044820152606401610e03565b600080866001600160a01b031685876040516151b09190615603565b60006040518083038185875af1925050503d80600081146151ed576040519150601f19603f3d011682016040523d82523d6000602084013e6151f2565b606091505b509150915061520282828661520d565b979650505050505050565b6060831561521c575081610e1f565b82511561522c5782518084602001fd5b8160405162461bcd60e51b8152600401610e03919061561f565b82805461525290615b9c565b90600052602060002090601f01602090048101928261527457600085556152ba565b82601f1061528d57805160ff19168380011785556152ba565b828001600101855582156152ba579182015b828111156152ba57825182559160200191906001019061529f565b506152c69291506152ca565b5090565b5b808211156152c657600081556001016152cb565b80356152ea81615d6a565b919050565b803563ffffffff811681146152ea57600080fd5b600060208284031215615314578081fd5b8135610e1f81615d6a565b60008060408385031215615331578081fd5b823561533c81615d6a565b9150602083013561534c81615d6a565b809150509250929050565b60008060006060848603121561536b578081fd5b833561537681615d6a565b9250602084013561538681615d6a565b929592945050506040919091013590565b600080604083850312156153a9578182fd5b82356153b481615d6a565b946020939093013593505050565b600080600080608085870312156153d7578081fd5b84516153e281615d6a565b60208601516040870151606090970151919890975090945092505050565b600060208284031215615411578081fd5b8151610e1f81615d7f565b60006020828403121561542d578081fd5b5051919050565b60008082840360e0811215615447578283fd5b833567ffffffffffffffff81111561545d578384fd5b84016101c0818703121561546f578384fd5b925060c0601f1982011215615482578182fd5b506020830190509250929050565b6000602082840312156154a1578081fd5b81356001600160801b0381168114610e1f578182fd5b6000602082840312156154c8578081fd5b5035919050565b600080600080600060a086880312156154e6578283fd5b5050835160208501516040860151606087015160809097015192989197509594509092509050565b60006020828403121561551f578081fd5b610e1f826152ef565b600060208284031215615539578081fd5b8151610e1f81615db7565b81835281816020850137506000828201602090810191909152601f909101601f19169091010190565b803561557881615d7f565b15158252602081013561558a81615db7565b60ff16602083015260408101356155a081615d6a565b6001600160a01b0390811660408401526060820135906155bf82615d6a565b16606083015260808101356155d381615da2565b66ffffffffffffff16608083015260a08101356155ef81615d8d565b6001600160681b03811660a0840152505050565b60008251615615818460208701615b70565b9190910192915050565b602081526000825180602084015261563e816040850160208701615b70565b601f01601f19169190910160400192915050565b60208082526007908201526610b5b2b2b832b960c91b604082015260600190565b6020808252602e908201527f496e697469616c697a61626c653a20636f6e747261637420697320616c72656160408201526d191e481a5b9a5d1a585b1a5e995960921b606082015260800190565b6020808252818101527f4f776e61626c653a2063616c6c6572206973206e6f7420746865206f776e6572604082015260600190565b6020808252601b908201527f4d696e696d756d206465706f736974206e6f7420726561636865640000000000604082015260600190565b6020808252601f908201527f5265656e7472616e637947756172643a207265656e7472616e742063616c6c00604082015260600190565b600061010080835261578881840161577b886152df565b6001600160a01b03169052565b615794602087016152df565b6101206157ab818601836001600160a01b03169052565b6157b7604089016152df565b91506101406157d0818701846001600160a01b03169052565b610160925060608901358387015261018060808a0135818801526157f760a08b018b6159bb565b6101c06101a081818c01526158116102c08c018486615544565b935061582060c08f018f6159bb565b8c860360ff1901848e01529350615838858583615544565b94505061584760e08f016152df565b6001600160a01b0381166101e08d01529250615864898f016152df565b6001600160a01b0381166102008d01529850615881878f016152ef565b63ffffffff166102208c0152948d01356102408b01525050938a01356102608801528901356102808701528801356102a08601525091506158c79050602083018561556d565b8260e0830152949350505050565b600060808201868352602060808185015281875180845260a0860191508289019350845b81811015615915578451835293830193918301916001016158f9565b5050848103604086015286548082528785528285209183019350845b818110156159565782546001600160a01b031685529383019360019283019201615931565b50505061ffff8516606085015250905095945050505050565b6000808335601e19843603018112615985578283fd5b83018035915067ffffffffffffffff82111561599f578283fd5b6020019150368190038213156159b457600080fd5b9250929050565b6000808335601e198436030181126159d1578283fd5b830160208101925035905067ffffffffffffffff8111156159f157600080fd5b8036038313156159b457600080fd5b60008219821115615a1357615a13615c06565b500190565b600082615a2757615a27615c1c565b500490565b600181815b80851115615a67578160001904821115615a4d57615a4d615c06565b80851615615a5a57918102915b93841c9390800290615a31565b509250929050565b6000610e1f8383600082615a8557506001610d6f565b81615a9257506000610d6f565b8160018114615aa85760028114615ab257615ace565b6001915050610d6f565b60ff841115615ac357615ac3615c06565b50506001821b610d6f565b5060208310610133831016604e8410600b8410161715615af1575081810a610d6f565b615afb8383615a2c565b8060001904821115615b0f57615b0f615c06565b029392505050565b6000816000190483118215151615615b3157615b31615c06565b500290565b600061ffff83811690831681811015615b5157615b51615c06565b039392505050565b600082821015615b6b57615b6b615c06565b500390565b60005b83811015615b8b578181015183820152602001615b73565b838111156140a95750506000910152565b600181811c90821680615bb057607f821691505b60208210811415615bd157634e487b7160e01b600052602260045260246000fd5b50919050565b6000600019821415615beb57615beb615c06565b5060010190565b600082615c0157615c01615c1c565b500690565b634e487b7160e01b600052601160045260246000fd5b634e487b7160e01b600052601260045260246000fd5b60008135610d6f81615d6a565b60008135610d6f81615d8d565b60008135610d6f81615da2565b8135615c6481615d7f565b815460ff19811691151560ff1691821783556020840135615c8481615db7565b61ff008160081b169050808361ffff198416171784556040850135615ca881615d6a565b6001600160b01b0319929092169092179190911760109190911b62010000600160b01b031617815560018101615d00615ce360608501615c32565b82546001600160a01b0319166001600160a01b0391909116178255565b615d39615d0f60808501615c4c565b82805466ffffffffffffff60a01b191660a09290921b66ffffffffffffff60a01b16919091179055565b50613bb3615d4960a08401615c3f565b600283016001600160681b0382166001600160681b03198254161781555050565b6001600160a01b0381168114612c2657600080fd5b8015158114612c2657600080fd5b6001600160681b0381168114612c2657600080fd5b66ffffffffffffff81168114612c2657600080fd5b60ff81168114612c2657600080fdfea264697066735822122042ddfeefb1741c8992492e73209bde0a15bc72e6187d94790bab5c9d4fbac16f64736f6c63430008040033",
  "libraries": {
    "VaultLifecycleTreasuryBare": "0xB4a1b54141cE6C70b40527CeBd6F00fF70d94eEf"
  },
  "devdoc": {
    "kind": "dev",
    "methods": {
      "accountVaultBalance(address)": {
        "params": {
          "account": "is the address to lookup balance for"
        },
        "returns": {
          "_0": "the amount of `asset` custodied by the vault for the user"
        }
      },
      "allowance(address,address)": {
        "details": "See {IERC20-allowance}."
      },
      "approve(address,uint256)": {
        "details": "See {IERC20-approve}. Requirements: - `spender` cannot be the zero address."
      },
      "balanceOf(address)": {
        "details": "See {IERC20-balanceOf}."
      },
      "constructor": {
        "params": {
          "_gammaController": "is the contract address for opyn actions",
          "_gnosisEasyAuction": "is the contract address that facilitates gnosis auctions",
          "_marginPool": "is the contract address for providing collateral to opyn",
          "_oTokenFactory": "is the contract address for minting new opyn option types (strikes, asset, expiry)",
          "_usdc": "is the USDC contract",
          "_weth": "is the Wrapped Ether contract"
        }
      },
      "decreaseAllowance(address,uint256)": {
        "details": "Atomically decreases the allowance granted to `spender` by the caller. This is an alternative to {approve} that can be used as a mitigation for problems described in {IERC20-approve}. Emits an {Approval} event indicating the updated allowance. Requirements: - `spender` cannot be the zero address. - `spender` must have allowance for the caller of at least `subtractedValue`."
      },
      "deposit(uint256)": {
        "params": {
          "amount": "is the amount of `asset` to deposit"
        }
      },
      "increaseAllowance(address,uint256)": {
        "details": "Atomically increases the allowance granted to `spender` by the caller. This is an alternative to {approve} that can be used as a mitigation for problems described in {IERC20-approve}. Emits an {Approval} event indicating the updated allowance. Requirements: - `spender` cannot be the zero address."
      },
      "initiateWithdraw(uint256)": {
        "params": {
          "numShares": "is the number of shares to withdraw"
        }
      },
      "name()": {
        "details": "Returns the name of the token."
      },
      "owner()": {
        "details": "Returns the address of the current owner."
      },
      "redeem(uint256)": {
        "params": {
          "numShares": "is the number of shares to redeem"
        }
      },
      "renounceOwnership()": {
        "details": "Leaves the contract without owner. It will not be possible to call `onlyOwner` functions anymore. Can only be called by the current owner. NOTE: Renouncing ownership will leave the contract without an owner, thereby removing any functionality that is only available to the owner."
      },
      "setAuctionDuration(uint256)": {
        "params": {
          "newAuctionDuration": "is the auction duration"
        }
      },
      "setCap(uint256)": {
        "params": {
          "newCap": "is the new cap for deposits"
        }
      },
      "setFeeRecipient(address)": {
        "params": {
          "newFeeRecipient": "is the address of the new fee recipient"
        }
      },
      "setManagementFee(uint256)": {
        "params": {
          "newManagementFee": "is the management fee (6 decimals). ex: 2 * 10 ** 6 = 2%"
        }
      },
      "setMaxDepositors(uint256)": {
        "params": {
          "newMaxDepositors": "is the new cap for number of depositors"
        }
      },
      "setMinDeposit(uint256)": {
        "params": {
          "newMinDeposit": "is the new minimum amount for deposit"
        }
      },
      "setNewKeeper(address)": {
        "params": {
          "newKeeper": "is the address of the new keeper"
        }
      },
      "setOptionsPremiumPricer(address)": {
        "params": {
          "newOptionsPremiumPricer": "is the address of the new strike selection contract"
        }
      },
      "setPerformanceFee(uint256)": {
        "params": {
          "newPerformanceFee": "is the performance fee (6 decimals). ex: 20 * 10 ** 6 = 20%"
        }
      },
      "setPremiumDiscount(uint256)": {
        "params": {
          "newPremiumDiscount": "is the premium discount"
        }
      },
      "setStrikePrice(uint128)": {
        "params": {
          "strikePrice": "is the strike price of the new oTokens (decimals = 8)"
        }
      },
      "setStrikeSelection(address)": {
        "params": {
          "newStrikeSelection": "is the address of the new strike selection contract"
        }
      },
      "shareBalances(address)": {
        "params": {
          "account": "is the account to lookup share balance for"
        },
        "returns": {
          "heldByAccount": "is the shares held by account",
          "heldByVault": "is the shares held on the vault (unredeemedShares)"
        }
      },
      "shares(address)": {
        "params": {
          "account": "is the account to lookup share balance for"
        },
        "returns": {
          "_0": "the share balance"
        }
      },
      "symbol()": {
        "details": "Returns the symbol of the token, usually a shorter version of the name."
      },
      "totalBalance()": {
        "returns": {
          "_0": "total balance of the vault, including the amounts locked in third party protocols"
        }
      },
      "totalSupply()": {
        "details": "See {IERC20-totalSupply}."
      },
      "transfer(address,uint256)": {
        "details": "See {IERC20-transfer}. Requirements: - `recipient` cannot be the zero address. - the caller must have a balance of at least `amount`."
      },
      "transferFrom(address,address,uint256)": {
        "details": "See {IERC20-transferFrom}. Emits an {Approval} event indicating the updated allowance. This is not required by the EIP. See the note at the beginning of {ERC20}. Requirements: - `sender` and `recipient` cannot be the zero address. - `sender` must have a balance of at least `amount`. - the caller must have allowance for ``sender``'s tokens of at least `amount`."
      },
      "transferOwnership(address)": {
        "details": "Transfers ownership of the contract to a new account (`newOwner`). Can only be called by the current owner."
      },
      "withdrawInstantly(uint256)": {
        "params": {
          "amount": "is the amount to withdraw"
        }
      }
    },
    "version": 1
  },
  "userdoc": {
    "kind": "user",
    "methods": {
      "DELAY()": {
        "notice": "15 minute timelock between commitAndClose and rollToNexOption."
      },
      "OTOKEN_FACTORY()": {
        "notice": "OTOKEN_FACTORY is the factory contract used to spawn otokens. Used to lookup otokens."
      },
      "USDC()": {
        "notice": "USDC 0xA0b86991c6218b36c1d19D4a2e9Eb0cE3606eB48"
      },
      "WETH()": {
        "notice": "WETH9 0xC02aaA39b223FE8D0A0e5C4F27eAD9083C756Cc2"
      },
      "accountVaultBalance(address)": {
        "notice": "Returns the asset balance held on the vault for the account"
      },
      "auctionDuration()": {
        "notice": "Auction duration"
      },
      "burnRemainingOTokens()": {
        "notice": "Burn the remaining oTokens left over from gnosis auction."
      },
      "cap()": {
        "notice": "Returns the maximum capacity of the vault in terms of the vault's asset"
      },
      "chargeAndDistribute()": {
        "notice": "Charge performance fee and distribute remaining to depositors addresses"
      },
      "commitAndClose()": {
        "notice": "Sets the next option the vault will be shorting, and closes the existing short.         This allows all the users to withdraw if the next option is malicious."
      },
      "completeWithdraw()": {
        "notice": "Completes a scheduled withdrawal from a past round. Uses finalized pps for the round"
      },
      "concludeOptionsSale()": {
        "notice": "Settles the round's Gnosis auction and distribute the premiums earned"
      },
      "constructor": {
        "notice": "Initializes the contract with immutable variables"
      },
      "currentOption()": {
        "notice": "Returns the options specification for the current round"
      },
      "currentOtokenPremium()": {
        "notice": "Current oToken premium"
      },
      "decimals()": {
        "notice": "Returns the token decimals"
      },
      "deposit(uint256)": {
        "notice": "Deposits the `asset` from msg.sender."
      },
      "depositReceipts(address)": {
        "notice": "Stores the user's pending deposit for the round"
      },
      "depositorsArray(uint256)": {
        "notice": "Array of depositors in the vault"
      },
      "depositorsMap(address)": {
        "notice": "Mapping of depositors in the vault"
      },
      "feeRecipient()": {
        "notice": "Fee recipient for the performance and management fees"
      },
      "initialize((address,address,address,uint256,uint256,string,string,address,address,uint32,uint256,uint256,uint256,uint256),(bool,uint8,address,address,uint56,uint104))": {
        "notice": "Initializes the OptionVault contract with storage variables."
      },
      "initiateWithdraw(uint256)": {
        "notice": "Initiates a withdrawal that can be processed once the round completes"
      },
      "keeper()": {
        "notice": "role in charge of weekly vault operations such as rollToNextOption and burnRemainingOTokens"
      },
      "lastQueuedWithdrawAmount()": {
        "notice": "Amount locked for scheduled withdrawals last week;"
      },
      "lastStrikeOverrideRound()": {
        "notice": "Last round id at which the strike was manually overridden"
      },
      "managementFee()": {
        "notice": "Management fee charged on entire AUM in rollToNextOption. Only charged when there is no loss."
      },
      "maxDepositors()": {
        "notice": "Maximum number of depositors"
      },
      "maxRedeem()": {
        "notice": "Redeems the entire unredeemedShares balance that is owed to the account"
      },
      "minDeposit()": {
        "notice": "Minimum amount to deposit"
      },
      "nextOption()": {
        "notice": "Returns the options specification for the next round"
      },
      "nextOptionReadyAt()": {
        "notice": "Returns the date and time for the next options sale"
      },
      "optionAuctionID()": {
        "notice": "Auction id of current option"
      },
      "optionState()": {
        "notice": "Vault's state of the options sold and the timelocked option"
      },
      "optionsPremiumPricer()": {
        "notice": "Logic contract used to price options"
      },
      "overriddenStrikePrice()": {
        "notice": "Price last overridden strike set to"
      },
      "performanceFee()": {
        "notice": "Performance fee charged on premiums earned in rollToNextOption. Only charged when there is no loss."
      },
      "period()": {
        "notice": "Period between each options sale. Available options 7 (weekly), 14 (biweekly), 30 (monthly), 90 (quarterly), 180 (biannually)"
      },
      "premiumDiscount()": {
        "notice": "Premium discount on options we are selling (thousandths place: 000 - 999)"
      },
      "pricePerShare()": {
        "notice": "The price of a unit of share denominated in the `asset`"
      },
      "redeem(uint256)": {
        "notice": "Redeems shares that are owed to the account"
      },
      "rollToNextOption()": {
        "notice": "Rolls the vault's funds into a new short position."
      },
      "roundPricePerShare(uint256)": {
        "notice": "On every round's close, the pricePerShare value of an rTHETA token is stored This is used to determine the number of shares to be returned to a user with their DepositReceipt.depositAmount"
      },
      "setAuctionDuration(uint256)": {
        "notice": "Sets the new auction duration"
      },
      "setCap(uint256)": {
        "notice": "Sets a new cap for deposits"
      },
      "setFeeRecipient(address)": {
        "notice": "Sets the new fee recipient"
      },
      "setManagementFee(uint256)": {
        "notice": "Sets the management fee for the vault"
      },
      "setMaxDepositors(uint256)": {
        "notice": "Set the maximum number of depositors"
      },
      "setMinDeposit(uint256)": {
        "notice": "Set the minimum deposit amount"
      },
      "setNewKeeper(address)": {
        "notice": "Sets the new keeper"
      },
      "setOptionsPremiumPricer(address)": {
        "notice": "Sets the new options premium pricer contract"
      },
      "setPerformanceFee(uint256)": {
        "notice": "Sets the performance fee for the vault"
      },
      "setPremiumDiscount(uint256)": {
        "notice": "Sets the new discount on premiums for options we are selling"
      },
      "setStrikePrice(uint128)": {
        "notice": "Optionality to set strike price manually"
      },
      "setStrikeSelection(address)": {
        "notice": "Sets the new strike selection contract"
      },
      "shareBalances(address)": {
        "notice": "Getter for returning the account's share balance split between account and vault holdings"
      },
      "shares(address)": {
        "notice": "Getter for returning the account's share balance including unredeemed shares"
      },
      "startAuction()": {
        "notice": "Initiate the gnosis auction."
      },
      "strikeSelection()": {
        "notice": "Logic contract used to select strike prices"
      },
      "totalBalance()": {
        "notice": "Returns the vault's total balance, including the amounts locked into a short position"
      },
      "totalPending()": {
        "notice": "Returns total pending deposit for the current round"
      },
      "vaultParams()": {
        "notice": "Vault's parameters like cap, decimals"
      },
      "vaultState()": {
        "notice": "Vault's lifecycle state like round and locked amounts"
      },
      "withdrawInstantly(uint256)": {
        "notice": "Withdraws the assets on the vault using the outstanding `DepositReceipt.amount`"
      },
      "withdrawals(address)": {
        "notice": "Stores pending user withdrawals"
      }
    },
    "version": 1
  },
  "storageLayout": {
    "storage": [
      {
        "astId": 176,
        "contract": "contracts/vaults/TreasuryVault/RibbonTreasuryVault.sol:RibbonTreasuryVault",
        "label": "_initialized",
        "offset": 0,
        "slot": "0",
        "type": "t_bool"
      },
      {
        "astId": 179,
        "contract": "contracts/vaults/TreasuryVault/RibbonTreasuryVault.sol:RibbonTreasuryVault",
        "label": "_initializing",
        "offset": 1,
        "slot": "0",
        "type": "t_bool"
      },
      {
        "astId": 230,
        "contract": "contracts/vaults/TreasuryVault/RibbonTreasuryVault.sol:RibbonTreasuryVault",
        "label": "_status",
        "offset": 0,
        "slot": "1",
        "type": "t_uint256"
      },
      {
        "astId": 273,
        "contract": "contracts/vaults/TreasuryVault/RibbonTreasuryVault.sol:RibbonTreasuryVault",
        "label": "__gap",
        "offset": 0,
        "slot": "2",
        "type": "t_array(t_uint256)49_storage"
      },
      {
        "astId": 993,
        "contract": "contracts/vaults/TreasuryVault/RibbonTreasuryVault.sol:RibbonTreasuryVault",
        "label": "__gap",
        "offset": 0,
        "slot": "51",
        "type": "t_array(t_uint256)50_storage"
      },
      {
        "astId": 56,
        "contract": "contracts/vaults/TreasuryVault/RibbonTreasuryVault.sol:RibbonTreasuryVault",
        "label": "_owner",
        "offset": 0,
        "slot": "101",
        "type": "t_address"
      },
      {
        "astId": 169,
        "contract": "contracts/vaults/TreasuryVault/RibbonTreasuryVault.sol:RibbonTreasuryVault",
        "label": "__gap",
        "offset": 0,
        "slot": "102",
        "type": "t_array(t_uint256)49_storage"
      },
      {
        "astId": 293,
        "contract": "contracts/vaults/TreasuryVault/RibbonTreasuryVault.sol:RibbonTreasuryVault",
        "label": "_balances",
        "offset": 0,
        "slot": "151",
        "type": "t_mapping(t_address,t_uint256)"
      },
      {
        "astId": 299,
        "contract": "contracts/vaults/TreasuryVault/RibbonTreasuryVault.sol:RibbonTreasuryVault",
        "label": "_allowances",
        "offset": 0,
        "slot": "152",
        "type": "t_mapping(t_address,t_mapping(t_address,t_uint256))"
      },
      {
        "astId": 301,
        "contract": "contracts/vaults/TreasuryVault/RibbonTreasuryVault.sol:RibbonTreasuryVault",
        "label": "_totalSupply",
        "offset": 0,
        "slot": "153",
        "type": "t_uint256"
      },
      {
        "astId": 303,
        "contract": "contracts/vaults/TreasuryVault/RibbonTreasuryVault.sol:RibbonTreasuryVault",
        "label": "_name",
        "offset": 0,
        "slot": "154",
        "type": "t_string_storage"
      },
      {
        "astId": 305,
        "contract": "contracts/vaults/TreasuryVault/RibbonTreasuryVault.sol:RibbonTreasuryVault",
        "label": "_symbol",
        "offset": 0,
        "slot": "155",
        "type": "t_string_storage"
      },
      {
        "astId": 846,
        "contract": "contracts/vaults/TreasuryVault/RibbonTreasuryVault.sol:RibbonTreasuryVault",
        "label": "__gap",
        "offset": 0,
        "slot": "156",
        "type": "t_array(t_uint256)45_storage"
      },
      {
        "astId": 16162,
        "contract": "contracts/vaults/TreasuryVault/RibbonTreasuryVault.sol:RibbonTreasuryVault",
        "label": "vaultParams",
        "offset": 0,
        "slot": "201",
        "type": "t_struct(VaultParams)6582_storage"
      },
      {
        "astId": 16166,
        "contract": "contracts/vaults/TreasuryVault/RibbonTreasuryVault.sol:RibbonTreasuryVault",
        "label": "vaultState",
        "offset": 0,
        "slot": "204",
        "type": "t_struct(VaultState)6600_storage"
      },
      {
        "astId": 16170,
        "contract": "contracts/vaults/TreasuryVault/RibbonTreasuryVault.sol:RibbonTreasuryVault",
        "label": "optionState",
        "offset": 0,
        "slot": "206",
        "type": "t_struct(OptionState)6589_storage"
      },
      {
        "astId": 16176,
        "contract": "contracts/vaults/TreasuryVault/RibbonTreasuryVault.sol:RibbonTreasuryVault",
        "label": "depositReceipts",
        "offset": 0,
        "slot": "208",
        "type": "t_mapping(t_address,t_struct(DepositReceipt)6607_storage)"
      },
      {
        "astId": 16181,
        "contract": "contracts/vaults/TreasuryVault/RibbonTreasuryVault.sol:RibbonTreasuryVault",
        "label": "roundPricePerShare",
        "offset": 0,
        "slot": "209",
        "type": "t_mapping(t_uint256,t_uint256)"
      },
      {
        "astId": 16187,
        "contract": "contracts/vaults/TreasuryVault/RibbonTreasuryVault.sol:RibbonTreasuryVault",
        "label": "withdrawals",
        "offset": 0,
        "slot": "210",
        "type": "t_mapping(t_address,t_struct(Withdrawal)6612_storage)"
      },
      {
        "astId": 16192,
        "contract": "contracts/vaults/TreasuryVault/RibbonTreasuryVault.sol:RibbonTreasuryVault",
        "label": "depositorsMap",
        "offset": 0,
        "slot": "211",
        "type": "t_mapping(t_address,t_bool)"
      },
      {
        "astId": 16196,
        "contract": "contracts/vaults/TreasuryVault/RibbonTreasuryVault.sol:RibbonTreasuryVault",
        "label": "depositorsArray",
        "offset": 0,
        "slot": "212",
        "type": "t_array(t_address)dyn_storage"
      },
      {
        "astId": 16199,
        "contract": "contracts/vaults/TreasuryVault/RibbonTreasuryVault.sol:RibbonTreasuryVault",
        "label": "feeRecipient",
        "offset": 0,
        "slot": "213",
        "type": "t_address"
      },
      {
        "astId": 16202,
        "contract": "contracts/vaults/TreasuryVault/RibbonTreasuryVault.sol:RibbonTreasuryVault",
        "label": "keeper",
        "offset": 0,
        "slot": "214",
        "type": "t_address"
      },
      {
        "astId": 16205,
        "contract": "contracts/vaults/TreasuryVault/RibbonTreasuryVault.sol:RibbonTreasuryVault",
        "label": "optionsPremiumPricer",
        "offset": 0,
        "slot": "215",
        "type": "t_address"
      },
      {
        "astId": 16208,
        "contract": "contracts/vaults/TreasuryVault/RibbonTreasuryVault.sol:RibbonTreasuryVault",
        "label": "strikeSelection",
        "offset": 0,
        "slot": "216",
        "type": "t_address"
      },
      {
        "astId": 16211,
        "contract": "contracts/vaults/TreasuryVault/RibbonTreasuryVault.sol:RibbonTreasuryVault",
        "label": "performanceFee",
        "offset": 0,
        "slot": "217",
        "type": "t_uint256"
      },
      {
        "astId": 16214,
        "contract": "contracts/vaults/TreasuryVault/RibbonTreasuryVault.sol:RibbonTreasuryVault",
        "label": "managementFee",
        "offset": 0,
        "slot": "218",
        "type": "t_uint256"
      },
      {
        "astId": 16217,
        "contract": "contracts/vaults/TreasuryVault/RibbonTreasuryVault.sol:RibbonTreasuryVault",
        "label": "premiumDiscount",
        "offset": 0,
        "slot": "219",
        "type": "t_uint256"
      },
      {
        "astId": 16220,
        "contract": "contracts/vaults/TreasuryVault/RibbonTreasuryVault.sol:RibbonTreasuryVault",
        "label": "currentOtokenPremium",
        "offset": 0,
        "slot": "220",
        "type": "t_uint256"
      },
      {
        "astId": 16223,
        "contract": "contracts/vaults/TreasuryVault/RibbonTreasuryVault.sol:RibbonTreasuryVault",
        "label": "overriddenStrikePrice",
        "offset": 0,
        "slot": "221",
        "type": "t_uint256"
      },
      {
        "astId": 16226,
        "contract": "contracts/vaults/TreasuryVault/RibbonTreasuryVault.sol:RibbonTreasuryVault",
        "label": "auctionDuration",
        "offset": 0,
        "slot": "222",
        "type": "t_uint256"
      },
      {
        "astId": 16229,
        "contract": "contracts/vaults/TreasuryVault/RibbonTreasuryVault.sol:RibbonTreasuryVault",
        "label": "optionAuctionID",
        "offset": 0,
        "slot": "223",
        "type": "t_uint256"
      },
      {
        "astId": 16232,
        "contract": "contracts/vaults/TreasuryVault/RibbonTreasuryVault.sol:RibbonTreasuryVault",
        "label": "lastQueuedWithdrawAmount",
        "offset": 0,
        "slot": "224",
        "type": "t_uint256"
      },
      {
        "astId": 16235,
        "contract": "contracts/vaults/TreasuryVault/RibbonTreasuryVault.sol:RibbonTreasuryVault",
        "label": "period",
        "offset": 0,
        "slot": "225",
        "type": "t_uint256"
      },
      {
        "astId": 16238,
        "contract": "contracts/vaults/TreasuryVault/RibbonTreasuryVault.sol:RibbonTreasuryVault",
        "label": "maxDepositors",
        "offset": 0,
        "slot": "226",
        "type": "t_uint256"
      },
      {
        "astId": 16241,
        "contract": "contracts/vaults/TreasuryVault/RibbonTreasuryVault.sol:RibbonTreasuryVault",
        "label": "minDeposit",
        "offset": 0,
        "slot": "227",
        "type": "t_uint256"
      },
      {
        "astId": 16244,
        "contract": "contracts/vaults/TreasuryVault/RibbonTreasuryVault.sol:RibbonTreasuryVault",
        "label": "lastStrikeOverrideRound",
        "offset": 0,
        "slot": "228",
        "type": "t_uint16"
      }
    ],
    "types": {
      "t_address": {
        "encoding": "inplace",
        "label": "address",
        "numberOfBytes": "20"
      },
      "t_array(t_address)dyn_storage": {
        "base": "t_address",
        "encoding": "dynamic_array",
        "label": "address[]",
        "numberOfBytes": "32"
      },
      "t_array(t_uint256)45_storage": {
        "base": "t_uint256",
        "encoding": "inplace",
        "label": "uint256[45]",
        "numberOfBytes": "1440"
      },
      "t_array(t_uint256)49_storage": {
        "base": "t_uint256",
        "encoding": "inplace",
        "label": "uint256[49]",
        "numberOfBytes": "1568"
      },
      "t_array(t_uint256)50_storage": {
        "base": "t_uint256",
        "encoding": "inplace",
        "label": "uint256[50]",
        "numberOfBytes": "1600"
      },
      "t_bool": {
        "encoding": "inplace",
        "label": "bool",
        "numberOfBytes": "1"
      },
      "t_mapping(t_address,t_bool)": {
        "encoding": "mapping",
        "key": "t_address",
        "label": "mapping(address => bool)",
        "numberOfBytes": "32",
        "value": "t_bool"
      },
      "t_mapping(t_address,t_mapping(t_address,t_uint256))": {
        "encoding": "mapping",
        "key": "t_address",
        "label": "mapping(address => mapping(address => uint256))",
        "numberOfBytes": "32",
        "value": "t_mapping(t_address,t_uint256)"
      },
      "t_mapping(t_address,t_struct(DepositReceipt)6607_storage)": {
        "encoding": "mapping",
        "key": "t_address",
        "label": "mapping(address => struct Vault.DepositReceipt)",
        "numberOfBytes": "32",
        "value": "t_struct(DepositReceipt)6607_storage"
      },
      "t_mapping(t_address,t_struct(Withdrawal)6612_storage)": {
        "encoding": "mapping",
        "key": "t_address",
        "label": "mapping(address => struct Vault.Withdrawal)",
        "numberOfBytes": "32",
        "value": "t_struct(Withdrawal)6612_storage"
      },
      "t_mapping(t_address,t_uint256)": {
        "encoding": "mapping",
        "key": "t_address",
        "label": "mapping(address => uint256)",
        "numberOfBytes": "32",
        "value": "t_uint256"
      },
      "t_mapping(t_uint256,t_uint256)": {
        "encoding": "mapping",
        "key": "t_uint256",
        "label": "mapping(uint256 => uint256)",
        "numberOfBytes": "32",
        "value": "t_uint256"
      },
      "t_string_storage": {
        "encoding": "bytes",
        "label": "string",
        "numberOfBytes": "32"
      },
      "t_struct(DepositReceipt)6607_storage": {
        "encoding": "inplace",
        "label": "struct Vault.DepositReceipt",
        "members": [
          {
            "astId": 6602,
            "contract": "contracts/vaults/TreasuryVault/RibbonTreasuryVault.sol:RibbonTreasuryVault",
            "label": "round",
            "offset": 0,
            "slot": "0",
            "type": "t_uint16"
          },
          {
            "astId": 6604,
            "contract": "contracts/vaults/TreasuryVault/RibbonTreasuryVault.sol:RibbonTreasuryVault",
            "label": "amount",
            "offset": 2,
            "slot": "0",
            "type": "t_uint104"
          },
          {
            "astId": 6606,
            "contract": "contracts/vaults/TreasuryVault/RibbonTreasuryVault.sol:RibbonTreasuryVault",
            "label": "unredeemedShares",
            "offset": 15,
            "slot": "0",
            "type": "t_uint128"
          }
        ],
        "numberOfBytes": "32"
      },
      "t_struct(OptionState)6589_storage": {
        "encoding": "inplace",
        "label": "struct Vault.OptionState",
        "members": [
          {
            "astId": 6584,
            "contract": "contracts/vaults/TreasuryVault/RibbonTreasuryVault.sol:RibbonTreasuryVault",
            "label": "nextOption",
            "offset": 0,
            "slot": "0",
            "type": "t_address"
          },
          {
            "astId": 6586,
            "contract": "contracts/vaults/TreasuryVault/RibbonTreasuryVault.sol:RibbonTreasuryVault",
            "label": "currentOption",
            "offset": 0,
            "slot": "1",
            "type": "t_address"
          },
          {
            "astId": 6588,
            "contract": "contracts/vaults/TreasuryVault/RibbonTreasuryVault.sol:RibbonTreasuryVault",
            "label": "nextOptionReadyAt",
            "offset": 20,
            "slot": "1",
            "type": "t_uint32"
          }
        ],
        "numberOfBytes": "64"
      },
      "t_struct(VaultParams)6582_storage": {
        "encoding": "inplace",
        "label": "struct Vault.VaultParams",
        "members": [
          {
            "astId": 6571,
            "contract": "contracts/vaults/TreasuryVault/RibbonTreasuryVault.sol:RibbonTreasuryVault",
            "label": "isPut",
            "offset": 0,
            "slot": "0",
            "type": "t_bool"
          },
          {
            "astId": 6573,
            "contract": "contracts/vaults/TreasuryVault/RibbonTreasuryVault.sol:RibbonTreasuryVault",
            "label": "decimals",
            "offset": 1,
            "slot": "0",
            "type": "t_uint8"
          },
          {
            "astId": 6575,
            "contract": "contracts/vaults/TreasuryVault/RibbonTreasuryVault.sol:RibbonTreasuryVault",
            "label": "asset",
            "offset": 2,
            "slot": "0",
            "type": "t_address"
          },
          {
            "astId": 6577,
            "contract": "contracts/vaults/TreasuryVault/RibbonTreasuryVault.sol:RibbonTreasuryVault",
            "label": "underlying",
            "offset": 0,
            "slot": "1",
            "type": "t_address"
          },
          {
            "astId": 6579,
            "contract": "contracts/vaults/TreasuryVault/RibbonTreasuryVault.sol:RibbonTreasuryVault",
            "label": "minimumSupply",
            "offset": 20,
            "slot": "1",
            "type": "t_uint56"
          },
          {
            "astId": 6581,
            "contract": "contracts/vaults/TreasuryVault/RibbonTreasuryVault.sol:RibbonTreasuryVault",
            "label": "cap",
            "offset": 0,
            "slot": "2",
            "type": "t_uint104"
          }
        ],
        "numberOfBytes": "96"
      },
      "t_struct(VaultState)6600_storage": {
        "encoding": "inplace",
        "label": "struct Vault.VaultState",
        "members": [
          {
            "astId": 6591,
            "contract": "contracts/vaults/TreasuryVault/RibbonTreasuryVault.sol:RibbonTreasuryVault",
            "label": "round",
            "offset": 0,
            "slot": "0",
            "type": "t_uint16"
          },
          {
            "astId": 6593,
            "contract": "contracts/vaults/TreasuryVault/RibbonTreasuryVault.sol:RibbonTreasuryVault",
            "label": "lockedAmount",
            "offset": 2,
            "slot": "0",
            "type": "t_uint104"
          },
          {
            "astId": 6595,
            "contract": "contracts/vaults/TreasuryVault/RibbonTreasuryVault.sol:RibbonTreasuryVault",
            "label": "lastLockedAmount",
            "offset": 15,
            "slot": "0",
            "type": "t_uint104"
          },
          {
            "astId": 6597,
            "contract": "contracts/vaults/TreasuryVault/RibbonTreasuryVault.sol:RibbonTreasuryVault",
            "label": "totalPending",
            "offset": 0,
            "slot": "1",
            "type": "t_uint128"
          },
          {
            "astId": 6599,
            "contract": "contracts/vaults/TreasuryVault/RibbonTreasuryVault.sol:RibbonTreasuryVault",
            "label": "queuedWithdrawShares",
            "offset": 16,
            "slot": "1",
            "type": "t_uint128"
          }
        ],
        "numberOfBytes": "64"
      },
      "t_struct(Withdrawal)6612_storage": {
        "encoding": "inplace",
        "label": "struct Vault.Withdrawal",
        "members": [
          {
            "astId": 6609,
            "contract": "contracts/vaults/TreasuryVault/RibbonTreasuryVault.sol:RibbonTreasuryVault",
            "label": "round",
            "offset": 0,
            "slot": "0",
            "type": "t_uint16"
          },
          {
            "astId": 6611,
            "contract": "contracts/vaults/TreasuryVault/RibbonTreasuryVault.sol:RibbonTreasuryVault",
            "label": "shares",
            "offset": 2,
            "slot": "0",
            "type": "t_uint128"
          }
        ],
        "numberOfBytes": "32"
      },
      "t_uint104": {
        "encoding": "inplace",
        "label": "uint104",
        "numberOfBytes": "13"
      },
      "t_uint128": {
        "encoding": "inplace",
        "label": "uint128",
        "numberOfBytes": "16"
      },
      "t_uint16": {
        "encoding": "inplace",
        "label": "uint16",
        "numberOfBytes": "2"
      },
      "t_uint256": {
        "encoding": "inplace",
        "label": "uint256",
        "numberOfBytes": "32"
      },
      "t_uint32": {
        "encoding": "inplace",
        "label": "uint32",
        "numberOfBytes": "4"
      },
      "t_uint56": {
        "encoding": "inplace",
        "label": "uint56",
        "numberOfBytes": "7"
      },
      "t_uint8": {
        "encoding": "inplace",
        "label": "uint8",
        "numberOfBytes": "1"
      }
    }
  }
}