{
  "address": "0xc92E6B70eB6456171d32C3B5904386c05EC983FF",
  "abi": [
    {
      "inputs": [
        {
          "internalType": "address",
          "name": "_weth",
          "type": "address"
        },
        {
          "internalType": "address",
          "name": "_usdc",
          "type": "address"
        },
        {
          "internalType": "address",
          "name": "_oTokenFactory",
          "type": "address"
        },
        {
          "internalType": "address",
          "name": "_gammaController",
          "type": "address"
        },
        {
          "internalType": "address",
          "name": "_marginPool",
          "type": "address"
        },
        {
          "internalType": "address",
          "name": "_gnosisEasyAuction",
          "type": "address"
        }
      ],
      "stateMutability": "nonpayable",
      "type": "constructor"
    },
    {
      "anonymous": false,
      "inputs": [
        {
          "indexed": true,
          "internalType": "address",
          "name": "owner",
          "type": "address"
        },
        {
          "indexed": true,
          "internalType": "address",
          "name": "spender",
          "type": "address"
        },
        {
          "indexed": false,
          "internalType": "uint256",
          "name": "value",
          "type": "uint256"
        }
      ],
      "name": "Approval",
      "type": "event"
    },
    {
      "anonymous": false,
      "inputs": [
        {
          "indexed": false,
          "internalType": "uint256",
          "name": "auctionDuration",
          "type": "uint256"
        },
        {
          "indexed": false,
          "internalType": "uint256",
          "name": "newAuctionDuration",
          "type": "uint256"
        }
      ],
      "name": "AuctionDurationSet",
      "type": "event"
    },
    {
      "anonymous": false,
      "inputs": [
        {
          "indexed": false,
          "internalType": "uint256",
          "name": "oldCap",
          "type": "uint256"
        },
        {
          "indexed": false,
          "internalType": "uint256",
          "name": "newCap",
          "type": "uint256"
        }
      ],
      "name": "CapSet",
      "type": "event"
    },
    {
      "anonymous": false,
      "inputs": [
        {
          "indexed": true,
          "internalType": "address",
          "name": "options",
          "type": "address"
        },
        {
          "indexed": false,
          "internalType": "uint256",
          "name": "withdrawAmount",
          "type": "uint256"
        },
        {
          "indexed": true,
          "internalType": "address",
          "name": "manager",
          "type": "address"
        }
      ],
      "name": "CloseShort",
      "type": "event"
    },
    {
      "anonymous": false,
      "inputs": [
        {
          "indexed": false,
          "internalType": "uint256",
          "name": "managementFee",
          "type": "uint256"
        },
        {
          "indexed": false,
          "internalType": "uint256",
          "name": "round",
          "type": "uint256"
        },
        {
          "indexed": true,
          "internalType": "address",
          "name": "feeRecipient",
          "type": "address"
        }
      ],
      "name": "CollectManagementFee",
      "type": "event"
    },
    {
      "anonymous": false,
      "inputs": [
        {
          "indexed": false,
          "internalType": "uint256",
          "name": "performanceFee",
          "type": "uint256"
        },
        {
          "indexed": false,
          "internalType": "uint256",
          "name": "round",
          "type": "uint256"
        },
        {
          "indexed": true,
          "internalType": "address",
          "name": "feeRecipient",
          "type": "address"
        }
      ],
      "name": "CollectPerformanceFee",
      "type": "event"
    },
    {
      "anonymous": false,
      "inputs": [
        {
          "indexed": true,
          "internalType": "address",
          "name": "account",
          "type": "address"
        },
        {
          "indexed": false,
          "internalType": "uint256",
          "name": "amount",
          "type": "uint256"
        },
        {
          "indexed": false,
          "internalType": "uint256",
          "name": "round",
          "type": "uint256"
        }
      ],
      "name": "Deposit",
      "type": "event"
    },
    {
      "anonymous": false,
      "inputs": [
        {
          "indexed": false,
          "internalType": "uint256",
          "name": "amount",
          "type": "uint256"
        },
        {
          "indexed": false,
          "internalType": "uint256[]",
          "name": "amounts",
          "type": "uint256[]"
        },
        {
          "indexed": false,
          "internalType": "address[]",
          "name": "recipients",
          "type": "address[]"
        },
        {
          "indexed": false,
          "internalType": "uint256",
          "name": "round",
          "type": "uint256"
        }
      ],
      "name": "DistributePremium",
      "type": "event"
    },
    {
      "anonymous": false,
      "inputs": [
        {
          "indexed": true,
          "internalType": "address",
          "name": "auctioningToken",
          "type": "address"
        },
        {
          "indexed": true,
          "internalType": "address",
          "name": "biddingToken",
          "type": "address"
        },
        {
          "indexed": false,
          "internalType": "uint256",
          "name": "auctionCounter",
          "type": "uint256"
        },
        {
          "indexed": true,
          "internalType": "address",
          "name": "manager",
          "type": "address"
        }
      ],
      "name": "InitiateGnosisAuction",
      "type": "event"
    },
    {
      "anonymous": false,
      "inputs": [
        {
          "indexed": true,
          "internalType": "address",
          "name": "account",
          "type": "address"
        },
        {
          "indexed": false,
          "internalType": "uint256",
          "name": "shares",
          "type": "uint256"
        },
        {
          "indexed": false,
          "internalType": "uint256",
          "name": "round",
          "type": "uint256"
        }
      ],
      "name": "InitiateWithdraw",
      "type": "event"
    },
    {
      "anonymous": false,
      "inputs": [
        {
          "indexed": true,
          "internalType": "address",
          "name": "account",
          "type": "address"
        },
        {
          "indexed": false,
          "internalType": "uint256",
          "name": "amount",
          "type": "uint256"
        },
        {
          "indexed": false,
          "internalType": "uint256",
          "name": "round",
          "type": "uint256"
        }
      ],
      "name": "InstantWithdraw",
      "type": "event"
    },
    {
      "anonymous": false,
      "inputs": [
        {
          "indexed": false,
          "internalType": "uint256",
          "name": "managementFee",
          "type": "uint256"
        },
        {
          "indexed": false,
          "internalType": "uint256",
          "name": "newManagementFee",
          "type": "uint256"
        }
      ],
      "name": "ManagementFeeSet",
      "type": "event"
    },
    {
      "anonymous": false,
      "inputs": [
        {
          "indexed": false,
          "internalType": "uint256",
          "name": "strikePrice",
          "type": "uint256"
        },
        {
          "indexed": false,
          "internalType": "uint256",
          "name": "delta",
          "type": "uint256"
        }
      ],
      "name": "NewOptionStrikeSelected",
      "type": "event"
    },
    {
      "anonymous": false,
      "inputs": [
        {
          "indexed": true,
          "internalType": "address",
          "name": "options",
          "type": "address"
        },
        {
          "indexed": false,
          "internalType": "uint256",
          "name": "depositAmount",
          "type": "uint256"
        },
        {
          "indexed": true,
          "internalType": "address",
          "name": "manager",
          "type": "address"
        }
      ],
      "name": "OpenShort",
      "type": "event"
    },
    {
      "anonymous": false,
      "inputs": [
        {
          "indexed": true,
          "internalType": "address",
          "name": "previousOwner",
          "type": "address"
        },
        {
          "indexed": true,
          "internalType": "address",
          "name": "newOwner",
          "type": "address"
        }
      ],
      "name": "OwnershipTransferred",
      "type": "event"
    },
    {
      "anonymous": false,
      "inputs": [
        {
          "indexed": false,
          "internalType": "uint256",
          "name": "performanceFee",
          "type": "uint256"
        },
        {
          "indexed": false,
          "internalType": "uint256",
          "name": "newPerformanceFee",
          "type": "uint256"
        }
      ],
      "name": "PerformanceFeeSet",
      "type": "event"
    },
    {
      "anonymous": false,
      "inputs": [
        {
          "indexed": false,
          "internalType": "uint256",
          "name": "premiumDiscount",
          "type": "uint256"
        },
        {
          "indexed": false,
          "internalType": "uint256",
          "name": "newPremiumDiscount",
          "type": "uint256"
        }
      ],
      "name": "PremiumDiscountSet",
      "type": "event"
    },
    {
      "anonymous": false,
      "inputs": [
        {
          "indexed": true,
          "internalType": "address",
          "name": "account",
          "type": "address"
        },
        {
          "indexed": false,
          "internalType": "uint256",
          "name": "share",
          "type": "uint256"
        },
        {
          "indexed": false,
          "internalType": "uint256",
          "name": "round",
          "type": "uint256"
        }
      ],
      "name": "Redeem",
      "type": "event"
    },
    {
      "anonymous": false,
      "inputs": [
        {
          "indexed": true,
          "internalType": "address",
          "name": "from",
          "type": "address"
        },
        {
          "indexed": true,
          "internalType": "address",
          "name": "to",
          "type": "address"
        },
        {
          "indexed": false,
          "internalType": "uint256",
          "name": "value",
          "type": "uint256"
        }
      ],
      "name": "Transfer",
      "type": "event"
    },
    {
      "anonymous": false,
      "inputs": [
        {
          "indexed": true,
          "internalType": "address",
          "name": "account",
          "type": "address"
        },
        {
          "indexed": false,
          "internalType": "uint256",
          "name": "amount",
          "type": "uint256"
        },
        {
          "indexed": false,
          "internalType": "uint256",
          "name": "shares",
          "type": "uint256"
        }
      ],
      "name": "Withdraw",
      "type": "event"
    },
    {
      "inputs": [],
      "name": "DELAY",
      "outputs": [
        {
          "internalType": "uint256",
          "name": "",
          "type": "uint256"
        }
      ],
      "stateMutability": "view",
      "type": "function"
    },
    {
      "inputs": [],
      "name": "GAMMA_CONTROLLER",
      "outputs": [
        {
          "internalType": "address",
          "name": "",
          "type": "address"
        }
      ],
      "stateMutability": "view",
      "type": "function"
    },
    {
      "inputs": [],
      "name": "GNOSIS_EASY_AUCTION",
      "outputs": [
        {
          "internalType": "address",
          "name": "",
          "type": "address"
        }
      ],
      "stateMutability": "view",
      "type": "function"
    },
    {
      "inputs": [],
      "name": "MARGIN_POOL",
      "outputs": [
        {
          "internalType": "address",
          "name": "",
          "type": "address"
        }
      ],
      "stateMutability": "view",
      "type": "function"
    },
    {
      "inputs": [],
      "name": "OTOKEN_FACTORY",
      "outputs": [
        {
          "internalType": "address",
          "name": "",
          "type": "address"
        }
      ],
      "stateMutability": "view",
      "type": "function"
    },
    {
      "inputs": [],
      "name": "USDC",
      "outputs": [
        {
          "internalType": "address",
          "name": "",
          "type": "address"
        }
      ],
      "stateMutability": "view",
      "type": "function"
    },
    {
      "inputs": [],
      "name": "WETH",
      "outputs": [
        {
          "internalType": "address",
          "name": "",
          "type": "address"
        }
      ],
      "stateMutability": "view",
      "type": "function"
    },
    {
      "inputs": [
        {
          "internalType": "address",
          "name": "account",
          "type": "address"
        }
      ],
      "name": "accountVaultBalance",
      "outputs": [
        {
          "internalType": "uint256",
          "name": "",
          "type": "uint256"
        }
      ],
      "stateMutability": "view",
      "type": "function"
    },
    {
      "inputs": [
        {
          "internalType": "address",
          "name": "owner",
          "type": "address"
        },
        {
          "internalType": "address",
          "name": "spender",
          "type": "address"
        }
      ],
      "name": "allowance",
      "outputs": [
        {
          "internalType": "uint256",
          "name": "",
          "type": "uint256"
        }
      ],
      "stateMutability": "view",
      "type": "function"
    },
    {
      "inputs": [
        {
          "internalType": "address",
          "name": "spender",
          "type": "address"
        },
        {
          "internalType": "uint256",
          "name": "amount",
          "type": "uint256"
        }
      ],
      "name": "approve",
      "outputs": [
        {
          "internalType": "bool",
          "name": "",
          "type": "bool"
        }
      ],
      "stateMutability": "nonpayable",
      "type": "function"
    },
    {
      "inputs": [],
      "name": "auctionDuration",
      "outputs": [
        {
          "internalType": "uint256",
          "name": "",
          "type": "uint256"
        }
      ],
      "stateMutability": "view",
      "type": "function"
    },
    {
      "inputs": [
        {
          "internalType": "address",
          "name": "account",
          "type": "address"
        }
      ],
      "name": "balanceOf",
      "outputs": [
        {
          "internalType": "uint256",
          "name": "",
          "type": "uint256"
        }
      ],
      "stateMutability": "view",
      "type": "function"
    },
    {
      "inputs": [],
      "name": "burnRemainingOTokens",
      "outputs": [],
      "stateMutability": "nonpayable",
      "type": "function"
    },
    {
      "inputs": [],
      "name": "cap",
      "outputs": [
        {
          "internalType": "uint256",
          "name": "",
          "type": "uint256"
        }
      ],
      "stateMutability": "view",
      "type": "function"
    },
    {
      "inputs": [],
      "name": "chargeAndDistribute",
      "outputs": [],
      "stateMutability": "nonpayable",
      "type": "function"
    },
    {
      "inputs": [],
      "name": "commitAndClose",
      "outputs": [],
      "stateMutability": "nonpayable",
      "type": "function"
    },
    {
      "inputs": [],
      "name": "completeWithdraw",
      "outputs": [],
      "stateMutability": "nonpayable",
      "type": "function"
    },
    {
      "inputs": [],
      "name": "concludeOptionsSale",
      "outputs": [],
      "stateMutability": "nonpayable",
      "type": "function"
    },
    {
      "inputs": [],
      "name": "currentOption",
      "outputs": [
        {
          "internalType": "address",
          "name": "",
          "type": "address"
        }
      ],
      "stateMutability": "view",
      "type": "function"
    },
    {
      "inputs": [],
      "name": "currentOtokenPremium",
      "outputs": [
        {
          "internalType": "uint256",
          "name": "",
          "type": "uint256"
        }
      ],
      "stateMutability": "view",
      "type": "function"
    },
    {
      "inputs": [],
      "name": "decimals",
      "outputs": [
        {
          "internalType": "uint8",
          "name": "",
          "type": "uint8"
        }
      ],
      "stateMutability": "view",
      "type": "function"
    },
    {
      "inputs": [
        {
          "internalType": "address",
          "name": "spender",
          "type": "address"
        },
        {
          "internalType": "uint256",
          "name": "subtractedValue",
          "type": "uint256"
        }
      ],
      "name": "decreaseAllowance",
      "outputs": [
        {
          "internalType": "bool",
          "name": "",
          "type": "bool"
        }
      ],
      "stateMutability": "nonpayable",
      "type": "function"
    },
    {
      "inputs": [
        {
          "internalType": "uint256",
          "name": "amount",
          "type": "uint256"
        }
      ],
      "name": "deposit",
      "outputs": [],
      "stateMutability": "nonpayable",
      "type": "function"
    },
    {
      "inputs": [
        {
          "internalType": "address",
          "name": "",
          "type": "address"
        }
      ],
      "name": "depositReceipts",
      "outputs": [
        {
          "internalType": "uint16",
          "name": "round",
          "type": "uint16"
        },
        {
          "internalType": "uint104",
          "name": "amount",
          "type": "uint104"
        },
        {
          "internalType": "uint128",
          "name": "unredeemedShares",
          "type": "uint128"
        }
      ],
      "stateMutability": "view",
      "type": "function"
    },
    {
      "inputs": [
        {
          "internalType": "uint256",
          "name": "",
          "type": "uint256"
        }
      ],
      "name": "depositorsArray",
      "outputs": [
        {
          "internalType": "address",
          "name": "",
          "type": "address"
        }
      ],
      "stateMutability": "view",
      "type": "function"
    },
    {
      "inputs": [
        {
          "internalType": "address",
          "name": "",
          "type": "address"
        }
      ],
      "name": "depositorsMap",
      "outputs": [
        {
          "internalType": "bool",
          "name": "",
          "type": "bool"
        }
      ],
      "stateMutability": "view",
      "type": "function"
    },
    {
      "inputs": [],
      "name": "feeRecipient",
      "outputs": [
        {
          "internalType": "address",
          "name": "",
          "type": "address"
        }
      ],
      "stateMutability": "view",
      "type": "function"
    },
    {
      "inputs": [
        {
          "internalType": "address",
          "name": "spender",
          "type": "address"
        },
        {
          "internalType": "uint256",
          "name": "addedValue",
          "type": "uint256"
        }
      ],
      "name": "increaseAllowance",
      "outputs": [
        {
          "internalType": "bool",
          "name": "",
          "type": "bool"
        }
      ],
      "stateMutability": "nonpayable",
      "type": "function"
    },
    {
      "inputs": [
        {
          "internalType": "uint256",
          "name": "numRounds",
          "type": "uint256"
        }
      ],
      "name": "initRounds",
      "outputs": [],
      "stateMutability": "nonpayable",
      "type": "function"
    },
    {
      "inputs": [
        {
          "components": [
            {
              "internalType": "address",
              "name": "_owner",
              "type": "address"
            },
            {
              "internalType": "address",
              "name": "_keeper",
              "type": "address"
            },
            {
              "internalType": "address",
              "name": "_feeRecipient",
              "type": "address"
            },
            {
              "internalType": "uint256",
              "name": "_managementFee",
              "type": "uint256"
            },
            {
              "internalType": "uint256",
              "name": "_performanceFee",
              "type": "uint256"
            },
            {
              "internalType": "string",
              "name": "_tokenName",
              "type": "string"
            },
            {
              "internalType": "string",
              "name": "_tokenSymbol",
              "type": "string"
            },
            {
              "internalType": "address",
              "name": "_optionsPremiumPricer",
              "type": "address"
            },
            {
              "internalType": "address",
              "name": "_strikeSelection",
              "type": "address"
            },
            {
              "internalType": "uint32",
              "name": "_premiumDiscount",
              "type": "uint32"
            },
            {
              "internalType": "uint256",
              "name": "_auctionDuration",
              "type": "uint256"
            },
            {
              "internalType": "uint256",
              "name": "_period",
              "type": "uint256"
            },
            {
              "internalType": "uint256",
              "name": "_maxDepositors",
              "type": "uint256"
            },
            {
              "internalType": "uint256",
              "name": "_minDeposit",
              "type": "uint256"
            }
          ],
          "internalType": "struct VaultLifecycleTreasury.InitParams",
          "name": "_initParams",
          "type": "tuple"
        },
        {
          "components": [
            {
              "internalType": "bool",
              "name": "isPut",
              "type": "bool"
            },
            {
              "internalType": "uint8",
              "name": "decimals",
              "type": "uint8"
            },
            {
              "internalType": "address",
              "name": "asset",
              "type": "address"
            },
            {
              "internalType": "address",
              "name": "underlying",
              "type": "address"
            },
            {
              "internalType": "uint56",
              "name": "minimumSupply",
              "type": "uint56"
            },
            {
              "internalType": "uint104",
              "name": "cap",
              "type": "uint104"
            }
          ],
          "internalType": "struct Vault.VaultParams",
          "name": "_vaultParams",
          "type": "tuple"
        }
      ],
      "name": "initialize",
      "outputs": [],
      "stateMutability": "nonpayable",
      "type": "function"
    },
    {
      "inputs": [
        {
          "internalType": "uint256",
          "name": "numShares",
          "type": "uint256"
        }
      ],
      "name": "initiateWithdraw",
      "outputs": [],
      "stateMutability": "nonpayable",
      "type": "function"
    },
    {
      "inputs": [],
      "name": "keeper",
      "outputs": [
        {
          "internalType": "address",
          "name": "",
          "type": "address"
        }
      ],
      "stateMutability": "view",
      "type": "function"
    },
    {
      "inputs": [],
      "name": "lastQueuedWithdrawAmount",
      "outputs": [
        {
          "internalType": "uint256",
          "name": "",
          "type": "uint256"
        }
      ],
      "stateMutability": "view",
      "type": "function"
    },
    {
      "inputs": [],
      "name": "lastStrikeOverrideRound",
      "outputs": [
        {
          "internalType": "uint16",
          "name": "",
          "type": "uint16"
        }
      ],
      "stateMutability": "view",
      "type": "function"
    },
    {
      "inputs": [],
      "name": "managementFee",
      "outputs": [
        {
          "internalType": "uint256",
          "name": "",
          "type": "uint256"
        }
      ],
      "stateMutability": "view",
      "type": "function"
    },
    {
      "inputs": [],
      "name": "maxDepositors",
      "outputs": [
        {
          "internalType": "uint256",
          "name": "",
          "type": "uint256"
        }
      ],
      "stateMutability": "view",
      "type": "function"
    },
    {
      "inputs": [],
      "name": "maxRedeem",
      "outputs": [],
      "stateMutability": "nonpayable",
      "type": "function"
    },
    {
      "inputs": [],
      "name": "minDeposit",
      "outputs": [
        {
          "internalType": "uint256",
          "name": "",
          "type": "uint256"
        }
      ],
      "stateMutability": "view",
      "type": "function"
    },
    {
      "inputs": [],
      "name": "name",
      "outputs": [
        {
          "internalType": "string",
          "name": "",
          "type": "string"
        }
      ],
      "stateMutability": "view",
      "type": "function"
    },
    {
      "inputs": [],
      "name": "nextOption",
      "outputs": [
        {
          "internalType": "address",
          "name": "",
          "type": "address"
        }
      ],
      "stateMutability": "view",
      "type": "function"
    },
    {
      "inputs": [],
      "name": "nextOptionReadyAt",
      "outputs": [
        {
          "internalType": "uint256",
          "name": "",
          "type": "uint256"
        }
      ],
      "stateMutability": "view",
      "type": "function"
    },
    {
      "inputs": [],
      "name": "optionAuctionID",
      "outputs": [
        {
          "internalType": "uint256",
          "name": "",
          "type": "uint256"
        }
      ],
      "stateMutability": "view",
      "type": "function"
    },
    {
      "inputs": [],
      "name": "optionState",
      "outputs": [
        {
          "internalType": "address",
          "name": "nextOption",
          "type": "address"
        },
        {
          "internalType": "address",
          "name": "currentOption",
          "type": "address"
        },
        {
          "internalType": "uint32",
          "name": "nextOptionReadyAt",
          "type": "uint32"
        }
      ],
      "stateMutability": "view",
      "type": "function"
    },
    {
      "inputs": [],
      "name": "optionsPremiumPricer",
      "outputs": [
        {
          "internalType": "address",
          "name": "",
          "type": "address"
        }
      ],
      "stateMutability": "view",
      "type": "function"
    },
    {
      "inputs": [],
      "name": "overriddenStrikePrice",
      "outputs": [
        {
          "internalType": "uint256",
          "name": "",
          "type": "uint256"
        }
      ],
      "stateMutability": "view",
      "type": "function"
    },
    {
      "inputs": [],
      "name": "owner",
      "outputs": [
        {
          "internalType": "address",
          "name": "",
          "type": "address"
        }
      ],
      "stateMutability": "view",
      "type": "function"
    },
    {
      "inputs": [],
      "name": "performanceFee",
      "outputs": [
        {
          "internalType": "uint256",
          "name": "",
          "type": "uint256"
        }
      ],
      "stateMutability": "view",
      "type": "function"
    },
    {
      "inputs": [],
      "name": "period",
      "outputs": [
        {
          "internalType": "uint256",
          "name": "",
          "type": "uint256"
        }
      ],
      "stateMutability": "view",
      "type": "function"
    },
    {
      "inputs": [],
      "name": "premiumDiscount",
      "outputs": [
        {
          "internalType": "uint256",
          "name": "",
          "type": "uint256"
        }
      ],
      "stateMutability": "view",
      "type": "function"
    },
    {
      "inputs": [],
      "name": "pricePerShare",
      "outputs": [
        {
          "internalType": "uint256",
          "name": "",
          "type": "uint256"
        }
      ],
      "stateMutability": "view",
      "type": "function"
    },
    {
      "inputs": [
        {
          "internalType": "uint256",
          "name": "numShares",
          "type": "uint256"
        }
      ],
      "name": "redeem",
      "outputs": [],
      "stateMutability": "nonpayable",
      "type": "function"
    },
    {
      "inputs": [],
      "name": "renounceOwnership",
      "outputs": [],
      "stateMutability": "nonpayable",
      "type": "function"
    },
    {
      "inputs": [],
      "name": "rollToNextOption",
      "outputs": [],
      "stateMutability": "nonpayable",
      "type": "function"
    },
    {
      "inputs": [
        {
          "internalType": "uint256",
          "name": "",
          "type": "uint256"
        }
      ],
      "name": "roundPricePerShare",
      "outputs": [
        {
          "internalType": "uint256",
          "name": "",
          "type": "uint256"
        }
      ],
      "stateMutability": "view",
      "type": "function"
    },
    {
      "inputs": [
        {
          "internalType": "uint256",
          "name": "newAuctionDuration",
          "type": "uint256"
        }
      ],
      "name": "setAuctionDuration",
      "outputs": [],
      "stateMutability": "nonpayable",
      "type": "function"
    },
    {
      "inputs": [
        {
          "internalType": "uint256",
          "name": "newCap",
          "type": "uint256"
        }
      ],
      "name": "setCap",
      "outputs": [],
      "stateMutability": "nonpayable",
      "type": "function"
    },
    {
      "inputs": [
        {
          "internalType": "address",
          "name": "newFeeRecipient",
          "type": "address"
        }
      ],
      "name": "setFeeRecipient",
      "outputs": [],
      "stateMutability": "nonpayable",
      "type": "function"
    },
    {
      "inputs": [
        {
          "internalType": "uint256",
          "name": "newManagementFee",
          "type": "uint256"
        }
      ],
      "name": "setManagementFee",
      "outputs": [],
      "stateMutability": "nonpayable",
      "type": "function"
    },
    {
      "inputs": [
        {
          "internalType": "uint256",
          "name": "newMaxDepositors",
          "type": "uint256"
        }
      ],
      "name": "setMaxDepositors",
      "outputs": [],
      "stateMutability": "nonpayable",
      "type": "function"
    },
    {
      "inputs": [
        {
          "internalType": "uint256",
          "name": "newMinDeposit",
          "type": "uint256"
        }
      ],
      "name": "setMinDeposit",
      "outputs": [],
      "stateMutability": "nonpayable",
      "type": "function"
    },
    {
      "inputs": [
        {
          "internalType": "address",
          "name": "newKeeper",
          "type": "address"
        }
      ],
      "name": "setNewKeeper",
      "outputs": [],
      "stateMutability": "nonpayable",
      "type": "function"
    },
    {
      "inputs": [
        {
          "internalType": "address",
          "name": "newOptionsPremiumPricer",
          "type": "address"
        }
      ],
      "name": "setOptionsPremiumPricer",
      "outputs": [],
      "stateMutability": "nonpayable",
      "type": "function"
    },
    {
      "inputs": [
        {
          "internalType": "uint256",
          "name": "newPerformanceFee",
          "type": "uint256"
        }
      ],
      "name": "setPerformanceFee",
      "outputs": [],
      "stateMutability": "nonpayable",
      "type": "function"
    },
    {
      "inputs": [
        {
          "internalType": "uint256",
          "name": "newPremiumDiscount",
          "type": "uint256"
        }
      ],
      "name": "setPremiumDiscount",
      "outputs": [],
      "stateMutability": "nonpayable",
      "type": "function"
    },
    {
      "inputs": [
        {
          "internalType": "uint128",
          "name": "strikePrice",
          "type": "uint128"
        }
      ],
      "name": "setStrikePrice",
      "outputs": [],
      "stateMutability": "nonpayable",
      "type": "function"
    },
    {
      "inputs": [
        {
          "internalType": "address",
          "name": "newStrikeSelection",
          "type": "address"
        }
      ],
      "name": "setStrikeSelection",
      "outputs": [],
      "stateMutability": "nonpayable",
      "type": "function"
    },
    {
      "inputs": [
        {
          "internalType": "address",
          "name": "account",
          "type": "address"
        }
      ],
      "name": "shareBalances",
      "outputs": [
        {
          "internalType": "uint256",
          "name": "heldByAccount",
          "type": "uint256"
        },
        {
          "internalType": "uint256",
          "name": "heldByVault",
          "type": "uint256"
        }
      ],
      "stateMutability": "view",
      "type": "function"
    },
    {
      "inputs": [
        {
          "internalType": "address",
          "name": "account",
          "type": "address"
        }
      ],
      "name": "shares",
      "outputs": [
        {
          "internalType": "uint256",
          "name": "",
          "type": "uint256"
        }
      ],
      "stateMutability": "view",
      "type": "function"
    },
    {
      "inputs": [],
      "name": "startAuction",
      "outputs": [],
      "stateMutability": "nonpayable",
      "type": "function"
    },
    {
      "inputs": [],
      "name": "strikeSelection",
      "outputs": [
        {
          "internalType": "address",
          "name": "",
          "type": "address"
        }
      ],
      "stateMutability": "view",
      "type": "function"
    },
    {
      "inputs": [],
      "name": "symbol",
      "outputs": [
        {
          "internalType": "string",
          "name": "",
          "type": "string"
        }
      ],
      "stateMutability": "view",
      "type": "function"
    },
    {
      "inputs": [],
      "name": "totalBalance",
      "outputs": [
        {
          "internalType": "uint256",
          "name": "",
          "type": "uint256"
        }
      ],
      "stateMutability": "view",
      "type": "function"
    },
    {
      "inputs": [],
      "name": "totalPending",
      "outputs": [
        {
          "internalType": "uint256",
          "name": "",
          "type": "uint256"
        }
      ],
      "stateMutability": "view",
      "type": "function"
    },
    {
      "inputs": [],
      "name": "totalSupply",
      "outputs": [
        {
          "internalType": "uint256",
          "name": "",
          "type": "uint256"
        }
      ],
      "stateMutability": "view",
      "type": "function"
    },
    {
      "inputs": [
        {
          "internalType": "address",
          "name": "recipient",
          "type": "address"
        },
        {
          "internalType": "uint256",
          "name": "amount",
          "type": "uint256"
        }
      ],
      "name": "transfer",
      "outputs": [
        {
          "internalType": "bool",
          "name": "",
          "type": "bool"
        }
      ],
      "stateMutability": "nonpayable",
      "type": "function"
    },
    {
      "inputs": [
        {
          "internalType": "address",
          "name": "sender",
          "type": "address"
        },
        {
          "internalType": "address",
          "name": "recipient",
          "type": "address"
        },
        {
          "internalType": "uint256",
          "name": "amount",
          "type": "uint256"
        }
      ],
      "name": "transferFrom",
      "outputs": [
        {
          "internalType": "bool",
          "name": "",
          "type": "bool"
        }
      ],
      "stateMutability": "nonpayable",
      "type": "function"
    },
    {
      "inputs": [
        {
          "internalType": "address",
          "name": "newOwner",
          "type": "address"
        }
      ],
      "name": "transferOwnership",
      "outputs": [],
      "stateMutability": "nonpayable",
      "type": "function"
    },
    {
      "inputs": [],
      "name": "vaultParams",
      "outputs": [
        {
          "internalType": "bool",
          "name": "isPut",
          "type": "bool"
        },
        {
          "internalType": "uint8",
          "name": "decimals",
          "type": "uint8"
        },
        {
          "internalType": "address",
          "name": "asset",
          "type": "address"
        },
        {
          "internalType": "address",
          "name": "underlying",
          "type": "address"
        },
        {
          "internalType": "uint56",
          "name": "minimumSupply",
          "type": "uint56"
        },
        {
          "internalType": "uint104",
          "name": "cap",
          "type": "uint104"
        }
      ],
      "stateMutability": "view",
      "type": "function"
    },
    {
      "inputs": [],
      "name": "vaultState",
      "outputs": [
        {
          "internalType": "uint16",
          "name": "round",
          "type": "uint16"
        },
        {
          "internalType": "uint104",
          "name": "lockedAmount",
          "type": "uint104"
        },
        {
          "internalType": "uint104",
          "name": "lastLockedAmount",
          "type": "uint104"
        },
        {
          "internalType": "uint128",
          "name": "totalPending",
          "type": "uint128"
        },
        {
          "internalType": "uint128",
          "name": "queuedWithdrawShares",
          "type": "uint128"
        }
      ],
      "stateMutability": "view",
      "type": "function"
    },
    {
      "inputs": [
        {
          "internalType": "uint256",
          "name": "amount",
          "type": "uint256"
        }
      ],
      "name": "withdrawInstantly",
      "outputs": [],
      "stateMutability": "nonpayable",
      "type": "function"
    },
    {
      "inputs": [
        {
          "internalType": "address",
          "name": "",
          "type": "address"
        }
      ],
      "name": "withdrawals",
      "outputs": [
        {
          "internalType": "uint16",
          "name": "round",
          "type": "uint16"
        },
        {
          "internalType": "uint128",
          "name": "shares",
          "type": "uint128"
        }
      ],
      "stateMutability": "view",
      "type": "function"
    }
  ],
  "transactionHash": "0x68893ce4275d50b90d44fe8fbab3e1fccccf3ba684834194218520d21600d6e5",
  "args": [
    "0xC02aaA39b223FE8D0A0e5C4F27eAD9083C756Cc2",
    "0xA0b86991c6218b36c1d19D4a2e9Eb0cE3606eB48",
    "0x7C06792Af1632E77cb27a558Dc0885338F4Bdf8E",
    "0x4ccc2339F87F6c59c6893E1A678c2266cA58dC72",
    "0x5934807cC0654d46755eBd2848840b616256C6Ef",
    "0x0b7fFc1f4AD541A4Ed16b40D8c37f0929158D101"
  ],
  "solcInputHash": "2232ccc9eb94ff79a1f5b977eab072e9",
  "bytecode": "0x6101406040523480156200001257600080fd5b506040516200613a3803806200613a83398101604081905262000035916200024e565b6001600160a01b0386166200007a5760405162461bcd60e51b8152602060048201526006602482015265042beeecae8d60d31b60448201526064015b60405180910390fd5b6001600160a01b038516620000bb5760405162461bcd60e51b8152602060048201526006602482015265215f7573646360d01b604482015260640162000071565b6001600160a01b038416620001055760405162461bcd60e51b815260206004820152600f60248201526e215f6f546f6b656e466163746f727960881b604482015260640162000071565b6001600160a01b038316620001515760405162461bcd60e51b815260206004820152601160248201527010afb3b0b6b6b0a1b7b73a3937b63632b960791b604482015260640162000071565b6001600160a01b038216620001985760405162461bcd60e51b815260206004820152600c60248201526b0857db585c99da5b941bdbdb60a21b604482015260640162000071565b6001600160a01b038116620001f05760405162461bcd60e51b815260206004820152601360248201527f215f676e6f7369734561737941756374696f6e00000000000000000000000000604482015260640162000071565b6001600160601b0319606096871b811660805294861b851660a05292851b84166101205290841b831660c052831b821660e05290911b1661010052620002ce565b80516001600160a01b03811681146200024957600080fd5b919050565b60008060008060008060c0878903121562000267578182fd5b620002728762000231565b9550620002826020880162000231565b9450620002926040880162000231565b9350620002a26060880162000231565b9250620002b26080880162000231565b9150620002c260a0880162000231565b90509295509295509295565b60805160601c60a05160601c60c05160601c60e05160601c6101005160601c6101205160601c615daf6200038b60003960008181610b8701526128120152600081816107be01528181611ea0015261367b01526000818161071001526124570152600081816104f5015281816117900152818161242f01526144480152600081816108cd01528181611edf0152818161283701528181612aa4015281816135da015281816136a50152613a0101526000610ad50152615daf6000f3fe608060405234801561001057600080fd5b506004361061048b5760003560e01c80638b10cc7c11610262578063afa6626411610151578063e73c63d5116100ce578063f656ba5111610092578063f656ba5114610c22578063f756fa2114610c4a578063f79d8d1214610c52578063f957a06714610c75578063fc29738014610c88578063fe56e23214610c9b57600080fd5b8063e73c63d514610be2578063e74b981b14610beb578063ea00b1ca14610bfe578063ef78d4fd14610c06578063f2fde38b14610c0f57600080fd5b8063d164cc1511610115578063d164cc1514610b53578063d5f2638214610b66578063db006a7514610b6f578063db43e86214610b82578063dd62ed3e14610ba957600080fd5b8063afa6626414610aff578063b6b55f2514610b12578063b9f8092b14610b25578063ce7c2ac214610b2d578063d13f1b3e14610b4057600080fd5b8063a083ff17116101df578063a6f7f5d6116101a3578063a6f7f5d614610aa1578063a9059cbb14610aaa578063aced166114610abd578063ad5c464814610ad0578063ad7a672f14610af757600080fd5b8063a083ff17146109ff578063a285c9e814610a55578063a2db9d8314610a6a578063a457c2d714610a7b578063a497e67414610a8e57600080fd5b8063990c561011610226578063990c56101461093457806399530b061461093c5780639b2e601b146109445780639be43daa1461094d5780639fcc2d751461096057600080fd5b80638b10cc7c146108ef5780638da5cb5b146109005780638fcc9cfb1461091157806395d89b411461092457806396d2a76b1461092c57600080fd5b80634af96d291161037e5780636f31ab34116102fb5780637e108d52116102bf5780637e108d521461088357806383536ff31461089657806387153eb11461089f57806387788782146108bf57806389a30271146108c857600080fd5b80636f31ab34146107e057806370897b23146107e857806370a08231146107fb578063715018a6146108245780637a9262a21461082c57600080fd5b8063650cce8a11610342578063650cce8a1461070b5780636719b2ee1461073257806369b41170146107a95780636b64c769146107b15780636c10f66c146107b957600080fd5b80634af96d29146106c1578063503c70aa146106d457806355489bb2146106dd578063600a2cfb146106f0578063601d6ba9146106f857600080fd5b8063355274ea1161040c57806341b3d185116103d057806341b3d18514610676578063432833a61461067f5780634603c0aa14610688578063469048401461069b57806347786d37146106ae57600080fd5b8063355274ea1461060d578063395093511461061e5780633ec143d3146106315780633f23bb73146106525780633f90916a1461066557600080fd5b806323b872dd1161045357806323b872dd1461052f5780632728f333146105425780632775d01c146105c857806330630da4146105dd578063313ce567146105f057600080fd5b806306fdde0314610490578063095ea7b3146104ae5780630cbf54c8146104d157806318160ddd146104e85780631a92f6c2146104f0575b600080fd5b610498610cae565b6040516104a591906155d2565b60405180910390f35b6104c16104bc36600461534a565b610d40565b60405190151581526020016104a5565b6104da60de5481565b6040519081526020016104a5565b6099546104da565b6105177f000000000000000000000000000000000000000000000000000000000000000081565b6040516001600160a01b0390911681526020016104a5565b6104c161053d36600461530a565b610d57565b60cc5460cd546105839161ffff8116916001600160681b03620100008304811692600160781b900416906001600160801b0380821691600160801b90041685565b6040805161ffff90961686526001600160681b03948516602087015293909216928401929092526001600160801b03918216606084015216608082015260a0016104a5565b6105db6105d636600461546a565b610e08565b005b6105db6105eb3660046152b6565b611049565b60c954610100900460ff1660405160ff90911681526020016104a5565b60cb546001600160681b03166104da565b6104c161062c36600461534a565b6110e1565b60e45461063f9061ffff1681565b60405161ffff90911681526020016104a5565b6104da6106603660046152b6565b61111d565b60cd546001600160801b03166104da565b6104da60e35481565b6104da60df5481565b6105db6106963660046152b6565b611170565b60d554610517906001600160a01b031681565b6105db6106bc36600461546a565b611212565b6105db6106cf3660046153e7565b6112ed565b6104da60e05481565b6105db6106eb366004615443565b611663565b6105db611724565b61051761070636600461546a565b61187f565b6105177f000000000000000000000000000000000000000000000000000000000000000081565b6107786107403660046152b6565b60d06020526000908152604090205461ffff8116906201000081046001600160681b031690600160781b90046001600160801b031683565b6040805161ffff90941684526001600160681b0390921660208401526001600160801b0316908201526060016104a5565b6104da600081565b6105db6118a9565b6105177f000000000000000000000000000000000000000000000000000000000000000081565b6105db611909565b6105db6107f636600461546a565b611940565b6104da6108093660046152b6565b6001600160a01b031660009081526097602052604090205490565b6105db611a07565b61086161083a3660046152b6565b60d26020526000908152604090205461ffff8116906201000090046001600160801b031682565b6040805161ffff90931683526001600160801b039091166020830152016104a5565b6105db61089136600461546a565b611a3d565b6104da60db5481565b6104da6108ad36600461546a565b60d16020526000908152604090205481565b6104da60d95481565b6105177f000000000000000000000000000000000000000000000000000000000000000081565b60cf546001600160a01b0316610517565b6065546001600160a01b0316610517565b6105db61091f36600461546a565b611d43565b610498611ddc565b6105db611deb565b6105db611e45565b6104da611f6f565b6104da60e25481565b6105db61095b36600461546a565b611fa9565b60c95460ca5460cb546109af9260ff808216936101008304909116926001600160a01b036201000090930483169282169166ffffffffffffff600160a01b90910416906001600160681b031686565b60408051961515875260ff90951660208701526001600160a01b03938416948601949094529116606084015266ffffffffffffff1660808301526001600160681b031660a082015260c0016104a5565b60ce5460cf54610a29916001600160a01b039081169190811690600160a01b900463ffffffff1683565b604080516001600160a01b03948516815293909216602084015263ffffffff16908201526060016104a5565b60cf54600160a01b900463ffffffff166104da565b60ce546001600160a01b0316610517565b6104c1610a8936600461534a565b6120a3565b6105db610a9c36600461546a565b61213c565b6104da60da5481565b6104c1610ab836600461534a565b6121f9565b60d654610517906001600160a01b031681565b6105177f000000000000000000000000000000000000000000000000000000000000000081565b6104da612206565b60d754610517906001600160a01b031681565b6105db610b2036600461546a565b6122a5565b6105db61233c565b6104da610b3b3660046152b6565b612503565b6105db610b4e36600461546a565b612520565b6105db610b613660046152b6565b6125e4565b6104da60dc5481565b6105db610b7d36600461546a565b612673565b6105177f000000000000000000000000000000000000000000000000000000000000000081565b6104da610bb73660046152d2565b6001600160a01b03918216600090815260986020908152604080832093909416825291909152205490565b6104da60dd5481565b6105db610bf93660046152b6565b6126e0565b6105db6127d3565b6104da60e15481565b6105db610c1d3660046152b6565b612b41565b610c35610c303660046152b6565b612bdc565b604080519283526020830191909152016104a5565b6105db612cbf565b6104c1610c603660046152b6565b60d36020526000908152604090205460ff1681565b60d854610517906001600160a01b031681565b6105db610c9636600461546a565b612d14565b6105db610ca936600461546a565b612db0565b6060609a8054610cbd90615b4f565b80601f0160208091040260200160405190810160405280929190818152602001828054610ce990615b4f565b8015610d365780601f10610d0b57610100808354040283529160200191610d36565b820191906000526020600020905b815481529060010190602001808311610d1957829003601f168201915b5050505050905090565b6000610d4d338484612e79565b5060015b92915050565b6000610d64848484612f9e565b6001600160a01b038416600090815260986020908152604080832033845290915290205482811015610dee5760405162461bcd60e51b815260206004820152602860248201527f45524332303a207472616e7366657220616d6f756e74206578636565647320616044820152676c6c6f77616e636560c01b60648201526084015b60405180910390fd5b610dfb8533858403612e79565b60019150505b9392505050565b60026001541415610e2b5760405162461bcd60e51b8152600401610de5906156e0565b600260015533600090815260d06020526040902060cc5461ffff1682610e7d5760405162461bcd60e51b815260206004820152600760248201526608585b5bdd5b9d60ca1b6044820152606401610de5565b815461ffff168114610ec15760405162461bcd60e51b815260206004820152600d60248201526c125b9d985b1a59081c9bdd5b99609a1b6044820152606401610de5565b81546201000090046001600160681b031683811015610f125760405162461bcd60e51b815260206004820152600d60248201526c115e18d9595908185b5bdd5b9d609a1b6044820152606401610de5565b6000610f2782610f213361111d565b90613020565b905084811115610f63576000610f3d828761302c565b905060e354811015610f615760405162461bcd60e51b8152600401610de5906156a9565b505b610f6d828661302c565b84546001600160681b0391909116620100000262010000600160781b031990911617845560cd54610fa7906001600160801b03168661302c565b60cd80546001600160801b0319166001600160801b0392909216919091179055604080518681526020810185905233917fab2daf3c146ca6416cbccd2a86ed2ba995e171ef6319df14a38aef01403a9c96910160405180910390a283546201000090046001600160681b0316158015611026575061102433612503565b155b156110345761103433613038565b61103e3386613289565b505060018055505050565b6065546001600160a01b031633146110735760405162461bcd60e51b8152600401610de590615674565b6001600160a01b0381166110bf5760405162461bcd60e51b815260206004820152601360248201527210b732bba9ba3934b5b2a9b2b632b1ba34b7b760691b6044820152606401610de5565b60d880546001600160a01b0319166001600160a01b0392909216919091179055565b3360008181526098602090815260408083206001600160a01b03871684529091528120549091610d4d9185906111189086906159b3565b612e79565b60c95460009060ff610100909104168161115361113960995490565b611141612206565b60cd546001600160801b0316856132a6565b905061116861116185612503565b82846132ec565b949350505050565b6065546001600160a01b0316331461119a5760405162461bcd60e51b8152600401610de590615674565b6001600160a01b0381166111f05760405162461bcd60e51b815260206004820152601860248201527f216e65774f7074696f6e735072656d69756d50726963657200000000000000006044820152606401610de5565b60d780546001600160a01b0319166001600160a01b0392909216919091179055565b6065546001600160a01b0316331461123c5760405162461bcd60e51b8152600401610de590615674565b600081116112765760405162461bcd60e51b81526020600482015260076024820152660216e65774361760cc1b6044820152606401610de5565b61127f8161334e565b60cb54604080516001600160681b039092168252602082018390527f5f86edbb9d92228a9edc3f0ebc0f001bda1ea345ac7335e0eeef3504b31d1a1c910160405180910390a160cb80546cffffffffffffffffffffffffff19166001600160681b0392909216919091179055565b600054610100900460ff1680611306575060005460ff16155b6113225760405162461bcd60e51b8152600401610de590615626565b600054610100900460ff16158015611344576000805461ffff19166101011790555b6040516384d831a960e01b815273cbD9A79Caa0d354C9119039F5004DbCf23489c9a906384d831a990611381908690869061012c90600401615717565b60006040518083038186803b15801561139957600080fd5b505af41580156113ad573d6000803e3d6000fd5b505050506113b9613398565b6114456113c960a0850185615922565b8080601f01602080910402602001604051908101604052809392919081815260200183838082843760009201919091525061140b9250505060c0860186615922565b8080601f01602080910402602001604051908101604052809392919081815260200183838082843760009201919091525061340b92505050565b61144d61348a565b61145d610c1d60208501856152b6565b61146d60408401602085016152b6565b60d680546001600160a01b0319166001600160a01b039290921691909117905561016083013560e1556114a7610100840160e085016152b6565b60d780546001600160a01b0319166001600160a01b03929092169190911790556114d9610120840161010085016152b6565b60d880546001600160a01b0319166001600160a01b039290921691909117905561150b610140840161012085016154c1565b63ffffffff1660db5561014083013560de5561152d60608401604085016152b6565b60d580546001600160a01b0319166001600160a01b0392909216919091179055608083013560d95561156260608401356134f1565b60da5561018083013560e2556101a083013560e3558160c96115848282615c0c565b505060cc805461ffff1916600117905560c9546040516370a0823160e01b81523060048201526000916001600160a01b036201000090910416906370a082319060240160206040518083038186803b1580156115df57600080fd5b505afa1580156115f3573d6000803e3d6000fd5b505050506040513d601f19601f8201168201806040525081019061161791906153cf565b90506116228161334e565b60cc80546001600160681b03909216600160781b02600160781b600160e01b0319909216919091179055801561165e576000805461ff00191690555b505050565b6065546001600160a01b0316331461168d5760405162461bcd60e51b8152600401610de590615674565b600260015414156116b05760405162461bcd60e51b8152600401610de5906156e0565b60026001556001600160801b0381166116fa5760405162461bcd60e51b815260206004820152600c60248201526b21737472696b65507269636560a01b6044820152606401610de5565b6001600160801b031660dd5560cc5460e4805461ffff191661ffff90921691909117905560018055565b60d6546001600160a01b0316331461174e5760405162461bcd60e51b8152600401610de590615605565b600260015414156117715760405162461bcd60e51b8152600401610de5906156e0565b600260015560cf546040516358ffbb3d60e01b81526001600160a01b037f000000000000000000000000000000000000000000000000000000000000000081166004830152909116602482015260009073cbD9A79Caa0d354C9119039F5004DbCf23489c9a906358ffbb3d9060440160206040518083038186803b1580156117f857600080fd5b505af415801561180c573d6000803e3d6000fd5b505050506040513d601f19601f8201168201806040525081019061183091906153cf565b60cc5490915061184f906201000090046001600160681b03168261302c565b60cc80546001600160681b0392909216620100000262010000600160781b03199092169190911790555060018055565b60d4818154811061188f57600080fd5b6000918252602090912001546001600160a01b0316905081565b60d6546001600160a01b031633146118d35760405162461bcd60e51b8152600401610de590615605565b600260015414156118f65760405162461bcd60e51b8152600401610de5906156e0565b600260015561190361355c565b60018055565b6002600154141561192c5760405162461bcd60e51b8152600401610de5906156e0565b6002600181905550611903600060016137a1565b6065546001600160a01b0316331461196a5760405162461bcd60e51b8152600401610de590615674565b611978620f42406064615aca565b81106119c65760405162461bcd60e51b815260206004820152601760248201527f496e76616c696420706572666f726d616e6365206665650000000000000000006044820152606401610de5565b60d95460408051918252602082018390527f24867dfb6fcb9970a07be21024956524abe7a1837faa903ff0e99aaa40cf893e910160405180910390a160d955565b6065546001600160a01b03163314611a315760405162461bcd60e51b8152600401610de590615674565b611a3b6000613950565b565b60026001541415611a605760405162461bcd60e51b8152600401610de5906156e0565b600260015580611a9f5760405162461bcd60e51b815260206004820152600a602482015269216e756d53686172657360b01b6044820152606401610de5565b33600090815260d06020526040902080546201000090046001600160681b0316151580611adc57508054600160781b90046001600160801b031615155b15611aed57611aed600060016137a1565b60cc5433600081815260d260209081526040918290208054835188815261ffff96871693810184905292959194911692838614927f0c53c82ad07e2d592d88ece3b066777dd60f1118e2a081b380efc4358f0d9e2a910160405180910390a282546201000090046001600160801b031660008215611b7657611b6f8289613020565b9050611bd9565b8115611bb85760405162461bcd60e51b81526020600482015260116024820152704578697374696e6720776974686472617760781b6044820152606401610de5565b5033600090815260d260205260409020805461ffff191661ffff8716179055865b60c954610100900460ff166000611bef3361111d565b90506000611c358b8a60011415611c1057611c0b85600a615a22565b611c2f565b60d16000611c1f60018e615b0c565b8152602001908152602001600020545b856132ec565b905080821115611c71576000611c4b838361302c565b905060e354811015611c6f5760405162461bcd60e51b8152600401610de5906156a9565b505b611c7a846139a2565b33600090815260d26020526040812080546001600160801b03808816620100000262010000600160901b03199092169190911790915560cd54611cc691600160801b909104168d613020565b9050611cd1816139a2565b60cd80546001600160801b03808416600160801b0291161790558a546001600160681b036201000090910416158015611d185750336000908152609760205260409020548c145b15611d2657611d2633613038565b611d3133308e612f9e565b50506001805550505050505050505050565b6065546001600160a01b03163314611d6d5760405162461bcd60e51b8152600401610de590615674565b60026001541415611d905760405162461bcd60e51b8152600401610de5906156e0565b600260015580611dd35760405162461bcd60e51b815260206004820152600e60248201526d085b995dd35a5b91195c1bdcda5d60921b6044820152606401610de5565b60e35560018055565b6060609b8054610cbd90615b4f565b60d6546001600160a01b03163314611e155760405162461bcd60e51b8152600401610de590615605565b60026001541415611e385760405162461bcd60e51b8152600401610de5906156e0565b60026001556119036139ec565b60d6546001600160a01b03163314611e6f5760405162461bcd60e51b8152600401610de590615605565b60026001541415611e925760405162461bcd60e51b8152600401610de5906156e0565b600260015560df54611ec5907f000000000000000000000000000000000000000000000000000000000000000090613b6a565b6040516370a0823160e01b815230600482015262989680907f00000000000000000000000000000000000000000000000000000000000000006001600160a01b0316906370a082319060240160206040518083038186803b158015611f2957600080fd5b505afa158015611f3d573d6000803e3d6000fd5b505050506040513d601f19601f82011682018060405250810190611f6191906153cf565b1115611903576119036139ec565b6000611fa4611f7d60995490565b611f85612206565b60cd5460c9546001600160801b0390911690610100900460ff166132a6565b905090565b60026001541415611fcc5760405162461bcd60e51b8152600401610de5906156e0565b60026001558061200b5760405162461bcd60e51b815260206004820152600a602482015269216e756d526f756e647360b01b6044820152606401610de5565b60cc5461ffff1660005b8281101561209a57600061202982846159b3565b600081815260d16020526040902054909150156120765760405162461bcd60e51b815260206004820152600b60248201526a125b9a5d1a585b1a5e995960aa1b6044820152606401610de5565b600090815260d160205260409020600190558061209281615b8a565b915050612015565b50506001805550565b3360009081526098602090815260408083206001600160a01b0386168452909152812054828110156121255760405162461bcd60e51b815260206004820152602560248201527f45524332303a2064656372656173656420616c6c6f77616e63652062656c6f77604482015264207a65726f60d81b6064820152608401610de5565b6121323385858403612e79565b5060019392505050565b6065546001600160a01b031633146121665760405162461bcd60e51b8152600401610de590615674565b61012c8110156121b85760405162461bcd60e51b815260206004820152601860248201527f496e76616c69642061756374696f6e206475726174696f6e00000000000000006044820152606401610de5565b60de5460408051918252602082018390527f5acd982e2240ed224a69aa03dab039d3797c108e4b5f288cd7dd6ca181b275f3910160405180910390a160de55565b6000610d4d338484612f9e565b60c9546040516370a0823160e01b8152306004820152600091611fa491620100009091046001600160a01b0316906370a082319060240160206040518083038186803b15801561225557600080fd5b505afa158015612269573d6000803e3d6000fd5b505050506040513d601f19601f8201168201806040525081019061228d91906153cf565b60cc546201000090046001600160681b031690613020565b600260015414156122c85760405162461bcd60e51b8152600401610de5906156e0565b6002600155806123045760405162461bcd60e51b815260206004820152600760248201526608585b5bdd5b9d60ca1b6044820152606401610de5565b61230d33613be4565b6123178133613d23565b60c954612335906201000090046001600160a01b0316333084613ff1565b5060018055565b60d6546001600160a01b031633146123665760405162461bcd60e51b8152600401610de590615605565b600260015414156123895760405162461bcd60e51b8152600401610de5906156e0565b600260018190555060008060006123a160e054614062565b60e0819055919450925090506123b68261334e565b60cc805462010000600160781b031916620100006001600160681b0385160217905560405182815233906001600160a01b038516907f045c558fdce4714c5816d53820d27420f4cd860892df203fe636384d8d19aa019060200160405180910390a3604051632904c23960e01b81526001600160a01b037f0000000000000000000000000000000000000000000000000000000000000000811660048301527f000000000000000000000000000000000000000000000000000000000000000081166024830152841660448201526064810183905273cbD9A79Caa0d354C9119039F5004DbCf23489c9a90632904c2399060840160206040518083038186803b1580156124c257600080fd5b505af41580156124d6573d6000803e3d6000fd5b505050506040513d601f19601f820116820180604052508101906124fa91906153cf565b5061209a61355c565b600080600061251184612bdc565b90925090506111688282613020565b6065546001600160a01b0316331461254a5760405162461bcd60e51b8152600401610de590615674565b6000811180156125645750612561600a6064615aca565b81105b6125a35760405162461bcd60e51b815260206004820152601060248201526f125b9d985b1a5908191a5cd8dbdd5b9d60821b6044820152606401610de5565b60db5460408051918252602082018390527f4cd657fde404967d63a338fb06c5c98751a9df57dfae6dc333a432faf8a5f656910160405180910390a160db55565b6065546001600160a01b0316331461260e5760405162461bcd60e51b8152600401610de590615674565b6001600160a01b0381166126515760405162461bcd60e51b815260206004820152600a60248201526910b732bba5b2b2b832b960b11b6044820152606401610de5565b60d680546001600160a01b0319166001600160a01b0392909216919091179055565b600260015414156126965760405162461bcd60e51b8152600401610de5906156e0565b6002600155806126d55760405162461bcd60e51b815260206004820152600a602482015269216e756d53686172657360b01b6044820152606401610de5565b6123358160006137a1565b6065546001600160a01b0316331461270a5760405162461bcd60e51b8152600401610de590615674565b6001600160a01b0381166127535760405162461bcd60e51b815260206004820152601060248201526f085b995dd19959549958da5c1a595b9d60821b6044820152606401610de5565b60d5546001600160a01b03828116911614156127b15760405162461bcd60e51b815260206004820152601860248201527f4d757374206265206e657720666565526563697069656e7400000000000000006044820152606401610de5565b60d580546001600160a01b0319166001600160a01b0392909216919091179055565b600260015414156127f65760405162461bcd60e51b8152600401610de5906156e0565b600260015560cf546040805160e0810182526001600160a01b037f0000000000000000000000000000000000000000000000000000000000000000811682527f000000000000000000000000000000000000000000000000000000000000000081166020830190815293811682840181815260006060850181815260e4805461ffff9081166080890190815260dd5460a08a0190815260e15460c08b0190815260d85460d75460db549d51635a90235d60e01b8152918c1660048301528b166024820152604481019c909c528a518a1660648d01529b51891660848c0152955190971660a48a0152915160c48901529451169386019390935251610104850152935161012484015260c961014484015260cc610164840152909181908190819073cbD9A79Caa0d354C9119039F5004DbCf23489c9a90635a90235d906101840160806040518083038186803b15801561294e57600080fd5b505af4158015612962573d6000803e3d6000fd5b505050506040513d601f19601f820116820180604052508101906129869190615375565b93509350935093507fa217999b1c125c2a996f712c5f26a28addad7167bd8a67d5bd5b2a751148abb082826040516129c8929190918252602082015260400190565b60405180910390a16129d98361334e565b6001600160681b03831660dc5560ce80546001600160a01b0319166001600160a01b0386161790556000612a0d4282613020565b905063ffffffff811115612a635760405162461bcd60e51b815260206004820152601860248201527f4f766572666c6f77206e6578744f7074696f6e526561647900000000000000006044820152606401610de5565b60cf805463ffffffff60a01b1916600160a01b63ffffffff841602179055612a8a876143ba565b6040516370a0823160e01b815230600482015262989680907f00000000000000000000000000000000000000000000000000000000000000006001600160a01b0316906370a082319060240160206040518083038186803b158015612aee57600080fd5b505afa158015612b02573d6000803e3d6000fd5b505050506040513d601f19601f82011682018060405250810190612b2691906153cf565b1115612b3457612b346139ec565b5050600180555050505050565b6065546001600160a01b03163314612b6b5760405162461bcd60e51b8152600401610de590615674565b6001600160a01b038116612bd05760405162461bcd60e51b815260206004820152602660248201527f4f776e61626c653a206e6577206f776e657220697320746865207a65726f206160448201526564647265737360d01b6064820152608401610de5565b612bd981613950565b50565b6001600160a01b038116600090815260d0602090815260408083208151606081018352905461ffff81168083526201000082046001600160681b031694830194909452600160781b90046001600160801b031691810191909152829160011115612c5e575050506001600160a01b031660009081526097602052604081205491565b60cc54815161ffff908116600090815260d1602052604081205460c9549193612c9493869391169190610100900460ff16614526565b9050612cb5856001600160a01b031660009081526097602052604090205490565b9590945092505050565b60026001541415612ce25760405162461bcd60e51b8152600401610de5906156e0565b60026001556000612cf1614597565b60e054909150612d01908261302c565b6001600160801b031660e0555060018055565b6065546001600160a01b03163314612d3e5760405162461bcd60e51b8152600401610de590615674565b60026001541415612d615760405162461bcd60e51b8152600401610de5906156e0565b600260015580612da75760405162461bcd60e51b8152602060048201526011602482015270216e65774d61784465706f7369746f727360781b6044820152606401610de5565b60e25560018055565b6065546001600160a01b03163314612dda5760405162461bcd60e51b8152600401610de590615674565b612de8620f42406064615aca565b8110612e2f5760405162461bcd60e51b8152602060048201526016602482015275496e76616c6964206d616e6167656d656e742066656560501b6044820152606401610de5565b612e38816134f1565b60da81905560408051918252602082018390527f4e874b007ab14f7e263baefd44951834c8266f4f224d1092e49e9c254354cc54910160405180910390a150565b6001600160a01b038316612edb5760405162461bcd60e51b8152602060048201526024808201527f45524332303a20617070726f76652066726f6d20746865207a65726f206164646044820152637265737360e01b6064820152608401610de5565b6001600160a01b038216612f3c5760405162461bcd60e51b815260206004820152602260248201527f45524332303a20617070726f766520746f20746865207a65726f206164647265604482015261737360f01b6064820152608401610de5565b6001600160a01b0383811660008181526098602090815260408083209487168084529482529182902085905590518481527f8c5be1e5ebec7d5bd14f71427d1e84f3dd0314c0f7b2291e5b200ac8c7c3b92591015b60405180910390a3505050565b6001600160a01b038216301480612fbd57506001600160a01b03831630145b6130155760405162461bcd60e51b8152602060048201526024808201527f54726561737572792072546f6b656e206973206e6f74207472616e736665727260448201526361626c6560e01b6064820152608401610de5565b61165e838383614754565b6000610e0182846159b3565b6000610e018284615b0c565b60d480546001600160a01b038316600090815260d3602052604090205460ff166130a45760405162461bcd60e51b815260206004820152601860248201527f4465706f7369746f7220646f6573206e6f7420657869737400000000000000006044820152606401610de5565b6001600160a01b038316600090815260d360205260408120805460ff191690555b6130d0600183615b0c565b811015613243578281815481106130f757634e487b7160e01b600052603260045260246000fd5b6000918252602090912001546001600160a01b03858116911614156132315782613122600184615b0c565b8154811061314057634e487b7160e01b600052603260045260246000fd5b9060005260206000200160009054906101000a90046001600160a01b031683828154811061317e57634e487b7160e01b600052603260045260246000fd5b9060005260206000200160009054906101000a90046001600160a01b03168483815481106131bc57634e487b7160e01b600052603260045260246000fd5b6000918252602082200190866131d3600188615b0c565b815481106131f157634e487b7160e01b600052603260045260246000fd5b600091825260209091200180546001600160a01b039485166001600160a01b031990911617905581549383166101009190910a9081029202199092161790555b8061323b81615b8a565b9150506130c5565b508180548061326257634e487b7160e01b600052603160045260246000fd5b600082815260209020810160001990810180546001600160a01b0319169055019055505050565b60c9546201000090046001600160a01b031661165e818484614922565b6000806132b483600a615a22565b9050600086116132c457806132e2565b6132e2866132dc6132d5888861302c565b8490614952565b9061495e565b9695505050505050565b6000600183116133365760405162461bcd60e51b8152602060048201526015602482015274496e76616c6964206173736574506572536861726560581b6044820152606401610de5565b61116861334483600a615a22565b6132dc8686614952565b6001600160681b03811115612bd95760405162461bcd60e51b815260206004820152601060248201526f13dd995c999b1bddc81d5a5b9d0c4c0d60821b6044820152606401610de5565b600054610100900460ff16806133b1575060005460ff16155b6133cd5760405162461bcd60e51b8152600401610de590615626565b600054610100900460ff161580156133ef576000805461ffff19166101011790555b6133f761496a565b8015612bd9576000805461ff001916905550565b600054610100900460ff1680613424575060005460ff16155b6134405760405162461bcd60e51b8152600401610de590615626565b600054610100900460ff16158015613462576000805461ffff19166101011790555b61346a6149d9565b6134748383614a43565b801561165e576000805461ff0019169055505050565b600054610100900460ff16806134a3575060005460ff16155b6134bf5760405162461bcd60e51b8152600401610de590615626565b600054610100900460ff161580156134e1576000805461ffff19166101011790555b6134e96149d9565b6133f7614ad8565b60e15460009081613503601e83615ba5565b15613526576135136007836159cb565b6135219063031ba3096159cb565b613549565b613531601e836159cb565b61353c90600c6159cb565b61354990620f4240615aca565b9050611168816132dc86620f4240614952565b6040805160c081018252600080825260208201819052918101829052606081018290526080810182905260a081019190915260dc54806135d65760405162461bcd60e51b81526020600482015260156024820152742163757272656e744f746f6b656e5072656d69756d60581b6044820152606401610de5565b60007f00000000000000000000000000000000000000000000000000000000000000006001600160a01b031663313ce5676040518163ffffffff1660e01b815260040160206040518083038186803b15801561363157600080fd5b505afa158015613645573d6000803e3d6000fd5b505050506040513d601f19601f8201168201806040525081019061366991906154db565b60cf546001600160a01b0390811685527f00000000000000000000000000000000000000000000000000000000000000008116602086019081527f00000000000000000000000000000000000000000000000000000000000000008216604080880191825260ff94909416606088018181526080890188815260de5460a08b019081529651633baf17fd60e21b81528a51871660048201529451861660248601529251909416604484015292516064830152516084820152915160a4830152915073cbD9A79Caa0d354C9119039F5004DbCf23489c9a9063eebc5ff49060c40160206040518083038186803b15801561376157600080fd5b505af4158015613775573d6000803e3d6000fd5b505050506040513d601f19601f8201168201806040525081019061379991906153cf565b60df55505050565b33600090815260d0602090815260408083208151606081018352905461ffff8082168084526201000083046001600160681b031684870152600160781b9092046001600160801b03168385015260cc5491865260d19094529184205460c9549194929093169261381c9185918591610100900460ff16614526565b905083613829578461382b565b805b945084613839575050505050565b8085111561387d5760405162461bcd60e51b81526020600482015260116024820152704578636565647320617661696c61626c6560781b6044820152606401610de5565b825161ffff168211156138aa5733600090815260d060205260409020805462010000600160781b03191690555b6138b3856139a2565b6138bd818661302c565b33600081815260d060205260409081902080546001600160801b0394909416600160781b02600160781b600160f81b0319909416939093179092558451915190917fe5b754fb1abb7f01b499791d0b820ae3b6af3424ac1c59768edb53f4ec31a929916139369189825261ffff16602082015260400190565b60405180910390a2613949303387612f9e565b5050505050565b606580546001600160a01b038381166001600160a01b0319831681179093556040519116919082907f8be0079c531659141344cd1fd0a4f28419497f9722a3daafe3b4186f6b6457e090600090a35050565b6001600160801b03811115612bd95760405162461bcd60e51b815260206004820152601060248201526f09eeccae4ccd8deee40ead2dce86264760831b6044820152606401610de5565b6040516370a0823160e01b81523060048201527f0000000000000000000000000000000000000000000000000000000000000000906000906001600160a01b038316906370a082319060240160206040518083038186803b158015613a5057600080fd5b505afa158015613a64573d6000803e3d6000fd5b505050506040513d601f19601f82011682018060405250810190613a8891906153cf565b905060008111613ada5760405162461bcd60e51b815260206004820152601860248201527f6e6f207072656d69756d20746f206469737472696275746500000000000000006044820152606401610de5565b613ae48282614b38565b6040516370a0823160e01b8152306004820152613b669083906001600160a01b038216906370a082319060240160206040518083038186803b158015613b2957600080fd5b505afa158015613b3d573d6000803e3d6000fd5b505050506040513d601f19601f82011682018060405250810190613b6191906153cf565b614bde565b5050565b604051632e99361160e01b8152600481018290526001600160a01b03831690632e99361190602401602060405180830381600087803b158015613bac57600080fd5b505af1158015613bc0573d6000803e3d6000fd5b505050506040513d601f19601f8201168201806040525081019061165e91906153cf565b6001600160a01b038116600090815260d3602052604090205460ff16612bd9576001600160a01b038116613c535760405162461bcd60e51b815260206004820152601660248201527511195c1bdcda5d1bdc881859191c995cdcc81b9d5b1b60521b6044820152606401610de5565b60e25460d454613c649060016159b3565b1115613cbd5760405162461bcd60e51b815260206004820152602260248201527f4e756d626572206f66206465706f7369746f72732065786365656473206c696d6044820152611a5d60f21b6064820152608401610de5565b6001600160a01b0316600081815260d360205260408120805460ff1916600190811790915560d4805491820181559091527f9780e26d96b1f2a9a18ef8fc72d589dbf03ef788137b64f43897e83a91e7feec0180546001600160a01b0319169091179055565b60cc5461ffff166000613d3884610f21612206565b6001600160a01b038416600090815260d0602090815260408083208151606081018352905461ffff811682526201000081046001600160681b0316938201849052600160781b90046001600160801b031691810191909152929350613da4908790610f2190813361111d565b60cb549091506001600160681b0316831115613def5760405162461bcd60e51b815260206004820152600a6024820152690457863656564206361760b41b6044820152606401610de5565b60ca54600160a01b900466ffffffffffffff16831015613e485760405162461bcd60e51b8152602060048201526014602482015273496e73756666696369656e742062616c616e636560601b6044820152606401610de5565b60e354811015613e6a5760405162461bcd60e51b8152600401610de5906156a9565b60408051878152602081018690526001600160a01b038716917f90890809c654f11d6e72a28fa60149770a0d11ec6c92319d6ceb2bb0a4ea1a15910160405180910390a2815161ffff16600090815260d1602052604081205460c954613edc918591889190610100900460ff16614526565b8351909150879061ffff16861415613f0d576020840151600090613f09906001600160681b03168a613020565b9150505b613f168161334e565b6040805160608101825261ffff80891682526001600160681b0380851660208085019182526001600160801b038089168688019081526001600160a01b038f16600090815260d090935296822095518654935197518216600160781b02600160781b600160f81b03199890951662010000026effffffffffffffffffffffffffffff1990941695169490941791909117949094161790915560cd54613fbc91168a613020565b9050613fc7816139a2565b60cd80546001600160801b0319166001600160801b03929092169190911790555050505050505050565b6040516001600160a01b038085166024830152831660448201526064810182905261405c9085906323b872dd60e01b906084015b60408051601f198184030181529190526020810180516001600160e01b03166001600160e01b031990931692909217909152614d8c565b50505050565b60cf5460009081908190600160a01b900463ffffffff164210156140b15760405162461bcd60e51b815260206004820152600660248201526521726561647960d01b6044820152606401610de5565b60ce546001600160a01b03169250826140fa5760405162461bcd60e51b815260206004820152600b60248201526a10b732bc3a27b83a34b7b760a91b6044820152606401610de5565b60cc805460d5546040805160a08101825260c954610100810460ff16825291516370a0823160e01b815230600482015261ffff909416946001600160a01b03938416946000948594859473cbD9A79Caa0d354C9119039F5004DbCf23489c9a9463686fb2f2949093919260208401926201000090910416906370a082319060240160206040518083038186803b15801561419357600080fd5b505afa1580156141a7573d6000803e3d6000fd5b505050506040513d601f19601f820116820180604052508101906141cb91906153cf565b81526020016141d960995490565b81526020018d815260200189600114156141f45760006141f8565b60da545b9052604080516001600160e01b031960e086901b168152600481019390935281516024840152602082015160448401528101516064830152606081015160848301526080015160a482015260c40160a06040518083038186803b15801561425e57600080fd5b505af4158015614272573d6000803e3d6000fd5b505050506040513d601f19601f820116820180604052508101906142969190615482565b809650819750829550839a50849b5050505050508760ce60010160006101000a8154816001600160a01b0302191690836001600160a01b03160217905550600060ce60000160006101000a8154816001600160a01b0302191690836001600160a01b031602179055508060d1600087815260200190815260200160002081905550836001600160a01b03167fd42b93f751df91c40b94860a26f5e43b9fc78089c1e3df5d4602eee07009e5c6838760405161435b929190918252602082015260400190565b60405180910390a260cd80546001600160801b031916905561437e8560016159b3565b60cc805461ffff191661ffff929092169190911790555061439f3083614e5e565b80156143af576143af8382613289565b505050509193909250565b60cc546201000090046001600160681b03166001600160a01b038216156144005760cc8054600160781b600160e01b031916600160781b6001600160681b038416021790555b60cc805462010000600160781b031916905560cf80546001600160a01b03191690556001600160a01b03821615613b6657604051636c6fe87f60e11b81526001600160a01b037f000000000000000000000000000000000000000000000000000000000000000016600482015260009073cbD9A79Caa0d354C9119039F5004DbCf23489c9a9063d8dfd0fe9060240160206040518083038186803b1580156144a757600080fd5b505af41580156144bb573d6000803e3d6000fd5b505050506040513d601f19601f820116820180604052508101906144df91906153cf565b9050336001600160a01b0316836001600160a01b03167f7e830f7c1771deb1bdb35c4a7e6051bbac32b376f7f4e4976b8618b0b11997f783604051612f9191815260200190565b835160009061ffff16158015906145415750845161ffff1684115b1561458357600061456086602001516001600160681b03168585614f3d565b604087015190915061457b906001600160801b031682613020565b915050611168565b50505050604001516001600160801b031690565b33600090815260d26020526040812080546001600160801b03620100008204169061ffff16816145f95760405162461bcd60e51b815260206004820152600d60248201526c139bdd081a5b9a5d1a585d1959609a1b6044820152606401610de5565b60cc5461ffff1681106146415760405162461bcd60e51b815260206004820152601060248201526f149bdd5b99081b9bdd0818db1bdcd95960821b6044820152606401610de5565b33600090815260d260205260409020805462010000600160901b031916905560cd5461467d90600160801b90046001600160801b03168361302c565b60cd80546001600160801b03928316600160801b029216919091179055600081815260d1602052604081205460c9546146c091859160ff610100909104166132ec565b604080518281526020810186905291925033917ff279e6a1f5e320cca91135676d9cb6e44ca8a08c0b88342bcdb1144f6511b568910160405180910390a26147083084614fa0565b6000811161474a5760405162461bcd60e51b815260206004820152600f60248201526e085dda5d1a191c985dd05b5bdd5b9d608a1b6044820152606401610de5565b6111683382613289565b6001600160a01b0383166147b85760405162461bcd60e51b815260206004820152602560248201527f45524332303a207472616e736665722066726f6d20746865207a65726f206164604482015264647265737360d81b6064820152608401610de5565b6001600160a01b03821661481a5760405162461bcd60e51b815260206004820152602360248201527f45524332303a207472616e7366657220746f20746865207a65726f206164647260448201526265737360e81b6064820152608401610de5565b6001600160a01b038316600090815260976020526040902054818110156148925760405162461bcd60e51b815260206004820152602660248201527f45524332303a207472616e7366657220616d6f756e7420657863656564732062604482015265616c616e636560d01b6064820152608401610de5565b6001600160a01b038085166000908152609760205260408082208585039055918516815290812080548492906148c99084906159b3565b92505081905550826001600160a01b0316846001600160a01b03167fddf252ad1be2c89b69c2b068fc378daa952ba7f163c4a11628f55a4df523b3ef8460405161491591815260200190565b60405180910390a361405c565b6040516001600160a01b03831660248201526044810182905261165e90849063a9059cbb60e01b90606401614025565b6000610e018284615aca565b6000610e0182846159cb565b600054610100900460ff1680614983575060005460ff16155b61499f5760405162461bcd60e51b8152600401610de590615626565b600054610100900460ff161580156149c1576000805461ffff19166101011790555b600180558015612bd9576000805461ff001916905550565b600054610100900460ff16806149f2575060005460ff16155b614a0e5760405162461bcd60e51b8152600401610de590615626565b600054610100900460ff161580156133f7576000805461ffff19166101011790558015612bd9576000805461ff001916905550565b600054610100900460ff1680614a5c575060005460ff16155b614a785760405162461bcd60e51b8152600401610de590615626565b600054610100900460ff16158015614a9a576000805461ffff19166101011790555b8251614aad90609a9060208601906151f9565b508151614ac190609b9060208501906151f9565b50801561165e576000805461ff0019169055505050565b600054610100900460ff1680614af1575060005460ff16155b614b0d5760405162461bcd60e51b8152600401610de590615626565b600054610100900460ff16158015614b2f576000805461ffff19166101011790555b6133f733613950565b60d5546001600160a01b03166000614b65614b57620f42406064615aca565b60d9546132dc908690614952565b9050614b7b6001600160a01b0385168383614922565b60cc546001600160a01b038316907f8df5f80a19898219351b3c8e70c8cffe1adc78e2394d21dc2da56a39e5dabfe8908390614bbd9060019061ffff16615ae9565b6040805192835261ffff90911660208301520160405180910390a250505050565b60d4805460009067ffffffffffffffff811115614c0b57634e487b7160e01b600052604160045260246000fd5b604051908082528060200260200182016040528015614c34578160200160208202803683370190505b509050600060e054614c4560995490565b614c4f9190615b0c565b905060005b8354811015614d31576000848281548110614c7f57634e487b7160e01b600052603260045260246000fd5b6000918252602090912001546001600160a01b03169050614cad836132dc88614ca785612503565b90614952565b848381518110614ccd57634e487b7160e01b600052603260045260246000fd5b602002602001018181525050614d1e81858481518110614cfd57634e487b7160e01b600052603260045260246000fd5b6020026020010151896001600160a01b03166149229092919063ffffffff16565b5080614d2981615b8a565b915050614c54565b5060cc547fe55fc5ddbb2bfc597b0e1d510ece6ff2733bd909a81db6e2b6e092aeda7af1c390859084908690614d6d9060019061ffff16615ae9565b604051614d7d9493929190615888565b60405180910390a15050505050565b6000614de1826040518060400160405280602081526020017f5361666545524332303a206c6f772d6c6576656c2063616c6c206661696c6564815250856001600160a01b03166150ee9092919063ffffffff16565b80519091501561165e5780806020019051810190614dff91906153b3565b61165e5760405162461bcd60e51b815260206004820152602a60248201527f5361666545524332303a204552433230206f7065726174696f6e20646964206e6044820152691bdd081cdd58d8d9595960b21b6064820152608401610de5565b6001600160a01b038216614eb45760405162461bcd60e51b815260206004820152601f60248201527f45524332303a206d696e7420746f20746865207a65726f2061646472657373006044820152606401610de5565b8060996000828254614ec691906159b3565b90915550506001600160a01b03821660009081526097602052604081208054839290614ef39084906159b3565b90915550506040518181526001600160a01b038316906000907fddf252ad1be2c89b69c2b068fc378daa952ba7f163c4a11628f55a4df523b3ef9060200160405180910390a35050565b600060018311614f875760405162461bcd60e51b8152602060048201526015602482015274496e76616c6964206173736574506572536861726560581b6044820152606401610de5565b611168836132dc614f9985600a615a22565b8790614952565b6001600160a01b0382166150005760405162461bcd60e51b815260206004820152602160248201527f45524332303a206275726e2066726f6d20746865207a65726f206164647265736044820152607360f81b6064820152608401610de5565b6001600160a01b038216600090815260976020526040902054818110156150745760405162461bcd60e51b815260206004820152602260248201527f45524332303a206275726e20616d6f756e7420657863656564732062616c616e604482015261636560f01b6064820152608401610de5565b6001600160a01b03831660009081526097602052604081208383039055609980548492906150a3908490615b0c565b90915550506040518281526000906001600160a01b038516907fddf252ad1be2c89b69c2b068fc378daa952ba7f163c4a11628f55a4df523b3ef9060200160405180910390a3505050565b6060611168848460008585843b6151475760405162461bcd60e51b815260206004820152601d60248201527f416464726573733a2063616c6c20746f206e6f6e2d636f6e74726163740000006044820152606401610de5565b600080866001600160a01b0316858760405161516391906155b6565b60006040518083038185875af1925050503d80600081146151a0576040519150601f19603f3d011682016040523d82523d6000602084013e6151a5565b606091505b50915091506151b58282866151c0565b979650505050505050565b606083156151cf575081610e01565b8251156151df5782518084602001fd5b8160405162461bcd60e51b8152600401610de591906155d2565b82805461520590615b4f565b90600052602060002090601f016020900481019282615227576000855561526d565b82601f1061524057805160ff191683800117855561526d565b8280016001018555821561526d579182015b8281111561526d578251825591602001919060010190615252565b5061527992915061527d565b5090565b5b80821115615279576000815560010161527e565b803561529d81615d1d565b919050565b803563ffffffff8116811461529d57600080fd5b6000602082840312156152c7578081fd5b8135610e0181615d1d565b600080604083850312156152e4578081fd5b82356152ef81615d1d565b915060208301356152ff81615d1d565b809150509250929050565b60008060006060848603121561531e578081fd5b833561532981615d1d565b9250602084013561533981615d1d565b929592945050506040919091013590565b6000806040838503121561535c578182fd5b823561536781615d1d565b946020939093013593505050565b6000806000806080858703121561538a578081fd5b845161539581615d1d565b60208601516040870151606090970151919890975090945092505050565b6000602082840312156153c4578081fd5b8151610e0181615d32565b6000602082840312156153e0578081fd5b5051919050565b60008082840360e08112156153fa578283fd5b833567ffffffffffffffff811115615410578384fd5b84016101c08187031215615422578384fd5b925060c0601f1982011215615435578182fd5b506020830190509250929050565b600060208284031215615454578081fd5b81356001600160801b0381168114610e01578182fd5b60006020828403121561547b578081fd5b5035919050565b600080600080600060a08688031215615499578283fd5b5050835160208501516040860151606087015160809097015192989197509594509092509050565b6000602082840312156154d2578081fd5b610e01826152a2565b6000602082840312156154ec578081fd5b8151610e0181615d6a565b81835281816020850137506000828201602090810191909152601f909101601f19169091010190565b803561552b81615d32565b15158252602081013561553d81615d6a565b60ff166020830152604081013561555381615d1d565b6001600160a01b03908116604084015260608201359061557282615d1d565b166060830152608081013561558681615d55565b66ffffffffffffff16608083015260a08101356155a281615d40565b6001600160681b03811660a0840152505050565b600082516155c8818460208701615b23565b9190910192915050565b60208152600082518060208401526155f1816040850160208701615b23565b601f01601f19169190910160400192915050565b60208082526007908201526610b5b2b2b832b960c91b604082015260600190565b6020808252602e908201527f496e697469616c697a61626c653a20636f6e747261637420697320616c72656160408201526d191e481a5b9a5d1a585b1a5e995960921b606082015260800190565b6020808252818101527f4f776e61626c653a2063616c6c6572206973206e6f7420746865206f776e6572604082015260600190565b6020808252601b908201527f4d696e696d756d206465706f736974206e6f7420726561636865640000000000604082015260600190565b6020808252601f908201527f5265656e7472616e637947756172643a207265656e7472616e742063616c6c00604082015260600190565b600061010080835261573b81840161572e88615292565b6001600160a01b03169052565b61574760208701615292565b61012061575e818601836001600160a01b03169052565b61576a60408901615292565b9150610140615783818701846001600160a01b03169052565b610160925060608901358387015261018060808a0135818801526157aa60a08b018b61596e565b6101c06101a081818c01526157c46102c08c0184866154f7565b93506157d360c08f018f61596e565b8c860360ff1901848e015293506157eb8585836154f7565b9450506157fa60e08f01615292565b6001600160a01b0381166101e08d01529250615817898f01615292565b6001600160a01b0381166102008d01529850615834878f016152a2565b63ffffffff166102208c0152948d01356102408b01525050938a01356102608801528901356102808701528801356102a086015250915061587a90506020830185615520565b8260e0830152949350505050565b600060808201868352602060808185015281875180845260a0860191508289019350845b818110156158c8578451835293830193918301916001016158ac565b5050848103604086015286548082528785528285209183019350845b818110156159095782546001600160a01b0316855293830193600192830192016158e4565b50505061ffff8516606085015250905095945050505050565b6000808335601e19843603018112615938578283fd5b83018035915067ffffffffffffffff821115615952578283fd5b60200191503681900382131561596757600080fd5b9250929050565b6000808335601e19843603018112615984578283fd5b830160208101925035905067ffffffffffffffff8111156159a457600080fd5b80360383131561596757600080fd5b600082198211156159c6576159c6615bb9565b500190565b6000826159da576159da615bcf565b500490565b600181815b80851115615a1a578160001904821115615a0057615a00615bb9565b80851615615a0d57918102915b93841c93908002906159e4565b509250929050565b6000610e018383600082615a3857506001610d51565b81615a4557506000610d51565b8160018114615a5b5760028114615a6557615a81565b6001915050610d51565b60ff841115615a7657615a76615bb9565b50506001821b610d51565b5060208310610133831016604e8410600b8410161715615aa4575081810a610d51565b615aae83836159df565b8060001904821115615ac257615ac2615bb9565b029392505050565b6000816000190483118215151615615ae457615ae4615bb9565b500290565b600061ffff83811690831681811015615b0457615b04615bb9565b039392505050565b600082821015615b1e57615b1e615bb9565b500390565b60005b83811015615b3e578181015183820152602001615b26565b8381111561405c5750506000910152565b600181811c90821680615b6357607f821691505b60208210811415615b8457634e487b7160e01b600052602260045260246000fd5b50919050565b6000600019821415615b9e57615b9e615bb9565b5060010190565b600082615bb457615bb4615bcf565b500690565b634e487b7160e01b600052601160045260246000fd5b634e487b7160e01b600052601260045260246000fd5b60008135610d5181615d1d565b60008135610d5181615d40565b60008135610d5181615d55565b8135615c1781615d32565b815460ff19811691151560ff1691821783556020840135615c3781615d6a565b61ff008160081b169050808361ffff198416171784556040850135615c5b81615d1d565b6001600160b01b0319929092169092179190911760109190911b62010000600160b01b031617815560018101615cb3615c9660608501615be5565b82546001600160a01b0319166001600160a01b0391909116178255565b615cec615cc260808501615bff565b82805466ffffffffffffff60a01b191660a09290921b66ffffffffffffff60a01b16919091179055565b50613b66615cfc60a08401615bf2565b600283016001600160681b0382166001600160681b03198254161781555050565b6001600160a01b0381168114612bd957600080fd5b8015158114612bd957600080fd5b6001600160681b0381168114612bd957600080fd5b66ffffffffffffff81168114612bd957600080fd5b60ff81168114612bd957600080fdfea26469706673582212201eda2bfe5ea05d07421db35420724a3ec7bb82f0f2bed92622d60e842aa4984664736f6c63430008040033",
  "deployedBytecode": "0x608060405234801561001057600080fd5b506004361061048b5760003560e01c80638b10cc7c11610262578063afa6626411610151578063e73c63d5116100ce578063f656ba5111610092578063f656ba5114610c22578063f756fa2114610c4a578063f79d8d1214610c52578063f957a06714610c75578063fc29738014610c88578063fe56e23214610c9b57600080fd5b8063e73c63d514610be2578063e74b981b14610beb578063ea00b1ca14610bfe578063ef78d4fd14610c06578063f2fde38b14610c0f57600080fd5b8063d164cc1511610115578063d164cc1514610b53578063d5f2638214610b66578063db006a7514610b6f578063db43e86214610b82578063dd62ed3e14610ba957600080fd5b8063afa6626414610aff578063b6b55f2514610b12578063b9f8092b14610b25578063ce7c2ac214610b2d578063d13f1b3e14610b4057600080fd5b8063a083ff17116101df578063a6f7f5d6116101a3578063a6f7f5d614610aa1578063a9059cbb14610aaa578063aced166114610abd578063ad5c464814610ad0578063ad7a672f14610af757600080fd5b8063a083ff17146109ff578063a285c9e814610a55578063a2db9d8314610a6a578063a457c2d714610a7b578063a497e67414610a8e57600080fd5b8063990c561011610226578063990c56101461093457806399530b061461093c5780639b2e601b146109445780639be43daa1461094d5780639fcc2d751461096057600080fd5b80638b10cc7c146108ef5780638da5cb5b146109005780638fcc9cfb1461091157806395d89b411461092457806396d2a76b1461092c57600080fd5b80634af96d291161037e5780636f31ab34116102fb5780637e108d52116102bf5780637e108d521461088357806383536ff31461089657806387153eb11461089f57806387788782146108bf57806389a30271146108c857600080fd5b80636f31ab34146107e057806370897b23146107e857806370a08231146107fb578063715018a6146108245780637a9262a21461082c57600080fd5b8063650cce8a11610342578063650cce8a1461070b5780636719b2ee1461073257806369b41170146107a95780636b64c769146107b15780636c10f66c146107b957600080fd5b80634af96d29146106c1578063503c70aa146106d457806355489bb2146106dd578063600a2cfb146106f0578063601d6ba9146106f857600080fd5b8063355274ea1161040c57806341b3d185116103d057806341b3d18514610676578063432833a61461067f5780634603c0aa14610688578063469048401461069b57806347786d37146106ae57600080fd5b8063355274ea1461060d578063395093511461061e5780633ec143d3146106315780633f23bb73146106525780633f90916a1461066557600080fd5b806323b872dd1161045357806323b872dd1461052f5780632728f333146105425780632775d01c146105c857806330630da4146105dd578063313ce567146105f057600080fd5b806306fdde0314610490578063095ea7b3146104ae5780630cbf54c8146104d157806318160ddd146104e85780631a92f6c2146104f0575b600080fd5b610498610cae565b6040516104a591906155d2565b60405180910390f35b6104c16104bc36600461534a565b610d40565b60405190151581526020016104a5565b6104da60de5481565b6040519081526020016104a5565b6099546104da565b6105177f000000000000000000000000000000000000000000000000000000000000000081565b6040516001600160a01b0390911681526020016104a5565b6104c161053d36600461530a565b610d57565b60cc5460cd546105839161ffff8116916001600160681b03620100008304811692600160781b900416906001600160801b0380821691600160801b90041685565b6040805161ffff90961686526001600160681b03948516602087015293909216928401929092526001600160801b03918216606084015216608082015260a0016104a5565b6105db6105d636600461546a565b610e08565b005b6105db6105eb3660046152b6565b611049565b60c954610100900460ff1660405160ff90911681526020016104a5565b60cb546001600160681b03166104da565b6104c161062c36600461534a565b6110e1565b60e45461063f9061ffff1681565b60405161ffff90911681526020016104a5565b6104da6106603660046152b6565b61111d565b60cd546001600160801b03166104da565b6104da60e35481565b6104da60df5481565b6105db6106963660046152b6565b611170565b60d554610517906001600160a01b031681565b6105db6106bc36600461546a565b611212565b6105db6106cf3660046153e7565b6112ed565b6104da60e05481565b6105db6106eb366004615443565b611663565b6105db611724565b61051761070636600461546a565b61187f565b6105177f000000000000000000000000000000000000000000000000000000000000000081565b6107786107403660046152b6565b60d06020526000908152604090205461ffff8116906201000081046001600160681b031690600160781b90046001600160801b031683565b6040805161ffff90941684526001600160681b0390921660208401526001600160801b0316908201526060016104a5565b6104da600081565b6105db6118a9565b6105177f000000000000000000000000000000000000000000000000000000000000000081565b6105db611909565b6105db6107f636600461546a565b611940565b6104da6108093660046152b6565b6001600160a01b031660009081526097602052604090205490565b6105db611a07565b61086161083a3660046152b6565b60d26020526000908152604090205461ffff8116906201000090046001600160801b031682565b6040805161ffff90931683526001600160801b039091166020830152016104a5565b6105db61089136600461546a565b611a3d565b6104da60db5481565b6104da6108ad36600461546a565b60d16020526000908152604090205481565b6104da60d95481565b6105177f000000000000000000000000000000000000000000000000000000000000000081565b60cf546001600160a01b0316610517565b6065546001600160a01b0316610517565b6105db61091f36600461546a565b611d43565b610498611ddc565b6105db611deb565b6105db611e45565b6104da611f6f565b6104da60e25481565b6105db61095b36600461546a565b611fa9565b60c95460ca5460cb546109af9260ff808216936101008304909116926001600160a01b036201000090930483169282169166ffffffffffffff600160a01b90910416906001600160681b031686565b60408051961515875260ff90951660208701526001600160a01b03938416948601949094529116606084015266ffffffffffffff1660808301526001600160681b031660a082015260c0016104a5565b60ce5460cf54610a29916001600160a01b039081169190811690600160a01b900463ffffffff1683565b604080516001600160a01b03948516815293909216602084015263ffffffff16908201526060016104a5565b60cf54600160a01b900463ffffffff166104da565b60ce546001600160a01b0316610517565b6104c1610a8936600461534a565b6120a3565b6105db610a9c36600461546a565b61213c565b6104da60da5481565b6104c1610ab836600461534a565b6121f9565b60d654610517906001600160a01b031681565b6105177f000000000000000000000000000000000000000000000000000000000000000081565b6104da612206565b60d754610517906001600160a01b031681565b6105db610b2036600461546a565b6122a5565b6105db61233c565b6104da610b3b3660046152b6565b612503565b6105db610b4e36600461546a565b612520565b6105db610b613660046152b6565b6125e4565b6104da60dc5481565b6105db610b7d36600461546a565b612673565b6105177f000000000000000000000000000000000000000000000000000000000000000081565b6104da610bb73660046152d2565b6001600160a01b03918216600090815260986020908152604080832093909416825291909152205490565b6104da60dd5481565b6105db610bf93660046152b6565b6126e0565b6105db6127d3565b6104da60e15481565b6105db610c1d3660046152b6565b612b41565b610c35610c303660046152b6565b612bdc565b604080519283526020830191909152016104a5565b6105db612cbf565b6104c1610c603660046152b6565b60d36020526000908152604090205460ff1681565b60d854610517906001600160a01b031681565b6105db610c9636600461546a565b612d14565b6105db610ca936600461546a565b612db0565b6060609a8054610cbd90615b4f565b80601f0160208091040260200160405190810160405280929190818152602001828054610ce990615b4f565b8015610d365780601f10610d0b57610100808354040283529160200191610d36565b820191906000526020600020905b815481529060010190602001808311610d1957829003601f168201915b5050505050905090565b6000610d4d338484612e79565b5060015b92915050565b6000610d64848484612f9e565b6001600160a01b038416600090815260986020908152604080832033845290915290205482811015610dee5760405162461bcd60e51b815260206004820152602860248201527f45524332303a207472616e7366657220616d6f756e74206578636565647320616044820152676c6c6f77616e636560c01b60648201526084015b60405180910390fd5b610dfb8533858403612e79565b60019150505b9392505050565b60026001541415610e2b5760405162461bcd60e51b8152600401610de5906156e0565b600260015533600090815260d06020526040902060cc5461ffff1682610e7d5760405162461bcd60e51b815260206004820152600760248201526608585b5bdd5b9d60ca1b6044820152606401610de5565b815461ffff168114610ec15760405162461bcd60e51b815260206004820152600d60248201526c125b9d985b1a59081c9bdd5b99609a1b6044820152606401610de5565b81546201000090046001600160681b031683811015610f125760405162461bcd60e51b815260206004820152600d60248201526c115e18d9595908185b5bdd5b9d609a1b6044820152606401610de5565b6000610f2782610f213361111d565b90613020565b905084811115610f63576000610f3d828761302c565b905060e354811015610f615760405162461bcd60e51b8152600401610de5906156a9565b505b610f6d828661302c565b84546001600160681b0391909116620100000262010000600160781b031990911617845560cd54610fa7906001600160801b03168661302c565b60cd80546001600160801b0319166001600160801b0392909216919091179055604080518681526020810185905233917fab2daf3c146ca6416cbccd2a86ed2ba995e171ef6319df14a38aef01403a9c96910160405180910390a283546201000090046001600160681b0316158015611026575061102433612503565b155b156110345761103433613038565b61103e3386613289565b505060018055505050565b6065546001600160a01b031633146110735760405162461bcd60e51b8152600401610de590615674565b6001600160a01b0381166110bf5760405162461bcd60e51b815260206004820152601360248201527210b732bba9ba3934b5b2a9b2b632b1ba34b7b760691b6044820152606401610de5565b60d880546001600160a01b0319166001600160a01b0392909216919091179055565b3360008181526098602090815260408083206001600160a01b03871684529091528120549091610d4d9185906111189086906159b3565b612e79565b60c95460009060ff610100909104168161115361113960995490565b611141612206565b60cd546001600160801b0316856132a6565b905061116861116185612503565b82846132ec565b949350505050565b6065546001600160a01b0316331461119a5760405162461bcd60e51b8152600401610de590615674565b6001600160a01b0381166111f05760405162461bcd60e51b815260206004820152601860248201527f216e65774f7074696f6e735072656d69756d50726963657200000000000000006044820152606401610de5565b60d780546001600160a01b0319166001600160a01b0392909216919091179055565b6065546001600160a01b0316331461123c5760405162461bcd60e51b8152600401610de590615674565b600081116112765760405162461bcd60e51b81526020600482015260076024820152660216e65774361760cc1b6044820152606401610de5565b61127f8161334e565b60cb54604080516001600160681b039092168252602082018390527f5f86edbb9d92228a9edc3f0ebc0f001bda1ea345ac7335e0eeef3504b31d1a1c910160405180910390a160cb80546cffffffffffffffffffffffffff19166001600160681b0392909216919091179055565b600054610100900460ff1680611306575060005460ff16155b6113225760405162461bcd60e51b8152600401610de590615626565b600054610100900460ff16158015611344576000805461ffff19166101011790555b6040516384d831a960e01b815273__$2add4d7dc049a04eb39d7a027f8b2a511e$__906384d831a990611381908690869061012c90600401615717565b60006040518083038186803b15801561139957600080fd5b505af41580156113ad573d6000803e3d6000fd5b505050506113b9613398565b6114456113c960a0850185615922565b8080601f01602080910402602001604051908101604052809392919081815260200183838082843760009201919091525061140b9250505060c0860186615922565b8080601f01602080910402602001604051908101604052809392919081815260200183838082843760009201919091525061340b92505050565b61144d61348a565b61145d610c1d60208501856152b6565b61146d60408401602085016152b6565b60d680546001600160a01b0319166001600160a01b039290921691909117905561016083013560e1556114a7610100840160e085016152b6565b60d780546001600160a01b0319166001600160a01b03929092169190911790556114d9610120840161010085016152b6565b60d880546001600160a01b0319166001600160a01b039290921691909117905561150b610140840161012085016154c1565b63ffffffff1660db5561014083013560de5561152d60608401604085016152b6565b60d580546001600160a01b0319166001600160a01b0392909216919091179055608083013560d95561156260608401356134f1565b60da5561018083013560e2556101a083013560e3558160c96115848282615c0c565b505060cc805461ffff1916600117905560c9546040516370a0823160e01b81523060048201526000916001600160a01b036201000090910416906370a082319060240160206040518083038186803b1580156115df57600080fd5b505afa1580156115f3573d6000803e3d6000fd5b505050506040513d601f19601f8201168201806040525081019061161791906153cf565b90506116228161334e565b60cc80546001600160681b03909216600160781b02600160781b600160e01b0319909216919091179055801561165e576000805461ff00191690555b505050565b6065546001600160a01b0316331461168d5760405162461bcd60e51b8152600401610de590615674565b600260015414156116b05760405162461bcd60e51b8152600401610de5906156e0565b60026001556001600160801b0381166116fa5760405162461bcd60e51b815260206004820152600c60248201526b21737472696b65507269636560a01b6044820152606401610de5565b6001600160801b031660dd5560cc5460e4805461ffff191661ffff90921691909117905560018055565b60d6546001600160a01b0316331461174e5760405162461bcd60e51b8152600401610de590615605565b600260015414156117715760405162461bcd60e51b8152600401610de5906156e0565b600260015560cf546040516358ffbb3d60e01b81526001600160a01b037f000000000000000000000000000000000000000000000000000000000000000081166004830152909116602482015260009073__$2add4d7dc049a04eb39d7a027f8b2a511e$__906358ffbb3d9060440160206040518083038186803b1580156117f857600080fd5b505af415801561180c573d6000803e3d6000fd5b505050506040513d601f19601f8201168201806040525081019061183091906153cf565b60cc5490915061184f906201000090046001600160681b03168261302c565b60cc80546001600160681b0392909216620100000262010000600160781b03199092169190911790555060018055565b60d4818154811061188f57600080fd5b6000918252602090912001546001600160a01b0316905081565b60d6546001600160a01b031633146118d35760405162461bcd60e51b8152600401610de590615605565b600260015414156118f65760405162461bcd60e51b8152600401610de5906156e0565b600260015561190361355c565b60018055565b6002600154141561192c5760405162461bcd60e51b8152600401610de5906156e0565b6002600181905550611903600060016137a1565b6065546001600160a01b0316331461196a5760405162461bcd60e51b8152600401610de590615674565b611978620f42406064615aca565b81106119c65760405162461bcd60e51b815260206004820152601760248201527f496e76616c696420706572666f726d616e6365206665650000000000000000006044820152606401610de5565b60d95460408051918252602082018390527f24867dfb6fcb9970a07be21024956524abe7a1837faa903ff0e99aaa40cf893e910160405180910390a160d955565b6065546001600160a01b03163314611a315760405162461bcd60e51b8152600401610de590615674565b611a3b6000613950565b565b60026001541415611a605760405162461bcd60e51b8152600401610de5906156e0565b600260015580611a9f5760405162461bcd60e51b815260206004820152600a602482015269216e756d53686172657360b01b6044820152606401610de5565b33600090815260d06020526040902080546201000090046001600160681b0316151580611adc57508054600160781b90046001600160801b031615155b15611aed57611aed600060016137a1565b60cc5433600081815260d260209081526040918290208054835188815261ffff96871693810184905292959194911692838614927f0c53c82ad07e2d592d88ece3b066777dd60f1118e2a081b380efc4358f0d9e2a910160405180910390a282546201000090046001600160801b031660008215611b7657611b6f8289613020565b9050611bd9565b8115611bb85760405162461bcd60e51b81526020600482015260116024820152704578697374696e6720776974686472617760781b6044820152606401610de5565b5033600090815260d260205260409020805461ffff191661ffff8716179055865b60c954610100900460ff166000611bef3361111d565b90506000611c358b8a60011415611c1057611c0b85600a615a22565b611c2f565b60d16000611c1f60018e615b0c565b8152602001908152602001600020545b856132ec565b905080821115611c71576000611c4b838361302c565b905060e354811015611c6f5760405162461bcd60e51b8152600401610de5906156a9565b505b611c7a846139a2565b33600090815260d26020526040812080546001600160801b03808816620100000262010000600160901b03199092169190911790915560cd54611cc691600160801b909104168d613020565b9050611cd1816139a2565b60cd80546001600160801b03808416600160801b0291161790558a546001600160681b036201000090910416158015611d185750336000908152609760205260409020548c145b15611d2657611d2633613038565b611d3133308e612f9e565b50506001805550505050505050505050565b6065546001600160a01b03163314611d6d5760405162461bcd60e51b8152600401610de590615674565b60026001541415611d905760405162461bcd60e51b8152600401610de5906156e0565b600260015580611dd35760405162461bcd60e51b815260206004820152600e60248201526d085b995dd35a5b91195c1bdcda5d60921b6044820152606401610de5565b60e35560018055565b6060609b8054610cbd90615b4f565b60d6546001600160a01b03163314611e155760405162461bcd60e51b8152600401610de590615605565b60026001541415611e385760405162461bcd60e51b8152600401610de5906156e0565b60026001556119036139ec565b60d6546001600160a01b03163314611e6f5760405162461bcd60e51b8152600401610de590615605565b60026001541415611e925760405162461bcd60e51b8152600401610de5906156e0565b600260015560df54611ec5907f000000000000000000000000000000000000000000000000000000000000000090613b6a565b6040516370a0823160e01b815230600482015262989680907f00000000000000000000000000000000000000000000000000000000000000006001600160a01b0316906370a082319060240160206040518083038186803b158015611f2957600080fd5b505afa158015611f3d573d6000803e3d6000fd5b505050506040513d601f19601f82011682018060405250810190611f6191906153cf565b1115611903576119036139ec565b6000611fa4611f7d60995490565b611f85612206565b60cd5460c9546001600160801b0390911690610100900460ff166132a6565b905090565b60026001541415611fcc5760405162461bcd60e51b8152600401610de5906156e0565b60026001558061200b5760405162461bcd60e51b815260206004820152600a602482015269216e756d526f756e647360b01b6044820152606401610de5565b60cc5461ffff1660005b8281101561209a57600061202982846159b3565b600081815260d16020526040902054909150156120765760405162461bcd60e51b815260206004820152600b60248201526a125b9a5d1a585b1a5e995960aa1b6044820152606401610de5565b600090815260d160205260409020600190558061209281615b8a565b915050612015565b50506001805550565b3360009081526098602090815260408083206001600160a01b0386168452909152812054828110156121255760405162461bcd60e51b815260206004820152602560248201527f45524332303a2064656372656173656420616c6c6f77616e63652062656c6f77604482015264207a65726f60d81b6064820152608401610de5565b6121323385858403612e79565b5060019392505050565b6065546001600160a01b031633146121665760405162461bcd60e51b8152600401610de590615674565b61012c8110156121b85760405162461bcd60e51b815260206004820152601860248201527f496e76616c69642061756374696f6e206475726174696f6e00000000000000006044820152606401610de5565b60de5460408051918252602082018390527f5acd982e2240ed224a69aa03dab039d3797c108e4b5f288cd7dd6ca181b275f3910160405180910390a160de55565b6000610d4d338484612f9e565b60c9546040516370a0823160e01b8152306004820152600091611fa491620100009091046001600160a01b0316906370a082319060240160206040518083038186803b15801561225557600080fd5b505afa158015612269573d6000803e3d6000fd5b505050506040513d601f19601f8201168201806040525081019061228d91906153cf565b60cc546201000090046001600160681b031690613020565b600260015414156122c85760405162461bcd60e51b8152600401610de5906156e0565b6002600155806123045760405162461bcd60e51b815260206004820152600760248201526608585b5bdd5b9d60ca1b6044820152606401610de5565b61230d33613be4565b6123178133613d23565b60c954612335906201000090046001600160a01b0316333084613ff1565b5060018055565b60d6546001600160a01b031633146123665760405162461bcd60e51b8152600401610de590615605565b600260015414156123895760405162461bcd60e51b8152600401610de5906156e0565b600260018190555060008060006123a160e054614062565b60e0819055919450925090506123b68261334e565b60cc805462010000600160781b031916620100006001600160681b0385160217905560405182815233906001600160a01b038516907f045c558fdce4714c5816d53820d27420f4cd860892df203fe636384d8d19aa019060200160405180910390a3604051632904c23960e01b81526001600160a01b037f0000000000000000000000000000000000000000000000000000000000000000811660048301527f000000000000000000000000000000000000000000000000000000000000000081166024830152841660448201526064810183905273__$2add4d7dc049a04eb39d7a027f8b2a511e$__90632904c2399060840160206040518083038186803b1580156124c257600080fd5b505af41580156124d6573d6000803e3d6000fd5b505050506040513d601f19601f820116820180604052508101906124fa91906153cf565b5061209a61355c565b600080600061251184612bdc565b90925090506111688282613020565b6065546001600160a01b0316331461254a5760405162461bcd60e51b8152600401610de590615674565b6000811180156125645750612561600a6064615aca565b81105b6125a35760405162461bcd60e51b815260206004820152601060248201526f125b9d985b1a5908191a5cd8dbdd5b9d60821b6044820152606401610de5565b60db5460408051918252602082018390527f4cd657fde404967d63a338fb06c5c98751a9df57dfae6dc333a432faf8a5f656910160405180910390a160db55565b6065546001600160a01b0316331461260e5760405162461bcd60e51b8152600401610de590615674565b6001600160a01b0381166126515760405162461bcd60e51b815260206004820152600a60248201526910b732bba5b2b2b832b960b11b6044820152606401610de5565b60d680546001600160a01b0319166001600160a01b0392909216919091179055565b600260015414156126965760405162461bcd60e51b8152600401610de5906156e0565b6002600155806126d55760405162461bcd60e51b815260206004820152600a602482015269216e756d53686172657360b01b6044820152606401610de5565b6123358160006137a1565b6065546001600160a01b0316331461270a5760405162461bcd60e51b8152600401610de590615674565b6001600160a01b0381166127535760405162461bcd60e51b815260206004820152601060248201526f085b995dd19959549958da5c1a595b9d60821b6044820152606401610de5565b60d5546001600160a01b03828116911614156127b15760405162461bcd60e51b815260206004820152601860248201527f4d757374206265206e657720666565526563697069656e7400000000000000006044820152606401610de5565b60d580546001600160a01b0319166001600160a01b0392909216919091179055565b600260015414156127f65760405162461bcd60e51b8152600401610de5906156e0565b600260015560cf546040805160e0810182526001600160a01b037f0000000000000000000000000000000000000000000000000000000000000000811682527f000000000000000000000000000000000000000000000000000000000000000081166020830190815293811682840181815260006060850181815260e4805461ffff9081166080890190815260dd5460a08a0190815260e15460c08b0190815260d85460d75460db549d51635a90235d60e01b8152918c1660048301528b166024820152604481019c909c528a518a1660648d01529b51891660848c0152955190971660a48a0152915160c48901529451169386019390935251610104850152935161012484015260c961014484015260cc610164840152909181908190819073__$2add4d7dc049a04eb39d7a027f8b2a511e$__90635a90235d906101840160806040518083038186803b15801561294e57600080fd5b505af4158015612962573d6000803e3d6000fd5b505050506040513d601f19601f820116820180604052508101906129869190615375565b93509350935093507fa217999b1c125c2a996f712c5f26a28addad7167bd8a67d5bd5b2a751148abb082826040516129c8929190918252602082015260400190565b60405180910390a16129d98361334e565b6001600160681b03831660dc5560ce80546001600160a01b0319166001600160a01b0386161790556000612a0d4282613020565b905063ffffffff811115612a635760405162461bcd60e51b815260206004820152601860248201527f4f766572666c6f77206e6578744f7074696f6e526561647900000000000000006044820152606401610de5565b60cf805463ffffffff60a01b1916600160a01b63ffffffff841602179055612a8a876143ba565b6040516370a0823160e01b815230600482015262989680907f00000000000000000000000000000000000000000000000000000000000000006001600160a01b0316906370a082319060240160206040518083038186803b158015612aee57600080fd5b505afa158015612b02573d6000803e3d6000fd5b505050506040513d601f19601f82011682018060405250810190612b2691906153cf565b1115612b3457612b346139ec565b5050600180555050505050565b6065546001600160a01b03163314612b6b5760405162461bcd60e51b8152600401610de590615674565b6001600160a01b038116612bd05760405162461bcd60e51b815260206004820152602660248201527f4f776e61626c653a206e6577206f776e657220697320746865207a65726f206160448201526564647265737360d01b6064820152608401610de5565b612bd981613950565b50565b6001600160a01b038116600090815260d0602090815260408083208151606081018352905461ffff81168083526201000082046001600160681b031694830194909452600160781b90046001600160801b031691810191909152829160011115612c5e575050506001600160a01b031660009081526097602052604081205491565b60cc54815161ffff908116600090815260d1602052604081205460c9549193612c9493869391169190610100900460ff16614526565b9050612cb5856001600160a01b031660009081526097602052604090205490565b9590945092505050565b60026001541415612ce25760405162461bcd60e51b8152600401610de5906156e0565b60026001556000612cf1614597565b60e054909150612d01908261302c565b6001600160801b031660e0555060018055565b6065546001600160a01b03163314612d3e5760405162461bcd60e51b8152600401610de590615674565b60026001541415612d615760405162461bcd60e51b8152600401610de5906156e0565b600260015580612da75760405162461bcd60e51b8152602060048201526011602482015270216e65774d61784465706f7369746f727360781b6044820152606401610de5565b60e25560018055565b6065546001600160a01b03163314612dda5760405162461bcd60e51b8152600401610de590615674565b612de8620f42406064615aca565b8110612e2f5760405162461bcd60e51b8152602060048201526016602482015275496e76616c6964206d616e6167656d656e742066656560501b6044820152606401610de5565b612e38816134f1565b60da81905560408051918252602082018390527f4e874b007ab14f7e263baefd44951834c8266f4f224d1092e49e9c254354cc54910160405180910390a150565b6001600160a01b038316612edb5760405162461bcd60e51b8152602060048201526024808201527f45524332303a20617070726f76652066726f6d20746865207a65726f206164646044820152637265737360e01b6064820152608401610de5565b6001600160a01b038216612f3c5760405162461bcd60e51b815260206004820152602260248201527f45524332303a20617070726f766520746f20746865207a65726f206164647265604482015261737360f01b6064820152608401610de5565b6001600160a01b0383811660008181526098602090815260408083209487168084529482529182902085905590518481527f8c5be1e5ebec7d5bd14f71427d1e84f3dd0314c0f7b2291e5b200ac8c7c3b92591015b60405180910390a3505050565b6001600160a01b038216301480612fbd57506001600160a01b03831630145b6130155760405162461bcd60e51b8152602060048201526024808201527f54726561737572792072546f6b656e206973206e6f74207472616e736665727260448201526361626c6560e01b6064820152608401610de5565b61165e838383614754565b6000610e0182846159b3565b6000610e018284615b0c565b60d480546001600160a01b038316600090815260d3602052604090205460ff166130a45760405162461bcd60e51b815260206004820152601860248201527f4465706f7369746f7220646f6573206e6f7420657869737400000000000000006044820152606401610de5565b6001600160a01b038316600090815260d360205260408120805460ff191690555b6130d0600183615b0c565b811015613243578281815481106130f757634e487b7160e01b600052603260045260246000fd5b6000918252602090912001546001600160a01b03858116911614156132315782613122600184615b0c565b8154811061314057634e487b7160e01b600052603260045260246000fd5b9060005260206000200160009054906101000a90046001600160a01b031683828154811061317e57634e487b7160e01b600052603260045260246000fd5b9060005260206000200160009054906101000a90046001600160a01b03168483815481106131bc57634e487b7160e01b600052603260045260246000fd5b6000918252602082200190866131d3600188615b0c565b815481106131f157634e487b7160e01b600052603260045260246000fd5b600091825260209091200180546001600160a01b039485166001600160a01b031990911617905581549383166101009190910a9081029202199092161790555b8061323b81615b8a565b9150506130c5565b508180548061326257634e487b7160e01b600052603160045260246000fd5b600082815260209020810160001990810180546001600160a01b0319169055019055505050565b60c9546201000090046001600160a01b031661165e818484614922565b6000806132b483600a615a22565b9050600086116132c457806132e2565b6132e2866132dc6132d5888861302c565b8490614952565b9061495e565b9695505050505050565b6000600183116133365760405162461bcd60e51b8152602060048201526015602482015274496e76616c6964206173736574506572536861726560581b6044820152606401610de5565b61116861334483600a615a22565b6132dc8686614952565b6001600160681b03811115612bd95760405162461bcd60e51b815260206004820152601060248201526f13dd995c999b1bddc81d5a5b9d0c4c0d60821b6044820152606401610de5565b600054610100900460ff16806133b1575060005460ff16155b6133cd5760405162461bcd60e51b8152600401610de590615626565b600054610100900460ff161580156133ef576000805461ffff19166101011790555b6133f761496a565b8015612bd9576000805461ff001916905550565b600054610100900460ff1680613424575060005460ff16155b6134405760405162461bcd60e51b8152600401610de590615626565b600054610100900460ff16158015613462576000805461ffff19166101011790555b61346a6149d9565b6134748383614a43565b801561165e576000805461ff0019169055505050565b600054610100900460ff16806134a3575060005460ff16155b6134bf5760405162461bcd60e51b8152600401610de590615626565b600054610100900460ff161580156134e1576000805461ffff19166101011790555b6134e96149d9565b6133f7614ad8565b60e15460009081613503601e83615ba5565b15613526576135136007836159cb565b6135219063031ba3096159cb565b613549565b613531601e836159cb565b61353c90600c6159cb565b61354990620f4240615aca565b9050611168816132dc86620f4240614952565b6040805160c081018252600080825260208201819052918101829052606081018290526080810182905260a081019190915260dc54806135d65760405162461bcd60e51b81526020600482015260156024820152742163757272656e744f746f6b656e5072656d69756d60581b6044820152606401610de5565b60007f00000000000000000000000000000000000000000000000000000000000000006001600160a01b031663313ce5676040518163ffffffff1660e01b815260040160206040518083038186803b15801561363157600080fd5b505afa158015613645573d6000803e3d6000fd5b505050506040513d601f19601f8201168201806040525081019061366991906154db565b60cf546001600160a01b0390811685527f00000000000000000000000000000000000000000000000000000000000000008116602086019081527f00000000000000000000000000000000000000000000000000000000000000008216604080880191825260ff94909416606088018181526080890188815260de5460a08b019081529651633baf17fd60e21b81528a51871660048201529451861660248601529251909416604484015292516064830152516084820152915160a4830152915073__$2add4d7dc049a04eb39d7a027f8b2a511e$__9063eebc5ff49060c40160206040518083038186803b15801561376157600080fd5b505af4158015613775573d6000803e3d6000fd5b505050506040513d601f19601f8201168201806040525081019061379991906153cf565b60df55505050565b33600090815260d0602090815260408083208151606081018352905461ffff8082168084526201000083046001600160681b031684870152600160781b9092046001600160801b03168385015260cc5491865260d19094529184205460c9549194929093169261381c9185918591610100900460ff16614526565b905083613829578461382b565b805b945084613839575050505050565b8085111561387d5760405162461bcd60e51b81526020600482015260116024820152704578636565647320617661696c61626c6560781b6044820152606401610de5565b825161ffff168211156138aa5733600090815260d060205260409020805462010000600160781b03191690555b6138b3856139a2565b6138bd818661302c565b33600081815260d060205260409081902080546001600160801b0394909416600160781b02600160781b600160f81b0319909416939093179092558451915190917fe5b754fb1abb7f01b499791d0b820ae3b6af3424ac1c59768edb53f4ec31a929916139369189825261ffff16602082015260400190565b60405180910390a2613949303387612f9e565b5050505050565b606580546001600160a01b038381166001600160a01b0319831681179093556040519116919082907f8be0079c531659141344cd1fd0a4f28419497f9722a3daafe3b4186f6b6457e090600090a35050565b6001600160801b03811115612bd95760405162461bcd60e51b815260206004820152601060248201526f09eeccae4ccd8deee40ead2dce86264760831b6044820152606401610de5565b6040516370a0823160e01b81523060048201527f0000000000000000000000000000000000000000000000000000000000000000906000906001600160a01b038316906370a082319060240160206040518083038186803b158015613a5057600080fd5b505afa158015613a64573d6000803e3d6000fd5b505050506040513d601f19601f82011682018060405250810190613a8891906153cf565b905060008111613ada5760405162461bcd60e51b815260206004820152601860248201527f6e6f207072656d69756d20746f206469737472696275746500000000000000006044820152606401610de5565b613ae48282614b38565b6040516370a0823160e01b8152306004820152613b669083906001600160a01b038216906370a082319060240160206040518083038186803b158015613b2957600080fd5b505afa158015613b3d573d6000803e3d6000fd5b505050506040513d601f19601f82011682018060405250810190613b6191906153cf565b614bde565b5050565b604051632e99361160e01b8152600481018290526001600160a01b03831690632e99361190602401602060405180830381600087803b158015613bac57600080fd5b505af1158015613bc0573d6000803e3d6000fd5b505050506040513d601f19601f8201168201806040525081019061165e91906153cf565b6001600160a01b038116600090815260d3602052604090205460ff16612bd9576001600160a01b038116613c535760405162461bcd60e51b815260206004820152601660248201527511195c1bdcda5d1bdc881859191c995cdcc81b9d5b1b60521b6044820152606401610de5565b60e25460d454613c649060016159b3565b1115613cbd5760405162461bcd60e51b815260206004820152602260248201527f4e756d626572206f66206465706f7369746f72732065786365656473206c696d6044820152611a5d60f21b6064820152608401610de5565b6001600160a01b0316600081815260d360205260408120805460ff1916600190811790915560d4805491820181559091527f9780e26d96b1f2a9a18ef8fc72d589dbf03ef788137b64f43897e83a91e7feec0180546001600160a01b0319169091179055565b60cc5461ffff166000613d3884610f21612206565b6001600160a01b038416600090815260d0602090815260408083208151606081018352905461ffff811682526201000081046001600160681b0316938201849052600160781b90046001600160801b031691810191909152929350613da4908790610f2190813361111d565b60cb549091506001600160681b0316831115613def5760405162461bcd60e51b815260206004820152600a6024820152690457863656564206361760b41b6044820152606401610de5565b60ca54600160a01b900466ffffffffffffff16831015613e485760405162461bcd60e51b8152602060048201526014602482015273496e73756666696369656e742062616c616e636560601b6044820152606401610de5565b60e354811015613e6a5760405162461bcd60e51b8152600401610de5906156a9565b60408051878152602081018690526001600160a01b038716917f90890809c654f11d6e72a28fa60149770a0d11ec6c92319d6ceb2bb0a4ea1a15910160405180910390a2815161ffff16600090815260d1602052604081205460c954613edc918591889190610100900460ff16614526565b8351909150879061ffff16861415613f0d576020840151600090613f09906001600160681b03168a613020565b9150505b613f168161334e565b6040805160608101825261ffff80891682526001600160681b0380851660208085019182526001600160801b038089168688019081526001600160a01b038f16600090815260d090935296822095518654935197518216600160781b02600160781b600160f81b03199890951662010000026effffffffffffffffffffffffffffff1990941695169490941791909117949094161790915560cd54613fbc91168a613020565b9050613fc7816139a2565b60cd80546001600160801b0319166001600160801b03929092169190911790555050505050505050565b6040516001600160a01b038085166024830152831660448201526064810182905261405c9085906323b872dd60e01b906084015b60408051601f198184030181529190526020810180516001600160e01b03166001600160e01b031990931692909217909152614d8c565b50505050565b60cf5460009081908190600160a01b900463ffffffff164210156140b15760405162461bcd60e51b815260206004820152600660248201526521726561647960d01b6044820152606401610de5565b60ce546001600160a01b03169250826140fa5760405162461bcd60e51b815260206004820152600b60248201526a10b732bc3a27b83a34b7b760a91b6044820152606401610de5565b60cc805460d5546040805160a08101825260c954610100810460ff16825291516370a0823160e01b815230600482015261ffff909416946001600160a01b03938416946000948594859473__$2add4d7dc049a04eb39d7a027f8b2a511e$__9463686fb2f2949093919260208401926201000090910416906370a082319060240160206040518083038186803b15801561419357600080fd5b505afa1580156141a7573d6000803e3d6000fd5b505050506040513d601f19601f820116820180604052508101906141cb91906153cf565b81526020016141d960995490565b81526020018d815260200189600114156141f45760006141f8565b60da545b9052604080516001600160e01b031960e086901b168152600481019390935281516024840152602082015160448401528101516064830152606081015160848301526080015160a482015260c40160a06040518083038186803b15801561425e57600080fd5b505af4158015614272573d6000803e3d6000fd5b505050506040513d601f19601f820116820180604052508101906142969190615482565b809650819750829550839a50849b5050505050508760ce60010160006101000a8154816001600160a01b0302191690836001600160a01b03160217905550600060ce60000160006101000a8154816001600160a01b0302191690836001600160a01b031602179055508060d1600087815260200190815260200160002081905550836001600160a01b03167fd42b93f751df91c40b94860a26f5e43b9fc78089c1e3df5d4602eee07009e5c6838760405161435b929190918252602082015260400190565b60405180910390a260cd80546001600160801b031916905561437e8560016159b3565b60cc805461ffff191661ffff929092169190911790555061439f3083614e5e565b80156143af576143af8382613289565b505050509193909250565b60cc546201000090046001600160681b03166001600160a01b038216156144005760cc8054600160781b600160e01b031916600160781b6001600160681b038416021790555b60cc805462010000600160781b031916905560cf80546001600160a01b03191690556001600160a01b03821615613b6657604051636c6fe87f60e11b81526001600160a01b037f000000000000000000000000000000000000000000000000000000000000000016600482015260009073__$2add4d7dc049a04eb39d7a027f8b2a511e$__9063d8dfd0fe9060240160206040518083038186803b1580156144a757600080fd5b505af41580156144bb573d6000803e3d6000fd5b505050506040513d601f19601f820116820180604052508101906144df91906153cf565b9050336001600160a01b0316836001600160a01b03167f7e830f7c1771deb1bdb35c4a7e6051bbac32b376f7f4e4976b8618b0b11997f783604051612f9191815260200190565b835160009061ffff16158015906145415750845161ffff1684115b1561458357600061456086602001516001600160681b03168585614f3d565b604087015190915061457b906001600160801b031682613020565b915050611168565b50505050604001516001600160801b031690565b33600090815260d26020526040812080546001600160801b03620100008204169061ffff16816145f95760405162461bcd60e51b815260206004820152600d60248201526c139bdd081a5b9a5d1a585d1959609a1b6044820152606401610de5565b60cc5461ffff1681106146415760405162461bcd60e51b815260206004820152601060248201526f149bdd5b99081b9bdd0818db1bdcd95960821b6044820152606401610de5565b33600090815260d260205260409020805462010000600160901b031916905560cd5461467d90600160801b90046001600160801b03168361302c565b60cd80546001600160801b03928316600160801b029216919091179055600081815260d1602052604081205460c9546146c091859160ff610100909104166132ec565b604080518281526020810186905291925033917ff279e6a1f5e320cca91135676d9cb6e44ca8a08c0b88342bcdb1144f6511b568910160405180910390a26147083084614fa0565b6000811161474a5760405162461bcd60e51b815260206004820152600f60248201526e085dda5d1a191c985dd05b5bdd5b9d608a1b6044820152606401610de5565b6111683382613289565b6001600160a01b0383166147b85760405162461bcd60e51b815260206004820152602560248201527f45524332303a207472616e736665722066726f6d20746865207a65726f206164604482015264647265737360d81b6064820152608401610de5565b6001600160a01b03821661481a5760405162461bcd60e51b815260206004820152602360248201527f45524332303a207472616e7366657220746f20746865207a65726f206164647260448201526265737360e81b6064820152608401610de5565b6001600160a01b038316600090815260976020526040902054818110156148925760405162461bcd60e51b815260206004820152602660248201527f45524332303a207472616e7366657220616d6f756e7420657863656564732062604482015265616c616e636560d01b6064820152608401610de5565b6001600160a01b038085166000908152609760205260408082208585039055918516815290812080548492906148c99084906159b3565b92505081905550826001600160a01b0316846001600160a01b03167fddf252ad1be2c89b69c2b068fc378daa952ba7f163c4a11628f55a4df523b3ef8460405161491591815260200190565b60405180910390a361405c565b6040516001600160a01b03831660248201526044810182905261165e90849063a9059cbb60e01b90606401614025565b6000610e018284615aca565b6000610e0182846159cb565b600054610100900460ff1680614983575060005460ff16155b61499f5760405162461bcd60e51b8152600401610de590615626565b600054610100900460ff161580156149c1576000805461ffff19166101011790555b600180558015612bd9576000805461ff001916905550565b600054610100900460ff16806149f2575060005460ff16155b614a0e5760405162461bcd60e51b8152600401610de590615626565b600054610100900460ff161580156133f7576000805461ffff19166101011790558015612bd9576000805461ff001916905550565b600054610100900460ff1680614a5c575060005460ff16155b614a785760405162461bcd60e51b8152600401610de590615626565b600054610100900460ff16158015614a9a576000805461ffff19166101011790555b8251614aad90609a9060208601906151f9565b508151614ac190609b9060208501906151f9565b50801561165e576000805461ff0019169055505050565b600054610100900460ff1680614af1575060005460ff16155b614b0d5760405162461bcd60e51b8152600401610de590615626565b600054610100900460ff16158015614b2f576000805461ffff19166101011790555b6133f733613950565b60d5546001600160a01b03166000614b65614b57620f42406064615aca565b60d9546132dc908690614952565b9050614b7b6001600160a01b0385168383614922565b60cc546001600160a01b038316907f8df5f80a19898219351b3c8e70c8cffe1adc78e2394d21dc2da56a39e5dabfe8908390614bbd9060019061ffff16615ae9565b6040805192835261ffff90911660208301520160405180910390a250505050565b60d4805460009067ffffffffffffffff811115614c0b57634e487b7160e01b600052604160045260246000fd5b604051908082528060200260200182016040528015614c34578160200160208202803683370190505b509050600060e054614c4560995490565b614c4f9190615b0c565b905060005b8354811015614d31576000848281548110614c7f57634e487b7160e01b600052603260045260246000fd5b6000918252602090912001546001600160a01b03169050614cad836132dc88614ca785612503565b90614952565b848381518110614ccd57634e487b7160e01b600052603260045260246000fd5b602002602001018181525050614d1e81858481518110614cfd57634e487b7160e01b600052603260045260246000fd5b6020026020010151896001600160a01b03166149229092919063ffffffff16565b5080614d2981615b8a565b915050614c54565b5060cc547fe55fc5ddbb2bfc597b0e1d510ece6ff2733bd909a81db6e2b6e092aeda7af1c390859084908690614d6d9060019061ffff16615ae9565b604051614d7d9493929190615888565b60405180910390a15050505050565b6000614de1826040518060400160405280602081526020017f5361666545524332303a206c6f772d6c6576656c2063616c6c206661696c6564815250856001600160a01b03166150ee9092919063ffffffff16565b80519091501561165e5780806020019051810190614dff91906153b3565b61165e5760405162461bcd60e51b815260206004820152602a60248201527f5361666545524332303a204552433230206f7065726174696f6e20646964206e6044820152691bdd081cdd58d8d9595960b21b6064820152608401610de5565b6001600160a01b038216614eb45760405162461bcd60e51b815260206004820152601f60248201527f45524332303a206d696e7420746f20746865207a65726f2061646472657373006044820152606401610de5565b8060996000828254614ec691906159b3565b90915550506001600160a01b03821660009081526097602052604081208054839290614ef39084906159b3565b90915550506040518181526001600160a01b038316906000907fddf252ad1be2c89b69c2b068fc378daa952ba7f163c4a11628f55a4df523b3ef9060200160405180910390a35050565b600060018311614f875760405162461bcd60e51b8152602060048201526015602482015274496e76616c6964206173736574506572536861726560581b6044820152606401610de5565b611168836132dc614f9985600a615a22565b8790614952565b6001600160a01b0382166150005760405162461bcd60e51b815260206004820152602160248201527f45524332303a206275726e2066726f6d20746865207a65726f206164647265736044820152607360f81b6064820152608401610de5565b6001600160a01b038216600090815260976020526040902054818110156150745760405162461bcd60e51b815260206004820152602260248201527f45524332303a206275726e20616d6f756e7420657863656564732062616c616e604482015261636560f01b6064820152608401610de5565b6001600160a01b03831660009081526097602052604081208383039055609980548492906150a3908490615b0c565b90915550506040518281526000906001600160a01b038516907fddf252ad1be2c89b69c2b068fc378daa952ba7f163c4a11628f55a4df523b3ef9060200160405180910390a3505050565b6060611168848460008585843b6151475760405162461bcd60e51b815260206004820152601d60248201527f416464726573733a2063616c6c20746f206e6f6e2d636f6e74726163740000006044820152606401610de5565b600080866001600160a01b0316858760405161516391906155b6565b60006040518083038185875af1925050503d80600081146151a0576040519150601f19603f3d011682016040523d82523d6000602084013e6151a5565b606091505b50915091506151b58282866151c0565b979650505050505050565b606083156151cf575081610e01565b8251156151df5782518084602001fd5b8160405162461bcd60e51b8152600401610de591906155d2565b82805461520590615b4f565b90600052602060002090601f016020900481019282615227576000855561526d565b82601f1061524057805160ff191683800117855561526d565b8280016001018555821561526d579182015b8281111561526d578251825591602001919060010190615252565b5061527992915061527d565b5090565b5b80821115615279576000815560010161527e565b803561529d81615d1d565b919050565b803563ffffffff8116811461529d57600080fd5b6000602082840312156152c7578081fd5b8135610e0181615d1d565b600080604083850312156152e4578081fd5b82356152ef81615d1d565b915060208301356152ff81615d1d565b809150509250929050565b60008060006060848603121561531e578081fd5b833561532981615d1d565b9250602084013561533981615d1d565b929592945050506040919091013590565b6000806040838503121561535c578182fd5b823561536781615d1d565b946020939093013593505050565b6000806000806080858703121561538a578081fd5b845161539581615d1d565b60208601516040870151606090970151919890975090945092505050565b6000602082840312156153c4578081fd5b8151610e0181615d32565b6000602082840312156153e0578081fd5b5051919050565b60008082840360e08112156153fa578283fd5b833567ffffffffffffffff811115615410578384fd5b84016101c08187031215615422578384fd5b925060c0601f1982011215615435578182fd5b506020830190509250929050565b600060208284031215615454578081fd5b81356001600160801b0381168114610e01578182fd5b60006020828403121561547b578081fd5b5035919050565b600080600080600060a08688031215615499578283fd5b5050835160208501516040860151606087015160809097015192989197509594509092509050565b6000602082840312156154d2578081fd5b610e01826152a2565b6000602082840312156154ec578081fd5b8151610e0181615d6a565b81835281816020850137506000828201602090810191909152601f909101601f19169091010190565b803561552b81615d32565b15158252602081013561553d81615d6a565b60ff166020830152604081013561555381615d1d565b6001600160a01b03908116604084015260608201359061557282615d1d565b166060830152608081013561558681615d55565b66ffffffffffffff16608083015260a08101356155a281615d40565b6001600160681b03811660a0840152505050565b600082516155c8818460208701615b23565b9190910192915050565b60208152600082518060208401526155f1816040850160208701615b23565b601f01601f19169190910160400192915050565b60208082526007908201526610b5b2b2b832b960c91b604082015260600190565b6020808252602e908201527f496e697469616c697a61626c653a20636f6e747261637420697320616c72656160408201526d191e481a5b9a5d1a585b1a5e995960921b606082015260800190565b6020808252818101527f4f776e61626c653a2063616c6c6572206973206e6f7420746865206f776e6572604082015260600190565b6020808252601b908201527f4d696e696d756d206465706f736974206e6f7420726561636865640000000000604082015260600190565b6020808252601f908201527f5265656e7472616e637947756172643a207265656e7472616e742063616c6c00604082015260600190565b600061010080835261573b81840161572e88615292565b6001600160a01b03169052565b61574760208701615292565b61012061575e818601836001600160a01b03169052565b61576a60408901615292565b9150610140615783818701846001600160a01b03169052565b610160925060608901358387015261018060808a0135818801526157aa60a08b018b61596e565b6101c06101a081818c01526157c46102c08c0184866154f7565b93506157d360c08f018f61596e565b8c860360ff1901848e015293506157eb8585836154f7565b9450506157fa60e08f01615292565b6001600160a01b0381166101e08d01529250615817898f01615292565b6001600160a01b0381166102008d01529850615834878f016152a2565b63ffffffff166102208c0152948d01356102408b01525050938a01356102608801528901356102808701528801356102a086015250915061587a90506020830185615520565b8260e0830152949350505050565b600060808201868352602060808185015281875180845260a0860191508289019350845b818110156158c8578451835293830193918301916001016158ac565b5050848103604086015286548082528785528285209183019350845b818110156159095782546001600160a01b0316855293830193600192830192016158e4565b50505061ffff8516606085015250905095945050505050565b6000808335601e19843603018112615938578283fd5b83018035915067ffffffffffffffff821115615952578283fd5b60200191503681900382131561596757600080fd5b9250929050565b6000808335601e19843603018112615984578283fd5b830160208101925035905067ffffffffffffffff8111156159a457600080fd5b80360383131561596757600080fd5b600082198211156159c6576159c6615bb9565b500190565b6000826159da576159da615bcf565b500490565b600181815b80851115615a1a578160001904821115615a0057615a00615bb9565b80851615615a0d57918102915b93841c93908002906159e4565b509250929050565b6000610e018383600082615a3857506001610d51565b81615a4557506000610d51565b8160018114615a5b5760028114615a6557615a81565b6001915050610d51565b60ff841115615a7657615a76615bb9565b50506001821b610d51565b5060208310610133831016604e8410600b8410161715615aa4575081810a610d51565b615aae83836159df565b8060001904821115615ac257615ac2615bb9565b029392505050565b6000816000190483118215151615615ae457615ae4615bb9565b500290565b600061ffff83811690831681811015615b0457615b04615bb9565b039392505050565b600082821015615b1e57615b1e615bb9565b500390565b60005b83811015615b3e578181015183820152602001615b26565b8381111561405c5750506000910152565b600181811c90821680615b6357607f821691505b60208210811415615b8457634e487b7160e01b600052602260045260246000fd5b50919050565b6000600019821415615b9e57615b9e615bb9565b5060010190565b600082615bb457615bb4615bcf565b500690565b634e487b7160e01b600052601160045260246000fd5b634e487b7160e01b600052601260045260246000fd5b60008135610d5181615d1d565b60008135610d5181615d40565b60008135610d5181615d55565b8135615c1781615d32565b815460ff19811691151560ff1691821783556020840135615c3781615d6a565b61ff008160081b169050808361ffff198416171784556040850135615c5b81615d1d565b6001600160b01b0319929092169092179190911760109190911b62010000600160b01b031617815560018101615cb3615c9660608501615be5565b82546001600160a01b0319166001600160a01b0391909116178255565b615cec615cc260808501615bff565b82805466ffffffffffffff60a01b191660a09290921b66ffffffffffffff60a01b16919091179055565b50613b66615cfc60a08401615bf2565b600283016001600160681b0382166001600160681b03198254161781555050565b6001600160a01b0381168114612bd957600080fd5b8015158114612bd957600080fd5b6001600160681b0381168114612bd957600080fd5b66ffffffffffffff81168114612bd957600080fd5b60ff81168114612bd957600080fdfea26469706673582212201eda2bfe5ea05d07421db35420724a3ec7bb82f0f2bed92622d60e842aa4984664736f6c63430008040033",
  "libraries": {
    "VaultLifecycleTreasury": "0xcbD9A79Caa0d354C9119039F5004DbCf23489c9a"
  },
  "devdoc": {
    "kind": "dev",
    "methods": {
      "accountVaultBalance(address)": {
        "params": {
          "account": "is the address to lookup balance for"
        },
        "returns": {
          "_0": "the amount of `asset` custodied by the vault for the user"
        }
      },
      "allowance(address,address)": {
        "details": "See {IERC20-allowance}."
      },
      "approve(address,uint256)": {
        "details": "See {IERC20-approve}. Requirements: - `spender` cannot be the zero address."
      },
      "balanceOf(address)": {
        "details": "See {IERC20-balanceOf}."
      },
      "constructor": {
        "params": {
          "_gammaController": "is the contract address for opyn actions",
          "_gnosisEasyAuction": "is the contract address that facilitates gnosis auctions",
          "_marginPool": "is the contract address for providing collateral to opyn",
          "_oTokenFactory": "is the contract address for minting new opyn option types (strikes, asset, expiry)",
          "_usdc": "is the USDC contract",
          "_weth": "is the Wrapped Ether contract"
        }
      },
      "decreaseAllowance(address,uint256)": {
        "details": "Atomically decreases the allowance granted to `spender` by the caller. This is an alternative to {approve} that can be used as a mitigation for problems described in {IERC20-approve}. Emits an {Approval} event indicating the updated allowance. Requirements: - `spender` cannot be the zero address. - `spender` must have allowance for the caller of at least `subtractedValue`."
      },
      "deposit(uint256)": {
        "params": {
          "amount": "is the amount of `asset` to deposit"
        }
      },
      "increaseAllowance(address,uint256)": {
        "details": "Atomically increases the allowance granted to `spender` by the caller. This is an alternative to {approve} that can be used as a mitigation for problems described in {IERC20-approve}. Emits an {Approval} event indicating the updated allowance. Requirements: - `spender` cannot be the zero address."
      },
      "initiateWithdraw(uint256)": {
        "params": {
          "numShares": "is the number of shares to withdraw"
        }
      },
      "name()": {
        "details": "Returns the name of the token."
      },
      "owner()": {
        "details": "Returns the address of the current owner."
      },
      "redeem(uint256)": {
        "params": {
          "numShares": "is the number of shares to redeem"
        }
      },
      "renounceOwnership()": {
        "details": "Leaves the contract without owner. It will not be possible to call `onlyOwner` functions anymore. Can only be called by the current owner. NOTE: Renouncing ownership will leave the contract without an owner, thereby removing any functionality that is only available to the owner."
      },
      "setAuctionDuration(uint256)": {
        "params": {
          "newAuctionDuration": "is the auction duration"
        }
      },
      "setCap(uint256)": {
        "params": {
          "newCap": "is the new cap for deposits"
        }
      },
      "setFeeRecipient(address)": {
        "params": {
          "newFeeRecipient": "is the address of the new fee recipient"
        }
      },
      "setManagementFee(uint256)": {
        "params": {
          "newManagementFee": "is the management fee (6 decimals). ex: 2 * 10 ** 6 = 2%"
        }
      },
      "setMaxDepositors(uint256)": {
        "params": {
          "newMaxDepositors": "is the new cap for number of depositors"
        }
      },
      "setMinDeposit(uint256)": {
        "params": {
          "newMinDeposit": "is the new minimum amount for deposit"
        }
      },
      "setNewKeeper(address)": {
        "params": {
          "newKeeper": "is the address of the new keeper"
        }
      },
      "setOptionsPremiumPricer(address)": {
        "params": {
          "newOptionsPremiumPricer": "is the address of the new strike selection contract"
        }
      },
      "setPerformanceFee(uint256)": {
        "params": {
          "newPerformanceFee": "is the performance fee (6 decimals). ex: 20 * 10 ** 6 = 20%"
        }
      },
      "setPremiumDiscount(uint256)": {
        "params": {
          "newPremiumDiscount": "is the premium discount"
        }
      },
      "setStrikePrice(uint128)": {
        "params": {
          "strikePrice": "is the strike price of the new oTokens (decimals = 8)"
        }
      },
      "setStrikeSelection(address)": {
        "params": {
          "newStrikeSelection": "is the address of the new strike selection contract"
        }
      },
      "shareBalances(address)": {
        "params": {
          "account": "is the account to lookup share balance for"
        },
        "returns": {
          "heldByAccount": "is the shares held by account",
          "heldByVault": "is the shares held on the vault (unredeemedShares)"
        }
      },
      "shares(address)": {
        "params": {
          "account": "is the account to lookup share balance for"
        },
        "returns": {
          "_0": "the share balance"
        }
      },
      "symbol()": {
        "details": "Returns the symbol of the token, usually a shorter version of the name."
      },
      "totalBalance()": {
        "returns": {
          "_0": "total balance of the vault, including the amounts locked in third party protocols"
        }
      },
      "totalSupply()": {
        "details": "See {IERC20-totalSupply}."
      },
      "transfer(address,uint256)": {
        "details": "See {IERC20-transfer}. Requirements: - `recipient` cannot be the zero address. - the caller must have a balance of at least `amount`."
      },
      "transferFrom(address,address,uint256)": {
        "details": "See {IERC20-transferFrom}. Emits an {Approval} event indicating the updated allowance. This is not required by the EIP. See the note at the beginning of {ERC20}. Requirements: - `sender` and `recipient` cannot be the zero address. - `sender` must have a balance of at least `amount`. - the caller must have allowance for ``sender``'s tokens of at least `amount`."
      },
      "transferOwnership(address)": {
        "details": "Transfers ownership of the contract to a new account (`newOwner`). Can only be called by the current owner."
      },
      "withdrawInstantly(uint256)": {
        "params": {
          "amount": "is the amount to withdraw"
        }
      }
    },
    "version": 1
  },
  "userdoc": {
    "kind": "user",
    "methods": {
      "DELAY()": {
        "notice": "15 minute timelock between commitAndClose and rollToNexOption."
      },
      "OTOKEN_FACTORY()": {
        "notice": "OTOKEN_FACTORY is the factory contract used to spawn otokens. Used to lookup otokens."
      },
      "USDC()": {
        "notice": "USDC 0xA0b86991c6218b36c1d19D4a2e9Eb0cE3606eB48"
      },
      "WETH()": {
        "notice": "WETH9 0xC02aaA39b223FE8D0A0e5C4F27eAD9083C756Cc2"
      },
      "accountVaultBalance(address)": {
        "notice": "Returns the asset balance held on the vault for the account"
      },
      "auctionDuration()": {
        "notice": "Auction duration"
      },
      "burnRemainingOTokens()": {
        "notice": "Burn the remaining oTokens left over from gnosis auction."
      },
      "cap()": {
        "notice": "Returns the maximum capacity of the vault in terms of the vault's asset"
      },
      "chargeAndDistribute()": {
        "notice": "Charge performance fee and distribute remaining to depositors addresses"
      },
      "commitAndClose()": {
        "notice": "Sets the next option the vault will be shorting, and closes the existing short.         This allows all the users to withdraw if the next option is malicious."
      },
      "completeWithdraw()": {
        "notice": "Completes a scheduled withdrawal from a past round. Uses finalized pps for the round"
      },
      "concludeOptionsSale()": {
        "notice": "Settles the round's Gnosis auction and distribute the premiums earned"
      },
      "constructor": {
        "notice": "Initializes the contract with immutable variables"
      },
      "currentOption()": {
        "notice": "Returns the options specification for the current round"
      },
      "currentOtokenPremium()": {
        "notice": "Current oToken premium"
      },
      "decimals()": {
        "notice": "Returns the token decimals"
      },
      "deposit(uint256)": {
        "notice": "Deposits the `asset` from msg.sender."
      },
      "depositReceipts(address)": {
        "notice": "Stores the user's pending deposit for the round"
      },
      "depositorsArray(uint256)": {
        "notice": "Array of depositors in the vault"
      },
      "depositorsMap(address)": {
        "notice": "Mapping of depositors in the vault"
      },
      "feeRecipient()": {
        "notice": "Fee recipient for the performance and management fees"
      },
      "initialize((address,address,address,uint256,uint256,string,string,address,address,uint32,uint256,uint256,uint256,uint256),(bool,uint8,address,address,uint56,uint104))": {
        "notice": "Initializes the OptionVault contract with storage variables."
      },
      "initiateWithdraw(uint256)": {
        "notice": "Initiates a withdrawal that can be processed once the round completes"
      },
      "keeper()": {
        "notice": "role in charge of weekly vault operations such as rollToNextOption and burnRemainingOTokens"
      },
      "lastQueuedWithdrawAmount()": {
        "notice": "Amount locked for scheduled withdrawals last week;"
      },
      "lastStrikeOverrideRound()": {
        "notice": "Last round id at which the strike was manually overridden"
      },
      "managementFee()": {
        "notice": "Management fee charged on entire AUM in rollToNextOption. Only charged when there is no loss."
      },
      "maxDepositors()": {
        "notice": "Maximum number of depositors"
      },
      "maxRedeem()": {
        "notice": "Redeems the entire unredeemedShares balance that is owed to the account"
      },
      "minDeposit()": {
        "notice": "Minimum amount to deposit"
      },
      "nextOption()": {
        "notice": "Returns the options specification for the next round"
      },
      "nextOptionReadyAt()": {
        "notice": "Returns the date and time for the next options sale"
      },
      "optionAuctionID()": {
        "notice": "Auction id of current option"
      },
      "optionState()": {
        "notice": "Vault's state of the options sold and the timelocked option"
      },
      "optionsPremiumPricer()": {
        "notice": "Logic contract used to price options"
      },
      "overriddenStrikePrice()": {
        "notice": "Price last overridden strike set to"
      },
      "performanceFee()": {
        "notice": "Performance fee charged on premiums earned in rollToNextOption. Only charged when there is no loss."
      },
      "period()": {
        "notice": "Period between each options sale. Available options 7 (weekly), 14 (biweekly), 30 (monthly), 90 (quarterly), 180 (biannually)"
      },
      "premiumDiscount()": {
        "notice": "Premium discount on options we are selling (thousandths place: 000 - 999)"
      },
      "pricePerShare()": {
        "notice": "The price of a unit of share denominated in the `asset`"
      },
      "redeem(uint256)": {
        "notice": "Redeems shares that are owed to the account"
      },
      "rollToNextOption()": {
        "notice": "Rolls the vault's funds into a new short position."
      },
      "roundPricePerShare(uint256)": {
        "notice": "On every round's close, the pricePerShare value of an rTHETA token is stored This is used to determine the number of shares to be returned to a user with their DepositReceipt.depositAmount"
      },
      "setAuctionDuration(uint256)": {
        "notice": "Sets the new auction duration"
      },
      "setCap(uint256)": {
        "notice": "Sets a new cap for deposits"
      },
      "setFeeRecipient(address)": {
        "notice": "Sets the new fee recipient"
      },
      "setManagementFee(uint256)": {
        "notice": "Sets the management fee for the vault"
      },
      "setMaxDepositors(uint256)": {
        "notice": "Set the maximum number of depositors"
      },
      "setMinDeposit(uint256)": {
        "notice": "Set the minimum deposit amount"
      },
      "setNewKeeper(address)": {
        "notice": "Sets the new keeper"
      },
      "setOptionsPremiumPricer(address)": {
        "notice": "Sets the new options premium pricer contract"
      },
      "setPerformanceFee(uint256)": {
        "notice": "Sets the performance fee for the vault"
      },
      "setPremiumDiscount(uint256)": {
        "notice": "Sets the new discount on premiums for options we are selling"
      },
      "setStrikePrice(uint128)": {
        "notice": "Optionality to set strike price manually"
      },
      "setStrikeSelection(address)": {
        "notice": "Sets the new strike selection contract"
      },
      "shareBalances(address)": {
        "notice": "Getter for returning the account's share balance split between account and vault holdings"
      },
      "shares(address)": {
        "notice": "Getter for returning the account's share balance including unredeemed shares"
      },
      "startAuction()": {
        "notice": "Initiate the gnosis auction."
      },
      "strikeSelection()": {
        "notice": "Logic contract used to select strike prices"
      },
      "totalBalance()": {
        "notice": "Returns the vault's total balance, including the amounts locked into a short position"
      },
      "totalPending()": {
        "notice": "Returns total pending deposit for the current round"
      },
      "vaultParams()": {
        "notice": "Vault's parameters like cap, decimals"
      },
      "vaultState()": {
        "notice": "Vault's lifecycle state like round and locked amounts"
      },
      "withdrawInstantly(uint256)": {
        "notice": "Withdraws the assets on the vault using the outstanding `DepositReceipt.amount`"
      },
      "withdrawals(address)": {
        "notice": "Stores pending user withdrawals"
      }
    },
    "version": 1
  },
  "storageLayout": {
    "storage": [
      {
        "astId": 176,
        "contract": "contracts/vaults/TreasuryVault/RibbonTreasuryVault.sol:RibbonTreasuryVault",
        "label": "_initialized",
        "offset": 0,
        "slot": "0",
        "type": "t_bool"
      },
      {
        "astId": 179,
        "contract": "contracts/vaults/TreasuryVault/RibbonTreasuryVault.sol:RibbonTreasuryVault",
        "label": "_initializing",
        "offset": 1,
        "slot": "0",
        "type": "t_bool"
      },
      {
        "astId": 230,
        "contract": "contracts/vaults/TreasuryVault/RibbonTreasuryVault.sol:RibbonTreasuryVault",
        "label": "_status",
        "offset": 0,
        "slot": "1",
        "type": "t_uint256"
      },
      {
        "astId": 273,
        "contract": "contracts/vaults/TreasuryVault/RibbonTreasuryVault.sol:RibbonTreasuryVault",
        "label": "__gap",
        "offset": 0,
        "slot": "2",
        "type": "t_array(t_uint256)49_storage"
      },
      {
        "astId": 993,
        "contract": "contracts/vaults/TreasuryVault/RibbonTreasuryVault.sol:RibbonTreasuryVault",
        "label": "__gap",
        "offset": 0,
        "slot": "51",
        "type": "t_array(t_uint256)50_storage"
      },
      {
        "astId": 56,
        "contract": "contracts/vaults/TreasuryVault/RibbonTreasuryVault.sol:RibbonTreasuryVault",
        "label": "_owner",
        "offset": 0,
        "slot": "101",
        "type": "t_address"
      },
      {
        "astId": 169,
        "contract": "contracts/vaults/TreasuryVault/RibbonTreasuryVault.sol:RibbonTreasuryVault",
        "label": "__gap",
        "offset": 0,
        "slot": "102",
        "type": "t_array(t_uint256)49_storage"
      },
      {
        "astId": 293,
        "contract": "contracts/vaults/TreasuryVault/RibbonTreasuryVault.sol:RibbonTreasuryVault",
        "label": "_balances",
        "offset": 0,
        "slot": "151",
        "type": "t_mapping(t_address,t_uint256)"
      },
      {
        "astId": 299,
        "contract": "contracts/vaults/TreasuryVault/RibbonTreasuryVault.sol:RibbonTreasuryVault",
        "label": "_allowances",
        "offset": 0,
        "slot": "152",
        "type": "t_mapping(t_address,t_mapping(t_address,t_uint256))"
      },
      {
        "astId": 301,
        "contract": "contracts/vaults/TreasuryVault/RibbonTreasuryVault.sol:RibbonTreasuryVault",
        "label": "_totalSupply",
        "offset": 0,
        "slot": "153",
        "type": "t_uint256"
      },
      {
        "astId": 303,
        "contract": "contracts/vaults/TreasuryVault/RibbonTreasuryVault.sol:RibbonTreasuryVault",
        "label": "_name",
        "offset": 0,
        "slot": "154",
        "type": "t_string_storage"
      },
      {
        "astId": 305,
        "contract": "contracts/vaults/TreasuryVault/RibbonTreasuryVault.sol:RibbonTreasuryVault",
        "label": "_symbol",
        "offset": 0,
        "slot": "155",
        "type": "t_string_storage"
      },
      {
        "astId": 846,
        "contract": "contracts/vaults/TreasuryVault/RibbonTreasuryVault.sol:RibbonTreasuryVault",
        "label": "__gap",
        "offset": 0,
        "slot": "156",
        "type": "t_array(t_uint256)45_storage"
      },
      {
        "astId": 12555,
        "contract": "contracts/vaults/TreasuryVault/RibbonTreasuryVault.sol:RibbonTreasuryVault",
        "label": "vaultParams",
        "offset": 0,
        "slot": "201",
        "type": "t_struct(VaultParams)6485_storage"
      },
      {
        "astId": 12559,
        "contract": "contracts/vaults/TreasuryVault/RibbonTreasuryVault.sol:RibbonTreasuryVault",
        "label": "vaultState",
        "offset": 0,
        "slot": "204",
        "type": "t_struct(VaultState)6503_storage"
      },
      {
        "astId": 12563,
        "contract": "contracts/vaults/TreasuryVault/RibbonTreasuryVault.sol:RibbonTreasuryVault",
        "label": "optionState",
        "offset": 0,
        "slot": "206",
        "type": "t_struct(OptionState)6492_storage"
      },
      {
        "astId": 12569,
        "contract": "contracts/vaults/TreasuryVault/RibbonTreasuryVault.sol:RibbonTreasuryVault",
        "label": "depositReceipts",
        "offset": 0,
        "slot": "208",
        "type": "t_mapping(t_address,t_struct(DepositReceipt)6510_storage)"
      },
      {
        "astId": 12574,
        "contract": "contracts/vaults/TreasuryVault/RibbonTreasuryVault.sol:RibbonTreasuryVault",
        "label": "roundPricePerShare",
        "offset": 0,
        "slot": "209",
        "type": "t_mapping(t_uint256,t_uint256)"
      },
      {
        "astId": 12580,
        "contract": "contracts/vaults/TreasuryVault/RibbonTreasuryVault.sol:RibbonTreasuryVault",
        "label": "withdrawals",
        "offset": 0,
        "slot": "210",
        "type": "t_mapping(t_address,t_struct(Withdrawal)6515_storage)"
      },
      {
        "astId": 12585,
        "contract": "contracts/vaults/TreasuryVault/RibbonTreasuryVault.sol:RibbonTreasuryVault",
        "label": "depositorsMap",
        "offset": 0,
        "slot": "211",
        "type": "t_mapping(t_address,t_bool)"
      },
      {
        "astId": 12589,
        "contract": "contracts/vaults/TreasuryVault/RibbonTreasuryVault.sol:RibbonTreasuryVault",
        "label": "depositorsArray",
        "offset": 0,
        "slot": "212",
        "type": "t_array(t_address)dyn_storage"
      },
      {
        "astId": 12592,
        "contract": "contracts/vaults/TreasuryVault/RibbonTreasuryVault.sol:RibbonTreasuryVault",
        "label": "feeRecipient",
        "offset": 0,
        "slot": "213",
        "type": "t_address"
      },
      {
        "astId": 12595,
        "contract": "contracts/vaults/TreasuryVault/RibbonTreasuryVault.sol:RibbonTreasuryVault",
        "label": "keeper",
        "offset": 0,
        "slot": "214",
        "type": "t_address"
      },
      {
        "astId": 12598,
        "contract": "contracts/vaults/TreasuryVault/RibbonTreasuryVault.sol:RibbonTreasuryVault",
        "label": "optionsPremiumPricer",
        "offset": 0,
        "slot": "215",
        "type": "t_address"
      },
      {
        "astId": 12601,
        "contract": "contracts/vaults/TreasuryVault/RibbonTreasuryVault.sol:RibbonTreasuryVault",
        "label": "strikeSelection",
        "offset": 0,
        "slot": "216",
        "type": "t_address"
      },
      {
        "astId": 12604,
        "contract": "contracts/vaults/TreasuryVault/RibbonTreasuryVault.sol:RibbonTreasuryVault",
        "label": "performanceFee",
        "offset": 0,
        "slot": "217",
        "type": "t_uint256"
      },
      {
        "astId": 12607,
        "contract": "contracts/vaults/TreasuryVault/RibbonTreasuryVault.sol:RibbonTreasuryVault",
        "label": "managementFee",
        "offset": 0,
        "slot": "218",
        "type": "t_uint256"
      },
      {
        "astId": 12610,
        "contract": "contracts/vaults/TreasuryVault/RibbonTreasuryVault.sol:RibbonTreasuryVault",
        "label": "premiumDiscount",
        "offset": 0,
        "slot": "219",
        "type": "t_uint256"
      },
      {
        "astId": 12613,
        "contract": "contracts/vaults/TreasuryVault/RibbonTreasuryVault.sol:RibbonTreasuryVault",
        "label": "currentOtokenPremium",
        "offset": 0,
        "slot": "220",
        "type": "t_uint256"
      },
      {
        "astId": 12616,
        "contract": "contracts/vaults/TreasuryVault/RibbonTreasuryVault.sol:RibbonTreasuryVault",
        "label": "overriddenStrikePrice",
        "offset": 0,
        "slot": "221",
        "type": "t_uint256"
      },
      {
        "astId": 12619,
        "contract": "contracts/vaults/TreasuryVault/RibbonTreasuryVault.sol:RibbonTreasuryVault",
        "label": "auctionDuration",
        "offset": 0,
        "slot": "222",
        "type": "t_uint256"
      },
      {
        "astId": 12622,
        "contract": "contracts/vaults/TreasuryVault/RibbonTreasuryVault.sol:RibbonTreasuryVault",
        "label": "optionAuctionID",
        "offset": 0,
        "slot": "223",
        "type": "t_uint256"
      },
      {
        "astId": 12625,
        "contract": "contracts/vaults/TreasuryVault/RibbonTreasuryVault.sol:RibbonTreasuryVault",
        "label": "lastQueuedWithdrawAmount",
        "offset": 0,
        "slot": "224",
        "type": "t_uint256"
      },
      {
        "astId": 12628,
        "contract": "contracts/vaults/TreasuryVault/RibbonTreasuryVault.sol:RibbonTreasuryVault",
        "label": "period",
        "offset": 0,
        "slot": "225",
        "type": "t_uint256"
      },
      {
        "astId": 12631,
        "contract": "contracts/vaults/TreasuryVault/RibbonTreasuryVault.sol:RibbonTreasuryVault",
        "label": "maxDepositors",
        "offset": 0,
        "slot": "226",
        "type": "t_uint256"
      },
      {
        "astId": 12634,
        "contract": "contracts/vaults/TreasuryVault/RibbonTreasuryVault.sol:RibbonTreasuryVault",
        "label": "minDeposit",
        "offset": 0,
        "slot": "227",
        "type": "t_uint256"
      },
      {
        "astId": 12637,
        "contract": "contracts/vaults/TreasuryVault/RibbonTreasuryVault.sol:RibbonTreasuryVault",
        "label": "lastStrikeOverrideRound",
        "offset": 0,
        "slot": "228",
        "type": "t_uint16"
      }
    ],
    "types": {
      "t_address": {
        "encoding": "inplace",
        "label": "address",
        "numberOfBytes": "20"
      },
      "t_array(t_address)dyn_storage": {
        "base": "t_address",
        "encoding": "dynamic_array",
        "label": "address[]",
        "numberOfBytes": "32"
      },
      "t_array(t_uint256)45_storage": {
        "base": "t_uint256",
        "encoding": "inplace",
        "label": "uint256[45]",
        "numberOfBytes": "1440"
      },
      "t_array(t_uint256)49_storage": {
        "base": "t_uint256",
        "encoding": "inplace",
        "label": "uint256[49]",
        "numberOfBytes": "1568"
      },
      "t_array(t_uint256)50_storage": {
        "base": "t_uint256",
        "encoding": "inplace",
        "label": "uint256[50]",
        "numberOfBytes": "1600"
      },
      "t_bool": {
        "encoding": "inplace",
        "label": "bool",
        "numberOfBytes": "1"
      },
      "t_mapping(t_address,t_bool)": {
        "encoding": "mapping",
        "key": "t_address",
        "label": "mapping(address => bool)",
        "numberOfBytes": "32",
        "value": "t_bool"
      },
      "t_mapping(t_address,t_mapping(t_address,t_uint256))": {
        "encoding": "mapping",
        "key": "t_address",
        "label": "mapping(address => mapping(address => uint256))",
        "numberOfBytes": "32",
        "value": "t_mapping(t_address,t_uint256)"
      },
      "t_mapping(t_address,t_struct(DepositReceipt)6510_storage)": {
        "encoding": "mapping",
        "key": "t_address",
        "label": "mapping(address => struct Vault.DepositReceipt)",
        "numberOfBytes": "32",
        "value": "t_struct(DepositReceipt)6510_storage"
      },
      "t_mapping(t_address,t_struct(Withdrawal)6515_storage)": {
        "encoding": "mapping",
        "key": "t_address",
        "label": "mapping(address => struct Vault.Withdrawal)",
        "numberOfBytes": "32",
        "value": "t_struct(Withdrawal)6515_storage"
      },
      "t_mapping(t_address,t_uint256)": {
        "encoding": "mapping",
        "key": "t_address",
        "label": "mapping(address => uint256)",
        "numberOfBytes": "32",
        "value": "t_uint256"
      },
      "t_mapping(t_uint256,t_uint256)": {
        "encoding": "mapping",
        "key": "t_uint256",
        "label": "mapping(uint256 => uint256)",
        "numberOfBytes": "32",
        "value": "t_uint256"
      },
      "t_string_storage": {
        "encoding": "bytes",
        "label": "string",
        "numberOfBytes": "32"
      },
      "t_struct(DepositReceipt)6510_storage": {
        "encoding": "inplace",
        "label": "struct Vault.DepositReceipt",
        "members": [
          {
            "astId": 6505,
            "contract": "contracts/vaults/TreasuryVault/RibbonTreasuryVault.sol:RibbonTreasuryVault",
            "label": "round",
            "offset": 0,
            "slot": "0",
            "type": "t_uint16"
          },
          {
            "astId": 6507,
            "contract": "contracts/vaults/TreasuryVault/RibbonTreasuryVault.sol:RibbonTreasuryVault",
            "label": "amount",
            "offset": 2,
            "slot": "0",
            "type": "t_uint104"
          },
          {
            "astId": 6509,
            "contract": "contracts/vaults/TreasuryVault/RibbonTreasuryVault.sol:RibbonTreasuryVault",
            "label": "unredeemedShares",
            "offset": 15,
            "slot": "0",
            "type": "t_uint128"
          }
        ],
        "numberOfBytes": "32"
      },
      "t_struct(OptionState)6492_storage": {
        "encoding": "inplace",
        "label": "struct Vault.OptionState",
        "members": [
          {
            "astId": 6487,
            "contract": "contracts/vaults/TreasuryVault/RibbonTreasuryVault.sol:RibbonTreasuryVault",
            "label": "nextOption",
            "offset": 0,
            "slot": "0",
            "type": "t_address"
          },
          {
            "astId": 6489,
            "contract": "contracts/vaults/TreasuryVault/RibbonTreasuryVault.sol:RibbonTreasuryVault",
            "label": "currentOption",
            "offset": 0,
            "slot": "1",
            "type": "t_address"
          },
          {
            "astId": 6491,
            "contract": "contracts/vaults/TreasuryVault/RibbonTreasuryVault.sol:RibbonTreasuryVault",
            "label": "nextOptionReadyAt",
            "offset": 20,
            "slot": "1",
            "type": "t_uint32"
          }
        ],
        "numberOfBytes": "64"
      },
      "t_struct(VaultParams)6485_storage": {
        "encoding": "inplace",
        "label": "struct Vault.VaultParams",
        "members": [
          {
            "astId": 6474,
            "contract": "contracts/vaults/TreasuryVault/RibbonTreasuryVault.sol:RibbonTreasuryVault",
            "label": "isPut",
            "offset": 0,
            "slot": "0",
            "type": "t_bool"
          },
          {
            "astId": 6476,
            "contract": "contracts/vaults/TreasuryVault/RibbonTreasuryVault.sol:RibbonTreasuryVault",
            "label": "decimals",
            "offset": 1,
            "slot": "0",
            "type": "t_uint8"
          },
          {
            "astId": 6478,
            "contract": "contracts/vaults/TreasuryVault/RibbonTreasuryVault.sol:RibbonTreasuryVault",
            "label": "asset",
            "offset": 2,
            "slot": "0",
            "type": "t_address"
          },
          {
            "astId": 6480,
            "contract": "contracts/vaults/TreasuryVault/RibbonTreasuryVault.sol:RibbonTreasuryVault",
            "label": "underlying",
            "offset": 0,
            "slot": "1",
            "type": "t_address"
          },
          {
            "astId": 6482,
            "contract": "contracts/vaults/TreasuryVault/RibbonTreasuryVault.sol:RibbonTreasuryVault",
            "label": "minimumSupply",
            "offset": 20,
            "slot": "1",
            "type": "t_uint56"
          },
          {
            "astId": 6484,
            "contract": "contracts/vaults/TreasuryVault/RibbonTreasuryVault.sol:RibbonTreasuryVault",
            "label": "cap",
            "offset": 0,
            "slot": "2",
            "type": "t_uint104"
          }
        ],
        "numberOfBytes": "96"
      },
      "t_struct(VaultState)6503_storage": {
        "encoding": "inplace",
        "label": "struct Vault.VaultState",
        "members": [
          {
            "astId": 6494,
            "contract": "contracts/vaults/TreasuryVault/RibbonTreasuryVault.sol:RibbonTreasuryVault",
            "label": "round",
            "offset": 0,
            "slot": "0",
            "type": "t_uint16"
          },
          {
            "astId": 6496,
            "contract": "contracts/vaults/TreasuryVault/RibbonTreasuryVault.sol:RibbonTreasuryVault",
            "label": "lockedAmount",
            "offset": 2,
            "slot": "0",
            "type": "t_uint104"
          },
          {
            "astId": 6498,
            "contract": "contracts/vaults/TreasuryVault/RibbonTreasuryVault.sol:RibbonTreasuryVault",
            "label": "lastLockedAmount",
            "offset": 15,
            "slot": "0",
            "type": "t_uint104"
          },
          {
            "astId": 6500,
            "contract": "contracts/vaults/TreasuryVault/RibbonTreasuryVault.sol:RibbonTreasuryVault",
            "label": "totalPending",
            "offset": 0,
            "slot": "1",
            "type": "t_uint128"
          },
          {
            "astId": 6502,
            "contract": "contracts/vaults/TreasuryVault/RibbonTreasuryVault.sol:RibbonTreasuryVault",
            "label": "queuedWithdrawShares",
            "offset": 16,
            "slot": "1",
            "type": "t_uint128"
          }
        ],
        "numberOfBytes": "64"
      },
      "t_struct(Withdrawal)6515_storage": {
        "encoding": "inplace",
        "label": "struct Vault.Withdrawal",
        "members": [
          {
            "astId": 6512,
            "contract": "contracts/vaults/TreasuryVault/RibbonTreasuryVault.sol:RibbonTreasuryVault",
            "label": "round",
            "offset": 0,
            "slot": "0",
            "type": "t_uint16"
          },
          {
            "astId": 6514,
            "contract": "contracts/vaults/TreasuryVault/RibbonTreasuryVault.sol:RibbonTreasuryVault",
            "label": "shares",
            "offset": 2,
            "slot": "0",
            "type": "t_uint128"
          }
        ],
        "numberOfBytes": "32"
      },
      "t_uint104": {
        "encoding": "inplace",
        "label": "uint104",
        "numberOfBytes": "13"
      },
      "t_uint128": {
        "encoding": "inplace",
        "label": "uint128",
        "numberOfBytes": "16"
      },
      "t_uint16": {
        "encoding": "inplace",
        "label": "uint16",
        "numberOfBytes": "2"
      },
      "t_uint256": {
        "encoding": "inplace",
        "label": "uint256",
        "numberOfBytes": "32"
      },
      "t_uint32": {
        "encoding": "inplace",
        "label": "uint32",
        "numberOfBytes": "4"
      },
      "t_uint56": {
        "encoding": "inplace",
        "label": "uint56",
        "numberOfBytes": "7"
      },
      "t_uint8": {
        "encoding": "inplace",
        "label": "uint8",
        "numberOfBytes": "1"
      }
    }
  }
}