{
  "address": "0x41fDd39De8Ea5530070E1D084c35464Fd37CbD3E",
  "abi": [
    {
      "inputs": [
        {
          "internalType": "address",
          "name": "_weth",
          "type": "address"
        },
        {
          "internalType": "address",
          "name": "_usdc",
          "type": "address"
        },
        {
          "internalType": "address",
          "name": "_oTokenFactory",
          "type": "address"
        },
        {
          "internalType": "address",
          "name": "_gammaController",
          "type": "address"
        },
        {
          "internalType": "address",
          "name": "_marginPool",
          "type": "address"
        },
        {
          "internalType": "address",
          "name": "_swapContract",
          "type": "address"
        }
      ],
      "stateMutability": "nonpayable",
      "type": "constructor"
    },
    {
      "anonymous": false,
      "inputs": [
        {
          "indexed": true,
          "internalType": "address",
          "name": "owner",
          "type": "address"
        },
        {
          "indexed": true,
          "internalType": "address",
          "name": "spender",
          "type": "address"
        },
        {
          "indexed": false,
          "internalType": "uint256",
          "name": "value",
          "type": "uint256"
        }
      ],
      "name": "Approval",
      "type": "event"
    },
    {
      "anonymous": false,
      "inputs": [
        {
          "indexed": false,
          "internalType": "uint256",
          "name": "auctionDuration",
          "type": "uint256"
        },
        {
          "indexed": false,
          "internalType": "uint256",
          "name": "newAuctionDuration",
          "type": "uint256"
        }
      ],
      "name": "AuctionDurationSet",
      "type": "event"
    },
    {
      "anonymous": false,
      "inputs": [
        {
          "indexed": false,
          "internalType": "uint256",
          "name": "oldCap",
          "type": "uint256"
        },
        {
          "indexed": false,
          "internalType": "uint256",
          "name": "newCap",
          "type": "uint256"
        }
      ],
      "name": "CapSet",
      "type": "event"
    },
    {
      "anonymous": false,
      "inputs": [
        {
          "indexed": true,
          "internalType": "address",
          "name": "options",
          "type": "address"
        },
        {
          "indexed": false,
          "internalType": "uint256",
          "name": "withdrawAmount",
          "type": "uint256"
        },
        {
          "indexed": true,
          "internalType": "address",
          "name": "manager",
          "type": "address"
        }
      ],
      "name": "CloseShort",
      "type": "event"
    },
    {
      "anonymous": false,
      "inputs": [
        {
          "indexed": false,
          "internalType": "uint256",
          "name": "performanceFee",
          "type": "uint256"
        },
        {
          "indexed": false,
          "internalType": "uint256",
          "name": "vaultFee",
          "type": "uint256"
        },
        {
          "indexed": false,
          "internalType": "uint256",
          "name": "round",
          "type": "uint256"
        },
        {
          "indexed": true,
          "internalType": "address",
          "name": "feeRecipient",
          "type": "address"
        }
      ],
      "name": "CollectVaultFees",
      "type": "event"
    },
    {
      "anonymous": false,
      "inputs": [
        {
          "indexed": true,
          "internalType": "address",
          "name": "account",
          "type": "address"
        },
        {
          "indexed": false,
          "internalType": "uint256",
          "name": "amount",
          "type": "uint256"
        },
        {
          "indexed": false,
          "internalType": "uint256",
          "name": "round",
          "type": "uint256"
        }
      ],
      "name": "Deposit",
      "type": "event"
    },
    {
      "anonymous": false,
      "inputs": [
        {
          "indexed": true,
          "internalType": "address",
          "name": "account",
          "type": "address"
        },
        {
          "indexed": false,
          "internalType": "uint256",
          "name": "shares",
          "type": "uint256"
        },
        {
          "indexed": false,
          "internalType": "uint256",
          "name": "round",
          "type": "uint256"
        }
      ],
      "name": "InitiateWithdraw",
      "type": "event"
    },
    {
      "anonymous": false,
      "inputs": [
        {
          "indexed": true,
          "internalType": "address",
          "name": "account",
          "type": "address"
        },
        {
          "indexed": false,
          "internalType": "uint256",
          "name": "amount",
          "type": "uint256"
        },
        {
          "indexed": false,
          "internalType": "uint256",
          "name": "round",
          "type": "uint256"
        }
      ],
      "name": "InstantWithdraw",
      "type": "event"
    },
    {
      "anonymous": false,
      "inputs": [
        {
          "indexed": false,
          "internalType": "uint256",
          "name": "managementFee",
          "type": "uint256"
        },
        {
          "indexed": false,
          "internalType": "uint256",
          "name": "newManagementFee",
          "type": "uint256"
        }
      ],
      "name": "ManagementFeeSet",
      "type": "event"
    },
    {
      "anonymous": false,
      "inputs": [
        {
          "indexed": false,
          "internalType": "uint256",
          "name": "swapId",
          "type": "uint256"
        },
        {
          "indexed": false,
          "internalType": "address",
          "name": "seller",
          "type": "address"
        },
        {
          "indexed": false,
          "internalType": "address",
          "name": "oToken",
          "type": "address"
        },
        {
          "indexed": false,
          "internalType": "address",
          "name": "biddingToken",
          "type": "address"
        },
        {
          "indexed": false,
          "internalType": "uint256",
          "name": "minPrice",
          "type": "uint256"
        },
        {
          "indexed": false,
          "internalType": "uint256",
          "name": "minBidSize",
          "type": "uint256"
        },
        {
          "indexed": false,
          "internalType": "uint256",
          "name": "totalSize",
          "type": "uint256"
        }
      ],
      "name": "NewOffer",
      "type": "event"
    },
    {
      "anonymous": false,
      "inputs": [
        {
          "indexed": false,
          "internalType": "uint256",
          "name": "strikePrice",
          "type": "uint256"
        },
        {
          "indexed": false,
          "internalType": "uint256",
          "name": "delta",
          "type": "uint256"
        }
      ],
      "name": "NewOptionStrikeSelected",
      "type": "event"
    },
    {
      "anonymous": false,
      "inputs": [
        {
          "indexed": true,
          "internalType": "address",
          "name": "options",
          "type": "address"
        },
        {
          "indexed": false,
          "internalType": "uint256",
          "name": "depositAmount",
          "type": "uint256"
        },
        {
          "indexed": true,
          "internalType": "address",
          "name": "manager",
          "type": "address"
        }
      ],
      "name": "OpenShort",
      "type": "event"
    },
    {
      "anonymous": false,
      "inputs": [
        {
          "indexed": true,
          "internalType": "address",
          "name": "previousOwner",
          "type": "address"
        },
        {
          "indexed": true,
          "internalType": "address",
          "name": "newOwner",
          "type": "address"
        }
      ],
      "name": "OwnershipTransferred",
      "type": "event"
    },
    {
      "anonymous": false,
      "inputs": [
        {
          "indexed": false,
          "internalType": "uint256",
          "name": "performanceFee",
          "type": "uint256"
        },
        {
          "indexed": false,
          "internalType": "uint256",
          "name": "newPerformanceFee",
          "type": "uint256"
        }
      ],
      "name": "PerformanceFeeSet",
      "type": "event"
    },
    {
      "anonymous": false,
      "inputs": [
        {
          "indexed": false,
          "internalType": "uint256",
          "name": "premiumDiscount",
          "type": "uint256"
        },
        {
          "indexed": false,
          "internalType": "uint256",
          "name": "newPremiumDiscount",
          "type": "uint256"
        }
      ],
      "name": "PremiumDiscountSet",
      "type": "event"
    },
    {
      "anonymous": false,
      "inputs": [
        {
          "indexed": true,
          "internalType": "address",
          "name": "account",
          "type": "address"
        },
        {
          "indexed": false,
          "internalType": "uint256",
          "name": "share",
          "type": "uint256"
        },
        {
          "indexed": false,
          "internalType": "uint256",
          "name": "round",
          "type": "uint256"
        }
      ],
      "name": "Redeem",
      "type": "event"
    },
    {
      "anonymous": false,
      "inputs": [
        {
          "indexed": true,
          "internalType": "address",
          "name": "from",
          "type": "address"
        },
        {
          "indexed": true,
          "internalType": "address",
          "name": "to",
          "type": "address"
        },
        {
          "indexed": false,
          "internalType": "uint256",
          "name": "value",
          "type": "uint256"
        }
      ],
      "name": "Transfer",
      "type": "event"
    },
    {
      "anonymous": false,
      "inputs": [
        {
          "indexed": true,
          "internalType": "address",
          "name": "account",
          "type": "address"
        },
        {
          "indexed": false,
          "internalType": "uint256",
          "name": "amount",
          "type": "uint256"
        },
        {
          "indexed": false,
          "internalType": "uint256",
          "name": "shares",
          "type": "uint256"
        }
      ],
      "name": "Withdraw",
      "type": "event"
    },
    {
      "inputs": [],
      "name": "DELAY",
      "outputs": [
        {
          "internalType": "uint256",
          "name": "",
          "type": "uint256"
        }
      ],
      "stateMutability": "view",
      "type": "function"
    },
    {
      "inputs": [],
      "name": "GAMMA_CONTROLLER",
      "outputs": [
        {
          "internalType": "address",
          "name": "",
          "type": "address"
        }
      ],
      "stateMutability": "view",
      "type": "function"
    },
    {
      "inputs": [],
      "name": "MARGIN_POOL",
      "outputs": [
        {
          "internalType": "address",
          "name": "",
          "type": "address"
        }
      ],
      "stateMutability": "view",
      "type": "function"
    },
    {
      "inputs": [],
      "name": "OTOKEN_FACTORY",
      "outputs": [
        {
          "internalType": "address",
          "name": "",
          "type": "address"
        }
      ],
      "stateMutability": "view",
      "type": "function"
    },
    {
      "inputs": [],
      "name": "PERIOD",
      "outputs": [
        {
          "internalType": "uint256",
          "name": "",
          "type": "uint256"
        }
      ],
      "stateMutability": "view",
      "type": "function"
    },
    {
      "inputs": [],
      "name": "SWAP_CONTRACT",
      "outputs": [
        {
          "internalType": "address",
          "name": "",
          "type": "address"
        }
      ],
      "stateMutability": "view",
      "type": "function"
    },
    {
      "inputs": [],
      "name": "USDC",
      "outputs": [
        {
          "internalType": "address",
          "name": "",
          "type": "address"
        }
      ],
      "stateMutability": "view",
      "type": "function"
    },
    {
      "inputs": [],
      "name": "WETH",
      "outputs": [
        {
          "internalType": "address",
          "name": "",
          "type": "address"
        }
      ],
      "stateMutability": "view",
      "type": "function"
    },
    {
      "inputs": [
        {
          "internalType": "address",
          "name": "account",
          "type": "address"
        }
      ],
      "name": "accountVaultBalance",
      "outputs": [
        {
          "internalType": "uint256",
          "name": "",
          "type": "uint256"
        }
      ],
      "stateMutability": "view",
      "type": "function"
    },
    {
      "inputs": [
        {
          "internalType": "address",
          "name": "owner",
          "type": "address"
        },
        {
          "internalType": "address",
          "name": "spender",
          "type": "address"
        }
      ],
      "name": "allowance",
      "outputs": [
        {
          "internalType": "uint256",
          "name": "",
          "type": "uint256"
        }
      ],
      "stateMutability": "view",
      "type": "function"
    },
    {
      "inputs": [
        {
          "internalType": "address",
          "name": "spender",
          "type": "address"
        },
        {
          "internalType": "uint256",
          "name": "amount",
          "type": "uint256"
        }
      ],
      "name": "approve",
      "outputs": [
        {
          "internalType": "bool",
          "name": "",
          "type": "bool"
        }
      ],
      "stateMutability": "nonpayable",
      "type": "function"
    },
    {
      "inputs": [],
      "name": "auctionDuration",
      "outputs": [
        {
          "internalType": "uint256",
          "name": "",
          "type": "uint256"
        }
      ],
      "stateMutability": "view",
      "type": "function"
    },
    {
      "inputs": [
        {
          "internalType": "address",
          "name": "account",
          "type": "address"
        }
      ],
      "name": "balanceOf",
      "outputs": [
        {
          "internalType": "uint256",
          "name": "",
          "type": "uint256"
        }
      ],
      "stateMutability": "view",
      "type": "function"
    },
    {
      "inputs": [],
      "name": "burnRemainingOTokens",
      "outputs": [],
      "stateMutability": "nonpayable",
      "type": "function"
    },
    {
      "inputs": [],
      "name": "cap",
      "outputs": [
        {
          "internalType": "uint256",
          "name": "",
          "type": "uint256"
        }
      ],
      "stateMutability": "view",
      "type": "function"
    },
    {
      "inputs": [],
      "name": "closeRound",
      "outputs": [],
      "stateMutability": "nonpayable",
      "type": "function"
    },
    {
      "inputs": [],
      "name": "collateralToken",
      "outputs": [
        {
          "internalType": "contract IYearnVault",
          "name": "",
          "type": "address"
        }
      ],
      "stateMutability": "view",
      "type": "function"
    },
    {
      "inputs": [],
      "name": "commitNextOption",
      "outputs": [],
      "stateMutability": "nonpayable",
      "type": "function"
    },
    {
      "inputs": [],
      "name": "completeWithdraw",
      "outputs": [],
      "stateMutability": "nonpayable",
      "type": "function"
    },
    {
      "inputs": [],
      "name": "currentOption",
      "outputs": [
        {
          "internalType": "address",
          "name": "",
          "type": "address"
        }
      ],
      "stateMutability": "view",
      "type": "function"
    },
    {
      "inputs": [],
      "name": "currentOtokenPremium",
      "outputs": [
        {
          "internalType": "uint256",
          "name": "",
          "type": "uint256"
        }
      ],
      "stateMutability": "view",
      "type": "function"
    },
    {
      "inputs": [],
      "name": "currentQueuedWithdrawShares",
      "outputs": [
        {
          "internalType": "uint256",
          "name": "",
          "type": "uint256"
        }
      ],
      "stateMutability": "view",
      "type": "function"
    },
    {
      "inputs": [],
      "name": "decimals",
      "outputs": [
        {
          "internalType": "uint8",
          "name": "",
          "type": "uint8"
        }
      ],
      "stateMutability": "view",
      "type": "function"
    },
    {
      "inputs": [
        {
          "internalType": "address",
          "name": "spender",
          "type": "address"
        },
        {
          "internalType": "uint256",
          "name": "subtractedValue",
          "type": "uint256"
        }
      ],
      "name": "decreaseAllowance",
      "outputs": [
        {
          "internalType": "bool",
          "name": "",
          "type": "bool"
        }
      ],
      "stateMutability": "nonpayable",
      "type": "function"
    },
    {
      "inputs": [
        {
          "internalType": "uint256",
          "name": "amount",
          "type": "uint256"
        }
      ],
      "name": "deposit",
      "outputs": [],
      "stateMutability": "nonpayable",
      "type": "function"
    },
    {
      "inputs": [
        {
          "internalType": "uint256",
          "name": "amount",
          "type": "uint256"
        },
        {
          "internalType": "address",
          "name": "creditor",
          "type": "address"
        }
      ],
      "name": "depositFor",
      "outputs": [],
      "stateMutability": "nonpayable",
      "type": "function"
    },
    {
      "inputs": [
        {
          "internalType": "address",
          "name": "",
          "type": "address"
        }
      ],
      "name": "depositReceipts",
      "outputs": [
        {
          "internalType": "uint16",
          "name": "round",
          "type": "uint16"
        },
        {
          "internalType": "uint104",
          "name": "amount",
          "type": "uint104"
        },
        {
          "internalType": "uint128",
          "name": "unredeemedShares",
          "type": "uint128"
        }
      ],
      "stateMutability": "view",
      "type": "function"
    },
    {
      "inputs": [],
      "name": "feeRecipient",
      "outputs": [
        {
          "internalType": "address",
          "name": "",
          "type": "address"
        }
      ],
      "stateMutability": "view",
      "type": "function"
    },
    {
      "inputs": [
        {
          "internalType": "address",
          "name": "spender",
          "type": "address"
        },
        {
          "internalType": "uint256",
          "name": "addedValue",
          "type": "uint256"
        }
      ],
      "name": "increaseAllowance",
      "outputs": [
        {
          "internalType": "bool",
          "name": "",
          "type": "bool"
        }
      ],
      "stateMutability": "nonpayable",
      "type": "function"
    },
    {
      "inputs": [
        {
          "internalType": "address",
          "name": "_owner",
          "type": "address"
        },
        {
          "internalType": "address",
          "name": "_keeper",
          "type": "address"
        },
        {
          "internalType": "address",
          "name": "_feeRecipient",
          "type": "address"
        },
        {
          "internalType": "uint256",
          "name": "_managementFee",
          "type": "uint256"
        },
        {
          "internalType": "uint256",
          "name": "_performanceFee",
          "type": "uint256"
        },
        {
          "internalType": "string",
          "name": "_tokenName",
          "type": "string"
        },
        {
          "internalType": "string",
          "name": "_tokenSymbol",
          "type": "string"
        },
        {
          "internalType": "address",
          "name": "_optionsPremiumPricer",
          "type": "address"
        },
        {
          "internalType": "address",
          "name": "_strikeSelection",
          "type": "address"
        },
        {
          "internalType": "uint32",
          "name": "_premiumDiscount",
          "type": "uint32"
        },
        {
          "internalType": "uint256",
          "name": "_auctionDuration",
          "type": "uint256"
        },
        {
          "components": [
            {
              "internalType": "bool",
              "name": "isPut",
              "type": "bool"
            },
            {
              "internalType": "uint8",
              "name": "decimals",
              "type": "uint8"
            },
            {
              "internalType": "address",
              "name": "asset",
              "type": "address"
            },
            {
              "internalType": "address",
              "name": "underlying",
              "type": "address"
            },
            {
              "internalType": "uint56",
              "name": "minimumSupply",
              "type": "uint56"
            },
            {
              "internalType": "uint104",
              "name": "cap",
              "type": "uint104"
            }
          ],
          "internalType": "struct Vault.VaultParams",
          "name": "_vaultParams",
          "type": "tuple"
        }
      ],
      "name": "initialize",
      "outputs": [],
      "stateMutability": "nonpayable",
      "type": "function"
    },
    {
      "inputs": [
        {
          "internalType": "uint256",
          "name": "numShares",
          "type": "uint256"
        }
      ],
      "name": "initiateWithdraw",
      "outputs": [],
      "stateMutability": "nonpayable",
      "type": "function"
    },
    {
      "inputs": [],
      "name": "isYearnPaused",
      "outputs": [
        {
          "internalType": "bool",
          "name": "",
          "type": "bool"
        }
      ],
      "stateMutability": "view",
      "type": "function"
    },
    {
      "inputs": [],
      "name": "keeper",
      "outputs": [
        {
          "internalType": "address",
          "name": "",
          "type": "address"
        }
      ],
      "stateMutability": "view",
      "type": "function"
    },
    {
      "inputs": [],
      "name": "lastQueuedWithdrawAmount",
      "outputs": [
        {
          "internalType": "uint256",
          "name": "",
          "type": "uint256"
        }
      ],
      "stateMutability": "view",
      "type": "function"
    },
    {
      "inputs": [],
      "name": "lastStrikeOverrideRound",
      "outputs": [
        {
          "internalType": "uint16",
          "name": "",
          "type": "uint16"
        }
      ],
      "stateMutability": "view",
      "type": "function"
    },
    {
      "inputs": [],
      "name": "liquidityGauge",
      "outputs": [
        {
          "internalType": "address",
          "name": "",
          "type": "address"
        }
      ],
      "stateMutability": "view",
      "type": "function"
    },
    {
      "inputs": [],
      "name": "managementFee",
      "outputs": [
        {
          "internalType": "uint256",
          "name": "",
          "type": "uint256"
        }
      ],
      "stateMutability": "view",
      "type": "function"
    },
    {
      "inputs": [],
      "name": "maxRedeem",
      "outputs": [],
      "stateMutability": "nonpayable",
      "type": "function"
    },
    {
      "inputs": [],
      "name": "name",
      "outputs": [
        {
          "internalType": "string",
          "name": "",
          "type": "string"
        }
      ],
      "stateMutability": "view",
      "type": "function"
    },
    {
      "inputs": [],
      "name": "nextOption",
      "outputs": [
        {
          "internalType": "address",
          "name": "",
          "type": "address"
        }
      ],
      "stateMutability": "view",
      "type": "function"
    },
    {
      "inputs": [],
      "name": "nextOptionReadyAt",
      "outputs": [
        {
          "internalType": "uint256",
          "name": "",
          "type": "uint256"
        }
      ],
      "stateMutability": "view",
      "type": "function"
    },
    {
      "inputs": [],
      "name": "optionAuctionID",
      "outputs": [
        {
          "internalType": "uint256",
          "name": "",
          "type": "uint256"
        }
      ],
      "stateMutability": "view",
      "type": "function"
    },
    {
      "inputs": [],
      "name": "optionState",
      "outputs": [
        {
          "internalType": "address",
          "name": "nextOption",
          "type": "address"
        },
        {
          "internalType": "address",
          "name": "currentOption",
          "type": "address"
        },
        {
          "internalType": "uint32",
          "name": "nextOptionReadyAt",
          "type": "uint32"
        }
      ],
      "stateMutability": "view",
      "type": "function"
    },
    {
      "inputs": [],
      "name": "optionsPremiumPricer",
      "outputs": [
        {
          "internalType": "address",
          "name": "",
          "type": "address"
        }
      ],
      "stateMutability": "view",
      "type": "function"
    },
    {
      "inputs": [],
      "name": "optionsPurchaseQueue",
      "outputs": [
        {
          "internalType": "address",
          "name": "",
          "type": "address"
        }
      ],
      "stateMutability": "view",
      "type": "function"
    },
    {
      "inputs": [],
      "name": "overriddenStrikePrice",
      "outputs": [
        {
          "internalType": "uint256",
          "name": "",
          "type": "uint256"
        }
      ],
      "stateMutability": "view",
      "type": "function"
    },
    {
      "inputs": [],
      "name": "owner",
      "outputs": [
        {
          "internalType": "address",
          "name": "",
          "type": "address"
        }
      ],
      "stateMutability": "view",
      "type": "function"
    },
    {
      "inputs": [],
      "name": "pausePosition",
      "outputs": [],
      "stateMutability": "nonpayable",
      "type": "function"
    },
    {
      "inputs": [],
      "name": "performanceFee",
      "outputs": [
        {
          "internalType": "uint256",
          "name": "",
          "type": "uint256"
        }
      ],
      "stateMutability": "view",
      "type": "function"
    },
    {
      "inputs": [],
      "name": "premiumDiscount",
      "outputs": [
        {
          "internalType": "uint256",
          "name": "",
          "type": "uint256"
        }
      ],
      "stateMutability": "view",
      "type": "function"
    },
    {
      "inputs": [],
      "name": "pricePerShare",
      "outputs": [
        {
          "internalType": "uint256",
          "name": "",
          "type": "uint256"
        }
      ],
      "stateMutability": "view",
      "type": "function"
    },
    {
      "inputs": [
        {
          "internalType": "uint256",
          "name": "numShares",
          "type": "uint256"
        }
      ],
      "name": "redeem",
      "outputs": [],
      "stateMutability": "nonpayable",
      "type": "function"
    },
    {
      "inputs": [],
      "name": "renounceOwnership",
      "outputs": [],
      "stateMutability": "nonpayable",
      "type": "function"
    },
    {
      "inputs": [],
      "name": "rollToNextOption",
      "outputs": [],
      "stateMutability": "nonpayable",
      "type": "function"
    },
    {
      "inputs": [
        {
          "internalType": "uint256",
          "name": "",
          "type": "uint256"
        }
      ],
      "name": "roundPricePerShare",
      "outputs": [
        {
          "internalType": "uint256",
          "name": "",
          "type": "uint256"
        }
      ],
      "stateMutability": "view",
      "type": "function"
    },
    {
      "inputs": [
        {
          "internalType": "uint256",
          "name": "newCap",
          "type": "uint256"
        }
      ],
      "name": "setCap",
      "outputs": [],
      "stateMutability": "nonpayable",
      "type": "function"
    },
    {
      "inputs": [
        {
          "internalType": "address",
          "name": "newFeeRecipient",
          "type": "address"
        }
      ],
      "name": "setFeeRecipient",
      "outputs": [],
      "stateMutability": "nonpayable",
      "type": "function"
    },
    {
      "inputs": [
        {
          "internalType": "address",
          "name": "newLiquidityGauge",
          "type": "address"
        }
      ],
      "name": "setLiquidityGauge",
      "outputs": [],
      "stateMutability": "nonpayable",
      "type": "function"
    },
    {
      "inputs": [
        {
          "internalType": "uint256",
          "name": "newManagementFee",
          "type": "uint256"
        }
      ],
      "name": "setManagementFee",
      "outputs": [],
      "stateMutability": "nonpayable",
      "type": "function"
    },
    {
      "inputs": [
        {
          "internalType": "uint256",
          "name": "minPrice",
          "type": "uint256"
        }
      ],
      "name": "setMinPrice",
      "outputs": [],
      "stateMutability": "nonpayable",
      "type": "function"
    },
    {
      "inputs": [
        {
          "internalType": "address",
          "name": "newKeeper",
          "type": "address"
        }
      ],
      "name": "setNewKeeper",
      "outputs": [],
      "stateMutability": "nonpayable",
      "type": "function"
    },
    {
      "inputs": [
        {
          "internalType": "address",
          "name": "newOptionsPremiumPricer",
          "type": "address"
        }
      ],
      "name": "setOptionsPremiumPricer",
      "outputs": [],
      "stateMutability": "nonpayable",
      "type": "function"
    },
    {
      "inputs": [
        {
          "internalType": "uint256",
          "name": "newPerformanceFee",
          "type": "uint256"
        }
      ],
      "name": "setPerformanceFee",
      "outputs": [],
      "stateMutability": "nonpayable",
      "type": "function"
    },
    {
      "inputs": [
        {
          "internalType": "uint128",
          "name": "strikePrice",
          "type": "uint128"
        }
      ],
      "name": "setStrikePrice",
      "outputs": [],
      "stateMutability": "nonpayable",
      "type": "function"
    },
    {
      "inputs": [
        {
          "internalType": "address",
          "name": "newStrikeSelection",
          "type": "address"
        }
      ],
      "name": "setStrikeSelection",
      "outputs": [],
      "stateMutability": "nonpayable",
      "type": "function"
    },
    {
      "inputs": [
        {
          "internalType": "address",
          "name": "newVaultPauser",
          "type": "address"
        }
      ],
      "name": "setVaultPauser",
      "outputs": [],
      "stateMutability": "nonpayable",
      "type": "function"
    },
    {
      "inputs": [
        {
          "components": [
            {
              "internalType": "uint256",
              "name": "swapId",
              "type": "uint256"
            },
            {
              "internalType": "uint256",
              "name": "nonce",
              "type": "uint256"
            },
            {
              "internalType": "address",
              "name": "signerWallet",
              "type": "address"
            },
            {
              "internalType": "uint256",
              "name": "sellAmount",
              "type": "uint256"
            },
            {
              "internalType": "uint256",
              "name": "buyAmount",
              "type": "uint256"
            },
            {
              "internalType": "address",
              "name": "referrer",
              "type": "address"
            },
            {
              "internalType": "uint8",
              "name": "v",
              "type": "uint8"
            },
            {
              "internalType": "bytes32",
              "name": "r",
              "type": "bytes32"
            },
            {
              "internalType": "bytes32",
              "name": "s",
              "type": "bytes32"
            }
          ],
          "internalType": "struct ISwap.Bid[]",
          "name": "bids",
          "type": "tuple[]"
        }
      ],
      "name": "settleOffer",
      "outputs": [],
      "stateMutability": "nonpayable",
      "type": "function"
    },
    {
      "inputs": [
        {
          "internalType": "address",
          "name": "account",
          "type": "address"
        }
      ],
      "name": "shareBalances",
      "outputs": [
        {
          "internalType": "uint256",
          "name": "heldByAccount",
          "type": "uint256"
        },
        {
          "internalType": "uint256",
          "name": "heldByVault",
          "type": "uint256"
        }
      ],
      "stateMutability": "view",
      "type": "function"
    },
    {
      "inputs": [
        {
          "internalType": "address",
          "name": "account",
          "type": "address"
        }
      ],
      "name": "shares",
      "outputs": [
        {
          "internalType": "uint256",
          "name": "",
          "type": "uint256"
        }
      ],
      "stateMutability": "view",
      "type": "function"
    },
    {
      "inputs": [
        {
          "internalType": "uint256",
          "name": "numShares",
          "type": "uint256"
        }
      ],
      "name": "stake",
      "outputs": [],
      "stateMutability": "nonpayable",
      "type": "function"
    },
    {
      "inputs": [],
      "name": "strikeSelection",
      "outputs": [
        {
          "internalType": "address",
          "name": "",
          "type": "address"
        }
      ],
      "stateMutability": "view",
      "type": "function"
    },
    {
      "inputs": [],
      "name": "symbol",
      "outputs": [
        {
          "internalType": "string",
          "name": "",
          "type": "string"
        }
      ],
      "stateMutability": "view",
      "type": "function"
    },
    {
      "inputs": [],
      "name": "totalBalance",
      "outputs": [
        {
          "internalType": "uint256",
          "name": "",
          "type": "uint256"
        }
      ],
      "stateMutability": "view",
      "type": "function"
    },
    {
      "inputs": [],
      "name": "totalPending",
      "outputs": [
        {
          "internalType": "uint256",
          "name": "",
          "type": "uint256"
        }
      ],
      "stateMutability": "view",
      "type": "function"
    },
    {
      "inputs": [],
      "name": "totalSupply",
      "outputs": [
        {
          "internalType": "uint256",
          "name": "",
          "type": "uint256"
        }
      ],
      "stateMutability": "view",
      "type": "function"
    },
    {
      "inputs": [
        {
          "internalType": "address",
          "name": "recipient",
          "type": "address"
        },
        {
          "internalType": "uint256",
          "name": "amount",
          "type": "uint256"
        }
      ],
      "name": "transfer",
      "outputs": [
        {
          "internalType": "bool",
          "name": "",
          "type": "bool"
        }
      ],
      "stateMutability": "nonpayable",
      "type": "function"
    },
    {
      "inputs": [
        {
          "internalType": "address",
          "name": "sender",
          "type": "address"
        },
        {
          "internalType": "address",
          "name": "recipient",
          "type": "address"
        },
        {
          "internalType": "uint256",
          "name": "amount",
          "type": "uint256"
        }
      ],
      "name": "transferFrom",
      "outputs": [
        {
          "internalType": "bool",
          "name": "",
          "type": "bool"
        }
      ],
      "stateMutability": "nonpayable",
      "type": "function"
    },
    {
      "inputs": [
        {
          "internalType": "address",
          "name": "newOwner",
          "type": "address"
        }
      ],
      "name": "transferOwnership",
      "outputs": [],
      "stateMutability": "nonpayable",
      "type": "function"
    },
    {
      "inputs": [],
      "name": "vaultParams",
      "outputs": [
        {
          "internalType": "bool",
          "name": "isPut",
          "type": "bool"
        },
        {
          "internalType": "uint8",
          "name": "decimals",
          "type": "uint8"
        },
        {
          "internalType": "address",
          "name": "asset",
          "type": "address"
        },
        {
          "internalType": "address",
          "name": "underlying",
          "type": "address"
        },
        {
          "internalType": "uint56",
          "name": "minimumSupply",
          "type": "uint56"
        },
        {
          "internalType": "uint104",
          "name": "cap",
          "type": "uint104"
        }
      ],
      "stateMutability": "view",
      "type": "function"
    },
    {
      "inputs": [],
      "name": "vaultPauser",
      "outputs": [
        {
          "internalType": "address",
          "name": "",
          "type": "address"
        }
      ],
      "stateMutability": "view",
      "type": "function"
    },
    {
      "inputs": [],
      "name": "vaultState",
      "outputs": [
        {
          "internalType": "uint16",
          "name": "round",
          "type": "uint16"
        },
        {
          "internalType": "uint104",
          "name": "lockedAmount",
          "type": "uint104"
        },
        {
          "internalType": "uint104",
          "name": "lastLockedAmount",
          "type": "uint104"
        },
        {
          "internalType": "uint128",
          "name": "totalPending",
          "type": "uint128"
        },
        {
          "internalType": "uint128",
          "name": "queuedWithdrawShares",
          "type": "uint128"
        }
      ],
      "stateMutability": "view",
      "type": "function"
    },
    {
      "inputs": [
        {
          "internalType": "uint256",
          "name": "amount",
          "type": "uint256"
        }
      ],
      "name": "withdrawInstantly",
      "outputs": [],
      "stateMutability": "nonpayable",
      "type": "function"
    },
    {
      "inputs": [
        {
          "internalType": "address",
          "name": "",
          "type": "address"
        }
      ],
      "name": "withdrawals",
      "outputs": [
        {
          "internalType": "uint16",
          "name": "round",
          "type": "uint16"
        },
        {
          "internalType": "uint128",
          "name": "shares",
          "type": "uint128"
        }
      ],
      "stateMutability": "view",
      "type": "function"
    }
  ],
  "transactionHash": "0x418243ce2d76b625116a2bdbb1fc3d4b5c556613e547dbfa4ddf42ac411cf195",
  "args": [
    "0xC02aaA39b223FE8D0A0e5C4F27eAD9083C756Cc2",
    "0xA0b86991c6218b36c1d19D4a2e9Eb0cE3606eB48",
    "0x7C06792Af1632E77cb27a558Dc0885338F4Bdf8E",
    "0x4ccc2339F87F6c59c6893E1A678c2266cA58dC72",
    "0x5934807cC0654d46755eBd2848840b616256C6Ef",
    "0xEb8CAB2F4663247db8eAfb556F498c861bB4e161"
  ],
  "solcInputHash": "863e1da1fc0c6524664d6bdf38c5110b",
  "bytecode": "0x6101406040523480156200001257600080fd5b506040516200570238038062005702833981016040819052620000359162000252565b85858484846001600160a01b0385166200007f5760405162461bcd60e51b8152602060048201526006602482015265042beeecae8d60d31b60448201526064015b60405180910390fd5b6001600160a01b038416620000c05760405162461bcd60e51b8152602060048201526006602482015265215f7573646360d01b604482015260640162000076565b6001600160a01b038116620001095760405162461bcd60e51b815260206004820152600e60248201526d0857dcddd85c10dbdb9d1c9858dd60921b604482015260640162000076565b6001600160a01b038316620001555760405162461bcd60e51b815260206004820152601160248201527010afb3b0b6b6b0a1b7b73a3937b63632b960791b604482015260640162000076565b6001600160a01b0382166200019c5760405162461bcd60e51b815260206004820152600c60248201526b0857db585c99da5b941bdbdb60a21b604482015260640162000076565b6001600160601b0319606095861b811660805293851b841660a05291841b831660c052831b821660e05290911b16610100526001600160a01b038416620002185760405162461bcd60e51b815260206004820152600f60248201526e215f6f546f6b656e466163746f727960881b604482015260640162000076565b50505060601b6001600160601b0319166101205250620002d29050565b80516001600160a01b03811681146200024d57600080fd5b919050565b60008060008060008060c087890312156200026b578182fd5b620002768762000235565b9550620002866020880162000235565b9450620002966040880162000235565b9350620002a66060880162000235565b9250620002b66080880162000235565b9150620002c660a0880162000235565b90509295509295509295565b60805160601c60a05160601c60c05160601c60e05160601c6101005160601c6101205160601c6153886200037a60003960008181610bcb0152612737015260008181610b75015281816116b401526135fc01526000818161074d0152611d820152600081816105200152818161155901528181611d5a01526138fc0152600081816108ee015261275c015260008181610acb01528181612cc20152612cff01526153886000f3fe608060405234801561001057600080fd5b50600436106104a15760003560e01c80638b10cc7c1161026d578063ca24efaf11610151578063e278fe6f116100ce578063f756fa2111610092578063f756fa2114610c98578063f87c7d9314610ca0578063f957a06714610ca8578063f9a0be6814610cbb578063fba7dc6114610cce578063fe56e23214610ce257600080fd5b8063e278fe6f14610c39578063e73c63d514610c41578063e74b981b14610c4a578063f2fde38b14610c5d578063f656ba5114610c7057600080fd5b8063d5f2638211610115578063d5f2638214610baa578063db006a7514610bb3578063db43e86214610bc6578063dd62ed3e14610bed578063e16fdbd514610c2657600080fd5b8063ca24efaf14610b40578063ca59409414610b55578063ce7c2ac214610b5d578063cf3afa5114610b70578063d164cc1514610b9757600080fd5b8063a694fc3a116101ea578063ad7a672f116101ae578063ad7a672f14610aed578063afa6626414610af5578063b2016bd414610b08578063b4d1d79514610b1b578063b6b55f2514610b25578063b9f8092b14610b3857600080fd5b8063a694fc3a14610a84578063a6f7f5d614610a97578063a9059cbb14610aa0578063aced166114610ab3578063ad5c464814610ac657600080fd5b80639fcc2d75116102315780639fcc2d7514610956578063a083ff17146109f5578063a285c9e814610a4b578063a2db9d8314610a60578063a457c2d714610a7157600080fd5b80638b10cc7c146109105780638da5cb5b14610921578063947061b51461093257806395d89b411461094657806399530b061461094e57600080fd5b806347786d371161039457806369b41170116103115780637a9262a2116102d55780637a9262a21461084d5780637e108d52146108a457806383536ff3146108b757806387153eb1146108c057806387788782146108e057806389a30271146108e957600080fd5b806369b41170146107f95780636f31ab341461080157806370897b231461080957806370a082311461081c578063715018a61461084557600080fd5b80635ea8cd12116103585780635ea8cd121461072d578063600a2cfb14610740578063650cce8a146107485780636719b2ee1461076f57806369230868146107e657600080fd5b806347786d37146106e15780634b2431d9146106f4578063503c70aa146106fe57806355489bb214610707578063573f0d6e1461071a57600080fd5b8063313ce567116104225780633f23bb73116103e65780633f23bb731461068e5780633f90916a146106a1578063432833a6146106b25780634603c0aa146106bb57806346904840146106ce57600080fd5b8063313ce56714610619578063355274ea1461063657806336efd16f14610647578063395093511461065a5780633ec143d31461066d57600080fd5b80631a92f6c2116104695780631a92f6c21461051b57806323b872dd1461055a5780632728f3331461056d5780632775d01c146105f357806330630da41461060657600080fd5b8063048bf085146104a657806306fdde03146104bb578063095ea7b3146104d95780630cbf54c8146104fc57806318160ddd14610513575b600080fd5b6104b96104b43660046148ac565b610cf5565b005b6104c3610d4a565b6040516104d09190614d33565b60405180910390f35b6104ec6104e7366004614a3f565b610ddc565b60405190151581526020016104d0565b61050560fc5481565b6040519081526020016104d0565b609954610505565b6105427f000000000000000000000000000000000000000000000000000000000000000081565b6040516001600160a01b0390911681526020016104d0565b6104ec6105683660046149ff565b610df3565b60cf5460d0546105ae9161ffff8116916001600160681b03620100008304811692600160781b900416906001600160801b0380821691600160801b90041685565b6040805161ffff90961686526001600160681b03948516602087015293909216928401929092526001600160801b03918216606084015216608082015260a0016104d0565b6104b9610601366004614b54565b610e9f565b6104b96106143660046148ac565b611042565b60cc54610100900460ff1660405160ff90911681526020016104d0565b60ce546001600160681b0316610505565b6104b9610655366004614b84565b6110da565b6104ec610668366004614a3f565b611191565b60fa5461067b9061ffff1681565b60405161ffff90911681526020016104d0565b61050561069c3660046148ac565b6111cd565b60d0546001600160801b0316610505565b61050560fd5481565b6104b96106c93660046148ac565b611220565b60d354610542906001600160a01b031681565b6104b96106ef366004614b54565b6112c2565b6105056101015481565b61050560fe5481565b6104b9610715366004614b2d565b61139d565b6104b96107283660046148ac565b611435565b6104b961073b366004614b54565b611482565b6104b96114ed565b6105427f000000000000000000000000000000000000000000000000000000000000000081565b6107b561077d3660046148ac565b60c96020526000908152604090205461ffff8116906201000081046001600160681b031690600160781b90046001600160801b031683565b6040805161ffff90941684526001600160681b0390921660208401526001600160801b0316908201526060016104d0565b6104b96107f4366004614aa0565b611648565b610505600081565b6104b9611726565b6104b9610817366004614b54565b611763565b61050561082a3660046148ac565b6001600160a01b031660009081526097602052604090205490565b6104b961182a565b61088261085b3660046148ac565b60cb6020526000908152604090205461ffff8116906201000090046001600160801b031682565b6040805161ffff90931683526001600160801b039091166020830152016104d0565b6104b96108b2366004614b54565b611860565b61050560f85481565b6105056108ce366004614b54565b60ca6020526000908152604090205481565b61050560d55481565b6105427f000000000000000000000000000000000000000000000000000000000000000081565b60d2546001600160a01b0316610542565b6065546001600160a01b0316610542565b61010254610542906001600160a01b031681565b6104c36118aa565b6105056118b9565b60cc5460cd5460ce546109a59260ff808216936101008304909116926001600160a01b036201000090930483169282169166ffffffffffffff600160a01b90910416906001600160681b031686565b60408051961515875260ff90951660208701526001600160a01b03938416948601949094529116606084015266ffffffffffffff1660808301526001600160681b031660a082015260c0016104d0565b60d15460d254610a1f916001600160a01b039081169190811690600160a01b900463ffffffff1683565b604080516001600160a01b03948516815293909216602084015263ffffffff16908201526060016104d0565b60d254600160a01b900463ffffffff16610505565b60d1546001600160a01b0316610542565b6104ec610a7f366004614a3f565b6118f3565b6104b9610a92366004614b54565b61198c565b61050560d65481565b6104ec610aae366004614a3f565b611a89565b60d454610542906001600160a01b031681565b6105427f000000000000000000000000000000000000000000000000000000000000000081565b610505611a96565b60f654610542906001600160a01b031681565b60d754610542906001600160a01b031681565b61050562093a8081565b6104b9610b33366004614b54565b611bc4565b6104b9611c38565b610102546104ec90600160a01b900460ff1681565b6104b9611e2e565b610505610b6b3660046148ac565b611ed1565b6105427f000000000000000000000000000000000000000000000000000000000000000081565b6104b9610ba53660046148ac565b611eee565b61050560f95481565b6104b9610bc1366004614b54565b611f7d565b6105427f000000000000000000000000000000000000000000000000000000000000000081565b610505610bfb3660046148c8565b6001600160a01b03918216600090815260986020908152604080832093909416825291909152205490565b6104b9610c34366004614900565b611fea565b6104b96121f6565b61050560fb5481565b6104b9610c583660046148ac565b6123aa565b6104b9610c6b3660046148ac565b61249d565b610c83610c7e3660046148ac565b612538565b604080519283526020830191909152016104d0565b6104b961261b565b6104b9612670565b60f754610542906001600160a01b031681565b60ff54610542906001600160a01b031681565b61010054610542906001600160a01b031681565b6104b9610cf0366004614b54565b6128c9565b6065546001600160a01b03163314610d285760405162461bcd60e51b8152600401610d1f90614db5565b60405180910390fd5b60ff80546001600160a01b0319166001600160a01b0392909216919091179055565b6060609a8054610d599061515d565b80601f0160208091040260200160405190810160405280929190818152602001828054610d859061515d565b8015610dd25780601f10610da757610100808354040283529160200191610dd2565b820191906000526020600020905b815481529060010190602001808311610db557829003601f168201915b5050505050905090565b6000610de93384846129aa565b5060015b92915050565b6000610e00848484612acf565b6001600160a01b038416600090815260986020908152604080832033845290915290205482811015610e855760405162461bcd60e51b815260206004820152602860248201527f45524332303a207472616e7366657220616d6f756e74206578636565647320616044820152676c6c6f77616e636560c01b6064820152608401610d1f565b610e9285338584036129aa565b60019150505b9392505050565b60026001541415610ec25760405162461bcd60e51b8152600401610d1f90614e0b565b600260015533600090815260c96020526040902060cf5461ffff1682610efa5760405162461bcd60e51b8152600401610d1f90614dea565b815461ffff168114610f3e5760405162461bcd60e51b815260206004820152600d60248201526c125b9d985b1a59081c9bdd5b99609a1b6044820152606401610d1f565b81546201000090046001600160681b031683811015610f8f5760405162461bcd60e51b815260206004820152600d60248201526c115e18d9595908185b5bdd5b9d609a1b6044820152606401610d1f565b610f998185612c9f565b83546001600160681b0391909116620100000262010000600160781b031990911617835560d054610fd3906001600160801b031685612c9f565b60d080546001600160801b0319166001600160801b0392909216919091179055604080518581526020810184905233917fab2daf3c146ca6416cbccd2a86ed2ba995e171ef6319df14a38aef01403a9c96910160405180910390a26110383385612cab565b5050600180555050565b6065546001600160a01b0316331461106c5760405162461bcd60e51b8152600401610d1f90614db5565b6001600160a01b0381166110b85760405162461bcd60e51b815260206004820152601360248201527210b732bba9ba3934b5b2a9b2b632b1ba34b7b760691b6044820152606401610d1f565b60f780546001600160a01b0319166001600160a01b0392909216919091179055565b600260015414156110fd5760405162461bcd60e51b8152600401610d1f90614e0b565b60026001558161111f5760405162461bcd60e51b8152600401610d1f90614dea565b6001600160a01b0381166111615760405162461bcd60e51b815260206004820152600960248201526810b1b932b234ba37b960b91b6044820152606401610d1f565b61116b8282612e11565b60cc54611189906201000090046001600160a01b03163330856130a3565b505060018055565b3360008181526098602090815260408083206001600160a01b03871684529091528120549091610de99185906111c8908690614fd8565b6129aa565b60cc5460009060ff61010090910416816112036111e960995490565b6111f1611a96565b60d0546001600160801b03168561310e565b905061121861121185611ed1565b828461314e565b949350505050565b6065546001600160a01b0316331461124a5760405162461bcd60e51b8152600401610d1f90614db5565b6001600160a01b0381166112a05760405162461bcd60e51b815260206004820152601860248201527f216e65774f7074696f6e735072656d69756d50726963657200000000000000006044820152606401610d1f565b60f680546001600160a01b0319166001600160a01b0392909216919091179055565b6065546001600160a01b031633146112ec5760405162461bcd60e51b8152600401610d1f90614db5565b600081116113265760405162461bcd60e51b81526020600482015260076024820152660216e65774361760cc1b6044820152606401610d1f565b61132f816131b0565b60ce54604080516001600160681b039092168252602082018390527f5f86edbb9d92228a9edc3f0ebc0f001bda1ea345ac7335e0eeef3504b31d1a1c910160405180910390a160ce80546cffffffffffffffffffffffffff19166001600160681b0392909216919091179055565b6065546001600160a01b031633146113c75760405162461bcd60e51b8152600401610d1f90614db5565b6000816001600160801b03161161140f5760405162461bcd60e51b815260206004820152600c60248201526b21737472696b65507269636560a01b6044820152606401610d1f565b6001600160801b031660fb5560cf5460fa805461ffff191661ffff909216919091179055565b6065546001600160a01b0316331461145f5760405162461bcd60e51b8152600401610d1f90614db5565b61010280546001600160a01b0319166001600160a01b0392909216919091179055565b60d4546001600160a01b031633146114ac5760405162461bcd60e51b8152600401610d1f90614d46565b600081116114e85760405162461bcd60e51b8152602060048201526009602482015268216d696e507269636560b81b6044820152606401610d1f565b60f955565b60d4546001600160a01b031633146115175760405162461bcd60e51b8152600401610d1f90614d46565b6002600154141561153a5760405162461bcd60e51b8152600401610d1f90614e0b565b600260015560d2546040516358ffbb3d60e01b81526001600160a01b037f000000000000000000000000000000000000000000000000000000000000000081166004830152909116602482015260009073f7F4260943DB50EEE7e917330C35B460fF70aD54906358ffbb3d9060440160206040518083038186803b1580156115c157600080fd5b505af41580156115d5573d6000803e3d6000fd5b505050506040513d601f19601f820116820180604052508101906115f99190614b6c565b60cf54909150611618906201000090046001600160681b031682612c9f565b60cf80546001600160681b0392909216620100000262010000600160781b03199092169190911790555060018055565b60d4546001600160a01b031633146116725760405162461bcd60e51b8152600401610d1f90614d46565b600260015414156116955760405162461bcd60e51b8152600401610d1f90614e0b565b600260015560fd54604051633545cbf360e21b81526001600160a01b037f0000000000000000000000000000000000000000000000000000000000000000169163d5172fcc916116ec919086908690600401614f15565b600060405180830381600087803b15801561170657600080fd5b505af115801561171a573d6000803e3d6000fd5b50506001805550505050565b600260015414156117495760405162461bcd60e51b8152600401610d1f90614e0b565b600260018190555061175d600060016131fa565b60018055565b6065546001600160a01b0316331461178d5760405162461bcd60e51b8152600401610d1f90614db5565b61179b620f424060646150fb565b81106117e95760405162461bcd60e51b815260206004820152601760248201527f496e76616c696420706572666f726d616e6365206665650000000000000000006044820152606401610d1f565b60d55460408051918252602082018390527f24867dfb6fcb9970a07be21024956524abe7a1837faa903ff0e99aaa40cf893e910160405180910390a160d555565b6065546001600160a01b031633146118545760405162461bcd60e51b8152600401610d1f90614db5565b61185e60006133a9565b565b600260015414156118835760405162461bcd60e51b8152600401610d1f90614e0b565b6002600155611891816133fb565b6101015461189f90826135c2565b610101555060018055565b6060609b8054610d599061515d565b60006118ee6118c760995490565b6118cf611a96565b60d05460cc546001600160801b0390911690610100900460ff1661310e565b905090565b3360009081526098602090815260408083206001600160a01b0386168452909152812054828110156119755760405162461bcd60e51b815260206004820152602560248201527f45524332303a2064656372656173656420616c6c6f77616e63652062656c6f77604482015264207a65726f60d81b6064820152608401610d1f565b61198233858584036129aa565b5060019392505050565b600260015414156119af5760405162461bcd60e51b8152600401610d1f90614e0b565b600260015560ff546001600160a01b0316806119ca57600080fd5b600082116119d757600080fd5b3360009081526097602052604090205482811015611a0357611a036119fc8483612c9f565b60006131fa565b611a0e333085612acf565b611a193083856129aa565b6040516383df674760e01b815260048101849052336024820152600060448201526001600160a01b038316906383df674790606401600060405180830381600087803b158015611a6857600080fd5b505af1158015611a7c573d6000803e3d6000fd5b5050600180555050505050565b6000610de9338484612acf565b60d2546000906001600160a01b0316611b295760cc546040516370a0823160e01b8152306004820152620100009091046001600160a01b0316906370a082319060240160206040518083038186803b158015611af157600080fd5b505afa158015611b05573d6000803e3d6000fd5b505050506040513d601f19601f820116820180604052508101906118ee9190614b6c565b60cc546040516370a0823160e01b81523060048201526118ee916201000090046001600160a01b0316906370a082319060240160206040518083038186803b158015611b7457600080fd5b505afa158015611b88573d6000803e3d6000fd5b505050506040513d601f19601f82011682018060405250810190611bac9190614b6c565b60cf546201000090046001600160681b0316906135c2565b60026001541415611be75760405162461bcd60e51b8152600401610d1f90614e0b565b600260015580611c095760405162461bcd60e51b8152600401610d1f90614dea565b611c138133612e11565b60cc54611c31906201000090046001600160a01b03163330846130a3565b5060018055565b60d4546001600160a01b03163314611c625760405162461bcd60e51b8152600401610d1f90614d46565b60026001541415611c855760405162461bcd60e51b8152600401610d1f90614e0b565b600260015560d1546001600160a01b031680611cd15760405162461bcd60e51b815260206004820152600b60248201526a10b732bc3a27b83a34b7b760a91b6044820152606401610d1f565b60d280546001600160a01b03199081166001600160a01b03841690811790925560d18054909116905560cf54604051620100009091046001600160681b03168082529133917f045c558fdce4714c5816d53820d27420f4cd860892df203fe636384d8d19aa019060200160405180910390a3604051632904c23960e01b81526001600160a01b037f0000000000000000000000000000000000000000000000000000000000000000811660048301527f000000000000000000000000000000000000000000000000000000000000000081166024830152831660448201526064810182905273f7F4260943DB50EEE7e917330C35B460fF70aD5490632904c2399060840160206040518083038186803b158015611ded57600080fd5b505af4158015611e01573d6000803e3d6000fd5b505050506040513d601f19601f82011682018060405250810190611e259190614b6c565b506111896135ce565b610102546001600160a01b031680611e4557600080fd5b611e51600060016131fa565b3360008181526097602052604090205490611e6d9083836129aa565b60405163c9c2d4f560e01b8152336004820152602481018290526001600160a01b0383169063c9c2d4f590604401600060405180830381600087803b158015611eb557600080fd5b505af1158015611ec9573d6000803e3d6000fd5b505050505050565b6000806000611edf84612538565b909250905061121882826135c2565b6065546001600160a01b03163314611f185760405162461bcd60e51b8152600401610d1f90614db5565b6001600160a01b038116611f5b5760405162461bcd60e51b815260206004820152600a60248201526910b732bba5b2b2b832b960b11b6044820152606401610d1f565b60d480546001600160a01b0319166001600160a01b0392909216919091179055565b60026001541415611fa05760405162461bcd60e51b8152600401610d1f90614e0b565b600260015580611fdf5760405162461bcd60e51b815260206004820152600a602482015269216e756d53686172657360b01b6044820152606401610d1f565b611c318160006131fa565b600054610100900460ff1680612003575060005460ff16155b61201f5760405162461bcd60e51b8152600401610d1f90614d67565b600054610100900460ff16158015612041576000805461ffff19166101011790555b6120518d8d8d8d8d8d8d896136a0565b6001600160a01b0386166120a05760405162461bcd60e51b815260206004820152601660248201527510afb7b83a34b7b739a83932b6b4bab6a83934b1b2b960511b6044820152606401610d1f565b6001600160a01b0385166120ea5760405162461bcd60e51b815260206004820152601160248201527010afb9ba3934b5b2a9b2b632b1ba34b7b760791b6044820152606401610d1f565b60008463ffffffff161180156121105750612107600a60646150fb565b8463ffffffff16105b6121505760405162461bcd60e51b81526020600482015260116024820152700857dc1c995b5a5d5b511a5cd8dbdd5b9d607a1b6044820152606401610d1f565b61012c8310156121965760405162461bcd60e51b815260206004820152601160248201527010afb0bab1ba34b7b7223ab930ba34b7b760791b6044820152606401610d1f565b60f680546001600160a01b038089166001600160a01b03199283161790925560f780549288169290911691909117905563ffffffff841660f85560fc83905580156121e7576000805461ff00191690555b50505050505050505050505050565b600260015414156122195760405162461bcd60e51b8152600401610d1f90614e0b565b600260015560d2546001600160a01b03168015158061223e575060cf5461ffff166001145b6122795760405162461bcd60e51b815260206004820152600c60248201526b149bdd5b990818db1bdcd95960a21b6044820152606401610d1f565b61228281613868565b600061010154905060008061229960fe54846139de565b60fe81905560d05491935091506000906122c390600160801b90046001600160801b0316856135c2565b90506122ce81613c77565b60d080546001600160801b03808416600160801b0291161790556000610101556122f7836131b0565b60cf805462010000600160781b031916620100006001600160681b03861602179055600061232542826135c2565b905063ffffffff81111561237b5760405162461bcd60e51b815260206004820152601860248201527f4f766572666c6f77206e6578744f7074696f6e526561647900000000000000006044820152606401610d1f565b60d2805463ffffffff909216600160a01b0263ffffffff60a01b19909216919091179055505060018055505050565b6065546001600160a01b031633146123d45760405162461bcd60e51b8152600401610d1f90614db5565b6001600160a01b03811661241d5760405162461bcd60e51b815260206004820152601060248201526f085b995dd19959549958da5c1a595b9d60821b6044820152606401610d1f565b60d3546001600160a01b038281169116141561247b5760405162461bcd60e51b815260206004820152601860248201527f4d757374206265206e657720666565526563697069656e7400000000000000006044820152606401610d1f565b60d380546001600160a01b0319166001600160a01b0392909216919091179055565b6065546001600160a01b031633146124c75760405162461bcd60e51b8152600401610d1f90614db5565b6001600160a01b03811661252c5760405162461bcd60e51b815260206004820152602660248201527f4f776e61626c653a206e6577206f776e657220697320746865207a65726f206160448201526564647265737360d01b6064820152608401610d1f565b612535816133a9565b50565b6001600160a01b038116600090815260c9602090815260408083208151606081018352905461ffff81168083526201000082046001600160681b031694830194909452600160781b90046001600160801b0316918101919091528291600111156125ba575050506001600160a01b031660009081526097602052604081205491565b60cf54815161ffff908116600090815260ca602052604081205460cc5491936125f093869391169190610100900460ff16613cc1565b9050612611856001600160a01b031660009081526097602052604090205490565b9590945092505050565b6002600154141561263e5760405162461bcd60e51b8152600401610d1f90614e0b565b6002600155600061264d613d32565b60fe5490915061265d9082612c9f565b6001600160801b031660fe555060018055565b60d4546001600160a01b0316331461269a5760405162461bcd60e51b8152600401610d1f90614d46565b600260015414156126bd5760405162461bcd60e51b8152600401610d1f90614e0b565b600260015560d2546001600160a01b0316801580156126e3575060cf5461ffff16600114155b6127225760405162461bcd60e51b815260206004820152601060248201526f149bdd5b99081b9bdd0818db1bdcd95960821b6044820152606401610d1f565b60408051610120810182526001600160a01b037f0000000000000000000000000000000000000000000000000000000000000000811682527f00000000000000000000000000000000000000000000000000000000000000008116602083015260cc8054620100009004821683850152848216606084015260006080840181905260fa5461ffff1660a085015260fb5460c085015260f754831660e085015260f65490921661010084015292516377e3ce0d60e11b8152919290918291829173f7F4260943DB50EEE7e917330C35B460fF70aD549163efc79c1a9161280e91889160cf90600401614e42565b60606040518083038186803b15801561282657600080fd5b505af415801561283a573d6000803e3d6000fd5b505050506040513d601f19601f8201168201806040525081019061285e9190614a6a565b604080518381526020810183905293965091945092507fa217999b1c125c2a996f712c5f26a28addad7167bd8a67d5bd5b2a751148abb0910160405180910390a1505060d180546001600160a01b0319166001600160a01b0392909216919091179055505060018055565b6065546001600160a01b031633146128f35760405162461bcd60e51b8152600401610d1f90614db5565b612901620f424060646150fb565b81106129485760405162461bcd60e51b8152602060048201526016602482015275496e76616c6964206d616e6167656d656e742066656560501b6044820152606401610d1f565b600061296563031ba30961295f84620f4240613eef565b90613efb565b60d65460408051918252602082018590529192507f4e874b007ab14f7e263baefd44951834c8266f4f224d1092e49e9c254354cc54910160405180910390a160d65550565b6001600160a01b038316612a0c5760405162461bcd60e51b8152602060048201526024808201527f45524332303a20617070726f76652066726f6d20746865207a65726f206164646044820152637265737360e01b6064820152608401610d1f565b6001600160a01b038216612a6d5760405162461bcd60e51b815260206004820152602260248201527f45524332303a20617070726f766520746f20746865207a65726f206164647265604482015261737360f01b6064820152608401610d1f565b6001600160a01b0383811660008181526098602090815260408083209487168084529482529182902085905590518481527f8c5be1e5ebec7d5bd14f71427d1e84f3dd0314c0f7b2291e5b200ac8c7c3b92591015b60405180910390a3505050565b6001600160a01b038316612b335760405162461bcd60e51b815260206004820152602560248201527f45524332303a207472616e736665722066726f6d20746865207a65726f206164604482015264647265737360d81b6064820152608401610d1f565b6001600160a01b038216612b955760405162461bcd60e51b815260206004820152602360248201527f45524332303a207472616e7366657220746f20746865207a65726f206164647260448201526265737360e81b6064820152608401610d1f565b6001600160a01b03831660009081526097602052604090205481811015612c0d5760405162461bcd60e51b815260206004820152602660248201527f45524332303a207472616e7366657220616d6f756e7420657863656564732062604482015265616c616e636560d01b6064820152608401610d1f565b6001600160a01b03808516600090815260976020526040808220858503905591851681529081208054849290612c44908490614fd8565b92505081905550826001600160a01b0316846001600160a01b03167fddf252ad1be2c89b69c2b068fc378daa952ba7f163c4a11628f55a4df523b3ef84604051612c9091815260200190565b60405180910390a35b50505050565b6000610e98828461511a565b60cc546001600160a01b03620100009091048116907f000000000000000000000000000000000000000000000000000000000000000016811415612df857604051632e1a7d4d60e01b8152600481018390527f00000000000000000000000000000000000000000000000000000000000000006001600160a01b031690632e1a7d4d90602401600060405180830381600087803b158015612d4b57600080fd5b505af1158015612d5f573d6000803e3d6000fd5b505050506000836001600160a01b03168360405160006040518083038185875af1925050503d8060008114612db0576040519150601f19603f3d011682016040523d82523d6000602084013e612db5565b606091505b5050905080612c995760405162461bcd60e51b815260206004820152600f60248201526e151c985b9cd9995c8819985a5b1959608a1b6044820152606401610d1f565b612e0c6001600160a01b0382168484613f07565b505050565b60cf5461ffff166000612e2c84612e26611a96565b906135c2565b60ce549091506001600160681b0316811115612e775760405162461bcd60e51b815260206004820152600a6024820152690457863656564206361760b41b6044820152606401610d1f565b60cd54600160a01b900466ffffffffffffff16811015612ed05760405162461bcd60e51b8152602060048201526014602482015273496e73756666696369656e742062616c616e636560601b6044820152606401610d1f565b60408051858152602081018490526001600160a01b038516917f90890809c654f11d6e72a28fa60149770a0d11ec6c92319d6ceb2bb0a4ea1a15910160405180910390a26001600160a01b038316600090815260c9602090815260408083208151606081018352905461ffff81168083526201000082046001600160681b031683860152600160781b9091046001600160801b031682840152845260ca90925282205460cc54919291612f8f918491879190610100900460ff16613cc1565b8251909150869061ffff16851415612fc0576020830151600090612fbc906001600160681b0316896135c2565b9150505b612fc9816131b0565b6040805160608101825261ffff80881682526001600160681b0380851660208085019182526001600160801b038089168688019081526001600160a01b038e16600090815260c990935296822095518654935197518216600160781b02600160781b600160f81b03199890951662010000026effffffffffffffffffffffffffffff1990941695169490941791909117949094161790915560d05461306f9116896135c2565b905061307a81613c77565b60d080546001600160801b0319166001600160801b039290921691909117905550505050505050565b6040516001600160a01b0380851660248301528316604482015260648101829052612c999085906323b872dd60e01b906084015b60408051601f198184030181529190526020810180516001600160e01b03166001600160e01b031990931692909217909152613f37565b60008061311c83600a615053565b90506000861161312c5780613144565b6131448661295f61313d8888612c9f565b8490613eef565b9695505050505050565b6000600183116131985760405162461bcd60e51b8152602060048201526015602482015274496e76616c6964206173736574506572536861726560581b6044820152606401610d1f565b6112186131a683600a615053565b61295f8686613eef565b6001600160681b038111156125355760405162461bcd60e51b815260206004820152601060248201526f13dd995c999b1bddc81d5a5b9d0c4c0d60821b6044820152606401610d1f565b33600090815260c9602090815260408083208151606081018352905461ffff8082168084526201000083046001600160681b031684870152600160781b9092046001600160801b03168385015260cf5491865260ca9094529184205460cc54919492909316926132759185918591610100900460ff16613cc1565b9050836132825784613284565b805b945084613292575050505050565b808511156132d65760405162461bcd60e51b81526020600482015260116024820152704578636565647320617661696c61626c6560781b6044820152606401610d1f565b825161ffff168211156133035733600090815260c960205260409020805462010000600160781b03191690555b61330c85613c77565b6133168186612c9f565b33600081815260c960205260409081902080546001600160801b0394909416600160781b02600160781b600160f81b0319909416939093179092558451915190917fe5b754fb1abb7f01b499791d0b820ae3b6af3424ac1c59768edb53f4ec31a9299161338f9189825261ffff16602082015260400190565b60405180910390a26133a2303387612acf565b5050505050565b606580546001600160a01b038381166001600160a01b0319831681179093556040519116919082907f8be0079c531659141344cd1fd0a4f28419497f9722a3daafe3b4186f6b6457e090600090a35050565b600081116134385760405162461bcd60e51b815260206004820152600a602482015269216e756d53686172657360b01b6044820152606401610d1f565b33600090815260c960205260409020546201000090046001600160681b0316151580613482575033600090815260c96020526040902054600160781b90046001600160801b031615155b1561349357613493600060016131fa565b60cf5433600081815260cb60209081526040918290208054835187815261ffff96871693810184905292959194911685149290917f0c53c82ad07e2d592d88ece3b066777dd60f1118e2a081b380efc4358f0d9e2a910160405180910390a281546201000090046001600160801b03166000821561351c5761351582876135c2565b905061357f565b811561355e5760405162461bcd60e51b81526020600482015260116024820152704578697374696e6720776974686472617760781b6044820152606401610d1f565b5033600090815260cb60205260409020805461ffff191661ffff8616179055845b61358881613c77565b33600081815260cb60205260409020805462010000600160901b031916620100006001600160801b03851602179055611ec9903088612acf565b6000610e988284614fd8565b60d25460f9546040516301c6654960e21b81526001600160a01b0392831660048201819052602482018390527f0000000000000000000000000000000000000000000000000000000000000000909316604482015260cc606482015273f7F4260943DB50EEE7e917330C35B460fF70aD549063071995249060840160206040518083038186803b15801561366157600080fd5b505af4158015613675573d6000803e3d6000fd5b505050506040513d601f19601f820116820180604052508101906136999190614b6c565b60fd555050565b600054610100900460ff16806136b9575060005460ff16155b6136d55760405162461bcd60e51b8152600401610d1f90614d67565b600054610100900460ff161580156136f7576000805461ffff19166101011790555b60405163c72733f760e01b815273f7F4260943DB50EEE7e917330C35B460fF70aD549063c72733f79061373c908c908c908c908b908d908c908c908c90600401614c39565b60006040518083038186803b15801561375457600080fd5b505af4158015613768573d6000803e3d6000fd5b50505050613774614009565b61377e848461407c565b6137866140fb565b61378f8961249d565b60d480546001600160a01b03808b166001600160a01b03199283161790925560d38054928a169290911691909117905560d58590556137d963031ba30961295f88620f4240613eef565b60d6558160cc6137e982826151e5565b90505060006137f6611a96565b9050613801816131b0565b60cf805461ffff196001600160681b03909316600160781b02929092167fffffffff00000000000000000000000000ffffffffffffffffffffffffff0000909216919091176001179055801561385d576000805461ff00191690555b505050505050505050565b60cf546201000090046001600160681b03166001600160a01b038216156138b45760cf80546cffffffffffffffffffffffffff60781b1916600160781b6001600160681b038416021790555b60cf805462010000600160781b031916905560d280546001600160a01b03191690556001600160a01b038216156139da57604051636c6fe87f60e11b81526001600160a01b037f000000000000000000000000000000000000000000000000000000000000000016600482015260009073f7F4260943DB50EEE7e917330C35B460fF70aD549063d8dfd0fe9060240160206040518083038186803b15801561395b57600080fd5b505af415801561396f573d6000803e3d6000fd5b505050506040513d601f19601f820116820180604052508101906139939190614b6c565b9050336001600160a01b0316836001600160a01b03167f7e830f7c1771deb1bdb35c4a7e6051bbac32b376f7f4e4976b8618b0b11997f783604051612ac291815260200190565b5050565b60d3546040805160e08101825260cc54610100810460ff16825291516370a0823160e01b815230600482015260009384936001600160a01b0391821693859384938493849373f7F4260943DB50EEE7e917330C35B460fF70aD549363d9b874389360cf93602084019262010000909104909116906370a082319060240160206040518083038186803b158015613a7357600080fd5b505afa158015613a87573d6000803e3d6000fd5b505050506040513d601f19601f82011682018060405250810190613aab9190614b6c565b8152602001613ab960995490565b81526020018d815260200160d554815260200160d65481526020018c8152506040518363ffffffff1660e01b8152600401613b4692919060006101008201905083825282516020830152602083015160408301526040830151606083015260608301516080830152608083015160a083015260a083015160c083015260c083015160e08301529392505050565b60c06040518083038186803b158015613b5e57600080fd5b505af4158015613b72573d6000803e3d6000fd5b505050506040513d601f19601f82011682018060405250810190613b969190614ba8565b60cf5461ffff16600081815260ca60209081526040918290208790558151858152908101849052908101829052969d50949b50919850965094509250906001600160a01b038716907f0a242f7ecaf711036ca770774ceffae28e60ef042ac113ddd187f2631db0c0069060600160405180910390a260d080546001600160801b0319169055613c26816001614fd8565b60cf805461ffff191661ffff9290921691909117905550613c4990503084614162565b8015613c6c5760cc54613c6c906201000090046001600160a01b03168583613f07565b505050509250929050565b6001600160801b038111156125355760405162461bcd60e51b815260206004820152601060248201526f09eeccae4ccd8deee40ead2dce86264760831b6044820152606401610d1f565b835160009061ffff1615801590613cdc5750845161ffff1684115b15613d1e576000613cfb86602001516001600160681b03168585614241565b6040870151909150613d16906001600160801b0316826135c2565b915050611218565b50505050604001516001600160801b031690565b33600090815260cb6020526040812080546001600160801b03620100008204169061ffff1681613d945760405162461bcd60e51b815260206004820152600d60248201526c139bdd081a5b9a5d1a585d1959609a1b6044820152606401610d1f565b60cf5461ffff168110613ddc5760405162461bcd60e51b815260206004820152601060248201526f149bdd5b99081b9bdd0818db1bdcd95960821b6044820152606401610d1f565b33600090815260cb60205260409020805462010000600160901b031916905560d054613e1890600160801b90046001600160801b031683612c9f565b60d080546001600160801b03928316600160801b029216919091179055600081815260ca602052604081205460cc54613e5b91859160ff6101009091041661314e565b604080518281526020810186905291925033917ff279e6a1f5e320cca91135676d9cb6e44ca8a08c0b88342bcdb1144f6511b568910160405180910390a2613ea330846142a4565b60008111613ee55760405162461bcd60e51b815260206004820152600f60248201526e085dda5d1a191c985dd05b5bdd5b9d608a1b6044820152606401610d1f565b6112183382612cab565b6000610e9882846150fb565b6000610e988284614ff0565b6040516001600160a01b038316602482015260448101829052612e0c90849063a9059cbb60e01b906064016130d7565b6000613f8c826040518060400160405280602081526020017f5361666545524332303a206c6f772d6c6576656c2063616c6c206661696c6564815250856001600160a01b03166143f29092919063ffffffff16565b805190915015612e0c5780806020019051810190613faa9190614b11565b612e0c5760405162461bcd60e51b815260206004820152602a60248201527f5361666545524332303a204552433230206f7065726174696f6e20646964206e6044820152691bdd081cdd58d8d9595960b21b6064820152608401610d1f565b600054610100900460ff1680614022575060005460ff16155b61403e5760405162461bcd60e51b8152600401610d1f90614d67565b600054610100900460ff16158015614060576000805461ffff19166101011790555b614068614401565b8015612535576000805461ff001916905550565b600054610100900460ff1680614095575060005460ff16155b6140b15760405162461bcd60e51b8152600401610d1f90614d67565b600054610100900460ff161580156140d3576000805461ffff19166101011790555b6140db614470565b6140e583836144da565b8015612e0c576000805461ff0019169055505050565b600054610100900460ff1680614114575060005460ff16155b6141305760405162461bcd60e51b8152600401610d1f90614d67565b600054610100900460ff16158015614152576000805461ffff19166101011790555b61415a614470565b61406861456f565b6001600160a01b0382166141b85760405162461bcd60e51b815260206004820152601f60248201527f45524332303a206d696e7420746f20746865207a65726f2061646472657373006044820152606401610d1f565b80609960008282546141ca9190614fd8565b90915550506001600160a01b038216600090815260976020526040812080548392906141f7908490614fd8565b90915550506040518181526001600160a01b038316906000907fddf252ad1be2c89b69c2b068fc378daa952ba7f163c4a11628f55a4df523b3ef9060200160405180910390a35050565b60006001831161428b5760405162461bcd60e51b8152602060048201526015602482015274496e76616c6964206173736574506572536861726560581b6044820152606401610d1f565b6112188361295f61429d85600a615053565b8790613eef565b6001600160a01b0382166143045760405162461bcd60e51b815260206004820152602160248201527f45524332303a206275726e2066726f6d20746865207a65726f206164647265736044820152607360f81b6064820152608401610d1f565b6001600160a01b038216600090815260976020526040902054818110156143785760405162461bcd60e51b815260206004820152602260248201527f45524332303a206275726e20616d6f756e7420657863656564732062616c616e604482015261636560f01b6064820152608401610d1f565b6001600160a01b03831660009081526097602052604081208383039055609980548492906143a790849061511a565b90915550506040518281526000906001600160a01b038516907fddf252ad1be2c89b69c2b068fc378daa952ba7f163c4a11628f55a4df523b3ef9060200160405180910390a3505050565b606061121884846000856145cf565b600054610100900460ff168061441a575060005460ff16155b6144365760405162461bcd60e51b8152600401610d1f90614d67565b600054610100900460ff16158015614458576000805461ffff19166101011790555b600180558015612535576000805461ff001916905550565b600054610100900460ff1680614489575060005460ff16155b6144a55760405162461bcd60e51b8152600401610d1f90614d67565b600054610100900460ff16158015614068576000805461ffff19166101011790558015612535576000805461ff001916905550565b600054610100900460ff16806144f3575060005460ff16155b61450f5760405162461bcd60e51b8152600401610d1f90614d67565b600054610100900460ff16158015614531576000805461ffff19166101011790555b825161454490609a906020860190614730565b50815161455890609b906020850190614730565b508015612e0c576000805461ff0019169055505050565b600054610100900460ff1680614588575060005460ff16155b6145a45760405162461bcd60e51b8152600401610d1f90614d67565b600054610100900460ff161580156145c6576000805461ffff19166101011790555b614068336133a9565b6060824710156146305760405162461bcd60e51b815260206004820152602660248201527f416464726573733a20696e73756666696369656e742062616c616e636520666f6044820152651c8818d85b1b60d21b6064820152608401610d1f565b843b61467e5760405162461bcd60e51b815260206004820152601d60248201527f416464726573733a2063616c6c20746f206e6f6e2d636f6e74726163740000006044820152606401610d1f565b600080866001600160a01b0316858760405161469a9190614c1d565b60006040518083038185875af1925050503d80600081146146d7576040519150601f19603f3d011682016040523d82523d6000602084013e6146dc565b606091505b50915091506146ec8282866146f7565b979650505050505050565b60608315614706575081610e98565b8251156147165782518084602001fd5b8160405162461bcd60e51b8152600401610d1f9190614d33565b82805461473c9061515d565b90600052602060002090601f01602090048101928261475e57600085556147a4565b82601f1061477757805160ff19168380011785556147a4565b828001600101855582156147a4579182015b828111156147a4578251825591602001919060010190614789565b506147b09291506147b4565b5090565b5b808211156147b057600081556001016147b5565b80356147d4816152f6565b919050565b600082601f8301126147e9578081fd5b813567ffffffffffffffff80821115614804576148046151a8565b604051601f8301601f19908116603f0116810190828211818310171561482c5761482c6151a8565b81604052838152866020858801011115614844578485fd5b8360208701602083013792830160200193909352509392505050565b600060c08284031215614871578081fd5b50919050565b80356147d481615319565b803563ffffffff811681146147d457600080fd5b80356147d48161532e565b80356147d481615343565b6000602082840312156148bd578081fd5b8135610e98816152f6565b600080604083850312156148da578081fd5b82356148e5816152f6565b915060208301356148f5816152f6565b809150509250929050565b6000806000806000806000806000806000806102208d8f031215614922578788fd5b61492b8d6147c9565b9b5061493960208e016147c9565b9a5061494760408e016147c9565b995060608d0135985060808d0135975067ffffffffffffffff60a08e0135111561496f578687fd5b61497f8e60a08f01358f016147d9565b965067ffffffffffffffff60c08e01351115614999578586fd5b6149a98e60c08f01358f016147d9565b95506149b760e08e016147c9565b94506149c66101008e016147c9565b93506149d56101208e01614882565b92506101408d013591506149ed8e6101608f01614860565b90509295989b509295989b509295989b565b600080600060608486031215614a13578283fd5b8335614a1e816152f6565b92506020840135614a2e816152f6565b929592945050506040919091013590565b60008060408385031215614a51578182fd5b8235614a5c816152f6565b946020939093013593505050565b600080600060608486031215614a7e578283fd5b8351614a89816152f6565b602085015160409095015190969495509392505050565b60008060208385031215614ab2578182fd5b823567ffffffffffffffff80821115614ac9578384fd5b818501915085601f830112614adc578384fd5b813581811115614aea578485fd5b86602061012083028501011115614aff578485fd5b60209290920196919550909350505050565b600060208284031215614b22578081fd5b8151610e988161530b565b600060208284031215614b3e578081fd5b81356001600160801b0381168114610e98578182fd5b600060208284031215614b65578081fd5b5035919050565b600060208284031215614b7d578081fd5b5051919050565b60008060408385031215614b96578182fd5b8235915060208301356148f5816152f6565b60008060008060008060c08789031215614bc0578384fd5b865195506020870151945060408701519350606087015192506080870151915060a087015190509295509295509295565b60008151808452614c09816020860160208601615131565b601f01601f19169290920160200192915050565b60008251614c2f818460208701615131565b9190910192915050565b60006101a060018060a01b03808c168452808b166020850152808a1660408501528860608501528760808501528160a0850152614c7882850188614bf1565b915083820360c0850152614c8c8287614bf1565b925084359150614c9b8261530b565b90151560e0840152602084013590614cb282615343565b60ff821661010085015260408501359150614ccc826152f6565b16610120830152614cdf606084016147c9565b6001600160a01b0316610140830152614cfa60808401614896565b66ffffffffffffff16610160830152614d1560a08401614877565b6001600160681b038116610180840152509998505050505050505050565b602081526000610e986020830184614bf1565b60208082526007908201526610b5b2b2b832b960c91b604082015260600190565b6020808252602e908201527f496e697469616c697a61626c653a20636f6e747261637420697320616c72656160408201526d191e481a5b9a5d1a585b1a5e995960921b606082015260800190565b6020808252818101527f4f776e61626c653a2063616c6c6572206973206e6f7420746865206f776e6572604082015260600190565b60208082526007908201526608585b5bdd5b9d60ca1b604082015260600190565b6020808252601f908201527f5265656e7472616e637947756172643a207265656e7472616e742063616c6c00604082015260600190565b83516001600160a01b03168152602080850151610160830191614e6f908401826001600160a01b03169052565b506040850151614e8a60408401826001600160a01b03169052565b506060850151614ea560608401826001600160a01b03169052565b506080850151608083015260a0850151614ec560a084018261ffff169052565b5060c085015160c083015260e0850151614eea60e08401826001600160a01b03169052565b50610100858101516001600160a01b0381168483015250506101208201939093526101400152919050565b838152604060208083018290528282018490526000919060609081850187855b88811015614fc957813583528382013584840152614f548683016147c9565b6001600160a01b03168684015284820135858401526080808301359084015260a0614f808184016147c9565b6001600160a01b03169084015260c0614f9a8382016148a1565b60ff169084015260e0828101359084015261010080830135908401526101209283019290910190600101614f35565b50909998505050505050505050565b60008219821115614feb57614feb615192565b500190565b60008261500b57634e487b7160e01b81526012600452602481fd5b500490565b600181815b8085111561504b57816000190482111561503157615031615192565b8085161561503e57918102915b93841c9390800290615015565b509250929050565b6000610e98838360008261506957506001610ded565b8161507657506000610ded565b816001811461508c5760028114615096576150b2565b6001915050610ded565b60ff8411156150a7576150a7615192565b50506001821b610ded565b5060208310610133831016604e8410600b84101617156150d5575081810a610ded565b6150df8383615010565b80600019048211156150f3576150f3615192565b029392505050565b600081600019048311821515161561511557615115615192565b500290565b60008282101561512c5761512c615192565b500390565b60005b8381101561514c578181015183820152602001615134565b83811115612c995750506000910152565b600181811c9082168061517157607f821691505b6020821081141561487157634e487b7160e01b600052602260045260246000fd5b634e487b7160e01b600052601160045260246000fd5b634e487b7160e01b600052604160045260246000fd5b60008135610ded816152f6565b60008135610ded81615319565b60008135610ded8161532e565b81356151f08161530b565b815460ff19811691151560ff169182178355602084013561521081615343565b61ff008160081b169050808361ffff198416171784556040850135615234816152f6565b6001600160b01b0319929092169092179190911760109190911b62010000600160b01b03161781556001810161528c61526f606085016151be565b82546001600160a01b0319166001600160a01b0391909116178255565b6152c561529b608085016151d8565b82805466ffffffffffffff60a01b191660a09290921b66ffffffffffffff60a01b16919091179055565b506139da6152d560a084016151cb565b600283016001600160681b0382166001600160681b03198254161781555050565b6001600160a01b038116811461253557600080fd5b801515811461253557600080fd5b6001600160681b038116811461253557600080fd5b66ffffffffffffff8116811461253557600080fd5b60ff8116811461253557600080fdfea2646970667358221220f165978a86174a0477ff2e6bc701bd43052200b4b5dbb027c730882732e3e51864736f6c63430008040033",
  "deployedBytecode": "0x608060405234801561001057600080fd5b50600436106104a15760003560e01c80638b10cc7c1161026d578063ca24efaf11610151578063e278fe6f116100ce578063f756fa2111610092578063f756fa2114610c98578063f87c7d9314610ca0578063f957a06714610ca8578063f9a0be6814610cbb578063fba7dc6114610cce578063fe56e23214610ce257600080fd5b8063e278fe6f14610c39578063e73c63d514610c41578063e74b981b14610c4a578063f2fde38b14610c5d578063f656ba5114610c7057600080fd5b8063d5f2638211610115578063d5f2638214610baa578063db006a7514610bb3578063db43e86214610bc6578063dd62ed3e14610bed578063e16fdbd514610c2657600080fd5b8063ca24efaf14610b40578063ca59409414610b55578063ce7c2ac214610b5d578063cf3afa5114610b70578063d164cc1514610b9757600080fd5b8063a694fc3a116101ea578063ad7a672f116101ae578063ad7a672f14610aed578063afa6626414610af5578063b2016bd414610b08578063b4d1d79514610b1b578063b6b55f2514610b25578063b9f8092b14610b3857600080fd5b8063a694fc3a14610a84578063a6f7f5d614610a97578063a9059cbb14610aa0578063aced166114610ab3578063ad5c464814610ac657600080fd5b80639fcc2d75116102315780639fcc2d7514610956578063a083ff17146109f5578063a285c9e814610a4b578063a2db9d8314610a60578063a457c2d714610a7157600080fd5b80638b10cc7c146109105780638da5cb5b14610921578063947061b51461093257806395d89b411461094657806399530b061461094e57600080fd5b806347786d371161039457806369b41170116103115780637a9262a2116102d55780637a9262a21461084d5780637e108d52146108a457806383536ff3146108b757806387153eb1146108c057806387788782146108e057806389a30271146108e957600080fd5b806369b41170146107f95780636f31ab341461080157806370897b231461080957806370a082311461081c578063715018a61461084557600080fd5b80635ea8cd12116103585780635ea8cd121461072d578063600a2cfb14610740578063650cce8a146107485780636719b2ee1461076f57806369230868146107e657600080fd5b806347786d37146106e15780634b2431d9146106f4578063503c70aa146106fe57806355489bb214610707578063573f0d6e1461071a57600080fd5b8063313ce567116104225780633f23bb73116103e65780633f23bb731461068e5780633f90916a146106a1578063432833a6146106b25780634603c0aa146106bb57806346904840146106ce57600080fd5b8063313ce56714610619578063355274ea1461063657806336efd16f14610647578063395093511461065a5780633ec143d31461066d57600080fd5b80631a92f6c2116104695780631a92f6c21461051b57806323b872dd1461055a5780632728f3331461056d5780632775d01c146105f357806330630da41461060657600080fd5b8063048bf085146104a657806306fdde03146104bb578063095ea7b3146104d95780630cbf54c8146104fc57806318160ddd14610513575b600080fd5b6104b96104b43660046148ac565b610cf5565b005b6104c3610d4a565b6040516104d09190614d33565b60405180910390f35b6104ec6104e7366004614a3f565b610ddc565b60405190151581526020016104d0565b61050560fc5481565b6040519081526020016104d0565b609954610505565b6105427f000000000000000000000000000000000000000000000000000000000000000081565b6040516001600160a01b0390911681526020016104d0565b6104ec6105683660046149ff565b610df3565b60cf5460d0546105ae9161ffff8116916001600160681b03620100008304811692600160781b900416906001600160801b0380821691600160801b90041685565b6040805161ffff90961686526001600160681b03948516602087015293909216928401929092526001600160801b03918216606084015216608082015260a0016104d0565b6104b9610601366004614b54565b610e9f565b6104b96106143660046148ac565b611042565b60cc54610100900460ff1660405160ff90911681526020016104d0565b60ce546001600160681b0316610505565b6104b9610655366004614b84565b6110da565b6104ec610668366004614a3f565b611191565b60fa5461067b9061ffff1681565b60405161ffff90911681526020016104d0565b61050561069c3660046148ac565b6111cd565b60d0546001600160801b0316610505565b61050560fd5481565b6104b96106c93660046148ac565b611220565b60d354610542906001600160a01b031681565b6104b96106ef366004614b54565b6112c2565b6105056101015481565b61050560fe5481565b6104b9610715366004614b2d565b61139d565b6104b96107283660046148ac565b611435565b6104b961073b366004614b54565b611482565b6104b96114ed565b6105427f000000000000000000000000000000000000000000000000000000000000000081565b6107b561077d3660046148ac565b60c96020526000908152604090205461ffff8116906201000081046001600160681b031690600160781b90046001600160801b031683565b6040805161ffff90941684526001600160681b0390921660208401526001600160801b0316908201526060016104d0565b6104b96107f4366004614aa0565b611648565b610505600081565b6104b9611726565b6104b9610817366004614b54565b611763565b61050561082a3660046148ac565b6001600160a01b031660009081526097602052604090205490565b6104b961182a565b61088261085b3660046148ac565b60cb6020526000908152604090205461ffff8116906201000090046001600160801b031682565b6040805161ffff90931683526001600160801b039091166020830152016104d0565b6104b96108b2366004614b54565b611860565b61050560f85481565b6105056108ce366004614b54565b60ca6020526000908152604090205481565b61050560d55481565b6105427f000000000000000000000000000000000000000000000000000000000000000081565b60d2546001600160a01b0316610542565b6065546001600160a01b0316610542565b61010254610542906001600160a01b031681565b6104c36118aa565b6105056118b9565b60cc5460cd5460ce546109a59260ff808216936101008304909116926001600160a01b036201000090930483169282169166ffffffffffffff600160a01b90910416906001600160681b031686565b60408051961515875260ff90951660208701526001600160a01b03938416948601949094529116606084015266ffffffffffffff1660808301526001600160681b031660a082015260c0016104d0565b60d15460d254610a1f916001600160a01b039081169190811690600160a01b900463ffffffff1683565b604080516001600160a01b03948516815293909216602084015263ffffffff16908201526060016104d0565b60d254600160a01b900463ffffffff16610505565b60d1546001600160a01b0316610542565b6104ec610a7f366004614a3f565b6118f3565b6104b9610a92366004614b54565b61198c565b61050560d65481565b6104ec610aae366004614a3f565b611a89565b60d454610542906001600160a01b031681565b6105427f000000000000000000000000000000000000000000000000000000000000000081565b610505611a96565b60f654610542906001600160a01b031681565b60d754610542906001600160a01b031681565b61050562093a8081565b6104b9610b33366004614b54565b611bc4565b6104b9611c38565b610102546104ec90600160a01b900460ff1681565b6104b9611e2e565b610505610b6b3660046148ac565b611ed1565b6105427f000000000000000000000000000000000000000000000000000000000000000081565b6104b9610ba53660046148ac565b611eee565b61050560f95481565b6104b9610bc1366004614b54565b611f7d565b6105427f000000000000000000000000000000000000000000000000000000000000000081565b610505610bfb3660046148c8565b6001600160a01b03918216600090815260986020908152604080832093909416825291909152205490565b6104b9610c34366004614900565b611fea565b6104b96121f6565b61050560fb5481565b6104b9610c583660046148ac565b6123aa565b6104b9610c6b3660046148ac565b61249d565b610c83610c7e3660046148ac565b612538565b604080519283526020830191909152016104d0565b6104b961261b565b6104b9612670565b60f754610542906001600160a01b031681565b60ff54610542906001600160a01b031681565b61010054610542906001600160a01b031681565b6104b9610cf0366004614b54565b6128c9565b6065546001600160a01b03163314610d285760405162461bcd60e51b8152600401610d1f90614db5565b60405180910390fd5b60ff80546001600160a01b0319166001600160a01b0392909216919091179055565b6060609a8054610d599061515d565b80601f0160208091040260200160405190810160405280929190818152602001828054610d859061515d565b8015610dd25780601f10610da757610100808354040283529160200191610dd2565b820191906000526020600020905b815481529060010190602001808311610db557829003601f168201915b5050505050905090565b6000610de93384846129aa565b5060015b92915050565b6000610e00848484612acf565b6001600160a01b038416600090815260986020908152604080832033845290915290205482811015610e855760405162461bcd60e51b815260206004820152602860248201527f45524332303a207472616e7366657220616d6f756e74206578636565647320616044820152676c6c6f77616e636560c01b6064820152608401610d1f565b610e9285338584036129aa565b60019150505b9392505050565b60026001541415610ec25760405162461bcd60e51b8152600401610d1f90614e0b565b600260015533600090815260c96020526040902060cf5461ffff1682610efa5760405162461bcd60e51b8152600401610d1f90614dea565b815461ffff168114610f3e5760405162461bcd60e51b815260206004820152600d60248201526c125b9d985b1a59081c9bdd5b99609a1b6044820152606401610d1f565b81546201000090046001600160681b031683811015610f8f5760405162461bcd60e51b815260206004820152600d60248201526c115e18d9595908185b5bdd5b9d609a1b6044820152606401610d1f565b610f998185612c9f565b83546001600160681b0391909116620100000262010000600160781b031990911617835560d054610fd3906001600160801b031685612c9f565b60d080546001600160801b0319166001600160801b0392909216919091179055604080518581526020810184905233917fab2daf3c146ca6416cbccd2a86ed2ba995e171ef6319df14a38aef01403a9c96910160405180910390a26110383385612cab565b5050600180555050565b6065546001600160a01b0316331461106c5760405162461bcd60e51b8152600401610d1f90614db5565b6001600160a01b0381166110b85760405162461bcd60e51b815260206004820152601360248201527210b732bba9ba3934b5b2a9b2b632b1ba34b7b760691b6044820152606401610d1f565b60f780546001600160a01b0319166001600160a01b0392909216919091179055565b600260015414156110fd5760405162461bcd60e51b8152600401610d1f90614e0b565b60026001558161111f5760405162461bcd60e51b8152600401610d1f90614dea565b6001600160a01b0381166111615760405162461bcd60e51b815260206004820152600960248201526810b1b932b234ba37b960b91b6044820152606401610d1f565b61116b8282612e11565b60cc54611189906201000090046001600160a01b03163330856130a3565b505060018055565b3360008181526098602090815260408083206001600160a01b03871684529091528120549091610de99185906111c8908690614fd8565b6129aa565b60cc5460009060ff61010090910416816112036111e960995490565b6111f1611a96565b60d0546001600160801b03168561310e565b905061121861121185611ed1565b828461314e565b949350505050565b6065546001600160a01b0316331461124a5760405162461bcd60e51b8152600401610d1f90614db5565b6001600160a01b0381166112a05760405162461bcd60e51b815260206004820152601860248201527f216e65774f7074696f6e735072656d69756d50726963657200000000000000006044820152606401610d1f565b60f680546001600160a01b0319166001600160a01b0392909216919091179055565b6065546001600160a01b031633146112ec5760405162461bcd60e51b8152600401610d1f90614db5565b600081116113265760405162461bcd60e51b81526020600482015260076024820152660216e65774361760cc1b6044820152606401610d1f565b61132f816131b0565b60ce54604080516001600160681b039092168252602082018390527f5f86edbb9d92228a9edc3f0ebc0f001bda1ea345ac7335e0eeef3504b31d1a1c910160405180910390a160ce80546cffffffffffffffffffffffffff19166001600160681b0392909216919091179055565b6065546001600160a01b031633146113c75760405162461bcd60e51b8152600401610d1f90614db5565b6000816001600160801b03161161140f5760405162461bcd60e51b815260206004820152600c60248201526b21737472696b65507269636560a01b6044820152606401610d1f565b6001600160801b031660fb5560cf5460fa805461ffff191661ffff909216919091179055565b6065546001600160a01b0316331461145f5760405162461bcd60e51b8152600401610d1f90614db5565b61010280546001600160a01b0319166001600160a01b0392909216919091179055565b60d4546001600160a01b031633146114ac5760405162461bcd60e51b8152600401610d1f90614d46565b600081116114e85760405162461bcd60e51b8152602060048201526009602482015268216d696e507269636560b81b6044820152606401610d1f565b60f955565b60d4546001600160a01b031633146115175760405162461bcd60e51b8152600401610d1f90614d46565b6002600154141561153a5760405162461bcd60e51b8152600401610d1f90614e0b565b600260015560d2546040516358ffbb3d60e01b81526001600160a01b037f000000000000000000000000000000000000000000000000000000000000000081166004830152909116602482015260009073__$753d03423c86e1677c9cdb4291172228a9$__906358ffbb3d9060440160206040518083038186803b1580156115c157600080fd5b505af41580156115d5573d6000803e3d6000fd5b505050506040513d601f19601f820116820180604052508101906115f99190614b6c565b60cf54909150611618906201000090046001600160681b031682612c9f565b60cf80546001600160681b0392909216620100000262010000600160781b03199092169190911790555060018055565b60d4546001600160a01b031633146116725760405162461bcd60e51b8152600401610d1f90614d46565b600260015414156116955760405162461bcd60e51b8152600401610d1f90614e0b565b600260015560fd54604051633545cbf360e21b81526001600160a01b037f0000000000000000000000000000000000000000000000000000000000000000169163d5172fcc916116ec919086908690600401614f15565b600060405180830381600087803b15801561170657600080fd5b505af115801561171a573d6000803e3d6000fd5b50506001805550505050565b600260015414156117495760405162461bcd60e51b8152600401610d1f90614e0b565b600260018190555061175d600060016131fa565b60018055565b6065546001600160a01b0316331461178d5760405162461bcd60e51b8152600401610d1f90614db5565b61179b620f424060646150fb565b81106117e95760405162461bcd60e51b815260206004820152601760248201527f496e76616c696420706572666f726d616e6365206665650000000000000000006044820152606401610d1f565b60d55460408051918252602082018390527f24867dfb6fcb9970a07be21024956524abe7a1837faa903ff0e99aaa40cf893e910160405180910390a160d555565b6065546001600160a01b031633146118545760405162461bcd60e51b8152600401610d1f90614db5565b61185e60006133a9565b565b600260015414156118835760405162461bcd60e51b8152600401610d1f90614e0b565b6002600155611891816133fb565b6101015461189f90826135c2565b610101555060018055565b6060609b8054610d599061515d565b60006118ee6118c760995490565b6118cf611a96565b60d05460cc546001600160801b0390911690610100900460ff1661310e565b905090565b3360009081526098602090815260408083206001600160a01b0386168452909152812054828110156119755760405162461bcd60e51b815260206004820152602560248201527f45524332303a2064656372656173656420616c6c6f77616e63652062656c6f77604482015264207a65726f60d81b6064820152608401610d1f565b61198233858584036129aa565b5060019392505050565b600260015414156119af5760405162461bcd60e51b8152600401610d1f90614e0b565b600260015560ff546001600160a01b0316806119ca57600080fd5b600082116119d757600080fd5b3360009081526097602052604090205482811015611a0357611a036119fc8483612c9f565b60006131fa565b611a0e333085612acf565b611a193083856129aa565b6040516383df674760e01b815260048101849052336024820152600060448201526001600160a01b038316906383df674790606401600060405180830381600087803b158015611a6857600080fd5b505af1158015611a7c573d6000803e3d6000fd5b5050600180555050505050565b6000610de9338484612acf565b60d2546000906001600160a01b0316611b295760cc546040516370a0823160e01b8152306004820152620100009091046001600160a01b0316906370a082319060240160206040518083038186803b158015611af157600080fd5b505afa158015611b05573d6000803e3d6000fd5b505050506040513d601f19601f820116820180604052508101906118ee9190614b6c565b60cc546040516370a0823160e01b81523060048201526118ee916201000090046001600160a01b0316906370a082319060240160206040518083038186803b158015611b7457600080fd5b505afa158015611b88573d6000803e3d6000fd5b505050506040513d601f19601f82011682018060405250810190611bac9190614b6c565b60cf546201000090046001600160681b0316906135c2565b60026001541415611be75760405162461bcd60e51b8152600401610d1f90614e0b565b600260015580611c095760405162461bcd60e51b8152600401610d1f90614dea565b611c138133612e11565b60cc54611c31906201000090046001600160a01b03163330846130a3565b5060018055565b60d4546001600160a01b03163314611c625760405162461bcd60e51b8152600401610d1f90614d46565b60026001541415611c855760405162461bcd60e51b8152600401610d1f90614e0b565b600260015560d1546001600160a01b031680611cd15760405162461bcd60e51b815260206004820152600b60248201526a10b732bc3a27b83a34b7b760a91b6044820152606401610d1f565b60d280546001600160a01b03199081166001600160a01b03841690811790925560d18054909116905560cf54604051620100009091046001600160681b03168082529133917f045c558fdce4714c5816d53820d27420f4cd860892df203fe636384d8d19aa019060200160405180910390a3604051632904c23960e01b81526001600160a01b037f0000000000000000000000000000000000000000000000000000000000000000811660048301527f000000000000000000000000000000000000000000000000000000000000000081166024830152831660448201526064810182905273__$753d03423c86e1677c9cdb4291172228a9$__90632904c2399060840160206040518083038186803b158015611ded57600080fd5b505af4158015611e01573d6000803e3d6000fd5b505050506040513d601f19601f82011682018060405250810190611e259190614b6c565b506111896135ce565b610102546001600160a01b031680611e4557600080fd5b611e51600060016131fa565b3360008181526097602052604090205490611e6d9083836129aa565b60405163c9c2d4f560e01b8152336004820152602481018290526001600160a01b0383169063c9c2d4f590604401600060405180830381600087803b158015611eb557600080fd5b505af1158015611ec9573d6000803e3d6000fd5b505050505050565b6000806000611edf84612538565b909250905061121882826135c2565b6065546001600160a01b03163314611f185760405162461bcd60e51b8152600401610d1f90614db5565b6001600160a01b038116611f5b5760405162461bcd60e51b815260206004820152600a60248201526910b732bba5b2b2b832b960b11b6044820152606401610d1f565b60d480546001600160a01b0319166001600160a01b0392909216919091179055565b60026001541415611fa05760405162461bcd60e51b8152600401610d1f90614e0b565b600260015580611fdf5760405162461bcd60e51b815260206004820152600a602482015269216e756d53686172657360b01b6044820152606401610d1f565b611c318160006131fa565b600054610100900460ff1680612003575060005460ff16155b61201f5760405162461bcd60e51b8152600401610d1f90614d67565b600054610100900460ff16158015612041576000805461ffff19166101011790555b6120518d8d8d8d8d8d8d896136a0565b6001600160a01b0386166120a05760405162461bcd60e51b815260206004820152601660248201527510afb7b83a34b7b739a83932b6b4bab6a83934b1b2b960511b6044820152606401610d1f565b6001600160a01b0385166120ea5760405162461bcd60e51b815260206004820152601160248201527010afb9ba3934b5b2a9b2b632b1ba34b7b760791b6044820152606401610d1f565b60008463ffffffff161180156121105750612107600a60646150fb565b8463ffffffff16105b6121505760405162461bcd60e51b81526020600482015260116024820152700857dc1c995b5a5d5b511a5cd8dbdd5b9d607a1b6044820152606401610d1f565b61012c8310156121965760405162461bcd60e51b815260206004820152601160248201527010afb0bab1ba34b7b7223ab930ba34b7b760791b6044820152606401610d1f565b60f680546001600160a01b038089166001600160a01b03199283161790925560f780549288169290911691909117905563ffffffff841660f85560fc83905580156121e7576000805461ff00191690555b50505050505050505050505050565b600260015414156122195760405162461bcd60e51b8152600401610d1f90614e0b565b600260015560d2546001600160a01b03168015158061223e575060cf5461ffff166001145b6122795760405162461bcd60e51b815260206004820152600c60248201526b149bdd5b990818db1bdcd95960a21b6044820152606401610d1f565b61228281613868565b600061010154905060008061229960fe54846139de565b60fe81905560d05491935091506000906122c390600160801b90046001600160801b0316856135c2565b90506122ce81613c77565b60d080546001600160801b03808416600160801b0291161790556000610101556122f7836131b0565b60cf805462010000600160781b031916620100006001600160681b03861602179055600061232542826135c2565b905063ffffffff81111561237b5760405162461bcd60e51b815260206004820152601860248201527f4f766572666c6f77206e6578744f7074696f6e526561647900000000000000006044820152606401610d1f565b60d2805463ffffffff909216600160a01b0263ffffffff60a01b19909216919091179055505060018055505050565b6065546001600160a01b031633146123d45760405162461bcd60e51b8152600401610d1f90614db5565b6001600160a01b03811661241d5760405162461bcd60e51b815260206004820152601060248201526f085b995dd19959549958da5c1a595b9d60821b6044820152606401610d1f565b60d3546001600160a01b038281169116141561247b5760405162461bcd60e51b815260206004820152601860248201527f4d757374206265206e657720666565526563697069656e7400000000000000006044820152606401610d1f565b60d380546001600160a01b0319166001600160a01b0392909216919091179055565b6065546001600160a01b031633146124c75760405162461bcd60e51b8152600401610d1f90614db5565b6001600160a01b03811661252c5760405162461bcd60e51b815260206004820152602660248201527f4f776e61626c653a206e6577206f776e657220697320746865207a65726f206160448201526564647265737360d01b6064820152608401610d1f565b612535816133a9565b50565b6001600160a01b038116600090815260c9602090815260408083208151606081018352905461ffff81168083526201000082046001600160681b031694830194909452600160781b90046001600160801b0316918101919091528291600111156125ba575050506001600160a01b031660009081526097602052604081205491565b60cf54815161ffff908116600090815260ca602052604081205460cc5491936125f093869391169190610100900460ff16613cc1565b9050612611856001600160a01b031660009081526097602052604090205490565b9590945092505050565b6002600154141561263e5760405162461bcd60e51b8152600401610d1f90614e0b565b6002600155600061264d613d32565b60fe5490915061265d9082612c9f565b6001600160801b031660fe555060018055565b60d4546001600160a01b0316331461269a5760405162461bcd60e51b8152600401610d1f90614d46565b600260015414156126bd5760405162461bcd60e51b8152600401610d1f90614e0b565b600260015560d2546001600160a01b0316801580156126e3575060cf5461ffff16600114155b6127225760405162461bcd60e51b815260206004820152601060248201526f149bdd5b99081b9bdd0818db1bdcd95960821b6044820152606401610d1f565b60408051610120810182526001600160a01b037f0000000000000000000000000000000000000000000000000000000000000000811682527f00000000000000000000000000000000000000000000000000000000000000008116602083015260cc8054620100009004821683850152848216606084015260006080840181905260fa5461ffff1660a085015260fb5460c085015260f754831660e085015260f65490921661010084015292516377e3ce0d60e11b8152919290918291829173__$753d03423c86e1677c9cdb4291172228a9$__9163efc79c1a9161280e91889160cf90600401614e42565b60606040518083038186803b15801561282657600080fd5b505af415801561283a573d6000803e3d6000fd5b505050506040513d601f19601f8201168201806040525081019061285e9190614a6a565b604080518381526020810183905293965091945092507fa217999b1c125c2a996f712c5f26a28addad7167bd8a67d5bd5b2a751148abb0910160405180910390a1505060d180546001600160a01b0319166001600160a01b0392909216919091179055505060018055565b6065546001600160a01b031633146128f35760405162461bcd60e51b8152600401610d1f90614db5565b612901620f424060646150fb565b81106129485760405162461bcd60e51b8152602060048201526016602482015275496e76616c6964206d616e6167656d656e742066656560501b6044820152606401610d1f565b600061296563031ba30961295f84620f4240613eef565b90613efb565b60d65460408051918252602082018590529192507f4e874b007ab14f7e263baefd44951834c8266f4f224d1092e49e9c254354cc54910160405180910390a160d65550565b6001600160a01b038316612a0c5760405162461bcd60e51b8152602060048201526024808201527f45524332303a20617070726f76652066726f6d20746865207a65726f206164646044820152637265737360e01b6064820152608401610d1f565b6001600160a01b038216612a6d5760405162461bcd60e51b815260206004820152602260248201527f45524332303a20617070726f766520746f20746865207a65726f206164647265604482015261737360f01b6064820152608401610d1f565b6001600160a01b0383811660008181526098602090815260408083209487168084529482529182902085905590518481527f8c5be1e5ebec7d5bd14f71427d1e84f3dd0314c0f7b2291e5b200ac8c7c3b92591015b60405180910390a3505050565b6001600160a01b038316612b335760405162461bcd60e51b815260206004820152602560248201527f45524332303a207472616e736665722066726f6d20746865207a65726f206164604482015264647265737360d81b6064820152608401610d1f565b6001600160a01b038216612b955760405162461bcd60e51b815260206004820152602360248201527f45524332303a207472616e7366657220746f20746865207a65726f206164647260448201526265737360e81b6064820152608401610d1f565b6001600160a01b03831660009081526097602052604090205481811015612c0d5760405162461bcd60e51b815260206004820152602660248201527f45524332303a207472616e7366657220616d6f756e7420657863656564732062604482015265616c616e636560d01b6064820152608401610d1f565b6001600160a01b03808516600090815260976020526040808220858503905591851681529081208054849290612c44908490614fd8565b92505081905550826001600160a01b0316846001600160a01b03167fddf252ad1be2c89b69c2b068fc378daa952ba7f163c4a11628f55a4df523b3ef84604051612c9091815260200190565b60405180910390a35b50505050565b6000610e98828461511a565b60cc546001600160a01b03620100009091048116907f000000000000000000000000000000000000000000000000000000000000000016811415612df857604051632e1a7d4d60e01b8152600481018390527f00000000000000000000000000000000000000000000000000000000000000006001600160a01b031690632e1a7d4d90602401600060405180830381600087803b158015612d4b57600080fd5b505af1158015612d5f573d6000803e3d6000fd5b505050506000836001600160a01b03168360405160006040518083038185875af1925050503d8060008114612db0576040519150601f19603f3d011682016040523d82523d6000602084013e612db5565b606091505b5050905080612c995760405162461bcd60e51b815260206004820152600f60248201526e151c985b9cd9995c8819985a5b1959608a1b6044820152606401610d1f565b612e0c6001600160a01b0382168484613f07565b505050565b60cf5461ffff166000612e2c84612e26611a96565b906135c2565b60ce549091506001600160681b0316811115612e775760405162461bcd60e51b815260206004820152600a6024820152690457863656564206361760b41b6044820152606401610d1f565b60cd54600160a01b900466ffffffffffffff16811015612ed05760405162461bcd60e51b8152602060048201526014602482015273496e73756666696369656e742062616c616e636560601b6044820152606401610d1f565b60408051858152602081018490526001600160a01b038516917f90890809c654f11d6e72a28fa60149770a0d11ec6c92319d6ceb2bb0a4ea1a15910160405180910390a26001600160a01b038316600090815260c9602090815260408083208151606081018352905461ffff81168083526201000082046001600160681b031683860152600160781b9091046001600160801b031682840152845260ca90925282205460cc54919291612f8f918491879190610100900460ff16613cc1565b8251909150869061ffff16851415612fc0576020830151600090612fbc906001600160681b0316896135c2565b9150505b612fc9816131b0565b6040805160608101825261ffff80881682526001600160681b0380851660208085019182526001600160801b038089168688019081526001600160a01b038e16600090815260c990935296822095518654935197518216600160781b02600160781b600160f81b03199890951662010000026effffffffffffffffffffffffffffff1990941695169490941791909117949094161790915560d05461306f9116896135c2565b905061307a81613c77565b60d080546001600160801b0319166001600160801b039290921691909117905550505050505050565b6040516001600160a01b0380851660248301528316604482015260648101829052612c999085906323b872dd60e01b906084015b60408051601f198184030181529190526020810180516001600160e01b03166001600160e01b031990931692909217909152613f37565b60008061311c83600a615053565b90506000861161312c5780613144565b6131448661295f61313d8888612c9f565b8490613eef565b9695505050505050565b6000600183116131985760405162461bcd60e51b8152602060048201526015602482015274496e76616c6964206173736574506572536861726560581b6044820152606401610d1f565b6112186131a683600a615053565b61295f8686613eef565b6001600160681b038111156125355760405162461bcd60e51b815260206004820152601060248201526f13dd995c999b1bddc81d5a5b9d0c4c0d60821b6044820152606401610d1f565b33600090815260c9602090815260408083208151606081018352905461ffff8082168084526201000083046001600160681b031684870152600160781b9092046001600160801b03168385015260cf5491865260ca9094529184205460cc54919492909316926132759185918591610100900460ff16613cc1565b9050836132825784613284565b805b945084613292575050505050565b808511156132d65760405162461bcd60e51b81526020600482015260116024820152704578636565647320617661696c61626c6560781b6044820152606401610d1f565b825161ffff168211156133035733600090815260c960205260409020805462010000600160781b03191690555b61330c85613c77565b6133168186612c9f565b33600081815260c960205260409081902080546001600160801b0394909416600160781b02600160781b600160f81b0319909416939093179092558451915190917fe5b754fb1abb7f01b499791d0b820ae3b6af3424ac1c59768edb53f4ec31a9299161338f9189825261ffff16602082015260400190565b60405180910390a26133a2303387612acf565b5050505050565b606580546001600160a01b038381166001600160a01b0319831681179093556040519116919082907f8be0079c531659141344cd1fd0a4f28419497f9722a3daafe3b4186f6b6457e090600090a35050565b600081116134385760405162461bcd60e51b815260206004820152600a602482015269216e756d53686172657360b01b6044820152606401610d1f565b33600090815260c960205260409020546201000090046001600160681b0316151580613482575033600090815260c96020526040902054600160781b90046001600160801b031615155b1561349357613493600060016131fa565b60cf5433600081815260cb60209081526040918290208054835187815261ffff96871693810184905292959194911685149290917f0c53c82ad07e2d592d88ece3b066777dd60f1118e2a081b380efc4358f0d9e2a910160405180910390a281546201000090046001600160801b03166000821561351c5761351582876135c2565b905061357f565b811561355e5760405162461bcd60e51b81526020600482015260116024820152704578697374696e6720776974686472617760781b6044820152606401610d1f565b5033600090815260cb60205260409020805461ffff191661ffff8616179055845b61358881613c77565b33600081815260cb60205260409020805462010000600160901b031916620100006001600160801b03851602179055611ec9903088612acf565b6000610e988284614fd8565b60d25460f9546040516301c6654960e21b81526001600160a01b0392831660048201819052602482018390527f0000000000000000000000000000000000000000000000000000000000000000909316604482015260cc606482015273__$753d03423c86e1677c9cdb4291172228a9$__9063071995249060840160206040518083038186803b15801561366157600080fd5b505af4158015613675573d6000803e3d6000fd5b505050506040513d601f19601f820116820180604052508101906136999190614b6c565b60fd555050565b600054610100900460ff16806136b9575060005460ff16155b6136d55760405162461bcd60e51b8152600401610d1f90614d67565b600054610100900460ff161580156136f7576000805461ffff19166101011790555b60405163c72733f760e01b815273__$753d03423c86e1677c9cdb4291172228a9$__9063c72733f79061373c908c908c908c908b908d908c908c908c90600401614c39565b60006040518083038186803b15801561375457600080fd5b505af4158015613768573d6000803e3d6000fd5b50505050613774614009565b61377e848461407c565b6137866140fb565b61378f8961249d565b60d480546001600160a01b03808b166001600160a01b03199283161790925560d38054928a169290911691909117905560d58590556137d963031ba30961295f88620f4240613eef565b60d6558160cc6137e982826151e5565b90505060006137f6611a96565b9050613801816131b0565b60cf805461ffff196001600160681b03909316600160781b02929092167fffffffff00000000000000000000000000ffffffffffffffffffffffffff0000909216919091176001179055801561385d576000805461ff00191690555b505050505050505050565b60cf546201000090046001600160681b03166001600160a01b038216156138b45760cf80546cffffffffffffffffffffffffff60781b1916600160781b6001600160681b038416021790555b60cf805462010000600160781b031916905560d280546001600160a01b03191690556001600160a01b038216156139da57604051636c6fe87f60e11b81526001600160a01b037f000000000000000000000000000000000000000000000000000000000000000016600482015260009073__$753d03423c86e1677c9cdb4291172228a9$__9063d8dfd0fe9060240160206040518083038186803b15801561395b57600080fd5b505af415801561396f573d6000803e3d6000fd5b505050506040513d601f19601f820116820180604052508101906139939190614b6c565b9050336001600160a01b0316836001600160a01b03167f7e830f7c1771deb1bdb35c4a7e6051bbac32b376f7f4e4976b8618b0b11997f783604051612ac291815260200190565b5050565b60d3546040805160e08101825260cc54610100810460ff16825291516370a0823160e01b815230600482015260009384936001600160a01b0391821693859384938493849373__$753d03423c86e1677c9cdb4291172228a9$__9363d9b874389360cf93602084019262010000909104909116906370a082319060240160206040518083038186803b158015613a7357600080fd5b505afa158015613a87573d6000803e3d6000fd5b505050506040513d601f19601f82011682018060405250810190613aab9190614b6c565b8152602001613ab960995490565b81526020018d815260200160d554815260200160d65481526020018c8152506040518363ffffffff1660e01b8152600401613b4692919060006101008201905083825282516020830152602083015160408301526040830151606083015260608301516080830152608083015160a083015260a083015160c083015260c083015160e08301529392505050565b60c06040518083038186803b158015613b5e57600080fd5b505af4158015613b72573d6000803e3d6000fd5b505050506040513d601f19601f82011682018060405250810190613b969190614ba8565b60cf5461ffff16600081815260ca60209081526040918290208790558151858152908101849052908101829052969d50949b50919850965094509250906001600160a01b038716907f0a242f7ecaf711036ca770774ceffae28e60ef042ac113ddd187f2631db0c0069060600160405180910390a260d080546001600160801b0319169055613c26816001614fd8565b60cf805461ffff191661ffff9290921691909117905550613c4990503084614162565b8015613c6c5760cc54613c6c906201000090046001600160a01b03168583613f07565b505050509250929050565b6001600160801b038111156125355760405162461bcd60e51b815260206004820152601060248201526f09eeccae4ccd8deee40ead2dce86264760831b6044820152606401610d1f565b835160009061ffff1615801590613cdc5750845161ffff1684115b15613d1e576000613cfb86602001516001600160681b03168585614241565b6040870151909150613d16906001600160801b0316826135c2565b915050611218565b50505050604001516001600160801b031690565b33600090815260cb6020526040812080546001600160801b03620100008204169061ffff1681613d945760405162461bcd60e51b815260206004820152600d60248201526c139bdd081a5b9a5d1a585d1959609a1b6044820152606401610d1f565b60cf5461ffff168110613ddc5760405162461bcd60e51b815260206004820152601060248201526f149bdd5b99081b9bdd0818db1bdcd95960821b6044820152606401610d1f565b33600090815260cb60205260409020805462010000600160901b031916905560d054613e1890600160801b90046001600160801b031683612c9f565b60d080546001600160801b03928316600160801b029216919091179055600081815260ca602052604081205460cc54613e5b91859160ff6101009091041661314e565b604080518281526020810186905291925033917ff279e6a1f5e320cca91135676d9cb6e44ca8a08c0b88342bcdb1144f6511b568910160405180910390a2613ea330846142a4565b60008111613ee55760405162461bcd60e51b815260206004820152600f60248201526e085dda5d1a191c985dd05b5bdd5b9d608a1b6044820152606401610d1f565b6112183382612cab565b6000610e9882846150fb565b6000610e988284614ff0565b6040516001600160a01b038316602482015260448101829052612e0c90849063a9059cbb60e01b906064016130d7565b6000613f8c826040518060400160405280602081526020017f5361666545524332303a206c6f772d6c6576656c2063616c6c206661696c6564815250856001600160a01b03166143f29092919063ffffffff16565b805190915015612e0c5780806020019051810190613faa9190614b11565b612e0c5760405162461bcd60e51b815260206004820152602a60248201527f5361666545524332303a204552433230206f7065726174696f6e20646964206e6044820152691bdd081cdd58d8d9595960b21b6064820152608401610d1f565b600054610100900460ff1680614022575060005460ff16155b61403e5760405162461bcd60e51b8152600401610d1f90614d67565b600054610100900460ff16158015614060576000805461ffff19166101011790555b614068614401565b8015612535576000805461ff001916905550565b600054610100900460ff1680614095575060005460ff16155b6140b15760405162461bcd60e51b8152600401610d1f90614d67565b600054610100900460ff161580156140d3576000805461ffff19166101011790555b6140db614470565b6140e583836144da565b8015612e0c576000805461ff0019169055505050565b600054610100900460ff1680614114575060005460ff16155b6141305760405162461bcd60e51b8152600401610d1f90614d67565b600054610100900460ff16158015614152576000805461ffff19166101011790555b61415a614470565b61406861456f565b6001600160a01b0382166141b85760405162461bcd60e51b815260206004820152601f60248201527f45524332303a206d696e7420746f20746865207a65726f2061646472657373006044820152606401610d1f565b80609960008282546141ca9190614fd8565b90915550506001600160a01b038216600090815260976020526040812080548392906141f7908490614fd8565b90915550506040518181526001600160a01b038316906000907fddf252ad1be2c89b69c2b068fc378daa952ba7f163c4a11628f55a4df523b3ef9060200160405180910390a35050565b60006001831161428b5760405162461bcd60e51b8152602060048201526015602482015274496e76616c6964206173736574506572536861726560581b6044820152606401610d1f565b6112188361295f61429d85600a615053565b8790613eef565b6001600160a01b0382166143045760405162461bcd60e51b815260206004820152602160248201527f45524332303a206275726e2066726f6d20746865207a65726f206164647265736044820152607360f81b6064820152608401610d1f565b6001600160a01b038216600090815260976020526040902054818110156143785760405162461bcd60e51b815260206004820152602260248201527f45524332303a206275726e20616d6f756e7420657863656564732062616c616e604482015261636560f01b6064820152608401610d1f565b6001600160a01b03831660009081526097602052604081208383039055609980548492906143a790849061511a565b90915550506040518281526000906001600160a01b038516907fddf252ad1be2c89b69c2b068fc378daa952ba7f163c4a11628f55a4df523b3ef9060200160405180910390a3505050565b606061121884846000856145cf565b600054610100900460ff168061441a575060005460ff16155b6144365760405162461bcd60e51b8152600401610d1f90614d67565b600054610100900460ff16158015614458576000805461ffff19166101011790555b600180558015612535576000805461ff001916905550565b600054610100900460ff1680614489575060005460ff16155b6144a55760405162461bcd60e51b8152600401610d1f90614d67565b600054610100900460ff16158015614068576000805461ffff19166101011790558015612535576000805461ff001916905550565b600054610100900460ff16806144f3575060005460ff16155b61450f5760405162461bcd60e51b8152600401610d1f90614d67565b600054610100900460ff16158015614531576000805461ffff19166101011790555b825161454490609a906020860190614730565b50815161455890609b906020850190614730565b508015612e0c576000805461ff0019169055505050565b600054610100900460ff1680614588575060005460ff16155b6145a45760405162461bcd60e51b8152600401610d1f90614d67565b600054610100900460ff161580156145c6576000805461ffff19166101011790555b614068336133a9565b6060824710156146305760405162461bcd60e51b815260206004820152602660248201527f416464726573733a20696e73756666696369656e742062616c616e636520666f6044820152651c8818d85b1b60d21b6064820152608401610d1f565b843b61467e5760405162461bcd60e51b815260206004820152601d60248201527f416464726573733a2063616c6c20746f206e6f6e2d636f6e74726163740000006044820152606401610d1f565b600080866001600160a01b0316858760405161469a9190614c1d565b60006040518083038185875af1925050503d80600081146146d7576040519150601f19603f3d011682016040523d82523d6000602084013e6146dc565b606091505b50915091506146ec8282866146f7565b979650505050505050565b60608315614706575081610e98565b8251156147165782518084602001fd5b8160405162461bcd60e51b8152600401610d1f9190614d33565b82805461473c9061515d565b90600052602060002090601f01602090048101928261475e57600085556147a4565b82601f1061477757805160ff19168380011785556147a4565b828001600101855582156147a4579182015b828111156147a4578251825591602001919060010190614789565b506147b09291506147b4565b5090565b5b808211156147b057600081556001016147b5565b80356147d4816152f6565b919050565b600082601f8301126147e9578081fd5b813567ffffffffffffffff80821115614804576148046151a8565b604051601f8301601f19908116603f0116810190828211818310171561482c5761482c6151a8565b81604052838152866020858801011115614844578485fd5b8360208701602083013792830160200193909352509392505050565b600060c08284031215614871578081fd5b50919050565b80356147d481615319565b803563ffffffff811681146147d457600080fd5b80356147d48161532e565b80356147d481615343565b6000602082840312156148bd578081fd5b8135610e98816152f6565b600080604083850312156148da578081fd5b82356148e5816152f6565b915060208301356148f5816152f6565b809150509250929050565b6000806000806000806000806000806000806102208d8f031215614922578788fd5b61492b8d6147c9565b9b5061493960208e016147c9565b9a5061494760408e016147c9565b995060608d0135985060808d0135975067ffffffffffffffff60a08e0135111561496f578687fd5b61497f8e60a08f01358f016147d9565b965067ffffffffffffffff60c08e01351115614999578586fd5b6149a98e60c08f01358f016147d9565b95506149b760e08e016147c9565b94506149c66101008e016147c9565b93506149d56101208e01614882565b92506101408d013591506149ed8e6101608f01614860565b90509295989b509295989b509295989b565b600080600060608486031215614a13578283fd5b8335614a1e816152f6565b92506020840135614a2e816152f6565b929592945050506040919091013590565b60008060408385031215614a51578182fd5b8235614a5c816152f6565b946020939093013593505050565b600080600060608486031215614a7e578283fd5b8351614a89816152f6565b602085015160409095015190969495509392505050565b60008060208385031215614ab2578182fd5b823567ffffffffffffffff80821115614ac9578384fd5b818501915085601f830112614adc578384fd5b813581811115614aea578485fd5b86602061012083028501011115614aff578485fd5b60209290920196919550909350505050565b600060208284031215614b22578081fd5b8151610e988161530b565b600060208284031215614b3e578081fd5b81356001600160801b0381168114610e98578182fd5b600060208284031215614b65578081fd5b5035919050565b600060208284031215614b7d578081fd5b5051919050565b60008060408385031215614b96578182fd5b8235915060208301356148f5816152f6565b60008060008060008060c08789031215614bc0578384fd5b865195506020870151945060408701519350606087015192506080870151915060a087015190509295509295509295565b60008151808452614c09816020860160208601615131565b601f01601f19169290920160200192915050565b60008251614c2f818460208701615131565b9190910192915050565b60006101a060018060a01b03808c168452808b166020850152808a1660408501528860608501528760808501528160a0850152614c7882850188614bf1565b915083820360c0850152614c8c8287614bf1565b925084359150614c9b8261530b565b90151560e0840152602084013590614cb282615343565b60ff821661010085015260408501359150614ccc826152f6565b16610120830152614cdf606084016147c9565b6001600160a01b0316610140830152614cfa60808401614896565b66ffffffffffffff16610160830152614d1560a08401614877565b6001600160681b038116610180840152509998505050505050505050565b602081526000610e986020830184614bf1565b60208082526007908201526610b5b2b2b832b960c91b604082015260600190565b6020808252602e908201527f496e697469616c697a61626c653a20636f6e747261637420697320616c72656160408201526d191e481a5b9a5d1a585b1a5e995960921b606082015260800190565b6020808252818101527f4f776e61626c653a2063616c6c6572206973206e6f7420746865206f776e6572604082015260600190565b60208082526007908201526608585b5bdd5b9d60ca1b604082015260600190565b6020808252601f908201527f5265656e7472616e637947756172643a207265656e7472616e742063616c6c00604082015260600190565b83516001600160a01b03168152602080850151610160830191614e6f908401826001600160a01b03169052565b506040850151614e8a60408401826001600160a01b03169052565b506060850151614ea560608401826001600160a01b03169052565b506080850151608083015260a0850151614ec560a084018261ffff169052565b5060c085015160c083015260e0850151614eea60e08401826001600160a01b03169052565b50610100858101516001600160a01b0381168483015250506101208201939093526101400152919050565b838152604060208083018290528282018490526000919060609081850187855b88811015614fc957813583528382013584840152614f548683016147c9565b6001600160a01b03168684015284820135858401526080808301359084015260a0614f808184016147c9565b6001600160a01b03169084015260c0614f9a8382016148a1565b60ff169084015260e0828101359084015261010080830135908401526101209283019290910190600101614f35565b50909998505050505050505050565b60008219821115614feb57614feb615192565b500190565b60008261500b57634e487b7160e01b81526012600452602481fd5b500490565b600181815b8085111561504b57816000190482111561503157615031615192565b8085161561503e57918102915b93841c9390800290615015565b509250929050565b6000610e98838360008261506957506001610ded565b8161507657506000610ded565b816001811461508c5760028114615096576150b2565b6001915050610ded565b60ff8411156150a7576150a7615192565b50506001821b610ded565b5060208310610133831016604e8410600b84101617156150d5575081810a610ded565b6150df8383615010565b80600019048211156150f3576150f3615192565b029392505050565b600081600019048311821515161561511557615115615192565b500290565b60008282101561512c5761512c615192565b500390565b60005b8381101561514c578181015183820152602001615134565b83811115612c995750506000910152565b600181811c9082168061517157607f821691505b6020821081141561487157634e487b7160e01b600052602260045260246000fd5b634e487b7160e01b600052601160045260246000fd5b634e487b7160e01b600052604160045260246000fd5b60008135610ded816152f6565b60008135610ded81615319565b60008135610ded8161532e565b81356151f08161530b565b815460ff19811691151560ff169182178355602084013561521081615343565b61ff008160081b169050808361ffff198416171784556040850135615234816152f6565b6001600160b01b0319929092169092179190911760109190911b62010000600160b01b03161781556001810161528c61526f606085016151be565b82546001600160a01b0319166001600160a01b0391909116178255565b6152c561529b608085016151d8565b82805466ffffffffffffff60a01b191660a09290921b66ffffffffffffff60a01b16919091179055565b506139da6152d560a084016151cb565b600283016001600160681b0382166001600160681b03198254161781555050565b6001600160a01b038116811461253557600080fd5b801515811461253557600080fd5b6001600160681b038116811461253557600080fd5b66ffffffffffffff8116811461253557600080fd5b60ff8116811461253557600080fdfea2646970667358221220f165978a86174a0477ff2e6bc701bd43052200b4b5dbb027c730882732e3e51864736f6c63430008040033",
  "libraries": {
    "VaultLifecycleWithSwap": "0xf7F4260943DB50EEE7e917330C35B460fF70aD54"
  },
  "devdoc": {
    "kind": "dev",
    "methods": {
      "accountVaultBalance(address)": {
        "params": {
          "account": "is the address to lookup balance for"
        },
        "returns": {
          "_0": "the amount of `asset` custodied by the vault for the user"
        }
      },
      "allowance(address,address)": {
        "details": "See {IERC20-allowance}."
      },
      "approve(address,uint256)": {
        "details": "See {IERC20-approve}. Requirements: - `spender` cannot be the zero address."
      },
      "balanceOf(address)": {
        "details": "See {IERC20-balanceOf}."
      },
      "constructor": {
        "params": {
          "_gammaController": "is the contract address for opyn actions",
          "_marginPool": "is the contract address for providing collateral to opyn",
          "_oTokenFactory": "is the contract address for minting new opyn option types (strikes, asset, expiry)",
          "_swapContract": "is the contract address that facilitates bids settlement",
          "_usdc": "is the USDC contract",
          "_weth": "is the Wrapped Ether contract"
        }
      },
      "decreaseAllowance(address,uint256)": {
        "details": "Atomically decreases the allowance granted to `spender` by the caller. This is an alternative to {approve} that can be used as a mitigation for problems described in {IERC20-approve}. Emits an {Approval} event indicating the updated allowance. Requirements: - `spender` cannot be the zero address. - `spender` must have allowance for the caller of at least `subtractedValue`."
      },
      "deposit(uint256)": {
        "params": {
          "amount": "is the amount of `asset` to deposit"
        }
      },
      "depositFor(uint256,address)": {
        "params": {
          "amount": "is the amount of `asset` to deposit",
          "creditor": "is the address that can claim/withdraw deposited amount"
        }
      },
      "increaseAllowance(address,uint256)": {
        "details": "Atomically increases the allowance granted to `spender` by the caller. This is an alternative to {approve} that can be used as a mitigation for problems described in {IERC20-approve}. Emits an {Approval} event indicating the updated allowance. Requirements: - `spender` cannot be the zero address."
      },
      "initialize(address,address,address,uint256,uint256,string,string,address,address,uint32,uint256,(bool,uint8,address,address,uint56,uint104))": {
        "params": {
          "_auctionDuration": "is the duration of the auction",
          "_feeRecipient": "is the address to recieve vault performance and management fees",
          "_keeper": "is the keeper of the vault with medium permissions (weekly actions)",
          "_managementFee": "is the management fee pct.",
          "_optionsPremiumPricer": "is the address of the contract with the black-scholes premium calculation logic",
          "_owner": "is the owner of the vault with critical permissions",
          "_performanceFee": "is the perfomance fee pct.",
          "_premiumDiscount": "is the vault's discount applied to the premium",
          "_strikeSelection": "is the address of the contract with strike selection logic",
          "_tokenName": "is the name of the token",
          "_tokenSymbol": "is the symbol of the token",
          "_vaultParams": "is the struct with vault general data"
        }
      },
      "initiateWithdraw(uint256)": {
        "params": {
          "numShares": "is the number of shares to withdraw"
        }
      },
      "name()": {
        "details": "Returns the name of the token."
      },
      "owner()": {
        "details": "Returns the address of the current owner."
      },
      "redeem(uint256)": {
        "params": {
          "numShares": "is the number of shares to redeem"
        }
      },
      "renounceOwnership()": {
        "details": "Leaves the contract without owner. It will not be possible to call `onlyOwner` functions anymore. Can only be called by the current owner. NOTE: Renouncing ownership will leave the contract without an owner, thereby removing any functionality that is only available to the owner."
      },
      "setCap(uint256)": {
        "params": {
          "newCap": "is the new cap for deposits"
        }
      },
      "setFeeRecipient(address)": {
        "params": {
          "newFeeRecipient": "is the address of the new fee recipient"
        }
      },
      "setLiquidityGauge(address)": {
        "params": {
          "newLiquidityGauge": "is the address of the new liquidityGauge contract"
        }
      },
      "setManagementFee(uint256)": {
        "params": {
          "newManagementFee": "is the management fee (6 decimals). ex: 2 * 10 ** 6 = 2%"
        }
      },
      "setMinPrice(uint256)": {
        "params": {
          "minPrice": "is the new oToken Premium in the units of 10**18"
        }
      },
      "setNewKeeper(address)": {
        "params": {
          "newKeeper": "is the address of the new keeper"
        }
      },
      "setOptionsPremiumPricer(address)": {
        "params": {
          "newOptionsPremiumPricer": "is the address of the new strike selection contract"
        }
      },
      "setPerformanceFee(uint256)": {
        "params": {
          "newPerformanceFee": "is the performance fee (6 decimals). ex: 20 * 10 ** 6 = 20%"
        }
      },
      "setStrikePrice(uint128)": {
        "params": {
          "strikePrice": "is the strike price of the new oTokens (decimals = 8)"
        }
      },
      "setStrikeSelection(address)": {
        "params": {
          "newStrikeSelection": "is the address of the new strike selection contract"
        }
      },
      "setVaultPauser(address)": {
        "params": {
          "newVaultPauser": "is the address of the new vaultPauser contract"
        }
      },
      "shareBalances(address)": {
        "params": {
          "account": "is the account to lookup share balance for"
        },
        "returns": {
          "heldByAccount": "is the shares held by account",
          "heldByVault": "is the shares held on the vault (unredeemedShares)"
        }
      },
      "shares(address)": {
        "params": {
          "account": "is the account to lookup share balance for"
        },
        "returns": {
          "_0": "the share balance"
        }
      },
      "stake(uint256)": {
        "params": {
          "numShares": "is the number of shares to stake"
        }
      },
      "symbol()": {
        "details": "Returns the symbol of the token, usually a shorter version of the name."
      },
      "totalBalance()": {
        "returns": {
          "_0": "total balance of the vault, including the amounts locked in third party protocols"
        }
      },
      "totalSupply()": {
        "details": "See {IERC20-totalSupply}."
      },
      "transfer(address,uint256)": {
        "details": "See {IERC20-transfer}. Requirements: - `recipient` cannot be the zero address. - the caller must have a balance of at least `amount`."
      },
      "transferFrom(address,address,uint256)": {
        "details": "See {IERC20-transferFrom}. Emits an {Approval} event indicating the updated allowance. This is not required by the EIP. See the note at the beginning of {ERC20}. Requirements: - `sender` and `recipient` cannot be the zero address. - `sender` must have a balance of at least `amount`. - the caller must have allowance for ``sender``'s tokens of at least `amount`."
      },
      "transferOwnership(address)": {
        "details": "Transfers ownership of the contract to a new account (`newOwner`). Can only be called by the current owner."
      },
      "withdrawInstantly(uint256)": {
        "params": {
          "amount": "is the amount to withdraw"
        }
      }
    },
    "version": 1
  },
  "userdoc": {
    "kind": "user",
    "methods": {
      "DELAY()": {
        "notice": "15 minute timelock between commitAndClose and rollToNexOption."
      },
      "OTOKEN_FACTORY()": {
        "notice": "oTokenFactory is the factory contract used to spawn otokens. Used to lookup otokens."
      },
      "PERIOD()": {
        "notice": "7 day period between each options sale."
      },
      "USDC()": {
        "notice": "USDC 0xA0b86991c6218b36c1d19D4a2e9Eb0cE3606eB48"
      },
      "WETH()": {
        "notice": "WETH9 0xC02aaA39b223FE8D0A0e5C4F27eAD9083C756Cc2"
      },
      "accountVaultBalance(address)": {
        "notice": "Returns the asset balance held on the vault for the account"
      },
      "burnRemainingOTokens()": {
        "notice": "Burn the remaining oTokens left over"
      },
      "closeRound()": {
        "notice": "Closes the existing short and calculate the shares to mint, new price per share & amount of funds to re-allocate as collateral for the new round Since we are incrementing the round here, the options are sold in the beginning of a round instead of at the end of the round. For example, at round 1, we don't sell any options. We start selling options at the beginning of round 2."
      },
      "collateralToken()": {
        "notice": "Yearn vault contract"
      },
      "commitNextOption()": {
        "notice": "Sets the next option the vault will be shorting"
      },
      "completeWithdraw()": {
        "notice": "Completes a scheduled withdrawal from a past round. Uses finalized pps for the round"
      },
      "constructor": {
        "notice": "Initializes the contract with immutable variables"
      },
      "decimals()": {
        "notice": "Returns the token decimals"
      },
      "deposit(uint256)": {
        "notice": "Deposits the `asset` from msg.sender."
      },
      "depositFor(uint256,address)": {
        "notice": "Deposits the `asset` from msg.sender added to `creditor`'s deposit.Used for vault -> vault deposits on the user's behalf"
      },
      "depositReceipts(address)": {
        "notice": "Stores the user's pending deposit for the round"
      },
      "feeRecipient()": {
        "notice": "Fee recipient for the performance and management fees"
      },
      "initialize(address,address,address,uint256,uint256,string,string,address,address,uint32,uint256,(bool,uint8,address,address,uint56,uint104))": {
        "notice": "Initializes the OptionVault contract with storage variables."
      },
      "initiateWithdraw(uint256)": {
        "notice": "Initiates a withdrawal that can be processed once the round completes"
      },
      "keeper()": {
        "notice": "role in charge of weekly vault operations such as rollToNextOption and burnRemainingOTokens"
      },
      "managementFee()": {
        "notice": "Management fee charged on entire AUM in rollToNextOption. Only charged when there is no loss."
      },
      "maxRedeem()": {
        "notice": "Redeems the entire unredeemedShares balance that is owed to the account"
      },
      "optionState()": {
        "notice": "Vault's state of the options sold and the timelocked option"
      },
      "pausePosition()": {
        "notice": "pause a user's vault position"
      },
      "performanceFee()": {
        "notice": "Performance fee charged on premiums earned in rollToNextOption. Only charged when there is no loss."
      },
      "pricePerShare()": {
        "notice": "The price of a unit of share denominated in the `asset`"
      },
      "redeem(uint256)": {
        "notice": "Redeems shares that are owed to the account"
      },
      "rollToNextOption()": {
        "notice": "Rolls the vault's funds into a new short position and create a new offer."
      },
      "roundPricePerShare(uint256)": {
        "notice": "On every round's close, the pricePerShare value of an rTHETA token is stored This is used to determine the number of shares to be returned to a user with their DepositReceipt.depositAmount"
      },
      "setCap(uint256)": {
        "notice": "Sets a new cap for deposits"
      },
      "setFeeRecipient(address)": {
        "notice": "Sets the new fee recipient"
      },
      "setLiquidityGauge(address)": {
        "notice": "Sets the new liquidityGauge contract for this vault"
      },
      "setManagementFee(uint256)": {
        "notice": "Sets the management fee for the vault"
      },
      "setMinPrice(uint256)": {
        "notice": "Sets oToken Premium"
      },
      "setNewKeeper(address)": {
        "notice": "Sets the new keeper"
      },
      "setOptionsPremiumPricer(address)": {
        "notice": "Sets the new options premium pricer contract"
      },
      "setPerformanceFee(uint256)": {
        "notice": "Sets the performance fee for the vault"
      },
      "setStrikePrice(uint128)": {
        "notice": "Optionality to set strike price manually"
      },
      "setStrikeSelection(address)": {
        "notice": "Sets the new strike selection contract"
      },
      "setVaultPauser(address)": {
        "notice": "Sets the new Vault Pauser contract for this vault"
      },
      "settleOffer((uint256,uint256,address,uint256,uint256,address,uint8,bytes32,bytes32)[])": {
        "notice": "Settle current offer"
      },
      "shareBalances(address)": {
        "notice": "Getter for returning the account's share balance split between account and vault holdings"
      },
      "shares(address)": {
        "notice": "Getter for returning the account's share balance including unredeemed shares"
      },
      "stake(uint256)": {
        "notice": "Stakes a users vault shares"
      },
      "totalBalance()": {
        "notice": "Returns the vault's total balance, including the amounts locked into a short position"
      },
      "vaultParams()": {
        "notice": "Vault's parameters like cap, decimals"
      },
      "vaultState()": {
        "notice": "Vault's lifecycle state like round and locked amounts"
      },
      "withdrawInstantly(uint256)": {
        "notice": "Withdraws the assets on the vault using the outstanding `DepositReceipt.amount`"
      },
      "withdrawals(address)": {
        "notice": "Stores pending user withdrawals"
      }
    },
    "notice": "UPGRADEABILITY: Since we use the upgradeable proxy pattern, we must observe the inheritance chain closely. Any changes/appends in storage variable needs to happen in RibbonThetaYearnVaultStorage. RibbonThetaYearnVault should not inherit from any other contract aside from RibbonVault, RibbonThetaYearnVaultStorage",
    "version": 1
  },
  "storageLayout": {
    "storage": [
      {
        "astId": 176,
        "contract": "contracts/vaults/YearnVaults/RibbonThetaYearnVault.sol:RibbonThetaYearnVault",
        "label": "_initialized",
        "offset": 0,
        "slot": "0",
        "type": "t_bool"
      },
      {
        "astId": 179,
        "contract": "contracts/vaults/YearnVaults/RibbonThetaYearnVault.sol:RibbonThetaYearnVault",
        "label": "_initializing",
        "offset": 1,
        "slot": "0",
        "type": "t_bool"
      },
      {
        "astId": 230,
        "contract": "contracts/vaults/YearnVaults/RibbonThetaYearnVault.sol:RibbonThetaYearnVault",
        "label": "_status",
        "offset": 0,
        "slot": "1",
        "type": "t_uint256"
      },
      {
        "astId": 273,
        "contract": "contracts/vaults/YearnVaults/RibbonThetaYearnVault.sol:RibbonThetaYearnVault",
        "label": "__gap",
        "offset": 0,
        "slot": "2",
        "type": "t_array(t_uint256)49_storage"
      },
      {
        "astId": 993,
        "contract": "contracts/vaults/YearnVaults/RibbonThetaYearnVault.sol:RibbonThetaYearnVault",
        "label": "__gap",
        "offset": 0,
        "slot": "51",
        "type": "t_array(t_uint256)50_storage"
      },
      {
        "astId": 56,
        "contract": "contracts/vaults/YearnVaults/RibbonThetaYearnVault.sol:RibbonThetaYearnVault",
        "label": "_owner",
        "offset": 0,
        "slot": "101",
        "type": "t_address"
      },
      {
        "astId": 169,
        "contract": "contracts/vaults/YearnVaults/RibbonThetaYearnVault.sol:RibbonThetaYearnVault",
        "label": "__gap",
        "offset": 0,
        "slot": "102",
        "type": "t_array(t_uint256)49_storage"
      },
      {
        "astId": 293,
        "contract": "contracts/vaults/YearnVaults/RibbonThetaYearnVault.sol:RibbonThetaYearnVault",
        "label": "_balances",
        "offset": 0,
        "slot": "151",
        "type": "t_mapping(t_address,t_uint256)"
      },
      {
        "astId": 299,
        "contract": "contracts/vaults/YearnVaults/RibbonThetaYearnVault.sol:RibbonThetaYearnVault",
        "label": "_allowances",
        "offset": 0,
        "slot": "152",
        "type": "t_mapping(t_address,t_mapping(t_address,t_uint256))"
      },
      {
        "astId": 301,
        "contract": "contracts/vaults/YearnVaults/RibbonThetaYearnVault.sol:RibbonThetaYearnVault",
        "label": "_totalSupply",
        "offset": 0,
        "slot": "153",
        "type": "t_uint256"
      },
      {
        "astId": 303,
        "contract": "contracts/vaults/YearnVaults/RibbonThetaYearnVault.sol:RibbonThetaYearnVault",
        "label": "_name",
        "offset": 0,
        "slot": "154",
        "type": "t_string_storage"
      },
      {
        "astId": 305,
        "contract": "contracts/vaults/YearnVaults/RibbonThetaYearnVault.sol:RibbonThetaYearnVault",
        "label": "_symbol",
        "offset": 0,
        "slot": "155",
        "type": "t_string_storage"
      },
      {
        "astId": 846,
        "contract": "contracts/vaults/YearnVaults/RibbonThetaYearnVault.sol:RibbonThetaYearnVault",
        "label": "__gap",
        "offset": 0,
        "slot": "156",
        "type": "t_array(t_uint256)45_storage"
      },
      {
        "astId": 33692,
        "contract": "contracts/vaults/YearnVaults/RibbonThetaYearnVault.sol:RibbonThetaYearnVault",
        "label": "depositReceipts",
        "offset": 0,
        "slot": "201",
        "type": "t_mapping(t_address,t_struct(DepositReceipt)6601_storage)"
      },
      {
        "astId": 33697,
        "contract": "contracts/vaults/YearnVaults/RibbonThetaYearnVault.sol:RibbonThetaYearnVault",
        "label": "roundPricePerShare",
        "offset": 0,
        "slot": "202",
        "type": "t_mapping(t_uint256,t_uint256)"
      },
      {
        "astId": 33703,
        "contract": "contracts/vaults/YearnVaults/RibbonThetaYearnVault.sol:RibbonThetaYearnVault",
        "label": "withdrawals",
        "offset": 0,
        "slot": "203",
        "type": "t_mapping(t_address,t_struct(Withdrawal)6606_storage)"
      },
      {
        "astId": 33707,
        "contract": "contracts/vaults/YearnVaults/RibbonThetaYearnVault.sol:RibbonThetaYearnVault",
        "label": "vaultParams",
        "offset": 0,
        "slot": "204",
        "type": "t_struct(VaultParams)6576_storage"
      },
      {
        "astId": 33711,
        "contract": "contracts/vaults/YearnVaults/RibbonThetaYearnVault.sol:RibbonThetaYearnVault",
        "label": "vaultState",
        "offset": 0,
        "slot": "207",
        "type": "t_struct(VaultState)6594_storage"
      },
      {
        "astId": 33715,
        "contract": "contracts/vaults/YearnVaults/RibbonThetaYearnVault.sol:RibbonThetaYearnVault",
        "label": "optionState",
        "offset": 0,
        "slot": "209",
        "type": "t_struct(OptionState)6583_storage"
      },
      {
        "astId": 33718,
        "contract": "contracts/vaults/YearnVaults/RibbonThetaYearnVault.sol:RibbonThetaYearnVault",
        "label": "feeRecipient",
        "offset": 0,
        "slot": "211",
        "type": "t_address"
      },
      {
        "astId": 33721,
        "contract": "contracts/vaults/YearnVaults/RibbonThetaYearnVault.sol:RibbonThetaYearnVault",
        "label": "keeper",
        "offset": 0,
        "slot": "212",
        "type": "t_address"
      },
      {
        "astId": 33724,
        "contract": "contracts/vaults/YearnVaults/RibbonThetaYearnVault.sol:RibbonThetaYearnVault",
        "label": "performanceFee",
        "offset": 0,
        "slot": "213",
        "type": "t_uint256"
      },
      {
        "astId": 33727,
        "contract": "contracts/vaults/YearnVaults/RibbonThetaYearnVault.sol:RibbonThetaYearnVault",
        "label": "managementFee",
        "offset": 0,
        "slot": "214",
        "type": "t_uint256"
      },
      {
        "astId": 33731,
        "contract": "contracts/vaults/YearnVaults/RibbonThetaYearnVault.sol:RibbonThetaYearnVault",
        "label": "collateralToken",
        "offset": 0,
        "slot": "215",
        "type": "t_contract(IYearnVault)4548"
      },
      {
        "astId": 33735,
        "contract": "contracts/vaults/YearnVaults/RibbonThetaYearnVault.sol:RibbonThetaYearnVault",
        "label": "____gap",
        "offset": 0,
        "slot": "216",
        "type": "t_array(t_uint256)30_storage"
      },
      {
        "astId": 14377,
        "contract": "contracts/vaults/YearnVaults/RibbonThetaYearnVault.sol:RibbonThetaYearnVault",
        "label": "optionsPremiumPricer",
        "offset": 0,
        "slot": "246",
        "type": "t_address"
      },
      {
        "astId": 14379,
        "contract": "contracts/vaults/YearnVaults/RibbonThetaYearnVault.sol:RibbonThetaYearnVault",
        "label": "strikeSelection",
        "offset": 0,
        "slot": "247",
        "type": "t_address"
      },
      {
        "astId": 14381,
        "contract": "contracts/vaults/YearnVaults/RibbonThetaYearnVault.sol:RibbonThetaYearnVault",
        "label": "premiumDiscount",
        "offset": 0,
        "slot": "248",
        "type": "t_uint256"
      },
      {
        "astId": 14383,
        "contract": "contracts/vaults/YearnVaults/RibbonThetaYearnVault.sol:RibbonThetaYearnVault",
        "label": "currentOtokenPremium",
        "offset": 0,
        "slot": "249",
        "type": "t_uint256"
      },
      {
        "astId": 14385,
        "contract": "contracts/vaults/YearnVaults/RibbonThetaYearnVault.sol:RibbonThetaYearnVault",
        "label": "lastStrikeOverrideRound",
        "offset": 0,
        "slot": "250",
        "type": "t_uint16"
      },
      {
        "astId": 14387,
        "contract": "contracts/vaults/YearnVaults/RibbonThetaYearnVault.sol:RibbonThetaYearnVault",
        "label": "overriddenStrikePrice",
        "offset": 0,
        "slot": "251",
        "type": "t_uint256"
      },
      {
        "astId": 14389,
        "contract": "contracts/vaults/YearnVaults/RibbonThetaYearnVault.sol:RibbonThetaYearnVault",
        "label": "auctionDuration",
        "offset": 0,
        "slot": "252",
        "type": "t_uint256"
      },
      {
        "astId": 14391,
        "contract": "contracts/vaults/YearnVaults/RibbonThetaYearnVault.sol:RibbonThetaYearnVault",
        "label": "optionAuctionID",
        "offset": 0,
        "slot": "253",
        "type": "t_uint256"
      },
      {
        "astId": 14394,
        "contract": "contracts/vaults/YearnVaults/RibbonThetaYearnVault.sol:RibbonThetaYearnVault",
        "label": "lastQueuedWithdrawAmount",
        "offset": 0,
        "slot": "254",
        "type": "t_uint256"
      },
      {
        "astId": 14397,
        "contract": "contracts/vaults/YearnVaults/RibbonThetaYearnVault.sol:RibbonThetaYearnVault",
        "label": "liquidityGauge",
        "offset": 0,
        "slot": "255",
        "type": "t_address"
      },
      {
        "astId": 14400,
        "contract": "contracts/vaults/YearnVaults/RibbonThetaYearnVault.sol:RibbonThetaYearnVault",
        "label": "optionsPurchaseQueue",
        "offset": 0,
        "slot": "256",
        "type": "t_address"
      },
      {
        "astId": 14403,
        "contract": "contracts/vaults/YearnVaults/RibbonThetaYearnVault.sol:RibbonThetaYearnVault",
        "label": "currentQueuedWithdrawShares",
        "offset": 0,
        "slot": "257",
        "type": "t_uint256"
      },
      {
        "astId": 14406,
        "contract": "contracts/vaults/YearnVaults/RibbonThetaYearnVault.sol:RibbonThetaYearnVault",
        "label": "vaultPauser",
        "offset": 0,
        "slot": "258",
        "type": "t_address"
      },
      {
        "astId": 14409,
        "contract": "contracts/vaults/YearnVaults/RibbonThetaYearnVault.sol:RibbonThetaYearnVault",
        "label": "isYearnPaused",
        "offset": 20,
        "slot": "258",
        "type": "t_bool"
      }
    ],
    "types": {
      "t_address": {
        "encoding": "inplace",
        "label": "address",
        "numberOfBytes": "20"
      },
      "t_array(t_uint256)30_storage": {
        "base": "t_uint256",
        "encoding": "inplace",
        "label": "uint256[30]",
        "numberOfBytes": "960"
      },
      "t_array(t_uint256)45_storage": {
        "base": "t_uint256",
        "encoding": "inplace",
        "label": "uint256[45]",
        "numberOfBytes": "1440"
      },
      "t_array(t_uint256)49_storage": {
        "base": "t_uint256",
        "encoding": "inplace",
        "label": "uint256[49]",
        "numberOfBytes": "1568"
      },
      "t_array(t_uint256)50_storage": {
        "base": "t_uint256",
        "encoding": "inplace",
        "label": "uint256[50]",
        "numberOfBytes": "1600"
      },
      "t_bool": {
        "encoding": "inplace",
        "label": "bool",
        "numberOfBytes": "1"
      },
      "t_contract(IYearnVault)4548": {
        "encoding": "inplace",
        "label": "contract IYearnVault",
        "numberOfBytes": "20"
      },
      "t_mapping(t_address,t_mapping(t_address,t_uint256))": {
        "encoding": "mapping",
        "key": "t_address",
        "label": "mapping(address => mapping(address => uint256))",
        "numberOfBytes": "32",
        "value": "t_mapping(t_address,t_uint256)"
      },
      "t_mapping(t_address,t_struct(DepositReceipt)6601_storage)": {
        "encoding": "mapping",
        "key": "t_address",
        "label": "mapping(address => struct Vault.DepositReceipt)",
        "numberOfBytes": "32",
        "value": "t_struct(DepositReceipt)6601_storage"
      },
      "t_mapping(t_address,t_struct(Withdrawal)6606_storage)": {
        "encoding": "mapping",
        "key": "t_address",
        "label": "mapping(address => struct Vault.Withdrawal)",
        "numberOfBytes": "32",
        "value": "t_struct(Withdrawal)6606_storage"
      },
      "t_mapping(t_address,t_uint256)": {
        "encoding": "mapping",
        "key": "t_address",
        "label": "mapping(address => uint256)",
        "numberOfBytes": "32",
        "value": "t_uint256"
      },
      "t_mapping(t_uint256,t_uint256)": {
        "encoding": "mapping",
        "key": "t_uint256",
        "label": "mapping(uint256 => uint256)",
        "numberOfBytes": "32",
        "value": "t_uint256"
      },
      "t_string_storage": {
        "encoding": "bytes",
        "label": "string",
        "numberOfBytes": "32"
      },
      "t_struct(DepositReceipt)6601_storage": {
        "encoding": "inplace",
        "label": "struct Vault.DepositReceipt",
        "members": [
          {
            "astId": 6596,
            "contract": "contracts/vaults/YearnVaults/RibbonThetaYearnVault.sol:RibbonThetaYearnVault",
            "label": "round",
            "offset": 0,
            "slot": "0",
            "type": "t_uint16"
          },
          {
            "astId": 6598,
            "contract": "contracts/vaults/YearnVaults/RibbonThetaYearnVault.sol:RibbonThetaYearnVault",
            "label": "amount",
            "offset": 2,
            "slot": "0",
            "type": "t_uint104"
          },
          {
            "astId": 6600,
            "contract": "contracts/vaults/YearnVaults/RibbonThetaYearnVault.sol:RibbonThetaYearnVault",
            "label": "unredeemedShares",
            "offset": 15,
            "slot": "0",
            "type": "t_uint128"
          }
        ],
        "numberOfBytes": "32"
      },
      "t_struct(OptionState)6583_storage": {
        "encoding": "inplace",
        "label": "struct Vault.OptionState",
        "members": [
          {
            "astId": 6578,
            "contract": "contracts/vaults/YearnVaults/RibbonThetaYearnVault.sol:RibbonThetaYearnVault",
            "label": "nextOption",
            "offset": 0,
            "slot": "0",
            "type": "t_address"
          },
          {
            "astId": 6580,
            "contract": "contracts/vaults/YearnVaults/RibbonThetaYearnVault.sol:RibbonThetaYearnVault",
            "label": "currentOption",
            "offset": 0,
            "slot": "1",
            "type": "t_address"
          },
          {
            "astId": 6582,
            "contract": "contracts/vaults/YearnVaults/RibbonThetaYearnVault.sol:RibbonThetaYearnVault",
            "label": "nextOptionReadyAt",
            "offset": 20,
            "slot": "1",
            "type": "t_uint32"
          }
        ],
        "numberOfBytes": "64"
      },
      "t_struct(VaultParams)6576_storage": {
        "encoding": "inplace",
        "label": "struct Vault.VaultParams",
        "members": [
          {
            "astId": 6565,
            "contract": "contracts/vaults/YearnVaults/RibbonThetaYearnVault.sol:RibbonThetaYearnVault",
            "label": "isPut",
            "offset": 0,
            "slot": "0",
            "type": "t_bool"
          },
          {
            "astId": 6567,
            "contract": "contracts/vaults/YearnVaults/RibbonThetaYearnVault.sol:RibbonThetaYearnVault",
            "label": "decimals",
            "offset": 1,
            "slot": "0",
            "type": "t_uint8"
          },
          {
            "astId": 6569,
            "contract": "contracts/vaults/YearnVaults/RibbonThetaYearnVault.sol:RibbonThetaYearnVault",
            "label": "asset",
            "offset": 2,
            "slot": "0",
            "type": "t_address"
          },
          {
            "astId": 6571,
            "contract": "contracts/vaults/YearnVaults/RibbonThetaYearnVault.sol:RibbonThetaYearnVault",
            "label": "underlying",
            "offset": 0,
            "slot": "1",
            "type": "t_address"
          },
          {
            "astId": 6573,
            "contract": "contracts/vaults/YearnVaults/RibbonThetaYearnVault.sol:RibbonThetaYearnVault",
            "label": "minimumSupply",
            "offset": 20,
            "slot": "1",
            "type": "t_uint56"
          },
          {
            "astId": 6575,
            "contract": "contracts/vaults/YearnVaults/RibbonThetaYearnVault.sol:RibbonThetaYearnVault",
            "label": "cap",
            "offset": 0,
            "slot": "2",
            "type": "t_uint104"
          }
        ],
        "numberOfBytes": "96"
      },
      "t_struct(VaultState)6594_storage": {
        "encoding": "inplace",
        "label": "struct Vault.VaultState",
        "members": [
          {
            "astId": 6585,
            "contract": "contracts/vaults/YearnVaults/RibbonThetaYearnVault.sol:RibbonThetaYearnVault",
            "label": "round",
            "offset": 0,
            "slot": "0",
            "type": "t_uint16"
          },
          {
            "astId": 6587,
            "contract": "contracts/vaults/YearnVaults/RibbonThetaYearnVault.sol:RibbonThetaYearnVault",
            "label": "lockedAmount",
            "offset": 2,
            "slot": "0",
            "type": "t_uint104"
          },
          {
            "astId": 6589,
            "contract": "contracts/vaults/YearnVaults/RibbonThetaYearnVault.sol:RibbonThetaYearnVault",
            "label": "lastLockedAmount",
            "offset": 15,
            "slot": "0",
            "type": "t_uint104"
          },
          {
            "astId": 6591,
            "contract": "contracts/vaults/YearnVaults/RibbonThetaYearnVault.sol:RibbonThetaYearnVault",
            "label": "totalPending",
            "offset": 0,
            "slot": "1",
            "type": "t_uint128"
          },
          {
            "astId": 6593,
            "contract": "contracts/vaults/YearnVaults/RibbonThetaYearnVault.sol:RibbonThetaYearnVault",
            "label": "queuedWithdrawShares",
            "offset": 16,
            "slot": "1",
            "type": "t_uint128"
          }
        ],
        "numberOfBytes": "64"
      },
      "t_struct(Withdrawal)6606_storage": {
        "encoding": "inplace",
        "label": "struct Vault.Withdrawal",
        "members": [
          {
            "astId": 6603,
            "contract": "contracts/vaults/YearnVaults/RibbonThetaYearnVault.sol:RibbonThetaYearnVault",
            "label": "round",
            "offset": 0,
            "slot": "0",
            "type": "t_uint16"
          },
          {
            "astId": 6605,
            "contract": "contracts/vaults/YearnVaults/RibbonThetaYearnVault.sol:RibbonThetaYearnVault",
            "label": "shares",
            "offset": 2,
            "slot": "0",
            "type": "t_uint128"
          }
        ],
        "numberOfBytes": "32"
      },
      "t_uint104": {
        "encoding": "inplace",
        "label": "uint104",
        "numberOfBytes": "13"
      },
      "t_uint128": {
        "encoding": "inplace",
        "label": "uint128",
        "numberOfBytes": "16"
      },
      "t_uint16": {
        "encoding": "inplace",
        "label": "uint16",
        "numberOfBytes": "2"
      },
      "t_uint256": {
        "encoding": "inplace",
        "label": "uint256",
        "numberOfBytes": "32"
      },
      "t_uint32": {
        "encoding": "inplace",
        "label": "uint32",
        "numberOfBytes": "4"
      },
      "t_uint56": {
        "encoding": "inplace",
        "label": "uint56",
        "numberOfBytes": "7"
      },
      "t_uint8": {
        "encoding": "inplace",
        "label": "uint8",
        "numberOfBytes": "1"
      }
    }
  }
}