{
  "address": "0x0D58b7dF4Ebd4B61Db85b5fF89D02220130C6642",
  "abi": [
    {
      "inputs": [
        {
          "internalType": "address",
          "name": "_weth",
          "type": "address"
        },
        {
          "internalType": "address",
          "name": "_usdc",
          "type": "address"
        },
        {
          "internalType": "address",
          "name": "_oTokenFactory",
          "type": "address"
        },
        {
          "internalType": "address",
          "name": "_gammaController",
          "type": "address"
        },
        {
          "internalType": "address",
          "name": "_marginPool",
          "type": "address"
        },
        {
          "internalType": "address",
          "name": "_gnosisEasyAuction",
          "type": "address"
        }
      ],
      "stateMutability": "nonpayable",
      "type": "constructor"
    },
    {
      "anonymous": false,
      "inputs": [
        {
          "indexed": true,
          "internalType": "address",
          "name": "owner",
          "type": "address"
        },
        {
          "indexed": true,
          "internalType": "address",
          "name": "spender",
          "type": "address"
        },
        {
          "indexed": false,
          "internalType": "uint256",
          "name": "value",
          "type": "uint256"
        }
      ],
      "name": "Approval",
      "type": "event"
    },
    {
      "anonymous": false,
      "inputs": [
        {
          "indexed": false,
          "internalType": "uint256",
          "name": "auctionDuration",
          "type": "uint256"
        },
        {
          "indexed": false,
          "internalType": "uint256",
          "name": "newAuctionDuration",
          "type": "uint256"
        }
      ],
      "name": "AuctionDurationSet",
      "type": "event"
    },
    {
      "anonymous": false,
      "inputs": [
        {
          "indexed": false,
          "internalType": "uint256",
          "name": "oldCap",
          "type": "uint256"
        },
        {
          "indexed": false,
          "internalType": "uint256",
          "name": "newCap",
          "type": "uint256"
        }
      ],
      "name": "CapSet",
      "type": "event"
    },
    {
      "anonymous": false,
      "inputs": [
        {
          "indexed": true,
          "internalType": "address",
          "name": "options",
          "type": "address"
        },
        {
          "indexed": false,
          "internalType": "uint256",
          "name": "withdrawAmount",
          "type": "uint256"
        },
        {
          "indexed": true,
          "internalType": "address",
          "name": "manager",
          "type": "address"
        }
      ],
      "name": "CloseShort",
      "type": "event"
    },
    {
      "anonymous": false,
      "inputs": [
        {
          "indexed": false,
          "internalType": "uint256",
          "name": "performanceFee",
          "type": "uint256"
        },
        {
          "indexed": false,
          "internalType": "uint256",
          "name": "vaultFee",
          "type": "uint256"
        },
        {
          "indexed": false,
          "internalType": "uint256",
          "name": "round",
          "type": "uint256"
        },
        {
          "indexed": true,
          "internalType": "address",
          "name": "feeRecipient",
          "type": "address"
        }
      ],
      "name": "CollectVaultFees",
      "type": "event"
    },
    {
      "anonymous": false,
      "inputs": [
        {
          "indexed": true,
          "internalType": "address",
          "name": "account",
          "type": "address"
        },
        {
          "indexed": false,
          "internalType": "uint256",
          "name": "amount",
          "type": "uint256"
        },
        {
          "indexed": false,
          "internalType": "uint256",
          "name": "round",
          "type": "uint256"
        }
      ],
      "name": "Deposit",
      "type": "event"
    },
    {
      "anonymous": false,
      "inputs": [
        {
          "indexed": true,
          "internalType": "address",
          "name": "auctioningToken",
          "type": "address"
        },
        {
          "indexed": true,
          "internalType": "address",
          "name": "biddingToken",
          "type": "address"
        },
        {
          "indexed": false,
          "internalType": "uint256",
          "name": "auctionCounter",
          "type": "uint256"
        },
        {
          "indexed": true,
          "internalType": "address",
          "name": "manager",
          "type": "address"
        }
      ],
      "name": "InitiateGnosisAuction",
      "type": "event"
    },
    {
      "anonymous": false,
      "inputs": [
        {
          "indexed": true,
          "internalType": "address",
          "name": "account",
          "type": "address"
        },
        {
          "indexed": false,
          "internalType": "uint256",
          "name": "shares",
          "type": "uint256"
        },
        {
          "indexed": false,
          "internalType": "uint256",
          "name": "round",
          "type": "uint256"
        }
      ],
      "name": "InitiateWithdraw",
      "type": "event"
    },
    {
      "anonymous": false,
      "inputs": [
        {
          "indexed": true,
          "internalType": "address",
          "name": "account",
          "type": "address"
        },
        {
          "indexed": false,
          "internalType": "uint256",
          "name": "amount",
          "type": "uint256"
        },
        {
          "indexed": false,
          "internalType": "uint256",
          "name": "round",
          "type": "uint256"
        }
      ],
      "name": "InstantWithdraw",
      "type": "event"
    },
    {
      "anonymous": false,
      "inputs": [
        {
          "indexed": false,
          "internalType": "uint256",
          "name": "managementFee",
          "type": "uint256"
        },
        {
          "indexed": false,
          "internalType": "uint256",
          "name": "newManagementFee",
          "type": "uint256"
        }
      ],
      "name": "ManagementFeeSet",
      "type": "event"
    },
    {
      "anonymous": false,
      "inputs": [
        {
          "indexed": false,
          "internalType": "uint256",
          "name": "strikePrice",
          "type": "uint256"
        },
        {
          "indexed": false,
          "internalType": "uint256",
          "name": "delta",
          "type": "uint256"
        }
      ],
      "name": "NewOptionStrikeSelected",
      "type": "event"
    },
    {
      "anonymous": false,
      "inputs": [
        {
          "indexed": true,
          "internalType": "address",
          "name": "options",
          "type": "address"
        },
        {
          "indexed": false,
          "internalType": "uint256",
          "name": "depositAmount",
          "type": "uint256"
        },
        {
          "indexed": true,
          "internalType": "address",
          "name": "manager",
          "type": "address"
        }
      ],
      "name": "OpenShort",
      "type": "event"
    },
    {
      "anonymous": false,
      "inputs": [
        {
          "indexed": true,
          "internalType": "address",
          "name": "previousOwner",
          "type": "address"
        },
        {
          "indexed": true,
          "internalType": "address",
          "name": "newOwner",
          "type": "address"
        }
      ],
      "name": "OwnershipTransferred",
      "type": "event"
    },
    {
      "anonymous": false,
      "inputs": [
        {
          "indexed": false,
          "internalType": "uint256",
          "name": "performanceFee",
          "type": "uint256"
        },
        {
          "indexed": false,
          "internalType": "uint256",
          "name": "newPerformanceFee",
          "type": "uint256"
        }
      ],
      "name": "PerformanceFeeSet",
      "type": "event"
    },
    {
      "anonymous": false,
      "inputs": [
        {
          "indexed": false,
          "internalType": "uint256",
          "name": "premiumDiscount",
          "type": "uint256"
        },
        {
          "indexed": false,
          "internalType": "uint256",
          "name": "newPremiumDiscount",
          "type": "uint256"
        }
      ],
      "name": "PremiumDiscountSet",
      "type": "event"
    },
    {
      "anonymous": false,
      "inputs": [
        {
          "indexed": true,
          "internalType": "address",
          "name": "account",
          "type": "address"
        },
        {
          "indexed": false,
          "internalType": "uint256",
          "name": "share",
          "type": "uint256"
        },
        {
          "indexed": false,
          "internalType": "uint256",
          "name": "round",
          "type": "uint256"
        }
      ],
      "name": "Redeem",
      "type": "event"
    },
    {
      "anonymous": false,
      "inputs": [
        {
          "indexed": true,
          "internalType": "address",
          "name": "from",
          "type": "address"
        },
        {
          "indexed": true,
          "internalType": "address",
          "name": "to",
          "type": "address"
        },
        {
          "indexed": false,
          "internalType": "uint256",
          "name": "value",
          "type": "uint256"
        }
      ],
      "name": "Transfer",
      "type": "event"
    },
    {
      "anonymous": false,
      "inputs": [
        {
          "indexed": true,
          "internalType": "address",
          "name": "account",
          "type": "address"
        },
        {
          "indexed": false,
          "internalType": "uint256",
          "name": "amount",
          "type": "uint256"
        },
        {
          "indexed": false,
          "internalType": "uint256",
          "name": "shares",
          "type": "uint256"
        }
      ],
      "name": "Withdraw",
      "type": "event"
    },
    {
      "inputs": [],
      "name": "DELAY",
      "outputs": [
        {
          "internalType": "uint256",
          "name": "",
          "type": "uint256"
        }
      ],
      "stateMutability": "view",
      "type": "function"
    },
    {
      "inputs": [],
      "name": "GAMMA_CONTROLLER",
      "outputs": [
        {
          "internalType": "address",
          "name": "",
          "type": "address"
        }
      ],
      "stateMutability": "view",
      "type": "function"
    },
    {
      "inputs": [],
      "name": "GNOSIS_EASY_AUCTION",
      "outputs": [
        {
          "internalType": "address",
          "name": "",
          "type": "address"
        }
      ],
      "stateMutability": "view",
      "type": "function"
    },
    {
      "inputs": [],
      "name": "MARGIN_POOL",
      "outputs": [
        {
          "internalType": "address",
          "name": "",
          "type": "address"
        }
      ],
      "stateMutability": "view",
      "type": "function"
    },
    {
      "inputs": [],
      "name": "OTOKEN_FACTORY",
      "outputs": [
        {
          "internalType": "address",
          "name": "",
          "type": "address"
        }
      ],
      "stateMutability": "view",
      "type": "function"
    },
    {
      "inputs": [],
      "name": "PERIOD",
      "outputs": [
        {
          "internalType": "uint256",
          "name": "",
          "type": "uint256"
        }
      ],
      "stateMutability": "view",
      "type": "function"
    },
    {
      "inputs": [],
      "name": "USDC",
      "outputs": [
        {
          "internalType": "address",
          "name": "",
          "type": "address"
        }
      ],
      "stateMutability": "view",
      "type": "function"
    },
    {
      "inputs": [],
      "name": "WETH",
      "outputs": [
        {
          "internalType": "address",
          "name": "",
          "type": "address"
        }
      ],
      "stateMutability": "view",
      "type": "function"
    },
    {
      "inputs": [
        {
          "internalType": "address",
          "name": "account",
          "type": "address"
        }
      ],
      "name": "accountVaultBalance",
      "outputs": [
        {
          "internalType": "uint256",
          "name": "",
          "type": "uint256"
        }
      ],
      "stateMutability": "view",
      "type": "function"
    },
    {
      "inputs": [
        {
          "internalType": "address",
          "name": "owner",
          "type": "address"
        },
        {
          "internalType": "address",
          "name": "spender",
          "type": "address"
        }
      ],
      "name": "allowance",
      "outputs": [
        {
          "internalType": "uint256",
          "name": "",
          "type": "uint256"
        }
      ],
      "stateMutability": "view",
      "type": "function"
    },
    {
      "inputs": [
        {
          "internalType": "address",
          "name": "spender",
          "type": "address"
        },
        {
          "internalType": "uint256",
          "name": "amount",
          "type": "uint256"
        }
      ],
      "name": "approve",
      "outputs": [
        {
          "internalType": "bool",
          "name": "",
          "type": "bool"
        }
      ],
      "stateMutability": "nonpayable",
      "type": "function"
    },
    {
      "inputs": [],
      "name": "auctionDuration",
      "outputs": [
        {
          "internalType": "uint256",
          "name": "",
          "type": "uint256"
        }
      ],
      "stateMutability": "view",
      "type": "function"
    },
    {
      "inputs": [
        {
          "internalType": "address",
          "name": "account",
          "type": "address"
        }
      ],
      "name": "balanceOf",
      "outputs": [
        {
          "internalType": "uint256",
          "name": "",
          "type": "uint256"
        }
      ],
      "stateMutability": "view",
      "type": "function"
    },
    {
      "inputs": [],
      "name": "burnRemainingOTokens",
      "outputs": [],
      "stateMutability": "nonpayable",
      "type": "function"
    },
    {
      "inputs": [],
      "name": "cap",
      "outputs": [
        {
          "internalType": "uint256",
          "name": "",
          "type": "uint256"
        }
      ],
      "stateMutability": "view",
      "type": "function"
    },
    {
      "inputs": [],
      "name": "commitAndClose",
      "outputs": [],
      "stateMutability": "nonpayable",
      "type": "function"
    },
    {
      "inputs": [],
      "name": "completeWithdraw",
      "outputs": [],
      "stateMutability": "nonpayable",
      "type": "function"
    },
    {
      "inputs": [],
      "name": "currentOption",
      "outputs": [
        {
          "internalType": "address",
          "name": "",
          "type": "address"
        }
      ],
      "stateMutability": "view",
      "type": "function"
    },
    {
      "inputs": [],
      "name": "currentOtokenPremium",
      "outputs": [
        {
          "internalType": "uint256",
          "name": "",
          "type": "uint256"
        }
      ],
      "stateMutability": "view",
      "type": "function"
    },
    {
      "inputs": [],
      "name": "decimals",
      "outputs": [
        {
          "internalType": "uint8",
          "name": "",
          "type": "uint8"
        }
      ],
      "stateMutability": "view",
      "type": "function"
    },
    {
      "inputs": [
        {
          "internalType": "address",
          "name": "spender",
          "type": "address"
        },
        {
          "internalType": "uint256",
          "name": "subtractedValue",
          "type": "uint256"
        }
      ],
      "name": "decreaseAllowance",
      "outputs": [
        {
          "internalType": "bool",
          "name": "",
          "type": "bool"
        }
      ],
      "stateMutability": "nonpayable",
      "type": "function"
    },
    {
      "inputs": [
        {
          "internalType": "uint256",
          "name": "amount",
          "type": "uint256"
        }
      ],
      "name": "deposit",
      "outputs": [],
      "stateMutability": "nonpayable",
      "type": "function"
    },
    {
      "inputs": [],
      "name": "depositETH",
      "outputs": [],
      "stateMutability": "payable",
      "type": "function"
    },
    {
      "inputs": [
        {
          "internalType": "uint256",
          "name": "amount",
          "type": "uint256"
        },
        {
          "internalType": "address",
          "name": "creditor",
          "type": "address"
        }
      ],
      "name": "depositFor",
      "outputs": [],
      "stateMutability": "nonpayable",
      "type": "function"
    },
    {
      "inputs": [
        {
          "internalType": "address",
          "name": "",
          "type": "address"
        }
      ],
      "name": "depositReceipts",
      "outputs": [
        {
          "internalType": "uint16",
          "name": "round",
          "type": "uint16"
        },
        {
          "internalType": "uint104",
          "name": "amount",
          "type": "uint104"
        },
        {
          "internalType": "uint128",
          "name": "unredeemedShares",
          "type": "uint128"
        }
      ],
      "stateMutability": "view",
      "type": "function"
    },
    {
      "inputs": [],
      "name": "feeRecipient",
      "outputs": [
        {
          "internalType": "address",
          "name": "",
          "type": "address"
        }
      ],
      "stateMutability": "view",
      "type": "function"
    },
    {
      "inputs": [
        {
          "internalType": "address",
          "name": "spender",
          "type": "address"
        },
        {
          "internalType": "uint256",
          "name": "addedValue",
          "type": "uint256"
        }
      ],
      "name": "increaseAllowance",
      "outputs": [
        {
          "internalType": "bool",
          "name": "",
          "type": "bool"
        }
      ],
      "stateMutability": "nonpayable",
      "type": "function"
    },
    {
      "inputs": [
        {
          "internalType": "uint256",
          "name": "numRounds",
          "type": "uint256"
        }
      ],
      "name": "initRounds",
      "outputs": [],
      "stateMutability": "nonpayable",
      "type": "function"
    },
    {
      "inputs": [
        {
          "components": [
            {
              "internalType": "address",
              "name": "_owner",
              "type": "address"
            },
            {
              "internalType": "address",
              "name": "_keeper",
              "type": "address"
            },
            {
              "internalType": "address",
              "name": "_feeRecipient",
              "type": "address"
            },
            {
              "internalType": "uint256",
              "name": "_managementFee",
              "type": "uint256"
            },
            {
              "internalType": "uint256",
              "name": "_performanceFee",
              "type": "uint256"
            },
            {
              "internalType": "string",
              "name": "_tokenName",
              "type": "string"
            },
            {
              "internalType": "string",
              "name": "_tokenSymbol",
              "type": "string"
            },
            {
              "internalType": "address",
              "name": "_optionsPremiumPricer",
              "type": "address"
            },
            {
              "internalType": "address",
              "name": "_strikeSelection",
              "type": "address"
            },
            {
              "internalType": "uint32",
              "name": "_premiumDiscount",
              "type": "uint32"
            },
            {
              "internalType": "uint256",
              "name": "_auctionDuration",
              "type": "uint256"
            }
          ],
          "internalType": "struct RibbonThetaVault.InitParams",
          "name": "_initParams",
          "type": "tuple"
        },
        {
          "components": [
            {
              "internalType": "bool",
              "name": "isPut",
              "type": "bool"
            },
            {
              "internalType": "uint8",
              "name": "decimals",
              "type": "uint8"
            },
            {
              "internalType": "address",
              "name": "asset",
              "type": "address"
            },
            {
              "internalType": "address",
              "name": "underlying",
              "type": "address"
            },
            {
              "internalType": "uint56",
              "name": "minimumSupply",
              "type": "uint56"
            },
            {
              "internalType": "uint104",
              "name": "cap",
              "type": "uint104"
            }
          ],
          "internalType": "struct Vault.VaultParams",
          "name": "_vaultParams",
          "type": "tuple"
        }
      ],
      "name": "initialize",
      "outputs": [],
      "stateMutability": "nonpayable",
      "type": "function"
    },
    {
      "inputs": [
        {
          "internalType": "uint256",
          "name": "numShares",
          "type": "uint256"
        }
      ],
      "name": "initiateWithdraw",
      "outputs": [],
      "stateMutability": "nonpayable",
      "type": "function"
    },
    {
      "inputs": [],
      "name": "keeper",
      "outputs": [
        {
          "internalType": "address",
          "name": "",
          "type": "address"
        }
      ],
      "stateMutability": "view",
      "type": "function"
    },
    {
      "inputs": [],
      "name": "lastQueuedWithdrawAmount",
      "outputs": [
        {
          "internalType": "uint256",
          "name": "",
          "type": "uint256"
        }
      ],
      "stateMutability": "view",
      "type": "function"
    },
    {
      "inputs": [],
      "name": "lastStrikeOverrideRound",
      "outputs": [
        {
          "internalType": "uint16",
          "name": "",
          "type": "uint16"
        }
      ],
      "stateMutability": "view",
      "type": "function"
    },
    {
      "inputs": [],
      "name": "liquidityGauge",
      "outputs": [
        {
          "internalType": "address",
          "name": "",
          "type": "address"
        }
      ],
      "stateMutability": "view",
      "type": "function"
    },
    {
      "inputs": [],
      "name": "managementFee",
      "outputs": [
        {
          "internalType": "uint256",
          "name": "",
          "type": "uint256"
        }
      ],
      "stateMutability": "view",
      "type": "function"
    },
    {
      "inputs": [],
      "name": "maxRedeem",
      "outputs": [],
      "stateMutability": "nonpayable",
      "type": "function"
    },
    {
      "inputs": [],
      "name": "name",
      "outputs": [
        {
          "internalType": "string",
          "name": "",
          "type": "string"
        }
      ],
      "stateMutability": "view",
      "type": "function"
    },
    {
      "inputs": [],
      "name": "nextOption",
      "outputs": [
        {
          "internalType": "address",
          "name": "",
          "type": "address"
        }
      ],
      "stateMutability": "view",
      "type": "function"
    },
    {
      "inputs": [],
      "name": "nextOptionReadyAt",
      "outputs": [
        {
          "internalType": "uint256",
          "name": "",
          "type": "uint256"
        }
      ],
      "stateMutability": "view",
      "type": "function"
    },
    {
      "inputs": [],
      "name": "optionAuctionID",
      "outputs": [
        {
          "internalType": "uint256",
          "name": "",
          "type": "uint256"
        }
      ],
      "stateMutability": "view",
      "type": "function"
    },
    {
      "inputs": [],
      "name": "optionState",
      "outputs": [
        {
          "internalType": "address",
          "name": "nextOption",
          "type": "address"
        },
        {
          "internalType": "address",
          "name": "currentOption",
          "type": "address"
        },
        {
          "internalType": "uint32",
          "name": "nextOptionReadyAt",
          "type": "uint32"
        }
      ],
      "stateMutability": "view",
      "type": "function"
    },
    {
      "inputs": [],
      "name": "optionsPremiumPricer",
      "outputs": [
        {
          "internalType": "address",
          "name": "",
          "type": "address"
        }
      ],
      "stateMutability": "view",
      "type": "function"
    },
    {
      "inputs": [],
      "name": "overriddenStrikePrice",
      "outputs": [
        {
          "internalType": "uint256",
          "name": "",
          "type": "uint256"
        }
      ],
      "stateMutability": "view",
      "type": "function"
    },
    {
      "inputs": [],
      "name": "owner",
      "outputs": [
        {
          "internalType": "address",
          "name": "",
          "type": "address"
        }
      ],
      "stateMutability": "view",
      "type": "function"
    },
    {
      "inputs": [],
      "name": "performanceFee",
      "outputs": [
        {
          "internalType": "uint256",
          "name": "",
          "type": "uint256"
        }
      ],
      "stateMutability": "view",
      "type": "function"
    },
    {
      "inputs": [],
      "name": "premiumDiscount",
      "outputs": [
        {
          "internalType": "uint256",
          "name": "",
          "type": "uint256"
        }
      ],
      "stateMutability": "view",
      "type": "function"
    },
    {
      "inputs": [],
      "name": "pricePerShare",
      "outputs": [
        {
          "internalType": "uint256",
          "name": "",
          "type": "uint256"
        }
      ],
      "stateMutability": "view",
      "type": "function"
    },
    {
      "inputs": [
        {
          "internalType": "uint256",
          "name": "numShares",
          "type": "uint256"
        }
      ],
      "name": "redeem",
      "outputs": [],
      "stateMutability": "nonpayable",
      "type": "function"
    },
    {
      "inputs": [],
      "name": "renounceOwnership",
      "outputs": [],
      "stateMutability": "nonpayable",
      "type": "function"
    },
    {
      "inputs": [],
      "name": "rollToNextOption",
      "outputs": [],
      "stateMutability": "nonpayable",
      "type": "function"
    },
    {
      "inputs": [
        {
          "internalType": "uint256",
          "name": "",
          "type": "uint256"
        }
      ],
      "name": "roundPricePerShare",
      "outputs": [
        {
          "internalType": "uint256",
          "name": "",
          "type": "uint256"
        }
      ],
      "stateMutability": "view",
      "type": "function"
    },
    {
      "inputs": [
        {
          "internalType": "uint256",
          "name": "newAuctionDuration",
          "type": "uint256"
        }
      ],
      "name": "setAuctionDuration",
      "outputs": [],
      "stateMutability": "nonpayable",
      "type": "function"
    },
    {
      "inputs": [
        {
          "internalType": "uint256",
          "name": "newCap",
          "type": "uint256"
        }
      ],
      "name": "setCap",
      "outputs": [],
      "stateMutability": "nonpayable",
      "type": "function"
    },
    {
      "inputs": [
        {
          "internalType": "address",
          "name": "newFeeRecipient",
          "type": "address"
        }
      ],
      "name": "setFeeRecipient",
      "outputs": [],
      "stateMutability": "nonpayable",
      "type": "function"
    },
    {
      "inputs": [
        {
          "internalType": "address",
          "name": "newLiquidityGauge",
          "type": "address"
        }
      ],
      "name": "setLiquidityGauge",
      "outputs": [],
      "stateMutability": "nonpayable",
      "type": "function"
    },
    {
      "inputs": [
        {
          "internalType": "uint256",
          "name": "newManagementFee",
          "type": "uint256"
        }
      ],
      "name": "setManagementFee",
      "outputs": [],
      "stateMutability": "nonpayable",
      "type": "function"
    },
    {
      "inputs": [
        {
          "internalType": "address",
          "name": "newKeeper",
          "type": "address"
        }
      ],
      "name": "setNewKeeper",
      "outputs": [],
      "stateMutability": "nonpayable",
      "type": "function"
    },
    {
      "inputs": [
        {
          "internalType": "address",
          "name": "newOptionsPremiumPricer",
          "type": "address"
        }
      ],
      "name": "setOptionsPremiumPricer",
      "outputs": [],
      "stateMutability": "nonpayable",
      "type": "function"
    },
    {
      "inputs": [
        {
          "internalType": "uint256",
          "name": "newPerformanceFee",
          "type": "uint256"
        }
      ],
      "name": "setPerformanceFee",
      "outputs": [],
      "stateMutability": "nonpayable",
      "type": "function"
    },
    {
      "inputs": [
        {
          "internalType": "uint256",
          "name": "newPremiumDiscount",
          "type": "uint256"
        }
      ],
      "name": "setPremiumDiscount",
      "outputs": [],
      "stateMutability": "nonpayable",
      "type": "function"
    },
    {
      "inputs": [
        {
          "internalType": "uint128",
          "name": "strikePrice",
          "type": "uint128"
        }
      ],
      "name": "setStrikePrice",
      "outputs": [],
      "stateMutability": "nonpayable",
      "type": "function"
    },
    {
      "inputs": [
        {
          "internalType": "address",
          "name": "newStrikeSelection",
          "type": "address"
        }
      ],
      "name": "setStrikeSelection",
      "outputs": [],
      "stateMutability": "nonpayable",
      "type": "function"
    },
    {
      "inputs": [
        {
          "internalType": "address",
          "name": "account",
          "type": "address"
        }
      ],
      "name": "shareBalances",
      "outputs": [
        {
          "internalType": "uint256",
          "name": "heldByAccount",
          "type": "uint256"
        },
        {
          "internalType": "uint256",
          "name": "heldByVault",
          "type": "uint256"
        }
      ],
      "stateMutability": "view",
      "type": "function"
    },
    {
      "inputs": [
        {
          "internalType": "address",
          "name": "account",
          "type": "address"
        }
      ],
      "name": "shares",
      "outputs": [
        {
          "internalType": "uint256",
          "name": "",
          "type": "uint256"
        }
      ],
      "stateMutability": "view",
      "type": "function"
    },
    {
      "inputs": [
        {
          "internalType": "uint256",
          "name": "numShares",
          "type": "uint256"
        }
      ],
      "name": "stake",
      "outputs": [],
      "stateMutability": "nonpayable",
      "type": "function"
    },
    {
      "inputs": [],
      "name": "startAuction",
      "outputs": [],
      "stateMutability": "nonpayable",
      "type": "function"
    },
    {
      "inputs": [],
      "name": "strikeSelection",
      "outputs": [
        {
          "internalType": "address",
          "name": "",
          "type": "address"
        }
      ],
      "stateMutability": "view",
      "type": "function"
    },
    {
      "inputs": [],
      "name": "symbol",
      "outputs": [
        {
          "internalType": "string",
          "name": "",
          "type": "string"
        }
      ],
      "stateMutability": "view",
      "type": "function"
    },
    {
      "inputs": [],
      "name": "totalBalance",
      "outputs": [
        {
          "internalType": "uint256",
          "name": "",
          "type": "uint256"
        }
      ],
      "stateMutability": "view",
      "type": "function"
    },
    {
      "inputs": [],
      "name": "totalPending",
      "outputs": [
        {
          "internalType": "uint256",
          "name": "",
          "type": "uint256"
        }
      ],
      "stateMutability": "view",
      "type": "function"
    },
    {
      "inputs": [],
      "name": "totalSupply",
      "outputs": [
        {
          "internalType": "uint256",
          "name": "",
          "type": "uint256"
        }
      ],
      "stateMutability": "view",
      "type": "function"
    },
    {
      "inputs": [
        {
          "internalType": "address",
          "name": "recipient",
          "type": "address"
        },
        {
          "internalType": "uint256",
          "name": "amount",
          "type": "uint256"
        }
      ],
      "name": "transfer",
      "outputs": [
        {
          "internalType": "bool",
          "name": "",
          "type": "bool"
        }
      ],
      "stateMutability": "nonpayable",
      "type": "function"
    },
    {
      "inputs": [
        {
          "internalType": "address",
          "name": "sender",
          "type": "address"
        },
        {
          "internalType": "address",
          "name": "recipient",
          "type": "address"
        },
        {
          "internalType": "uint256",
          "name": "amount",
          "type": "uint256"
        }
      ],
      "name": "transferFrom",
      "outputs": [
        {
          "internalType": "bool",
          "name": "",
          "type": "bool"
        }
      ],
      "stateMutability": "nonpayable",
      "type": "function"
    },
    {
      "inputs": [
        {
          "internalType": "address",
          "name": "newOwner",
          "type": "address"
        }
      ],
      "name": "transferOwnership",
      "outputs": [],
      "stateMutability": "nonpayable",
      "type": "function"
    },
    {
      "inputs": [],
      "name": "vaultParams",
      "outputs": [
        {
          "internalType": "bool",
          "name": "isPut",
          "type": "bool"
        },
        {
          "internalType": "uint8",
          "name": "decimals",
          "type": "uint8"
        },
        {
          "internalType": "address",
          "name": "asset",
          "type": "address"
        },
        {
          "internalType": "address",
          "name": "underlying",
          "type": "address"
        },
        {
          "internalType": "uint56",
          "name": "minimumSupply",
          "type": "uint56"
        },
        {
          "internalType": "uint104",
          "name": "cap",
          "type": "uint104"
        }
      ],
      "stateMutability": "view",
      "type": "function"
    },
    {
      "inputs": [],
      "name": "vaultState",
      "outputs": [
        {
          "internalType": "uint16",
          "name": "round",
          "type": "uint16"
        },
        {
          "internalType": "uint104",
          "name": "lockedAmount",
          "type": "uint104"
        },
        {
          "internalType": "uint104",
          "name": "lastLockedAmount",
          "type": "uint104"
        },
        {
          "internalType": "uint128",
          "name": "totalPending",
          "type": "uint128"
        },
        {
          "internalType": "uint128",
          "name": "queuedWithdrawShares",
          "type": "uint128"
        }
      ],
      "stateMutability": "view",
      "type": "function"
    },
    {
      "inputs": [
        {
          "internalType": "uint256",
          "name": "amount",
          "type": "uint256"
        }
      ],
      "name": "withdrawInstantly",
      "outputs": [],
      "stateMutability": "nonpayable",
      "type": "function"
    },
    {
      "inputs": [
        {
          "internalType": "address",
          "name": "",
          "type": "address"
        }
      ],
      "name": "withdrawals",
      "outputs": [
        {
          "internalType": "uint16",
          "name": "round",
          "type": "uint16"
        },
        {
          "internalType": "uint128",
          "name": "shares",
          "type": "uint128"
        }
      ],
      "stateMutability": "view",
      "type": "function"
    }
  ],
  "transactionHash": "0x409e96e432361bbc025e711023cedf0c4110bb0050a690dadf5aac31118d0e67",
  "args": [
    "0xC02aaA39b223FE8D0A0e5C4F27eAD9083C756Cc2",
    "0xA0b86991c6218b36c1d19D4a2e9Eb0cE3606eB48",
    "0x4114b7C04bBbA682130cae2bA26FC5d2473B4Ddc",
    "0x4bec71A4Ac41eE9761440F6921DD17bA1C1213B1",
    "0x3c212a044760de5a529b3ba59363ddeccc2210be",
    "0x0b7fFc1f4AD541A4Ed16b40D8c37f0929158D101"
  ],
  "solcInputHash": "cb6e5018d6779dd1784c257a2041d0dd",
  "bytecode": "0x6101406040523480156200001257600080fd5b5060405162005a9a38038062005a9a833981016040819052620000359162000261565b85858484846001600160a01b0385166200007f5760405162461bcd60e51b8152602060048201526006602482015265042beeecae8d60d31b60448201526064015b60405180910390fd5b6001600160a01b038416620000c05760405162461bcd60e51b8152602060048201526006602482015265215f7573646360d01b604482015260640162000076565b6001600160a01b038116620001185760405162461bcd60e51b815260206004820152601360248201527f215f676e6f7369734561737941756374696f6e00000000000000000000000000604482015260640162000076565b6001600160a01b038316620001645760405162461bcd60e51b815260206004820152601160248201527010afb3b0b6b6b0a1b7b73a3937b63632b960791b604482015260640162000076565b6001600160a01b038216620001ab5760405162461bcd60e51b815260206004820152600c60248201526b0857db585c99da5b941bdbdb60a21b604482015260640162000076565b6001600160601b0319606095861b811660805293851b841660a05291841b831660c052831b821660e05290911b16610100526001600160a01b038416620002275760405162461bcd60e51b815260206004820152600f60248201526e215f6f546f6b656e466163746f727960881b604482015260640162000076565b50505060601b6001600160601b0319166101205250620002e19050565b80516001600160a01b03811681146200025c57600080fd5b919050565b60008060008060008060c087890312156200027a578182fd5b620002858762000244565b9550620002956020880162000244565b9450620002a56040880162000244565b9350620002b56060880162000244565b9250620002c56080880162000244565b9150620002d560a0880162000244565b90509295509295509295565b60805160601c60a05160601c60c05160601c60e05160601c6101005160601c6101205160601c61570a6200039060003960008181610ebb015261294d0152600081816109200152613acd01526000818161083e015261259101526000818161052a01528181611b0e015281816125690152614245015260008181610ab10152612972015260008181610d7001528181612c7a01528181612d26015281816132cf015261330c015261570a6000f3fe60806040526004361061045d5760003560e01c806389a302711161023f578063b4d1d79511610139578063e73c63d5116100b6578063f656ba511161007a578063f656ba5114610f96578063f756fa2114610fcb578063f957a06714610fe0578063f9a0be6814611000578063fe56e2321461102157600080fd5b8063e73c63d514610f23578063e74b981b14610f39578063ea00b1ca14610f59578063f2fde38b14610f6e578063f6326fb314610f8e57600080fd5b8063d164cc15116100fd578063d164cc1514610e53578063d5f2638214610e73578063db006a7514610e89578063db43e86214610ea9578063dd62ed3e14610edd57600080fd5b8063b4d1d79514610dc7578063b6b55f2514610dde578063b9f8092b14610dfe578063ce7c2ac214610e13578063d13f1b3e14610e3357600080fd5b8063a2db9d83116101c7578063a9059cbb1161018b578063a9059cbb14610d1e578063aced166114610d3e578063ad5c464814610d5e578063ad7a672f14610d92578063afa6626414610da757600080fd5b8063a2db9d8314610c8a578063a457c2d714610ca8578063a497e67414610cc8578063a694fc3a14610ce8578063a6f7f5d614610d0857600080fd5b806399530b061161020e57806399530b0614610b245780639be43daa14610b395780639fcc2d7514610b59578063a083ff1714610c05578063a285c9e814610c6857600080fd5b806389a3027114610a9f5780638b10cc7c14610ad35780638da5cb5b14610af157806395d89b4114610b0f57600080fd5b8063469048401161035b5780636c10f66c116102d85780637a9262a21161029c5780637a9262a2146109c25780637e108d5214610a2657806383536ff314610a4657806387153eb114610a5c5780638778878214610a8957600080fd5b80636c10f66c1461090e5780636f31ab341461094257806370897b231461095757806370a0823114610977578063715018a6146109ad57600080fd5b8063600a2cfb1161031f578063600a2cfb14610817578063650cce8a1461082c5780636719b2ee1461086057806369b41170146108e45780636b64c769146108f957600080fd5b8063469048401461078157806347786d37146107a1578063503c70aa146107c157806355489bb2146107d757806358358207146107f757600080fd5b806330630da4116103e95780633ec143d3116103ad5780633ec143d3146106df5780633f23bb731461070d5780633f90916a1461072d578063432833a61461074b5780634603c0aa1461076157600080fd5b806330630da414610637578063313ce56714610657578063355274ea1461068157806336efd16f1461069f57806339509351146106bf57600080fd5b806318160ddd1161043057806318160ddd146105035780631a92f6c21461051857806323b872dd146105645780632728f333146105845780632775d01c1461061757600080fd5b8063048bf0851461046257806306fdde0314610484578063095ea7b3146104af5780630cbf54c8146104df575b600080fd5b34801561046e57600080fd5b5061048261047d366004614e55565b611041565b005b34801561049057600080fd5b50610499611097565b6040516104a691906151f4565b60405180910390f35b3480156104bb57600080fd5b506104cf6104ca366004614ee9565b611129565b60405190151581526020016104a6565b3480156104eb57600080fd5b506104f560fb5481565b6040519081526020016104a6565b34801561050f57600080fd5b506099546104f5565b34801561052457600080fd5b5061054c7f000000000000000000000000000000000000000000000000000000000000000081565b6040516001600160a01b0390911681526020016104a6565b34801561057057600080fd5b506104cf61057f366004614ea9565b611140565b34801561059057600080fd5b5060cf5460d0546105d29161ffff8116916001600160681b03620100008304811692600160781b900416906001600160801b0380821691600160801b90041685565b6040805161ffff90961686526001600160681b03948516602087015293909216928401929092526001600160801b03918216606084015216608082015260a0016104a6565b34801561062357600080fd5b50610482610632366004614ff1565b6111ec565b34801561064357600080fd5b50610482610652366004614e55565b61138f565b34801561066357600080fd5b5060cc54610100900460ff1660405160ff90911681526020016104a6565b34801561068d57600080fd5b5060ce546001600160681b03166104f5565b3480156106ab57600080fd5b506104826106ba366004615021565b611427565b3480156106cb57600080fd5b506104cf6106da366004614ee9565b6114af565b3480156106eb57600080fd5b5060f9546106fa9061ffff1681565b60405161ffff90911681526020016104a6565b34801561071957600080fd5b506104f5610728366004614e55565b6114eb565b34801561073957600080fd5b5060d0546001600160801b03166104f5565b34801561075757600080fd5b506104f560fc5481565b34801561076d57600080fd5b5061048261077c366004614e55565b61153e565b34801561078d57600080fd5b5060d35461054c906001600160a01b031681565b3480156107ad57600080fd5b506104826107bc366004614ff1565b6115e0565b3480156107cd57600080fd5b506104f560fd5481565b3480156107e357600080fd5b506104826107f2366004614fca565b6116bb565b34801561080357600080fd5b50610482610812366004614f6e565b611753565b34801561082357600080fd5b50610482611aa2565b34801561083857600080fd5b5061054c7f000000000000000000000000000000000000000000000000000000000000000081565b34801561086c57600080fd5b506108b361087b366004614e55565b60c96020526000908152604090205461ffff8116906201000081046001600160681b031690600160781b90046001600160801b031683565b6040805161ffff90941684526001600160681b0390921660208401526001600160801b0316908201526060016104a6565b3480156108f057600080fd5b506104f5600081565b34801561090557600080fd5b50610482611bfd565b34801561091a57600080fd5b5061054c7f000000000000000000000000000000000000000000000000000000000000000081565b34801561094e57600080fd5b50610482611c5d565b34801561096357600080fd5b50610482610972366004614ff1565b611c94565b34801561098357600080fd5b506104f5610992366004614e55565b6001600160a01b031660009081526097602052604090205490565b3480156109b957600080fd5b50610482611d5b565b3480156109ce57600080fd5b50610a046109dd366004614e55565b60cb6020526000908152604090205461ffff8116906201000090046001600160801b031682565b6040805161ffff90931683526001600160801b039091166020830152016104a6565b348015610a3257600080fd5b50610482610a41366004614ff1565b611d91565b348015610a5257600080fd5b506104f560f75481565b348015610a6857600080fd5b506104f5610a77366004614ff1565b60ca6020526000908152604090205481565b348015610a9557600080fd5b506104f560d55481565b348015610aab57600080fd5b5061054c7f000000000000000000000000000000000000000000000000000000000000000081565b348015610adf57600080fd5b5060d2546001600160a01b031661054c565b348015610afd57600080fd5b506065546001600160a01b031661054c565b348015610b1b57600080fd5b50610499611fcc565b348015610b3057600080fd5b506104f5611fdb565b348015610b4557600080fd5b50610482610b54366004614ff1565b612015565b348015610b6557600080fd5b5060cc5460cd5460ce54610bb59260ff808216936101008304909116926001600160a01b036201000090930483169282169166ffffffffffffff600160a01b90910416906001600160681b031686565b60408051961515875260ff90951660208701526001600160a01b03938416948601949094529116606084015266ffffffffffffff1660808301526001600160681b031660a082015260c0016104a6565b348015610c1157600080fd5b5060d15460d254610c3c916001600160a01b039081169190811690600160a01b900463ffffffff1683565b604080516001600160a01b03948516815293909216602084015263ffffffff16908201526060016104a6565b348015610c7457600080fd5b5060d254600160a01b900463ffffffff166104f5565b348015610c9657600080fd5b5060d1546001600160a01b031661054c565b348015610cb457600080fd5b506104cf610cc3366004614ee9565b61210f565b348015610cd457600080fd5b50610482610ce3366004614ff1565b6121a8565b348015610cf457600080fd5b50610482610d03366004614ff1565b612265565b348015610d1457600080fd5b506104f560d65481565b348015610d2a57600080fd5b506104cf610d39366004614ee9565b612356565b348015610d4a57600080fd5b5060d45461054c906001600160a01b031681565b348015610d6a57600080fd5b5061054c7f000000000000000000000000000000000000000000000000000000000000000081565b348015610d9e57600080fd5b506104f5612363565b348015610db357600080fd5b5060f55461054c906001600160a01b031681565b348015610dd357600080fd5b506104f562093a8081565b348015610dea57600080fd5b50610482610df9366004614ff1565b612402565b348015610e0a57600080fd5b50610482612476565b348015610e1f57600080fd5b506104f5610e2e366004614e55565b61263d565b348015610e3f57600080fd5b50610482610e4e366004614ff1565b61265a565b348015610e5f57600080fd5b50610482610e6e366004614e55565b61271f565b348015610e7f57600080fd5b506104f560f85481565b348015610e9557600080fd5b50610482610ea4366004614ff1565b6127ae565b348015610eb557600080fd5b5061054c7f000000000000000000000000000000000000000000000000000000000000000081565b348015610ee957600080fd5b506104f5610ef8366004614e71565b6001600160a01b03918216600090815260986020908152604080832093909416825291909152205490565b348015610f2f57600080fd5b506104f560fa5481565b348015610f4557600080fd5b50610482610f54366004614e55565b61281b565b348015610f6557600080fd5b5061048261290e565b348015610f7a57600080fd5b50610482610f89366004614e55565b612bb2565b610482612c4d565b348015610fa257600080fd5b50610fb6610fb1366004614e55565b612d9e565b604080519283526020830191909152016104a6565b348015610fd757600080fd5b50610482612e81565b348015610fec57600080fd5b5060f65461054c906001600160a01b031681565b34801561100c57600080fd5b506101005461054c906001600160a01b031681565b34801561102d57600080fd5b5061048261103c366004614ff1565b612ed6565b6065546001600160a01b031633146110745760405162461bcd60e51b815260040161106b90615276565b60405180910390fd5b61010080546001600160a01b0319166001600160a01b0392909216919091179055565b6060609a80546110a6906154d4565b80601f01602080910402602001604051908101604052809291908181526020018280546110d2906154d4565b801561111f5780601f106110f45761010080835404028352916020019161111f565b820191906000526020600020905b81548152906001019060200180831161110257829003601f168201915b5050505050905090565b6000611136338484612fb7565b5060015b92915050565b600061114d8484846130dc565b6001600160a01b0384166000908152609860209081526040808320338452909152902054828110156111d25760405162461bcd60e51b815260206004820152602860248201527f45524332303a207472616e7366657220616d6f756e74206578636565647320616044820152676c6c6f77616e636560c01b606482015260840161106b565b6111df8533858403612fb7565b60019150505b9392505050565b6002600154141561120f5760405162461bcd60e51b815260040161106b906152cc565b600260015533600090815260c96020526040902060cf5461ffff16826112475760405162461bcd60e51b815260040161106b906152ab565b815461ffff16811461128b5760405162461bcd60e51b815260206004820152600d60248201526c125b9d985b1a59081c9bdd5b99609a1b604482015260640161106b565b81546201000090046001600160681b0316838110156112dc5760405162461bcd60e51b815260206004820152600d60248201526c115e18d9595908185b5bdd5b9d609a1b604482015260640161106b565b6112e681856132ac565b83546001600160681b0391909116620100000262010000600160781b031990911617835560d054611320906001600160801b0316856132ac565b60d080546001600160801b0319166001600160801b0392909216919091179055604080518581526020810184905233917fab2daf3c146ca6416cbccd2a86ed2ba995e171ef6319df14a38aef01403a9c96910160405180910390a261138533856132b8565b5050600180555050565b6065546001600160a01b031633146113b95760405162461bcd60e51b815260040161106b90615276565b6001600160a01b0381166114055760405162461bcd60e51b815260206004820152601360248201527210b732bba9ba3934b5b2a9b2b632b1ba34b7b760691b604482015260640161106b565b60f680546001600160a01b0319166001600160a01b0392909216919091179055565b6002600154141561144a5760405162461bcd60e51b815260040161106b906152cc565b60026001558161146c5760405162461bcd60e51b815260040161106b906152ab565b6001600160a01b03811661147f57600080fd5b6114898282613419565b60cc546114a7906201000090046001600160a01b03163330856136ab565b505060018055565b3360008181526098602090815260408083206001600160a01b038716845290915281205490916111369185906114e690869061534f565b612fb7565b60cc5460009060ff610100909104168161152161150760995490565b61150f612363565b60d0546001600160801b031685613716565b905061153661152f8561263d565b8284613756565b949350505050565b6065546001600160a01b031633146115685760405162461bcd60e51b815260040161106b90615276565b6001600160a01b0381166115be5760405162461bcd60e51b815260206004820152601860248201527f216e65774f7074696f6e735072656d69756d5072696365720000000000000000604482015260640161106b565b60f580546001600160a01b0319166001600160a01b0392909216919091179055565b6065546001600160a01b0316331461160a5760405162461bcd60e51b815260040161106b90615276565b600081116116445760405162461bcd60e51b81526020600482015260076024820152660216e65774361760cc1b604482015260640161106b565b61164d816137b8565b60ce54604080516001600160681b039092168252602082018390527f5f86edbb9d92228a9edc3f0ebc0f001bda1ea345ac7335e0eeef3504b31d1a1c910160405180910390a160ce80546cffffffffffffffffffffffffff19166001600160681b0392909216919091179055565b6065546001600160a01b031633146116e55760405162461bcd60e51b815260040161106b90615276565b6000816001600160801b03161161172d5760405162461bcd60e51b815260206004820152600c60248201526b21737472696b65507269636560a01b604482015260640161106b565b6001600160801b031660fa5560cf5460f9805461ffff191661ffff909216919091179055565b600054610100900460ff168061176c575060005460ff16155b6117885760405162461bcd60e51b815260040161106b90615228565b600054610100900460ff161580156117aa576000805461ffff19166101011790555b61186f6117ba6020850185614e55565b6117ca6040860160208701614e55565b6117da6060870160408801614e55565b606087013560808801356117f160a08a018a615303565b8080601f0160208091040260200160405190810160405280939291908181526020018383808284376000920191909152506118339250505060c08b018b615303565b8080601f0160208091040260200160405190810160405280939291908181526020018383808284376000920191909152508c9250613802915050565b6000611882610100850160e08601614e55565b6001600160a01b031614156118d25760405162461bcd60e51b815260206004820152601660248201527510afb7b83a34b7b739a83932b6b4bab6a83934b1b2b960511b604482015260640161106b565b60006118e661012085016101008601614e55565b6001600160a01b031614156119315760405162461bcd60e51b815260206004820152601160248201527010afb9ba3934b5b2a9b2b632b1ba34b7b760791b604482015260640161106b565b60006119456101408501610120860161508e565b63ffffffff16118015611979575061195f600a6064615472565b6119716101408501610120860161508e565b63ffffffff16105b6119b95760405162461bcd60e51b81526020600482015260116024820152700857dc1c995b5a5d5b511a5cd8dbdd5b9d607a1b604482015260640161106b565b61012c8361014001351015611a045760405162461bcd60e51b815260206004820152601160248201527010afb0bab1ba34b7b7223ab930ba34b7b760791b604482015260640161106b565b611a15610100840160e08501614e55565b60f580546001600160a01b0319166001600160a01b0392909216919091179055611a4761012084016101008501614e55565b60f680546001600160a01b0319166001600160a01b0392909216919091179055611a796101408401610120850161508e565b63ffffffff1660f75561014083013560fb558015611a9d576000805461ff00191690555b505050565b60d4546001600160a01b03163314611acc5760405162461bcd60e51b815260040161106b90615207565b60026001541415611aef5760405162461bcd60e51b815260040161106b906152cc565b600260015560d2546040516358ffbb3d60e01b81526001600160a01b037f0000000000000000000000000000000000000000000000000000000000000000811660048301529091166024820152600090735b69a34BFa22162036f10bb352c7E9377758f01D906358ffbb3d9060440160206040518083038186803b158015611b7657600080fd5b505af4158015611b8a573d6000803e3d6000fd5b505050506040513d601f19601f82011682018060405250810190611bae9190615009565b60cf54909150611bcd906201000090046001600160681b0316826132ac565b60cf80546001600160681b0392909216620100000262010000600160781b03199092169190911790555060018055565b60d4546001600160a01b03163314611c275760405162461bcd60e51b815260040161106b90615207565b60026001541415611c4a5760405162461bcd60e51b815260040161106b906152cc565b6002600155611c57613a41565b60018055565b60026001541415611c805760405162461bcd60e51b815260040161106b906152cc565b6002600181905550611c5760006001613bdc565b6065546001600160a01b03163314611cbe5760405162461bcd60e51b815260040161106b90615276565b611ccc620f42406064615472565b8110611d1a5760405162461bcd60e51b815260206004820152601760248201527f496e76616c696420706572666f726d616e636520666565000000000000000000604482015260640161106b565b60d55460408051918252602082018390527f24867dfb6fcb9970a07be21024956524abe7a1837faa903ff0e99aaa40cf893e910160405180910390a160d555565b6065546001600160a01b03163314611d855760405162461bcd60e51b815260040161106b90615276565b611d8f6000613d8b565b565b60026001541415611db45760405162461bcd60e51b815260040161106b906152cc565b600260015580611df35760405162461bcd60e51b815260206004820152600a602482015269216e756d53686172657360b01b604482015260640161106b565b33600090815260c960205260409020546201000090046001600160681b0316151580611e3d575033600090815260c96020526040902054600160781b90046001600160801b031615155b15611e4e57611e4e60006001613bdc565b60cf5433600081815260cb60209081526040918290208054835187815261ffff96871693810184905292959194911685149290917f0c53c82ad07e2d592d88ece3b066777dd60f1118e2a081b380efc4358f0d9e2a910160405180910390a281546201000090046001600160801b031660008215611ed757611ed08287613ddd565b9050611f3a565b8115611f195760405162461bcd60e51b81526020600482015260116024820152704578697374696e6720776974686472617760781b604482015260640161106b565b5033600090815260cb60205260409020805461ffff191661ffff8616179055845b611f4381613de9565b33600090815260cb6020526040812080546001600160801b03808516620100000262010000600160901b03199092169190911790915560d054611f8f91600160801b9091041688613ddd565b9050611f9a81613de9565b60d080546001600160801b03808416600160801b029116179055611fbf3330896130dc565b5050600180555050505050565b6060609b80546110a6906154d4565b6000612010611fe960995490565b611ff1612363565b60d05460cc546001600160801b0390911690610100900460ff16613716565b905090565b600260015414156120385760405162461bcd60e51b815260040161106b906152cc565b6002600155806120775760405162461bcd60e51b815260206004820152600a602482015269216e756d526f756e647360b01b604482015260640161106b565b60cf5461ffff1660005b82811015612106576000612095828461534f565b600081815260ca6020526040902054909150156120e25760405162461bcd60e51b815260206004820152600b60248201526a125b9a5d1a585b1a5e995960aa1b604482015260640161106b565b600090815260ca6020526040902060019055806120fe8161550f565b915050612081565b50506001805550565b3360009081526098602090815260408083206001600160a01b0386168452909152812054828110156121915760405162461bcd60e51b815260206004820152602560248201527f45524332303a2064656372656173656420616c6c6f77616e63652062656c6f77604482015264207a65726f60d81b606482015260840161106b565b61219e3385858403612fb7565b5060019392505050565b6065546001600160a01b031633146121d25760405162461bcd60e51b815260040161106b90615276565b61012c8110156122245760405162461bcd60e51b815260206004820152601860248201527f496e76616c69642061756374696f6e206475726174696f6e0000000000000000604482015260640161106b565b60fb5460408051918252602082018390527f5acd982e2240ed224a69aa03dab039d3797c108e4b5f288cd7dd6ca181b275f3910160405180910390a160fb55565b600260015414156122885760405162461bcd60e51b815260040161106b906152cc565b6002600155610100546001600160a01b0316806122a457600080fd5b600082116122b157600080fd5b33600090815260976020526040902054828110156122dd576122dd6122d684836132ac565b6000613bdc565b6122e83330856130dc565b6122f3308385612fb7565b6040516383df674760e01b815260048101849052336024820152600060448201526001600160a01b038316906383df674790606401600060405180830381600087803b15801561234257600080fd5b505af1158015611fbf573d6000803e3d6000fd5b60006111363384846130dc565b60cc546040516370a0823160e01b815230600482015260009161201091620100009091046001600160a01b0316906370a082319060240160206040518083038186803b1580156123b257600080fd5b505afa1580156123c6573d6000803e3d6000fd5b505050506040513d601f19601f820116820180604052508101906123ea9190615009565b60cf546201000090046001600160681b031690613ddd565b600260015414156124255760405162461bcd60e51b815260040161106b906152cc565b6002600155806124475760405162461bcd60e51b815260040161106b906152ab565b6124518133613419565b60cc5461246f906201000090046001600160a01b03163330846136ab565b5060018055565b60d4546001600160a01b031633146124a05760405162461bcd60e51b815260040161106b90615207565b600260015414156124c35760405162461bcd60e51b815260040161106b906152cc565b600260018190555060008060006124db60fd54613e33565b60fd819055919450925090506124f0826137b8565b60cf805462010000600160781b031916620100006001600160681b0385160217905560405182815233906001600160a01b038516907f045c558fdce4714c5816d53820d27420f4cd860892df203fe636384d8d19aa019060200160405180910390a3604051632904c23960e01b81526001600160a01b037f0000000000000000000000000000000000000000000000000000000000000000811660048301527f0000000000000000000000000000000000000000000000000000000000000000811660248301528416604482015260648101839052735b69a34BFa22162036f10bb352c7E9377758f01D90632904c2399060840160206040518083038186803b1580156125fc57600080fd5b505af4158015612610573d6000803e3d6000fd5b505050506040513d601f19601f820116820180604052508101906126349190615009565b50612106613a41565b600080600061264b84612d9e565b90925090506115368282613ddd565b60d4546001600160a01b031633146126845760405162461bcd60e51b815260040161106b90615207565b60008111801561269f575061269b600a6064615472565b8111155b6126de5760405162461bcd60e51b815260206004820152601060248201526f125b9d985b1a5908191a5cd8dbdd5b9d60821b604482015260640161106b565b60f75460408051918252602082018390527f4cd657fde404967d63a338fb06c5c98751a9df57dfae6dc333a432faf8a5f656910160405180910390a160f755565b6065546001600160a01b031633146127495760405162461bcd60e51b815260040161106b90615276565b6001600160a01b03811661278c5760405162461bcd60e51b815260206004820152600a60248201526910b732bba5b2b2b832b960b11b604482015260640161106b565b60d480546001600160a01b0319166001600160a01b0392909216919091179055565b600260015414156127d15760405162461bcd60e51b815260040161106b906152cc565b6002600155806128105760405162461bcd60e51b815260206004820152600a602482015269216e756d53686172657360b01b604482015260640161106b565b61246f816000613bdc565b6065546001600160a01b031633146128455760405162461bcd60e51b815260040161106b90615276565b6001600160a01b03811661288e5760405162461bcd60e51b815260206004820152601060248201526f085b995dd19959549958da5c1a595b9d60821b604482015260640161106b565b60d3546001600160a01b03828116911614156128ec5760405162461bcd60e51b815260206004820152601860248201527f4d757374206265206e657720666565526563697069656e740000000000000000604482015260640161106b565b60d380546001600160a01b0319166001600160a01b0392909216919091179055565b600260015414156129315760405162461bcd60e51b815260040161106b906152cc565b600260015560d2546040805160c0810182526001600160a01b037f0000000000000000000000000000000000000000000000000000000000000000811682527f000000000000000000000000000000000000000000000000000000000000000081166020830190815293811682840181815260006060850181815260f95461ffff9081166080880190815260fa5460a0890190815260f65460f55460f7549b516334d0abdd60e21b8152918a16600483015289166024820152604481019a909a528851881660648b01529951871660848a0152935190951660a48801525160c4870152905190921660e4850152935161010484015260cc61012484015260cf6101448401529091819081908190735b69a34BFa22162036f10bb352c7E9377758f01D9063d342af74906101640160806040518083038186803b158015612a7657600080fd5b505af4158015612a8a573d6000803e3d6000fd5b505050506040513d601f19601f82011682018060405250810190612aae9190614f14565b93509350935093507fa217999b1c125c2a996f712c5f26a28addad7167bd8a67d5bd5b2a751148abb08282604051612af0929190918252602082015260400190565b60405180910390a1612b01836137b8565b6001600160681b03831660f85560d180546001600160a01b0319166001600160a01b0386161790556000612b354282613ddd565b905063ffffffff811115612b8b5760405162461bcd60e51b815260206004820152601860248201527f4f766572666c6f77206e6578744f7074696f6e52656164790000000000000000604482015260640161106b565b60d2805463ffffffff60a01b1916600160a01b63ffffffff841602179055611fbf876141b1565b6065546001600160a01b03163314612bdc5760405162461bcd60e51b815260040161106b90615276565b6001600160a01b038116612c415760405162461bcd60e51b815260206004820152602660248201527f4f776e61626c653a206e6577206f776e657220697320746865207a65726f206160448201526564647265737360d01b606482015260840161106b565b612c4a81613d8b565b50565b60026001541415612c705760405162461bcd60e51b815260040161106b906152cc565b600260015560cc547f00000000000000000000000000000000000000000000000000000000000000006001600160a01b03908116620100009092041614612ce15760405162461bcd60e51b8152602060048201526005602482015264042ae8aa8960db1b604482015260640161106b565b60003411612d1a5760405162461bcd60e51b81526020600482015260066024820152652176616c756560d01b604482015260640161106b565b612d243433613419565b7f00000000000000000000000000000000000000000000000000000000000000006001600160a01b031663d0e30db0346040518263ffffffff1660e01b81526004016000604051808303818588803b158015612d7f57600080fd5b505af1158015612d93573d6000803e3d6000fd5b505060018055505050565b6001600160a01b038116600090815260c9602090815260408083208151606081018352905461ffff81168083526201000082046001600160681b031694830194909452600160781b90046001600160801b031691810191909152829160011115612e20575050506001600160a01b031660009081526097602052604081205491565b60cf54815161ffff908116600090815260ca602052604081205460cc549193612e5693869391169190610100900460ff16614327565b9050612e77856001600160a01b031660009081526097602052604090205490565b9590945092505050565b60026001541415612ea45760405162461bcd60e51b815260040161106b906152cc565b60026001556000612eb3614398565b60fd54909150612ec390826132ac565b6001600160801b031660fd555060018055565b6065546001600160a01b03163314612f005760405162461bcd60e51b815260040161106b90615276565b612f0e620f42406064615472565b8110612f555760405162461bcd60e51b8152602060048201526016602482015275496e76616c6964206d616e6167656d656e742066656560501b604482015260640161106b565b6000612f7263031ba309612f6c84620f4240614555565b90614561565b60d65460408051918252602082018590529192507f4e874b007ab14f7e263baefd44951834c8266f4f224d1092e49e9c254354cc54910160405180910390a160d65550565b6001600160a01b0383166130195760405162461bcd60e51b8152602060048201526024808201527f45524332303a20617070726f76652066726f6d20746865207a65726f206164646044820152637265737360e01b606482015260840161106b565b6001600160a01b03821661307a5760405162461bcd60e51b815260206004820152602260248201527f45524332303a20617070726f766520746f20746865207a65726f206164647265604482015261737360f01b606482015260840161106b565b6001600160a01b0383811660008181526098602090815260408083209487168084529482529182902085905590518481527f8c5be1e5ebec7d5bd14f71427d1e84f3dd0314c0f7b2291e5b200ac8c7c3b92591015b60405180910390a3505050565b6001600160a01b0383166131405760405162461bcd60e51b815260206004820152602560248201527f45524332303a207472616e736665722066726f6d20746865207a65726f206164604482015264647265737360d81b606482015260840161106b565b6001600160a01b0382166131a25760405162461bcd60e51b815260206004820152602360248201527f45524332303a207472616e7366657220746f20746865207a65726f206164647260448201526265737360e81b606482015260840161106b565b6001600160a01b0383166000908152609760205260409020548181101561321a5760405162461bcd60e51b815260206004820152602660248201527f45524332303a207472616e7366657220616d6f756e7420657863656564732062604482015265616c616e636560d01b606482015260840161106b565b6001600160a01b0380851660009081526097602052604080822085850390559185168152908120805484929061325190849061534f565b92505081905550826001600160a01b0316846001600160a01b03167fddf252ad1be2c89b69c2b068fc378daa952ba7f163c4a11628f55a4df523b3ef8460405161329d91815260200190565b60405180910390a35b50505050565b60006111e58284615491565b60cc546001600160a01b03620100009091048116907f00000000000000000000000000000000000000000000000000000000000000001681141561340557604051632e1a7d4d60e01b8152600481018390527f00000000000000000000000000000000000000000000000000000000000000006001600160a01b031690632e1a7d4d90602401600060405180830381600087803b15801561335857600080fd5b505af115801561336c573d6000803e3d6000fd5b505050506000836001600160a01b03168360405160006040518083038185875af1925050503d80600081146133bd576040519150601f19603f3d011682016040523d82523d6000602084013e6133c2565b606091505b50509050806132a65760405162461bcd60e51b815260206004820152600f60248201526e151c985b9cd9995c8819985a5b1959608a1b604482015260640161106b565b611a9d6001600160a01b038216848461456d565b60cf5461ffff1660006134348461342e612363565b90613ddd565b60ce549091506001600160681b031681111561347f5760405162461bcd60e51b815260206004820152600a6024820152690457863656564206361760b41b604482015260640161106b565b60cd54600160a01b900466ffffffffffffff168110156134d85760405162461bcd60e51b8152602060048201526014602482015273496e73756666696369656e742062616c616e636560601b604482015260640161106b565b60408051858152602081018490526001600160a01b038516917f90890809c654f11d6e72a28fa60149770a0d11ec6c92319d6ceb2bb0a4ea1a15910160405180910390a26001600160a01b038316600090815260c9602090815260408083208151606081018352905461ffff81168083526201000082046001600160681b031683860152600160781b9091046001600160801b031682840152845260ca90925282205460cc54919291613597918491879190610100900460ff16614327565b8251909150869061ffff168514156135c85760208301516000906135c4906001600160681b031689613ddd565b9150505b6135d1816137b8565b6040805160608101825261ffff80881682526001600160681b0380851660208085019182526001600160801b038089168688019081526001600160a01b038e16600090815260c990935296822095518654935197518216600160781b02600160781b600160f81b03199890951662010000026effffffffffffffffffffffffffffff1990941695169490941791909117949094161790915560d054613677911689613ddd565b905061368281613de9565b60d080546001600160801b0319166001600160801b039290921691909117905550505050505050565b6040516001600160a01b03808516602483015283166044820152606481018290526132a69085906323b872dd60e01b906084015b60408051601f198184030181529190526020810180516001600160e01b03166001600160e01b03199093169290921790915261459d565b60008061372483600a6153ca565b905060008611613734578061374c565b61374c86612f6c61374588886132ac565b8490614555565b9695505050505050565b6000600183116137a05760405162461bcd60e51b8152602060048201526015602482015274496e76616c6964206173736574506572536861726560581b604482015260640161106b565b6115366137ae83600a6153ca565b612f6c8686614555565b6001600160681b03811115612c4a5760405162461bcd60e51b815260206004820152601060248201526f13dd995c999b1bddc81d5a5b9d0c4c0d60821b604482015260640161106b565b600054610100900460ff168061381b575060005460ff16155b6138375760405162461bcd60e51b815260040161106b90615228565b600054610100900460ff16158015613859576000805461ffff19166101011790555b60405163c72733f760e01b8152735b69a34BFa22162036f10bb352c7E9377758f01D9063c72733f79061389e908c908c908c908b908d908c908c908c906004016150fa565b60006040518083038186803b1580156138b657600080fd5b505af41580156138ca573d6000803e3d6000fd5b505050506138d661466f565b6138e084846146e2565b6138e8614761565b6138f189612bb2565b60d480546001600160a01b03808b166001600160a01b03199283161790925560d38054928a169290911691909117905560d585905561393b63031ba309612f6c88620f4240614555565b60d6558160cc61394b8282615567565b505060cc546040516370a0823160e01b81523060048201526000916201000090046001600160a01b0316906370a082319060240160206040518083038186803b15801561399757600080fd5b505afa1580156139ab573d6000803e3d6000fd5b505050506040513d601f19601f820116820180604052508101906139cf9190615009565b90506139da816137b8565b60cf805461ffff196001600160681b03909316600160781b02929092167fffffffff00000000000000000000000000ffffffffffffffffffffffffff00009092169190911760011790558015613a36576000805461ff00191690555b505050505050505050565b6040805160c081018252600080825260208201819052918101829052606081018290526080810182905260a081019190915260f85480613abb5760405162461bcd60e51b81526020600482015260156024820152742163757272656e744f746f6b656e5072656d69756d60581b604482015260640161106b565b60d2546001600160a01b0390811683527f000000000000000000000000000000000000000000000000000000000000000081166020840190815260cc546201000081048316604080870191825261010090920460ff16606087019081526080870186815260fb5460a089019081529351633baf17fd60e21b8152885187166004820152945186166024860152915190941660448401529251606483015291516084820152905160a4820152735b69a34BFa22162036f10bb352c7E9377758f01D9063eebc5ff49060c40160206040518083038186803b158015613b9d57600080fd5b505af4158015613bb1573d6000803e3d6000fd5b505050506040513d601f19601f82011682018060405250810190613bd59190615009565b60fc555050565b33600090815260c9602090815260408083208151606081018352905461ffff8082168084526201000083046001600160681b031684870152600160781b9092046001600160801b03168385015260cf5491865260ca9094529184205460cc5491949290931692613c579185918591610100900460ff16614327565b905083613c645784613c66565b805b945084613c74575050505050565b80851115613cb85760405162461bcd60e51b81526020600482015260116024820152704578636565647320617661696c61626c6560781b604482015260640161106b565b825161ffff16821115613ce55733600090815260c960205260409020805462010000600160781b03191690555b613cee85613de9565b613cf881866132ac565b33600081815260c960205260409081902080546001600160801b0394909416600160781b02600160781b600160f81b0319909416939093179092558451915190917fe5b754fb1abb7f01b499791d0b820ae3b6af3424ac1c59768edb53f4ec31a92991613d719189825261ffff16602082015260400190565b60405180910390a2613d843033876130dc565b5050505050565b606580546001600160a01b038381166001600160a01b0319831681179093556040519116919082907f8be0079c531659141344cd1fd0a4f28419497f9722a3daafe3b4186f6b6457e090600090a35050565b60006111e5828461534f565b6001600160801b03811115612c4a5760405162461bcd60e51b815260206004820152601060248201526f09eeccae4ccd8deee40ead2dce86264760831b604482015260640161106b565b60d25460009081908190600160a01b900463ffffffff16421015613e825760405162461bcd60e51b815260206004820152600660248201526521726561647960d01b604482015260640161106b565b60d1546001600160a01b0316925082613ecb5760405162461bcd60e51b815260206004820152600b60248201526a10b732bc3a27b83a34b7b760a91b604482015260640161106b565b60d3546040805160c08101825260cc54610100810460ff16825291516370a0823160e01b81523060048201526001600160a01b0393841693600093849384938493735b69a34BFa22162036f10bb352c7E9377758f01D9363633c14269360cf939092602084019262010000900416906370a082319060240160206040518083038186803b158015613f5b57600080fd5b505afa158015613f6f573d6000803e3d6000fd5b505050506040513d601f19601f82011682018060405250810190613f939190615009565b8152602001613fa160995490565b815260208082018f905260d55460408084019190915260d65460609384015280516001600160e01b031960e088901b16815260048101959095528351602486015290830151604485015282015160648401528101516084830152608081015160a483015260a0015160c482015260e40160c06040518083038186803b15801561402957600080fd5b505af415801561403d573d6000803e3d6000fd5b505050506040513d601f19601f820116820180604052508101906140619190615045565b809750819850829950839650849b50859c505050505050508760d160010160006101000a8154816001600160a01b0302191690836001600160a01b03160217905550600060d160000160006101000a8154816001600160a01b0302191690836001600160a01b03160217905550600060cf60000160009054906101000a900461ffff1661ffff1690508160ca600083815260200190815260200160002081905550856001600160a01b03167f0a242f7ecaf711036ca770774ceffae28e60ef042ac113ddd187f2631db0c006858584604051614150939291909283526020830191909152604082015260600190565b60405180910390a260d080546001600160801b031916905561417381600161534f565b60cf805461ffff191661ffff9290921691909117905550614196905030846147c8565b80156141a6576141a684826132b8565b505050509193909250565b60cf546201000090046001600160681b03166001600160a01b038216156141fd5760cf80546cffffffffffffffffffffffffff60781b1916600160781b6001600160681b038416021790555b60cf805462010000600160781b031916905560d280546001600160a01b03191690556001600160a01b0382161561432357604051636c6fe87f60e11b81526001600160a01b037f0000000000000000000000000000000000000000000000000000000000000000166004820152600090735b69a34BFa22162036f10bb352c7E9377758f01D9063d8dfd0fe9060240160206040518083038186803b1580156142a457600080fd5b505af41580156142b8573d6000803e3d6000fd5b505050506040513d601f19601f820116820180604052508101906142dc9190615009565b9050336001600160a01b0316836001600160a01b03167f7e830f7c1771deb1bdb35c4a7e6051bbac32b376f7f4e4976b8618b0b11997f7836040516130cf91815260200190565b5050565b835160009061ffff16158015906143425750845161ffff1684115b1561438457600061436186602001516001600160681b031685856148a7565b604087015190915061437c906001600160801b031682613ddd565b915050611536565b50505050604001516001600160801b031690565b33600090815260cb6020526040812080546001600160801b03620100008204169061ffff16816143fa5760405162461bcd60e51b815260206004820152600d60248201526c139bdd081a5b9a5d1a585d1959609a1b604482015260640161106b565b60cf5461ffff1681106144425760405162461bcd60e51b815260206004820152601060248201526f149bdd5b99081b9bdd0818db1bdcd95960821b604482015260640161106b565b33600090815260cb60205260409020805462010000600160901b031916905560d05461447e90600160801b90046001600160801b0316836132ac565b60d080546001600160801b03928316600160801b029216919091179055600081815260ca602052604081205460cc546144c191859160ff61010090910416613756565b604080518281526020810186905291925033917ff279e6a1f5e320cca91135676d9cb6e44ca8a08c0b88342bcdb1144f6511b568910160405180910390a2614509308461490a565b6000811161454b5760405162461bcd60e51b815260206004820152600f60248201526e085dda5d1a191c985dd05b5bdd5b9d608a1b604482015260640161106b565b61153633826132b8565b60006111e58284615472565b60006111e58284615367565b6040516001600160a01b038316602482015260448101829052611a9d90849063a9059cbb60e01b906064016136df565b60006145f2826040518060400160405280602081526020017f5361666545524332303a206c6f772d6c6576656c2063616c6c206661696c6564815250856001600160a01b0316614a589092919063ffffffff16565b805190915015611a9d57808060200190518101906146109190614f52565b611a9d5760405162461bcd60e51b815260206004820152602a60248201527f5361666545524332303a204552433230206f7065726174696f6e20646964206e6044820152691bdd081cdd58d8d9595960b21b606482015260840161106b565b600054610100900460ff1680614688575060005460ff16155b6146a45760405162461bcd60e51b815260040161106b90615228565b600054610100900460ff161580156146c6576000805461ffff19166101011790555b6146ce614a67565b8015612c4a576000805461ff001916905550565b600054610100900460ff16806146fb575060005460ff16155b6147175760405162461bcd60e51b815260040161106b90615228565b600054610100900460ff16158015614739576000805461ffff19166101011790555b614741614ad6565b61474b8383614b40565b8015611a9d576000805461ff0019169055505050565b600054610100900460ff168061477a575060005460ff16155b6147965760405162461bcd60e51b815260040161106b90615228565b600054610100900460ff161580156147b8576000805461ffff19166101011790555b6147c0614ad6565b6146ce614bd5565b6001600160a01b03821661481e5760405162461bcd60e51b815260206004820152601f60248201527f45524332303a206d696e7420746f20746865207a65726f206164647265737300604482015260640161106b565b8060996000828254614830919061534f565b90915550506001600160a01b0382166000908152609760205260408120805483929061485d90849061534f565b90915550506040518181526001600160a01b038316906000907fddf252ad1be2c89b69c2b068fc378daa952ba7f163c4a11628f55a4df523b3ef9060200160405180910390a35050565b6000600183116148f15760405162461bcd60e51b8152602060048201526015602482015274496e76616c6964206173736574506572536861726560581b604482015260640161106b565b61153683612f6c61490385600a6153ca565b8790614555565b6001600160a01b03821661496a5760405162461bcd60e51b815260206004820152602160248201527f45524332303a206275726e2066726f6d20746865207a65726f206164647265736044820152607360f81b606482015260840161106b565b6001600160a01b038216600090815260976020526040902054818110156149de5760405162461bcd60e51b815260206004820152602260248201527f45524332303a206275726e20616d6f756e7420657863656564732062616c616e604482015261636560f01b606482015260840161106b565b6001600160a01b0383166000908152609760205260408120838303905560998054849290614a0d908490615491565b90915550506040518281526000906001600160a01b038516907fddf252ad1be2c89b69c2b068fc378daa952ba7f163c4a11628f55a4df523b3ef9060200160405180910390a3505050565b60606115368484600085614c35565b600054610100900460ff1680614a80575060005460ff16155b614a9c5760405162461bcd60e51b815260040161106b90615228565b600054610100900460ff16158015614abe576000805461ffff19166101011790555b600180558015612c4a576000805461ff001916905550565b600054610100900460ff1680614aef575060005460ff16155b614b0b5760405162461bcd60e51b815260040161106b90615228565b600054610100900460ff161580156146ce576000805461ffff19166101011790558015612c4a576000805461ff001916905550565b600054610100900460ff1680614b59575060005460ff16155b614b755760405162461bcd60e51b815260040161106b90615228565b600054610100900460ff16158015614b97576000805461ffff19166101011790555b8251614baa90609a906020860190614d96565b508151614bbe90609b906020850190614d96565b508015611a9d576000805461ff0019169055505050565b600054610100900460ff1680614bee575060005460ff16155b614c0a5760405162461bcd60e51b815260040161106b90615228565b600054610100900460ff16158015614c2c576000805461ffff19166101011790555b6146ce33613d8b565b606082471015614c965760405162461bcd60e51b815260206004820152602660248201527f416464726573733a20696e73756666696369656e742062616c616e636520666f6044820152651c8818d85b1b60d21b606482015260840161106b565b843b614ce45760405162461bcd60e51b815260206004820152601d60248201527f416464726573733a2063616c6c20746f206e6f6e2d636f6e7472616374000000604482015260640161106b565b600080866001600160a01b03168587604051614d0091906150de565b60006040518083038185875af1925050503d8060008114614d3d576040519150601f19603f3d011682016040523d82523d6000602084013e614d42565b606091505b5091509150614d52828286614d5d565b979650505050505050565b60608315614d6c5750816111e5565b825115614d7c5782518084602001fd5b8160405162461bcd60e51b815260040161106b91906151f4565b828054614da2906154d4565b90600052602060002090601f016020900481019282614dc45760008555614e0a565b82601f10614ddd57805160ff1916838001178555614e0a565b82800160010185558215614e0a579182015b82811115614e0a578251825591602001919060010190614def565b50614e16929150614e1a565b5090565b5b80821115614e165760008155600101614e1b565b8035614e3a81615678565b919050565b8035614e3a8161569b565b8035614e3a816156b0565b600060208284031215614e66578081fd5b81356111e581615678565b60008060408385031215614e83578081fd5b8235614e8e81615678565b91506020830135614e9e81615678565b809150509250929050565b600080600060608486031215614ebd578081fd5b8335614ec881615678565b92506020840135614ed881615678565b929592945050506040919091013590565b60008060408385031215614efb578182fd5b8235614f0681615678565b946020939093013593505050565b60008060008060808587031215614f29578081fd5b8451614f3481615678565b60208601516040870151606090970151919890975090945092505050565b600060208284031215614f63578081fd5b81516111e58161568d565b60008082840360e0811215614f81578283fd5b833567ffffffffffffffff811115614f97578384fd5b84016101608187031215614fa9578384fd5b925060c0601f1982011215614fbc578182fd5b506020830190509250929050565b600060208284031215614fdb578081fd5b81356001600160801b03811681146111e5578182fd5b600060208284031215615002578081fd5b5035919050565b60006020828403121561501a578081fd5b5051919050565b60008060408385031215615033578182fd5b823591506020830135614e9e81615678565b60008060008060008060c0878903121561505d578182fd5b865195506020870151945060408701519350606087015192506080870151915060a087015190509295509295509295565b60006020828403121561509f578081fd5b813563ffffffff811681146111e5578182fd5b600081518084526150ca8160208601602086016154a8565b601f01601f19169290920160200192915050565b600082516150f08184602087016154a8565b9190910192915050565b60006101a060018060a01b03808c168452808b166020850152808a1660408501528860608501528760808501528160a0850152615139828501886150b2565b915083820360c085015261514d82876150b2565b92508435915061515c8261568d565b90151560e0840152602084013590615173826156c5565b60ff82166101008501526040850135915061518d82615678565b166101208301526151a060608401614e2f565b6001600160a01b03166101408301526151bb60808401614e4a565b66ffffffffffffff166101608301526151d660a08401614e3f565b6001600160681b038116610180840152509998505050505050505050565b6020815260006111e560208301846150b2565b60208082526007908201526610b5b2b2b832b960c91b604082015260600190565b6020808252602e908201527f496e697469616c697a61626c653a20636f6e747261637420697320616c72656160408201526d191e481a5b9a5d1a585b1a5e995960921b606082015260800190565b6020808252818101527f4f776e61626c653a2063616c6c6572206973206e6f7420746865206f776e6572604082015260600190565b60208082526007908201526608585b5bdd5b9d60ca1b604082015260600190565b6020808252601f908201527f5265656e7472616e637947756172643a207265656e7472616e742063616c6c00604082015260600190565b6000808335601e19843603018112615319578283fd5b83018035915067ffffffffffffffff821115615333578283fd5b60200191503681900382131561534857600080fd5b9250929050565b600082198211156153625761536261552a565b500190565b60008261538257634e487b7160e01b81526012600452602481fd5b500490565b600181815b808511156153c25781600019048211156153a8576153a861552a565b808516156153b557918102915b93841c939080029061538c565b509250929050565b60006111e583836000826153e05750600161113a565b816153ed5750600061113a565b8160018114615403576002811461540d57615429565b600191505061113a565b60ff84111561541e5761541e61552a565b50506001821b61113a565b5060208310610133831016604e8410600b841016171561544c575081810a61113a565b6154568383615387565b806000190482111561546a5761546a61552a565b029392505050565b600081600019048311821515161561548c5761548c61552a565b500290565b6000828210156154a3576154a361552a565b500390565b60005b838110156154c35781810151838201526020016154ab565b838111156132a65750506000910152565b600181811c908216806154e857607f821691505b6020821081141561550957634e487b7160e01b600052602260045260246000fd5b50919050565b60006000198214156155235761552361552a565b5060010190565b634e487b7160e01b600052601160045260246000fd5b6000813561113a81615678565b6000813561113a8161569b565b6000813561113a816156b0565b81356155728161568d565b815460ff19811691151560ff1691821783556020840135615592816156c5565b61ff008160081b169050808361ffff1984161717845560408501356155b681615678565b6001600160b01b0319929092169092179190911760109190911b62010000600160b01b03161781556001810161560e6155f160608501615540565b82546001600160a01b0319166001600160a01b0391909116178255565b61564761561d6080850161555a565b82805466ffffffffffffff60a01b191660a09290921b66ffffffffffffff60a01b16919091179055565b5061432361565760a0840161554d565b600283016001600160681b0382166001600160681b03198254161781555050565b6001600160a01b0381168114612c4a57600080fd5b8015158114612c4a57600080fd5b6001600160681b0381168114612c4a57600080fd5b66ffffffffffffff81168114612c4a57600080fd5b60ff81168114612c4a57600080fdfea26469706673582212203525616ae007d7ec6c068e49c709a9a7f2aaaca525614b8ba52f2b81a26737ab64736f6c63430008040033",
  "deployedBytecode": "0x60806040526004361061045d5760003560e01c806389a302711161023f578063b4d1d79511610139578063e73c63d5116100b6578063f656ba511161007a578063f656ba5114610f96578063f756fa2114610fcb578063f957a06714610fe0578063f9a0be6814611000578063fe56e2321461102157600080fd5b8063e73c63d514610f23578063e74b981b14610f39578063ea00b1ca14610f59578063f2fde38b14610f6e578063f6326fb314610f8e57600080fd5b8063d164cc15116100fd578063d164cc1514610e53578063d5f2638214610e73578063db006a7514610e89578063db43e86214610ea9578063dd62ed3e14610edd57600080fd5b8063b4d1d79514610dc7578063b6b55f2514610dde578063b9f8092b14610dfe578063ce7c2ac214610e13578063d13f1b3e14610e3357600080fd5b8063a2db9d83116101c7578063a9059cbb1161018b578063a9059cbb14610d1e578063aced166114610d3e578063ad5c464814610d5e578063ad7a672f14610d92578063afa6626414610da757600080fd5b8063a2db9d8314610c8a578063a457c2d714610ca8578063a497e67414610cc8578063a694fc3a14610ce8578063a6f7f5d614610d0857600080fd5b806399530b061161020e57806399530b0614610b245780639be43daa14610b395780639fcc2d7514610b59578063a083ff1714610c05578063a285c9e814610c6857600080fd5b806389a3027114610a9f5780638b10cc7c14610ad35780638da5cb5b14610af157806395d89b4114610b0f57600080fd5b8063469048401161035b5780636c10f66c116102d85780637a9262a21161029c5780637a9262a2146109c25780637e108d5214610a2657806383536ff314610a4657806387153eb114610a5c5780638778878214610a8957600080fd5b80636c10f66c1461090e5780636f31ab341461094257806370897b231461095757806370a0823114610977578063715018a6146109ad57600080fd5b8063600a2cfb1161031f578063600a2cfb14610817578063650cce8a1461082c5780636719b2ee1461086057806369b41170146108e45780636b64c769146108f957600080fd5b8063469048401461078157806347786d37146107a1578063503c70aa146107c157806355489bb2146107d757806358358207146107f757600080fd5b806330630da4116103e95780633ec143d3116103ad5780633ec143d3146106df5780633f23bb731461070d5780633f90916a1461072d578063432833a61461074b5780634603c0aa1461076157600080fd5b806330630da414610637578063313ce56714610657578063355274ea1461068157806336efd16f1461069f57806339509351146106bf57600080fd5b806318160ddd1161043057806318160ddd146105035780631a92f6c21461051857806323b872dd146105645780632728f333146105845780632775d01c1461061757600080fd5b8063048bf0851461046257806306fdde0314610484578063095ea7b3146104af5780630cbf54c8146104df575b600080fd5b34801561046e57600080fd5b5061048261047d366004614e55565b611041565b005b34801561049057600080fd5b50610499611097565b6040516104a691906151f4565b60405180910390f35b3480156104bb57600080fd5b506104cf6104ca366004614ee9565b611129565b60405190151581526020016104a6565b3480156104eb57600080fd5b506104f560fb5481565b6040519081526020016104a6565b34801561050f57600080fd5b506099546104f5565b34801561052457600080fd5b5061054c7f000000000000000000000000000000000000000000000000000000000000000081565b6040516001600160a01b0390911681526020016104a6565b34801561057057600080fd5b506104cf61057f366004614ea9565b611140565b34801561059057600080fd5b5060cf5460d0546105d29161ffff8116916001600160681b03620100008304811692600160781b900416906001600160801b0380821691600160801b90041685565b6040805161ffff90961686526001600160681b03948516602087015293909216928401929092526001600160801b03918216606084015216608082015260a0016104a6565b34801561062357600080fd5b50610482610632366004614ff1565b6111ec565b34801561064357600080fd5b50610482610652366004614e55565b61138f565b34801561066357600080fd5b5060cc54610100900460ff1660405160ff90911681526020016104a6565b34801561068d57600080fd5b5060ce546001600160681b03166104f5565b3480156106ab57600080fd5b506104826106ba366004615021565b611427565b3480156106cb57600080fd5b506104cf6106da366004614ee9565b6114af565b3480156106eb57600080fd5b5060f9546106fa9061ffff1681565b60405161ffff90911681526020016104a6565b34801561071957600080fd5b506104f5610728366004614e55565b6114eb565b34801561073957600080fd5b5060d0546001600160801b03166104f5565b34801561075757600080fd5b506104f560fc5481565b34801561076d57600080fd5b5061048261077c366004614e55565b61153e565b34801561078d57600080fd5b5060d35461054c906001600160a01b031681565b3480156107ad57600080fd5b506104826107bc366004614ff1565b6115e0565b3480156107cd57600080fd5b506104f560fd5481565b3480156107e357600080fd5b506104826107f2366004614fca565b6116bb565b34801561080357600080fd5b50610482610812366004614f6e565b611753565b34801561082357600080fd5b50610482611aa2565b34801561083857600080fd5b5061054c7f000000000000000000000000000000000000000000000000000000000000000081565b34801561086c57600080fd5b506108b361087b366004614e55565b60c96020526000908152604090205461ffff8116906201000081046001600160681b031690600160781b90046001600160801b031683565b6040805161ffff90941684526001600160681b0390921660208401526001600160801b0316908201526060016104a6565b3480156108f057600080fd5b506104f5600081565b34801561090557600080fd5b50610482611bfd565b34801561091a57600080fd5b5061054c7f000000000000000000000000000000000000000000000000000000000000000081565b34801561094e57600080fd5b50610482611c5d565b34801561096357600080fd5b50610482610972366004614ff1565b611c94565b34801561098357600080fd5b506104f5610992366004614e55565b6001600160a01b031660009081526097602052604090205490565b3480156109b957600080fd5b50610482611d5b565b3480156109ce57600080fd5b50610a046109dd366004614e55565b60cb6020526000908152604090205461ffff8116906201000090046001600160801b031682565b6040805161ffff90931683526001600160801b039091166020830152016104a6565b348015610a3257600080fd5b50610482610a41366004614ff1565b611d91565b348015610a5257600080fd5b506104f560f75481565b348015610a6857600080fd5b506104f5610a77366004614ff1565b60ca6020526000908152604090205481565b348015610a9557600080fd5b506104f560d55481565b348015610aab57600080fd5b5061054c7f000000000000000000000000000000000000000000000000000000000000000081565b348015610adf57600080fd5b5060d2546001600160a01b031661054c565b348015610afd57600080fd5b506065546001600160a01b031661054c565b348015610b1b57600080fd5b50610499611fcc565b348015610b3057600080fd5b506104f5611fdb565b348015610b4557600080fd5b50610482610b54366004614ff1565b612015565b348015610b6557600080fd5b5060cc5460cd5460ce54610bb59260ff808216936101008304909116926001600160a01b036201000090930483169282169166ffffffffffffff600160a01b90910416906001600160681b031686565b60408051961515875260ff90951660208701526001600160a01b03938416948601949094529116606084015266ffffffffffffff1660808301526001600160681b031660a082015260c0016104a6565b348015610c1157600080fd5b5060d15460d254610c3c916001600160a01b039081169190811690600160a01b900463ffffffff1683565b604080516001600160a01b03948516815293909216602084015263ffffffff16908201526060016104a6565b348015610c7457600080fd5b5060d254600160a01b900463ffffffff166104f5565b348015610c9657600080fd5b5060d1546001600160a01b031661054c565b348015610cb457600080fd5b506104cf610cc3366004614ee9565b61210f565b348015610cd457600080fd5b50610482610ce3366004614ff1565b6121a8565b348015610cf457600080fd5b50610482610d03366004614ff1565b612265565b348015610d1457600080fd5b506104f560d65481565b348015610d2a57600080fd5b506104cf610d39366004614ee9565b612356565b348015610d4a57600080fd5b5060d45461054c906001600160a01b031681565b348015610d6a57600080fd5b5061054c7f000000000000000000000000000000000000000000000000000000000000000081565b348015610d9e57600080fd5b506104f5612363565b348015610db357600080fd5b5060f55461054c906001600160a01b031681565b348015610dd357600080fd5b506104f562093a8081565b348015610dea57600080fd5b50610482610df9366004614ff1565b612402565b348015610e0a57600080fd5b50610482612476565b348015610e1f57600080fd5b506104f5610e2e366004614e55565b61263d565b348015610e3f57600080fd5b50610482610e4e366004614ff1565b61265a565b348015610e5f57600080fd5b50610482610e6e366004614e55565b61271f565b348015610e7f57600080fd5b506104f560f85481565b348015610e9557600080fd5b50610482610ea4366004614ff1565b6127ae565b348015610eb557600080fd5b5061054c7f000000000000000000000000000000000000000000000000000000000000000081565b348015610ee957600080fd5b506104f5610ef8366004614e71565b6001600160a01b03918216600090815260986020908152604080832093909416825291909152205490565b348015610f2f57600080fd5b506104f560fa5481565b348015610f4557600080fd5b50610482610f54366004614e55565b61281b565b348015610f6557600080fd5b5061048261290e565b348015610f7a57600080fd5b50610482610f89366004614e55565b612bb2565b610482612c4d565b348015610fa257600080fd5b50610fb6610fb1366004614e55565b612d9e565b604080519283526020830191909152016104a6565b348015610fd757600080fd5b50610482612e81565b348015610fec57600080fd5b5060f65461054c906001600160a01b031681565b34801561100c57600080fd5b506101005461054c906001600160a01b031681565b34801561102d57600080fd5b5061048261103c366004614ff1565b612ed6565b6065546001600160a01b031633146110745760405162461bcd60e51b815260040161106b90615276565b60405180910390fd5b61010080546001600160a01b0319166001600160a01b0392909216919091179055565b6060609a80546110a6906154d4565b80601f01602080910402602001604051908101604052809291908181526020018280546110d2906154d4565b801561111f5780601f106110f45761010080835404028352916020019161111f565b820191906000526020600020905b81548152906001019060200180831161110257829003601f168201915b5050505050905090565b6000611136338484612fb7565b5060015b92915050565b600061114d8484846130dc565b6001600160a01b0384166000908152609860209081526040808320338452909152902054828110156111d25760405162461bcd60e51b815260206004820152602860248201527f45524332303a207472616e7366657220616d6f756e74206578636565647320616044820152676c6c6f77616e636560c01b606482015260840161106b565b6111df8533858403612fb7565b60019150505b9392505050565b6002600154141561120f5760405162461bcd60e51b815260040161106b906152cc565b600260015533600090815260c96020526040902060cf5461ffff16826112475760405162461bcd60e51b815260040161106b906152ab565b815461ffff16811461128b5760405162461bcd60e51b815260206004820152600d60248201526c125b9d985b1a59081c9bdd5b99609a1b604482015260640161106b565b81546201000090046001600160681b0316838110156112dc5760405162461bcd60e51b815260206004820152600d60248201526c115e18d9595908185b5bdd5b9d609a1b604482015260640161106b565b6112e681856132ac565b83546001600160681b0391909116620100000262010000600160781b031990911617835560d054611320906001600160801b0316856132ac565b60d080546001600160801b0319166001600160801b0392909216919091179055604080518581526020810184905233917fab2daf3c146ca6416cbccd2a86ed2ba995e171ef6319df14a38aef01403a9c96910160405180910390a261138533856132b8565b5050600180555050565b6065546001600160a01b031633146113b95760405162461bcd60e51b815260040161106b90615276565b6001600160a01b0381166114055760405162461bcd60e51b815260206004820152601360248201527210b732bba9ba3934b5b2a9b2b632b1ba34b7b760691b604482015260640161106b565b60f680546001600160a01b0319166001600160a01b0392909216919091179055565b6002600154141561144a5760405162461bcd60e51b815260040161106b906152cc565b60026001558161146c5760405162461bcd60e51b815260040161106b906152ab565b6001600160a01b03811661147f57600080fd5b6114898282613419565b60cc546114a7906201000090046001600160a01b03163330856136ab565b505060018055565b3360008181526098602090815260408083206001600160a01b038716845290915281205490916111369185906114e690869061534f565b612fb7565b60cc5460009060ff610100909104168161152161150760995490565b61150f612363565b60d0546001600160801b031685613716565b905061153661152f8561263d565b8284613756565b949350505050565b6065546001600160a01b031633146115685760405162461bcd60e51b815260040161106b90615276565b6001600160a01b0381166115be5760405162461bcd60e51b815260206004820152601860248201527f216e65774f7074696f6e735072656d69756d5072696365720000000000000000604482015260640161106b565b60f580546001600160a01b0319166001600160a01b0392909216919091179055565b6065546001600160a01b0316331461160a5760405162461bcd60e51b815260040161106b90615276565b600081116116445760405162461bcd60e51b81526020600482015260076024820152660216e65774361760cc1b604482015260640161106b565b61164d816137b8565b60ce54604080516001600160681b039092168252602082018390527f5f86edbb9d92228a9edc3f0ebc0f001bda1ea345ac7335e0eeef3504b31d1a1c910160405180910390a160ce80546cffffffffffffffffffffffffff19166001600160681b0392909216919091179055565b6065546001600160a01b031633146116e55760405162461bcd60e51b815260040161106b90615276565b6000816001600160801b03161161172d5760405162461bcd60e51b815260206004820152600c60248201526b21737472696b65507269636560a01b604482015260640161106b565b6001600160801b031660fa5560cf5460f9805461ffff191661ffff909216919091179055565b600054610100900460ff168061176c575060005460ff16155b6117885760405162461bcd60e51b815260040161106b90615228565b600054610100900460ff161580156117aa576000805461ffff19166101011790555b61186f6117ba6020850185614e55565b6117ca6040860160208701614e55565b6117da6060870160408801614e55565b606087013560808801356117f160a08a018a615303565b8080601f0160208091040260200160405190810160405280939291908181526020018383808284376000920191909152506118339250505060c08b018b615303565b8080601f0160208091040260200160405190810160405280939291908181526020018383808284376000920191909152508c9250613802915050565b6000611882610100850160e08601614e55565b6001600160a01b031614156118d25760405162461bcd60e51b815260206004820152601660248201527510afb7b83a34b7b739a83932b6b4bab6a83934b1b2b960511b604482015260640161106b565b60006118e661012085016101008601614e55565b6001600160a01b031614156119315760405162461bcd60e51b815260206004820152601160248201527010afb9ba3934b5b2a9b2b632b1ba34b7b760791b604482015260640161106b565b60006119456101408501610120860161508e565b63ffffffff16118015611979575061195f600a6064615472565b6119716101408501610120860161508e565b63ffffffff16105b6119b95760405162461bcd60e51b81526020600482015260116024820152700857dc1c995b5a5d5b511a5cd8dbdd5b9d607a1b604482015260640161106b565b61012c8361014001351015611a045760405162461bcd60e51b815260206004820152601160248201527010afb0bab1ba34b7b7223ab930ba34b7b760791b604482015260640161106b565b611a15610100840160e08501614e55565b60f580546001600160a01b0319166001600160a01b0392909216919091179055611a4761012084016101008501614e55565b60f680546001600160a01b0319166001600160a01b0392909216919091179055611a796101408401610120850161508e565b63ffffffff1660f75561014083013560fb558015611a9d576000805461ff00191690555b505050565b60d4546001600160a01b03163314611acc5760405162461bcd60e51b815260040161106b90615207565b60026001541415611aef5760405162461bcd60e51b815260040161106b906152cc565b600260015560d2546040516358ffbb3d60e01b81526001600160a01b037f000000000000000000000000000000000000000000000000000000000000000081166004830152909116602482015260009073__$c4f279750f4bbb575ac7775e752dc00849$__906358ffbb3d9060440160206040518083038186803b158015611b7657600080fd5b505af4158015611b8a573d6000803e3d6000fd5b505050506040513d601f19601f82011682018060405250810190611bae9190615009565b60cf54909150611bcd906201000090046001600160681b0316826132ac565b60cf80546001600160681b0392909216620100000262010000600160781b03199092169190911790555060018055565b60d4546001600160a01b03163314611c275760405162461bcd60e51b815260040161106b90615207565b60026001541415611c4a5760405162461bcd60e51b815260040161106b906152cc565b6002600155611c57613a41565b60018055565b60026001541415611c805760405162461bcd60e51b815260040161106b906152cc565b6002600181905550611c5760006001613bdc565b6065546001600160a01b03163314611cbe5760405162461bcd60e51b815260040161106b90615276565b611ccc620f42406064615472565b8110611d1a5760405162461bcd60e51b815260206004820152601760248201527f496e76616c696420706572666f726d616e636520666565000000000000000000604482015260640161106b565b60d55460408051918252602082018390527f24867dfb6fcb9970a07be21024956524abe7a1837faa903ff0e99aaa40cf893e910160405180910390a160d555565b6065546001600160a01b03163314611d855760405162461bcd60e51b815260040161106b90615276565b611d8f6000613d8b565b565b60026001541415611db45760405162461bcd60e51b815260040161106b906152cc565b600260015580611df35760405162461bcd60e51b815260206004820152600a602482015269216e756d53686172657360b01b604482015260640161106b565b33600090815260c960205260409020546201000090046001600160681b0316151580611e3d575033600090815260c96020526040902054600160781b90046001600160801b031615155b15611e4e57611e4e60006001613bdc565b60cf5433600081815260cb60209081526040918290208054835187815261ffff96871693810184905292959194911685149290917f0c53c82ad07e2d592d88ece3b066777dd60f1118e2a081b380efc4358f0d9e2a910160405180910390a281546201000090046001600160801b031660008215611ed757611ed08287613ddd565b9050611f3a565b8115611f195760405162461bcd60e51b81526020600482015260116024820152704578697374696e6720776974686472617760781b604482015260640161106b565b5033600090815260cb60205260409020805461ffff191661ffff8616179055845b611f4381613de9565b33600090815260cb6020526040812080546001600160801b03808516620100000262010000600160901b03199092169190911790915560d054611f8f91600160801b9091041688613ddd565b9050611f9a81613de9565b60d080546001600160801b03808416600160801b029116179055611fbf3330896130dc565b5050600180555050505050565b6060609b80546110a6906154d4565b6000612010611fe960995490565b611ff1612363565b60d05460cc546001600160801b0390911690610100900460ff16613716565b905090565b600260015414156120385760405162461bcd60e51b815260040161106b906152cc565b6002600155806120775760405162461bcd60e51b815260206004820152600a602482015269216e756d526f756e647360b01b604482015260640161106b565b60cf5461ffff1660005b82811015612106576000612095828461534f565b600081815260ca6020526040902054909150156120e25760405162461bcd60e51b815260206004820152600b60248201526a125b9a5d1a585b1a5e995960aa1b604482015260640161106b565b600090815260ca6020526040902060019055806120fe8161550f565b915050612081565b50506001805550565b3360009081526098602090815260408083206001600160a01b0386168452909152812054828110156121915760405162461bcd60e51b815260206004820152602560248201527f45524332303a2064656372656173656420616c6c6f77616e63652062656c6f77604482015264207a65726f60d81b606482015260840161106b565b61219e3385858403612fb7565b5060019392505050565b6065546001600160a01b031633146121d25760405162461bcd60e51b815260040161106b90615276565b61012c8110156122245760405162461bcd60e51b815260206004820152601860248201527f496e76616c69642061756374696f6e206475726174696f6e0000000000000000604482015260640161106b565b60fb5460408051918252602082018390527f5acd982e2240ed224a69aa03dab039d3797c108e4b5f288cd7dd6ca181b275f3910160405180910390a160fb55565b600260015414156122885760405162461bcd60e51b815260040161106b906152cc565b6002600155610100546001600160a01b0316806122a457600080fd5b600082116122b157600080fd5b33600090815260976020526040902054828110156122dd576122dd6122d684836132ac565b6000613bdc565b6122e83330856130dc565b6122f3308385612fb7565b6040516383df674760e01b815260048101849052336024820152600060448201526001600160a01b038316906383df674790606401600060405180830381600087803b15801561234257600080fd5b505af1158015611fbf573d6000803e3d6000fd5b60006111363384846130dc565b60cc546040516370a0823160e01b815230600482015260009161201091620100009091046001600160a01b0316906370a082319060240160206040518083038186803b1580156123b257600080fd5b505afa1580156123c6573d6000803e3d6000fd5b505050506040513d601f19601f820116820180604052508101906123ea9190615009565b60cf546201000090046001600160681b031690613ddd565b600260015414156124255760405162461bcd60e51b815260040161106b906152cc565b6002600155806124475760405162461bcd60e51b815260040161106b906152ab565b6124518133613419565b60cc5461246f906201000090046001600160a01b03163330846136ab565b5060018055565b60d4546001600160a01b031633146124a05760405162461bcd60e51b815260040161106b90615207565b600260015414156124c35760405162461bcd60e51b815260040161106b906152cc565b600260018190555060008060006124db60fd54613e33565b60fd819055919450925090506124f0826137b8565b60cf805462010000600160781b031916620100006001600160681b0385160217905560405182815233906001600160a01b038516907f045c558fdce4714c5816d53820d27420f4cd860892df203fe636384d8d19aa019060200160405180910390a3604051632904c23960e01b81526001600160a01b037f0000000000000000000000000000000000000000000000000000000000000000811660048301527f000000000000000000000000000000000000000000000000000000000000000081166024830152841660448201526064810183905273__$c4f279750f4bbb575ac7775e752dc00849$__90632904c2399060840160206040518083038186803b1580156125fc57600080fd5b505af4158015612610573d6000803e3d6000fd5b505050506040513d601f19601f820116820180604052508101906126349190615009565b50612106613a41565b600080600061264b84612d9e565b90925090506115368282613ddd565b60d4546001600160a01b031633146126845760405162461bcd60e51b815260040161106b90615207565b60008111801561269f575061269b600a6064615472565b8111155b6126de5760405162461bcd60e51b815260206004820152601060248201526f125b9d985b1a5908191a5cd8dbdd5b9d60821b604482015260640161106b565b60f75460408051918252602082018390527f4cd657fde404967d63a338fb06c5c98751a9df57dfae6dc333a432faf8a5f656910160405180910390a160f755565b6065546001600160a01b031633146127495760405162461bcd60e51b815260040161106b90615276565b6001600160a01b03811661278c5760405162461bcd60e51b815260206004820152600a60248201526910b732bba5b2b2b832b960b11b604482015260640161106b565b60d480546001600160a01b0319166001600160a01b0392909216919091179055565b600260015414156127d15760405162461bcd60e51b815260040161106b906152cc565b6002600155806128105760405162461bcd60e51b815260206004820152600a602482015269216e756d53686172657360b01b604482015260640161106b565b61246f816000613bdc565b6065546001600160a01b031633146128455760405162461bcd60e51b815260040161106b90615276565b6001600160a01b03811661288e5760405162461bcd60e51b815260206004820152601060248201526f085b995dd19959549958da5c1a595b9d60821b604482015260640161106b565b60d3546001600160a01b03828116911614156128ec5760405162461bcd60e51b815260206004820152601860248201527f4d757374206265206e657720666565526563697069656e740000000000000000604482015260640161106b565b60d380546001600160a01b0319166001600160a01b0392909216919091179055565b600260015414156129315760405162461bcd60e51b815260040161106b906152cc565b600260015560d2546040805160c0810182526001600160a01b037f0000000000000000000000000000000000000000000000000000000000000000811682527f000000000000000000000000000000000000000000000000000000000000000081166020830190815293811682840181815260006060850181815260f95461ffff9081166080880190815260fa5460a0890190815260f65460f55460f7549b516334d0abdd60e21b8152918a16600483015289166024820152604481019a909a528851881660648b01529951871660848a0152935190951660a48801525160c4870152905190921660e4850152935161010484015260cc61012484015260cf610144840152909181908190819073__$c4f279750f4bbb575ac7775e752dc00849$__9063d342af74906101640160806040518083038186803b158015612a7657600080fd5b505af4158015612a8a573d6000803e3d6000fd5b505050506040513d601f19601f82011682018060405250810190612aae9190614f14565b93509350935093507fa217999b1c125c2a996f712c5f26a28addad7167bd8a67d5bd5b2a751148abb08282604051612af0929190918252602082015260400190565b60405180910390a1612b01836137b8565b6001600160681b03831660f85560d180546001600160a01b0319166001600160a01b0386161790556000612b354282613ddd565b905063ffffffff811115612b8b5760405162461bcd60e51b815260206004820152601860248201527f4f766572666c6f77206e6578744f7074696f6e52656164790000000000000000604482015260640161106b565b60d2805463ffffffff60a01b1916600160a01b63ffffffff841602179055611fbf876141b1565b6065546001600160a01b03163314612bdc5760405162461bcd60e51b815260040161106b90615276565b6001600160a01b038116612c415760405162461bcd60e51b815260206004820152602660248201527f4f776e61626c653a206e6577206f776e657220697320746865207a65726f206160448201526564647265737360d01b606482015260840161106b565b612c4a81613d8b565b50565b60026001541415612c705760405162461bcd60e51b815260040161106b906152cc565b600260015560cc547f00000000000000000000000000000000000000000000000000000000000000006001600160a01b03908116620100009092041614612ce15760405162461bcd60e51b8152602060048201526005602482015264042ae8aa8960db1b604482015260640161106b565b60003411612d1a5760405162461bcd60e51b81526020600482015260066024820152652176616c756560d01b604482015260640161106b565b612d243433613419565b7f00000000000000000000000000000000000000000000000000000000000000006001600160a01b031663d0e30db0346040518263ffffffff1660e01b81526004016000604051808303818588803b158015612d7f57600080fd5b505af1158015612d93573d6000803e3d6000fd5b505060018055505050565b6001600160a01b038116600090815260c9602090815260408083208151606081018352905461ffff81168083526201000082046001600160681b031694830194909452600160781b90046001600160801b031691810191909152829160011115612e20575050506001600160a01b031660009081526097602052604081205491565b60cf54815161ffff908116600090815260ca602052604081205460cc549193612e5693869391169190610100900460ff16614327565b9050612e77856001600160a01b031660009081526097602052604090205490565b9590945092505050565b60026001541415612ea45760405162461bcd60e51b815260040161106b906152cc565b60026001556000612eb3614398565b60fd54909150612ec390826132ac565b6001600160801b031660fd555060018055565b6065546001600160a01b03163314612f005760405162461bcd60e51b815260040161106b90615276565b612f0e620f42406064615472565b8110612f555760405162461bcd60e51b8152602060048201526016602482015275496e76616c6964206d616e6167656d656e742066656560501b604482015260640161106b565b6000612f7263031ba309612f6c84620f4240614555565b90614561565b60d65460408051918252602082018590529192507f4e874b007ab14f7e263baefd44951834c8266f4f224d1092e49e9c254354cc54910160405180910390a160d65550565b6001600160a01b0383166130195760405162461bcd60e51b8152602060048201526024808201527f45524332303a20617070726f76652066726f6d20746865207a65726f206164646044820152637265737360e01b606482015260840161106b565b6001600160a01b03821661307a5760405162461bcd60e51b815260206004820152602260248201527f45524332303a20617070726f766520746f20746865207a65726f206164647265604482015261737360f01b606482015260840161106b565b6001600160a01b0383811660008181526098602090815260408083209487168084529482529182902085905590518481527f8c5be1e5ebec7d5bd14f71427d1e84f3dd0314c0f7b2291e5b200ac8c7c3b92591015b60405180910390a3505050565b6001600160a01b0383166131405760405162461bcd60e51b815260206004820152602560248201527f45524332303a207472616e736665722066726f6d20746865207a65726f206164604482015264647265737360d81b606482015260840161106b565b6001600160a01b0382166131a25760405162461bcd60e51b815260206004820152602360248201527f45524332303a207472616e7366657220746f20746865207a65726f206164647260448201526265737360e81b606482015260840161106b565b6001600160a01b0383166000908152609760205260409020548181101561321a5760405162461bcd60e51b815260206004820152602660248201527f45524332303a207472616e7366657220616d6f756e7420657863656564732062604482015265616c616e636560d01b606482015260840161106b565b6001600160a01b0380851660009081526097602052604080822085850390559185168152908120805484929061325190849061534f565b92505081905550826001600160a01b0316846001600160a01b03167fddf252ad1be2c89b69c2b068fc378daa952ba7f163c4a11628f55a4df523b3ef8460405161329d91815260200190565b60405180910390a35b50505050565b60006111e58284615491565b60cc546001600160a01b03620100009091048116907f00000000000000000000000000000000000000000000000000000000000000001681141561340557604051632e1a7d4d60e01b8152600481018390527f00000000000000000000000000000000000000000000000000000000000000006001600160a01b031690632e1a7d4d90602401600060405180830381600087803b15801561335857600080fd5b505af115801561336c573d6000803e3d6000fd5b505050506000836001600160a01b03168360405160006040518083038185875af1925050503d80600081146133bd576040519150601f19603f3d011682016040523d82523d6000602084013e6133c2565b606091505b50509050806132a65760405162461bcd60e51b815260206004820152600f60248201526e151c985b9cd9995c8819985a5b1959608a1b604482015260640161106b565b611a9d6001600160a01b038216848461456d565b60cf5461ffff1660006134348461342e612363565b90613ddd565b60ce549091506001600160681b031681111561347f5760405162461bcd60e51b815260206004820152600a6024820152690457863656564206361760b41b604482015260640161106b565b60cd54600160a01b900466ffffffffffffff168110156134d85760405162461bcd60e51b8152602060048201526014602482015273496e73756666696369656e742062616c616e636560601b604482015260640161106b565b60408051858152602081018490526001600160a01b038516917f90890809c654f11d6e72a28fa60149770a0d11ec6c92319d6ceb2bb0a4ea1a15910160405180910390a26001600160a01b038316600090815260c9602090815260408083208151606081018352905461ffff81168083526201000082046001600160681b031683860152600160781b9091046001600160801b031682840152845260ca90925282205460cc54919291613597918491879190610100900460ff16614327565b8251909150869061ffff168514156135c85760208301516000906135c4906001600160681b031689613ddd565b9150505b6135d1816137b8565b6040805160608101825261ffff80881682526001600160681b0380851660208085019182526001600160801b038089168688019081526001600160a01b038e16600090815260c990935296822095518654935197518216600160781b02600160781b600160f81b03199890951662010000026effffffffffffffffffffffffffffff1990941695169490941791909117949094161790915560d054613677911689613ddd565b905061368281613de9565b60d080546001600160801b0319166001600160801b039290921691909117905550505050505050565b6040516001600160a01b03808516602483015283166044820152606481018290526132a69085906323b872dd60e01b906084015b60408051601f198184030181529190526020810180516001600160e01b03166001600160e01b03199093169290921790915261459d565b60008061372483600a6153ca565b905060008611613734578061374c565b61374c86612f6c61374588886132ac565b8490614555565b9695505050505050565b6000600183116137a05760405162461bcd60e51b8152602060048201526015602482015274496e76616c6964206173736574506572536861726560581b604482015260640161106b565b6115366137ae83600a6153ca565b612f6c8686614555565b6001600160681b03811115612c4a5760405162461bcd60e51b815260206004820152601060248201526f13dd995c999b1bddc81d5a5b9d0c4c0d60821b604482015260640161106b565b600054610100900460ff168061381b575060005460ff16155b6138375760405162461bcd60e51b815260040161106b90615228565b600054610100900460ff16158015613859576000805461ffff19166101011790555b60405163c72733f760e01b815273__$c4f279750f4bbb575ac7775e752dc00849$__9063c72733f79061389e908c908c908c908b908d908c908c908c906004016150fa565b60006040518083038186803b1580156138b657600080fd5b505af41580156138ca573d6000803e3d6000fd5b505050506138d661466f565b6138e084846146e2565b6138e8614761565b6138f189612bb2565b60d480546001600160a01b03808b166001600160a01b03199283161790925560d38054928a169290911691909117905560d585905561393b63031ba309612f6c88620f4240614555565b60d6558160cc61394b8282615567565b505060cc546040516370a0823160e01b81523060048201526000916201000090046001600160a01b0316906370a082319060240160206040518083038186803b15801561399757600080fd5b505afa1580156139ab573d6000803e3d6000fd5b505050506040513d601f19601f820116820180604052508101906139cf9190615009565b90506139da816137b8565b60cf805461ffff196001600160681b03909316600160781b02929092167fffffffff00000000000000000000000000ffffffffffffffffffffffffff00009092169190911760011790558015613a36576000805461ff00191690555b505050505050505050565b6040805160c081018252600080825260208201819052918101829052606081018290526080810182905260a081019190915260f85480613abb5760405162461bcd60e51b81526020600482015260156024820152742163757272656e744f746f6b656e5072656d69756d60581b604482015260640161106b565b60d2546001600160a01b0390811683527f000000000000000000000000000000000000000000000000000000000000000081166020840190815260cc546201000081048316604080870191825261010090920460ff16606087019081526080870186815260fb5460a089019081529351633baf17fd60e21b8152885187166004820152945186166024860152915190941660448401529251606483015291516084820152905160a482015273__$c4f279750f4bbb575ac7775e752dc00849$__9063eebc5ff49060c40160206040518083038186803b158015613b9d57600080fd5b505af4158015613bb1573d6000803e3d6000fd5b505050506040513d601f19601f82011682018060405250810190613bd59190615009565b60fc555050565b33600090815260c9602090815260408083208151606081018352905461ffff8082168084526201000083046001600160681b031684870152600160781b9092046001600160801b03168385015260cf5491865260ca9094529184205460cc5491949290931692613c579185918591610100900460ff16614327565b905083613c645784613c66565b805b945084613c74575050505050565b80851115613cb85760405162461bcd60e51b81526020600482015260116024820152704578636565647320617661696c61626c6560781b604482015260640161106b565b825161ffff16821115613ce55733600090815260c960205260409020805462010000600160781b03191690555b613cee85613de9565b613cf881866132ac565b33600081815260c960205260409081902080546001600160801b0394909416600160781b02600160781b600160f81b0319909416939093179092558451915190917fe5b754fb1abb7f01b499791d0b820ae3b6af3424ac1c59768edb53f4ec31a92991613d719189825261ffff16602082015260400190565b60405180910390a2613d843033876130dc565b5050505050565b606580546001600160a01b038381166001600160a01b0319831681179093556040519116919082907f8be0079c531659141344cd1fd0a4f28419497f9722a3daafe3b4186f6b6457e090600090a35050565b60006111e5828461534f565b6001600160801b03811115612c4a5760405162461bcd60e51b815260206004820152601060248201526f09eeccae4ccd8deee40ead2dce86264760831b604482015260640161106b565b60d25460009081908190600160a01b900463ffffffff16421015613e825760405162461bcd60e51b815260206004820152600660248201526521726561647960d01b604482015260640161106b565b60d1546001600160a01b0316925082613ecb5760405162461bcd60e51b815260206004820152600b60248201526a10b732bc3a27b83a34b7b760a91b604482015260640161106b565b60d3546040805160c08101825260cc54610100810460ff16825291516370a0823160e01b81523060048201526001600160a01b039384169360009384938493849373__$c4f279750f4bbb575ac7775e752dc00849$__9363633c14269360cf939092602084019262010000900416906370a082319060240160206040518083038186803b158015613f5b57600080fd5b505afa158015613f6f573d6000803e3d6000fd5b505050506040513d601f19601f82011682018060405250810190613f939190615009565b8152602001613fa160995490565b815260208082018f905260d55460408084019190915260d65460609384015280516001600160e01b031960e088901b16815260048101959095528351602486015290830151604485015282015160648401528101516084830152608081015160a483015260a0015160c482015260e40160c06040518083038186803b15801561402957600080fd5b505af415801561403d573d6000803e3d6000fd5b505050506040513d601f19601f820116820180604052508101906140619190615045565b809750819850829950839650849b50859c505050505050508760d160010160006101000a8154816001600160a01b0302191690836001600160a01b03160217905550600060d160000160006101000a8154816001600160a01b0302191690836001600160a01b03160217905550600060cf60000160009054906101000a900461ffff1661ffff1690508160ca600083815260200190815260200160002081905550856001600160a01b03167f0a242f7ecaf711036ca770774ceffae28e60ef042ac113ddd187f2631db0c006858584604051614150939291909283526020830191909152604082015260600190565b60405180910390a260d080546001600160801b031916905561417381600161534f565b60cf805461ffff191661ffff9290921691909117905550614196905030846147c8565b80156141a6576141a684826132b8565b505050509193909250565b60cf546201000090046001600160681b03166001600160a01b038216156141fd5760cf80546cffffffffffffffffffffffffff60781b1916600160781b6001600160681b038416021790555b60cf805462010000600160781b031916905560d280546001600160a01b03191690556001600160a01b0382161561432357604051636c6fe87f60e11b81526001600160a01b037f000000000000000000000000000000000000000000000000000000000000000016600482015260009073__$c4f279750f4bbb575ac7775e752dc00849$__9063d8dfd0fe9060240160206040518083038186803b1580156142a457600080fd5b505af41580156142b8573d6000803e3d6000fd5b505050506040513d601f19601f820116820180604052508101906142dc9190615009565b9050336001600160a01b0316836001600160a01b03167f7e830f7c1771deb1bdb35c4a7e6051bbac32b376f7f4e4976b8618b0b11997f7836040516130cf91815260200190565b5050565b835160009061ffff16158015906143425750845161ffff1684115b1561438457600061436186602001516001600160681b031685856148a7565b604087015190915061437c906001600160801b031682613ddd565b915050611536565b50505050604001516001600160801b031690565b33600090815260cb6020526040812080546001600160801b03620100008204169061ffff16816143fa5760405162461bcd60e51b815260206004820152600d60248201526c139bdd081a5b9a5d1a585d1959609a1b604482015260640161106b565b60cf5461ffff1681106144425760405162461bcd60e51b815260206004820152601060248201526f149bdd5b99081b9bdd0818db1bdcd95960821b604482015260640161106b565b33600090815260cb60205260409020805462010000600160901b031916905560d05461447e90600160801b90046001600160801b0316836132ac565b60d080546001600160801b03928316600160801b029216919091179055600081815260ca602052604081205460cc546144c191859160ff61010090910416613756565b604080518281526020810186905291925033917ff279e6a1f5e320cca91135676d9cb6e44ca8a08c0b88342bcdb1144f6511b568910160405180910390a2614509308461490a565b6000811161454b5760405162461bcd60e51b815260206004820152600f60248201526e085dda5d1a191c985dd05b5bdd5b9d608a1b604482015260640161106b565b61153633826132b8565b60006111e58284615472565b60006111e58284615367565b6040516001600160a01b038316602482015260448101829052611a9d90849063a9059cbb60e01b906064016136df565b60006145f2826040518060400160405280602081526020017f5361666545524332303a206c6f772d6c6576656c2063616c6c206661696c6564815250856001600160a01b0316614a589092919063ffffffff16565b805190915015611a9d57808060200190518101906146109190614f52565b611a9d5760405162461bcd60e51b815260206004820152602a60248201527f5361666545524332303a204552433230206f7065726174696f6e20646964206e6044820152691bdd081cdd58d8d9595960b21b606482015260840161106b565b600054610100900460ff1680614688575060005460ff16155b6146a45760405162461bcd60e51b815260040161106b90615228565b600054610100900460ff161580156146c6576000805461ffff19166101011790555b6146ce614a67565b8015612c4a576000805461ff001916905550565b600054610100900460ff16806146fb575060005460ff16155b6147175760405162461bcd60e51b815260040161106b90615228565b600054610100900460ff16158015614739576000805461ffff19166101011790555b614741614ad6565b61474b8383614b40565b8015611a9d576000805461ff0019169055505050565b600054610100900460ff168061477a575060005460ff16155b6147965760405162461bcd60e51b815260040161106b90615228565b600054610100900460ff161580156147b8576000805461ffff19166101011790555b6147c0614ad6565b6146ce614bd5565b6001600160a01b03821661481e5760405162461bcd60e51b815260206004820152601f60248201527f45524332303a206d696e7420746f20746865207a65726f206164647265737300604482015260640161106b565b8060996000828254614830919061534f565b90915550506001600160a01b0382166000908152609760205260408120805483929061485d90849061534f565b90915550506040518181526001600160a01b038316906000907fddf252ad1be2c89b69c2b068fc378daa952ba7f163c4a11628f55a4df523b3ef9060200160405180910390a35050565b6000600183116148f15760405162461bcd60e51b8152602060048201526015602482015274496e76616c6964206173736574506572536861726560581b604482015260640161106b565b61153683612f6c61490385600a6153ca565b8790614555565b6001600160a01b03821661496a5760405162461bcd60e51b815260206004820152602160248201527f45524332303a206275726e2066726f6d20746865207a65726f206164647265736044820152607360f81b606482015260840161106b565b6001600160a01b038216600090815260976020526040902054818110156149de5760405162461bcd60e51b815260206004820152602260248201527f45524332303a206275726e20616d6f756e7420657863656564732062616c616e604482015261636560f01b606482015260840161106b565b6001600160a01b0383166000908152609760205260408120838303905560998054849290614a0d908490615491565b90915550506040518281526000906001600160a01b038516907fddf252ad1be2c89b69c2b068fc378daa952ba7f163c4a11628f55a4df523b3ef9060200160405180910390a3505050565b60606115368484600085614c35565b600054610100900460ff1680614a80575060005460ff16155b614a9c5760405162461bcd60e51b815260040161106b90615228565b600054610100900460ff16158015614abe576000805461ffff19166101011790555b600180558015612c4a576000805461ff001916905550565b600054610100900460ff1680614aef575060005460ff16155b614b0b5760405162461bcd60e51b815260040161106b90615228565b600054610100900460ff161580156146ce576000805461ffff19166101011790558015612c4a576000805461ff001916905550565b600054610100900460ff1680614b59575060005460ff16155b614b755760405162461bcd60e51b815260040161106b90615228565b600054610100900460ff16158015614b97576000805461ffff19166101011790555b8251614baa90609a906020860190614d96565b508151614bbe90609b906020850190614d96565b508015611a9d576000805461ff0019169055505050565b600054610100900460ff1680614bee575060005460ff16155b614c0a5760405162461bcd60e51b815260040161106b90615228565b600054610100900460ff16158015614c2c576000805461ffff19166101011790555b6146ce33613d8b565b606082471015614c965760405162461bcd60e51b815260206004820152602660248201527f416464726573733a20696e73756666696369656e742062616c616e636520666f6044820152651c8818d85b1b60d21b606482015260840161106b565b843b614ce45760405162461bcd60e51b815260206004820152601d60248201527f416464726573733a2063616c6c20746f206e6f6e2d636f6e7472616374000000604482015260640161106b565b600080866001600160a01b03168587604051614d0091906150de565b60006040518083038185875af1925050503d8060008114614d3d576040519150601f19603f3d011682016040523d82523d6000602084013e614d42565b606091505b5091509150614d52828286614d5d565b979650505050505050565b60608315614d6c5750816111e5565b825115614d7c5782518084602001fd5b8160405162461bcd60e51b815260040161106b91906151f4565b828054614da2906154d4565b90600052602060002090601f016020900481019282614dc45760008555614e0a565b82601f10614ddd57805160ff1916838001178555614e0a565b82800160010185558215614e0a579182015b82811115614e0a578251825591602001919060010190614def565b50614e16929150614e1a565b5090565b5b80821115614e165760008155600101614e1b565b8035614e3a81615678565b919050565b8035614e3a8161569b565b8035614e3a816156b0565b600060208284031215614e66578081fd5b81356111e581615678565b60008060408385031215614e83578081fd5b8235614e8e81615678565b91506020830135614e9e81615678565b809150509250929050565b600080600060608486031215614ebd578081fd5b8335614ec881615678565b92506020840135614ed881615678565b929592945050506040919091013590565b60008060408385031215614efb578182fd5b8235614f0681615678565b946020939093013593505050565b60008060008060808587031215614f29578081fd5b8451614f3481615678565b60208601516040870151606090970151919890975090945092505050565b600060208284031215614f63578081fd5b81516111e58161568d565b60008082840360e0811215614f81578283fd5b833567ffffffffffffffff811115614f97578384fd5b84016101608187031215614fa9578384fd5b925060c0601f1982011215614fbc578182fd5b506020830190509250929050565b600060208284031215614fdb578081fd5b81356001600160801b03811681146111e5578182fd5b600060208284031215615002578081fd5b5035919050565b60006020828403121561501a578081fd5b5051919050565b60008060408385031215615033578182fd5b823591506020830135614e9e81615678565b60008060008060008060c0878903121561505d578182fd5b865195506020870151945060408701519350606087015192506080870151915060a087015190509295509295509295565b60006020828403121561509f578081fd5b813563ffffffff811681146111e5578182fd5b600081518084526150ca8160208601602086016154a8565b601f01601f19169290920160200192915050565b600082516150f08184602087016154a8565b9190910192915050565b60006101a060018060a01b03808c168452808b166020850152808a1660408501528860608501528760808501528160a0850152615139828501886150b2565b915083820360c085015261514d82876150b2565b92508435915061515c8261568d565b90151560e0840152602084013590615173826156c5565b60ff82166101008501526040850135915061518d82615678565b166101208301526151a060608401614e2f565b6001600160a01b03166101408301526151bb60808401614e4a565b66ffffffffffffff166101608301526151d660a08401614e3f565b6001600160681b038116610180840152509998505050505050505050565b6020815260006111e560208301846150b2565b60208082526007908201526610b5b2b2b832b960c91b604082015260600190565b6020808252602e908201527f496e697469616c697a61626c653a20636f6e747261637420697320616c72656160408201526d191e481a5b9a5d1a585b1a5e995960921b606082015260800190565b6020808252818101527f4f776e61626c653a2063616c6c6572206973206e6f7420746865206f776e6572604082015260600190565b60208082526007908201526608585b5bdd5b9d60ca1b604082015260600190565b6020808252601f908201527f5265656e7472616e637947756172643a207265656e7472616e742063616c6c00604082015260600190565b6000808335601e19843603018112615319578283fd5b83018035915067ffffffffffffffff821115615333578283fd5b60200191503681900382131561534857600080fd5b9250929050565b600082198211156153625761536261552a565b500190565b60008261538257634e487b7160e01b81526012600452602481fd5b500490565b600181815b808511156153c25781600019048211156153a8576153a861552a565b808516156153b557918102915b93841c939080029061538c565b509250929050565b60006111e583836000826153e05750600161113a565b816153ed5750600061113a565b8160018114615403576002811461540d57615429565b600191505061113a565b60ff84111561541e5761541e61552a565b50506001821b61113a565b5060208310610133831016604e8410600b841016171561544c575081810a61113a565b6154568383615387565b806000190482111561546a5761546a61552a565b029392505050565b600081600019048311821515161561548c5761548c61552a565b500290565b6000828210156154a3576154a361552a565b500390565b60005b838110156154c35781810151838201526020016154ab565b838111156132a65750506000910152565b600181811c908216806154e857607f821691505b6020821081141561550957634e487b7160e01b600052602260045260246000fd5b50919050565b60006000198214156155235761552361552a565b5060010190565b634e487b7160e01b600052601160045260246000fd5b6000813561113a81615678565b6000813561113a8161569b565b6000813561113a816156b0565b81356155728161568d565b815460ff19811691151560ff1691821783556020840135615592816156c5565b61ff008160081b169050808361ffff1984161717845560408501356155b681615678565b6001600160b01b0319929092169092179190911760109190911b62010000600160b01b03161781556001810161560e6155f160608501615540565b82546001600160a01b0319166001600160a01b0391909116178255565b61564761561d6080850161555a565b82805466ffffffffffffff60a01b191660a09290921b66ffffffffffffff60a01b16919091179055565b5061432361565760a0840161554d565b600283016001600160681b0382166001600160681b03198254161781555050565b6001600160a01b0381168114612c4a57600080fd5b8015158114612c4a57600080fd5b6001600160681b0381168114612c4a57600080fd5b66ffffffffffffff81168114612c4a57600080fd5b60ff81168114612c4a57600080fdfea26469706673582212203525616ae007d7ec6c068e49c709a9a7f2aaaca525614b8ba52f2b81a26737ab64736f6c63430008040033",
  "libraries": {
    "VaultLifecycle": "0x5b69a34BFa22162036f10bb352c7E9377758f01D"
  },
  "devdoc": {
    "kind": "dev",
    "methods": {
      "accountVaultBalance(address)": {
        "params": {
          "account": "is the address to lookup balance for"
        },
        "returns": {
          "_0": "the amount of `asset` custodied by the vault for the user"
        }
      },
      "allowance(address,address)": {
        "details": "See {IERC20-allowance}."
      },
      "approve(address,uint256)": {
        "details": "See {IERC20-approve}. Requirements: - `spender` cannot be the zero address."
      },
      "balanceOf(address)": {
        "details": "See {IERC20-balanceOf}."
      },
      "constructor": {
        "params": {
          "_gammaController": "is the contract address for opyn actions",
          "_gnosisEasyAuction": "is the contract address that facilitates gnosis auctions",
          "_marginPool": "is the contract address for providing collateral to opyn",
          "_oTokenFactory": "is the contract address for minting new opyn option types (strikes, asset, expiry)",
          "_usdc": "is the USDC contract",
          "_weth": "is the Wrapped Ether contract"
        }
      },
      "decreaseAllowance(address,uint256)": {
        "details": "Atomically decreases the allowance granted to `spender` by the caller. This is an alternative to {approve} that can be used as a mitigation for problems described in {IERC20-approve}. Emits an {Approval} event indicating the updated allowance. Requirements: - `spender` cannot be the zero address. - `spender` must have allowance for the caller of at least `subtractedValue`."
      },
      "deposit(uint256)": {
        "params": {
          "amount": "is the amount of `asset` to deposit"
        }
      },
      "depositFor(uint256,address)": {
        "params": {
          "amount": "is the amount of `asset` to deposit",
          "creditor": "is the address that can claim/withdraw deposited amount"
        }
      },
      "increaseAllowance(address,uint256)": {
        "details": "Atomically increases the allowance granted to `spender` by the caller. This is an alternative to {approve} that can be used as a mitigation for problems described in {IERC20-approve}. Emits an {Approval} event indicating the updated allowance. Requirements: - `spender` cannot be the zero address."
      },
      "initialize((address,address,address,uint256,uint256,string,string,address,address,uint32,uint256),(bool,uint8,address,address,uint56,uint104))": {
        "params": {
          "_initParams": "is the struct with vault initialization parameters",
          "_vaultParams": "is the struct with vault general data"
        }
      },
      "initiateWithdraw(uint256)": {
        "params": {
          "numShares": "is the number of shares to withdraw"
        }
      },
      "name()": {
        "details": "Returns the name of the token."
      },
      "owner()": {
        "details": "Returns the address of the current owner."
      },
      "redeem(uint256)": {
        "params": {
          "numShares": "is the number of shares to redeem"
        }
      },
      "renounceOwnership()": {
        "details": "Leaves the contract without owner. It will not be possible to call `onlyOwner` functions anymore. Can only be called by the current owner. NOTE: Renouncing ownership will leave the contract without an owner, thereby removing any functionality that is only available to the owner."
      },
      "setAuctionDuration(uint256)": {
        "params": {
          "newAuctionDuration": "is the auction duration"
        }
      },
      "setCap(uint256)": {
        "params": {
          "newCap": "is the new cap for deposits"
        }
      },
      "setFeeRecipient(address)": {
        "params": {
          "newFeeRecipient": "is the address of the new fee recipient"
        }
      },
      "setLiquidityGauge(address)": {
        "params": {
          "newLiquidityGauge": "is the address of the new liquidityGauge contract"
        }
      },
      "setManagementFee(uint256)": {
        "params": {
          "newManagementFee": "is the management fee (6 decimals). ex: 2 * 10 ** 6 = 2%"
        }
      },
      "setNewKeeper(address)": {
        "params": {
          "newKeeper": "is the address of the new keeper"
        }
      },
      "setOptionsPremiumPricer(address)": {
        "params": {
          "newOptionsPremiumPricer": "is the address of the new strike selection contract"
        }
      },
      "setPerformanceFee(uint256)": {
        "params": {
          "newPerformanceFee": "is the performance fee (6 decimals). ex: 20 * 10 ** 6 = 20%"
        }
      },
      "setPremiumDiscount(uint256)": {
        "params": {
          "newPremiumDiscount": "is the premium discount"
        }
      },
      "setStrikePrice(uint128)": {
        "params": {
          "strikePrice": "is the strike price of the new oTokens (decimals = 8)"
        }
      },
      "setStrikeSelection(address)": {
        "params": {
          "newStrikeSelection": "is the address of the new strike selection contract"
        }
      },
      "shareBalances(address)": {
        "params": {
          "account": "is the account to lookup share balance for"
        },
        "returns": {
          "heldByAccount": "is the shares held by account",
          "heldByVault": "is the shares held on the vault (unredeemedShares)"
        }
      },
      "shares(address)": {
        "params": {
          "account": "is the account to lookup share balance for"
        },
        "returns": {
          "_0": "the share balance"
        }
      },
      "stake(uint256)": {
        "params": {
          "numShares": "is the number of shares to stake"
        }
      },
      "symbol()": {
        "details": "Returns the symbol of the token, usually a shorter version of the name."
      },
      "totalBalance()": {
        "returns": {
          "_0": "total balance of the vault, including the amounts locked in third party protocols"
        }
      },
      "totalSupply()": {
        "details": "See {IERC20-totalSupply}."
      },
      "transfer(address,uint256)": {
        "details": "See {IERC20-transfer}. Requirements: - `recipient` cannot be the zero address. - the caller must have a balance of at least `amount`."
      },
      "transferFrom(address,address,uint256)": {
        "details": "See {IERC20-transferFrom}. Emits an {Approval} event indicating the updated allowance. This is not required by the EIP. See the note at the beginning of {ERC20}. Requirements: - `sender` and `recipient` cannot be the zero address. - `sender` must have a balance of at least `amount`. - the caller must have allowance for ``sender``'s tokens of at least `amount`."
      },
      "transferOwnership(address)": {
        "details": "Transfers ownership of the contract to a new account (`newOwner`). Can only be called by the current owner."
      },
      "withdrawInstantly(uint256)": {
        "params": {
          "amount": "is the amount to withdraw"
        }
      }
    },
    "version": 1
  },
  "userdoc": {
    "kind": "user",
    "methods": {
      "DELAY()": {
        "notice": "Deprecated: 15 minute timelock between commitAndClose and rollToNexOption."
      },
      "OTOKEN_FACTORY()": {
        "notice": "oTokenFactory is the factory contract used to spawn otokens. Used to lookup otokens."
      },
      "PERIOD()": {
        "notice": "7 day period between each options sale."
      },
      "USDC()": {
        "notice": "USDC 0xA0b86991c6218b36c1d19D4a2e9Eb0cE3606eB48"
      },
      "WETH()": {
        "notice": "WETH9 0xC02aaA39b223FE8D0A0e5C4F27eAD9083C756Cc2"
      },
      "accountVaultBalance(address)": {
        "notice": "Returns the asset balance held on the vault for the account"
      },
      "burnRemainingOTokens()": {
        "notice": "Burn the remaining oTokens left over from gnosis auction."
      },
      "commitAndClose()": {
        "notice": "Sets the next option the vault will be shorting, and closes the existing short.         This allows all the users to withdraw if the next option is malicious."
      },
      "completeWithdraw()": {
        "notice": "Completes a scheduled withdrawal from a past round. Uses finalized pps for the round"
      },
      "constructor": {
        "notice": "Initializes the contract with immutable variables"
      },
      "decimals()": {
        "notice": "Returns the token decimals"
      },
      "deposit(uint256)": {
        "notice": "Deposits the `asset` from msg.sender."
      },
      "depositETH()": {
        "notice": "Deposits ETH into the contract and mint vault shares. Reverts if the asset is not WETH."
      },
      "depositFor(uint256,address)": {
        "notice": "Deposits the `asset` from msg.sender added to `creditor`'s deposit.Used for vault -> vault deposits on the user's behalf"
      },
      "depositReceipts(address)": {
        "notice": "Stores the user's pending deposit for the round"
      },
      "feeRecipient()": {
        "notice": "Fee recipient for the performance and management fees"
      },
      "initialize((address,address,address,uint256,uint256,string,string,address,address,uint32,uint256),(bool,uint8,address,address,uint56,uint104))": {
        "notice": "Initializes the OptionVault contract with storage variables."
      },
      "initiateWithdraw(uint256)": {
        "notice": "Initiates a withdrawal that can be processed once the round completes"
      },
      "keeper()": {
        "notice": "role in charge of weekly vault operations such as rollToNextOption and burnRemainingOTokens"
      },
      "managementFee()": {
        "notice": "Management fee charged on entire AUM in rollToNextOption. Only charged when there is no loss."
      },
      "maxRedeem()": {
        "notice": "Redeems the entire unredeemedShares balance that is owed to the account"
      },
      "optionState()": {
        "notice": "Vault's state of the options sold and the timelocked option"
      },
      "performanceFee()": {
        "notice": "Performance fee charged on premiums earned in rollToNextOption. Only charged when there is no loss."
      },
      "pricePerShare()": {
        "notice": "The price of a unit of share denominated in the `asset`"
      },
      "redeem(uint256)": {
        "notice": "Redeems shares that are owed to the account"
      },
      "rollToNextOption()": {
        "notice": "Rolls the vault's funds into a new short position."
      },
      "roundPricePerShare(uint256)": {
        "notice": "On every round's close, the pricePerShare value of an rTHETA token is stored This is used to determine the number of shares to be returned to a user with their DepositReceipt.depositAmount"
      },
      "setAuctionDuration(uint256)": {
        "notice": "Sets the new auction duration"
      },
      "setCap(uint256)": {
        "notice": "Sets a new cap for deposits"
      },
      "setFeeRecipient(address)": {
        "notice": "Sets the new fee recipient"
      },
      "setLiquidityGauge(address)": {
        "notice": "Sets the new liquidityGauge contract for this vault"
      },
      "setManagementFee(uint256)": {
        "notice": "Sets the management fee for the vault"
      },
      "setNewKeeper(address)": {
        "notice": "Sets the new keeper"
      },
      "setOptionsPremiumPricer(address)": {
        "notice": "Sets the new options premium pricer contract"
      },
      "setPerformanceFee(uint256)": {
        "notice": "Sets the performance fee for the vault"
      },
      "setPremiumDiscount(uint256)": {
        "notice": "Sets the new discount on premiums for options we are selling"
      },
      "setStrikePrice(uint128)": {
        "notice": "Optionality to set strike price manually"
      },
      "setStrikeSelection(address)": {
        "notice": "Sets the new strike selection contract"
      },
      "shareBalances(address)": {
        "notice": "Getter for returning the account's share balance split between account and vault holdings"
      },
      "shares(address)": {
        "notice": "Getter for returning the account's share balance including unredeemed shares"
      },
      "stake(uint256)": {
        "notice": "Stakes a users vault shares"
      },
      "startAuction()": {
        "notice": "Initiate the gnosis auction."
      },
      "totalBalance()": {
        "notice": "Returns the vault's total balance, including the amounts locked into a short position"
      },
      "vaultParams()": {
        "notice": "Vault's parameters like cap, decimals"
      },
      "vaultState()": {
        "notice": "Vault's lifecycle state like round and locked amounts"
      },
      "withdrawInstantly(uint256)": {
        "notice": "Withdraws the assets on the vault using the outstanding `DepositReceipt.amount`"
      },
      "withdrawals(address)": {
        "notice": "Stores pending user withdrawals"
      }
    },
    "notice": "UPGRADEABILITY: Since we use the upgradeable proxy pattern, we must observe the inheritance chain closely. Any changes/appends in storage variable needs to happen in RibbonThetaVaultStorage. RibbonThetaVault should not inherit from any other contract aside from RibbonVault, RibbonThetaVaultStorage",
    "version": 1
  },
  "storageLayout": {
    "storage": [
      {
        "astId": 176,
        "contract": "contracts/vaults/BaseVaults/RibbonThetaVault.sol:RibbonThetaVault",
        "label": "_initialized",
        "offset": 0,
        "slot": "0",
        "type": "t_bool"
      },
      {
        "astId": 179,
        "contract": "contracts/vaults/BaseVaults/RibbonThetaVault.sol:RibbonThetaVault",
        "label": "_initializing",
        "offset": 1,
        "slot": "0",
        "type": "t_bool"
      },
      {
        "astId": 230,
        "contract": "contracts/vaults/BaseVaults/RibbonThetaVault.sol:RibbonThetaVault",
        "label": "_status",
        "offset": 0,
        "slot": "1",
        "type": "t_uint256"
      },
      {
        "astId": 273,
        "contract": "contracts/vaults/BaseVaults/RibbonThetaVault.sol:RibbonThetaVault",
        "label": "__gap",
        "offset": 0,
        "slot": "2",
        "type": "t_array(t_uint256)49_storage"
      },
      {
        "astId": 993,
        "contract": "contracts/vaults/BaseVaults/RibbonThetaVault.sol:RibbonThetaVault",
        "label": "__gap",
        "offset": 0,
        "slot": "51",
        "type": "t_array(t_uint256)50_storage"
      },
      {
        "astId": 56,
        "contract": "contracts/vaults/BaseVaults/RibbonThetaVault.sol:RibbonThetaVault",
        "label": "_owner",
        "offset": 0,
        "slot": "101",
        "type": "t_address"
      },
      {
        "astId": 169,
        "contract": "contracts/vaults/BaseVaults/RibbonThetaVault.sol:RibbonThetaVault",
        "label": "__gap",
        "offset": 0,
        "slot": "102",
        "type": "t_array(t_uint256)49_storage"
      },
      {
        "astId": 293,
        "contract": "contracts/vaults/BaseVaults/RibbonThetaVault.sol:RibbonThetaVault",
        "label": "_balances",
        "offset": 0,
        "slot": "151",
        "type": "t_mapping(t_address,t_uint256)"
      },
      {
        "astId": 299,
        "contract": "contracts/vaults/BaseVaults/RibbonThetaVault.sol:RibbonThetaVault",
        "label": "_allowances",
        "offset": 0,
        "slot": "152",
        "type": "t_mapping(t_address,t_mapping(t_address,t_uint256))"
      },
      {
        "astId": 301,
        "contract": "contracts/vaults/BaseVaults/RibbonThetaVault.sol:RibbonThetaVault",
        "label": "_totalSupply",
        "offset": 0,
        "slot": "153",
        "type": "t_uint256"
      },
      {
        "astId": 303,
        "contract": "contracts/vaults/BaseVaults/RibbonThetaVault.sol:RibbonThetaVault",
        "label": "_name",
        "offset": 0,
        "slot": "154",
        "type": "t_string_storage"
      },
      {
        "astId": 305,
        "contract": "contracts/vaults/BaseVaults/RibbonThetaVault.sol:RibbonThetaVault",
        "label": "_symbol",
        "offset": 0,
        "slot": "155",
        "type": "t_string_storage"
      },
      {
        "astId": 846,
        "contract": "contracts/vaults/BaseVaults/RibbonThetaVault.sol:RibbonThetaVault",
        "label": "__gap",
        "offset": 0,
        "slot": "156",
        "type": "t_array(t_uint256)45_storage"
      },
      {
        "astId": 15049,
        "contract": "contracts/vaults/BaseVaults/RibbonThetaVault.sol:RibbonThetaVault",
        "label": "depositReceipts",
        "offset": 0,
        "slot": "201",
        "type": "t_mapping(t_address,t_struct(DepositReceipt)6037_storage)"
      },
      {
        "astId": 15054,
        "contract": "contracts/vaults/BaseVaults/RibbonThetaVault.sol:RibbonThetaVault",
        "label": "roundPricePerShare",
        "offset": 0,
        "slot": "202",
        "type": "t_mapping(t_uint256,t_uint256)"
      },
      {
        "astId": 15060,
        "contract": "contracts/vaults/BaseVaults/RibbonThetaVault.sol:RibbonThetaVault",
        "label": "withdrawals",
        "offset": 0,
        "slot": "203",
        "type": "t_mapping(t_address,t_struct(Withdrawal)6042_storage)"
      },
      {
        "astId": 15064,
        "contract": "contracts/vaults/BaseVaults/RibbonThetaVault.sol:RibbonThetaVault",
        "label": "vaultParams",
        "offset": 0,
        "slot": "204",
        "type": "t_struct(VaultParams)6012_storage"
      },
      {
        "astId": 15068,
        "contract": "contracts/vaults/BaseVaults/RibbonThetaVault.sol:RibbonThetaVault",
        "label": "vaultState",
        "offset": 0,
        "slot": "207",
        "type": "t_struct(VaultState)6030_storage"
      },
      {
        "astId": 15072,
        "contract": "contracts/vaults/BaseVaults/RibbonThetaVault.sol:RibbonThetaVault",
        "label": "optionState",
        "offset": 0,
        "slot": "209",
        "type": "t_struct(OptionState)6019_storage"
      },
      {
        "astId": 15075,
        "contract": "contracts/vaults/BaseVaults/RibbonThetaVault.sol:RibbonThetaVault",
        "label": "feeRecipient",
        "offset": 0,
        "slot": "211",
        "type": "t_address"
      },
      {
        "astId": 15078,
        "contract": "contracts/vaults/BaseVaults/RibbonThetaVault.sol:RibbonThetaVault",
        "label": "keeper",
        "offset": 0,
        "slot": "212",
        "type": "t_address"
      },
      {
        "astId": 15081,
        "contract": "contracts/vaults/BaseVaults/RibbonThetaVault.sol:RibbonThetaVault",
        "label": "performanceFee",
        "offset": 0,
        "slot": "213",
        "type": "t_uint256"
      },
      {
        "astId": 15084,
        "contract": "contracts/vaults/BaseVaults/RibbonThetaVault.sol:RibbonThetaVault",
        "label": "managementFee",
        "offset": 0,
        "slot": "214",
        "type": "t_uint256"
      },
      {
        "astId": 15088,
        "contract": "contracts/vaults/BaseVaults/RibbonThetaVault.sol:RibbonThetaVault",
        "label": "____gap",
        "offset": 0,
        "slot": "215",
        "type": "t_array(t_uint256)30_storage"
      },
      {
        "astId": 11550,
        "contract": "contracts/vaults/BaseVaults/RibbonThetaVault.sol:RibbonThetaVault",
        "label": "optionsPremiumPricer",
        "offset": 0,
        "slot": "245",
        "type": "t_address"
      },
      {
        "astId": 11552,
        "contract": "contracts/vaults/BaseVaults/RibbonThetaVault.sol:RibbonThetaVault",
        "label": "strikeSelection",
        "offset": 0,
        "slot": "246",
        "type": "t_address"
      },
      {
        "astId": 11554,
        "contract": "contracts/vaults/BaseVaults/RibbonThetaVault.sol:RibbonThetaVault",
        "label": "premiumDiscount",
        "offset": 0,
        "slot": "247",
        "type": "t_uint256"
      },
      {
        "astId": 11556,
        "contract": "contracts/vaults/BaseVaults/RibbonThetaVault.sol:RibbonThetaVault",
        "label": "currentOtokenPremium",
        "offset": 0,
        "slot": "248",
        "type": "t_uint256"
      },
      {
        "astId": 11558,
        "contract": "contracts/vaults/BaseVaults/RibbonThetaVault.sol:RibbonThetaVault",
        "label": "lastStrikeOverrideRound",
        "offset": 0,
        "slot": "249",
        "type": "t_uint16"
      },
      {
        "astId": 11560,
        "contract": "contracts/vaults/BaseVaults/RibbonThetaVault.sol:RibbonThetaVault",
        "label": "overriddenStrikePrice",
        "offset": 0,
        "slot": "250",
        "type": "t_uint256"
      },
      {
        "astId": 11562,
        "contract": "contracts/vaults/BaseVaults/RibbonThetaVault.sol:RibbonThetaVault",
        "label": "auctionDuration",
        "offset": 0,
        "slot": "251",
        "type": "t_uint256"
      },
      {
        "astId": 11564,
        "contract": "contracts/vaults/BaseVaults/RibbonThetaVault.sol:RibbonThetaVault",
        "label": "optionAuctionID",
        "offset": 0,
        "slot": "252",
        "type": "t_uint256"
      },
      {
        "astId": 11567,
        "contract": "contracts/vaults/BaseVaults/RibbonThetaVault.sol:RibbonThetaVault",
        "label": "lastQueuedWithdrawAmount",
        "offset": 0,
        "slot": "253",
        "type": "t_uint256"
      },
      {
        "astId": 11570,
        "contract": "contracts/vaults/BaseVaults/RibbonThetaVault.sol:RibbonThetaVault",
        "label": "_isUsdcAuction",
        "offset": 0,
        "slot": "254",
        "type": "t_bool"
      },
      {
        "astId": 11572,
        "contract": "contracts/vaults/BaseVaults/RibbonThetaVault.sol:RibbonThetaVault",
        "label": "_swapPath",
        "offset": 0,
        "slot": "255",
        "type": "t_bytes_storage"
      },
      {
        "astId": 11575,
        "contract": "contracts/vaults/BaseVaults/RibbonThetaVault.sol:RibbonThetaVault",
        "label": "liquidityGauge",
        "offset": 0,
        "slot": "256",
        "type": "t_address"
      }
    ],
    "types": {
      "t_address": {
        "encoding": "inplace",
        "label": "address",
        "numberOfBytes": "20"
      },
      "t_array(t_uint256)30_storage": {
        "base": "t_uint256",
        "encoding": "inplace",
        "label": "uint256[30]",
        "numberOfBytes": "960"
      },
      "t_array(t_uint256)45_storage": {
        "base": "t_uint256",
        "encoding": "inplace",
        "label": "uint256[45]",
        "numberOfBytes": "1440"
      },
      "t_array(t_uint256)49_storage": {
        "base": "t_uint256",
        "encoding": "inplace",
        "label": "uint256[49]",
        "numberOfBytes": "1568"
      },
      "t_array(t_uint256)50_storage": {
        "base": "t_uint256",
        "encoding": "inplace",
        "label": "uint256[50]",
        "numberOfBytes": "1600"
      },
      "t_bool": {
        "encoding": "inplace",
        "label": "bool",
        "numberOfBytes": "1"
      },
      "t_bytes_storage": {
        "encoding": "bytes",
        "label": "bytes",
        "numberOfBytes": "32"
      },
      "t_mapping(t_address,t_mapping(t_address,t_uint256))": {
        "encoding": "mapping",
        "key": "t_address",
        "label": "mapping(address => mapping(address => uint256))",
        "numberOfBytes": "32",
        "value": "t_mapping(t_address,t_uint256)"
      },
      "t_mapping(t_address,t_struct(DepositReceipt)6037_storage)": {
        "encoding": "mapping",
        "key": "t_address",
        "label": "mapping(address => struct Vault.DepositReceipt)",
        "numberOfBytes": "32",
        "value": "t_struct(DepositReceipt)6037_storage"
      },
      "t_mapping(t_address,t_struct(Withdrawal)6042_storage)": {
        "encoding": "mapping",
        "key": "t_address",
        "label": "mapping(address => struct Vault.Withdrawal)",
        "numberOfBytes": "32",
        "value": "t_struct(Withdrawal)6042_storage"
      },
      "t_mapping(t_address,t_uint256)": {
        "encoding": "mapping",
        "key": "t_address",
        "label": "mapping(address => uint256)",
        "numberOfBytes": "32",
        "value": "t_uint256"
      },
      "t_mapping(t_uint256,t_uint256)": {
        "encoding": "mapping",
        "key": "t_uint256",
        "label": "mapping(uint256 => uint256)",
        "numberOfBytes": "32",
        "value": "t_uint256"
      },
      "t_string_storage": {
        "encoding": "bytes",
        "label": "string",
        "numberOfBytes": "32"
      },
      "t_struct(DepositReceipt)6037_storage": {
        "encoding": "inplace",
        "label": "struct Vault.DepositReceipt",
        "members": [
          {
            "astId": 6032,
            "contract": "contracts/vaults/BaseVaults/RibbonThetaVault.sol:RibbonThetaVault",
            "label": "round",
            "offset": 0,
            "slot": "0",
            "type": "t_uint16"
          },
          {
            "astId": 6034,
            "contract": "contracts/vaults/BaseVaults/RibbonThetaVault.sol:RibbonThetaVault",
            "label": "amount",
            "offset": 2,
            "slot": "0",
            "type": "t_uint104"
          },
          {
            "astId": 6036,
            "contract": "contracts/vaults/BaseVaults/RibbonThetaVault.sol:RibbonThetaVault",
            "label": "unredeemedShares",
            "offset": 15,
            "slot": "0",
            "type": "t_uint128"
          }
        ],
        "numberOfBytes": "32"
      },
      "t_struct(OptionState)6019_storage": {
        "encoding": "inplace",
        "label": "struct Vault.OptionState",
        "members": [
          {
            "astId": 6014,
            "contract": "contracts/vaults/BaseVaults/RibbonThetaVault.sol:RibbonThetaVault",
            "label": "nextOption",
            "offset": 0,
            "slot": "0",
            "type": "t_address"
          },
          {
            "astId": 6016,
            "contract": "contracts/vaults/BaseVaults/RibbonThetaVault.sol:RibbonThetaVault",
            "label": "currentOption",
            "offset": 0,
            "slot": "1",
            "type": "t_address"
          },
          {
            "astId": 6018,
            "contract": "contracts/vaults/BaseVaults/RibbonThetaVault.sol:RibbonThetaVault",
            "label": "nextOptionReadyAt",
            "offset": 20,
            "slot": "1",
            "type": "t_uint32"
          }
        ],
        "numberOfBytes": "64"
      },
      "t_struct(VaultParams)6012_storage": {
        "encoding": "inplace",
        "label": "struct Vault.VaultParams",
        "members": [
          {
            "astId": 6001,
            "contract": "contracts/vaults/BaseVaults/RibbonThetaVault.sol:RibbonThetaVault",
            "label": "isPut",
            "offset": 0,
            "slot": "0",
            "type": "t_bool"
          },
          {
            "astId": 6003,
            "contract": "contracts/vaults/BaseVaults/RibbonThetaVault.sol:RibbonThetaVault",
            "label": "decimals",
            "offset": 1,
            "slot": "0",
            "type": "t_uint8"
          },
          {
            "astId": 6005,
            "contract": "contracts/vaults/BaseVaults/RibbonThetaVault.sol:RibbonThetaVault",
            "label": "asset",
            "offset": 2,
            "slot": "0",
            "type": "t_address"
          },
          {
            "astId": 6007,
            "contract": "contracts/vaults/BaseVaults/RibbonThetaVault.sol:RibbonThetaVault",
            "label": "underlying",
            "offset": 0,
            "slot": "1",
            "type": "t_address"
          },
          {
            "astId": 6009,
            "contract": "contracts/vaults/BaseVaults/RibbonThetaVault.sol:RibbonThetaVault",
            "label": "minimumSupply",
            "offset": 20,
            "slot": "1",
            "type": "t_uint56"
          },
          {
            "astId": 6011,
            "contract": "contracts/vaults/BaseVaults/RibbonThetaVault.sol:RibbonThetaVault",
            "label": "cap",
            "offset": 0,
            "slot": "2",
            "type": "t_uint104"
          }
        ],
        "numberOfBytes": "96"
      },
      "t_struct(VaultState)6030_storage": {
        "encoding": "inplace",
        "label": "struct Vault.VaultState",
        "members": [
          {
            "astId": 6021,
            "contract": "contracts/vaults/BaseVaults/RibbonThetaVault.sol:RibbonThetaVault",
            "label": "round",
            "offset": 0,
            "slot": "0",
            "type": "t_uint16"
          },
          {
            "astId": 6023,
            "contract": "contracts/vaults/BaseVaults/RibbonThetaVault.sol:RibbonThetaVault",
            "label": "lockedAmount",
            "offset": 2,
            "slot": "0",
            "type": "t_uint104"
          },
          {
            "astId": 6025,
            "contract": "contracts/vaults/BaseVaults/RibbonThetaVault.sol:RibbonThetaVault",
            "label": "lastLockedAmount",
            "offset": 15,
            "slot": "0",
            "type": "t_uint104"
          },
          {
            "astId": 6027,
            "contract": "contracts/vaults/BaseVaults/RibbonThetaVault.sol:RibbonThetaVault",
            "label": "totalPending",
            "offset": 0,
            "slot": "1",
            "type": "t_uint128"
          },
          {
            "astId": 6029,
            "contract": "contracts/vaults/BaseVaults/RibbonThetaVault.sol:RibbonThetaVault",
            "label": "queuedWithdrawShares",
            "offset": 16,
            "slot": "1",
            "type": "t_uint128"
          }
        ],
        "numberOfBytes": "64"
      },
      "t_struct(Withdrawal)6042_storage": {
        "encoding": "inplace",
        "label": "struct Vault.Withdrawal",
        "members": [
          {
            "astId": 6039,
            "contract": "contracts/vaults/BaseVaults/RibbonThetaVault.sol:RibbonThetaVault",
            "label": "round",
            "offset": 0,
            "slot": "0",
            "type": "t_uint16"
          },
          {
            "astId": 6041,
            "contract": "contracts/vaults/BaseVaults/RibbonThetaVault.sol:RibbonThetaVault",
            "label": "shares",
            "offset": 2,
            "slot": "0",
            "type": "t_uint128"
          }
        ],
        "numberOfBytes": "32"
      },
      "t_uint104": {
        "encoding": "inplace",
        "label": "uint104",
        "numberOfBytes": "13"
      },
      "t_uint128": {
        "encoding": "inplace",
        "label": "uint128",
        "numberOfBytes": "16"
      },
      "t_uint16": {
        "encoding": "inplace",
        "label": "uint16",
        "numberOfBytes": "2"
      },
      "t_uint256": {
        "encoding": "inplace",
        "label": "uint256",
        "numberOfBytes": "32"
      },
      "t_uint32": {
        "encoding": "inplace",
        "label": "uint32",
        "numberOfBytes": "4"
      },
      "t_uint56": {
        "encoding": "inplace",
        "label": "uint56",
        "numberOfBytes": "7"
      },
      "t_uint8": {
        "encoding": "inplace",
        "label": "uint8",
        "numberOfBytes": "1"
      }
    }
  }
}