{
  "address": "0x8a0eFf819D7e197eE79Ff3fef520fe56a2c36cA5",
  "abi": [
    {
      "inputs": [
        {
          "internalType": "address",
          "name": "_weth",
          "type": "address"
        },
        {
          "internalType": "address",
          "name": "_usdc",
          "type": "address"
        },
        {
          "internalType": "address",
          "name": "_wsteth",
          "type": "address"
        },
        {
          "internalType": "address",
          "name": "_ldo",
          "type": "address"
        },
        {
          "internalType": "address",
          "name": "_oTokenFactory",
          "type": "address"
        },
        {
          "internalType": "address",
          "name": "_gammaController",
          "type": "address"
        },
        {
          "internalType": "address",
          "name": "_marginPool",
          "type": "address"
        },
        {
          "internalType": "address",
          "name": "_gnosisEasyAuction",
          "type": "address"
        },
        {
          "internalType": "address",
          "name": "_crvPool",
          "type": "address"
        }
      ],
      "stateMutability": "nonpayable",
      "type": "constructor"
    },
    {
      "anonymous": false,
      "inputs": [
        {
          "indexed": true,
          "internalType": "address",
          "name": "owner",
          "type": "address"
        },
        {
          "indexed": true,
          "internalType": "address",
          "name": "spender",
          "type": "address"
        },
        {
          "indexed": false,
          "internalType": "uint256",
          "name": "value",
          "type": "uint256"
        }
      ],
      "name": "Approval",
      "type": "event"
    },
    {
      "anonymous": false,
      "inputs": [
        {
          "indexed": false,
          "internalType": "uint256",
          "name": "auctionDuration",
          "type": "uint256"
        },
        {
          "indexed": false,
          "internalType": "uint256",
          "name": "newAuctionDuration",
          "type": "uint256"
        }
      ],
      "name": "AuctionDurationSet",
      "type": "event"
    },
    {
      "anonymous": false,
      "inputs": [
        {
          "indexed": false,
          "internalType": "uint256",
          "name": "oldCap",
          "type": "uint256"
        },
        {
          "indexed": false,
          "internalType": "uint256",
          "name": "newCap",
          "type": "uint256"
        }
      ],
      "name": "CapSet",
      "type": "event"
    },
    {
      "anonymous": false,
      "inputs": [
        {
          "indexed": true,
          "internalType": "address",
          "name": "options",
          "type": "address"
        },
        {
          "indexed": false,
          "internalType": "uint256",
          "name": "withdrawAmount",
          "type": "uint256"
        },
        {
          "indexed": true,
          "internalType": "address",
          "name": "manager",
          "type": "address"
        }
      ],
      "name": "CloseShort",
      "type": "event"
    },
    {
      "anonymous": false,
      "inputs": [
        {
          "indexed": false,
          "internalType": "uint256",
          "name": "performanceFee",
          "type": "uint256"
        },
        {
          "indexed": false,
          "internalType": "uint256",
          "name": "vaultFee",
          "type": "uint256"
        },
        {
          "indexed": false,
          "internalType": "uint256",
          "name": "round",
          "type": "uint256"
        },
        {
          "indexed": true,
          "internalType": "address",
          "name": "feeRecipient",
          "type": "address"
        }
      ],
      "name": "CollectVaultFees",
      "type": "event"
    },
    {
      "anonymous": false,
      "inputs": [
        {
          "indexed": true,
          "internalType": "address",
          "name": "account",
          "type": "address"
        },
        {
          "indexed": false,
          "internalType": "uint256",
          "name": "amount",
          "type": "uint256"
        },
        {
          "indexed": false,
          "internalType": "uint256",
          "name": "round",
          "type": "uint256"
        }
      ],
      "name": "Deposit",
      "type": "event"
    },
    {
      "anonymous": false,
      "inputs": [
        {
          "indexed": true,
          "internalType": "address",
          "name": "auctioningToken",
          "type": "address"
        },
        {
          "indexed": true,
          "internalType": "address",
          "name": "biddingToken",
          "type": "address"
        },
        {
          "indexed": false,
          "internalType": "uint256",
          "name": "auctionCounter",
          "type": "uint256"
        },
        {
          "indexed": true,
          "internalType": "address",
          "name": "manager",
          "type": "address"
        }
      ],
      "name": "InitiateGnosisAuction",
      "type": "event"
    },
    {
      "anonymous": false,
      "inputs": [
        {
          "indexed": true,
          "internalType": "address",
          "name": "account",
          "type": "address"
        },
        {
          "indexed": false,
          "internalType": "uint256",
          "name": "shares",
          "type": "uint256"
        },
        {
          "indexed": false,
          "internalType": "uint256",
          "name": "round",
          "type": "uint256"
        }
      ],
      "name": "InitiateWithdraw",
      "type": "event"
    },
    {
      "anonymous": false,
      "inputs": [
        {
          "indexed": true,
          "internalType": "address",
          "name": "account",
          "type": "address"
        },
        {
          "indexed": false,
          "internalType": "uint256",
          "name": "amount",
          "type": "uint256"
        },
        {
          "indexed": false,
          "internalType": "uint256",
          "name": "round",
          "type": "uint256"
        }
      ],
      "name": "InstantWithdraw",
      "type": "event"
    },
    {
      "anonymous": false,
      "inputs": [
        {
          "indexed": false,
          "internalType": "uint256",
          "name": "managementFee",
          "type": "uint256"
        },
        {
          "indexed": false,
          "internalType": "uint256",
          "name": "newManagementFee",
          "type": "uint256"
        }
      ],
      "name": "ManagementFeeSet",
      "type": "event"
    },
    {
      "anonymous": false,
      "inputs": [
        {
          "indexed": false,
          "internalType": "uint256",
          "name": "strikePrice",
          "type": "uint256"
        },
        {
          "indexed": false,
          "internalType": "uint256",
          "name": "delta",
          "type": "uint256"
        }
      ],
      "name": "NewOptionStrikeSelected",
      "type": "event"
    },
    {
      "anonymous": false,
      "inputs": [
        {
          "indexed": true,
          "internalType": "address",
          "name": "options",
          "type": "address"
        },
        {
          "indexed": false,
          "internalType": "uint256",
          "name": "depositAmount",
          "type": "uint256"
        },
        {
          "indexed": true,
          "internalType": "address",
          "name": "manager",
          "type": "address"
        }
      ],
      "name": "OpenShort",
      "type": "event"
    },
    {
      "anonymous": false,
      "inputs": [
        {
          "indexed": true,
          "internalType": "address",
          "name": "previousOwner",
          "type": "address"
        },
        {
          "indexed": true,
          "internalType": "address",
          "name": "newOwner",
          "type": "address"
        }
      ],
      "name": "OwnershipTransferred",
      "type": "event"
    },
    {
      "anonymous": false,
      "inputs": [
        {
          "indexed": false,
          "internalType": "uint256",
          "name": "performanceFee",
          "type": "uint256"
        },
        {
          "indexed": false,
          "internalType": "uint256",
          "name": "newPerformanceFee",
          "type": "uint256"
        }
      ],
      "name": "PerformanceFeeSet",
      "type": "event"
    },
    {
      "anonymous": false,
      "inputs": [
        {
          "indexed": false,
          "internalType": "uint256",
          "name": "premiumDiscount",
          "type": "uint256"
        },
        {
          "indexed": false,
          "internalType": "uint256",
          "name": "newPremiumDiscount",
          "type": "uint256"
        }
      ],
      "name": "PremiumDiscountSet",
      "type": "event"
    },
    {
      "anonymous": false,
      "inputs": [
        {
          "indexed": true,
          "internalType": "address",
          "name": "account",
          "type": "address"
        },
        {
          "indexed": false,
          "internalType": "uint256",
          "name": "share",
          "type": "uint256"
        },
        {
          "indexed": false,
          "internalType": "uint256",
          "name": "round",
          "type": "uint256"
        }
      ],
      "name": "Redeem",
      "type": "event"
    },
    {
      "anonymous": false,
      "inputs": [
        {
          "indexed": true,
          "internalType": "address",
          "name": "from",
          "type": "address"
        },
        {
          "indexed": true,
          "internalType": "address",
          "name": "to",
          "type": "address"
        },
        {
          "indexed": false,
          "internalType": "uint256",
          "name": "value",
          "type": "uint256"
        }
      ],
      "name": "Transfer",
      "type": "event"
    },
    {
      "anonymous": false,
      "inputs": [
        {
          "indexed": true,
          "internalType": "address",
          "name": "account",
          "type": "address"
        },
        {
          "indexed": false,
          "internalType": "uint256",
          "name": "amount",
          "type": "uint256"
        },
        {
          "indexed": false,
          "internalType": "uint256",
          "name": "shares",
          "type": "uint256"
        }
      ],
      "name": "Withdraw",
      "type": "event"
    },
    {
      "inputs": [],
      "name": "DELAY",
      "outputs": [
        {
          "internalType": "uint256",
          "name": "",
          "type": "uint256"
        }
      ],
      "stateMutability": "view",
      "type": "function"
    },
    {
      "inputs": [],
      "name": "GAMMA_CONTROLLER",
      "outputs": [
        {
          "internalType": "address",
          "name": "",
          "type": "address"
        }
      ],
      "stateMutability": "view",
      "type": "function"
    },
    {
      "inputs": [],
      "name": "GNOSIS_EASY_AUCTION",
      "outputs": [
        {
          "internalType": "address",
          "name": "",
          "type": "address"
        }
      ],
      "stateMutability": "view",
      "type": "function"
    },
    {
      "inputs": [],
      "name": "LDO",
      "outputs": [
        {
          "internalType": "address",
          "name": "",
          "type": "address"
        }
      ],
      "stateMutability": "view",
      "type": "function"
    },
    {
      "inputs": [],
      "name": "MARGIN_POOL",
      "outputs": [
        {
          "internalType": "address",
          "name": "",
          "type": "address"
        }
      ],
      "stateMutability": "view",
      "type": "function"
    },
    {
      "inputs": [],
      "name": "OTOKEN_FACTORY",
      "outputs": [
        {
          "internalType": "address",
          "name": "",
          "type": "address"
        }
      ],
      "stateMutability": "view",
      "type": "function"
    },
    {
      "inputs": [],
      "name": "PERIOD",
      "outputs": [
        {
          "internalType": "uint256",
          "name": "",
          "type": "uint256"
        }
      ],
      "stateMutability": "view",
      "type": "function"
    },
    {
      "inputs": [],
      "name": "STETH",
      "outputs": [
        {
          "internalType": "address",
          "name": "",
          "type": "address"
        }
      ],
      "stateMutability": "view",
      "type": "function"
    },
    {
      "inputs": [],
      "name": "STETH_ETH_CRV_POOL",
      "outputs": [
        {
          "internalType": "address",
          "name": "",
          "type": "address"
        }
      ],
      "stateMutability": "view",
      "type": "function"
    },
    {
      "inputs": [],
      "name": "USDC",
      "outputs": [
        {
          "internalType": "address",
          "name": "",
          "type": "address"
        }
      ],
      "stateMutability": "view",
      "type": "function"
    },
    {
      "inputs": [],
      "name": "WETH",
      "outputs": [
        {
          "internalType": "address",
          "name": "",
          "type": "address"
        }
      ],
      "stateMutability": "view",
      "type": "function"
    },
    {
      "inputs": [
        {
          "internalType": "address",
          "name": "account",
          "type": "address"
        }
      ],
      "name": "accountVaultBalance",
      "outputs": [
        {
          "internalType": "uint256",
          "name": "",
          "type": "uint256"
        }
      ],
      "stateMutability": "view",
      "type": "function"
    },
    {
      "inputs": [
        {
          "internalType": "address",
          "name": "owner",
          "type": "address"
        },
        {
          "internalType": "address",
          "name": "spender",
          "type": "address"
        }
      ],
      "name": "allowance",
      "outputs": [
        {
          "internalType": "uint256",
          "name": "",
          "type": "uint256"
        }
      ],
      "stateMutability": "view",
      "type": "function"
    },
    {
      "inputs": [
        {
          "internalType": "address",
          "name": "spender",
          "type": "address"
        },
        {
          "internalType": "uint256",
          "name": "amount",
          "type": "uint256"
        }
      ],
      "name": "approve",
      "outputs": [
        {
          "internalType": "bool",
          "name": "",
          "type": "bool"
        }
      ],
      "stateMutability": "nonpayable",
      "type": "function"
    },
    {
      "inputs": [],
      "name": "auctionDuration",
      "outputs": [
        {
          "internalType": "uint256",
          "name": "",
          "type": "uint256"
        }
      ],
      "stateMutability": "view",
      "type": "function"
    },
    {
      "inputs": [
        {
          "internalType": "address",
          "name": "account",
          "type": "address"
        }
      ],
      "name": "balanceOf",
      "outputs": [
        {
          "internalType": "uint256",
          "name": "",
          "type": "uint256"
        }
      ],
      "stateMutability": "view",
      "type": "function"
    },
    {
      "inputs": [],
      "name": "burnRemainingOTokens",
      "outputs": [],
      "stateMutability": "nonpayable",
      "type": "function"
    },
    {
      "inputs": [],
      "name": "cap",
      "outputs": [
        {
          "internalType": "uint256",
          "name": "",
          "type": "uint256"
        }
      ],
      "stateMutability": "view",
      "type": "function"
    },
    {
      "inputs": [],
      "name": "collateralToken",
      "outputs": [
        {
          "internalType": "contract IWSTETH",
          "name": "",
          "type": "address"
        }
      ],
      "stateMutability": "view",
      "type": "function"
    },
    {
      "inputs": [],
      "name": "commitAndClose",
      "outputs": [],
      "stateMutability": "nonpayable",
      "type": "function"
    },
    {
      "inputs": [
        {
          "internalType": "uint256",
          "name": "minETHOut",
          "type": "uint256"
        }
      ],
      "name": "completeWithdraw",
      "outputs": [],
      "stateMutability": "nonpayable",
      "type": "function"
    },
    {
      "inputs": [],
      "name": "currentOption",
      "outputs": [
        {
          "internalType": "address",
          "name": "",
          "type": "address"
        }
      ],
      "stateMutability": "view",
      "type": "function"
    },
    {
      "inputs": [],
      "name": "currentOtokenPremium",
      "outputs": [
        {
          "internalType": "uint256",
          "name": "",
          "type": "uint256"
        }
      ],
      "stateMutability": "view",
      "type": "function"
    },
    {
      "inputs": [],
      "name": "decimals",
      "outputs": [
        {
          "internalType": "uint8",
          "name": "",
          "type": "uint8"
        }
      ],
      "stateMutability": "view",
      "type": "function"
    },
    {
      "inputs": [
        {
          "internalType": "address",
          "name": "spender",
          "type": "address"
        },
        {
          "internalType": "uint256",
          "name": "subtractedValue",
          "type": "uint256"
        }
      ],
      "name": "decreaseAllowance",
      "outputs": [
        {
          "internalType": "bool",
          "name": "",
          "type": "bool"
        }
      ],
      "stateMutability": "nonpayable",
      "type": "function"
    },
    {
      "inputs": [],
      "name": "depositETH",
      "outputs": [],
      "stateMutability": "payable",
      "type": "function"
    },
    {
      "inputs": [
        {
          "internalType": "address",
          "name": "creditor",
          "type": "address"
        }
      ],
      "name": "depositFor",
      "outputs": [],
      "stateMutability": "payable",
      "type": "function"
    },
    {
      "inputs": [
        {
          "internalType": "address",
          "name": "",
          "type": "address"
        }
      ],
      "name": "depositReceipts",
      "outputs": [
        {
          "internalType": "uint16",
          "name": "round",
          "type": "uint16"
        },
        {
          "internalType": "uint104",
          "name": "amount",
          "type": "uint104"
        },
        {
          "internalType": "uint128",
          "name": "unredeemedShares",
          "type": "uint128"
        }
      ],
      "stateMutability": "view",
      "type": "function"
    },
    {
      "inputs": [
        {
          "internalType": "uint256",
          "name": "amount",
          "type": "uint256"
        }
      ],
      "name": "depositYieldToken",
      "outputs": [],
      "stateMutability": "nonpayable",
      "type": "function"
    },
    {
      "inputs": [],
      "name": "feeRecipient",
      "outputs": [
        {
          "internalType": "address",
          "name": "",
          "type": "address"
        }
      ],
      "stateMutability": "view",
      "type": "function"
    },
    {
      "inputs": [
        {
          "internalType": "address",
          "name": "spender",
          "type": "address"
        },
        {
          "internalType": "uint256",
          "name": "addedValue",
          "type": "uint256"
        }
      ],
      "name": "increaseAllowance",
      "outputs": [
        {
          "internalType": "bool",
          "name": "",
          "type": "bool"
        }
      ],
      "stateMutability": "nonpayable",
      "type": "function"
    },
    {
      "inputs": [
        {
          "internalType": "uint256",
          "name": "numRounds",
          "type": "uint256"
        }
      ],
      "name": "initRounds",
      "outputs": [],
      "stateMutability": "nonpayable",
      "type": "function"
    },
    {
      "inputs": [
        {
          "internalType": "address",
          "name": "_owner",
          "type": "address"
        },
        {
          "internalType": "address",
          "name": "_keeper",
          "type": "address"
        },
        {
          "internalType": "address",
          "name": "_feeRecipient",
          "type": "address"
        },
        {
          "internalType": "uint256",
          "name": "_managementFee",
          "type": "uint256"
        },
        {
          "internalType": "uint256",
          "name": "_performanceFee",
          "type": "uint256"
        },
        {
          "internalType": "string",
          "name": "_tokenName",
          "type": "string"
        },
        {
          "internalType": "string",
          "name": "_tokenSymbol",
          "type": "string"
        },
        {
          "internalType": "address",
          "name": "_optionsPremiumPricer",
          "type": "address"
        },
        {
          "internalType": "address",
          "name": "_strikeSelection",
          "type": "address"
        },
        {
          "internalType": "uint32",
          "name": "_premiumDiscount",
          "type": "uint32"
        },
        {
          "internalType": "uint256",
          "name": "_auctionDuration",
          "type": "uint256"
        },
        {
          "components": [
            {
              "internalType": "bool",
              "name": "isPut",
              "type": "bool"
            },
            {
              "internalType": "uint8",
              "name": "decimals",
              "type": "uint8"
            },
            {
              "internalType": "address",
              "name": "asset",
              "type": "address"
            },
            {
              "internalType": "address",
              "name": "underlying",
              "type": "address"
            },
            {
              "internalType": "uint56",
              "name": "minimumSupply",
              "type": "uint56"
            },
            {
              "internalType": "uint104",
              "name": "cap",
              "type": "uint104"
            }
          ],
          "internalType": "struct Vault.VaultParams",
          "name": "_vaultParams",
          "type": "tuple"
        }
      ],
      "name": "initialize",
      "outputs": [],
      "stateMutability": "nonpayable",
      "type": "function"
    },
    {
      "inputs": [
        {
          "internalType": "uint256",
          "name": "numShares",
          "type": "uint256"
        }
      ],
      "name": "initiateWithdraw",
      "outputs": [],
      "stateMutability": "nonpayable",
      "type": "function"
    },
    {
      "inputs": [],
      "name": "keeper",
      "outputs": [
        {
          "internalType": "address",
          "name": "",
          "type": "address"
        }
      ],
      "stateMutability": "view",
      "type": "function"
    },
    {
      "inputs": [],
      "name": "lastQueuedWithdrawAmount",
      "outputs": [
        {
          "internalType": "uint256",
          "name": "",
          "type": "uint256"
        }
      ],
      "stateMutability": "view",
      "type": "function"
    },
    {
      "inputs": [],
      "name": "lastStrikeOverrideRound",
      "outputs": [
        {
          "internalType": "uint16",
          "name": "",
          "type": "uint16"
        }
      ],
      "stateMutability": "view",
      "type": "function"
    },
    {
      "inputs": [],
      "name": "managementFee",
      "outputs": [
        {
          "internalType": "uint256",
          "name": "",
          "type": "uint256"
        }
      ],
      "stateMutability": "view",
      "type": "function"
    },
    {
      "inputs": [],
      "name": "maxRedeem",
      "outputs": [],
      "stateMutability": "nonpayable",
      "type": "function"
    },
    {
      "inputs": [],
      "name": "name",
      "outputs": [
        {
          "internalType": "string",
          "name": "",
          "type": "string"
        }
      ],
      "stateMutability": "view",
      "type": "function"
    },
    {
      "inputs": [],
      "name": "nextOption",
      "outputs": [
        {
          "internalType": "address",
          "name": "",
          "type": "address"
        }
      ],
      "stateMutability": "view",
      "type": "function"
    },
    {
      "inputs": [],
      "name": "nextOptionReadyAt",
      "outputs": [
        {
          "internalType": "uint256",
          "name": "",
          "type": "uint256"
        }
      ],
      "stateMutability": "view",
      "type": "function"
    },
    {
      "inputs": [],
      "name": "optionAuctionID",
      "outputs": [
        {
          "internalType": "uint256",
          "name": "",
          "type": "uint256"
        }
      ],
      "stateMutability": "view",
      "type": "function"
    },
    {
      "inputs": [],
      "name": "optionState",
      "outputs": [
        {
          "internalType": "address",
          "name": "nextOption",
          "type": "address"
        },
        {
          "internalType": "address",
          "name": "currentOption",
          "type": "address"
        },
        {
          "internalType": "uint32",
          "name": "nextOptionReadyAt",
          "type": "uint32"
        }
      ],
      "stateMutability": "view",
      "type": "function"
    },
    {
      "inputs": [],
      "name": "optionsPremiumPricer",
      "outputs": [
        {
          "internalType": "address",
          "name": "",
          "type": "address"
        }
      ],
      "stateMutability": "view",
      "type": "function"
    },
    {
      "inputs": [],
      "name": "overriddenStrikePrice",
      "outputs": [
        {
          "internalType": "uint256",
          "name": "",
          "type": "uint256"
        }
      ],
      "stateMutability": "view",
      "type": "function"
    },
    {
      "inputs": [],
      "name": "owner",
      "outputs": [
        {
          "internalType": "address",
          "name": "",
          "type": "address"
        }
      ],
      "stateMutability": "view",
      "type": "function"
    },
    {
      "inputs": [],
      "name": "performanceFee",
      "outputs": [
        {
          "internalType": "uint256",
          "name": "",
          "type": "uint256"
        }
      ],
      "stateMutability": "view",
      "type": "function"
    },
    {
      "inputs": [],
      "name": "premiumDiscount",
      "outputs": [
        {
          "internalType": "uint256",
          "name": "",
          "type": "uint256"
        }
      ],
      "stateMutability": "view",
      "type": "function"
    },
    {
      "inputs": [],
      "name": "pricePerShare",
      "outputs": [
        {
          "internalType": "uint256",
          "name": "",
          "type": "uint256"
        }
      ],
      "stateMutability": "view",
      "type": "function"
    },
    {
      "inputs": [
        {
          "internalType": "uint256",
          "name": "numShares",
          "type": "uint256"
        }
      ],
      "name": "redeem",
      "outputs": [],
      "stateMutability": "nonpayable",
      "type": "function"
    },
    {
      "inputs": [],
      "name": "renounceOwnership",
      "outputs": [],
      "stateMutability": "nonpayable",
      "type": "function"
    },
    {
      "inputs": [],
      "name": "rollToNextOption",
      "outputs": [],
      "stateMutability": "nonpayable",
      "type": "function"
    },
    {
      "inputs": [
        {
          "internalType": "uint256",
          "name": "",
          "type": "uint256"
        }
      ],
      "name": "roundPricePerShare",
      "outputs": [
        {
          "internalType": "uint256",
          "name": "",
          "type": "uint256"
        }
      ],
      "stateMutability": "view",
      "type": "function"
    },
    {
      "inputs": [],
      "name": "sendLDORewards",
      "outputs": [],
      "stateMutability": "nonpayable",
      "type": "function"
    },
    {
      "inputs": [
        {
          "internalType": "uint256",
          "name": "newAuctionDuration",
          "type": "uint256"
        }
      ],
      "name": "setAuctionDuration",
      "outputs": [],
      "stateMutability": "nonpayable",
      "type": "function"
    },
    {
      "inputs": [
        {
          "internalType": "uint256",
          "name": "newCap",
          "type": "uint256"
        }
      ],
      "name": "setCap",
      "outputs": [],
      "stateMutability": "nonpayable",
      "type": "function"
    },
    {
      "inputs": [
        {
          "internalType": "address",
          "name": "newFeeRecipient",
          "type": "address"
        }
      ],
      "name": "setFeeRecipient",
      "outputs": [],
      "stateMutability": "nonpayable",
      "type": "function"
    },
    {
      "inputs": [
        {
          "internalType": "uint256",
          "name": "newManagementFee",
          "type": "uint256"
        }
      ],
      "name": "setManagementFee",
      "outputs": [],
      "stateMutability": "nonpayable",
      "type": "function"
    },
    {
      "inputs": [
        {
          "internalType": "address",
          "name": "newKeeper",
          "type": "address"
        }
      ],
      "name": "setNewKeeper",
      "outputs": [],
      "stateMutability": "nonpayable",
      "type": "function"
    },
    {
      "inputs": [
        {
          "internalType": "uint256",
          "name": "newPerformanceFee",
          "type": "uint256"
        }
      ],
      "name": "setPerformanceFee",
      "outputs": [],
      "stateMutability": "nonpayable",
      "type": "function"
    },
    {
      "inputs": [
        {
          "internalType": "uint256",
          "name": "newPremiumDiscount",
          "type": "uint256"
        }
      ],
      "name": "setPremiumDiscount",
      "outputs": [],
      "stateMutability": "nonpayable",
      "type": "function"
    },
    {
      "inputs": [
        {
          "internalType": "uint128",
          "name": "strikePrice",
          "type": "uint128"
        }
      ],
      "name": "setStrikePrice",
      "outputs": [],
      "stateMutability": "nonpayable",
      "type": "function"
    },
    {
      "inputs": [
        {
          "internalType": "address",
          "name": "newContract",
          "type": "address"
        },
        {
          "internalType": "bool",
          "name": "isStrikeSelection",
          "type": "bool"
        }
      ],
      "name": "setStrikeSelectionOrPricer",
      "outputs": [],
      "stateMutability": "nonpayable",
      "type": "function"
    },
    {
      "inputs": [
        {
          "internalType": "address",
          "name": "account",
          "type": "address"
        }
      ],
      "name": "shareBalances",
      "outputs": [
        {
          "internalType": "uint256",
          "name": "heldByAccount",
          "type": "uint256"
        },
        {
          "internalType": "uint256",
          "name": "heldByVault",
          "type": "uint256"
        }
      ],
      "stateMutability": "view",
      "type": "function"
    },
    {
      "inputs": [
        {
          "internalType": "address",
          "name": "account",
          "type": "address"
        }
      ],
      "name": "shares",
      "outputs": [
        {
          "internalType": "uint256",
          "name": "",
          "type": "uint256"
        }
      ],
      "stateMutability": "view",
      "type": "function"
    },
    {
      "inputs": [],
      "name": "startAuction",
      "outputs": [],
      "stateMutability": "nonpayable",
      "type": "function"
    },
    {
      "inputs": [],
      "name": "strikeSelection",
      "outputs": [
        {
          "internalType": "address",
          "name": "",
          "type": "address"
        }
      ],
      "stateMutability": "view",
      "type": "function"
    },
    {
      "inputs": [],
      "name": "symbol",
      "outputs": [
        {
          "internalType": "string",
          "name": "",
          "type": "string"
        }
      ],
      "stateMutability": "view",
      "type": "function"
    },
    {
      "inputs": [],
      "name": "totalBalance",
      "outputs": [
        {
          "internalType": "uint256",
          "name": "",
          "type": "uint256"
        }
      ],
      "stateMutability": "view",
      "type": "function"
    },
    {
      "inputs": [],
      "name": "totalPending",
      "outputs": [
        {
          "internalType": "uint256",
          "name": "",
          "type": "uint256"
        }
      ],
      "stateMutability": "view",
      "type": "function"
    },
    {
      "inputs": [],
      "name": "totalSupply",
      "outputs": [
        {
          "internalType": "uint256",
          "name": "",
          "type": "uint256"
        }
      ],
      "stateMutability": "view",
      "type": "function"
    },
    {
      "inputs": [
        {
          "internalType": "address",
          "name": "recipient",
          "type": "address"
        },
        {
          "internalType": "uint256",
          "name": "amount",
          "type": "uint256"
        }
      ],
      "name": "transfer",
      "outputs": [
        {
          "internalType": "bool",
          "name": "",
          "type": "bool"
        }
      ],
      "stateMutability": "nonpayable",
      "type": "function"
    },
    {
      "inputs": [
        {
          "internalType": "address",
          "name": "sender",
          "type": "address"
        },
        {
          "internalType": "address",
          "name": "recipient",
          "type": "address"
        },
        {
          "internalType": "uint256",
          "name": "amount",
          "type": "uint256"
        }
      ],
      "name": "transferFrom",
      "outputs": [
        {
          "internalType": "bool",
          "name": "",
          "type": "bool"
        }
      ],
      "stateMutability": "nonpayable",
      "type": "function"
    },
    {
      "inputs": [
        {
          "internalType": "address",
          "name": "newOwner",
          "type": "address"
        }
      ],
      "name": "transferOwnership",
      "outputs": [],
      "stateMutability": "nonpayable",
      "type": "function"
    },
    {
      "inputs": [],
      "name": "vaultParams",
      "outputs": [
        {
          "internalType": "bool",
          "name": "isPut",
          "type": "bool"
        },
        {
          "internalType": "uint8",
          "name": "decimals",
          "type": "uint8"
        },
        {
          "internalType": "address",
          "name": "asset",
          "type": "address"
        },
        {
          "internalType": "address",
          "name": "underlying",
          "type": "address"
        },
        {
          "internalType": "uint56",
          "name": "minimumSupply",
          "type": "uint56"
        },
        {
          "internalType": "uint104",
          "name": "cap",
          "type": "uint104"
        }
      ],
      "stateMutability": "view",
      "type": "function"
    },
    {
      "inputs": [],
      "name": "vaultState",
      "outputs": [
        {
          "internalType": "uint16",
          "name": "round",
          "type": "uint16"
        },
        {
          "internalType": "uint104",
          "name": "lockedAmount",
          "type": "uint104"
        },
        {
          "internalType": "uint104",
          "name": "lastLockedAmount",
          "type": "uint104"
        },
        {
          "internalType": "uint128",
          "name": "totalPending",
          "type": "uint128"
        },
        {
          "internalType": "uint128",
          "name": "queuedWithdrawShares",
          "type": "uint128"
        }
      ],
      "stateMutability": "view",
      "type": "function"
    },
    {
      "inputs": [
        {
          "internalType": "uint256",
          "name": "amount",
          "type": "uint256"
        },
        {
          "internalType": "uint256",
          "name": "minETHOut",
          "type": "uint256"
        }
      ],
      "name": "withdrawInstantly",
      "outputs": [],
      "stateMutability": "nonpayable",
      "type": "function"
    },
    {
      "inputs": [
        {
          "internalType": "address",
          "name": "",
          "type": "address"
        }
      ],
      "name": "withdrawals",
      "outputs": [
        {
          "internalType": "uint16",
          "name": "round",
          "type": "uint16"
        },
        {
          "internalType": "uint128",
          "name": "shares",
          "type": "uint128"
        }
      ],
      "stateMutability": "view",
      "type": "function"
    }
  ],
  "transactionHash": "0x05154a3d0a862980dd2fb8c34bb1c400976d34bb2010ea68ba4701b43ca39d4c",
  "args": [
    "0xC02aaA39b223FE8D0A0e5C4F27eAD9083C756Cc2",
    "0xA0b86991c6218b36c1d19D4a2e9Eb0cE3606eB48",
    "0x7f39C581F595B53c5cb19bD0b3f8dA6c935E2Ca0",
    "0x5A98FcBEA516Cf06857215779Fd812CA3beF1B32",
    "0x7C06792Af1632E77cb27a558Dc0885338F4Bdf8E",
    "0x4ccc2339F87F6c59c6893E1A678c2266cA58dC72",
    "0x5934807cC0654d46755eBd2848840b616256C6Ef",
    "0x0b7fFc1f4AD541A4Ed16b40D8c37f0929158D101",
    "0xDC24316b9AE028F1497c275EB9192a3Ea0f67022"
  ],
  "solcInputHash": "b7f20e4b54962148c3dd6defe7bbe1ff",
  "bytecode": "0x6101c06040523480156200001257600080fd5b506040516200637d3803806200637d833981016040819052620000359162000402565b88888888878787876001600160a01b038816620000825760405162461bcd60e51b8152602060048201526006602482015265042beeecae8d60d31b60448201526064015b60405180910390fd5b6001600160a01b038716620000c35760405162461bcd60e51b8152602060048201526006602482015265215f7573646360d01b604482015260640162000079565b6001600160a01b038616620001065760405162461bcd60e51b8152602060048201526008602482015267042beeee6e8cae8d60c31b604482015260640162000079565b6001600160a01b038516620001465760405162461bcd60e51b8152602060048201526005602482015264215f6c646f60d81b604482015260640162000079565b6001600160a01b0382166200019e5760405162461bcd60e51b815260206004820152601360248201527f215f676e6f7369734561737941756374696f6e00000000000000000000000000604482015260640162000079565b6001600160a01b038416620001ea5760405162461bcd60e51b815260206004820152601160248201527010afb3b0b6b6b0a1b7b73a3937b63632b960791b604482015260640162000079565b6001600160a01b038316620002315760405162461bcd60e51b815260206004820152600c60248201526b0857db585c99da5b941bdbdb60a21b604482015260640162000079565b6001600160a01b038116620002755760405162461bcd60e51b81526020600482015260096024820152680857d8dc9d941bdbdb60ba1b604482015260640162000079565b6001600160601b0319606089811b821660a05288811b821660c05286901b1660e0526040805163183fc7c960e31b815290516001600160a01b0388169163c1fe3e48916004808301926020929190829003018186803b158015620002d857600080fd5b505afa158015620002ed573d6000803e3d6000fd5b505050506040513d601f19601f82011682018060405250810190620003139190620003de565b6001600160601b0319606091821b81166101805294811b85166101005292831b84166101205290821b831661014052811b8216610160529290921b9091166080525050506001600160a01b038516620003a15760405162461bcd60e51b815260206004820152600f60248201526e215f6f546f6b656e466163746f727960881b604482015260640162000079565b5050505060601b6001600160601b0319166101a05250620004bc92505050565b80516001600160a01b0381168114620003d957600080fd5b919050565b600060208284031215620003f0578081fd5b620003fb82620003c1565b9392505050565b60008060008060008060008060006101208a8c03121562000421578485fd5b6200042c8a620003c1565b98506200043c60208b01620003c1565b97506200044c60408b01620003c1565b96506200045c60608b01620003c1565b95506200046c60808b01620003c1565b94506200047c60a08b01620003c1565b93506200048c60c08b01620003c1565b92506200049c60e08b01620003c1565b9150620004ad6101008b01620003c1565b90509295985092959850929598565b60805160601c60a05160601c60c05160601c60e05160601c6101005160601c6101205160601c6101405160601c6101605160601c6101805160601c6101a05160601c615d5c6200062160003960008181610f0a0152612e52015260008181610f84015281816112e50152818161179301528181612271015281816127f9015281816135eb015261447c01526000818161077e0152818161282101526136130152600081816108df0152613e0e0152600081816107fd015261255e015260008181610513015281816115ab0152818161253601526148f2015260008181610eb60152611a70015260008181610aa50152612e77015260008181610d5701528181611743015281816120bf0152818161445a01526145de015260008181610dc0015281816116700152818161176b01528181612156015281816123b101528181612448015281816127d101528181612f15015281816135c301526143e90152615d5c6000f3fe6080604052600436106104685760003560e01c80638b10cc7c1161024a578063b9f8092b11610139578063e00bfe50116100b6578063f2fde38b1161007a578063f2fde38b14611011578063f6326fb314611031578063f656ba5114611039578063f957a0671461106e578063fe56e2321461108e57600080fd5b8063e00bfe5014610f72578063e16fdbd514610fa6578063e73c63d514610fc6578063e74b981b14610fdc578063ea00b1ca14610ffc57600080fd5b8063d5f26382116100fd578063d5f2638214610e8e578063d88bba1114610ea4578063db006a7514610ed8578063db43e86214610ef8578063dd62ed3e14610f2c57600080fd5b8063b9f8092b14610df9578063c632183914610e0e578063ce7c2ac214610e2e578063d13f1b3e14610e4e578063d164cc1514610e6e57600080fd5b8063a497e674116101c7578063ad5c46481161018b578063ad5c464814610d45578063ad7a672f14610d79578063afa6626414610d8e578063b2016bd414610dae578063b4d1d79514610de257600080fd5b8063a497e67414610cbc578063a6f7f5d614610cdc578063a9059cbb14610cf2578063aa67c91914610d12578063aced166114610d2557600080fd5b80639fcc2d751161020e5780639fcc2d7514610b4d578063a083ff1714610bf9578063a285c9e814610c5c578063a2db9d8314610c7e578063a457c2d714610c9c57600080fd5b80638b10cc7c14610ac75780638da5cb5b14610ae557806395d89b4114610b0357806399530b0614610b185780639be43daa14610b2d57600080fd5b8063503c70aa1161036657806370a08231116102e35780637e108d52116102a75780637e108d5214610a1a57806383536ff314610a3a57806387153eb114610a505780638778878214610a7d57806389a3027114610a9357600080fd5b806370a0823114610936578063715018a61461096c5780637400173d146109815780637a9262a2146109a15780637bf5108614610a0557600080fd5b806369b411701161032a57806369b41170146108a35780636b64c769146108b85780636c10f66c146108cd5780636f31ab341461090157806370897b231461091657600080fd5b8063503c70aa146107a057806355489bb2146107b6578063600a2cfb146107d6578063650cce8a146107eb5780636719b2ee1461081f57600080fd5b806331807e42116103f45780633f90916a116103b85780633f90916a146106f8578063432833a614610716578063469048401461072c57806347786d371461074c5780634f6e746d1461076c57600080fd5b806331807e421461064c578063355274ea1461066c578063395093511461068a5780633ec143d3146106aa5780633f23bb73146106d857600080fd5b80631a92f6c21161043b5780631a92f6c2146105015780632087ed5c1461054d57806323b872dd1461056f5780632728f3331461058f578063313ce5671461062257600080fd5b806306fdde031461046d578063095ea7b3146104985780630cbf54c8146104c857806318160ddd146104ec575b600080fd5b34801561047957600080fd5b506104826110ae565b60405161048f91906158a3565b60405180910390f35b3480156104a457600080fd5b506104b86104b3366004615583565b611140565b604051901515815260200161048f565b3480156104d457600080fd5b506104de60fb5481565b60405190815260200161048f565b3480156104f857600080fd5b506099546104de565b34801561050d57600080fd5b506105357f000000000000000000000000000000000000000000000000000000000000000081565b6040516001600160a01b03909116815260200161048f565b34801561055957600080fd5b5061056d61056836600461562f565b611157565b005b34801561057b57600080fd5b506104b861058a366004615516565b6111b7565b34801561059b57600080fd5b5060cf5460d0546105dd9161ffff8116916001600160681b03620100008304811692600160781b900416906001600160801b0380821691600160801b90041685565b6040805161ffff90961686526001600160681b03948516602087015293909216928401929092526001600160801b03918216606084015216608082015260a00161048f565b34801561062e57600080fd5b5060cc54610100900460ff1660405160ff909116815260200161048f565b34801561065857600080fd5b5061056d61066736600461562f565b611263565b34801561067857600080fd5b5060ce546001600160681b03166104de565b34801561069657600080fd5b506104b86106a5366004615583565b611314565b3480156106b657600080fd5b5060f9546106c59061ffff1681565b60405161ffff909116815260200161048f565b3480156106e457600080fd5b506104de6106f33660046153c3565b611350565b34801561070457600080fd5b5060d0546001600160801b03166104de565b34801561072257600080fd5b506104de60fc5481565b34801561073857600080fd5b5060d354610535906001600160a01b031681565b34801561075857600080fd5b5061056d61076736600461562f565b6113a3565b34801561077857600080fd5b506105357f000000000000000000000000000000000000000000000000000000000000000081565b3480156107ac57600080fd5b506104de60fd5481565b3480156107c257600080fd5b5061056d6107d1366004615608565b61147e565b3480156107e257600080fd5b5061056d61153f565b3480156107f757600080fd5b506105357f000000000000000000000000000000000000000000000000000000000000000081565b34801561082b57600080fd5b5061087261083a3660046153c3565b60c96020526000908152604090205461ffff8116906201000081046001600160681b031690600160781b90046001600160801b031683565b6040805161ffff90941684526001600160681b0390921660208401526001600160801b03169082015260600161048f565b3480156108af57600080fd5b506104de600081565b3480156108c457600080fd5b5061056d61180e565b3480156108d957600080fd5b506105357f000000000000000000000000000000000000000000000000000000000000000081565b34801561090d57600080fd5b5061056d61186e565b34801561092257600080fd5b5061056d61093136600461562f565b6118a5565b34801561094257600080fd5b506104de6109513660046153c3565b6001600160a01b031660009081526097602052604090205490565b34801561097857600080fd5b5061056d61196c565b34801561098d57600080fd5b5061056d61099c366004615556565b6119a2565b3480156109ad57600080fd5b506109e36109bc3660046153c3565b60cb6020526000908152604090205461ffff8116906201000090046001600160801b031682565b6040805161ffff90931683526001600160801b0390911660208301520161048f565b348015610a1157600080fd5b5061056d611a58565b348015610a2657600080fd5b5061056d610a3536600461562f565b611b10565b348015610a4657600080fd5b506104de60f75481565b348015610a5c57600080fd5b506104de610a6b36600461562f565b60ca6020526000908152604090205481565b348015610a8957600080fd5b506104de60d55481565b348015610a9f57600080fd5b506105357f000000000000000000000000000000000000000000000000000000000000000081565b348015610ad357600080fd5b5060d2546001600160a01b0316610535565b348015610af157600080fd5b506065546001600160a01b0316610535565b348015610b0f57600080fd5b50610482611d4b565b348015610b2457600080fd5b506104de611d5a565b348015610b3957600080fd5b5061056d610b4836600461562f565b611d94565b348015610b5957600080fd5b5060cc5460cd5460ce54610ba99260ff808216936101008304909116926001600160a01b036201000090930483169282169166ffffffffffffff600160a01b90910416906001600160681b031686565b60408051961515875260ff90951660208701526001600160a01b03938416948601949094529116606084015266ffffffffffffff1660808301526001600160681b031660a082015260c00161048f565b348015610c0557600080fd5b5060d15460d254610c30916001600160a01b039081169190811690600160a01b900463ffffffff1683565b604080516001600160a01b03948516815293909216602084015263ffffffff169082015260600161048f565b348015610c6857600080fd5b5060d254600160a01b900463ffffffff166104de565b348015610c8a57600080fd5b5060d1546001600160a01b0316610535565b348015610ca857600080fd5b506104b8610cb7366004615583565b611e8e565b348015610cc857600080fd5b5061056d610cd736600461562f565b611f27565b348015610ce857600080fd5b506104de60d65481565b348015610cfe57600080fd5b506104b8610d0d366004615583565b611fe4565b61056d610d203660046153c3565b611ff1565b348015610d3157600080fd5b5060d454610535906001600160a01b031681565b348015610d5157600080fd5b506105357f000000000000000000000000000000000000000000000000000000000000000081565b348015610d8557600080fd5b506104de61209d565b348015610d9a57600080fd5b5060f554610535906001600160a01b031681565b348015610dba57600080fd5b506105357f000000000000000000000000000000000000000000000000000000000000000081565b348015610dee57600080fd5b506104de62093a8081565b348015610e0557600080fd5b5061056d612328565b348015610e1a57600080fd5b5061056d610e2936600461565f565b61260a565b348015610e3a57600080fd5b506104de610e493660046153c3565b612937565b348015610e5a57600080fd5b5061056d610e6936600461562f565b612954565b348015610e7a57600080fd5b5061056d610e893660046153c3565b612a18565b348015610e9a57600080fd5b506104de60f85481565b348015610eb057600080fd5b506105357f000000000000000000000000000000000000000000000000000000000000000081565b348015610ee457600080fd5b5061056d610ef336600461562f565b612aa7565b348015610f0457600080fd5b506105357f000000000000000000000000000000000000000000000000000000000000000081565b348015610f3857600080fd5b506104de610f473660046153df565b6001600160a01b03918216600090815260986020908152604080832093909416825291909152205490565b348015610f7e57600080fd5b506105357f000000000000000000000000000000000000000000000000000000000000000081565b348015610fb257600080fd5b5061056d610fc1366004615417565b612b14565b348015610fd257600080fd5b506104de60fa5481565b348015610fe857600080fd5b5061056d610ff73660046153c3565b612d20565b34801561100857600080fd5b5061056d612e13565b34801561101d57600080fd5b5061056d61102c3660046153c3565b613091565b61056d613129565b34801561104557600080fd5b506110596110543660046153c3565b613193565b6040805192835260208301919091520161048f565b34801561107a57600080fd5b5060f654610535906001600160a01b031681565b34801561109a57600080fd5b5061056d6110a936600461562f565b613276565b6060609a80546110bd90615b16565b80601f01602080910402602001604051908101604052809291908181526020018280546110e990615b16565b80156111365780601f1061110b57610100808354040283529160200191611136565b820191906000526020600020905b81548152906001019060200180831161111957829003601f168201915b5050505050905090565b600061114d338484613357565b5060015b92915050565b600260015414156111835760405162461bcd60e51b815260040161117a9061595a565b60405180910390fd5b600260015560006111938261347c565b60fd549091506111a390826137b0565b6001600160801b031660fd55505060018055565b60006111c48484846137bc565b6001600160a01b0384166000908152609860209081526040808320338452909152902054828110156112495760405162461bcd60e51b815260206004820152602860248201527f45524332303a207472616e7366657220616d6f756e74206578636565647320616044820152676c6c6f77616e636560c01b606482015260840161117a565b6112568533858403613357565b60019150505b9392505050565b600260015414156112865760405162461bcd60e51b815260040161117a9061595a565b6002600155806112c25760405162461bcd60e51b815260206004820152600760248201526608585b5bdd5b9d60ca1b604482015260640161117a565b6112d86112d08260016137b0565b33600061398c565b61130d6001600160a01b037f000000000000000000000000000000000000000000000000000000000000000016333084613c2b565b5060018055565b3360008181526098602090815260408083206001600160a01b0387168452909152812054909161114d91859061134b908690615991565b613357565b60cc5460009060ff610100909104168161138661136c60995490565b61137461209d565b60d0546001600160801b031685613c96565b905061139b61139485612937565b8284613cd6565b949350505050565b6065546001600160a01b031633146113cd5760405162461bcd60e51b815260040161117a90615925565b600081116114075760405162461bcd60e51b81526020600482015260076024820152660216e65774361760cc1b604482015260640161117a565b61141081613d38565b60ce54604080516001600160681b039092168252602082018390527f5f86edbb9d92228a9edc3f0ebc0f001bda1ea345ac7335e0eeef3504b31d1a1c910160405180910390a160ce80546cffffffffffffffffffffffffff19166001600160681b0392909216919091179055565b6065546001600160a01b031633146114a85760405162461bcd60e51b815260040161117a90615925565b600260015414156114cb5760405162461bcd60e51b815260040161117a9061595a565b60026001556001600160801b0381166115155760405162461bcd60e51b815260206004820152600c60248201526b21737472696b65507269636560a01b604482015260640161117a565b6001600160801b031660fa5560cf5460f9805461ffff191661ffff90921691909117905560018055565b60d4546001600160a01b031633146115695760405162461bcd60e51b815260040161117a906158b6565b6002600154141561158c5760405162461bcd60e51b815260040161117a9061595a565b600260015560d2546040516358ffbb3d60e01b81526001600160a01b037f0000000000000000000000000000000000000000000000000000000000000000811660048301529091166024820152600090731c3774C538A50Db827f7f7b450160E0aFcbD41F8906358ffbb3d9060440160206040518083038186803b15801561161357600080fd5b505af4158015611627573d6000803e3d6000fd5b505050506040513d601f19601f8201168201806040525081019061164b9190615647565b604051632eca54bf60e21b815260048101829052909150611702906001600160a01b037f0000000000000000000000000000000000000000000000000000000000000000169063bb2952fc9060240160206040518083038186803b1580156116b257600080fd5b505afa1580156116c6573d6000803e3d6000fd5b505050506040513d601f19601f820116820180604052508101906116ea9190615647565b60cf546201000090046001600160681b0316906137b0565b60cf805462010000600160781b031916620100006001600160681b039390931692909202919091179055604051631989ea7560e21b81526001600160a01b037f0000000000000000000000000000000000000000000000000000000000000000811660048301527f0000000000000000000000000000000000000000000000000000000000000000811660248301527f0000000000000000000000000000000000000000000000000000000000000000166044820152735CbB58FBd5E53A8db156C1261403b14dc618F3db90636627a9d49060640160006040518083038186803b1580156117ef57600080fd5b505af4158015611803573d6000803e3d6000fd5b505060018055505050565b60d4546001600160a01b031633146118385760405162461bcd60e51b815260040161117a906158b6565b6002600154141561185b5760405162461bcd60e51b815260040161117a9061595a565b6002600155611868613d82565b60018055565b600260015414156118915760405162461bcd60e51b815260040161117a9061595a565b600260018190555061186860006001613f1d565b6065546001600160a01b031633146118cf5760405162461bcd60e51b815260040161117a90615925565b6118dd620f42406064615ab4565b811061192b5760405162461bcd60e51b815260206004820152601760248201527f496e76616c696420706572666f726d616e636520666565000000000000000000604482015260640161117a565b60d55460408051918252602082018390527f24867dfb6fcb9970a07be21024956524abe7a1837faa903ff0e99aaa40cf893e910160405180910390a160d555565b6065546001600160a01b031633146119965760405162461bcd60e51b815260040161117a90615925565b6119a060006140cc565b565b6065546001600160a01b031633146119cc5760405162461bcd60e51b815260040161117a90615925565b6001600160a01b038216611a115760405162461bcd60e51b815260206004820152600c60248201526b085b995dd0dbdb9d1c9858dd60a21b604482015260640161117a565b8015611a385760f680546001600160a01b0384166001600160a01b03199091161790555050565b60f580546001600160a01b0319166001600160a01b0384161790555b5050565b60d3546040516370a0823160e01b81523060048201527f000000000000000000000000000000000000000000000000000000000000000091611b0d916001600160a01b03918216918416906370a082319060240160206040518083038186803b158015611ac457600080fd5b505afa158015611ad8573d6000803e3d6000fd5b505050506040513d601f19601f82011682018060405250810190611afc9190615647565b6001600160a01b038416919061411e565b50565b60026001541415611b335760405162461bcd60e51b815260040161117a9061595a565b600260015580611b725760405162461bcd60e51b815260206004820152600a602482015269216e756d53686172657360b01b604482015260640161117a565b33600090815260c960205260409020546201000090046001600160681b0316151580611bbc575033600090815260c96020526040902054600160781b90046001600160801b031615155b15611bcd57611bcd60006001613f1d565b60cf5433600081815260cb60209081526040918290208054835187815261ffff96871693810184905292959194911685149290917f0c53c82ad07e2d592d88ece3b066777dd60f1118e2a081b380efc4358f0d9e2a910160405180910390a281546201000090046001600160801b031660008215611c5657611c4f8287614153565b9050611cb9565b8115611c985760405162461bcd60e51b81526020600482015260116024820152704578697374696e6720776974686472617760781b604482015260640161117a565b5033600090815260cb60205260409020805461ffff191661ffff8616179055845b611cc28161415f565b33600090815260cb6020526040812080546001600160801b03808516620100000262010000600160901b03199092169190911790915560d054611d0e91600160801b9091041688614153565b9050611d198161415f565b60d080546001600160801b03808416600160801b029116179055611d3e3330896137bc565b5050600180555050505050565b6060609b80546110bd90615b16565b6000611d8f611d6860995490565b611d7061209d565b60d05460cc546001600160801b0390911690610100900460ff16613c96565b905090565b60026001541415611db75760405162461bcd60e51b815260040161117a9061595a565b600260015580611df65760405162461bcd60e51b815260206004820152600a602482015269216e756d526f756e647360b01b604482015260640161117a565b60cf5461ffff1660005b82811015611e85576000611e148284615991565b600081815260ca602052604090205490915015611e615760405162461bcd60e51b815260206004820152600b60248201526a125b9a5d1a585b1a5e995960aa1b604482015260640161117a565b600090815260ca602052604090206001905580611e7d81615b4b565b915050611e00565b50506001805550565b3360009081526098602090815260408083206001600160a01b038616845290915281205482811015611f105760405162461bcd60e51b815260206004820152602560248201527f45524332303a2064656372656173656420616c6c6f77616e63652062656c6f77604482015264207a65726f60d81b606482015260840161117a565b611f1d3385858403613357565b5060019392505050565b6065546001600160a01b03163314611f515760405162461bcd60e51b815260040161117a90615925565b61012c811015611fa35760405162461bcd60e51b815260206004820152601860248201527f496e76616c69642061756374696f6e206475726174696f6e0000000000000000604482015260640161117a565b60fb5460408051918252602082018390527f5acd982e2240ed224a69aa03dab039d3797c108e4b5f288cd7dd6ca181b275f3910160405180910390a160fb55565b600061114d3384846137bc565b600260015414156120145760405162461bcd60e51b815260040161117a9061595a565b60026001553461204f5760405162461bcd60e51b81526020600482015260066024820152652176616c756560d01b604482015260640161117a565b6001600160a01b0381166120915760405162461bcd60e51b815260206004820152600960248201526810b1b932b234ba37b960b91b604482015260640161117a565b61130d3482600161398c565b6040516370a0823160e01b815230600482015260009081906001600160a01b037f000000000000000000000000000000000000000000000000000000000000000016906370a082319060240160206040518083038186803b15801561210157600080fd5b505afa158015612115573d6000803e3d6000fd5b505050506040513d601f19601f820116820180604052508101906121399190615647565b6040516370a0823160e01b815230600482015290915047906000907f00000000000000000000000000000000000000000000000000000000000000006001600160a01b03169063bb2952fc9082906370a082319060240160206040518083038186803b1580156121a857600080fd5b505afa1580156121bc573d6000803e3d6000fd5b505050506040513d601f19601f820116820180604052508101906121e09190615647565b6040518263ffffffff1660e01b81526004016121fe91815260200190565b60206040518083038186803b15801561221657600080fd5b505afa15801561222a573d6000803e3d6000fd5b505050506040513d601f19601f8201168201806040525081019061224e9190615647565b6040516370a0823160e01b81523060048201529091506000906001600160a01b037f000000000000000000000000000000000000000000000000000000000000000016906370a082319060240160206040518083038186803b1580156122b357600080fd5b505afa1580156122c7573d6000803e3d6000fd5b505050506040513d601f19601f820116820180604052508101906122eb9190615647565b60cf5490915061231f9082906123199085908290889082908b906201000090046001600160681b0316614153565b90614153565b94505050505090565b60d4546001600160a01b031633146123525760405162461bcd60e51b815260040161117a906158b6565b600260015414156123755760405162461bcd60e51b815260040161117a9061595a565b600260018190555060008061238b60fd546141a9565b60fd81905560405162b0e38960e81b81526004810182905291935091506000906124d0907f00000000000000000000000000000000000000000000000000000000000000006001600160a01b03169063b0e389009060240160206040518083038186803b1580156123fb57600080fd5b505afa15801561240f573d6000803e3d6000fd5b505050506040513d601f19601f820116820180604052508101906124339190615647565b6040516370a0823160e01b81523060048201527f00000000000000000000000000000000000000000000000000000000000000006001600160a01b0316906370a082319060240160206040518083038186803b15801561249257600080fd5b505afa1580156124a6573d6000803e3d6000fd5b505050506040513d601f19601f820116820180604052508101906124ca9190615647565b906137b0565b9050336001600160a01b0316836001600160a01b03167f045c558fdce4714c5816d53820d27420f4cd860892df203fe636384d8d19aa018360405161251791815260200190565b60405180910390a3604051632904c23960e01b81526001600160a01b037f0000000000000000000000000000000000000000000000000000000000000000811660048301527f0000000000000000000000000000000000000000000000000000000000000000811660248301528416604482015260648101829052735CbB58FBd5E53A8db156C1261403b14dc618F3db90632904c2399060840160206040518083038186803b1580156125c957600080fd5b505af41580156125dd573d6000803e3d6000fd5b505050506040513d601f19601f820116820180604052508101906126019190615647565b50611e85613d82565b6002600154141561262d5760405162461bcd60e51b815260040161117a9061595a565b600260015533600090815260c96020526040902060cf5461ffff168361267f5760405162461bcd60e51b815260206004820152600760248201526608585b5bdd5b9d60ca1b604482015260640161117a565b815461ffff1681146126c35760405162461bcd60e51b815260206004820152600d60248201526c125b9d985b1a59081c9bdd5b99609a1b604482015260640161117a565b81546201000090046001600160681b0316848110156127145760405162461bcd60e51b815260206004820152600d60248201526c115e18d9595908185b5bdd5b9d609a1b604482015260640161117a565b61271e81866137b0565b83546001600160681b0391909116620100000262010000600160781b031990911617835560d054612758906001600160801b0316866137b0565b60d080546001600160801b0319166001600160801b0392909216919091179055604080518681526020810184905233917fab2daf3c146ca6416cbccd2a86ed2ba995e171ef6319df14a38aef01403a9c96910160405180910390a2604051631d6c315760e01b8152600481018690526001600160a01b037f0000000000000000000000000000000000000000000000000000000000000000811660248301527f0000000000000000000000000000000000000000000000000000000000000000811660448301527f000000000000000000000000000000000000000000000000000000000000000016606482015260848101859052600090735CbB58FBd5E53A8db156C1261403b14dc618F3db90631d6c31579060a40160206040518083038186803b15801561288757600080fd5b505af415801561289b573d6000803e3d6000fd5b505050506040513d601f19601f820116820180604052508101906128bf9190615647565b604051635c921eb960e01b815233600482015260248101829052909150735CbB58FBd5E53A8db156C1261403b14dc618F3db90635c921eb99060440160006040518083038186803b15801561291357600080fd5b505af4158015612927573d6000803e3d6000fd5b5050600180555050505050505050565b600080600061294584613193565b909250905061139b8282614153565b6065546001600160a01b0316331461297e5760405162461bcd60e51b815260040161117a90615925565b6000811180156129985750612995600a6064615ab4565b81105b6129d75760405162461bcd60e51b815260206004820152601060248201526f125b9d985b1a5908191a5cd8dbdd5b9d60821b604482015260640161117a565b60f75460408051918252602082018390527f4cd657fde404967d63a338fb06c5c98751a9df57dfae6dc333a432faf8a5f656910160405180910390a160f755565b6065546001600160a01b03163314612a425760405162461bcd60e51b815260040161117a90615925565b6001600160a01b038116612a855760405162461bcd60e51b815260206004820152600a60248201526910b732bba5b2b2b832b960b11b604482015260640161117a565b60d480546001600160a01b0319166001600160a01b0392909216919091179055565b60026001541415612aca5760405162461bcd60e51b815260040161117a9061595a565b600260015580612b095760405162461bcd60e51b815260206004820152600a602482015269216e756d53686172657360b01b604482015260640161117a565b61130d816000613f1d565b600054610100900460ff1680612b2d575060005460ff16155b612b495760405162461bcd60e51b815260040161117a906158d7565b600054610100900460ff16158015612b6b576000805461ffff19166101011790555b612b7b8d8d8d8d8d8d8d89614696565b6001600160a01b038616612bca5760405162461bcd60e51b815260206004820152601660248201527510afb7b83a34b7b739a83932b6b4bab6a83934b1b2b960511b604482015260640161117a565b6001600160a01b038516612c145760405162461bcd60e51b815260206004820152601160248201527010afb9ba3934b5b2a9b2b632b1ba34b7b760791b604482015260640161117a565b60008463ffffffff16118015612c3a5750612c31600a6064615ab4565b8463ffffffff16105b612c7a5760405162461bcd60e51b81526020600482015260116024820152700857dc1c995b5a5d5b511a5cd8dbdd5b9d607a1b604482015260640161117a565b61012c831015612cc05760405162461bcd60e51b815260206004820152601160248201527010afb0bab1ba34b7b7223ab930ba34b7b760791b604482015260640161117a565b60f580546001600160a01b038089166001600160a01b03199283161790925560f680549288169290911691909117905563ffffffff841660f75560fb8390558015612d11576000805461ff00191690555b50505050505050505050505050565b6065546001600160a01b03163314612d4a5760405162461bcd60e51b815260040161117a90615925565b6001600160a01b038116612d935760405162461bcd60e51b815260206004820152601060248201526f085b995dd19959549958da5c1a595b9d60821b604482015260640161117a565b60d3546001600160a01b0382811691161415612df15760405162461bcd60e51b815260206004820152601860248201527f4d757374206265206e657720666565526563697069656e740000000000000000604482015260640161117a565b60d380546001600160a01b0319166001600160a01b0392909216919091179055565b60026001541415612e365760405162461bcd60e51b815260040161117a9061595a565b600260015560d2546040805160c0810182526001600160a01b037f0000000000000000000000000000000000000000000000000000000000000000811682527f00000000000000000000000000000000000000000000000000000000000000008116602083015292831681830181905260006060830181905260f95461ffff16608084015260fa5460a084015260f65460f55460f75495516303a20e3d60e01b8152939694959294859485948594735CbB58FBd5E53A8db156C1261403b14dc618F3db946303a20e3d94612f3d94928116939116918b9060cc9060cf907f00000000000000000000000000000000000000000000000000000000000000009060040161580b565b60806040518083038186803b158015612f5557600080fd5b505af4158015612f69573d6000803e3d6000fd5b505050506040513d601f19601f82011682018060405250810190612f8d91906155ae565b93509350935093507fa217999b1c125c2a996f712c5f26a28addad7167bd8a67d5bd5b2a751148abb08282604051612fcf929190918252602082015260400190565b60405180910390a1612fe083613d38565b6001600160681b03831660f85560d180546001600160a01b0319166001600160a01b03861617905560006130144282614153565b905063ffffffff81111561306a5760405162461bcd60e51b815260206004820152601860248201527f4f766572666c6f77206e6578744f7074696f6e52656164790000000000000000604482015260640161117a565b60d2805463ffffffff60a01b1916600160a01b63ffffffff841602179055611d3e8761485e565b6065546001600160a01b031633146130bb5760405162461bcd60e51b815260040161117a90615925565b6001600160a01b0381166131205760405162461bcd60e51b815260206004820152602660248201527f4f776e61626c653a206e6577206f776e657220697320746865207a65726f206160448201526564647265737360d01b606482015260840161117a565b611b0d816140cc565b6002600154141561314c5760405162461bcd60e51b815260040161117a9061595a565b6002600155346131875760405162461bcd60e51b81526020600482015260066024820152652176616c756560d01b604482015260640161117a565b6118683433600161398c565b6001600160a01b038116600090815260c9602090815260408083208151606081018352905461ffff81168083526201000082046001600160681b031694830194909452600160781b90046001600160801b031691810191909152829160011115613215575050506001600160a01b031660009081526097602052604081205491565b60cf54815161ffff908116600090815260ca602052604081205460cc54919361324b93869391169190610100900460ff166149d0565b905061326c856001600160a01b031660009081526097602052604090205490565b9590945092505050565b6065546001600160a01b031633146132a05760405162461bcd60e51b815260040161117a90615925565b6132ae620f42406064615ab4565b81106132f55760405162461bcd60e51b8152602060048201526016602482015275496e76616c6964206d616e6167656d656e742066656560501b604482015260640161117a565b600061331263031ba30961330c84620f4240614a41565b90614a4d565b60d65460408051918252602082018590529192507f4e874b007ab14f7e263baefd44951834c8266f4f224d1092e49e9c254354cc54910160405180910390a160d65550565b6001600160a01b0383166133b95760405162461bcd60e51b8152602060048201526024808201527f45524332303a20617070726f76652066726f6d20746865207a65726f206164646044820152637265737360e01b606482015260840161117a565b6001600160a01b03821661341a5760405162461bcd60e51b815260206004820152602260248201527f45524332303a20617070726f766520746f20746865207a65726f206164647265604482015261737360f01b606482015260840161117a565b6001600160a01b0383811660008181526098602090815260408083209487168084529482529182902085905590518481527f8c5be1e5ebec7d5bd14f71427d1e84f3dd0314c0f7b2291e5b200ac8c7c3b92591015b60405180910390a3505050565b33600090815260cb6020526040812080546001600160801b03620100008204169061ffff16816134de5760405162461bcd60e51b815260206004820152600d60248201526c139bdd081a5b9a5d1a585d1959609a1b604482015260640161117a565b60cf5461ffff1681106135265760405162461bcd60e51b815260206004820152601060248201526f149bdd5b99081b9bdd0818db1bdcd95960821b604482015260640161117a565b33600090815260cb60205260409020805462010000600160901b031916905560d05461356290600160801b90046001600160801b0316836137b0565b60d080546001600160801b03928316600160801b029216919091179055600081815260ca602052604081205460cc546135a591859160ff61010090910416613cd6565b604051631d6c315760e01b8152600481018290526001600160a01b037f0000000000000000000000000000000000000000000000000000000000000000811660248301527f0000000000000000000000000000000000000000000000000000000000000000811660448301527f000000000000000000000000000000000000000000000000000000000000000016606482015260848101889052909150600090735CbB58FBd5E53A8db156C1261403b14dc618F3db90631d6c31579060a40160206040518083038186803b15801561367c57600080fd5b505af4158015613690573d6000803e3d6000fd5b505050506040513d601f19601f820116820180604052508101906136b49190615647565b604080518281526020810187905291925033917ff279e6a1f5e320cca91135676d9cb6e44ca8a08c0b88342bcdb1144f6511b568910160405180910390a26136fc3085614a59565b6000811161373c5760405162461bcd60e51b815260206004820152600d60248201526c08585b5bdd5b9d11551213dd5d609a1b604482015260640161117a565b604051635c921eb960e01b815233600482015260248101829052735CbB58FBd5E53A8db156C1261403b14dc618F3db90635c921eb99060440160006040518083038186803b15801561378d57600080fd5b505af41580156137a1573d6000803e3d6000fd5b50929998505050505050505050565b600061125c8284615ad3565b6001600160a01b0383166138205760405162461bcd60e51b815260206004820152602560248201527f45524332303a207472616e736665722066726f6d20746865207a65726f206164604482015264647265737360d81b606482015260840161117a565b6001600160a01b0382166138825760405162461bcd60e51b815260206004820152602360248201527f45524332303a207472616e7366657220746f20746865207a65726f206164647260448201526265737360e81b606482015260840161117a565b6001600160a01b038316600090815260976020526040902054818110156138fa5760405162461bcd60e51b815260206004820152602660248201527f45524332303a207472616e7366657220616d6f756e7420657863656564732062604482015265616c616e636560d01b606482015260840161117a565b6001600160a01b03808516600090815260976020526040808220858503905591851681529081208054849290613931908490615991565b92505081905550826001600160a01b0316846001600160a01b03167fddf252ad1be2c89b69c2b068fc378daa952ba7f163c4a11628f55a4df523b3ef8460405161397d91815260200190565b60405180910390a35b50505050565b60cf5461ffff166000826139ab576139a68561231961209d565b6139b3565b6139b361209d565b60ce549091506001600160681b03168111156139fe5760405162461bcd60e51b815260206004820152600a6024820152690457863656564206361760b41b604482015260640161117a565b60cd54600160a01b900466ffffffffffffff16811015613a575760405162461bcd60e51b8152602060048201526014602482015273496e73756666696369656e742062616c616e636560601b604482015260640161117a565b60408051868152602081018490526001600160a01b038616917f90890809c654f11d6e72a28fa60149770a0d11ec6c92319d6ceb2bb0a4ea1a15910160405180910390a26001600160a01b038416600090815260c9602090815260408083208151606081018352905461ffff81168083526201000082046001600160681b031683860152600160781b9091046001600160801b031682840152845260ca90925282205460cc54919291613b16918491879190610100900460ff166149d0565b8251909150879061ffff16851415613b47576020830151600090613b43906001600160681b03168a614153565b9150505b613b5081613d38565b6040805160608101825261ffff80881682526001600160681b0380851660208085019182526001600160801b038089168688019081526001600160a01b038f16600090815260c990935296822095518654935197518216600160781b02600160781b600160f81b03199890951662010000026effffffffffffffffffffffffffffff1990941695169490941791909117949094161790915560d054613bf691168a614153565b9050613c018161415f565b60d080546001600160801b0319166001600160801b03929092169190911790555050505050505050565b6040516001600160a01b03808516602483015283166044820152606481018290526139869085906323b872dd60e01b906084015b60408051601f198184030181529190526020810180516001600160e01b03166001600160e01b031990931692909217909152614ba7565b600080613ca483600a615a0c565b905060008611613cb45780613ccc565b613ccc8661330c613cc588886137b0565b8490614a41565b9695505050505050565b600060018311613d205760405162461bcd60e51b8152602060048201526015602482015274496e76616c6964206173736574506572536861726560581b604482015260640161117a565b61139b613d2e83600a615a0c565b61330c8686614a41565b6001600160681b03811115611b0d5760405162461bcd60e51b815260206004820152601060248201526f13dd995c999b1bddc81d5a5b9d0c4c0d60821b604482015260640161117a565b6040805160c081018252600080825260208201819052918101829052606081018290526080810182905260a081019190915260f85480613dfc5760405162461bcd60e51b81526020600482015260156024820152742163757272656e744f746f6b656e5072656d69756d60581b604482015260640161117a565b60d2546001600160a01b0390811683527f000000000000000000000000000000000000000000000000000000000000000081166020840190815260cc546201000081048316604080870191825261010090920460ff16606087019081526080870186815260fb5460a089019081529351633baf17fd60e21b8152885187166004820152945186166024860152915190941660448401529251606483015291516084820152905160a4820152731c3774C538A50Db827f7f7b450160E0aFcbD41F89063eebc5ff49060c40160206040518083038186803b158015613ede57600080fd5b505af4158015613ef2573d6000803e3d6000fd5b505050506040513d601f19601f82011682018060405250810190613f169190615647565b60fc555050565b33600090815260c9602090815260408083208151606081018352905461ffff8082168084526201000083046001600160681b031684870152600160781b9092046001600160801b03168385015260cf5491865260ca9094529184205460cc5491949290931692613f989185918591610100900460ff166149d0565b905083613fa55784613fa7565b805b945084613fb5575050505050565b80851115613ff95760405162461bcd60e51b81526020600482015260116024820152704578636565647320617661696c61626c6560781b604482015260640161117a565b825161ffff168211156140265733600090815260c960205260409020805462010000600160781b03191690555b61402f8561415f565b61403981866137b0565b33600081815260c960205260409081902080546001600160801b0394909416600160781b02600160781b600160f81b0319909416939093179092558451915190917fe5b754fb1abb7f01b499791d0b820ae3b6af3424ac1c59768edb53f4ec31a929916140b29189825261ffff16602082015260400190565b60405180910390a26140c53033876137bc565b5050505050565b606580546001600160a01b038381166001600160a01b0319831681179093556040519116919082907f8be0079c531659141344cd1fd0a4f28419497f9722a3daafe3b4186f6b6457e090600090a35050565b6040516001600160a01b03831660248201526044810182905261414e90849063a9059cbb60e01b90606401613c5f565b505050565b600061125c8284615991565b6001600160801b03811115611b0d5760405162461bcd60e51b815260206004820152601060248201526f09eeccae4ccd8deee40ead2dce86264760831b604482015260640161117a565b60d2546000908190600160a01b900463ffffffff164210156141f65760405162461bcd60e51b815260206004820152600660248201526521726561647960d01b604482015260640161117a565b60d1546001600160a01b03168061423d5760405162461bcd60e51b815260206004820152600b60248201526a10b732bc3a27b83a34b7b760a91b604482015260640161117a565b600080600080600080731c3774C538A50Db827f7f7b450160E0aFcbD41F863633c142660cf6040518060c0016040528060cc60000160019054906101000a900460ff1660ff16815260200161429061209d565b815260200161429e60995490565b81526020018e815260200160d554815260200160d6548152506040518363ffffffff1660e01b815260040161431a929190600060e08201905083825282516020830152602083015160408301526040830151606083015260608301516080830152608083015160a083015260a083015160c08301529392505050565b60c06040518083038186803b15801561433257600080fd5b505af4158015614346573d6000803e3d6000fd5b505050506040513d601f19601f8201168201806040525081019061436a9190615680565b9550955095509550955095508660d160010160006101000a8154816001600160a01b0302191690836001600160a01b03160217905550600060d160000160006101000a8154816001600160a01b0302191690836001600160a01b03160217905550600060d360009054906101000a90046001600160a01b0316905060007f00000000000000000000000000000000000000000000000000000000000000009050600060cf60000160009054906101000a900461ffff1661ffff1690508660ca600083815260200190815260200160002081905550735CbB58FBd5E53A8db156C1261403b14dc618F3db636627a9d47f0000000000000000000000000000000000000000000000000000000000000000847f00000000000000000000000000000000000000000000000000000000000000006040518463ffffffff1660e01b81526004016144d7939291906001600160a01b0393841681529183166020830152909116604082015260600190565b60006040518083038186803b1580156144ef57600080fd5b505af4158015614503573d6000803e3d6000fd5b505060408051888152602081018890529081018490526001600160a01b03861692507f0a242f7ecaf711036ca770774ceffae28e60ef042ac113ddd187f2631db0c006915060600160405180910390a260d080546001600160801b031916905561456e816001615991565b60cf805461ffff191661ffff9290921691909117905561458d89613d38565b60cf805462010000600160781b031916620100006001600160681b038c16021790556145b93087614c79565b8315614683576040516305ffc87f60e31b81526001600160a01b0380841660048301527f0000000000000000000000000000000000000000000000000000000000000000811660248301528416604482015260648101859052735CbB58FBd5E53A8db156C1261403b14dc618F3db90632ffe43f89060840160206040518083038186803b15801561464957600080fd5b505af415801561465d573d6000803e3d6000fd5b505050506040513d601f19601f820116820180604052508101906146819190615647565b505b50979b959a509498505050505050505050565b600054610100900460ff16806146af575060005460ff16155b6146cb5760405162461bcd60e51b815260040161117a906158d7565b600054610100900460ff161580156146ed576000805461ffff19166101011790555b60405163c72733f760e01b8152731c3774C538A50Db827f7f7b450160E0aFcbD41F89063c72733f790614732908c908c908c908b908d908c908c908c90600401615711565b60006040518083038186803b15801561474a57600080fd5b505af415801561475e573d6000803e3d6000fd5b5050505061476a614d58565b6147748484614dcb565b61477c614e4a565b61478589613091565b60d480546001600160a01b03808b166001600160a01b03199283161790925560d38054928a169290911691909117905560d58590556147cf63031ba30961330c88620f4240614a41565b60d6558160cc6147df8282615bb9565b90505060006147ec61209d565b90506147f781613d38565b60cf805461ffff196001600160681b03909316600160781b02929092167fffffffff00000000000000000000000000ffffffffffffffffffffffffff00009092169190911760011790558015614853576000805461ff00191690555b505050505050505050565b60cf546201000090046001600160681b03166001600160a01b038216156148aa5760cf80546cffffffffffffffffffffffffff60781b1916600160781b6001600160681b038416021790555b60cf805462010000600160781b031916905560d280546001600160a01b03191690556001600160a01b03821615611a5457604051636c6fe87f60e11b81526001600160a01b037f0000000000000000000000000000000000000000000000000000000000000000166004820152600090731c3774C538A50Db827f7f7b450160E0aFcbD41F89063d8dfd0fe9060240160206040518083038186803b15801561495157600080fd5b505af4158015614965573d6000803e3d6000fd5b505050506040513d601f19601f820116820180604052508101906149899190615647565b9050336001600160a01b0316836001600160a01b03167f7e830f7c1771deb1bdb35c4a7e6051bbac32b376f7f4e4976b8618b0b11997f78360405161346f91815260200190565b835160009061ffff16158015906149eb5750845161ffff1684115b15614a2d576000614a0a86602001516001600160681b03168585614eb1565b6040870151909150614a25906001600160801b031682614153565b91505061139b565b50505050604001516001600160801b031690565b600061125c8284615ab4565b600061125c82846159a9565b6001600160a01b038216614ab95760405162461bcd60e51b815260206004820152602160248201527f45524332303a206275726e2066726f6d20746865207a65726f206164647265736044820152607360f81b606482015260840161117a565b6001600160a01b03821660009081526097602052604090205481811015614b2d5760405162461bcd60e51b815260206004820152602260248201527f45524332303a206275726e20616d6f756e7420657863656564732062616c616e604482015261636560f01b606482015260840161117a565b6001600160a01b0383166000908152609760205260408120838303905560998054849290614b5c908490615ad3565b90915550506040518281526000906001600160a01b038516907fddf252ad1be2c89b69c2b068fc378daa952ba7f163c4a11628f55a4df523b3ef9060200160405180910390a3505050565b6000614bfc826040518060400160405280602081526020017f5361666545524332303a206c6f772d6c6576656c2063616c6c206661696c6564815250856001600160a01b0316614f149092919063ffffffff16565b80519091501561414e5780806020019051810190614c1a91906155ec565b61414e5760405162461bcd60e51b815260206004820152602a60248201527f5361666545524332303a204552433230206f7065726174696f6e20646964206e6044820152691bdd081cdd58d8d9595960b21b606482015260840161117a565b6001600160a01b038216614ccf5760405162461bcd60e51b815260206004820152601f60248201527f45524332303a206d696e7420746f20746865207a65726f206164647265737300604482015260640161117a565b8060996000828254614ce19190615991565b90915550506001600160a01b03821660009081526097602052604081208054839290614d0e908490615991565b90915550506040518181526001600160a01b038316906000907fddf252ad1be2c89b69c2b068fc378daa952ba7f163c4a11628f55a4df523b3ef9060200160405180910390a35050565b600054610100900460ff1680614d71575060005460ff16155b614d8d5760405162461bcd60e51b815260040161117a906158d7565b600054610100900460ff16158015614daf576000805461ffff19166101011790555b614db7614f23565b8015611b0d576000805461ff001916905550565b600054610100900460ff1680614de4575060005460ff16155b614e005760405162461bcd60e51b815260040161117a906158d7565b600054610100900460ff16158015614e22576000805461ffff19166101011790555b614e2a614f92565b614e348383614ffc565b801561414e576000805461ff0019169055505050565b600054610100900460ff1680614e63575060005460ff16155b614e7f5760405162461bcd60e51b815260040161117a906158d7565b600054610100900460ff16158015614ea1576000805461ffff19166101011790555b614ea9614f92565b614db7615091565b600060018311614efb5760405162461bcd60e51b8152602060048201526015602482015274496e76616c6964206173736574506572536861726560581b604482015260640161117a565b61139b8361330c614f0d85600a615a0c565b8790614a41565b606061139b84846000856150f1565b600054610100900460ff1680614f3c575060005460ff16155b614f585760405162461bcd60e51b815260040161117a906158d7565b600054610100900460ff16158015614f7a576000805461ffff19166101011790555b600180558015611b0d576000805461ff001916905550565b600054610100900460ff1680614fab575060005460ff16155b614fc75760405162461bcd60e51b815260040161117a906158d7565b600054610100900460ff16158015614db7576000805461ffff19166101011790558015611b0d576000805461ff001916905550565b600054610100900460ff1680615015575060005460ff16155b6150315760405162461bcd60e51b815260040161117a906158d7565b600054610100900460ff16158015615053576000805461ffff19166101011790555b825161506690609a906020860190615252565b50815161507a90609b906020850190615252565b50801561414e576000805461ff0019169055505050565b600054610100900460ff16806150aa575060005460ff16155b6150c65760405162461bcd60e51b815260040161117a906158d7565b600054610100900460ff161580156150e8576000805461ffff19166101011790555b614db7336140cc565b6060824710156151525760405162461bcd60e51b815260206004820152602660248201527f416464726573733a20696e73756666696369656e742062616c616e636520666f6044820152651c8818d85b1b60d21b606482015260840161117a565b843b6151a05760405162461bcd60e51b815260206004820152601d60248201527f416464726573733a2063616c6c20746f206e6f6e2d636f6e7472616374000000604482015260640161117a565b600080866001600160a01b031685876040516151bc91906156f5565b60006040518083038185875af1925050503d80600081146151f9576040519150601f19603f3d011682016040523d82523d6000602084013e6151fe565b606091505b509150915061520e828286615219565b979650505050505050565b6060831561522857508161125c565b8251156152385782518084602001fd5b8160405162461bcd60e51b815260040161117a91906158a3565b82805461525e90615b16565b90600052602060002090601f01602090048101928261528057600085556152c6565b82601f1061529957805160ff19168380011785556152c6565b828001600101855582156152c6579182015b828111156152c65782518255916020019190600101906152ab565b506152d29291506152d6565b5090565b5b808211156152d257600081556001016152d7565b80356152f681615cca565b919050565b600082601f83011261530b578081fd5b813567ffffffffffffffff8082111561532657615326615b7c565b604051601f8301601f19908116603f0116810190828211818310171561534e5761534e615b7c565b81604052838152866020858801011115615366578485fd5b8360208701602083013792830160200193909352509392505050565b600060c08284031215615393578081fd5b50919050565b80356152f681615ced565b803563ffffffff811681146152f657600080fd5b80356152f681615d02565b6000602082840312156153d4578081fd5b813561125c81615cca565b600080604083850312156153f1578081fd5b82356153fc81615cca565b9150602083013561540c81615cca565b809150509250929050565b6000806000806000806000806000806000806102208d8f031215615439578788fd5b6154428d6152eb565b9b5061545060208e016152eb565b9a5061545e60408e016152eb565b995060608d0135985060808d0135975067ffffffffffffffff60a08e01351115615486578687fd5b6154968e60a08f01358f016152fb565b965067ffffffffffffffff60c08e013511156154b0578586fd5b6154c08e60c08f01358f016152fb565b95506154ce60e08e016152eb565b94506154dd6101008e016152eb565b93506154ec6101208e016153a4565b92506101408d013591506155048e6101608f01615382565b90509295989b509295989b509295989b565b60008060006060848603121561552a578283fd5b833561553581615cca565b9250602084013561554581615cca565b929592945050506040919091013590565b60008060408385031215615568578182fd5b823561557381615cca565b9150602083013561540c81615cdf565b60008060408385031215615595578182fd5b82356155a081615cca565b946020939093013593505050565b600080600080608085870312156155c3578384fd5b84516155ce81615cca565b60208601516040870151606090970151919890975090945092505050565b6000602082840312156155fd578081fd5b815161125c81615cdf565b600060208284031215615619578081fd5b81356001600160801b038116811461125c578182fd5b600060208284031215615640578081fd5b5035919050565b600060208284031215615658578081fd5b5051919050565b60008060408385031215615671578182fd5b50508035926020909101359150565b60008060008060008060c08789031215615698578384fd5b865195506020870151945060408701519350606087015192506080870151915060a087015190509295509295509295565b600081518084526156e1816020860160208601615aea565b601f01601f19169290920160200192915050565b60008251615707818460208701615aea565b9190910192915050565b60006101a060018060a01b03808c168452808b166020850152808a1660408501528860608501528760808501528160a0850152615750828501886156c9565b915083820360c085015261576482876156c9565b92508435915061577382615cdf565b90151560e084015260208401359061578a82615d17565b60ff8216610100850152604085013591506157a482615cca565b166101208301526157b7606084016152eb565b6001600160a01b03166101408301526157d2608084016153b8565b66ffffffffffffff166101608301526157ed60a08401615399565b6001600160681b038116610180840152509998505050505050505050565b60006101808201905060018060a01b03808a16835280891660208401528760408401528087511660608401528060208801511660808401528060408801511660a084015250606086015160c083015261ffff60808701511660e083015260a086015161010083015284610120830152836101408301526158976101608301846001600160a01b03169052565b98975050505050505050565b60208152600061125c60208301846156c9565b60208082526007908201526610b5b2b2b832b960c91b604082015260600190565b6020808252602e908201527f496e697469616c697a61626c653a20636f6e747261637420697320616c72656160408201526d191e481a5b9a5d1a585b1a5e995960921b606082015260800190565b6020808252818101527f4f776e61626c653a2063616c6c6572206973206e6f7420746865206f776e6572604082015260600190565b6020808252601f908201527f5265656e7472616e637947756172643a207265656e7472616e742063616c6c00604082015260600190565b600082198211156159a4576159a4615b66565b500190565b6000826159c457634e487b7160e01b81526012600452602481fd5b500490565b600181815b80851115615a045781600019048211156159ea576159ea615b66565b808516156159f757918102915b93841c93908002906159ce565b509250929050565b600061125c8383600082615a2257506001611151565b81615a2f57506000611151565b8160018114615a455760028114615a4f57615a6b565b6001915050611151565b60ff841115615a6057615a60615b66565b50506001821b611151565b5060208310610133831016604e8410600b8410161715615a8e575081810a611151565b615a9883836159c9565b8060001904821115615aac57615aac615b66565b029392505050565b6000816000190483118215151615615ace57615ace615b66565b500290565b600082821015615ae557615ae5615b66565b500390565b60005b83811015615b05578181015183820152602001615aed565b838111156139865750506000910152565b600181811c90821680615b2a57607f821691505b6020821081141561539357634e487b7160e01b600052602260045260246000fd5b6000600019821415615b5f57615b5f615b66565b5060010190565b634e487b7160e01b600052601160045260246000fd5b634e487b7160e01b600052604160045260246000fd5b6000813561115181615cca565b6000813561115181615ced565b6000813561115181615d02565b8135615bc481615cdf565b815460ff19811691151560ff1691821783556020840135615be481615d17565b61ff008160081b169050808361ffff198416171784556040850135615c0881615cca565b6001600160b01b0319929092169092179190911760109190911b62010000600160b01b031617815560018101615c60615c4360608501615b92565b82546001600160a01b0319166001600160a01b0391909116178255565b615c99615c6f60808501615bac565b82805466ffffffffffffff60a01b191660a09290921b66ffffffffffffff60a01b16919091179055565b50611a54615ca960a08401615b9f565b600283016001600160681b0382166001600160681b03198254161781555050565b6001600160a01b0381168114611b0d57600080fd5b8015158114611b0d57600080fd5b6001600160681b0381168114611b0d57600080fd5b66ffffffffffffff81168114611b0d57600080fd5b60ff81168114611b0d57600080fdfea26469706673582212209c346de073057b20f2cfc4f677e4a53ebe49c00be927d0a0bb12973506abcafc64736f6c63430008040033",
  "deployedBytecode": "0x6080604052600436106104685760003560e01c80638b10cc7c1161024a578063b9f8092b11610139578063e00bfe50116100b6578063f2fde38b1161007a578063f2fde38b14611011578063f6326fb314611031578063f656ba5114611039578063f957a0671461106e578063fe56e2321461108e57600080fd5b8063e00bfe5014610f72578063e16fdbd514610fa6578063e73c63d514610fc6578063e74b981b14610fdc578063ea00b1ca14610ffc57600080fd5b8063d5f26382116100fd578063d5f2638214610e8e578063d88bba1114610ea4578063db006a7514610ed8578063db43e86214610ef8578063dd62ed3e14610f2c57600080fd5b8063b9f8092b14610df9578063c632183914610e0e578063ce7c2ac214610e2e578063d13f1b3e14610e4e578063d164cc1514610e6e57600080fd5b8063a497e674116101c7578063ad5c46481161018b578063ad5c464814610d45578063ad7a672f14610d79578063afa6626414610d8e578063b2016bd414610dae578063b4d1d79514610de257600080fd5b8063a497e67414610cbc578063a6f7f5d614610cdc578063a9059cbb14610cf2578063aa67c91914610d12578063aced166114610d2557600080fd5b80639fcc2d751161020e5780639fcc2d7514610b4d578063a083ff1714610bf9578063a285c9e814610c5c578063a2db9d8314610c7e578063a457c2d714610c9c57600080fd5b80638b10cc7c14610ac75780638da5cb5b14610ae557806395d89b4114610b0357806399530b0614610b185780639be43daa14610b2d57600080fd5b8063503c70aa1161036657806370a08231116102e35780637e108d52116102a75780637e108d5214610a1a57806383536ff314610a3a57806387153eb114610a505780638778878214610a7d57806389a3027114610a9357600080fd5b806370a0823114610936578063715018a61461096c5780637400173d146109815780637a9262a2146109a15780637bf5108614610a0557600080fd5b806369b411701161032a57806369b41170146108a35780636b64c769146108b85780636c10f66c146108cd5780636f31ab341461090157806370897b231461091657600080fd5b8063503c70aa146107a057806355489bb2146107b6578063600a2cfb146107d6578063650cce8a146107eb5780636719b2ee1461081f57600080fd5b806331807e42116103f45780633f90916a116103b85780633f90916a146106f8578063432833a614610716578063469048401461072c57806347786d371461074c5780634f6e746d1461076c57600080fd5b806331807e421461064c578063355274ea1461066c578063395093511461068a5780633ec143d3146106aa5780633f23bb73146106d857600080fd5b80631a92f6c21161043b5780631a92f6c2146105015780632087ed5c1461054d57806323b872dd1461056f5780632728f3331461058f578063313ce5671461062257600080fd5b806306fdde031461046d578063095ea7b3146104985780630cbf54c8146104c857806318160ddd146104ec575b600080fd5b34801561047957600080fd5b506104826110ae565b60405161048f91906158a3565b60405180910390f35b3480156104a457600080fd5b506104b86104b3366004615583565b611140565b604051901515815260200161048f565b3480156104d457600080fd5b506104de60fb5481565b60405190815260200161048f565b3480156104f857600080fd5b506099546104de565b34801561050d57600080fd5b506105357f000000000000000000000000000000000000000000000000000000000000000081565b6040516001600160a01b03909116815260200161048f565b34801561055957600080fd5b5061056d61056836600461562f565b611157565b005b34801561057b57600080fd5b506104b861058a366004615516565b6111b7565b34801561059b57600080fd5b5060cf5460d0546105dd9161ffff8116916001600160681b03620100008304811692600160781b900416906001600160801b0380821691600160801b90041685565b6040805161ffff90961686526001600160681b03948516602087015293909216928401929092526001600160801b03918216606084015216608082015260a00161048f565b34801561062e57600080fd5b5060cc54610100900460ff1660405160ff909116815260200161048f565b34801561065857600080fd5b5061056d61066736600461562f565b611263565b34801561067857600080fd5b5060ce546001600160681b03166104de565b34801561069657600080fd5b506104b86106a5366004615583565b611314565b3480156106b657600080fd5b5060f9546106c59061ffff1681565b60405161ffff909116815260200161048f565b3480156106e457600080fd5b506104de6106f33660046153c3565b611350565b34801561070457600080fd5b5060d0546001600160801b03166104de565b34801561072257600080fd5b506104de60fc5481565b34801561073857600080fd5b5060d354610535906001600160a01b031681565b34801561075857600080fd5b5061056d61076736600461562f565b6113a3565b34801561077857600080fd5b506105357f000000000000000000000000000000000000000000000000000000000000000081565b3480156107ac57600080fd5b506104de60fd5481565b3480156107c257600080fd5b5061056d6107d1366004615608565b61147e565b3480156107e257600080fd5b5061056d61153f565b3480156107f757600080fd5b506105357f000000000000000000000000000000000000000000000000000000000000000081565b34801561082b57600080fd5b5061087261083a3660046153c3565b60c96020526000908152604090205461ffff8116906201000081046001600160681b031690600160781b90046001600160801b031683565b6040805161ffff90941684526001600160681b0390921660208401526001600160801b03169082015260600161048f565b3480156108af57600080fd5b506104de600081565b3480156108c457600080fd5b5061056d61180e565b3480156108d957600080fd5b506105357f000000000000000000000000000000000000000000000000000000000000000081565b34801561090d57600080fd5b5061056d61186e565b34801561092257600080fd5b5061056d61093136600461562f565b6118a5565b34801561094257600080fd5b506104de6109513660046153c3565b6001600160a01b031660009081526097602052604090205490565b34801561097857600080fd5b5061056d61196c565b34801561098d57600080fd5b5061056d61099c366004615556565b6119a2565b3480156109ad57600080fd5b506109e36109bc3660046153c3565b60cb6020526000908152604090205461ffff8116906201000090046001600160801b031682565b6040805161ffff90931683526001600160801b0390911660208301520161048f565b348015610a1157600080fd5b5061056d611a58565b348015610a2657600080fd5b5061056d610a3536600461562f565b611b10565b348015610a4657600080fd5b506104de60f75481565b348015610a5c57600080fd5b506104de610a6b36600461562f565b60ca6020526000908152604090205481565b348015610a8957600080fd5b506104de60d55481565b348015610a9f57600080fd5b506105357f000000000000000000000000000000000000000000000000000000000000000081565b348015610ad357600080fd5b5060d2546001600160a01b0316610535565b348015610af157600080fd5b506065546001600160a01b0316610535565b348015610b0f57600080fd5b50610482611d4b565b348015610b2457600080fd5b506104de611d5a565b348015610b3957600080fd5b5061056d610b4836600461562f565b611d94565b348015610b5957600080fd5b5060cc5460cd5460ce54610ba99260ff808216936101008304909116926001600160a01b036201000090930483169282169166ffffffffffffff600160a01b90910416906001600160681b031686565b60408051961515875260ff90951660208701526001600160a01b03938416948601949094529116606084015266ffffffffffffff1660808301526001600160681b031660a082015260c00161048f565b348015610c0557600080fd5b5060d15460d254610c30916001600160a01b039081169190811690600160a01b900463ffffffff1683565b604080516001600160a01b03948516815293909216602084015263ffffffff169082015260600161048f565b348015610c6857600080fd5b5060d254600160a01b900463ffffffff166104de565b348015610c8a57600080fd5b5060d1546001600160a01b0316610535565b348015610ca857600080fd5b506104b8610cb7366004615583565b611e8e565b348015610cc857600080fd5b5061056d610cd736600461562f565b611f27565b348015610ce857600080fd5b506104de60d65481565b348015610cfe57600080fd5b506104b8610d0d366004615583565b611fe4565b61056d610d203660046153c3565b611ff1565b348015610d3157600080fd5b5060d454610535906001600160a01b031681565b348015610d5157600080fd5b506105357f000000000000000000000000000000000000000000000000000000000000000081565b348015610d8557600080fd5b506104de61209d565b348015610d9a57600080fd5b5060f554610535906001600160a01b031681565b348015610dba57600080fd5b506105357f000000000000000000000000000000000000000000000000000000000000000081565b348015610dee57600080fd5b506104de62093a8081565b348015610e0557600080fd5b5061056d612328565b348015610e1a57600080fd5b5061056d610e2936600461565f565b61260a565b348015610e3a57600080fd5b506104de610e493660046153c3565b612937565b348015610e5a57600080fd5b5061056d610e6936600461562f565b612954565b348015610e7a57600080fd5b5061056d610e893660046153c3565b612a18565b348015610e9a57600080fd5b506104de60f85481565b348015610eb057600080fd5b506105357f000000000000000000000000000000000000000000000000000000000000000081565b348015610ee457600080fd5b5061056d610ef336600461562f565b612aa7565b348015610f0457600080fd5b506105357f000000000000000000000000000000000000000000000000000000000000000081565b348015610f3857600080fd5b506104de610f473660046153df565b6001600160a01b03918216600090815260986020908152604080832093909416825291909152205490565b348015610f7e57600080fd5b506105357f000000000000000000000000000000000000000000000000000000000000000081565b348015610fb257600080fd5b5061056d610fc1366004615417565b612b14565b348015610fd257600080fd5b506104de60fa5481565b348015610fe857600080fd5b5061056d610ff73660046153c3565b612d20565b34801561100857600080fd5b5061056d612e13565b34801561101d57600080fd5b5061056d61102c3660046153c3565b613091565b61056d613129565b34801561104557600080fd5b506110596110543660046153c3565b613193565b6040805192835260208301919091520161048f565b34801561107a57600080fd5b5060f654610535906001600160a01b031681565b34801561109a57600080fd5b5061056d6110a936600461562f565b613276565b6060609a80546110bd90615b16565b80601f01602080910402602001604051908101604052809291908181526020018280546110e990615b16565b80156111365780601f1061110b57610100808354040283529160200191611136565b820191906000526020600020905b81548152906001019060200180831161111957829003601f168201915b5050505050905090565b600061114d338484613357565b5060015b92915050565b600260015414156111835760405162461bcd60e51b815260040161117a9061595a565b60405180910390fd5b600260015560006111938261347c565b60fd549091506111a390826137b0565b6001600160801b031660fd55505060018055565b60006111c48484846137bc565b6001600160a01b0384166000908152609860209081526040808320338452909152902054828110156112495760405162461bcd60e51b815260206004820152602860248201527f45524332303a207472616e7366657220616d6f756e74206578636565647320616044820152676c6c6f77616e636560c01b606482015260840161117a565b6112568533858403613357565b60019150505b9392505050565b600260015414156112865760405162461bcd60e51b815260040161117a9061595a565b6002600155806112c25760405162461bcd60e51b815260206004820152600760248201526608585b5bdd5b9d60ca1b604482015260640161117a565b6112d86112d08260016137b0565b33600061398c565b61130d6001600160a01b037f000000000000000000000000000000000000000000000000000000000000000016333084613c2b565b5060018055565b3360008181526098602090815260408083206001600160a01b0387168452909152812054909161114d91859061134b908690615991565b613357565b60cc5460009060ff610100909104168161138661136c60995490565b61137461209d565b60d0546001600160801b031685613c96565b905061139b61139485612937565b8284613cd6565b949350505050565b6065546001600160a01b031633146113cd5760405162461bcd60e51b815260040161117a90615925565b600081116114075760405162461bcd60e51b81526020600482015260076024820152660216e65774361760cc1b604482015260640161117a565b61141081613d38565b60ce54604080516001600160681b039092168252602082018390527f5f86edbb9d92228a9edc3f0ebc0f001bda1ea345ac7335e0eeef3504b31d1a1c910160405180910390a160ce80546cffffffffffffffffffffffffff19166001600160681b0392909216919091179055565b6065546001600160a01b031633146114a85760405162461bcd60e51b815260040161117a90615925565b600260015414156114cb5760405162461bcd60e51b815260040161117a9061595a565b60026001556001600160801b0381166115155760405162461bcd60e51b815260206004820152600c60248201526b21737472696b65507269636560a01b604482015260640161117a565b6001600160801b031660fa5560cf5460f9805461ffff191661ffff90921691909117905560018055565b60d4546001600160a01b031633146115695760405162461bcd60e51b815260040161117a906158b6565b6002600154141561158c5760405162461bcd60e51b815260040161117a9061595a565b600260015560d2546040516358ffbb3d60e01b81526001600160a01b037f000000000000000000000000000000000000000000000000000000000000000081166004830152909116602482015260009073__$c4f279750f4bbb575ac7775e752dc00849$__906358ffbb3d9060440160206040518083038186803b15801561161357600080fd5b505af4158015611627573d6000803e3d6000fd5b505050506040513d601f19601f8201168201806040525081019061164b9190615647565b604051632eca54bf60e21b815260048101829052909150611702906001600160a01b037f0000000000000000000000000000000000000000000000000000000000000000169063bb2952fc9060240160206040518083038186803b1580156116b257600080fd5b505afa1580156116c6573d6000803e3d6000fd5b505050506040513d601f19601f820116820180604052508101906116ea9190615647565b60cf546201000090046001600160681b0316906137b0565b60cf805462010000600160781b031916620100006001600160681b039390931692909202919091179055604051631989ea7560e21b81526001600160a01b037f0000000000000000000000000000000000000000000000000000000000000000811660048301527f0000000000000000000000000000000000000000000000000000000000000000811660248301527f000000000000000000000000000000000000000000000000000000000000000016604482015273__$09b2ed88edfa44a3a64aec022eed7f982f$__90636627a9d49060640160006040518083038186803b1580156117ef57600080fd5b505af4158015611803573d6000803e3d6000fd5b505060018055505050565b60d4546001600160a01b031633146118385760405162461bcd60e51b815260040161117a906158b6565b6002600154141561185b5760405162461bcd60e51b815260040161117a9061595a565b6002600155611868613d82565b60018055565b600260015414156118915760405162461bcd60e51b815260040161117a9061595a565b600260018190555061186860006001613f1d565b6065546001600160a01b031633146118cf5760405162461bcd60e51b815260040161117a90615925565b6118dd620f42406064615ab4565b811061192b5760405162461bcd60e51b815260206004820152601760248201527f496e76616c696420706572666f726d616e636520666565000000000000000000604482015260640161117a565b60d55460408051918252602082018390527f24867dfb6fcb9970a07be21024956524abe7a1837faa903ff0e99aaa40cf893e910160405180910390a160d555565b6065546001600160a01b031633146119965760405162461bcd60e51b815260040161117a90615925565b6119a060006140cc565b565b6065546001600160a01b031633146119cc5760405162461bcd60e51b815260040161117a90615925565b6001600160a01b038216611a115760405162461bcd60e51b815260206004820152600c60248201526b085b995dd0dbdb9d1c9858dd60a21b604482015260640161117a565b8015611a385760f680546001600160a01b0384166001600160a01b03199091161790555050565b60f580546001600160a01b0319166001600160a01b0384161790555b5050565b60d3546040516370a0823160e01b81523060048201527f000000000000000000000000000000000000000000000000000000000000000091611b0d916001600160a01b03918216918416906370a082319060240160206040518083038186803b158015611ac457600080fd5b505afa158015611ad8573d6000803e3d6000fd5b505050506040513d601f19601f82011682018060405250810190611afc9190615647565b6001600160a01b038416919061411e565b50565b60026001541415611b335760405162461bcd60e51b815260040161117a9061595a565b600260015580611b725760405162461bcd60e51b815260206004820152600a602482015269216e756d53686172657360b01b604482015260640161117a565b33600090815260c960205260409020546201000090046001600160681b0316151580611bbc575033600090815260c96020526040902054600160781b90046001600160801b031615155b15611bcd57611bcd60006001613f1d565b60cf5433600081815260cb60209081526040918290208054835187815261ffff96871693810184905292959194911685149290917f0c53c82ad07e2d592d88ece3b066777dd60f1118e2a081b380efc4358f0d9e2a910160405180910390a281546201000090046001600160801b031660008215611c5657611c4f8287614153565b9050611cb9565b8115611c985760405162461bcd60e51b81526020600482015260116024820152704578697374696e6720776974686472617760781b604482015260640161117a565b5033600090815260cb60205260409020805461ffff191661ffff8616179055845b611cc28161415f565b33600090815260cb6020526040812080546001600160801b03808516620100000262010000600160901b03199092169190911790915560d054611d0e91600160801b9091041688614153565b9050611d198161415f565b60d080546001600160801b03808416600160801b029116179055611d3e3330896137bc565b5050600180555050505050565b6060609b80546110bd90615b16565b6000611d8f611d6860995490565b611d7061209d565b60d05460cc546001600160801b0390911690610100900460ff16613c96565b905090565b60026001541415611db75760405162461bcd60e51b815260040161117a9061595a565b600260015580611df65760405162461bcd60e51b815260206004820152600a602482015269216e756d526f756e647360b01b604482015260640161117a565b60cf5461ffff1660005b82811015611e85576000611e148284615991565b600081815260ca602052604090205490915015611e615760405162461bcd60e51b815260206004820152600b60248201526a125b9a5d1a585b1a5e995960aa1b604482015260640161117a565b600090815260ca602052604090206001905580611e7d81615b4b565b915050611e00565b50506001805550565b3360009081526098602090815260408083206001600160a01b038616845290915281205482811015611f105760405162461bcd60e51b815260206004820152602560248201527f45524332303a2064656372656173656420616c6c6f77616e63652062656c6f77604482015264207a65726f60d81b606482015260840161117a565b611f1d3385858403613357565b5060019392505050565b6065546001600160a01b03163314611f515760405162461bcd60e51b815260040161117a90615925565b61012c811015611fa35760405162461bcd60e51b815260206004820152601860248201527f496e76616c69642061756374696f6e206475726174696f6e0000000000000000604482015260640161117a565b60fb5460408051918252602082018390527f5acd982e2240ed224a69aa03dab039d3797c108e4b5f288cd7dd6ca181b275f3910160405180910390a160fb55565b600061114d3384846137bc565b600260015414156120145760405162461bcd60e51b815260040161117a9061595a565b60026001553461204f5760405162461bcd60e51b81526020600482015260066024820152652176616c756560d01b604482015260640161117a565b6001600160a01b0381166120915760405162461bcd60e51b815260206004820152600960248201526810b1b932b234ba37b960b91b604482015260640161117a565b61130d3482600161398c565b6040516370a0823160e01b815230600482015260009081906001600160a01b037f000000000000000000000000000000000000000000000000000000000000000016906370a082319060240160206040518083038186803b15801561210157600080fd5b505afa158015612115573d6000803e3d6000fd5b505050506040513d601f19601f820116820180604052508101906121399190615647565b6040516370a0823160e01b815230600482015290915047906000907f00000000000000000000000000000000000000000000000000000000000000006001600160a01b03169063bb2952fc9082906370a082319060240160206040518083038186803b1580156121a857600080fd5b505afa1580156121bc573d6000803e3d6000fd5b505050506040513d601f19601f820116820180604052508101906121e09190615647565b6040518263ffffffff1660e01b81526004016121fe91815260200190565b60206040518083038186803b15801561221657600080fd5b505afa15801561222a573d6000803e3d6000fd5b505050506040513d601f19601f8201168201806040525081019061224e9190615647565b6040516370a0823160e01b81523060048201529091506000906001600160a01b037f000000000000000000000000000000000000000000000000000000000000000016906370a082319060240160206040518083038186803b1580156122b357600080fd5b505afa1580156122c7573d6000803e3d6000fd5b505050506040513d601f19601f820116820180604052508101906122eb9190615647565b60cf5490915061231f9082906123199085908290889082908b906201000090046001600160681b0316614153565b90614153565b94505050505090565b60d4546001600160a01b031633146123525760405162461bcd60e51b815260040161117a906158b6565b600260015414156123755760405162461bcd60e51b815260040161117a9061595a565b600260018190555060008061238b60fd546141a9565b60fd81905560405162b0e38960e81b81526004810182905291935091506000906124d0907f00000000000000000000000000000000000000000000000000000000000000006001600160a01b03169063b0e389009060240160206040518083038186803b1580156123fb57600080fd5b505afa15801561240f573d6000803e3d6000fd5b505050506040513d601f19601f820116820180604052508101906124339190615647565b6040516370a0823160e01b81523060048201527f00000000000000000000000000000000000000000000000000000000000000006001600160a01b0316906370a082319060240160206040518083038186803b15801561249257600080fd5b505afa1580156124a6573d6000803e3d6000fd5b505050506040513d601f19601f820116820180604052508101906124ca9190615647565b906137b0565b9050336001600160a01b0316836001600160a01b03167f045c558fdce4714c5816d53820d27420f4cd860892df203fe636384d8d19aa018360405161251791815260200190565b60405180910390a3604051632904c23960e01b81526001600160a01b037f0000000000000000000000000000000000000000000000000000000000000000811660048301527f000000000000000000000000000000000000000000000000000000000000000081166024830152841660448201526064810182905273__$09b2ed88edfa44a3a64aec022eed7f982f$__90632904c2399060840160206040518083038186803b1580156125c957600080fd5b505af41580156125dd573d6000803e3d6000fd5b505050506040513d601f19601f820116820180604052508101906126019190615647565b50611e85613d82565b6002600154141561262d5760405162461bcd60e51b815260040161117a9061595a565b600260015533600090815260c96020526040902060cf5461ffff168361267f5760405162461bcd60e51b815260206004820152600760248201526608585b5bdd5b9d60ca1b604482015260640161117a565b815461ffff1681146126c35760405162461bcd60e51b815260206004820152600d60248201526c125b9d985b1a59081c9bdd5b99609a1b604482015260640161117a565b81546201000090046001600160681b0316848110156127145760405162461bcd60e51b815260206004820152600d60248201526c115e18d9595908185b5bdd5b9d609a1b604482015260640161117a565b61271e81866137b0565b83546001600160681b0391909116620100000262010000600160781b031990911617835560d054612758906001600160801b0316866137b0565b60d080546001600160801b0319166001600160801b0392909216919091179055604080518681526020810184905233917fab2daf3c146ca6416cbccd2a86ed2ba995e171ef6319df14a38aef01403a9c96910160405180910390a2604051631d6c315760e01b8152600481018690526001600160a01b037f0000000000000000000000000000000000000000000000000000000000000000811660248301527f0000000000000000000000000000000000000000000000000000000000000000811660448301527f00000000000000000000000000000000000000000000000000000000000000001660648201526084810185905260009073__$09b2ed88edfa44a3a64aec022eed7f982f$__90631d6c31579060a40160206040518083038186803b15801561288757600080fd5b505af415801561289b573d6000803e3d6000fd5b505050506040513d601f19601f820116820180604052508101906128bf9190615647565b604051635c921eb960e01b81523360048201526024810182905290915073__$09b2ed88edfa44a3a64aec022eed7f982f$__90635c921eb99060440160006040518083038186803b15801561291357600080fd5b505af4158015612927573d6000803e3d6000fd5b5050600180555050505050505050565b600080600061294584613193565b909250905061139b8282614153565b6065546001600160a01b0316331461297e5760405162461bcd60e51b815260040161117a90615925565b6000811180156129985750612995600a6064615ab4565b81105b6129d75760405162461bcd60e51b815260206004820152601060248201526f125b9d985b1a5908191a5cd8dbdd5b9d60821b604482015260640161117a565b60f75460408051918252602082018390527f4cd657fde404967d63a338fb06c5c98751a9df57dfae6dc333a432faf8a5f656910160405180910390a160f755565b6065546001600160a01b03163314612a425760405162461bcd60e51b815260040161117a90615925565b6001600160a01b038116612a855760405162461bcd60e51b815260206004820152600a60248201526910b732bba5b2b2b832b960b11b604482015260640161117a565b60d480546001600160a01b0319166001600160a01b0392909216919091179055565b60026001541415612aca5760405162461bcd60e51b815260040161117a9061595a565b600260015580612b095760405162461bcd60e51b815260206004820152600a602482015269216e756d53686172657360b01b604482015260640161117a565b61130d816000613f1d565b600054610100900460ff1680612b2d575060005460ff16155b612b495760405162461bcd60e51b815260040161117a906158d7565b600054610100900460ff16158015612b6b576000805461ffff19166101011790555b612b7b8d8d8d8d8d8d8d89614696565b6001600160a01b038616612bca5760405162461bcd60e51b815260206004820152601660248201527510afb7b83a34b7b739a83932b6b4bab6a83934b1b2b960511b604482015260640161117a565b6001600160a01b038516612c145760405162461bcd60e51b815260206004820152601160248201527010afb9ba3934b5b2a9b2b632b1ba34b7b760791b604482015260640161117a565b60008463ffffffff16118015612c3a5750612c31600a6064615ab4565b8463ffffffff16105b612c7a5760405162461bcd60e51b81526020600482015260116024820152700857dc1c995b5a5d5b511a5cd8dbdd5b9d607a1b604482015260640161117a565b61012c831015612cc05760405162461bcd60e51b815260206004820152601160248201527010afb0bab1ba34b7b7223ab930ba34b7b760791b604482015260640161117a565b60f580546001600160a01b038089166001600160a01b03199283161790925560f680549288169290911691909117905563ffffffff841660f75560fb8390558015612d11576000805461ff00191690555b50505050505050505050505050565b6065546001600160a01b03163314612d4a5760405162461bcd60e51b815260040161117a90615925565b6001600160a01b038116612d935760405162461bcd60e51b815260206004820152601060248201526f085b995dd19959549958da5c1a595b9d60821b604482015260640161117a565b60d3546001600160a01b0382811691161415612df15760405162461bcd60e51b815260206004820152601860248201527f4d757374206265206e657720666565526563697069656e740000000000000000604482015260640161117a565b60d380546001600160a01b0319166001600160a01b0392909216919091179055565b60026001541415612e365760405162461bcd60e51b815260040161117a9061595a565b600260015560d2546040805160c0810182526001600160a01b037f0000000000000000000000000000000000000000000000000000000000000000811682527f00000000000000000000000000000000000000000000000000000000000000008116602083015292831681830181905260006060830181905260f95461ffff16608084015260fa5460a084015260f65460f55460f75495516303a20e3d60e01b815293969495929485948594859473__$09b2ed88edfa44a3a64aec022eed7f982f$__946303a20e3d94612f3d94928116939116918b9060cc9060cf907f00000000000000000000000000000000000000000000000000000000000000009060040161580b565b60806040518083038186803b158015612f5557600080fd5b505af4158015612f69573d6000803e3d6000fd5b505050506040513d601f19601f82011682018060405250810190612f8d91906155ae565b93509350935093507fa217999b1c125c2a996f712c5f26a28addad7167bd8a67d5bd5b2a751148abb08282604051612fcf929190918252602082015260400190565b60405180910390a1612fe083613d38565b6001600160681b03831660f85560d180546001600160a01b0319166001600160a01b03861617905560006130144282614153565b905063ffffffff81111561306a5760405162461bcd60e51b815260206004820152601860248201527f4f766572666c6f77206e6578744f7074696f6e52656164790000000000000000604482015260640161117a565b60d2805463ffffffff60a01b1916600160a01b63ffffffff841602179055611d3e8761485e565b6065546001600160a01b031633146130bb5760405162461bcd60e51b815260040161117a90615925565b6001600160a01b0381166131205760405162461bcd60e51b815260206004820152602660248201527f4f776e61626c653a206e6577206f776e657220697320746865207a65726f206160448201526564647265737360d01b606482015260840161117a565b611b0d816140cc565b6002600154141561314c5760405162461bcd60e51b815260040161117a9061595a565b6002600155346131875760405162461bcd60e51b81526020600482015260066024820152652176616c756560d01b604482015260640161117a565b6118683433600161398c565b6001600160a01b038116600090815260c9602090815260408083208151606081018352905461ffff81168083526201000082046001600160681b031694830194909452600160781b90046001600160801b031691810191909152829160011115613215575050506001600160a01b031660009081526097602052604081205491565b60cf54815161ffff908116600090815260ca602052604081205460cc54919361324b93869391169190610100900460ff166149d0565b905061326c856001600160a01b031660009081526097602052604090205490565b9590945092505050565b6065546001600160a01b031633146132a05760405162461bcd60e51b815260040161117a90615925565b6132ae620f42406064615ab4565b81106132f55760405162461bcd60e51b8152602060048201526016602482015275496e76616c6964206d616e6167656d656e742066656560501b604482015260640161117a565b600061331263031ba30961330c84620f4240614a41565b90614a4d565b60d65460408051918252602082018590529192507f4e874b007ab14f7e263baefd44951834c8266f4f224d1092e49e9c254354cc54910160405180910390a160d65550565b6001600160a01b0383166133b95760405162461bcd60e51b8152602060048201526024808201527f45524332303a20617070726f76652066726f6d20746865207a65726f206164646044820152637265737360e01b606482015260840161117a565b6001600160a01b03821661341a5760405162461bcd60e51b815260206004820152602260248201527f45524332303a20617070726f766520746f20746865207a65726f206164647265604482015261737360f01b606482015260840161117a565b6001600160a01b0383811660008181526098602090815260408083209487168084529482529182902085905590518481527f8c5be1e5ebec7d5bd14f71427d1e84f3dd0314c0f7b2291e5b200ac8c7c3b92591015b60405180910390a3505050565b33600090815260cb6020526040812080546001600160801b03620100008204169061ffff16816134de5760405162461bcd60e51b815260206004820152600d60248201526c139bdd081a5b9a5d1a585d1959609a1b604482015260640161117a565b60cf5461ffff1681106135265760405162461bcd60e51b815260206004820152601060248201526f149bdd5b99081b9bdd0818db1bdcd95960821b604482015260640161117a565b33600090815260cb60205260409020805462010000600160901b031916905560d05461356290600160801b90046001600160801b0316836137b0565b60d080546001600160801b03928316600160801b029216919091179055600081815260ca602052604081205460cc546135a591859160ff61010090910416613cd6565b604051631d6c315760e01b8152600481018290526001600160a01b037f0000000000000000000000000000000000000000000000000000000000000000811660248301527f0000000000000000000000000000000000000000000000000000000000000000811660448301527f00000000000000000000000000000000000000000000000000000000000000001660648201526084810188905290915060009073__$09b2ed88edfa44a3a64aec022eed7f982f$__90631d6c31579060a40160206040518083038186803b15801561367c57600080fd5b505af4158015613690573d6000803e3d6000fd5b505050506040513d601f19601f820116820180604052508101906136b49190615647565b604080518281526020810187905291925033917ff279e6a1f5e320cca91135676d9cb6e44ca8a08c0b88342bcdb1144f6511b568910160405180910390a26136fc3085614a59565b6000811161373c5760405162461bcd60e51b815260206004820152600d60248201526c08585b5bdd5b9d11551213dd5d609a1b604482015260640161117a565b604051635c921eb960e01b81523360048201526024810182905273__$09b2ed88edfa44a3a64aec022eed7f982f$__90635c921eb99060440160006040518083038186803b15801561378d57600080fd5b505af41580156137a1573d6000803e3d6000fd5b50929998505050505050505050565b600061125c8284615ad3565b6001600160a01b0383166138205760405162461bcd60e51b815260206004820152602560248201527f45524332303a207472616e736665722066726f6d20746865207a65726f206164604482015264647265737360d81b606482015260840161117a565b6001600160a01b0382166138825760405162461bcd60e51b815260206004820152602360248201527f45524332303a207472616e7366657220746f20746865207a65726f206164647260448201526265737360e81b606482015260840161117a565b6001600160a01b038316600090815260976020526040902054818110156138fa5760405162461bcd60e51b815260206004820152602660248201527f45524332303a207472616e7366657220616d6f756e7420657863656564732062604482015265616c616e636560d01b606482015260840161117a565b6001600160a01b03808516600090815260976020526040808220858503905591851681529081208054849290613931908490615991565b92505081905550826001600160a01b0316846001600160a01b03167fddf252ad1be2c89b69c2b068fc378daa952ba7f163c4a11628f55a4df523b3ef8460405161397d91815260200190565b60405180910390a35b50505050565b60cf5461ffff166000826139ab576139a68561231961209d565b6139b3565b6139b361209d565b60ce549091506001600160681b03168111156139fe5760405162461bcd60e51b815260206004820152600a6024820152690457863656564206361760b41b604482015260640161117a565b60cd54600160a01b900466ffffffffffffff16811015613a575760405162461bcd60e51b8152602060048201526014602482015273496e73756666696369656e742062616c616e636560601b604482015260640161117a565b60408051868152602081018490526001600160a01b038616917f90890809c654f11d6e72a28fa60149770a0d11ec6c92319d6ceb2bb0a4ea1a15910160405180910390a26001600160a01b038416600090815260c9602090815260408083208151606081018352905461ffff81168083526201000082046001600160681b031683860152600160781b9091046001600160801b031682840152845260ca90925282205460cc54919291613b16918491879190610100900460ff166149d0565b8251909150879061ffff16851415613b47576020830151600090613b43906001600160681b03168a614153565b9150505b613b5081613d38565b6040805160608101825261ffff80881682526001600160681b0380851660208085019182526001600160801b038089168688019081526001600160a01b038f16600090815260c990935296822095518654935197518216600160781b02600160781b600160f81b03199890951662010000026effffffffffffffffffffffffffffff1990941695169490941791909117949094161790915560d054613bf691168a614153565b9050613c018161415f565b60d080546001600160801b0319166001600160801b03929092169190911790555050505050505050565b6040516001600160a01b03808516602483015283166044820152606481018290526139869085906323b872dd60e01b906084015b60408051601f198184030181529190526020810180516001600160e01b03166001600160e01b031990931692909217909152614ba7565b600080613ca483600a615a0c565b905060008611613cb45780613ccc565b613ccc8661330c613cc588886137b0565b8490614a41565b9695505050505050565b600060018311613d205760405162461bcd60e51b8152602060048201526015602482015274496e76616c6964206173736574506572536861726560581b604482015260640161117a565b61139b613d2e83600a615a0c565b61330c8686614a41565b6001600160681b03811115611b0d5760405162461bcd60e51b815260206004820152601060248201526f13dd995c999b1bddc81d5a5b9d0c4c0d60821b604482015260640161117a565b6040805160c081018252600080825260208201819052918101829052606081018290526080810182905260a081019190915260f85480613dfc5760405162461bcd60e51b81526020600482015260156024820152742163757272656e744f746f6b656e5072656d69756d60581b604482015260640161117a565b60d2546001600160a01b0390811683527f000000000000000000000000000000000000000000000000000000000000000081166020840190815260cc546201000081048316604080870191825261010090920460ff16606087019081526080870186815260fb5460a089019081529351633baf17fd60e21b8152885187166004820152945186166024860152915190941660448401529251606483015291516084820152905160a482015273__$c4f279750f4bbb575ac7775e752dc00849$__9063eebc5ff49060c40160206040518083038186803b158015613ede57600080fd5b505af4158015613ef2573d6000803e3d6000fd5b505050506040513d601f19601f82011682018060405250810190613f169190615647565b60fc555050565b33600090815260c9602090815260408083208151606081018352905461ffff8082168084526201000083046001600160681b031684870152600160781b9092046001600160801b03168385015260cf5491865260ca9094529184205460cc5491949290931692613f989185918591610100900460ff166149d0565b905083613fa55784613fa7565b805b945084613fb5575050505050565b80851115613ff95760405162461bcd60e51b81526020600482015260116024820152704578636565647320617661696c61626c6560781b604482015260640161117a565b825161ffff168211156140265733600090815260c960205260409020805462010000600160781b03191690555b61402f8561415f565b61403981866137b0565b33600081815260c960205260409081902080546001600160801b0394909416600160781b02600160781b600160f81b0319909416939093179092558451915190917fe5b754fb1abb7f01b499791d0b820ae3b6af3424ac1c59768edb53f4ec31a929916140b29189825261ffff16602082015260400190565b60405180910390a26140c53033876137bc565b5050505050565b606580546001600160a01b038381166001600160a01b0319831681179093556040519116919082907f8be0079c531659141344cd1fd0a4f28419497f9722a3daafe3b4186f6b6457e090600090a35050565b6040516001600160a01b03831660248201526044810182905261414e90849063a9059cbb60e01b90606401613c5f565b505050565b600061125c8284615991565b6001600160801b03811115611b0d5760405162461bcd60e51b815260206004820152601060248201526f09eeccae4ccd8deee40ead2dce86264760831b604482015260640161117a565b60d2546000908190600160a01b900463ffffffff164210156141f65760405162461bcd60e51b815260206004820152600660248201526521726561647960d01b604482015260640161117a565b60d1546001600160a01b03168061423d5760405162461bcd60e51b815260206004820152600b60248201526a10b732bc3a27b83a34b7b760a91b604482015260640161117a565b60008060008060008073__$c4f279750f4bbb575ac7775e752dc00849$__63633c142660cf6040518060c0016040528060cc60000160019054906101000a900460ff1660ff16815260200161429061209d565b815260200161429e60995490565b81526020018e815260200160d554815260200160d6548152506040518363ffffffff1660e01b815260040161431a929190600060e08201905083825282516020830152602083015160408301526040830151606083015260608301516080830152608083015160a083015260a083015160c08301529392505050565b60c06040518083038186803b15801561433257600080fd5b505af4158015614346573d6000803e3d6000fd5b505050506040513d601f19601f8201168201806040525081019061436a9190615680565b9550955095509550955095508660d160010160006101000a8154816001600160a01b0302191690836001600160a01b03160217905550600060d160000160006101000a8154816001600160a01b0302191690836001600160a01b03160217905550600060d360009054906101000a90046001600160a01b0316905060007f00000000000000000000000000000000000000000000000000000000000000009050600060cf60000160009054906101000a900461ffff1661ffff1690508660ca60008381526020019081526020016000208190555073__$09b2ed88edfa44a3a64aec022eed7f982f$__636627a9d47f0000000000000000000000000000000000000000000000000000000000000000847f00000000000000000000000000000000000000000000000000000000000000006040518463ffffffff1660e01b81526004016144d7939291906001600160a01b0393841681529183166020830152909116604082015260600190565b60006040518083038186803b1580156144ef57600080fd5b505af4158015614503573d6000803e3d6000fd5b505060408051888152602081018890529081018490526001600160a01b03861692507f0a242f7ecaf711036ca770774ceffae28e60ef042ac113ddd187f2631db0c006915060600160405180910390a260d080546001600160801b031916905561456e816001615991565b60cf805461ffff191661ffff9290921691909117905561458d89613d38565b60cf805462010000600160781b031916620100006001600160681b038c16021790556145b93087614c79565b8315614683576040516305ffc87f60e31b81526001600160a01b0380841660048301527f000000000000000000000000000000000000000000000000000000000000000081166024830152841660448201526064810185905273__$09b2ed88edfa44a3a64aec022eed7f982f$__90632ffe43f89060840160206040518083038186803b15801561464957600080fd5b505af415801561465d573d6000803e3d6000fd5b505050506040513d601f19601f820116820180604052508101906146819190615647565b505b50979b959a509498505050505050505050565b600054610100900460ff16806146af575060005460ff16155b6146cb5760405162461bcd60e51b815260040161117a906158d7565b600054610100900460ff161580156146ed576000805461ffff19166101011790555b60405163c72733f760e01b815273__$c4f279750f4bbb575ac7775e752dc00849$__9063c72733f790614732908c908c908c908b908d908c908c908c90600401615711565b60006040518083038186803b15801561474a57600080fd5b505af415801561475e573d6000803e3d6000fd5b5050505061476a614d58565b6147748484614dcb565b61477c614e4a565b61478589613091565b60d480546001600160a01b03808b166001600160a01b03199283161790925560d38054928a169290911691909117905560d58590556147cf63031ba30961330c88620f4240614a41565b60d6558160cc6147df8282615bb9565b90505060006147ec61209d565b90506147f781613d38565b60cf805461ffff196001600160681b03909316600160781b02929092167fffffffff00000000000000000000000000ffffffffffffffffffffffffff00009092169190911760011790558015614853576000805461ff00191690555b505050505050505050565b60cf546201000090046001600160681b03166001600160a01b038216156148aa5760cf80546cffffffffffffffffffffffffff60781b1916600160781b6001600160681b038416021790555b60cf805462010000600160781b031916905560d280546001600160a01b03191690556001600160a01b03821615611a5457604051636c6fe87f60e11b81526001600160a01b037f000000000000000000000000000000000000000000000000000000000000000016600482015260009073__$c4f279750f4bbb575ac7775e752dc00849$__9063d8dfd0fe9060240160206040518083038186803b15801561495157600080fd5b505af4158015614965573d6000803e3d6000fd5b505050506040513d601f19601f820116820180604052508101906149899190615647565b9050336001600160a01b0316836001600160a01b03167f7e830f7c1771deb1bdb35c4a7e6051bbac32b376f7f4e4976b8618b0b11997f78360405161346f91815260200190565b835160009061ffff16158015906149eb5750845161ffff1684115b15614a2d576000614a0a86602001516001600160681b03168585614eb1565b6040870151909150614a25906001600160801b031682614153565b91505061139b565b50505050604001516001600160801b031690565b600061125c8284615ab4565b600061125c82846159a9565b6001600160a01b038216614ab95760405162461bcd60e51b815260206004820152602160248201527f45524332303a206275726e2066726f6d20746865207a65726f206164647265736044820152607360f81b606482015260840161117a565b6001600160a01b03821660009081526097602052604090205481811015614b2d5760405162461bcd60e51b815260206004820152602260248201527f45524332303a206275726e20616d6f756e7420657863656564732062616c616e604482015261636560f01b606482015260840161117a565b6001600160a01b0383166000908152609760205260408120838303905560998054849290614b5c908490615ad3565b90915550506040518281526000906001600160a01b038516907fddf252ad1be2c89b69c2b068fc378daa952ba7f163c4a11628f55a4df523b3ef9060200160405180910390a3505050565b6000614bfc826040518060400160405280602081526020017f5361666545524332303a206c6f772d6c6576656c2063616c6c206661696c6564815250856001600160a01b0316614f149092919063ffffffff16565b80519091501561414e5780806020019051810190614c1a91906155ec565b61414e5760405162461bcd60e51b815260206004820152602a60248201527f5361666545524332303a204552433230206f7065726174696f6e20646964206e6044820152691bdd081cdd58d8d9595960b21b606482015260840161117a565b6001600160a01b038216614ccf5760405162461bcd60e51b815260206004820152601f60248201527f45524332303a206d696e7420746f20746865207a65726f206164647265737300604482015260640161117a565b8060996000828254614ce19190615991565b90915550506001600160a01b03821660009081526097602052604081208054839290614d0e908490615991565b90915550506040518181526001600160a01b038316906000907fddf252ad1be2c89b69c2b068fc378daa952ba7f163c4a11628f55a4df523b3ef9060200160405180910390a35050565b600054610100900460ff1680614d71575060005460ff16155b614d8d5760405162461bcd60e51b815260040161117a906158d7565b600054610100900460ff16158015614daf576000805461ffff19166101011790555b614db7614f23565b8015611b0d576000805461ff001916905550565b600054610100900460ff1680614de4575060005460ff16155b614e005760405162461bcd60e51b815260040161117a906158d7565b600054610100900460ff16158015614e22576000805461ffff19166101011790555b614e2a614f92565b614e348383614ffc565b801561414e576000805461ff0019169055505050565b600054610100900460ff1680614e63575060005460ff16155b614e7f5760405162461bcd60e51b815260040161117a906158d7565b600054610100900460ff16158015614ea1576000805461ffff19166101011790555b614ea9614f92565b614db7615091565b600060018311614efb5760405162461bcd60e51b8152602060048201526015602482015274496e76616c6964206173736574506572536861726560581b604482015260640161117a565b61139b8361330c614f0d85600a615a0c565b8790614a41565b606061139b84846000856150f1565b600054610100900460ff1680614f3c575060005460ff16155b614f585760405162461bcd60e51b815260040161117a906158d7565b600054610100900460ff16158015614f7a576000805461ffff19166101011790555b600180558015611b0d576000805461ff001916905550565b600054610100900460ff1680614fab575060005460ff16155b614fc75760405162461bcd60e51b815260040161117a906158d7565b600054610100900460ff16158015614db7576000805461ffff19166101011790558015611b0d576000805461ff001916905550565b600054610100900460ff1680615015575060005460ff16155b6150315760405162461bcd60e51b815260040161117a906158d7565b600054610100900460ff16158015615053576000805461ffff19166101011790555b825161506690609a906020860190615252565b50815161507a90609b906020850190615252565b50801561414e576000805461ff0019169055505050565b600054610100900460ff16806150aa575060005460ff16155b6150c65760405162461bcd60e51b815260040161117a906158d7565b600054610100900460ff161580156150e8576000805461ffff19166101011790555b614db7336140cc565b6060824710156151525760405162461bcd60e51b815260206004820152602660248201527f416464726573733a20696e73756666696369656e742062616c616e636520666f6044820152651c8818d85b1b60d21b606482015260840161117a565b843b6151a05760405162461bcd60e51b815260206004820152601d60248201527f416464726573733a2063616c6c20746f206e6f6e2d636f6e7472616374000000604482015260640161117a565b600080866001600160a01b031685876040516151bc91906156f5565b60006040518083038185875af1925050503d80600081146151f9576040519150601f19603f3d011682016040523d82523d6000602084013e6151fe565b606091505b509150915061520e828286615219565b979650505050505050565b6060831561522857508161125c565b8251156152385782518084602001fd5b8160405162461bcd60e51b815260040161117a91906158a3565b82805461525e90615b16565b90600052602060002090601f01602090048101928261528057600085556152c6565b82601f1061529957805160ff19168380011785556152c6565b828001600101855582156152c6579182015b828111156152c65782518255916020019190600101906152ab565b506152d29291506152d6565b5090565b5b808211156152d257600081556001016152d7565b80356152f681615cca565b919050565b600082601f83011261530b578081fd5b813567ffffffffffffffff8082111561532657615326615b7c565b604051601f8301601f19908116603f0116810190828211818310171561534e5761534e615b7c565b81604052838152866020858801011115615366578485fd5b8360208701602083013792830160200193909352509392505050565b600060c08284031215615393578081fd5b50919050565b80356152f681615ced565b803563ffffffff811681146152f657600080fd5b80356152f681615d02565b6000602082840312156153d4578081fd5b813561125c81615cca565b600080604083850312156153f1578081fd5b82356153fc81615cca565b9150602083013561540c81615cca565b809150509250929050565b6000806000806000806000806000806000806102208d8f031215615439578788fd5b6154428d6152eb565b9b5061545060208e016152eb565b9a5061545e60408e016152eb565b995060608d0135985060808d0135975067ffffffffffffffff60a08e01351115615486578687fd5b6154968e60a08f01358f016152fb565b965067ffffffffffffffff60c08e013511156154b0578586fd5b6154c08e60c08f01358f016152fb565b95506154ce60e08e016152eb565b94506154dd6101008e016152eb565b93506154ec6101208e016153a4565b92506101408d013591506155048e6101608f01615382565b90509295989b509295989b509295989b565b60008060006060848603121561552a578283fd5b833561553581615cca565b9250602084013561554581615cca565b929592945050506040919091013590565b60008060408385031215615568578182fd5b823561557381615cca565b9150602083013561540c81615cdf565b60008060408385031215615595578182fd5b82356155a081615cca565b946020939093013593505050565b600080600080608085870312156155c3578384fd5b84516155ce81615cca565b60208601516040870151606090970151919890975090945092505050565b6000602082840312156155fd578081fd5b815161125c81615cdf565b600060208284031215615619578081fd5b81356001600160801b038116811461125c578182fd5b600060208284031215615640578081fd5b5035919050565b600060208284031215615658578081fd5b5051919050565b60008060408385031215615671578182fd5b50508035926020909101359150565b60008060008060008060c08789031215615698578384fd5b865195506020870151945060408701519350606087015192506080870151915060a087015190509295509295509295565b600081518084526156e1816020860160208601615aea565b601f01601f19169290920160200192915050565b60008251615707818460208701615aea565b9190910192915050565b60006101a060018060a01b03808c168452808b166020850152808a1660408501528860608501528760808501528160a0850152615750828501886156c9565b915083820360c085015261576482876156c9565b92508435915061577382615cdf565b90151560e084015260208401359061578a82615d17565b60ff8216610100850152604085013591506157a482615cca565b166101208301526157b7606084016152eb565b6001600160a01b03166101408301526157d2608084016153b8565b66ffffffffffffff166101608301526157ed60a08401615399565b6001600160681b038116610180840152509998505050505050505050565b60006101808201905060018060a01b03808a16835280891660208401528760408401528087511660608401528060208801511660808401528060408801511660a084015250606086015160c083015261ffff60808701511660e083015260a086015161010083015284610120830152836101408301526158976101608301846001600160a01b03169052565b98975050505050505050565b60208152600061125c60208301846156c9565b60208082526007908201526610b5b2b2b832b960c91b604082015260600190565b6020808252602e908201527f496e697469616c697a61626c653a20636f6e747261637420697320616c72656160408201526d191e481a5b9a5d1a585b1a5e995960921b606082015260800190565b6020808252818101527f4f776e61626c653a2063616c6c6572206973206e6f7420746865206f776e6572604082015260600190565b6020808252601f908201527f5265656e7472616e637947756172643a207265656e7472616e742063616c6c00604082015260600190565b600082198211156159a4576159a4615b66565b500190565b6000826159c457634e487b7160e01b81526012600452602481fd5b500490565b600181815b80851115615a045781600019048211156159ea576159ea615b66565b808516156159f757918102915b93841c93908002906159ce565b509250929050565b600061125c8383600082615a2257506001611151565b81615a2f57506000611151565b8160018114615a455760028114615a4f57615a6b565b6001915050611151565b60ff841115615a6057615a60615b66565b50506001821b611151565b5060208310610133831016604e8410600b8410161715615a8e575081810a611151565b615a9883836159c9565b8060001904821115615aac57615aac615b66565b029392505050565b6000816000190483118215151615615ace57615ace615b66565b500290565b600082821015615ae557615ae5615b66565b500390565b60005b83811015615b05578181015183820152602001615aed565b838111156139865750506000910152565b600181811c90821680615b2a57607f821691505b6020821081141561539357634e487b7160e01b600052602260045260246000fd5b6000600019821415615b5f57615b5f615b66565b5060010190565b634e487b7160e01b600052601160045260246000fd5b634e487b7160e01b600052604160045260246000fd5b6000813561115181615cca565b6000813561115181615ced565b6000813561115181615d02565b8135615bc481615cdf565b815460ff19811691151560ff1691821783556020840135615be481615d17565b61ff008160081b169050808361ffff198416171784556040850135615c0881615cca565b6001600160b01b0319929092169092179190911760109190911b62010000600160b01b031617815560018101615c60615c4360608501615b92565b82546001600160a01b0319166001600160a01b0391909116178255565b615c99615c6f60808501615bac565b82805466ffffffffffffff60a01b191660a09290921b66ffffffffffffff60a01b16919091179055565b50611a54615ca960a08401615b9f565b600283016001600160681b0382166001600160681b03198254161781555050565b6001600160a01b0381168114611b0d57600080fd5b8015158114611b0d57600080fd5b6001600160681b0381168114611b0d57600080fd5b66ffffffffffffff81168114611b0d57600080fd5b60ff81168114611b0d57600080fdfea26469706673582212209c346de073057b20f2cfc4f677e4a53ebe49c00be927d0a0bb12973506abcafc64736f6c63430008040033",
  "libraries": {
    "VaultLifecycle": "0x1c3774C538A50Db827f7f7b450160E0aFcbD41F8",
    "VaultLifecycleSTETH": "0x5CbB58FBd5E53A8db156C1261403b14dc618F3db"
  },
  "devdoc": {
    "kind": "dev",
    "methods": {
      "accountVaultBalance(address)": {
        "params": {
          "account": "is the address to lookup balance for"
        },
        "returns": {
          "_0": "the amount of `asset` custodied by the vault for the user"
        }
      },
      "allowance(address,address)": {
        "details": "See {IERC20-allowance}."
      },
      "approve(address,uint256)": {
        "details": "See {IERC20-approve}. Requirements: - `spender` cannot be the zero address."
      },
      "balanceOf(address)": {
        "details": "See {IERC20-balanceOf}."
      },
      "completeWithdraw(uint256)": {
        "params": {
          "minETHOut": "is the min amount of `asset` to recieve for the swapped amount of steth in crv pool"
        }
      },
      "constructor": {
        "params": {
          "_crvPool": "is the steth/eth crv stables pool",
          "_gammaController": "is the contract address for opyn actions",
          "_gnosisEasyAuction": "is the contract address that facilitates gnosis auctions",
          "_ldo": "is the LDO contract",
          "_marginPool": "is the contract address for providing collateral to opyn",
          "_oTokenFactory": "is the contract address for minting new opyn option types (strikes, asset, expiry)",
          "_usdc": "is the USDC contract",
          "_weth": "is the Wrapped Ether contract",
          "_wsteth": "is the LDO contract"
        }
      },
      "decreaseAllowance(address,uint256)": {
        "details": "Atomically decreases the allowance granted to `spender` by the caller. This is an alternative to {approve} that can be used as a mitigation for problems described in {IERC20-approve}. Emits an {Approval} event indicating the updated allowance. Requirements: - `spender` cannot be the zero address. - `spender` must have allowance for the caller of at least `subtractedValue`."
      },
      "depositFor(address)": {
        "params": {
          "creditor": "is the address that can claim/withdraw deposited amount"
        }
      },
      "depositYieldToken(uint256)": {
        "params": {
          "amount": "is the amount of `collateralAsset` to deposit"
        }
      },
      "increaseAllowance(address,uint256)": {
        "details": "Atomically increases the allowance granted to `spender` by the caller. This is an alternative to {approve} that can be used as a mitigation for problems described in {IERC20-approve}. Emits an {Approval} event indicating the updated allowance. Requirements: - `spender` cannot be the zero address."
      },
      "initialize(address,address,address,uint256,uint256,string,string,address,address,uint32,uint256,(bool,uint8,address,address,uint56,uint104))": {
        "params": {
          "_auctionDuration": "is the duration of the gnosis auction",
          "_feeRecipient": "is the address to recieve vault performance and management fees",
          "_keeper": "is the keeper of the vault with medium permissions (weekly actions)",
          "_managementFee": "is the management fee pct.",
          "_optionsPremiumPricer": "is the address of the contract with the black-scholes premium calculation logic",
          "_owner": "is the owner of the vault with critical permissions",
          "_performanceFee": "is the perfomance fee pct.",
          "_premiumDiscount": "is the vault's discount applied to the premium",
          "_strikeSelection": "is the address of the contract with strike selection logic",
          "_tokenName": "is the name of the token",
          "_tokenSymbol": "is the symbol of the token",
          "_vaultParams": "is the struct with vault general data"
        }
      },
      "initiateWithdraw(uint256)": {
        "params": {
          "numShares": "is the number of shares to withdraw"
        }
      },
      "name()": {
        "details": "Returns the name of the token."
      },
      "owner()": {
        "details": "Returns the address of the current owner."
      },
      "redeem(uint256)": {
        "params": {
          "numShares": "is the number of shares to redeem"
        }
      },
      "renounceOwnership()": {
        "details": "Leaves the contract without owner. It will not be possible to call `onlyOwner` functions anymore. Can only be called by the current owner. NOTE: Renouncing ownership will leave the contract without an owner, thereby removing any functionality that is only available to the owner."
      },
      "setAuctionDuration(uint256)": {
        "params": {
          "newAuctionDuration": "is the auction duration"
        }
      },
      "setCap(uint256)": {
        "params": {
          "newCap": "is the new cap for deposits"
        }
      },
      "setFeeRecipient(address)": {
        "params": {
          "newFeeRecipient": "is the address of the new fee recipient"
        }
      },
      "setManagementFee(uint256)": {
        "params": {
          "newManagementFee": "is the management fee (6 decimals). ex: 2 * 10 ** 6 = 2%"
        }
      },
      "setNewKeeper(address)": {
        "params": {
          "newKeeper": "is the address of the new keeper"
        }
      },
      "setPerformanceFee(uint256)": {
        "params": {
          "newPerformanceFee": "is the performance fee (6 decimals). ex: 20 * 10 ** 6 = 20%"
        }
      },
      "setPremiumDiscount(uint256)": {
        "params": {
          "newPremiumDiscount": "is the premium discount"
        }
      },
      "setStrikePrice(uint128)": {
        "params": {
          "strikePrice": "is the strike price of the new oTokens (decimals = 8)"
        }
      },
      "setStrikeSelectionOrPricer(address,bool)": {
        "params": {
          "isStrikeSelection": "is whether we are setting the strike selection contract",
          "newContract": "is the address of the new strike selection or options premium pricer contract"
        }
      },
      "shareBalances(address)": {
        "params": {
          "account": "is the account to lookup share balance for"
        },
        "returns": {
          "heldByAccount": "is the shares held by account",
          "heldByVault": "is the shares held on the vault (unredeemedShares)"
        }
      },
      "shares(address)": {
        "params": {
          "account": "is the account to lookup share balance for"
        },
        "returns": {
          "_0": "the share balance"
        }
      },
      "symbol()": {
        "details": "Returns the symbol of the token, usually a shorter version of the name."
      },
      "totalBalance()": {
        "returns": {
          "_0": "total balance of the vault, including the amounts locked in third party protocols"
        }
      },
      "totalSupply()": {
        "details": "See {IERC20-totalSupply}."
      },
      "transfer(address,uint256)": {
        "details": "See {IERC20-transfer}. Requirements: - `recipient` cannot be the zero address. - the caller must have a balance of at least `amount`."
      },
      "transferFrom(address,address,uint256)": {
        "details": "See {IERC20-transferFrom}. Emits an {Approval} event indicating the updated allowance. This is not required by the EIP. See the note at the beginning of {ERC20}. Requirements: - `sender` and `recipient` cannot be the zero address. - `sender` must have a balance of at least `amount`. - the caller must have allowance for ``sender``'s tokens of at least `amount`."
      },
      "transferOwnership(address)": {
        "details": "Transfers ownership of the contract to a new account (`newOwner`). Can only be called by the current owner."
      },
      "withdrawInstantly(uint256,uint256)": {
        "params": {
          "amount": "is the amount to withdraw in `asset`",
          "minETHOut": "is the min amount of `asset` to recieve for the swapped amount of steth in crv pool"
        }
      }
    },
    "version": 1
  },
  "userdoc": {
    "kind": "user",
    "methods": {
      "DELAY()": {
        "notice": "15 minute timelock between commitAndClose and rollToNexOption."
      },
      "LDO()": {
        "notice": "Lido DAO token 0x5a98fcbea516cf06857215779fd812ca3bef1b32"
      },
      "OTOKEN_FACTORY()": {
        "notice": "is the factory contract used to spawn otokens. Used to lookup otokens."
      },
      "PERIOD()": {
        "notice": "7 day period between each options sale."
      },
      "STETH()": {
        "notice": "STETH contract address"
      },
      "USDC()": {
        "notice": "USDC 0xA0b86991c6218b36c1d19D4a2e9Eb0cE3606eB48"
      },
      "WETH()": {
        "notice": "WETH9 0xC02aaA39b223FE8D0A0e5C4F27eAD9083C756Cc2"
      },
      "accountVaultBalance(address)": {
        "notice": "Returns the asset balance held on the vault for the account"
      },
      "burnRemainingOTokens()": {
        "notice": "Burn the remaining oTokens left over from gnosis auction."
      },
      "collateralToken()": {
        "notice": "wstETH vault contract"
      },
      "commitAndClose()": {
        "notice": "Sets the next option the vault will be shorting, and closes the existing short.         This allows all the users to withdraw if the next option is malicious."
      },
      "completeWithdraw(uint256)": {
        "notice": "Completes a scheduled withdrawal from a past round. Uses finalized pps for the round"
      },
      "constructor": {
        "notice": "Initializes the contract with immutable variables"
      },
      "decimals()": {
        "notice": "Returns the token decimals"
      },
      "depositETH()": {
        "notice": "Deposits ETH into the contract and mint vault shares."
      },
      "depositFor(address)": {
        "notice": "Deposits the `asset` from msg.sender added to `creditor`'s deposit.Used for vault -> vault deposits on the user's behalf"
      },
      "depositReceipts(address)": {
        "notice": "Stores the user's pending deposit for the round"
      },
      "depositYieldToken(uint256)": {
        "notice": "Deposits the `collateralAsset` into the contract and mint vault shares."
      },
      "feeRecipient()": {
        "notice": "Fee recipient for the performance and management fees"
      },
      "initialize(address,address,address,uint256,uint256,string,string,address,address,uint32,uint256,(bool,uint8,address,address,uint56,uint104))": {
        "notice": "Initializes the OptionVault contract with storage variables."
      },
      "initiateWithdraw(uint256)": {
        "notice": "Initiates a withdrawal that can be processed once the round completes"
      },
      "keeper()": {
        "notice": "role in charge of weekly vault operations such as rollToNextOption and burnRemainingOTokens"
      },
      "managementFee()": {
        "notice": "Management fee charged on entire AUM in rollToNextOption. Only charged when there is no loss."
      },
      "maxRedeem()": {
        "notice": "Redeems the entire unredeemedShares balance that is owed to the account"
      },
      "optionState()": {
        "notice": "Vault's state of the options sold and the timelocked option"
      },
      "performanceFee()": {
        "notice": "Performance fee charged on premiums earned in rollToNextOption. Only charged when there is no loss."
      },
      "pricePerShare()": {
        "notice": "The price of a unit of share denominated in the `asset`"
      },
      "redeem(uint256)": {
        "notice": "Redeems shares that are owed to the account"
      },
      "rollToNextOption()": {
        "notice": "Rolls the vault's funds into a new short position."
      },
      "roundPricePerShare(uint256)": {
        "notice": "On every round's close, the pricePerShare value of an rTHETA token is stored This is used to determine the number of shares to be returned to a user with their DepositReceipt.depositAmount"
      },
      "setAuctionDuration(uint256)": {
        "notice": "Sets the new auction duration"
      },
      "setCap(uint256)": {
        "notice": "Sets a new cap for deposits"
      },
      "setFeeRecipient(address)": {
        "notice": "Sets the new fee recipient"
      },
      "setManagementFee(uint256)": {
        "notice": "Sets the management fee for the vault"
      },
      "setNewKeeper(address)": {
        "notice": "Sets the new keeper"
      },
      "setPerformanceFee(uint256)": {
        "notice": "Sets the performance fee for the vault"
      },
      "setPremiumDiscount(uint256)": {
        "notice": "Sets the new discount on premiums for options we are selling"
      },
      "setStrikePrice(uint128)": {
        "notice": "Optionality to set strike price manually"
      },
      "setStrikeSelectionOrPricer(address,bool)": {
        "notice": "Sets the new strike selection or options premium pricer contract"
      },
      "shareBalances(address)": {
        "notice": "Getter for returning the account's share balance split between account and vault holdings"
      },
      "shares(address)": {
        "notice": "Getter for returning the account's share balance including unredeemed shares"
      },
      "startAuction()": {
        "notice": "Initiate the gnosis auction."
      },
      "totalBalance()": {
        "notice": "Returns the vault's total balance, including the amounts locked into a short position"
      },
      "vaultParams()": {
        "notice": "Vault's parameters like cap, decimals"
      },
      "vaultState()": {
        "notice": "Vault's lifecycle state like round and locked amounts"
      },
      "withdrawInstantly(uint256,uint256)": {
        "notice": "Withdraws the assets on the vault using the outstanding `DepositReceipt.amount`"
      },
      "withdrawals(address)": {
        "notice": "Stores pending user withdrawals"
      }
    },
    "notice": "UPGRADEABILITY: Since we use the upgradeable proxy pattern, we must observe the inheritance chain closely. Any changes/appends in storage variable needs to happen in RibbonThetaSTETHVaultStorage. RibbonThetaSTETHVault should not inherit from any other contract aside from RibbonVault, RibbonThetaSTETHVaultStorage",
    "version": 1
  },
  "storageLayout": {
    "storage": [
      {
        "astId": 130,
        "contract": "contracts/vaults/STETHVault/RibbonThetaSTETHVault.sol:RibbonThetaSTETHVault",
        "label": "_initialized",
        "offset": 0,
        "slot": "0",
        "type": "t_bool"
      },
      {
        "astId": 133,
        "contract": "contracts/vaults/STETHVault/RibbonThetaSTETHVault.sol:RibbonThetaSTETHVault",
        "label": "_initializing",
        "offset": 1,
        "slot": "0",
        "type": "t_bool"
      },
      {
        "astId": 184,
        "contract": "contracts/vaults/STETHVault/RibbonThetaSTETHVault.sol:RibbonThetaSTETHVault",
        "label": "_status",
        "offset": 0,
        "slot": "1",
        "type": "t_uint256"
      },
      {
        "astId": 227,
        "contract": "contracts/vaults/STETHVault/RibbonThetaSTETHVault.sol:RibbonThetaSTETHVault",
        "label": "__gap",
        "offset": 0,
        "slot": "2",
        "type": "t_array(t_uint256)49_storage"
      },
      {
        "astId": 947,
        "contract": "contracts/vaults/STETHVault/RibbonThetaSTETHVault.sol:RibbonThetaSTETHVault",
        "label": "__gap",
        "offset": 0,
        "slot": "51",
        "type": "t_array(t_uint256)50_storage"
      },
      {
        "astId": 10,
        "contract": "contracts/vaults/STETHVault/RibbonThetaSTETHVault.sol:RibbonThetaSTETHVault",
        "label": "_owner",
        "offset": 0,
        "slot": "101",
        "type": "t_address"
      },
      {
        "astId": 123,
        "contract": "contracts/vaults/STETHVault/RibbonThetaSTETHVault.sol:RibbonThetaSTETHVault",
        "label": "__gap",
        "offset": 0,
        "slot": "102",
        "type": "t_array(t_uint256)49_storage"
      },
      {
        "astId": 247,
        "contract": "contracts/vaults/STETHVault/RibbonThetaSTETHVault.sol:RibbonThetaSTETHVault",
        "label": "_balances",
        "offset": 0,
        "slot": "151",
        "type": "t_mapping(t_address,t_uint256)"
      },
      {
        "astId": 253,
        "contract": "contracts/vaults/STETHVault/RibbonThetaSTETHVault.sol:RibbonThetaSTETHVault",
        "label": "_allowances",
        "offset": 0,
        "slot": "152",
        "type": "t_mapping(t_address,t_mapping(t_address,t_uint256))"
      },
      {
        "astId": 255,
        "contract": "contracts/vaults/STETHVault/RibbonThetaSTETHVault.sol:RibbonThetaSTETHVault",
        "label": "_totalSupply",
        "offset": 0,
        "slot": "153",
        "type": "t_uint256"
      },
      {
        "astId": 257,
        "contract": "contracts/vaults/STETHVault/RibbonThetaSTETHVault.sol:RibbonThetaSTETHVault",
        "label": "_name",
        "offset": 0,
        "slot": "154",
        "type": "t_string_storage"
      },
      {
        "astId": 259,
        "contract": "contracts/vaults/STETHVault/RibbonThetaSTETHVault.sol:RibbonThetaSTETHVault",
        "label": "_symbol",
        "offset": 0,
        "slot": "155",
        "type": "t_string_storage"
      },
      {
        "astId": 800,
        "contract": "contracts/vaults/STETHVault/RibbonThetaSTETHVault.sol:RibbonThetaSTETHVault",
        "label": "__gap",
        "offset": 0,
        "slot": "156",
        "type": "t_array(t_uint256)45_storage"
      },
      {
        "astId": 15117,
        "contract": "contracts/vaults/STETHVault/RibbonThetaSTETHVault.sol:RibbonThetaSTETHVault",
        "label": "depositReceipts",
        "offset": 0,
        "slot": "201",
        "type": "t_mapping(t_address,t_struct(DepositReceipt)4933_storage)"
      },
      {
        "astId": 15122,
        "contract": "contracts/vaults/STETHVault/RibbonThetaSTETHVault.sol:RibbonThetaSTETHVault",
        "label": "roundPricePerShare",
        "offset": 0,
        "slot": "202",
        "type": "t_mapping(t_uint256,t_uint256)"
      },
      {
        "astId": 15128,
        "contract": "contracts/vaults/STETHVault/RibbonThetaSTETHVault.sol:RibbonThetaSTETHVault",
        "label": "withdrawals",
        "offset": 0,
        "slot": "203",
        "type": "t_mapping(t_address,t_struct(Withdrawal)4938_storage)"
      },
      {
        "astId": 15132,
        "contract": "contracts/vaults/STETHVault/RibbonThetaSTETHVault.sol:RibbonThetaSTETHVault",
        "label": "vaultParams",
        "offset": 0,
        "slot": "204",
        "type": "t_struct(VaultParams)4908_storage"
      },
      {
        "astId": 15136,
        "contract": "contracts/vaults/STETHVault/RibbonThetaSTETHVault.sol:RibbonThetaSTETHVault",
        "label": "vaultState",
        "offset": 0,
        "slot": "207",
        "type": "t_struct(VaultState)4926_storage"
      },
      {
        "astId": 15140,
        "contract": "contracts/vaults/STETHVault/RibbonThetaSTETHVault.sol:RibbonThetaSTETHVault",
        "label": "optionState",
        "offset": 0,
        "slot": "209",
        "type": "t_struct(OptionState)4915_storage"
      },
      {
        "astId": 15143,
        "contract": "contracts/vaults/STETHVault/RibbonThetaSTETHVault.sol:RibbonThetaSTETHVault",
        "label": "feeRecipient",
        "offset": 0,
        "slot": "211",
        "type": "t_address"
      },
      {
        "astId": 15146,
        "contract": "contracts/vaults/STETHVault/RibbonThetaSTETHVault.sol:RibbonThetaSTETHVault",
        "label": "keeper",
        "offset": 0,
        "slot": "212",
        "type": "t_address"
      },
      {
        "astId": 15149,
        "contract": "contracts/vaults/STETHVault/RibbonThetaSTETHVault.sol:RibbonThetaSTETHVault",
        "label": "performanceFee",
        "offset": 0,
        "slot": "213",
        "type": "t_uint256"
      },
      {
        "astId": 15152,
        "contract": "contracts/vaults/STETHVault/RibbonThetaSTETHVault.sol:RibbonThetaSTETHVault",
        "label": "managementFee",
        "offset": 0,
        "slot": "214",
        "type": "t_uint256"
      },
      {
        "astId": 15160,
        "contract": "contracts/vaults/STETHVault/RibbonThetaSTETHVault.sol:RibbonThetaSTETHVault",
        "label": "____gap",
        "offset": 0,
        "slot": "215",
        "type": "t_array(t_uint256)30_storage"
      },
      {
        "astId": 9901,
        "contract": "contracts/vaults/STETHVault/RibbonThetaSTETHVault.sol:RibbonThetaSTETHVault",
        "label": "optionsPremiumPricer",
        "offset": 0,
        "slot": "245",
        "type": "t_address"
      },
      {
        "astId": 9903,
        "contract": "contracts/vaults/STETHVault/RibbonThetaSTETHVault.sol:RibbonThetaSTETHVault",
        "label": "strikeSelection",
        "offset": 0,
        "slot": "246",
        "type": "t_address"
      },
      {
        "astId": 9905,
        "contract": "contracts/vaults/STETHVault/RibbonThetaSTETHVault.sol:RibbonThetaSTETHVault",
        "label": "premiumDiscount",
        "offset": 0,
        "slot": "247",
        "type": "t_uint256"
      },
      {
        "astId": 9907,
        "contract": "contracts/vaults/STETHVault/RibbonThetaSTETHVault.sol:RibbonThetaSTETHVault",
        "label": "currentOtokenPremium",
        "offset": 0,
        "slot": "248",
        "type": "t_uint256"
      },
      {
        "astId": 9909,
        "contract": "contracts/vaults/STETHVault/RibbonThetaSTETHVault.sol:RibbonThetaSTETHVault",
        "label": "lastStrikeOverrideRound",
        "offset": 0,
        "slot": "249",
        "type": "t_uint16"
      },
      {
        "astId": 9911,
        "contract": "contracts/vaults/STETHVault/RibbonThetaSTETHVault.sol:RibbonThetaSTETHVault",
        "label": "overriddenStrikePrice",
        "offset": 0,
        "slot": "250",
        "type": "t_uint256"
      },
      {
        "astId": 9913,
        "contract": "contracts/vaults/STETHVault/RibbonThetaSTETHVault.sol:RibbonThetaSTETHVault",
        "label": "auctionDuration",
        "offset": 0,
        "slot": "251",
        "type": "t_uint256"
      },
      {
        "astId": 9915,
        "contract": "contracts/vaults/STETHVault/RibbonThetaSTETHVault.sol:RibbonThetaSTETHVault",
        "label": "optionAuctionID",
        "offset": 0,
        "slot": "252",
        "type": "t_uint256"
      },
      {
        "astId": 9918,
        "contract": "contracts/vaults/STETHVault/RibbonThetaSTETHVault.sol:RibbonThetaSTETHVault",
        "label": "lastQueuedWithdrawAmount",
        "offset": 0,
        "slot": "253",
        "type": "t_uint256"
      }
    ],
    "types": {
      "t_address": {
        "encoding": "inplace",
        "label": "address",
        "numberOfBytes": "20"
      },
      "t_array(t_uint256)30_storage": {
        "base": "t_uint256",
        "encoding": "inplace",
        "label": "uint256[30]",
        "numberOfBytes": "960"
      },
      "t_array(t_uint256)45_storage": {
        "base": "t_uint256",
        "encoding": "inplace",
        "label": "uint256[45]",
        "numberOfBytes": "1440"
      },
      "t_array(t_uint256)49_storage": {
        "base": "t_uint256",
        "encoding": "inplace",
        "label": "uint256[49]",
        "numberOfBytes": "1568"
      },
      "t_array(t_uint256)50_storage": {
        "base": "t_uint256",
        "encoding": "inplace",
        "label": "uint256[50]",
        "numberOfBytes": "1600"
      },
      "t_bool": {
        "encoding": "inplace",
        "label": "bool",
        "numberOfBytes": "1"
      },
      "t_mapping(t_address,t_mapping(t_address,t_uint256))": {
        "encoding": "mapping",
        "key": "t_address",
        "label": "mapping(address => mapping(address => uint256))",
        "numberOfBytes": "32",
        "value": "t_mapping(t_address,t_uint256)"
      },
      "t_mapping(t_address,t_struct(DepositReceipt)4933_storage)": {
        "encoding": "mapping",
        "key": "t_address",
        "label": "mapping(address => struct Vault.DepositReceipt)",
        "numberOfBytes": "32",
        "value": "t_struct(DepositReceipt)4933_storage"
      },
      "t_mapping(t_address,t_struct(Withdrawal)4938_storage)": {
        "encoding": "mapping",
        "key": "t_address",
        "label": "mapping(address => struct Vault.Withdrawal)",
        "numberOfBytes": "32",
        "value": "t_struct(Withdrawal)4938_storage"
      },
      "t_mapping(t_address,t_uint256)": {
        "encoding": "mapping",
        "key": "t_address",
        "label": "mapping(address => uint256)",
        "numberOfBytes": "32",
        "value": "t_uint256"
      },
      "t_mapping(t_uint256,t_uint256)": {
        "encoding": "mapping",
        "key": "t_uint256",
        "label": "mapping(uint256 => uint256)",
        "numberOfBytes": "32",
        "value": "t_uint256"
      },
      "t_string_storage": {
        "encoding": "bytes",
        "label": "string",
        "numberOfBytes": "32"
      },
      "t_struct(DepositReceipt)4933_storage": {
        "encoding": "inplace",
        "label": "struct Vault.DepositReceipt",
        "members": [
          {
            "astId": 4928,
            "contract": "contracts/vaults/STETHVault/RibbonThetaSTETHVault.sol:RibbonThetaSTETHVault",
            "label": "round",
            "offset": 0,
            "slot": "0",
            "type": "t_uint16"
          },
          {
            "astId": 4930,
            "contract": "contracts/vaults/STETHVault/RibbonThetaSTETHVault.sol:RibbonThetaSTETHVault",
            "label": "amount",
            "offset": 2,
            "slot": "0",
            "type": "t_uint104"
          },
          {
            "astId": 4932,
            "contract": "contracts/vaults/STETHVault/RibbonThetaSTETHVault.sol:RibbonThetaSTETHVault",
            "label": "unredeemedShares",
            "offset": 15,
            "slot": "0",
            "type": "t_uint128"
          }
        ],
        "numberOfBytes": "32"
      },
      "t_struct(OptionState)4915_storage": {
        "encoding": "inplace",
        "label": "struct Vault.OptionState",
        "members": [
          {
            "astId": 4910,
            "contract": "contracts/vaults/STETHVault/RibbonThetaSTETHVault.sol:RibbonThetaSTETHVault",
            "label": "nextOption",
            "offset": 0,
            "slot": "0",
            "type": "t_address"
          },
          {
            "astId": 4912,
            "contract": "contracts/vaults/STETHVault/RibbonThetaSTETHVault.sol:RibbonThetaSTETHVault",
            "label": "currentOption",
            "offset": 0,
            "slot": "1",
            "type": "t_address"
          },
          {
            "astId": 4914,
            "contract": "contracts/vaults/STETHVault/RibbonThetaSTETHVault.sol:RibbonThetaSTETHVault",
            "label": "nextOptionReadyAt",
            "offset": 20,
            "slot": "1",
            "type": "t_uint32"
          }
        ],
        "numberOfBytes": "64"
      },
      "t_struct(VaultParams)4908_storage": {
        "encoding": "inplace",
        "label": "struct Vault.VaultParams",
        "members": [
          {
            "astId": 4897,
            "contract": "contracts/vaults/STETHVault/RibbonThetaSTETHVault.sol:RibbonThetaSTETHVault",
            "label": "isPut",
            "offset": 0,
            "slot": "0",
            "type": "t_bool"
          },
          {
            "astId": 4899,
            "contract": "contracts/vaults/STETHVault/RibbonThetaSTETHVault.sol:RibbonThetaSTETHVault",
            "label": "decimals",
            "offset": 1,
            "slot": "0",
            "type": "t_uint8"
          },
          {
            "astId": 4901,
            "contract": "contracts/vaults/STETHVault/RibbonThetaSTETHVault.sol:RibbonThetaSTETHVault",
            "label": "asset",
            "offset": 2,
            "slot": "0",
            "type": "t_address"
          },
          {
            "astId": 4903,
            "contract": "contracts/vaults/STETHVault/RibbonThetaSTETHVault.sol:RibbonThetaSTETHVault",
            "label": "underlying",
            "offset": 0,
            "slot": "1",
            "type": "t_address"
          },
          {
            "astId": 4905,
            "contract": "contracts/vaults/STETHVault/RibbonThetaSTETHVault.sol:RibbonThetaSTETHVault",
            "label": "minimumSupply",
            "offset": 20,
            "slot": "1",
            "type": "t_uint56"
          },
          {
            "astId": 4907,
            "contract": "contracts/vaults/STETHVault/RibbonThetaSTETHVault.sol:RibbonThetaSTETHVault",
            "label": "cap",
            "offset": 0,
            "slot": "2",
            "type": "t_uint104"
          }
        ],
        "numberOfBytes": "96"
      },
      "t_struct(VaultState)4926_storage": {
        "encoding": "inplace",
        "label": "struct Vault.VaultState",
        "members": [
          {
            "astId": 4917,
            "contract": "contracts/vaults/STETHVault/RibbonThetaSTETHVault.sol:RibbonThetaSTETHVault",
            "label": "round",
            "offset": 0,
            "slot": "0",
            "type": "t_uint16"
          },
          {
            "astId": 4919,
            "contract": "contracts/vaults/STETHVault/RibbonThetaSTETHVault.sol:RibbonThetaSTETHVault",
            "label": "lockedAmount",
            "offset": 2,
            "slot": "0",
            "type": "t_uint104"
          },
          {
            "astId": 4921,
            "contract": "contracts/vaults/STETHVault/RibbonThetaSTETHVault.sol:RibbonThetaSTETHVault",
            "label": "lastLockedAmount",
            "offset": 15,
            "slot": "0",
            "type": "t_uint104"
          },
          {
            "astId": 4923,
            "contract": "contracts/vaults/STETHVault/RibbonThetaSTETHVault.sol:RibbonThetaSTETHVault",
            "label": "totalPending",
            "offset": 0,
            "slot": "1",
            "type": "t_uint128"
          },
          {
            "astId": 4925,
            "contract": "contracts/vaults/STETHVault/RibbonThetaSTETHVault.sol:RibbonThetaSTETHVault",
            "label": "queuedWithdrawShares",
            "offset": 16,
            "slot": "1",
            "type": "t_uint128"
          }
        ],
        "numberOfBytes": "64"
      },
      "t_struct(Withdrawal)4938_storage": {
        "encoding": "inplace",
        "label": "struct Vault.Withdrawal",
        "members": [
          {
            "astId": 4935,
            "contract": "contracts/vaults/STETHVault/RibbonThetaSTETHVault.sol:RibbonThetaSTETHVault",
            "label": "round",
            "offset": 0,
            "slot": "0",
            "type": "t_uint16"
          },
          {
            "astId": 4937,
            "contract": "contracts/vaults/STETHVault/RibbonThetaSTETHVault.sol:RibbonThetaSTETHVault",
            "label": "shares",
            "offset": 2,
            "slot": "0",
            "type": "t_uint128"
          }
        ],
        "numberOfBytes": "32"
      },
      "t_uint104": {
        "encoding": "inplace",
        "label": "uint104",
        "numberOfBytes": "13"
      },
      "t_uint128": {
        "encoding": "inplace",
        "label": "uint128",
        "numberOfBytes": "16"
      },
      "t_uint16": {
        "encoding": "inplace",
        "label": "uint16",
        "numberOfBytes": "2"
      },
      "t_uint256": {
        "encoding": "inplace",
        "label": "uint256",
        "numberOfBytes": "32"
      },
      "t_uint32": {
        "encoding": "inplace",
        "label": "uint32",
        "numberOfBytes": "4"
      },
      "t_uint56": {
        "encoding": "inplace",
        "label": "uint56",
        "numberOfBytes": "7"
      },
      "t_uint8": {
        "encoding": "inplace",
        "label": "uint8",
        "numberOfBytes": "1"
      }
    }
  }
}