{
  "address": "0x07F36CF3c834E423536680F560b6BaD0319f5411",
  "abi": [
    {
      "inputs": [
        {
          "internalType": "address",
          "name": "_curveETHSTETHPool",
          "type": "address"
        },
        {
          "internalType": "address",
          "name": "_stETHVault",
          "type": "address"
        },
        {
          "internalType": "address",
          "name": "_stETH",
          "type": "address"
        }
      ],
      "stateMutability": "nonpayable",
      "type": "constructor"
    },
    {
      "inputs": [],
      "name": "curveETHSTETHPool",
      "outputs": [
        {
          "internalType": "contract ICurveETHSTETHPool",
          "name": "",
          "type": "address"
        }
      ],
      "stateMutability": "view",
      "type": "function"
    },
    {
      "inputs": [
        {
          "internalType": "uint256",
          "name": "minSTETHAmount",
          "type": "uint256"
        }
      ],
      "name": "deposit",
      "outputs": [],
      "stateMutability": "payable",
      "type": "function"
    },
    {
      "inputs": [],
      "name": "stETH",
      "outputs": [
        {
          "internalType": "contract IERC20",
          "name": "",
          "type": "address"
        }
      ],
      "stateMutability": "view",
      "type": "function"
    },
    {
      "inputs": [],
      "name": "stETHVault",
      "outputs": [
        {
          "internalType": "contract IRibbonThetaVault",
          "name": "",
          "type": "address"
        }
      ],
      "stateMutability": "view",
      "type": "function"
    }
  ],
  "transactionHash": "0x5bc92f99f67c90b00d68858f4076bd90811e12bda8e3d309cb9d9ec0125941cb",
  "args": [
    "0xDC24316b9AE028F1497c275EB9192a3Ea0f67022",
    "0x53773E034d9784153471813dacAFF53dBBB78E8c",
    "0xae7ab96520de3a18e5e111b5eaab095312d7fe84"
  ],
  "solcInputHash": "08de8ac79b05a317f8ec97eb300e65f3",
  "bytecode": "0x60e060405234801561001057600080fd5b506040516109c33803806109c383398101604081905261002f91610151565b6001600160a01b03831661008a5760405162461bcd60e51b815260206004820152601360248201527f216375727665455448535445544820506f6f6c0000000000000000000000000060448201526064015b60405180910390fd5b6001600160a01b0382166100ce5760405162461bcd60e51b815260206004820152600b60248201526a085cdd11551215985d5b1d60aa1b6044820152606401610081565b6001600160a01b03811661010e5760405162461bcd60e51b8152602060048201526007602482015266042bee6e88aa8960cb1b6044820152606401610081565b6001600160601b0319606093841b811660805291831b821660a05290911b1660c052610193565b80516001600160a01b038116811461014c57600080fd5b919050565b600080600060608486031215610165578283fd5b61016e84610135565b925061017c60208501610135565b915061018a60408501610135565b90509250925092565b60805160601c60a05160601c60c05160601c6107d86101eb6000396000818160ef015281816101db015261026c01526000818160560152818161028e01526102cf01526000818160a6015261013d01526107d86000f3fe60806040526004361061003f5760003560e01c8063168ff765146100445780637cec9e0414610094578063b6b55f25146100c8578063c1fe3e48146100dd575b600080fd5b34801561005057600080fd5b506100787f000000000000000000000000000000000000000000000000000000000000000081565b6040516001600160a01b03909116815260200160405180910390f35b3480156100a057600080fd5b506100787f000000000000000000000000000000000000000000000000000000000000000081565b6100db6100d63660046106f3565b610111565b005b3480156100e957600080fd5b506100787f000000000000000000000000000000000000000000000000000000000000000081565b604051630f7c084960e21b815260006004820152600160248201523460448201819052606482018390527f00000000000000000000000000000000000000000000000000000000000000006001600160a01b031691633df0212491906084016020604051808303818588803b15801561018957600080fd5b505af115801561019d573d6000803e3d6000fd5b50505050506040513d601f19601f820116820180604052508101906101c2919061070b565b506040516370a0823160e01b81523060048201526000907f00000000000000000000000000000000000000000000000000000000000000006001600160a01b0316906370a082319060240160206040518083038186803b15801561022557600080fd5b505afa158015610239573d6000803e3d6000fd5b505050506040513d601f19601f8201168201806040525081019061025d919061070b565b90506102b36001600160a01b037f0000000000000000000000000000000000000000000000000000000000000000167f000000000000000000000000000000000000000000000000000000000000000083610337565b6040516332f5210f60e11b8152600481018290523360248201527f00000000000000000000000000000000000000000000000000000000000000006001600160a01b0316906365ea421e90604401600060405180830381600087803b15801561031b57600080fd5b505af115801561032f573d6000803e3d6000fd5b505050505050565b8015806103c05750604051636eb1769f60e11b81523060048201526001600160a01b03838116602483015284169063dd62ed3e9060440160206040518083038186803b15801561038657600080fd5b505afa15801561039a573d6000803e3d6000fd5b505050506040513d601f19601f820116820180604052508101906103be919061070b565b155b6104305760405162461bcd60e51b815260206004820152603660248201527f5361666545524332303a20617070726f76652066726f6d206e6f6e2d7a65726f60448201527520746f206e6f6e2d7a65726f20616c6c6f77616e636560501b60648201526084015b60405180910390fd5b604080516001600160a01b038416602482015260448082018490528251808303909101815260649091019091526020810180516001600160e01b031663095ea7b360e01b179052610482908490610487565b505050565b60006104dc826040518060400160405280602081526020017f5361666545524332303a206c6f772d6c6576656c2063616c6c206661696c6564815250856001600160a01b03166105599092919063ffffffff16565b80519091501561048257808060200190518101906104fa91906106d3565b6104825760405162461bcd60e51b815260206004820152602a60248201527f5361666545524332303a204552433230206f7065726174696f6e20646964206e6044820152691bdd081cdd58d8d9595960b21b6064820152608401610427565b60606105688484600085610572565b90505b9392505050565b6060824710156105d35760405162461bcd60e51b815260206004820152602660248201527f416464726573733a20696e73756666696369656e742062616c616e636520666f6044820152651c8818d85b1b60d21b6064820152608401610427565b843b6106215760405162461bcd60e51b815260206004820152601d60248201527f416464726573733a2063616c6c20746f206e6f6e2d636f6e74726163740000006044820152606401610427565b600080866001600160a01b0316858760405161063d9190610723565b60006040518083038185875af1925050503d806000811461067a576040519150601f19603f3d011682016040523d82523d6000602084013e61067f565b606091505b509150915061068f82828661069a565b979650505050505050565b606083156106a957508161056b565b8251156106b95782518084602001fd5b8160405162461bcd60e51b8152600401610427919061073f565b6000602082840312156106e4578081fd5b8151801515811461056b578182fd5b600060208284031215610704578081fd5b5035919050565b60006020828403121561071c578081fd5b5051919050565b60008251610735818460208701610772565b9190910192915050565b602081526000825180602084015261075e816040850160208701610772565b601f01601f19169190910160400192915050565b60005b8381101561078d578181015183820152602001610775565b8381111561079c576000848401525b5050505056fea2646970667358221220663aca7a868554e92d87ff5708a3dd398acb5dece8d1227792eddc21eee8abca64736f6c63430008040033",
  "devdoc": {
    "kind": "dev",
    "methods": {},
    "version": 1
  },
  "userdoc": {
    "kind": "user",
    "methods": {
      "deposit(uint256)": {
        "notice": "Swaps ETH -> stETH on Curve ETH-stETH pool, and deposits into stETH vault"
      }
    },
    "version": 1
  },
  "storageLayout": {
    "storage": [],
    "types": null
  }
}