{
  "address": "0x62EF288f5301aC04Fee91524c1f32C7E1de55652",
  "abi": [
    {
      "inputs": [
        {
          "internalType": "address[]",
          "name": "existingVaultAddresses",
          "type": "address[]"
        },
        {
          "internalType": "enum VaultDeploymentEventEmitter.VaultType[]",
          "name": "existingVaultTypes",
          "type": "uint8[]"
        }
      ],
      "stateMutability": "nonpayable",
      "type": "constructor"
    },
    {
      "anonymous": false,
      "inputs": [
        {
          "indexed": false,
          "internalType": "address",
          "name": "vaultAddress",
          "type": "address"
        },
        {
          "indexed": true,
          "internalType": "enum VaultDeploymentEventEmitter.VaultType",
          "name": "vaultType",
          "type": "uint8"
        }
      ],
      "name": "NewVault",
      "type": "event"
    },
    {
      "anonymous": false,
      "inputs": [
        {
          "indexed": true,
          "internalType": "address",
          "name": "previousOwner",
          "type": "address"
        },
        {
          "indexed": true,
          "internalType": "address",
          "name": "newOwner",
          "type": "address"
        }
      ],
      "name": "OwnershipTransferred",
      "type": "event"
    },
    {
      "inputs": [
        {
          "internalType": "enum VaultDeploymentEventEmitter.VaultType",
          "name": "_vaultType",
          "type": "uint8"
        }
      ],
      "name": "getVaultAddresses",
      "outputs": [
        {
          "internalType": "address[]",
          "name": "",
          "type": "address[]"
        }
      ],
      "stateMutability": "view",
      "type": "function"
    },
    {
      "inputs": [
        {
          "internalType": "address",
          "name": "_newVaultAddress",
          "type": "address"
        },
        {
          "internalType": "enum VaultDeploymentEventEmitter.VaultType",
          "name": "_vaultType",
          "type": "uint8"
        }
      ],
      "name": "newVault",
      "outputs": [],
      "stateMutability": "nonpayable",
      "type": "function"
    },
    {
      "inputs": [],
      "name": "owner",
      "outputs": [
        {
          "internalType": "address",
          "name": "",
          "type": "address"
        }
      ],
      "stateMutability": "view",
      "type": "function"
    },
    {
      "inputs": [],
      "name": "renounceOwnership",
      "outputs": [],
      "stateMutability": "nonpayable",
      "type": "function"
    },
    {
      "inputs": [
        {
          "internalType": "address",
          "name": "newOwner",
          "type": "address"
        }
      ],
      "name": "transferOwnership",
      "outputs": [],
      "stateMutability": "nonpayable",
      "type": "function"
    }
  ],
  "transactionHash": "0xecd28da986c11f21bfaeec52a0a1c200d1a8745cebaf74fb175404dc4b289a13",
  "args": [
    [
      "0x8b5876f5B0Bf64056A89Aa7e97511644758c3E8c",
      "0x0FABaF48Bbf864a3947bdd0Ba9d764791a60467A",
      "0x8FE74471F198E426e96bE65f40EeD1F8BA96e54f",
      "0x16772a7f4a3ca291C21B8AcE76F9332dDFfbb5Ef",
      "0xe63151A0Ed4e5fafdc951D877102cf0977Abd365",
      "0xc0cF10Dd710aefb209D9dc67bc746510ffd98A53",
      "0x25751853Eab4D0eB3652B5eB6ecB102A2789644B",
      "0x53773E034d9784153471813dacAFF53dBBB78E8c",
      "0x65a833afDc250D9d38f8CD9bC2B1E3132dB13B2F",
      "0xCc323557c71C0D1D20a1861Dc69c06C5f3cC9624",
      "0xA1Da0580FA96129E753D736a5901C31Df5eC5edf",
      "0xDD9d1B7dEaB1A843A1B584d2CA5903B8A4735deF",
      "0x84c2b16fa6877a8ff4f3271db7ea837233dfd6f0",
      "0xce5513474e077f5336cf1b33c1347fdd8d48ae8c",
      "0x1e2d05bd78bd50eaa380ef71f86430ed20301bf5",
      "0x8D93ac93Bd8f6C0c1c1955f0B9Fe8508281A869C",
      "0x270f4a26a3fe5766ccef9608718491bb057be238",
      "0x2a6b048eb15c7d4ddca27db4f9a454196898a0fe",
      "0x42cf874bbe5564efcf252bc90829551f4ec639dc",
      "0xe44edf7ad1d434afe3397687dd0a914674f2e405",
      "0x34B44791fc1aAAc1120994a885c9Df6CDE50ECda",
      "0x5D5b71Eb15075810225c7dcD9e82ae344224e9Eb",
      "0x06275be44E6F886c4E470DCF880f5Fb960d79d1c",
      "0x0dD119Bea1BF0eDc4fd9C7E96bB829eC3f5013A1"
    ],
    [
      0,
      0,
      0,
      0,
      0,
      0,
      0,
      0,
      0,
      0,
      0,
      0,
      1,
      1,
      2,
      2,
      2,
      2,
      2,
      2,
      3,
      3,
      3,
      3
    ]
  ],
  "solcInputHash": "419173bffb09364bb3eed6a479fafc77",
  "bytecode": "0x608060405234801561001057600080fd5b5060405161097f38038061097f83398101604081905261002f916102b3565b610038336100bc565b60005b82518110156100b4576100a283828151811061006757634e487b7160e01b600052603260045260246000fd5b602002602001015183838151811061008f57634e487b7160e01b600052603260045260246000fd5b602002602001015161010c60201b60201c565b806100ac816103d6565b91505061003b565b505050610413565b600080546001600160a01b038381166001600160a01b0319831681178455604051919092169283917f8be0079c531659141344cd1fd0a4f28419497f9722a3daafe3b4186f6b6457e09190a35050565b6001600160a01b03821661015a5760405162461bcd60e51b8152602060048201526011602482015270215f6e65775661756c744164647265737360781b604482015260640160405180910390fd5b6001600082600381111561017e57634e487b7160e01b600052602160045260246000fd5b600381111561019d57634e487b7160e01b600052602160045260246000fd5b8152602080820192909252604001600090812080546001810182559082529190200180546001600160a01b0319166001600160a01b0384161790558060038111156101f857634e487b7160e01b600052602160045260246000fd5b6040516001600160a01b03841681527faa4f2ea1d546bd6cf36ccc784dff83f0ba74bc84a0996f4d36de8daeaa335c7d9060200160405180910390a25050565b600082601f830112610248578081fd5b8151602061025d610258836103b3565b610383565b80838252828201915082860187848660051b890101111561027c578586fd5b855b858110156102a657815160048110610294578788fd5b8452928401929084019060010161027e565b5090979650505050505050565b600080604083850312156102c5578182fd5b82516001600160401b03808211156102db578384fd5b818501915085601f8301126102ee578384fd5b815160206102fe610258836103b3565b8083825282820191508286018a848660051b890101111561031d578889fd5b8896505b848710156103535780516001600160a01b038116811461033f57898afd5b835260019690960195918301918301610321565b509188015191965090935050508082111561036c578283fd5b5061037985828601610238565b9150509250929050565b604051601f8201601f191681016001600160401b03811182821017156103ab576103ab6103fd565b604052919050565b60006001600160401b038211156103cc576103cc6103fd565b5060051b60200190565b60006000198214156103f657634e487b7160e01b81526011600452602481fd5b5060010190565b634e487b7160e01b600052604160045260246000fd5b61055d806104226000396000f3fe608060405234801561001057600080fd5b50600436106100575760003560e01c80630e79c8f41461005c5780631d38148114610071578063715018a61461009a5780638da5cb5b146100a2578063f2fde38b146100bd575b600080fd5b61006f61006a366004610459565b6100d0565b005b61008461007f36600461048b565b610111565b60405161009191906104a5565b60405180910390f35b61006f6101c4565b6000546040516001600160a01b039091168152602001610091565b61006f6100cb366004610438565b6101fa565b6000546001600160a01b031633146101035760405162461bcd60e51b81526004016100fa906104f2565b60405180910390fd5b61010d8282610295565b5050565b60606001600083600381111561013757634e487b7160e01b600052602160045260246000fd5b600381111561015657634e487b7160e01b600052602160045260246000fd5b81526020019081526020016000208054806020026020016040519081016040528092919081815260200182805480156101b857602002820191906000526020600020905b81546001600160a01b0316815260019091019060200180831161019a575b50505050509050919050565b6000546001600160a01b031633146101ee5760405162461bcd60e51b81526004016100fa906104f2565b6101f860006103bd565b565b6000546001600160a01b031633146102245760405162461bcd60e51b81526004016100fa906104f2565b6001600160a01b0381166102895760405162461bcd60e51b815260206004820152602660248201527f4f776e61626c653a206e6577206f776e657220697320746865207a65726f206160448201526564647265737360d01b60648201526084016100fa565b610292816103bd565b50565b6001600160a01b0382166102df5760405162461bcd60e51b8152602060048201526011602482015270215f6e65775661756c744164647265737360781b60448201526064016100fa565b6001600082600381111561030357634e487b7160e01b600052602160045260246000fd5b600381111561032257634e487b7160e01b600052602160045260246000fd5b8152602080820192909252604001600090812080546001810182559082529190200180546001600160a01b0319166001600160a01b03841617905580600381111561037d57634e487b7160e01b600052602160045260246000fd5b6040516001600160a01b03841681527faa4f2ea1d546bd6cf36ccc784dff83f0ba74bc84a0996f4d36de8daeaa335c7d9060200160405180910390a25050565b600080546001600160a01b038381166001600160a01b0319831681178455604051919092169283917f8be0079c531659141344cd1fd0a4f28419497f9722a3daafe3b4186f6b6457e09190a35050565b80356001600160a01b038116811461042457600080fd5b919050565b80356004811061042457600080fd5b600060208284031215610449578081fd5b6104528261040d565b9392505050565b6000806040838503121561046b578081fd5b6104748361040d565b915061048260208401610429565b90509250929050565b60006020828403121561049c578081fd5b61045282610429565b6020808252825182820181905260009190848201906040850190845b818110156104e65783516001600160a01b0316835292840192918401916001016104c1565b50909695505050505050565b6020808252818101527f4f776e61626c653a2063616c6c6572206973206e6f7420746865206f776e657260408201526060019056fea2646970667358221220980ad4834cf4522e7db2caaf7bf155d8fecdd5c061cfa9d84bcf5e662b36655064736f6c63430008040033",
  "devdoc": {
    "events": {
      "NewVault(address,uint8)": {
        "params": {
          "vaultAddress": "the address of the vault",
          "vaultType": "the type of the vault"
        }
      }
    },
    "kind": "dev",
    "methods": {
      "constructor": {
        "params": {
          "existingVaultAddresses": "array with the existing vault addresses",
          "existingVaultTypes": "array with the existing vault types"
        }
      },
      "getVaultAddresses(uint8)": {
        "params": {
          "_vaultType": "the type of the vault"
        },
        "returns": {
          "_0": "array with the vault addresses of the chosen vault type"
        }
      },
      "newVault(address,uint8)": {
        "params": {
          "_newVaultAddress": "the address of the vault",
          "_vaultType": "the type of the vault"
        }
      },
      "owner()": {
        "details": "Returns the address of the current owner."
      },
      "renounceOwnership()": {
        "details": "Leaves the contract without owner. It will not be possible to call `onlyOwner` functions anymore. Can only be called by the current owner. NOTE: Renouncing ownership will leave the contract without an owner, thereby removing any functionality that is only available to the owner."
      },
      "transferOwnership(address)": {
        "details": "Transfers ownership of the contract to a new account (`newOwner`). Can only be called by the current owner."
      }
    },
    "version": 1
  },
  "userdoc": {
    "events": {
      "NewVault(address,uint8)": {
        "notice": "Emitted when a vault is deployed"
      }
    },
    "kind": "user",
    "methods": {
      "constructor": {
        "notice": "Initializes the contract with existing vault addresses"
      },
      "getVaultAddresses(uint8)": {
        "notice": "Gets all vault addresses of the chosen vault type"
      },
      "newVault(address,uint8)": {
        "notice": "Emits an event with the vault address and type"
      }
    },
    "version": 1
  },
  "storageLayout": {
    "storage": [
      {
        "astId": 1002,
        "contract": "contracts/utils/VaultDeploymentEventEmitter.sol:VaultDeploymentEventEmitter",
        "label": "_owner",
        "offset": 0,
        "slot": "0",
        "type": "t_address"
      },
      {
        "astId": 20191,
        "contract": "contracts/utils/VaultDeploymentEventEmitter.sol:VaultDeploymentEventEmitter",
        "label": "vaultAddresses",
        "offset": 0,
        "slot": "1",
        "type": "t_mapping(t_enum(VaultType)20184,t_array(t_address)dyn_storage)"
      }
    ],
    "types": {
      "t_address": {
        "encoding": "inplace",
        "label": "address",
        "numberOfBytes": "20"
      },
      "t_array(t_address)dyn_storage": {
        "base": "t_address",
        "encoding": "dynamic_array",
        "label": "address[]",
        "numberOfBytes": "32"
      },
      "t_enum(VaultType)20184": {
        "encoding": "inplace",
        "label": "enum VaultDeploymentEventEmitter.VaultType",
        "numberOfBytes": "1"
      },
      "t_mapping(t_enum(VaultType)20184,t_array(t_address)dyn_storage)": {
        "encoding": "mapping",
        "key": "t_enum(VaultType)20184",
        "label": "mapping(enum VaultDeploymentEventEmitter.VaultType => address[])",
        "numberOfBytes": "32",
        "value": "t_array(t_address)dyn_storage"
      }
    }
  }
}