{
  "address": "0x1D0635B7d004C0D321190341A78ABABBAD679D4d",
  "abi": [
    {
      "inputs": [
        {
          "internalType": "address",
          "name": "_usdc",
          "type": "address"
        },
        {
          "internalType": "address",
          "name": "_oTokenFactory",
          "type": "address"
        },
        {
          "internalType": "address",
          "name": "_gammaController",
          "type": "address"
        },
        {
          "internalType": "address",
          "name": "_marginPool",
          "type": "address"
        }
      ],
      "stateMutability": "nonpayable",
      "type": "constructor"
    },
    {
      "anonymous": false,
      "inputs": [
        {
          "indexed": true,
          "internalType": "address",
          "name": "owner",
          "type": "address"
        },
        {
          "indexed": true,
          "internalType": "address",
          "name": "spender",
          "type": "address"
        },
        {
          "indexed": false,
          "internalType": "uint256",
          "name": "value",
          "type": "uint256"
        }
      ],
      "name": "Approval",
      "type": "event"
    },
    {
      "anonymous": false,
      "inputs": [
        {
          "indexed": false,
          "internalType": "uint256",
          "name": "oldCap",
          "type": "uint256"
        },
        {
          "indexed": false,
          "internalType": "uint256",
          "name": "newCap",
          "type": "uint256"
        }
      ],
      "name": "CapSet",
      "type": "event"
    },
    {
      "anonymous": false,
      "inputs": [
        {
          "indexed": true,
          "internalType": "address",
          "name": "options",
          "type": "address"
        },
        {
          "indexed": false,
          "internalType": "uint256",
          "name": "withdrawAmount",
          "type": "uint256"
        },
        {
          "indexed": true,
          "internalType": "address",
          "name": "manager",
          "type": "address"
        }
      ],
      "name": "CloseShort",
      "type": "event"
    },
    {
      "anonymous": false,
      "inputs": [
        {
          "indexed": false,
          "internalType": "uint256",
          "name": "managementFee",
          "type": "uint256"
        },
        {
          "indexed": false,
          "internalType": "uint256",
          "name": "round",
          "type": "uint256"
        },
        {
          "indexed": true,
          "internalType": "address",
          "name": "feeRecipient",
          "type": "address"
        }
      ],
      "name": "CollectManagementFee",
      "type": "event"
    },
    {
      "anonymous": false,
      "inputs": [
        {
          "indexed": false,
          "internalType": "uint256",
          "name": "performanceFee",
          "type": "uint256"
        },
        {
          "indexed": false,
          "internalType": "uint256",
          "name": "round",
          "type": "uint256"
        },
        {
          "indexed": true,
          "internalType": "address",
          "name": "feeRecipient",
          "type": "address"
        }
      ],
      "name": "CollectPerformanceFee",
      "type": "event"
    },
    {
      "anonymous": false,
      "inputs": [
        {
          "indexed": true,
          "internalType": "address",
          "name": "account",
          "type": "address"
        },
        {
          "indexed": false,
          "internalType": "uint256",
          "name": "amount",
          "type": "uint256"
        },
        {
          "indexed": false,
          "internalType": "uint256",
          "name": "round",
          "type": "uint256"
        }
      ],
      "name": "Deposit",
      "type": "event"
    },
    {
      "anonymous": false,
      "inputs": [
        {
          "indexed": false,
          "internalType": "uint256",
          "name": "amount",
          "type": "uint256"
        },
        {
          "indexed": false,
          "internalType": "uint256[]",
          "name": "amounts",
          "type": "uint256[]"
        },
        {
          "indexed": false,
          "internalType": "address[]",
          "name": "recipients",
          "type": "address[]"
        },
        {
          "indexed": false,
          "internalType": "uint256",
          "name": "round",
          "type": "uint256"
        }
      ],
      "name": "DistributePremium",
      "type": "event"
    },
    {
      "anonymous": false,
      "inputs": [
        {
          "indexed": true,
          "internalType": "address",
          "name": "account",
          "type": "address"
        },
        {
          "indexed": false,
          "internalType": "uint256",
          "name": "shares",
          "type": "uint256"
        },
        {
          "indexed": false,
          "internalType": "uint256",
          "name": "round",
          "type": "uint256"
        }
      ],
      "name": "InitiateWithdraw",
      "type": "event"
    },
    {
      "anonymous": false,
      "inputs": [
        {
          "indexed": true,
          "internalType": "address",
          "name": "account",
          "type": "address"
        },
        {
          "indexed": false,
          "internalType": "uint256",
          "name": "amount",
          "type": "uint256"
        },
        {
          "indexed": false,
          "internalType": "uint256",
          "name": "round",
          "type": "uint256"
        }
      ],
      "name": "InstantWithdraw",
      "type": "event"
    },
    {
      "anonymous": false,
      "inputs": [
        {
          "indexed": false,
          "internalType": "uint256",
          "name": "managementFee",
          "type": "uint256"
        },
        {
          "indexed": false,
          "internalType": "uint256",
          "name": "newManagementFee",
          "type": "uint256"
        }
      ],
      "name": "ManagementFeeSet",
      "type": "event"
    },
    {
      "anonymous": false,
      "inputs": [
        {
          "indexed": false,
          "internalType": "uint256",
          "name": "strikePrice",
          "type": "uint256"
        },
        {
          "indexed": false,
          "internalType": "uint256",
          "name": "delta",
          "type": "uint256"
        }
      ],
      "name": "NewOptionStrikeSelected",
      "type": "event"
    },
    {
      "anonymous": false,
      "inputs": [
        {
          "indexed": true,
          "internalType": "address",
          "name": "options",
          "type": "address"
        },
        {
          "indexed": false,
          "internalType": "uint256",
          "name": "depositAmount",
          "type": "uint256"
        },
        {
          "indexed": true,
          "internalType": "address",
          "name": "manager",
          "type": "address"
        }
      ],
      "name": "OpenShort",
      "type": "event"
    },
    {
      "anonymous": false,
      "inputs": [
        {
          "indexed": true,
          "internalType": "address",
          "name": "previousOwner",
          "type": "address"
        },
        {
          "indexed": true,
          "internalType": "address",
          "name": "newOwner",
          "type": "address"
        }
      ],
      "name": "OwnershipTransferred",
      "type": "event"
    },
    {
      "anonymous": false,
      "inputs": [
        {
          "indexed": false,
          "internalType": "uint256",
          "name": "performanceFee",
          "type": "uint256"
        },
        {
          "indexed": false,
          "internalType": "uint256",
          "name": "newPerformanceFee",
          "type": "uint256"
        }
      ],
      "name": "PerformanceFeeSet",
      "type": "event"
    },
    {
      "anonymous": false,
      "inputs": [
        {
          "indexed": false,
          "internalType": "uint256",
          "name": "premiumDiscount",
          "type": "uint256"
        },
        {
          "indexed": false,
          "internalType": "uint256",
          "name": "newPremiumDiscount",
          "type": "uint256"
        }
      ],
      "name": "PremiumDiscountSet",
      "type": "event"
    },
    {
      "anonymous": false,
      "inputs": [
        {
          "indexed": true,
          "internalType": "address",
          "name": "account",
          "type": "address"
        },
        {
          "indexed": false,
          "internalType": "uint256",
          "name": "share",
          "type": "uint256"
        },
        {
          "indexed": false,
          "internalType": "uint256",
          "name": "round",
          "type": "uint256"
        }
      ],
      "name": "Redeem",
      "type": "event"
    },
    {
      "anonymous": false,
      "inputs": [
        {
          "indexed": true,
          "internalType": "address",
          "name": "from",
          "type": "address"
        },
        {
          "indexed": true,
          "internalType": "address",
          "name": "to",
          "type": "address"
        },
        {
          "indexed": false,
          "internalType": "uint256",
          "name": "value",
          "type": "uint256"
        }
      ],
      "name": "Transfer",
      "type": "event"
    },
    {
      "anonymous": false,
      "inputs": [
        {
          "indexed": true,
          "internalType": "address",
          "name": "account",
          "type": "address"
        },
        {
          "indexed": false,
          "internalType": "uint256",
          "name": "amount",
          "type": "uint256"
        },
        {
          "indexed": false,
          "internalType": "uint256",
          "name": "shares",
          "type": "uint256"
        }
      ],
      "name": "Withdraw",
      "type": "event"
    },
    {
      "inputs": [],
      "name": "DELAY",
      "outputs": [
        {
          "internalType": "uint256",
          "name": "",
          "type": "uint256"
        }
      ],
      "stateMutability": "view",
      "type": "function"
    },
    {
      "inputs": [],
      "name": "GAMMA_CONTROLLER",
      "outputs": [
        {
          "internalType": "address",
          "name": "",
          "type": "address"
        }
      ],
      "stateMutability": "view",
      "type": "function"
    },
    {
      "inputs": [],
      "name": "MARGIN_POOL",
      "outputs": [
        {
          "internalType": "address",
          "name": "",
          "type": "address"
        }
      ],
      "stateMutability": "view",
      "type": "function"
    },
    {
      "inputs": [],
      "name": "OTOKEN_FACTORY",
      "outputs": [
        {
          "internalType": "address",
          "name": "",
          "type": "address"
        }
      ],
      "stateMutability": "view",
      "type": "function"
    },
    {
      "inputs": [],
      "name": "USDC",
      "outputs": [
        {
          "internalType": "address",
          "name": "",
          "type": "address"
        }
      ],
      "stateMutability": "view",
      "type": "function"
    },
    {
      "inputs": [
        {
          "internalType": "address",
          "name": "account",
          "type": "address"
        }
      ],
      "name": "accountVaultBalance",
      "outputs": [
        {
          "internalType": "uint256",
          "name": "",
          "type": "uint256"
        }
      ],
      "stateMutability": "view",
      "type": "function"
    },
    {
      "inputs": [
        {
          "internalType": "address",
          "name": "owner",
          "type": "address"
        },
        {
          "internalType": "address",
          "name": "spender",
          "type": "address"
        }
      ],
      "name": "allowance",
      "outputs": [
        {
          "internalType": "uint256",
          "name": "",
          "type": "uint256"
        }
      ],
      "stateMutability": "view",
      "type": "function"
    },
    {
      "inputs": [
        {
          "internalType": "address",
          "name": "spender",
          "type": "address"
        },
        {
          "internalType": "uint256",
          "name": "amount",
          "type": "uint256"
        }
      ],
      "name": "approve",
      "outputs": [
        {
          "internalType": "bool",
          "name": "",
          "type": "bool"
        }
      ],
      "stateMutability": "nonpayable",
      "type": "function"
    },
    {
      "inputs": [],
      "name": "auctionDuration",
      "outputs": [
        {
          "internalType": "uint256",
          "name": "",
          "type": "uint256"
        }
      ],
      "stateMutability": "view",
      "type": "function"
    },
    {
      "inputs": [
        {
          "internalType": "address",
          "name": "account",
          "type": "address"
        }
      ],
      "name": "balanceOf",
      "outputs": [
        {
          "internalType": "uint256",
          "name": "",
          "type": "uint256"
        }
      ],
      "stateMutability": "view",
      "type": "function"
    },
    {
      "inputs": [],
      "name": "burnRemainingOTokens",
      "outputs": [],
      "stateMutability": "nonpayable",
      "type": "function"
    },
    {
      "inputs": [],
      "name": "cap",
      "outputs": [
        {
          "internalType": "uint256",
          "name": "",
          "type": "uint256"
        }
      ],
      "stateMutability": "view",
      "type": "function"
    },
    {
      "inputs": [],
      "name": "chargeAndDistribute",
      "outputs": [],
      "stateMutability": "nonpayable",
      "type": "function"
    },
    {
      "inputs": [],
      "name": "commitAndClose",
      "outputs": [],
      "stateMutability": "nonpayable",
      "type": "function"
    },
    {
      "inputs": [],
      "name": "completeWithdraw",
      "outputs": [],
      "stateMutability": "nonpayable",
      "type": "function"
    },
    {
      "inputs": [],
      "name": "currentOption",
      "outputs": [
        {
          "internalType": "address",
          "name": "",
          "type": "address"
        }
      ],
      "stateMutability": "view",
      "type": "function"
    },
    {
      "inputs": [],
      "name": "currentOtokenPremium",
      "outputs": [
        {
          "internalType": "uint256",
          "name": "",
          "type": "uint256"
        }
      ],
      "stateMutability": "view",
      "type": "function"
    },
    {
      "inputs": [],
      "name": "decimals",
      "outputs": [
        {
          "internalType": "uint8",
          "name": "",
          "type": "uint8"
        }
      ],
      "stateMutability": "view",
      "type": "function"
    },
    {
      "inputs": [
        {
          "internalType": "address",
          "name": "spender",
          "type": "address"
        },
        {
          "internalType": "uint256",
          "name": "subtractedValue",
          "type": "uint256"
        }
      ],
      "name": "decreaseAllowance",
      "outputs": [
        {
          "internalType": "bool",
          "name": "",
          "type": "bool"
        }
      ],
      "stateMutability": "nonpayable",
      "type": "function"
    },
    {
      "inputs": [
        {
          "internalType": "uint256",
          "name": "amount",
          "type": "uint256"
        }
      ],
      "name": "deposit",
      "outputs": [],
      "stateMutability": "nonpayable",
      "type": "function"
    },
    {
      "inputs": [
        {
          "internalType": "address",
          "name": "",
          "type": "address"
        }
      ],
      "name": "depositReceipts",
      "outputs": [
        {
          "internalType": "uint16",
          "name": "round",
          "type": "uint16"
        },
        {
          "internalType": "uint104",
          "name": "amount",
          "type": "uint104"
        },
        {
          "internalType": "uint128",
          "name": "unredeemedShares",
          "type": "uint128"
        }
      ],
      "stateMutability": "view",
      "type": "function"
    },
    {
      "inputs": [
        {
          "internalType": "uint256",
          "name": "",
          "type": "uint256"
        }
      ],
      "name": "depositorsArray",
      "outputs": [
        {
          "internalType": "address",
          "name": "",
          "type": "address"
        }
      ],
      "stateMutability": "view",
      "type": "function"
    },
    {
      "inputs": [
        {
          "internalType": "address",
          "name": "",
          "type": "address"
        }
      ],
      "name": "depositorsMap",
      "outputs": [
        {
          "internalType": "bool",
          "name": "",
          "type": "bool"
        }
      ],
      "stateMutability": "view",
      "type": "function"
    },
    {
      "inputs": [],
      "name": "feeRecipient",
      "outputs": [
        {
          "internalType": "address",
          "name": "",
          "type": "address"
        }
      ],
      "stateMutability": "view",
      "type": "function"
    },
    {
      "inputs": [
        {
          "internalType": "address",
          "name": "spender",
          "type": "address"
        },
        {
          "internalType": "uint256",
          "name": "addedValue",
          "type": "uint256"
        }
      ],
      "name": "increaseAllowance",
      "outputs": [
        {
          "internalType": "bool",
          "name": "",
          "type": "bool"
        }
      ],
      "stateMutability": "nonpayable",
      "type": "function"
    },
    {
      "inputs": [
        {
          "internalType": "uint256",
          "name": "numRounds",
          "type": "uint256"
        }
      ],
      "name": "initRounds",
      "outputs": [],
      "stateMutability": "nonpayable",
      "type": "function"
    },
    {
      "inputs": [
        {
          "components": [
            {
              "internalType": "address",
              "name": "_owner",
              "type": "address"
            },
            {
              "internalType": "address",
              "name": "_keeper",
              "type": "address"
            },
            {
              "internalType": "address",
              "name": "_feeRecipient",
              "type": "address"
            },
            {
              "internalType": "uint256",
              "name": "_managementFee",
              "type": "uint256"
            },
            {
              "internalType": "uint256",
              "name": "_performanceFee",
              "type": "uint256"
            },
            {
              "internalType": "string",
              "name": "_tokenName",
              "type": "string"
            },
            {
              "internalType": "string",
              "name": "_tokenSymbol",
              "type": "string"
            },
            {
              "internalType": "address",
              "name": "_optionsPremiumPricer",
              "type": "address"
            },
            {
              "internalType": "address",
              "name": "_strikeSelection",
              "type": "address"
            },
            {
              "internalType": "uint32",
              "name": "_premiumDiscount",
              "type": "uint32"
            },
            {
              "internalType": "uint256",
              "name": "_auctionDuration",
              "type": "uint256"
            },
            {
              "internalType": "uint256",
              "name": "_period",
              "type": "uint256"
            },
            {
              "internalType": "uint256",
              "name": "_maxDepositors",
              "type": "uint256"
            },
            {
              "internalType": "uint256",
              "name": "_minDeposit",
              "type": "uint256"
            }
          ],
          "internalType": "struct VaultLifecycleTreasury.InitParams",
          "name": "_initParams",
          "type": "tuple"
        },
        {
          "components": [
            {
              "internalType": "bool",
              "name": "isPut",
              "type": "bool"
            },
            {
              "internalType": "uint8",
              "name": "decimals",
              "type": "uint8"
            },
            {
              "internalType": "address",
              "name": "asset",
              "type": "address"
            },
            {
              "internalType": "address",
              "name": "underlying",
              "type": "address"
            },
            {
              "internalType": "uint56",
              "name": "minimumSupply",
              "type": "uint56"
            },
            {
              "internalType": "uint104",
              "name": "cap",
              "type": "uint104"
            }
          ],
          "internalType": "struct Vault.VaultParams",
          "name": "_vaultParams",
          "type": "tuple"
        }
      ],
      "name": "initialize",
      "outputs": [],
      "stateMutability": "nonpayable",
      "type": "function"
    },
    {
      "inputs": [
        {
          "internalType": "uint256",
          "name": "numShares",
          "type": "uint256"
        }
      ],
      "name": "initiateWithdraw",
      "outputs": [],
      "stateMutability": "nonpayable",
      "type": "function"
    },
    {
      "inputs": [],
      "name": "keeper",
      "outputs": [
        {
          "internalType": "address",
          "name": "",
          "type": "address"
        }
      ],
      "stateMutability": "view",
      "type": "function"
    },
    {
      "inputs": [],
      "name": "lastQueuedWithdrawAmount",
      "outputs": [
        {
          "internalType": "uint256",
          "name": "",
          "type": "uint256"
        }
      ],
      "stateMutability": "view",
      "type": "function"
    },
    {
      "inputs": [],
      "name": "lastStrikeOverrideRound",
      "outputs": [
        {
          "internalType": "uint16",
          "name": "",
          "type": "uint16"
        }
      ],
      "stateMutability": "view",
      "type": "function"
    },
    {
      "inputs": [],
      "name": "managementFee",
      "outputs": [
        {
          "internalType": "uint256",
          "name": "",
          "type": "uint256"
        }
      ],
      "stateMutability": "view",
      "type": "function"
    },
    {
      "inputs": [],
      "name": "maxDepositors",
      "outputs": [
        {
          "internalType": "uint256",
          "name": "",
          "type": "uint256"
        }
      ],
      "stateMutability": "view",
      "type": "function"
    },
    {
      "inputs": [],
      "name": "maxRedeem",
      "outputs": [],
      "stateMutability": "nonpayable",
      "type": "function"
    },
    {
      "inputs": [],
      "name": "minDeposit",
      "outputs": [
        {
          "internalType": "uint256",
          "name": "",
          "type": "uint256"
        }
      ],
      "stateMutability": "view",
      "type": "function"
    },
    {
      "inputs": [],
      "name": "name",
      "outputs": [
        {
          "internalType": "string",
          "name": "",
          "type": "string"
        }
      ],
      "stateMutability": "view",
      "type": "function"
    },
    {
      "inputs": [],
      "name": "nextOption",
      "outputs": [
        {
          "internalType": "address",
          "name": "",
          "type": "address"
        }
      ],
      "stateMutability": "view",
      "type": "function"
    },
    {
      "inputs": [],
      "name": "nextOptionReadyAt",
      "outputs": [
        {
          "internalType": "uint256",
          "name": "",
          "type": "uint256"
        }
      ],
      "stateMutability": "view",
      "type": "function"
    },
    {
      "inputs": [],
      "name": "oTokenMintAmount",
      "outputs": [
        {
          "internalType": "uint256",
          "name": "",
          "type": "uint256"
        }
      ],
      "stateMutability": "view",
      "type": "function"
    },
    {
      "inputs": [],
      "name": "optionAuctionID",
      "outputs": [
        {
          "internalType": "uint256",
          "name": "",
          "type": "uint256"
        }
      ],
      "stateMutability": "view",
      "type": "function"
    },
    {
      "inputs": [],
      "name": "optionState",
      "outputs": [
        {
          "internalType": "address",
          "name": "nextOption",
          "type": "address"
        },
        {
          "internalType": "address",
          "name": "currentOption",
          "type": "address"
        },
        {
          "internalType": "uint32",
          "name": "nextOptionReadyAt",
          "type": "uint32"
        }
      ],
      "stateMutability": "view",
      "type": "function"
    },
    {
      "inputs": [],
      "name": "optionsPremiumPricer",
      "outputs": [
        {
          "internalType": "address",
          "name": "",
          "type": "address"
        }
      ],
      "stateMutability": "view",
      "type": "function"
    },
    {
      "inputs": [],
      "name": "overriddenStrikePrice",
      "outputs": [
        {
          "internalType": "uint256",
          "name": "",
          "type": "uint256"
        }
      ],
      "stateMutability": "view",
      "type": "function"
    },
    {
      "inputs": [],
      "name": "owner",
      "outputs": [
        {
          "internalType": "address",
          "name": "",
          "type": "address"
        }
      ],
      "stateMutability": "view",
      "type": "function"
    },
    {
      "inputs": [],
      "name": "performanceFee",
      "outputs": [
        {
          "internalType": "uint256",
          "name": "",
          "type": "uint256"
        }
      ],
      "stateMutability": "view",
      "type": "function"
    },
    {
      "inputs": [],
      "name": "period",
      "outputs": [
        {
          "internalType": "uint256",
          "name": "",
          "type": "uint256"
        }
      ],
      "stateMutability": "view",
      "type": "function"
    },
    {
      "inputs": [],
      "name": "premiumDiscount",
      "outputs": [
        {
          "internalType": "uint256",
          "name": "",
          "type": "uint256"
        }
      ],
      "stateMutability": "view",
      "type": "function"
    },
    {
      "inputs": [],
      "name": "pricePerShare",
      "outputs": [
        {
          "internalType": "uint256",
          "name": "",
          "type": "uint256"
        }
      ],
      "stateMutability": "view",
      "type": "function"
    },
    {
      "inputs": [
        {
          "internalType": "uint256",
          "name": "numShares",
          "type": "uint256"
        }
      ],
      "name": "redeem",
      "outputs": [],
      "stateMutability": "nonpayable",
      "type": "function"
    },
    {
      "inputs": [],
      "name": "renounceOwnership",
      "outputs": [],
      "stateMutability": "nonpayable",
      "type": "function"
    },
    {
      "inputs": [],
      "name": "rollToNextOption",
      "outputs": [],
      "stateMutability": "nonpayable",
      "type": "function"
    },
    {
      "inputs": [
        {
          "internalType": "uint256",
          "name": "",
          "type": "uint256"
        }
      ],
      "name": "roundPricePerShare",
      "outputs": [
        {
          "internalType": "uint256",
          "name": "",
          "type": "uint256"
        }
      ],
      "stateMutability": "view",
      "type": "function"
    },
    {
      "inputs": [
        {
          "internalType": "address",
          "name": "buyer",
          "type": "address"
        }
      ],
      "name": "sendOTokens",
      "outputs": [],
      "stateMutability": "nonpayable",
      "type": "function"
    },
    {
      "inputs": [
        {
          "internalType": "uint256",
          "name": "newCap",
          "type": "uint256"
        }
      ],
      "name": "setCap",
      "outputs": [],
      "stateMutability": "nonpayable",
      "type": "function"
    },
    {
      "inputs": [
        {
          "internalType": "address",
          "name": "newFeeRecipient",
          "type": "address"
        }
      ],
      "name": "setFeeRecipient",
      "outputs": [],
      "stateMutability": "nonpayable",
      "type": "function"
    },
    {
      "inputs": [
        {
          "internalType": "uint256",
          "name": "newManagementFee",
          "type": "uint256"
        }
      ],
      "name": "setManagementFee",
      "outputs": [],
      "stateMutability": "nonpayable",
      "type": "function"
    },
    {
      "inputs": [
        {
          "internalType": "uint256",
          "name": "newMaxDepositors",
          "type": "uint256"
        }
      ],
      "name": "setMaxDepositors",
      "outputs": [],
      "stateMutability": "nonpayable",
      "type": "function"
    },
    {
      "inputs": [
        {
          "internalType": "uint256",
          "name": "newMinDeposit",
          "type": "uint256"
        }
      ],
      "name": "setMinDeposit",
      "outputs": [],
      "stateMutability": "nonpayable",
      "type": "function"
    },
    {
      "inputs": [
        {
          "internalType": "address",
          "name": "newKeeper",
          "type": "address"
        }
      ],
      "name": "setNewKeeper",
      "outputs": [],
      "stateMutability": "nonpayable",
      "type": "function"
    },
    {
      "inputs": [
        {
          "internalType": "address",
          "name": "newOptionsPremiumPricer",
          "type": "address"
        }
      ],
      "name": "setOptionsPremiumPricer",
      "outputs": [],
      "stateMutability": "nonpayable",
      "type": "function"
    },
    {
      "inputs": [
        {
          "internalType": "uint256",
          "name": "newPerformanceFee",
          "type": "uint256"
        }
      ],
      "name": "setPerformanceFee",
      "outputs": [],
      "stateMutability": "nonpayable",
      "type": "function"
    },
    {
      "inputs": [
        {
          "internalType": "uint256",
          "name": "newPremiumDiscount",
          "type": "uint256"
        }
      ],
      "name": "setPremiumDiscount",
      "outputs": [],
      "stateMutability": "nonpayable",
      "type": "function"
    },
    {
      "inputs": [
        {
          "internalType": "uint128",
          "name": "strikePrice",
          "type": "uint128"
        }
      ],
      "name": "setStrikePrice",
      "outputs": [],
      "stateMutability": "nonpayable",
      "type": "function"
    },
    {
      "inputs": [
        {
          "internalType": "address",
          "name": "newStrikeSelection",
          "type": "address"
        }
      ],
      "name": "setStrikeSelection",
      "outputs": [],
      "stateMutability": "nonpayable",
      "type": "function"
    },
    {
      "inputs": [
        {
          "internalType": "address",
          "name": "account",
          "type": "address"
        }
      ],
      "name": "shareBalances",
      "outputs": [
        {
          "internalType": "uint256",
          "name": "heldByAccount",
          "type": "uint256"
        },
        {
          "internalType": "uint256",
          "name": "heldByVault",
          "type": "uint256"
        }
      ],
      "stateMutability": "view",
      "type": "function"
    },
    {
      "inputs": [
        {
          "internalType": "address",
          "name": "account",
          "type": "address"
        }
      ],
      "name": "shares",
      "outputs": [
        {
          "internalType": "uint256",
          "name": "",
          "type": "uint256"
        }
      ],
      "stateMutability": "view",
      "type": "function"
    },
    {
      "inputs": [],
      "name": "strikeSelection",
      "outputs": [
        {
          "internalType": "address",
          "name": "",
          "type": "address"
        }
      ],
      "stateMutability": "view",
      "type": "function"
    },
    {
      "inputs": [],
      "name": "symbol",
      "outputs": [
        {
          "internalType": "string",
          "name": "",
          "type": "string"
        }
      ],
      "stateMutability": "view",
      "type": "function"
    },
    {
      "inputs": [],
      "name": "totalBalance",
      "outputs": [
        {
          "internalType": "uint256",
          "name": "",
          "type": "uint256"
        }
      ],
      "stateMutability": "view",
      "type": "function"
    },
    {
      "inputs": [],
      "name": "totalPending",
      "outputs": [
        {
          "internalType": "uint256",
          "name": "",
          "type": "uint256"
        }
      ],
      "stateMutability": "view",
      "type": "function"
    },
    {
      "inputs": [],
      "name": "totalSupply",
      "outputs": [
        {
          "internalType": "uint256",
          "name": "",
          "type": "uint256"
        }
      ],
      "stateMutability": "view",
      "type": "function"
    },
    {
      "inputs": [
        {
          "internalType": "address",
          "name": "recipient",
          "type": "address"
        },
        {
          "internalType": "uint256",
          "name": "amount",
          "type": "uint256"
        }
      ],
      "name": "transfer",
      "outputs": [
        {
          "internalType": "bool",
          "name": "",
          "type": "bool"
        }
      ],
      "stateMutability": "nonpayable",
      "type": "function"
    },
    {
      "inputs": [
        {
          "internalType": "address",
          "name": "sender",
          "type": "address"
        },
        {
          "internalType": "address",
          "name": "recipient",
          "type": "address"
        },
        {
          "internalType": "uint256",
          "name": "amount",
          "type": "uint256"
        }
      ],
      "name": "transferFrom",
      "outputs": [
        {
          "internalType": "bool",
          "name": "",
          "type": "bool"
        }
      ],
      "stateMutability": "nonpayable",
      "type": "function"
    },
    {
      "inputs": [
        {
          "internalType": "address",
          "name": "newOwner",
          "type": "address"
        }
      ],
      "name": "transferOwnership",
      "outputs": [],
      "stateMutability": "nonpayable",
      "type": "function"
    },
    {
      "inputs": [],
      "name": "vaultParams",
      "outputs": [
        {
          "internalType": "bool",
          "name": "isPut",
          "type": "bool"
        },
        {
          "internalType": "uint8",
          "name": "decimals",
          "type": "uint8"
        },
        {
          "internalType": "address",
          "name": "asset",
          "type": "address"
        },
        {
          "internalType": "address",
          "name": "underlying",
          "type": "address"
        },
        {
          "internalType": "uint56",
          "name": "minimumSupply",
          "type": "uint56"
        },
        {
          "internalType": "uint104",
          "name": "cap",
          "type": "uint104"
        }
      ],
      "stateMutability": "view",
      "type": "function"
    },
    {
      "inputs": [],
      "name": "vaultState",
      "outputs": [
        {
          "internalType": "uint16",
          "name": "round",
          "type": "uint16"
        },
        {
          "internalType": "uint104",
          "name": "lockedAmount",
          "type": "uint104"
        },
        {
          "internalType": "uint104",
          "name": "lastLockedAmount",
          "type": "uint104"
        },
        {
          "internalType": "uint128",
          "name": "totalPending",
          "type": "uint128"
        },
        {
          "internalType": "uint128",
          "name": "queuedWithdrawShares",
          "type": "uint128"
        }
      ],
      "stateMutability": "view",
      "type": "function"
    },
    {
      "inputs": [
        {
          "internalType": "uint256",
          "name": "amount",
          "type": "uint256"
        }
      ],
      "name": "withdrawInstantly",
      "outputs": [],
      "stateMutability": "nonpayable",
      "type": "function"
    },
    {
      "inputs": [
        {
          "internalType": "address",
          "name": "",
          "type": "address"
        }
      ],
      "name": "withdrawals",
      "outputs": [
        {
          "internalType": "uint16",
          "name": "round",
          "type": "uint16"
        },
        {
          "internalType": "uint128",
          "name": "shares",
          "type": "uint128"
        }
      ],
      "stateMutability": "view",
      "type": "function"
    }
  ],
  "transactionHash": "0x85a7a105604da421b02d2d433d767e6b1f610d517965a48994677622a287dd08",
  "args": [
    "0xaf88d065e77c8cC2239327C5EDb3A432268e5831",
    "0x058E58f315a3b9f76d874602D0964Dc237519745",
    "0x9a1f511f363e9F2bFeE1D205D19a444dae6D2F5d",
    "0x336F9eD898029f488Fd4EcdCC5D3a12b895A125d"
  ],
  "solcInputHash": "359918aea28ed0b1630a4791007d4f0a",
  "bytecode": "0x6101006040523480156200001257600080fd5b5060405162005b8a38038062005b8a8339810160408190526200003591620001a4565b6001600160a01b0384166200007a5760405162461bcd60e51b8152602060048201526006602482015265215f7573646360d01b60448201526064015b60405180910390fd5b6001600160a01b038316620000c45760405162461bcd60e51b815260206004820152600f60248201526e215f6f546f6b656e466163746f727960881b604482015260640162000071565b6001600160a01b038216620001105760405162461bcd60e51b815260206004820152601160248201527010afb3b0b6b6b0a1b7b73a3937b63632b960791b604482015260640162000071565b6001600160a01b038116620001575760405162461bcd60e51b815260206004820152600c60248201526b0857db585c99da5b941bdbdb60a21b604482015260640162000071565b6001600160601b0319606094851b811660805292841b831660e05290831b821660a05290911b1660c05262000200565b80516001600160a01b03811681146200019f57600080fd5b919050565b60008060008060808587031215620001ba578384fd5b620001c58562000187565b9350620001d56020860162000187565b9250620001e56040860162000187565b9150620001f56060860162000187565b905092959194509250565b60805160601c60a05160601c60c05160601c60e05160601c61590c6200027e60003960008181610afe015261252b0152600081816106ef015261216d0152600081816104d4015281816116e7015281816121450152613fc101526000818161087d01528181612550015281816127af01526135f4015261590c6000f3fe608060405234801561001057600080fd5b506004361061046a5760003560e01c80638da5cb5b1161024c578063c59f564211610146578063ea00b1ca116100c3578063f756fa2111610087578063f756fa2114610bd4578063f79d8d1214610bdc578063f957a06714610bff578063fc29738014610c12578063fe56e23214610c2557600080fd5b8063ea00b1ca14610b75578063ef78d4fd14610b7d578063efc981ed14610b86578063f2fde38b14610b99578063f656ba5114610bac57600080fd5b8063db006a751161010a578063db006a7514610ae6578063db43e86214610af9578063dd62ed3e14610b20578063e73c63d514610b59578063e74b981b14610b6257600080fd5b8063c59f564214610a9b578063ce7c2ac214610aa4578063d13f1b3e14610ab7578063d164cc1514610aca578063d5f2638214610add57600080fd5b8063a285c9e8116101d4578063aced166111610198578063aced166114610a52578063ad7a672f14610a65578063afa6626414610a6d578063b6b55f2514610a80578063b9f8092b14610a9357600080fd5b8063a285c9e8146109fd578063a2db9d8314610a12578063a457c2d714610a23578063a6f7f5d614610a36578063a9059cbb14610a3f57600080fd5b806399530b061161021b57806399530b06146108e45780639b2e601b146108ec5780639be43daa146108f55780639fcc2d7514610908578063a083ff17146109a757600080fd5b80638da5cb5b146108b05780638fcc9cfb146108c157806395d89b41146108d457806396d2a76b146108dc57600080fd5b806347786d371161036857806370897b23116102e557806383536ff3116102a957806383536ff31461084657806387153eb11461084f578063877887821461086f57806389a30271146108785780638b10cc7c1461089f57600080fd5b806370897b231461079857806370a08231146107ab578063715018a6146107d45780637a9262a2146107dc5780637e108d521461083357600080fd5b8063601d6ba91161032c578063601d6ba9146106d7578063650cce8a146106ea5780636719b2ee1461071157806369b41170146107885780636f31ab341461079057600080fd5b806347786d371461068d5780634af96d29146106a0578063503c70aa146106b357806355489bb2146106bc578063600a2cfb146106cf57600080fd5b8063313ce567116103f65780633f90916a116103ba5780633f90916a1461064457806341b3d18514610655578063432833a61461065e5780634603c0aa14610667578063469048401461067a57600080fd5b8063313ce567146105cf578063355274ea146105ec57806339509351146105fd5780633ec143d3146106105780633f23bb731461063157600080fd5b80631a92f6c21161043d5780631a92f6c2146104cf57806323b872dd1461050e5780632728f333146105215780632775d01c146105a757806330630da4146105bc57600080fd5b806306fdde031461046f578063095ea7b31461048d5780630cbf54c8146104b057806318160ddd146104c7575b600080fd5b610477610c38565b604051610484919061512f565b60405180910390f35b6104a061049b366004614ec3565b610cca565b6040519015158152602001610484565b6104b960e35481565b604051908152602001610484565b6099546104b9565b6104f67f000000000000000000000000000000000000000000000000000000000000000081565b6040516001600160a01b039091168152602001610484565b6104a061051c366004614e83565b610ce1565b60cc5460cd546105629161ffff8116916001600160681b03620100008304811692600160781b900416906001600160801b0380821691600160801b90041685565b6040805161ffff90961686526001600160681b03948516602087015293909216928401929092526001600160801b03918216606084015216608082015260a001610484565b6105ba6105b5366004614fcb565b610d92565b005b6105ba6105ca366004614e2f565b610fd3565b60c954610100900460ff1660405160ff9091168152602001610484565b60cb546001600160681b03166104b9565b6104a061060b366004614ec3565b61106b565b60dd5461061e9061ffff1681565b60405161ffff9091168152602001610484565b6104b961063f366004614e2f565b6110a7565b60cd546001600160801b03166104b9565b6104b960e65481565b6104b960e45481565b6105ba610675366004614e2f565b6110fa565b60d3546104f6906001600160a01b031681565b6105ba61069b366004614fcb565b61119c565b6105ba6106ae366004614f48565b611277565b6104b960db5481565b6105ba6106ca366004614fa4565b6115e3565b6105ba61167b565b6104f66106e5366004614fcb565b6117d6565b6104f67f000000000000000000000000000000000000000000000000000000000000000081565b61075761071f366004614e2f565b60d06020526000908152604090205461ffff8116906201000081046001600160681b031690600160781b90046001600160801b031683565b6040805161ffff90941684526001600160681b0390921660208401526001600160801b031690820152606001610484565b6104b9600081565b6105ba611800565b6105ba6107a6366004614fcb565b61183d565b6104b96107b9366004614e2f565b6001600160a01b031660009081526097602052604090205490565b6105ba611904565b6108116107ea366004614e2f565b60d26020526000908152604090205461ffff8116906201000090046001600160801b031682565b6040805161ffff90931683526001600160801b03909116602083015201610484565b6105ba610841366004614fcb565b61193a565b6104b960d95481565b6104b961085d366004614fcb565b60d16020526000908152604090205481565b6104b960d75481565b6104f67f000000000000000000000000000000000000000000000000000000000000000081565b60cf546001600160a01b03166104f6565b6065546001600160a01b03166104f6565b6105ba6108cf366004614fcb565b611c40565b610477611cd9565b6105ba611ce8565b6104b9611d42565b6104b960e55481565b6105ba610903366004614fcb565b611d7c565b60c95460ca5460cb546109579260ff808216936101008304909116926001600160a01b036201000090930483169282169166ffffffffffffff600160a01b90910416906001600160681b031686565b60408051961515875260ff90951660208701526001600160a01b03938416948601949094529116606084015266ffffffffffffff1660808301526001600160681b031660a082015260c001610484565b60ce5460cf546109d1916001600160a01b039081169190811690600160a01b900463ffffffff1683565b604080516001600160a01b03948516815293909216602084015263ffffffff1690820152606001610484565b60cf54600160a01b900463ffffffff166104b9565b60ce546001600160a01b03166104f6565b6104a0610a31366004614ec3565b611e76565b6104b960d85481565b6104a0610a4d366004614ec3565b611f0f565b60d4546104f6906001600160a01b031681565b6104b9611f1c565b60d5546104f6906001600160a01b031681565b6105ba610a8e366004614fcb565b611fbb565b6105ba612052565b6104b960de5481565b6104b9610ab2366004614e2f565b61221c565b6105ba610ac5366004614fcb565b612239565b6105ba610ad8366004614e2f565b6122fd565b6104b960e25481565b6105ba610af4366004614fcb565b61238c565b6104f67f000000000000000000000000000000000000000000000000000000000000000081565b6104b9610b2e366004614e4b565b6001600160a01b03918216600090815260986020908152604080832093909416825291909152205490565b6104b960da5481565b6105ba610b70366004614e2f565b6123f9565b6105ba6124ec565b6104b960dc5481565b6105ba610b94366004614e2f565b61284c565b6105ba610ba7366004614e2f565b612979565b610bbf610bba366004614e2f565b612a14565b60408051928352602083019190915201610484565b6105ba612af7565b6104a0610bea366004614e2f565b60e06020526000908152604090205460ff1681565b60d6546104f6906001600160a01b031681565b6105ba610c20366004614fcb565b612b4c565b6105ba610c33366004614fcb565b612be8565b6060609a8054610c47906156ac565b80601f0160208091040260200160405190810160405280929190818152602001828054610c73906156ac565b8015610cc05780601f10610c9557610100808354040283529160200191610cc0565b820191906000526020600020905b815481529060010190602001808311610ca357829003601f168201915b5050505050905090565b6000610cd7338484612cb1565b5060015b92915050565b6000610cee848484612dd6565b6001600160a01b038416600090815260986020908152604080832033845290915290205482811015610d785760405162461bcd60e51b815260206004820152602860248201527f45524332303a207472616e7366657220616d6f756e74206578636565647320616044820152676c6c6f77616e636560c01b60648201526084015b60405180910390fd5b610d858533858403612cb1565b60019150505b9392505050565b60026001541415610db55760405162461bcd60e51b8152600401610d6f9061523d565b600260015533600090815260d06020526040902060cc5461ffff1682610e075760405162461bcd60e51b815260206004820152600760248201526608585b5bdd5b9d60ca1b6044820152606401610d6f565b815461ffff168114610e4b5760405162461bcd60e51b815260206004820152600d60248201526c125b9d985b1a59081c9bdd5b99609a1b6044820152606401610d6f565b81546201000090046001600160681b031683811015610e9c5760405162461bcd60e51b815260206004820152600d60248201526c115e18d9595908185b5bdd5b9d609a1b6044820152606401610d6f565b6000610eb182610eab336110a7565b90612e58565b905084811115610eed576000610ec78287612e64565b905060e654811015610eeb5760405162461bcd60e51b8152600401610d6f90615206565b505b610ef78286612e64565b84546001600160681b0391909116620100000262010000600160781b031990911617845560cd54610f31906001600160801b031686612e64565b60cd80546001600160801b0319166001600160801b0392909216919091179055604080518681526020810185905233917fab2daf3c146ca6416cbccd2a86ed2ba995e171ef6319df14a38aef01403a9c96910160405180910390a283546201000090046001600160681b0316158015610fb05750610fae3361221c565b155b15610fbe57610fbe33612e70565b610fc833866130c1565b505060018055505050565b6065546001600160a01b03163314610ffd5760405162461bcd60e51b8152600401610d6f906151d1565b6001600160a01b0381166110495760405162461bcd60e51b815260206004820152601360248201527210b732bba9ba3934b5b2a9b2b632b1ba34b7b760691b6044820152606401610d6f565b60d680546001600160a01b0319166001600160a01b0392909216919091179055565b3360008181526098602090815260408083206001600160a01b03871684529091528120549091610cd79185906110a2908690615510565b612cb1565b60c95460009060ff61010090910416816110dd6110c360995490565b6110cb611f1c565b60cd546001600160801b0316856130de565b90506110f26110eb8561221c565b8284613124565b949350505050565b6065546001600160a01b031633146111245760405162461bcd60e51b8152600401610d6f906151d1565b6001600160a01b03811661117a5760405162461bcd60e51b815260206004820152601860248201527f216e65774f7074696f6e735072656d69756d50726963657200000000000000006044820152606401610d6f565b60d580546001600160a01b0319166001600160a01b0392909216919091179055565b6065546001600160a01b031633146111c65760405162461bcd60e51b8152600401610d6f906151d1565b600081116112005760405162461bcd60e51b81526020600482015260076024820152660216e65774361760cc1b6044820152606401610d6f565b61120981613186565b60cb54604080516001600160681b039092168252602082018390527f5f86edbb9d92228a9edc3f0ebc0f001bda1ea345ac7335e0eeef3504b31d1a1c910160405180910390a160cb80546cffffffffffffffffffffffffff19166001600160681b0392909216919091179055565b600054610100900460ff1680611290575060005460ff16155b6112ac5760405162461bcd60e51b8152600401610d6f90615183565b600054610100900460ff161580156112ce576000805461ffff19166101011790555b6040516384d831a960e01b81527331D7b7DEb0f48d79Da607c2b3acFF7930e332da7906384d831a99061130a9086908690600190600401615274565b60006040518083038186803b15801561132257600080fd5b505af4158015611336573d6000803e3d6000fd5b505050506113426131d0565b6113ce61135260a085018561547f565b8080601f0160208091040260200160405190810160405280939291908181526020018383808284376000920191909152506113949250505060c086018661547f565b8080601f01602080910402602001604051908101604052809392919081815260200183838082843760009201919091525061324392505050565b6113d66132c2565b6113e6610ba76020850185614e2f565b6113f66040840160208501614e2f565b60d480546001600160a01b0319166001600160a01b039290921691909117905561016083013560dc55611430610100840160e08501614e2f565b60d580546001600160a01b0319166001600160a01b039290921691909117905561146261012084016101008501614e2f565b60d680546001600160a01b0319166001600160a01b03929092169190911790556114946101408401610120850161503a565b63ffffffff1660d9556114ad6060840160408501614e2f565b60d380546001600160a01b0319166001600160a01b0392909216919091179055608083013560d7556114e26060840135613329565b60d85561018083013560e5556101a083013560e6558160c96115048282615769565b505060cc805461ffff1916600117905560c9546040516370a0823160e01b81523060048201526000916001600160a01b036201000090910416906370a082319060240160206040518083038186803b15801561155f57600080fd5b505afa158015611573573d6000803e3d6000fd5b505050506040513d601f19601f820116820180604052508101906115979190614fe3565b90506115a281613186565b60cc80546001600160681b03909216600160781b02600160781b600160e01b031990921691909117905580156115de576000805461ff00191690555b505050565b6065546001600160a01b0316331461160d5760405162461bcd60e51b8152600401610d6f906151d1565b6000816001600160801b0316116116555760405162461bcd60e51b815260206004820152600c60248201526b21737472696b65507269636560a01b6044820152606401610d6f565b6001600160801b031660da5560cc5460dd805461ffff191661ffff909216919091179055565b60d4546001600160a01b031633146116a55760405162461bcd60e51b8152600401610d6f90615162565b600260015414156116c85760405162461bcd60e51b8152600401610d6f9061523d565b600260015560cf546040516358ffbb3d60e01b81526001600160a01b037f00000000000000000000000000000000000000000000000000000000000000008116600483015290911660248201526000907331D7b7DEb0f48d79Da607c2b3acFF7930e332da7906358ffbb3d9060440160206040518083038186803b15801561174f57600080fd5b505af4158015611763573d6000803e3d6000fd5b505050506040513d601f19601f820116820180604052508101906117879190614fe3565b60cc549091506117a6906201000090046001600160681b031682612e64565b60cc80546001600160681b0392909216620100000262010000600160781b03199092169190911790555060018055565b60e181815481106117e657600080fd5b6000918252602090912001546001600160a01b0316905081565b600260015414156118235760405162461bcd60e51b8152600401610d6f9061523d565b600260018190555061183760006001613394565b60018055565b6065546001600160a01b031633146118675760405162461bcd60e51b8152600401610d6f906151d1565b611875620f42406064615627565b81106118c35760405162461bcd60e51b815260206004820152601760248201527f496e76616c696420706572666f726d616e6365206665650000000000000000006044820152606401610d6f565b60d75460408051918252602082018390527f24867dfb6fcb9970a07be21024956524abe7a1837faa903ff0e99aaa40cf893e910160405180910390a160d755565b6065546001600160a01b0316331461192e5760405162461bcd60e51b8152600401610d6f906151d1565b6119386000613543565b565b6002600154141561195d5760405162461bcd60e51b8152600401610d6f9061523d565b60026001558061199c5760405162461bcd60e51b815260206004820152600a602482015269216e756d53686172657360b01b6044820152606401610d6f565b33600090815260d06020526040902080546201000090046001600160681b03161515806119d957508054600160781b90046001600160801b031615155b156119ea576119ea60006001613394565b60cc5433600081815260d260209081526040918290208054835188815261ffff96871693810184905292959194911692838614927f0c53c82ad07e2d592d88ece3b066777dd60f1118e2a081b380efc4358f0d9e2a910160405180910390a282546201000090046001600160801b031660008215611a7357611a6c8289612e58565b9050611ad6565b8115611ab55760405162461bcd60e51b81526020600482015260116024820152704578697374696e6720776974686472617760781b6044820152606401610d6f565b5033600090815260d260205260409020805461ffff191661ffff8716179055865b60c954610100900460ff166000611aec336110a7565b90506000611b328b8a60011415611b0d57611b0885600a61557f565b611b2c565b60d16000611b1c60018e615669565b8152602001908152602001600020545b85613124565b905080821115611b6e576000611b488383612e64565b905060e654811015611b6c5760405162461bcd60e51b8152600401610d6f90615206565b505b611b7784613595565b33600090815260d26020526040812080546001600160801b03808816620100000262010000600160901b03199092169190911790915560cd54611bc391600160801b909104168d612e58565b9050611bce81613595565b60cd80546001600160801b03808416600160801b0291161790558a546001600160681b036201000090910416158015611c155750336000908152609760205260409020548c145b15611c2357611c2333612e70565b611c2e33308e612dd6565b50506001805550505050505050505050565b6065546001600160a01b03163314611c6a5760405162461bcd60e51b8152600401610d6f906151d1565b60026001541415611c8d5760405162461bcd60e51b8152600401610d6f9061523d565b600260015580611cd05760405162461bcd60e51b815260206004820152600e60248201526d085b995dd35a5b91195c1bdcda5d60921b6044820152606401610d6f565b60e65560018055565b6060609b8054610c47906156ac565b60d4546001600160a01b03163314611d125760405162461bcd60e51b8152600401610d6f90615162565b60026001541415611d355760405162461bcd60e51b8152600401610d6f9061523d565b60026001556118376135df565b6000611d77611d5060995490565b611d58611f1c565b60cd5460c9546001600160801b0390911690610100900460ff166130de565b905090565b60026001541415611d9f5760405162461bcd60e51b8152600401610d6f9061523d565b600260015580611dde5760405162461bcd60e51b815260206004820152600a602482015269216e756d526f756e647360b01b6044820152606401610d6f565b60cc5461ffff1660005b82811015611e6d576000611dfc8284615510565b600081815260d1602052604090205490915015611e495760405162461bcd60e51b815260206004820152600b60248201526a125b9a5d1a585b1a5e995960aa1b6044820152606401610d6f565b600090815260d1602052604090206001905580611e65816156e7565b915050611de8565b50506001805550565b3360009081526098602090815260408083206001600160a01b038616845290915281205482811015611ef85760405162461bcd60e51b815260206004820152602560248201527f45524332303a2064656372656173656420616c6c6f77616e63652062656c6f77604482015264207a65726f60d81b6064820152608401610d6f565b611f053385858403612cb1565b5060019392505050565b6000610cd7338484612dd6565b60c9546040516370a0823160e01b8152306004820152600091611d7791620100009091046001600160a01b0316906370a082319060240160206040518083038186803b158015611f6b57600080fd5b505afa158015611f7f573d6000803e3d6000fd5b505050506040513d601f19601f82011682018060405250810190611fa39190614fe3565b60cc546201000090046001600160681b031690612e58565b60026001541415611fde5760405162461bcd60e51b8152600401610d6f9061523d565b60026001558061201a5760405162461bcd60e51b815260206004820152600760248201526608585b5bdd5b9d60ca1b6044820152606401610d6f565b6120233361375d565b61202d813361389c565b60c95461204b906201000090046001600160a01b0316333084613b6a565b5060018055565b60d4546001600160a01b0316331461207c5760405162461bcd60e51b8152600401610d6f90615162565b6002600154141561209f5760405162461bcd60e51b8152600401610d6f9061523d565b600260018190555060008060006120b760db54613bdb565b60db819055919450925090506120cc82613186565b60cc805462010000600160781b031916620100006001600160681b0385160217905560405182815233906001600160a01b038516907f045c558fdce4714c5816d53820d27420f4cd860892df203fe636384d8d19aa019060200160405180910390a3604051632904c23960e01b81526001600160a01b037f0000000000000000000000000000000000000000000000000000000000000000811660048301527f00000000000000000000000000000000000000000000000000000000000000008116602483015284166044820152606481018390527331D7b7DEb0f48d79Da607c2b3acFF7930e332da790632904c2399060840160206040518083038186803b1580156121d857600080fd5b505af41580156121ec573d6000803e3d6000fd5b505050506040513d601f19601f820116820180604052508101906122109190614fe3565b60de5550506001805550565b600080600061222a84612a14565b90925090506110f28282612e58565b6065546001600160a01b031633146122635760405162461bcd60e51b8152600401610d6f906151d1565b60008111801561227d575061227a600a6064615627565b81105b6122bc5760405162461bcd60e51b815260206004820152601060248201526f125b9d985b1a5908191a5cd8dbdd5b9d60821b6044820152606401610d6f565b60d95460408051918252602082018390527f4cd657fde404967d63a338fb06c5c98751a9df57dfae6dc333a432faf8a5f656910160405180910390a160d955565b6065546001600160a01b031633146123275760405162461bcd60e51b8152600401610d6f906151d1565b6001600160a01b03811661236a5760405162461bcd60e51b815260206004820152600a60248201526910b732bba5b2b2b832b960b11b6044820152606401610d6f565b60d480546001600160a01b0319166001600160a01b0392909216919091179055565b600260015414156123af5760405162461bcd60e51b8152600401610d6f9061523d565b6002600155806123ee5760405162461bcd60e51b815260206004820152600a602482015269216e756d53686172657360b01b6044820152606401610d6f565b61204b816000613394565b6065546001600160a01b031633146124235760405162461bcd60e51b8152600401610d6f906151d1565b6001600160a01b03811661246c5760405162461bcd60e51b815260206004820152601060248201526f085b995dd19959549958da5c1a595b9d60821b6044820152606401610d6f565b60d3546001600160a01b03828116911614156124ca5760405162461bcd60e51b815260206004820152601860248201527f4d757374206265206e657720666565526563697069656e7400000000000000006044820152606401610d6f565b60d380546001600160a01b0319166001600160a01b0392909216919091179055565b6002600154141561250f5760405162461bcd60e51b8152600401610d6f9061523d565b600260015560cf546040805160e0810182526001600160a01b037f0000000000000000000000000000000000000000000000000000000000000000811682527f000000000000000000000000000000000000000000000000000000000000000081166020830190815293811682840181815260006060850181815260dd5461ffff9081166080880190815260da5460a0890190815260dc5460c08a0190815260d65460d55460d9549c51635a90235d60e01b8152918b1660048301528a166024820152604481019b909b528951891660648c01529a51881660848b0152945190961660a4890152905160c4880152935190931660e486015251610104850152935161012484015260c961014484015260cc61016484015290918190819081907331D7b7DEb0f48d79Da607c2b3acFF7930e332da790635a90235d906101840160806040518083038186803b15801561266657600080fd5b505af415801561267a573d6000803e3d6000fd5b505050506040513d601f19601f8201168201806040525081019061269e9190614eee565b93509350935093507fa217999b1c125c2a996f712c5f26a28addad7167bd8a67d5bd5b2a751148abb082826040516126e0929190918252602082015260400190565b60405180910390a16126f183613186565b60ce80546001600160a01b0319166001600160a01b03861617905560006127184282612e58565b905063ffffffff81111561276e5760405162461bcd60e51b815260206004820152601860248201527f4f766572666c6f77206e6578744f7074696f6e526561647900000000000000006044820152606401610d6f565b60cf805463ffffffff60a01b1916600160a01b63ffffffff84160217905561279587613f33565b6040516370a0823160e01b815230600482015262989680907f00000000000000000000000000000000000000000000000000000000000000006001600160a01b0316906370a082319060240160206040518083038186803b1580156127f957600080fd5b505afa15801561280d573d6000803e3d6000fd5b505050506040513d601f19601f820116820180604052508101906128319190614fe3565b111561283f5761283f6135df565b5050600180555050505050565b6065546001600160a01b031633146128765760405162461bcd60e51b8152600401610d6f906151d1565b600260015414156128995760405162461bcd60e51b8152600401610d6f9061523d565b60026001556001600160a01b0381166128dd5760405162461bcd60e51b815260206004820152600660248201526510b13abcb2b960d11b6044820152606401610d6f565b60cf546040516370a0823160e01b81523060048201526001600160a01b039091169061297190839083906370a082319060240160206040518083038186803b15801561292857600080fd5b505afa15801561293c573d6000803e3d6000fd5b505050506040513d601f19601f820116820180604052508101906129609190614fe3565b6001600160a01b038416919061409f565b505060018055565b6065546001600160a01b031633146129a35760405162461bcd60e51b8152600401610d6f906151d1565b6001600160a01b038116612a085760405162461bcd60e51b815260206004820152602660248201527f4f776e61626c653a206e6577206f776e657220697320746865207a65726f206160448201526564647265737360d01b6064820152608401610d6f565b612a1181613543565b50565b6001600160a01b038116600090815260d0602090815260408083208151606081018352905461ffff81168083526201000082046001600160681b031694830194909452600160781b90046001600160801b031691810191909152829160011115612a96575050506001600160a01b031660009081526097602052604081205491565b60cc54815161ffff908116600090815260d1602052604081205460c9549193612acc93869391169190610100900460ff166140cf565b9050612aed856001600160a01b031660009081526097602052604090205490565b9590945092505050565b60026001541415612b1a5760405162461bcd60e51b8152600401610d6f9061523d565b60026001556000612b29614140565b60db54909150612b399082612e64565b6001600160801b031660db555060018055565b6065546001600160a01b03163314612b765760405162461bcd60e51b8152600401610d6f906151d1565b60026001541415612b995760405162461bcd60e51b8152600401610d6f9061523d565b600260015580612bdf5760405162461bcd60e51b8152602060048201526011602482015270216e65774d61784465706f7369746f727360781b6044820152606401610d6f565b60e55560018055565b6065546001600160a01b03163314612c125760405162461bcd60e51b8152600401610d6f906151d1565b612c20620f42406064615627565b8110612c675760405162461bcd60e51b8152602060048201526016602482015275496e76616c6964206d616e6167656d656e742066656560501b6044820152606401610d6f565b612c7081613329565b60d881905560408051918252602082018390527f4e874b007ab14f7e263baefd44951834c8266f4f224d1092e49e9c254354cc54910160405180910390a150565b6001600160a01b038316612d135760405162461bcd60e51b8152602060048201526024808201527f45524332303a20617070726f76652066726f6d20746865207a65726f206164646044820152637265737360e01b6064820152608401610d6f565b6001600160a01b038216612d745760405162461bcd60e51b815260206004820152602260248201527f45524332303a20617070726f766520746f20746865207a65726f206164647265604482015261737360f01b6064820152608401610d6f565b6001600160a01b0383811660008181526098602090815260408083209487168084529482529182902085905590518481527f8c5be1e5ebec7d5bd14f71427d1e84f3dd0314c0f7b2291e5b200ac8c7c3b92591015b60405180910390a3505050565b6001600160a01b038216301480612df557506001600160a01b03831630145b612e4d5760405162461bcd60e51b8152602060048201526024808201527f54726561737572792072546f6b656e206973206e6f74207472616e736665727260448201526361626c6560e01b6064820152608401610d6f565b6115de8383836142fd565b6000610d8b8284615510565b6000610d8b8284615669565b60e180546001600160a01b038316600090815260e0602052604090205460ff16612edc5760405162461bcd60e51b815260206004820152601860248201527f4465706f7369746f7220646f6573206e6f7420657869737400000000000000006044820152606401610d6f565b6001600160a01b038316600090815260e060205260408120805460ff191690555b612f08600183615669565b81101561307b57828181548110612f2f57634e487b7160e01b600052603260045260246000fd5b6000918252602090912001546001600160a01b03858116911614156130695782612f5a600184615669565b81548110612f7857634e487b7160e01b600052603260045260246000fd5b9060005260206000200160009054906101000a90046001600160a01b0316838281548110612fb657634e487b7160e01b600052603260045260246000fd5b9060005260206000200160009054906101000a90046001600160a01b0316848381548110612ff457634e487b7160e01b600052603260045260246000fd5b60009182526020822001908661300b600188615669565b8154811061302957634e487b7160e01b600052603260045260246000fd5b600091825260209091200180546001600160a01b039485166001600160a01b031990911617905581549383166101009190910a9081029202199092161790555b80613073816156e7565b915050612efd565b508180548061309a57634e487b7160e01b600052603160045260246000fd5b600082815260209020810160001990810180546001600160a01b0319169055019055505050565b60c9546201000090046001600160a01b03166115de81848461409f565b6000806130ec83600a61557f565b9050600086116130fc578061311a565b61311a8661311461310d8888612e64565b84906144cb565b906144d7565b9695505050505050565b60006001831161316e5760405162461bcd60e51b8152602060048201526015602482015274496e76616c6964206173736574506572536861726560581b6044820152606401610d6f565b6110f261317c83600a61557f565b61311486866144cb565b6001600160681b03811115612a115760405162461bcd60e51b815260206004820152601060248201526f13dd995c999b1bddc81d5a5b9d0c4c0d60821b6044820152606401610d6f565b600054610100900460ff16806131e9575060005460ff16155b6132055760405162461bcd60e51b8152600401610d6f90615183565b600054610100900460ff16158015613227576000805461ffff19166101011790555b61322f6144e3565b8015612a11576000805461ff001916905550565b600054610100900460ff168061325c575060005460ff16155b6132785760405162461bcd60e51b8152600401610d6f90615183565b600054610100900460ff1615801561329a576000805461ffff19166101011790555b6132a2614552565b6132ac83836145bc565b80156115de576000805461ff0019169055505050565b600054610100900460ff16806132db575060005460ff16155b6132f75760405162461bcd60e51b8152600401610d6f90615183565b600054610100900460ff16158015613319576000805461ffff19166101011790555b613321614552565b61322f614651565b60dc546000908161333b601e83615702565b1561335e5761334b600783615528565b6133599063031ba309615528565b613381565b613369601e83615528565b61337490600c615528565b61338190620f4240615627565b90506110f28161311486620f42406144cb565b33600090815260d0602090815260408083208151606081018352905461ffff8082168084526201000083046001600160681b031684870152600160781b9092046001600160801b03168385015260cc5491865260d19094529184205460c9549194929093169261340f9185918591610100900460ff166140cf565b90508361341c578461341e565b805b94508461342c575050505050565b808511156134705760405162461bcd60e51b81526020600482015260116024820152704578636565647320617661696c61626c6560781b6044820152606401610d6f565b825161ffff1682111561349d5733600090815260d060205260409020805462010000600160781b03191690555b6134a685613595565b6134b08186612e64565b33600081815260d060205260409081902080546001600160801b0394909416600160781b02600160781b600160f81b0319909416939093179092558451915190917fe5b754fb1abb7f01b499791d0b820ae3b6af3424ac1c59768edb53f4ec31a929916135299189825261ffff16602082015260400190565b60405180910390a261353c303387612dd6565b5050505050565b606580546001600160a01b038381166001600160a01b0319831681179093556040519116919082907f8be0079c531659141344cd1fd0a4f28419497f9722a3daafe3b4186f6b6457e090600090a35050565b6001600160801b03811115612a115760405162461bcd60e51b815260206004820152601060248201526f09eeccae4ccd8deee40ead2dce86264760831b6044820152606401610d6f565b6040516370a0823160e01b81523060048201527f0000000000000000000000000000000000000000000000000000000000000000906000906001600160a01b038316906370a082319060240160206040518083038186803b15801561364357600080fd5b505afa158015613657573d6000803e3d6000fd5b505050506040513d601f19601f8201168201806040525081019061367b9190614fe3565b9050600081116136cd5760405162461bcd60e51b815260206004820152601860248201527f6e6f207072656d69756d20746f206469737472696275746500000000000000006044820152606401610d6f565b6136d782826146b1565b6040516370a0823160e01b81523060048201526137599083906001600160a01b038216906370a082319060240160206040518083038186803b15801561371c57600080fd5b505afa158015613730573d6000803e3d6000fd5b505050506040513d601f19601f820116820180604052508101906137549190614fe3565b614757565b5050565b6001600160a01b038116600090815260e0602052604090205460ff16612a11576001600160a01b0381166137cc5760405162461bcd60e51b815260206004820152601660248201527511195c1bdcda5d1bdc881859191c995cdcc81b9d5b1b60521b6044820152606401610d6f565b60e55460e1546137dd906001615510565b11156138365760405162461bcd60e51b815260206004820152602260248201527f4e756d626572206f66206465706f7369746f72732065786365656473206c696d6044820152611a5d60f21b6064820152608401610d6f565b6001600160a01b0316600081815260e060205260408120805460ff1916600190811790915560e1805491820181559091527f3efdd7a884ff9e18c9e5711c185aa6c5e413b68f23197997da5b1665ca978f990180546001600160a01b0319169091179055565b60cc5461ffff1660006138b184610eab611f1c565b6001600160a01b038416600090815260d0602090815260408083208151606081018352905461ffff811682526201000081046001600160681b0316938201849052600160781b90046001600160801b03169181019190915292935061391d908790610eab9081336110a7565b60cb549091506001600160681b03168311156139685760405162461bcd60e51b815260206004820152600a6024820152690457863656564206361760b41b6044820152606401610d6f565b60ca54600160a01b900466ffffffffffffff168310156139c15760405162461bcd60e51b8152602060048201526014602482015273496e73756666696369656e742062616c616e636560601b6044820152606401610d6f565b60e6548110156139e35760405162461bcd60e51b8152600401610d6f90615206565b60408051878152602081018690526001600160a01b038716917f90890809c654f11d6e72a28fa60149770a0d11ec6c92319d6ceb2bb0a4ea1a15910160405180910390a2815161ffff16600090815260d1602052604081205460c954613a55918591889190610100900460ff166140cf565b8351909150879061ffff16861415613a86576020840151600090613a82906001600160681b03168a612e58565b9150505b613a8f81613186565b6040805160608101825261ffff80891682526001600160681b0380851660208085019182526001600160801b038089168688019081526001600160a01b038f16600090815260d090935296822095518654935197518216600160781b02600160781b600160f81b03199890951662010000026effffffffffffffffffffffffffffff1990941695169490941791909117949094161790915560cd54613b3591168a612e58565b9050613b4081613595565b60cd80546001600160801b0319166001600160801b03929092169190911790555050505050505050565b6040516001600160a01b0380851660248301528316604482015260648101829052613bd59085906323b872dd60e01b906084015b60408051601f198184030181529190526020810180516001600160e01b03166001600160e01b031990931692909217909152614905565b50505050565b60cf5460009081908190600160a01b900463ffffffff16421015613c2a5760405162461bcd60e51b815260206004820152600660248201526521726561647960d01b6044820152606401610d6f565b60ce546001600160a01b0316925082613c735760405162461bcd60e51b815260206004820152600b60248201526a10b732bc3a27b83a34b7b760a91b6044820152606401610d6f565b60cc805460d3546040805160a08101825260c954610100810460ff16825291516370a0823160e01b815230600482015261ffff909416946001600160a01b0393841694600094859485947331D7b7DEb0f48d79Da607c2b3acFF7930e332da79463686fb2f2949093919260208401926201000090910416906370a082319060240160206040518083038186803b158015613d0c57600080fd5b505afa158015613d20573d6000803e3d6000fd5b505050506040513d601f19601f82011682018060405250810190613d449190614fe3565b8152602001613d5260995490565b81526020018d81526020018960011415613d6d576000613d71565b60d8545b9052604080516001600160e01b031960e086901b168152600481019390935281516024840152602082015160448401528101516064830152606081015160848301526080015160a482015260c40160a06040518083038186803b158015613dd757600080fd5b505af4158015613deb573d6000803e3d6000fd5b505050506040513d601f19601f82011682018060405250810190613e0f9190614ffb565b809650819750829550839a50849b5050505050508760ce60010160006101000a8154816001600160a01b0302191690836001600160a01b03160217905550600060ce60000160006101000a8154816001600160a01b0302191690836001600160a01b031602179055508060d1600087815260200190815260200160002081905550836001600160a01b03167fd42b93f751df91c40b94860a26f5e43b9fc78089c1e3df5d4602eee07009e5c68387604051613ed4929190918252602082015260400190565b60405180910390a260cd80546001600160801b0319169055613ef7856001615510565b60cc805461ffff191661ffff9290921691909117905550613f1830836149d7565b8015613f2857613f2883826130c1565b505050509193909250565b60cc546201000090046001600160681b03166001600160a01b03821615613f795760cc8054600160781b600160e01b031916600160781b6001600160681b038416021790555b60cc805462010000600160781b031916905560cf80546001600160a01b03191690556001600160a01b0382161561375957604051636c6fe87f60e11b81526001600160a01b037f00000000000000000000000000000000000000000000000000000000000000001660048201526000907331D7b7DEb0f48d79Da607c2b3acFF7930e332da79063d8dfd0fe9060240160206040518083038186803b15801561402057600080fd5b505af4158015614034573d6000803e3d6000fd5b505050506040513d601f19601f820116820180604052508101906140589190614fe3565b9050336001600160a01b0316836001600160a01b03167f7e830f7c1771deb1bdb35c4a7e6051bbac32b376f7f4e4976b8618b0b11997f783604051612dc991815260200190565b6040516001600160a01b0383166024820152604481018290526115de90849063a9059cbb60e01b90606401613b9e565b835160009061ffff16158015906140ea5750845161ffff1684115b1561412c57600061410986602001516001600160681b03168585614ab6565b6040870151909150614124906001600160801b031682612e58565b9150506110f2565b50505050604001516001600160801b031690565b33600090815260d26020526040812080546001600160801b03620100008204169061ffff16816141a25760405162461bcd60e51b815260206004820152600d60248201526c139bdd081a5b9a5d1a585d1959609a1b6044820152606401610d6f565b60cc5461ffff1681106141ea5760405162461bcd60e51b815260206004820152601060248201526f149bdd5b99081b9bdd0818db1bdcd95960821b6044820152606401610d6f565b33600090815260d260205260409020805462010000600160901b031916905560cd5461422690600160801b90046001600160801b031683612e64565b60cd80546001600160801b03928316600160801b029216919091179055600081815260d1602052604081205460c95461426991859160ff61010090910416613124565b604080518281526020810186905291925033917ff279e6a1f5e320cca91135676d9cb6e44ca8a08c0b88342bcdb1144f6511b568910160405180910390a26142b13084614b19565b600081116142f35760405162461bcd60e51b815260206004820152600f60248201526e085dda5d1a191c985dd05b5bdd5b9d608a1b6044820152606401610d6f565b6110f233826130c1565b6001600160a01b0383166143615760405162461bcd60e51b815260206004820152602560248201527f45524332303a207472616e736665722066726f6d20746865207a65726f206164604482015264647265737360d81b6064820152608401610d6f565b6001600160a01b0382166143c35760405162461bcd60e51b815260206004820152602360248201527f45524332303a207472616e7366657220746f20746865207a65726f206164647260448201526265737360e81b6064820152608401610d6f565b6001600160a01b0383166000908152609760205260409020548181101561443b5760405162461bcd60e51b815260206004820152602660248201527f45524332303a207472616e7366657220616d6f756e7420657863656564732062604482015265616c616e636560d01b6064820152608401610d6f565b6001600160a01b03808516600090815260976020526040808220858503905591851681529081208054849290614472908490615510565b92505081905550826001600160a01b0316846001600160a01b03167fddf252ad1be2c89b69c2b068fc378daa952ba7f163c4a11628f55a4df523b3ef846040516144be91815260200190565b60405180910390a3613bd5565b6000610d8b8284615627565b6000610d8b8284615528565b600054610100900460ff16806144fc575060005460ff16155b6145185760405162461bcd60e51b8152600401610d6f90615183565b600054610100900460ff1615801561453a576000805461ffff19166101011790555b600180558015612a11576000805461ff001916905550565b600054610100900460ff168061456b575060005460ff16155b6145875760405162461bcd60e51b8152600401610d6f90615183565b600054610100900460ff1615801561322f576000805461ffff19166101011790558015612a11576000805461ff001916905550565b600054610100900460ff16806145d5575060005460ff16155b6145f15760405162461bcd60e51b8152600401610d6f90615183565b600054610100900460ff16158015614613576000805461ffff19166101011790555b825161462690609a906020860190614d72565b50815161463a90609b906020850190614d72565b5080156115de576000805461ff0019169055505050565b600054610100900460ff168061466a575060005460ff16155b6146865760405162461bcd60e51b8152600401610d6f90615183565b600054610100900460ff161580156146a8576000805461ffff19166101011790555b61322f33613543565b60d3546001600160a01b031660006146de6146d0620f42406064615627565b60d7546131149086906144cb565b90506146f46001600160a01b038516838361409f565b60cc546001600160a01b038316907f8df5f80a19898219351b3c8e70c8cffe1adc78e2394d21dc2da56a39e5dabfe89083906147369060019061ffff16615646565b6040805192835261ffff90911660208301520160405180910390a250505050565b60e1805460009067ffffffffffffffff81111561478457634e487b7160e01b600052604160045260246000fd5b6040519080825280602002602001820160405280156147ad578160200160208202803683370190505b509050600060db546147be60995490565b6147c89190615669565b905060005b83548110156148aa5760008482815481106147f857634e487b7160e01b600052603260045260246000fd5b6000918252602090912001546001600160a01b0316905061482683613114886148208561221c565b906144cb565b84838151811061484657634e487b7160e01b600052603260045260246000fd5b6020026020010181815250506148978185848151811061487657634e487b7160e01b600052603260045260246000fd5b6020026020010151896001600160a01b031661409f9092919063ffffffff16565b50806148a2816156e7565b9150506147cd565b5060cc547fe55fc5ddbb2bfc597b0e1d510ece6ff2733bd909a81db6e2b6e092aeda7af1c3908590849086906148e69060019061ffff16615646565b6040516148f694939291906153e5565b60405180910390a15050505050565b600061495a826040518060400160405280602081526020017f5361666545524332303a206c6f772d6c6576656c2063616c6c206661696c6564815250856001600160a01b0316614c679092919063ffffffff16565b8051909150156115de57808060200190518101906149789190614f2c565b6115de5760405162461bcd60e51b815260206004820152602a60248201527f5361666545524332303a204552433230206f7065726174696f6e20646964206e6044820152691bdd081cdd58d8d9595960b21b6064820152608401610d6f565b6001600160a01b038216614a2d5760405162461bcd60e51b815260206004820152601f60248201527f45524332303a206d696e7420746f20746865207a65726f2061646472657373006044820152606401610d6f565b8060996000828254614a3f9190615510565b90915550506001600160a01b03821660009081526097602052604081208054839290614a6c908490615510565b90915550506040518181526001600160a01b038316906000907fddf252ad1be2c89b69c2b068fc378daa952ba7f163c4a11628f55a4df523b3ef9060200160405180910390a35050565b600060018311614b005760405162461bcd60e51b8152602060048201526015602482015274496e76616c6964206173736574506572536861726560581b6044820152606401610d6f565b6110f283613114614b1285600a61557f565b87906144cb565b6001600160a01b038216614b795760405162461bcd60e51b815260206004820152602160248201527f45524332303a206275726e2066726f6d20746865207a65726f206164647265736044820152607360f81b6064820152608401610d6f565b6001600160a01b03821660009081526097602052604090205481811015614bed5760405162461bcd60e51b815260206004820152602260248201527f45524332303a206275726e20616d6f756e7420657863656564732062616c616e604482015261636560f01b6064820152608401610d6f565b6001600160a01b0383166000908152609760205260408120838303905560998054849290614c1c908490615669565b90915550506040518281526000906001600160a01b038516907fddf252ad1be2c89b69c2b068fc378daa952ba7f163c4a11628f55a4df523b3ef9060200160405180910390a3505050565b60606110f2848460008585843b614cc05760405162461bcd60e51b815260206004820152601d60248201527f416464726573733a2063616c6c20746f206e6f6e2d636f6e74726163740000006044820152606401610d6f565b600080866001600160a01b03168587604051614cdc9190615113565b60006040518083038185875af1925050503d8060008114614d19576040519150601f19603f3d011682016040523d82523d6000602084013e614d1e565b606091505b5091509150614d2e828286614d39565b979650505050505050565b60608315614d48575081610d8b565b825115614d585782518084602001fd5b8160405162461bcd60e51b8152600401610d6f919061512f565b828054614d7e906156ac565b90600052602060002090601f016020900481019282614da05760008555614de6565b82601f10614db957805160ff1916838001178555614de6565b82800160010185558215614de6579182015b82811115614de6578251825591602001919060010190614dcb565b50614df2929150614df6565b5090565b5b80821115614df25760008155600101614df7565b8035614e168161587a565b919050565b803563ffffffff81168114614e1657600080fd5b600060208284031215614e40578081fd5b8135610d8b8161587a565b60008060408385031215614e5d578081fd5b8235614e688161587a565b91506020830135614e788161587a565b809150509250929050565b600080600060608486031215614e97578081fd5b8335614ea28161587a565b92506020840135614eb28161587a565b929592945050506040919091013590565b60008060408385031215614ed5578182fd5b8235614ee08161587a565b946020939093013593505050565b60008060008060808587031215614f03578081fd5b8451614f0e8161587a565b60208601516040870151606090970151919890975090945092505050565b600060208284031215614f3d578081fd5b8151610d8b8161588f565b60008082840360e0811215614f5b578283fd5b833567ffffffffffffffff811115614f71578384fd5b84016101c08187031215614f83578384fd5b925060c0601f1982011215614f96578182fd5b506020830190509250929050565b600060208284031215614fb5578081fd5b81356001600160801b0381168114610d8b578182fd5b600060208284031215614fdc578081fd5b5035919050565b600060208284031215614ff4578081fd5b5051919050565b600080600080600060a08688031215615012578081fd5b5050835160208501516040860151606087015160809097015192989197509594509092509050565b60006020828403121561504b578081fd5b610d8b82614e1b565b81835281816020850137506000828201602090810191909152601f909101601f19169091010190565b80356150888161588f565b15158252602081013561509a816158c7565b60ff16602083015260408101356150b08161587a565b6001600160a01b0390811660408401526060820135906150cf8261587a565b16606083015260808101356150e3816158b2565b66ffffffffffffff16608083015260a08101356150ff8161589d565b6001600160681b03811660a0840152505050565b60008251615125818460208701615680565b9190910192915050565b602081526000825180602084015261514e816040850160208701615680565b601f01601f19169190910160400192915050565b60208082526007908201526610b5b2b2b832b960c91b604082015260600190565b6020808252602e908201527f496e697469616c697a61626c653a20636f6e747261637420697320616c72656160408201526d191e481a5b9a5d1a585b1a5e995960921b606082015260800190565b6020808252818101527f4f776e61626c653a2063616c6c6572206973206e6f7420746865206f776e6572604082015260600190565b6020808252601b908201527f4d696e696d756d206465706f736974206e6f7420726561636865640000000000604082015260600190565b6020808252601f908201527f5265656e7472616e637947756172643a207265656e7472616e742063616c6c00604082015260600190565b600061010080835261529881840161528b88614e0b565b6001600160a01b03169052565b6152a460208701614e0b565b6101206152bb818601836001600160a01b03169052565b6152c760408901614e0b565b91506101406152e0818701846001600160a01b03169052565b610160925060608901358387015261018060808a01358188015261530760a08b018b6154cb565b6101c06101a081818c01526153216102c08c018486615054565b935061533060c08f018f6154cb565b8c860360ff1901848e01529350615348858583615054565b94505061535760e08f01614e0b565b6001600160a01b0381166101e08d01529250615374898f01614e0b565b6001600160a01b0381166102008d01529850615391878f01614e1b565b63ffffffff166102208c0152948d01356102408b01525050938a01356102608801528901356102808701528801356102a08601525091506153d79050602083018561507d565b8260e0830152949350505050565b600060808201868352602060808185015281875180845260a0860191508289019350845b8181101561542557845183529383019391830191600101615409565b5050848103604086015286548082528785528285209183019350845b818110156154665782546001600160a01b031685529383019360019283019201615441565b50505061ffff8516606085015250905095945050505050565b6000808335601e19843603018112615495578283fd5b83018035915067ffffffffffffffff8211156154af578283fd5b6020019150368190038213156154c457600080fd5b9250929050565b6000808335601e198436030181126154e1578283fd5b830160208101925035905067ffffffffffffffff81111561550157600080fd5b8036038313156154c457600080fd5b6000821982111561552357615523615716565b500190565b6000826155375761553761572c565b500490565b600181815b8085111561557757816000190482111561555d5761555d615716565b8085161561556a57918102915b93841c9390800290615541565b509250929050565b6000610d8b838360008261559557506001610cdb565b816155a257506000610cdb565b81600181146155b857600281146155c2576155de565b6001915050610cdb565b60ff8411156155d3576155d3615716565b50506001821b610cdb565b5060208310610133831016604e8410600b8410161715615601575081810a610cdb565b61560b838361553c565b806000190482111561561f5761561f615716565b029392505050565b600081600019048311821515161561564157615641615716565b500290565b600061ffff8381169083168181101561566157615661615716565b039392505050565b60008282101561567b5761567b615716565b500390565b60005b8381101561569b578181015183820152602001615683565b83811115613bd55750506000910152565b600181811c908216806156c057607f821691505b602082108114156156e157634e487b7160e01b600052602260045260246000fd5b50919050565b60006000198214156156fb576156fb615716565b5060010190565b6000826157115761571161572c565b500690565b634e487b7160e01b600052601160045260246000fd5b634e487b7160e01b600052601260045260246000fd5b60008135610cdb8161587a565b60008135610cdb8161589d565b60008135610cdb816158b2565b81356157748161588f565b815460ff19811691151560ff1691821783556020840135615794816158c7565b61ff008160081b169050808361ffff1984161717845560408501356157b88161587a565b6001600160b01b0319929092169092179190911760109190911b62010000600160b01b0316178155600181016158106157f360608501615742565b82546001600160a01b0319166001600160a01b0391909116178255565b61584961581f6080850161575c565b82805466ffffffffffffff60a01b191660a09290921b66ffffffffffffff60a01b16919091179055565b5061375961585960a0840161574f565b600283016001600160681b0382166001600160681b03198254161781555050565b6001600160a01b0381168114612a1157600080fd5b8015158114612a1157600080fd5b6001600160681b0381168114612a1157600080fd5b66ffffffffffffff81168114612a1157600080fd5b60ff81168114612a1157600080fdfea2646970667358221220d0de828d3a4424e0361e60e0d0a959779fd8445e6dce9eab6ac202a7e8f47f9664736f6c63430008040033",
  "deployedBytecode": "0x608060405234801561001057600080fd5b506004361061046a5760003560e01c80638da5cb5b1161024c578063c59f564211610146578063ea00b1ca116100c3578063f756fa2111610087578063f756fa2114610bd4578063f79d8d1214610bdc578063f957a06714610bff578063fc29738014610c12578063fe56e23214610c2557600080fd5b8063ea00b1ca14610b75578063ef78d4fd14610b7d578063efc981ed14610b86578063f2fde38b14610b99578063f656ba5114610bac57600080fd5b8063db006a751161010a578063db006a7514610ae6578063db43e86214610af9578063dd62ed3e14610b20578063e73c63d514610b59578063e74b981b14610b6257600080fd5b8063c59f564214610a9b578063ce7c2ac214610aa4578063d13f1b3e14610ab7578063d164cc1514610aca578063d5f2638214610add57600080fd5b8063a285c9e8116101d4578063aced166111610198578063aced166114610a52578063ad7a672f14610a65578063afa6626414610a6d578063b6b55f2514610a80578063b9f8092b14610a9357600080fd5b8063a285c9e8146109fd578063a2db9d8314610a12578063a457c2d714610a23578063a6f7f5d614610a36578063a9059cbb14610a3f57600080fd5b806399530b061161021b57806399530b06146108e45780639b2e601b146108ec5780639be43daa146108f55780639fcc2d7514610908578063a083ff17146109a757600080fd5b80638da5cb5b146108b05780638fcc9cfb146108c157806395d89b41146108d457806396d2a76b146108dc57600080fd5b806347786d371161036857806370897b23116102e557806383536ff3116102a957806383536ff31461084657806387153eb11461084f578063877887821461086f57806389a30271146108785780638b10cc7c1461089f57600080fd5b806370897b231461079857806370a08231146107ab578063715018a6146107d45780637a9262a2146107dc5780637e108d521461083357600080fd5b8063601d6ba91161032c578063601d6ba9146106d7578063650cce8a146106ea5780636719b2ee1461071157806369b41170146107885780636f31ab341461079057600080fd5b806347786d371461068d5780634af96d29146106a0578063503c70aa146106b357806355489bb2146106bc578063600a2cfb146106cf57600080fd5b8063313ce567116103f65780633f90916a116103ba5780633f90916a1461064457806341b3d18514610655578063432833a61461065e5780634603c0aa14610667578063469048401461067a57600080fd5b8063313ce567146105cf578063355274ea146105ec57806339509351146105fd5780633ec143d3146106105780633f23bb731461063157600080fd5b80631a92f6c21161043d5780631a92f6c2146104cf57806323b872dd1461050e5780632728f333146105215780632775d01c146105a757806330630da4146105bc57600080fd5b806306fdde031461046f578063095ea7b31461048d5780630cbf54c8146104b057806318160ddd146104c7575b600080fd5b610477610c38565b604051610484919061512f565b60405180910390f35b6104a061049b366004614ec3565b610cca565b6040519015158152602001610484565b6104b960e35481565b604051908152602001610484565b6099546104b9565b6104f67f000000000000000000000000000000000000000000000000000000000000000081565b6040516001600160a01b039091168152602001610484565b6104a061051c366004614e83565b610ce1565b60cc5460cd546105629161ffff8116916001600160681b03620100008304811692600160781b900416906001600160801b0380821691600160801b90041685565b6040805161ffff90961686526001600160681b03948516602087015293909216928401929092526001600160801b03918216606084015216608082015260a001610484565b6105ba6105b5366004614fcb565b610d92565b005b6105ba6105ca366004614e2f565b610fd3565b60c954610100900460ff1660405160ff9091168152602001610484565b60cb546001600160681b03166104b9565b6104a061060b366004614ec3565b61106b565b60dd5461061e9061ffff1681565b60405161ffff9091168152602001610484565b6104b961063f366004614e2f565b6110a7565b60cd546001600160801b03166104b9565b6104b960e65481565b6104b960e45481565b6105ba610675366004614e2f565b6110fa565b60d3546104f6906001600160a01b031681565b6105ba61069b366004614fcb565b61119c565b6105ba6106ae366004614f48565b611277565b6104b960db5481565b6105ba6106ca366004614fa4565b6115e3565b6105ba61167b565b6104f66106e5366004614fcb565b6117d6565b6104f67f000000000000000000000000000000000000000000000000000000000000000081565b61075761071f366004614e2f565b60d06020526000908152604090205461ffff8116906201000081046001600160681b031690600160781b90046001600160801b031683565b6040805161ffff90941684526001600160681b0390921660208401526001600160801b031690820152606001610484565b6104b9600081565b6105ba611800565b6105ba6107a6366004614fcb565b61183d565b6104b96107b9366004614e2f565b6001600160a01b031660009081526097602052604090205490565b6105ba611904565b6108116107ea366004614e2f565b60d26020526000908152604090205461ffff8116906201000090046001600160801b031682565b6040805161ffff90931683526001600160801b03909116602083015201610484565b6105ba610841366004614fcb565b61193a565b6104b960d95481565b6104b961085d366004614fcb565b60d16020526000908152604090205481565b6104b960d75481565b6104f67f000000000000000000000000000000000000000000000000000000000000000081565b60cf546001600160a01b03166104f6565b6065546001600160a01b03166104f6565b6105ba6108cf366004614fcb565b611c40565b610477611cd9565b6105ba611ce8565b6104b9611d42565b6104b960e55481565b6105ba610903366004614fcb565b611d7c565b60c95460ca5460cb546109579260ff808216936101008304909116926001600160a01b036201000090930483169282169166ffffffffffffff600160a01b90910416906001600160681b031686565b60408051961515875260ff90951660208701526001600160a01b03938416948601949094529116606084015266ffffffffffffff1660808301526001600160681b031660a082015260c001610484565b60ce5460cf546109d1916001600160a01b039081169190811690600160a01b900463ffffffff1683565b604080516001600160a01b03948516815293909216602084015263ffffffff1690820152606001610484565b60cf54600160a01b900463ffffffff166104b9565b60ce546001600160a01b03166104f6565b6104a0610a31366004614ec3565b611e76565b6104b960d85481565b6104a0610a4d366004614ec3565b611f0f565b60d4546104f6906001600160a01b031681565b6104b9611f1c565b60d5546104f6906001600160a01b031681565b6105ba610a8e366004614fcb565b611fbb565b6105ba612052565b6104b960de5481565b6104b9610ab2366004614e2f565b61221c565b6105ba610ac5366004614fcb565b612239565b6105ba610ad8366004614e2f565b6122fd565b6104b960e25481565b6105ba610af4366004614fcb565b61238c565b6104f67f000000000000000000000000000000000000000000000000000000000000000081565b6104b9610b2e366004614e4b565b6001600160a01b03918216600090815260986020908152604080832093909416825291909152205490565b6104b960da5481565b6105ba610b70366004614e2f565b6123f9565b6105ba6124ec565b6104b960dc5481565b6105ba610b94366004614e2f565b61284c565b6105ba610ba7366004614e2f565b612979565b610bbf610bba366004614e2f565b612a14565b60408051928352602083019190915201610484565b6105ba612af7565b6104a0610bea366004614e2f565b60e06020526000908152604090205460ff1681565b60d6546104f6906001600160a01b031681565b6105ba610c20366004614fcb565b612b4c565b6105ba610c33366004614fcb565b612be8565b6060609a8054610c47906156ac565b80601f0160208091040260200160405190810160405280929190818152602001828054610c73906156ac565b8015610cc05780601f10610c9557610100808354040283529160200191610cc0565b820191906000526020600020905b815481529060010190602001808311610ca357829003601f168201915b5050505050905090565b6000610cd7338484612cb1565b5060015b92915050565b6000610cee848484612dd6565b6001600160a01b038416600090815260986020908152604080832033845290915290205482811015610d785760405162461bcd60e51b815260206004820152602860248201527f45524332303a207472616e7366657220616d6f756e74206578636565647320616044820152676c6c6f77616e636560c01b60648201526084015b60405180910390fd5b610d858533858403612cb1565b60019150505b9392505050565b60026001541415610db55760405162461bcd60e51b8152600401610d6f9061523d565b600260015533600090815260d06020526040902060cc5461ffff1682610e075760405162461bcd60e51b815260206004820152600760248201526608585b5bdd5b9d60ca1b6044820152606401610d6f565b815461ffff168114610e4b5760405162461bcd60e51b815260206004820152600d60248201526c125b9d985b1a59081c9bdd5b99609a1b6044820152606401610d6f565b81546201000090046001600160681b031683811015610e9c5760405162461bcd60e51b815260206004820152600d60248201526c115e18d9595908185b5bdd5b9d609a1b6044820152606401610d6f565b6000610eb182610eab336110a7565b90612e58565b905084811115610eed576000610ec78287612e64565b905060e654811015610eeb5760405162461bcd60e51b8152600401610d6f90615206565b505b610ef78286612e64565b84546001600160681b0391909116620100000262010000600160781b031990911617845560cd54610f31906001600160801b031686612e64565b60cd80546001600160801b0319166001600160801b0392909216919091179055604080518681526020810185905233917fab2daf3c146ca6416cbccd2a86ed2ba995e171ef6319df14a38aef01403a9c96910160405180910390a283546201000090046001600160681b0316158015610fb05750610fae3361221c565b155b15610fbe57610fbe33612e70565b610fc833866130c1565b505060018055505050565b6065546001600160a01b03163314610ffd5760405162461bcd60e51b8152600401610d6f906151d1565b6001600160a01b0381166110495760405162461bcd60e51b815260206004820152601360248201527210b732bba9ba3934b5b2a9b2b632b1ba34b7b760691b6044820152606401610d6f565b60d680546001600160a01b0319166001600160a01b0392909216919091179055565b3360008181526098602090815260408083206001600160a01b03871684529091528120549091610cd79185906110a2908690615510565b612cb1565b60c95460009060ff61010090910416816110dd6110c360995490565b6110cb611f1c565b60cd546001600160801b0316856130de565b90506110f26110eb8561221c565b8284613124565b949350505050565b6065546001600160a01b031633146111245760405162461bcd60e51b8152600401610d6f906151d1565b6001600160a01b03811661117a5760405162461bcd60e51b815260206004820152601860248201527f216e65774f7074696f6e735072656d69756d50726963657200000000000000006044820152606401610d6f565b60d580546001600160a01b0319166001600160a01b0392909216919091179055565b6065546001600160a01b031633146111c65760405162461bcd60e51b8152600401610d6f906151d1565b600081116112005760405162461bcd60e51b81526020600482015260076024820152660216e65774361760cc1b6044820152606401610d6f565b61120981613186565b60cb54604080516001600160681b039092168252602082018390527f5f86edbb9d92228a9edc3f0ebc0f001bda1ea345ac7335e0eeef3504b31d1a1c910160405180910390a160cb80546cffffffffffffffffffffffffff19166001600160681b0392909216919091179055565b600054610100900460ff1680611290575060005460ff16155b6112ac5760405162461bcd60e51b8152600401610d6f90615183565b600054610100900460ff161580156112ce576000805461ffff19166101011790555b6040516384d831a960e01b815273__$2add4d7dc049a04eb39d7a027f8b2a511e$__906384d831a99061130a9086908690600190600401615274565b60006040518083038186803b15801561132257600080fd5b505af4158015611336573d6000803e3d6000fd5b505050506113426131d0565b6113ce61135260a085018561547f565b8080601f0160208091040260200160405190810160405280939291908181526020018383808284376000920191909152506113949250505060c086018661547f565b8080601f01602080910402602001604051908101604052809392919081815260200183838082843760009201919091525061324392505050565b6113d66132c2565b6113e6610ba76020850185614e2f565b6113f66040840160208501614e2f565b60d480546001600160a01b0319166001600160a01b039290921691909117905561016083013560dc55611430610100840160e08501614e2f565b60d580546001600160a01b0319166001600160a01b039290921691909117905561146261012084016101008501614e2f565b60d680546001600160a01b0319166001600160a01b03929092169190911790556114946101408401610120850161503a565b63ffffffff1660d9556114ad6060840160408501614e2f565b60d380546001600160a01b0319166001600160a01b0392909216919091179055608083013560d7556114e26060840135613329565b60d85561018083013560e5556101a083013560e6558160c96115048282615769565b505060cc805461ffff1916600117905560c9546040516370a0823160e01b81523060048201526000916001600160a01b036201000090910416906370a082319060240160206040518083038186803b15801561155f57600080fd5b505afa158015611573573d6000803e3d6000fd5b505050506040513d601f19601f820116820180604052508101906115979190614fe3565b90506115a281613186565b60cc80546001600160681b03909216600160781b02600160781b600160e01b031990921691909117905580156115de576000805461ff00191690555b505050565b6065546001600160a01b0316331461160d5760405162461bcd60e51b8152600401610d6f906151d1565b6000816001600160801b0316116116555760405162461bcd60e51b815260206004820152600c60248201526b21737472696b65507269636560a01b6044820152606401610d6f565b6001600160801b031660da5560cc5460dd805461ffff191661ffff909216919091179055565b60d4546001600160a01b031633146116a55760405162461bcd60e51b8152600401610d6f90615162565b600260015414156116c85760405162461bcd60e51b8152600401610d6f9061523d565b600260015560cf546040516358ffbb3d60e01b81526001600160a01b037f000000000000000000000000000000000000000000000000000000000000000081166004830152909116602482015260009073__$2add4d7dc049a04eb39d7a027f8b2a511e$__906358ffbb3d9060440160206040518083038186803b15801561174f57600080fd5b505af4158015611763573d6000803e3d6000fd5b505050506040513d601f19601f820116820180604052508101906117879190614fe3565b60cc549091506117a6906201000090046001600160681b031682612e64565b60cc80546001600160681b0392909216620100000262010000600160781b03199092169190911790555060018055565b60e181815481106117e657600080fd5b6000918252602090912001546001600160a01b0316905081565b600260015414156118235760405162461bcd60e51b8152600401610d6f9061523d565b600260018190555061183760006001613394565b60018055565b6065546001600160a01b031633146118675760405162461bcd60e51b8152600401610d6f906151d1565b611875620f42406064615627565b81106118c35760405162461bcd60e51b815260206004820152601760248201527f496e76616c696420706572666f726d616e6365206665650000000000000000006044820152606401610d6f565b60d75460408051918252602082018390527f24867dfb6fcb9970a07be21024956524abe7a1837faa903ff0e99aaa40cf893e910160405180910390a160d755565b6065546001600160a01b0316331461192e5760405162461bcd60e51b8152600401610d6f906151d1565b6119386000613543565b565b6002600154141561195d5760405162461bcd60e51b8152600401610d6f9061523d565b60026001558061199c5760405162461bcd60e51b815260206004820152600a602482015269216e756d53686172657360b01b6044820152606401610d6f565b33600090815260d06020526040902080546201000090046001600160681b03161515806119d957508054600160781b90046001600160801b031615155b156119ea576119ea60006001613394565b60cc5433600081815260d260209081526040918290208054835188815261ffff96871693810184905292959194911692838614927f0c53c82ad07e2d592d88ece3b066777dd60f1118e2a081b380efc4358f0d9e2a910160405180910390a282546201000090046001600160801b031660008215611a7357611a6c8289612e58565b9050611ad6565b8115611ab55760405162461bcd60e51b81526020600482015260116024820152704578697374696e6720776974686472617760781b6044820152606401610d6f565b5033600090815260d260205260409020805461ffff191661ffff8716179055865b60c954610100900460ff166000611aec336110a7565b90506000611b328b8a60011415611b0d57611b0885600a61557f565b611b2c565b60d16000611b1c60018e615669565b8152602001908152602001600020545b85613124565b905080821115611b6e576000611b488383612e64565b905060e654811015611b6c5760405162461bcd60e51b8152600401610d6f90615206565b505b611b7784613595565b33600090815260d26020526040812080546001600160801b03808816620100000262010000600160901b03199092169190911790915560cd54611bc391600160801b909104168d612e58565b9050611bce81613595565b60cd80546001600160801b03808416600160801b0291161790558a546001600160681b036201000090910416158015611c155750336000908152609760205260409020548c145b15611c2357611c2333612e70565b611c2e33308e612dd6565b50506001805550505050505050505050565b6065546001600160a01b03163314611c6a5760405162461bcd60e51b8152600401610d6f906151d1565b60026001541415611c8d5760405162461bcd60e51b8152600401610d6f9061523d565b600260015580611cd05760405162461bcd60e51b815260206004820152600e60248201526d085b995dd35a5b91195c1bdcda5d60921b6044820152606401610d6f565b60e65560018055565b6060609b8054610c47906156ac565b60d4546001600160a01b03163314611d125760405162461bcd60e51b8152600401610d6f90615162565b60026001541415611d355760405162461bcd60e51b8152600401610d6f9061523d565b60026001556118376135df565b6000611d77611d5060995490565b611d58611f1c565b60cd5460c9546001600160801b0390911690610100900460ff166130de565b905090565b60026001541415611d9f5760405162461bcd60e51b8152600401610d6f9061523d565b600260015580611dde5760405162461bcd60e51b815260206004820152600a602482015269216e756d526f756e647360b01b6044820152606401610d6f565b60cc5461ffff1660005b82811015611e6d576000611dfc8284615510565b600081815260d1602052604090205490915015611e495760405162461bcd60e51b815260206004820152600b60248201526a125b9a5d1a585b1a5e995960aa1b6044820152606401610d6f565b600090815260d1602052604090206001905580611e65816156e7565b915050611de8565b50506001805550565b3360009081526098602090815260408083206001600160a01b038616845290915281205482811015611ef85760405162461bcd60e51b815260206004820152602560248201527f45524332303a2064656372656173656420616c6c6f77616e63652062656c6f77604482015264207a65726f60d81b6064820152608401610d6f565b611f053385858403612cb1565b5060019392505050565b6000610cd7338484612dd6565b60c9546040516370a0823160e01b8152306004820152600091611d7791620100009091046001600160a01b0316906370a082319060240160206040518083038186803b158015611f6b57600080fd5b505afa158015611f7f573d6000803e3d6000fd5b505050506040513d601f19601f82011682018060405250810190611fa39190614fe3565b60cc546201000090046001600160681b031690612e58565b60026001541415611fde5760405162461bcd60e51b8152600401610d6f9061523d565b60026001558061201a5760405162461bcd60e51b815260206004820152600760248201526608585b5bdd5b9d60ca1b6044820152606401610d6f565b6120233361375d565b61202d813361389c565b60c95461204b906201000090046001600160a01b0316333084613b6a565b5060018055565b60d4546001600160a01b0316331461207c5760405162461bcd60e51b8152600401610d6f90615162565b6002600154141561209f5760405162461bcd60e51b8152600401610d6f9061523d565b600260018190555060008060006120b760db54613bdb565b60db819055919450925090506120cc82613186565b60cc805462010000600160781b031916620100006001600160681b0385160217905560405182815233906001600160a01b038516907f045c558fdce4714c5816d53820d27420f4cd860892df203fe636384d8d19aa019060200160405180910390a3604051632904c23960e01b81526001600160a01b037f0000000000000000000000000000000000000000000000000000000000000000811660048301527f000000000000000000000000000000000000000000000000000000000000000081166024830152841660448201526064810183905273__$2add4d7dc049a04eb39d7a027f8b2a511e$__90632904c2399060840160206040518083038186803b1580156121d857600080fd5b505af41580156121ec573d6000803e3d6000fd5b505050506040513d601f19601f820116820180604052508101906122109190614fe3565b60de5550506001805550565b600080600061222a84612a14565b90925090506110f28282612e58565b6065546001600160a01b031633146122635760405162461bcd60e51b8152600401610d6f906151d1565b60008111801561227d575061227a600a6064615627565b81105b6122bc5760405162461bcd60e51b815260206004820152601060248201526f125b9d985b1a5908191a5cd8dbdd5b9d60821b6044820152606401610d6f565b60d95460408051918252602082018390527f4cd657fde404967d63a338fb06c5c98751a9df57dfae6dc333a432faf8a5f656910160405180910390a160d955565b6065546001600160a01b031633146123275760405162461bcd60e51b8152600401610d6f906151d1565b6001600160a01b03811661236a5760405162461bcd60e51b815260206004820152600a60248201526910b732bba5b2b2b832b960b11b6044820152606401610d6f565b60d480546001600160a01b0319166001600160a01b0392909216919091179055565b600260015414156123af5760405162461bcd60e51b8152600401610d6f9061523d565b6002600155806123ee5760405162461bcd60e51b815260206004820152600a602482015269216e756d53686172657360b01b6044820152606401610d6f565b61204b816000613394565b6065546001600160a01b031633146124235760405162461bcd60e51b8152600401610d6f906151d1565b6001600160a01b03811661246c5760405162461bcd60e51b815260206004820152601060248201526f085b995dd19959549958da5c1a595b9d60821b6044820152606401610d6f565b60d3546001600160a01b03828116911614156124ca5760405162461bcd60e51b815260206004820152601860248201527f4d757374206265206e657720666565526563697069656e7400000000000000006044820152606401610d6f565b60d380546001600160a01b0319166001600160a01b0392909216919091179055565b6002600154141561250f5760405162461bcd60e51b8152600401610d6f9061523d565b600260015560cf546040805160e0810182526001600160a01b037f0000000000000000000000000000000000000000000000000000000000000000811682527f000000000000000000000000000000000000000000000000000000000000000081166020830190815293811682840181815260006060850181815260dd5461ffff9081166080880190815260da5460a0890190815260dc5460c08a0190815260d65460d55460d9549c51635a90235d60e01b8152918b1660048301528a166024820152604481019b909b528951891660648c01529a51881660848b0152945190961660a4890152905160c4880152935190931660e486015251610104850152935161012484015260c961014484015260cc610164840152909181908190819073__$2add4d7dc049a04eb39d7a027f8b2a511e$__90635a90235d906101840160806040518083038186803b15801561266657600080fd5b505af415801561267a573d6000803e3d6000fd5b505050506040513d601f19601f8201168201806040525081019061269e9190614eee565b93509350935093507fa217999b1c125c2a996f712c5f26a28addad7167bd8a67d5bd5b2a751148abb082826040516126e0929190918252602082015260400190565b60405180910390a16126f183613186565b60ce80546001600160a01b0319166001600160a01b03861617905560006127184282612e58565b905063ffffffff81111561276e5760405162461bcd60e51b815260206004820152601860248201527f4f766572666c6f77206e6578744f7074696f6e526561647900000000000000006044820152606401610d6f565b60cf805463ffffffff60a01b1916600160a01b63ffffffff84160217905561279587613f33565b6040516370a0823160e01b815230600482015262989680907f00000000000000000000000000000000000000000000000000000000000000006001600160a01b0316906370a082319060240160206040518083038186803b1580156127f957600080fd5b505afa15801561280d573d6000803e3d6000fd5b505050506040513d601f19601f820116820180604052508101906128319190614fe3565b111561283f5761283f6135df565b5050600180555050505050565b6065546001600160a01b031633146128765760405162461bcd60e51b8152600401610d6f906151d1565b600260015414156128995760405162461bcd60e51b8152600401610d6f9061523d565b60026001556001600160a01b0381166128dd5760405162461bcd60e51b815260206004820152600660248201526510b13abcb2b960d11b6044820152606401610d6f565b60cf546040516370a0823160e01b81523060048201526001600160a01b039091169061297190839083906370a082319060240160206040518083038186803b15801561292857600080fd5b505afa15801561293c573d6000803e3d6000fd5b505050506040513d601f19601f820116820180604052508101906129609190614fe3565b6001600160a01b038416919061409f565b505060018055565b6065546001600160a01b031633146129a35760405162461bcd60e51b8152600401610d6f906151d1565b6001600160a01b038116612a085760405162461bcd60e51b815260206004820152602660248201527f4f776e61626c653a206e6577206f776e657220697320746865207a65726f206160448201526564647265737360d01b6064820152608401610d6f565b612a1181613543565b50565b6001600160a01b038116600090815260d0602090815260408083208151606081018352905461ffff81168083526201000082046001600160681b031694830194909452600160781b90046001600160801b031691810191909152829160011115612a96575050506001600160a01b031660009081526097602052604081205491565b60cc54815161ffff908116600090815260d1602052604081205460c9549193612acc93869391169190610100900460ff166140cf565b9050612aed856001600160a01b031660009081526097602052604090205490565b9590945092505050565b60026001541415612b1a5760405162461bcd60e51b8152600401610d6f9061523d565b60026001556000612b29614140565b60db54909150612b399082612e64565b6001600160801b031660db555060018055565b6065546001600160a01b03163314612b765760405162461bcd60e51b8152600401610d6f906151d1565b60026001541415612b995760405162461bcd60e51b8152600401610d6f9061523d565b600260015580612bdf5760405162461bcd60e51b8152602060048201526011602482015270216e65774d61784465706f7369746f727360781b6044820152606401610d6f565b60e55560018055565b6065546001600160a01b03163314612c125760405162461bcd60e51b8152600401610d6f906151d1565b612c20620f42406064615627565b8110612c675760405162461bcd60e51b8152602060048201526016602482015275496e76616c6964206d616e6167656d656e742066656560501b6044820152606401610d6f565b612c7081613329565b60d881905560408051918252602082018390527f4e874b007ab14f7e263baefd44951834c8266f4f224d1092e49e9c254354cc54910160405180910390a150565b6001600160a01b038316612d135760405162461bcd60e51b8152602060048201526024808201527f45524332303a20617070726f76652066726f6d20746865207a65726f206164646044820152637265737360e01b6064820152608401610d6f565b6001600160a01b038216612d745760405162461bcd60e51b815260206004820152602260248201527f45524332303a20617070726f766520746f20746865207a65726f206164647265604482015261737360f01b6064820152608401610d6f565b6001600160a01b0383811660008181526098602090815260408083209487168084529482529182902085905590518481527f8c5be1e5ebec7d5bd14f71427d1e84f3dd0314c0f7b2291e5b200ac8c7c3b92591015b60405180910390a3505050565b6001600160a01b038216301480612df557506001600160a01b03831630145b612e4d5760405162461bcd60e51b8152602060048201526024808201527f54726561737572792072546f6b656e206973206e6f74207472616e736665727260448201526361626c6560e01b6064820152608401610d6f565b6115de8383836142fd565b6000610d8b8284615510565b6000610d8b8284615669565b60e180546001600160a01b038316600090815260e0602052604090205460ff16612edc5760405162461bcd60e51b815260206004820152601860248201527f4465706f7369746f7220646f6573206e6f7420657869737400000000000000006044820152606401610d6f565b6001600160a01b038316600090815260e060205260408120805460ff191690555b612f08600183615669565b81101561307b57828181548110612f2f57634e487b7160e01b600052603260045260246000fd5b6000918252602090912001546001600160a01b03858116911614156130695782612f5a600184615669565b81548110612f7857634e487b7160e01b600052603260045260246000fd5b9060005260206000200160009054906101000a90046001600160a01b0316838281548110612fb657634e487b7160e01b600052603260045260246000fd5b9060005260206000200160009054906101000a90046001600160a01b0316848381548110612ff457634e487b7160e01b600052603260045260246000fd5b60009182526020822001908661300b600188615669565b8154811061302957634e487b7160e01b600052603260045260246000fd5b600091825260209091200180546001600160a01b039485166001600160a01b031990911617905581549383166101009190910a9081029202199092161790555b80613073816156e7565b915050612efd565b508180548061309a57634e487b7160e01b600052603160045260246000fd5b600082815260209020810160001990810180546001600160a01b0319169055019055505050565b60c9546201000090046001600160a01b03166115de81848461409f565b6000806130ec83600a61557f565b9050600086116130fc578061311a565b61311a8661311461310d8888612e64565b84906144cb565b906144d7565b9695505050505050565b60006001831161316e5760405162461bcd60e51b8152602060048201526015602482015274496e76616c6964206173736574506572536861726560581b6044820152606401610d6f565b6110f261317c83600a61557f565b61311486866144cb565b6001600160681b03811115612a115760405162461bcd60e51b815260206004820152601060248201526f13dd995c999b1bddc81d5a5b9d0c4c0d60821b6044820152606401610d6f565b600054610100900460ff16806131e9575060005460ff16155b6132055760405162461bcd60e51b8152600401610d6f90615183565b600054610100900460ff16158015613227576000805461ffff19166101011790555b61322f6144e3565b8015612a11576000805461ff001916905550565b600054610100900460ff168061325c575060005460ff16155b6132785760405162461bcd60e51b8152600401610d6f90615183565b600054610100900460ff1615801561329a576000805461ffff19166101011790555b6132a2614552565b6132ac83836145bc565b80156115de576000805461ff0019169055505050565b600054610100900460ff16806132db575060005460ff16155b6132f75760405162461bcd60e51b8152600401610d6f90615183565b600054610100900460ff16158015613319576000805461ffff19166101011790555b613321614552565b61322f614651565b60dc546000908161333b601e83615702565b1561335e5761334b600783615528565b6133599063031ba309615528565b613381565b613369601e83615528565b61337490600c615528565b61338190620f4240615627565b90506110f28161311486620f42406144cb565b33600090815260d0602090815260408083208151606081018352905461ffff8082168084526201000083046001600160681b031684870152600160781b9092046001600160801b03168385015260cc5491865260d19094529184205460c9549194929093169261340f9185918591610100900460ff166140cf565b90508361341c578461341e565b805b94508461342c575050505050565b808511156134705760405162461bcd60e51b81526020600482015260116024820152704578636565647320617661696c61626c6560781b6044820152606401610d6f565b825161ffff1682111561349d5733600090815260d060205260409020805462010000600160781b03191690555b6134a685613595565b6134b08186612e64565b33600081815260d060205260409081902080546001600160801b0394909416600160781b02600160781b600160f81b0319909416939093179092558451915190917fe5b754fb1abb7f01b499791d0b820ae3b6af3424ac1c59768edb53f4ec31a929916135299189825261ffff16602082015260400190565b60405180910390a261353c303387612dd6565b5050505050565b606580546001600160a01b038381166001600160a01b0319831681179093556040519116919082907f8be0079c531659141344cd1fd0a4f28419497f9722a3daafe3b4186f6b6457e090600090a35050565b6001600160801b03811115612a115760405162461bcd60e51b815260206004820152601060248201526f09eeccae4ccd8deee40ead2dce86264760831b6044820152606401610d6f565b6040516370a0823160e01b81523060048201527f0000000000000000000000000000000000000000000000000000000000000000906000906001600160a01b038316906370a082319060240160206040518083038186803b15801561364357600080fd5b505afa158015613657573d6000803e3d6000fd5b505050506040513d601f19601f8201168201806040525081019061367b9190614fe3565b9050600081116136cd5760405162461bcd60e51b815260206004820152601860248201527f6e6f207072656d69756d20746f206469737472696275746500000000000000006044820152606401610d6f565b6136d782826146b1565b6040516370a0823160e01b81523060048201526137599083906001600160a01b038216906370a082319060240160206040518083038186803b15801561371c57600080fd5b505afa158015613730573d6000803e3d6000fd5b505050506040513d601f19601f820116820180604052508101906137549190614fe3565b614757565b5050565b6001600160a01b038116600090815260e0602052604090205460ff16612a11576001600160a01b0381166137cc5760405162461bcd60e51b815260206004820152601660248201527511195c1bdcda5d1bdc881859191c995cdcc81b9d5b1b60521b6044820152606401610d6f565b60e55460e1546137dd906001615510565b11156138365760405162461bcd60e51b815260206004820152602260248201527f4e756d626572206f66206465706f7369746f72732065786365656473206c696d6044820152611a5d60f21b6064820152608401610d6f565b6001600160a01b0316600081815260e060205260408120805460ff1916600190811790915560e1805491820181559091527f3efdd7a884ff9e18c9e5711c185aa6c5e413b68f23197997da5b1665ca978f990180546001600160a01b0319169091179055565b60cc5461ffff1660006138b184610eab611f1c565b6001600160a01b038416600090815260d0602090815260408083208151606081018352905461ffff811682526201000081046001600160681b0316938201849052600160781b90046001600160801b03169181019190915292935061391d908790610eab9081336110a7565b60cb549091506001600160681b03168311156139685760405162461bcd60e51b815260206004820152600a6024820152690457863656564206361760b41b6044820152606401610d6f565b60ca54600160a01b900466ffffffffffffff168310156139c15760405162461bcd60e51b8152602060048201526014602482015273496e73756666696369656e742062616c616e636560601b6044820152606401610d6f565b60e6548110156139e35760405162461bcd60e51b8152600401610d6f90615206565b60408051878152602081018690526001600160a01b038716917f90890809c654f11d6e72a28fa60149770a0d11ec6c92319d6ceb2bb0a4ea1a15910160405180910390a2815161ffff16600090815260d1602052604081205460c954613a55918591889190610100900460ff166140cf565b8351909150879061ffff16861415613a86576020840151600090613a82906001600160681b03168a612e58565b9150505b613a8f81613186565b6040805160608101825261ffff80891682526001600160681b0380851660208085019182526001600160801b038089168688019081526001600160a01b038f16600090815260d090935296822095518654935197518216600160781b02600160781b600160f81b03199890951662010000026effffffffffffffffffffffffffffff1990941695169490941791909117949094161790915560cd54613b3591168a612e58565b9050613b4081613595565b60cd80546001600160801b0319166001600160801b03929092169190911790555050505050505050565b6040516001600160a01b0380851660248301528316604482015260648101829052613bd59085906323b872dd60e01b906084015b60408051601f198184030181529190526020810180516001600160e01b03166001600160e01b031990931692909217909152614905565b50505050565b60cf5460009081908190600160a01b900463ffffffff16421015613c2a5760405162461bcd60e51b815260206004820152600660248201526521726561647960d01b6044820152606401610d6f565b60ce546001600160a01b0316925082613c735760405162461bcd60e51b815260206004820152600b60248201526a10b732bc3a27b83a34b7b760a91b6044820152606401610d6f565b60cc805460d3546040805160a08101825260c954610100810460ff16825291516370a0823160e01b815230600482015261ffff909416946001600160a01b03938416946000948594859473__$2add4d7dc049a04eb39d7a027f8b2a511e$__9463686fb2f2949093919260208401926201000090910416906370a082319060240160206040518083038186803b158015613d0c57600080fd5b505afa158015613d20573d6000803e3d6000fd5b505050506040513d601f19601f82011682018060405250810190613d449190614fe3565b8152602001613d5260995490565b81526020018d81526020018960011415613d6d576000613d71565b60d8545b9052604080516001600160e01b031960e086901b168152600481019390935281516024840152602082015160448401528101516064830152606081015160848301526080015160a482015260c40160a06040518083038186803b158015613dd757600080fd5b505af4158015613deb573d6000803e3d6000fd5b505050506040513d601f19601f82011682018060405250810190613e0f9190614ffb565b809650819750829550839a50849b5050505050508760ce60010160006101000a8154816001600160a01b0302191690836001600160a01b03160217905550600060ce60000160006101000a8154816001600160a01b0302191690836001600160a01b031602179055508060d1600087815260200190815260200160002081905550836001600160a01b03167fd42b93f751df91c40b94860a26f5e43b9fc78089c1e3df5d4602eee07009e5c68387604051613ed4929190918252602082015260400190565b60405180910390a260cd80546001600160801b0319169055613ef7856001615510565b60cc805461ffff191661ffff9290921691909117905550613f1830836149d7565b8015613f2857613f2883826130c1565b505050509193909250565b60cc546201000090046001600160681b03166001600160a01b03821615613f795760cc8054600160781b600160e01b031916600160781b6001600160681b038416021790555b60cc805462010000600160781b031916905560cf80546001600160a01b03191690556001600160a01b0382161561375957604051636c6fe87f60e11b81526001600160a01b037f000000000000000000000000000000000000000000000000000000000000000016600482015260009073__$2add4d7dc049a04eb39d7a027f8b2a511e$__9063d8dfd0fe9060240160206040518083038186803b15801561402057600080fd5b505af4158015614034573d6000803e3d6000fd5b505050506040513d601f19601f820116820180604052508101906140589190614fe3565b9050336001600160a01b0316836001600160a01b03167f7e830f7c1771deb1bdb35c4a7e6051bbac32b376f7f4e4976b8618b0b11997f783604051612dc991815260200190565b6040516001600160a01b0383166024820152604481018290526115de90849063a9059cbb60e01b90606401613b9e565b835160009061ffff16158015906140ea5750845161ffff1684115b1561412c57600061410986602001516001600160681b03168585614ab6565b6040870151909150614124906001600160801b031682612e58565b9150506110f2565b50505050604001516001600160801b031690565b33600090815260d26020526040812080546001600160801b03620100008204169061ffff16816141a25760405162461bcd60e51b815260206004820152600d60248201526c139bdd081a5b9a5d1a585d1959609a1b6044820152606401610d6f565b60cc5461ffff1681106141ea5760405162461bcd60e51b815260206004820152601060248201526f149bdd5b99081b9bdd0818db1bdcd95960821b6044820152606401610d6f565b33600090815260d260205260409020805462010000600160901b031916905560cd5461422690600160801b90046001600160801b031683612e64565b60cd80546001600160801b03928316600160801b029216919091179055600081815260d1602052604081205460c95461426991859160ff61010090910416613124565b604080518281526020810186905291925033917ff279e6a1f5e320cca91135676d9cb6e44ca8a08c0b88342bcdb1144f6511b568910160405180910390a26142b13084614b19565b600081116142f35760405162461bcd60e51b815260206004820152600f60248201526e085dda5d1a191c985dd05b5bdd5b9d608a1b6044820152606401610d6f565b6110f233826130c1565b6001600160a01b0383166143615760405162461bcd60e51b815260206004820152602560248201527f45524332303a207472616e736665722066726f6d20746865207a65726f206164604482015264647265737360d81b6064820152608401610d6f565b6001600160a01b0382166143c35760405162461bcd60e51b815260206004820152602360248201527f45524332303a207472616e7366657220746f20746865207a65726f206164647260448201526265737360e81b6064820152608401610d6f565b6001600160a01b0383166000908152609760205260409020548181101561443b5760405162461bcd60e51b815260206004820152602660248201527f45524332303a207472616e7366657220616d6f756e7420657863656564732062604482015265616c616e636560d01b6064820152608401610d6f565b6001600160a01b03808516600090815260976020526040808220858503905591851681529081208054849290614472908490615510565b92505081905550826001600160a01b0316846001600160a01b03167fddf252ad1be2c89b69c2b068fc378daa952ba7f163c4a11628f55a4df523b3ef846040516144be91815260200190565b60405180910390a3613bd5565b6000610d8b8284615627565b6000610d8b8284615528565b600054610100900460ff16806144fc575060005460ff16155b6145185760405162461bcd60e51b8152600401610d6f90615183565b600054610100900460ff1615801561453a576000805461ffff19166101011790555b600180558015612a11576000805461ff001916905550565b600054610100900460ff168061456b575060005460ff16155b6145875760405162461bcd60e51b8152600401610d6f90615183565b600054610100900460ff1615801561322f576000805461ffff19166101011790558015612a11576000805461ff001916905550565b600054610100900460ff16806145d5575060005460ff16155b6145f15760405162461bcd60e51b8152600401610d6f90615183565b600054610100900460ff16158015614613576000805461ffff19166101011790555b825161462690609a906020860190614d72565b50815161463a90609b906020850190614d72565b5080156115de576000805461ff0019169055505050565b600054610100900460ff168061466a575060005460ff16155b6146865760405162461bcd60e51b8152600401610d6f90615183565b600054610100900460ff161580156146a8576000805461ffff19166101011790555b61322f33613543565b60d3546001600160a01b031660006146de6146d0620f42406064615627565b60d7546131149086906144cb565b90506146f46001600160a01b038516838361409f565b60cc546001600160a01b038316907f8df5f80a19898219351b3c8e70c8cffe1adc78e2394d21dc2da56a39e5dabfe89083906147369060019061ffff16615646565b6040805192835261ffff90911660208301520160405180910390a250505050565b60e1805460009067ffffffffffffffff81111561478457634e487b7160e01b600052604160045260246000fd5b6040519080825280602002602001820160405280156147ad578160200160208202803683370190505b509050600060db546147be60995490565b6147c89190615669565b905060005b83548110156148aa5760008482815481106147f857634e487b7160e01b600052603260045260246000fd5b6000918252602090912001546001600160a01b0316905061482683613114886148208561221c565b906144cb565b84838151811061484657634e487b7160e01b600052603260045260246000fd5b6020026020010181815250506148978185848151811061487657634e487b7160e01b600052603260045260246000fd5b6020026020010151896001600160a01b031661409f9092919063ffffffff16565b50806148a2816156e7565b9150506147cd565b5060cc547fe55fc5ddbb2bfc597b0e1d510ece6ff2733bd909a81db6e2b6e092aeda7af1c3908590849086906148e69060019061ffff16615646565b6040516148f694939291906153e5565b60405180910390a15050505050565b600061495a826040518060400160405280602081526020017f5361666545524332303a206c6f772d6c6576656c2063616c6c206661696c6564815250856001600160a01b0316614c679092919063ffffffff16565b8051909150156115de57808060200190518101906149789190614f2c565b6115de5760405162461bcd60e51b815260206004820152602a60248201527f5361666545524332303a204552433230206f7065726174696f6e20646964206e6044820152691bdd081cdd58d8d9595960b21b6064820152608401610d6f565b6001600160a01b038216614a2d5760405162461bcd60e51b815260206004820152601f60248201527f45524332303a206d696e7420746f20746865207a65726f2061646472657373006044820152606401610d6f565b8060996000828254614a3f9190615510565b90915550506001600160a01b03821660009081526097602052604081208054839290614a6c908490615510565b90915550506040518181526001600160a01b038316906000907fddf252ad1be2c89b69c2b068fc378daa952ba7f163c4a11628f55a4df523b3ef9060200160405180910390a35050565b600060018311614b005760405162461bcd60e51b8152602060048201526015602482015274496e76616c6964206173736574506572536861726560581b6044820152606401610d6f565b6110f283613114614b1285600a61557f565b87906144cb565b6001600160a01b038216614b795760405162461bcd60e51b815260206004820152602160248201527f45524332303a206275726e2066726f6d20746865207a65726f206164647265736044820152607360f81b6064820152608401610d6f565b6001600160a01b03821660009081526097602052604090205481811015614bed5760405162461bcd60e51b815260206004820152602260248201527f45524332303a206275726e20616d6f756e7420657863656564732062616c616e604482015261636560f01b6064820152608401610d6f565b6001600160a01b0383166000908152609760205260408120838303905560998054849290614c1c908490615669565b90915550506040518281526000906001600160a01b038516907fddf252ad1be2c89b69c2b068fc378daa952ba7f163c4a11628f55a4df523b3ef9060200160405180910390a3505050565b60606110f2848460008585843b614cc05760405162461bcd60e51b815260206004820152601d60248201527f416464726573733a2063616c6c20746f206e6f6e2d636f6e74726163740000006044820152606401610d6f565b600080866001600160a01b03168587604051614cdc9190615113565b60006040518083038185875af1925050503d8060008114614d19576040519150601f19603f3d011682016040523d82523d6000602084013e614d1e565b606091505b5091509150614d2e828286614d39565b979650505050505050565b60608315614d48575081610d8b565b825115614d585782518084602001fd5b8160405162461bcd60e51b8152600401610d6f919061512f565b828054614d7e906156ac565b90600052602060002090601f016020900481019282614da05760008555614de6565b82601f10614db957805160ff1916838001178555614de6565b82800160010185558215614de6579182015b82811115614de6578251825591602001919060010190614dcb565b50614df2929150614df6565b5090565b5b80821115614df25760008155600101614df7565b8035614e168161587a565b919050565b803563ffffffff81168114614e1657600080fd5b600060208284031215614e40578081fd5b8135610d8b8161587a565b60008060408385031215614e5d578081fd5b8235614e688161587a565b91506020830135614e788161587a565b809150509250929050565b600080600060608486031215614e97578081fd5b8335614ea28161587a565b92506020840135614eb28161587a565b929592945050506040919091013590565b60008060408385031215614ed5578182fd5b8235614ee08161587a565b946020939093013593505050565b60008060008060808587031215614f03578081fd5b8451614f0e8161587a565b60208601516040870151606090970151919890975090945092505050565b600060208284031215614f3d578081fd5b8151610d8b8161588f565b60008082840360e0811215614f5b578283fd5b833567ffffffffffffffff811115614f71578384fd5b84016101c08187031215614f83578384fd5b925060c0601f1982011215614f96578182fd5b506020830190509250929050565b600060208284031215614fb5578081fd5b81356001600160801b0381168114610d8b578182fd5b600060208284031215614fdc578081fd5b5035919050565b600060208284031215614ff4578081fd5b5051919050565b600080600080600060a08688031215615012578081fd5b5050835160208501516040860151606087015160809097015192989197509594509092509050565b60006020828403121561504b578081fd5b610d8b82614e1b565b81835281816020850137506000828201602090810191909152601f909101601f19169091010190565b80356150888161588f565b15158252602081013561509a816158c7565b60ff16602083015260408101356150b08161587a565b6001600160a01b0390811660408401526060820135906150cf8261587a565b16606083015260808101356150e3816158b2565b66ffffffffffffff16608083015260a08101356150ff8161589d565b6001600160681b03811660a0840152505050565b60008251615125818460208701615680565b9190910192915050565b602081526000825180602084015261514e816040850160208701615680565b601f01601f19169190910160400192915050565b60208082526007908201526610b5b2b2b832b960c91b604082015260600190565b6020808252602e908201527f496e697469616c697a61626c653a20636f6e747261637420697320616c72656160408201526d191e481a5b9a5d1a585b1a5e995960921b606082015260800190565b6020808252818101527f4f776e61626c653a2063616c6c6572206973206e6f7420746865206f776e6572604082015260600190565b6020808252601b908201527f4d696e696d756d206465706f736974206e6f7420726561636865640000000000604082015260600190565b6020808252601f908201527f5265656e7472616e637947756172643a207265656e7472616e742063616c6c00604082015260600190565b600061010080835261529881840161528b88614e0b565b6001600160a01b03169052565b6152a460208701614e0b565b6101206152bb818601836001600160a01b03169052565b6152c760408901614e0b565b91506101406152e0818701846001600160a01b03169052565b610160925060608901358387015261018060808a01358188015261530760a08b018b6154cb565b6101c06101a081818c01526153216102c08c018486615054565b935061533060c08f018f6154cb565b8c860360ff1901848e01529350615348858583615054565b94505061535760e08f01614e0b565b6001600160a01b0381166101e08d01529250615374898f01614e0b565b6001600160a01b0381166102008d01529850615391878f01614e1b565b63ffffffff166102208c0152948d01356102408b01525050938a01356102608801528901356102808701528801356102a08601525091506153d79050602083018561507d565b8260e0830152949350505050565b600060808201868352602060808185015281875180845260a0860191508289019350845b8181101561542557845183529383019391830191600101615409565b5050848103604086015286548082528785528285209183019350845b818110156154665782546001600160a01b031685529383019360019283019201615441565b50505061ffff8516606085015250905095945050505050565b6000808335601e19843603018112615495578283fd5b83018035915067ffffffffffffffff8211156154af578283fd5b6020019150368190038213156154c457600080fd5b9250929050565b6000808335601e198436030181126154e1578283fd5b830160208101925035905067ffffffffffffffff81111561550157600080fd5b8036038313156154c457600080fd5b6000821982111561552357615523615716565b500190565b6000826155375761553761572c565b500490565b600181815b8085111561557757816000190482111561555d5761555d615716565b8085161561556a57918102915b93841c9390800290615541565b509250929050565b6000610d8b838360008261559557506001610cdb565b816155a257506000610cdb565b81600181146155b857600281146155c2576155de565b6001915050610cdb565b60ff8411156155d3576155d3615716565b50506001821b610cdb565b5060208310610133831016604e8410600b8410161715615601575081810a610cdb565b61560b838361553c565b806000190482111561561f5761561f615716565b029392505050565b600081600019048311821515161561564157615641615716565b500290565b600061ffff8381169083168181101561566157615661615716565b039392505050565b60008282101561567b5761567b615716565b500390565b60005b8381101561569b578181015183820152602001615683565b83811115613bd55750506000910152565b600181811c908216806156c057607f821691505b602082108114156156e157634e487b7160e01b600052602260045260246000fd5b50919050565b60006000198214156156fb576156fb615716565b5060010190565b6000826157115761571161572c565b500690565b634e487b7160e01b600052601160045260246000fd5b634e487b7160e01b600052601260045260246000fd5b60008135610cdb8161587a565b60008135610cdb8161589d565b60008135610cdb816158b2565b81356157748161588f565b815460ff19811691151560ff1691821783556020840135615794816158c7565b61ff008160081b169050808361ffff1984161717845560408501356157b88161587a565b6001600160b01b0319929092169092179190911760109190911b62010000600160b01b0316178155600181016158106157f360608501615742565b82546001600160a01b0319166001600160a01b0391909116178255565b61584961581f6080850161575c565b82805466ffffffffffffff60a01b191660a09290921b66ffffffffffffff60a01b16919091179055565b5061375961585960a0840161574f565b600283016001600160681b0382166001600160681b03198254161781555050565b6001600160a01b0381168114612a1157600080fd5b8015158114612a1157600080fd5b6001600160681b0381168114612a1157600080fd5b66ffffffffffffff81168114612a1157600080fd5b60ff81168114612a1157600080fdfea2646970667358221220d0de828d3a4424e0361e60e0d0a959779fd8445e6dce9eab6ac202a7e8f47f9664736f6c63430008040033",
  "libraries": {
    "VaultLifecycleTreasury": "0x31D7b7DEb0f48d79Da607c2b3acFF7930e332da7"
  },
  "devdoc": {
    "kind": "dev",
    "methods": {
      "accountVaultBalance(address)": {
        "params": {
          "account": "is the address to lookup balance for"
        },
        "returns": {
          "_0": "the amount of `asset` custodied by the vault for the user"
        }
      },
      "allowance(address,address)": {
        "details": "See {IERC20-allowance}."
      },
      "approve(address,uint256)": {
        "details": "See {IERC20-approve}. Requirements: - `spender` cannot be the zero address."
      },
      "balanceOf(address)": {
        "details": "See {IERC20-balanceOf}."
      },
      "constructor": {
        "params": {
          "_gammaController": "is the contract address for opyn actions",
          "_marginPool": "is the contract address for providing collateral to opyn",
          "_oTokenFactory": "is the contract address for minting new opyn option types (strikes, asset, expiry)",
          "_usdc": "is the USDC contract"
        }
      },
      "decreaseAllowance(address,uint256)": {
        "details": "Atomically decreases the allowance granted to `spender` by the caller. This is an alternative to {approve} that can be used as a mitigation for problems described in {IERC20-approve}. Emits an {Approval} event indicating the updated allowance. Requirements: - `spender` cannot be the zero address. - `spender` must have allowance for the caller of at least `subtractedValue`."
      },
      "deposit(uint256)": {
        "params": {
          "amount": "is the amount of `asset` to deposit"
        }
      },
      "increaseAllowance(address,uint256)": {
        "details": "Atomically increases the allowance granted to `spender` by the caller. This is an alternative to {approve} that can be used as a mitigation for problems described in {IERC20-approve}. Emits an {Approval} event indicating the updated allowance. Requirements: - `spender` cannot be the zero address."
      },
      "initiateWithdraw(uint256)": {
        "params": {
          "numShares": "is the number of shares to withdraw"
        }
      },
      "name()": {
        "details": "Returns the name of the token."
      },
      "owner()": {
        "details": "Returns the address of the current owner."
      },
      "redeem(uint256)": {
        "params": {
          "numShares": "is the number of shares to redeem"
        }
      },
      "renounceOwnership()": {
        "details": "Leaves the contract without owner. It will not be possible to call `onlyOwner` functions anymore. Can only be called by the current owner. NOTE: Renouncing ownership will leave the contract without an owner, thereby removing any functionality that is only available to the owner."
      },
      "sendOTokens(address)": {
        "params": {
          "buyer": "is the buyer of the oToken"
        }
      },
      "setCap(uint256)": {
        "params": {
          "newCap": "is the new cap for deposits"
        }
      },
      "setFeeRecipient(address)": {
        "params": {
          "newFeeRecipient": "is the address of the new fee recipient"
        }
      },
      "setManagementFee(uint256)": {
        "params": {
          "newManagementFee": "is the management fee (6 decimals). ex: 2 * 10 ** 6 = 2%"
        }
      },
      "setMaxDepositors(uint256)": {
        "params": {
          "newMaxDepositors": "is the new cap for number of depositors"
        }
      },
      "setMinDeposit(uint256)": {
        "params": {
          "newMinDeposit": "is the new minimum amount for deposit"
        }
      },
      "setNewKeeper(address)": {
        "params": {
          "newKeeper": "is the address of the new keeper"
        }
      },
      "setOptionsPremiumPricer(address)": {
        "params": {
          "newOptionsPremiumPricer": "is the address of the new options premium pricer contract"
        }
      },
      "setPerformanceFee(uint256)": {
        "params": {
          "newPerformanceFee": "is the performance fee (6 decimals). ex: 20 * 10 ** 6 = 20%"
        }
      },
      "setPremiumDiscount(uint256)": {
        "params": {
          "newPremiumDiscount": "is the premium discount"
        }
      },
      "setStrikePrice(uint128)": {
        "params": {
          "strikePrice": "is the strike price of the new oTokens (decimals = 8)"
        }
      },
      "setStrikeSelection(address)": {
        "params": {
          "newStrikeSelection": "is the address of the new strike selection contract"
        }
      },
      "shareBalances(address)": {
        "params": {
          "account": "is the account to lookup share balance for"
        },
        "returns": {
          "heldByAccount": "is the shares held by account",
          "heldByVault": "is the shares held on the vault (unredeemedShares)"
        }
      },
      "shares(address)": {
        "params": {
          "account": "is the account to lookup share balance for"
        },
        "returns": {
          "_0": "the share balance"
        }
      },
      "symbol()": {
        "details": "Returns the symbol of the token, usually a shorter version of the name."
      },
      "totalBalance()": {
        "returns": {
          "_0": "total balance of the vault, including the amounts locked in third party protocols"
        }
      },
      "totalSupply()": {
        "details": "See {IERC20-totalSupply}."
      },
      "transfer(address,uint256)": {
        "details": "See {IERC20-transfer}. Requirements: - `recipient` cannot be the zero address. - the caller must have a balance of at least `amount`."
      },
      "transferFrom(address,address,uint256)": {
        "details": "See {IERC20-transferFrom}. Emits an {Approval} event indicating the updated allowance. This is not required by the EIP. See the note at the beginning of {ERC20}. Requirements: - `sender` and `recipient` cannot be the zero address. - `sender` must have a balance of at least `amount`. - the caller must have allowance for ``sender``'s tokens of at least `amount`."
      },
      "transferOwnership(address)": {
        "details": "Transfers ownership of the contract to a new account (`newOwner`). Can only be called by the current owner."
      },
      "withdrawInstantly(uint256)": {
        "params": {
          "amount": "is the amount to withdraw"
        }
      }
    },
    "version": 1
  },
  "userdoc": {
    "kind": "user",
    "methods": {
      "DELAY()": {
        "notice": "15 minute timelock between commitAndClose and rollToNexOption."
      },
      "OTOKEN_FACTORY()": {
        "notice": "OTOKEN_FACTORY is the factory contract used to spawn otokens. Used to lookup otokens."
      },
      "USDC()": {
        "notice": "USDC 0xA0b86991c6218b36c1d19D4a2e9Eb0cE3606eB48"
      },
      "accountVaultBalance(address)": {
        "notice": "Returns the asset balance held on the vault for the account"
      },
      "auctionDuration()": {
        "notice": "Auction duration"
      },
      "burnRemainingOTokens()": {
        "notice": "Burn the remaining oTokens"
      },
      "cap()": {
        "notice": "Returns the maximum capacity of the vault in terms of the vault's asset"
      },
      "chargeAndDistribute()": {
        "notice": "Charge performance fee and distribute remaining to depositors addresses"
      },
      "commitAndClose()": {
        "notice": "Sets the next option the vault will be shorting, and closes the existing short.         This allows all the users to withdraw if the next option is malicious."
      },
      "completeWithdraw()": {
        "notice": "Completes a scheduled withdrawal from a past round. Uses finalized pps for the round"
      },
      "constructor": {
        "notice": "Initializes the contract with immutable variables"
      },
      "currentOption()": {
        "notice": "Returns the options specification for the current round"
      },
      "currentOtokenPremium()": {
        "notice": "Current oToken premium"
      },
      "decimals()": {
        "notice": "Returns the token decimals"
      },
      "deposit(uint256)": {
        "notice": "Deposits the `asset` from msg.sender."
      },
      "depositReceipts(address)": {
        "notice": "Stores the user's pending deposit for the round"
      },
      "depositorsArray(uint256)": {
        "notice": "Array of depositors in the vault"
      },
      "depositorsMap(address)": {
        "notice": "Mapping of depositors in the vault"
      },
      "feeRecipient()": {
        "notice": "Fee recipient for the performance and management fees"
      },
      "initialize((address,address,address,uint256,uint256,string,string,address,address,uint32,uint256,uint256,uint256,uint256),(bool,uint8,address,address,uint56,uint104))": {
        "notice": "Initializes the OptionVault contract with storage variables."
      },
      "initiateWithdraw(uint256)": {
        "notice": "Initiates a withdrawal that can be processed once the round completes"
      },
      "keeper()": {
        "notice": "role in charge of weekly vault operations such as rollToNextOption and burnRemainingOTokens"
      },
      "lastQueuedWithdrawAmount()": {
        "notice": "Amount locked for scheduled withdrawals last week;"
      },
      "lastStrikeOverrideRound()": {
        "notice": "Last round id at which the strike was manually overridden"
      },
      "managementFee()": {
        "notice": "Management fee charged on entire AUM in rollToNextOption. Only charged when there is no loss."
      },
      "maxDepositors()": {
        "notice": "Maximum number of depositors"
      },
      "maxRedeem()": {
        "notice": "Redeems the entire unredeemedShares balance that is owed to the account"
      },
      "minDeposit()": {
        "notice": "Minimum amount to deposit"
      },
      "nextOption()": {
        "notice": "Returns the options specification for the next round"
      },
      "nextOptionReadyAt()": {
        "notice": "Returns the date and time for the next options sale"
      },
      "oTokenMintAmount()": {
        "notice": "Amount of otokens minted in current round"
      },
      "optionAuctionID()": {
        "notice": "Auction id of current option"
      },
      "optionState()": {
        "notice": "Vault's state of the options sold and the timelocked option"
      },
      "optionsPremiumPricer()": {
        "notice": "Logic contract used to price options"
      },
      "overriddenStrikePrice()": {
        "notice": "Price last overridden strike set to"
      },
      "performanceFee()": {
        "notice": "Performance fee charged on premiums earned in rollToNextOption. Only charged when there is no loss."
      },
      "period()": {
        "notice": "Period between each options sale. Available options 7 (weekly), 14 (biweekly), 30 (monthly), 90 (quarterly), 180 (biannually)"
      },
      "premiumDiscount()": {
        "notice": "Premium discount on options we are selling (thousandths place: 000 - 999)"
      },
      "pricePerShare()": {
        "notice": "The price of a unit of share denominated in the `asset`"
      },
      "redeem(uint256)": {
        "notice": "Redeems shares that are owed to the account"
      },
      "rollToNextOption()": {
        "notice": "Rolls the vault's funds into a new short position."
      },
      "roundPricePerShare(uint256)": {
        "notice": "On every round's close, the pricePerShare value of an rTHETA token is stored This is used to determine the number of shares to be returned to a user with their DepositReceipt.depositAmount"
      },
      "sendOTokens(address)": {
        "notice": "Sends oToken to buyer"
      },
      "setCap(uint256)": {
        "notice": "Sets a new cap for deposits"
      },
      "setFeeRecipient(address)": {
        "notice": "Sets the new fee recipient"
      },
      "setManagementFee(uint256)": {
        "notice": "Sets the management fee for the vault"
      },
      "setMaxDepositors(uint256)": {
        "notice": "Set the maximum number of depositors"
      },
      "setMinDeposit(uint256)": {
        "notice": "Set the minimum deposit amount"
      },
      "setNewKeeper(address)": {
        "notice": "Sets the new keeper"
      },
      "setOptionsPremiumPricer(address)": {
        "notice": "Sets the new options premium pricer contract"
      },
      "setPerformanceFee(uint256)": {
        "notice": "Sets the performance fee for the vault"
      },
      "setPremiumDiscount(uint256)": {
        "notice": "Sets the new discount on premiums for options we are selling"
      },
      "setStrikePrice(uint128)": {
        "notice": "Optionality to set strike price manually"
      },
      "setStrikeSelection(address)": {
        "notice": "Sets the new strike selection contract"
      },
      "shareBalances(address)": {
        "notice": "Getter for returning the account's share balance split between account and vault holdings"
      },
      "shares(address)": {
        "notice": "Getter for returning the account's share balance including unredeemed shares"
      },
      "strikeSelection()": {
        "notice": "Logic contract used to select strike prices"
      },
      "totalBalance()": {
        "notice": "Returns the vault's total balance, including the amounts locked into a short position"
      },
      "totalPending()": {
        "notice": "Returns total pending deposit for the current round"
      },
      "vaultParams()": {
        "notice": "Vault's parameters like cap, decimals"
      },
      "vaultState()": {
        "notice": "Vault's lifecycle state like round and locked amounts"
      },
      "withdrawInstantly(uint256)": {
        "notice": "Withdraws the assets on the vault using the outstanding `DepositReceipt.amount`"
      },
      "withdrawals(address)": {
        "notice": "Stores pending user withdrawals"
      }
    },
    "version": 1
  },
  "storageLayout": {
    "storage": [
      {
        "astId": 176,
        "contract": "contracts/vaults/TreasuryVault/RibbonTreasuryVaultV2.sol:RibbonTreasuryVaultV2",
        "label": "_initialized",
        "offset": 0,
        "slot": "0",
        "type": "t_bool"
      },
      {
        "astId": 179,
        "contract": "contracts/vaults/TreasuryVault/RibbonTreasuryVaultV2.sol:RibbonTreasuryVaultV2",
        "label": "_initializing",
        "offset": 1,
        "slot": "0",
        "type": "t_bool"
      },
      {
        "astId": 230,
        "contract": "contracts/vaults/TreasuryVault/RibbonTreasuryVaultV2.sol:RibbonTreasuryVaultV2",
        "label": "_status",
        "offset": 0,
        "slot": "1",
        "type": "t_uint256"
      },
      {
        "astId": 273,
        "contract": "contracts/vaults/TreasuryVault/RibbonTreasuryVaultV2.sol:RibbonTreasuryVaultV2",
        "label": "__gap",
        "offset": 0,
        "slot": "2",
        "type": "t_array(t_uint256)49_storage"
      },
      {
        "astId": 993,
        "contract": "contracts/vaults/TreasuryVault/RibbonTreasuryVaultV2.sol:RibbonTreasuryVaultV2",
        "label": "__gap",
        "offset": 0,
        "slot": "51",
        "type": "t_array(t_uint256)50_storage"
      },
      {
        "astId": 56,
        "contract": "contracts/vaults/TreasuryVault/RibbonTreasuryVaultV2.sol:RibbonTreasuryVaultV2",
        "label": "_owner",
        "offset": 0,
        "slot": "101",
        "type": "t_address"
      },
      {
        "astId": 169,
        "contract": "contracts/vaults/TreasuryVault/RibbonTreasuryVaultV2.sol:RibbonTreasuryVaultV2",
        "label": "__gap",
        "offset": 0,
        "slot": "102",
        "type": "t_array(t_uint256)49_storage"
      },
      {
        "astId": 293,
        "contract": "contracts/vaults/TreasuryVault/RibbonTreasuryVaultV2.sol:RibbonTreasuryVaultV2",
        "label": "_balances",
        "offset": 0,
        "slot": "151",
        "type": "t_mapping(t_address,t_uint256)"
      },
      {
        "astId": 299,
        "contract": "contracts/vaults/TreasuryVault/RibbonTreasuryVaultV2.sol:RibbonTreasuryVaultV2",
        "label": "_allowances",
        "offset": 0,
        "slot": "152",
        "type": "t_mapping(t_address,t_mapping(t_address,t_uint256))"
      },
      {
        "astId": 301,
        "contract": "contracts/vaults/TreasuryVault/RibbonTreasuryVaultV2.sol:RibbonTreasuryVaultV2",
        "label": "_totalSupply",
        "offset": 0,
        "slot": "153",
        "type": "t_uint256"
      },
      {
        "astId": 303,
        "contract": "contracts/vaults/TreasuryVault/RibbonTreasuryVaultV2.sol:RibbonTreasuryVaultV2",
        "label": "_name",
        "offset": 0,
        "slot": "154",
        "type": "t_string_storage"
      },
      {
        "astId": 305,
        "contract": "contracts/vaults/TreasuryVault/RibbonTreasuryVaultV2.sol:RibbonTreasuryVaultV2",
        "label": "_symbol",
        "offset": 0,
        "slot": "155",
        "type": "t_string_storage"
      },
      {
        "astId": 846,
        "contract": "contracts/vaults/TreasuryVault/RibbonTreasuryVaultV2.sol:RibbonTreasuryVaultV2",
        "label": "__gap",
        "offset": 0,
        "slot": "156",
        "type": "t_array(t_uint256)45_storage"
      },
      {
        "astId": 16209,
        "contract": "contracts/vaults/TreasuryVault/RibbonTreasuryVaultV2.sol:RibbonTreasuryVaultV2",
        "label": "vaultParams",
        "offset": 0,
        "slot": "201",
        "type": "t_struct(VaultParams)6649_storage"
      },
      {
        "astId": 16213,
        "contract": "contracts/vaults/TreasuryVault/RibbonTreasuryVaultV2.sol:RibbonTreasuryVaultV2",
        "label": "vaultState",
        "offset": 0,
        "slot": "204",
        "type": "t_struct(VaultState)6667_storage"
      },
      {
        "astId": 16217,
        "contract": "contracts/vaults/TreasuryVault/RibbonTreasuryVaultV2.sol:RibbonTreasuryVaultV2",
        "label": "optionState",
        "offset": 0,
        "slot": "206",
        "type": "t_struct(OptionState)6656_storage"
      },
      {
        "astId": 16223,
        "contract": "contracts/vaults/TreasuryVault/RibbonTreasuryVaultV2.sol:RibbonTreasuryVaultV2",
        "label": "depositReceipts",
        "offset": 0,
        "slot": "208",
        "type": "t_mapping(t_address,t_struct(DepositReceipt)6674_storage)"
      },
      {
        "astId": 16228,
        "contract": "contracts/vaults/TreasuryVault/RibbonTreasuryVaultV2.sol:RibbonTreasuryVaultV2",
        "label": "roundPricePerShare",
        "offset": 0,
        "slot": "209",
        "type": "t_mapping(t_uint256,t_uint256)"
      },
      {
        "astId": 16234,
        "contract": "contracts/vaults/TreasuryVault/RibbonTreasuryVaultV2.sol:RibbonTreasuryVaultV2",
        "label": "withdrawals",
        "offset": 0,
        "slot": "210",
        "type": "t_mapping(t_address,t_struct(Withdrawal)6679_storage)"
      },
      {
        "astId": 16237,
        "contract": "contracts/vaults/TreasuryVault/RibbonTreasuryVaultV2.sol:RibbonTreasuryVaultV2",
        "label": "feeRecipient",
        "offset": 0,
        "slot": "211",
        "type": "t_address"
      },
      {
        "astId": 16240,
        "contract": "contracts/vaults/TreasuryVault/RibbonTreasuryVaultV2.sol:RibbonTreasuryVaultV2",
        "label": "keeper",
        "offset": 0,
        "slot": "212",
        "type": "t_address"
      },
      {
        "astId": 16243,
        "contract": "contracts/vaults/TreasuryVault/RibbonTreasuryVaultV2.sol:RibbonTreasuryVaultV2",
        "label": "optionsPremiumPricer",
        "offset": 0,
        "slot": "213",
        "type": "t_address"
      },
      {
        "astId": 16246,
        "contract": "contracts/vaults/TreasuryVault/RibbonTreasuryVaultV2.sol:RibbonTreasuryVaultV2",
        "label": "strikeSelection",
        "offset": 0,
        "slot": "214",
        "type": "t_address"
      },
      {
        "astId": 16249,
        "contract": "contracts/vaults/TreasuryVault/RibbonTreasuryVaultV2.sol:RibbonTreasuryVaultV2",
        "label": "performanceFee",
        "offset": 0,
        "slot": "215",
        "type": "t_uint256"
      },
      {
        "astId": 16252,
        "contract": "contracts/vaults/TreasuryVault/RibbonTreasuryVaultV2.sol:RibbonTreasuryVaultV2",
        "label": "managementFee",
        "offset": 0,
        "slot": "216",
        "type": "t_uint256"
      },
      {
        "astId": 16255,
        "contract": "contracts/vaults/TreasuryVault/RibbonTreasuryVaultV2.sol:RibbonTreasuryVaultV2",
        "label": "premiumDiscount",
        "offset": 0,
        "slot": "217",
        "type": "t_uint256"
      },
      {
        "astId": 16258,
        "contract": "contracts/vaults/TreasuryVault/RibbonTreasuryVaultV2.sol:RibbonTreasuryVaultV2",
        "label": "overriddenStrikePrice",
        "offset": 0,
        "slot": "218",
        "type": "t_uint256"
      },
      {
        "astId": 16261,
        "contract": "contracts/vaults/TreasuryVault/RibbonTreasuryVaultV2.sol:RibbonTreasuryVaultV2",
        "label": "lastQueuedWithdrawAmount",
        "offset": 0,
        "slot": "219",
        "type": "t_uint256"
      },
      {
        "astId": 16264,
        "contract": "contracts/vaults/TreasuryVault/RibbonTreasuryVaultV2.sol:RibbonTreasuryVaultV2",
        "label": "period",
        "offset": 0,
        "slot": "220",
        "type": "t_uint256"
      },
      {
        "astId": 16267,
        "contract": "contracts/vaults/TreasuryVault/RibbonTreasuryVaultV2.sol:RibbonTreasuryVaultV2",
        "label": "lastStrikeOverrideRound",
        "offset": 0,
        "slot": "221",
        "type": "t_uint16"
      },
      {
        "astId": 16270,
        "contract": "contracts/vaults/TreasuryVault/RibbonTreasuryVaultV2.sol:RibbonTreasuryVaultV2",
        "label": "oTokenMintAmount",
        "offset": 0,
        "slot": "222",
        "type": "t_uint256"
      },
      {
        "astId": 16273,
        "contract": "contracts/vaults/TreasuryVault/RibbonTreasuryVaultV2.sol:RibbonTreasuryVaultV2",
        "label": "reserveRatio",
        "offset": 0,
        "slot": "223",
        "type": "t_uint256"
      },
      {
        "astId": 16288,
        "contract": "contracts/vaults/TreasuryVault/RibbonTreasuryVaultV2.sol:RibbonTreasuryVaultV2",
        "label": "depositorsMap",
        "offset": 0,
        "slot": "224",
        "type": "t_mapping(t_address,t_bool)"
      },
      {
        "astId": 16292,
        "contract": "contracts/vaults/TreasuryVault/RibbonTreasuryVaultV2.sol:RibbonTreasuryVaultV2",
        "label": "depositorsArray",
        "offset": 0,
        "slot": "225",
        "type": "t_array(t_address)dyn_storage"
      },
      {
        "astId": 16295,
        "contract": "contracts/vaults/TreasuryVault/RibbonTreasuryVaultV2.sol:RibbonTreasuryVaultV2",
        "label": "currentOtokenPremium",
        "offset": 0,
        "slot": "226",
        "type": "t_uint256"
      },
      {
        "astId": 16298,
        "contract": "contracts/vaults/TreasuryVault/RibbonTreasuryVaultV2.sol:RibbonTreasuryVaultV2",
        "label": "auctionDuration",
        "offset": 0,
        "slot": "227",
        "type": "t_uint256"
      },
      {
        "astId": 16301,
        "contract": "contracts/vaults/TreasuryVault/RibbonTreasuryVaultV2.sol:RibbonTreasuryVaultV2",
        "label": "optionAuctionID",
        "offset": 0,
        "slot": "228",
        "type": "t_uint256"
      },
      {
        "astId": 16304,
        "contract": "contracts/vaults/TreasuryVault/RibbonTreasuryVaultV2.sol:RibbonTreasuryVaultV2",
        "label": "maxDepositors",
        "offset": 0,
        "slot": "229",
        "type": "t_uint256"
      },
      {
        "astId": 16307,
        "contract": "contracts/vaults/TreasuryVault/RibbonTreasuryVaultV2.sol:RibbonTreasuryVaultV2",
        "label": "minDeposit",
        "offset": 0,
        "slot": "230",
        "type": "t_uint256"
      }
    ],
    "types": {
      "t_address": {
        "encoding": "inplace",
        "label": "address",
        "numberOfBytes": "20"
      },
      "t_array(t_address)dyn_storage": {
        "base": "t_address",
        "encoding": "dynamic_array",
        "label": "address[]",
        "numberOfBytes": "32"
      },
      "t_array(t_uint256)45_storage": {
        "base": "t_uint256",
        "encoding": "inplace",
        "label": "uint256[45]",
        "numberOfBytes": "1440"
      },
      "t_array(t_uint256)49_storage": {
        "base": "t_uint256",
        "encoding": "inplace",
        "label": "uint256[49]",
        "numberOfBytes": "1568"
      },
      "t_array(t_uint256)50_storage": {
        "base": "t_uint256",
        "encoding": "inplace",
        "label": "uint256[50]",
        "numberOfBytes": "1600"
      },
      "t_bool": {
        "encoding": "inplace",
        "label": "bool",
        "numberOfBytes": "1"
      },
      "t_mapping(t_address,t_bool)": {
        "encoding": "mapping",
        "key": "t_address",
        "label": "mapping(address => bool)",
        "numberOfBytes": "32",
        "value": "t_bool"
      },
      "t_mapping(t_address,t_mapping(t_address,t_uint256))": {
        "encoding": "mapping",
        "key": "t_address",
        "label": "mapping(address => mapping(address => uint256))",
        "numberOfBytes": "32",
        "value": "t_mapping(t_address,t_uint256)"
      },
      "t_mapping(t_address,t_struct(DepositReceipt)6674_storage)": {
        "encoding": "mapping",
        "key": "t_address",
        "label": "mapping(address => struct Vault.DepositReceipt)",
        "numberOfBytes": "32",
        "value": "t_struct(DepositReceipt)6674_storage"
      },
      "t_mapping(t_address,t_struct(Withdrawal)6679_storage)": {
        "encoding": "mapping",
        "key": "t_address",
        "label": "mapping(address => struct Vault.Withdrawal)",
        "numberOfBytes": "32",
        "value": "t_struct(Withdrawal)6679_storage"
      },
      "t_mapping(t_address,t_uint256)": {
        "encoding": "mapping",
        "key": "t_address",
        "label": "mapping(address => uint256)",
        "numberOfBytes": "32",
        "value": "t_uint256"
      },
      "t_mapping(t_uint256,t_uint256)": {
        "encoding": "mapping",
        "key": "t_uint256",
        "label": "mapping(uint256 => uint256)",
        "numberOfBytes": "32",
        "value": "t_uint256"
      },
      "t_string_storage": {
        "encoding": "bytes",
        "label": "string",
        "numberOfBytes": "32"
      },
      "t_struct(DepositReceipt)6674_storage": {
        "encoding": "inplace",
        "label": "struct Vault.DepositReceipt",
        "members": [
          {
            "astId": 6669,
            "contract": "contracts/vaults/TreasuryVault/RibbonTreasuryVaultV2.sol:RibbonTreasuryVaultV2",
            "label": "round",
            "offset": 0,
            "slot": "0",
            "type": "t_uint16"
          },
          {
            "astId": 6671,
            "contract": "contracts/vaults/TreasuryVault/RibbonTreasuryVaultV2.sol:RibbonTreasuryVaultV2",
            "label": "amount",
            "offset": 2,
            "slot": "0",
            "type": "t_uint104"
          },
          {
            "astId": 6673,
            "contract": "contracts/vaults/TreasuryVault/RibbonTreasuryVaultV2.sol:RibbonTreasuryVaultV2",
            "label": "unredeemedShares",
            "offset": 15,
            "slot": "0",
            "type": "t_uint128"
          }
        ],
        "numberOfBytes": "32"
      },
      "t_struct(OptionState)6656_storage": {
        "encoding": "inplace",
        "label": "struct Vault.OptionState",
        "members": [
          {
            "astId": 6651,
            "contract": "contracts/vaults/TreasuryVault/RibbonTreasuryVaultV2.sol:RibbonTreasuryVaultV2",
            "label": "nextOption",
            "offset": 0,
            "slot": "0",
            "type": "t_address"
          },
          {
            "astId": 6653,
            "contract": "contracts/vaults/TreasuryVault/RibbonTreasuryVaultV2.sol:RibbonTreasuryVaultV2",
            "label": "currentOption",
            "offset": 0,
            "slot": "1",
            "type": "t_address"
          },
          {
            "astId": 6655,
            "contract": "contracts/vaults/TreasuryVault/RibbonTreasuryVaultV2.sol:RibbonTreasuryVaultV2",
            "label": "nextOptionReadyAt",
            "offset": 20,
            "slot": "1",
            "type": "t_uint32"
          }
        ],
        "numberOfBytes": "64"
      },
      "t_struct(VaultParams)6649_storage": {
        "encoding": "inplace",
        "label": "struct Vault.VaultParams",
        "members": [
          {
            "astId": 6638,
            "contract": "contracts/vaults/TreasuryVault/RibbonTreasuryVaultV2.sol:RibbonTreasuryVaultV2",
            "label": "isPut",
            "offset": 0,
            "slot": "0",
            "type": "t_bool"
          },
          {
            "astId": 6640,
            "contract": "contracts/vaults/TreasuryVault/RibbonTreasuryVaultV2.sol:RibbonTreasuryVaultV2",
            "label": "decimals",
            "offset": 1,
            "slot": "0",
            "type": "t_uint8"
          },
          {
            "astId": 6642,
            "contract": "contracts/vaults/TreasuryVault/RibbonTreasuryVaultV2.sol:RibbonTreasuryVaultV2",
            "label": "asset",
            "offset": 2,
            "slot": "0",
            "type": "t_address"
          },
          {
            "astId": 6644,
            "contract": "contracts/vaults/TreasuryVault/RibbonTreasuryVaultV2.sol:RibbonTreasuryVaultV2",
            "label": "underlying",
            "offset": 0,
            "slot": "1",
            "type": "t_address"
          },
          {
            "astId": 6646,
            "contract": "contracts/vaults/TreasuryVault/RibbonTreasuryVaultV2.sol:RibbonTreasuryVaultV2",
            "label": "minimumSupply",
            "offset": 20,
            "slot": "1",
            "type": "t_uint56"
          },
          {
            "astId": 6648,
            "contract": "contracts/vaults/TreasuryVault/RibbonTreasuryVaultV2.sol:RibbonTreasuryVaultV2",
            "label": "cap",
            "offset": 0,
            "slot": "2",
            "type": "t_uint104"
          }
        ],
        "numberOfBytes": "96"
      },
      "t_struct(VaultState)6667_storage": {
        "encoding": "inplace",
        "label": "struct Vault.VaultState",
        "members": [
          {
            "astId": 6658,
            "contract": "contracts/vaults/TreasuryVault/RibbonTreasuryVaultV2.sol:RibbonTreasuryVaultV2",
            "label": "round",
            "offset": 0,
            "slot": "0",
            "type": "t_uint16"
          },
          {
            "astId": 6660,
            "contract": "contracts/vaults/TreasuryVault/RibbonTreasuryVaultV2.sol:RibbonTreasuryVaultV2",
            "label": "lockedAmount",
            "offset": 2,
            "slot": "0",
            "type": "t_uint104"
          },
          {
            "astId": 6662,
            "contract": "contracts/vaults/TreasuryVault/RibbonTreasuryVaultV2.sol:RibbonTreasuryVaultV2",
            "label": "lastLockedAmount",
            "offset": 15,
            "slot": "0",
            "type": "t_uint104"
          },
          {
            "astId": 6664,
            "contract": "contracts/vaults/TreasuryVault/RibbonTreasuryVaultV2.sol:RibbonTreasuryVaultV2",
            "label": "totalPending",
            "offset": 0,
            "slot": "1",
            "type": "t_uint128"
          },
          {
            "astId": 6666,
            "contract": "contracts/vaults/TreasuryVault/RibbonTreasuryVaultV2.sol:RibbonTreasuryVaultV2",
            "label": "queuedWithdrawShares",
            "offset": 16,
            "slot": "1",
            "type": "t_uint128"
          }
        ],
        "numberOfBytes": "64"
      },
      "t_struct(Withdrawal)6679_storage": {
        "encoding": "inplace",
        "label": "struct Vault.Withdrawal",
        "members": [
          {
            "astId": 6676,
            "contract": "contracts/vaults/TreasuryVault/RibbonTreasuryVaultV2.sol:RibbonTreasuryVaultV2",
            "label": "round",
            "offset": 0,
            "slot": "0",
            "type": "t_uint16"
          },
          {
            "astId": 6678,
            "contract": "contracts/vaults/TreasuryVault/RibbonTreasuryVaultV2.sol:RibbonTreasuryVaultV2",
            "label": "shares",
            "offset": 2,
            "slot": "0",
            "type": "t_uint128"
          }
        ],
        "numberOfBytes": "32"
      },
      "t_uint104": {
        "encoding": "inplace",
        "label": "uint104",
        "numberOfBytes": "13"
      },
      "t_uint128": {
        "encoding": "inplace",
        "label": "uint128",
        "numberOfBytes": "16"
      },
      "t_uint16": {
        "encoding": "inplace",
        "label": "uint16",
        "numberOfBytes": "2"
      },
      "t_uint256": {
        "encoding": "inplace",
        "label": "uint256",
        "numberOfBytes": "32"
      },
      "t_uint32": {
        "encoding": "inplace",
        "label": "uint32",
        "numberOfBytes": "4"
      },
      "t_uint56": {
        "encoding": "inplace",
        "label": "uint56",
        "numberOfBytes": "7"
      },
      "t_uint8": {
        "encoding": "inplace",
        "label": "uint8",
        "numberOfBytes": "1"
      }
    }
  }
}