{
  "address": "0xf9745aD6c6FF4FE9D8a0A2668A7F9E2944EA0955",
  "abi": [
    {
      "inputs": [
        {
          "internalType": "address",
          "name": "_oracle",
          "type": "address"
        },
        {
          "internalType": "address",
          "name": "_asset",
          "type": "address"
        }
      ],
      "stateMutability": "nonpayable",
      "type": "constructor"
    },
    {
      "inputs": [],
      "name": "asset",
      "outputs": [
        {
          "internalType": "address",
          "name": "",
          "type": "address"
        }
      ],
      "stateMutability": "view",
      "type": "function"
    },
    {
      "inputs": [],
      "name": "decimals",
      "outputs": [
        {
          "internalType": "uint256",
          "name": "",
          "type": "uint256"
        }
      ],
      "stateMutability": "view",
      "type": "function"
    },
    {
      "inputs": [],
      "name": "latestAnswer",
      "outputs": [
        {
          "internalType": "uint256",
          "name": "",
          "type": "uint256"
        }
      ],
      "stateMutability": "view",
      "type": "function"
    },
    {
      "inputs": [],
      "name": "oracle",
      "outputs": [
        {
          "internalType": "contract IOracle",
          "name": "",
          "type": "address"
        }
      ],
      "stateMutability": "view",
      "type": "function"
    }
  ],
  "transactionHash": "0xb095f2e108ffdcc9a265e57817773ccd92f80a0cd299711be6b9921206423c81",
  "args": [
    "0x32724C61e948892A906f5EB8892B1E7e6583ba1f",
    "0xdafa53b505b5d9b2d19701f8dda0b07941b2a461"
  ],
  "solcInputHash": "cb6e5018d6779dd1784c257a2041d0dd",
  "bytecode": "0x60c060405234801561001057600080fd5b5060405161034038038061034083398101604081905261002f916100ed565b6001600160a01b0382166100745760405162461bcd60e51b8152602060048201526007602482015266216f7261636c6560c81b60448201526064015b60405180910390fd5b6001600160a01b0381166100b35760405162461bcd60e51b815260206004820152600660248201526508585cdcd95d60d21b604482015260640161006b565b6001600160601b0319606092831b8116608052911b1660a05261011f565b80516001600160a01b03811681146100e857600080fd5b919050565b600080604083850312156100ff578182fd5b610108836100d1565b9150610116602084016100d1565b90509250929050565b60805160601c60a05160601c6101eb610155600039600081816071015260f101526000818160b8015261011c01526101eb6000f3fe608060405234801561001057600080fd5b506004361061004c5760003560e01c8063313ce5671461005157806338d52e0f1461006c57806350d25bcd146100ab5780637dc0d1d0146100b3575b600080fd5b610059600881565b6040519081526020015b60405180910390f35b6100937f000000000000000000000000000000000000000000000000000000000000000081565b6040516001600160a01b039091168152602001610063565b6100596100da565b6100937f000000000000000000000000000000000000000000000000000000000000000081565b6040516341976e0960e01b81526001600160a01b037f0000000000000000000000000000000000000000000000000000000000000000811660048301526000917f0000000000000000000000000000000000000000000000000000000000000000909116906341976e099060240160206040518083038186803b15801561016057600080fd5b505afa158015610174573d6000803e3d6000fd5b505050506040513d601f19601f82011682018060405250810190610198919061019d565b905090565b6000602082840312156101ae578081fd5b505191905056fea2646970667358221220105bec827c91a2075ae1a63772dc21a28b5c89962651e233b154fe119e502e4c64736f6c63430008040033",
  "devdoc": {
    "kind": "dev",
    "methods": {},
    "stateVariables": {
      "decimals": {
        "details": "base decimals"
      }
    },
    "version": 1
  },
  "userdoc": {
    "kind": "user",
    "methods": {
      "asset()": {
        "notice": "Asset to get the price of"
      },
      "oracle()": {
        "notice": "Gamma Protocol oracle"
      }
    },
    "version": 1
  },
  "storageLayout": {
    "storage": [],
    "types": null
  }
}