{
  "address": "0x6437a402Ea78A7842537D82697aAB2009613Ac41",
  "abi": [
    {
      "inputs": [
        {
          "internalType": "address",
          "name": "_weth",
          "type": "address"
        },
        {
          "internalType": "address",
          "name": "_usdc",
          "type": "address"
        },
        {
          "internalType": "address",
          "name": "_oTokenFactory",
          "type": "address"
        },
        {
          "internalType": "address",
          "name": "_gammaController",
          "type": "address"
        },
        {
          "internalType": "address",
          "name": "_marginPool",
          "type": "address"
        },
        {
          "internalType": "address",
          "name": "_gnosisEasyAuction",
          "type": "address"
        }
      ],
      "stateMutability": "nonpayable",
      "type": "constructor"
    },
    {
      "anonymous": false,
      "inputs": [
        {
          "indexed": true,
          "internalType": "address",
          "name": "owner",
          "type": "address"
        },
        {
          "indexed": true,
          "internalType": "address",
          "name": "spender",
          "type": "address"
        },
        {
          "indexed": false,
          "internalType": "uint256",
          "name": "value",
          "type": "uint256"
        }
      ],
      "name": "Approval",
      "type": "event"
    },
    {
      "anonymous": false,
      "inputs": [
        {
          "indexed": false,
          "internalType": "uint256",
          "name": "auctionDuration",
          "type": "uint256"
        },
        {
          "indexed": false,
          "internalType": "uint256",
          "name": "newAuctionDuration",
          "type": "uint256"
        }
      ],
      "name": "AuctionDurationSet",
      "type": "event"
    },
    {
      "anonymous": false,
      "inputs": [
        {
          "indexed": false,
          "internalType": "uint256",
          "name": "oldCap",
          "type": "uint256"
        },
        {
          "indexed": false,
          "internalType": "uint256",
          "name": "newCap",
          "type": "uint256"
        }
      ],
      "name": "CapSet",
      "type": "event"
    },
    {
      "anonymous": false,
      "inputs": [
        {
          "indexed": true,
          "internalType": "address",
          "name": "options",
          "type": "address"
        },
        {
          "indexed": false,
          "internalType": "uint256",
          "name": "withdrawAmount",
          "type": "uint256"
        },
        {
          "indexed": true,
          "internalType": "address",
          "name": "manager",
          "type": "address"
        }
      ],
      "name": "CloseShort",
      "type": "event"
    },
    {
      "anonymous": false,
      "inputs": [
        {
          "indexed": false,
          "internalType": "uint256",
          "name": "managementFee",
          "type": "uint256"
        },
        {
          "indexed": false,
          "internalType": "uint256",
          "name": "round",
          "type": "uint256"
        },
        {
          "indexed": true,
          "internalType": "address",
          "name": "feeRecipient",
          "type": "address"
        }
      ],
      "name": "CollectManagementFee",
      "type": "event"
    },
    {
      "anonymous": false,
      "inputs": [
        {
          "indexed": false,
          "internalType": "uint256",
          "name": "performanceFee",
          "type": "uint256"
        },
        {
          "indexed": false,
          "internalType": "uint256",
          "name": "round",
          "type": "uint256"
        },
        {
          "indexed": true,
          "internalType": "address",
          "name": "feeRecipient",
          "type": "address"
        }
      ],
      "name": "CollectPerformanceFee",
      "type": "event"
    },
    {
      "anonymous": false,
      "inputs": [
        {
          "indexed": true,
          "internalType": "address",
          "name": "account",
          "type": "address"
        },
        {
          "indexed": false,
          "internalType": "uint256",
          "name": "amount",
          "type": "uint256"
        },
        {
          "indexed": false,
          "internalType": "uint256",
          "name": "round",
          "type": "uint256"
        }
      ],
      "name": "Deposit",
      "type": "event"
    },
    {
      "anonymous": false,
      "inputs": [
        {
          "indexed": true,
          "internalType": "address",
          "name": "account",
          "type": "address"
        },
        {
          "indexed": false,
          "internalType": "uint256",
          "name": "shares",
          "type": "uint256"
        },
        {
          "indexed": false,
          "internalType": "uint256",
          "name": "round",
          "type": "uint256"
        }
      ],
      "name": "InitiateWithdraw",
      "type": "event"
    },
    {
      "anonymous": false,
      "inputs": [
        {
          "indexed": true,
          "internalType": "address",
          "name": "account",
          "type": "address"
        },
        {
          "indexed": false,
          "internalType": "uint256",
          "name": "amount",
          "type": "uint256"
        },
        {
          "indexed": false,
          "internalType": "uint256",
          "name": "round",
          "type": "uint256"
        }
      ],
      "name": "InstantWithdraw",
      "type": "event"
    },
    {
      "anonymous": false,
      "inputs": [
        {
          "indexed": false,
          "internalType": "uint256",
          "name": "managementFee",
          "type": "uint256"
        },
        {
          "indexed": false,
          "internalType": "uint256",
          "name": "newManagementFee",
          "type": "uint256"
        }
      ],
      "name": "ManagementFeeSet",
      "type": "event"
    },
    {
      "anonymous": false,
      "inputs": [
        {
          "indexed": false,
          "internalType": "uint256",
          "name": "strikePrice",
          "type": "uint256"
        },
        {
          "indexed": false,
          "internalType": "uint256",
          "name": "delta",
          "type": "uint256"
        }
      ],
      "name": "NewOptionStrikeSelected",
      "type": "event"
    },
    {
      "anonymous": false,
      "inputs": [
        {
          "indexed": true,
          "internalType": "address",
          "name": "options",
          "type": "address"
        },
        {
          "indexed": false,
          "internalType": "uint256",
          "name": "depositAmount",
          "type": "uint256"
        },
        {
          "indexed": true,
          "internalType": "address",
          "name": "manager",
          "type": "address"
        }
      ],
      "name": "OpenShort",
      "type": "event"
    },
    {
      "anonymous": false,
      "inputs": [
        {
          "indexed": true,
          "internalType": "address",
          "name": "previousOwner",
          "type": "address"
        },
        {
          "indexed": true,
          "internalType": "address",
          "name": "newOwner",
          "type": "address"
        }
      ],
      "name": "OwnershipTransferred",
      "type": "event"
    },
    {
      "anonymous": false,
      "inputs": [
        {
          "indexed": false,
          "internalType": "uint256",
          "name": "performanceFee",
          "type": "uint256"
        },
        {
          "indexed": false,
          "internalType": "uint256",
          "name": "newPerformanceFee",
          "type": "uint256"
        }
      ],
      "name": "PerformanceFeeSet",
      "type": "event"
    },
    {
      "anonymous": false,
      "inputs": [
        {
          "indexed": false,
          "internalType": "uint256",
          "name": "premiumDiscount",
          "type": "uint256"
        },
        {
          "indexed": false,
          "internalType": "uint256",
          "name": "newPremiumDiscount",
          "type": "uint256"
        }
      ],
      "name": "PremiumDiscountSet",
      "type": "event"
    },
    {
      "anonymous": false,
      "inputs": [
        {
          "indexed": true,
          "internalType": "address",
          "name": "account",
          "type": "address"
        },
        {
          "indexed": false,
          "internalType": "uint256",
          "name": "share",
          "type": "uint256"
        },
        {
          "indexed": false,
          "internalType": "uint256",
          "name": "round",
          "type": "uint256"
        }
      ],
      "name": "Redeem",
      "type": "event"
    },
    {
      "anonymous": false,
      "inputs": [
        {
          "indexed": true,
          "internalType": "address",
          "name": "from",
          "type": "address"
        },
        {
          "indexed": true,
          "internalType": "address",
          "name": "to",
          "type": "address"
        },
        {
          "indexed": false,
          "internalType": "uint256",
          "name": "value",
          "type": "uint256"
        }
      ],
      "name": "Transfer",
      "type": "event"
    },
    {
      "anonymous": false,
      "inputs": [
        {
          "indexed": true,
          "internalType": "address",
          "name": "account",
          "type": "address"
        },
        {
          "indexed": false,
          "internalType": "uint256",
          "name": "amount",
          "type": "uint256"
        },
        {
          "indexed": false,
          "internalType": "uint256",
          "name": "shares",
          "type": "uint256"
        }
      ],
      "name": "Withdraw",
      "type": "event"
    },
    {
      "inputs": [],
      "name": "DELAY",
      "outputs": [
        {
          "internalType": "uint256",
          "name": "",
          "type": "uint256"
        }
      ],
      "stateMutability": "view",
      "type": "function"
    },
    {
      "inputs": [],
      "name": "GAMMA_CONTROLLER",
      "outputs": [
        {
          "internalType": "address",
          "name": "",
          "type": "address"
        }
      ],
      "stateMutability": "view",
      "type": "function"
    },
    {
      "inputs": [],
      "name": "GNOSIS_EASY_AUCTION",
      "outputs": [
        {
          "internalType": "address",
          "name": "",
          "type": "address"
        }
      ],
      "stateMutability": "view",
      "type": "function"
    },
    {
      "inputs": [],
      "name": "MARGIN_POOL",
      "outputs": [
        {
          "internalType": "address",
          "name": "",
          "type": "address"
        }
      ],
      "stateMutability": "view",
      "type": "function"
    },
    {
      "inputs": [],
      "name": "OTOKEN_FACTORY",
      "outputs": [
        {
          "internalType": "address",
          "name": "",
          "type": "address"
        }
      ],
      "stateMutability": "view",
      "type": "function"
    },
    {
      "inputs": [],
      "name": "USDC",
      "outputs": [
        {
          "internalType": "address",
          "name": "",
          "type": "address"
        }
      ],
      "stateMutability": "view",
      "type": "function"
    },
    {
      "inputs": [],
      "name": "WETH",
      "outputs": [
        {
          "internalType": "address",
          "name": "",
          "type": "address"
        }
      ],
      "stateMutability": "view",
      "type": "function"
    },
    {
      "inputs": [
        {
          "internalType": "address",
          "name": "account",
          "type": "address"
        }
      ],
      "name": "accountVaultBalance",
      "outputs": [
        {
          "internalType": "uint256",
          "name": "",
          "type": "uint256"
        }
      ],
      "stateMutability": "view",
      "type": "function"
    },
    {
      "inputs": [
        {
          "internalType": "address",
          "name": "newWhitelist",
          "type": "address"
        }
      ],
      "name": "addWhitelist",
      "outputs": [],
      "stateMutability": "nonpayable",
      "type": "function"
    },
    {
      "inputs": [
        {
          "internalType": "address",
          "name": "owner",
          "type": "address"
        },
        {
          "internalType": "address",
          "name": "spender",
          "type": "address"
        }
      ],
      "name": "allowance",
      "outputs": [
        {
          "internalType": "uint256",
          "name": "",
          "type": "uint256"
        }
      ],
      "stateMutability": "view",
      "type": "function"
    },
    {
      "inputs": [
        {
          "internalType": "address",
          "name": "spender",
          "type": "address"
        },
        {
          "internalType": "uint256",
          "name": "amount",
          "type": "uint256"
        }
      ],
      "name": "approve",
      "outputs": [
        {
          "internalType": "bool",
          "name": "",
          "type": "bool"
        }
      ],
      "stateMutability": "nonpayable",
      "type": "function"
    },
    {
      "inputs": [],
      "name": "auctionDuration",
      "outputs": [
        {
          "internalType": "uint256",
          "name": "",
          "type": "uint256"
        }
      ],
      "stateMutability": "view",
      "type": "function"
    },
    {
      "inputs": [
        {
          "internalType": "address",
          "name": "account",
          "type": "address"
        }
      ],
      "name": "balanceOf",
      "outputs": [
        {
          "internalType": "uint256",
          "name": "",
          "type": "uint256"
        }
      ],
      "stateMutability": "view",
      "type": "function"
    },
    {
      "inputs": [],
      "name": "burnRemainingOTokens",
      "outputs": [],
      "stateMutability": "nonpayable",
      "type": "function"
    },
    {
      "inputs": [],
      "name": "cap",
      "outputs": [
        {
          "internalType": "uint256",
          "name": "",
          "type": "uint256"
        }
      ],
      "stateMutability": "view",
      "type": "function"
    },
    {
      "inputs": [],
      "name": "chargeAndDistribute",
      "outputs": [],
      "stateMutability": "nonpayable",
      "type": "function"
    },
    {
      "inputs": [],
      "name": "commitAndClose",
      "outputs": [],
      "stateMutability": "nonpayable",
      "type": "function"
    },
    {
      "inputs": [],
      "name": "completeWithdraw",
      "outputs": [],
      "stateMutability": "nonpayable",
      "type": "function"
    },
    {
      "inputs": [],
      "name": "concludeOptionsSale",
      "outputs": [],
      "stateMutability": "nonpayable",
      "type": "function"
    },
    {
      "inputs": [],
      "name": "currentOption",
      "outputs": [
        {
          "internalType": "address",
          "name": "",
          "type": "address"
        }
      ],
      "stateMutability": "view",
      "type": "function"
    },
    {
      "inputs": [],
      "name": "currentOtokenPremium",
      "outputs": [
        {
          "internalType": "uint256",
          "name": "",
          "type": "uint256"
        }
      ],
      "stateMutability": "view",
      "type": "function"
    },
    {
      "inputs": [],
      "name": "decimals",
      "outputs": [
        {
          "internalType": "uint8",
          "name": "",
          "type": "uint8"
        }
      ],
      "stateMutability": "view",
      "type": "function"
    },
    {
      "inputs": [
        {
          "internalType": "address",
          "name": "spender",
          "type": "address"
        },
        {
          "internalType": "uint256",
          "name": "subtractedValue",
          "type": "uint256"
        }
      ],
      "name": "decreaseAllowance",
      "outputs": [
        {
          "internalType": "bool",
          "name": "",
          "type": "bool"
        }
      ],
      "stateMutability": "nonpayable",
      "type": "function"
    },
    {
      "inputs": [
        {
          "internalType": "uint256",
          "name": "amount",
          "type": "uint256"
        }
      ],
      "name": "deposit",
      "outputs": [],
      "stateMutability": "nonpayable",
      "type": "function"
    },
    {
      "inputs": [
        {
          "internalType": "address",
          "name": "",
          "type": "address"
        }
      ],
      "name": "depositReceipts",
      "outputs": [
        {
          "internalType": "uint16",
          "name": "round",
          "type": "uint16"
        },
        {
          "internalType": "uint104",
          "name": "amount",
          "type": "uint104"
        },
        {
          "internalType": "uint128",
          "name": "unredeemedShares",
          "type": "uint128"
        }
      ],
      "stateMutability": "view",
      "type": "function"
    },
    {
      "inputs": [],
      "name": "feeRecipient",
      "outputs": [
        {
          "internalType": "address",
          "name": "",
          "type": "address"
        }
      ],
      "stateMutability": "view",
      "type": "function"
    },
    {
      "inputs": [
        {
          "internalType": "address",
          "name": "spender",
          "type": "address"
        },
        {
          "internalType": "uint256",
          "name": "addedValue",
          "type": "uint256"
        }
      ],
      "name": "increaseAllowance",
      "outputs": [
        {
          "internalType": "bool",
          "name": "",
          "type": "bool"
        }
      ],
      "stateMutability": "nonpayable",
      "type": "function"
    },
    {
      "inputs": [
        {
          "internalType": "uint256",
          "name": "numRounds",
          "type": "uint256"
        }
      ],
      "name": "initRounds",
      "outputs": [],
      "stateMutability": "nonpayable",
      "type": "function"
    },
    {
      "inputs": [
        {
          "components": [
            {
              "internalType": "address",
              "name": "_owner",
              "type": "address"
            },
            {
              "internalType": "address",
              "name": "_keeper",
              "type": "address"
            },
            {
              "internalType": "address",
              "name": "_feeRecipient",
              "type": "address"
            },
            {
              "internalType": "uint256",
              "name": "_managementFee",
              "type": "uint256"
            },
            {
              "internalType": "uint256",
              "name": "_performanceFee",
              "type": "uint256"
            },
            {
              "internalType": "string",
              "name": "_tokenName",
              "type": "string"
            },
            {
              "internalType": "string",
              "name": "_tokenSymbol",
              "type": "string"
            },
            {
              "internalType": "address",
              "name": "_optionsPremiumPricer",
              "type": "address"
            },
            {
              "internalType": "address",
              "name": "_strikeSelection",
              "type": "address"
            },
            {
              "internalType": "uint32",
              "name": "_premiumDiscount",
              "type": "uint32"
            },
            {
              "internalType": "uint256",
              "name": "_auctionDuration",
              "type": "uint256"
            },
            {
              "internalType": "address[]",
              "name": "_whitelist",
              "type": "address[]"
            },
            {
              "internalType": "uint256",
              "name": "_period",
              "type": "uint256"
            }
          ],
          "internalType": "struct VaultLifecycleTreasury.InitParams",
          "name": "_initParams",
          "type": "tuple"
        },
        {
          "components": [
            {
              "internalType": "bool",
              "name": "isPut",
              "type": "bool"
            },
            {
              "internalType": "uint8",
              "name": "decimals",
              "type": "uint8"
            },
            {
              "internalType": "address",
              "name": "asset",
              "type": "address"
            },
            {
              "internalType": "address",
              "name": "underlying",
              "type": "address"
            },
            {
              "internalType": "uint56",
              "name": "minimumSupply",
              "type": "uint56"
            },
            {
              "internalType": "uint104",
              "name": "cap",
              "type": "uint104"
            }
          ],
          "internalType": "struct Vault.VaultParams",
          "name": "_vaultParams",
          "type": "tuple"
        }
      ],
      "name": "initialize",
      "outputs": [],
      "stateMutability": "nonpayable",
      "type": "function"
    },
    {
      "inputs": [
        {
          "internalType": "uint256",
          "name": "numShares",
          "type": "uint256"
        }
      ],
      "name": "initiateWithdraw",
      "outputs": [],
      "stateMutability": "nonpayable",
      "type": "function"
    },
    {
      "inputs": [],
      "name": "keeper",
      "outputs": [
        {
          "internalType": "address",
          "name": "",
          "type": "address"
        }
      ],
      "stateMutability": "view",
      "type": "function"
    },
    {
      "inputs": [],
      "name": "lastQueuedWithdrawAmount",
      "outputs": [
        {
          "internalType": "uint256",
          "name": "",
          "type": "uint256"
        }
      ],
      "stateMutability": "view",
      "type": "function"
    },
    {
      "inputs": [],
      "name": "lastStrikeOverrideRound",
      "outputs": [
        {
          "internalType": "uint16",
          "name": "",
          "type": "uint16"
        }
      ],
      "stateMutability": "view",
      "type": "function"
    },
    {
      "inputs": [],
      "name": "managementFee",
      "outputs": [
        {
          "internalType": "uint256",
          "name": "",
          "type": "uint256"
        }
      ],
      "stateMutability": "view",
      "type": "function"
    },
    {
      "inputs": [],
      "name": "maxRedeem",
      "outputs": [],
      "stateMutability": "nonpayable",
      "type": "function"
    },
    {
      "inputs": [],
      "name": "name",
      "outputs": [
        {
          "internalType": "string",
          "name": "",
          "type": "string"
        }
      ],
      "stateMutability": "view",
      "type": "function"
    },
    {
      "inputs": [],
      "name": "nextOption",
      "outputs": [
        {
          "internalType": "address",
          "name": "",
          "type": "address"
        }
      ],
      "stateMutability": "view",
      "type": "function"
    },
    {
      "inputs": [],
      "name": "nextOptionReadyAt",
      "outputs": [
        {
          "internalType": "uint256",
          "name": "",
          "type": "uint256"
        }
      ],
      "stateMutability": "view",
      "type": "function"
    },
    {
      "inputs": [],
      "name": "optionAuctionID",
      "outputs": [
        {
          "internalType": "uint256",
          "name": "",
          "type": "uint256"
        }
      ],
      "stateMutability": "view",
      "type": "function"
    },
    {
      "inputs": [],
      "name": "optionState",
      "outputs": [
        {
          "internalType": "address",
          "name": "nextOption",
          "type": "address"
        },
        {
          "internalType": "address",
          "name": "currentOption",
          "type": "address"
        },
        {
          "internalType": "uint32",
          "name": "nextOptionReadyAt",
          "type": "uint32"
        }
      ],
      "stateMutability": "view",
      "type": "function"
    },
    {
      "inputs": [],
      "name": "optionsPremiumPricer",
      "outputs": [
        {
          "internalType": "address",
          "name": "",
          "type": "address"
        }
      ],
      "stateMutability": "view",
      "type": "function"
    },
    {
      "inputs": [],
      "name": "overriddenStrikePrice",
      "outputs": [
        {
          "internalType": "uint256",
          "name": "",
          "type": "uint256"
        }
      ],
      "stateMutability": "view",
      "type": "function"
    },
    {
      "inputs": [],
      "name": "owner",
      "outputs": [
        {
          "internalType": "address",
          "name": "",
          "type": "address"
        }
      ],
      "stateMutability": "view",
      "type": "function"
    },
    {
      "inputs": [],
      "name": "performanceFee",
      "outputs": [
        {
          "internalType": "uint256",
          "name": "",
          "type": "uint256"
        }
      ],
      "stateMutability": "view",
      "type": "function"
    },
    {
      "inputs": [],
      "name": "period",
      "outputs": [
        {
          "internalType": "uint256",
          "name": "",
          "type": "uint256"
        }
      ],
      "stateMutability": "view",
      "type": "function"
    },
    {
      "inputs": [],
      "name": "premiumDiscount",
      "outputs": [
        {
          "internalType": "uint256",
          "name": "",
          "type": "uint256"
        }
      ],
      "stateMutability": "view",
      "type": "function"
    },
    {
      "inputs": [],
      "name": "pricePerShare",
      "outputs": [
        {
          "internalType": "uint256",
          "name": "",
          "type": "uint256"
        }
      ],
      "stateMutability": "view",
      "type": "function"
    },
    {
      "inputs": [
        {
          "internalType": "uint256",
          "name": "numShares",
          "type": "uint256"
        }
      ],
      "name": "redeem",
      "outputs": [],
      "stateMutability": "nonpayable",
      "type": "function"
    },
    {
      "inputs": [
        {
          "internalType": "address",
          "name": "excludeWhitelist",
          "type": "address"
        }
      ],
      "name": "removeWhitelist",
      "outputs": [],
      "stateMutability": "nonpayable",
      "type": "function"
    },
    {
      "inputs": [],
      "name": "renounceOwnership",
      "outputs": [],
      "stateMutability": "nonpayable",
      "type": "function"
    },
    {
      "inputs": [],
      "name": "rollToNextOption",
      "outputs": [],
      "stateMutability": "nonpayable",
      "type": "function"
    },
    {
      "inputs": [
        {
          "internalType": "uint256",
          "name": "",
          "type": "uint256"
        }
      ],
      "name": "roundPricePerShare",
      "outputs": [
        {
          "internalType": "uint256",
          "name": "",
          "type": "uint256"
        }
      ],
      "stateMutability": "view",
      "type": "function"
    },
    {
      "inputs": [
        {
          "internalType": "uint256",
          "name": "newAuctionDuration",
          "type": "uint256"
        }
      ],
      "name": "setAuctionDuration",
      "outputs": [],
      "stateMutability": "nonpayable",
      "type": "function"
    },
    {
      "inputs": [
        {
          "internalType": "uint256",
          "name": "newCap",
          "type": "uint256"
        }
      ],
      "name": "setCap",
      "outputs": [],
      "stateMutability": "nonpayable",
      "type": "function"
    },
    {
      "inputs": [
        {
          "internalType": "address",
          "name": "newFeeRecipient",
          "type": "address"
        }
      ],
      "name": "setFeeRecipient",
      "outputs": [],
      "stateMutability": "nonpayable",
      "type": "function"
    },
    {
      "inputs": [
        {
          "internalType": "uint256",
          "name": "newManagementFee",
          "type": "uint256"
        }
      ],
      "name": "setManagementFee",
      "outputs": [],
      "stateMutability": "nonpayable",
      "type": "function"
    },
    {
      "inputs": [
        {
          "internalType": "address",
          "name": "newKeeper",
          "type": "address"
        }
      ],
      "name": "setNewKeeper",
      "outputs": [],
      "stateMutability": "nonpayable",
      "type": "function"
    },
    {
      "inputs": [
        {
          "internalType": "address",
          "name": "newOptionsPremiumPricer",
          "type": "address"
        }
      ],
      "name": "setOptionsPremiumPricer",
      "outputs": [],
      "stateMutability": "nonpayable",
      "type": "function"
    },
    {
      "inputs": [
        {
          "internalType": "uint256",
          "name": "newPerformanceFee",
          "type": "uint256"
        }
      ],
      "name": "setPerformanceFee",
      "outputs": [],
      "stateMutability": "nonpayable",
      "type": "function"
    },
    {
      "inputs": [
        {
          "internalType": "uint256",
          "name": "newPremiumDiscount",
          "type": "uint256"
        }
      ],
      "name": "setPremiumDiscount",
      "outputs": [],
      "stateMutability": "nonpayable",
      "type": "function"
    },
    {
      "inputs": [
        {
          "internalType": "uint128",
          "name": "strikePrice",
          "type": "uint128"
        }
      ],
      "name": "setStrikePrice",
      "outputs": [],
      "stateMutability": "nonpayable",
      "type": "function"
    },
    {
      "inputs": [
        {
          "internalType": "address",
          "name": "newStrikeSelection",
          "type": "address"
        }
      ],
      "name": "setStrikeSelection",
      "outputs": [],
      "stateMutability": "nonpayable",
      "type": "function"
    },
    {
      "inputs": [
        {
          "internalType": "address",
          "name": "account",
          "type": "address"
        }
      ],
      "name": "shareBalances",
      "outputs": [
        {
          "internalType": "uint256",
          "name": "heldByAccount",
          "type": "uint256"
        },
        {
          "internalType": "uint256",
          "name": "heldByVault",
          "type": "uint256"
        }
      ],
      "stateMutability": "view",
      "type": "function"
    },
    {
      "inputs": [
        {
          "internalType": "address",
          "name": "account",
          "type": "address"
        }
      ],
      "name": "shares",
      "outputs": [
        {
          "internalType": "uint256",
          "name": "",
          "type": "uint256"
        }
      ],
      "stateMutability": "view",
      "type": "function"
    },
    {
      "inputs": [],
      "name": "startAuction",
      "outputs": [],
      "stateMutability": "nonpayable",
      "type": "function"
    },
    {
      "inputs": [],
      "name": "strikeSelection",
      "outputs": [
        {
          "internalType": "address",
          "name": "",
          "type": "address"
        }
      ],
      "stateMutability": "view",
      "type": "function"
    },
    {
      "inputs": [],
      "name": "symbol",
      "outputs": [
        {
          "internalType": "string",
          "name": "",
          "type": "string"
        }
      ],
      "stateMutability": "view",
      "type": "function"
    },
    {
      "inputs": [],
      "name": "totalBalance",
      "outputs": [
        {
          "internalType": "uint256",
          "name": "",
          "type": "uint256"
        }
      ],
      "stateMutability": "view",
      "type": "function"
    },
    {
      "inputs": [],
      "name": "totalPending",
      "outputs": [
        {
          "internalType": "uint256",
          "name": "",
          "type": "uint256"
        }
      ],
      "stateMutability": "view",
      "type": "function"
    },
    {
      "inputs": [],
      "name": "totalSupply",
      "outputs": [
        {
          "internalType": "uint256",
          "name": "",
          "type": "uint256"
        }
      ],
      "stateMutability": "view",
      "type": "function"
    },
    {
      "inputs": [
        {
          "internalType": "address",
          "name": "recipient",
          "type": "address"
        },
        {
          "internalType": "uint256",
          "name": "amount",
          "type": "uint256"
        }
      ],
      "name": "transfer",
      "outputs": [
        {
          "internalType": "bool",
          "name": "",
          "type": "bool"
        }
      ],
      "stateMutability": "nonpayable",
      "type": "function"
    },
    {
      "inputs": [
        {
          "internalType": "address",
          "name": "sender",
          "type": "address"
        },
        {
          "internalType": "address",
          "name": "recipient",
          "type": "address"
        },
        {
          "internalType": "uint256",
          "name": "amount",
          "type": "uint256"
        }
      ],
      "name": "transferFrom",
      "outputs": [
        {
          "internalType": "bool",
          "name": "",
          "type": "bool"
        }
      ],
      "stateMutability": "nonpayable",
      "type": "function"
    },
    {
      "inputs": [
        {
          "internalType": "address",
          "name": "newOwner",
          "type": "address"
        }
      ],
      "name": "transferOwnership",
      "outputs": [],
      "stateMutability": "nonpayable",
      "type": "function"
    },
    {
      "inputs": [],
      "name": "vaultParams",
      "outputs": [
        {
          "internalType": "bool",
          "name": "isPut",
          "type": "bool"
        },
        {
          "internalType": "uint8",
          "name": "decimals",
          "type": "uint8"
        },
        {
          "internalType": "address",
          "name": "asset",
          "type": "address"
        },
        {
          "internalType": "address",
          "name": "underlying",
          "type": "address"
        },
        {
          "internalType": "uint56",
          "name": "minimumSupply",
          "type": "uint56"
        },
        {
          "internalType": "uint104",
          "name": "cap",
          "type": "uint104"
        }
      ],
      "stateMutability": "view",
      "type": "function"
    },
    {
      "inputs": [],
      "name": "vaultState",
      "outputs": [
        {
          "internalType": "uint16",
          "name": "round",
          "type": "uint16"
        },
        {
          "internalType": "uint104",
          "name": "lockedAmount",
          "type": "uint104"
        },
        {
          "internalType": "uint104",
          "name": "lastLockedAmount",
          "type": "uint104"
        },
        {
          "internalType": "uint128",
          "name": "totalPending",
          "type": "uint128"
        },
        {
          "internalType": "uint128",
          "name": "queuedWithdrawShares",
          "type": "uint128"
        }
      ],
      "stateMutability": "view",
      "type": "function"
    },
    {
      "inputs": [
        {
          "internalType": "uint256",
          "name": "",
          "type": "uint256"
        }
      ],
      "name": "whitelistArray",
      "outputs": [
        {
          "internalType": "address",
          "name": "",
          "type": "address"
        }
      ],
      "stateMutability": "view",
      "type": "function"
    },
    {
      "inputs": [
        {
          "internalType": "address",
          "name": "",
          "type": "address"
        }
      ],
      "name": "whitelistMap",
      "outputs": [
        {
          "internalType": "bool",
          "name": "",
          "type": "bool"
        }
      ],
      "stateMutability": "view",
      "type": "function"
    },
    {
      "inputs": [
        {
          "internalType": "uint256",
          "name": "amount",
          "type": "uint256"
        }
      ],
      "name": "withdrawInstantly",
      "outputs": [],
      "stateMutability": "nonpayable",
      "type": "function"
    },
    {
      "inputs": [
        {
          "internalType": "address",
          "name": "",
          "type": "address"
        }
      ],
      "name": "withdrawals",
      "outputs": [
        {
          "internalType": "uint16",
          "name": "round",
          "type": "uint16"
        },
        {
          "internalType": "uint128",
          "name": "shares",
          "type": "uint128"
        }
      ],
      "stateMutability": "view",
      "type": "function"
    }
  ],
  "transactionHash": "0xcb23eee30f57e51843bba3b4b02757b8170c87e9c6a88a54a518b813c4af12cf",
  "args": [
    "0xd0A1E359811322d97991E03f863a0C30C2cF029C",
    "0x7e6edA50d1c833bE936492BF42C1BF376239E9e2",
    "0xb9D17Ab06e27f63d0FD75099d5874a194eE623e2",
    "0xdEE7D0f8CcC0f7AC7e45Af454e5e7ec1552E8e4e",
    "0x8c7C60d766951c5C570bBb7065C993070061b795",
    "0x3D1D40101E185E1fE3aedCF05FE2F5BA0Af1f25D"
  ],
  "solcInputHash": "128877a431f111a1b47d5f60e9961cee",
  "bytecode": "0x6101406040523480156200001257600080fd5b5060405162005f4b38038062005f4b83398101604081905262000035916200024e565b6001600160a01b0386166200007a5760405162461bcd60e51b8152602060048201526006602482015265042beeecae8d60d31b60448201526064015b60405180910390fd5b6001600160a01b038516620000bb5760405162461bcd60e51b8152602060048201526006602482015265215f7573646360d01b604482015260640162000071565b6001600160a01b038416620001055760405162461bcd60e51b815260206004820152600f60248201526e215f6f546f6b656e466163746f727960881b604482015260640162000071565b6001600160a01b038316620001515760405162461bcd60e51b815260206004820152601160248201527010afb3b0b6b6b0a1b7b73a3937b63632b960791b604482015260640162000071565b6001600160a01b038216620001985760405162461bcd60e51b815260206004820152600c60248201526b0857db585c99da5b941bdbdb60a21b604482015260640162000071565b6001600160a01b038116620001f05760405162461bcd60e51b815260206004820152601360248201527f215f676e6f7369734561737941756374696f6e00000000000000000000000000604482015260640162000071565b6001600160601b0319606096871b811660805294861b851660a05292851b84166101205290841b831660c052831b821660e05290911b1661010052620002ce565b80516001600160a01b03811681146200024957600080fd5b919050565b60008060008060008060c0878903121562000267578182fd5b620002728762000231565b9550620002826020880162000231565b9450620002926040880162000231565b9350620002a26060880162000231565b9250620002b26080880162000231565b9150620002c260a0880162000231565b90509295509295509295565b60805160601c60a05160601c60c05160601c60e05160601c6101005160601c6101205160601c615bc06200038b60003960008181610b6f01526129cc01526000818161079c01528181611c0501526135400152600081816106ee01526121e00152600081816104df0152818161139d015281816121b801526144c00152600081816108be01528181611c42015281816129f101528181612c5b0152818161349f0152818161356a01526138d201526000610aaa0152615bc06000f3fe608060405234801561001057600080fd5b50600436106104755760003560e01c80638b10cc7c11610257578063b9f8092b11610146578063e74b981b116100c3578063f656ba5111610087578063f656ba5114610c1d578063f756fa2114610c45578063f80f5dd514610c4d578063f957a06714610c60578063fe56e23214610c7357600080fd5b8063e74b981b14610bd3578063e9e32d2d14610be6578063ea00b1ca14610bf9578063ef78d4fd14610c01578063f2fde38b14610c0a57600080fd5b8063d5f263821161010a578063d5f2638214610b4e578063db006a7514610b57578063db43e86214610b6a578063dd62ed3e14610b91578063e73c63d514610bca57600080fd5b8063b9f8092b14610afa578063ce7c2ac214610b02578063d13f1b3e14610b15578063d164cc1514610b28578063d251fefc14610b3b57600080fd5b8063a2db9d83116101d4578063aced166111610198578063aced166114610a92578063ad5c464814610aa5578063ad7a672f14610acc578063afa6626414610ad4578063b6b55f2514610ae757600080fd5b8063a2db9d8314610a3f578063a457c2d714610a50578063a497e67414610a63578063a6f7f5d614610a76578063a9059cbb14610a7f57600080fd5b806399530b061161021b57806399530b061461091a5780639be43daa146109225780639fcc2d7514610935578063a083ff17146109d4578063a285c9e814610a2a57600080fd5b80638b10cc7c146108e05780638da5cb5b146108f157806395d89b411461090257806396d2a76b1461090a578063990c56101461091257600080fd5b806347786d371161037357806370897b23116102f05780637e108d52116102b45780637e108d521461087457806383536ff31461088757806387153eb11461089057806387788782146108b057806389a30271146108b957600080fd5b806370897b23146107c657806370a08231146107d9578063715018a61461080257806378c8cda71461080a5780637a9262a21461081d57600080fd5b80636719b2ee116103375780636719b2ee1461071057806369b41170146107875780636b64c7691461078f5780636c10f66c146107975780636f31ab34146107be57600080fd5b806347786d37146106b2578063503c70aa146106c557806355489bb2146106ce578063600a2cfb146106e1578063650cce8a146106e957600080fd5b8063313ce567116104015780633f23bb73116103c55780633f23bb731461065f5780633f90916a14610672578063432833a6146106835780634603c0aa1461068c578063469048401461069f57600080fd5b8063313ce567146105da57806332531c3c146105f7578063355274ea1461061a578063395093511461062b5780633ec143d31461063e57600080fd5b80631a92f6c2116104485780631a92f6c2146104da57806323b872dd146105195780632728f3331461052c5780632775d01c146105b257806330630da4146105c757600080fd5b806306fdde031461047a578063095ea7b3146104985780630cbf54c8146104bb57806318160ddd146104d2575b600080fd5b610482610c86565b60405161048f91906153e0565b60405180910390f35b6104ab6104a6366004615110565b610d18565b604051901515815260200161048f565b6104c460de5481565b60405190815260200161048f565b6099546104c4565b6105017f000000000000000000000000000000000000000000000000000000000000000081565b6040516001600160a01b03909116815260200161048f565b6104ab6105273660046150d0565b610d2f565b60cc5460cd5461056d9161ffff8116916001600160681b03620100008304811692600160781b900416906001600160801b0380821691600160801b90041685565b6040805161ffff90961686526001600160681b03948516602087015293909216928401929092526001600160801b03918216606084015216608082015260a00161048f565b6105c56105c0366004615230565b610de0565b005b6105c56105d536600461507c565b610fcc565b60c954610100900460ff1660405160ff909116815260200161048f565b6104ab61060536600461507c565b60d36020526000908152604090205460ff1681565b60cb546001600160681b03166104c4565b6104ab610639366004615110565b611064565b60e25461064c9061ffff1681565b60405161ffff909116815260200161048f565b6104c461066d36600461507c565b6110a0565b60cd546001600160801b03166104c4565b6104c460df5481565b6105c561069a36600461507c565b6110f3565b60d554610501906001600160a01b031681565b6105c56106c0366004615230565b611195565b6104c460e05481565b6105c56106dc366004615209565b611270565b6105c5611331565b6105017f000000000000000000000000000000000000000000000000000000000000000081565b61075661071e36600461507c565b60d06020526000908152604090205461ffff8116906201000081046001600160681b031690600160781b90046001600160801b031683565b6040805161ffff90941684526001600160681b0390921660208401526001600160801b03169082015260600161048f565b6104c4600081565b6105c561148c565b6105017f000000000000000000000000000000000000000000000000000000000000000081565b6105c56114ec565b6105c56107d4366004615230565b611552565b6104c46107e736600461507c565b6001600160a01b031660009081526097602052604090205490565b6105c5611619565b6105c561081836600461507c565b61164f565b61085261082b36600461507c565b60d26020526000908152604090205461ffff8116906201000090046001600160801b031682565b6040805161ffff90931683526001600160801b0390911660208301520161048f565b6105c5610882366004615230565b6118d7565b6104c460db5481565b6104c461089e366004615230565b60d16020526000908152604090205481565b6104c460d95481565b6105017f000000000000000000000000000000000000000000000000000000000000000081565b60cf546001600160a01b0316610501565b6065546001600160a01b0316610501565b610482611b41565b6105c5611b50565b6105c5611baa565b6104c4611cd2565b6105c5610930366004615230565b611d0c565b60c95460ca5460cb546109849260ff808216936101008304909116926001600160a01b036201000090930483169282169166ffffffffffffff600160a01b90910416906001600160681b031686565b60408051961515875260ff90951660208701526001600160a01b03938416948601949094529116606084015266ffffffffffffff1660808301526001600160681b031660a082015260c00161048f565b60ce5460cf546109fe916001600160a01b039081169190811690600160a01b900463ffffffff1683565b604080516001600160a01b03948516815293909216602084015263ffffffff169082015260600161048f565b60cf54600160a01b900463ffffffff166104c4565b60ce546001600160a01b0316610501565b6104ab610a5e366004615110565b611e06565b6105c5610a71366004615230565b611e9f565b6104c460da5481565b6104ab610a8d366004615110565b611f5c565b60d654610501906001600160a01b031681565b6105017f000000000000000000000000000000000000000000000000000000000000000081565b6104c4611f69565b60d754610501906001600160a01b031681565b6105c5610af5366004615230565b612008565b6105c56120c5565b6104c4610b1036600461507c565b61228c565b6105c5610b23366004615230565b6122a9565b6105c5610b3636600461507c565b61236d565b610501610b49366004615230565b6123fc565b6104c460dc5481565b6105c5610b65366004615230565b612426565b6105017f000000000000000000000000000000000000000000000000000000000000000081565b6104c4610b9f366004615098565b6001600160a01b03918216600090815260986020908152604080832093909416825291909152205490565b6104c460dd5481565b6105c5610be136600461507c565b6124c2565b6105c5610bf43660046151ad565b6125b5565b6105c561298d565b6104c460e15481565b6105c5610c1836600461507c565b612ceb565b610c30610c2b36600461507c565b612d86565b6040805192835260208301919091520161048f565b6105c5612e69565b6105c5610c5b36600461507c565b612eed565b60d854610501906001600160a01b031681565b6105c5610c81366004615230565b612f48565b6060609a8054610c9590615960565b80601f0160208091040260200160405190810160405280929190818152602001828054610cc190615960565b8015610d0e5780601f10610ce357610100808354040283529160200191610d0e565b820191906000526020600020905b815481529060010190602001808311610cf157829003601f168201915b5050505050905090565b6000610d25338484613011565b5060015b92915050565b6000610d3c848484613136565b6001600160a01b038416600090815260986020908152604080832033845290915290205482811015610dc65760405162461bcd60e51b815260206004820152602860248201527f45524332303a207472616e7366657220616d6f756e74206578636565647320616044820152676c6c6f77616e636560c01b60648201526084015b60405180910390fd5b610dd38533858403613011565b60019150505b9392505050565b33600090815260d3602052604090205460ff16610e0f5760405162461bcd60e51b8152600401610dbd906154b7565b60026001541415610e325760405162461bcd60e51b8152600401610dbd906154db565b600260015533600090815260d06020526040902060cc5461ffff1682610e845760405162461bcd60e51b815260206004820152600760248201526608585b5bdd5b9d60ca1b6044820152606401610dbd565b815461ffff168114610ec85760405162461bcd60e51b815260206004820152600d60248201526c125b9d985b1a59081c9bdd5b99609a1b6044820152606401610dbd565b81546201000090046001600160681b031683811015610f195760405162461bcd60e51b815260206004820152600d60248201526c115e18d9595908185b5bdd5b9d609a1b6044820152606401610dbd565b610f238185613306565b83546001600160681b0391909116620100000262010000600160781b031990911617835560cd54610f5d906001600160801b031685613306565b60cd80546001600160801b0319166001600160801b0392909216919091179055604080518581526020810184905233917fab2daf3c146ca6416cbccd2a86ed2ba995e171ef6319df14a38aef01403a9c96910160405180910390a2610fc23385613312565b5050600180555050565b6065546001600160a01b03163314610ff65760405162461bcd60e51b8152600401610dbd90615482565b6001600160a01b0381166110425760405162461bcd60e51b815260206004820152601360248201527210b732bba9ba3934b5b2a9b2b632b1ba34b7b760691b6044820152606401610dbd565b60d880546001600160a01b0319166001600160a01b0392909216919091179055565b3360008181526098602090815260408083206001600160a01b03871684529091528120549091610d2591859061109b9086906157c4565b613011565b60c95460009060ff61010090910416816110d66110bc60995490565b6110c4611f69565b60cd546001600160801b03168561332f565b90506110eb6110e48561228c565b8284613375565b949350505050565b6065546001600160a01b0316331461111d5760405162461bcd60e51b8152600401610dbd90615482565b6001600160a01b0381166111735760405162461bcd60e51b815260206004820152601860248201527f216e65774f7074696f6e735072656d69756d50726963657200000000000000006044820152606401610dbd565b60d780546001600160a01b0319166001600160a01b0392909216919091179055565b6065546001600160a01b031633146111bf5760405162461bcd60e51b8152600401610dbd90615482565b600081116111f95760405162461bcd60e51b81526020600482015260076024820152660216e65774361760cc1b6044820152606401610dbd565b611202816133d7565b60cb54604080516001600160681b039092168252602082018390527f5f86edbb9d92228a9edc3f0ebc0f001bda1ea345ac7335e0eeef3504b31d1a1c910160405180910390a160cb80546cffffffffffffffffffffffffff19166001600160681b0392909216919091179055565b6065546001600160a01b0316331461129a5760405162461bcd60e51b8152600401610dbd90615482565b600260015414156112bd5760405162461bcd60e51b8152600401610dbd906154db565b60026001556001600160801b0381166113075760405162461bcd60e51b815260206004820152600c60248201526b21737472696b65507269636560a01b6044820152606401610dbd565b6001600160801b031660dd5560cc5460e2805461ffff191661ffff90921691909117905560018055565b60d6546001600160a01b0316331461135b5760405162461bcd60e51b8152600401610dbd90615413565b6002600154141561137e5760405162461bcd60e51b8152600401610dbd906154db565b600260015560cf546040516358ffbb3d60e01b81526001600160a01b037f0000000000000000000000000000000000000000000000000000000000000000811660048301529091166024820152600090737dDa84D9b2390088EeFF0e27e75a653aDC42BC06906358ffbb3d9060440160206040518083038186803b15801561140557600080fd5b505af4158015611419573d6000803e3d6000fd5b505050506040513d601f19601f8201168201806040525081019061143d9190615195565b60cc5490915061145c906201000090046001600160681b031682613306565b60cc80546001600160681b0392909216620100000262010000600160781b03199092169190911790555060018055565b60d6546001600160a01b031633146114b65760405162461bcd60e51b8152600401610dbd90615413565b600260015414156114d95760405162461bcd60e51b8152600401610dbd906154db565b60026001556114e6613421565b60018055565b33600090815260d3602052604090205460ff1661151b5760405162461bcd60e51b8152600401610dbd906154b7565b6002600154141561153e5760405162461bcd60e51b8152600401610dbd906154db565b60026001819055506114e660006001613666565b6065546001600160a01b0316331461157c5760405162461bcd60e51b8152600401610dbd90615482565b61158a620f424060646158db565b81106115d85760405162461bcd60e51b815260206004820152601760248201527f496e76616c696420706572666f726d616e6365206665650000000000000000006044820152606401610dbd565b60d95460408051918252602082018390527f24867dfb6fcb9970a07be21024956524abe7a1837faa903ff0e99aaa40cf893e910160405180910390a160d955565b6065546001600160a01b031633146116435760405162461bcd60e51b8152600401610dbd90615482565b61164d6000613815565b565b6065546001600160a01b031633146116795760405162461bcd60e51b8152600401610dbd90615482565b6002600154141561169c5760405162461bcd60e51b8152600401610dbd906154db565b600260015560d4546001600160a01b038216600090815260d3602052604090205460ff1661170c5760405162461bcd60e51b815260206004820152601860248201527f57686974656c69737420646f6573206e6f7420657869737400000000000000006044820152606401610dbd565b6001811161175c5760405162461bcd60e51b815260206004820152601960248201527f57686974656c6973742063616e6e6f7420626520656d707479000000000000006044820152606401610dbd565b6001600160a01b038216600090815260d360205260408120805460ff191690555b8181101561188d5760d481815481106117a657634e487b7160e01b600052603260045260246000fd5b6000918252602090912001546001600160a01b038481169116141561187b57805b6117d260018461591d565b8110156118795760d46117e68260016157c4565b8154811061180457634e487b7160e01b600052603260045260246000fd5b60009182526020909120015460d480546001600160a01b03909216918390811061183e57634e487b7160e01b600052603260045260246000fd5b600091825260209091200180546001600160a01b0319166001600160a01b0392909216919091179055806118718161599b565b9150506117c7565b505b806118858161599b565b91505061177d565b5060d48054806118ad57634e487b7160e01b600052603160045260246000fd5b600082815260209020810160001990810180546001600160a01b0319169055019055505060018055565b33600090815260d3602052604090205460ff166119065760405162461bcd60e51b8152600401610dbd906154b7565b600260015414156119295760405162461bcd60e51b8152600401610dbd906154db565b6002600155806119685760405162461bcd60e51b815260206004820152600a602482015269216e756d53686172657360b01b6044820152606401610dbd565b33600090815260d060205260409020546201000090046001600160681b03161515806119b2575033600090815260d06020526040902054600160781b90046001600160801b031615155b156119c3576119c360006001613666565b60cc5433600081815260d260209081526040918290208054835187815261ffff96871693810184905292959194911685149290917f0c53c82ad07e2d592d88ece3b066777dd60f1118e2a081b380efc4358f0d9e2a910160405180910390a281546201000090046001600160801b031660008215611a4c57611a458287613867565b9050611aaf565b8115611a8e5760405162461bcd60e51b81526020600482015260116024820152704578697374696e6720776974686472617760781b6044820152606401610dbd565b5033600090815260d260205260409020805461ffff191661ffff8616179055845b611ab881613873565b33600090815260d26020526040812080546001600160801b03808516620100000262010000600160901b03199092169190911790915560cd54611b0491600160801b9091041688613867565b9050611b0f81613873565b60cd80546001600160801b03808416600160801b029116179055611b34333089613136565b5050600180555050505050565b6060609b8054610c9590615960565b60d6546001600160a01b03163314611b7a5760405162461bcd60e51b8152600401610dbd90615413565b60026001541415611b9d5760405162461bcd60e51b8152600401610dbd906154db565b60026001556114e66138bd565b60d6546001600160a01b03163314611bd45760405162461bcd60e51b8152600401610dbd90615413565b60026001541415611bf75760405162461bcd60e51b8152600401610dbd906154db565b600260015560df54611c2a907f000000000000000000000000000000000000000000000000000000000000000090613a3b565b6040516370a0823160e01b81523060048201526000907f00000000000000000000000000000000000000000000000000000000000000006001600160a01b0316906370a082319060240160206040518083038186803b158015611c8c57600080fd5b505afa158015611ca0573d6000803e3d6000fd5b505050506040513d601f19601f82011682018060405250810190611cc49190615195565b11156114e6576114e66138bd565b6000611d07611ce060995490565b611ce8611f69565b60cd5460c9546001600160801b0390911690610100900460ff1661332f565b905090565b60026001541415611d2f5760405162461bcd60e51b8152600401610dbd906154db565b600260015580611d6e5760405162461bcd60e51b815260206004820152600a602482015269216e756d526f756e647360b01b6044820152606401610dbd565b60cc5461ffff1660005b82811015611dfd576000611d8c82846157c4565b600081815260d1602052604090205490915015611dd95760405162461bcd60e51b815260206004820152600b60248201526a125b9a5d1a585b1a5e995960aa1b6044820152606401610dbd565b600090815260d1602052604090206001905580611df58161599b565b915050611d78565b50506001805550565b3360009081526098602090815260408083206001600160a01b038616845290915281205482811015611e885760405162461bcd60e51b815260206004820152602560248201527f45524332303a2064656372656173656420616c6c6f77616e63652062656c6f77604482015264207a65726f60d81b6064820152608401610dbd565b611e953385858403613011565b5060019392505050565b6065546001600160a01b03163314611ec95760405162461bcd60e51b8152600401610dbd90615482565b61012c811015611f1b5760405162461bcd60e51b815260206004820152601860248201527f496e76616c69642061756374696f6e206475726174696f6e00000000000000006044820152606401610dbd565b60de5460408051918252602082018390527f5acd982e2240ed224a69aa03dab039d3797c108e4b5f288cd7dd6ca181b275f3910160405180910390a160de55565b6000610d25338484613136565b60c9546040516370a0823160e01b8152306004820152600091611d0791620100009091046001600160a01b0316906370a082319060240160206040518083038186803b158015611fb857600080fd5b505afa158015611fcc573d6000803e3d6000fd5b505050506040513d601f19601f82011682018060405250810190611ff09190615195565b60cc546201000090046001600160681b031690613867565b33600090815260d3602052604090205460ff166120375760405162461bcd60e51b8152600401610dbd906154b7565b6002600154141561205a5760405162461bcd60e51b8152600401610dbd906154db565b6002600155806120965760405162461bcd60e51b815260206004820152600760248201526608585b5bdd5b9d60ca1b6044820152606401610dbd565b6120a08133613ab5565b60c9546120be906201000090046001600160a01b0316333084613d47565b5060018055565b60d6546001600160a01b031633146120ef5760405162461bcd60e51b8152600401610dbd90615413565b600260015414156121125760405162461bcd60e51b8152600401610dbd906154db565b6002600181905550600080600061212a60e054613db2565b60e08190559194509250905061213f826133d7565b60cc805462010000600160781b031916620100006001600160681b0385160217905560405182815233906001600160a01b038516907f045c558fdce4714c5816d53820d27420f4cd860892df203fe636384d8d19aa019060200160405180910390a3604051632904c23960e01b81526001600160a01b037f0000000000000000000000000000000000000000000000000000000000000000811660048301527f0000000000000000000000000000000000000000000000000000000000000000811660248301528416604482015260648101839052737dDa84D9b2390088EeFF0e27e75a653aDC42BC0690632904c2399060840160206040518083038186803b15801561224b57600080fd5b505af415801561225f573d6000803e3d6000fd5b505050506040513d601f19601f820116820180604052508101906122839190615195565b50611dfd613421565b600080600061229a84612d86565b90925090506110eb8282613867565b6065546001600160a01b031633146122d35760405162461bcd60e51b8152600401610dbd90615482565b6000811180156122ed57506122ea600a60646158db565b81105b61232c5760405162461bcd60e51b815260206004820152601060248201526f125b9d985b1a5908191a5cd8dbdd5b9d60821b6044820152606401610dbd565b60db5460408051918252602082018390527f4cd657fde404967d63a338fb06c5c98751a9df57dfae6dc333a432faf8a5f656910160405180910390a160db55565b6065546001600160a01b031633146123975760405162461bcd60e51b8152600401610dbd90615482565b6001600160a01b0381166123da5760405162461bcd60e51b815260206004820152600a60248201526910b732bba5b2b2b832b960b11b6044820152606401610dbd565b60d680546001600160a01b0319166001600160a01b0392909216919091179055565b60d4818154811061240c57600080fd5b6000918252602090912001546001600160a01b0316905081565b33600090815260d3602052604090205460ff166124555760405162461bcd60e51b8152600401610dbd906154b7565b600260015414156124785760405162461bcd60e51b8152600401610dbd906154db565b6002600155806124b75760405162461bcd60e51b815260206004820152600a602482015269216e756d53686172657360b01b6044820152606401610dbd565b6120be816000613666565b6065546001600160a01b031633146124ec5760405162461bcd60e51b8152600401610dbd90615482565b6001600160a01b0381166125355760405162461bcd60e51b815260206004820152601060248201526f085b995dd19959549958da5c1a595b9d60821b6044820152606401610dbd565b60d5546001600160a01b03828116911614156125935760405162461bcd60e51b815260206004820152601860248201527f4d757374206265206e657720666565526563697069656e7400000000000000006044820152606401610dbd565b60d580546001600160a01b0319166001600160a01b0392909216919091179055565b600054610100900460ff16806125ce575060005460ff16155b6125ea5760405162461bcd60e51b8152600401610dbd90615434565b600054610100900460ff1615801561260c576000805461ffff19166101011790555b60405163d65e509160e01b8152737dDa84D9b2390088EeFF0e27e75a653aDC42BC069063d65e50919061264c908690869061012c90600590600401615512565b60006040518083038186803b15801561266457600080fd5b505af4158015612678573d6000803e3d6000fd5b5050505061268461410a565b61271061269460a08501856156f2565b8080601f0160208091040260200160405190810160405280939291908181526020018383808284376000920191909152506126d69250505060c08601866156f2565b8080601f01602080910402602001604051908101604052809392919081815260200183838082843760009201919091525061417d92505050565b6127186141fc565b612728610c18602085018561507c565b612738604084016020850161507c565b60d680546001600160a01b0319166001600160a01b039290921691909117905561018083013560e155612772610100840160e0850161507c565b60d780546001600160a01b0319166001600160a01b03929092169190911790556127a46101208401610100850161507c565b60d880546001600160a01b0319166001600160a01b03929092169190911790556127d661014084016101208501615287565b63ffffffff1660db5561014083013560de556127f8606084016040850161507c565b60d580546001600160a01b0319166001600160a01b0392909216919091179055608083013560d95561282d6060840135614263565b60da558160c961283d8282615a1d565b505060cc805461ffff1916600117905560c9546040516370a0823160e01b81523060048201526000916001600160a01b036201000090910416906370a082319060240160206040518083038186803b15801561289857600080fd5b505afa1580156128ac573d6000803e3d6000fd5b505050506040513d601f19601f820116820180604052508101906128d09190615195565b90506128db816133d7565b60cc8054600160781b600160e01b031916600160781b6001600160681b0384160217905560005b6129106101608601866156a3565b90508110156129745761296261292a6101608701876156a3565b8381811061294857634e487b7160e01b600052603260045260246000fd5b905060200201602081019061295d919061507c565b6142ce565b8061296c8161599b565b915050612902565b50508015612988576000805461ff00191690555b505050565b600260015414156129b05760405162461bcd60e51b8152600401610dbd906154db565b600260015560cf546040805160e0810182526001600160a01b037f0000000000000000000000000000000000000000000000000000000000000000811682527f000000000000000000000000000000000000000000000000000000000000000081166020830190815293811682840181815260006060850181815260e25461ffff9081166080880190815260dd5460a0890190815260e15460c08a0190815260d85460d75460db549c51635a90235d60e01b8152918b1660048301528a166024820152604481019b909b528951891660648c01529a51881660848b0152945190961660a4890152905160c4880152935190931660e486015251610104850152935161012484015260c961014484015260cc6101648401529091819081908190737dDa84D9b2390088EeFF0e27e75a653aDC42BC0690635a90235d906101840160806040518083038186803b158015612b0757600080fd5b505af4158015612b1b573d6000803e3d6000fd5b505050506040513d601f19601f82011682018060405250810190612b3f919061513b565b93509350935093507fa217999b1c125c2a996f712c5f26a28addad7167bd8a67d5bd5b2a751148abb08282604051612b81929190918252602082015260400190565b60405180910390a1612b92836133d7565b6001600160681b03831660dc5560ce80546001600160a01b0319166001600160a01b0386161790556000612bc64282613867565b905063ffffffff811115612c1c5760405162461bcd60e51b815260206004820152601860248201527f4f766572666c6f77206e6578744f7074696f6e526561647900000000000000006044820152606401610dbd565b60cf805463ffffffff60a01b1916600160a01b63ffffffff841602179055612c4387614432565b6040516370a0823160e01b81523060048201526000907f00000000000000000000000000000000000000000000000000000000000000006001600160a01b0316906370a082319060240160206040518083038186803b158015612ca557600080fd5b505afa158015612cb9573d6000803e3d6000fd5b505050506040513d601f19601f82011682018060405250810190612cdd9190615195565b1115611b3457611b346138bd565b6065546001600160a01b03163314612d155760405162461bcd60e51b8152600401610dbd90615482565b6001600160a01b038116612d7a5760405162461bcd60e51b815260206004820152602660248201527f4f776e61626c653a206e6577206f776e657220697320746865207a65726f206160448201526564647265737360d01b6064820152608401610dbd565b612d8381613815565b50565b6001600160a01b038116600090815260d0602090815260408083208151606081018352905461ffff81168083526201000082046001600160681b031694830194909452600160781b90046001600160801b031691810191909152829160011115612e08575050506001600160a01b031660009081526097602052604081205491565b60cc54815161ffff908116600090815260d1602052604081205460c9549193612e3e93869391169190610100900460ff1661459e565b9050612e5f856001600160a01b031660009081526097602052604090205490565b9590945092505050565b33600090815260d3602052604090205460ff16612e985760405162461bcd60e51b8152600401610dbd906154b7565b60026001541415612ebb5760405162461bcd60e51b8152600401610dbd906154db565b60026001556000612eca61460f565b60e054909150612eda9082613306565b6001600160801b031660e0555060018055565b6065546001600160a01b03163314612f175760405162461bcd60e51b8152600401610dbd90615482565b60026001541415612f3a5760405162461bcd60e51b8152600401610dbd906154db565b60026001556120be816142ce565b6065546001600160a01b03163314612f725760405162461bcd60e51b8152600401610dbd90615482565b612f80620f424060646158db565b8110612fc75760405162461bcd60e51b8152602060048201526016602482015275496e76616c6964206d616e6167656d656e742066656560501b6044820152606401610dbd565b612fd081614263565b60da81905560408051918252602082018390527f4e874b007ab14f7e263baefd44951834c8266f4f224d1092e49e9c254354cc54910160405180910390a150565b6001600160a01b0383166130735760405162461bcd60e51b8152602060048201526024808201527f45524332303a20617070726f76652066726f6d20746865207a65726f206164646044820152637265737360e01b6064820152608401610dbd565b6001600160a01b0382166130d45760405162461bcd60e51b815260206004820152602260248201527f45524332303a20617070726f766520746f20746865207a65726f206164647265604482015261737360f01b6064820152608401610dbd565b6001600160a01b0383811660008181526098602090815260408083209487168084529482529182902085905590518481527f8c5be1e5ebec7d5bd14f71427d1e84f3dd0314c0f7b2291e5b200ac8c7c3b92591015b60405180910390a3505050565b6001600160a01b03831661319a5760405162461bcd60e51b815260206004820152602560248201527f45524332303a207472616e736665722066726f6d20746865207a65726f206164604482015264647265737360d81b6064820152608401610dbd565b6001600160a01b0382166131fc5760405162461bcd60e51b815260206004820152602360248201527f45524332303a207472616e7366657220746f20746865207a65726f206164647260448201526265737360e81b6064820152608401610dbd565b6001600160a01b038316600090815260976020526040902054818110156132745760405162461bcd60e51b815260206004820152602660248201527f45524332303a207472616e7366657220616d6f756e7420657863656564732062604482015265616c616e636560d01b6064820152608401610dbd565b6001600160a01b038085166000908152609760205260408082208585039055918516815290812080548492906132ab9084906157c4565b92505081905550826001600160a01b0316846001600160a01b03167fddf252ad1be2c89b69c2b068fc378daa952ba7f163c4a11628f55a4df523b3ef846040516132f791815260200190565b60405180910390a35b50505050565b6000610dd9828461591d565b60c9546201000090046001600160a01b03166129888184846147cc565b60008061333d83600a615833565b90506000861161334d578061336b565b61336b8661336561335e8888613306565b84906147fc565b90614808565b9695505050505050565b6000600183116133bf5760405162461bcd60e51b8152602060048201526015602482015274496e76616c6964206173736574506572536861726560581b6044820152606401610dbd565b6110eb6133cd83600a615833565b61336586866147fc565b6001600160681b03811115612d835760405162461bcd60e51b815260206004820152601060248201526f13dd995c999b1bddc81d5a5b9d0c4c0d60821b6044820152606401610dbd565b6040805160c081018252600080825260208201819052918101829052606081018290526080810182905260a081019190915260dc548061349b5760405162461bcd60e51b81526020600482015260156024820152742163757272656e744f746f6b656e5072656d69756d60581b6044820152606401610dbd565b60007f00000000000000000000000000000000000000000000000000000000000000006001600160a01b031663313ce5676040518163ffffffff1660e01b815260040160206040518083038186803b1580156134f657600080fd5b505afa15801561350a573d6000803e3d6000fd5b505050506040513d601f19601f8201168201806040525081019061352e91906152a1565b60cf546001600160a01b0390811685527f00000000000000000000000000000000000000000000000000000000000000008116602086019081527f00000000000000000000000000000000000000000000000000000000000000008216604080880191825260ff94909416606088018181526080890188815260de5460a08b019081529651633baf17fd60e21b81528a51871660048201529451861660248601529251909416604484015292516064830152516084820152915160a48301529150737dDa84D9b2390088EeFF0e27e75a653aDC42BC069063eebc5ff49060c40160206040518083038186803b15801561362657600080fd5b505af415801561363a573d6000803e3d6000fd5b505050506040513d601f19601f8201168201806040525081019061365e9190615195565b60df55505050565b33600090815260d0602090815260408083208151606081018352905461ffff8082168084526201000083046001600160681b031684870152600160781b9092046001600160801b03168385015260cc5491865260d19094529184205460c954919492909316926136e19185918591610100900460ff1661459e565b9050836136ee57846136f0565b805b9450846136fe575050505050565b808511156137425760405162461bcd60e51b81526020600482015260116024820152704578636565647320617661696c61626c6560781b6044820152606401610dbd565b825161ffff1682111561376f5733600090815260d060205260409020805462010000600160781b03191690555b61377885613873565b6137828186613306565b33600081815260d060205260409081902080546001600160801b0394909416600160781b02600160781b600160f81b0319909416939093179092558451915190917fe5b754fb1abb7f01b499791d0b820ae3b6af3424ac1c59768edb53f4ec31a929916137fb9189825261ffff16602082015260400190565b60405180910390a261380e303387613136565b5050505050565b606580546001600160a01b038381166001600160a01b0319831681179093556040519116919082907f8be0079c531659141344cd1fd0a4f28419497f9722a3daafe3b4186f6b6457e090600090a35050565b6000610dd982846157c4565b6001600160801b03811115612d835760405162461bcd60e51b815260206004820152601060248201526f09eeccae4ccd8deee40ead2dce86264760831b6044820152606401610dbd565b6040516370a0823160e01b81523060048201527f0000000000000000000000000000000000000000000000000000000000000000906000906001600160a01b038316906370a082319060240160206040518083038186803b15801561392157600080fd5b505afa158015613935573d6000803e3d6000fd5b505050506040513d601f19601f820116820180604052508101906139599190615195565b9050600081116139ab5760405162461bcd60e51b815260206004820152601860248201527f6e6f207072656d69756d20746f206469737472696275746500000000000000006044820152606401610dbd565b6139b58282614814565b6040516370a0823160e01b8152306004820152613a379083906001600160a01b038216906370a082319060240160206040518083038186803b1580156139fa57600080fd5b505afa158015613a0e573d6000803e3d6000fd5b505050506040513d601f19601f82011682018060405250810190613a329190615195565b6148ba565b5050565b604051632e99361160e01b8152600481018290526001600160a01b03831690632e99361190602401602060405180830381600087803b158015613a7d57600080fd5b505af1158015613a91573d6000803e3d6000fd5b505050506040513d601f19601f820116820180604052508101906129889190615195565b60cc5461ffff166000613ad084613aca611f69565b90613867565b60cb549091506001600160681b0316811115613b1b5760405162461bcd60e51b815260206004820152600a6024820152690457863656564206361760b41b6044820152606401610dbd565b60ca54600160a01b900466ffffffffffffff16811015613b745760405162461bcd60e51b8152602060048201526014602482015273496e73756666696369656e742062616c616e636560601b6044820152606401610dbd565b60408051858152602081018490526001600160a01b038516917f90890809c654f11d6e72a28fa60149770a0d11ec6c92319d6ceb2bb0a4ea1a15910160405180910390a26001600160a01b038316600090815260d0602090815260408083208151606081018352905461ffff81168083526201000082046001600160681b031683860152600160781b9091046001600160801b031682840152845260d190925282205460c954919291613c33918491879190610100900460ff1661459e565b8251909150869061ffff16851415613c64576020830151600090613c60906001600160681b031689613867565b9150505b613c6d816133d7565b6040805160608101825261ffff80881682526001600160681b0380851660208085019182526001600160801b038089168688019081526001600160a01b038e16600090815260d090935296822095518654935197518216600160781b02600160781b600160f81b03199890951662010000026effffffffffffffffffffffffffffff1990941695169490941791909117949094161790915560cd54613d13911689613867565b9050613d1e81613873565b60cd80546001600160801b0319166001600160801b039290921691909117905550505050505050565b6040516001600160a01b03808516602483015283166044820152606481018290526133009085906323b872dd60e01b906084015b60408051601f198184030181529190526020810180516001600160e01b03166001600160e01b031990931692909217909152614984565b60cf5460009081908190600160a01b900463ffffffff16421015613e015760405162461bcd60e51b815260206004820152600660248201526521726561647960d01b6044820152606401610dbd565b60ce546001600160a01b0316925082613e4a5760405162461bcd60e51b815260206004820152600b60248201526a10b732bc3a27b83a34b7b760a91b6044820152606401610dbd565b60cc805460d5546040805160a08101825260c954610100810460ff16825291516370a0823160e01b815230600482015261ffff909416946001600160a01b039384169460009485948594737dDa84D9b2390088EeFF0e27e75a653aDC42BC069463686fb2f2949093919260208401926201000090910416906370a082319060240160206040518083038186803b158015613ee357600080fd5b505afa158015613ef7573d6000803e3d6000fd5b505050506040513d601f19601f82011682018060405250810190613f1b9190615195565b8152602001613f2960995490565b81526020018d81526020018960011415613f44576000613f48565b60da545b9052604080516001600160e01b031960e086901b168152600481019390935281516024840152602082015160448401528101516064830152606081015160848301526080015160a482015260c40160a06040518083038186803b158015613fae57600080fd5b505af4158015613fc2573d6000803e3d6000fd5b505050506040513d601f19601f82011682018060405250810190613fe69190615248565b809650819750829550839a50849b5050505050508760ce60010160006101000a8154816001600160a01b0302191690836001600160a01b03160217905550600060ce60000160006101000a8154816001600160a01b0302191690836001600160a01b031602179055508060d1600087815260200190815260200160002081905550836001600160a01b03167fd42b93f751df91c40b94860a26f5e43b9fc78089c1e3df5d4602eee07009e5c683876040516140ab929190918252602082015260400190565b60405180910390a260cd80546001600160801b03191690556140ce8560016157c4565b60cc805461ffff191661ffff92909216919091179055506140ef3083614a56565b80156140ff576140ff8382613312565b505050509193909250565b600054610100900460ff1680614123575060005460ff16155b61413f5760405162461bcd60e51b8152600401610dbd90615434565b600054610100900460ff16158015614161576000805461ffff19166101011790555b614169614b35565b8015612d83576000805461ff001916905550565b600054610100900460ff1680614196575060005460ff16155b6141b25760405162461bcd60e51b8152600401610dbd90615434565b600054610100900460ff161580156141d4576000805461ffff19166101011790555b6141dc614ba4565b6141e68383614c0e565b8015612988576000805461ff0019169055505050565b600054610100900460ff1680614215575060005460ff16155b6142315760405162461bcd60e51b8152600401610dbd90615434565b600054610100900460ff16158015614253576000805461ffff19166101011790555b61425b614ba4565b614169614ca3565b60e15460009081614275601e836159b6565b15614298576142856007836157dc565b6142939063031ba3096157dc565b6142bb565b6142a3601e836157dc565b6142ae90600c6157dc565b6142bb90620f42406158db565b90506110eb8161336586620f42406147fc565b6001600160a01b0381166143155760405162461bcd60e51b815260206004820152600e60248201526d15da1a5d195b1a5cdd081b9d5b1b60921b6044820152606401610dbd565b6001600160a01b038116600090815260d3602052604090205460ff16156143745760405162461bcd60e51b815260206004820152601360248201527257686974656c697374206475706c696361746560681b6044820152606401610dbd565b60d4546005906143859060016157c4565b11156143cc5760405162461bcd60e51b815260206004820152601660248201527515da1a5d195b1a5cdd08195e18d95959081b1a5b5a5d60521b6044820152606401610dbd565b6001600160a01b0316600081815260d360205260408120805460ff1916600190811790915560d4805491820181559091527f9780e26d96b1f2a9a18ef8fc72d589dbf03ef788137b64f43897e83a91e7feec0180546001600160a01b0319169091179055565b60cc546201000090046001600160681b03166001600160a01b038216156144785760cc8054600160781b600160e01b031916600160781b6001600160681b038416021790555b60cc805462010000600160781b031916905560cf80546001600160a01b03191690556001600160a01b03821615613a3757604051636c6fe87f60e11b81526001600160a01b037f0000000000000000000000000000000000000000000000000000000000000000166004820152600090737dDa84D9b2390088EeFF0e27e75a653aDC42BC069063d8dfd0fe9060240160206040518083038186803b15801561451f57600080fd5b505af4158015614533573d6000803e3d6000fd5b505050506040513d601f19601f820116820180604052508101906145579190615195565b9050336001600160a01b0316836001600160a01b03167f7e830f7c1771deb1bdb35c4a7e6051bbac32b376f7f4e4976b8618b0b11997f78360405161312991815260200190565b835160009061ffff16158015906145b95750845161ffff1684115b156145fb5760006145d886602001516001600160681b03168585614d03565b60408701519091506145f3906001600160801b031682613867565b9150506110eb565b50505050604001516001600160801b031690565b33600090815260d26020526040812080546001600160801b03620100008204169061ffff16816146715760405162461bcd60e51b815260206004820152600d60248201526c139bdd081a5b9a5d1a585d1959609a1b6044820152606401610dbd565b60cc5461ffff1681106146b95760405162461bcd60e51b815260206004820152601060248201526f149bdd5b99081b9bdd0818db1bdcd95960821b6044820152606401610dbd565b33600090815260d260205260409020805462010000600160901b031916905560cd546146f590600160801b90046001600160801b031683613306565b60cd80546001600160801b03928316600160801b029216919091179055600081815260d1602052604081205460c95461473891859160ff61010090910416613375565b604080518281526020810186905291925033917ff279e6a1f5e320cca91135676d9cb6e44ca8a08c0b88342bcdb1144f6511b568910160405180910390a26147803084614d66565b600081116147c25760405162461bcd60e51b815260206004820152600f60248201526e085dda5d1a191c985dd05b5bdd5b9d608a1b6044820152606401610dbd565b6110eb3382613312565b6040516001600160a01b03831660248201526044810182905261298890849063a9059cbb60e01b90606401613d7b565b6000610dd982846158db565b6000610dd982846157dc565b60d5546001600160a01b03166000614841614833620f424060646158db565b60d9546133659086906147fc565b90506148576001600160a01b03851683836147cc565b60cc546001600160a01b038316907f8df5f80a19898219351b3c8e70c8cffe1adc78e2394d21dc2da56a39e5dabfe89083906148999060019061ffff166158fa565b6040805192835261ffff90911660208301520160405180910390a250505050565b60d460006148c760995490565b905060005b825481101561380e576149728382815481106148f857634e487b7160e01b600052603260045260246000fd5b9060005260206000200160009054906101000a90046001600160a01b0316614961846133658861495b89888154811061494157634e487b7160e01b600052603260045260246000fd5b6000918252602090912001546001600160a01b031661228c565b906147fc565b6001600160a01b03881691906147cc565b8061497c8161599b565b9150506148cc565b60006149d9826040518060400160405280602081526020017f5361666545524332303a206c6f772d6c6576656c2063616c6c206661696c6564815250856001600160a01b0316614eb49092919063ffffffff16565b80519091501561298857808060200190518101906149f79190615179565b6129885760405162461bcd60e51b815260206004820152602a60248201527f5361666545524332303a204552433230206f7065726174696f6e20646964206e6044820152691bdd081cdd58d8d9595960b21b6064820152608401610dbd565b6001600160a01b038216614aac5760405162461bcd60e51b815260206004820152601f60248201527f45524332303a206d696e7420746f20746865207a65726f2061646472657373006044820152606401610dbd565b8060996000828254614abe91906157c4565b90915550506001600160a01b03821660009081526097602052604081208054839290614aeb9084906157c4565b90915550506040518181526001600160a01b038316906000907fddf252ad1be2c89b69c2b068fc378daa952ba7f163c4a11628f55a4df523b3ef9060200160405180910390a35050565b600054610100900460ff1680614b4e575060005460ff16155b614b6a5760405162461bcd60e51b8152600401610dbd90615434565b600054610100900460ff16158015614b8c576000805461ffff19166101011790555b600180558015612d83576000805461ff001916905550565b600054610100900460ff1680614bbd575060005460ff16155b614bd95760405162461bcd60e51b8152600401610dbd90615434565b600054610100900460ff16158015614169576000805461ffff19166101011790558015612d83576000805461ff001916905550565b600054610100900460ff1680614c27575060005460ff16155b614c435760405162461bcd60e51b8152600401610dbd90615434565b600054610100900460ff16158015614c65576000805461ffff19166101011790555b8251614c7890609a906020860190614fbf565b508151614c8c90609b906020850190614fbf565b508015612988576000805461ff0019169055505050565b600054610100900460ff1680614cbc575060005460ff16155b614cd85760405162461bcd60e51b8152600401610dbd90615434565b600054610100900460ff16158015614cfa576000805461ffff19166101011790555b61416933613815565b600060018311614d4d5760405162461bcd60e51b8152602060048201526015602482015274496e76616c6964206173736574506572536861726560581b6044820152606401610dbd565b6110eb83613365614d5f85600a615833565b87906147fc565b6001600160a01b038216614dc65760405162461bcd60e51b815260206004820152602160248201527f45524332303a206275726e2066726f6d20746865207a65726f206164647265736044820152607360f81b6064820152608401610dbd565b6001600160a01b03821660009081526097602052604090205481811015614e3a5760405162461bcd60e51b815260206004820152602260248201527f45524332303a206275726e20616d6f756e7420657863656564732062616c616e604482015261636560f01b6064820152608401610dbd565b6001600160a01b0383166000908152609760205260408120838303905560998054849290614e6990849061591d565b90915550506040518281526000906001600160a01b038516907fddf252ad1be2c89b69c2b068fc378daa952ba7f163c4a11628f55a4df523b3ef9060200160405180910390a3505050565b60606110eb848460008585843b614f0d5760405162461bcd60e51b815260206004820152601d60248201527f416464726573733a2063616c6c20746f206e6f6e2d636f6e74726163740000006044820152606401610dbd565b600080866001600160a01b03168587604051614f2991906153c4565b60006040518083038185875af1925050503d8060008114614f66576040519150601f19603f3d011682016040523d82523d6000602084013e614f6b565b606091505b5091509150614f7b828286614f86565b979650505050505050565b60608315614f95575081610dd9565b825115614fa55782518084602001fd5b8160405162461bcd60e51b8152600401610dbd91906153e0565b828054614fcb90615960565b90600052602060002090601f016020900481019282614fed5760008555615033565b82601f1061500657805160ff1916838001178555615033565b82800160010185558215615033579182015b82811115615033578251825591602001919060010190615018565b5061503f929150615043565b5090565b5b8082111561503f5760008155600101615044565b803561506381615b2e565b919050565b803563ffffffff8116811461506357600080fd5b60006020828403121561508d578081fd5b8135610dd981615b2e565b600080604083850312156150aa578081fd5b82356150b581615b2e565b915060208301356150c581615b2e565b809150509250929050565b6000806000606084860312156150e4578081fd5b83356150ef81615b2e565b925060208401356150ff81615b2e565b929592945050506040919091013590565b60008060408385031215615122578182fd5b823561512d81615b2e565b946020939093013593505050565b60008060008060808587031215615150578081fd5b845161515b81615b2e565b60208601516040870151606090970151919890975090945092505050565b60006020828403121561518a578081fd5b8151610dd981615b43565b6000602082840312156151a6578081fd5b5051919050565b60008082840360e08112156151c0578283fd5b833567ffffffffffffffff8111156151d6578384fd5b84016101a081870312156151e8578384fd5b925060c0601f19820112156151fb578182fd5b506020830190509250929050565b60006020828403121561521a578081fd5b81356001600160801b0381168114610dd9578182fd5b600060208284031215615241578081fd5b5035919050565b600080600080600060a0868803121561525f578283fd5b5050835160208501516040860151606087015160809097015192989197509594509092509050565b600060208284031215615298578081fd5b610dd982615068565b6000602082840312156152b2578081fd5b8151610dd981615b7b565b81835260006020808501945082825b858110156152fa5781356152df81615b2e565b6001600160a01b0316875295820195908201906001016152cc565b509495945050505050565b81835281816020850137506000828201602090810191909152601f909101601f19169091010190565b803561533981615b43565b15158252602081013561534b81615b7b565b60ff166020830152604081013561536181615b2e565b6001600160a01b03908116604084015260608201359061538082615b2e565b166060830152608081013561539481615b66565b66ffffffffffffff16608083015260a08101356153b081615b51565b6001600160681b03811660a0840152505050565b600082516153d6818460208701615934565b9190910192915050565b60208152600082518060208401526153ff816040850160208701615934565b601f01601f19169190910160400192915050565b60208082526007908201526610b5b2b2b832b960c91b604082015260600190565b6020808252602e908201527f496e697469616c697a61626c653a20636f6e747261637420697320616c72656160408201526d191e481a5b9a5d1a585b1a5e995960921b606082015260800190565b6020808252818101527f4f776e61626c653a2063616c6c6572206973206e6f7420746865206f776e6572604082015260600190565b6020808252600a9082015269085dda1a5d195b1a5cdd60b21b604082015260600190565b6020808252601f908201527f5265656e7472616e637947756172643a207265656e7472616e742063616c6c00604082015260600190565b600061012080835261553681840161552989615058565b6001600160a01b03169052565b61554260208801615058565b610140615559818601836001600160a01b03169052565b61556560408a01615058565b915061016061557e818701846001600160a01b03169052565b610180925060608a0135838701526101a060808b0135818801526155a560a08c018c61577f565b826101c08a01526155bb6102c08a018284615305565b925050506155cc60c08c018c61577f565b61011f19808a8503016101e08b01526155e6848385615305565b93506155f460e08f01615058565b6001600160a01b03166102008b015261010092506156138e8401615058565b6001600160a01b0381166102208c01529150615630888f01615068565b63ffffffff81166102408c01529750858e01356102608b0152615655858f018f615737565b98509550808a8503016102808b015250506156718287866152bd565b9550848c01356102a089015285965061568d602089018c61532e565b60e0880199909952505050505092015292915050565b6000808335601e198436030181126156b9578283fd5b83018035915067ffffffffffffffff8211156156d3578283fd5b6020019150600581901b36038213156156eb57600080fd5b9250929050565b6000808335601e19843603018112615708578283fd5b83018035915067ffffffffffffffff821115615722578283fd5b6020019150368190038213156156eb57600080fd5b6000808335601e1984360301811261574d578283fd5b830160208101925035905067ffffffffffffffff81111561576d57600080fd5b8060051b36038313156156eb57600080fd5b6000808335601e19843603018112615795578283fd5b830160208101925035905067ffffffffffffffff8111156157b557600080fd5b8036038313156156eb57600080fd5b600082198211156157d7576157d76159ca565b500190565b6000826157eb576157eb6159e0565b500490565b600181815b8085111561582b578160001904821115615811576158116159ca565b8085161561581e57918102915b93841c93908002906157f5565b509250929050565b6000610dd9838360008261584957506001610d29565b8161585657506000610d29565b816001811461586c576002811461587657615892565b6001915050610d29565b60ff841115615887576158876159ca565b50506001821b610d29565b5060208310610133831016604e8410600b84101617156158b5575081810a610d29565b6158bf83836157f0565b80600019048211156158d3576158d36159ca565b029392505050565b60008160001904831182151516156158f5576158f56159ca565b500290565b600061ffff83811690831681811015615915576159156159ca565b039392505050565b60008282101561592f5761592f6159ca565b500390565b60005b8381101561594f578181015183820152602001615937565b838111156133005750506000910152565b600181811c9082168061597457607f821691505b6020821081141561599557634e487b7160e01b600052602260045260246000fd5b50919050565b60006000198214156159af576159af6159ca565b5060010190565b6000826159c5576159c56159e0565b500690565b634e487b7160e01b600052601160045260246000fd5b634e487b7160e01b600052601260045260246000fd5b60008135610d2981615b2e565b60008135610d2981615b51565b60008135610d2981615b66565b8135615a2881615b43565b815460ff19811691151560ff1691821783556020840135615a4881615b7b565b61ff008160081b169050808361ffff198416171784556040850135615a6c81615b2e565b6001600160b01b0319929092169092179190911760109190911b62010000600160b01b031617815560018101615ac4615aa7606085016159f6565b82546001600160a01b0319166001600160a01b0391909116178255565b615afd615ad360808501615a10565b82805466ffffffffffffff60a01b191660a09290921b66ffffffffffffff60a01b16919091179055565b50613a37615b0d60a08401615a03565b600283016001600160681b0382166001600160681b03198254161781555050565b6001600160a01b0381168114612d8357600080fd5b8015158114612d8357600080fd5b6001600160681b0381168114612d8357600080fd5b66ffffffffffffff81168114612d8357600080fd5b60ff81168114612d8357600080fdfea26469706673582212203097fb4e384f61cb9d9689e33ecda223c90215a5138ecc24414abe517cd702b764736f6c63430008040033",
  "deployedBytecode": "0x608060405234801561001057600080fd5b50600436106104755760003560e01c80638b10cc7c11610257578063b9f8092b11610146578063e74b981b116100c3578063f656ba5111610087578063f656ba5114610c1d578063f756fa2114610c45578063f80f5dd514610c4d578063f957a06714610c60578063fe56e23214610c7357600080fd5b8063e74b981b14610bd3578063e9e32d2d14610be6578063ea00b1ca14610bf9578063ef78d4fd14610c01578063f2fde38b14610c0a57600080fd5b8063d5f263821161010a578063d5f2638214610b4e578063db006a7514610b57578063db43e86214610b6a578063dd62ed3e14610b91578063e73c63d514610bca57600080fd5b8063b9f8092b14610afa578063ce7c2ac214610b02578063d13f1b3e14610b15578063d164cc1514610b28578063d251fefc14610b3b57600080fd5b8063a2db9d83116101d4578063aced166111610198578063aced166114610a92578063ad5c464814610aa5578063ad7a672f14610acc578063afa6626414610ad4578063b6b55f2514610ae757600080fd5b8063a2db9d8314610a3f578063a457c2d714610a50578063a497e67414610a63578063a6f7f5d614610a76578063a9059cbb14610a7f57600080fd5b806399530b061161021b57806399530b061461091a5780639be43daa146109225780639fcc2d7514610935578063a083ff17146109d4578063a285c9e814610a2a57600080fd5b80638b10cc7c146108e05780638da5cb5b146108f157806395d89b411461090257806396d2a76b1461090a578063990c56101461091257600080fd5b806347786d371161037357806370897b23116102f05780637e108d52116102b45780637e108d521461087457806383536ff31461088757806387153eb11461089057806387788782146108b057806389a30271146108b957600080fd5b806370897b23146107c657806370a08231146107d9578063715018a61461080257806378c8cda71461080a5780637a9262a21461081d57600080fd5b80636719b2ee116103375780636719b2ee1461071057806369b41170146107875780636b64c7691461078f5780636c10f66c146107975780636f31ab34146107be57600080fd5b806347786d37146106b2578063503c70aa146106c557806355489bb2146106ce578063600a2cfb146106e1578063650cce8a146106e957600080fd5b8063313ce567116104015780633f23bb73116103c55780633f23bb731461065f5780633f90916a14610672578063432833a6146106835780634603c0aa1461068c578063469048401461069f57600080fd5b8063313ce567146105da57806332531c3c146105f7578063355274ea1461061a578063395093511461062b5780633ec143d31461063e57600080fd5b80631a92f6c2116104485780631a92f6c2146104da57806323b872dd146105195780632728f3331461052c5780632775d01c146105b257806330630da4146105c757600080fd5b806306fdde031461047a578063095ea7b3146104985780630cbf54c8146104bb57806318160ddd146104d2575b600080fd5b610482610c86565b60405161048f91906153e0565b60405180910390f35b6104ab6104a6366004615110565b610d18565b604051901515815260200161048f565b6104c460de5481565b60405190815260200161048f565b6099546104c4565b6105017f000000000000000000000000000000000000000000000000000000000000000081565b6040516001600160a01b03909116815260200161048f565b6104ab6105273660046150d0565b610d2f565b60cc5460cd5461056d9161ffff8116916001600160681b03620100008304811692600160781b900416906001600160801b0380821691600160801b90041685565b6040805161ffff90961686526001600160681b03948516602087015293909216928401929092526001600160801b03918216606084015216608082015260a00161048f565b6105c56105c0366004615230565b610de0565b005b6105c56105d536600461507c565b610fcc565b60c954610100900460ff1660405160ff909116815260200161048f565b6104ab61060536600461507c565b60d36020526000908152604090205460ff1681565b60cb546001600160681b03166104c4565b6104ab610639366004615110565b611064565b60e25461064c9061ffff1681565b60405161ffff909116815260200161048f565b6104c461066d36600461507c565b6110a0565b60cd546001600160801b03166104c4565b6104c460df5481565b6105c561069a36600461507c565b6110f3565b60d554610501906001600160a01b031681565b6105c56106c0366004615230565b611195565b6104c460e05481565b6105c56106dc366004615209565b611270565b6105c5611331565b6105017f000000000000000000000000000000000000000000000000000000000000000081565b61075661071e36600461507c565b60d06020526000908152604090205461ffff8116906201000081046001600160681b031690600160781b90046001600160801b031683565b6040805161ffff90941684526001600160681b0390921660208401526001600160801b03169082015260600161048f565b6104c4600081565b6105c561148c565b6105017f000000000000000000000000000000000000000000000000000000000000000081565b6105c56114ec565b6105c56107d4366004615230565b611552565b6104c46107e736600461507c565b6001600160a01b031660009081526097602052604090205490565b6105c5611619565b6105c561081836600461507c565b61164f565b61085261082b36600461507c565b60d26020526000908152604090205461ffff8116906201000090046001600160801b031682565b6040805161ffff90931683526001600160801b0390911660208301520161048f565b6105c5610882366004615230565b6118d7565b6104c460db5481565b6104c461089e366004615230565b60d16020526000908152604090205481565b6104c460d95481565b6105017f000000000000000000000000000000000000000000000000000000000000000081565b60cf546001600160a01b0316610501565b6065546001600160a01b0316610501565b610482611b41565b6105c5611b50565b6105c5611baa565b6104c4611cd2565b6105c5610930366004615230565b611d0c565b60c95460ca5460cb546109849260ff808216936101008304909116926001600160a01b036201000090930483169282169166ffffffffffffff600160a01b90910416906001600160681b031686565b60408051961515875260ff90951660208701526001600160a01b03938416948601949094529116606084015266ffffffffffffff1660808301526001600160681b031660a082015260c00161048f565b60ce5460cf546109fe916001600160a01b039081169190811690600160a01b900463ffffffff1683565b604080516001600160a01b03948516815293909216602084015263ffffffff169082015260600161048f565b60cf54600160a01b900463ffffffff166104c4565b60ce546001600160a01b0316610501565b6104ab610a5e366004615110565b611e06565b6105c5610a71366004615230565b611e9f565b6104c460da5481565b6104ab610a8d366004615110565b611f5c565b60d654610501906001600160a01b031681565b6105017f000000000000000000000000000000000000000000000000000000000000000081565b6104c4611f69565b60d754610501906001600160a01b031681565b6105c5610af5366004615230565b612008565b6105c56120c5565b6104c4610b1036600461507c565b61228c565b6105c5610b23366004615230565b6122a9565b6105c5610b3636600461507c565b61236d565b610501610b49366004615230565b6123fc565b6104c460dc5481565b6105c5610b65366004615230565b612426565b6105017f000000000000000000000000000000000000000000000000000000000000000081565b6104c4610b9f366004615098565b6001600160a01b03918216600090815260986020908152604080832093909416825291909152205490565b6104c460dd5481565b6105c5610be136600461507c565b6124c2565b6105c5610bf43660046151ad565b6125b5565b6105c561298d565b6104c460e15481565b6105c5610c1836600461507c565b612ceb565b610c30610c2b36600461507c565b612d86565b6040805192835260208301919091520161048f565b6105c5612e69565b6105c5610c5b36600461507c565b612eed565b60d854610501906001600160a01b031681565b6105c5610c81366004615230565b612f48565b6060609a8054610c9590615960565b80601f0160208091040260200160405190810160405280929190818152602001828054610cc190615960565b8015610d0e5780601f10610ce357610100808354040283529160200191610d0e565b820191906000526020600020905b815481529060010190602001808311610cf157829003601f168201915b5050505050905090565b6000610d25338484613011565b5060015b92915050565b6000610d3c848484613136565b6001600160a01b038416600090815260986020908152604080832033845290915290205482811015610dc65760405162461bcd60e51b815260206004820152602860248201527f45524332303a207472616e7366657220616d6f756e74206578636565647320616044820152676c6c6f77616e636560c01b60648201526084015b60405180910390fd5b610dd38533858403613011565b60019150505b9392505050565b33600090815260d3602052604090205460ff16610e0f5760405162461bcd60e51b8152600401610dbd906154b7565b60026001541415610e325760405162461bcd60e51b8152600401610dbd906154db565b600260015533600090815260d06020526040902060cc5461ffff1682610e845760405162461bcd60e51b815260206004820152600760248201526608585b5bdd5b9d60ca1b6044820152606401610dbd565b815461ffff168114610ec85760405162461bcd60e51b815260206004820152600d60248201526c125b9d985b1a59081c9bdd5b99609a1b6044820152606401610dbd565b81546201000090046001600160681b031683811015610f195760405162461bcd60e51b815260206004820152600d60248201526c115e18d9595908185b5bdd5b9d609a1b6044820152606401610dbd565b610f238185613306565b83546001600160681b0391909116620100000262010000600160781b031990911617835560cd54610f5d906001600160801b031685613306565b60cd80546001600160801b0319166001600160801b0392909216919091179055604080518581526020810184905233917fab2daf3c146ca6416cbccd2a86ed2ba995e171ef6319df14a38aef01403a9c96910160405180910390a2610fc23385613312565b5050600180555050565b6065546001600160a01b03163314610ff65760405162461bcd60e51b8152600401610dbd90615482565b6001600160a01b0381166110425760405162461bcd60e51b815260206004820152601360248201527210b732bba9ba3934b5b2a9b2b632b1ba34b7b760691b6044820152606401610dbd565b60d880546001600160a01b0319166001600160a01b0392909216919091179055565b3360008181526098602090815260408083206001600160a01b03871684529091528120549091610d2591859061109b9086906157c4565b613011565b60c95460009060ff61010090910416816110d66110bc60995490565b6110c4611f69565b60cd546001600160801b03168561332f565b90506110eb6110e48561228c565b8284613375565b949350505050565b6065546001600160a01b0316331461111d5760405162461bcd60e51b8152600401610dbd90615482565b6001600160a01b0381166111735760405162461bcd60e51b815260206004820152601860248201527f216e65774f7074696f6e735072656d69756d50726963657200000000000000006044820152606401610dbd565b60d780546001600160a01b0319166001600160a01b0392909216919091179055565b6065546001600160a01b031633146111bf5760405162461bcd60e51b8152600401610dbd90615482565b600081116111f95760405162461bcd60e51b81526020600482015260076024820152660216e65774361760cc1b6044820152606401610dbd565b611202816133d7565b60cb54604080516001600160681b039092168252602082018390527f5f86edbb9d92228a9edc3f0ebc0f001bda1ea345ac7335e0eeef3504b31d1a1c910160405180910390a160cb80546cffffffffffffffffffffffffff19166001600160681b0392909216919091179055565b6065546001600160a01b0316331461129a5760405162461bcd60e51b8152600401610dbd90615482565b600260015414156112bd5760405162461bcd60e51b8152600401610dbd906154db565b60026001556001600160801b0381166113075760405162461bcd60e51b815260206004820152600c60248201526b21737472696b65507269636560a01b6044820152606401610dbd565b6001600160801b031660dd5560cc5460e2805461ffff191661ffff90921691909117905560018055565b60d6546001600160a01b0316331461135b5760405162461bcd60e51b8152600401610dbd90615413565b6002600154141561137e5760405162461bcd60e51b8152600401610dbd906154db565b600260015560cf546040516358ffbb3d60e01b81526001600160a01b037f000000000000000000000000000000000000000000000000000000000000000081166004830152909116602482015260009073__$2add4d7dc049a04eb39d7a027f8b2a511e$__906358ffbb3d9060440160206040518083038186803b15801561140557600080fd5b505af4158015611419573d6000803e3d6000fd5b505050506040513d601f19601f8201168201806040525081019061143d9190615195565b60cc5490915061145c906201000090046001600160681b031682613306565b60cc80546001600160681b0392909216620100000262010000600160781b03199092169190911790555060018055565b60d6546001600160a01b031633146114b65760405162461bcd60e51b8152600401610dbd90615413565b600260015414156114d95760405162461bcd60e51b8152600401610dbd906154db565b60026001556114e6613421565b60018055565b33600090815260d3602052604090205460ff1661151b5760405162461bcd60e51b8152600401610dbd906154b7565b6002600154141561153e5760405162461bcd60e51b8152600401610dbd906154db565b60026001819055506114e660006001613666565b6065546001600160a01b0316331461157c5760405162461bcd60e51b8152600401610dbd90615482565b61158a620f424060646158db565b81106115d85760405162461bcd60e51b815260206004820152601760248201527f496e76616c696420706572666f726d616e6365206665650000000000000000006044820152606401610dbd565b60d95460408051918252602082018390527f24867dfb6fcb9970a07be21024956524abe7a1837faa903ff0e99aaa40cf893e910160405180910390a160d955565b6065546001600160a01b031633146116435760405162461bcd60e51b8152600401610dbd90615482565b61164d6000613815565b565b6065546001600160a01b031633146116795760405162461bcd60e51b8152600401610dbd90615482565b6002600154141561169c5760405162461bcd60e51b8152600401610dbd906154db565b600260015560d4546001600160a01b038216600090815260d3602052604090205460ff1661170c5760405162461bcd60e51b815260206004820152601860248201527f57686974656c69737420646f6573206e6f7420657869737400000000000000006044820152606401610dbd565b6001811161175c5760405162461bcd60e51b815260206004820152601960248201527f57686974656c6973742063616e6e6f7420626520656d707479000000000000006044820152606401610dbd565b6001600160a01b038216600090815260d360205260408120805460ff191690555b8181101561188d5760d481815481106117a657634e487b7160e01b600052603260045260246000fd5b6000918252602090912001546001600160a01b038481169116141561187b57805b6117d260018461591d565b8110156118795760d46117e68260016157c4565b8154811061180457634e487b7160e01b600052603260045260246000fd5b60009182526020909120015460d480546001600160a01b03909216918390811061183e57634e487b7160e01b600052603260045260246000fd5b600091825260209091200180546001600160a01b0319166001600160a01b0392909216919091179055806118718161599b565b9150506117c7565b505b806118858161599b565b91505061177d565b5060d48054806118ad57634e487b7160e01b600052603160045260246000fd5b600082815260209020810160001990810180546001600160a01b0319169055019055505060018055565b33600090815260d3602052604090205460ff166119065760405162461bcd60e51b8152600401610dbd906154b7565b600260015414156119295760405162461bcd60e51b8152600401610dbd906154db565b6002600155806119685760405162461bcd60e51b815260206004820152600a602482015269216e756d53686172657360b01b6044820152606401610dbd565b33600090815260d060205260409020546201000090046001600160681b03161515806119b2575033600090815260d06020526040902054600160781b90046001600160801b031615155b156119c3576119c360006001613666565b60cc5433600081815260d260209081526040918290208054835187815261ffff96871693810184905292959194911685149290917f0c53c82ad07e2d592d88ece3b066777dd60f1118e2a081b380efc4358f0d9e2a910160405180910390a281546201000090046001600160801b031660008215611a4c57611a458287613867565b9050611aaf565b8115611a8e5760405162461bcd60e51b81526020600482015260116024820152704578697374696e6720776974686472617760781b6044820152606401610dbd565b5033600090815260d260205260409020805461ffff191661ffff8616179055845b611ab881613873565b33600090815260d26020526040812080546001600160801b03808516620100000262010000600160901b03199092169190911790915560cd54611b0491600160801b9091041688613867565b9050611b0f81613873565b60cd80546001600160801b03808416600160801b029116179055611b34333089613136565b5050600180555050505050565b6060609b8054610c9590615960565b60d6546001600160a01b03163314611b7a5760405162461bcd60e51b8152600401610dbd90615413565b60026001541415611b9d5760405162461bcd60e51b8152600401610dbd906154db565b60026001556114e66138bd565b60d6546001600160a01b03163314611bd45760405162461bcd60e51b8152600401610dbd90615413565b60026001541415611bf75760405162461bcd60e51b8152600401610dbd906154db565b600260015560df54611c2a907f000000000000000000000000000000000000000000000000000000000000000090613a3b565b6040516370a0823160e01b81523060048201526000907f00000000000000000000000000000000000000000000000000000000000000006001600160a01b0316906370a082319060240160206040518083038186803b158015611c8c57600080fd5b505afa158015611ca0573d6000803e3d6000fd5b505050506040513d601f19601f82011682018060405250810190611cc49190615195565b11156114e6576114e66138bd565b6000611d07611ce060995490565b611ce8611f69565b60cd5460c9546001600160801b0390911690610100900460ff1661332f565b905090565b60026001541415611d2f5760405162461bcd60e51b8152600401610dbd906154db565b600260015580611d6e5760405162461bcd60e51b815260206004820152600a602482015269216e756d526f756e647360b01b6044820152606401610dbd565b60cc5461ffff1660005b82811015611dfd576000611d8c82846157c4565b600081815260d1602052604090205490915015611dd95760405162461bcd60e51b815260206004820152600b60248201526a125b9a5d1a585b1a5e995960aa1b6044820152606401610dbd565b600090815260d1602052604090206001905580611df58161599b565b915050611d78565b50506001805550565b3360009081526098602090815260408083206001600160a01b038616845290915281205482811015611e885760405162461bcd60e51b815260206004820152602560248201527f45524332303a2064656372656173656420616c6c6f77616e63652062656c6f77604482015264207a65726f60d81b6064820152608401610dbd565b611e953385858403613011565b5060019392505050565b6065546001600160a01b03163314611ec95760405162461bcd60e51b8152600401610dbd90615482565b61012c811015611f1b5760405162461bcd60e51b815260206004820152601860248201527f496e76616c69642061756374696f6e206475726174696f6e00000000000000006044820152606401610dbd565b60de5460408051918252602082018390527f5acd982e2240ed224a69aa03dab039d3797c108e4b5f288cd7dd6ca181b275f3910160405180910390a160de55565b6000610d25338484613136565b60c9546040516370a0823160e01b8152306004820152600091611d0791620100009091046001600160a01b0316906370a082319060240160206040518083038186803b158015611fb857600080fd5b505afa158015611fcc573d6000803e3d6000fd5b505050506040513d601f19601f82011682018060405250810190611ff09190615195565b60cc546201000090046001600160681b031690613867565b33600090815260d3602052604090205460ff166120375760405162461bcd60e51b8152600401610dbd906154b7565b6002600154141561205a5760405162461bcd60e51b8152600401610dbd906154db565b6002600155806120965760405162461bcd60e51b815260206004820152600760248201526608585b5bdd5b9d60ca1b6044820152606401610dbd565b6120a08133613ab5565b60c9546120be906201000090046001600160a01b0316333084613d47565b5060018055565b60d6546001600160a01b031633146120ef5760405162461bcd60e51b8152600401610dbd90615413565b600260015414156121125760405162461bcd60e51b8152600401610dbd906154db565b6002600181905550600080600061212a60e054613db2565b60e08190559194509250905061213f826133d7565b60cc805462010000600160781b031916620100006001600160681b0385160217905560405182815233906001600160a01b038516907f045c558fdce4714c5816d53820d27420f4cd860892df203fe636384d8d19aa019060200160405180910390a3604051632904c23960e01b81526001600160a01b037f0000000000000000000000000000000000000000000000000000000000000000811660048301527f000000000000000000000000000000000000000000000000000000000000000081166024830152841660448201526064810183905273__$2add4d7dc049a04eb39d7a027f8b2a511e$__90632904c2399060840160206040518083038186803b15801561224b57600080fd5b505af415801561225f573d6000803e3d6000fd5b505050506040513d601f19601f820116820180604052508101906122839190615195565b50611dfd613421565b600080600061229a84612d86565b90925090506110eb8282613867565b6065546001600160a01b031633146122d35760405162461bcd60e51b8152600401610dbd90615482565b6000811180156122ed57506122ea600a60646158db565b81105b61232c5760405162461bcd60e51b815260206004820152601060248201526f125b9d985b1a5908191a5cd8dbdd5b9d60821b6044820152606401610dbd565b60db5460408051918252602082018390527f4cd657fde404967d63a338fb06c5c98751a9df57dfae6dc333a432faf8a5f656910160405180910390a160db55565b6065546001600160a01b031633146123975760405162461bcd60e51b8152600401610dbd90615482565b6001600160a01b0381166123da5760405162461bcd60e51b815260206004820152600a60248201526910b732bba5b2b2b832b960b11b6044820152606401610dbd565b60d680546001600160a01b0319166001600160a01b0392909216919091179055565b60d4818154811061240c57600080fd5b6000918252602090912001546001600160a01b0316905081565b33600090815260d3602052604090205460ff166124555760405162461bcd60e51b8152600401610dbd906154b7565b600260015414156124785760405162461bcd60e51b8152600401610dbd906154db565b6002600155806124b75760405162461bcd60e51b815260206004820152600a602482015269216e756d53686172657360b01b6044820152606401610dbd565b6120be816000613666565b6065546001600160a01b031633146124ec5760405162461bcd60e51b8152600401610dbd90615482565b6001600160a01b0381166125355760405162461bcd60e51b815260206004820152601060248201526f085b995dd19959549958da5c1a595b9d60821b6044820152606401610dbd565b60d5546001600160a01b03828116911614156125935760405162461bcd60e51b815260206004820152601860248201527f4d757374206265206e657720666565526563697069656e7400000000000000006044820152606401610dbd565b60d580546001600160a01b0319166001600160a01b0392909216919091179055565b600054610100900460ff16806125ce575060005460ff16155b6125ea5760405162461bcd60e51b8152600401610dbd90615434565b600054610100900460ff1615801561260c576000805461ffff19166101011790555b60405163d65e509160e01b815273__$2add4d7dc049a04eb39d7a027f8b2a511e$__9063d65e50919061264c908690869061012c90600590600401615512565b60006040518083038186803b15801561266457600080fd5b505af4158015612678573d6000803e3d6000fd5b5050505061268461410a565b61271061269460a08501856156f2565b8080601f0160208091040260200160405190810160405280939291908181526020018383808284376000920191909152506126d69250505060c08601866156f2565b8080601f01602080910402602001604051908101604052809392919081815260200183838082843760009201919091525061417d92505050565b6127186141fc565b612728610c18602085018561507c565b612738604084016020850161507c565b60d680546001600160a01b0319166001600160a01b039290921691909117905561018083013560e155612772610100840160e0850161507c565b60d780546001600160a01b0319166001600160a01b03929092169190911790556127a46101208401610100850161507c565b60d880546001600160a01b0319166001600160a01b03929092169190911790556127d661014084016101208501615287565b63ffffffff1660db5561014083013560de556127f8606084016040850161507c565b60d580546001600160a01b0319166001600160a01b0392909216919091179055608083013560d95561282d6060840135614263565b60da558160c961283d8282615a1d565b505060cc805461ffff1916600117905560c9546040516370a0823160e01b81523060048201526000916001600160a01b036201000090910416906370a082319060240160206040518083038186803b15801561289857600080fd5b505afa1580156128ac573d6000803e3d6000fd5b505050506040513d601f19601f820116820180604052508101906128d09190615195565b90506128db816133d7565b60cc8054600160781b600160e01b031916600160781b6001600160681b0384160217905560005b6129106101608601866156a3565b90508110156129745761296261292a6101608701876156a3565b8381811061294857634e487b7160e01b600052603260045260246000fd5b905060200201602081019061295d919061507c565b6142ce565b8061296c8161599b565b915050612902565b50508015612988576000805461ff00191690555b505050565b600260015414156129b05760405162461bcd60e51b8152600401610dbd906154db565b600260015560cf546040805160e0810182526001600160a01b037f0000000000000000000000000000000000000000000000000000000000000000811682527f000000000000000000000000000000000000000000000000000000000000000081166020830190815293811682840181815260006060850181815260e25461ffff9081166080880190815260dd5460a0890190815260e15460c08a0190815260d85460d75460db549c51635a90235d60e01b8152918b1660048301528a166024820152604481019b909b528951891660648c01529a51881660848b0152945190961660a4890152905160c4880152935190931660e486015251610104850152935161012484015260c961014484015260cc610164840152909181908190819073__$2add4d7dc049a04eb39d7a027f8b2a511e$__90635a90235d906101840160806040518083038186803b158015612b0757600080fd5b505af4158015612b1b573d6000803e3d6000fd5b505050506040513d601f19601f82011682018060405250810190612b3f919061513b565b93509350935093507fa217999b1c125c2a996f712c5f26a28addad7167bd8a67d5bd5b2a751148abb08282604051612b81929190918252602082015260400190565b60405180910390a1612b92836133d7565b6001600160681b03831660dc5560ce80546001600160a01b0319166001600160a01b0386161790556000612bc64282613867565b905063ffffffff811115612c1c5760405162461bcd60e51b815260206004820152601860248201527f4f766572666c6f77206e6578744f7074696f6e526561647900000000000000006044820152606401610dbd565b60cf805463ffffffff60a01b1916600160a01b63ffffffff841602179055612c4387614432565b6040516370a0823160e01b81523060048201526000907f00000000000000000000000000000000000000000000000000000000000000006001600160a01b0316906370a082319060240160206040518083038186803b158015612ca557600080fd5b505afa158015612cb9573d6000803e3d6000fd5b505050506040513d601f19601f82011682018060405250810190612cdd9190615195565b1115611b3457611b346138bd565b6065546001600160a01b03163314612d155760405162461bcd60e51b8152600401610dbd90615482565b6001600160a01b038116612d7a5760405162461bcd60e51b815260206004820152602660248201527f4f776e61626c653a206e6577206f776e657220697320746865207a65726f206160448201526564647265737360d01b6064820152608401610dbd565b612d8381613815565b50565b6001600160a01b038116600090815260d0602090815260408083208151606081018352905461ffff81168083526201000082046001600160681b031694830194909452600160781b90046001600160801b031691810191909152829160011115612e08575050506001600160a01b031660009081526097602052604081205491565b60cc54815161ffff908116600090815260d1602052604081205460c9549193612e3e93869391169190610100900460ff1661459e565b9050612e5f856001600160a01b031660009081526097602052604090205490565b9590945092505050565b33600090815260d3602052604090205460ff16612e985760405162461bcd60e51b8152600401610dbd906154b7565b60026001541415612ebb5760405162461bcd60e51b8152600401610dbd906154db565b60026001556000612eca61460f565b60e054909150612eda9082613306565b6001600160801b031660e0555060018055565b6065546001600160a01b03163314612f175760405162461bcd60e51b8152600401610dbd90615482565b60026001541415612f3a5760405162461bcd60e51b8152600401610dbd906154db565b60026001556120be816142ce565b6065546001600160a01b03163314612f725760405162461bcd60e51b8152600401610dbd90615482565b612f80620f424060646158db565b8110612fc75760405162461bcd60e51b8152602060048201526016602482015275496e76616c6964206d616e6167656d656e742066656560501b6044820152606401610dbd565b612fd081614263565b60da81905560408051918252602082018390527f4e874b007ab14f7e263baefd44951834c8266f4f224d1092e49e9c254354cc54910160405180910390a150565b6001600160a01b0383166130735760405162461bcd60e51b8152602060048201526024808201527f45524332303a20617070726f76652066726f6d20746865207a65726f206164646044820152637265737360e01b6064820152608401610dbd565b6001600160a01b0382166130d45760405162461bcd60e51b815260206004820152602260248201527f45524332303a20617070726f766520746f20746865207a65726f206164647265604482015261737360f01b6064820152608401610dbd565b6001600160a01b0383811660008181526098602090815260408083209487168084529482529182902085905590518481527f8c5be1e5ebec7d5bd14f71427d1e84f3dd0314c0f7b2291e5b200ac8c7c3b92591015b60405180910390a3505050565b6001600160a01b03831661319a5760405162461bcd60e51b815260206004820152602560248201527f45524332303a207472616e736665722066726f6d20746865207a65726f206164604482015264647265737360d81b6064820152608401610dbd565b6001600160a01b0382166131fc5760405162461bcd60e51b815260206004820152602360248201527f45524332303a207472616e7366657220746f20746865207a65726f206164647260448201526265737360e81b6064820152608401610dbd565b6001600160a01b038316600090815260976020526040902054818110156132745760405162461bcd60e51b815260206004820152602660248201527f45524332303a207472616e7366657220616d6f756e7420657863656564732062604482015265616c616e636560d01b6064820152608401610dbd565b6001600160a01b038085166000908152609760205260408082208585039055918516815290812080548492906132ab9084906157c4565b92505081905550826001600160a01b0316846001600160a01b03167fddf252ad1be2c89b69c2b068fc378daa952ba7f163c4a11628f55a4df523b3ef846040516132f791815260200190565b60405180910390a35b50505050565b6000610dd9828461591d565b60c9546201000090046001600160a01b03166129888184846147cc565b60008061333d83600a615833565b90506000861161334d578061336b565b61336b8661336561335e8888613306565b84906147fc565b90614808565b9695505050505050565b6000600183116133bf5760405162461bcd60e51b8152602060048201526015602482015274496e76616c6964206173736574506572536861726560581b6044820152606401610dbd565b6110eb6133cd83600a615833565b61336586866147fc565b6001600160681b03811115612d835760405162461bcd60e51b815260206004820152601060248201526f13dd995c999b1bddc81d5a5b9d0c4c0d60821b6044820152606401610dbd565b6040805160c081018252600080825260208201819052918101829052606081018290526080810182905260a081019190915260dc548061349b5760405162461bcd60e51b81526020600482015260156024820152742163757272656e744f746f6b656e5072656d69756d60581b6044820152606401610dbd565b60007f00000000000000000000000000000000000000000000000000000000000000006001600160a01b031663313ce5676040518163ffffffff1660e01b815260040160206040518083038186803b1580156134f657600080fd5b505afa15801561350a573d6000803e3d6000fd5b505050506040513d601f19601f8201168201806040525081019061352e91906152a1565b60cf546001600160a01b0390811685527f00000000000000000000000000000000000000000000000000000000000000008116602086019081527f00000000000000000000000000000000000000000000000000000000000000008216604080880191825260ff94909416606088018181526080890188815260de5460a08b019081529651633baf17fd60e21b81528a51871660048201529451861660248601529251909416604484015292516064830152516084820152915160a4830152915073__$2add4d7dc049a04eb39d7a027f8b2a511e$__9063eebc5ff49060c40160206040518083038186803b15801561362657600080fd5b505af415801561363a573d6000803e3d6000fd5b505050506040513d601f19601f8201168201806040525081019061365e9190615195565b60df55505050565b33600090815260d0602090815260408083208151606081018352905461ffff8082168084526201000083046001600160681b031684870152600160781b9092046001600160801b03168385015260cc5491865260d19094529184205460c954919492909316926136e19185918591610100900460ff1661459e565b9050836136ee57846136f0565b805b9450846136fe575050505050565b808511156137425760405162461bcd60e51b81526020600482015260116024820152704578636565647320617661696c61626c6560781b6044820152606401610dbd565b825161ffff1682111561376f5733600090815260d060205260409020805462010000600160781b03191690555b61377885613873565b6137828186613306565b33600081815260d060205260409081902080546001600160801b0394909416600160781b02600160781b600160f81b0319909416939093179092558451915190917fe5b754fb1abb7f01b499791d0b820ae3b6af3424ac1c59768edb53f4ec31a929916137fb9189825261ffff16602082015260400190565b60405180910390a261380e303387613136565b5050505050565b606580546001600160a01b038381166001600160a01b0319831681179093556040519116919082907f8be0079c531659141344cd1fd0a4f28419497f9722a3daafe3b4186f6b6457e090600090a35050565b6000610dd982846157c4565b6001600160801b03811115612d835760405162461bcd60e51b815260206004820152601060248201526f09eeccae4ccd8deee40ead2dce86264760831b6044820152606401610dbd565b6040516370a0823160e01b81523060048201527f0000000000000000000000000000000000000000000000000000000000000000906000906001600160a01b038316906370a082319060240160206040518083038186803b15801561392157600080fd5b505afa158015613935573d6000803e3d6000fd5b505050506040513d601f19601f820116820180604052508101906139599190615195565b9050600081116139ab5760405162461bcd60e51b815260206004820152601860248201527f6e6f207072656d69756d20746f206469737472696275746500000000000000006044820152606401610dbd565b6139b58282614814565b6040516370a0823160e01b8152306004820152613a379083906001600160a01b038216906370a082319060240160206040518083038186803b1580156139fa57600080fd5b505afa158015613a0e573d6000803e3d6000fd5b505050506040513d601f19601f82011682018060405250810190613a329190615195565b6148ba565b5050565b604051632e99361160e01b8152600481018290526001600160a01b03831690632e99361190602401602060405180830381600087803b158015613a7d57600080fd5b505af1158015613a91573d6000803e3d6000fd5b505050506040513d601f19601f820116820180604052508101906129889190615195565b60cc5461ffff166000613ad084613aca611f69565b90613867565b60cb549091506001600160681b0316811115613b1b5760405162461bcd60e51b815260206004820152600a6024820152690457863656564206361760b41b6044820152606401610dbd565b60ca54600160a01b900466ffffffffffffff16811015613b745760405162461bcd60e51b8152602060048201526014602482015273496e73756666696369656e742062616c616e636560601b6044820152606401610dbd565b60408051858152602081018490526001600160a01b038516917f90890809c654f11d6e72a28fa60149770a0d11ec6c92319d6ceb2bb0a4ea1a15910160405180910390a26001600160a01b038316600090815260d0602090815260408083208151606081018352905461ffff81168083526201000082046001600160681b031683860152600160781b9091046001600160801b031682840152845260d190925282205460c954919291613c33918491879190610100900460ff1661459e565b8251909150869061ffff16851415613c64576020830151600090613c60906001600160681b031689613867565b9150505b613c6d816133d7565b6040805160608101825261ffff80881682526001600160681b0380851660208085019182526001600160801b038089168688019081526001600160a01b038e16600090815260d090935296822095518654935197518216600160781b02600160781b600160f81b03199890951662010000026effffffffffffffffffffffffffffff1990941695169490941791909117949094161790915560cd54613d13911689613867565b9050613d1e81613873565b60cd80546001600160801b0319166001600160801b039290921691909117905550505050505050565b6040516001600160a01b03808516602483015283166044820152606481018290526133009085906323b872dd60e01b906084015b60408051601f198184030181529190526020810180516001600160e01b03166001600160e01b031990931692909217909152614984565b60cf5460009081908190600160a01b900463ffffffff16421015613e015760405162461bcd60e51b815260206004820152600660248201526521726561647960d01b6044820152606401610dbd565b60ce546001600160a01b0316925082613e4a5760405162461bcd60e51b815260206004820152600b60248201526a10b732bc3a27b83a34b7b760a91b6044820152606401610dbd565b60cc805460d5546040805160a08101825260c954610100810460ff16825291516370a0823160e01b815230600482015261ffff909416946001600160a01b03938416946000948594859473__$2add4d7dc049a04eb39d7a027f8b2a511e$__9463686fb2f2949093919260208401926201000090910416906370a082319060240160206040518083038186803b158015613ee357600080fd5b505afa158015613ef7573d6000803e3d6000fd5b505050506040513d601f19601f82011682018060405250810190613f1b9190615195565b8152602001613f2960995490565b81526020018d81526020018960011415613f44576000613f48565b60da545b9052604080516001600160e01b031960e086901b168152600481019390935281516024840152602082015160448401528101516064830152606081015160848301526080015160a482015260c40160a06040518083038186803b158015613fae57600080fd5b505af4158015613fc2573d6000803e3d6000fd5b505050506040513d601f19601f82011682018060405250810190613fe69190615248565b809650819750829550839a50849b5050505050508760ce60010160006101000a8154816001600160a01b0302191690836001600160a01b03160217905550600060ce60000160006101000a8154816001600160a01b0302191690836001600160a01b031602179055508060d1600087815260200190815260200160002081905550836001600160a01b03167fd42b93f751df91c40b94860a26f5e43b9fc78089c1e3df5d4602eee07009e5c683876040516140ab929190918252602082015260400190565b60405180910390a260cd80546001600160801b03191690556140ce8560016157c4565b60cc805461ffff191661ffff92909216919091179055506140ef3083614a56565b80156140ff576140ff8382613312565b505050509193909250565b600054610100900460ff1680614123575060005460ff16155b61413f5760405162461bcd60e51b8152600401610dbd90615434565b600054610100900460ff16158015614161576000805461ffff19166101011790555b614169614b35565b8015612d83576000805461ff001916905550565b600054610100900460ff1680614196575060005460ff16155b6141b25760405162461bcd60e51b8152600401610dbd90615434565b600054610100900460ff161580156141d4576000805461ffff19166101011790555b6141dc614ba4565b6141e68383614c0e565b8015612988576000805461ff0019169055505050565b600054610100900460ff1680614215575060005460ff16155b6142315760405162461bcd60e51b8152600401610dbd90615434565b600054610100900460ff16158015614253576000805461ffff19166101011790555b61425b614ba4565b614169614ca3565b60e15460009081614275601e836159b6565b15614298576142856007836157dc565b6142939063031ba3096157dc565b6142bb565b6142a3601e836157dc565b6142ae90600c6157dc565b6142bb90620f42406158db565b90506110eb8161336586620f42406147fc565b6001600160a01b0381166143155760405162461bcd60e51b815260206004820152600e60248201526d15da1a5d195b1a5cdd081b9d5b1b60921b6044820152606401610dbd565b6001600160a01b038116600090815260d3602052604090205460ff16156143745760405162461bcd60e51b815260206004820152601360248201527257686974656c697374206475706c696361746560681b6044820152606401610dbd565b60d4546005906143859060016157c4565b11156143cc5760405162461bcd60e51b815260206004820152601660248201527515da1a5d195b1a5cdd08195e18d95959081b1a5b5a5d60521b6044820152606401610dbd565b6001600160a01b0316600081815260d360205260408120805460ff1916600190811790915560d4805491820181559091527f9780e26d96b1f2a9a18ef8fc72d589dbf03ef788137b64f43897e83a91e7feec0180546001600160a01b0319169091179055565b60cc546201000090046001600160681b03166001600160a01b038216156144785760cc8054600160781b600160e01b031916600160781b6001600160681b038416021790555b60cc805462010000600160781b031916905560cf80546001600160a01b03191690556001600160a01b03821615613a3757604051636c6fe87f60e11b81526001600160a01b037f000000000000000000000000000000000000000000000000000000000000000016600482015260009073__$2add4d7dc049a04eb39d7a027f8b2a511e$__9063d8dfd0fe9060240160206040518083038186803b15801561451f57600080fd5b505af4158015614533573d6000803e3d6000fd5b505050506040513d601f19601f820116820180604052508101906145579190615195565b9050336001600160a01b0316836001600160a01b03167f7e830f7c1771deb1bdb35c4a7e6051bbac32b376f7f4e4976b8618b0b11997f78360405161312991815260200190565b835160009061ffff16158015906145b95750845161ffff1684115b156145fb5760006145d886602001516001600160681b03168585614d03565b60408701519091506145f3906001600160801b031682613867565b9150506110eb565b50505050604001516001600160801b031690565b33600090815260d26020526040812080546001600160801b03620100008204169061ffff16816146715760405162461bcd60e51b815260206004820152600d60248201526c139bdd081a5b9a5d1a585d1959609a1b6044820152606401610dbd565b60cc5461ffff1681106146b95760405162461bcd60e51b815260206004820152601060248201526f149bdd5b99081b9bdd0818db1bdcd95960821b6044820152606401610dbd565b33600090815260d260205260409020805462010000600160901b031916905560cd546146f590600160801b90046001600160801b031683613306565b60cd80546001600160801b03928316600160801b029216919091179055600081815260d1602052604081205460c95461473891859160ff61010090910416613375565b604080518281526020810186905291925033917ff279e6a1f5e320cca91135676d9cb6e44ca8a08c0b88342bcdb1144f6511b568910160405180910390a26147803084614d66565b600081116147c25760405162461bcd60e51b815260206004820152600f60248201526e085dda5d1a191c985dd05b5bdd5b9d608a1b6044820152606401610dbd565b6110eb3382613312565b6040516001600160a01b03831660248201526044810182905261298890849063a9059cbb60e01b90606401613d7b565b6000610dd982846158db565b6000610dd982846157dc565b60d5546001600160a01b03166000614841614833620f424060646158db565b60d9546133659086906147fc565b90506148576001600160a01b03851683836147cc565b60cc546001600160a01b038316907f8df5f80a19898219351b3c8e70c8cffe1adc78e2394d21dc2da56a39e5dabfe89083906148999060019061ffff166158fa565b6040805192835261ffff90911660208301520160405180910390a250505050565b60d460006148c760995490565b905060005b825481101561380e576149728382815481106148f857634e487b7160e01b600052603260045260246000fd5b9060005260206000200160009054906101000a90046001600160a01b0316614961846133658861495b89888154811061494157634e487b7160e01b600052603260045260246000fd5b6000918252602090912001546001600160a01b031661228c565b906147fc565b6001600160a01b03881691906147cc565b8061497c8161599b565b9150506148cc565b60006149d9826040518060400160405280602081526020017f5361666545524332303a206c6f772d6c6576656c2063616c6c206661696c6564815250856001600160a01b0316614eb49092919063ffffffff16565b80519091501561298857808060200190518101906149f79190615179565b6129885760405162461bcd60e51b815260206004820152602a60248201527f5361666545524332303a204552433230206f7065726174696f6e20646964206e6044820152691bdd081cdd58d8d9595960b21b6064820152608401610dbd565b6001600160a01b038216614aac5760405162461bcd60e51b815260206004820152601f60248201527f45524332303a206d696e7420746f20746865207a65726f2061646472657373006044820152606401610dbd565b8060996000828254614abe91906157c4565b90915550506001600160a01b03821660009081526097602052604081208054839290614aeb9084906157c4565b90915550506040518181526001600160a01b038316906000907fddf252ad1be2c89b69c2b068fc378daa952ba7f163c4a11628f55a4df523b3ef9060200160405180910390a35050565b600054610100900460ff1680614b4e575060005460ff16155b614b6a5760405162461bcd60e51b8152600401610dbd90615434565b600054610100900460ff16158015614b8c576000805461ffff19166101011790555b600180558015612d83576000805461ff001916905550565b600054610100900460ff1680614bbd575060005460ff16155b614bd95760405162461bcd60e51b8152600401610dbd90615434565b600054610100900460ff16158015614169576000805461ffff19166101011790558015612d83576000805461ff001916905550565b600054610100900460ff1680614c27575060005460ff16155b614c435760405162461bcd60e51b8152600401610dbd90615434565b600054610100900460ff16158015614c65576000805461ffff19166101011790555b8251614c7890609a906020860190614fbf565b508151614c8c90609b906020850190614fbf565b508015612988576000805461ff0019169055505050565b600054610100900460ff1680614cbc575060005460ff16155b614cd85760405162461bcd60e51b8152600401610dbd90615434565b600054610100900460ff16158015614cfa576000805461ffff19166101011790555b61416933613815565b600060018311614d4d5760405162461bcd60e51b8152602060048201526015602482015274496e76616c6964206173736574506572536861726560581b6044820152606401610dbd565b6110eb83613365614d5f85600a615833565b87906147fc565b6001600160a01b038216614dc65760405162461bcd60e51b815260206004820152602160248201527f45524332303a206275726e2066726f6d20746865207a65726f206164647265736044820152607360f81b6064820152608401610dbd565b6001600160a01b03821660009081526097602052604090205481811015614e3a5760405162461bcd60e51b815260206004820152602260248201527f45524332303a206275726e20616d6f756e7420657863656564732062616c616e604482015261636560f01b6064820152608401610dbd565b6001600160a01b0383166000908152609760205260408120838303905560998054849290614e6990849061591d565b90915550506040518281526000906001600160a01b038516907fddf252ad1be2c89b69c2b068fc378daa952ba7f163c4a11628f55a4df523b3ef9060200160405180910390a3505050565b60606110eb848460008585843b614f0d5760405162461bcd60e51b815260206004820152601d60248201527f416464726573733a2063616c6c20746f206e6f6e2d636f6e74726163740000006044820152606401610dbd565b600080866001600160a01b03168587604051614f2991906153c4565b60006040518083038185875af1925050503d8060008114614f66576040519150601f19603f3d011682016040523d82523d6000602084013e614f6b565b606091505b5091509150614f7b828286614f86565b979650505050505050565b60608315614f95575081610dd9565b825115614fa55782518084602001fd5b8160405162461bcd60e51b8152600401610dbd91906153e0565b828054614fcb90615960565b90600052602060002090601f016020900481019282614fed5760008555615033565b82601f1061500657805160ff1916838001178555615033565b82800160010185558215615033579182015b82811115615033578251825591602001919060010190615018565b5061503f929150615043565b5090565b5b8082111561503f5760008155600101615044565b803561506381615b2e565b919050565b803563ffffffff8116811461506357600080fd5b60006020828403121561508d578081fd5b8135610dd981615b2e565b600080604083850312156150aa578081fd5b82356150b581615b2e565b915060208301356150c581615b2e565b809150509250929050565b6000806000606084860312156150e4578081fd5b83356150ef81615b2e565b925060208401356150ff81615b2e565b929592945050506040919091013590565b60008060408385031215615122578182fd5b823561512d81615b2e565b946020939093013593505050565b60008060008060808587031215615150578081fd5b845161515b81615b2e565b60208601516040870151606090970151919890975090945092505050565b60006020828403121561518a578081fd5b8151610dd981615b43565b6000602082840312156151a6578081fd5b5051919050565b60008082840360e08112156151c0578283fd5b833567ffffffffffffffff8111156151d6578384fd5b84016101a081870312156151e8578384fd5b925060c0601f19820112156151fb578182fd5b506020830190509250929050565b60006020828403121561521a578081fd5b81356001600160801b0381168114610dd9578182fd5b600060208284031215615241578081fd5b5035919050565b600080600080600060a0868803121561525f578283fd5b5050835160208501516040860151606087015160809097015192989197509594509092509050565b600060208284031215615298578081fd5b610dd982615068565b6000602082840312156152b2578081fd5b8151610dd981615b7b565b81835260006020808501945082825b858110156152fa5781356152df81615b2e565b6001600160a01b0316875295820195908201906001016152cc565b509495945050505050565b81835281816020850137506000828201602090810191909152601f909101601f19169091010190565b803561533981615b43565b15158252602081013561534b81615b7b565b60ff166020830152604081013561536181615b2e565b6001600160a01b03908116604084015260608201359061538082615b2e565b166060830152608081013561539481615b66565b66ffffffffffffff16608083015260a08101356153b081615b51565b6001600160681b03811660a0840152505050565b600082516153d6818460208701615934565b9190910192915050565b60208152600082518060208401526153ff816040850160208701615934565b601f01601f19169190910160400192915050565b60208082526007908201526610b5b2b2b832b960c91b604082015260600190565b6020808252602e908201527f496e697469616c697a61626c653a20636f6e747261637420697320616c72656160408201526d191e481a5b9a5d1a585b1a5e995960921b606082015260800190565b6020808252818101527f4f776e61626c653a2063616c6c6572206973206e6f7420746865206f776e6572604082015260600190565b6020808252600a9082015269085dda1a5d195b1a5cdd60b21b604082015260600190565b6020808252601f908201527f5265656e7472616e637947756172643a207265656e7472616e742063616c6c00604082015260600190565b600061012080835261553681840161552989615058565b6001600160a01b03169052565b61554260208801615058565b610140615559818601836001600160a01b03169052565b61556560408a01615058565b915061016061557e818701846001600160a01b03169052565b610180925060608a0135838701526101a060808b0135818801526155a560a08c018c61577f565b826101c08a01526155bb6102c08a018284615305565b925050506155cc60c08c018c61577f565b61011f19808a8503016101e08b01526155e6848385615305565b93506155f460e08f01615058565b6001600160a01b03166102008b015261010092506156138e8401615058565b6001600160a01b0381166102208c01529150615630888f01615068565b63ffffffff81166102408c01529750858e01356102608b0152615655858f018f615737565b98509550808a8503016102808b015250506156718287866152bd565b9550848c01356102a089015285965061568d602089018c61532e565b60e0880199909952505050505092015292915050565b6000808335601e198436030181126156b9578283fd5b83018035915067ffffffffffffffff8211156156d3578283fd5b6020019150600581901b36038213156156eb57600080fd5b9250929050565b6000808335601e19843603018112615708578283fd5b83018035915067ffffffffffffffff821115615722578283fd5b6020019150368190038213156156eb57600080fd5b6000808335601e1984360301811261574d578283fd5b830160208101925035905067ffffffffffffffff81111561576d57600080fd5b8060051b36038313156156eb57600080fd5b6000808335601e19843603018112615795578283fd5b830160208101925035905067ffffffffffffffff8111156157b557600080fd5b8036038313156156eb57600080fd5b600082198211156157d7576157d76159ca565b500190565b6000826157eb576157eb6159e0565b500490565b600181815b8085111561582b578160001904821115615811576158116159ca565b8085161561581e57918102915b93841c93908002906157f5565b509250929050565b6000610dd9838360008261584957506001610d29565b8161585657506000610d29565b816001811461586c576002811461587657615892565b6001915050610d29565b60ff841115615887576158876159ca565b50506001821b610d29565b5060208310610133831016604e8410600b84101617156158b5575081810a610d29565b6158bf83836157f0565b80600019048211156158d3576158d36159ca565b029392505050565b60008160001904831182151516156158f5576158f56159ca565b500290565b600061ffff83811690831681811015615915576159156159ca565b039392505050565b60008282101561592f5761592f6159ca565b500390565b60005b8381101561594f578181015183820152602001615937565b838111156133005750506000910152565b600181811c9082168061597457607f821691505b6020821081141561599557634e487b7160e01b600052602260045260246000fd5b50919050565b60006000198214156159af576159af6159ca565b5060010190565b6000826159c5576159c56159e0565b500690565b634e487b7160e01b600052601160045260246000fd5b634e487b7160e01b600052601260045260246000fd5b60008135610d2981615b2e565b60008135610d2981615b51565b60008135610d2981615b66565b8135615a2881615b43565b815460ff19811691151560ff1691821783556020840135615a4881615b7b565b61ff008160081b169050808361ffff198416171784556040850135615a6c81615b2e565b6001600160b01b0319929092169092179190911760109190911b62010000600160b01b031617815560018101615ac4615aa7606085016159f6565b82546001600160a01b0319166001600160a01b0391909116178255565b615afd615ad360808501615a10565b82805466ffffffffffffff60a01b191660a09290921b66ffffffffffffff60a01b16919091179055565b50613a37615b0d60a08401615a03565b600283016001600160681b0382166001600160681b03198254161781555050565b6001600160a01b0381168114612d8357600080fd5b8015158114612d8357600080fd5b6001600160681b0381168114612d8357600080fd5b66ffffffffffffff81168114612d8357600080fd5b60ff81168114612d8357600080fdfea26469706673582212203097fb4e384f61cb9d9689e33ecda223c90215a5138ecc24414abe517cd702b764736f6c63430008040033",
  "libraries": {
    "VaultLifecycleTreasury": "0x7dDa84D9b2390088EeFF0e27e75a653aDC42BC06"
  },
  "devdoc": {
    "kind": "dev",
    "methods": {
      "accountVaultBalance(address)": {
        "params": {
          "account": "is the address to lookup balance for"
        },
        "returns": {
          "_0": "the amount of `asset` custodied by the vault for the user"
        }
      },
      "addWhitelist(address)": {
        "params": {
          "newWhitelist": "is the address to include in the whitelist"
        }
      },
      "allowance(address,address)": {
        "details": "See {IERC20-allowance}."
      },
      "approve(address,uint256)": {
        "details": "See {IERC20-approve}. Requirements: - `spender` cannot be the zero address."
      },
      "balanceOf(address)": {
        "details": "See {IERC20-balanceOf}."
      },
      "constructor": {
        "params": {
          "_gammaController": "is the contract address for opyn actions",
          "_gnosisEasyAuction": "is the contract address that facilitates gnosis auctions",
          "_marginPool": "is the contract address for providing collateral to opyn",
          "_oTokenFactory": "is the contract address for minting new opyn option types (strikes, asset, expiry)",
          "_usdc": "is the USDC contract",
          "_weth": "is the Wrapped Ether contract"
        }
      },
      "decreaseAllowance(address,uint256)": {
        "details": "Atomically decreases the allowance granted to `spender` by the caller. This is an alternative to {approve} that can be used as a mitigation for problems described in {IERC20-approve}. Emits an {Approval} event indicating the updated allowance. Requirements: - `spender` cannot be the zero address. - `spender` must have allowance for the caller of at least `subtractedValue`."
      },
      "deposit(uint256)": {
        "params": {
          "amount": "is the amount of `asset` to deposit"
        }
      },
      "increaseAllowance(address,uint256)": {
        "details": "Atomically increases the allowance granted to `spender` by the caller. This is an alternative to {approve} that can be used as a mitigation for problems described in {IERC20-approve}. Emits an {Approval} event indicating the updated allowance. Requirements: - `spender` cannot be the zero address."
      },
      "initiateWithdraw(uint256)": {
        "params": {
          "numShares": "is the number of shares to withdraw"
        }
      },
      "name()": {
        "details": "Returns the name of the token."
      },
      "owner()": {
        "details": "Returns the address of the current owner."
      },
      "redeem(uint256)": {
        "params": {
          "numShares": "is the number of shares to redeem"
        }
      },
      "removeWhitelist(address)": {
        "params": {
          "excludeWhitelist": "is the address to exclude from the whitelist"
        }
      },
      "renounceOwnership()": {
        "details": "Leaves the contract without owner. It will not be possible to call `onlyOwner` functions anymore. Can only be called by the current owner. NOTE: Renouncing ownership will leave the contract without an owner, thereby removing any functionality that is only available to the owner."
      },
      "setAuctionDuration(uint256)": {
        "params": {
          "newAuctionDuration": "is the auction duration"
        }
      },
      "setCap(uint256)": {
        "params": {
          "newCap": "is the new cap for deposits"
        }
      },
      "setFeeRecipient(address)": {
        "params": {
          "newFeeRecipient": "is the address of the new fee recipient"
        }
      },
      "setManagementFee(uint256)": {
        "params": {
          "newManagementFee": "is the management fee (6 decimals). ex: 2 * 10 ** 6 = 2%"
        }
      },
      "setNewKeeper(address)": {
        "params": {
          "newKeeper": "is the address of the new keeper"
        }
      },
      "setOptionsPremiumPricer(address)": {
        "params": {
          "newOptionsPremiumPricer": "is the address of the new strike selection contract"
        }
      },
      "setPerformanceFee(uint256)": {
        "params": {
          "newPerformanceFee": "is the performance fee (6 decimals). ex: 20 * 10 ** 6 = 20%"
        }
      },
      "setPremiumDiscount(uint256)": {
        "params": {
          "newPremiumDiscount": "is the premium discount"
        }
      },
      "setStrikePrice(uint128)": {
        "params": {
          "strikePrice": "is the strike price of the new oTokens (decimals = 8)"
        }
      },
      "setStrikeSelection(address)": {
        "params": {
          "newStrikeSelection": "is the address of the new strike selection contract"
        }
      },
      "shareBalances(address)": {
        "params": {
          "account": "is the account to lookup share balance for"
        },
        "returns": {
          "heldByAccount": "is the shares held by account",
          "heldByVault": "is the shares held on the vault (unredeemedShares)"
        }
      },
      "shares(address)": {
        "params": {
          "account": "is the account to lookup share balance for"
        },
        "returns": {
          "_0": "the share balance"
        }
      },
      "symbol()": {
        "details": "Returns the symbol of the token, usually a shorter version of the name."
      },
      "totalBalance()": {
        "returns": {
          "_0": "total balance of the vault, including the amounts locked in third party protocols"
        }
      },
      "totalSupply()": {
        "details": "See {IERC20-totalSupply}."
      },
      "transfer(address,uint256)": {
        "details": "See {IERC20-transfer}. Requirements: - `recipient` cannot be the zero address. - the caller must have a balance of at least `amount`."
      },
      "transferFrom(address,address,uint256)": {
        "details": "See {IERC20-transferFrom}. Emits an {Approval} event indicating the updated allowance. This is not required by the EIP. See the note at the beginning of {ERC20}. Requirements: - `sender` and `recipient` cannot be the zero address. - `sender` must have a balance of at least `amount`. - the caller must have allowance for ``sender``'s tokens of at least `amount`."
      },
      "transferOwnership(address)": {
        "details": "Transfers ownership of the contract to a new account (`newOwner`). Can only be called by the current owner."
      },
      "withdrawInstantly(uint256)": {
        "params": {
          "amount": "is the amount to withdraw"
        }
      }
    },
    "version": 1
  },
  "userdoc": {
    "kind": "user",
    "methods": {
      "DELAY()": {
        "notice": "15 minute timelock between commitAndClose and rollToNexOption."
      },
      "OTOKEN_FACTORY()": {
        "notice": "OTOKEN_FACTORY is the factory contract used to spawn otokens. Used to lookup otokens."
      },
      "USDC()": {
        "notice": "USDC 0xA0b86991c6218b36c1d19D4a2e9Eb0cE3606eB48"
      },
      "WETH()": {
        "notice": "WETH9 0xC02aaA39b223FE8D0A0e5C4F27eAD9083C756Cc2"
      },
      "accountVaultBalance(address)": {
        "notice": "Returns the asset balance held on the vault for the account"
      },
      "addWhitelist(address)": {
        "notice": "Adds new whitelisted address"
      },
      "auctionDuration()": {
        "notice": "Auction duration"
      },
      "burnRemainingOTokens()": {
        "notice": "Burn the remaining oTokens left over from gnosis auction."
      },
      "cap()": {
        "notice": "Returns the maximum capacity of the vault in terms of the vault's asset"
      },
      "chargeAndDistribute()": {
        "notice": "Charge performance fee and distribute remaining to whitelisted address"
      },
      "commitAndClose()": {
        "notice": "Sets the next option the vault will be shorting, and closes the existing short.         This allows all the users to withdraw if the next option is malicious."
      },
      "completeWithdraw()": {
        "notice": "Completes a scheduled withdrawal from a past round. Uses finalized pps for the round"
      },
      "concludeOptionsSale()": {
        "notice": "Settles the round's Gnosis auction and distribute the premiums earned"
      },
      "constructor": {
        "notice": "Initializes the contract with immutable variables"
      },
      "currentOption()": {
        "notice": "Returns the options specification for the current round"
      },
      "currentOtokenPremium()": {
        "notice": "Current oToken premium"
      },
      "decimals()": {
        "notice": "Returns the token decimals"
      },
      "deposit(uint256)": {
        "notice": "Deposits the `asset` from msg.sender."
      },
      "depositReceipts(address)": {
        "notice": "Stores the user's pending deposit for the round"
      },
      "feeRecipient()": {
        "notice": "Fee recipient for the performance and management fees"
      },
      "initialize((address,address,address,uint256,uint256,string,string,address,address,uint32,uint256,address[],uint256),(bool,uint8,address,address,uint56,uint104))": {
        "notice": "Initializes the OptionVault contract with storage variables."
      },
      "initiateWithdraw(uint256)": {
        "notice": "Initiates a withdrawal that can be processed once the round completes"
      },
      "keeper()": {
        "notice": "role in charge of weekly vault operations such as rollToNextOption and burnRemainingOTokens"
      },
      "lastQueuedWithdrawAmount()": {
        "notice": "Amount locked for scheduled withdrawals last week;"
      },
      "lastStrikeOverrideRound()": {
        "notice": "Last round id at which the strike was manually overridden"
      },
      "managementFee()": {
        "notice": "Management fee charged on entire AUM in rollToNextOption. Only charged when there is no loss."
      },
      "maxRedeem()": {
        "notice": "Redeems the entire unredeemedShares balance that is owed to the account"
      },
      "nextOption()": {
        "notice": "Returns the options specification for the next round"
      },
      "nextOptionReadyAt()": {
        "notice": "Returns the date and time for the next options sale"
      },
      "optionAuctionID()": {
        "notice": "Auction id of current option"
      },
      "optionState()": {
        "notice": "Vault's state of the options sold and the timelocked option"
      },
      "optionsPremiumPricer()": {
        "notice": "Logic contract used to price options"
      },
      "overriddenStrikePrice()": {
        "notice": "Price last overridden strike set to"
      },
      "performanceFee()": {
        "notice": "Performance fee charged on premiums earned in rollToNextOption. Only charged when there is no loss."
      },
      "period()": {
        "notice": "Period between each options sale. Available options 7 (weekly), 14 (biweekly), 30 (monthly), 90 (quarterly), 180 (biannually)"
      },
      "premiumDiscount()": {
        "notice": "Premium discount on options we are selling (thousandths place: 000 - 999)"
      },
      "pricePerShare()": {
        "notice": "The price of a unit of share denominated in the `asset`"
      },
      "redeem(uint256)": {
        "notice": "Redeems shares that are owed to the account"
      },
      "removeWhitelist(address)": {
        "notice": "Remove addresses from whitelist"
      },
      "rollToNextOption()": {
        "notice": "Rolls the vault's funds into a new short position."
      },
      "roundPricePerShare(uint256)": {
        "notice": "On every round's close, the pricePerShare value of an rTHETA token is stored This is used to determine the number of shares to be returned to a user with their DepositReceipt.depositAmount"
      },
      "setAuctionDuration(uint256)": {
        "notice": "Sets the new auction duration"
      },
      "setCap(uint256)": {
        "notice": "Sets a new cap for deposits"
      },
      "setFeeRecipient(address)": {
        "notice": "Sets the new fee recipient"
      },
      "setManagementFee(uint256)": {
        "notice": "Sets the management fee for the vault"
      },
      "setNewKeeper(address)": {
        "notice": "Sets the new keeper"
      },
      "setOptionsPremiumPricer(address)": {
        "notice": "Sets the new options premium pricer contract"
      },
      "setPerformanceFee(uint256)": {
        "notice": "Sets the performance fee for the vault"
      },
      "setPremiumDiscount(uint256)": {
        "notice": "Sets the new discount on premiums for options we are selling"
      },
      "setStrikePrice(uint128)": {
        "notice": "Optionality to set strike price manually"
      },
      "setStrikeSelection(address)": {
        "notice": "Sets the new strike selection contract"
      },
      "shareBalances(address)": {
        "notice": "Getter for returning the account's share balance split between account and vault holdings"
      },
      "shares(address)": {
        "notice": "Getter for returning the account's share balance including unredeemed shares"
      },
      "startAuction()": {
        "notice": "Initiate the gnosis auction."
      },
      "strikeSelection()": {
        "notice": "Logic contract used to select strike prices"
      },
      "totalBalance()": {
        "notice": "Returns the vault's total balance, including the amounts locked into a short position"
      },
      "totalPending()": {
        "notice": "Returns total pending deposit for the current round"
      },
      "vaultParams()": {
        "notice": "Vault's parameters like cap, decimals"
      },
      "vaultState()": {
        "notice": "Vault's lifecycle state like round and locked amounts"
      },
      "whitelistArray(uint256)": {
        "notice": "Whitelist of eligible depositors in array"
      },
      "whitelistMap(address)": {
        "notice": "Whitelist of eligible depositors in mapping"
      },
      "withdrawInstantly(uint256)": {
        "notice": "Withdraws the assets on the vault using the outstanding `DepositReceipt.amount`"
      },
      "withdrawals(address)": {
        "notice": "Stores pending user withdrawals"
      }
    },
    "version": 1
  },
  "storageLayout": {
    "storage": [
      {
        "astId": 130,
        "contract": "contracts/vaults/TreasuryVault/RibbonTreasuryVault.sol:RibbonTreasuryVault",
        "label": "_initialized",
        "offset": 0,
        "slot": "0",
        "type": "t_bool"
      },
      {
        "astId": 133,
        "contract": "contracts/vaults/TreasuryVault/RibbonTreasuryVault.sol:RibbonTreasuryVault",
        "label": "_initializing",
        "offset": 1,
        "slot": "0",
        "type": "t_bool"
      },
      {
        "astId": 184,
        "contract": "contracts/vaults/TreasuryVault/RibbonTreasuryVault.sol:RibbonTreasuryVault",
        "label": "_status",
        "offset": 0,
        "slot": "1",
        "type": "t_uint256"
      },
      {
        "astId": 227,
        "contract": "contracts/vaults/TreasuryVault/RibbonTreasuryVault.sol:RibbonTreasuryVault",
        "label": "__gap",
        "offset": 0,
        "slot": "2",
        "type": "t_array(t_uint256)49_storage"
      },
      {
        "astId": 947,
        "contract": "contracts/vaults/TreasuryVault/RibbonTreasuryVault.sol:RibbonTreasuryVault",
        "label": "__gap",
        "offset": 0,
        "slot": "51",
        "type": "t_array(t_uint256)50_storage"
      },
      {
        "astId": 10,
        "contract": "contracts/vaults/TreasuryVault/RibbonTreasuryVault.sol:RibbonTreasuryVault",
        "label": "_owner",
        "offset": 0,
        "slot": "101",
        "type": "t_address"
      },
      {
        "astId": 123,
        "contract": "contracts/vaults/TreasuryVault/RibbonTreasuryVault.sol:RibbonTreasuryVault",
        "label": "__gap",
        "offset": 0,
        "slot": "102",
        "type": "t_array(t_uint256)49_storage"
      },
      {
        "astId": 247,
        "contract": "contracts/vaults/TreasuryVault/RibbonTreasuryVault.sol:RibbonTreasuryVault",
        "label": "_balances",
        "offset": 0,
        "slot": "151",
        "type": "t_mapping(t_address,t_uint256)"
      },
      {
        "astId": 253,
        "contract": "contracts/vaults/TreasuryVault/RibbonTreasuryVault.sol:RibbonTreasuryVault",
        "label": "_allowances",
        "offset": 0,
        "slot": "152",
        "type": "t_mapping(t_address,t_mapping(t_address,t_uint256))"
      },
      {
        "astId": 255,
        "contract": "contracts/vaults/TreasuryVault/RibbonTreasuryVault.sol:RibbonTreasuryVault",
        "label": "_totalSupply",
        "offset": 0,
        "slot": "153",
        "type": "t_uint256"
      },
      {
        "astId": 257,
        "contract": "contracts/vaults/TreasuryVault/RibbonTreasuryVault.sol:RibbonTreasuryVault",
        "label": "_name",
        "offset": 0,
        "slot": "154",
        "type": "t_string_storage"
      },
      {
        "astId": 259,
        "contract": "contracts/vaults/TreasuryVault/RibbonTreasuryVault.sol:RibbonTreasuryVault",
        "label": "_symbol",
        "offset": 0,
        "slot": "155",
        "type": "t_string_storage"
      },
      {
        "astId": 800,
        "contract": "contracts/vaults/TreasuryVault/RibbonTreasuryVault.sol:RibbonTreasuryVault",
        "label": "__gap",
        "offset": 0,
        "slot": "156",
        "type": "t_array(t_uint256)45_storage"
      },
      {
        "astId": 10948,
        "contract": "contracts/vaults/TreasuryVault/RibbonTreasuryVault.sol:RibbonTreasuryVault",
        "label": "vaultParams",
        "offset": 0,
        "slot": "201",
        "type": "t_struct(VaultParams)5709_storage"
      },
      {
        "astId": 10952,
        "contract": "contracts/vaults/TreasuryVault/RibbonTreasuryVault.sol:RibbonTreasuryVault",
        "label": "vaultState",
        "offset": 0,
        "slot": "204",
        "type": "t_struct(VaultState)5727_storage"
      },
      {
        "astId": 10956,
        "contract": "contracts/vaults/TreasuryVault/RibbonTreasuryVault.sol:RibbonTreasuryVault",
        "label": "optionState",
        "offset": 0,
        "slot": "206",
        "type": "t_struct(OptionState)5716_storage"
      },
      {
        "astId": 10962,
        "contract": "contracts/vaults/TreasuryVault/RibbonTreasuryVault.sol:RibbonTreasuryVault",
        "label": "depositReceipts",
        "offset": 0,
        "slot": "208",
        "type": "t_mapping(t_address,t_struct(DepositReceipt)5734_storage)"
      },
      {
        "astId": 10967,
        "contract": "contracts/vaults/TreasuryVault/RibbonTreasuryVault.sol:RibbonTreasuryVault",
        "label": "roundPricePerShare",
        "offset": 0,
        "slot": "209",
        "type": "t_mapping(t_uint256,t_uint256)"
      },
      {
        "astId": 10973,
        "contract": "contracts/vaults/TreasuryVault/RibbonTreasuryVault.sol:RibbonTreasuryVault",
        "label": "withdrawals",
        "offset": 0,
        "slot": "210",
        "type": "t_mapping(t_address,t_struct(Withdrawal)5739_storage)"
      },
      {
        "astId": 10978,
        "contract": "contracts/vaults/TreasuryVault/RibbonTreasuryVault.sol:RibbonTreasuryVault",
        "label": "whitelistMap",
        "offset": 0,
        "slot": "211",
        "type": "t_mapping(t_address,t_bool)"
      },
      {
        "astId": 10982,
        "contract": "contracts/vaults/TreasuryVault/RibbonTreasuryVault.sol:RibbonTreasuryVault",
        "label": "whitelistArray",
        "offset": 0,
        "slot": "212",
        "type": "t_array(t_address)dyn_storage"
      },
      {
        "astId": 10985,
        "contract": "contracts/vaults/TreasuryVault/RibbonTreasuryVault.sol:RibbonTreasuryVault",
        "label": "feeRecipient",
        "offset": 0,
        "slot": "213",
        "type": "t_address"
      },
      {
        "astId": 10988,
        "contract": "contracts/vaults/TreasuryVault/RibbonTreasuryVault.sol:RibbonTreasuryVault",
        "label": "keeper",
        "offset": 0,
        "slot": "214",
        "type": "t_address"
      },
      {
        "astId": 10991,
        "contract": "contracts/vaults/TreasuryVault/RibbonTreasuryVault.sol:RibbonTreasuryVault",
        "label": "optionsPremiumPricer",
        "offset": 0,
        "slot": "215",
        "type": "t_address"
      },
      {
        "astId": 10994,
        "contract": "contracts/vaults/TreasuryVault/RibbonTreasuryVault.sol:RibbonTreasuryVault",
        "label": "strikeSelection",
        "offset": 0,
        "slot": "216",
        "type": "t_address"
      },
      {
        "astId": 10997,
        "contract": "contracts/vaults/TreasuryVault/RibbonTreasuryVault.sol:RibbonTreasuryVault",
        "label": "performanceFee",
        "offset": 0,
        "slot": "217",
        "type": "t_uint256"
      },
      {
        "astId": 11000,
        "contract": "contracts/vaults/TreasuryVault/RibbonTreasuryVault.sol:RibbonTreasuryVault",
        "label": "managementFee",
        "offset": 0,
        "slot": "218",
        "type": "t_uint256"
      },
      {
        "astId": 11003,
        "contract": "contracts/vaults/TreasuryVault/RibbonTreasuryVault.sol:RibbonTreasuryVault",
        "label": "premiumDiscount",
        "offset": 0,
        "slot": "219",
        "type": "t_uint256"
      },
      {
        "astId": 11006,
        "contract": "contracts/vaults/TreasuryVault/RibbonTreasuryVault.sol:RibbonTreasuryVault",
        "label": "currentOtokenPremium",
        "offset": 0,
        "slot": "220",
        "type": "t_uint256"
      },
      {
        "astId": 11009,
        "contract": "contracts/vaults/TreasuryVault/RibbonTreasuryVault.sol:RibbonTreasuryVault",
        "label": "overriddenStrikePrice",
        "offset": 0,
        "slot": "221",
        "type": "t_uint256"
      },
      {
        "astId": 11012,
        "contract": "contracts/vaults/TreasuryVault/RibbonTreasuryVault.sol:RibbonTreasuryVault",
        "label": "auctionDuration",
        "offset": 0,
        "slot": "222",
        "type": "t_uint256"
      },
      {
        "astId": 11015,
        "contract": "contracts/vaults/TreasuryVault/RibbonTreasuryVault.sol:RibbonTreasuryVault",
        "label": "optionAuctionID",
        "offset": 0,
        "slot": "223",
        "type": "t_uint256"
      },
      {
        "astId": 11018,
        "contract": "contracts/vaults/TreasuryVault/RibbonTreasuryVault.sol:RibbonTreasuryVault",
        "label": "lastQueuedWithdrawAmount",
        "offset": 0,
        "slot": "224",
        "type": "t_uint256"
      },
      {
        "astId": 11021,
        "contract": "contracts/vaults/TreasuryVault/RibbonTreasuryVault.sol:RibbonTreasuryVault",
        "label": "period",
        "offset": 0,
        "slot": "225",
        "type": "t_uint256"
      },
      {
        "astId": 11024,
        "contract": "contracts/vaults/TreasuryVault/RibbonTreasuryVault.sol:RibbonTreasuryVault",
        "label": "lastStrikeOverrideRound",
        "offset": 0,
        "slot": "226",
        "type": "t_uint16"
      }
    ],
    "types": {
      "t_address": {
        "encoding": "inplace",
        "label": "address",
        "numberOfBytes": "20"
      },
      "t_array(t_address)dyn_storage": {
        "base": "t_address",
        "encoding": "dynamic_array",
        "label": "address[]",
        "numberOfBytes": "32"
      },
      "t_array(t_uint256)45_storage": {
        "base": "t_uint256",
        "encoding": "inplace",
        "label": "uint256[45]",
        "numberOfBytes": "1440"
      },
      "t_array(t_uint256)49_storage": {
        "base": "t_uint256",
        "encoding": "inplace",
        "label": "uint256[49]",
        "numberOfBytes": "1568"
      },
      "t_array(t_uint256)50_storage": {
        "base": "t_uint256",
        "encoding": "inplace",
        "label": "uint256[50]",
        "numberOfBytes": "1600"
      },
      "t_bool": {
        "encoding": "inplace",
        "label": "bool",
        "numberOfBytes": "1"
      },
      "t_mapping(t_address,t_bool)": {
        "encoding": "mapping",
        "key": "t_address",
        "label": "mapping(address => bool)",
        "numberOfBytes": "32",
        "value": "t_bool"
      },
      "t_mapping(t_address,t_mapping(t_address,t_uint256))": {
        "encoding": "mapping",
        "key": "t_address",
        "label": "mapping(address => mapping(address => uint256))",
        "numberOfBytes": "32",
        "value": "t_mapping(t_address,t_uint256)"
      },
      "t_mapping(t_address,t_struct(DepositReceipt)5734_storage)": {
        "encoding": "mapping",
        "key": "t_address",
        "label": "mapping(address => struct Vault.DepositReceipt)",
        "numberOfBytes": "32",
        "value": "t_struct(DepositReceipt)5734_storage"
      },
      "t_mapping(t_address,t_struct(Withdrawal)5739_storage)": {
        "encoding": "mapping",
        "key": "t_address",
        "label": "mapping(address => struct Vault.Withdrawal)",
        "numberOfBytes": "32",
        "value": "t_struct(Withdrawal)5739_storage"
      },
      "t_mapping(t_address,t_uint256)": {
        "encoding": "mapping",
        "key": "t_address",
        "label": "mapping(address => uint256)",
        "numberOfBytes": "32",
        "value": "t_uint256"
      },
      "t_mapping(t_uint256,t_uint256)": {
        "encoding": "mapping",
        "key": "t_uint256",
        "label": "mapping(uint256 => uint256)",
        "numberOfBytes": "32",
        "value": "t_uint256"
      },
      "t_string_storage": {
        "encoding": "bytes",
        "label": "string",
        "numberOfBytes": "32"
      },
      "t_struct(DepositReceipt)5734_storage": {
        "encoding": "inplace",
        "label": "struct Vault.DepositReceipt",
        "members": [
          {
            "astId": 5729,
            "contract": "contracts/vaults/TreasuryVault/RibbonTreasuryVault.sol:RibbonTreasuryVault",
            "label": "round",
            "offset": 0,
            "slot": "0",
            "type": "t_uint16"
          },
          {
            "astId": 5731,
            "contract": "contracts/vaults/TreasuryVault/RibbonTreasuryVault.sol:RibbonTreasuryVault",
            "label": "amount",
            "offset": 2,
            "slot": "0",
            "type": "t_uint104"
          },
          {
            "astId": 5733,
            "contract": "contracts/vaults/TreasuryVault/RibbonTreasuryVault.sol:RibbonTreasuryVault",
            "label": "unredeemedShares",
            "offset": 15,
            "slot": "0",
            "type": "t_uint128"
          }
        ],
        "numberOfBytes": "32"
      },
      "t_struct(OptionState)5716_storage": {
        "encoding": "inplace",
        "label": "struct Vault.OptionState",
        "members": [
          {
            "astId": 5711,
            "contract": "contracts/vaults/TreasuryVault/RibbonTreasuryVault.sol:RibbonTreasuryVault",
            "label": "nextOption",
            "offset": 0,
            "slot": "0",
            "type": "t_address"
          },
          {
            "astId": 5713,
            "contract": "contracts/vaults/TreasuryVault/RibbonTreasuryVault.sol:RibbonTreasuryVault",
            "label": "currentOption",
            "offset": 0,
            "slot": "1",
            "type": "t_address"
          },
          {
            "astId": 5715,
            "contract": "contracts/vaults/TreasuryVault/RibbonTreasuryVault.sol:RibbonTreasuryVault",
            "label": "nextOptionReadyAt",
            "offset": 20,
            "slot": "1",
            "type": "t_uint32"
          }
        ],
        "numberOfBytes": "64"
      },
      "t_struct(VaultParams)5709_storage": {
        "encoding": "inplace",
        "label": "struct Vault.VaultParams",
        "members": [
          {
            "astId": 5698,
            "contract": "contracts/vaults/TreasuryVault/RibbonTreasuryVault.sol:RibbonTreasuryVault",
            "label": "isPut",
            "offset": 0,
            "slot": "0",
            "type": "t_bool"
          },
          {
            "astId": 5700,
            "contract": "contracts/vaults/TreasuryVault/RibbonTreasuryVault.sol:RibbonTreasuryVault",
            "label": "decimals",
            "offset": 1,
            "slot": "0",
            "type": "t_uint8"
          },
          {
            "astId": 5702,
            "contract": "contracts/vaults/TreasuryVault/RibbonTreasuryVault.sol:RibbonTreasuryVault",
            "label": "asset",
            "offset": 2,
            "slot": "0",
            "type": "t_address"
          },
          {
            "astId": 5704,
            "contract": "contracts/vaults/TreasuryVault/RibbonTreasuryVault.sol:RibbonTreasuryVault",
            "label": "underlying",
            "offset": 0,
            "slot": "1",
            "type": "t_address"
          },
          {
            "astId": 5706,
            "contract": "contracts/vaults/TreasuryVault/RibbonTreasuryVault.sol:RibbonTreasuryVault",
            "label": "minimumSupply",
            "offset": 20,
            "slot": "1",
            "type": "t_uint56"
          },
          {
            "astId": 5708,
            "contract": "contracts/vaults/TreasuryVault/RibbonTreasuryVault.sol:RibbonTreasuryVault",
            "label": "cap",
            "offset": 0,
            "slot": "2",
            "type": "t_uint104"
          }
        ],
        "numberOfBytes": "96"
      },
      "t_struct(VaultState)5727_storage": {
        "encoding": "inplace",
        "label": "struct Vault.VaultState",
        "members": [
          {
            "astId": 5718,
            "contract": "contracts/vaults/TreasuryVault/RibbonTreasuryVault.sol:RibbonTreasuryVault",
            "label": "round",
            "offset": 0,
            "slot": "0",
            "type": "t_uint16"
          },
          {
            "astId": 5720,
            "contract": "contracts/vaults/TreasuryVault/RibbonTreasuryVault.sol:RibbonTreasuryVault",
            "label": "lockedAmount",
            "offset": 2,
            "slot": "0",
            "type": "t_uint104"
          },
          {
            "astId": 5722,
            "contract": "contracts/vaults/TreasuryVault/RibbonTreasuryVault.sol:RibbonTreasuryVault",
            "label": "lastLockedAmount",
            "offset": 15,
            "slot": "0",
            "type": "t_uint104"
          },
          {
            "astId": 5724,
            "contract": "contracts/vaults/TreasuryVault/RibbonTreasuryVault.sol:RibbonTreasuryVault",
            "label": "totalPending",
            "offset": 0,
            "slot": "1",
            "type": "t_uint128"
          },
          {
            "astId": 5726,
            "contract": "contracts/vaults/TreasuryVault/RibbonTreasuryVault.sol:RibbonTreasuryVault",
            "label": "queuedWithdrawShares",
            "offset": 16,
            "slot": "1",
            "type": "t_uint128"
          }
        ],
        "numberOfBytes": "64"
      },
      "t_struct(Withdrawal)5739_storage": {
        "encoding": "inplace",
        "label": "struct Vault.Withdrawal",
        "members": [
          {
            "astId": 5736,
            "contract": "contracts/vaults/TreasuryVault/RibbonTreasuryVault.sol:RibbonTreasuryVault",
            "label": "round",
            "offset": 0,
            "slot": "0",
            "type": "t_uint16"
          },
          {
            "astId": 5738,
            "contract": "contracts/vaults/TreasuryVault/RibbonTreasuryVault.sol:RibbonTreasuryVault",
            "label": "shares",
            "offset": 2,
            "slot": "0",
            "type": "t_uint128"
          }
        ],
        "numberOfBytes": "32"
      },
      "t_uint104": {
        "encoding": "inplace",
        "label": "uint104",
        "numberOfBytes": "13"
      },
      "t_uint128": {
        "encoding": "inplace",
        "label": "uint128",
        "numberOfBytes": "16"
      },
      "t_uint16": {
        "encoding": "inplace",
        "label": "uint16",
        "numberOfBytes": "2"
      },
      "t_uint256": {
        "encoding": "inplace",
        "label": "uint256",
        "numberOfBytes": "32"
      },
      "t_uint32": {
        "encoding": "inplace",
        "label": "uint32",
        "numberOfBytes": "4"
      },
      "t_uint56": {
        "encoding": "inplace",
        "label": "uint56",
        "numberOfBytes": "7"
      },
      "t_uint8": {
        "encoding": "inplace",
        "label": "uint8",
        "numberOfBytes": "1"
      }
    }
  }
}