{
  "address": "0xFA9F49CA09BD802FffAE5eA3d08D655910aD7d35",
  "abi": [
    {
      "inputs": [
        {
          "internalType": "address",
          "name": "_weth",
          "type": "address"
        },
        {
          "internalType": "address",
          "name": "_usdc",
          "type": "address"
        },
        {
          "internalType": "address",
          "name": "_oTokenFactory",
          "type": "address"
        },
        {
          "internalType": "address",
          "name": "_gammaController",
          "type": "address"
        },
        {
          "internalType": "address",
          "name": "_marginPool",
          "type": "address"
        },
        {
          "internalType": "address",
          "name": "_swapContract",
          "type": "address"
        }
      ],
      "stateMutability": "nonpayable",
      "type": "constructor"
    },
    {
      "anonymous": false,
      "inputs": [
        {
          "indexed": true,
          "internalType": "address",
          "name": "owner",
          "type": "address"
        },
        {
          "indexed": true,
          "internalType": "address",
          "name": "spender",
          "type": "address"
        },
        {
          "indexed": false,
          "internalType": "uint256",
          "name": "value",
          "type": "uint256"
        }
      ],
      "name": "Approval",
      "type": "event"
    },
    {
      "anonymous": false,
      "inputs": [
        {
          "indexed": false,
          "internalType": "uint256",
          "name": "auctionDuration",
          "type": "uint256"
        },
        {
          "indexed": false,
          "internalType": "uint256",
          "name": "newAuctionDuration",
          "type": "uint256"
        }
      ],
      "name": "AuctionDurationSet",
      "type": "event"
    },
    {
      "anonymous": false,
      "inputs": [
        {
          "indexed": false,
          "internalType": "uint256",
          "name": "oldCap",
          "type": "uint256"
        },
        {
          "indexed": false,
          "internalType": "uint256",
          "name": "newCap",
          "type": "uint256"
        }
      ],
      "name": "CapSet",
      "type": "event"
    },
    {
      "anonymous": false,
      "inputs": [
        {
          "indexed": true,
          "internalType": "address",
          "name": "options",
          "type": "address"
        },
        {
          "indexed": false,
          "internalType": "uint256",
          "name": "withdrawAmount",
          "type": "uint256"
        },
        {
          "indexed": true,
          "internalType": "address",
          "name": "manager",
          "type": "address"
        }
      ],
      "name": "CloseShort",
      "type": "event"
    },
    {
      "anonymous": false,
      "inputs": [
        {
          "indexed": false,
          "internalType": "uint256",
          "name": "performanceFee",
          "type": "uint256"
        },
        {
          "indexed": false,
          "internalType": "uint256",
          "name": "vaultFee",
          "type": "uint256"
        },
        {
          "indexed": false,
          "internalType": "uint256",
          "name": "round",
          "type": "uint256"
        },
        {
          "indexed": true,
          "internalType": "address",
          "name": "feeRecipient",
          "type": "address"
        }
      ],
      "name": "CollectVaultFees",
      "type": "event"
    },
    {
      "anonymous": false,
      "inputs": [
        {
          "indexed": true,
          "internalType": "address",
          "name": "account",
          "type": "address"
        },
        {
          "indexed": false,
          "internalType": "uint256",
          "name": "amount",
          "type": "uint256"
        },
        {
          "indexed": false,
          "internalType": "uint256",
          "name": "round",
          "type": "uint256"
        }
      ],
      "name": "Deposit",
      "type": "event"
    },
    {
      "anonymous": false,
      "inputs": [
        {
          "indexed": true,
          "internalType": "address",
          "name": "account",
          "type": "address"
        },
        {
          "indexed": false,
          "internalType": "uint256",
          "name": "shares",
          "type": "uint256"
        },
        {
          "indexed": false,
          "internalType": "uint256",
          "name": "round",
          "type": "uint256"
        }
      ],
      "name": "InitiateWithdraw",
      "type": "event"
    },
    {
      "anonymous": false,
      "inputs": [
        {
          "indexed": true,
          "internalType": "address",
          "name": "account",
          "type": "address"
        },
        {
          "indexed": false,
          "internalType": "uint256",
          "name": "amount",
          "type": "uint256"
        },
        {
          "indexed": false,
          "internalType": "uint256",
          "name": "round",
          "type": "uint256"
        }
      ],
      "name": "InstantWithdraw",
      "type": "event"
    },
    {
      "anonymous": false,
      "inputs": [
        {
          "indexed": false,
          "internalType": "uint256",
          "name": "managementFee",
          "type": "uint256"
        },
        {
          "indexed": false,
          "internalType": "uint256",
          "name": "newManagementFee",
          "type": "uint256"
        }
      ],
      "name": "ManagementFeeSet",
      "type": "event"
    },
    {
      "anonymous": false,
      "inputs": [
        {
          "indexed": false,
          "internalType": "uint256",
          "name": "swapId",
          "type": "uint256"
        },
        {
          "indexed": false,
          "internalType": "address",
          "name": "seller",
          "type": "address"
        },
        {
          "indexed": false,
          "internalType": "address",
          "name": "oToken",
          "type": "address"
        },
        {
          "indexed": false,
          "internalType": "address",
          "name": "biddingToken",
          "type": "address"
        },
        {
          "indexed": false,
          "internalType": "uint256",
          "name": "minPrice",
          "type": "uint256"
        },
        {
          "indexed": false,
          "internalType": "uint256",
          "name": "minBidSize",
          "type": "uint256"
        },
        {
          "indexed": false,
          "internalType": "uint256",
          "name": "totalSize",
          "type": "uint256"
        }
      ],
      "name": "NewOffer",
      "type": "event"
    },
    {
      "anonymous": false,
      "inputs": [
        {
          "indexed": false,
          "internalType": "uint256",
          "name": "strikePrice",
          "type": "uint256"
        },
        {
          "indexed": false,
          "internalType": "uint256",
          "name": "delta",
          "type": "uint256"
        }
      ],
      "name": "NewOptionStrikeSelected",
      "type": "event"
    },
    {
      "anonymous": false,
      "inputs": [
        {
          "indexed": true,
          "internalType": "address",
          "name": "options",
          "type": "address"
        },
        {
          "indexed": false,
          "internalType": "uint256",
          "name": "depositAmount",
          "type": "uint256"
        },
        {
          "indexed": true,
          "internalType": "address",
          "name": "manager",
          "type": "address"
        }
      ],
      "name": "OpenShort",
      "type": "event"
    },
    {
      "anonymous": false,
      "inputs": [
        {
          "indexed": true,
          "internalType": "address",
          "name": "previousOwner",
          "type": "address"
        },
        {
          "indexed": true,
          "internalType": "address",
          "name": "newOwner",
          "type": "address"
        }
      ],
      "name": "OwnershipTransferred",
      "type": "event"
    },
    {
      "anonymous": false,
      "inputs": [
        {
          "indexed": false,
          "internalType": "uint256",
          "name": "performanceFee",
          "type": "uint256"
        },
        {
          "indexed": false,
          "internalType": "uint256",
          "name": "newPerformanceFee",
          "type": "uint256"
        }
      ],
      "name": "PerformanceFeeSet",
      "type": "event"
    },
    {
      "anonymous": false,
      "inputs": [
        {
          "indexed": false,
          "internalType": "uint256",
          "name": "premiumDiscount",
          "type": "uint256"
        },
        {
          "indexed": false,
          "internalType": "uint256",
          "name": "newPremiumDiscount",
          "type": "uint256"
        }
      ],
      "name": "PremiumDiscountSet",
      "type": "event"
    },
    {
      "anonymous": false,
      "inputs": [
        {
          "indexed": true,
          "internalType": "address",
          "name": "account",
          "type": "address"
        },
        {
          "indexed": false,
          "internalType": "uint256",
          "name": "share",
          "type": "uint256"
        },
        {
          "indexed": false,
          "internalType": "uint256",
          "name": "round",
          "type": "uint256"
        }
      ],
      "name": "Redeem",
      "type": "event"
    },
    {
      "anonymous": false,
      "inputs": [
        {
          "indexed": true,
          "internalType": "address",
          "name": "from",
          "type": "address"
        },
        {
          "indexed": true,
          "internalType": "address",
          "name": "to",
          "type": "address"
        },
        {
          "indexed": false,
          "internalType": "uint256",
          "name": "value",
          "type": "uint256"
        }
      ],
      "name": "Transfer",
      "type": "event"
    },
    {
      "anonymous": false,
      "inputs": [
        {
          "indexed": true,
          "internalType": "address",
          "name": "account",
          "type": "address"
        },
        {
          "indexed": false,
          "internalType": "uint256",
          "name": "amount",
          "type": "uint256"
        },
        {
          "indexed": false,
          "internalType": "uint256",
          "name": "shares",
          "type": "uint256"
        }
      ],
      "name": "Withdraw",
      "type": "event"
    },
    {
      "inputs": [],
      "name": "DELAY",
      "outputs": [
        {
          "internalType": "uint256",
          "name": "",
          "type": "uint256"
        }
      ],
      "stateMutability": "view",
      "type": "function"
    },
    {
      "inputs": [],
      "name": "GAMMA_CONTROLLER",
      "outputs": [
        {
          "internalType": "address",
          "name": "",
          "type": "address"
        }
      ],
      "stateMutability": "view",
      "type": "function"
    },
    {
      "inputs": [],
      "name": "MARGIN_POOL",
      "outputs": [
        {
          "internalType": "address",
          "name": "",
          "type": "address"
        }
      ],
      "stateMutability": "view",
      "type": "function"
    },
    {
      "inputs": [],
      "name": "OTOKEN_FACTORY",
      "outputs": [
        {
          "internalType": "address",
          "name": "",
          "type": "address"
        }
      ],
      "stateMutability": "view",
      "type": "function"
    },
    {
      "inputs": [],
      "name": "PERIOD",
      "outputs": [
        {
          "internalType": "uint256",
          "name": "",
          "type": "uint256"
        }
      ],
      "stateMutability": "view",
      "type": "function"
    },
    {
      "inputs": [],
      "name": "SWAP_CONTRACT",
      "outputs": [
        {
          "internalType": "address",
          "name": "",
          "type": "address"
        }
      ],
      "stateMutability": "view",
      "type": "function"
    },
    {
      "inputs": [],
      "name": "USDC",
      "outputs": [
        {
          "internalType": "address",
          "name": "",
          "type": "address"
        }
      ],
      "stateMutability": "view",
      "type": "function"
    },
    {
      "inputs": [],
      "name": "WETH",
      "outputs": [
        {
          "internalType": "address",
          "name": "",
          "type": "address"
        }
      ],
      "stateMutability": "view",
      "type": "function"
    },
    {
      "inputs": [
        {
          "internalType": "address",
          "name": "account",
          "type": "address"
        }
      ],
      "name": "accountVaultBalance",
      "outputs": [
        {
          "internalType": "uint256",
          "name": "",
          "type": "uint256"
        }
      ],
      "stateMutability": "view",
      "type": "function"
    },
    {
      "inputs": [
        {
          "internalType": "address",
          "name": "owner",
          "type": "address"
        },
        {
          "internalType": "address",
          "name": "spender",
          "type": "address"
        }
      ],
      "name": "allowance",
      "outputs": [
        {
          "internalType": "uint256",
          "name": "",
          "type": "uint256"
        }
      ],
      "stateMutability": "view",
      "type": "function"
    },
    {
      "inputs": [
        {
          "internalType": "address",
          "name": "spender",
          "type": "address"
        },
        {
          "internalType": "uint256",
          "name": "amount",
          "type": "uint256"
        }
      ],
      "name": "approve",
      "outputs": [
        {
          "internalType": "bool",
          "name": "",
          "type": "bool"
        }
      ],
      "stateMutability": "nonpayable",
      "type": "function"
    },
    {
      "inputs": [],
      "name": "auctionDuration",
      "outputs": [
        {
          "internalType": "uint256",
          "name": "",
          "type": "uint256"
        }
      ],
      "stateMutability": "view",
      "type": "function"
    },
    {
      "inputs": [
        {
          "internalType": "address",
          "name": "account",
          "type": "address"
        }
      ],
      "name": "balanceOf",
      "outputs": [
        {
          "internalType": "uint256",
          "name": "",
          "type": "uint256"
        }
      ],
      "stateMutability": "view",
      "type": "function"
    },
    {
      "inputs": [],
      "name": "burnRemainingOTokens",
      "outputs": [],
      "stateMutability": "nonpayable",
      "type": "function"
    },
    {
      "inputs": [],
      "name": "cap",
      "outputs": [
        {
          "internalType": "uint256",
          "name": "",
          "type": "uint256"
        }
      ],
      "stateMutability": "view",
      "type": "function"
    },
    {
      "inputs": [],
      "name": "closeRound",
      "outputs": [],
      "stateMutability": "nonpayable",
      "type": "function"
    },
    {
      "inputs": [],
      "name": "commitNextOption",
      "outputs": [],
      "stateMutability": "nonpayable",
      "type": "function"
    },
    {
      "inputs": [],
      "name": "completeWithdraw",
      "outputs": [],
      "stateMutability": "nonpayable",
      "type": "function"
    },
    {
      "inputs": [],
      "name": "createOffer",
      "outputs": [],
      "stateMutability": "nonpayable",
      "type": "function"
    },
    {
      "inputs": [],
      "name": "currentOption",
      "outputs": [
        {
          "internalType": "address",
          "name": "",
          "type": "address"
        }
      ],
      "stateMutability": "view",
      "type": "function"
    },
    {
      "inputs": [],
      "name": "currentOtokenPremium",
      "outputs": [
        {
          "internalType": "uint256",
          "name": "",
          "type": "uint256"
        }
      ],
      "stateMutability": "view",
      "type": "function"
    },
    {
      "inputs": [],
      "name": "currentQueuedWithdrawShares",
      "outputs": [
        {
          "internalType": "uint256",
          "name": "",
          "type": "uint256"
        }
      ],
      "stateMutability": "view",
      "type": "function"
    },
    {
      "inputs": [],
      "name": "decimals",
      "outputs": [
        {
          "internalType": "uint8",
          "name": "",
          "type": "uint8"
        }
      ],
      "stateMutability": "view",
      "type": "function"
    },
    {
      "inputs": [
        {
          "internalType": "address",
          "name": "spender",
          "type": "address"
        },
        {
          "internalType": "uint256",
          "name": "subtractedValue",
          "type": "uint256"
        }
      ],
      "name": "decreaseAllowance",
      "outputs": [
        {
          "internalType": "bool",
          "name": "",
          "type": "bool"
        }
      ],
      "stateMutability": "nonpayable",
      "type": "function"
    },
    {
      "inputs": [
        {
          "internalType": "uint256",
          "name": "amount",
          "type": "uint256"
        }
      ],
      "name": "deposit",
      "outputs": [],
      "stateMutability": "nonpayable",
      "type": "function"
    },
    {
      "inputs": [],
      "name": "depositETH",
      "outputs": [],
      "stateMutability": "payable",
      "type": "function"
    },
    {
      "inputs": [
        {
          "internalType": "uint256",
          "name": "amount",
          "type": "uint256"
        },
        {
          "internalType": "address",
          "name": "creditor",
          "type": "address"
        }
      ],
      "name": "depositFor",
      "outputs": [],
      "stateMutability": "nonpayable",
      "type": "function"
    },
    {
      "inputs": [
        {
          "internalType": "address",
          "name": "",
          "type": "address"
        }
      ],
      "name": "depositReceipts",
      "outputs": [
        {
          "internalType": "uint16",
          "name": "round",
          "type": "uint16"
        },
        {
          "internalType": "uint104",
          "name": "amount",
          "type": "uint104"
        },
        {
          "internalType": "uint128",
          "name": "unredeemedShares",
          "type": "uint128"
        }
      ],
      "stateMutability": "view",
      "type": "function"
    },
    {
      "inputs": [],
      "name": "feeRecipient",
      "outputs": [
        {
          "internalType": "address",
          "name": "",
          "type": "address"
        }
      ],
      "stateMutability": "view",
      "type": "function"
    },
    {
      "inputs": [
        {
          "internalType": "address",
          "name": "spender",
          "type": "address"
        },
        {
          "internalType": "uint256",
          "name": "addedValue",
          "type": "uint256"
        }
      ],
      "name": "increaseAllowance",
      "outputs": [
        {
          "internalType": "bool",
          "name": "",
          "type": "bool"
        }
      ],
      "stateMutability": "nonpayable",
      "type": "function"
    },
    {
      "inputs": [
        {
          "internalType": "uint256",
          "name": "numRounds",
          "type": "uint256"
        }
      ],
      "name": "initRounds",
      "outputs": [],
      "stateMutability": "nonpayable",
      "type": "function"
    },
    {
      "inputs": [
        {
          "components": [
            {
              "internalType": "address",
              "name": "_owner",
              "type": "address"
            },
            {
              "internalType": "address",
              "name": "_keeper",
              "type": "address"
            },
            {
              "internalType": "address",
              "name": "_feeRecipient",
              "type": "address"
            },
            {
              "internalType": "uint256",
              "name": "_managementFee",
              "type": "uint256"
            },
            {
              "internalType": "uint256",
              "name": "_performanceFee",
              "type": "uint256"
            },
            {
              "internalType": "string",
              "name": "_tokenName",
              "type": "string"
            },
            {
              "internalType": "string",
              "name": "_tokenSymbol",
              "type": "string"
            },
            {
              "internalType": "address",
              "name": "_optionsPremiumPricer",
              "type": "address"
            },
            {
              "internalType": "address",
              "name": "_strikeSelection",
              "type": "address"
            },
            {
              "internalType": "uint32",
              "name": "_premiumDiscount",
              "type": "uint32"
            }
          ],
          "internalType": "struct RibbonThetaVaultWithSwap.InitParams",
          "name": "_initParams",
          "type": "tuple"
        },
        {
          "components": [
            {
              "internalType": "bool",
              "name": "isPut",
              "type": "bool"
            },
            {
              "internalType": "uint8",
              "name": "decimals",
              "type": "uint8"
            },
            {
              "internalType": "address",
              "name": "asset",
              "type": "address"
            },
            {
              "internalType": "address",
              "name": "underlying",
              "type": "address"
            },
            {
              "internalType": "uint56",
              "name": "minimumSupply",
              "type": "uint56"
            },
            {
              "internalType": "uint104",
              "name": "cap",
              "type": "uint104"
            }
          ],
          "internalType": "struct Vault.VaultParams",
          "name": "_vaultParams",
          "type": "tuple"
        }
      ],
      "name": "initialize",
      "outputs": [],
      "stateMutability": "nonpayable",
      "type": "function"
    },
    {
      "inputs": [
        {
          "internalType": "uint256",
          "name": "numShares",
          "type": "uint256"
        }
      ],
      "name": "initiateWithdraw",
      "outputs": [],
      "stateMutability": "nonpayable",
      "type": "function"
    },
    {
      "inputs": [],
      "name": "keeper",
      "outputs": [
        {
          "internalType": "address",
          "name": "",
          "type": "address"
        }
      ],
      "stateMutability": "view",
      "type": "function"
    },
    {
      "inputs": [],
      "name": "lastQueuedWithdrawAmount",
      "outputs": [
        {
          "internalType": "uint256",
          "name": "",
          "type": "uint256"
        }
      ],
      "stateMutability": "view",
      "type": "function"
    },
    {
      "inputs": [],
      "name": "lastStrikeOverrideRound",
      "outputs": [
        {
          "internalType": "uint16",
          "name": "",
          "type": "uint16"
        }
      ],
      "stateMutability": "view",
      "type": "function"
    },
    {
      "inputs": [],
      "name": "liquidityGauge",
      "outputs": [
        {
          "internalType": "address",
          "name": "",
          "type": "address"
        }
      ],
      "stateMutability": "view",
      "type": "function"
    },
    {
      "inputs": [],
      "name": "managementFee",
      "outputs": [
        {
          "internalType": "uint256",
          "name": "",
          "type": "uint256"
        }
      ],
      "stateMutability": "view",
      "type": "function"
    },
    {
      "inputs": [],
      "name": "maxRedeem",
      "outputs": [],
      "stateMutability": "nonpayable",
      "type": "function"
    },
    {
      "inputs": [],
      "name": "name",
      "outputs": [
        {
          "internalType": "string",
          "name": "",
          "type": "string"
        }
      ],
      "stateMutability": "view",
      "type": "function"
    },
    {
      "inputs": [],
      "name": "nextOption",
      "outputs": [
        {
          "internalType": "address",
          "name": "",
          "type": "address"
        }
      ],
      "stateMutability": "view",
      "type": "function"
    },
    {
      "inputs": [],
      "name": "nextOptionReadyAt",
      "outputs": [
        {
          "internalType": "uint256",
          "name": "",
          "type": "uint256"
        }
      ],
      "stateMutability": "view",
      "type": "function"
    },
    {
      "inputs": [],
      "name": "optionAuctionID",
      "outputs": [
        {
          "internalType": "uint256",
          "name": "",
          "type": "uint256"
        }
      ],
      "stateMutability": "view",
      "type": "function"
    },
    {
      "inputs": [],
      "name": "optionState",
      "outputs": [
        {
          "internalType": "address",
          "name": "nextOption",
          "type": "address"
        },
        {
          "internalType": "address",
          "name": "currentOption",
          "type": "address"
        },
        {
          "internalType": "uint32",
          "name": "nextOptionReadyAt",
          "type": "uint32"
        }
      ],
      "stateMutability": "view",
      "type": "function"
    },
    {
      "inputs": [],
      "name": "optionsPremiumPricer",
      "outputs": [
        {
          "internalType": "address",
          "name": "",
          "type": "address"
        }
      ],
      "stateMutability": "view",
      "type": "function"
    },
    {
      "inputs": [],
      "name": "optionsPurchaseQueue",
      "outputs": [
        {
          "internalType": "address",
          "name": "",
          "type": "address"
        }
      ],
      "stateMutability": "view",
      "type": "function"
    },
    {
      "inputs": [],
      "name": "overriddenStrikePrice",
      "outputs": [
        {
          "internalType": "uint256",
          "name": "",
          "type": "uint256"
        }
      ],
      "stateMutability": "view",
      "type": "function"
    },
    {
      "inputs": [],
      "name": "owner",
      "outputs": [
        {
          "internalType": "address",
          "name": "",
          "type": "address"
        }
      ],
      "stateMutability": "view",
      "type": "function"
    },
    {
      "inputs": [],
      "name": "performanceFee",
      "outputs": [
        {
          "internalType": "uint256",
          "name": "",
          "type": "uint256"
        }
      ],
      "stateMutability": "view",
      "type": "function"
    },
    {
      "inputs": [],
      "name": "premiumDiscount",
      "outputs": [
        {
          "internalType": "uint256",
          "name": "",
          "type": "uint256"
        }
      ],
      "stateMutability": "view",
      "type": "function"
    },
    {
      "inputs": [],
      "name": "pricePerShare",
      "outputs": [
        {
          "internalType": "uint256",
          "name": "",
          "type": "uint256"
        }
      ],
      "stateMutability": "view",
      "type": "function"
    },
    {
      "inputs": [
        {
          "internalType": "uint256",
          "name": "numShares",
          "type": "uint256"
        }
      ],
      "name": "redeem",
      "outputs": [],
      "stateMutability": "nonpayable",
      "type": "function"
    },
    {
      "inputs": [],
      "name": "renounceOwnership",
      "outputs": [],
      "stateMutability": "nonpayable",
      "type": "function"
    },
    {
      "inputs": [],
      "name": "rollToNextOption",
      "outputs": [],
      "stateMutability": "nonpayable",
      "type": "function"
    },
    {
      "inputs": [
        {
          "internalType": "uint256",
          "name": "",
          "type": "uint256"
        }
      ],
      "name": "roundPricePerShare",
      "outputs": [
        {
          "internalType": "uint256",
          "name": "",
          "type": "uint256"
        }
      ],
      "stateMutability": "view",
      "type": "function"
    },
    {
      "inputs": [
        {
          "internalType": "uint256",
          "name": "newAuctionDuration",
          "type": "uint256"
        }
      ],
      "name": "setAuctionDuration",
      "outputs": [],
      "stateMutability": "nonpayable",
      "type": "function"
    },
    {
      "inputs": [
        {
          "internalType": "uint256",
          "name": "newCap",
          "type": "uint256"
        }
      ],
      "name": "setCap",
      "outputs": [],
      "stateMutability": "nonpayable",
      "type": "function"
    },
    {
      "inputs": [
        {
          "internalType": "address",
          "name": "newFeeRecipient",
          "type": "address"
        }
      ],
      "name": "setFeeRecipient",
      "outputs": [],
      "stateMutability": "nonpayable",
      "type": "function"
    },
    {
      "inputs": [
        {
          "internalType": "address",
          "name": "newLiquidityGauge",
          "type": "address"
        }
      ],
      "name": "setLiquidityGauge",
      "outputs": [],
      "stateMutability": "nonpayable",
      "type": "function"
    },
    {
      "inputs": [
        {
          "internalType": "uint256",
          "name": "newManagementFee",
          "type": "uint256"
        }
      ],
      "name": "setManagementFee",
      "outputs": [],
      "stateMutability": "nonpayable",
      "type": "function"
    },
    {
      "inputs": [
        {
          "internalType": "address",
          "name": "newKeeper",
          "type": "address"
        }
      ],
      "name": "setNewKeeper",
      "outputs": [],
      "stateMutability": "nonpayable",
      "type": "function"
    },
    {
      "inputs": [
        {
          "internalType": "address",
          "name": "newOptionsPremiumPricer",
          "type": "address"
        }
      ],
      "name": "setOptionsPremiumPricer",
      "outputs": [],
      "stateMutability": "nonpayable",
      "type": "function"
    },
    {
      "inputs": [
        {
          "internalType": "uint256",
          "name": "newPerformanceFee",
          "type": "uint256"
        }
      ],
      "name": "setPerformanceFee",
      "outputs": [],
      "stateMutability": "nonpayable",
      "type": "function"
    },
    {
      "inputs": [
        {
          "internalType": "uint256",
          "name": "newPremiumDiscount",
          "type": "uint256"
        }
      ],
      "name": "setPremiumDiscount",
      "outputs": [],
      "stateMutability": "nonpayable",
      "type": "function"
    },
    {
      "inputs": [
        {
          "internalType": "uint128",
          "name": "strikePrice",
          "type": "uint128"
        }
      ],
      "name": "setStrikePrice",
      "outputs": [],
      "stateMutability": "nonpayable",
      "type": "function"
    },
    {
      "inputs": [
        {
          "internalType": "address",
          "name": "newStrikeSelection",
          "type": "address"
        }
      ],
      "name": "setStrikeSelection",
      "outputs": [],
      "stateMutability": "nonpayable",
      "type": "function"
    },
    {
      "inputs": [
        {
          "components": [
            {
              "internalType": "uint256",
              "name": "swapId",
              "type": "uint256"
            },
            {
              "internalType": "uint256",
              "name": "nonce",
              "type": "uint256"
            },
            {
              "internalType": "address",
              "name": "signerWallet",
              "type": "address"
            },
            {
              "internalType": "uint256",
              "name": "sellAmount",
              "type": "uint256"
            },
            {
              "internalType": "uint256",
              "name": "buyAmount",
              "type": "uint256"
            },
            {
              "internalType": "address",
              "name": "referrer",
              "type": "address"
            },
            {
              "internalType": "uint8",
              "name": "v",
              "type": "uint8"
            },
            {
              "internalType": "bytes32",
              "name": "r",
              "type": "bytes32"
            },
            {
              "internalType": "bytes32",
              "name": "s",
              "type": "bytes32"
            }
          ],
          "internalType": "struct ISwap.Bid[]",
          "name": "bids",
          "type": "tuple[]"
        }
      ],
      "name": "settleOffer",
      "outputs": [],
      "stateMutability": "nonpayable",
      "type": "function"
    },
    {
      "inputs": [
        {
          "internalType": "address",
          "name": "account",
          "type": "address"
        }
      ],
      "name": "shareBalances",
      "outputs": [
        {
          "internalType": "uint256",
          "name": "heldByAccount",
          "type": "uint256"
        },
        {
          "internalType": "uint256",
          "name": "heldByVault",
          "type": "uint256"
        }
      ],
      "stateMutability": "view",
      "type": "function"
    },
    {
      "inputs": [
        {
          "internalType": "address",
          "name": "account",
          "type": "address"
        }
      ],
      "name": "shares",
      "outputs": [
        {
          "internalType": "uint256",
          "name": "",
          "type": "uint256"
        }
      ],
      "stateMutability": "view",
      "type": "function"
    },
    {
      "inputs": [
        {
          "internalType": "uint256",
          "name": "numShares",
          "type": "uint256"
        }
      ],
      "name": "stake",
      "outputs": [],
      "stateMutability": "nonpayable",
      "type": "function"
    },
    {
      "inputs": [],
      "name": "strikeSelection",
      "outputs": [
        {
          "internalType": "address",
          "name": "",
          "type": "address"
        }
      ],
      "stateMutability": "view",
      "type": "function"
    },
    {
      "inputs": [],
      "name": "symbol",
      "outputs": [
        {
          "internalType": "string",
          "name": "",
          "type": "string"
        }
      ],
      "stateMutability": "view",
      "type": "function"
    },
    {
      "inputs": [],
      "name": "totalBalance",
      "outputs": [
        {
          "internalType": "uint256",
          "name": "",
          "type": "uint256"
        }
      ],
      "stateMutability": "view",
      "type": "function"
    },
    {
      "inputs": [],
      "name": "totalPending",
      "outputs": [
        {
          "internalType": "uint256",
          "name": "",
          "type": "uint256"
        }
      ],
      "stateMutability": "view",
      "type": "function"
    },
    {
      "inputs": [],
      "name": "totalSupply",
      "outputs": [
        {
          "internalType": "uint256",
          "name": "",
          "type": "uint256"
        }
      ],
      "stateMutability": "view",
      "type": "function"
    },
    {
      "inputs": [
        {
          "internalType": "address",
          "name": "recipient",
          "type": "address"
        },
        {
          "internalType": "uint256",
          "name": "amount",
          "type": "uint256"
        }
      ],
      "name": "transfer",
      "outputs": [
        {
          "internalType": "bool",
          "name": "",
          "type": "bool"
        }
      ],
      "stateMutability": "nonpayable",
      "type": "function"
    },
    {
      "inputs": [
        {
          "internalType": "address",
          "name": "sender",
          "type": "address"
        },
        {
          "internalType": "address",
          "name": "recipient",
          "type": "address"
        },
        {
          "internalType": "uint256",
          "name": "amount",
          "type": "uint256"
        }
      ],
      "name": "transferFrom",
      "outputs": [
        {
          "internalType": "bool",
          "name": "",
          "type": "bool"
        }
      ],
      "stateMutability": "nonpayable",
      "type": "function"
    },
    {
      "inputs": [
        {
          "internalType": "address",
          "name": "newOwner",
          "type": "address"
        }
      ],
      "name": "transferOwnership",
      "outputs": [],
      "stateMutability": "nonpayable",
      "type": "function"
    },
    {
      "inputs": [],
      "name": "vaultParams",
      "outputs": [
        {
          "internalType": "bool",
          "name": "isPut",
          "type": "bool"
        },
        {
          "internalType": "uint8",
          "name": "decimals",
          "type": "uint8"
        },
        {
          "internalType": "address",
          "name": "asset",
          "type": "address"
        },
        {
          "internalType": "address",
          "name": "underlying",
          "type": "address"
        },
        {
          "internalType": "uint56",
          "name": "minimumSupply",
          "type": "uint56"
        },
        {
          "internalType": "uint104",
          "name": "cap",
          "type": "uint104"
        }
      ],
      "stateMutability": "view",
      "type": "function"
    },
    {
      "inputs": [],
      "name": "vaultState",
      "outputs": [
        {
          "internalType": "uint16",
          "name": "round",
          "type": "uint16"
        },
        {
          "internalType": "uint104",
          "name": "lockedAmount",
          "type": "uint104"
        },
        {
          "internalType": "uint104",
          "name": "lastLockedAmount",
          "type": "uint104"
        },
        {
          "internalType": "uint128",
          "name": "totalPending",
          "type": "uint128"
        },
        {
          "internalType": "uint128",
          "name": "queuedWithdrawShares",
          "type": "uint128"
        }
      ],
      "stateMutability": "view",
      "type": "function"
    },
    {
      "inputs": [
        {
          "internalType": "uint256",
          "name": "amount",
          "type": "uint256"
        }
      ],
      "name": "withdrawInstantly",
      "outputs": [],
      "stateMutability": "nonpayable",
      "type": "function"
    },
    {
      "inputs": [
        {
          "internalType": "address",
          "name": "",
          "type": "address"
        }
      ],
      "name": "withdrawals",
      "outputs": [
        {
          "internalType": "uint16",
          "name": "round",
          "type": "uint16"
        },
        {
          "internalType": "uint128",
          "name": "shares",
          "type": "uint128"
        }
      ],
      "stateMutability": "view",
      "type": "function"
    }
  ],
  "transactionHash": "0x5b115cfc9aaee6177dc525d80512fef6f276b7179ab2a2a7d6f0b1dfa9051534",
  "args": [
    "0xd0A1E359811322d97991E03f863a0C30C2cF029C",
    "0x7e6edA50d1c833bE936492BF42C1BF376239E9e2",
    "0xb9D17Ab06e27f63d0FD75099d5874a194eE623e2",
    "0xdEE7D0f8CcC0f7AC7e45Af454e5e7ec1552E8e4e",
    "0x8c7C60d766951c5C570bBb7065C993070061b795",
    "0x40Ae66EBbE106592EF5e160d2E26404Ec865604C"
  ],
  "solcInputHash": "caa66dd290ad2c7ade96b119991e4226",
  "bytecode": "0x6101406040523480156200001257600080fd5b5060405162005e6238038062005e62833981016040819052620000359162000252565b85858484846001600160a01b0385166200007f5760405162461bcd60e51b8152602060048201526006602482015265042beeecae8d60d31b60448201526064015b60405180910390fd5b6001600160a01b038416620000c05760405162461bcd60e51b8152602060048201526006602482015265215f7573646360d01b604482015260640162000076565b6001600160a01b038116620001095760405162461bcd60e51b815260206004820152600e60248201526d0857dcddd85c10dbdb9d1c9858dd60921b604482015260640162000076565b6001600160a01b038316620001555760405162461bcd60e51b815260206004820152601160248201527010afb3b0b6b6b0a1b7b73a3937b63632b960791b604482015260640162000076565b6001600160a01b0382166200019c5760405162461bcd60e51b815260206004820152600c60248201526b0857db585c99da5b941bdbdb60a21b604482015260640162000076565b6001600160601b0319606095861b811660805293851b841660a05291841b831660c052831b821660e05290911b16610100526001600160a01b038416620002185760405162461bcd60e51b815260206004820152600f60248201526e215f6f546f6b656e466163746f727960881b604482015260640162000076565b50505060601b6001600160601b0319166101205250620002d29050565b80516001600160a01b03811681146200024d57600080fd5b919050565b60008060008060008060c087890312156200026b578182fd5b620002768762000235565b9550620002866020880162000235565b9450620002966040880162000235565b9350620002a66060880162000235565b9250620002b66080880162000235565b9150620002c660a0880162000235565b90509295509295509295565b60805160601c60a05160601c60c05160601c60e05160601c6101005160601c6101205160601c615ada6200038860003960008181610f1e0152612eb6015260008181610e7401528181611cae015261406e015260008181610881015261258e01526000818161055601528181611b530152818161256601526141a7015260008181610acb0152612edb015260008181610d8a01528181612b9301528181612c3f0152818161369101526136ce0152615ada6000f3fe6080604052600436106104895760003560e01c80638da5cb5b11610255578063b9f8092b11610144578063e73c63d5116100c1578063f756fa2111610085578063f756fa211461102e578063f87c7d9314611043578063f957a06714611058578063f9a0be6814611078578063fba7dc6114611099578063fe56e232146110ba57600080fd5b8063e73c63d514610f9b578063e74b981b14610fb1578063f2fde38b14610fd1578063f6326fb314610ff1578063f656ba5114610ff957600080fd5b8063d5f2638211610108578063d5f2638214610ed6578063db006a7514610eec578063db43e86214610f0c578063dd62ed3e14610f40578063e278fe6f14610f8657600080fd5b8063b9f8092b14610e2d578063ce7c2ac214610e42578063cf3afa5114610e62578063d13f1b3e14610e96578063d164cc1514610eb657600080fd5b8063a694fc3a116101d2578063ad7a672f11610196578063ad7a672f14610dac578063afa6626414610dc1578063b058ed6914610de1578063b4d1d79514610df6578063b6b55f2514610e0d57600080fd5b8063a694fc3a14610d02578063a6f7f5d614610d22578063a9059cbb14610d38578063aced166114610d58578063ad5c464814610d7857600080fd5b8063a083ff1711610219578063a083ff1714610c1f578063a285c9e814610c82578063a2db9d8314610ca4578063a457c2d714610cc2578063a497e67414610ce257600080fd5b80638da5cb5b14610b0b57806395d89b4114610b2957806399530b0614610b3e5780639be43daa14610b535780639fcc2d7514610b7357600080fd5b8063469048401161037c5780636f31ab34116102f95780637e108d52116102bd5780637e108d5214610a4057806383536ff314610a6057806387153eb114610a765780638778878214610aa357806389a3027114610ab95780638b10cc7c14610aed57600080fd5b80636f31ab341461095c57806370897b231461097157806370a0823114610991578063715018a6146109c75780637a9262a2146109dc57600080fd5b8063600a2cfb11610340578063600a2cfb1461085a578063650cce8a1461086f5780636719b2ee146108a3578063692308681461092757806369b411701461094757600080fd5b806346904840146107cd57806347786d37146107ed5780634b2431d91461080d578063503c70aa1461082457806355489bb21461083a57600080fd5b806330630da41161040a5780633ec143d3116103ce5780633ec143d31461072b5780633f23bb73146107595780633f90916a14610779578063432833a6146107975780634603c0aa146107ad57600080fd5b806330630da414610683578063313ce567146106a3578063355274ea146106cd57806336efd16f146106eb578063395093511461070b57600080fd5b80631a92f6c2116104515780631a92f6c2146105445780631cacf9b91461059057806323b872dd146105b05780632728f333146105d05780632775d01c1461066357600080fd5b8063048bf0851461048e57806306fdde03146104b0578063095ea7b3146104db5780630cbf54c81461050b57806318160ddd1461052f575b600080fd5b34801561049a57600080fd5b506104ae6104a936600461502e565b6110da565b005b3480156104bc57600080fd5b506104c5611130565b6040516104d2919061543e565b60405180910390f35b3480156104e757600080fd5b506104fb6104f63660046150c2565b6111c2565b60405190151581526020016104d2565b34801561051757600080fd5b5061052160fb5481565b6040519081526020016104d2565b34801561053b57600080fd5b50609954610521565b34801561055057600080fd5b506105787f000000000000000000000000000000000000000000000000000000000000000081565b6040516001600160a01b0390911681526020016104d2565b34801561059c57600080fd5b506104ae6105ab3660046151b8565b6111d9565b3480156105bc57600080fd5b506104fb6105cb366004615082565b6114d4565b3480156105dc57600080fd5b5060cf5460d05461061e9161ffff8116916001600160681b03620100008304811692600160781b900416906001600160801b0380821691600160801b90041685565b6040805161ffff90961686526001600160681b03948516602087015293909216928401929092526001600160801b03918216606084015216608082015260a0016104d2565b34801561066f57600080fd5b506104ae61067e36600461523b565b611580565b34801561068f57600080fd5b506104ae61069e36600461502e565b611723565b3480156106af57600080fd5b5060cc54610100900460ff1660405160ff90911681526020016104d2565b3480156106d957600080fd5b5060ce546001600160681b0316610521565b3480156106f757600080fd5b506104ae61070636600461526b565b6117bb565b34801561071757600080fd5b506104fb6107263660046150c2565b611843565b34801561073757600080fd5b5060f9546107469061ffff1681565b60405161ffff90911681526020016104d2565b34801561076557600080fd5b5061052161077436600461502e565b61187f565b34801561078557600080fd5b5060d0546001600160801b0316610521565b3480156107a357600080fd5b5061052160fc5481565b3480156107b957600080fd5b506104ae6107c836600461502e565b6118d2565b3480156107d957600080fd5b5060d354610578906001600160a01b031681565b3480156107f957600080fd5b506104ae61080836600461523b565b611974565b34801561081957600080fd5b506105216101025481565b34801561083057600080fd5b5061052160fd5481565b34801561084657600080fd5b506104ae610855366004615214565b611a4f565b34801561086657600080fd5b506104ae611ae7565b34801561087b57600080fd5b506105787f000000000000000000000000000000000000000000000000000000000000000081565b3480156108af57600080fd5b506108f66108be36600461502e565b60c96020526000908152604090205461ffff8116906201000081046001600160681b031690600160781b90046001600160801b031683565b6040805161ffff90941684526001600160681b0390921660208401526001600160801b0316908201526060016104d2565b34801561093357600080fd5b506104ae61094236600461512b565b611c42565b34801561095357600080fd5b50610521600081565b34801561096857600080fd5b506104ae611d20565b34801561097d57600080fd5b506104ae61098c36600461523b565b611d5d565b34801561099d57600080fd5b506105216109ac36600461502e565b6001600160a01b031660009081526097602052604090205490565b3480156109d357600080fd5b506104ae611e24565b3480156109e857600080fd5b50610a1e6109f736600461502e565b60cb6020526000908152604090205461ffff8116906201000090046001600160801b031682565b6040805161ffff90931683526001600160801b039091166020830152016104d2565b348015610a4c57600080fd5b506104ae610a5b36600461523b565b611e5a565b348015610a6c57600080fd5b5061052160f75481565b348015610a8257600080fd5b50610521610a9136600461523b565b60ca6020526000908152604090205481565b348015610aaf57600080fd5b5061052160d55481565b348015610ac557600080fd5b506105787f000000000000000000000000000000000000000000000000000000000000000081565b348015610af957600080fd5b5060d2546001600160a01b0316610578565b348015610b1757600080fd5b506065546001600160a01b0316610578565b348015610b3557600080fd5b506104c5611ea4565b348015610b4a57600080fd5b50610521611eb3565b348015610b5f57600080fd5b506104ae610b6e36600461523b565b611eed565b348015610b7f57600080fd5b5060cc5460cd5460ce54610bcf9260ff808216936101008304909116926001600160a01b036201000090930483169282169166ffffffffffffff600160a01b90910416906001600160681b031686565b60408051961515875260ff90951660208701526001600160a01b03938416948601949094529116606084015266ffffffffffffff1660808301526001600160681b031660a082015260c0016104d2565b348015610c2b57600080fd5b5060d15460d254610c56916001600160a01b039081169190811690600160a01b900463ffffffff1683565b604080516001600160a01b03948516815293909216602084015263ffffffff16908201526060016104d2565b348015610c8e57600080fd5b5060d254600160a01b900463ffffffff16610521565b348015610cb057600080fd5b5060d1546001600160a01b0316610578565b348015610cce57600080fd5b506104fb610cdd3660046150c2565b611fe7565b348015610cee57600080fd5b506104ae610cfd36600461523b565b612080565b348015610d0e57600080fd5b506104ae610d1d36600461523b565b61213d565b348015610d2e57600080fd5b5061052160d65481565b348015610d4457600080fd5b506104fb610d533660046150c2565b61223b565b348015610d6457600080fd5b5060d454610578906001600160a01b031681565b348015610d8457600080fd5b506105787f000000000000000000000000000000000000000000000000000000000000000081565b348015610db857600080fd5b50610521612248565b348015610dcd57600080fd5b5060f554610578906001600160a01b031681565b348015610ded57600080fd5b506104ae612376565b348015610e0257600080fd5b5061052162093a8081565b348015610e1957600080fd5b506104ae610e2836600461523b565b6123d0565b348015610e3957600080fd5b506104ae612444565b348015610e4e57600080fd5b50610521610e5d36600461502e565b61263a565b348015610e6e57600080fd5b506105787f000000000000000000000000000000000000000000000000000000000000000081565b348015610ea257600080fd5b506104ae610eb136600461523b565b612657565b348015610ec257600080fd5b506104ae610ed136600461502e565b61271c565b348015610ee257600080fd5b5061052160f85481565b348015610ef857600080fd5b506104ae610f0736600461523b565b6127ab565b348015610f1857600080fd5b506105787f000000000000000000000000000000000000000000000000000000000000000081565b348015610f4c57600080fd5b50610521610f5b36600461504a565b6001600160a01b03918216600090815260986020908152604080832093909416825291909152205490565b348015610f9257600080fd5b506104ae612818565b348015610fa757600080fd5b5061052160fa5481565b348015610fbd57600080fd5b506104ae610fcc36600461502e565b6129d8565b348015610fdd57600080fd5b506104ae610fec36600461502e565b612acb565b6104ae612b66565b34801561100557600080fd5b5061101961101436600461502e565b612cb7565b604080519283526020830191909152016104d2565b34801561103a57600080fd5b506104ae612d9a565b34801561104f57600080fd5b506104ae612def565b34801561106457600080fd5b5060f654610578906001600160a01b031681565b34801561108457600080fd5b5061010054610578906001600160a01b031681565b3480156110a557600080fd5b5061010154610578906001600160a01b031681565b3480156110c657600080fd5b506104ae6110d536600461523b565b613059565b6065546001600160a01b0316331461110d5760405162461bcd60e51b8152600401611104906154c0565b60405180910390fd5b61010080546001600160a01b0319166001600160a01b0392909216919091179055565b6060609a805461113f906158a4565b80601f016020809104026020016040519081016040528092919081815260200182805461116b906158a4565b80156111b85780601f1061118d576101008083540402835291602001916111b8565b820191906000526020600020905b81548152906001019060200180831161119b57829003601f168201915b5050505050905090565b60006111cf33848461313a565b5060015b92915050565b600054610100900460ff16806111f2575060005460ff16155b61120e5760405162461bcd60e51b815260040161110490615472565b600054610100900460ff16158015611230576000805461ffff19166101011790555b6112f5611240602085018561502e565b611250604086016020870161502e565b611260606087016040880161502e565b6060870135608088013561127760a08a018a6156da565b8080601f0160208091040260200160405190810160405280939291908181526020018383808284376000920191909152506112b99250505060c08b018b6156da565b8080601f0160208091040260200160405190810160405280939291908181526020018383808284376000920191909152508c925061325f915050565b6000611308610100850160e0860161502e565b6001600160a01b031614156113585760405162461bcd60e51b815260206004820152601660248201527510afb7b83a34b7b739a83932b6b4bab6a83934b1b2b960511b6044820152606401611104565b600061136c6101208501610100860161502e565b6001600160a01b031614156113b75760405162461bcd60e51b815260206004820152601160248201527010afb9ba3934b5b2a9b2b632b1ba34b7b760791b6044820152606401611104565b60006113cb610140850161012086016152d8565b63ffffffff161180156113ff57506113e5600a6064615842565b6113f7610140850161012086016152d8565b63ffffffff16105b61143f5760405162461bcd60e51b81526020600482015260116024820152700857dc1c995b5a5d5b511a5cd8dbdd5b9d607a1b6044820152606401611104565b611450610100840160e0850161502e565b60f580546001600160a01b0319166001600160a01b03929092169190911790556114826101208401610100850161502e565b60f680546001600160a01b0319166001600160a01b03929092169190911790556114b4610140840161012085016152d8565b63ffffffff1660f75580156114cf576000805461ff00191690555b505050565b60006114e184848461349e565b6001600160a01b0384166000908152609860209081526040808320338452909152902054828110156115665760405162461bcd60e51b815260206004820152602860248201527f45524332303a207472616e7366657220616d6f756e74206578636565647320616044820152676c6c6f77616e636560c01b6064820152608401611104565b611573853385840361313a565b60019150505b9392505050565b600260015414156115a35760405162461bcd60e51b815260040161110490615516565b600260015533600090815260c96020526040902060cf5461ffff16826115db5760405162461bcd60e51b8152600401611104906154f5565b815461ffff16811461161f5760405162461bcd60e51b815260206004820152600d60248201526c125b9d985b1a59081c9bdd5b99609a1b6044820152606401611104565b81546201000090046001600160681b0316838110156116705760405162461bcd60e51b815260206004820152600d60248201526c115e18d9595908185b5bdd5b9d609a1b6044820152606401611104565b61167a818561366e565b83546001600160681b0391909116620100000262010000600160781b031990911617835560d0546116b4906001600160801b03168561366e565b60d080546001600160801b0319166001600160801b0392909216919091179055604080518581526020810184905233917fab2daf3c146ca6416cbccd2a86ed2ba995e171ef6319df14a38aef01403a9c96910160405180910390a2611719338561367a565b5050600180555050565b6065546001600160a01b0316331461174d5760405162461bcd60e51b8152600401611104906154c0565b6001600160a01b0381166117995760405162461bcd60e51b815260206004820152601360248201527210b732bba9ba3934b5b2a9b2b632b1ba34b7b760691b6044820152606401611104565b60f680546001600160a01b0319166001600160a01b0392909216919091179055565b600260015414156117de5760405162461bcd60e51b815260040161110490615516565b6002600155816118005760405162461bcd60e51b8152600401611104906154f5565b6001600160a01b03811661181357600080fd5b61181d82826137db565b60cc5461183b906201000090046001600160a01b0316333085613a6d565b505060018055565b3360008181526098602090815260408083206001600160a01b038716845290915281205490916111cf91859061187a90869061571f565b61313a565b60cc5460009060ff61010090910416816118b561189b60995490565b6118a3612248565b60d0546001600160801b031685613ad8565b90506118ca6118c38561263a565b8284613b18565b949350505050565b6065546001600160a01b031633146118fc5760405162461bcd60e51b8152600401611104906154c0565b6001600160a01b0381166119525760405162461bcd60e51b815260206004820152601860248201527f216e65774f7074696f6e735072656d69756d50726963657200000000000000006044820152606401611104565b60f580546001600160a01b0319166001600160a01b0392909216919091179055565b6065546001600160a01b0316331461199e5760405162461bcd60e51b8152600401611104906154c0565b600081116119d85760405162461bcd60e51b81526020600482015260076024820152660216e65774361760cc1b6044820152606401611104565b6119e181613b7a565b60ce54604080516001600160681b039092168252602082018390527f5f86edbb9d92228a9edc3f0ebc0f001bda1ea345ac7335e0eeef3504b31d1a1c910160405180910390a160ce80546cffffffffffffffffffffffffff19166001600160681b0392909216919091179055565b6065546001600160a01b03163314611a795760405162461bcd60e51b8152600401611104906154c0565b6000816001600160801b031611611ac15760405162461bcd60e51b815260206004820152600c60248201526b21737472696b65507269636560a01b6044820152606401611104565b6001600160801b031660fa5560cf5460f9805461ffff191661ffff909216919091179055565b60d4546001600160a01b03163314611b115760405162461bcd60e51b815260040161110490615451565b60026001541415611b345760405162461bcd60e51b815260040161110490615516565b600260015560d2546040516358ffbb3d60e01b81526001600160a01b037f000000000000000000000000000000000000000000000000000000000000000081166004830152909116602482015260009073529fd34520A77ebC6677AAa64C5608c8eFf98Ef8906358ffbb3d9060440160206040518083038186803b158015611bbb57600080fd5b505af4158015611bcf573d6000803e3d6000fd5b505050506040513d601f19601f82011682018060405250810190611bf39190615253565b60cf54909150611c12906201000090046001600160681b03168261366e565b60cf80546001600160681b0392909216620100000262010000600160781b03199092169190911790555060018055565b60d4546001600160a01b03163314611c6c5760405162461bcd60e51b815260040161110490615451565b60026001541415611c8f5760405162461bcd60e51b815260040161110490615516565b600260015560fc54604051633545cbf360e21b81526001600160a01b037f0000000000000000000000000000000000000000000000000000000000000000169163d5172fcc91611ce6919086908690600401615617565b600060405180830381600087803b158015611d0057600080fd5b505af1158015611d14573d6000803e3d6000fd5b50506001805550505050565b60026001541415611d435760405162461bcd60e51b815260040161110490615516565b6002600181905550611d5760006001613bc4565b60018055565b6065546001600160a01b03163314611d875760405162461bcd60e51b8152600401611104906154c0565b611d95620f42406064615842565b8110611de35760405162461bcd60e51b815260206004820152601760248201527f496e76616c696420706572666f726d616e6365206665650000000000000000006044820152606401611104565b60d55460408051918252602082018390527f24867dfb6fcb9970a07be21024956524abe7a1837faa903ff0e99aaa40cf893e910160405180910390a160d555565b6065546001600160a01b03163314611e4e5760405162461bcd60e51b8152600401611104906154c0565b611e586000613d73565b565b60026001541415611e7d5760405162461bcd60e51b815260040161110490615516565b6002600155611e8b81613dc5565b61010254611e999082613f94565b610102555060018055565b6060609b805461113f906158a4565b6000611ee8611ec160995490565b611ec9612248565b60d05460cc546001600160801b0390911690610100900460ff16613ad8565b905090565b60026001541415611f105760405162461bcd60e51b815260040161110490615516565b600260015580611f4f5760405162461bcd60e51b815260206004820152600a602482015269216e756d526f756e647360b01b6044820152606401611104565b60cf5461ffff1660005b82811015611fde576000611f6d828461571f565b600081815260ca602052604090205490915015611fba5760405162461bcd60e51b815260206004820152600b60248201526a125b9a5d1a585b1a5e995960aa1b6044820152606401611104565b600090815260ca602052604090206001905580611fd6816158df565b915050611f59565b50506001805550565b3360009081526098602090815260408083206001600160a01b0386168452909152812054828110156120695760405162461bcd60e51b815260206004820152602560248201527f45524332303a2064656372656173656420616c6c6f77616e63652062656c6f77604482015264207a65726f60d81b6064820152608401611104565b612076338585840361313a565b5060019392505050565b6065546001600160a01b031633146120aa5760405162461bcd60e51b8152600401611104906154c0565b61012c8110156120fc5760405162461bcd60e51b815260206004820152601860248201527f496e76616c69642061756374696f6e206475726174696f6e00000000000000006044820152606401611104565b60fb5460408051918252602082018390527f5acd982e2240ed224a69aa03dab039d3797c108e4b5f288cd7dd6ca181b275f3910160405180910390a160fb55565b600260015414156121605760405162461bcd60e51b815260040161110490615516565b6002600155610100546001600160a01b03168061217c57600080fd5b6000821161218957600080fd5b33600090815260976020526040902054828110156121b5576121b56121ae848361366e565b6000613bc4565b6121c033308561349e565b6121cb30838561313a565b6040516383df674760e01b815260048101849052336024820152600060448201526001600160a01b038316906383df674790606401600060405180830381600087803b15801561221a57600080fd5b505af115801561222e573d6000803e3d6000fd5b5050600180555050505050565b60006111cf33848461349e565b60d2546000906001600160a01b03166122db5760cc546040516370a0823160e01b8152306004820152620100009091046001600160a01b0316906370a082319060240160206040518083038186803b1580156122a357600080fd5b505afa1580156122b7573d6000803e3d6000fd5b505050506040513d601f19601f82011682018060405250810190611ee89190615253565b60cc546040516370a0823160e01b8152306004820152611ee8916201000090046001600160a01b0316906370a082319060240160206040518083038186803b15801561232657600080fd5b505afa15801561233a573d6000803e3d6000fd5b505050506040513d601f19601f8201168201806040525081019061235e9190615253565b60cf546201000090046001600160681b031690613f94565b60d4546001600160a01b031633146123a05760405162461bcd60e51b815260040161110490615451565b600260015414156123c35760405162461bcd60e51b815260040161110490615516565b6002600155611d57613fa0565b600260015414156123f35760405162461bcd60e51b815260040161110490615516565b6002600155806124155760405162461bcd60e51b8152600401611104906154f5565b61241f81336137db565b60cc5461243d906201000090046001600160a01b0316333084613a6d565b5060018055565b60d4546001600160a01b0316331461246e5760405162461bcd60e51b815260040161110490615451565b600260015414156124915760405162461bcd60e51b815260040161110490615516565b600260015560d1546001600160a01b0316806124dd5760405162461bcd60e51b815260206004820152600b60248201526a10b732bc3a27b83a34b7b760a91b6044820152606401611104565b60d280546001600160a01b03199081166001600160a01b03841690811790925560d18054909116905560cf54604051620100009091046001600160681b03168082529133917f045c558fdce4714c5816d53820d27420f4cd860892df203fe636384d8d19aa019060200160405180910390a3604051632904c23960e01b81526001600160a01b037f0000000000000000000000000000000000000000000000000000000000000000811660048301527f000000000000000000000000000000000000000000000000000000000000000081166024830152831660448201526064810182905273529fd34520A77ebC6677AAa64C5608c8eFf98Ef890632904c2399060840160206040518083038186803b1580156125f957600080fd5b505af415801561260d573d6000803e3d6000fd5b505050506040513d601f19601f820116820180604052508101906126319190615253565b5061183b613fa0565b600080600061264884612cb7565b90925090506118ca8282613f94565b60d4546001600160a01b031633146126815760405162461bcd60e51b815260040161110490615451565b60008111801561269c5750612698600a6064615842565b8111155b6126db5760405162461bcd60e51b815260206004820152601060248201526f125b9d985b1a5908191a5cd8dbdd5b9d60821b6044820152606401611104565b60f75460408051918252602082018390527f4cd657fde404967d63a338fb06c5c98751a9df57dfae6dc333a432faf8a5f656910160405180910390a160f755565b6065546001600160a01b031633146127465760405162461bcd60e51b8152600401611104906154c0565b6001600160a01b0381166127895760405162461bcd60e51b815260206004820152600a60248201526910b732bba5b2b2b832b960b11b6044820152606401611104565b60d480546001600160a01b0319166001600160a01b0392909216919091179055565b600260015414156127ce5760405162461bcd60e51b815260040161110490615516565b60026001558061280d5760405162461bcd60e51b815260206004820152600a602482015269216e756d53686172657360b01b6044820152606401611104565b61243d816000613bc4565b6002600154141561283b5760405162461bcd60e51b815260040161110490615516565b600260015560d2546001600160a01b031680151580612860575060cf5461ffff166001145b61289b5760405162461bcd60e51b815260206004820152600c60248201526b149bdd5b990818db1bdcd95960a21b6044820152606401611104565b60d2546128b0906001600160a01b0316614113565b60006101025490506000806128c760fd5484614289565b60fd81905560d05491935091506000906128f190600160801b90046001600160801b031685613f94565b90506128fc81614510565b60d080546001600160801b03808416600160801b02911617905560006101025561292583613b7a565b60cf805462010000600160781b031916620100006001600160681b0386160217905560006129534282613f94565b905063ffffffff8111156129a95760405162461bcd60e51b815260206004820152601860248201527f4f766572666c6f77206e6578744f7074696f6e526561647900000000000000006044820152606401611104565b60d2805463ffffffff909216600160a01b0263ffffffff60a01b19909216919091179055505060018055505050565b6065546001600160a01b03163314612a025760405162461bcd60e51b8152600401611104906154c0565b6001600160a01b038116612a4b5760405162461bcd60e51b815260206004820152601060248201526f085b995dd19959549958da5c1a595b9d60821b6044820152606401611104565b60d3546001600160a01b0382811691161415612aa95760405162461bcd60e51b815260206004820152601860248201527f4d757374206265206e657720666565526563697069656e7400000000000000006044820152606401611104565b60d380546001600160a01b0319166001600160a01b0392909216919091179055565b6065546001600160a01b03163314612af55760405162461bcd60e51b8152600401611104906154c0565b6001600160a01b038116612b5a5760405162461bcd60e51b815260206004820152602660248201527f4f776e61626c653a206e6577206f776e657220697320746865207a65726f206160448201526564647265737360d01b6064820152608401611104565b612b6381613d73565b50565b60026001541415612b895760405162461bcd60e51b815260040161110490615516565b600260015560cc547f00000000000000000000000000000000000000000000000000000000000000006001600160a01b03908116620100009092041614612bfa5760405162461bcd60e51b8152602060048201526005602482015264042ae8aa8960db1b6044820152606401611104565b60003411612c335760405162461bcd60e51b81526020600482015260066024820152652176616c756560d01b6044820152606401611104565b612c3d34336137db565b7f00000000000000000000000000000000000000000000000000000000000000006001600160a01b031663d0e30db0346040518263ffffffff1660e01b81526004016000604051808303818588803b158015612c9857600080fd5b505af1158015612cac573d6000803e3d6000fd5b505060018055505050565b6001600160a01b038116600090815260c9602090815260408083208151606081018352905461ffff81168083526201000082046001600160681b031694830194909452600160781b90046001600160801b031691810191909152829160011115612d39575050506001600160a01b031660009081526097602052604081205491565b60cf54815161ffff908116600090815260ca602052604081205460cc549193612d6f93869391169190610100900460ff1661455a565b9050612d90856001600160a01b031660009081526097602052604090205490565b9590945092505050565b60026001541415612dbd5760405162461bcd60e51b815260040161110490615516565b60026001556000612dcc6145cb565b60fd54909150612ddc908261366e565b6001600160801b031660fd555060018055565b60d4546001600160a01b03163314612e195760405162461bcd60e51b815260040161110490615451565b60026001541415612e3c5760405162461bcd60e51b815260040161110490615516565b600260015560d2546001600160a01b031680158015612e62575060cf5461ffff16600114155b612ea15760405162461bcd60e51b815260206004820152601060248201526f149bdd5b99081b9bdd0818db1bdcd95960821b6044820152606401611104565b60408051610120810182526001600160a01b037f0000000000000000000000000000000000000000000000000000000000000000811682527f0000000000000000000000000000000000000000000000000000000000000000811660208301528381168284015260006060830181905260f95461ffff16608084015260fa5460a084015260f654821660c084015260f55490911660e083015260f75461010083015291516377e3ce0d60e11b815290919081908190819073529fd34520A77ebC6677AAa64C5608c8eFf98Ef89063efc79c1a90612f8890889060cc9060cf9060040161554d565b60806040518083038186803b158015612fa057600080fd5b505af4158015612fb4573d6000803e3d6000fd5b505050506040513d601f19601f82011682018060405250810190612fd891906150ed565b93509350935093507fa217999b1c125c2a996f712c5f26a28addad7167bd8a67d5bd5b2a751148abb0828260405161301a929190918252602082015260400190565b60405180910390a1505060d180546001600160a01b0319166001600160a01b0393909316929092179091556001600160681b031660f855505060018055565b6065546001600160a01b031633146130835760405162461bcd60e51b8152600401611104906154c0565b613091620f42406064615842565b81106130d85760405162461bcd60e51b8152602060048201526016602482015275496e76616c6964206d616e6167656d656e742066656560501b6044820152606401611104565b60006130f563031ba3096130ef84620f4240614788565b90614794565b60d65460408051918252602082018590529192507f4e874b007ab14f7e263baefd44951834c8266f4f224d1092e49e9c254354cc54910160405180910390a160d65550565b6001600160a01b03831661319c5760405162461bcd60e51b8152602060048201526024808201527f45524332303a20617070726f76652066726f6d20746865207a65726f206164646044820152637265737360e01b6064820152608401611104565b6001600160a01b0382166131fd5760405162461bcd60e51b815260206004820152602260248201527f45524332303a20617070726f766520746f20746865207a65726f206164647265604482015261737360f01b6064820152608401611104565b6001600160a01b0383811660008181526098602090815260408083209487168084529482529182902085905590518481527f8c5be1e5ebec7d5bd14f71427d1e84f3dd0314c0f7b2291e5b200ac8c7c3b92591015b60405180910390a3505050565b600054610100900460ff1680613278575060005460ff16155b6132945760405162461bcd60e51b815260040161110490615472565b600054610100900460ff161580156132b6576000805461ffff19166101011790555b60405163c72733f760e01b815273529fd34520A77ebC6677AAa64C5608c8eFf98Ef89063c72733f7906132fb908c908c908c908b908d908c908c908c90600401615344565b60006040518083038186803b15801561331357600080fd5b505af4158015613327573d6000803e3d6000fd5b505050506133336147a0565b61333d8484614813565b613345614892565b61334e89612acb565b60d480546001600160a01b03808b166001600160a01b03199283161790925560d38054928a169290911691909117905560d585905561339863031ba3096130ef88620f4240614788565b60d6558160cc6133a88282615937565b505060cc546040516370a0823160e01b81523060048201526000916201000090046001600160a01b0316906370a082319060240160206040518083038186803b1580156133f457600080fd5b505afa158015613408573d6000803e3d6000fd5b505050506040513d601f19601f8201168201806040525081019061342c9190615253565b905061343781613b7a565b60cf805461ffff196001600160681b03909316600160781b02929092167fffffffff00000000000000000000000000ffffffffffffffffffffffffff00009092169190911760011790558015613493576000805461ff00191690555b505050505050505050565b6001600160a01b0383166135025760405162461bcd60e51b815260206004820152602560248201527f45524332303a207472616e736665722066726f6d20746865207a65726f206164604482015264647265737360d81b6064820152608401611104565b6001600160a01b0382166135645760405162461bcd60e51b815260206004820152602360248201527f45524332303a207472616e7366657220746f20746865207a65726f206164647260448201526265737360e81b6064820152608401611104565b6001600160a01b038316600090815260976020526040902054818110156135dc5760405162461bcd60e51b815260206004820152602660248201527f45524332303a207472616e7366657220616d6f756e7420657863656564732062604482015265616c616e636560d01b6064820152608401611104565b6001600160a01b0380851660009081526097602052604080822085850390559185168152908120805484929061361390849061571f565b92505081905550826001600160a01b0316846001600160a01b03167fddf252ad1be2c89b69c2b068fc378daa952ba7f163c4a11628f55a4df523b3ef8460405161365f91815260200190565b60405180910390a35b50505050565b60006115798284615861565b60cc546001600160a01b03620100009091048116907f0000000000000000000000000000000000000000000000000000000000000000168114156137c757604051632e1a7d4d60e01b8152600481018390527f00000000000000000000000000000000000000000000000000000000000000006001600160a01b031690632e1a7d4d90602401600060405180830381600087803b15801561371a57600080fd5b505af115801561372e573d6000803e3d6000fd5b505050506000836001600160a01b03168360405160006040518083038185875af1925050503d806000811461377f576040519150601f19603f3d011682016040523d82523d6000602084013e613784565b606091505b50509050806136685760405162461bcd60e51b815260206004820152600f60248201526e151c985b9cd9995c8819985a5b1959608a1b6044820152606401611104565b6114cf6001600160a01b03821684846148f9565b60cf5461ffff1660006137f6846137f0612248565b90613f94565b60ce549091506001600160681b03168111156138415760405162461bcd60e51b815260206004820152600a6024820152690457863656564206361760b41b6044820152606401611104565b60cd54600160a01b900466ffffffffffffff1681101561389a5760405162461bcd60e51b8152602060048201526014602482015273496e73756666696369656e742062616c616e636560601b6044820152606401611104565b60408051858152602081018490526001600160a01b038516917f90890809c654f11d6e72a28fa60149770a0d11ec6c92319d6ceb2bb0a4ea1a15910160405180910390a26001600160a01b038316600090815260c9602090815260408083208151606081018352905461ffff81168083526201000082046001600160681b031683860152600160781b9091046001600160801b031682840152845260ca90925282205460cc54919291613959918491879190610100900460ff1661455a565b8251909150869061ffff1685141561398a576020830151600090613986906001600160681b031689613f94565b9150505b61399381613b7a565b6040805160608101825261ffff80881682526001600160681b0380851660208085019182526001600160801b038089168688019081526001600160a01b038e16600090815260c990935296822095518654935197518216600160781b02600160781b600160f81b03199890951662010000026effffffffffffffffffffffffffffff1990941695169490941791909117949094161790915560d054613a39911689613f94565b9050613a4481614510565b60d080546001600160801b0319166001600160801b039290921691909117905550505050505050565b6040516001600160a01b03808516602483015283166044820152606481018290526136689085906323b872dd60e01b906084015b60408051601f198184030181529190526020810180516001600160e01b03166001600160e01b031990931692909217909152614929565b600080613ae683600a61579a565b905060008611613af65780613b0e565b613b0e866130ef613b07888861366e565b8490614788565b9695505050505050565b600060018311613b625760405162461bcd60e51b8152602060048201526015602482015274496e76616c6964206173736574506572536861726560581b6044820152606401611104565b6118ca613b7083600a61579a565b6130ef8686614788565b6001600160681b03811115612b635760405162461bcd60e51b815260206004820152601060248201526f13dd995c999b1bddc81d5a5b9d0c4c0d60821b6044820152606401611104565b33600090815260c9602090815260408083208151606081018352905461ffff8082168084526201000083046001600160681b031684870152600160781b9092046001600160801b03168385015260cf5491865260ca9094529184205460cc5491949290931692613c3f9185918591610100900460ff1661455a565b905083613c4c5784613c4e565b805b945084613c5c575050505050565b80851115613ca05760405162461bcd60e51b81526020600482015260116024820152704578636565647320617661696c61626c6560781b6044820152606401611104565b825161ffff16821115613ccd5733600090815260c960205260409020805462010000600160781b03191690555b613cd685614510565b613ce0818661366e565b33600081815260c960205260409081902080546001600160801b0394909416600160781b02600160781b600160f81b0319909416939093179092558451915190917fe5b754fb1abb7f01b499791d0b820ae3b6af3424ac1c59768edb53f4ec31a92991613d599189825261ffff16602082015260400190565b60405180910390a2613d6c30338761349e565b5050505050565b606580546001600160a01b038381166001600160a01b0319831681179093556040519116919082907f8be0079c531659141344cd1fd0a4f28419497f9722a3daafe3b4186f6b6457e090600090a35050565b60008111613e025760405162461bcd60e51b815260206004820152600a602482015269216e756d53686172657360b01b6044820152606401611104565b33600090815260c960205260409020546201000090046001600160681b0316151580613e4c575033600090815260c96020526040902054600160781b90046001600160801b031615155b15613e5d57613e5d60006001613bc4565b60cf5433600081815260cb60209081526040918290208054835187815261ffff96871693810184905292959194911685149290917f0c53c82ad07e2d592d88ece3b066777dd60f1118e2a081b380efc4358f0d9e2a910160405180910390a281546201000090046001600160801b031660008215613ee657613edf8287613f94565b9050613f49565b8115613f285760405162461bcd60e51b81526020600482015260116024820152704578697374696e6720776974686472617760781b6044820152606401611104565b5033600090815260cb60205260409020805461ffff191661ffff8616179055845b613f5281614510565b33600081815260cb60205260409020805462010000600160901b031916620100006001600160801b03851602179055613f8c90308861349e565b505050505050565b6000611579828461571f565b60d25460f55460f754604051630f7d679f60e01b81526001600160a01b0393841660048201819052939092166024830152604482015260009073529fd34520A77ebC6677AAa64C5608c8eFf98Ef890630f7d679f9060640160206040518083038186803b15801561401057600080fd5b505af4158015614024573d6000803e3d6000fd5b505050506040513d601f19601f820116820180604052508101906140489190615253565b6040516301c6654960e21b81526001600160a01b038085166004830152602482018390527f000000000000000000000000000000000000000000000000000000000000000016604482015260cc606482015290915073529fd34520A77ebC6677AAa64C5608c8eFf98Ef89063071995249060840160206040518083038186803b1580156140d457600080fd5b505af41580156140e8573d6000803e3d6000fd5b505050506040513d601f19601f8201168201806040525081019061410c9190615253565b60fc555050565b60cf546201000090046001600160681b03166001600160a01b0382161561415f5760cf80546cffffffffffffffffffffffffff60781b1916600160781b6001600160681b038416021790555b60cf805462010000600160781b031916905560d280546001600160a01b03191690556001600160a01b0382161561428557604051636c6fe87f60e11b81526001600160a01b037f000000000000000000000000000000000000000000000000000000000000000016600482015260009073529fd34520A77ebC6677AAa64C5608c8eFf98Ef89063d8dfd0fe9060240160206040518083038186803b15801561420657600080fd5b505af415801561421a573d6000803e3d6000fd5b505050506040513d601f19601f8201168201806040525081019061423e9190615253565b9050336001600160a01b0316836001600160a01b03167f7e830f7c1771deb1bdb35c4a7e6051bbac32b376f7f4e4976b8618b0b11997f78360405161325291815260200190565b5050565b60d3546040805160e08101825260cc54610100810460ff16825291516370a0823160e01b815230600482015260009384936001600160a01b0391821693859384938493849373529fd34520A77ebC6677AAa64C5608c8eFf98Ef89363d9b874389360cf93602084019262010000909104909116906370a082319060240160206040518083038186803b15801561431e57600080fd5b505afa158015614332573d6000803e3d6000fd5b505050506040513d601f19601f820116820180604052508101906143569190615253565b815260200161436460995490565b81526020018d815260200160d554815260200160d65481526020018c8152506040518363ffffffff1660e01b81526004016143f192919060006101008201905083825282516020830152602083015160408301526040830151606083015260608301516080830152608083015160a083015260a083015160c083015260c083015160e08301529392505050565b60c06040518083038186803b15801561440957600080fd5b505af415801561441d573d6000803e3d6000fd5b505050506040513d601f19601f82011682018060405250810190614441919061528f565b60cf5461ffff16600081815260ca60209081526040918290208790558151858152908101849052908101829052969d50949b50919850965094509250906001600160a01b038716907f0a242f7ecaf711036ca770774ceffae28e60ef042ac113ddd187f2631db0c0069060600160405180910390a260d080546001600160801b03191690556144d181600161571f565b60cf805461ffff191661ffff92909216919091179055506144f4905030846149fb565b801561450457614504848261367a565b505050505b9250929050565b6001600160801b03811115612b635760405162461bcd60e51b815260206004820152601060248201526f09eeccae4ccd8deee40ead2dce86264760831b6044820152606401611104565b835160009061ffff16158015906145755750845161ffff1684115b156145b757600061459486602001516001600160681b03168585614ada565b60408701519091506145af906001600160801b031682613f94565b9150506118ca565b50505050604001516001600160801b031690565b33600090815260cb6020526040812080546001600160801b03620100008204169061ffff168161462d5760405162461bcd60e51b815260206004820152600d60248201526c139bdd081a5b9a5d1a585d1959609a1b6044820152606401611104565b60cf5461ffff1681106146755760405162461bcd60e51b815260206004820152601060248201526f149bdd5b99081b9bdd0818db1bdcd95960821b6044820152606401611104565b33600090815260cb60205260409020805462010000600160901b031916905560d0546146b190600160801b90046001600160801b03168361366e565b60d080546001600160801b03928316600160801b029216919091179055600081815260ca602052604081205460cc546146f491859160ff61010090910416613b18565b604080518281526020810186905291925033917ff279e6a1f5e320cca91135676d9cb6e44ca8a08c0b88342bcdb1144f6511b568910160405180910390a261473c3084614b3d565b6000811161477e5760405162461bcd60e51b815260206004820152600f60248201526e085dda5d1a191c985dd05b5bdd5b9d608a1b6044820152606401611104565b6118ca338261367a565b60006115798284615842565b60006115798284615737565b600054610100900460ff16806147b9575060005460ff16155b6147d55760405162461bcd60e51b815260040161110490615472565b600054610100900460ff161580156147f7576000805461ffff19166101011790555b6147ff614c8b565b8015612b63576000805461ff001916905550565b600054610100900460ff168061482c575060005460ff16155b6148485760405162461bcd60e51b815260040161110490615472565b600054610100900460ff1615801561486a576000805461ffff19166101011790555b614872614cfa565b61487c8383614d64565b80156114cf576000805461ff0019169055505050565b600054610100900460ff16806148ab575060005460ff16155b6148c75760405162461bcd60e51b815260040161110490615472565b600054610100900460ff161580156148e9576000805461ffff19166101011790555b6148f1614cfa565b6147ff614df9565b6040516001600160a01b0383166024820152604481018290526114cf90849063a9059cbb60e01b90606401613aa1565b600061497e826040518060400160405280602081526020017f5361666545524332303a206c6f772d6c6576656c2063616c6c206661696c6564815250856001600160a01b0316614e599092919063ffffffff16565b8051909150156114cf578080602001905181019061499c919061519c565b6114cf5760405162461bcd60e51b815260206004820152602a60248201527f5361666545524332303a204552433230206f7065726174696f6e20646964206e6044820152691bdd081cdd58d8d9595960b21b6064820152608401611104565b6001600160a01b038216614a515760405162461bcd60e51b815260206004820152601f60248201527f45524332303a206d696e7420746f20746865207a65726f2061646472657373006044820152606401611104565b8060996000828254614a63919061571f565b90915550506001600160a01b03821660009081526097602052604081208054839290614a9090849061571f565b90915550506040518181526001600160a01b038316906000907fddf252ad1be2c89b69c2b068fc378daa952ba7f163c4a11628f55a4df523b3ef9060200160405180910390a35050565b600060018311614b245760405162461bcd60e51b8152602060048201526015602482015274496e76616c6964206173736574506572536861726560581b6044820152606401611104565b6118ca836130ef614b3685600a61579a565b8790614788565b6001600160a01b038216614b9d5760405162461bcd60e51b815260206004820152602160248201527f45524332303a206275726e2066726f6d20746865207a65726f206164647265736044820152607360f81b6064820152608401611104565b6001600160a01b03821660009081526097602052604090205481811015614c115760405162461bcd60e51b815260206004820152602260248201527f45524332303a206275726e20616d6f756e7420657863656564732062616c616e604482015261636560f01b6064820152608401611104565b6001600160a01b0383166000908152609760205260408120838303905560998054849290614c40908490615861565b90915550506040518281526000906001600160a01b038516907fddf252ad1be2c89b69c2b068fc378daa952ba7f163c4a11628f55a4df523b3ef9060200160405180910390a3505050565b600054610100900460ff1680614ca4575060005460ff16155b614cc05760405162461bcd60e51b815260040161110490615472565b600054610100900460ff16158015614ce2576000805461ffff19166101011790555b600180558015612b63576000805461ff001916905550565b600054610100900460ff1680614d13575060005460ff16155b614d2f5760405162461bcd60e51b815260040161110490615472565b600054610100900460ff161580156147ff576000805461ffff19166101011790558015612b63576000805461ff001916905550565b600054610100900460ff1680614d7d575060005460ff16155b614d995760405162461bcd60e51b815260040161110490615472565b600054610100900460ff16158015614dbb576000805461ffff19166101011790555b8251614dce90609a906020860190614f64565b508151614de290609b906020850190614f64565b5080156114cf576000805461ff0019169055505050565b600054610100900460ff1680614e12575060005460ff16155b614e2e5760405162461bcd60e51b815260040161110490615472565b600054610100900460ff16158015614e50576000805461ffff19166101011790555b6147ff33613d73565b60606118ca848460008585843b614eb25760405162461bcd60e51b815260206004820152601d60248201527f416464726573733a2063616c6c20746f206e6f6e2d636f6e74726163740000006044820152606401611104565b600080866001600160a01b03168587604051614ece9190615328565b60006040518083038185875af1925050503d8060008114614f0b576040519150601f19603f3d011682016040523d82523d6000602084013e614f10565b606091505b5091509150614f20828286614f2b565b979650505050505050565b60608315614f3a575081611579565b825115614f4a5782518084602001fd5b8160405162461bcd60e51b8152600401611104919061543e565b828054614f70906158a4565b90600052602060002090601f016020900481019282614f925760008555614fd8565b82601f10614fab57805160ff1916838001178555614fd8565b82800160010185558215614fd8579182015b82811115614fd8578251825591602001919060010190614fbd565b50614fe4929150614fe8565b5090565b5b80821115614fe45760008155600101614fe9565b803561500881615a48565b919050565b803561500881615a6b565b803561500881615a80565b803561500881615a95565b60006020828403121561503f578081fd5b813561157981615a48565b6000806040838503121561505c578081fd5b823561506781615a48565b9150602083013561507781615a48565b809150509250929050565b600080600060608486031215615096578081fd5b83356150a181615a48565b925060208401356150b181615a48565b929592945050506040919091013590565b600080604083850312156150d4578182fd5b82356150df81615a48565b946020939093013593505050565b60008060008060808587031215615102578081fd5b845161510d81615a48565b60208601516040870151606090970151919890975090945092505050565b6000806020838503121561513d578182fd5b823567ffffffffffffffff80821115615154578384fd5b818501915085601f830112615167578384fd5b813581811115615175578485fd5b8660206101208302850101111561518a578485fd5b60209290920196919550909350505050565b6000602082840312156151ad578081fd5b815161157981615a5d565b60008082840360e08112156151cb578283fd5b833567ffffffffffffffff8111156151e1578384fd5b840161014081870312156151f3578384fd5b925060c0601f1982011215615206578182fd5b506020830190509250929050565b600060208284031215615225578081fd5b81356001600160801b0381168114611579578182fd5b60006020828403121561524c578081fd5b5035919050565b600060208284031215615264578081fd5b5051919050565b6000806040838503121561527d578081fd5b82359150602083013561507781615a48565b60008060008060008060c087890312156152a7578384fd5b865195506020870151945060408701519350606087015192506080870151915060a087015190509295509295509295565b6000602082840312156152e9578081fd5b813563ffffffff81168114611579578182fd5b60008151808452615314816020860160208601615878565b601f01601f19169290920160200192915050565b6000825161533a818460208701615878565b9190910192915050565b60006101a060018060a01b03808c168452808b166020850152808a1660408501528860608501528760808501528160a0850152615383828501886152fc565b915083820360c085015261539782876152fc565b9250843591506153a682615a5d565b90151560e08401526020840135906153bd82615a95565b60ff8216610100850152604085013591506153d782615a48565b166101208301526153ea60608401614ffd565b6001600160a01b031661014083015261540560808401615018565b66ffffffffffffff1661016083015261542060a0840161500d565b6001600160681b038116610180840152509998505050505050505050565b60208152600061157960208301846152fc565b60208082526007908201526610b5b2b2b832b960c91b604082015260600190565b6020808252602e908201527f496e697469616c697a61626c653a20636f6e747261637420697320616c72656160408201526d191e481a5b9a5d1a585b1a5e995960921b606082015260800190565b6020808252818101527f4f776e61626c653a2063616c6c6572206973206e6f7420746865206f776e6572604082015260600190565b60208082526007908201526608585b5bdd5b9d60ca1b604082015260600190565b6020808252601f908201527f5265656e7472616e637947756172643a207265656e7472616e742063616c6c00604082015260600190565b83516001600160a01b0316815260208085015161016083019161557a908401826001600160a01b03169052565b50604085015161559560408401826001600160a01b03169052565b506060850151606083015260808501516155b5608084018261ffff169052565b5060a085015160a083015260c08501516155da60c08401826001600160a01b03169052565b5060e08501516155f560e08401826001600160a01b03169052565b5061010094850151948201949094526101208101929092526101409091015290565b838152604060208083018290528282018490526000919060609081850187855b888110156156cb57813583528382013584840152615656868301614ffd565b6001600160a01b03168684015284820135858401526080808301359084015260a0615682818401614ffd565b6001600160a01b03169084015260c061569c838201615023565b60ff169084015260e0828101359084015261010080830135908401526101209283019290910190600101615637565b50909998505050505050505050565b6000808335601e198436030181126156f0578283fd5b83018035915067ffffffffffffffff82111561570a578283fd5b60200191503681900382131561450957600080fd5b60008219821115615732576157326158fa565b500190565b60008261575257634e487b7160e01b81526012600452602481fd5b500490565b600181815b80851115615792578160001904821115615778576157786158fa565b8085161561578557918102915b93841c939080029061575c565b509250929050565b600061157983836000826157b0575060016111d3565b816157bd575060006111d3565b81600181146157d357600281146157dd576157f9565b60019150506111d3565b60ff8411156157ee576157ee6158fa565b50506001821b6111d3565b5060208310610133831016604e8410600b841016171561581c575081810a6111d3565b6158268383615757565b806000190482111561583a5761583a6158fa565b029392505050565b600081600019048311821515161561585c5761585c6158fa565b500290565b600082821015615873576158736158fa565b500390565b60005b8381101561589357818101518382015260200161587b565b838111156136685750506000910152565b600181811c908216806158b857607f821691505b602082108114156158d957634e487b7160e01b600052602260045260246000fd5b50919050565b60006000198214156158f3576158f36158fa565b5060010190565b634e487b7160e01b600052601160045260246000fd5b600081356111d381615a48565b600081356111d381615a6b565b600081356111d381615a80565b813561594281615a5d565b815460ff19811691151560ff169182178355602084013561596281615a95565b61ff008160081b169050808361ffff19841617178455604085013561598681615a48565b6001600160b01b0319929092169092179190911760109190911b62010000600160b01b0316178155600181016159de6159c160608501615910565b82546001600160a01b0319166001600160a01b0391909116178255565b615a176159ed6080850161592a565b82805466ffffffffffffff60a01b191660a09290921b66ffffffffffffff60a01b16919091179055565b50614285615a2760a0840161591d565b600283016001600160681b0382166001600160681b03198254161781555050565b6001600160a01b0381168114612b6357600080fd5b8015158114612b6357600080fd5b6001600160681b0381168114612b6357600080fd5b66ffffffffffffff81168114612b6357600080fd5b60ff81168114612b6357600080fdfea2646970667358221220ee8558aac41427f83f8f3aee6fc5490d66e8d9fa6577a52eabab2442ad0dbe8164736f6c63430008040033",
  "deployedBytecode": "0x6080604052600436106104895760003560e01c80638da5cb5b11610255578063b9f8092b11610144578063e73c63d5116100c1578063f756fa2111610085578063f756fa211461102e578063f87c7d9314611043578063f957a06714611058578063f9a0be6814611078578063fba7dc6114611099578063fe56e232146110ba57600080fd5b8063e73c63d514610f9b578063e74b981b14610fb1578063f2fde38b14610fd1578063f6326fb314610ff1578063f656ba5114610ff957600080fd5b8063d5f2638211610108578063d5f2638214610ed6578063db006a7514610eec578063db43e86214610f0c578063dd62ed3e14610f40578063e278fe6f14610f8657600080fd5b8063b9f8092b14610e2d578063ce7c2ac214610e42578063cf3afa5114610e62578063d13f1b3e14610e96578063d164cc1514610eb657600080fd5b8063a694fc3a116101d2578063ad7a672f11610196578063ad7a672f14610dac578063afa6626414610dc1578063b058ed6914610de1578063b4d1d79514610df6578063b6b55f2514610e0d57600080fd5b8063a694fc3a14610d02578063a6f7f5d614610d22578063a9059cbb14610d38578063aced166114610d58578063ad5c464814610d7857600080fd5b8063a083ff1711610219578063a083ff1714610c1f578063a285c9e814610c82578063a2db9d8314610ca4578063a457c2d714610cc2578063a497e67414610ce257600080fd5b80638da5cb5b14610b0b57806395d89b4114610b2957806399530b0614610b3e5780639be43daa14610b535780639fcc2d7514610b7357600080fd5b8063469048401161037c5780636f31ab34116102f95780637e108d52116102bd5780637e108d5214610a4057806383536ff314610a6057806387153eb114610a765780638778878214610aa357806389a3027114610ab95780638b10cc7c14610aed57600080fd5b80636f31ab341461095c57806370897b231461097157806370a0823114610991578063715018a6146109c75780637a9262a2146109dc57600080fd5b8063600a2cfb11610340578063600a2cfb1461085a578063650cce8a1461086f5780636719b2ee146108a3578063692308681461092757806369b411701461094757600080fd5b806346904840146107cd57806347786d37146107ed5780634b2431d91461080d578063503c70aa1461082457806355489bb21461083a57600080fd5b806330630da41161040a5780633ec143d3116103ce5780633ec143d31461072b5780633f23bb73146107595780633f90916a14610779578063432833a6146107975780634603c0aa146107ad57600080fd5b806330630da414610683578063313ce567146106a3578063355274ea146106cd57806336efd16f146106eb578063395093511461070b57600080fd5b80631a92f6c2116104515780631a92f6c2146105445780631cacf9b91461059057806323b872dd146105b05780632728f333146105d05780632775d01c1461066357600080fd5b8063048bf0851461048e57806306fdde03146104b0578063095ea7b3146104db5780630cbf54c81461050b57806318160ddd1461052f575b600080fd5b34801561049a57600080fd5b506104ae6104a936600461502e565b6110da565b005b3480156104bc57600080fd5b506104c5611130565b6040516104d2919061543e565b60405180910390f35b3480156104e757600080fd5b506104fb6104f63660046150c2565b6111c2565b60405190151581526020016104d2565b34801561051757600080fd5b5061052160fb5481565b6040519081526020016104d2565b34801561053b57600080fd5b50609954610521565b34801561055057600080fd5b506105787f000000000000000000000000000000000000000000000000000000000000000081565b6040516001600160a01b0390911681526020016104d2565b34801561059c57600080fd5b506104ae6105ab3660046151b8565b6111d9565b3480156105bc57600080fd5b506104fb6105cb366004615082565b6114d4565b3480156105dc57600080fd5b5060cf5460d05461061e9161ffff8116916001600160681b03620100008304811692600160781b900416906001600160801b0380821691600160801b90041685565b6040805161ffff90961686526001600160681b03948516602087015293909216928401929092526001600160801b03918216606084015216608082015260a0016104d2565b34801561066f57600080fd5b506104ae61067e36600461523b565b611580565b34801561068f57600080fd5b506104ae61069e36600461502e565b611723565b3480156106af57600080fd5b5060cc54610100900460ff1660405160ff90911681526020016104d2565b3480156106d957600080fd5b5060ce546001600160681b0316610521565b3480156106f757600080fd5b506104ae61070636600461526b565b6117bb565b34801561071757600080fd5b506104fb6107263660046150c2565b611843565b34801561073757600080fd5b5060f9546107469061ffff1681565b60405161ffff90911681526020016104d2565b34801561076557600080fd5b5061052161077436600461502e565b61187f565b34801561078557600080fd5b5060d0546001600160801b0316610521565b3480156107a357600080fd5b5061052160fc5481565b3480156107b957600080fd5b506104ae6107c836600461502e565b6118d2565b3480156107d957600080fd5b5060d354610578906001600160a01b031681565b3480156107f957600080fd5b506104ae61080836600461523b565b611974565b34801561081957600080fd5b506105216101025481565b34801561083057600080fd5b5061052160fd5481565b34801561084657600080fd5b506104ae610855366004615214565b611a4f565b34801561086657600080fd5b506104ae611ae7565b34801561087b57600080fd5b506105787f000000000000000000000000000000000000000000000000000000000000000081565b3480156108af57600080fd5b506108f66108be36600461502e565b60c96020526000908152604090205461ffff8116906201000081046001600160681b031690600160781b90046001600160801b031683565b6040805161ffff90941684526001600160681b0390921660208401526001600160801b0316908201526060016104d2565b34801561093357600080fd5b506104ae61094236600461512b565b611c42565b34801561095357600080fd5b50610521600081565b34801561096857600080fd5b506104ae611d20565b34801561097d57600080fd5b506104ae61098c36600461523b565b611d5d565b34801561099d57600080fd5b506105216109ac36600461502e565b6001600160a01b031660009081526097602052604090205490565b3480156109d357600080fd5b506104ae611e24565b3480156109e857600080fd5b50610a1e6109f736600461502e565b60cb6020526000908152604090205461ffff8116906201000090046001600160801b031682565b6040805161ffff90931683526001600160801b039091166020830152016104d2565b348015610a4c57600080fd5b506104ae610a5b36600461523b565b611e5a565b348015610a6c57600080fd5b5061052160f75481565b348015610a8257600080fd5b50610521610a9136600461523b565b60ca6020526000908152604090205481565b348015610aaf57600080fd5b5061052160d55481565b348015610ac557600080fd5b506105787f000000000000000000000000000000000000000000000000000000000000000081565b348015610af957600080fd5b5060d2546001600160a01b0316610578565b348015610b1757600080fd5b506065546001600160a01b0316610578565b348015610b3557600080fd5b506104c5611ea4565b348015610b4a57600080fd5b50610521611eb3565b348015610b5f57600080fd5b506104ae610b6e36600461523b565b611eed565b348015610b7f57600080fd5b5060cc5460cd5460ce54610bcf9260ff808216936101008304909116926001600160a01b036201000090930483169282169166ffffffffffffff600160a01b90910416906001600160681b031686565b60408051961515875260ff90951660208701526001600160a01b03938416948601949094529116606084015266ffffffffffffff1660808301526001600160681b031660a082015260c0016104d2565b348015610c2b57600080fd5b5060d15460d254610c56916001600160a01b039081169190811690600160a01b900463ffffffff1683565b604080516001600160a01b03948516815293909216602084015263ffffffff16908201526060016104d2565b348015610c8e57600080fd5b5060d254600160a01b900463ffffffff16610521565b348015610cb057600080fd5b5060d1546001600160a01b0316610578565b348015610cce57600080fd5b506104fb610cdd3660046150c2565b611fe7565b348015610cee57600080fd5b506104ae610cfd36600461523b565b612080565b348015610d0e57600080fd5b506104ae610d1d36600461523b565b61213d565b348015610d2e57600080fd5b5061052160d65481565b348015610d4457600080fd5b506104fb610d533660046150c2565b61223b565b348015610d6457600080fd5b5060d454610578906001600160a01b031681565b348015610d8457600080fd5b506105787f000000000000000000000000000000000000000000000000000000000000000081565b348015610db857600080fd5b50610521612248565b348015610dcd57600080fd5b5060f554610578906001600160a01b031681565b348015610ded57600080fd5b506104ae612376565b348015610e0257600080fd5b5061052162093a8081565b348015610e1957600080fd5b506104ae610e2836600461523b565b6123d0565b348015610e3957600080fd5b506104ae612444565b348015610e4e57600080fd5b50610521610e5d36600461502e565b61263a565b348015610e6e57600080fd5b506105787f000000000000000000000000000000000000000000000000000000000000000081565b348015610ea257600080fd5b506104ae610eb136600461523b565b612657565b348015610ec257600080fd5b506104ae610ed136600461502e565b61271c565b348015610ee257600080fd5b5061052160f85481565b348015610ef857600080fd5b506104ae610f0736600461523b565b6127ab565b348015610f1857600080fd5b506105787f000000000000000000000000000000000000000000000000000000000000000081565b348015610f4c57600080fd5b50610521610f5b36600461504a565b6001600160a01b03918216600090815260986020908152604080832093909416825291909152205490565b348015610f9257600080fd5b506104ae612818565b348015610fa757600080fd5b5061052160fa5481565b348015610fbd57600080fd5b506104ae610fcc36600461502e565b6129d8565b348015610fdd57600080fd5b506104ae610fec36600461502e565b612acb565b6104ae612b66565b34801561100557600080fd5b5061101961101436600461502e565b612cb7565b604080519283526020830191909152016104d2565b34801561103a57600080fd5b506104ae612d9a565b34801561104f57600080fd5b506104ae612def565b34801561106457600080fd5b5060f654610578906001600160a01b031681565b34801561108457600080fd5b5061010054610578906001600160a01b031681565b3480156110a557600080fd5b5061010154610578906001600160a01b031681565b3480156110c657600080fd5b506104ae6110d536600461523b565b613059565b6065546001600160a01b0316331461110d5760405162461bcd60e51b8152600401611104906154c0565b60405180910390fd5b61010080546001600160a01b0319166001600160a01b0392909216919091179055565b6060609a805461113f906158a4565b80601f016020809104026020016040519081016040528092919081815260200182805461116b906158a4565b80156111b85780601f1061118d576101008083540402835291602001916111b8565b820191906000526020600020905b81548152906001019060200180831161119b57829003601f168201915b5050505050905090565b60006111cf33848461313a565b5060015b92915050565b600054610100900460ff16806111f2575060005460ff16155b61120e5760405162461bcd60e51b815260040161110490615472565b600054610100900460ff16158015611230576000805461ffff19166101011790555b6112f5611240602085018561502e565b611250604086016020870161502e565b611260606087016040880161502e565b6060870135608088013561127760a08a018a6156da565b8080601f0160208091040260200160405190810160405280939291908181526020018383808284376000920191909152506112b99250505060c08b018b6156da565b8080601f0160208091040260200160405190810160405280939291908181526020018383808284376000920191909152508c925061325f915050565b6000611308610100850160e0860161502e565b6001600160a01b031614156113585760405162461bcd60e51b815260206004820152601660248201527510afb7b83a34b7b739a83932b6b4bab6a83934b1b2b960511b6044820152606401611104565b600061136c6101208501610100860161502e565b6001600160a01b031614156113b75760405162461bcd60e51b815260206004820152601160248201527010afb9ba3934b5b2a9b2b632b1ba34b7b760791b6044820152606401611104565b60006113cb610140850161012086016152d8565b63ffffffff161180156113ff57506113e5600a6064615842565b6113f7610140850161012086016152d8565b63ffffffff16105b61143f5760405162461bcd60e51b81526020600482015260116024820152700857dc1c995b5a5d5b511a5cd8dbdd5b9d607a1b6044820152606401611104565b611450610100840160e0850161502e565b60f580546001600160a01b0319166001600160a01b03929092169190911790556114826101208401610100850161502e565b60f680546001600160a01b0319166001600160a01b03929092169190911790556114b4610140840161012085016152d8565b63ffffffff1660f75580156114cf576000805461ff00191690555b505050565b60006114e184848461349e565b6001600160a01b0384166000908152609860209081526040808320338452909152902054828110156115665760405162461bcd60e51b815260206004820152602860248201527f45524332303a207472616e7366657220616d6f756e74206578636565647320616044820152676c6c6f77616e636560c01b6064820152608401611104565b611573853385840361313a565b60019150505b9392505050565b600260015414156115a35760405162461bcd60e51b815260040161110490615516565b600260015533600090815260c96020526040902060cf5461ffff16826115db5760405162461bcd60e51b8152600401611104906154f5565b815461ffff16811461161f5760405162461bcd60e51b815260206004820152600d60248201526c125b9d985b1a59081c9bdd5b99609a1b6044820152606401611104565b81546201000090046001600160681b0316838110156116705760405162461bcd60e51b815260206004820152600d60248201526c115e18d9595908185b5bdd5b9d609a1b6044820152606401611104565b61167a818561366e565b83546001600160681b0391909116620100000262010000600160781b031990911617835560d0546116b4906001600160801b03168561366e565b60d080546001600160801b0319166001600160801b0392909216919091179055604080518581526020810184905233917fab2daf3c146ca6416cbccd2a86ed2ba995e171ef6319df14a38aef01403a9c96910160405180910390a2611719338561367a565b5050600180555050565b6065546001600160a01b0316331461174d5760405162461bcd60e51b8152600401611104906154c0565b6001600160a01b0381166117995760405162461bcd60e51b815260206004820152601360248201527210b732bba9ba3934b5b2a9b2b632b1ba34b7b760691b6044820152606401611104565b60f680546001600160a01b0319166001600160a01b0392909216919091179055565b600260015414156117de5760405162461bcd60e51b815260040161110490615516565b6002600155816118005760405162461bcd60e51b8152600401611104906154f5565b6001600160a01b03811661181357600080fd5b61181d82826137db565b60cc5461183b906201000090046001600160a01b0316333085613a6d565b505060018055565b3360008181526098602090815260408083206001600160a01b038716845290915281205490916111cf91859061187a90869061571f565b61313a565b60cc5460009060ff61010090910416816118b561189b60995490565b6118a3612248565b60d0546001600160801b031685613ad8565b90506118ca6118c38561263a565b8284613b18565b949350505050565b6065546001600160a01b031633146118fc5760405162461bcd60e51b8152600401611104906154c0565b6001600160a01b0381166119525760405162461bcd60e51b815260206004820152601860248201527f216e65774f7074696f6e735072656d69756d50726963657200000000000000006044820152606401611104565b60f580546001600160a01b0319166001600160a01b0392909216919091179055565b6065546001600160a01b0316331461199e5760405162461bcd60e51b8152600401611104906154c0565b600081116119d85760405162461bcd60e51b81526020600482015260076024820152660216e65774361760cc1b6044820152606401611104565b6119e181613b7a565b60ce54604080516001600160681b039092168252602082018390527f5f86edbb9d92228a9edc3f0ebc0f001bda1ea345ac7335e0eeef3504b31d1a1c910160405180910390a160ce80546cffffffffffffffffffffffffff19166001600160681b0392909216919091179055565b6065546001600160a01b03163314611a795760405162461bcd60e51b8152600401611104906154c0565b6000816001600160801b031611611ac15760405162461bcd60e51b815260206004820152600c60248201526b21737472696b65507269636560a01b6044820152606401611104565b6001600160801b031660fa5560cf5460f9805461ffff191661ffff909216919091179055565b60d4546001600160a01b03163314611b115760405162461bcd60e51b815260040161110490615451565b60026001541415611b345760405162461bcd60e51b815260040161110490615516565b600260015560d2546040516358ffbb3d60e01b81526001600160a01b037f000000000000000000000000000000000000000000000000000000000000000081166004830152909116602482015260009073__$753d03423c86e1677c9cdb4291172228a9$__906358ffbb3d9060440160206040518083038186803b158015611bbb57600080fd5b505af4158015611bcf573d6000803e3d6000fd5b505050506040513d601f19601f82011682018060405250810190611bf39190615253565b60cf54909150611c12906201000090046001600160681b03168261366e565b60cf80546001600160681b0392909216620100000262010000600160781b03199092169190911790555060018055565b60d4546001600160a01b03163314611c6c5760405162461bcd60e51b815260040161110490615451565b60026001541415611c8f5760405162461bcd60e51b815260040161110490615516565b600260015560fc54604051633545cbf360e21b81526001600160a01b037f0000000000000000000000000000000000000000000000000000000000000000169163d5172fcc91611ce6919086908690600401615617565b600060405180830381600087803b158015611d0057600080fd5b505af1158015611d14573d6000803e3d6000fd5b50506001805550505050565b60026001541415611d435760405162461bcd60e51b815260040161110490615516565b6002600181905550611d5760006001613bc4565b60018055565b6065546001600160a01b03163314611d875760405162461bcd60e51b8152600401611104906154c0565b611d95620f42406064615842565b8110611de35760405162461bcd60e51b815260206004820152601760248201527f496e76616c696420706572666f726d616e6365206665650000000000000000006044820152606401611104565b60d55460408051918252602082018390527f24867dfb6fcb9970a07be21024956524abe7a1837faa903ff0e99aaa40cf893e910160405180910390a160d555565b6065546001600160a01b03163314611e4e5760405162461bcd60e51b8152600401611104906154c0565b611e586000613d73565b565b60026001541415611e7d5760405162461bcd60e51b815260040161110490615516565b6002600155611e8b81613dc5565b61010254611e999082613f94565b610102555060018055565b6060609b805461113f906158a4565b6000611ee8611ec160995490565b611ec9612248565b60d05460cc546001600160801b0390911690610100900460ff16613ad8565b905090565b60026001541415611f105760405162461bcd60e51b815260040161110490615516565b600260015580611f4f5760405162461bcd60e51b815260206004820152600a602482015269216e756d526f756e647360b01b6044820152606401611104565b60cf5461ffff1660005b82811015611fde576000611f6d828461571f565b600081815260ca602052604090205490915015611fba5760405162461bcd60e51b815260206004820152600b60248201526a125b9a5d1a585b1a5e995960aa1b6044820152606401611104565b600090815260ca602052604090206001905580611fd6816158df565b915050611f59565b50506001805550565b3360009081526098602090815260408083206001600160a01b0386168452909152812054828110156120695760405162461bcd60e51b815260206004820152602560248201527f45524332303a2064656372656173656420616c6c6f77616e63652062656c6f77604482015264207a65726f60d81b6064820152608401611104565b612076338585840361313a565b5060019392505050565b6065546001600160a01b031633146120aa5760405162461bcd60e51b8152600401611104906154c0565b61012c8110156120fc5760405162461bcd60e51b815260206004820152601860248201527f496e76616c69642061756374696f6e206475726174696f6e00000000000000006044820152606401611104565b60fb5460408051918252602082018390527f5acd982e2240ed224a69aa03dab039d3797c108e4b5f288cd7dd6ca181b275f3910160405180910390a160fb55565b600260015414156121605760405162461bcd60e51b815260040161110490615516565b6002600155610100546001600160a01b03168061217c57600080fd5b6000821161218957600080fd5b33600090815260976020526040902054828110156121b5576121b56121ae848361366e565b6000613bc4565b6121c033308561349e565b6121cb30838561313a565b6040516383df674760e01b815260048101849052336024820152600060448201526001600160a01b038316906383df674790606401600060405180830381600087803b15801561221a57600080fd5b505af115801561222e573d6000803e3d6000fd5b5050600180555050505050565b60006111cf33848461349e565b60d2546000906001600160a01b03166122db5760cc546040516370a0823160e01b8152306004820152620100009091046001600160a01b0316906370a082319060240160206040518083038186803b1580156122a357600080fd5b505afa1580156122b7573d6000803e3d6000fd5b505050506040513d601f19601f82011682018060405250810190611ee89190615253565b60cc546040516370a0823160e01b8152306004820152611ee8916201000090046001600160a01b0316906370a082319060240160206040518083038186803b15801561232657600080fd5b505afa15801561233a573d6000803e3d6000fd5b505050506040513d601f19601f8201168201806040525081019061235e9190615253565b60cf546201000090046001600160681b031690613f94565b60d4546001600160a01b031633146123a05760405162461bcd60e51b815260040161110490615451565b600260015414156123c35760405162461bcd60e51b815260040161110490615516565b6002600155611d57613fa0565b600260015414156123f35760405162461bcd60e51b815260040161110490615516565b6002600155806124155760405162461bcd60e51b8152600401611104906154f5565b61241f81336137db565b60cc5461243d906201000090046001600160a01b0316333084613a6d565b5060018055565b60d4546001600160a01b0316331461246e5760405162461bcd60e51b815260040161110490615451565b600260015414156124915760405162461bcd60e51b815260040161110490615516565b600260015560d1546001600160a01b0316806124dd5760405162461bcd60e51b815260206004820152600b60248201526a10b732bc3a27b83a34b7b760a91b6044820152606401611104565b60d280546001600160a01b03199081166001600160a01b03841690811790925560d18054909116905560cf54604051620100009091046001600160681b03168082529133917f045c558fdce4714c5816d53820d27420f4cd860892df203fe636384d8d19aa019060200160405180910390a3604051632904c23960e01b81526001600160a01b037f0000000000000000000000000000000000000000000000000000000000000000811660048301527f000000000000000000000000000000000000000000000000000000000000000081166024830152831660448201526064810182905273__$753d03423c86e1677c9cdb4291172228a9$__90632904c2399060840160206040518083038186803b1580156125f957600080fd5b505af415801561260d573d6000803e3d6000fd5b505050506040513d601f19601f820116820180604052508101906126319190615253565b5061183b613fa0565b600080600061264884612cb7565b90925090506118ca8282613f94565b60d4546001600160a01b031633146126815760405162461bcd60e51b815260040161110490615451565b60008111801561269c5750612698600a6064615842565b8111155b6126db5760405162461bcd60e51b815260206004820152601060248201526f125b9d985b1a5908191a5cd8dbdd5b9d60821b6044820152606401611104565b60f75460408051918252602082018390527f4cd657fde404967d63a338fb06c5c98751a9df57dfae6dc333a432faf8a5f656910160405180910390a160f755565b6065546001600160a01b031633146127465760405162461bcd60e51b8152600401611104906154c0565b6001600160a01b0381166127895760405162461bcd60e51b815260206004820152600a60248201526910b732bba5b2b2b832b960b11b6044820152606401611104565b60d480546001600160a01b0319166001600160a01b0392909216919091179055565b600260015414156127ce5760405162461bcd60e51b815260040161110490615516565b60026001558061280d5760405162461bcd60e51b815260206004820152600a602482015269216e756d53686172657360b01b6044820152606401611104565b61243d816000613bc4565b6002600154141561283b5760405162461bcd60e51b815260040161110490615516565b600260015560d2546001600160a01b031680151580612860575060cf5461ffff166001145b61289b5760405162461bcd60e51b815260206004820152600c60248201526b149bdd5b990818db1bdcd95960a21b6044820152606401611104565b60d2546128b0906001600160a01b0316614113565b60006101025490506000806128c760fd5484614289565b60fd81905560d05491935091506000906128f190600160801b90046001600160801b031685613f94565b90506128fc81614510565b60d080546001600160801b03808416600160801b02911617905560006101025561292583613b7a565b60cf805462010000600160781b031916620100006001600160681b0386160217905560006129534282613f94565b905063ffffffff8111156129a95760405162461bcd60e51b815260206004820152601860248201527f4f766572666c6f77206e6578744f7074696f6e526561647900000000000000006044820152606401611104565b60d2805463ffffffff909216600160a01b0263ffffffff60a01b19909216919091179055505060018055505050565b6065546001600160a01b03163314612a025760405162461bcd60e51b8152600401611104906154c0565b6001600160a01b038116612a4b5760405162461bcd60e51b815260206004820152601060248201526f085b995dd19959549958da5c1a595b9d60821b6044820152606401611104565b60d3546001600160a01b0382811691161415612aa95760405162461bcd60e51b815260206004820152601860248201527f4d757374206265206e657720666565526563697069656e7400000000000000006044820152606401611104565b60d380546001600160a01b0319166001600160a01b0392909216919091179055565b6065546001600160a01b03163314612af55760405162461bcd60e51b8152600401611104906154c0565b6001600160a01b038116612b5a5760405162461bcd60e51b815260206004820152602660248201527f4f776e61626c653a206e6577206f776e657220697320746865207a65726f206160448201526564647265737360d01b6064820152608401611104565b612b6381613d73565b50565b60026001541415612b895760405162461bcd60e51b815260040161110490615516565b600260015560cc547f00000000000000000000000000000000000000000000000000000000000000006001600160a01b03908116620100009092041614612bfa5760405162461bcd60e51b8152602060048201526005602482015264042ae8aa8960db1b6044820152606401611104565b60003411612c335760405162461bcd60e51b81526020600482015260066024820152652176616c756560d01b6044820152606401611104565b612c3d34336137db565b7f00000000000000000000000000000000000000000000000000000000000000006001600160a01b031663d0e30db0346040518263ffffffff1660e01b81526004016000604051808303818588803b158015612c9857600080fd5b505af1158015612cac573d6000803e3d6000fd5b505060018055505050565b6001600160a01b038116600090815260c9602090815260408083208151606081018352905461ffff81168083526201000082046001600160681b031694830194909452600160781b90046001600160801b031691810191909152829160011115612d39575050506001600160a01b031660009081526097602052604081205491565b60cf54815161ffff908116600090815260ca602052604081205460cc549193612d6f93869391169190610100900460ff1661455a565b9050612d90856001600160a01b031660009081526097602052604090205490565b9590945092505050565b60026001541415612dbd5760405162461bcd60e51b815260040161110490615516565b60026001556000612dcc6145cb565b60fd54909150612ddc908261366e565b6001600160801b031660fd555060018055565b60d4546001600160a01b03163314612e195760405162461bcd60e51b815260040161110490615451565b60026001541415612e3c5760405162461bcd60e51b815260040161110490615516565b600260015560d2546001600160a01b031680158015612e62575060cf5461ffff16600114155b612ea15760405162461bcd60e51b815260206004820152601060248201526f149bdd5b99081b9bdd0818db1bdcd95960821b6044820152606401611104565b60408051610120810182526001600160a01b037f0000000000000000000000000000000000000000000000000000000000000000811682527f0000000000000000000000000000000000000000000000000000000000000000811660208301528381168284015260006060830181905260f95461ffff16608084015260fa5460a084015260f654821660c084015260f55490911660e083015260f75461010083015291516377e3ce0d60e11b815290919081908190819073__$753d03423c86e1677c9cdb4291172228a9$__9063efc79c1a90612f8890889060cc9060cf9060040161554d565b60806040518083038186803b158015612fa057600080fd5b505af4158015612fb4573d6000803e3d6000fd5b505050506040513d601f19601f82011682018060405250810190612fd891906150ed565b93509350935093507fa217999b1c125c2a996f712c5f26a28addad7167bd8a67d5bd5b2a751148abb0828260405161301a929190918252602082015260400190565b60405180910390a1505060d180546001600160a01b0319166001600160a01b0393909316929092179091556001600160681b031660f855505060018055565b6065546001600160a01b031633146130835760405162461bcd60e51b8152600401611104906154c0565b613091620f42406064615842565b81106130d85760405162461bcd60e51b8152602060048201526016602482015275496e76616c6964206d616e6167656d656e742066656560501b6044820152606401611104565b60006130f563031ba3096130ef84620f4240614788565b90614794565b60d65460408051918252602082018590529192507f4e874b007ab14f7e263baefd44951834c8266f4f224d1092e49e9c254354cc54910160405180910390a160d65550565b6001600160a01b03831661319c5760405162461bcd60e51b8152602060048201526024808201527f45524332303a20617070726f76652066726f6d20746865207a65726f206164646044820152637265737360e01b6064820152608401611104565b6001600160a01b0382166131fd5760405162461bcd60e51b815260206004820152602260248201527f45524332303a20617070726f766520746f20746865207a65726f206164647265604482015261737360f01b6064820152608401611104565b6001600160a01b0383811660008181526098602090815260408083209487168084529482529182902085905590518481527f8c5be1e5ebec7d5bd14f71427d1e84f3dd0314c0f7b2291e5b200ac8c7c3b92591015b60405180910390a3505050565b600054610100900460ff1680613278575060005460ff16155b6132945760405162461bcd60e51b815260040161110490615472565b600054610100900460ff161580156132b6576000805461ffff19166101011790555b60405163c72733f760e01b815273__$753d03423c86e1677c9cdb4291172228a9$__9063c72733f7906132fb908c908c908c908b908d908c908c908c90600401615344565b60006040518083038186803b15801561331357600080fd5b505af4158015613327573d6000803e3d6000fd5b505050506133336147a0565b61333d8484614813565b613345614892565b61334e89612acb565b60d480546001600160a01b03808b166001600160a01b03199283161790925560d38054928a169290911691909117905560d585905561339863031ba3096130ef88620f4240614788565b60d6558160cc6133a88282615937565b505060cc546040516370a0823160e01b81523060048201526000916201000090046001600160a01b0316906370a082319060240160206040518083038186803b1580156133f457600080fd5b505afa158015613408573d6000803e3d6000fd5b505050506040513d601f19601f8201168201806040525081019061342c9190615253565b905061343781613b7a565b60cf805461ffff196001600160681b03909316600160781b02929092167fffffffff00000000000000000000000000ffffffffffffffffffffffffff00009092169190911760011790558015613493576000805461ff00191690555b505050505050505050565b6001600160a01b0383166135025760405162461bcd60e51b815260206004820152602560248201527f45524332303a207472616e736665722066726f6d20746865207a65726f206164604482015264647265737360d81b6064820152608401611104565b6001600160a01b0382166135645760405162461bcd60e51b815260206004820152602360248201527f45524332303a207472616e7366657220746f20746865207a65726f206164647260448201526265737360e81b6064820152608401611104565b6001600160a01b038316600090815260976020526040902054818110156135dc5760405162461bcd60e51b815260206004820152602660248201527f45524332303a207472616e7366657220616d6f756e7420657863656564732062604482015265616c616e636560d01b6064820152608401611104565b6001600160a01b0380851660009081526097602052604080822085850390559185168152908120805484929061361390849061571f565b92505081905550826001600160a01b0316846001600160a01b03167fddf252ad1be2c89b69c2b068fc378daa952ba7f163c4a11628f55a4df523b3ef8460405161365f91815260200190565b60405180910390a35b50505050565b60006115798284615861565b60cc546001600160a01b03620100009091048116907f0000000000000000000000000000000000000000000000000000000000000000168114156137c757604051632e1a7d4d60e01b8152600481018390527f00000000000000000000000000000000000000000000000000000000000000006001600160a01b031690632e1a7d4d90602401600060405180830381600087803b15801561371a57600080fd5b505af115801561372e573d6000803e3d6000fd5b505050506000836001600160a01b03168360405160006040518083038185875af1925050503d806000811461377f576040519150601f19603f3d011682016040523d82523d6000602084013e613784565b606091505b50509050806136685760405162461bcd60e51b815260206004820152600f60248201526e151c985b9cd9995c8819985a5b1959608a1b6044820152606401611104565b6114cf6001600160a01b03821684846148f9565b60cf5461ffff1660006137f6846137f0612248565b90613f94565b60ce549091506001600160681b03168111156138415760405162461bcd60e51b815260206004820152600a6024820152690457863656564206361760b41b6044820152606401611104565b60cd54600160a01b900466ffffffffffffff1681101561389a5760405162461bcd60e51b8152602060048201526014602482015273496e73756666696369656e742062616c616e636560601b6044820152606401611104565b60408051858152602081018490526001600160a01b038516917f90890809c654f11d6e72a28fa60149770a0d11ec6c92319d6ceb2bb0a4ea1a15910160405180910390a26001600160a01b038316600090815260c9602090815260408083208151606081018352905461ffff81168083526201000082046001600160681b031683860152600160781b9091046001600160801b031682840152845260ca90925282205460cc54919291613959918491879190610100900460ff1661455a565b8251909150869061ffff1685141561398a576020830151600090613986906001600160681b031689613f94565b9150505b61399381613b7a565b6040805160608101825261ffff80881682526001600160681b0380851660208085019182526001600160801b038089168688019081526001600160a01b038e16600090815260c990935296822095518654935197518216600160781b02600160781b600160f81b03199890951662010000026effffffffffffffffffffffffffffff1990941695169490941791909117949094161790915560d054613a39911689613f94565b9050613a4481614510565b60d080546001600160801b0319166001600160801b039290921691909117905550505050505050565b6040516001600160a01b03808516602483015283166044820152606481018290526136689085906323b872dd60e01b906084015b60408051601f198184030181529190526020810180516001600160e01b03166001600160e01b031990931692909217909152614929565b600080613ae683600a61579a565b905060008611613af65780613b0e565b613b0e866130ef613b07888861366e565b8490614788565b9695505050505050565b600060018311613b625760405162461bcd60e51b8152602060048201526015602482015274496e76616c6964206173736574506572536861726560581b6044820152606401611104565b6118ca613b7083600a61579a565b6130ef8686614788565b6001600160681b03811115612b635760405162461bcd60e51b815260206004820152601060248201526f13dd995c999b1bddc81d5a5b9d0c4c0d60821b6044820152606401611104565b33600090815260c9602090815260408083208151606081018352905461ffff8082168084526201000083046001600160681b031684870152600160781b9092046001600160801b03168385015260cf5491865260ca9094529184205460cc5491949290931692613c3f9185918591610100900460ff1661455a565b905083613c4c5784613c4e565b805b945084613c5c575050505050565b80851115613ca05760405162461bcd60e51b81526020600482015260116024820152704578636565647320617661696c61626c6560781b6044820152606401611104565b825161ffff16821115613ccd5733600090815260c960205260409020805462010000600160781b03191690555b613cd685614510565b613ce0818661366e565b33600081815260c960205260409081902080546001600160801b0394909416600160781b02600160781b600160f81b0319909416939093179092558451915190917fe5b754fb1abb7f01b499791d0b820ae3b6af3424ac1c59768edb53f4ec31a92991613d599189825261ffff16602082015260400190565b60405180910390a2613d6c30338761349e565b5050505050565b606580546001600160a01b038381166001600160a01b0319831681179093556040519116919082907f8be0079c531659141344cd1fd0a4f28419497f9722a3daafe3b4186f6b6457e090600090a35050565b60008111613e025760405162461bcd60e51b815260206004820152600a602482015269216e756d53686172657360b01b6044820152606401611104565b33600090815260c960205260409020546201000090046001600160681b0316151580613e4c575033600090815260c96020526040902054600160781b90046001600160801b031615155b15613e5d57613e5d60006001613bc4565b60cf5433600081815260cb60209081526040918290208054835187815261ffff96871693810184905292959194911685149290917f0c53c82ad07e2d592d88ece3b066777dd60f1118e2a081b380efc4358f0d9e2a910160405180910390a281546201000090046001600160801b031660008215613ee657613edf8287613f94565b9050613f49565b8115613f285760405162461bcd60e51b81526020600482015260116024820152704578697374696e6720776974686472617760781b6044820152606401611104565b5033600090815260cb60205260409020805461ffff191661ffff8616179055845b613f5281614510565b33600081815260cb60205260409020805462010000600160901b031916620100006001600160801b03851602179055613f8c90308861349e565b505050505050565b6000611579828461571f565b60d25460f55460f754604051630f7d679f60e01b81526001600160a01b0393841660048201819052939092166024830152604482015260009073__$753d03423c86e1677c9cdb4291172228a9$__90630f7d679f9060640160206040518083038186803b15801561401057600080fd5b505af4158015614024573d6000803e3d6000fd5b505050506040513d601f19601f820116820180604052508101906140489190615253565b6040516301c6654960e21b81526001600160a01b038085166004830152602482018390527f000000000000000000000000000000000000000000000000000000000000000016604482015260cc606482015290915073__$753d03423c86e1677c9cdb4291172228a9$__9063071995249060840160206040518083038186803b1580156140d457600080fd5b505af41580156140e8573d6000803e3d6000fd5b505050506040513d601f19601f8201168201806040525081019061410c9190615253565b60fc555050565b60cf546201000090046001600160681b03166001600160a01b0382161561415f5760cf80546cffffffffffffffffffffffffff60781b1916600160781b6001600160681b038416021790555b60cf805462010000600160781b031916905560d280546001600160a01b03191690556001600160a01b0382161561428557604051636c6fe87f60e11b81526001600160a01b037f000000000000000000000000000000000000000000000000000000000000000016600482015260009073__$753d03423c86e1677c9cdb4291172228a9$__9063d8dfd0fe9060240160206040518083038186803b15801561420657600080fd5b505af415801561421a573d6000803e3d6000fd5b505050506040513d601f19601f8201168201806040525081019061423e9190615253565b9050336001600160a01b0316836001600160a01b03167f7e830f7c1771deb1bdb35c4a7e6051bbac32b376f7f4e4976b8618b0b11997f78360405161325291815260200190565b5050565b60d3546040805160e08101825260cc54610100810460ff16825291516370a0823160e01b815230600482015260009384936001600160a01b0391821693859384938493849373__$753d03423c86e1677c9cdb4291172228a9$__9363d9b874389360cf93602084019262010000909104909116906370a082319060240160206040518083038186803b15801561431e57600080fd5b505afa158015614332573d6000803e3d6000fd5b505050506040513d601f19601f820116820180604052508101906143569190615253565b815260200161436460995490565b81526020018d815260200160d554815260200160d65481526020018c8152506040518363ffffffff1660e01b81526004016143f192919060006101008201905083825282516020830152602083015160408301526040830151606083015260608301516080830152608083015160a083015260a083015160c083015260c083015160e08301529392505050565b60c06040518083038186803b15801561440957600080fd5b505af415801561441d573d6000803e3d6000fd5b505050506040513d601f19601f82011682018060405250810190614441919061528f565b60cf5461ffff16600081815260ca60209081526040918290208790558151858152908101849052908101829052969d50949b50919850965094509250906001600160a01b038716907f0a242f7ecaf711036ca770774ceffae28e60ef042ac113ddd187f2631db0c0069060600160405180910390a260d080546001600160801b03191690556144d181600161571f565b60cf805461ffff191661ffff92909216919091179055506144f4905030846149fb565b801561450457614504848261367a565b505050505b9250929050565b6001600160801b03811115612b635760405162461bcd60e51b815260206004820152601060248201526f09eeccae4ccd8deee40ead2dce86264760831b6044820152606401611104565b835160009061ffff16158015906145755750845161ffff1684115b156145b757600061459486602001516001600160681b03168585614ada565b60408701519091506145af906001600160801b031682613f94565b9150506118ca565b50505050604001516001600160801b031690565b33600090815260cb6020526040812080546001600160801b03620100008204169061ffff168161462d5760405162461bcd60e51b815260206004820152600d60248201526c139bdd081a5b9a5d1a585d1959609a1b6044820152606401611104565b60cf5461ffff1681106146755760405162461bcd60e51b815260206004820152601060248201526f149bdd5b99081b9bdd0818db1bdcd95960821b6044820152606401611104565b33600090815260cb60205260409020805462010000600160901b031916905560d0546146b190600160801b90046001600160801b03168361366e565b60d080546001600160801b03928316600160801b029216919091179055600081815260ca602052604081205460cc546146f491859160ff61010090910416613b18565b604080518281526020810186905291925033917ff279e6a1f5e320cca91135676d9cb6e44ca8a08c0b88342bcdb1144f6511b568910160405180910390a261473c3084614b3d565b6000811161477e5760405162461bcd60e51b815260206004820152600f60248201526e085dda5d1a191c985dd05b5bdd5b9d608a1b6044820152606401611104565b6118ca338261367a565b60006115798284615842565b60006115798284615737565b600054610100900460ff16806147b9575060005460ff16155b6147d55760405162461bcd60e51b815260040161110490615472565b600054610100900460ff161580156147f7576000805461ffff19166101011790555b6147ff614c8b565b8015612b63576000805461ff001916905550565b600054610100900460ff168061482c575060005460ff16155b6148485760405162461bcd60e51b815260040161110490615472565b600054610100900460ff1615801561486a576000805461ffff19166101011790555b614872614cfa565b61487c8383614d64565b80156114cf576000805461ff0019169055505050565b600054610100900460ff16806148ab575060005460ff16155b6148c75760405162461bcd60e51b815260040161110490615472565b600054610100900460ff161580156148e9576000805461ffff19166101011790555b6148f1614cfa565b6147ff614df9565b6040516001600160a01b0383166024820152604481018290526114cf90849063a9059cbb60e01b90606401613aa1565b600061497e826040518060400160405280602081526020017f5361666545524332303a206c6f772d6c6576656c2063616c6c206661696c6564815250856001600160a01b0316614e599092919063ffffffff16565b8051909150156114cf578080602001905181019061499c919061519c565b6114cf5760405162461bcd60e51b815260206004820152602a60248201527f5361666545524332303a204552433230206f7065726174696f6e20646964206e6044820152691bdd081cdd58d8d9595960b21b6064820152608401611104565b6001600160a01b038216614a515760405162461bcd60e51b815260206004820152601f60248201527f45524332303a206d696e7420746f20746865207a65726f2061646472657373006044820152606401611104565b8060996000828254614a63919061571f565b90915550506001600160a01b03821660009081526097602052604081208054839290614a9090849061571f565b90915550506040518181526001600160a01b038316906000907fddf252ad1be2c89b69c2b068fc378daa952ba7f163c4a11628f55a4df523b3ef9060200160405180910390a35050565b600060018311614b245760405162461bcd60e51b8152602060048201526015602482015274496e76616c6964206173736574506572536861726560581b6044820152606401611104565b6118ca836130ef614b3685600a61579a565b8790614788565b6001600160a01b038216614b9d5760405162461bcd60e51b815260206004820152602160248201527f45524332303a206275726e2066726f6d20746865207a65726f206164647265736044820152607360f81b6064820152608401611104565b6001600160a01b03821660009081526097602052604090205481811015614c115760405162461bcd60e51b815260206004820152602260248201527f45524332303a206275726e20616d6f756e7420657863656564732062616c616e604482015261636560f01b6064820152608401611104565b6001600160a01b0383166000908152609760205260408120838303905560998054849290614c40908490615861565b90915550506040518281526000906001600160a01b038516907fddf252ad1be2c89b69c2b068fc378daa952ba7f163c4a11628f55a4df523b3ef9060200160405180910390a3505050565b600054610100900460ff1680614ca4575060005460ff16155b614cc05760405162461bcd60e51b815260040161110490615472565b600054610100900460ff16158015614ce2576000805461ffff19166101011790555b600180558015612b63576000805461ff001916905550565b600054610100900460ff1680614d13575060005460ff16155b614d2f5760405162461bcd60e51b815260040161110490615472565b600054610100900460ff161580156147ff576000805461ffff19166101011790558015612b63576000805461ff001916905550565b600054610100900460ff1680614d7d575060005460ff16155b614d995760405162461bcd60e51b815260040161110490615472565b600054610100900460ff16158015614dbb576000805461ffff19166101011790555b8251614dce90609a906020860190614f64565b508151614de290609b906020850190614f64565b5080156114cf576000805461ff0019169055505050565b600054610100900460ff1680614e12575060005460ff16155b614e2e5760405162461bcd60e51b815260040161110490615472565b600054610100900460ff16158015614e50576000805461ffff19166101011790555b6147ff33613d73565b60606118ca848460008585843b614eb25760405162461bcd60e51b815260206004820152601d60248201527f416464726573733a2063616c6c20746f206e6f6e2d636f6e74726163740000006044820152606401611104565b600080866001600160a01b03168587604051614ece9190615328565b60006040518083038185875af1925050503d8060008114614f0b576040519150601f19603f3d011682016040523d82523d6000602084013e614f10565b606091505b5091509150614f20828286614f2b565b979650505050505050565b60608315614f3a575081611579565b825115614f4a5782518084602001fd5b8160405162461bcd60e51b8152600401611104919061543e565b828054614f70906158a4565b90600052602060002090601f016020900481019282614f925760008555614fd8565b82601f10614fab57805160ff1916838001178555614fd8565b82800160010185558215614fd8579182015b82811115614fd8578251825591602001919060010190614fbd565b50614fe4929150614fe8565b5090565b5b80821115614fe45760008155600101614fe9565b803561500881615a48565b919050565b803561500881615a6b565b803561500881615a80565b803561500881615a95565b60006020828403121561503f578081fd5b813561157981615a48565b6000806040838503121561505c578081fd5b823561506781615a48565b9150602083013561507781615a48565b809150509250929050565b600080600060608486031215615096578081fd5b83356150a181615a48565b925060208401356150b181615a48565b929592945050506040919091013590565b600080604083850312156150d4578182fd5b82356150df81615a48565b946020939093013593505050565b60008060008060808587031215615102578081fd5b845161510d81615a48565b60208601516040870151606090970151919890975090945092505050565b6000806020838503121561513d578182fd5b823567ffffffffffffffff80821115615154578384fd5b818501915085601f830112615167578384fd5b813581811115615175578485fd5b8660206101208302850101111561518a578485fd5b60209290920196919550909350505050565b6000602082840312156151ad578081fd5b815161157981615a5d565b60008082840360e08112156151cb578283fd5b833567ffffffffffffffff8111156151e1578384fd5b840161014081870312156151f3578384fd5b925060c0601f1982011215615206578182fd5b506020830190509250929050565b600060208284031215615225578081fd5b81356001600160801b0381168114611579578182fd5b60006020828403121561524c578081fd5b5035919050565b600060208284031215615264578081fd5b5051919050565b6000806040838503121561527d578081fd5b82359150602083013561507781615a48565b60008060008060008060c087890312156152a7578384fd5b865195506020870151945060408701519350606087015192506080870151915060a087015190509295509295509295565b6000602082840312156152e9578081fd5b813563ffffffff81168114611579578182fd5b60008151808452615314816020860160208601615878565b601f01601f19169290920160200192915050565b6000825161533a818460208701615878565b9190910192915050565b60006101a060018060a01b03808c168452808b166020850152808a1660408501528860608501528760808501528160a0850152615383828501886152fc565b915083820360c085015261539782876152fc565b9250843591506153a682615a5d565b90151560e08401526020840135906153bd82615a95565b60ff8216610100850152604085013591506153d782615a48565b166101208301526153ea60608401614ffd565b6001600160a01b031661014083015261540560808401615018565b66ffffffffffffff1661016083015261542060a0840161500d565b6001600160681b038116610180840152509998505050505050505050565b60208152600061157960208301846152fc565b60208082526007908201526610b5b2b2b832b960c91b604082015260600190565b6020808252602e908201527f496e697469616c697a61626c653a20636f6e747261637420697320616c72656160408201526d191e481a5b9a5d1a585b1a5e995960921b606082015260800190565b6020808252818101527f4f776e61626c653a2063616c6c6572206973206e6f7420746865206f776e6572604082015260600190565b60208082526007908201526608585b5bdd5b9d60ca1b604082015260600190565b6020808252601f908201527f5265656e7472616e637947756172643a207265656e7472616e742063616c6c00604082015260600190565b83516001600160a01b0316815260208085015161016083019161557a908401826001600160a01b03169052565b50604085015161559560408401826001600160a01b03169052565b506060850151606083015260808501516155b5608084018261ffff169052565b5060a085015160a083015260c08501516155da60c08401826001600160a01b03169052565b5060e08501516155f560e08401826001600160a01b03169052565b5061010094850151948201949094526101208101929092526101409091015290565b838152604060208083018290528282018490526000919060609081850187855b888110156156cb57813583528382013584840152615656868301614ffd565b6001600160a01b03168684015284820135858401526080808301359084015260a0615682818401614ffd565b6001600160a01b03169084015260c061569c838201615023565b60ff169084015260e0828101359084015261010080830135908401526101209283019290910190600101615637565b50909998505050505050505050565b6000808335601e198436030181126156f0578283fd5b83018035915067ffffffffffffffff82111561570a578283fd5b60200191503681900382131561450957600080fd5b60008219821115615732576157326158fa565b500190565b60008261575257634e487b7160e01b81526012600452602481fd5b500490565b600181815b80851115615792578160001904821115615778576157786158fa565b8085161561578557918102915b93841c939080029061575c565b509250929050565b600061157983836000826157b0575060016111d3565b816157bd575060006111d3565b81600181146157d357600281146157dd576157f9565b60019150506111d3565b60ff8411156157ee576157ee6158fa565b50506001821b6111d3565b5060208310610133831016604e8410600b841016171561581c575081810a6111d3565b6158268383615757565b806000190482111561583a5761583a6158fa565b029392505050565b600081600019048311821515161561585c5761585c6158fa565b500290565b600082821015615873576158736158fa565b500390565b60005b8381101561589357818101518382015260200161587b565b838111156136685750506000910152565b600181811c908216806158b857607f821691505b602082108114156158d957634e487b7160e01b600052602260045260246000fd5b50919050565b60006000198214156158f3576158f36158fa565b5060010190565b634e487b7160e01b600052601160045260246000fd5b600081356111d381615a48565b600081356111d381615a6b565b600081356111d381615a80565b813561594281615a5d565b815460ff19811691151560ff169182178355602084013561596281615a95565b61ff008160081b169050808361ffff19841617178455604085013561598681615a48565b6001600160b01b0319929092169092179190911760109190911b62010000600160b01b0316178155600181016159de6159c160608501615910565b82546001600160a01b0319166001600160a01b0391909116178255565b615a176159ed6080850161592a565b82805466ffffffffffffff60a01b191660a09290921b66ffffffffffffff60a01b16919091179055565b50614285615a2760a0840161591d565b600283016001600160681b0382166001600160681b03198254161781555050565b6001600160a01b0381168114612b6357600080fd5b8015158114612b6357600080fd5b6001600160681b0381168114612b6357600080fd5b66ffffffffffffff81168114612b6357600080fd5b60ff81168114612b6357600080fdfea2646970667358221220ee8558aac41427f83f8f3aee6fc5490d66e8d9fa6577a52eabab2442ad0dbe8164736f6c63430008040033",
  "libraries": {
    "VaultLifecycleWithSwap": "0x529fd34520A77ebC6677AAa64C5608c8eFf98Ef8"
  },
  "devdoc": {
    "kind": "dev",
    "methods": {
      "accountVaultBalance(address)": {
        "params": {
          "account": "is the address to lookup balance for"
        },
        "returns": {
          "_0": "the amount of `asset` custodied by the vault for the user"
        }
      },
      "allowance(address,address)": {
        "details": "See {IERC20-allowance}."
      },
      "approve(address,uint256)": {
        "details": "See {IERC20-approve}. Requirements: - `spender` cannot be the zero address."
      },
      "balanceOf(address)": {
        "details": "See {IERC20-balanceOf}."
      },
      "constructor": {
        "params": {
          "_gammaController": "is the contract address for opyn actions",
          "_marginPool": "is the contract address for providing collateral to opyn",
          "_oTokenFactory": "is the contract address for minting new opyn option types (strikes, asset, expiry)",
          "_swapContract": "is the contract address that facilitates bids settlement",
          "_usdc": "is the USDC contract",
          "_weth": "is the Wrapped Ether contract"
        }
      },
      "decreaseAllowance(address,uint256)": {
        "details": "Atomically decreases the allowance granted to `spender` by the caller. This is an alternative to {approve} that can be used as a mitigation for problems described in {IERC20-approve}. Emits an {Approval} event indicating the updated allowance. Requirements: - `spender` cannot be the zero address. - `spender` must have allowance for the caller of at least `subtractedValue`."
      },
      "deposit(uint256)": {
        "params": {
          "amount": "is the amount of `asset` to deposit"
        }
      },
      "depositFor(uint256,address)": {
        "params": {
          "amount": "is the amount of `asset` to deposit",
          "creditor": "is the address that can claim/withdraw deposited amount"
        }
      },
      "increaseAllowance(address,uint256)": {
        "details": "Atomically increases the allowance granted to `spender` by the caller. This is an alternative to {approve} that can be used as a mitigation for problems described in {IERC20-approve}. Emits an {Approval} event indicating the updated allowance. Requirements: - `spender` cannot be the zero address."
      },
      "initRounds(uint256)": {
        "params": {
          "numRounds": "is the number of rounds to initialize in the map"
        }
      },
      "initialize((address,address,address,uint256,uint256,string,string,address,address,uint32),(bool,uint8,address,address,uint56,uint104))": {
        "params": {
          "_initParams": "is the struct with vault initialization parameters",
          "_vaultParams": "is the struct with vault general data"
        }
      },
      "initiateWithdraw(uint256)": {
        "params": {
          "numShares": "is the number of shares to withdraw"
        }
      },
      "name()": {
        "details": "Returns the name of the token."
      },
      "owner()": {
        "details": "Returns the address of the current owner."
      },
      "redeem(uint256)": {
        "params": {
          "numShares": "is the number of shares to redeem"
        }
      },
      "renounceOwnership()": {
        "details": "Leaves the contract without owner. It will not be possible to call `onlyOwner` functions anymore. Can only be called by the current owner. NOTE: Renouncing ownership will leave the contract without an owner, thereby removing any functionality that is only available to the owner."
      },
      "setAuctionDuration(uint256)": {
        "params": {
          "newAuctionDuration": "is the auction duration"
        }
      },
      "setCap(uint256)": {
        "params": {
          "newCap": "is the new cap for deposits"
        }
      },
      "setFeeRecipient(address)": {
        "params": {
          "newFeeRecipient": "is the address of the new fee recipient"
        }
      },
      "setLiquidityGauge(address)": {
        "params": {
          "newLiquidityGauge": "is the address of the new liquidityGauge contract"
        }
      },
      "setManagementFee(uint256)": {
        "params": {
          "newManagementFee": "is the management fee (6 decimals). ex: 2 * 10 ** 6 = 2%"
        }
      },
      "setNewKeeper(address)": {
        "params": {
          "newKeeper": "is the address of the new keeper"
        }
      },
      "setOptionsPremiumPricer(address)": {
        "params": {
          "newOptionsPremiumPricer": "is the address of the new strike selection contract"
        }
      },
      "setPerformanceFee(uint256)": {
        "params": {
          "newPerformanceFee": "is the performance fee (6 decimals). ex: 20 * 10 ** 6 = 20%"
        }
      },
      "setPremiumDiscount(uint256)": {
        "params": {
          "newPremiumDiscount": "is the premium discount"
        }
      },
      "setStrikePrice(uint128)": {
        "params": {
          "strikePrice": "is the strike price of the new oTokens (decimals = 8)"
        }
      },
      "setStrikeSelection(address)": {
        "params": {
          "newStrikeSelection": "is the address of the new strike selection contract"
        }
      },
      "shareBalances(address)": {
        "params": {
          "account": "is the account to lookup share balance for"
        },
        "returns": {
          "heldByAccount": "is the shares held by account",
          "heldByVault": "is the shares held on the vault (unredeemedShares)"
        }
      },
      "shares(address)": {
        "params": {
          "account": "is the account to lookup share balance for"
        },
        "returns": {
          "_0": "the share balance"
        }
      },
      "stake(uint256)": {
        "params": {
          "numShares": "is the number of shares to stake"
        }
      },
      "symbol()": {
        "details": "Returns the symbol of the token, usually a shorter version of the name."
      },
      "totalBalance()": {
        "returns": {
          "_0": "total balance of the vault, including the amounts locked in third party protocols"
        }
      },
      "totalSupply()": {
        "details": "See {IERC20-totalSupply}."
      },
      "transfer(address,uint256)": {
        "details": "See {IERC20-transfer}. Requirements: - `recipient` cannot be the zero address. - the caller must have a balance of at least `amount`."
      },
      "transferFrom(address,address,uint256)": {
        "details": "See {IERC20-transferFrom}. Emits an {Approval} event indicating the updated allowance. This is not required by the EIP. See the note at the beginning of {ERC20}. Requirements: - `sender` and `recipient` cannot be the zero address. - `sender` must have a balance of at least `amount`. - the caller must have allowance for ``sender``'s tokens of at least `amount`."
      },
      "transferOwnership(address)": {
        "details": "Transfers ownership of the contract to a new account (`newOwner`). Can only be called by the current owner."
      },
      "withdrawInstantly(uint256)": {
        "params": {
          "amount": "is the amount to withdraw"
        }
      }
    },
    "version": 1
  },
  "userdoc": {
    "kind": "user",
    "methods": {
      "DELAY()": {
        "notice": "Deprecated: 15 minute timelock between commitAndClose and rollToNexOption."
      },
      "OTOKEN_FACTORY()": {
        "notice": "oTokenFactory is the factory contract used to spawn otokens. Used to lookup otokens."
      },
      "PERIOD()": {
        "notice": "7 day period between each options sale."
      },
      "USDC()": {
        "notice": "USDC 0xA0b86991c6218b36c1d19D4a2e9Eb0cE3606eB48"
      },
      "WETH()": {
        "notice": "WETH9 0xC02aaA39b223FE8D0A0e5C4F27eAD9083C756Cc2"
      },
      "accountVaultBalance(address)": {
        "notice": "Returns the asset balance held on the vault for the account"
      },
      "burnRemainingOTokens()": {
        "notice": "Burn the remaining oTokens left over"
      },
      "closeRound()": {
        "notice": "Closes the existing short and calculate the shares to mint, new price per share & amount of funds to re-allocate as collateral for the new round Since we are incrementing the round here, the options are sold in the beginning of a round instead of at the end of the round. For example, at round 1, we don't sell any options. We start selling options at the beginning of round 2."
      },
      "commitNextOption()": {
        "notice": "Sets the next option the vault will be shorting"
      },
      "completeWithdraw()": {
        "notice": "Completes a scheduled withdrawal from a past round. Uses finalized pps for the round"
      },
      "constructor": {
        "notice": "Initializes the contract with immutable variables"
      },
      "createOffer()": {
        "notice": "Create offer in the swap contract."
      },
      "decimals()": {
        "notice": "Returns the token decimals"
      },
      "deposit(uint256)": {
        "notice": "Deposits the `asset` from msg.sender."
      },
      "depositETH()": {
        "notice": "Deposits ETH into the contract and mint vault shares. Reverts if the asset is not WETH."
      },
      "depositFor(uint256,address)": {
        "notice": "Deposits the `asset` from msg.sender added to `creditor`'s deposit.Used for vault -> vault deposits on the user's behalf"
      },
      "depositReceipts(address)": {
        "notice": "Stores the user's pending deposit for the round"
      },
      "feeRecipient()": {
        "notice": "Fee recipient for the performance and management fees"
      },
      "initRounds(uint256)": {
        "notice": "Helper function that helps to save gas for writing values into the roundPricePerShare map.         Writing `1` into the map makes subsequent writes warm, reducing the gas from 20k to 5k.         Having 1 initialized beforehand will not be an issue as long as we round down share calculations to 0."
      },
      "initialize((address,address,address,uint256,uint256,string,string,address,address,uint32),(bool,uint8,address,address,uint56,uint104))": {
        "notice": "Initializes the OptionVault contract with storage variables."
      },
      "initiateWithdraw(uint256)": {
        "notice": "Initiates a withdrawal that can be processed once the round completes"
      },
      "keeper()": {
        "notice": "role in charge of weekly vault operations such as rollToNextOption and burnRemainingOTokens"
      },
      "managementFee()": {
        "notice": "Management fee charged on entire AUM in rollToNextOption. Only charged when there is no loss."
      },
      "maxRedeem()": {
        "notice": "Redeems the entire unredeemedShares balance that is owed to the account"
      },
      "optionState()": {
        "notice": "Vault's state of the options sold and the timelocked option"
      },
      "performanceFee()": {
        "notice": "Performance fee charged on premiums earned in rollToNextOption. Only charged when there is no loss."
      },
      "pricePerShare()": {
        "notice": "The price of a unit of share denominated in the `asset`"
      },
      "redeem(uint256)": {
        "notice": "Redeems shares that are owed to the account"
      },
      "rollToNextOption()": {
        "notice": "Rolls the vault's funds into a new short position and create a new offer."
      },
      "roundPricePerShare(uint256)": {
        "notice": "On every round's close, the pricePerShare value of an rTHETA token is stored This is used to determine the number of shares to be returned to a user with their DepositReceipt.depositAmount"
      },
      "setAuctionDuration(uint256)": {
        "notice": "Sets the new auction duration"
      },
      "setCap(uint256)": {
        "notice": "Sets a new cap for deposits"
      },
      "setFeeRecipient(address)": {
        "notice": "Sets the new fee recipient"
      },
      "setLiquidityGauge(address)": {
        "notice": "Sets the new liquidityGauge contract for this vault"
      },
      "setManagementFee(uint256)": {
        "notice": "Sets the management fee for the vault"
      },
      "setNewKeeper(address)": {
        "notice": "Sets the new keeper"
      },
      "setOptionsPremiumPricer(address)": {
        "notice": "Sets the new options premium pricer contract"
      },
      "setPerformanceFee(uint256)": {
        "notice": "Sets the performance fee for the vault"
      },
      "setPremiumDiscount(uint256)": {
        "notice": "Sets the new discount on premiums for options we are selling"
      },
      "setStrikePrice(uint128)": {
        "notice": "Optionality to set strike price manually Should be called after closeRound if we are setting current week's strike"
      },
      "setStrikeSelection(address)": {
        "notice": "Sets the new strike selection contract"
      },
      "settleOffer((uint256,uint256,address,uint256,uint256,address,uint8,bytes32,bytes32)[])": {
        "notice": "Settle current offer"
      },
      "shareBalances(address)": {
        "notice": "Getter for returning the account's share balance split between account and vault holdings"
      },
      "shares(address)": {
        "notice": "Getter for returning the account's share balance including unredeemed shares"
      },
      "stake(uint256)": {
        "notice": "Stakes a users vault shares"
      },
      "totalBalance()": {
        "notice": "Returns the vault's total balance, including the amounts locked into a short position"
      },
      "vaultParams()": {
        "notice": "Vault's parameters like cap, decimals"
      },
      "vaultState()": {
        "notice": "Vault's lifecycle state like round and locked amounts"
      },
      "withdrawInstantly(uint256)": {
        "notice": "Withdraws the assets on the vault using the outstanding `DepositReceipt.amount`"
      },
      "withdrawals(address)": {
        "notice": "Stores pending user withdrawals"
      }
    },
    "notice": "UPGRADEABILITY: Since we use the upgradeable proxy pattern, we must observe the inheritance chain closely. Any changes/appends in storage variable needs to happen in RibbonThetaVaultStorage. RibbonThetaVault should not inherit from any other contract aside from RibbonVault, RibbonThetaVaultStorage",
    "version": 1
  },
  "storageLayout": {
    "storage": [
      {
        "astId": 176,
        "contract": "contracts/vaults/BaseVaultWithSwap/RibbonThetaVaultWithSwap.sol:RibbonThetaVaultWithSwap",
        "label": "_initialized",
        "offset": 0,
        "slot": "0",
        "type": "t_bool"
      },
      {
        "astId": 179,
        "contract": "contracts/vaults/BaseVaultWithSwap/RibbonThetaVaultWithSwap.sol:RibbonThetaVaultWithSwap",
        "label": "_initializing",
        "offset": 1,
        "slot": "0",
        "type": "t_bool"
      },
      {
        "astId": 230,
        "contract": "contracts/vaults/BaseVaultWithSwap/RibbonThetaVaultWithSwap.sol:RibbonThetaVaultWithSwap",
        "label": "_status",
        "offset": 0,
        "slot": "1",
        "type": "t_uint256"
      },
      {
        "astId": 273,
        "contract": "contracts/vaults/BaseVaultWithSwap/RibbonThetaVaultWithSwap.sol:RibbonThetaVaultWithSwap",
        "label": "__gap",
        "offset": 0,
        "slot": "2",
        "type": "t_array(t_uint256)49_storage"
      },
      {
        "astId": 993,
        "contract": "contracts/vaults/BaseVaultWithSwap/RibbonThetaVaultWithSwap.sol:RibbonThetaVaultWithSwap",
        "label": "__gap",
        "offset": 0,
        "slot": "51",
        "type": "t_array(t_uint256)50_storage"
      },
      {
        "astId": 56,
        "contract": "contracts/vaults/BaseVaultWithSwap/RibbonThetaVaultWithSwap.sol:RibbonThetaVaultWithSwap",
        "label": "_owner",
        "offset": 0,
        "slot": "101",
        "type": "t_address"
      },
      {
        "astId": 169,
        "contract": "contracts/vaults/BaseVaultWithSwap/RibbonThetaVaultWithSwap.sol:RibbonThetaVaultWithSwap",
        "label": "__gap",
        "offset": 0,
        "slot": "102",
        "type": "t_array(t_uint256)49_storage"
      },
      {
        "astId": 293,
        "contract": "contracts/vaults/BaseVaultWithSwap/RibbonThetaVaultWithSwap.sol:RibbonThetaVaultWithSwap",
        "label": "_balances",
        "offset": 0,
        "slot": "151",
        "type": "t_mapping(t_address,t_uint256)"
      },
      {
        "astId": 299,
        "contract": "contracts/vaults/BaseVaultWithSwap/RibbonThetaVaultWithSwap.sol:RibbonThetaVaultWithSwap",
        "label": "_allowances",
        "offset": 0,
        "slot": "152",
        "type": "t_mapping(t_address,t_mapping(t_address,t_uint256))"
      },
      {
        "astId": 301,
        "contract": "contracts/vaults/BaseVaultWithSwap/RibbonThetaVaultWithSwap.sol:RibbonThetaVaultWithSwap",
        "label": "_totalSupply",
        "offset": 0,
        "slot": "153",
        "type": "t_uint256"
      },
      {
        "astId": 303,
        "contract": "contracts/vaults/BaseVaultWithSwap/RibbonThetaVaultWithSwap.sol:RibbonThetaVaultWithSwap",
        "label": "_name",
        "offset": 0,
        "slot": "154",
        "type": "t_string_storage"
      },
      {
        "astId": 305,
        "contract": "contracts/vaults/BaseVaultWithSwap/RibbonThetaVaultWithSwap.sol:RibbonThetaVaultWithSwap",
        "label": "_symbol",
        "offset": 0,
        "slot": "155",
        "type": "t_string_storage"
      },
      {
        "astId": 846,
        "contract": "contracts/vaults/BaseVaultWithSwap/RibbonThetaVaultWithSwap.sol:RibbonThetaVaultWithSwap",
        "label": "__gap",
        "offset": 0,
        "slot": "156",
        "type": "t_array(t_uint256)45_storage"
      },
      {
        "astId": 18895,
        "contract": "contracts/vaults/BaseVaultWithSwap/RibbonThetaVaultWithSwap.sol:RibbonThetaVaultWithSwap",
        "label": "depositReceipts",
        "offset": 0,
        "slot": "201",
        "type": "t_mapping(t_address,t_struct(DepositReceipt)6515_storage)"
      },
      {
        "astId": 18900,
        "contract": "contracts/vaults/BaseVaultWithSwap/RibbonThetaVaultWithSwap.sol:RibbonThetaVaultWithSwap",
        "label": "roundPricePerShare",
        "offset": 0,
        "slot": "202",
        "type": "t_mapping(t_uint256,t_uint256)"
      },
      {
        "astId": 18906,
        "contract": "contracts/vaults/BaseVaultWithSwap/RibbonThetaVaultWithSwap.sol:RibbonThetaVaultWithSwap",
        "label": "withdrawals",
        "offset": 0,
        "slot": "203",
        "type": "t_mapping(t_address,t_struct(Withdrawal)6520_storage)"
      },
      {
        "astId": 18910,
        "contract": "contracts/vaults/BaseVaultWithSwap/RibbonThetaVaultWithSwap.sol:RibbonThetaVaultWithSwap",
        "label": "vaultParams",
        "offset": 0,
        "slot": "204",
        "type": "t_struct(VaultParams)6490_storage"
      },
      {
        "astId": 18914,
        "contract": "contracts/vaults/BaseVaultWithSwap/RibbonThetaVaultWithSwap.sol:RibbonThetaVaultWithSwap",
        "label": "vaultState",
        "offset": 0,
        "slot": "207",
        "type": "t_struct(VaultState)6508_storage"
      },
      {
        "astId": 18918,
        "contract": "contracts/vaults/BaseVaultWithSwap/RibbonThetaVaultWithSwap.sol:RibbonThetaVaultWithSwap",
        "label": "optionState",
        "offset": 0,
        "slot": "209",
        "type": "t_struct(OptionState)6497_storage"
      },
      {
        "astId": 18921,
        "contract": "contracts/vaults/BaseVaultWithSwap/RibbonThetaVaultWithSwap.sol:RibbonThetaVaultWithSwap",
        "label": "feeRecipient",
        "offset": 0,
        "slot": "211",
        "type": "t_address"
      },
      {
        "astId": 18924,
        "contract": "contracts/vaults/BaseVaultWithSwap/RibbonThetaVaultWithSwap.sol:RibbonThetaVaultWithSwap",
        "label": "keeper",
        "offset": 0,
        "slot": "212",
        "type": "t_address"
      },
      {
        "astId": 18927,
        "contract": "contracts/vaults/BaseVaultWithSwap/RibbonThetaVaultWithSwap.sol:RibbonThetaVaultWithSwap",
        "label": "performanceFee",
        "offset": 0,
        "slot": "213",
        "type": "t_uint256"
      },
      {
        "astId": 18930,
        "contract": "contracts/vaults/BaseVaultWithSwap/RibbonThetaVaultWithSwap.sol:RibbonThetaVaultWithSwap",
        "label": "managementFee",
        "offset": 0,
        "slot": "214",
        "type": "t_uint256"
      },
      {
        "astId": 18934,
        "contract": "contracts/vaults/BaseVaultWithSwap/RibbonThetaVaultWithSwap.sol:RibbonThetaVaultWithSwap",
        "label": "____gap",
        "offset": 0,
        "slot": "215",
        "type": "t_array(t_uint256)30_storage"
      },
      {
        "astId": 14311,
        "contract": "contracts/vaults/BaseVaultWithSwap/RibbonThetaVaultWithSwap.sol:RibbonThetaVaultWithSwap",
        "label": "optionsPremiumPricer",
        "offset": 0,
        "slot": "245",
        "type": "t_address"
      },
      {
        "astId": 14313,
        "contract": "contracts/vaults/BaseVaultWithSwap/RibbonThetaVaultWithSwap.sol:RibbonThetaVaultWithSwap",
        "label": "strikeSelection",
        "offset": 0,
        "slot": "246",
        "type": "t_address"
      },
      {
        "astId": 14315,
        "contract": "contracts/vaults/BaseVaultWithSwap/RibbonThetaVaultWithSwap.sol:RibbonThetaVaultWithSwap",
        "label": "premiumDiscount",
        "offset": 0,
        "slot": "247",
        "type": "t_uint256"
      },
      {
        "astId": 14317,
        "contract": "contracts/vaults/BaseVaultWithSwap/RibbonThetaVaultWithSwap.sol:RibbonThetaVaultWithSwap",
        "label": "currentOtokenPremium",
        "offset": 0,
        "slot": "248",
        "type": "t_uint256"
      },
      {
        "astId": 14319,
        "contract": "contracts/vaults/BaseVaultWithSwap/RibbonThetaVaultWithSwap.sol:RibbonThetaVaultWithSwap",
        "label": "lastStrikeOverrideRound",
        "offset": 0,
        "slot": "249",
        "type": "t_uint16"
      },
      {
        "astId": 14321,
        "contract": "contracts/vaults/BaseVaultWithSwap/RibbonThetaVaultWithSwap.sol:RibbonThetaVaultWithSwap",
        "label": "overriddenStrikePrice",
        "offset": 0,
        "slot": "250",
        "type": "t_uint256"
      },
      {
        "astId": 14323,
        "contract": "contracts/vaults/BaseVaultWithSwap/RibbonThetaVaultWithSwap.sol:RibbonThetaVaultWithSwap",
        "label": "auctionDuration",
        "offset": 0,
        "slot": "251",
        "type": "t_uint256"
      },
      {
        "astId": 14325,
        "contract": "contracts/vaults/BaseVaultWithSwap/RibbonThetaVaultWithSwap.sol:RibbonThetaVaultWithSwap",
        "label": "optionAuctionID",
        "offset": 0,
        "slot": "252",
        "type": "t_uint256"
      },
      {
        "astId": 14328,
        "contract": "contracts/vaults/BaseVaultWithSwap/RibbonThetaVaultWithSwap.sol:RibbonThetaVaultWithSwap",
        "label": "lastQueuedWithdrawAmount",
        "offset": 0,
        "slot": "253",
        "type": "t_uint256"
      },
      {
        "astId": 14331,
        "contract": "contracts/vaults/BaseVaultWithSwap/RibbonThetaVaultWithSwap.sol:RibbonThetaVaultWithSwap",
        "label": "_isUsdcAuction",
        "offset": 0,
        "slot": "254",
        "type": "t_bool"
      },
      {
        "astId": 14333,
        "contract": "contracts/vaults/BaseVaultWithSwap/RibbonThetaVaultWithSwap.sol:RibbonThetaVaultWithSwap",
        "label": "_swapPath",
        "offset": 0,
        "slot": "255",
        "type": "t_bytes_storage"
      },
      {
        "astId": 14336,
        "contract": "contracts/vaults/BaseVaultWithSwap/RibbonThetaVaultWithSwap.sol:RibbonThetaVaultWithSwap",
        "label": "liquidityGauge",
        "offset": 0,
        "slot": "256",
        "type": "t_address"
      },
      {
        "astId": 14339,
        "contract": "contracts/vaults/BaseVaultWithSwap/RibbonThetaVaultWithSwap.sol:RibbonThetaVaultWithSwap",
        "label": "optionsPurchaseQueue",
        "offset": 0,
        "slot": "257",
        "type": "t_address"
      },
      {
        "astId": 14342,
        "contract": "contracts/vaults/BaseVaultWithSwap/RibbonThetaVaultWithSwap.sol:RibbonThetaVaultWithSwap",
        "label": "currentQueuedWithdrawShares",
        "offset": 0,
        "slot": "258",
        "type": "t_uint256"
      }
    ],
    "types": {
      "t_address": {
        "encoding": "inplace",
        "label": "address",
        "numberOfBytes": "20"
      },
      "t_array(t_uint256)30_storage": {
        "base": "t_uint256",
        "encoding": "inplace",
        "label": "uint256[30]",
        "numberOfBytes": "960"
      },
      "t_array(t_uint256)45_storage": {
        "base": "t_uint256",
        "encoding": "inplace",
        "label": "uint256[45]",
        "numberOfBytes": "1440"
      },
      "t_array(t_uint256)49_storage": {
        "base": "t_uint256",
        "encoding": "inplace",
        "label": "uint256[49]",
        "numberOfBytes": "1568"
      },
      "t_array(t_uint256)50_storage": {
        "base": "t_uint256",
        "encoding": "inplace",
        "label": "uint256[50]",
        "numberOfBytes": "1600"
      },
      "t_bool": {
        "encoding": "inplace",
        "label": "bool",
        "numberOfBytes": "1"
      },
      "t_bytes_storage": {
        "encoding": "bytes",
        "label": "bytes",
        "numberOfBytes": "32"
      },
      "t_mapping(t_address,t_mapping(t_address,t_uint256))": {
        "encoding": "mapping",
        "key": "t_address",
        "label": "mapping(address => mapping(address => uint256))",
        "numberOfBytes": "32",
        "value": "t_mapping(t_address,t_uint256)"
      },
      "t_mapping(t_address,t_struct(DepositReceipt)6515_storage)": {
        "encoding": "mapping",
        "key": "t_address",
        "label": "mapping(address => struct Vault.DepositReceipt)",
        "numberOfBytes": "32",
        "value": "t_struct(DepositReceipt)6515_storage"
      },
      "t_mapping(t_address,t_struct(Withdrawal)6520_storage)": {
        "encoding": "mapping",
        "key": "t_address",
        "label": "mapping(address => struct Vault.Withdrawal)",
        "numberOfBytes": "32",
        "value": "t_struct(Withdrawal)6520_storage"
      },
      "t_mapping(t_address,t_uint256)": {
        "encoding": "mapping",
        "key": "t_address",
        "label": "mapping(address => uint256)",
        "numberOfBytes": "32",
        "value": "t_uint256"
      },
      "t_mapping(t_uint256,t_uint256)": {
        "encoding": "mapping",
        "key": "t_uint256",
        "label": "mapping(uint256 => uint256)",
        "numberOfBytes": "32",
        "value": "t_uint256"
      },
      "t_string_storage": {
        "encoding": "bytes",
        "label": "string",
        "numberOfBytes": "32"
      },
      "t_struct(DepositReceipt)6515_storage": {
        "encoding": "inplace",
        "label": "struct Vault.DepositReceipt",
        "members": [
          {
            "astId": 6510,
            "contract": "contracts/vaults/BaseVaultWithSwap/RibbonThetaVaultWithSwap.sol:RibbonThetaVaultWithSwap",
            "label": "round",
            "offset": 0,
            "slot": "0",
            "type": "t_uint16"
          },
          {
            "astId": 6512,
            "contract": "contracts/vaults/BaseVaultWithSwap/RibbonThetaVaultWithSwap.sol:RibbonThetaVaultWithSwap",
            "label": "amount",
            "offset": 2,
            "slot": "0",
            "type": "t_uint104"
          },
          {
            "astId": 6514,
            "contract": "contracts/vaults/BaseVaultWithSwap/RibbonThetaVaultWithSwap.sol:RibbonThetaVaultWithSwap",
            "label": "unredeemedShares",
            "offset": 15,
            "slot": "0",
            "type": "t_uint128"
          }
        ],
        "numberOfBytes": "32"
      },
      "t_struct(OptionState)6497_storage": {
        "encoding": "inplace",
        "label": "struct Vault.OptionState",
        "members": [
          {
            "astId": 6492,
            "contract": "contracts/vaults/BaseVaultWithSwap/RibbonThetaVaultWithSwap.sol:RibbonThetaVaultWithSwap",
            "label": "nextOption",
            "offset": 0,
            "slot": "0",
            "type": "t_address"
          },
          {
            "astId": 6494,
            "contract": "contracts/vaults/BaseVaultWithSwap/RibbonThetaVaultWithSwap.sol:RibbonThetaVaultWithSwap",
            "label": "currentOption",
            "offset": 0,
            "slot": "1",
            "type": "t_address"
          },
          {
            "astId": 6496,
            "contract": "contracts/vaults/BaseVaultWithSwap/RibbonThetaVaultWithSwap.sol:RibbonThetaVaultWithSwap",
            "label": "nextOptionReadyAt",
            "offset": 20,
            "slot": "1",
            "type": "t_uint32"
          }
        ],
        "numberOfBytes": "64"
      },
      "t_struct(VaultParams)6490_storage": {
        "encoding": "inplace",
        "label": "struct Vault.VaultParams",
        "members": [
          {
            "astId": 6479,
            "contract": "contracts/vaults/BaseVaultWithSwap/RibbonThetaVaultWithSwap.sol:RibbonThetaVaultWithSwap",
            "label": "isPut",
            "offset": 0,
            "slot": "0",
            "type": "t_bool"
          },
          {
            "astId": 6481,
            "contract": "contracts/vaults/BaseVaultWithSwap/RibbonThetaVaultWithSwap.sol:RibbonThetaVaultWithSwap",
            "label": "decimals",
            "offset": 1,
            "slot": "0",
            "type": "t_uint8"
          },
          {
            "astId": 6483,
            "contract": "contracts/vaults/BaseVaultWithSwap/RibbonThetaVaultWithSwap.sol:RibbonThetaVaultWithSwap",
            "label": "asset",
            "offset": 2,
            "slot": "0",
            "type": "t_address"
          },
          {
            "astId": 6485,
            "contract": "contracts/vaults/BaseVaultWithSwap/RibbonThetaVaultWithSwap.sol:RibbonThetaVaultWithSwap",
            "label": "underlying",
            "offset": 0,
            "slot": "1",
            "type": "t_address"
          },
          {
            "astId": 6487,
            "contract": "contracts/vaults/BaseVaultWithSwap/RibbonThetaVaultWithSwap.sol:RibbonThetaVaultWithSwap",
            "label": "minimumSupply",
            "offset": 20,
            "slot": "1",
            "type": "t_uint56"
          },
          {
            "astId": 6489,
            "contract": "contracts/vaults/BaseVaultWithSwap/RibbonThetaVaultWithSwap.sol:RibbonThetaVaultWithSwap",
            "label": "cap",
            "offset": 0,
            "slot": "2",
            "type": "t_uint104"
          }
        ],
        "numberOfBytes": "96"
      },
      "t_struct(VaultState)6508_storage": {
        "encoding": "inplace",
        "label": "struct Vault.VaultState",
        "members": [
          {
            "astId": 6499,
            "contract": "contracts/vaults/BaseVaultWithSwap/RibbonThetaVaultWithSwap.sol:RibbonThetaVaultWithSwap",
            "label": "round",
            "offset": 0,
            "slot": "0",
            "type": "t_uint16"
          },
          {
            "astId": 6501,
            "contract": "contracts/vaults/BaseVaultWithSwap/RibbonThetaVaultWithSwap.sol:RibbonThetaVaultWithSwap",
            "label": "lockedAmount",
            "offset": 2,
            "slot": "0",
            "type": "t_uint104"
          },
          {
            "astId": 6503,
            "contract": "contracts/vaults/BaseVaultWithSwap/RibbonThetaVaultWithSwap.sol:RibbonThetaVaultWithSwap",
            "label": "lastLockedAmount",
            "offset": 15,
            "slot": "0",
            "type": "t_uint104"
          },
          {
            "astId": 6505,
            "contract": "contracts/vaults/BaseVaultWithSwap/RibbonThetaVaultWithSwap.sol:RibbonThetaVaultWithSwap",
            "label": "totalPending",
            "offset": 0,
            "slot": "1",
            "type": "t_uint128"
          },
          {
            "astId": 6507,
            "contract": "contracts/vaults/BaseVaultWithSwap/RibbonThetaVaultWithSwap.sol:RibbonThetaVaultWithSwap",
            "label": "queuedWithdrawShares",
            "offset": 16,
            "slot": "1",
            "type": "t_uint128"
          }
        ],
        "numberOfBytes": "64"
      },
      "t_struct(Withdrawal)6520_storage": {
        "encoding": "inplace",
        "label": "struct Vault.Withdrawal",
        "members": [
          {
            "astId": 6517,
            "contract": "contracts/vaults/BaseVaultWithSwap/RibbonThetaVaultWithSwap.sol:RibbonThetaVaultWithSwap",
            "label": "round",
            "offset": 0,
            "slot": "0",
            "type": "t_uint16"
          },
          {
            "astId": 6519,
            "contract": "contracts/vaults/BaseVaultWithSwap/RibbonThetaVaultWithSwap.sol:RibbonThetaVaultWithSwap",
            "label": "shares",
            "offset": 2,
            "slot": "0",
            "type": "t_uint128"
          }
        ],
        "numberOfBytes": "32"
      },
      "t_uint104": {
        "encoding": "inplace",
        "label": "uint104",
        "numberOfBytes": "13"
      },
      "t_uint128": {
        "encoding": "inplace",
        "label": "uint128",
        "numberOfBytes": "16"
      },
      "t_uint16": {
        "encoding": "inplace",
        "label": "uint16",
        "numberOfBytes": "2"
      },
      "t_uint256": {
        "encoding": "inplace",
        "label": "uint256",
        "numberOfBytes": "32"
      },
      "t_uint32": {
        "encoding": "inplace",
        "label": "uint32",
        "numberOfBytes": "4"
      },
      "t_uint56": {
        "encoding": "inplace",
        "label": "uint56",
        "numberOfBytes": "7"
      },
      "t_uint8": {
        "encoding": "inplace",
        "label": "uint8",
        "numberOfBytes": "1"
      }
    }
  }
}