{
  "address": "0x4Fc68131041B63aAf05C1f3fB2A4578ac03C36b4",
  "abi": [
    {
      "inputs": [
        {
          "internalType": "address",
          "name": "_weth",
          "type": "address"
        },
        {
          "internalType": "address",
          "name": "_usdc",
          "type": "address"
        },
        {
          "internalType": "address",
          "name": "_gammaController",
          "type": "address"
        },
        {
          "internalType": "address",
          "name": "_marginPool",
          "type": "address"
        },
        {
          "internalType": "address",
          "name": "_gnosisEasyAuction",
          "type": "address"
        }
      ],
      "stateMutability": "nonpayable",
      "type": "constructor"
    },
    {
      "anonymous": false,
      "inputs": [
        {
          "indexed": true,
          "internalType": "address",
          "name": "owner",
          "type": "address"
        },
        {
          "indexed": true,
          "internalType": "address",
          "name": "spender",
          "type": "address"
        },
        {
          "indexed": false,
          "internalType": "uint256",
          "name": "value",
          "type": "uint256"
        }
      ],
      "name": "Approval",
      "type": "event"
    },
    {
      "anonymous": false,
      "inputs": [
        {
          "indexed": false,
          "internalType": "uint256",
          "name": "oldCap",
          "type": "uint256"
        },
        {
          "indexed": false,
          "internalType": "uint256",
          "name": "newCap",
          "type": "uint256"
        },
        {
          "indexed": false,
          "internalType": "address",
          "name": "manager",
          "type": "address"
        }
      ],
      "name": "CapSet",
      "type": "event"
    },
    {
      "anonymous": false,
      "inputs": [
        {
          "indexed": true,
          "internalType": "address",
          "name": "options",
          "type": "address"
        },
        {
          "indexed": false,
          "internalType": "uint256",
          "name": "profitAmount",
          "type": "uint256"
        },
        {
          "indexed": true,
          "internalType": "address",
          "name": "manager",
          "type": "address"
        }
      ],
      "name": "CloseLong",
      "type": "event"
    },
    {
      "anonymous": false,
      "inputs": [
        {
          "indexed": false,
          "internalType": "uint256",
          "name": "performanceFee",
          "type": "uint256"
        },
        {
          "indexed": false,
          "internalType": "uint256",
          "name": "vaultFee",
          "type": "uint256"
        },
        {
          "indexed": false,
          "internalType": "uint256",
          "name": "round",
          "type": "uint256"
        },
        {
          "indexed": true,
          "internalType": "address",
          "name": "feeRecipient",
          "type": "address"
        }
      ],
      "name": "CollectVaultFees",
      "type": "event"
    },
    {
      "anonymous": false,
      "inputs": [
        {
          "indexed": true,
          "internalType": "address",
          "name": "account",
          "type": "address"
        },
        {
          "indexed": false,
          "internalType": "uint256",
          "name": "amount",
          "type": "uint256"
        },
        {
          "indexed": false,
          "internalType": "uint256",
          "name": "round",
          "type": "uint256"
        }
      ],
      "name": "Deposit",
      "type": "event"
    },
    {
      "anonymous": false,
      "inputs": [
        {
          "indexed": true,
          "internalType": "address",
          "name": "account",
          "type": "address"
        },
        {
          "indexed": false,
          "internalType": "uint256",
          "name": "shares",
          "type": "uint256"
        },
        {
          "indexed": false,
          "internalType": "uint256",
          "name": "round",
          "type": "uint256"
        }
      ],
      "name": "InitiateWithdraw",
      "type": "event"
    },
    {
      "anonymous": false,
      "inputs": [
        {
          "indexed": true,
          "internalType": "address",
          "name": "account",
          "type": "address"
        },
        {
          "indexed": false,
          "internalType": "uint256",
          "name": "share",
          "type": "uint256"
        },
        {
          "indexed": false,
          "internalType": "uint256",
          "name": "round",
          "type": "uint256"
        }
      ],
      "name": "InstantWithdraw",
      "type": "event"
    },
    {
      "anonymous": false,
      "inputs": [
        {
          "indexed": false,
          "internalType": "uint256",
          "name": "managementFee",
          "type": "uint256"
        },
        {
          "indexed": false,
          "internalType": "uint256",
          "name": "newManagementFee",
          "type": "uint256"
        }
      ],
      "name": "ManagementFeeSet",
      "type": "event"
    },
    {
      "anonymous": false,
      "inputs": [
        {
          "indexed": false,
          "internalType": "uint256",
          "name": "optionAllocation",
          "type": "uint256"
        },
        {
          "indexed": false,
          "internalType": "uint256",
          "name": "newOptionAllocation",
          "type": "uint256"
        }
      ],
      "name": "NewOptionAllocationSet",
      "type": "event"
    },
    {
      "anonymous": false,
      "inputs": [
        {
          "indexed": true,
          "internalType": "address",
          "name": "options",
          "type": "address"
        },
        {
          "indexed": false,
          "internalType": "uint256",
          "name": "purchaseAmount",
          "type": "uint256"
        },
        {
          "indexed": false,
          "internalType": "uint256",
          "name": "premium",
          "type": "uint256"
        },
        {
          "indexed": true,
          "internalType": "address",
          "name": "manager",
          "type": "address"
        }
      ],
      "name": "OpenLong",
      "type": "event"
    },
    {
      "anonymous": false,
      "inputs": [
        {
          "indexed": true,
          "internalType": "address",
          "name": "previousOwner",
          "type": "address"
        },
        {
          "indexed": true,
          "internalType": "address",
          "name": "newOwner",
          "type": "address"
        }
      ],
      "name": "OwnershipTransferred",
      "type": "event"
    },
    {
      "anonymous": false,
      "inputs": [
        {
          "indexed": false,
          "internalType": "uint256",
          "name": "performanceFee",
          "type": "uint256"
        },
        {
          "indexed": false,
          "internalType": "uint256",
          "name": "newPerformanceFee",
          "type": "uint256"
        }
      ],
      "name": "PerformanceFeeSet",
      "type": "event"
    },
    {
      "anonymous": false,
      "inputs": [
        {
          "indexed": false,
          "internalType": "uint256",
          "name": "auctionId",
          "type": "uint256"
        },
        {
          "indexed": true,
          "internalType": "address",
          "name": "auctioningToken",
          "type": "address"
        },
        {
          "indexed": false,
          "internalType": "uint256",
          "name": "sellAmount",
          "type": "uint256"
        },
        {
          "indexed": false,
          "internalType": "uint256",
          "name": "buyAmount",
          "type": "uint256"
        },
        {
          "indexed": true,
          "internalType": "address",
          "name": "bidder",
          "type": "address"
        }
      ],
      "name": "PlaceAuctionBid",
      "type": "event"
    },
    {
      "anonymous": false,
      "inputs": [
        {
          "indexed": true,
          "internalType": "address",
          "name": "account",
          "type": "address"
        },
        {
          "indexed": false,
          "internalType": "uint256",
          "name": "share",
          "type": "uint256"
        },
        {
          "indexed": false,
          "internalType": "uint256",
          "name": "round",
          "type": "uint256"
        }
      ],
      "name": "Redeem",
      "type": "event"
    },
    {
      "anonymous": false,
      "inputs": [
        {
          "indexed": true,
          "internalType": "address",
          "name": "from",
          "type": "address"
        },
        {
          "indexed": true,
          "internalType": "address",
          "name": "to",
          "type": "address"
        },
        {
          "indexed": false,
          "internalType": "uint256",
          "name": "value",
          "type": "uint256"
        }
      ],
      "name": "Transfer",
      "type": "event"
    },
    {
      "anonymous": false,
      "inputs": [
        {
          "indexed": true,
          "internalType": "address",
          "name": "account",
          "type": "address"
        },
        {
          "indexed": false,
          "internalType": "uint256",
          "name": "amount",
          "type": "uint256"
        },
        {
          "indexed": false,
          "internalType": "uint256",
          "name": "shares",
          "type": "uint256"
        }
      ],
      "name": "Withdraw",
      "type": "event"
    },
    {
      "inputs": [],
      "name": "DELAY",
      "outputs": [
        {
          "internalType": "uint256",
          "name": "",
          "type": "uint256"
        }
      ],
      "stateMutability": "view",
      "type": "function"
    },
    {
      "inputs": [],
      "name": "GAMMA_CONTROLLER",
      "outputs": [
        {
          "internalType": "address",
          "name": "",
          "type": "address"
        }
      ],
      "stateMutability": "view",
      "type": "function"
    },
    {
      "inputs": [],
      "name": "GNOSIS_EASY_AUCTION",
      "outputs": [
        {
          "internalType": "address",
          "name": "",
          "type": "address"
        }
      ],
      "stateMutability": "view",
      "type": "function"
    },
    {
      "inputs": [],
      "name": "MARGIN_POOL",
      "outputs": [
        {
          "internalType": "address",
          "name": "",
          "type": "address"
        }
      ],
      "stateMutability": "view",
      "type": "function"
    },
    {
      "inputs": [],
      "name": "PERIOD",
      "outputs": [
        {
          "internalType": "uint256",
          "name": "",
          "type": "uint256"
        }
      ],
      "stateMutability": "view",
      "type": "function"
    },
    {
      "inputs": [],
      "name": "USDC",
      "outputs": [
        {
          "internalType": "address",
          "name": "",
          "type": "address"
        }
      ],
      "stateMutability": "view",
      "type": "function"
    },
    {
      "inputs": [],
      "name": "WETH",
      "outputs": [
        {
          "internalType": "address",
          "name": "",
          "type": "address"
        }
      ],
      "stateMutability": "view",
      "type": "function"
    },
    {
      "inputs": [
        {
          "internalType": "address",
          "name": "account",
          "type": "address"
        }
      ],
      "name": "accountVaultBalance",
      "outputs": [
        {
          "internalType": "uint256",
          "name": "",
          "type": "uint256"
        }
      ],
      "stateMutability": "view",
      "type": "function"
    },
    {
      "inputs": [
        {
          "internalType": "address",
          "name": "owner",
          "type": "address"
        },
        {
          "internalType": "address",
          "name": "spender",
          "type": "address"
        }
      ],
      "name": "allowance",
      "outputs": [
        {
          "internalType": "uint256",
          "name": "",
          "type": "uint256"
        }
      ],
      "stateMutability": "view",
      "type": "function"
    },
    {
      "inputs": [
        {
          "internalType": "address",
          "name": "spender",
          "type": "address"
        },
        {
          "internalType": "uint256",
          "name": "amount",
          "type": "uint256"
        }
      ],
      "name": "approve",
      "outputs": [
        {
          "internalType": "bool",
          "name": "",
          "type": "bool"
        }
      ],
      "stateMutability": "nonpayable",
      "type": "function"
    },
    {
      "inputs": [],
      "name": "auctionSellOrder",
      "outputs": [
        {
          "internalType": "uint96",
          "name": "sellAmount",
          "type": "uint96"
        },
        {
          "internalType": "uint96",
          "name": "buyAmount",
          "type": "uint96"
        },
        {
          "internalType": "uint64",
          "name": "userId",
          "type": "uint64"
        }
      ],
      "stateMutability": "view",
      "type": "function"
    },
    {
      "inputs": [],
      "name": "balanceBeforePremium",
      "outputs": [
        {
          "internalType": "uint256",
          "name": "",
          "type": "uint256"
        }
      ],
      "stateMutability": "view",
      "type": "function"
    },
    {
      "inputs": [
        {
          "internalType": "address",
          "name": "account",
          "type": "address"
        }
      ],
      "name": "balanceOf",
      "outputs": [
        {
          "internalType": "uint256",
          "name": "",
          "type": "uint256"
        }
      ],
      "stateMutability": "view",
      "type": "function"
    },
    {
      "inputs": [],
      "name": "cap",
      "outputs": [
        {
          "internalType": "uint256",
          "name": "",
          "type": "uint256"
        }
      ],
      "stateMutability": "view",
      "type": "function"
    },
    {
      "inputs": [],
      "name": "claimAuctionOtokens",
      "outputs": [],
      "stateMutability": "nonpayable",
      "type": "function"
    },
    {
      "inputs": [],
      "name": "commitAndClose",
      "outputs": [],
      "stateMutability": "nonpayable",
      "type": "function"
    },
    {
      "inputs": [],
      "name": "completeWithdraw",
      "outputs": [],
      "stateMutability": "nonpayable",
      "type": "function"
    },
    {
      "inputs": [],
      "name": "counterpartyThetaVault",
      "outputs": [
        {
          "internalType": "contract IRibbonThetaVault",
          "name": "",
          "type": "address"
        }
      ],
      "stateMutability": "view",
      "type": "function"
    },
    {
      "inputs": [],
      "name": "currentOption",
      "outputs": [
        {
          "internalType": "address",
          "name": "",
          "type": "address"
        }
      ],
      "stateMutability": "view",
      "type": "function"
    },
    {
      "inputs": [],
      "name": "decimals",
      "outputs": [
        {
          "internalType": "uint8",
          "name": "",
          "type": "uint8"
        }
      ],
      "stateMutability": "view",
      "type": "function"
    },
    {
      "inputs": [
        {
          "internalType": "address",
          "name": "spender",
          "type": "address"
        },
        {
          "internalType": "uint256",
          "name": "subtractedValue",
          "type": "uint256"
        }
      ],
      "name": "decreaseAllowance",
      "outputs": [
        {
          "internalType": "bool",
          "name": "",
          "type": "bool"
        }
      ],
      "stateMutability": "nonpayable",
      "type": "function"
    },
    {
      "inputs": [
        {
          "internalType": "uint256",
          "name": "amount",
          "type": "uint256"
        }
      ],
      "name": "deposit",
      "outputs": [],
      "stateMutability": "nonpayable",
      "type": "function"
    },
    {
      "inputs": [],
      "name": "depositETH",
      "outputs": [],
      "stateMutability": "payable",
      "type": "function"
    },
    {
      "inputs": [
        {
          "internalType": "uint256",
          "name": "amount",
          "type": "uint256"
        },
        {
          "internalType": "address",
          "name": "creditor",
          "type": "address"
        }
      ],
      "name": "depositFor",
      "outputs": [],
      "stateMutability": "nonpayable",
      "type": "function"
    },
    {
      "inputs": [
        {
          "internalType": "address",
          "name": "",
          "type": "address"
        }
      ],
      "name": "depositReceipts",
      "outputs": [
        {
          "internalType": "uint16",
          "name": "round",
          "type": "uint16"
        },
        {
          "internalType": "uint104",
          "name": "amount",
          "type": "uint104"
        },
        {
          "internalType": "uint128",
          "name": "unredeemedShares",
          "type": "uint128"
        }
      ],
      "stateMutability": "view",
      "type": "function"
    },
    {
      "inputs": [],
      "name": "feeRecipient",
      "outputs": [
        {
          "internalType": "address",
          "name": "",
          "type": "address"
        }
      ],
      "stateMutability": "view",
      "type": "function"
    },
    {
      "inputs": [
        {
          "internalType": "address",
          "name": "spender",
          "type": "address"
        },
        {
          "internalType": "uint256",
          "name": "addedValue",
          "type": "uint256"
        }
      ],
      "name": "increaseAllowance",
      "outputs": [
        {
          "internalType": "bool",
          "name": "",
          "type": "bool"
        }
      ],
      "stateMutability": "nonpayable",
      "type": "function"
    },
    {
      "inputs": [
        {
          "internalType": "uint256",
          "name": "numRounds",
          "type": "uint256"
        }
      ],
      "name": "initRounds",
      "outputs": [],
      "stateMutability": "nonpayable",
      "type": "function"
    },
    {
      "inputs": [
        {
          "internalType": "address",
          "name": "_owner",
          "type": "address"
        },
        {
          "internalType": "address",
          "name": "_keeper",
          "type": "address"
        },
        {
          "internalType": "address",
          "name": "_feeRecipient",
          "type": "address"
        },
        {
          "internalType": "uint256",
          "name": "_managementFee",
          "type": "uint256"
        },
        {
          "internalType": "uint256",
          "name": "_performanceFee",
          "type": "uint256"
        },
        {
          "internalType": "string",
          "name": "_tokenName",
          "type": "string"
        },
        {
          "internalType": "string",
          "name": "_tokenSymbol",
          "type": "string"
        },
        {
          "internalType": "address",
          "name": "_counterpartyThetaVault",
          "type": "address"
        },
        {
          "internalType": "uint256",
          "name": "_optionAllocation",
          "type": "uint256"
        },
        {
          "components": [
            {
              "internalType": "bool",
              "name": "isPut",
              "type": "bool"
            },
            {
              "internalType": "uint8",
              "name": "decimals",
              "type": "uint8"
            },
            {
              "internalType": "address",
              "name": "asset",
              "type": "address"
            },
            {
              "internalType": "address",
              "name": "underlying",
              "type": "address"
            },
            {
              "internalType": "uint56",
              "name": "minimumSupply",
              "type": "uint56"
            },
            {
              "internalType": "uint104",
              "name": "cap",
              "type": "uint104"
            }
          ],
          "internalType": "struct Vault.VaultParams",
          "name": "_vaultParams",
          "type": "tuple"
        }
      ],
      "name": "initialize",
      "outputs": [],
      "stateMutability": "nonpayable",
      "type": "function"
    },
    {
      "inputs": [
        {
          "internalType": "uint256",
          "name": "numShares",
          "type": "uint256"
        }
      ],
      "name": "initiateWithdraw",
      "outputs": [],
      "stateMutability": "nonpayable",
      "type": "function"
    },
    {
      "inputs": [],
      "name": "keeper",
      "outputs": [
        {
          "internalType": "address",
          "name": "",
          "type": "address"
        }
      ],
      "stateMutability": "view",
      "type": "function"
    },
    {
      "inputs": [],
      "name": "managementFee",
      "outputs": [
        {
          "internalType": "uint256",
          "name": "",
          "type": "uint256"
        }
      ],
      "stateMutability": "view",
      "type": "function"
    },
    {
      "inputs": [],
      "name": "maxRedeem",
      "outputs": [],
      "stateMutability": "nonpayable",
      "type": "function"
    },
    {
      "inputs": [],
      "name": "name",
      "outputs": [
        {
          "internalType": "string",
          "name": "",
          "type": "string"
        }
      ],
      "stateMutability": "view",
      "type": "function"
    },
    {
      "inputs": [],
      "name": "nextOption",
      "outputs": [
        {
          "internalType": "address",
          "name": "",
          "type": "address"
        }
      ],
      "stateMutability": "view",
      "type": "function"
    },
    {
      "inputs": [],
      "name": "nextOptionReadyAt",
      "outputs": [
        {
          "internalType": "uint256",
          "name": "",
          "type": "uint256"
        }
      ],
      "stateMutability": "view",
      "type": "function"
    },
    {
      "inputs": [],
      "name": "optionAllocation",
      "outputs": [
        {
          "internalType": "uint256",
          "name": "",
          "type": "uint256"
        }
      ],
      "stateMutability": "view",
      "type": "function"
    },
    {
      "inputs": [],
      "name": "optionState",
      "outputs": [
        {
          "internalType": "address",
          "name": "nextOption",
          "type": "address"
        },
        {
          "internalType": "address",
          "name": "currentOption",
          "type": "address"
        },
        {
          "internalType": "uint32",
          "name": "nextOptionReadyAt",
          "type": "uint32"
        }
      ],
      "stateMutability": "view",
      "type": "function"
    },
    {
      "inputs": [],
      "name": "owner",
      "outputs": [
        {
          "internalType": "address",
          "name": "",
          "type": "address"
        }
      ],
      "stateMutability": "view",
      "type": "function"
    },
    {
      "inputs": [],
      "name": "performanceFee",
      "outputs": [
        {
          "internalType": "uint256",
          "name": "",
          "type": "uint256"
        }
      ],
      "stateMutability": "view",
      "type": "function"
    },
    {
      "inputs": [],
      "name": "pricePerShare",
      "outputs": [
        {
          "internalType": "uint256",
          "name": "",
          "type": "uint256"
        }
      ],
      "stateMutability": "view",
      "type": "function"
    },
    {
      "inputs": [
        {
          "internalType": "uint256",
          "name": "numShares",
          "type": "uint256"
        }
      ],
      "name": "redeem",
      "outputs": [],
      "stateMutability": "nonpayable",
      "type": "function"
    },
    {
      "inputs": [],
      "name": "renounceOwnership",
      "outputs": [],
      "stateMutability": "nonpayable",
      "type": "function"
    },
    {
      "inputs": [
        {
          "internalType": "uint256",
          "name": "optionPremium",
          "type": "uint256"
        }
      ],
      "name": "rollToNextOption",
      "outputs": [],
      "stateMutability": "nonpayable",
      "type": "function"
    },
    {
      "inputs": [
        {
          "internalType": "uint256",
          "name": "",
          "type": "uint256"
        }
      ],
      "name": "roundPricePerShare",
      "outputs": [
        {
          "internalType": "uint256",
          "name": "",
          "type": "uint256"
        }
      ],
      "stateMutability": "view",
      "type": "function"
    },
    {
      "inputs": [
        {
          "internalType": "uint256",
          "name": "newCap",
          "type": "uint256"
        }
      ],
      "name": "setCap",
      "outputs": [],
      "stateMutability": "nonpayable",
      "type": "function"
    },
    {
      "inputs": [
        {
          "internalType": "address",
          "name": "newFeeRecipient",
          "type": "address"
        }
      ],
      "name": "setFeeRecipient",
      "outputs": [],
      "stateMutability": "nonpayable",
      "type": "function"
    },
    {
      "inputs": [
        {
          "internalType": "uint256",
          "name": "newManagementFee",
          "type": "uint256"
        }
      ],
      "name": "setManagementFee",
      "outputs": [],
      "stateMutability": "nonpayable",
      "type": "function"
    },
    {
      "inputs": [
        {
          "internalType": "address",
          "name": "newKeeper",
          "type": "address"
        }
      ],
      "name": "setNewKeeper",
      "outputs": [],
      "stateMutability": "nonpayable",
      "type": "function"
    },
    {
      "inputs": [
        {
          "internalType": "uint16",
          "name": "newOptionAllocation",
          "type": "uint16"
        }
      ],
      "name": "setOptionAllocation",
      "outputs": [],
      "stateMutability": "nonpayable",
      "type": "function"
    },
    {
      "inputs": [
        {
          "internalType": "uint256",
          "name": "newPerformanceFee",
          "type": "uint256"
        }
      ],
      "name": "setPerformanceFee",
      "outputs": [],
      "stateMutability": "nonpayable",
      "type": "function"
    },
    {
      "inputs": [
        {
          "internalType": "address",
          "name": "account",
          "type": "address"
        }
      ],
      "name": "shareBalances",
      "outputs": [
        {
          "internalType": "uint256",
          "name": "heldByAccount",
          "type": "uint256"
        },
        {
          "internalType": "uint256",
          "name": "heldByVault",
          "type": "uint256"
        }
      ],
      "stateMutability": "view",
      "type": "function"
    },
    {
      "inputs": [
        {
          "internalType": "address",
          "name": "account",
          "type": "address"
        }
      ],
      "name": "shares",
      "outputs": [
        {
          "internalType": "uint256",
          "name": "",
          "type": "uint256"
        }
      ],
      "stateMutability": "view",
      "type": "function"
    },
    {
      "inputs": [],
      "name": "symbol",
      "outputs": [
        {
          "internalType": "string",
          "name": "",
          "type": "string"
        }
      ],
      "stateMutability": "view",
      "type": "function"
    },
    {
      "inputs": [],
      "name": "totalBalance",
      "outputs": [
        {
          "internalType": "uint256",
          "name": "",
          "type": "uint256"
        }
      ],
      "stateMutability": "view",
      "type": "function"
    },
    {
      "inputs": [],
      "name": "totalPending",
      "outputs": [
        {
          "internalType": "uint256",
          "name": "",
          "type": "uint256"
        }
      ],
      "stateMutability": "view",
      "type": "function"
    },
    {
      "inputs": [],
      "name": "totalSupply",
      "outputs": [
        {
          "internalType": "uint256",
          "name": "",
          "type": "uint256"
        }
      ],
      "stateMutability": "view",
      "type": "function"
    },
    {
      "inputs": [
        {
          "internalType": "address",
          "name": "recipient",
          "type": "address"
        },
        {
          "internalType": "uint256",
          "name": "amount",
          "type": "uint256"
        }
      ],
      "name": "transfer",
      "outputs": [
        {
          "internalType": "bool",
          "name": "",
          "type": "bool"
        }
      ],
      "stateMutability": "nonpayable",
      "type": "function"
    },
    {
      "inputs": [
        {
          "internalType": "address",
          "name": "sender",
          "type": "address"
        },
        {
          "internalType": "address",
          "name": "recipient",
          "type": "address"
        },
        {
          "internalType": "uint256",
          "name": "amount",
          "type": "uint256"
        }
      ],
      "name": "transferFrom",
      "outputs": [
        {
          "internalType": "bool",
          "name": "",
          "type": "bool"
        }
      ],
      "stateMutability": "nonpayable",
      "type": "function"
    },
    {
      "inputs": [
        {
          "internalType": "address",
          "name": "newOwner",
          "type": "address"
        }
      ],
      "name": "transferOwnership",
      "outputs": [],
      "stateMutability": "nonpayable",
      "type": "function"
    },
    {
      "inputs": [],
      "name": "vaultParams",
      "outputs": [
        {
          "internalType": "bool",
          "name": "isPut",
          "type": "bool"
        },
        {
          "internalType": "uint8",
          "name": "decimals",
          "type": "uint8"
        },
        {
          "internalType": "address",
          "name": "asset",
          "type": "address"
        },
        {
          "internalType": "address",
          "name": "underlying",
          "type": "address"
        },
        {
          "internalType": "uint56",
          "name": "minimumSupply",
          "type": "uint56"
        },
        {
          "internalType": "uint104",
          "name": "cap",
          "type": "uint104"
        }
      ],
      "stateMutability": "view",
      "type": "function"
    },
    {
      "inputs": [],
      "name": "vaultState",
      "outputs": [
        {
          "internalType": "uint16",
          "name": "round",
          "type": "uint16"
        },
        {
          "internalType": "uint104",
          "name": "lockedAmount",
          "type": "uint104"
        },
        {
          "internalType": "uint104",
          "name": "lastLockedAmount",
          "type": "uint104"
        },
        {
          "internalType": "uint128",
          "name": "totalPending",
          "type": "uint128"
        },
        {
          "internalType": "uint128",
          "name": "queuedWithdrawShares",
          "type": "uint128"
        }
      ],
      "stateMutability": "view",
      "type": "function"
    },
    {
      "inputs": [
        {
          "internalType": "uint256",
          "name": "share",
          "type": "uint256"
        }
      ],
      "name": "withdrawInstantly",
      "outputs": [],
      "stateMutability": "nonpayable",
      "type": "function"
    },
    {
      "inputs": [
        {
          "internalType": "address",
          "name": "",
          "type": "address"
        }
      ],
      "name": "withdrawals",
      "outputs": [
        {
          "internalType": "uint16",
          "name": "round",
          "type": "uint16"
        },
        {
          "internalType": "uint128",
          "name": "shares",
          "type": "uint128"
        }
      ],
      "stateMutability": "view",
      "type": "function"
    }
  ],
  "transactionHash": "0x507f4af0aea19444633a198923e82e44d384f709017e26f3ea6ef0ae9a35d502",
  "args": [
    "0xd0A1E359811322d97991E03f863a0C30C2cF029C",
    "0x7e6edA50d1c833bE936492BF42C1BF376239E9e2",
    "0xdEE7D0f8CcC0f7AC7e45Af454e5e7ec1552E8e4e",
    "0x8c7C60d766951c5C570bBb7065C993070061b795",
    "0x3D1D40101E185E1fE3aedCF05FE2F5BA0Af1f25D"
  ],
  "solcInputHash": "4eed84bc941fd476eed24e6d422071d6",
  "bytecode": "0x6101206040523480156200001257600080fd5b50604051620054df380380620054df833981016040819052620000359162000206565b84848484846001600160a01b0385166200007f5760405162461bcd60e51b8152602060048201526006602482015265042beeecae8d60d31b60448201526064015b60405180910390fd5b6001600160a01b038416620000c05760405162461bcd60e51b8152602060048201526006602482015265215f7573646360d01b604482015260640162000076565b6001600160a01b038116620001185760405162461bcd60e51b815260206004820152601360248201527f215f676e6f7369734561737941756374696f6e00000000000000000000000000604482015260640162000076565b6001600160a01b038316620001645760405162461bcd60e51b815260206004820152601160248201527010afb3b0b6b6b0a1b7b73a3937b63632b960791b604482015260640162000076565b6001600160a01b038216620001ab5760405162461bcd60e51b815260206004820152600c60248201526b0857db585c99da5b941bdbdb60a21b604482015260640162000076565b6001600160601b0319606095861b811660805293851b841660a05291841b831660c052831b821660e05290911b166101005250620002759350505050565b80516001600160a01b03811681146200020157600080fd5b919050565b600080600080600060a086880312156200021e578081fd5b6200022986620001e9565b94506200023960208701620001e9565b93506200024960408701620001e9565b92506200025960608701620001e9565b91506200026960808701620001e9565b90509295509295909350565b60805160601c60a05160601c60c05160601c60e05160601c6101005160601c6151e5620002fa600039600081816107a30152818161105f0152612232015260006106d501526000818161046e01526124c00152600061091e015260008181610b9d015281816126900152818161273c015281816135b401526135f101526151e56000f3fe6080604052600436106103c35760003560e01c80638da5cb5b116101f2578063b6b55f251161010d578063e74b981b116100a0578063f6326fb31161006f578063f6326fb314610de0578063f656ba5114610de8578063f756fa2114610e1d578063fe56e23214610e3257600080fd5b8063e74b981b14610d76578063e7b6951014610d96578063ea00b1ca14610dab578063f2fde38b14610dc057600080fd5b8063d164cc15116100dc578063d164cc1514610cd0578063da7c306b14610cf0578063db006a7514610d10578063dd62ed3e14610d3057600080fd5b8063b6b55f2514610c5a578063b70a293914610c7a578063c9f369c214610c9a578063ce7c2ac214610cb057600080fd5b8063a457c2d711610185578063ad5c464811610154578063ad5c464814610b8b578063ad7a672f14610bbf578063ae94c7cd14610bd4578063b4d1d79514610c4357600080fd5b8063a457c2d714610b15578063a6f7f5d614610b35578063a9059cbb14610b4b578063aced166114610b6b57600080fd5b80639fcc2d75116101c15780639fcc2d75146109c6578063a083ff1714610a72578063a285c9e814610ad5578063a2db9d8314610af757600080fd5b80638da5cb5b1461095e57806395d89b411461097c57806399530b06146109915780639be43daa146109a657600080fd5b806346904840116102e257806370a082311161027557806387153eb11161024457806387153eb1146108c957806387788782146108f657806389a302711461090c5780638b10cc7c1461094057600080fd5b806370a08231146107fa578063715018a6146108305780637a9262a2146108455780637e108d52146108a957600080fd5b806369b41170116102b157806369b411701461077b5780636c10f66c146107915780636f31ab34146107c557806370897b23146107da57600080fd5b8063469048401461068357806347786d37146106a3578063650cce8a146106c35780636719b2ee146106f757600080fd5b80632775d01c1161035a57806336efd16f1161032957806336efd16f1461060557806339509351146106255780633f23bb73146106455780633f90916a1461066557600080fd5b80632775d01c1461057d578063280048371461059d578063313ce567146105bd578063355274ea146105e757600080fd5b80631a92f6c2116103965780631a92f6c21461045c5780631b60612a146104a857806323b872dd146104ca5780632728f333146104ea57600080fd5b806306fdde03146103c8578063095ea7b3146103f3578063150d3ec21461042357806318160ddd14610447575b600080fd5b3480156103d457600080fd5b506103dd610e52565b6040516103ea9190614c8b565b60405180910390f35b3480156103ff57600080fd5b5061041361040e3660046148c3565b610ee4565b60405190151581526020016103ea565b34801561042f57600080fd5b5061043960f75481565b6040519081526020016103ea565b34801561045357600080fd5b50609954610439565b34801561046857600080fd5b506104907f000000000000000000000000000000000000000000000000000000000000000081565b6040516001600160a01b0390911681526020016103ea565b3480156104b457600080fd5b506104c86104c3366004614a4f565b610efb565b005b3480156104d657600080fd5b506104136104e5366004614883565b611205565b3480156104f657600080fd5b5060cf5460d0546105389161ffff8116916001600160681b03620100008304811692600160781b900416906001600160801b0380821691600160801b90041685565b6040805161ffff90961686526001600160681b03948516602087015293909216928401929092526001600160801b03918216606084015216608082015260a0016103ea565b34801561058957600080fd5b506104c8610598366004614a4f565b6112b1565b3480156105a957600080fd5b5060f554610490906001600160a01b031681565b3480156105c957600080fd5b5060cc54610100900460ff1660405160ff90911681526020016103ea565b3480156105f357600080fd5b5060ce546001600160681b0316610439565b34801561061157600080fd5b506104c8610620366004614a7f565b611454565b34801561063157600080fd5b506104136106403660046148c3565b6114f6565b34801561065157600080fd5b5061043961066036600461475b565b611532565b34801561067157600080fd5b5060d0546001600160801b0316610439565b34801561068f57600080fd5b5060d354610490906001600160a01b031681565b3480156106af57600080fd5b506104c86106be366004614a4f565b611585565b3480156106cf57600080fd5b506104907f000000000000000000000000000000000000000000000000000000000000000081565b34801561070357600080fd5b5061074a61071236600461475b565b60c96020526000908152604090205461ffff8116906201000081046001600160681b031690600160781b90046001600160801b031683565b6040805161ffff90941684526001600160681b0390921660208401526001600160801b0316908201526060016103ea565b34801561078757600080fd5b5061043961038481565b34801561079d57600080fd5b506104907f000000000000000000000000000000000000000000000000000000000000000081565b3480156107d157600080fd5b506104c861161a565b3480156107e657600080fd5b506104c86107f5366004614a4f565b611657565b34801561080657600080fd5b5061043961081536600461475b565b6001600160a01b031660009081526097602052604090205490565b34801561083c57600080fd5b506104c861171e565b34801561085157600080fd5b5061088761086036600461475b565b60cb6020526000908152604090205461ffff8116906201000090046001600160801b031682565b6040805161ffff90931683526001600160801b039091166020830152016103ea565b3480156108b557600080fd5b506104c86108c4366004614a4f565b611754565b3480156108d557600080fd5b506104396108e4366004614a4f565b60ca6020526000908152604090205481565b34801561090257600080fd5b5061043960d55481565b34801561091857600080fd5b506104907f000000000000000000000000000000000000000000000000000000000000000081565b34801561094c57600080fd5b5060d2546001600160a01b0316610490565b34801561096a57600080fd5b506065546001600160a01b0316610490565b34801561098857600080fd5b506103dd611972565b34801561099d57600080fd5b50610439611981565b3480156109b257600080fd5b506104c86109c1366004614a4f565b6119bb565b3480156109d257600080fd5b5060cc5460cd5460ce54610a229260ff808216936101008304909116926001600160a01b036201000090930483169282169166ffffffffffffff600160a01b90910416906001600160681b031686565b60408051961515875260ff90951660208701526001600160a01b03938416948601949094529116606084015266ffffffffffffff1660808301526001600160681b031660a082015260c0016103ea565b348015610a7e57600080fd5b5060d15460d254610aa9916001600160a01b039081169190811690600160a01b900463ffffffff1683565b604080516001600160a01b03948516815293909216602084015263ffffffff16908201526060016103ea565b348015610ae157600080fd5b5060d254600160a01b900463ffffffff16610439565b348015610b0357600080fd5b5060d1546001600160a01b0316610490565b348015610b2157600080fd5b50610413610b303660046148c3565b611aef565b348015610b4157600080fd5b5061043960d65481565b348015610b5757600080fd5b50610413610b663660046148c3565b611b88565b348015610b7757600080fd5b5060d454610490906001600160a01b031681565b348015610b9757600080fd5b506104907f000000000000000000000000000000000000000000000000000000000000000081565b348015610bcb57600080fd5b50610439611b95565b348015610be057600080fd5b5060f854610c13906001600160601b0380821691600160601b810490911690600160c01b900467ffffffffffffffff1683565b604080516001600160601b03948516815293909216602084015267ffffffffffffffff16908201526060016103ea565b348015610c4f57600080fd5b5061043962093a8081565b348015610c6657600080fd5b506104c8610c75366004614a4f565b611c34565b348015610c8657600080fd5b506104c8610c95366004614a2d565b611cc2565b348015610ca657600080fd5b5061043960f65481565b348015610cbc57600080fd5b50610439610ccb36600461475b565b611d97565b348015610cdc57600080fd5b506104c8610ceb36600461475b565b611db4565b348015610cfc57600080fd5b506104c8610d0b3660046147af565b611e43565b348015610d1c57600080fd5b506104c8610d2b366004614a4f565b612087565b348015610d3c57600080fd5b50610439610d4b366004614777565b6001600160a01b03918216600090815260986020908152604080832093909416825291909152205490565b348015610d8257600080fd5b506104c8610d9136600461475b565b6120d7565b348015610da257600080fd5b506104c86121ca565b348015610db757600080fd5b506104c86122b9565b348015610dcc57600080fd5b506104c8610ddb36600461475b565b6125c8565b6104c8612663565b348015610df457600080fd5b50610e08610e0336600461475b565b6127a9565b604080519283526020830191909152016103ea565b348015610e2957600080fd5b506104c861288c565b348015610e3e57600080fd5b506104c8610e4d366004614a4f565b612a7b565b6060609a8054610e6190614f9f565b80601f0160208091040260200160405190810160405280929190818152602001828054610e8d90614f9f565b8015610eda5780601f10610eaf57610100808354040283529160200191610eda565b820191906000526020600020905b815481529060010190602001808311610ebd57829003601f168201915b5050505050905090565b6000610ef1338484612b1b565b5060015b92915050565b60d4546001600160a01b03163314610f445760405162461bcd60e51b815260206004820152600760248201526610b5b2b2b832b960c91b60448201526064015b60405180910390fd5b60026001541415610f675760405162461bcd60e51b8152600401610f3b90614d45565b6002600155600080610f77612c40565b60f78190556040805161012081018252600080825260208201819052918101829052606081018290526080810182905260a0810182905260c0810182905260e08101829052610100810191909152919350915060f560009054906101000a90046001600160a01b03166001600160a01b031663432833a66040518163ffffffff1660e01b815260040160206040518083038186803b15801561101857600080fd5b505afa15801561102c573d6000803e3d6000fd5b505050506040513d601f19601f820116820180604052508101906110509190614a67565b60808201526001600160a01b037f000000000000000000000000000000000000000000000000000000000000000081166020830152838116825260cc5462010000810490911660408084019190915260ff6101009283900416606084015260a0830184905260f65460c084015260e083018690523391830191909152516395a170d760e01b8152600090819081907397710Cbae64DE9c3615E64893CD225f6139370cA906395a170d790611108908790600401614d7c565b60606040518083038186803b15801561112057600080fd5b505af4158015611134573d6000803e3d6000fd5b505050506040513d601f19601f820116820180604052508101906111589190614b05565b60f8805467ffffffffffffffff8316600160c01b026001600160c01b036001600160601b03808716600160601b026001600160c01b0319909416908816179290921791909116179055919450925090506111b26000612e5f565b604080518381526020810185905233916001600160a01b038916917f64844de7240afb5062e92a77a2a2fcf334f4f109ce576b1c0de1c82f659eca11910160405180910390a35050600180555050505050565b6000611212848484612f27565b6001600160a01b0384166000908152609860209081526040808320338452909152902054828110156112975760405162461bcd60e51b815260206004820152602860248201527f45524332303a207472616e7366657220616d6f756e74206578636565647320616044820152676c6c6f77616e636560c01b6064820152608401610f3b565b6112a48533858403612b1b565b60019150505b9392505050565b600260015414156112d45760405162461bcd60e51b8152600401610f3b90614d45565b6002600155806112f65760405162461bcd60e51b8152600401610f3b90614c9e565b6113006001612e5f565b60008061130c836130f7565b9092509050811561134e5760d05461132d906001600160801b031683613201565b60d080546001600160801b0319166001600160801b03929092169190911790555b60cf5461ffff1681156113dd57600080611367336127a9565b9092509050611376828261320d565b8411156113bc5760405162461bcd60e51b8152602060048201526014602482015273496e73756666696369656e742062616c616e636560601b6044820152606401610f3b565b838210156113d0576113d060006001613219565b6113da33856133f0565b50505b604080518581526020810183905233917fab2daf3c146ca6416cbccd2a86ed2ba995e171ef6319df14a38aef01403a9c96910160405180910390a2600081815260ca602052604081205460cc5461143d918791610100900460ff1661353b565b9050611449338261359d565b505060018055505050565b600260015414156114775760405162461bcd60e51b8152600401610f3b90614d45565b6002600155816114b35760405162461bcd60e51b815260206004820152600760248201526608585b5bdd5b9d60ca1b6044820152606401610f3b565b6001600160a01b0381166114c657600080fd5b6114d082826136fe565b60cc546114ee906201000090046001600160a01b0316333085613990565b505060018055565b3360008181526098602090815260408083206001600160a01b03871684529091528120549091610ef191859061152d908690614e1a565b612b1b565b60cc5460009060ff610100909104168161156861154e60995490565b611556611b95565b60d0546001600160801b0316856139fb565b905061157d61157685611d97565b828461353b565b949350505050565b6065546001600160a01b031633146115af5760405162461bcd60e51b8152600401610f3b90614d10565b600081116115e95760405162461bcd60e51b81526020600482015260076024820152660216e65774361760cc1b6044820152606401610f3b565b6115f281613a3b565b60ce80546cffffffffffffffffffffffffff19166001600160681b0392909216919091179055565b6002600154141561163d5760405162461bcd60e51b8152600401610f3b90614d45565b600260018190555061165160006001613219565b60018055565b6065546001600160a01b031633146116815760405162461bcd60e51b8152600401610f3b90614d10565b61168f620f42406064614f3d565b81106116dd5760405162461bcd60e51b815260206004820152601760248201527f496e76616c696420706572666f726d616e6365206665650000000000000000006044820152606401610f3b565b60d55460408051918252602082018390527f24867dfb6fcb9970a07be21024956524abe7a1837faa903ff0e99aaa40cf893e910160405180910390a160d555565b6065546001600160a01b031633146117485760405162461bcd60e51b8152600401610f3b90614d10565b6117526000613a85565b565b600260015414156117775760405162461bcd60e51b8152600401610f3b90614d45565b6002600155806117995760405162461bcd60e51b8152600401610f3b90614c9e565b33600090815260c960205260409020546201000090046001600160681b03161515806117e3575033600090815260c96020526040902054600160781b90046001600160801b031615155b156117f4576117f460006001613219565b60cf5433600081815260cb60209081526040918290208054835187815261ffff96871693810184905292959194911685149290917f0c53c82ad07e2d592d88ece3b066777dd60f1118e2a081b380efc4358f0d9e2a910160405180910390a281546201000090046001600160801b03166000821561187d57611876828761320d565b90506118e0565b81156118bf5760405162461bcd60e51b81526020600482015260116024820152704578697374696e6720776974686472617760781b6044820152606401610f3b565b5033600090815260cb60205260409020805461ffff191661ffff8616179055845b6118e981613ad7565b33600090815260cb6020526040812080546001600160801b03808516620100000262010000600160901b03199092169190911790915560d05461193591600160801b909104168861320d565b905061194081613ad7565b60d080546001600160801b03808416600160801b029116179055611965333089612f27565b5050600180555050505050565b6060609b8054610e6190614f9f565b60006119b661198f60995490565b611997611b95565b60d05460cc546001600160801b0390911690610100900460ff166139fb565b905090565b600260015414156119de5760405162461bcd60e51b8152600401610f3b90614d45565b600260015580611a1d5760405162461bcd60e51b815260206004820152600a602482015269216e756d526f756e647360b01b6044820152606401610f3b565b60cf5461ffff1660005b82811015611ae6576000611a3b8284614e1a565b905082811015611a785760405162461bcd60e51b81526020600482015260086024820152674f766572666c6f7760c01b6044820152606401610f3b565b600081815260ca602052604090205415611ac25760405162461bcd60e51b815260206004820152600b60248201526a125b9a5d1a585b1a5e995960aa1b6044820152606401610f3b565b600090815260ca602052604090206001905580611ade81614fd4565b915050611a27565b50506001805550565b3360009081526098602090815260408083206001600160a01b038616845290915281205482811015611b715760405162461bcd60e51b815260206004820152602560248201527f45524332303a2064656372656173656420616c6c6f77616e63652062656c6f77604482015264207a65726f60d81b6064820152608401610f3b565b611b7e3385858403612b1b565b5060019392505050565b6000610ef1338484612f27565b60cc546040516370a0823160e01b81523060048201526000916119b691620100009091046001600160a01b0316906370a082319060240160206040518083038186803b158015611be457600080fd5b505afa158015611bf8573d6000803e3d6000fd5b505050506040513d601f19601f82011682018060405250810190611c1c9190614a67565b60cf546201000090046001600160681b03169061320d565b60026001541415611c575760405162461bcd60e51b8152600401610f3b90614d45565b600260015580611c935760405162461bcd60e51b815260206004820152600760248201526608585b5bdd5b9d60ca1b6044820152606401610f3b565b611c9d81336136fe565b60cc54611cbb906201000090046001600160a01b0316333084613990565b5060018055565b6065546001600160a01b03163314611cec5760405162461bcd60e51b8152600401610f3b90614d10565b60008161ffff16118015611d0e5750611d076064600a614f3d565b8161ffff16105b611d4f5760405162461bcd60e51b815260206004820152601260248201527124b73b30b634b21030b63637b1b0ba34b7b760711b6044820152606401610f3b565b60f6546040805191825261ffff831660208301527f7b7f7a8590418227574bbbbf9b7f3a6ac2e590f0613ded320769210d39b4b283910160405180910390a161ffff1660f655565b6000806000611da5846127a9565b909250905061157d828261320d565b6065546001600160a01b03163314611dde5760405162461bcd60e51b8152600401610f3b90614d10565b6001600160a01b038116611e215760405162461bcd60e51b815260206004820152600a60248201526910b732bba5b2b2b832b960b11b6044820152606401610f3b565b60d480546001600160a01b0319166001600160a01b0392909216919091179055565b600054610100900460ff1680611e5c575060005460ff16155b611e785760405162461bcd60e51b8152600401610f3b90614cc2565b600054610100900460ff16158015611e9a576000805461ffff19166101011790555b611eaa8b8b8b8b8b8b8b89613b21565b6001600160a01b038416611f005760405162461bcd60e51b815260206004820152601860248201527f215f636f756e746572706172747954686574615661756c7400000000000000006044820152606401610f3b565b60cc60000160029054906101000a90046001600160a01b03166001600160a01b0316846001600160a01b0316639fcc2d756040518163ffffffff1660e01b815260040160c06040518083038186803b158015611f5b57600080fd5b505afa158015611f6f573d6000803e3d6000fd5b505050506040513d601f19601f82011682018060405250810190611f939190614983565b604001516001600160a01b031614611fed5760405162461bcd60e51b815260206004820152601f60248201527f215f636f756e746572706172747954686574615661756c743a206173736574006044820152606401610f3b565b60008311801561200757506120046064600a614f3d565b83105b6120485760405162461bcd60e51b815260206004820152601260248201527110afb7b83a34b7b720b63637b1b0ba34b7b760711b6044820152606401610f3b565b60f580546001600160a01b0319166001600160a01b03861617905560f6839055801561207a576000805461ff00191690555b5050505050505050505050565b600260015414156120aa5760405162461bcd60e51b8152600401610f3b90614d45565b6002600155806120cc5760405162461bcd60e51b8152600401610f3b90614c9e565b611cbb816000613219565b6065546001600160a01b031633146121015760405162461bcd60e51b8152600401610f3b90614d10565b6001600160a01b03811661214a5760405162461bcd60e51b815260206004820152601060248201526f085b995dd19959549958da5c1a595b9d60821b6044820152606401610f3b565b60d3546001600160a01b03828116911614156121a85760405162461bcd60e51b815260206004820152601860248201527f4d757374206265206e657720666565526563697069656e7400000000000000006044820152606401610f3b565b60d380546001600160a01b0319166001600160a01b0392909216919091179055565b600260015414156121ed5760405162461bcd60e51b8152600401610f3b90614d45565b600260015560f5546040516307cc423960e01b815260f8546001600160601b038082166004840152606082901c16602483015260c01c60448201526001600160a01b037f00000000000000000000000000000000000000000000000000000000000000008116606483015290911660848201527397710Cbae64DE9c3615E64893CD225f6139370cA906307cc42399060a40160006040518083038186803b15801561229757600080fd5b505af41580156122ab573d6000803e3d6000fd5b505050506116516000612e5f565b600260015414156122dc5760405162461bcd60e51b8152600401610f3b90614d45565b600260015560d25460f5546040805163a083ff1760e01b815290516001600160a01b0393841693600093169163a083ff17916004808301926060929190829003018186803b15801561232d57600080fd5b505afa158015612341573d6000803e3d6000fd5b505050506040513d601f19601f82011682018060405250810190612365919061490a565b5190506001600160a01b0381166123b25760405162461bcd60e51b8152602060048201526011602482015270085d1a195d185d985d5b1d18db1bdcd959607a1b6044820152606401610f3b565b6123bc6001612e5f565b60d180546001600160a01b0319166001600160a01b03831617905560006123e54261038461320d565b905063ffffffff81111561243b5760405162461bcd60e51b815260206004820152601860248201527f4f766572666c6f77206e6578744f7074696f6e526561647900000000000000006044820152606401610f3b565b60d280546001600160c01b031916600160a01b63ffffffff8416026001600160a01b03191617905560f75460cf80546cffffffffffffffffffffffffff60781b1916600160781b6001600160681b03909316929092029190911790556001600160a01b03831615611ae65760cc54604051631bd1c68360e31b81526001600160a01b037f00000000000000000000000000000000000000000000000000000000000000008116600483015280861660248301526201000090920490911660448201526000907397710Cbae64DE9c3615E64893CD225f6139370cA9063de8e34189060640160206040518083038186803b15801561253757600080fd5b505af415801561254b573d6000803e3d6000fd5b505050506040513d601f19601f8201168201806040525081019061256f9190614a67565b9050336001600160a01b0316846001600160a01b03167fbbdc6ffe3a5302a25b4ef9afc416a1b2b7c720da5eee6dc669eda4d9c63d82b9836040516125b691815260200190565b60405180910390a35050506001805550565b6065546001600160a01b031633146125f25760405162461bcd60e51b8152600401610f3b90614d10565b6001600160a01b0381166126575760405162461bcd60e51b815260206004820152602660248201527f4f776e61626c653a206e6577206f776e657220697320746865207a65726f206160448201526564647265737360d01b6064820152608401610f3b565b61266081613a85565b50565b600260015414156126865760405162461bcd60e51b8152600401610f3b90614d45565b600260015560cc547f00000000000000000000000000000000000000000000000000000000000000006001600160a01b039081166201000090920416146126f75760405162461bcd60e51b8152602060048201526005602482015264042ae8aa8960db1b6044820152606401610f3b565b600034116127305760405162461bcd60e51b81526020600482015260066024820152652176616c756560d01b6044820152606401610f3b565b61273a34336136fe565b7f00000000000000000000000000000000000000000000000000000000000000006001600160a01b031663d0e30db0346040518263ffffffff1660e01b81526004016000604051808303818588803b15801561279557600080fd5b505af1158015611449573d6000803e3d6000fd5b6001600160a01b038116600090815260c9602090815260408083208151606081018352905461ffff81168083526201000082046001600160681b031694830194909452600160781b90046001600160801b03169181019190915282916001111561282b575050506001600160a01b031660009081526097602052604081205491565b60cf54815161ffff908116600090815260ca602052604081205460cc54919361286193869391169190610100900460ff16613d60565b9050612882856001600160a01b031660009081526097602052604090205490565b9590945092505050565b600260015414156128af5760405162461bcd60e51b8152600401610f3b90614d45565b600260015533600090815260cb6020526040902080546001600160801b03620100008204169061ffff16816129165760405162461bcd60e51b815260206004820152600d60248201526c139bdd081a5b9a5d1a585d1959609a1b6044820152606401610f3b565b60cf5461ffff16811061295e5760405162461bcd60e51b815260206004820152601060248201526f149bdd5b99081b9bdd0818db1bdcd95960821b6044820152606401610f3b565b33600090815260cb60205260409020805462010000600160901b031916905560d05461299a90600160801b90046001600160801b031683613201565b60d080546001600160801b03928316600160801b029216919091179055600081815260ca602052604081205460cc546129dd91859160ff6101009091041661353b565b604080518281526020810186905291925033917ff279e6a1f5e320cca91135676d9cb6e44ca8a08c0b88342bcdb1144f6511b568910160405180910390a2612a2530846133f0565b60008111612a675760405162461bcd60e51b815260206004820152600f60248201526e085dda5d1a191c985dd05b5bdd5b9d608a1b6044820152606401610f3b565b612a71338261359d565b5050600180555050565b6065546001600160a01b03163314612aa55760405162461bcd60e51b8152600401610f3b90614d10565b612ab3620f42406064614f3d565b8110612afa5760405162461bcd60e51b8152602060048201526016602482015275496e76616c6964206d616e6167656d656e742066656560501b6044820152606401610f3b565b612b1563031ba309612b0f83620f4240613dd1565b90613ddd565b60d65550565b6001600160a01b038316612b7d5760405162461bcd60e51b8152602060048201526024808201527f45524332303a20617070726f76652066726f6d20746865207a65726f206164646044820152637265737360e01b6064820152608401610f3b565b6001600160a01b038216612bde5760405162461bcd60e51b815260206004820152602260248201527f45524332303a20617070726f766520746f20746865207a65726f206164647265604482015261737360f01b6064820152608401610f3b565b6001600160a01b0383811660008181526098602090815260408083209487168084529482529182902085905590518481527f8c5be1e5ebec7d5bd14f71427d1e84f3dd0314c0f7b2291e5b200ac8c7c3b92591015b60405180910390a3505050565b60d2546000908190600160a01b900463ffffffff16421015612c8d5760405162461bcd60e51b815260206004820152600660248201526521726561647960d01b6044820152606401610f3b565b60d1546001600160a01b0316915081612cd65760405162461bcd60e51b815260206004820152600b60248201526a10b732bc3a27b83a34b7b760a91b6044820152606401610f3b565b6000806000807397710Cbae64DE9c3615E64893CD225f6139370cA63d7975f15612cff60995490565b60cc5460d05460405160e085901b6001600160e01b031916815260048101939093526201000082046001600160a01b0316602484015261010090910460ff1660448301526001600160801b038082166064840152600160801b90910416608482015260a40160806040518083038186803b158015612d7c57600080fd5b505af4158015612d90573d6000803e3d6000fd5b505050506040513d601f19601f82011682018060405250810190612db49190614ad0565b60d280546001600160a01b038c166001600160a01b03199182161790915560d18054909116905560cf5461ffff16600081815260ca6020526040902083905593975091955093509150612e19612e12612e0d878761320d565b613de9565b8690613201565b60d080546001600160801b03191690559550612e36816001614e1a565b60cf805461ffff191661ffff92909216919091179055612e563083613f0d565b50505050509091565b60cf5461ffff16811580612e825750600081815260ca6020526040902054600110155b15612f2357612f13612e9360995490565b60cc546040516370a0823160e01b8152306004820152620100009091046001600160a01b0316906370a082319060240160206040518083038186803b158015612edb57600080fd5b505afa158015612eef573d6000803e3d6000fd5b505050506040513d601f19601f820116820180604052508101906119979190614a67565b600082815260ca60205260409020555b5050565b6001600160a01b038316612f8b5760405162461bcd60e51b815260206004820152602560248201527f45524332303a207472616e736665722066726f6d20746865207a65726f206164604482015264647265737360d81b6064820152608401610f3b565b6001600160a01b038216612fed5760405162461bcd60e51b815260206004820152602360248201527f45524332303a207472616e7366657220746f20746865207a65726f206164647260448201526265737360e81b6064820152608401610f3b565b6001600160a01b038316600090815260976020526040902054818110156130655760405162461bcd60e51b815260206004820152602660248201527f45524332303a207472616e7366657220616d6f756e7420657863656564732062604482015265616c616e636560d01b6064820152608401610f3b565b6001600160a01b0380851660009081526097602052604080822085850390559185168152908120805484929061309c908490614e1a565b92505081905550826001600160a01b0316846001600160a01b03167fddf252ad1be2c89b69c2b068fc378daa952ba7f163c4a11628f55a4df523b3ef846040516130e891815260200190565b60405180910390a35b50505050565b33600090815260c96020526040812060cf54815483929161ffff9182169116148015613132575080546201000090046001600160681b031615155b156131f857805461ffff8116600090815260ca602052604081205460cc54919261317592620100009091046001600160681b03169190610100900460ff16613fec565b90506000613183828761404f565b90506131b76131928383613201565b845461ffff16600090815260ca602052604090205460cc54610100900460ff1661353b565b83546001600160681b039190911662010000026effffffffffffffffffffffffff000019909116178355806131ec8782613201565b94509450505050915091565b50600093915050565b60006112aa8284614f5c565b60006112aa8284614e1a565b33600090815260c9602090815260408083208151606081018352905461ffff8082168084526201000083046001600160681b031684870152600160781b9092046001600160801b03168385015260cf5491865260ca9094529184205460cc54919492909316926132949185918591610100900460ff16613d60565b9050836132a157846132a3565b805b9450846132b1575050505050565b808511156132f55760405162461bcd60e51b81526020600482015260116024820152704578636565647320617661696c61626c6560781b6044820152606401610f3b565b825161ffff16821161330b57826020015161330e565b60005b33600090815260c96020526040902080546001600160681b039290921662010000026effffffffffffffffffffffffff00001990921691909117905561335385613ad7565b61335d8186613201565b33600081815260c960205260409081902080546001600160801b0394909416600160781b02600160781b600160f81b0319909416939093179092558451915190917fe5b754fb1abb7f01b499791d0b820ae3b6af3424ac1c59768edb53f4ec31a929916133d69189825261ffff16602082015260400190565b60405180910390a26133e9303387612f27565b5050505050565b6001600160a01b0382166134505760405162461bcd60e51b815260206004820152602160248201527f45524332303a206275726e2066726f6d20746865207a65726f206164647265736044820152607360f81b6064820152608401610f3b565b6001600160a01b038216600090815260976020526040902054818110156134c45760405162461bcd60e51b815260206004820152602260248201527f45524332303a206275726e20616d6f756e7420657863656564732062616c616e604482015261636560f01b6064820152608401610f3b565b6001600160a01b03831660009081526097602052604081208383039055609980548492906134f3908490614f5c565b90915550506040518281526000906001600160a01b038516907fddf252ad1be2c89b69c2b068fc378daa952ba7f163c4a11628f55a4df523b3ef90602001612c33565b505050565b6000600183116135855760405162461bcd60e51b8152602060048201526015602482015274496e76616c6964206173736574506572536861726560581b6044820152606401610f3b565b61157d61359383600a614e95565b612b0f8686613dd1565b60cc546001600160a01b03620100009091048116907f0000000000000000000000000000000000000000000000000000000000000000168114156136ea57604051632e1a7d4d60e01b8152600481018390527f00000000000000000000000000000000000000000000000000000000000000006001600160a01b031690632e1a7d4d90602401600060405180830381600087803b15801561363d57600080fd5b505af1158015613651573d6000803e3d6000fd5b505050506000836001600160a01b03168360405160006040518083038185875af1925050503d80600081146136a2576040519150601f19603f3d011682016040523d82523d6000602084013e6136a7565b606091505b50509050806130f15760405162461bcd60e51b815260206004820152600f60248201526e151c985b9cd9995c8819985a5b1959608a1b6044820152606401610f3b565b6135366001600160a01b0382168484614065565b60cf5461ffff16600061371984613713611b95565b9061320d565b60ce549091506001600160681b03168111156137645760405162461bcd60e51b815260206004820152600a6024820152690457863656564206361760b41b6044820152606401610f3b565b60cd54600160a01b900466ffffffffffffff168110156137bd5760405162461bcd60e51b8152602060048201526014602482015273496e73756666696369656e742062616c616e636560601b6044820152606401610f3b565b60408051858152602081018490526001600160a01b038516917f90890809c654f11d6e72a28fa60149770a0d11ec6c92319d6ceb2bb0a4ea1a15910160405180910390a26001600160a01b038316600090815260c9602090815260408083208151606081018352905461ffff81168083526201000082046001600160681b031683860152600160781b9091046001600160801b031682840152845260ca90925282205460cc5491929161387c918491879190610100900460ff16613d60565b8251909150869061ffff168514156138ad5760208301516000906138a9906001600160681b03168961320d565b9150505b6138b681613a3b565b6040805160608101825261ffff80881682526001600160681b0380851660208085019182526001600160801b038089168688019081526001600160a01b038e16600090815260c990935296822095518654935197518216600160781b02600160781b600160f81b03199890951662010000026effffffffffffffffffffffffffffff1990941695169490941791909117949094161790915560d05461395c91168961320d565b905061396781613ad7565b60d080546001600160801b0319166001600160801b039290921691909117905550505050505050565b6040516001600160a01b03808516602483015283166044820152606481018290526130f19085906323b872dd60e01b906084015b60408051601f198184030181529190526020810180516001600160e01b03166001600160e01b031990931692909217909152614095565b600080613a0983600a614e95565b905060008611613a195780613a31565b613a3186612b0f613a2a8888613201565b8490613dd1565b9695505050505050565b6001600160681b038111156126605760405162461bcd60e51b815260206004820152601060248201526f13dd995c999b1bddc81d5a5b9d0c4c0d60821b6044820152606401610f3b565b606580546001600160a01b038381166001600160a01b0319831681179093556040519116919082907f8be0079c531659141344cd1fd0a4f28419497f9722a3daafe3b4186f6b6457e090600090a35050565b6001600160801b038111156126605760405162461bcd60e51b815260206004820152601060248201526f09eeccae4ccd8deee40ead2dce86264760831b6044820152606401610f3b565b600054610100900460ff1680613b3a575060005460ff16155b613b565760405162461bcd60e51b8152600401610f3b90614cc2565b600054610100900460ff16158015613b78576000805461ffff19166101011790555b60405163c72733f760e01b81527397710Cbae64DE9c3615E64893CD225f6139370cA9063c72733f790613bbd908c908c908c908b908d908c908c908c90600401614b91565b60006040518083038186803b158015613bd557600080fd5b505af4158015613be9573d6000803e3d6000fd5b50505050613bf5614167565b613bff84846141da565b613c07614259565b613c10896125c8565b60d480546001600160a01b03808b166001600160a01b03199283161790925560d38054928a169290911691909117905560d5859055613c5a63031ba309612b0f88620f4240613dd1565b60d6558160cc613c6a8282615042565b505060cc546040516370a0823160e01b81523060048201526000916201000090046001600160a01b0316906370a082319060240160206040518083038186803b158015613cb657600080fd5b505afa158015613cca573d6000803e3d6000fd5b505050506040513d601f19601f82011682018060405250810190613cee9190614a67565b9050613cf981613a3b565b60cf805461ffff196001600160681b03909316600160781b02929092167fffffffff00000000000000000000000000ffffffffffffffffffffffffff00009092169190911760011790558015613d55576000805461ff00191690555b505050505050505050565b835160009061ffff1615801590613d7b5750845161ffff1684115b15613dbd576000613d9a86602001516001600160681b03168585613fec565b6040870151909150613db5906001600160801b03168261320d565b91505061157d565b50505050604001516001600160801b031690565b60006112aa8284614f3d565b60006112aa8284614e32565b60d55460d65460405163d38e319760e01b815260cf60048201526024810184905260448101929092526064820152600090819081907397710Cbae64DE9c3615E64893CD225f6139370cA9063d38e31979060840160606040518083038186803b158015613e5557600080fd5b505af4158015613e69573d6000803e3d6000fd5b505050506040513d601f19601f82011682018060405250810190613e8d9190614aa3565b925050915060008111156112aa5760d354613eb1906001600160a01b03168261359d565b60d35460cf54604080518581526020810185905261ffff90921682820152516001600160a01b03909216917f0a242f7ecaf711036ca770774ceffae28e60ef042ac113ddd187f2631db0c0069181900360600190a29392505050565b6001600160a01b038216613f635760405162461bcd60e51b815260206004820152601f60248201527f45524332303a206d696e7420746f20746865207a65726f2061646472657373006044820152606401610f3b565b8060996000828254613f759190614e1a565b90915550506001600160a01b03821660009081526097602052604081208054839290613fa2908490614e1a565b90915550506040518181526001600160a01b038316906000907fddf252ad1be2c89b69c2b068fc378daa952ba7f163c4a11628f55a4df523b3ef9060200160405180910390a35050565b6000600183116140365760405162461bcd60e51b8152602060048201526015602482015274496e76616c6964206173736574506572536861726560581b6044820152606401610f3b565b61157d83612b0f61404885600a614e95565b8790613dd1565b600081831061405e57816112aa565b5090919050565b6040516001600160a01b03831660248201526044810182905261353690849063a9059cbb60e01b906064016139c4565b60006140ea826040518060400160405280602081526020017f5361666545524332303a206c6f772d6c6576656c2063616c6c206661696c6564815250856001600160a01b03166142c09092919063ffffffff16565b805190915015613536578080602001905181019061410891906148ee565b6135365760405162461bcd60e51b815260206004820152602a60248201527f5361666545524332303a204552433230206f7065726174696f6e20646964206e6044820152691bdd081cdd58d8d9595960b21b6064820152608401610f3b565b600054610100900460ff1680614180575060005460ff16155b61419c5760405162461bcd60e51b8152600401610f3b90614cc2565b600054610100900460ff161580156141be576000805461ffff19166101011790555b6141c66142cf565b8015612660576000805461ff001916905550565b600054610100900460ff16806141f3575060005460ff16155b61420f5760405162461bcd60e51b8152600401610f3b90614cc2565b600054610100900460ff16158015614231576000805461ffff19166101011790555b61423961433e565b61424383836143a8565b8015613536576000805461ff0019169055505050565b600054610100900460ff1680614272575060005460ff16155b61428e5760405162461bcd60e51b8152600401610f3b90614cc2565b600054610100900460ff161580156142b0576000805461ffff19166101011790555b6142b861433e565b6141c661443d565b606061157d848460008561449d565b600054610100900460ff16806142e8575060005460ff16155b6143045760405162461bcd60e51b8152600401610f3b90614cc2565b600054610100900460ff16158015614326576000805461ffff19166101011790555b600180558015612660576000805461ff001916905550565b600054610100900460ff1680614357575060005460ff16155b6143735760405162461bcd60e51b8152600401610f3b90614cc2565b600054610100900460ff161580156141c6576000805461ffff19166101011790558015612660576000805461ff001916905550565b600054610100900460ff16806143c1575060005460ff16155b6143dd5760405162461bcd60e51b8152600401610f3b90614cc2565b600054610100900460ff161580156143ff576000805461ffff19166101011790555b825161441290609a9060208601906145fe565b50815161442690609b9060208501906145fe565b508015613536576000805461ff0019169055505050565b600054610100900460ff1680614456575060005460ff16155b6144725760405162461bcd60e51b8152600401610f3b90614cc2565b600054610100900460ff16158015614494576000805461ffff19166101011790555b6141c633613a85565b6060824710156144fe5760405162461bcd60e51b815260206004820152602660248201527f416464726573733a20696e73756666696369656e742062616c616e636520666f6044820152651c8818d85b1b60d21b6064820152608401610f3b565b843b61454c5760405162461bcd60e51b815260206004820152601d60248201527f416464726573733a2063616c6c20746f206e6f6e2d636f6e74726163740000006044820152606401610f3b565b600080866001600160a01b031685876040516145689190614b75565b60006040518083038185875af1925050503d80600081146145a5576040519150601f19603f3d011682016040523d82523d6000602084013e6145aa565b606091505b50915091506145ba8282866145c5565b979650505050505050565b606083156145d45750816112aa565b8251156145e45782518084602001fd5b8160405162461bcd60e51b8152600401610f3b9190614c8b565b82805461460a90614f9f565b90600052602060002090601f01602090048101928261462c5760008555614672565b82601f1061464557805160ff1916838001178555614672565b82800160010185558215614672579182015b82811115614672578251825591602001919060010190614657565b5061467e929150614682565b5090565b5b8082111561467e5760008155600101614683565b80356146a281615153565b919050565b600082601f8301126146b7578081fd5b813567ffffffffffffffff808211156146d2576146d2615005565b604051601f8301601f19908116603f011681019082821181831017156146fa576146fa615005565b81604052838152866020858801011115614712578485fd5b8360208701602083013792830160200193909352509392505050565b600060c0828403121561473f578081fd5b50919050565b80356146a281615176565b80356146a28161518b565b60006020828403121561476c578081fd5b81356112aa81615153565b60008060408385031215614789578081fd5b823561479481615153565b915060208301356147a481615153565b809150509250929050565b6000806000806000806000806000806101e08b8d0312156147ce578586fd5b6147d78b614697565b99506147e560208c01614697565b98506147f360408c01614697565b975060608b0135965060808b0135955060a08b013567ffffffffffffffff8082111561481d578687fd5b6148298e838f016146a7565b965060c08d013591508082111561483e578586fd5b5061484b8d828e016146a7565b94505061485a60e08c01614697565b92506101008b013591506148728c6101208d0161472e565b90509295989b9194979a5092959850565b600080600060608486031215614897578283fd5b83356148a281615153565b925060208401356148b281615153565b929592945050506040919091013590565b600080604083850312156148d5578182fd5b82356148e081615153565b946020939093013593505050565b6000602082840312156148ff578081fd5b81516112aa81615168565b60006060828403121561491b578081fd5b6040516060810181811067ffffffffffffffff8211171561493e5761493e615005565b604052825161494c81615153565b8152602083015161495c81615153565b6020820152604083015163ffffffff81168114614977578283fd5b60408201529392505050565b600060c08284031215614994578081fd5b60405160c0810181811067ffffffffffffffff821117156149b7576149b7615005565b60405282516149c581615168565b815260208301516149d5816151a0565b602082015260408301516149e881615153565b604082015260608301516149fb81615153565b60608201526080830151614a0e8161518b565b608082015260a0830151614a2181615176565b60a08201529392505050565b600060208284031215614a3e578081fd5b813561ffff811681146112aa578182fd5b600060208284031215614a60578081fd5b5035919050565b600060208284031215614a78578081fd5b5051919050565b60008060408385031215614a91578182fd5b8235915060208301356147a481615153565b600080600060608486031215614ab7578081fd5b8351925060208401519150604084015190509250925092565b60008060008060808587031215614ae5578182fd5b505082516020840151604085015160609095015191969095509092509050565b600080600060608486031215614b19578081fd5b8351925060208401519150604084015167ffffffffffffffff81168114614b3e578182fd5b809150509250925092565b60008151808452614b61816020860160208601614f73565b601f01601f19169290920160200192915050565b60008251614b87818460208701614f73565b9190910192915050565b60006101a060018060a01b03808c168452808b166020850152808a1660408501528860608501528760808501528160a0850152614bd082850188614b49565b915083820360c0850152614be48287614b49565b925084359150614bf382615168565b90151560e0840152602084013590614c0a826151a0565b60ff821661010085015260408501359150614c2482615153565b16610120830152614c3760608401614697565b6001600160a01b0316610140830152614c5260808401614750565b66ffffffffffffff16610160830152614c6d60a08401614745565b6001600160681b038116610180840152509998505050505050505050565b6020815260006112aa6020830184614b49565b6020808252600a9082015269216e756d53686172657360b01b604082015260600190565b6020808252602e908201527f496e697469616c697a61626c653a20636f6e747261637420697320616c72656160408201526d191e481a5b9a5d1a585b1a5e995960921b606082015260800190565b6020808252818101527f4f776e61626c653a2063616c6c6572206973206e6f7420746865206f776e6572604082015260600190565b6020808252601f908201527f5265656e7472616e637947756172643a207265656e7472616e742063616c6c00604082015260600190565b81516001600160a01b03168152602080830151610120830191614da9908401826001600160a01b03169052565b506040830151614dc460408401826001600160a01b03169052565b50606083015160608301526080830151608083015260a083015160a083015260c083015160c083015260e083015160e083015261010080840151614e12828501826001600160a01b03169052565b505092915050565b60008219821115614e2d57614e2d614fef565b500190565b600082614e4d57634e487b7160e01b81526012600452602481fd5b500490565b600181815b80851115614e8d578160001904821115614e7357614e73614fef565b80851615614e8057918102915b93841c9390800290614e57565b509250929050565b60006112aa8383600082614eab57506001610ef5565b81614eb857506000610ef5565b8160018114614ece5760028114614ed857614ef4565b6001915050610ef5565b60ff841115614ee957614ee9614fef565b50506001821b610ef5565b5060208310610133831016604e8410600b8410161715614f17575081810a610ef5565b614f218383614e52565b8060001904821115614f3557614f35614fef565b029392505050565b6000816000190483118215151615614f5757614f57614fef565b500290565b600082821015614f6e57614f6e614fef565b500390565b60005b83811015614f8e578181015183820152602001614f76565b838111156130f15750506000910152565b600181811c90821680614fb357607f821691505b6020821081141561473f57634e487b7160e01b600052602260045260246000fd5b6000600019821415614fe857614fe8614fef565b5060010190565b634e487b7160e01b600052601160045260246000fd5b634e487b7160e01b600052604160045260246000fd5b60008135610ef581615153565b60008135610ef581615176565b60008135610ef58161518b565b813561504d81615168565b815460ff19811691151560ff169182178355602084013561506d816151a0565b61ff008160081b169050808361ffff19841617178455604085013561509181615153565b6001600160b01b0319929092169092179190911760109190911b62010000600160b01b0316178155600181016150e96150cc6060850161501b565b82546001600160a01b0319166001600160a01b0391909116178255565b6151226150f860808501615035565b82805466ffffffffffffff60a01b191660a09290921b66ffffffffffffff60a01b16919091179055565b50612f2361513260a08401615028565b600283016001600160681b0382166001600160681b03198254161781555050565b6001600160a01b038116811461266057600080fd5b801515811461266057600080fd5b6001600160681b038116811461266057600080fd5b66ffffffffffffff8116811461266057600080fd5b60ff8116811461266057600080fdfea264697066735822122047ae3fe8ed6dc25d797514bc57cb72385cdd787daca3b6ecf90a7a1ee50aaf6364736f6c63430008040033",
  "deployedBytecode": "0x6080604052600436106103c35760003560e01c80638da5cb5b116101f2578063b6b55f251161010d578063e74b981b116100a0578063f6326fb31161006f578063f6326fb314610de0578063f656ba5114610de8578063f756fa2114610e1d578063fe56e23214610e3257600080fd5b8063e74b981b14610d76578063e7b6951014610d96578063ea00b1ca14610dab578063f2fde38b14610dc057600080fd5b8063d164cc15116100dc578063d164cc1514610cd0578063da7c306b14610cf0578063db006a7514610d10578063dd62ed3e14610d3057600080fd5b8063b6b55f2514610c5a578063b70a293914610c7a578063c9f369c214610c9a578063ce7c2ac214610cb057600080fd5b8063a457c2d711610185578063ad5c464811610154578063ad5c464814610b8b578063ad7a672f14610bbf578063ae94c7cd14610bd4578063b4d1d79514610c4357600080fd5b8063a457c2d714610b15578063a6f7f5d614610b35578063a9059cbb14610b4b578063aced166114610b6b57600080fd5b80639fcc2d75116101c15780639fcc2d75146109c6578063a083ff1714610a72578063a285c9e814610ad5578063a2db9d8314610af757600080fd5b80638da5cb5b1461095e57806395d89b411461097c57806399530b06146109915780639be43daa146109a657600080fd5b806346904840116102e257806370a082311161027557806387153eb11161024457806387153eb1146108c957806387788782146108f657806389a302711461090c5780638b10cc7c1461094057600080fd5b806370a08231146107fa578063715018a6146108305780637a9262a2146108455780637e108d52146108a957600080fd5b806369b41170116102b157806369b411701461077b5780636c10f66c146107915780636f31ab34146107c557806370897b23146107da57600080fd5b8063469048401461068357806347786d37146106a3578063650cce8a146106c35780636719b2ee146106f757600080fd5b80632775d01c1161035a57806336efd16f1161032957806336efd16f1461060557806339509351146106255780633f23bb73146106455780633f90916a1461066557600080fd5b80632775d01c1461057d578063280048371461059d578063313ce567146105bd578063355274ea146105e757600080fd5b80631a92f6c2116103965780631a92f6c21461045c5780631b60612a146104a857806323b872dd146104ca5780632728f333146104ea57600080fd5b806306fdde03146103c8578063095ea7b3146103f3578063150d3ec21461042357806318160ddd14610447575b600080fd5b3480156103d457600080fd5b506103dd610e52565b6040516103ea9190614c8b565b60405180910390f35b3480156103ff57600080fd5b5061041361040e3660046148c3565b610ee4565b60405190151581526020016103ea565b34801561042f57600080fd5b5061043960f75481565b6040519081526020016103ea565b34801561045357600080fd5b50609954610439565b34801561046857600080fd5b506104907f000000000000000000000000000000000000000000000000000000000000000081565b6040516001600160a01b0390911681526020016103ea565b3480156104b457600080fd5b506104c86104c3366004614a4f565b610efb565b005b3480156104d657600080fd5b506104136104e5366004614883565b611205565b3480156104f657600080fd5b5060cf5460d0546105389161ffff8116916001600160681b03620100008304811692600160781b900416906001600160801b0380821691600160801b90041685565b6040805161ffff90961686526001600160681b03948516602087015293909216928401929092526001600160801b03918216606084015216608082015260a0016103ea565b34801561058957600080fd5b506104c8610598366004614a4f565b6112b1565b3480156105a957600080fd5b5060f554610490906001600160a01b031681565b3480156105c957600080fd5b5060cc54610100900460ff1660405160ff90911681526020016103ea565b3480156105f357600080fd5b5060ce546001600160681b0316610439565b34801561061157600080fd5b506104c8610620366004614a7f565b611454565b34801561063157600080fd5b506104136106403660046148c3565b6114f6565b34801561065157600080fd5b5061043961066036600461475b565b611532565b34801561067157600080fd5b5060d0546001600160801b0316610439565b34801561068f57600080fd5b5060d354610490906001600160a01b031681565b3480156106af57600080fd5b506104c86106be366004614a4f565b611585565b3480156106cf57600080fd5b506104907f000000000000000000000000000000000000000000000000000000000000000081565b34801561070357600080fd5b5061074a61071236600461475b565b60c96020526000908152604090205461ffff8116906201000081046001600160681b031690600160781b90046001600160801b031683565b6040805161ffff90941684526001600160681b0390921660208401526001600160801b0316908201526060016103ea565b34801561078757600080fd5b5061043961038481565b34801561079d57600080fd5b506104907f000000000000000000000000000000000000000000000000000000000000000081565b3480156107d157600080fd5b506104c861161a565b3480156107e657600080fd5b506104c86107f5366004614a4f565b611657565b34801561080657600080fd5b5061043961081536600461475b565b6001600160a01b031660009081526097602052604090205490565b34801561083c57600080fd5b506104c861171e565b34801561085157600080fd5b5061088761086036600461475b565b60cb6020526000908152604090205461ffff8116906201000090046001600160801b031682565b6040805161ffff90931683526001600160801b039091166020830152016103ea565b3480156108b557600080fd5b506104c86108c4366004614a4f565b611754565b3480156108d557600080fd5b506104396108e4366004614a4f565b60ca6020526000908152604090205481565b34801561090257600080fd5b5061043960d55481565b34801561091857600080fd5b506104907f000000000000000000000000000000000000000000000000000000000000000081565b34801561094c57600080fd5b5060d2546001600160a01b0316610490565b34801561096a57600080fd5b506065546001600160a01b0316610490565b34801561098857600080fd5b506103dd611972565b34801561099d57600080fd5b50610439611981565b3480156109b257600080fd5b506104c86109c1366004614a4f565b6119bb565b3480156109d257600080fd5b5060cc5460cd5460ce54610a229260ff808216936101008304909116926001600160a01b036201000090930483169282169166ffffffffffffff600160a01b90910416906001600160681b031686565b60408051961515875260ff90951660208701526001600160a01b03938416948601949094529116606084015266ffffffffffffff1660808301526001600160681b031660a082015260c0016103ea565b348015610a7e57600080fd5b5060d15460d254610aa9916001600160a01b039081169190811690600160a01b900463ffffffff1683565b604080516001600160a01b03948516815293909216602084015263ffffffff16908201526060016103ea565b348015610ae157600080fd5b5060d254600160a01b900463ffffffff16610439565b348015610b0357600080fd5b5060d1546001600160a01b0316610490565b348015610b2157600080fd5b50610413610b303660046148c3565b611aef565b348015610b4157600080fd5b5061043960d65481565b348015610b5757600080fd5b50610413610b663660046148c3565b611b88565b348015610b7757600080fd5b5060d454610490906001600160a01b031681565b348015610b9757600080fd5b506104907f000000000000000000000000000000000000000000000000000000000000000081565b348015610bcb57600080fd5b50610439611b95565b348015610be057600080fd5b5060f854610c13906001600160601b0380821691600160601b810490911690600160c01b900467ffffffffffffffff1683565b604080516001600160601b03948516815293909216602084015267ffffffffffffffff16908201526060016103ea565b348015610c4f57600080fd5b5061043962093a8081565b348015610c6657600080fd5b506104c8610c75366004614a4f565b611c34565b348015610c8657600080fd5b506104c8610c95366004614a2d565b611cc2565b348015610ca657600080fd5b5061043960f65481565b348015610cbc57600080fd5b50610439610ccb36600461475b565b611d97565b348015610cdc57600080fd5b506104c8610ceb36600461475b565b611db4565b348015610cfc57600080fd5b506104c8610d0b3660046147af565b611e43565b348015610d1c57600080fd5b506104c8610d2b366004614a4f565b612087565b348015610d3c57600080fd5b50610439610d4b366004614777565b6001600160a01b03918216600090815260986020908152604080832093909416825291909152205490565b348015610d8257600080fd5b506104c8610d9136600461475b565b6120d7565b348015610da257600080fd5b506104c86121ca565b348015610db757600080fd5b506104c86122b9565b348015610dcc57600080fd5b506104c8610ddb36600461475b565b6125c8565b6104c8612663565b348015610df457600080fd5b50610e08610e0336600461475b565b6127a9565b604080519283526020830191909152016103ea565b348015610e2957600080fd5b506104c861288c565b348015610e3e57600080fd5b506104c8610e4d366004614a4f565b612a7b565b6060609a8054610e6190614f9f565b80601f0160208091040260200160405190810160405280929190818152602001828054610e8d90614f9f565b8015610eda5780601f10610eaf57610100808354040283529160200191610eda565b820191906000526020600020905b815481529060010190602001808311610ebd57829003601f168201915b5050505050905090565b6000610ef1338484612b1b565b5060015b92915050565b60d4546001600160a01b03163314610f445760405162461bcd60e51b815260206004820152600760248201526610b5b2b2b832b960c91b60448201526064015b60405180910390fd5b60026001541415610f675760405162461bcd60e51b8152600401610f3b90614d45565b6002600155600080610f77612c40565b60f78190556040805161012081018252600080825260208201819052918101829052606081018290526080810182905260a0810182905260c0810182905260e08101829052610100810191909152919350915060f560009054906101000a90046001600160a01b03166001600160a01b031663432833a66040518163ffffffff1660e01b815260040160206040518083038186803b15801561101857600080fd5b505afa15801561102c573d6000803e3d6000fd5b505050506040513d601f19601f820116820180604052508101906110509190614a67565b60808201526001600160a01b037f000000000000000000000000000000000000000000000000000000000000000081166020830152838116825260cc5462010000810490911660408084019190915260ff6101009283900416606084015260a0830184905260f65460c084015260e083018690523391830191909152516395a170d760e01b81526000908190819073__$c4f279750f4bbb575ac7775e752dc00849$__906395a170d790611108908790600401614d7c565b60606040518083038186803b15801561112057600080fd5b505af4158015611134573d6000803e3d6000fd5b505050506040513d601f19601f820116820180604052508101906111589190614b05565b60f8805467ffffffffffffffff8316600160c01b026001600160c01b036001600160601b03808716600160601b026001600160c01b0319909416908816179290921791909116179055919450925090506111b26000612e5f565b604080518381526020810185905233916001600160a01b038916917f64844de7240afb5062e92a77a2a2fcf334f4f109ce576b1c0de1c82f659eca11910160405180910390a35050600180555050505050565b6000611212848484612f27565b6001600160a01b0384166000908152609860209081526040808320338452909152902054828110156112975760405162461bcd60e51b815260206004820152602860248201527f45524332303a207472616e7366657220616d6f756e74206578636565647320616044820152676c6c6f77616e636560c01b6064820152608401610f3b565b6112a48533858403612b1b565b60019150505b9392505050565b600260015414156112d45760405162461bcd60e51b8152600401610f3b90614d45565b6002600155806112f65760405162461bcd60e51b8152600401610f3b90614c9e565b6113006001612e5f565b60008061130c836130f7565b9092509050811561134e5760d05461132d906001600160801b031683613201565b60d080546001600160801b0319166001600160801b03929092169190911790555b60cf5461ffff1681156113dd57600080611367336127a9565b9092509050611376828261320d565b8411156113bc5760405162461bcd60e51b8152602060048201526014602482015273496e73756666696369656e742062616c616e636560601b6044820152606401610f3b565b838210156113d0576113d060006001613219565b6113da33856133f0565b50505b604080518581526020810183905233917fab2daf3c146ca6416cbccd2a86ed2ba995e171ef6319df14a38aef01403a9c96910160405180910390a2600081815260ca602052604081205460cc5461143d918791610100900460ff1661353b565b9050611449338261359d565b505060018055505050565b600260015414156114775760405162461bcd60e51b8152600401610f3b90614d45565b6002600155816114b35760405162461bcd60e51b815260206004820152600760248201526608585b5bdd5b9d60ca1b6044820152606401610f3b565b6001600160a01b0381166114c657600080fd5b6114d082826136fe565b60cc546114ee906201000090046001600160a01b0316333085613990565b505060018055565b3360008181526098602090815260408083206001600160a01b03871684529091528120549091610ef191859061152d908690614e1a565b612b1b565b60cc5460009060ff610100909104168161156861154e60995490565b611556611b95565b60d0546001600160801b0316856139fb565b905061157d61157685611d97565b828461353b565b949350505050565b6065546001600160a01b031633146115af5760405162461bcd60e51b8152600401610f3b90614d10565b600081116115e95760405162461bcd60e51b81526020600482015260076024820152660216e65774361760cc1b6044820152606401610f3b565b6115f281613a3b565b60ce80546cffffffffffffffffffffffffff19166001600160681b0392909216919091179055565b6002600154141561163d5760405162461bcd60e51b8152600401610f3b90614d45565b600260018190555061165160006001613219565b60018055565b6065546001600160a01b031633146116815760405162461bcd60e51b8152600401610f3b90614d10565b61168f620f42406064614f3d565b81106116dd5760405162461bcd60e51b815260206004820152601760248201527f496e76616c696420706572666f726d616e6365206665650000000000000000006044820152606401610f3b565b60d55460408051918252602082018390527f24867dfb6fcb9970a07be21024956524abe7a1837faa903ff0e99aaa40cf893e910160405180910390a160d555565b6065546001600160a01b031633146117485760405162461bcd60e51b8152600401610f3b90614d10565b6117526000613a85565b565b600260015414156117775760405162461bcd60e51b8152600401610f3b90614d45565b6002600155806117995760405162461bcd60e51b8152600401610f3b90614c9e565b33600090815260c960205260409020546201000090046001600160681b03161515806117e3575033600090815260c96020526040902054600160781b90046001600160801b031615155b156117f4576117f460006001613219565b60cf5433600081815260cb60209081526040918290208054835187815261ffff96871693810184905292959194911685149290917f0c53c82ad07e2d592d88ece3b066777dd60f1118e2a081b380efc4358f0d9e2a910160405180910390a281546201000090046001600160801b03166000821561187d57611876828761320d565b90506118e0565b81156118bf5760405162461bcd60e51b81526020600482015260116024820152704578697374696e6720776974686472617760781b6044820152606401610f3b565b5033600090815260cb60205260409020805461ffff191661ffff8616179055845b6118e981613ad7565b33600090815260cb6020526040812080546001600160801b03808516620100000262010000600160901b03199092169190911790915560d05461193591600160801b909104168861320d565b905061194081613ad7565b60d080546001600160801b03808416600160801b029116179055611965333089612f27565b5050600180555050505050565b6060609b8054610e6190614f9f565b60006119b661198f60995490565b611997611b95565b60d05460cc546001600160801b0390911690610100900460ff166139fb565b905090565b600260015414156119de5760405162461bcd60e51b8152600401610f3b90614d45565b600260015580611a1d5760405162461bcd60e51b815260206004820152600a602482015269216e756d526f756e647360b01b6044820152606401610f3b565b60cf5461ffff1660005b82811015611ae6576000611a3b8284614e1a565b905082811015611a785760405162461bcd60e51b81526020600482015260086024820152674f766572666c6f7760c01b6044820152606401610f3b565b600081815260ca602052604090205415611ac25760405162461bcd60e51b815260206004820152600b60248201526a125b9a5d1a585b1a5e995960aa1b6044820152606401610f3b565b600090815260ca602052604090206001905580611ade81614fd4565b915050611a27565b50506001805550565b3360009081526098602090815260408083206001600160a01b038616845290915281205482811015611b715760405162461bcd60e51b815260206004820152602560248201527f45524332303a2064656372656173656420616c6c6f77616e63652062656c6f77604482015264207a65726f60d81b6064820152608401610f3b565b611b7e3385858403612b1b565b5060019392505050565b6000610ef1338484612f27565b60cc546040516370a0823160e01b81523060048201526000916119b691620100009091046001600160a01b0316906370a082319060240160206040518083038186803b158015611be457600080fd5b505afa158015611bf8573d6000803e3d6000fd5b505050506040513d601f19601f82011682018060405250810190611c1c9190614a67565b60cf546201000090046001600160681b03169061320d565b60026001541415611c575760405162461bcd60e51b8152600401610f3b90614d45565b600260015580611c935760405162461bcd60e51b815260206004820152600760248201526608585b5bdd5b9d60ca1b6044820152606401610f3b565b611c9d81336136fe565b60cc54611cbb906201000090046001600160a01b0316333084613990565b5060018055565b6065546001600160a01b03163314611cec5760405162461bcd60e51b8152600401610f3b90614d10565b60008161ffff16118015611d0e5750611d076064600a614f3d565b8161ffff16105b611d4f5760405162461bcd60e51b815260206004820152601260248201527124b73b30b634b21030b63637b1b0ba34b7b760711b6044820152606401610f3b565b60f6546040805191825261ffff831660208301527f7b7f7a8590418227574bbbbf9b7f3a6ac2e590f0613ded320769210d39b4b283910160405180910390a161ffff1660f655565b6000806000611da5846127a9565b909250905061157d828261320d565b6065546001600160a01b03163314611dde5760405162461bcd60e51b8152600401610f3b90614d10565b6001600160a01b038116611e215760405162461bcd60e51b815260206004820152600a60248201526910b732bba5b2b2b832b960b11b6044820152606401610f3b565b60d480546001600160a01b0319166001600160a01b0392909216919091179055565b600054610100900460ff1680611e5c575060005460ff16155b611e785760405162461bcd60e51b8152600401610f3b90614cc2565b600054610100900460ff16158015611e9a576000805461ffff19166101011790555b611eaa8b8b8b8b8b8b8b89613b21565b6001600160a01b038416611f005760405162461bcd60e51b815260206004820152601860248201527f215f636f756e746572706172747954686574615661756c7400000000000000006044820152606401610f3b565b60cc60000160029054906101000a90046001600160a01b03166001600160a01b0316846001600160a01b0316639fcc2d756040518163ffffffff1660e01b815260040160c06040518083038186803b158015611f5b57600080fd5b505afa158015611f6f573d6000803e3d6000fd5b505050506040513d601f19601f82011682018060405250810190611f939190614983565b604001516001600160a01b031614611fed5760405162461bcd60e51b815260206004820152601f60248201527f215f636f756e746572706172747954686574615661756c743a206173736574006044820152606401610f3b565b60008311801561200757506120046064600a614f3d565b83105b6120485760405162461bcd60e51b815260206004820152601260248201527110afb7b83a34b7b720b63637b1b0ba34b7b760711b6044820152606401610f3b565b60f580546001600160a01b0319166001600160a01b03861617905560f6839055801561207a576000805461ff00191690555b5050505050505050505050565b600260015414156120aa5760405162461bcd60e51b8152600401610f3b90614d45565b6002600155806120cc5760405162461bcd60e51b8152600401610f3b90614c9e565b611cbb816000613219565b6065546001600160a01b031633146121015760405162461bcd60e51b8152600401610f3b90614d10565b6001600160a01b03811661214a5760405162461bcd60e51b815260206004820152601060248201526f085b995dd19959549958da5c1a595b9d60821b6044820152606401610f3b565b60d3546001600160a01b03828116911614156121a85760405162461bcd60e51b815260206004820152601860248201527f4d757374206265206e657720666565526563697069656e7400000000000000006044820152606401610f3b565b60d380546001600160a01b0319166001600160a01b0392909216919091179055565b600260015414156121ed5760405162461bcd60e51b8152600401610f3b90614d45565b600260015560f5546040516307cc423960e01b815260f8546001600160601b038082166004840152606082901c16602483015260c01c60448201526001600160a01b037f000000000000000000000000000000000000000000000000000000000000000081166064830152909116608482015273__$c4f279750f4bbb575ac7775e752dc00849$__906307cc42399060a40160006040518083038186803b15801561229757600080fd5b505af41580156122ab573d6000803e3d6000fd5b505050506116516000612e5f565b600260015414156122dc5760405162461bcd60e51b8152600401610f3b90614d45565b600260015560d25460f5546040805163a083ff1760e01b815290516001600160a01b0393841693600093169163a083ff17916004808301926060929190829003018186803b15801561232d57600080fd5b505afa158015612341573d6000803e3d6000fd5b505050506040513d601f19601f82011682018060405250810190612365919061490a565b5190506001600160a01b0381166123b25760405162461bcd60e51b8152602060048201526011602482015270085d1a195d185d985d5b1d18db1bdcd959607a1b6044820152606401610f3b565b6123bc6001612e5f565b60d180546001600160a01b0319166001600160a01b03831617905560006123e54261038461320d565b905063ffffffff81111561243b5760405162461bcd60e51b815260206004820152601860248201527f4f766572666c6f77206e6578744f7074696f6e526561647900000000000000006044820152606401610f3b565b60d280546001600160c01b031916600160a01b63ffffffff8416026001600160a01b03191617905560f75460cf80546cffffffffffffffffffffffffff60781b1916600160781b6001600160681b03909316929092029190911790556001600160a01b03831615611ae65760cc54604051631bd1c68360e31b81526001600160a01b037f000000000000000000000000000000000000000000000000000000000000000081166004830152808616602483015262010000909204909116604482015260009073__$c4f279750f4bbb575ac7775e752dc00849$__9063de8e34189060640160206040518083038186803b15801561253757600080fd5b505af415801561254b573d6000803e3d6000fd5b505050506040513d601f19601f8201168201806040525081019061256f9190614a67565b9050336001600160a01b0316846001600160a01b03167fbbdc6ffe3a5302a25b4ef9afc416a1b2b7c720da5eee6dc669eda4d9c63d82b9836040516125b691815260200190565b60405180910390a35050506001805550565b6065546001600160a01b031633146125f25760405162461bcd60e51b8152600401610f3b90614d10565b6001600160a01b0381166126575760405162461bcd60e51b815260206004820152602660248201527f4f776e61626c653a206e6577206f776e657220697320746865207a65726f206160448201526564647265737360d01b6064820152608401610f3b565b61266081613a85565b50565b600260015414156126865760405162461bcd60e51b8152600401610f3b90614d45565b600260015560cc547f00000000000000000000000000000000000000000000000000000000000000006001600160a01b039081166201000090920416146126f75760405162461bcd60e51b8152602060048201526005602482015264042ae8aa8960db1b6044820152606401610f3b565b600034116127305760405162461bcd60e51b81526020600482015260066024820152652176616c756560d01b6044820152606401610f3b565b61273a34336136fe565b7f00000000000000000000000000000000000000000000000000000000000000006001600160a01b031663d0e30db0346040518263ffffffff1660e01b81526004016000604051808303818588803b15801561279557600080fd5b505af1158015611449573d6000803e3d6000fd5b6001600160a01b038116600090815260c9602090815260408083208151606081018352905461ffff81168083526201000082046001600160681b031694830194909452600160781b90046001600160801b03169181019190915282916001111561282b575050506001600160a01b031660009081526097602052604081205491565b60cf54815161ffff908116600090815260ca602052604081205460cc54919361286193869391169190610100900460ff16613d60565b9050612882856001600160a01b031660009081526097602052604090205490565b9590945092505050565b600260015414156128af5760405162461bcd60e51b8152600401610f3b90614d45565b600260015533600090815260cb6020526040902080546001600160801b03620100008204169061ffff16816129165760405162461bcd60e51b815260206004820152600d60248201526c139bdd081a5b9a5d1a585d1959609a1b6044820152606401610f3b565b60cf5461ffff16811061295e5760405162461bcd60e51b815260206004820152601060248201526f149bdd5b99081b9bdd0818db1bdcd95960821b6044820152606401610f3b565b33600090815260cb60205260409020805462010000600160901b031916905560d05461299a90600160801b90046001600160801b031683613201565b60d080546001600160801b03928316600160801b029216919091179055600081815260ca602052604081205460cc546129dd91859160ff6101009091041661353b565b604080518281526020810186905291925033917ff279e6a1f5e320cca91135676d9cb6e44ca8a08c0b88342bcdb1144f6511b568910160405180910390a2612a2530846133f0565b60008111612a675760405162461bcd60e51b815260206004820152600f60248201526e085dda5d1a191c985dd05b5bdd5b9d608a1b6044820152606401610f3b565b612a71338261359d565b5050600180555050565b6065546001600160a01b03163314612aa55760405162461bcd60e51b8152600401610f3b90614d10565b612ab3620f42406064614f3d565b8110612afa5760405162461bcd60e51b8152602060048201526016602482015275496e76616c6964206d616e6167656d656e742066656560501b6044820152606401610f3b565b612b1563031ba309612b0f83620f4240613dd1565b90613ddd565b60d65550565b6001600160a01b038316612b7d5760405162461bcd60e51b8152602060048201526024808201527f45524332303a20617070726f76652066726f6d20746865207a65726f206164646044820152637265737360e01b6064820152608401610f3b565b6001600160a01b038216612bde5760405162461bcd60e51b815260206004820152602260248201527f45524332303a20617070726f766520746f20746865207a65726f206164647265604482015261737360f01b6064820152608401610f3b565b6001600160a01b0383811660008181526098602090815260408083209487168084529482529182902085905590518481527f8c5be1e5ebec7d5bd14f71427d1e84f3dd0314c0f7b2291e5b200ac8c7c3b92591015b60405180910390a3505050565b60d2546000908190600160a01b900463ffffffff16421015612c8d5760405162461bcd60e51b815260206004820152600660248201526521726561647960d01b6044820152606401610f3b565b60d1546001600160a01b0316915081612cd65760405162461bcd60e51b815260206004820152600b60248201526a10b732bc3a27b83a34b7b760a91b6044820152606401610f3b565b60008060008073__$c4f279750f4bbb575ac7775e752dc00849$__63d7975f15612cff60995490565b60cc5460d05460405160e085901b6001600160e01b031916815260048101939093526201000082046001600160a01b0316602484015261010090910460ff1660448301526001600160801b038082166064840152600160801b90910416608482015260a40160806040518083038186803b158015612d7c57600080fd5b505af4158015612d90573d6000803e3d6000fd5b505050506040513d601f19601f82011682018060405250810190612db49190614ad0565b60d280546001600160a01b038c166001600160a01b03199182161790915560d18054909116905560cf5461ffff16600081815260ca6020526040902083905593975091955093509150612e19612e12612e0d878761320d565b613de9565b8690613201565b60d080546001600160801b03191690559550612e36816001614e1a565b60cf805461ffff191661ffff92909216919091179055612e563083613f0d565b50505050509091565b60cf5461ffff16811580612e825750600081815260ca6020526040902054600110155b15612f2357612f13612e9360995490565b60cc546040516370a0823160e01b8152306004820152620100009091046001600160a01b0316906370a082319060240160206040518083038186803b158015612edb57600080fd5b505afa158015612eef573d6000803e3d6000fd5b505050506040513d601f19601f820116820180604052508101906119979190614a67565b600082815260ca60205260409020555b5050565b6001600160a01b038316612f8b5760405162461bcd60e51b815260206004820152602560248201527f45524332303a207472616e736665722066726f6d20746865207a65726f206164604482015264647265737360d81b6064820152608401610f3b565b6001600160a01b038216612fed5760405162461bcd60e51b815260206004820152602360248201527f45524332303a207472616e7366657220746f20746865207a65726f206164647260448201526265737360e81b6064820152608401610f3b565b6001600160a01b038316600090815260976020526040902054818110156130655760405162461bcd60e51b815260206004820152602660248201527f45524332303a207472616e7366657220616d6f756e7420657863656564732062604482015265616c616e636560d01b6064820152608401610f3b565b6001600160a01b0380851660009081526097602052604080822085850390559185168152908120805484929061309c908490614e1a565b92505081905550826001600160a01b0316846001600160a01b03167fddf252ad1be2c89b69c2b068fc378daa952ba7f163c4a11628f55a4df523b3ef846040516130e891815260200190565b60405180910390a35b50505050565b33600090815260c96020526040812060cf54815483929161ffff9182169116148015613132575080546201000090046001600160681b031615155b156131f857805461ffff8116600090815260ca602052604081205460cc54919261317592620100009091046001600160681b03169190610100900460ff16613fec565b90506000613183828761404f565b90506131b76131928383613201565b845461ffff16600090815260ca602052604090205460cc54610100900460ff1661353b565b83546001600160681b039190911662010000026effffffffffffffffffffffffff000019909116178355806131ec8782613201565b94509450505050915091565b50600093915050565b60006112aa8284614f5c565b60006112aa8284614e1a565b33600090815260c9602090815260408083208151606081018352905461ffff8082168084526201000083046001600160681b031684870152600160781b9092046001600160801b03168385015260cf5491865260ca9094529184205460cc54919492909316926132949185918591610100900460ff16613d60565b9050836132a157846132a3565b805b9450846132b1575050505050565b808511156132f55760405162461bcd60e51b81526020600482015260116024820152704578636565647320617661696c61626c6560781b6044820152606401610f3b565b825161ffff16821161330b57826020015161330e565b60005b33600090815260c96020526040902080546001600160681b039290921662010000026effffffffffffffffffffffffff00001990921691909117905561335385613ad7565b61335d8186613201565b33600081815260c960205260409081902080546001600160801b0394909416600160781b02600160781b600160f81b0319909416939093179092558451915190917fe5b754fb1abb7f01b499791d0b820ae3b6af3424ac1c59768edb53f4ec31a929916133d69189825261ffff16602082015260400190565b60405180910390a26133e9303387612f27565b5050505050565b6001600160a01b0382166134505760405162461bcd60e51b815260206004820152602160248201527f45524332303a206275726e2066726f6d20746865207a65726f206164647265736044820152607360f81b6064820152608401610f3b565b6001600160a01b038216600090815260976020526040902054818110156134c45760405162461bcd60e51b815260206004820152602260248201527f45524332303a206275726e20616d6f756e7420657863656564732062616c616e604482015261636560f01b6064820152608401610f3b565b6001600160a01b03831660009081526097602052604081208383039055609980548492906134f3908490614f5c565b90915550506040518281526000906001600160a01b038516907fddf252ad1be2c89b69c2b068fc378daa952ba7f163c4a11628f55a4df523b3ef90602001612c33565b505050565b6000600183116135855760405162461bcd60e51b8152602060048201526015602482015274496e76616c6964206173736574506572536861726560581b6044820152606401610f3b565b61157d61359383600a614e95565b612b0f8686613dd1565b60cc546001600160a01b03620100009091048116907f0000000000000000000000000000000000000000000000000000000000000000168114156136ea57604051632e1a7d4d60e01b8152600481018390527f00000000000000000000000000000000000000000000000000000000000000006001600160a01b031690632e1a7d4d90602401600060405180830381600087803b15801561363d57600080fd5b505af1158015613651573d6000803e3d6000fd5b505050506000836001600160a01b03168360405160006040518083038185875af1925050503d80600081146136a2576040519150601f19603f3d011682016040523d82523d6000602084013e6136a7565b606091505b50509050806130f15760405162461bcd60e51b815260206004820152600f60248201526e151c985b9cd9995c8819985a5b1959608a1b6044820152606401610f3b565b6135366001600160a01b0382168484614065565b60cf5461ffff16600061371984613713611b95565b9061320d565b60ce549091506001600160681b03168111156137645760405162461bcd60e51b815260206004820152600a6024820152690457863656564206361760b41b6044820152606401610f3b565b60cd54600160a01b900466ffffffffffffff168110156137bd5760405162461bcd60e51b8152602060048201526014602482015273496e73756666696369656e742062616c616e636560601b6044820152606401610f3b565b60408051858152602081018490526001600160a01b038516917f90890809c654f11d6e72a28fa60149770a0d11ec6c92319d6ceb2bb0a4ea1a15910160405180910390a26001600160a01b038316600090815260c9602090815260408083208151606081018352905461ffff81168083526201000082046001600160681b031683860152600160781b9091046001600160801b031682840152845260ca90925282205460cc5491929161387c918491879190610100900460ff16613d60565b8251909150869061ffff168514156138ad5760208301516000906138a9906001600160681b03168961320d565b9150505b6138b681613a3b565b6040805160608101825261ffff80881682526001600160681b0380851660208085019182526001600160801b038089168688019081526001600160a01b038e16600090815260c990935296822095518654935197518216600160781b02600160781b600160f81b03199890951662010000026effffffffffffffffffffffffffffff1990941695169490941791909117949094161790915560d05461395c91168961320d565b905061396781613ad7565b60d080546001600160801b0319166001600160801b039290921691909117905550505050505050565b6040516001600160a01b03808516602483015283166044820152606481018290526130f19085906323b872dd60e01b906084015b60408051601f198184030181529190526020810180516001600160e01b03166001600160e01b031990931692909217909152614095565b600080613a0983600a614e95565b905060008611613a195780613a31565b613a3186612b0f613a2a8888613201565b8490613dd1565b9695505050505050565b6001600160681b038111156126605760405162461bcd60e51b815260206004820152601060248201526f13dd995c999b1bddc81d5a5b9d0c4c0d60821b6044820152606401610f3b565b606580546001600160a01b038381166001600160a01b0319831681179093556040519116919082907f8be0079c531659141344cd1fd0a4f28419497f9722a3daafe3b4186f6b6457e090600090a35050565b6001600160801b038111156126605760405162461bcd60e51b815260206004820152601060248201526f09eeccae4ccd8deee40ead2dce86264760831b6044820152606401610f3b565b600054610100900460ff1680613b3a575060005460ff16155b613b565760405162461bcd60e51b8152600401610f3b90614cc2565b600054610100900460ff16158015613b78576000805461ffff19166101011790555b60405163c72733f760e01b815273__$c4f279750f4bbb575ac7775e752dc00849$__9063c72733f790613bbd908c908c908c908b908d908c908c908c90600401614b91565b60006040518083038186803b158015613bd557600080fd5b505af4158015613be9573d6000803e3d6000fd5b50505050613bf5614167565b613bff84846141da565b613c07614259565b613c10896125c8565b60d480546001600160a01b03808b166001600160a01b03199283161790925560d38054928a169290911691909117905560d5859055613c5a63031ba309612b0f88620f4240613dd1565b60d6558160cc613c6a8282615042565b505060cc546040516370a0823160e01b81523060048201526000916201000090046001600160a01b0316906370a082319060240160206040518083038186803b158015613cb657600080fd5b505afa158015613cca573d6000803e3d6000fd5b505050506040513d601f19601f82011682018060405250810190613cee9190614a67565b9050613cf981613a3b565b60cf805461ffff196001600160681b03909316600160781b02929092167fffffffff00000000000000000000000000ffffffffffffffffffffffffff00009092169190911760011790558015613d55576000805461ff00191690555b505050505050505050565b835160009061ffff1615801590613d7b5750845161ffff1684115b15613dbd576000613d9a86602001516001600160681b03168585613fec565b6040870151909150613db5906001600160801b03168261320d565b91505061157d565b50505050604001516001600160801b031690565b60006112aa8284614f3d565b60006112aa8284614e32565b60d55460d65460405163d38e319760e01b815260cf600482015260248101849052604481019290925260648201526000908190819073__$c4f279750f4bbb575ac7775e752dc00849$__9063d38e31979060840160606040518083038186803b158015613e5557600080fd5b505af4158015613e69573d6000803e3d6000fd5b505050506040513d601f19601f82011682018060405250810190613e8d9190614aa3565b925050915060008111156112aa5760d354613eb1906001600160a01b03168261359d565b60d35460cf54604080518581526020810185905261ffff90921682820152516001600160a01b03909216917f0a242f7ecaf711036ca770774ceffae28e60ef042ac113ddd187f2631db0c0069181900360600190a29392505050565b6001600160a01b038216613f635760405162461bcd60e51b815260206004820152601f60248201527f45524332303a206d696e7420746f20746865207a65726f2061646472657373006044820152606401610f3b565b8060996000828254613f759190614e1a565b90915550506001600160a01b03821660009081526097602052604081208054839290613fa2908490614e1a565b90915550506040518181526001600160a01b038316906000907fddf252ad1be2c89b69c2b068fc378daa952ba7f163c4a11628f55a4df523b3ef9060200160405180910390a35050565b6000600183116140365760405162461bcd60e51b8152602060048201526015602482015274496e76616c6964206173736574506572536861726560581b6044820152606401610f3b565b61157d83612b0f61404885600a614e95565b8790613dd1565b600081831061405e57816112aa565b5090919050565b6040516001600160a01b03831660248201526044810182905261353690849063a9059cbb60e01b906064016139c4565b60006140ea826040518060400160405280602081526020017f5361666545524332303a206c6f772d6c6576656c2063616c6c206661696c6564815250856001600160a01b03166142c09092919063ffffffff16565b805190915015613536578080602001905181019061410891906148ee565b6135365760405162461bcd60e51b815260206004820152602a60248201527f5361666545524332303a204552433230206f7065726174696f6e20646964206e6044820152691bdd081cdd58d8d9595960b21b6064820152608401610f3b565b600054610100900460ff1680614180575060005460ff16155b61419c5760405162461bcd60e51b8152600401610f3b90614cc2565b600054610100900460ff161580156141be576000805461ffff19166101011790555b6141c66142cf565b8015612660576000805461ff001916905550565b600054610100900460ff16806141f3575060005460ff16155b61420f5760405162461bcd60e51b8152600401610f3b90614cc2565b600054610100900460ff16158015614231576000805461ffff19166101011790555b61423961433e565b61424383836143a8565b8015613536576000805461ff0019169055505050565b600054610100900460ff1680614272575060005460ff16155b61428e5760405162461bcd60e51b8152600401610f3b90614cc2565b600054610100900460ff161580156142b0576000805461ffff19166101011790555b6142b861433e565b6141c661443d565b606061157d848460008561449d565b600054610100900460ff16806142e8575060005460ff16155b6143045760405162461bcd60e51b8152600401610f3b90614cc2565b600054610100900460ff16158015614326576000805461ffff19166101011790555b600180558015612660576000805461ff001916905550565b600054610100900460ff1680614357575060005460ff16155b6143735760405162461bcd60e51b8152600401610f3b90614cc2565b600054610100900460ff161580156141c6576000805461ffff19166101011790558015612660576000805461ff001916905550565b600054610100900460ff16806143c1575060005460ff16155b6143dd5760405162461bcd60e51b8152600401610f3b90614cc2565b600054610100900460ff161580156143ff576000805461ffff19166101011790555b825161441290609a9060208601906145fe565b50815161442690609b9060208501906145fe565b508015613536576000805461ff0019169055505050565b600054610100900460ff1680614456575060005460ff16155b6144725760405162461bcd60e51b8152600401610f3b90614cc2565b600054610100900460ff16158015614494576000805461ffff19166101011790555b6141c633613a85565b6060824710156144fe5760405162461bcd60e51b815260206004820152602660248201527f416464726573733a20696e73756666696369656e742062616c616e636520666f6044820152651c8818d85b1b60d21b6064820152608401610f3b565b843b61454c5760405162461bcd60e51b815260206004820152601d60248201527f416464726573733a2063616c6c20746f206e6f6e2d636f6e74726163740000006044820152606401610f3b565b600080866001600160a01b031685876040516145689190614b75565b60006040518083038185875af1925050503d80600081146145a5576040519150601f19603f3d011682016040523d82523d6000602084013e6145aa565b606091505b50915091506145ba8282866145c5565b979650505050505050565b606083156145d45750816112aa565b8251156145e45782518084602001fd5b8160405162461bcd60e51b8152600401610f3b9190614c8b565b82805461460a90614f9f565b90600052602060002090601f01602090048101928261462c5760008555614672565b82601f1061464557805160ff1916838001178555614672565b82800160010185558215614672579182015b82811115614672578251825591602001919060010190614657565b5061467e929150614682565b5090565b5b8082111561467e5760008155600101614683565b80356146a281615153565b919050565b600082601f8301126146b7578081fd5b813567ffffffffffffffff808211156146d2576146d2615005565b604051601f8301601f19908116603f011681019082821181831017156146fa576146fa615005565b81604052838152866020858801011115614712578485fd5b8360208701602083013792830160200193909352509392505050565b600060c0828403121561473f578081fd5b50919050565b80356146a281615176565b80356146a28161518b565b60006020828403121561476c578081fd5b81356112aa81615153565b60008060408385031215614789578081fd5b823561479481615153565b915060208301356147a481615153565b809150509250929050565b6000806000806000806000806000806101e08b8d0312156147ce578586fd5b6147d78b614697565b99506147e560208c01614697565b98506147f360408c01614697565b975060608b0135965060808b0135955060a08b013567ffffffffffffffff8082111561481d578687fd5b6148298e838f016146a7565b965060c08d013591508082111561483e578586fd5b5061484b8d828e016146a7565b94505061485a60e08c01614697565b92506101008b013591506148728c6101208d0161472e565b90509295989b9194979a5092959850565b600080600060608486031215614897578283fd5b83356148a281615153565b925060208401356148b281615153565b929592945050506040919091013590565b600080604083850312156148d5578182fd5b82356148e081615153565b946020939093013593505050565b6000602082840312156148ff578081fd5b81516112aa81615168565b60006060828403121561491b578081fd5b6040516060810181811067ffffffffffffffff8211171561493e5761493e615005565b604052825161494c81615153565b8152602083015161495c81615153565b6020820152604083015163ffffffff81168114614977578283fd5b60408201529392505050565b600060c08284031215614994578081fd5b60405160c0810181811067ffffffffffffffff821117156149b7576149b7615005565b60405282516149c581615168565b815260208301516149d5816151a0565b602082015260408301516149e881615153565b604082015260608301516149fb81615153565b60608201526080830151614a0e8161518b565b608082015260a0830151614a2181615176565b60a08201529392505050565b600060208284031215614a3e578081fd5b813561ffff811681146112aa578182fd5b600060208284031215614a60578081fd5b5035919050565b600060208284031215614a78578081fd5b5051919050565b60008060408385031215614a91578182fd5b8235915060208301356147a481615153565b600080600060608486031215614ab7578081fd5b8351925060208401519150604084015190509250925092565b60008060008060808587031215614ae5578182fd5b505082516020840151604085015160609095015191969095509092509050565b600080600060608486031215614b19578081fd5b8351925060208401519150604084015167ffffffffffffffff81168114614b3e578182fd5b809150509250925092565b60008151808452614b61816020860160208601614f73565b601f01601f19169290920160200192915050565b60008251614b87818460208701614f73565b9190910192915050565b60006101a060018060a01b03808c168452808b166020850152808a1660408501528860608501528760808501528160a0850152614bd082850188614b49565b915083820360c0850152614be48287614b49565b925084359150614bf382615168565b90151560e0840152602084013590614c0a826151a0565b60ff821661010085015260408501359150614c2482615153565b16610120830152614c3760608401614697565b6001600160a01b0316610140830152614c5260808401614750565b66ffffffffffffff16610160830152614c6d60a08401614745565b6001600160681b038116610180840152509998505050505050505050565b6020815260006112aa6020830184614b49565b6020808252600a9082015269216e756d53686172657360b01b604082015260600190565b6020808252602e908201527f496e697469616c697a61626c653a20636f6e747261637420697320616c72656160408201526d191e481a5b9a5d1a585b1a5e995960921b606082015260800190565b6020808252818101527f4f776e61626c653a2063616c6c6572206973206e6f7420746865206f776e6572604082015260600190565b6020808252601f908201527f5265656e7472616e637947756172643a207265656e7472616e742063616c6c00604082015260600190565b81516001600160a01b03168152602080830151610120830191614da9908401826001600160a01b03169052565b506040830151614dc460408401826001600160a01b03169052565b50606083015160608301526080830151608083015260a083015160a083015260c083015160c083015260e083015160e083015261010080840151614e12828501826001600160a01b03169052565b505092915050565b60008219821115614e2d57614e2d614fef565b500190565b600082614e4d57634e487b7160e01b81526012600452602481fd5b500490565b600181815b80851115614e8d578160001904821115614e7357614e73614fef565b80851615614e8057918102915b93841c9390800290614e57565b509250929050565b60006112aa8383600082614eab57506001610ef5565b81614eb857506000610ef5565b8160018114614ece5760028114614ed857614ef4565b6001915050610ef5565b60ff841115614ee957614ee9614fef565b50506001821b610ef5565b5060208310610133831016604e8410600b8410161715614f17575081810a610ef5565b614f218383614e52565b8060001904821115614f3557614f35614fef565b029392505050565b6000816000190483118215151615614f5757614f57614fef565b500290565b600082821015614f6e57614f6e614fef565b500390565b60005b83811015614f8e578181015183820152602001614f76565b838111156130f15750506000910152565b600181811c90821680614fb357607f821691505b6020821081141561473f57634e487b7160e01b600052602260045260246000fd5b6000600019821415614fe857614fe8614fef565b5060010190565b634e487b7160e01b600052601160045260246000fd5b634e487b7160e01b600052604160045260246000fd5b60008135610ef581615153565b60008135610ef581615176565b60008135610ef58161518b565b813561504d81615168565b815460ff19811691151560ff169182178355602084013561506d816151a0565b61ff008160081b169050808361ffff19841617178455604085013561509181615153565b6001600160b01b0319929092169092179190911760109190911b62010000600160b01b0316178155600181016150e96150cc6060850161501b565b82546001600160a01b0319166001600160a01b0391909116178255565b6151226150f860808501615035565b82805466ffffffffffffff60a01b191660a09290921b66ffffffffffffff60a01b16919091179055565b50612f2361513260a08401615028565b600283016001600160681b0382166001600160681b03198254161781555050565b6001600160a01b038116811461266057600080fd5b801515811461266057600080fd5b6001600160681b038116811461266057600080fd5b66ffffffffffffff8116811461266057600080fd5b60ff8116811461266057600080fdfea264697066735822122047ae3fe8ed6dc25d797514bc57cb72385cdd787daca3b6ecf90a7a1ee50aaf6364736f6c63430008040033",
  "libraries": {
    "VaultLifecycle": "0x97710Cbae64DE9c3615E64893CD225f6139370cA"
  },
  "devdoc": {
    "kind": "dev",
    "methods": {
      "accountVaultBalance(address)": {
        "params": {
          "account": "is the address to lookup balance for"
        },
        "returns": {
          "_0": "the amount of `asset` custodied by the vault for the user"
        }
      },
      "allowance(address,address)": {
        "details": "See {IERC20-allowance}."
      },
      "approve(address,uint256)": {
        "details": "See {IERC20-approve}. Requirements: - `spender` cannot be the zero address."
      },
      "balanceOf(address)": {
        "details": "See {IERC20-balanceOf}."
      },
      "constructor": {
        "params": {
          "_gammaController": "is the contract address for opyn actions",
          "_gnosisEasyAuction": "is the contract address that facilitates gnosis auctions",
          "_marginPool": "is the contract address for providing collateral to opyn",
          "_usdc": "is the USDC contract",
          "_weth": "is the Wrapped Ether contract"
        }
      },
      "decreaseAllowance(address,uint256)": {
        "details": "Atomically decreases the allowance granted to `spender` by the caller. This is an alternative to {approve} that can be used as a mitigation for problems described in {IERC20-approve}. Emits an {Approval} event indicating the updated allowance. Requirements: - `spender` cannot be the zero address. - `spender` must have allowance for the caller of at least `subtractedValue`."
      },
      "deposit(uint256)": {
        "params": {
          "amount": "is the amount of `asset` to deposit"
        }
      },
      "depositFor(uint256,address)": {
        "params": {
          "amount": "is the amount of `asset` to deposit",
          "creditor": "is the address that can claim/withdraw deposited amount"
        }
      },
      "increaseAllowance(address,uint256)": {
        "details": "Atomically increases the allowance granted to `spender` by the caller. This is an alternative to {approve} that can be used as a mitigation for problems described in {IERC20-approve}. Emits an {Approval} event indicating the updated allowance. Requirements: - `spender` cannot be the zero address."
      },
      "initialize(address,address,address,uint256,uint256,string,string,address,uint256,(bool,uint8,address,address,uint56,uint104))": {
        "params": {
          "_counterpartyThetaVault": "is the address of the counterparty theta vault of this delta vault",
          "_feeRecipient": "is the address to recieve vault performance and management fees",
          "_managementFee": "is the management fee pct.",
          "_optionAllocation": "is the pct of the funds to allocate towards the weekly option",
          "_owner": "is the owner of the vault with critical permissions",
          "_performanceFee": "is the perfomance fee pct.",
          "_tokenName": "is the name of the token",
          "_tokenSymbol": "is the symbol of the token",
          "_vaultParams": "is the struct with vault general data"
        }
      },
      "initiateWithdraw(uint256)": {
        "params": {
          "numShares": "is the number of shares to withdraw"
        }
      },
      "name()": {
        "details": "Returns the name of the token."
      },
      "owner()": {
        "details": "Returns the address of the current owner."
      },
      "redeem(uint256)": {
        "params": {
          "numShares": "is the number of shares to redeem"
        }
      },
      "renounceOwnership()": {
        "details": "Leaves the contract without owner. It will not be possible to call `onlyOwner` functions anymore. Can only be called by the current owner. NOTE: Renouncing ownership will leave the contract without an owner, thereby removing any functionality that is only available to the owner."
      },
      "rollToNextOption(uint256)": {
        "params": {
          "optionPremium": "is the premium per token to pay in `asset`. Same decimals as `asset` (ex: 1 * 10 ** 8 means 1 WBTC per oToken)"
        }
      },
      "setCap(uint256)": {
        "params": {
          "newCap": "is the new cap for deposits"
        }
      },
      "setFeeRecipient(address)": {
        "params": {
          "newFeeRecipient": "is the address of the new fee recipient"
        }
      },
      "setManagementFee(uint256)": {
        "params": {
          "newManagementFee": "is the management fee (6 decimals). ex: 2 * 10 ** 6 = 2%"
        }
      },
      "setNewKeeper(address)": {
        "params": {
          "newKeeper": "is the address of the new keeper"
        }
      },
      "setOptionAllocation(uint16)": {
        "params": {
          "newOptionAllocation": "is the option % allocation"
        }
      },
      "setPerformanceFee(uint256)": {
        "params": {
          "newPerformanceFee": "is the performance fee (6 decimals). ex: 20 * 10 ** 6 = 20%"
        }
      },
      "shareBalances(address)": {
        "params": {
          "account": "is the account to lookup share balance for"
        },
        "returns": {
          "heldByAccount": "is the shares held by account",
          "heldByVault": "is the shares held on the vault (unredeemedShares)"
        }
      },
      "shares(address)": {
        "params": {
          "account": "is the account to lookup share balance for"
        },
        "returns": {
          "_0": "the share balance"
        }
      },
      "symbol()": {
        "details": "Returns the symbol of the token, usually a shorter version of the name."
      },
      "totalBalance()": {
        "returns": {
          "_0": "total balance of the vault, including the amounts locked in third party protocols"
        }
      },
      "totalSupply()": {
        "details": "See {IERC20-totalSupply}."
      },
      "transfer(address,uint256)": {
        "details": "See {IERC20-transfer}. Requirements: - `recipient` cannot be the zero address. - the caller must have a balance of at least `amount`."
      },
      "transferFrom(address,address,uint256)": {
        "details": "See {IERC20-transferFrom}. Emits an {Approval} event indicating the updated allowance. This is not required by the EIP. See the note at the beginning of {ERC20}. Requirements: - `sender` and `recipient` cannot be the zero address. - `sender` must have a balance of at least `amount`. - the caller must have allowance for ``sender``'s tokens of at least `amount`."
      },
      "transferOwnership(address)": {
        "details": "Transfers ownership of the contract to a new account (`newOwner`). Can only be called by the current owner."
      },
      "withdrawInstantly(uint256)": {
        "params": {
          "share": "is the amount of shares to withdraw"
        }
      }
    },
    "version": 1
  },
  "userdoc": {
    "kind": "user",
    "methods": {
      "DELAY()": {
        "notice": "15 minute timelock between commitAndClose and rollToNexOption."
      },
      "PERIOD()": {
        "notice": "7 day period between each options sale."
      },
      "USDC()": {
        "notice": "USDC 0xA0b86991c6218b36c1d19D4a2e9Eb0cE3606eB48"
      },
      "WETH()": {
        "notice": "WETH9 0xC02aaA39b223FE8D0A0e5C4F27eAD9083C756Cc2"
      },
      "accountVaultBalance(address)": {
        "notice": "Returns the asset balance held on the vault for the account"
      },
      "claimAuctionOtokens()": {
        "notice": "Claims the delta vault's oTokens from latest auction"
      },
      "commitAndClose()": {
        "notice": "Closes the existing long position for the vault.         This allows all the users to withdraw if the next option is malicious."
      },
      "completeWithdraw()": {
        "notice": "Completes a scheduled withdrawal from a past round. Uses finalized pps for the round"
      },
      "constructor": {
        "notice": "Initializes the contract with immutable variables"
      },
      "decimals()": {
        "notice": "Returns the token decimals"
      },
      "deposit(uint256)": {
        "notice": "Deposits the `asset` from msg.sender."
      },
      "depositETH()": {
        "notice": "Deposits ETH into the contract and mint vault shares. Reverts if the asset is not WETH."
      },
      "depositFor(uint256,address)": {
        "notice": "Deposits the `asset` from msg.sender added to `creditor`'s deposit.Used for vault -> vault deposits on the user's behalf"
      },
      "depositReceipts(address)": {
        "notice": "Stores the user's pending deposit for the round"
      },
      "feeRecipient()": {
        "notice": "Fee recipient for the performance and management fees"
      },
      "initialize(address,address,address,uint256,uint256,string,string,address,uint256,(bool,uint8,address,address,uint56,uint104))": {
        "notice": "Initializes the OptionVault contract with storage variables."
      },
      "initiateWithdraw(uint256)": {
        "notice": "Initiates a withdrawal that can be processed once the round completes"
      },
      "keeper()": {
        "notice": "role in charge of weekly vault operations such as rollToNextOption and burnRemainingOTokens"
      },
      "managementFee()": {
        "notice": "Management fee charged on entire AUM in rollToNextOption. Only charged when there is no loss."
      },
      "maxRedeem()": {
        "notice": "Redeems the entire unredeemedShares balance that is owed to the account"
      },
      "optionState()": {
        "notice": "Vault's state of the options sold and the timelocked option"
      },
      "performanceFee()": {
        "notice": "Performance fee charged on premiums earned in rollToNextOption. Only charged when there is no loss."
      },
      "pricePerShare()": {
        "notice": "The price of a unit of share denominated in the `asset`"
      },
      "redeem(uint256)": {
        "notice": "Redeems shares that are owed to the account"
      },
      "rollToNextOption(uint256)": {
        "notice": "Rolls the vault's funds into a new long position."
      },
      "roundPricePerShare(uint256)": {
        "notice": "On every round's close, the pricePerShare value of an rTHETA token is stored This is used to determine the number of shares to be returned to a user with their DepositReceipt.depositAmount"
      },
      "setCap(uint256)": {
        "notice": "Sets a new cap for deposits"
      },
      "setFeeRecipient(address)": {
        "notice": "Sets the new fee recipient"
      },
      "setManagementFee(uint256)": {
        "notice": "Sets the management fee for the vault"
      },
      "setNewKeeper(address)": {
        "notice": "Sets the new keeper"
      },
      "setOptionAllocation(uint16)": {
        "notice": "Sets the new % allocation of funds towards options purchases (2 decimals. ex: 10 * 10**2 is 10%) 0 < newOptionAllocation < 1000. 1000 = 10%."
      },
      "setPerformanceFee(uint256)": {
        "notice": "Sets the performance fee for the vault"
      },
      "shareBalances(address)": {
        "notice": "Getter for returning the account's share balance split between account and vault holdings"
      },
      "shares(address)": {
        "notice": "Getter for returning the account's share balance including unredeemed shares"
      },
      "totalBalance()": {
        "notice": "Returns the vault's total balance, including the amounts locked into a short position"
      },
      "vaultParams()": {
        "notice": "Vault's parameters like cap, decimals"
      },
      "vaultState()": {
        "notice": "Vault's lifecycle state like round and locked amounts"
      },
      "withdrawInstantly(uint256)": {
        "notice": "Withdraws the assets on the vault using the outstanding `DepositReceipt.amount`"
      },
      "withdrawals(address)": {
        "notice": "Stores pending user withdrawals"
      }
    },
    "notice": "UPGRADEABILITY: Since we use the upgradeable proxy pattern, we must observe the inheritance chain closely. Any changes/appends in storage variable needs to happen in RibbonDeltaVaultStorage. RibbonDeltaVault should not inherit from any other contract aside from RibbonVault, RibbonDeltaVaultStorage",
    "version": 1
  },
  "storageLayout": {
    "storage": [
      {
        "astId": 130,
        "contract": "contracts/vaults/BaseVaults/RibbonDeltaVault.sol:RibbonDeltaVault",
        "label": "_initialized",
        "offset": 0,
        "slot": "0",
        "type": "t_bool"
      },
      {
        "astId": 133,
        "contract": "contracts/vaults/BaseVaults/RibbonDeltaVault.sol:RibbonDeltaVault",
        "label": "_initializing",
        "offset": 1,
        "slot": "0",
        "type": "t_bool"
      },
      {
        "astId": 184,
        "contract": "contracts/vaults/BaseVaults/RibbonDeltaVault.sol:RibbonDeltaVault",
        "label": "_status",
        "offset": 0,
        "slot": "1",
        "type": "t_uint256"
      },
      {
        "astId": 227,
        "contract": "contracts/vaults/BaseVaults/RibbonDeltaVault.sol:RibbonDeltaVault",
        "label": "__gap",
        "offset": 0,
        "slot": "2",
        "type": "t_array(t_uint256)49_storage"
      },
      {
        "astId": 947,
        "contract": "contracts/vaults/BaseVaults/RibbonDeltaVault.sol:RibbonDeltaVault",
        "label": "__gap",
        "offset": 0,
        "slot": "51",
        "type": "t_array(t_uint256)50_storage"
      },
      {
        "astId": 10,
        "contract": "contracts/vaults/BaseVaults/RibbonDeltaVault.sol:RibbonDeltaVault",
        "label": "_owner",
        "offset": 0,
        "slot": "101",
        "type": "t_address"
      },
      {
        "astId": 123,
        "contract": "contracts/vaults/BaseVaults/RibbonDeltaVault.sol:RibbonDeltaVault",
        "label": "__gap",
        "offset": 0,
        "slot": "102",
        "type": "t_array(t_uint256)49_storage"
      },
      {
        "astId": 247,
        "contract": "contracts/vaults/BaseVaults/RibbonDeltaVault.sol:RibbonDeltaVault",
        "label": "_balances",
        "offset": 0,
        "slot": "151",
        "type": "t_mapping(t_address,t_uint256)"
      },
      {
        "astId": 253,
        "contract": "contracts/vaults/BaseVaults/RibbonDeltaVault.sol:RibbonDeltaVault",
        "label": "_allowances",
        "offset": 0,
        "slot": "152",
        "type": "t_mapping(t_address,t_mapping(t_address,t_uint256))"
      },
      {
        "astId": 255,
        "contract": "contracts/vaults/BaseVaults/RibbonDeltaVault.sol:RibbonDeltaVault",
        "label": "_totalSupply",
        "offset": 0,
        "slot": "153",
        "type": "t_uint256"
      },
      {
        "astId": 257,
        "contract": "contracts/vaults/BaseVaults/RibbonDeltaVault.sol:RibbonDeltaVault",
        "label": "_name",
        "offset": 0,
        "slot": "154",
        "type": "t_string_storage"
      },
      {
        "astId": 259,
        "contract": "contracts/vaults/BaseVaults/RibbonDeltaVault.sol:RibbonDeltaVault",
        "label": "_symbol",
        "offset": 0,
        "slot": "155",
        "type": "t_string_storage"
      },
      {
        "astId": 800,
        "contract": "contracts/vaults/BaseVaults/RibbonDeltaVault.sol:RibbonDeltaVault",
        "label": "__gap",
        "offset": 0,
        "slot": "156",
        "type": "t_array(t_uint256)45_storage"
      },
      {
        "astId": 9628,
        "contract": "contracts/vaults/BaseVaults/RibbonDeltaVault.sol:RibbonDeltaVault",
        "label": "depositReceipts",
        "offset": 0,
        "slot": "201",
        "type": "t_mapping(t_address,t_struct(DepositReceipt)4384_storage)"
      },
      {
        "astId": 9633,
        "contract": "contracts/vaults/BaseVaults/RibbonDeltaVault.sol:RibbonDeltaVault",
        "label": "roundPricePerShare",
        "offset": 0,
        "slot": "202",
        "type": "t_mapping(t_uint256,t_uint256)"
      },
      {
        "astId": 9639,
        "contract": "contracts/vaults/BaseVaults/RibbonDeltaVault.sol:RibbonDeltaVault",
        "label": "withdrawals",
        "offset": 0,
        "slot": "203",
        "type": "t_mapping(t_address,t_struct(Withdrawal)4389_storage)"
      },
      {
        "astId": 9643,
        "contract": "contracts/vaults/BaseVaults/RibbonDeltaVault.sol:RibbonDeltaVault",
        "label": "vaultParams",
        "offset": 0,
        "slot": "204",
        "type": "t_struct(VaultParams)4359_storage"
      },
      {
        "astId": 9647,
        "contract": "contracts/vaults/BaseVaults/RibbonDeltaVault.sol:RibbonDeltaVault",
        "label": "vaultState",
        "offset": 0,
        "slot": "207",
        "type": "t_struct(VaultState)4377_storage"
      },
      {
        "astId": 9651,
        "contract": "contracts/vaults/BaseVaults/RibbonDeltaVault.sol:RibbonDeltaVault",
        "label": "optionState",
        "offset": 0,
        "slot": "209",
        "type": "t_struct(OptionState)4366_storage"
      },
      {
        "astId": 9654,
        "contract": "contracts/vaults/BaseVaults/RibbonDeltaVault.sol:RibbonDeltaVault",
        "label": "feeRecipient",
        "offset": 0,
        "slot": "211",
        "type": "t_address"
      },
      {
        "astId": 9657,
        "contract": "contracts/vaults/BaseVaults/RibbonDeltaVault.sol:RibbonDeltaVault",
        "label": "keeper",
        "offset": 0,
        "slot": "212",
        "type": "t_address"
      },
      {
        "astId": 9660,
        "contract": "contracts/vaults/BaseVaults/RibbonDeltaVault.sol:RibbonDeltaVault",
        "label": "performanceFee",
        "offset": 0,
        "slot": "213",
        "type": "t_uint256"
      },
      {
        "astId": 9663,
        "contract": "contracts/vaults/BaseVaults/RibbonDeltaVault.sol:RibbonDeltaVault",
        "label": "managementFee",
        "offset": 0,
        "slot": "214",
        "type": "t_uint256"
      },
      {
        "astId": 9667,
        "contract": "contracts/vaults/BaseVaults/RibbonDeltaVault.sol:RibbonDeltaVault",
        "label": "____gap",
        "offset": 0,
        "slot": "215",
        "type": "t_array(t_uint256)30_storage"
      },
      {
        "astId": 7380,
        "contract": "contracts/vaults/BaseVaults/RibbonDeltaVault.sol:RibbonDeltaVault",
        "label": "counterpartyThetaVault",
        "offset": 0,
        "slot": "245",
        "type": "t_contract(IRibbonThetaVault)3196"
      },
      {
        "astId": 7382,
        "contract": "contracts/vaults/BaseVaults/RibbonDeltaVault.sol:RibbonDeltaVault",
        "label": "optionAllocation",
        "offset": 0,
        "slot": "246",
        "type": "t_uint256"
      },
      {
        "astId": 7384,
        "contract": "contracts/vaults/BaseVaults/RibbonDeltaVault.sol:RibbonDeltaVault",
        "label": "balanceBeforePremium",
        "offset": 0,
        "slot": "247",
        "type": "t_uint256"
      },
      {
        "astId": 7387,
        "contract": "contracts/vaults/BaseVaults/RibbonDeltaVault.sol:RibbonDeltaVault",
        "label": "auctionSellOrder",
        "offset": 0,
        "slot": "248",
        "type": "t_struct(AuctionSellOrder)4396_storage"
      }
    ],
    "types": {
      "t_address": {
        "encoding": "inplace",
        "label": "address",
        "numberOfBytes": "20"
      },
      "t_array(t_uint256)30_storage": {
        "base": "t_uint256",
        "encoding": "inplace",
        "label": "uint256[30]",
        "numberOfBytes": "960"
      },
      "t_array(t_uint256)45_storage": {
        "base": "t_uint256",
        "encoding": "inplace",
        "label": "uint256[45]",
        "numberOfBytes": "1440"
      },
      "t_array(t_uint256)49_storage": {
        "base": "t_uint256",
        "encoding": "inplace",
        "label": "uint256[49]",
        "numberOfBytes": "1568"
      },
      "t_array(t_uint256)50_storage": {
        "base": "t_uint256",
        "encoding": "inplace",
        "label": "uint256[50]",
        "numberOfBytes": "1600"
      },
      "t_bool": {
        "encoding": "inplace",
        "label": "bool",
        "numberOfBytes": "1"
      },
      "t_contract(IRibbonThetaVault)3196": {
        "encoding": "inplace",
        "label": "contract IRibbonThetaVault",
        "numberOfBytes": "20"
      },
      "t_mapping(t_address,t_mapping(t_address,t_uint256))": {
        "encoding": "mapping",
        "key": "t_address",
        "label": "mapping(address => mapping(address => uint256))",
        "numberOfBytes": "32",
        "value": "t_mapping(t_address,t_uint256)"
      },
      "t_mapping(t_address,t_struct(DepositReceipt)4384_storage)": {
        "encoding": "mapping",
        "key": "t_address",
        "label": "mapping(address => struct Vault.DepositReceipt)",
        "numberOfBytes": "32",
        "value": "t_struct(DepositReceipt)4384_storage"
      },
      "t_mapping(t_address,t_struct(Withdrawal)4389_storage)": {
        "encoding": "mapping",
        "key": "t_address",
        "label": "mapping(address => struct Vault.Withdrawal)",
        "numberOfBytes": "32",
        "value": "t_struct(Withdrawal)4389_storage"
      },
      "t_mapping(t_address,t_uint256)": {
        "encoding": "mapping",
        "key": "t_address",
        "label": "mapping(address => uint256)",
        "numberOfBytes": "32",
        "value": "t_uint256"
      },
      "t_mapping(t_uint256,t_uint256)": {
        "encoding": "mapping",
        "key": "t_uint256",
        "label": "mapping(uint256 => uint256)",
        "numberOfBytes": "32",
        "value": "t_uint256"
      },
      "t_string_storage": {
        "encoding": "bytes",
        "label": "string",
        "numberOfBytes": "32"
      },
      "t_struct(AuctionSellOrder)4396_storage": {
        "encoding": "inplace",
        "label": "struct Vault.AuctionSellOrder",
        "members": [
          {
            "astId": 4391,
            "contract": "contracts/vaults/BaseVaults/RibbonDeltaVault.sol:RibbonDeltaVault",
            "label": "sellAmount",
            "offset": 0,
            "slot": "0",
            "type": "t_uint96"
          },
          {
            "astId": 4393,
            "contract": "contracts/vaults/BaseVaults/RibbonDeltaVault.sol:RibbonDeltaVault",
            "label": "buyAmount",
            "offset": 12,
            "slot": "0",
            "type": "t_uint96"
          },
          {
            "astId": 4395,
            "contract": "contracts/vaults/BaseVaults/RibbonDeltaVault.sol:RibbonDeltaVault",
            "label": "userId",
            "offset": 24,
            "slot": "0",
            "type": "t_uint64"
          }
        ],
        "numberOfBytes": "32"
      },
      "t_struct(DepositReceipt)4384_storage": {
        "encoding": "inplace",
        "label": "struct Vault.DepositReceipt",
        "members": [
          {
            "astId": 4379,
            "contract": "contracts/vaults/BaseVaults/RibbonDeltaVault.sol:RibbonDeltaVault",
            "label": "round",
            "offset": 0,
            "slot": "0",
            "type": "t_uint16"
          },
          {
            "astId": 4381,
            "contract": "contracts/vaults/BaseVaults/RibbonDeltaVault.sol:RibbonDeltaVault",
            "label": "amount",
            "offset": 2,
            "slot": "0",
            "type": "t_uint104"
          },
          {
            "astId": 4383,
            "contract": "contracts/vaults/BaseVaults/RibbonDeltaVault.sol:RibbonDeltaVault",
            "label": "unredeemedShares",
            "offset": 15,
            "slot": "0",
            "type": "t_uint128"
          }
        ],
        "numberOfBytes": "32"
      },
      "t_struct(OptionState)4366_storage": {
        "encoding": "inplace",
        "label": "struct Vault.OptionState",
        "members": [
          {
            "astId": 4361,
            "contract": "contracts/vaults/BaseVaults/RibbonDeltaVault.sol:RibbonDeltaVault",
            "label": "nextOption",
            "offset": 0,
            "slot": "0",
            "type": "t_address"
          },
          {
            "astId": 4363,
            "contract": "contracts/vaults/BaseVaults/RibbonDeltaVault.sol:RibbonDeltaVault",
            "label": "currentOption",
            "offset": 0,
            "slot": "1",
            "type": "t_address"
          },
          {
            "astId": 4365,
            "contract": "contracts/vaults/BaseVaults/RibbonDeltaVault.sol:RibbonDeltaVault",
            "label": "nextOptionReadyAt",
            "offset": 20,
            "slot": "1",
            "type": "t_uint32"
          }
        ],
        "numberOfBytes": "64"
      },
      "t_struct(VaultParams)4359_storage": {
        "encoding": "inplace",
        "label": "struct Vault.VaultParams",
        "members": [
          {
            "astId": 4348,
            "contract": "contracts/vaults/BaseVaults/RibbonDeltaVault.sol:RibbonDeltaVault",
            "label": "isPut",
            "offset": 0,
            "slot": "0",
            "type": "t_bool"
          },
          {
            "astId": 4350,
            "contract": "contracts/vaults/BaseVaults/RibbonDeltaVault.sol:RibbonDeltaVault",
            "label": "decimals",
            "offset": 1,
            "slot": "0",
            "type": "t_uint8"
          },
          {
            "astId": 4352,
            "contract": "contracts/vaults/BaseVaults/RibbonDeltaVault.sol:RibbonDeltaVault",
            "label": "asset",
            "offset": 2,
            "slot": "0",
            "type": "t_address"
          },
          {
            "astId": 4354,
            "contract": "contracts/vaults/BaseVaults/RibbonDeltaVault.sol:RibbonDeltaVault",
            "label": "underlying",
            "offset": 0,
            "slot": "1",
            "type": "t_address"
          },
          {
            "astId": 4356,
            "contract": "contracts/vaults/BaseVaults/RibbonDeltaVault.sol:RibbonDeltaVault",
            "label": "minimumSupply",
            "offset": 20,
            "slot": "1",
            "type": "t_uint56"
          },
          {
            "astId": 4358,
            "contract": "contracts/vaults/BaseVaults/RibbonDeltaVault.sol:RibbonDeltaVault",
            "label": "cap",
            "offset": 0,
            "slot": "2",
            "type": "t_uint104"
          }
        ],
        "numberOfBytes": "96"
      },
      "t_struct(VaultState)4377_storage": {
        "encoding": "inplace",
        "label": "struct Vault.VaultState",
        "members": [
          {
            "astId": 4368,
            "contract": "contracts/vaults/BaseVaults/RibbonDeltaVault.sol:RibbonDeltaVault",
            "label": "round",
            "offset": 0,
            "slot": "0",
            "type": "t_uint16"
          },
          {
            "astId": 4370,
            "contract": "contracts/vaults/BaseVaults/RibbonDeltaVault.sol:RibbonDeltaVault",
            "label": "lockedAmount",
            "offset": 2,
            "slot": "0",
            "type": "t_uint104"
          },
          {
            "astId": 4372,
            "contract": "contracts/vaults/BaseVaults/RibbonDeltaVault.sol:RibbonDeltaVault",
            "label": "lastLockedAmount",
            "offset": 15,
            "slot": "0",
            "type": "t_uint104"
          },
          {
            "astId": 4374,
            "contract": "contracts/vaults/BaseVaults/RibbonDeltaVault.sol:RibbonDeltaVault",
            "label": "totalPending",
            "offset": 0,
            "slot": "1",
            "type": "t_uint128"
          },
          {
            "astId": 4376,
            "contract": "contracts/vaults/BaseVaults/RibbonDeltaVault.sol:RibbonDeltaVault",
            "label": "queuedWithdrawShares",
            "offset": 16,
            "slot": "1",
            "type": "t_uint128"
          }
        ],
        "numberOfBytes": "64"
      },
      "t_struct(Withdrawal)4389_storage": {
        "encoding": "inplace",
        "label": "struct Vault.Withdrawal",
        "members": [
          {
            "astId": 4386,
            "contract": "contracts/vaults/BaseVaults/RibbonDeltaVault.sol:RibbonDeltaVault",
            "label": "round",
            "offset": 0,
            "slot": "0",
            "type": "t_uint16"
          },
          {
            "astId": 4388,
            "contract": "contracts/vaults/BaseVaults/RibbonDeltaVault.sol:RibbonDeltaVault",
            "label": "shares",
            "offset": 2,
            "slot": "0",
            "type": "t_uint128"
          }
        ],
        "numberOfBytes": "32"
      },
      "t_uint104": {
        "encoding": "inplace",
        "label": "uint104",
        "numberOfBytes": "13"
      },
      "t_uint128": {
        "encoding": "inplace",
        "label": "uint128",
        "numberOfBytes": "16"
      },
      "t_uint16": {
        "encoding": "inplace",
        "label": "uint16",
        "numberOfBytes": "2"
      },
      "t_uint256": {
        "encoding": "inplace",
        "label": "uint256",
        "numberOfBytes": "32"
      },
      "t_uint32": {
        "encoding": "inplace",
        "label": "uint32",
        "numberOfBytes": "4"
      },
      "t_uint56": {
        "encoding": "inplace",
        "label": "uint56",
        "numberOfBytes": "7"
      },
      "t_uint64": {
        "encoding": "inplace",
        "label": "uint64",
        "numberOfBytes": "8"
      },
      "t_uint8": {
        "encoding": "inplace",
        "label": "uint8",
        "numberOfBytes": "1"
      },
      "t_uint96": {
        "encoding": "inplace",
        "label": "uint96",
        "numberOfBytes": "12"
      }
    }
  }
}