{
  "address": "0x4868D8F0E8898E62520781E53023515B45805aD6",
  "abi": [
    {
      "inputs": [
        {
          "internalType": "address",
          "name": "_weth",
          "type": "address"
        },
        {
          "internalType": "address",
          "name": "_usdc",
          "type": "address"
        },
        {
          "internalType": "address",
          "name": "_oTokenFactory",
          "type": "address"
        },
        {
          "internalType": "address",
          "name": "_gammaController",
          "type": "address"
        },
        {
          "internalType": "address",
          "name": "_marginPool",
          "type": "address"
        },
        {
          "internalType": "address",
          "name": "_gnosisEasyAuction",
          "type": "address"
        }
      ],
      "stateMutability": "nonpayable",
      "type": "constructor"
    },
    {
      "anonymous": false,
      "inputs": [
        {
          "indexed": true,
          "internalType": "address",
          "name": "owner",
          "type": "address"
        },
        {
          "indexed": true,
          "internalType": "address",
          "name": "spender",
          "type": "address"
        },
        {
          "indexed": false,
          "internalType": "uint256",
          "name": "value",
          "type": "uint256"
        }
      ],
      "name": "Approval",
      "type": "event"
    },
    {
      "anonymous": false,
      "inputs": [
        {
          "indexed": false,
          "internalType": "uint256",
          "name": "auctionDuration",
          "type": "uint256"
        },
        {
          "indexed": false,
          "internalType": "uint256",
          "name": "newAuctionDuration",
          "type": "uint256"
        }
      ],
      "name": "AuctionDurationSet",
      "type": "event"
    },
    {
      "anonymous": false,
      "inputs": [
        {
          "indexed": true,
          "internalType": "address",
          "name": "options",
          "type": "address"
        },
        {
          "indexed": false,
          "internalType": "uint256",
          "name": "withdrawAmount",
          "type": "uint256"
        },
        {
          "indexed": false,
          "internalType": "address",
          "name": "manager",
          "type": "address"
        }
      ],
      "name": "CloseShort",
      "type": "event"
    },
    {
      "anonymous": false,
      "inputs": [
        {
          "indexed": false,
          "internalType": "uint256",
          "name": "performanceFee",
          "type": "uint256"
        },
        {
          "indexed": false,
          "internalType": "uint256",
          "name": "vaultFee",
          "type": "uint256"
        },
        {
          "indexed": false,
          "internalType": "uint256",
          "name": "round",
          "type": "uint256"
        }
      ],
      "name": "CollectVaultFees",
      "type": "event"
    },
    {
      "anonymous": false,
      "inputs": [
        {
          "indexed": true,
          "internalType": "address",
          "name": "account",
          "type": "address"
        },
        {
          "indexed": false,
          "internalType": "uint256",
          "name": "amount",
          "type": "uint256"
        },
        {
          "indexed": false,
          "internalType": "uint256",
          "name": "round",
          "type": "uint256"
        }
      ],
      "name": "Deposit",
      "type": "event"
    },
    {
      "anonymous": false,
      "inputs": [
        {
          "indexed": false,
          "internalType": "address",
          "name": "auctioningToken",
          "type": "address"
        },
        {
          "indexed": false,
          "internalType": "address",
          "name": "biddingToken",
          "type": "address"
        },
        {
          "indexed": false,
          "internalType": "uint256",
          "name": "auctionCounter",
          "type": "uint256"
        },
        {
          "indexed": false,
          "internalType": "address",
          "name": "manager",
          "type": "address"
        }
      ],
      "name": "InitiateGnosisAuction",
      "type": "event"
    },
    {
      "anonymous": false,
      "inputs": [
        {
          "indexed": false,
          "internalType": "address",
          "name": "account",
          "type": "address"
        },
        {
          "indexed": false,
          "internalType": "uint256",
          "name": "shares",
          "type": "uint256"
        },
        {
          "indexed": false,
          "internalType": "uint256",
          "name": "round",
          "type": "uint256"
        }
      ],
      "name": "InitiateWithdraw",
      "type": "event"
    },
    {
      "anonymous": false,
      "inputs": [
        {
          "indexed": true,
          "internalType": "address",
          "name": "account",
          "type": "address"
        },
        {
          "indexed": false,
          "internalType": "uint256",
          "name": "amount",
          "type": "uint256"
        },
        {
          "indexed": false,
          "internalType": "uint256",
          "name": "round",
          "type": "uint256"
        }
      ],
      "name": "InstantWithdraw",
      "type": "event"
    },
    {
      "anonymous": false,
      "inputs": [
        {
          "indexed": false,
          "internalType": "uint256",
          "name": "strikePrice",
          "type": "uint256"
        },
        {
          "indexed": false,
          "internalType": "uint256",
          "name": "delta",
          "type": "uint256"
        }
      ],
      "name": "NewOptionStrikeSelected",
      "type": "event"
    },
    {
      "anonymous": false,
      "inputs": [
        {
          "indexed": true,
          "internalType": "address",
          "name": "options",
          "type": "address"
        },
        {
          "indexed": false,
          "internalType": "uint256",
          "name": "depositAmount",
          "type": "uint256"
        },
        {
          "indexed": false,
          "internalType": "address",
          "name": "manager",
          "type": "address"
        }
      ],
      "name": "OpenShort",
      "type": "event"
    },
    {
      "anonymous": false,
      "inputs": [
        {
          "indexed": true,
          "internalType": "address",
          "name": "previousOwner",
          "type": "address"
        },
        {
          "indexed": true,
          "internalType": "address",
          "name": "newOwner",
          "type": "address"
        }
      ],
      "name": "OwnershipTransferred",
      "type": "event"
    },
    {
      "anonymous": false,
      "inputs": [
        {
          "indexed": false,
          "internalType": "uint256",
          "name": "premiumDiscount",
          "type": "uint256"
        },
        {
          "indexed": false,
          "internalType": "uint256",
          "name": "newPremiumDiscount",
          "type": "uint256"
        }
      ],
      "name": "PremiumDiscountSet",
      "type": "event"
    },
    {
      "anonymous": false,
      "inputs": [
        {
          "indexed": true,
          "internalType": "address",
          "name": "account",
          "type": "address"
        },
        {
          "indexed": false,
          "internalType": "uint256",
          "name": "share",
          "type": "uint256"
        },
        {
          "indexed": false,
          "internalType": "uint256",
          "name": "round",
          "type": "uint256"
        }
      ],
      "name": "Redeem",
      "type": "event"
    },
    {
      "anonymous": false,
      "inputs": [
        {
          "indexed": true,
          "internalType": "address",
          "name": "from",
          "type": "address"
        },
        {
          "indexed": true,
          "internalType": "address",
          "name": "to",
          "type": "address"
        },
        {
          "indexed": false,
          "internalType": "uint256",
          "name": "value",
          "type": "uint256"
        }
      ],
      "name": "Transfer",
      "type": "event"
    },
    {
      "anonymous": false,
      "inputs": [
        {
          "indexed": false,
          "internalType": "address",
          "name": "account",
          "type": "address"
        },
        {
          "indexed": false,
          "internalType": "uint256",
          "name": "amount",
          "type": "uint256"
        },
        {
          "indexed": false,
          "internalType": "uint256",
          "name": "shares",
          "type": "uint256"
        }
      ],
      "name": "Withdraw",
      "type": "event"
    },
    {
      "inputs": [],
      "name": "GAMMA_CONTROLLER",
      "outputs": [
        {
          "internalType": "address",
          "name": "",
          "type": "address"
        }
      ],
      "stateMutability": "view",
      "type": "function"
    },
    {
      "inputs": [],
      "name": "GNOSIS_EASY_AUCTION",
      "outputs": [
        {
          "internalType": "address",
          "name": "",
          "type": "address"
        }
      ],
      "stateMutability": "view",
      "type": "function"
    },
    {
      "inputs": [],
      "name": "MARGIN_POOL",
      "outputs": [
        {
          "internalType": "address",
          "name": "",
          "type": "address"
        }
      ],
      "stateMutability": "view",
      "type": "function"
    },
    {
      "inputs": [],
      "name": "OTOKEN_FACTORY",
      "outputs": [
        {
          "internalType": "address",
          "name": "",
          "type": "address"
        }
      ],
      "stateMutability": "view",
      "type": "function"
    },
    {
      "inputs": [],
      "name": "USDC",
      "outputs": [
        {
          "internalType": "address",
          "name": "",
          "type": "address"
        }
      ],
      "stateMutability": "view",
      "type": "function"
    },
    {
      "inputs": [],
      "name": "WETH",
      "outputs": [
        {
          "internalType": "address",
          "name": "",
          "type": "address"
        }
      ],
      "stateMutability": "view",
      "type": "function"
    },
    {
      "inputs": [
        {
          "internalType": "address",
          "name": "account",
          "type": "address"
        }
      ],
      "name": "accountVaultBalance",
      "outputs": [
        {
          "internalType": "uint256",
          "name": "",
          "type": "uint256"
        }
      ],
      "stateMutability": "view",
      "type": "function"
    },
    {
      "inputs": [
        {
          "internalType": "address",
          "name": "owner",
          "type": "address"
        },
        {
          "internalType": "address",
          "name": "spender",
          "type": "address"
        }
      ],
      "name": "allowance",
      "outputs": [
        {
          "internalType": "uint256",
          "name": "",
          "type": "uint256"
        }
      ],
      "stateMutability": "view",
      "type": "function"
    },
    {
      "inputs": [
        {
          "internalType": "address",
          "name": "spender",
          "type": "address"
        },
        {
          "internalType": "uint256",
          "name": "amount",
          "type": "uint256"
        }
      ],
      "name": "approve",
      "outputs": [
        {
          "internalType": "bool",
          "name": "",
          "type": "bool"
        }
      ],
      "stateMutability": "nonpayable",
      "type": "function"
    },
    {
      "inputs": [],
      "name": "auctionDuration",
      "outputs": [
        {
          "internalType": "uint256",
          "name": "",
          "type": "uint256"
        }
      ],
      "stateMutability": "view",
      "type": "function"
    },
    {
      "inputs": [
        {
          "internalType": "address",
          "name": "account",
          "type": "address"
        }
      ],
      "name": "balanceOf",
      "outputs": [
        {
          "internalType": "uint256",
          "name": "",
          "type": "uint256"
        }
      ],
      "stateMutability": "view",
      "type": "function"
    },
    {
      "inputs": [],
      "name": "burnRemainingOTokens",
      "outputs": [],
      "stateMutability": "nonpayable",
      "type": "function"
    },
    {
      "inputs": [],
      "name": "cap",
      "outputs": [
        {
          "internalType": "uint256",
          "name": "",
          "type": "uint256"
        }
      ],
      "stateMutability": "view",
      "type": "function"
    },
    {
      "inputs": [],
      "name": "commitAndClose",
      "outputs": [],
      "stateMutability": "nonpayable",
      "type": "function"
    },
    {
      "inputs": [],
      "name": "completeWithdraw",
      "outputs": [],
      "stateMutability": "nonpayable",
      "type": "function"
    },
    {
      "inputs": [],
      "name": "currentOption",
      "outputs": [
        {
          "internalType": "address",
          "name": "",
          "type": "address"
        }
      ],
      "stateMutability": "view",
      "type": "function"
    },
    {
      "inputs": [],
      "name": "currentOtokenPremium",
      "outputs": [
        {
          "internalType": "uint104",
          "name": "",
          "type": "uint104"
        }
      ],
      "stateMutability": "view",
      "type": "function"
    },
    {
      "inputs": [],
      "name": "decimals",
      "outputs": [
        {
          "internalType": "uint8",
          "name": "",
          "type": "uint8"
        }
      ],
      "stateMutability": "view",
      "type": "function"
    },
    {
      "inputs": [
        {
          "internalType": "address",
          "name": "spender",
          "type": "address"
        },
        {
          "internalType": "uint256",
          "name": "subtractedValue",
          "type": "uint256"
        }
      ],
      "name": "decreaseAllowance",
      "outputs": [
        {
          "internalType": "bool",
          "name": "",
          "type": "bool"
        }
      ],
      "stateMutability": "nonpayable",
      "type": "function"
    },
    {
      "inputs": [],
      "name": "delay",
      "outputs": [
        {
          "internalType": "uint256",
          "name": "",
          "type": "uint256"
        }
      ],
      "stateMutability": "view",
      "type": "function"
    },
    {
      "inputs": [
        {
          "internalType": "uint256",
          "name": "amount",
          "type": "uint256"
        }
      ],
      "name": "deposit",
      "outputs": [],
      "stateMutability": "nonpayable",
      "type": "function"
    },
    {
      "inputs": [],
      "name": "depositETH",
      "outputs": [],
      "stateMutability": "payable",
      "type": "function"
    },
    {
      "inputs": [
        {
          "internalType": "uint256",
          "name": "amount",
          "type": "uint256"
        },
        {
          "internalType": "address",
          "name": "creditor",
          "type": "address"
        }
      ],
      "name": "depositFor",
      "outputs": [],
      "stateMutability": "nonpayable",
      "type": "function"
    },
    {
      "inputs": [
        {
          "internalType": "address",
          "name": "",
          "type": "address"
        }
      ],
      "name": "depositReceipts",
      "outputs": [
        {
          "internalType": "uint16",
          "name": "round",
          "type": "uint16"
        },
        {
          "internalType": "uint104",
          "name": "amount",
          "type": "uint104"
        },
        {
          "internalType": "uint128",
          "name": "unredeemedShares",
          "type": "uint128"
        }
      ],
      "stateMutability": "view",
      "type": "function"
    },
    {
      "inputs": [],
      "name": "feeRecipient",
      "outputs": [
        {
          "internalType": "address",
          "name": "",
          "type": "address"
        }
      ],
      "stateMutability": "view",
      "type": "function"
    },
    {
      "inputs": [
        {
          "internalType": "address",
          "name": "spender",
          "type": "address"
        },
        {
          "internalType": "uint256",
          "name": "addedValue",
          "type": "uint256"
        }
      ],
      "name": "increaseAllowance",
      "outputs": [
        {
          "internalType": "bool",
          "name": "",
          "type": "bool"
        }
      ],
      "stateMutability": "nonpayable",
      "type": "function"
    },
    {
      "inputs": [
        {
          "internalType": "uint256",
          "name": "numRounds",
          "type": "uint256"
        }
      ],
      "name": "initRounds",
      "outputs": [],
      "stateMutability": "nonpayable",
      "type": "function"
    },
    {
      "inputs": [
        {
          "internalType": "address",
          "name": "_owner",
          "type": "address"
        },
        {
          "internalType": "address",
          "name": "_feeRecipient",
          "type": "address"
        },
        {
          "internalType": "uint256",
          "name": "_managementFee",
          "type": "uint256"
        },
        {
          "internalType": "uint256",
          "name": "_performanceFee",
          "type": "uint256"
        },
        {
          "internalType": "string",
          "name": "tokenName",
          "type": "string"
        },
        {
          "internalType": "string",
          "name": "tokenSymbol",
          "type": "string"
        },
        {
          "internalType": "address",
          "name": "_optionsPremiumPricer",
          "type": "address"
        },
        {
          "internalType": "address",
          "name": "_strikeSelection",
          "type": "address"
        },
        {
          "internalType": "uint32",
          "name": "_premiumDiscount",
          "type": "uint32"
        },
        {
          "internalType": "uint256",
          "name": "_auctionDuration",
          "type": "uint256"
        },
        {
          "components": [
            {
              "internalType": "bool",
              "name": "isPut",
              "type": "bool"
            },
            {
              "internalType": "uint8",
              "name": "decimals",
              "type": "uint8"
            },
            {
              "internalType": "address",
              "name": "asset",
              "type": "address"
            },
            {
              "internalType": "address",
              "name": "underlying",
              "type": "address"
            },
            {
              "internalType": "uint56",
              "name": "minimumSupply",
              "type": "uint56"
            },
            {
              "internalType": "uint104",
              "name": "cap",
              "type": "uint104"
            }
          ],
          "internalType": "struct Vault.VaultParams",
          "name": "_vaultParams",
          "type": "tuple"
        }
      ],
      "name": "initialize",
      "outputs": [],
      "stateMutability": "nonpayable",
      "type": "function"
    },
    {
      "inputs": [
        {
          "internalType": "uint128",
          "name": "shares",
          "type": "uint128"
        }
      ],
      "name": "initiateWithdraw",
      "outputs": [],
      "stateMutability": "nonpayable",
      "type": "function"
    },
    {
      "inputs": [],
      "name": "lastStrikeOverride",
      "outputs": [
        {
          "internalType": "uint16",
          "name": "",
          "type": "uint16"
        }
      ],
      "stateMutability": "view",
      "type": "function"
    },
    {
      "inputs": [],
      "name": "managementFee",
      "outputs": [
        {
          "internalType": "uint256",
          "name": "",
          "type": "uint256"
        }
      ],
      "stateMutability": "view",
      "type": "function"
    },
    {
      "inputs": [],
      "name": "maxRedeem",
      "outputs": [],
      "stateMutability": "nonpayable",
      "type": "function"
    },
    {
      "inputs": [],
      "name": "name",
      "outputs": [
        {
          "internalType": "string",
          "name": "",
          "type": "string"
        }
      ],
      "stateMutability": "view",
      "type": "function"
    },
    {
      "inputs": [],
      "name": "nextOption",
      "outputs": [
        {
          "internalType": "address",
          "name": "",
          "type": "address"
        }
      ],
      "stateMutability": "view",
      "type": "function"
    },
    {
      "inputs": [],
      "name": "nextOptionReadyAt",
      "outputs": [
        {
          "internalType": "uint256",
          "name": "",
          "type": "uint256"
        }
      ],
      "stateMutability": "view",
      "type": "function"
    },
    {
      "inputs": [],
      "name": "optionAuctionID",
      "outputs": [
        {
          "internalType": "uint256",
          "name": "",
          "type": "uint256"
        }
      ],
      "stateMutability": "view",
      "type": "function"
    },
    {
      "inputs": [],
      "name": "optionState",
      "outputs": [
        {
          "internalType": "address",
          "name": "nextOption",
          "type": "address"
        },
        {
          "internalType": "address",
          "name": "currentOption",
          "type": "address"
        },
        {
          "internalType": "uint32",
          "name": "nextOptionReadyAt",
          "type": "uint32"
        }
      ],
      "stateMutability": "view",
      "type": "function"
    },
    {
      "inputs": [],
      "name": "optionsPremiumPricer",
      "outputs": [
        {
          "internalType": "address",
          "name": "",
          "type": "address"
        }
      ],
      "stateMutability": "view",
      "type": "function"
    },
    {
      "inputs": [],
      "name": "overriddenStrikePrice",
      "outputs": [
        {
          "internalType": "uint128",
          "name": "",
          "type": "uint128"
        }
      ],
      "stateMutability": "view",
      "type": "function"
    },
    {
      "inputs": [],
      "name": "owner",
      "outputs": [
        {
          "internalType": "address",
          "name": "",
          "type": "address"
        }
      ],
      "stateMutability": "view",
      "type": "function"
    },
    {
      "inputs": [],
      "name": "performanceFee",
      "outputs": [
        {
          "internalType": "uint256",
          "name": "",
          "type": "uint256"
        }
      ],
      "stateMutability": "view",
      "type": "function"
    },
    {
      "inputs": [],
      "name": "premiumDiscount",
      "outputs": [
        {
          "internalType": "uint32",
          "name": "",
          "type": "uint32"
        }
      ],
      "stateMutability": "view",
      "type": "function"
    },
    {
      "inputs": [],
      "name": "pricePerShare",
      "outputs": [
        {
          "internalType": "uint256",
          "name": "",
          "type": "uint256"
        }
      ],
      "stateMutability": "view",
      "type": "function"
    },
    {
      "inputs": [
        {
          "internalType": "uint256",
          "name": "shares",
          "type": "uint256"
        }
      ],
      "name": "redeem",
      "outputs": [],
      "stateMutability": "nonpayable",
      "type": "function"
    },
    {
      "inputs": [],
      "name": "renounceOwnership",
      "outputs": [],
      "stateMutability": "nonpayable",
      "type": "function"
    },
    {
      "inputs": [],
      "name": "rollToNextOption",
      "outputs": [],
      "stateMutability": "nonpayable",
      "type": "function"
    },
    {
      "inputs": [
        {
          "internalType": "uint16",
          "name": "",
          "type": "uint16"
        }
      ],
      "name": "roundPricePerShare",
      "outputs": [
        {
          "internalType": "uint256",
          "name": "",
          "type": "uint256"
        }
      ],
      "stateMutability": "view",
      "type": "function"
    },
    {
      "inputs": [
        {
          "internalType": "uint256",
          "name": "newAuctionDuration",
          "type": "uint256"
        }
      ],
      "name": "setAuctionDuration",
      "outputs": [],
      "stateMutability": "nonpayable",
      "type": "function"
    },
    {
      "inputs": [
        {
          "internalType": "uint104",
          "name": "newCap",
          "type": "uint104"
        }
      ],
      "name": "setCap",
      "outputs": [],
      "stateMutability": "nonpayable",
      "type": "function"
    },
    {
      "inputs": [
        {
          "internalType": "address",
          "name": "newFeeRecipient",
          "type": "address"
        }
      ],
      "name": "setFeeRecipient",
      "outputs": [],
      "stateMutability": "nonpayable",
      "type": "function"
    },
    {
      "inputs": [
        {
          "internalType": "uint256",
          "name": "newManagementFee",
          "type": "uint256"
        }
      ],
      "name": "setManagementFee",
      "outputs": [],
      "stateMutability": "nonpayable",
      "type": "function"
    },
    {
      "inputs": [
        {
          "internalType": "uint256",
          "name": "newPerformanceFee",
          "type": "uint256"
        }
      ],
      "name": "setPerformanceFee",
      "outputs": [],
      "stateMutability": "nonpayable",
      "type": "function"
    },
    {
      "inputs": [
        {
          "internalType": "uint16",
          "name": "newPremiumDiscount",
          "type": "uint16"
        }
      ],
      "name": "setPremiumDiscount",
      "outputs": [],
      "stateMutability": "nonpayable",
      "type": "function"
    },
    {
      "inputs": [
        {
          "internalType": "uint128",
          "name": "strikePrice",
          "type": "uint128"
        }
      ],
      "name": "setStrikePrice",
      "outputs": [],
      "stateMutability": "nonpayable",
      "type": "function"
    },
    {
      "inputs": [
        {
          "internalType": "address",
          "name": "account",
          "type": "address"
        }
      ],
      "name": "shareBalances",
      "outputs": [
        {
          "internalType": "uint256",
          "name": "heldByAccount",
          "type": "uint256"
        },
        {
          "internalType": "uint256",
          "name": "heldByVault",
          "type": "uint256"
        }
      ],
      "stateMutability": "view",
      "type": "function"
    },
    {
      "inputs": [
        {
          "internalType": "address",
          "name": "account",
          "type": "address"
        }
      ],
      "name": "shares",
      "outputs": [
        {
          "internalType": "uint256",
          "name": "",
          "type": "uint256"
        }
      ],
      "stateMutability": "view",
      "type": "function"
    },
    {
      "inputs": [],
      "name": "startAuction",
      "outputs": [],
      "stateMutability": "nonpayable",
      "type": "function"
    },
    {
      "inputs": [],
      "name": "strikeSelection",
      "outputs": [
        {
          "internalType": "address",
          "name": "",
          "type": "address"
        }
      ],
      "stateMutability": "view",
      "type": "function"
    },
    {
      "inputs": [],
      "name": "symbol",
      "outputs": [
        {
          "internalType": "string",
          "name": "",
          "type": "string"
        }
      ],
      "stateMutability": "view",
      "type": "function"
    },
    {
      "inputs": [],
      "name": "totalBalance",
      "outputs": [
        {
          "internalType": "uint256",
          "name": "",
          "type": "uint256"
        }
      ],
      "stateMutability": "view",
      "type": "function"
    },
    {
      "inputs": [],
      "name": "totalPending",
      "outputs": [
        {
          "internalType": "uint256",
          "name": "",
          "type": "uint256"
        }
      ],
      "stateMutability": "view",
      "type": "function"
    },
    {
      "inputs": [],
      "name": "totalSupply",
      "outputs": [
        {
          "internalType": "uint256",
          "name": "",
          "type": "uint256"
        }
      ],
      "stateMutability": "view",
      "type": "function"
    },
    {
      "inputs": [
        {
          "internalType": "address",
          "name": "recipient",
          "type": "address"
        },
        {
          "internalType": "uint256",
          "name": "amount",
          "type": "uint256"
        }
      ],
      "name": "transfer",
      "outputs": [
        {
          "internalType": "bool",
          "name": "",
          "type": "bool"
        }
      ],
      "stateMutability": "nonpayable",
      "type": "function"
    },
    {
      "inputs": [
        {
          "internalType": "address",
          "name": "sender",
          "type": "address"
        },
        {
          "internalType": "address",
          "name": "recipient",
          "type": "address"
        },
        {
          "internalType": "uint256",
          "name": "amount",
          "type": "uint256"
        }
      ],
      "name": "transferFrom",
      "outputs": [
        {
          "internalType": "bool",
          "name": "",
          "type": "bool"
        }
      ],
      "stateMutability": "nonpayable",
      "type": "function"
    },
    {
      "inputs": [
        {
          "internalType": "address",
          "name": "newOwner",
          "type": "address"
        }
      ],
      "name": "transferOwnership",
      "outputs": [],
      "stateMutability": "nonpayable",
      "type": "function"
    },
    {
      "inputs": [],
      "name": "vaultParams",
      "outputs": [
        {
          "internalType": "bool",
          "name": "isPut",
          "type": "bool"
        },
        {
          "internalType": "uint8",
          "name": "decimals",
          "type": "uint8"
        },
        {
          "internalType": "address",
          "name": "asset",
          "type": "address"
        },
        {
          "internalType": "address",
          "name": "underlying",
          "type": "address"
        },
        {
          "internalType": "uint56",
          "name": "minimumSupply",
          "type": "uint56"
        },
        {
          "internalType": "uint104",
          "name": "cap",
          "type": "uint104"
        }
      ],
      "stateMutability": "view",
      "type": "function"
    },
    {
      "inputs": [],
      "name": "vaultState",
      "outputs": [
        {
          "internalType": "uint16",
          "name": "round",
          "type": "uint16"
        },
        {
          "internalType": "uint104",
          "name": "lockedAmount",
          "type": "uint104"
        },
        {
          "internalType": "uint104",
          "name": "lastLockedAmount",
          "type": "uint104"
        },
        {
          "internalType": "uint128",
          "name": "totalPending",
          "type": "uint128"
        },
        {
          "internalType": "uint128",
          "name": "queuedWithdrawShares",
          "type": "uint128"
        }
      ],
      "stateMutability": "view",
      "type": "function"
    },
    {
      "inputs": [
        {
          "internalType": "uint256",
          "name": "amount",
          "type": "uint256"
        }
      ],
      "name": "withdrawInstantly",
      "outputs": [],
      "stateMutability": "nonpayable",
      "type": "function"
    },
    {
      "inputs": [
        {
          "internalType": "address",
          "name": "",
          "type": "address"
        }
      ],
      "name": "withdrawals",
      "outputs": [
        {
          "internalType": "uint16",
          "name": "round",
          "type": "uint16"
        },
        {
          "internalType": "uint128",
          "name": "shares",
          "type": "uint128"
        }
      ],
      "stateMutability": "view",
      "type": "function"
    }
  ],
  "transactionHash": "0xd53be35f7e78f085c3ec962ce1ad341a097e99bb8e607388973ba8d6522384de",
  "args": [
    "0xd0A1E359811322d97991E03f863a0C30C2cF029C",
    "0x7e6edA50d1c833bE936492BF42C1BF376239E9e2",
    "0xb9D17Ab06e27f63d0FD75099d5874a194eE623e2",
    "0xdEE7D0f8CcC0f7AC7e45Af454e5e7ec1552E8e4e",
    "0x8c7C60d766951c5C570bBb7065C993070061b795",
    "0x0b7fFc1f4AD541A4Ed16b40D8c37f0929158D101"
  ],
  "solcInputHash": "dfb205236cdecfea70edb3a32dda3d3d",
  "bytecode": "0x6101406040523480156200001257600080fd5b5060405162005cf938038062005cf98339810160408190526200003591620001a5565b85858484846001600160a01b0385166200006c5760405162461bcd60e51b8152600401620000639062000250565b60405180910390fd5b6001600160a01b038416620000955760405162461bcd60e51b81526004016200006390620002f6565b6001600160a01b038116620000be5760405162461bcd60e51b8152600401620000639062000270565b6001600160a01b038316620000e75760405162461bcd60e51b8152600401620000639062000225565b6001600160a01b038216620001105760405162461bcd60e51b81526004016200006390620002d0565b6001600160601b0319606095861b811660805293851b841660a05291841b831660c052831b821660e05290911b16610100526001600160a01b0384166200016b5760405162461bcd60e51b81526004016200006390620002a7565b50505060601b6001600160601b0319166101205250620003169050565b80516001600160a01b0381168114620001a057600080fd5b919050565b60008060008060008060c08789031215620001be578182fd5b620001c98762000188565b9550620001d96020880162000188565b9450620001e96040880162000188565b9350620001f96060880162000188565b9250620002096080880162000188565b91506200021960a0880162000188565b90509295509295509295565b60208082526011908201527010afb3b0b6b6b0a1b7b73a3937b63632b960791b604082015260600190565b602080825260069082015265042beeecae8d60d31b604082015260600190565b60208082526013908201527f215f676e6f7369734561737941756374696f6e00000000000000000000000000604082015260600190565b6020808252600f908201526e215f6f546f6b656e466163746f727960881b604082015260600190565b6020808252600c908201526b0857db585c99da5b941bdbdb60a21b604082015260600190565b602080825260069082015265215f7573646360d01b604082015260600190565b60805160601c60a05160601c60c05160601c60e05160601c6101005160601c6101205160601c615950620003a9600039806123145280612447525080611721528061180752508061155d5280612179525080610c6e5280611491528061215752806138eb525080611b695280612475525080611efc528061275152806127cc5280612d5a5280612d9852506159506000f3fe6080604052600436106103fa5760003560e01c80638b10cc7c11610213578063b6b55f2511610123578063e74b981b116100ab578063f6326fb31161007a578063f6326fb314610b2c578063f656ba5114610b34578063f756fa2114610b62578063f957a06714610b77578063fe56e23214610b8c576103fa565b8063e74b981b14610ab5578063ea00b1ca14610ad5578063f17addd314610aea578063f2fde38b14610b0c576103fa565b8063d5f26382116100f2578063d5f2638214610a1c578063db006a7514610a3e578063db43e86214610a5e578063dd62ed3e14610a73578063e73c63d514610a93576103fa565b8063b6b55f25146109a7578063b9f8092b146109c7578063ce7c2ac2146109dc578063d2184567146109fc576103fa565b8063a285c9e8116101a6578063a6f7f5d611610175578063a6f7f5d614610933578063a9059cbb14610948578063ad5c464814610968578063ad7a672f1461097d578063afa6626414610992576103fa565b8063a285c9e8146108c9578063a2db9d83146108de578063a457c2d7146108f3578063a497e67414610913576103fa565b8063999b8ac2116101e2578063999b8ac21461083e5780639be43daa1461085e5780639fcc2d751461087e578063a083ff17146108a5576103fa565b80638b10cc7c146107ea5780638da5cb5b146107ff57806395d89b411461081457806399530b0614610829576103fa565b80635dc25e7b1161030e5780636f31ab34116102a15780637a9262a2116102705780637a9262a21461075057806383536ff31461077e578063871bf994146107a057806387788782146107c057806389a30271146107d5576103fa565b80636f31ab34146106e657806370897b23146106fb57806370a082311461071b578063715018a61461073b576103fa565b806369281c17116102dd57806369281c17146106875780636a42b8f8146106a75780636b64c769146106bc5780636c10f66c146106d1576103fa565b80635dc25e7b1461060e578063600a2cfb1461062e578063650cce8a146106435780636719b2ee14610658576103fa565b8063313ce567116103915780633f23bb73116103605780633f23bb731461058f5780633f90916a146105af578063432833a6146105c457806346904840146105d957806355489bb2146105ee576103fa565b8063313ce56714610518578063355274ea1461053a57806336efd16f1461054f578063395093511461056f576103fa565b80631a92f6c2116103cd5780631a92f6c21461048e57806323b872dd146104b05780632728f333146104d05780632775d01c146104f6576103fa565b806306fdde03146103ff578063095ea7b31461042a5780630cbf54c81461045757806318160ddd14610479575b600080fd5b34801561040b57600080fd5b50610414610bac565b6040516104219190614b3e565b60405180910390f35b34801561043657600080fd5b5061044a61044536600461469d565b610c42565b6040516104219190614aea565b34801561046357600080fd5b5061046c610c60565b6040516104219190615614565b34801561048557600080fd5b5061046c610c66565b34801561049a57600080fd5b506104a3610c6c565b604051610421919061487f565b3480156104bc57600080fd5b5061044a6104cb366004614574565b610c90565b3480156104dc57600080fd5b506104e5610d18565b60405161042195949392919061558b565b34801561050257600080fd5b50610516610511366004614785565b610d56565b005b34801561052457600080fd5b5061052d610ec3565b60405161042191906156bf565b34801561054657600080fd5b5061046c610ed1565b34801561055b57600080fd5b5061051661056a3660046147b5565b610ee0565b34801561057b57600080fd5b5061044a61058a36600461469d565b610f68565b34801561059b57600080fd5b5061046c6105aa366004614520565b610fb6565b3480156105bb57600080fd5b5061046c61102b565b3480156105d057600080fd5b5061046c61103a565b3480156105e557600080fd5b506104a3611040565b3480156105fa57600080fd5b5061051661060936600461473c565b61104f565b34801561061a57600080fd5b5061051661062936600461473c565b61112a565b34801561063a57600080fd5b50610516611355565b34801561064f57600080fd5b506104a361155b565b34801561066457600080fd5b50610678610673366004614520565b61157f565b604051610421939291906155c9565b34801561069357600080fd5b506105166106a2366004614763565b6115b7565b3480156106b357600080fd5b5061046c611699565b3480156106c857600080fd5b5061051661169f565b3480156106dd57600080fd5b506104a3611805565b3480156106f257600080fd5b50610516611829565b34801561070757600080fd5b50610516610716366004614785565b611866565b34801561072757600080fd5b5061046c610736366004614520565b6118cd565b34801561074757600080fd5b506105166118e8565b34801561075c57600080fd5b5061077061076b366004614520565b611971565b6040516104219291906155f7565b34801561078a57600080fd5b50610793611998565b6040516104219190615694565b3480156107ac57600080fd5b506105166107bb3660046145b4565b6119ab565b3480156107cc57600080fd5b5061046c611b61565b3480156107e157600080fd5b506104a3611b67565b3480156107f657600080fd5b506104a3611b8b565b34801561080b57600080fd5b506104a3611b9a565b34801561082057600080fd5b50610414611ba9565b34801561083557600080fd5b5061046c611c0a565b34801561084a57600080fd5b5061046c610859366004614763565b611c52565b34801561086a57600080fd5b50610516610879366004614785565b611c64565b34801561088a57600080fd5b50610893611d44565b60405161042196959493929190614af5565b3480156108b157600080fd5b506108ba611d90565b60405161042193929190614a21565b3480156108d557600080fd5b5061046c611db5565b3480156108ea57600080fd5b506104a3611dc8565b3480156108ff57600080fd5b5061044a61090e36600461469d565b611dd7565b34801561091f57600080fd5b5061051661092e366004614785565b611e3f565b34801561093f57600080fd5b5061046c611ee0565b34801561095457600080fd5b5061044a61096336600461469d565b611ee6565b34801561097457600080fd5b506104a3611efa565b34801561098957600080fd5b5061046c611f1e565b34801561099e57600080fd5b506104a3611fc7565b3480156109b357600080fd5b506105166109c2366004614785565b611fd6565b3480156109d357600080fd5b5061051661204a565b3480156109e857600080fd5b5061046c6109f7366004614520565b6121fe565b348015610a0857600080fd5b50610516610a17366004614722565b612223565b348015610a2857600080fd5b50610a316122b3565b6040516104219190615554565b348015610a4a57600080fd5b50610516610a59366004614785565b6122c2565b348015610a6a57600080fd5b506104a3612312565b348015610a7f57600080fd5b5061046c610a8e36600461453c565b612336565b348015610a9f57600080fd5b50610aa8612361565b6040516104219190615568565b348015610ac157600080fd5b50610516610ad0366004614520565b612377565b348015610ae157600080fd5b506105166123fe565b348015610af657600080fd5b50610aff612652565b604051610421919061557c565b348015610b1857600080fd5b50610516610b27366004614520565b612663565b610516612724565b348015610b4057600080fd5b50610b54610b4f366004614520565b612839565b60405161042192919061566c565b348015610b6e57600080fd5b50610516612912565b348015610b8357600080fd5b506104a3612a96565b348015610b9857600080fd5b50610516610ba7366004614785565b612aa5565b609a8054604080516020601f6002600019610100600188161502019095169490940493840181900481028201810190925282815260609390929091830182828015610c385780601f10610c0d57610100808354040283529160200191610c38565b820191906000526020600020905b815481529060010190602001808311610c1b57829003601f168201915b5050505050905090565b6000610c56610c4f612b22565b8484612b26565b5060015b92915050565b60d95481565b60995490565b7f000000000000000000000000000000000000000000000000000000000000000081565b6000610c9d848484612bda565b610d0d84610ca9612b22565b610d08856040518060600160405280602881526020016158ce602891396001600160a01b038a16600090815260986020526040812090610ce7612b22565b6001600160a01b031681526020810191909152604001600020549190612cef565b612b26565b5060015b9392505050565b60cf5460d05461ffff8216916001600160681b03620100008204811692600160781b90920416906001600160801b0380821691600160801b90041685565b60026001541415610d825760405162461bcd60e51b8152600401610d799061542e565b60405180910390fd5b600260015533600090815260c96020526040902060cf5461ffff1682610dba5760405162461bcd60e51b8152600401610d799061539e565b815461ffff168114610dde5760405162461bcd60e51b8152600401610d7990614dbe565b81546201000090046001600160681b031683811015610e0f5760405162461bcd60e51b8152600401610d799061528d565b610e198185612d1b565b83546001600160681b0391909116620100000262010000600160781b031990911617835560d054610e53906001600160801b031685612d1b565b60d080546001600160801b0319166001600160801b039290921691909117905560405133907fab2daf3c146ca6416cbccd2a86ed2ba995e171ef6319df14a38aef01403a9c9690610ea7908790869061566c565b60405180910390a2610eb93385612d43565b5050600180555050565b60cc54610100900460ff1690565b60ce546001600160681b031690565b60026001541415610f035760405162461bcd60e51b8152600401610d799061542e565b600260015581610f255760405162461bcd60e51b8152600401610d799061539e565b6001600160a01b038116610f3857600080fd5b610f428282612e9c565b60cc54610f60906201000090046001600160a01b03163330856130f3565b505060018055565b6000610c56610f75612b22565b84610d088560986000610f86612b22565b6001600160a01b03908116825260208083019390935260409182016000908120918c168152925290205490613151565b60cc54600090610100900460ff1681610fce846121fe565b90506000611013610fdd610c66565b60d05461100d9060ff8716600a0a90611007906001600160801b0316611001611f1e565b90612d1b565b90613176565b906131b0565b90506110208282856131e2565b93505050505b919050565b60d0546001600160801b031690565b60da5481565b60d3546001600160a01b031681565b611057612b22565b6001600160a01b0316611068611b9a565b6001600160a01b03161461108e5760405162461bcd60e51b8152600401610d799061507d565b600260015414156110b15760405162461bcd60e51b8152600401610d799061542e565b60026001556001600160801b0381166110dc5760405162461bcd60e51b8152600401610d7990615222565b60d8805460cf54600160681b61ffff9091160261ffff60681b196001600160801b03909416600160781b02600160781b600160f81b0319909216919091179290921691909117905560018055565b6002600154141561114d5760405162461bcd60e51b8152600401610d799061542e565b60026001556001600160801b0381166111785760405162461bcd60e51b8152600401610d7990615129565b33600090815260c960205260409020546201000090046001600160681b03161515806111c2575033600090815260c96020526040902054600160781b90046001600160801b031615155b156111d3576111d360006001613225565b60cf5433600081815260cb6020526040908190208054915161ffff948516949193919092168414917f0c53c82ad07e2d592d88ece3b066777dd60f1118e2a081b380efc4358f0d9e2a9161122a9187908790614893565b60405180910390a181546201000090046001600160801b031681156112a357600061125e826001600160801b038816613151565b9050611269816133f2565b33600090815260cb6020526040902080546001600160801b03909216620100000262010000600160901b03199092169190911790556112ff565b806112e75733600090815260cb60205260409020805462010000600160901b031916620100006001600160801b038816021761ffff191661ffff86161790556112ff565b60405162461bcd60e51b8152600401610d79906152b4565b60d05461132090600160801b90046001600160801b03908116908716613151565b60d080546001600160801b03928316600160801b0290831617905561134a90339030908816612bda565b505060018055505050565b61135d612b22565b6001600160a01b031661136e611b9a565b6001600160a01b0316146113945760405162461bcd60e51b8152600401610d799061507d565b600260015414156113b75760405162461bcd60e51b8152600401610d799061542e565b600260015560d2546040516370a0823160e01b81526000916001600160a01b0316906370a08231906113ed90309060040161487f565b60206040518083038186803b15801561140557600080fd5b505afa158015611419573d6000803e3d6000fd5b505050506040513d601f19601f8201168201806040525081019061143d919061479d565b90506000811161145f5760405162461bcd60e51b8152600401610d7990614fd3565b60405163f60c4fc760e01b8152600090739bCF7E35E8B852de70ddB993BC461d1f4624e5AC9063f60c4fc7906114bb907f0000000000000000000000000000000000000000000000000000000000000000908690600401614ad1565b60206040518083038186803b1580156114d357600080fd5b505af41580156114e7573d6000803e3d6000fd5b505050506040513d601f19601f8201168201806040525081019061150b919061479d565b60cf5490915061152a906201000090046001600160681b031682612d1b565b60cf80546001600160681b0392909216620100000262010000600160781b0319909216919091179055505060018055565b7f000000000000000000000000000000000000000000000000000000000000000081565b60c96020526000908152604090205461ffff8116906201000081046001600160681b031690600160781b90046001600160801b031683565b6115bf612b22565b6001600160a01b03166115d0611b9a565b6001600160a01b0316146115f65760405162461bcd60e51b8152600401610d799061507d565b60008161ffff1611801561160f57506103e88161ffff16105b61162b5760405162461bcd60e51b8152600401610d7990614b51565b7f4cd657fde404967d63a338fb06c5c98751a9df57dfae6dc333a432faf8a5f65660d760149054906101000a900463ffffffff168260405161166e9291906156a5565b60405180910390a160d7805463ffffffff60a01b191661ffff92909216600160a01b02919091179055565b610e1081565b6116a7612b22565b6001600160a01b03166116b8611b9a565b6001600160a01b0316146116de5760405162461bcd60e51b8152600401610d799061507d565b6116e6614309565b60d8546001600160681b03168061170f5760405162461bcd60e51b8152600401610d7990614c0b565b60d2546001600160a01b0390811683527f00000000000000000000000000000000000000000000000000000000000000008116602084015260cc5462010000810490911660408085019190915261010090910460ff1660608401526080830182905260d95460a084015251633baf17fd60e21b8152739bCF7E35E8B852de70ddB993BC461d1f4624e5AC9063eebc5ff4906117ae9085906004016154ea565b60206040518083038186803b1580156117c657600080fd5b505af41580156117da573d6000803e3d6000fd5b505050506040513d601f19601f820116820180604052508101906117fe919061479d565b60da555050565b7f000000000000000000000000000000000000000000000000000000000000000081565b6002600154141561184c5760405162461bcd60e51b8152600401610d799061542e565b600260018190555061186060006001613225565b60018055565b61186e612b22565b6001600160a01b031661187f611b9a565b6001600160a01b0316146118a55760405162461bcd60e51b8152600401610d799061507d565b6305f5e10081106118c85760405162461bcd60e51b8152600401610d79906150f2565b60d455565b6001600160a01b031660009081526097602052604090205490565b6118f0612b22565b6001600160a01b0316611901611b9a565b6001600160a01b0316146119275760405162461bcd60e51b8152600401610d799061507d565b6065546040516000916001600160a01b0316907f8be0079c531659141344cd1fd0a4f28419497f9722a3daafe3b4186f6b6457e0908390a3606580546001600160a01b0319169055565b60cb6020526000908152604090205461ffff8116906201000090046001600160801b031682565b60d754600160a01b900463ffffffff1681565b600054610100900460ff16806119c457506119c461341c565b806119d2575060005460ff16155b6119ee5760405162461bcd60e51b8152600401610d7990614f85565b600054610100900460ff16158015611a19576000805460ff1961ff0019909116610100171660011790555b611a288c8c8c8c8c8c8861342d565b6001600160a01b038616611a4e5760405162461bcd60e51b8152600401610d79906151f2565b6001600160a01b038516611a745760405162461bcd60e51b8152600401610d7990614be0565b60008463ffffffff16118015611a9157506103e88463ffffffff16105b611aad5760405162461bcd60e51b8152600401610d7990614c89565b610e10831015611acf5760405162461bcd60e51b8152600401610d7990614c3a565b60d680546001600160a01b038089166001600160a01b03199283161790925560d7805463ffffffff8816600160a01b0263ffffffff60a01b19948a1691909316179290921617905560d983905560cf8054600160781b600160e01b0319166cffffffffffffffffffffffffff60781b1790558015611b53576000805461ff00191690555b505050505050505050505050565b60d45481565b7f000000000000000000000000000000000000000000000000000000000000000081565b60d2546001600160a01b031690565b6065546001600160a01b031690565b609b8054604080516020601f6002600019610100600188161502019095169490940493840181900481028201810190925282815260609390929091830182828015610c385780601f10610c0d57610100808354040283529160200191610c38565b60d0546000908190611c27906001600160801b0316611001611f1e565b9050611c4c611c34610c66565b60cc5461100d90610100900460ff16600a0a84613176565b91505090565b60ca6020526000908152604090205481565b60026001541415611c875760405162461bcd60e51b8152600401610d799061542e565b600260015560348110611cac5760405162461bcd60e51b8152600401610d7990614f13565b60cf5461ffff1660005b828161ffff161015611d3b5781810161ffff8084169082161015611cec5760405162461bcd60e51b8152600401610d7990614bbe565b61ffff8116600090815260ca602052604090205415611d1d5760405162461bcd60e51b8152600401610d7990615379565b61ffff16600090815260ca6020526040902060019081905501611cb6565b50506001805550565b60cc5460cd5460ce5460ff80841693610100810490911692620100009091046001600160a01b039081169290821691600160a01b900466ffffffffffffff16906001600160681b031686565b60d15460d2546001600160a01b0391821691811690600160a01b900463ffffffff1683565b60d254600160a01b900463ffffffff1690565b60d1546001600160a01b031690565b6000610c56611de4612b22565b84610d08856040518060600160405280602581526020016158f66025913960986000611e0e612b22565b6001600160a01b03908116825260208083019390935260409182016000908120918d16815292529020549190612cef565b611e47612b22565b6001600160a01b0316611e58611b9a565b6001600160a01b031614611e7e5760405162461bcd60e51b8152600401610d799061507d565b610e10811015611ea05760405162461bcd60e51b8152600401610d799061518b565b7f5acd982e2240ed224a69aa03dab039d3797c108e4b5f288cd7dd6ca181b275f360d95482604051611ed392919061566c565b60405180910390a160d955565b60d55481565b6000610c56611ef3612b22565b8484612bda565b7f000000000000000000000000000000000000000000000000000000000000000081565b60cc546040516370a0823160e01b8152600091611fc291620100009091046001600160a01b0316906370a0823190611f5a90309060040161487f565b60206040518083038186803b158015611f7257600080fd5b505afa158015611f86573d6000803e3d6000fd5b505050506040513d601f19601f82011682018060405250810190611faa919061479d565b60cf546201000090046001600160681b031690613151565b905090565b60d6546001600160a01b031681565b60026001541415611ff95760405162461bcd60e51b8152600401610d799061542e565b60026001558061201b5760405162461bcd60e51b8152600401610d799061539e565b6120258133612e9c565b60cc54612043906201000090046001600160a01b03163330846130f3565b5060018055565b612052612b22565b6001600160a01b0316612063611b9a565b6001600160a01b0316146120895760405162461bcd60e51b8152600401610d799061507d565b600260015414156120ac5760405162461bcd60e51b8152600401610d799061542e565b60026001556000806120bc61364a565b60cf805462010000600160781b031916620100006001600160681b0384160217905560405191935091506001600160a01b038316907f045c558fdce4714c5816d53820d27420f4cd860892df203fe636384d8d19aa0190612120908490339061561d565b60405180910390a2604051632904c23960e01b8152739bCF7E35E8B852de70ddB993BC461d1f4624e5AC90632904c239906121a5907f0000000000000000000000000000000000000000000000000000000000000000907f000000000000000000000000000000000000000000000000000000000000000090879087906004016148de565b60206040518083038186803b1580156121bd57600080fd5b505af41580156121d1573d6000803e3d6000fd5b505050506040513d601f19601f820116820180604052508101906121f5919061479d565b50610f6061169f565b600080600061220c84612839565b909250905061221b8282613151565b949350505050565b61222b612b22565b6001600160a01b031661223c611b9a565b6001600160a01b0316146122625760405162461bcd60e51b8152600401610d799061507d565b6000816001600160681b03161161228b5760405162461bcd60e51b8152600401610d79906150b2565b60ce80546cffffffffffffffffffffffffff19166001600160681b0392909216919091179055565b60d8546001600160681b031681565b600260015414156122e55760405162461bcd60e51b8152600401610d799061542e565b6002600155806123075760405162461bcd60e51b8152600401610d7990615129565b612043816000613225565b7f000000000000000000000000000000000000000000000000000000000000000081565b6001600160a01b03918216600090815260986020908152604080832093909416825291909152205490565b60d854600160781b90046001600160801b031681565b61237f612b22565b6001600160a01b0316612390611b9a565b6001600160a01b0316146123b65760405162461bcd60e51b8152600401610d799061507d565b6001600160a01b0381166123dc5760405162461bcd60e51b8152600401610d7990614f3c565b60d380546001600160a01b0319166001600160a01b0392909216919091179055565b600260015414156124215760405162461bcd60e51b8152600401610d799061542e565b600260015560d2546001600160a01b031661243a61435a565b506040805160c0810182527f00000000000000000000000000000000000000000000000000000000000000006001600160a01b0390811682527f00000000000000000000000000000000000000000000000000000000000000008116602083015283811682840152610e10606083015260d854600160681b810461ffff166080840152600160781b90046001600160801b031660a083015260d75460d65493516334d0abdd60e21b81529293600093849384938493739bCF7E35E8B852de70ddB993BC461d1f4624e5AC9363d342af7493612536938082169390911691600160a01b90910463ffffffff16908b9060cc9060cf90600401614a4a565b60806040518083038186803b15801561254e57600080fd5b505af4158015612562573d6000803e3d6000fd5b505050506040513d601f19601f8201168201806040525081019061258691906146c8565b93509350935093507fa217999b1c125c2a996f712c5f26a28addad7167bd8a67d5bd5b2a751148abb082826040516125bf92919061566c565b60405180910390a16125d08361380b565b60d880546cffffffffffffffffffffffffff19166001600160681b03851617905560d180546001600160a01b0319166001600160a01b03861617905561261842610e10613151565b60d2805463ffffffff92909216600160a01b0263ffffffff60a01b1990921691909117905561264686613832565b50506001805550505050565b60d854600160681b900461ffff1681565b61266b612b22565b6001600160a01b031661267c611b9a565b6001600160a01b0316146126a25760405162461bcd60e51b8152600401610d799061507d565b6001600160a01b0381166126c85760405162461bcd60e51b8152600401610d7990614cd4565b6065546040516001600160a01b038084169216907f8be0079c531659141344cd1fd0a4f28419497f9722a3daafe3b4186f6b6457e090600090a3606580546001600160a01b0319166001600160a01b0392909216919091179055565b600260015414156127475760405162461bcd60e51b8152600401610d799061542e565b600260015560cc547f00000000000000000000000000000000000000000000000000000000000000006001600160a01b039081166201000090920416146127a05760405162461bcd60e51b8152600401610d7990614f66565b600034116127c05760405162461bcd60e51b8152600401610d7990614cb4565b6127ca3433612e9c565b7f00000000000000000000000000000000000000000000000000000000000000006001600160a01b031663d0e30db0346040518263ffffffff1660e01b81526004016000604051808303818588803b15801561282557600080fd5b505af115801561134a573d6000803e3d6000fd5b60008061284461438f565b506001600160a01b038316600090815260c960209081526040918290208251606081018452905461ffff81168083526201000082046001600160681b031693830193909352600160781b90046001600160801b031692810192909252600111156128bd576128b1846118cd565b6000925092505061290d565b60cf54815161ffff908116600090815260ca602052604081205460cc5491936128f393869391169190610100900460ff166139ad565b90506128fe856118cd565b93506001600160801b03169150505b915091565b600260015414156129355760405162461bcd60e51b8152600401610d799061542e565b600260015533600090815260cb6020526040902080546001600160801b03620100008204169061ffff168161297c5760405162461bcd60e51b8152600401610d7990615056565b60cf5461ffff1681106129a15760405162461bcd60e51b8152600401610d7990614e4a565b33600090815260cb60205260409020805462010000600160901b031916905560d0546129dd90600160801b90046001600160801b031683612d1b565b60d080546001600160801b03928316600160801b02921691909117905561ffff8116600090815260ca602052604081205460cc54612a2591859160ff610100909104166131e2565b90507ff279e6a1f5e320cca91135676d9cb6e44ca8a08c0b88342bcdb1144f6511b568338285604051612a5a939291906148bd565b60405180910390a1612a6c3084613a35565b60008111612a8c5760405162461bcd60e51b8152600401610d7990615465565b610eb93382612d43565b60d7546001600160a01b031681565b612aad612b22565b6001600160a01b0316612abe611b9a565b6001600160a01b031614612ae45760405162461bcd60e51b8152600401610d799061507d565b6305f5e1008110612b075760405162461bcd60e51b8152600401610d79906151c2565b612b1c63031ba30961100d83620f4240613176565b60d55550565b3390565b6001600160a01b038316612b4c5760405162461bcd60e51b8152600401610d79906152df565b6001600160a01b038216612b725760405162461bcd60e51b8152600401610d7990614d1a565b6001600160a01b0380841660008181526098602090815260408083209487168084529490915290819020849055517f8c5be1e5ebec7d5bd14f71427d1e84f3dd0314c0f7b2291e5b200ac8c7c3b92590612bcd908590615614565b60405180910390a3505050565b6001600160a01b038316612c005760405162461bcd60e51b8152600401610d7990615248565b6001600160a01b038216612c265760405162461bcd60e51b8152600401610d7990614b7b565b612c31838383612e96565b612c6e816040518060600160405280602681526020016158a8602691396001600160a01b0386166000908152609760205260409020549190612cef565b6001600160a01b038085166000908152609760205260408082209390935590841681522054612c9d9082613151565b6001600160a01b0380841660008181526097602052604090819020939093559151908516907fddf252ad1be2c89b69c2b068fc378daa952ba7f163c4a11628f55a4df523b3ef90612bcd908590615614565b60008184841115612d135760405162461bcd60e51b8152600401610d799190614b3e565b505050900390565b600082821115612d3d5760405162461bcd60e51b8152600401610d7990614e13565b50900390565b60cc546001600160a01b03620100009091048116907f000000000000000000000000000000000000000000000000000000000000000016811415612e8257604051632e1a7d4d60e01b81526001600160a01b037f00000000000000000000000000000000000000000000000000000000000000001690632e1a7d4d90612dcd908590600401615614565b600060405180830381600087803b158015612de757600080fd5b505af1158015612dfb573d6000803e3d6000fd5b505050506000836001600160a01b031683604051612e189061487c565b60006040518083038185875af1925050503d8060008114612e55576040519150601f19603f3d011682016040523d82523d6000602084013e612e5a565b606091505b5050905080612e7b5760405162461bcd60e51b8152600401610d7990614ef1565b5050612e98565b612e966001600160a01b0382168484613b17565b505b5050565b60cf5461ffff166000612eb784612eb1611f1e565b90613151565b60ce549091506001600160681b0316811115612ee55760405162461bcd60e51b8152600401610d7990614c65565b60cd54600160a01b900466ffffffffffffff16811015612f175760405162461bcd60e51b8152600401610d7990614de5565b826001600160a01b03167f90890809c654f11d6e72a28fa60149770a0d11ec6c92319d6ceb2bb0a4ea1a158584604051612f5292919061566c565b60405180910390a2612f6261438f565b506001600160a01b038316600090815260c9602090815260408083208151606081018352905461ffff81168083526201000082046001600160681b031683860152600160781b9091046001600160801b031682840152845260ca90925282205460cc54919291612fde918491879190610100900460ff166139ad565b82519091506001600160681b0387169061ffff16851415613018576020830151600090613014906001600160681b031689613151565b9150505b6130218161380b565b6040805160608101825261ffff87811682526001600160681b0384811660208085019182526001600160801b038881168688019081526001600160a01b038e16600090815260c990935296909120945185549251965161ffff1990931694169390931762010000600160781b03191662010000959092169490940217600160781b600160f81b031916600160781b9382169390930292909217905560d0546130ca911688613151565b60d080546001600160801b0319166001600160801b039290921691909117905550505050505050565b61314b846323b872dd60e01b85858560405160240161311493929190614908565b60408051601f198184030181529190526020810180516001600160e01b03166001600160e01b031990931692909217909152613b36565b50505050565b600082820183811015610d115760405162461bcd60e51b8152600401610d7990614d5c565b60008261318557506000610c5a565b8282028284828161319257fe5b0414610d115760405162461bcd60e51b8152600401610d7990614ff5565b60008082116131d15760405162461bcd60e51b8152600401610d7990614eba565b8183816131da57fe5b049392505050565b6000600183116132045760405162461bcd60e51b8152600401610d79906153bf565b600061321a60ff8416600a0a61100d8787613176565b905061221b8561380b565b61322e8261380b565b33600090815260c96020908152604080832060cf54815461ffff80821680885260ca87528588205460cc5487516060810189528381526201000086046001600160681b031699810199909952600160781b9094046001600160801b0316968801969096529396921694929391926132b1929091869190610100900460ff166139ad565b6001600160801b03169050846132c757856132c9565b805b9550600086116132eb5760405162461bcd60e51b8152600401610d7990615129565b8086111561330b5760405162461bcd60e51b8152600401610d7990614d93565b8282106133285783546201000090046001600160681b031661332b565b60005b33600090815260c96020526040902080546001600160681b0392909216620100000262010000600160781b031990921691909117905561336b8187612d1b565b33600081815260c960205260409081902080546001600160801b0394909416600160781b02600160781b600160f81b03199094169390931790925590517fe5b754fb1abb7f01b499791d0b820ae3b6af3424ac1c59768edb53f4ec31a929906133d7908990869061566c565b60405180910390a26133ea303388612bda565b505050505050565b6001600160801b038111156134195760405162461bcd60e51b8152600401610d799061535a565b50565b600061342730613bc5565b15905090565b600054610100900460ff1680613446575061344661341c565b80613454575060005460ff16155b6134705760405162461bcd60e51b8152600401610d7990614f85565b600054610100900460ff1615801561349b576000805460ff1961ff0019909116610100171660011790555b60405163e5e014dd60e01b8152739bCF7E35E8B852de70ddB993BC461d1f4624e5AC9063e5e014dd906134dc908b908b908a908a908a908a9060040161492c565b60006040518083038186803b1580156134f457600080fd5b505af4158015613508573d6000803e3d6000fd5b50505050613514613bcb565b61351e8484613c55565b613526613ceb565b61352f88612663565b60d380546001600160a01b0319166001600160a01b03891617905560d485905561356463031ba30961100d88620f4240613176565b60d5558160cc6135748282615735565b505060cc546040516370a0823160e01b8152620100009091046001600160a01b0316906370a08231906135ab90309060040161487f565b60206040518083038186803b1580156135c357600080fd5b505afa1580156135d7573d6000803e3d6000fd5b505050506040513d601f19601f820116820180604052508101906135fb919061479d565b60cf805461ffff196001600160681b0393909316600160781b02600160781b600160e01b0319909116179190911660011790558015613640576000805461ff00191690555b5050505050505050565b60d2546000908190600160a01b900463ffffffff1642101561367e5760405162461bcd60e51b8152600401610d7990615036565b60d1546001600160a01b0316806136a75760405162461bcd60e51b8152600401610d799061548e565b6000806000739bCF7E35E8B852de70ddB993BC461d1f4624e5AC63afc0a5db6136ce610c66565b60cc5460d05460405160e085901b6001600160e01b031916815261372493926201000081046001600160a01b03169261010090910460ff16916001600160801b0380831692600160801b90041690600401615634565b60606040518083038186803b15801561373c57600080fd5b505af4158015613750573d6000803e3d6000fd5b505050506040513d601f19601f8201168201806040525081019061377491906147d9565b60d280546001600160a01b0389166001600160a01b03199182161790915560d18054909116905560cf5461ffff16600081815260ca6020526040902083905592955090935091506137ce6137c785613d69565b8590612d1b565b60d080546001600160801b031916905560cf805461ffff19166001840161ffff1617905593506137fe3083613e6f565b5092945090925050509091565b6001600160681b038111156134195760405162461bcd60e51b8152600401610d79906150d3565b60d280546001600160a01b031916905560cf546201000090046001600160681b0316806138715760cf54600160781b90046001600160681b0316613873565b805b60cf805462010000600160781b03196001600160681b0393909316600160781b02600160781b600160e01b0319909116179190911690556001600160a01b03821615612e9857604051636c6fe87f60e11b8152600090739bCF7E35E8B852de70ddB993BC461d1f4624e5AC9063d8dfd0fe90613913907f00000000000000000000000000000000000000000000000000000000000000009060040161487f565b60206040518083038186803b15801561392b57600080fd5b505af415801561393f573d6000803e3d6000fd5b505050506040513d601f19601f82011682018060405250810190613963919061479d565b9050826001600160a01b03167f7e830f7c1771deb1bdb35c4a7e6051bbac32b376f7f4e4976b8618b0b11997f782336040516139a092919061561d565b60405180910390a2505050565b835160009061ffff16158015906139c85750845161ffff1684115b15613a2a5760006139e786602001516001600160681b03168585613f23565b6001600160681b031690506139fb8161380b565b6040860151600090613a16906001600160801b031683613151565b9050613a21816133f2565b915061221b9050565b505050506040015190565b6001600160a01b038216613a5b5760405162461bcd60e51b8152600401610d799061514a565b613a6782600083612e96565b613aa481604051806060016040528060228152602001615886602291396001600160a01b0385166000908152609760205260409020549190612cef565b6001600160a01b038316600090815260976020526040902055609954613aca9082612d1b565b6099556040516000906001600160a01b038416907fddf252ad1be2c89b69c2b068fc378daa952ba7f163c4a11628f55a4df523b3ef90613b0b908590615614565b60405180910390a35050565b612e968363a9059cbb60e01b8484604051602401613114929190614ad1565b6060613b8b826040518060400160405280602081526020017f5361666545524332303a206c6f772d6c6576656c2063616c6c206661696c6564815250856001600160a01b0316613f669092919063ffffffff16565b805190915015612e965780806020019051810190613ba99190614706565b612e965760405162461bcd60e51b8152600401610d79906153e4565b3b151590565b600054610100900460ff1680613be45750613be461341c565b80613bf2575060005460ff16155b613c0e5760405162461bcd60e51b8152600401610d7990614f85565b600054610100900460ff16158015613c39576000805460ff1961ff0019909116610100171660011790555b613c41613f75565b8015613419576000805461ff001916905550565b600054610100900460ff1680613c6e5750613c6e61341c565b80613c7c575060005460ff16155b613c985760405162461bcd60e51b8152600401610d7990614f85565b600054610100900460ff16158015613cc3576000805460ff1961ff0019909116610100171660011790555b613ccb613ffb565b613cd5838361407c565b8015612e96576000805461ff0019169055505050565b600054610100900460ff1680613d045750613d0461341c565b80613d12575060005460ff16155b613d2e5760405162461bcd60e51b8152600401610d7990614f85565b600054610100900460ff16158015613d59576000805460ff1961ff0019909116610100171660011790555b613d61613ffb565b613c41614135565b6000806000739bCF7E35E8B852de70ddB993BC461d1f4624e5AC63d38e319760cf8660d45460d5546040518563ffffffff1660e01b8152600401613db09493929190615539565b60606040518083038186803b158015613dc857600080fd5b505af4158015613ddc573d6000803e3d6000fd5b505050506040513d601f19601f82011682018060405250810190613e0091906147d9565b92505091506000811115610d115760d354613e24906001600160a01b031682612d43565b60cf546040517fada62e8302f1310b252c959c188269b9a41b22ae1730d21f69eec09488dee14491613e60918591859161ffff9091169061567a565b60405180910390a19392505050565b6001600160a01b038216613e955760405162461bcd60e51b8152600401610d79906154b3565b613ea160008383612e96565b609954613eae9082613151565b6099556001600160a01b038216600090815260976020526040902054613ed49082613151565b6001600160a01b0383166000818152609760205260408082209390935591519091907fddf252ad1be2c89b69c2b068fc378daa952ba7f163c4a11628f55a4df523b3ef90613b0b908590615614565b600060018311613f455760405162461bcd60e51b8152600401610d79906153bf565b6000613f5b8461100d8760ff8716600a0a613176565b905061221b8161380b565b606061221b848460008561420f565b600054610100900460ff1680613f8e5750613f8e61341c565b80613f9c575060005460ff16155b613fb85760405162461bcd60e51b8152600401610d7990614f85565b600054610100900460ff16158015613fe3576000805460ff1961ff0019909116610100171660011790555b600180558015613419576000805461ff001916905550565b600054610100900460ff1680614014575061401461341c565b80614022575060005460ff16155b61403e5760405162461bcd60e51b8152600401610d7990614f85565b600054610100900460ff16158015613c41576000805460ff1961ff0019909116610100171660011790558015613419576000805461ff001916905550565b600054610100900460ff1680614095575061409561341c565b806140a3575060005460ff16155b6140bf5760405162461bcd60e51b8152600401610d7990614f85565b600054610100900460ff161580156140ea576000805460ff1961ff0019909116610100171660011790555b82516140fd90609a9060208601906143af565b50815161411190609b9060208501906143af565b50609c805460ff191660121790558015612e96576000805461ff0019169055505050565b600054610100900460ff168061414e575061414e61341c565b8061415c575060005460ff16155b6141785760405162461bcd60e51b8152600401610d7990614f85565b600054610100900460ff161580156141a3576000805460ff1961ff0019909116610100171660011790555b60006141ad612b22565b606580546001600160a01b0319166001600160a01b038316908117909155604051919250906000907f8be0079c531659141344cd1fd0a4f28419497f9722a3daafe3b4186f6b6457e0908290a3508015613419576000805461ff001916905550565b6060824710156142315760405162461bcd60e51b8152600401610d7990614e74565b61423a85613bc5565b6142565760405162461bcd60e51b8152600401610d7990615323565b60006060866001600160a01b031685876040516142739190614860565b60006040518083038185875af1925050503d80600081146142b0576040519150601f19603f3d011682016040523d82523d6000602084013e6142b5565b606091505b50915091506142c58282866142d0565b979650505050505050565b606083156142df575081610d11565b8251156142ef5782518084602001fd5b8160405162461bcd60e51b8152600401610d799190614b3e565b6040518060c0016040528060006001600160a01b0316815260200160006001600160a01b0316815260200160006001600160a01b031681526020016000815260200160008152602001600081525090565b6040805160c081018252600080825260208201819052918101829052606081018290526080810182905260a081019190915290565b604080516060810182526000808252602082018190529181019190915290565b828054600181600116156101000203166002900490600052602060002090601f016020900481019282601f106143f057805160ff191683800117855561441d565b8280016001018555821561441d579182015b8281111561441d578251825591602001919060010190614402565b5061442992915061442d565b5090565b5b80821115614429576000815560010161442e565b803561102681615862565b600082601f83011261445d578081fd5b813567ffffffffffffffff8082111561447257fe5b604051601f8301601f19168101602001828111828210171561449057fe5b6040528281529250828483016020018610156144ab57600080fd5b8260208601602083013760006020848301015250505092915050565b600060c082840312156144d8578081fd5b50919050565b80356001600160681b038116811461102657600080fd5b803563ffffffff8116811461102657600080fd5b803566ffffffffffffff8116811461102657600080fd5b600060208284031215614531578081fd5b8135610d1181615862565b6000806040838503121561454e578081fd5b823561455981615862565b9150602083013561456981615862565b809150509250929050565b600080600060608486031215614588578081fd5b833561459381615862565b925060208401356145a381615862565b929592945050506040919091013590565b60008060008060008060008060008060006102008c8e0312156145d5578687fd5b6145de8c614442565b9a506145ec60208d01614442565b995060408c0135985060608c0135975067ffffffffffffffff8060808e01351115614615578788fd5b6146258e60808f01358f0161444d565b97508060a08e01351115614637578687fd5b506146488d60a08e01358e0161444d565b955061465660c08d01614442565b945061466460e08d01614442565b93506146736101008d016144f5565b92506101208c0135915061468b8d6101408e016144c7565b90509295989b509295989b9093969950565b600080604083850312156146af578182fd5b82356146ba81615862565b946020939093013593505050565b600080600080608085870312156146dd578384fd5b84516146e881615862565b60208601516040870151606090970151919890975090945092505050565b600060208284031215614717578081fd5b8151610d1181615877565b600060208284031215614733578081fd5b610d11826144de565b60006020828403121561474d578081fd5b81356001600160801b0381168114610d11578182fd5b600060208284031215614774578081fd5b813561ffff81168114610d11578182fd5b600060208284031215614796578081fd5b5035919050565b6000602082840312156147ae578081fd5b5051919050565b600080604083850312156147c7578182fd5b82359150602083013561456981615862565b6000806000606084860312156147ed578081fd5b8351925060208401519150604084015190509250925092565b6001600160a01b03169052565b6000815180845261482b8160208601602086016156cd565b601f01601f19169290920160200192915050565b6001600160681b03169052565b66ffffffffffffff169052565b60ff169052565b600082516148728184602087016156cd565b9190910192915050565b90565b6001600160a01b0391909116815260200190565b6001600160a01b039390931683526001600160801b03919091166020830152604082015260600190565b6001600160a01b039390931683526020830191909152604082015260600190565b6001600160a01b039485168152928416602084015292166040820152606081019190915260800190565b6001600160a01b039384168152919092166020820152604081019190915260600190565b6001600160a01b03878116825286166020820152604081018590526101606060820181905260009061496083820187614813565b905082810360808401526149748186614813565b915050823561498281615877565b151560a0830152602083013560ff8116811461499d57600080fd5b6149aa60c0840182614859565b506149b760408401614442565b6149c460e0840182614806565b506149d160608401614442565b6149df610100840182614806565b506149ec60808401614509565b6149fa61012084018261484c565b50614a0760a084016144de565b614a1561014084018261483f565b50979650505050505050565b6001600160a01b03938416815291909216602082015263ffffffff909116604082015260600190565b60006101608201905060018060a01b038089168352808816602084015263ffffffff871660408401528086511660608401528060208701511660808401528060408701511660a084015250606085015160c083015261ffff60808601511660e083015260a08501516101008301528361012083015282610140830152979650505050505050565b6001600160a01b03929092168252602082015260400190565b901515815260200190565b951515865260ff9490941660208601526001600160a01b0392831660408601529116606084015266ffffffffffffff1660808301526001600160681b031660a082015260c00190565b600060208252610d116020830184614813565b60208082526010908201526f125b9d985b1a5908191a5cd8dbdd5b9d60821b604082015260600190565b60208082526023908201527f45524332303a207472616e7366657220746f20746865207a65726f206164647260408201526265737360e81b606082015260800190565b6020808252600890820152674f766572666c6f7760c01b604082015260600190565b60208082526011908201527010afb9ba3934b5b2a9b2b632b1ba34b7b760791b604082015260600190565b6020808252601590820152742163757272656e744f746f6b656e5072656d69756d60581b604082015260600190565b60208082526011908201527010afb0bab1ba34b7b7223ab930ba34b7b760791b604082015260600190565b6020808252600a90820152690457863656564206361760b41b604082015260600190565b6020808252601190820152700857dc1c995b5a5d5b511a5cd8dbdd5b9d607a1b604082015260600190565b6020808252600690820152652176616c756560d01b604082015260600190565b60208082526026908201527f4f776e61626c653a206e6577206f776e657220697320746865207a65726f206160408201526564647265737360d01b606082015260800190565b60208082526022908201527f45524332303a20617070726f766520746f20746865207a65726f206164647265604082015261737360f01b606082015260800190565b6020808252601b908201527f536166654d6174683a206164646974696f6e206f766572666c6f770000000000604082015260600190565b6020808252601190820152704578636565647320617661696c61626c6560781b604082015260600190565b6020808252600d908201526c125b9d985b1a59081c9bdd5b99609a1b604082015260600190565b602080825260149082015273496e73756666696369656e742062616c616e636560601b604082015260600190565b6020808252601e908201527f536166654d6174683a207375627472616374696f6e206f766572666c6f770000604082015260600190565b60208082526010908201526f149bdd5b99081b9bdd0818db1bdcd95960821b604082015260600190565b60208082526026908201527f416464726573733a20696e73756666696369656e742062616c616e636520666f6040820152651c8818d85b1b60d21b606082015260800190565b6020808252601a908201527f536166654d6174683a206469766973696f6e206279207a65726f000000000000604082015260600190565b602080825260089082015267217375636365737360c01b604082015260600190565b6020808252600f908201526e373ab6a937bab73239901f1e901a9960891b604082015260600190565b60208082526010908201526f085b995dd19959549958da5c1a595b9d60821b604082015260600190565b602080825260059082015264042ae8aa8960db1b604082015260600190565b6020808252602e908201527f496e697469616c697a61626c653a20636f6e747261637420697320616c72656160408201526d191e481a5b9a5d1a585b1a5e995960921b606082015260800190565b602080825260089082015267216f746f6b656e7360c01b604082015260600190565b60208082526021908201527f536166654d6174683a206d756c7469706c69636174696f6e206f766572666c6f6040820152607760f81b606082015260800190565b60208082526006908201526521726561647960d01b604082015260600190565b6020808252600d908201526c139bdd081a5b9a5d1a585d1959609a1b604082015260600190565b6020808252818101527f4f776e61626c653a2063616c6c6572206973206e6f7420746865206f776e6572604082015260600190565b6020808252600790820152660216e65774361760cc1b604082015260600190565b6020808252600590820152640f954c4c0d60da1b604082015260600190565b60208082526017908201527f496e76616c696420706572666f726d616e636520666565000000000000000000604082015260600190565b6020808252600790820152662173686172657360c81b604082015260600190565b60208082526021908201527f45524332303a206275726e2066726f6d20746865207a65726f206164647265736040820152607360f81b606082015260800190565b60208082526018908201527f496e76616c69642061756374696f6e206475726174696f6e0000000000000000604082015260600190565b602080825260169082015275496e76616c6964206d616e6167656d656e742066656560501b604082015260600190565b60208082526016908201527510afb7b83a34b7b739a83932b6b4bab6a83934b1b2b960511b604082015260600190565b6020808252600c908201526b21737472696b65507269636560a01b604082015260600190565b60208082526025908201527f45524332303a207472616e736665722066726f6d20746865207a65726f206164604082015264647265737360d81b606082015260800190565b6020808252600d908201526c115e18d9595908185b5bdd5b9d609a1b604082015260600190565b6020808252601190820152704578697374696e6720776974686472617760781b604082015260600190565b60208082526024908201527f45524332303a20617070726f76652066726f6d20746865207a65726f206164646040820152637265737360e01b606082015260800190565b6020808252601d908201527f416464726573733a2063616c6c20746f206e6f6e2d636f6e7472616374000000604082015260600190565b60208082526005908201526407caa6264760db1b604082015260600190565b6020808252600b908201526a125b9a5d1a585b1a5e995960aa1b604082015260600190565b60208082526007908201526608585b5bdd5b9d60ca1b604082015260600190565b6020808252600b908201526a496e76616c69642070707360a81b604082015260600190565b6020808252602a908201527f5361666545524332303a204552433230206f7065726174696f6e20646964206e6040820152691bdd081cdd58d8d9595960b21b606082015260800190565b6020808252601f908201527f5265656e7472616e637947756172643a207265656e7472616e742063616c6c00604082015260600190565b6020808252600f908201526e085dda5d1a191c985dd05b5bdd5b9d608a1b604082015260600190565b6020808252600b908201526a10b732bc3a27b83a34b7b760a91b604082015260600190565b6020808252601f908201527f45524332303a206d696e7420746f20746865207a65726f206164647265737300604082015260600190565b81516001600160a01b03908116825260208084015182169083015260408084015190911690820152606080830151908201526080808301519082015260a0918201519181019190915260c00190565b93845260208401929092526040830152606082015260800190565b6001600160681b0391909116815260200190565b6001600160801b0391909116815260200190565b61ffff91909116815260200190565b61ffff9590951685526001600160681b0393841660208601529190921660408401526001600160801b03918216606084015216608082015260a00190565b61ffff9390931683526001600160681b039190911660208301526001600160801b0316604082015260600190565b61ffff9290921682526001600160801b0316602082015260400190565b90815260200190565b9182526001600160a01b0316602082015260400190565b9485526001600160a01b0393909316602085015260ff91909116604084015260608301526001600160801b0316608082015260a00190565b918252602082015260400190565b928352602083019190915261ffff16604082015260600190565b63ffffffff91909116815260200190565b63ffffffff92909216825261ffff16602082015260400190565b60ff91909116815260200190565b60005b838110156156e85781810151838201526020016156d0565b8381111561314b5750506000910152565b80356001600160a01b038116811461102657fe5b80356001600160681b038116811461102657fe5b803566ffffffffffffff8116811461102657fe5b8135801515811461574257fe5b60ff1982541660ff8216811783555050602082013560ff8116811461576357fe5b61576f816001846157fc565b5061578761577f604084016156f9565b6002836157d6565b615793606083016156f9565b600182016157a3826000836157d6565b6157ba6157b260808601615721565b60148361583e565b5050612e986157cb60a0840161570d565b60006002840161581a565b805460089290920292831b6001600160a01b0390931b9283169219909116919091179055565b80546008830260ff811b8086831b1681198416178455505050505050565b8054600883026001600160681b03811b8086831b1681198416178455505050505050565b80546008830266ffffffffffffff811b8086831b1681198416178455505050505050565b6001600160a01b038116811461341957600080fd5b801515811461341957600080fdfe45524332303a206275726e20616d6f756e7420657863656564732062616c616e636545524332303a207472616e7366657220616d6f756e7420657863656564732062616c616e636545524332303a207472616e7366657220616d6f756e74206578636565647320616c6c6f77616e636545524332303a2064656372656173656420616c6c6f77616e63652062656c6f77207a65726fa2646970667358221220f82e8ec9455e8eee80ad33113792ac81e103278710f1e75779079431b7f9ff3664736f6c63430007030033",
  "deployedBytecode": "0x6080604052600436106103fa5760003560e01c80638b10cc7c11610213578063b6b55f2511610123578063e74b981b116100ab578063f6326fb31161007a578063f6326fb314610b2c578063f656ba5114610b34578063f756fa2114610b62578063f957a06714610b77578063fe56e23214610b8c576103fa565b8063e74b981b14610ab5578063ea00b1ca14610ad5578063f17addd314610aea578063f2fde38b14610b0c576103fa565b8063d5f26382116100f2578063d5f2638214610a1c578063db006a7514610a3e578063db43e86214610a5e578063dd62ed3e14610a73578063e73c63d514610a93576103fa565b8063b6b55f25146109a7578063b9f8092b146109c7578063ce7c2ac2146109dc578063d2184567146109fc576103fa565b8063a285c9e8116101a6578063a6f7f5d611610175578063a6f7f5d614610933578063a9059cbb14610948578063ad5c464814610968578063ad7a672f1461097d578063afa6626414610992576103fa565b8063a285c9e8146108c9578063a2db9d83146108de578063a457c2d7146108f3578063a497e67414610913576103fa565b8063999b8ac2116101e2578063999b8ac21461083e5780639be43daa1461085e5780639fcc2d751461087e578063a083ff17146108a5576103fa565b80638b10cc7c146107ea5780638da5cb5b146107ff57806395d89b411461081457806399530b0614610829576103fa565b80635dc25e7b1161030e5780636f31ab34116102a15780637a9262a2116102705780637a9262a21461075057806383536ff31461077e578063871bf994146107a057806387788782146107c057806389a30271146107d5576103fa565b80636f31ab34146106e657806370897b23146106fb57806370a082311461071b578063715018a61461073b576103fa565b806369281c17116102dd57806369281c17146106875780636a42b8f8146106a75780636b64c769146106bc5780636c10f66c146106d1576103fa565b80635dc25e7b1461060e578063600a2cfb1461062e578063650cce8a146106435780636719b2ee14610658576103fa565b8063313ce567116103915780633f23bb73116103605780633f23bb731461058f5780633f90916a146105af578063432833a6146105c457806346904840146105d957806355489bb2146105ee576103fa565b8063313ce56714610518578063355274ea1461053a57806336efd16f1461054f578063395093511461056f576103fa565b80631a92f6c2116103cd5780631a92f6c21461048e57806323b872dd146104b05780632728f333146104d05780632775d01c146104f6576103fa565b806306fdde03146103ff578063095ea7b31461042a5780630cbf54c81461045757806318160ddd14610479575b600080fd5b34801561040b57600080fd5b50610414610bac565b6040516104219190614b3e565b60405180910390f35b34801561043657600080fd5b5061044a61044536600461469d565b610c42565b6040516104219190614aea565b34801561046357600080fd5b5061046c610c60565b6040516104219190615614565b34801561048557600080fd5b5061046c610c66565b34801561049a57600080fd5b506104a3610c6c565b604051610421919061487f565b3480156104bc57600080fd5b5061044a6104cb366004614574565b610c90565b3480156104dc57600080fd5b506104e5610d18565b60405161042195949392919061558b565b34801561050257600080fd5b50610516610511366004614785565b610d56565b005b34801561052457600080fd5b5061052d610ec3565b60405161042191906156bf565b34801561054657600080fd5b5061046c610ed1565b34801561055b57600080fd5b5061051661056a3660046147b5565b610ee0565b34801561057b57600080fd5b5061044a61058a36600461469d565b610f68565b34801561059b57600080fd5b5061046c6105aa366004614520565b610fb6565b3480156105bb57600080fd5b5061046c61102b565b3480156105d057600080fd5b5061046c61103a565b3480156105e557600080fd5b506104a3611040565b3480156105fa57600080fd5b5061051661060936600461473c565b61104f565b34801561061a57600080fd5b5061051661062936600461473c565b61112a565b34801561063a57600080fd5b50610516611355565b34801561064f57600080fd5b506104a361155b565b34801561066457600080fd5b50610678610673366004614520565b61157f565b604051610421939291906155c9565b34801561069357600080fd5b506105166106a2366004614763565b6115b7565b3480156106b357600080fd5b5061046c611699565b3480156106c857600080fd5b5061051661169f565b3480156106dd57600080fd5b506104a3611805565b3480156106f257600080fd5b50610516611829565b34801561070757600080fd5b50610516610716366004614785565b611866565b34801561072757600080fd5b5061046c610736366004614520565b6118cd565b34801561074757600080fd5b506105166118e8565b34801561075c57600080fd5b5061077061076b366004614520565b611971565b6040516104219291906155f7565b34801561078a57600080fd5b50610793611998565b6040516104219190615694565b3480156107ac57600080fd5b506105166107bb3660046145b4565b6119ab565b3480156107cc57600080fd5b5061046c611b61565b3480156107e157600080fd5b506104a3611b67565b3480156107f657600080fd5b506104a3611b8b565b34801561080b57600080fd5b506104a3611b9a565b34801561082057600080fd5b50610414611ba9565b34801561083557600080fd5b5061046c611c0a565b34801561084a57600080fd5b5061046c610859366004614763565b611c52565b34801561086a57600080fd5b50610516610879366004614785565b611c64565b34801561088a57600080fd5b50610893611d44565b60405161042196959493929190614af5565b3480156108b157600080fd5b506108ba611d90565b60405161042193929190614a21565b3480156108d557600080fd5b5061046c611db5565b3480156108ea57600080fd5b506104a3611dc8565b3480156108ff57600080fd5b5061044a61090e36600461469d565b611dd7565b34801561091f57600080fd5b5061051661092e366004614785565b611e3f565b34801561093f57600080fd5b5061046c611ee0565b34801561095457600080fd5b5061044a61096336600461469d565b611ee6565b34801561097457600080fd5b506104a3611efa565b34801561098957600080fd5b5061046c611f1e565b34801561099e57600080fd5b506104a3611fc7565b3480156109b357600080fd5b506105166109c2366004614785565b611fd6565b3480156109d357600080fd5b5061051661204a565b3480156109e857600080fd5b5061046c6109f7366004614520565b6121fe565b348015610a0857600080fd5b50610516610a17366004614722565b612223565b348015610a2857600080fd5b50610a316122b3565b6040516104219190615554565b348015610a4a57600080fd5b50610516610a59366004614785565b6122c2565b348015610a6a57600080fd5b506104a3612312565b348015610a7f57600080fd5b5061046c610a8e36600461453c565b612336565b348015610a9f57600080fd5b50610aa8612361565b6040516104219190615568565b348015610ac157600080fd5b50610516610ad0366004614520565b612377565b348015610ae157600080fd5b506105166123fe565b348015610af657600080fd5b50610aff612652565b604051610421919061557c565b348015610b1857600080fd5b50610516610b27366004614520565b612663565b610516612724565b348015610b4057600080fd5b50610b54610b4f366004614520565b612839565b60405161042192919061566c565b348015610b6e57600080fd5b50610516612912565b348015610b8357600080fd5b506104a3612a96565b348015610b9857600080fd5b50610516610ba7366004614785565b612aa5565b609a8054604080516020601f6002600019610100600188161502019095169490940493840181900481028201810190925282815260609390929091830182828015610c385780601f10610c0d57610100808354040283529160200191610c38565b820191906000526020600020905b815481529060010190602001808311610c1b57829003601f168201915b5050505050905090565b6000610c56610c4f612b22565b8484612b26565b5060015b92915050565b60d95481565b60995490565b7f000000000000000000000000000000000000000000000000000000000000000081565b6000610c9d848484612bda565b610d0d84610ca9612b22565b610d08856040518060600160405280602881526020016158ce602891396001600160a01b038a16600090815260986020526040812090610ce7612b22565b6001600160a01b031681526020810191909152604001600020549190612cef565b612b26565b5060015b9392505050565b60cf5460d05461ffff8216916001600160681b03620100008204811692600160781b90920416906001600160801b0380821691600160801b90041685565b60026001541415610d825760405162461bcd60e51b8152600401610d799061542e565b60405180910390fd5b600260015533600090815260c96020526040902060cf5461ffff1682610dba5760405162461bcd60e51b8152600401610d799061539e565b815461ffff168114610dde5760405162461bcd60e51b8152600401610d7990614dbe565b81546201000090046001600160681b031683811015610e0f5760405162461bcd60e51b8152600401610d799061528d565b610e198185612d1b565b83546001600160681b0391909116620100000262010000600160781b031990911617835560d054610e53906001600160801b031685612d1b565b60d080546001600160801b0319166001600160801b039290921691909117905560405133907fab2daf3c146ca6416cbccd2a86ed2ba995e171ef6319df14a38aef01403a9c9690610ea7908790869061566c565b60405180910390a2610eb93385612d43565b5050600180555050565b60cc54610100900460ff1690565b60ce546001600160681b031690565b60026001541415610f035760405162461bcd60e51b8152600401610d799061542e565b600260015581610f255760405162461bcd60e51b8152600401610d799061539e565b6001600160a01b038116610f3857600080fd5b610f428282612e9c565b60cc54610f60906201000090046001600160a01b03163330856130f3565b505060018055565b6000610c56610f75612b22565b84610d088560986000610f86612b22565b6001600160a01b03908116825260208083019390935260409182016000908120918c168152925290205490613151565b60cc54600090610100900460ff1681610fce846121fe565b90506000611013610fdd610c66565b60d05461100d9060ff8716600a0a90611007906001600160801b0316611001611f1e565b90612d1b565b90613176565b906131b0565b90506110208282856131e2565b93505050505b919050565b60d0546001600160801b031690565b60da5481565b60d3546001600160a01b031681565b611057612b22565b6001600160a01b0316611068611b9a565b6001600160a01b03161461108e5760405162461bcd60e51b8152600401610d799061507d565b600260015414156110b15760405162461bcd60e51b8152600401610d799061542e565b60026001556001600160801b0381166110dc5760405162461bcd60e51b8152600401610d7990615222565b60d8805460cf54600160681b61ffff9091160261ffff60681b196001600160801b03909416600160781b02600160781b600160f81b0319909216919091179290921691909117905560018055565b6002600154141561114d5760405162461bcd60e51b8152600401610d799061542e565b60026001556001600160801b0381166111785760405162461bcd60e51b8152600401610d7990615129565b33600090815260c960205260409020546201000090046001600160681b03161515806111c2575033600090815260c96020526040902054600160781b90046001600160801b031615155b156111d3576111d360006001613225565b60cf5433600081815260cb6020526040908190208054915161ffff948516949193919092168414917f0c53c82ad07e2d592d88ece3b066777dd60f1118e2a081b380efc4358f0d9e2a9161122a9187908790614893565b60405180910390a181546201000090046001600160801b031681156112a357600061125e826001600160801b038816613151565b9050611269816133f2565b33600090815260cb6020526040902080546001600160801b03909216620100000262010000600160901b03199092169190911790556112ff565b806112e75733600090815260cb60205260409020805462010000600160901b031916620100006001600160801b038816021761ffff191661ffff86161790556112ff565b60405162461bcd60e51b8152600401610d79906152b4565b60d05461132090600160801b90046001600160801b03908116908716613151565b60d080546001600160801b03928316600160801b0290831617905561134a90339030908816612bda565b505060018055505050565b61135d612b22565b6001600160a01b031661136e611b9a565b6001600160a01b0316146113945760405162461bcd60e51b8152600401610d799061507d565b600260015414156113b75760405162461bcd60e51b8152600401610d799061542e565b600260015560d2546040516370a0823160e01b81526000916001600160a01b0316906370a08231906113ed90309060040161487f565b60206040518083038186803b15801561140557600080fd5b505afa158015611419573d6000803e3d6000fd5b505050506040513d601f19601f8201168201806040525081019061143d919061479d565b90506000811161145f5760405162461bcd60e51b8152600401610d7990614fd3565b60405163f60c4fc760e01b815260009073__$c4f279750f4bbb575ac7775e752dc00849$__9063f60c4fc7906114bb907f0000000000000000000000000000000000000000000000000000000000000000908690600401614ad1565b60206040518083038186803b1580156114d357600080fd5b505af41580156114e7573d6000803e3d6000fd5b505050506040513d601f19601f8201168201806040525081019061150b919061479d565b60cf5490915061152a906201000090046001600160681b031682612d1b565b60cf80546001600160681b0392909216620100000262010000600160781b0319909216919091179055505060018055565b7f000000000000000000000000000000000000000000000000000000000000000081565b60c96020526000908152604090205461ffff8116906201000081046001600160681b031690600160781b90046001600160801b031683565b6115bf612b22565b6001600160a01b03166115d0611b9a565b6001600160a01b0316146115f65760405162461bcd60e51b8152600401610d799061507d565b60008161ffff1611801561160f57506103e88161ffff16105b61162b5760405162461bcd60e51b8152600401610d7990614b51565b7f4cd657fde404967d63a338fb06c5c98751a9df57dfae6dc333a432faf8a5f65660d760149054906101000a900463ffffffff168260405161166e9291906156a5565b60405180910390a160d7805463ffffffff60a01b191661ffff92909216600160a01b02919091179055565b610e1081565b6116a7612b22565b6001600160a01b03166116b8611b9a565b6001600160a01b0316146116de5760405162461bcd60e51b8152600401610d799061507d565b6116e6614309565b60d8546001600160681b03168061170f5760405162461bcd60e51b8152600401610d7990614c0b565b60d2546001600160a01b0390811683527f00000000000000000000000000000000000000000000000000000000000000008116602084015260cc5462010000810490911660408085019190915261010090910460ff1660608401526080830182905260d95460a084015251633baf17fd60e21b815273__$c4f279750f4bbb575ac7775e752dc00849$__9063eebc5ff4906117ae9085906004016154ea565b60206040518083038186803b1580156117c657600080fd5b505af41580156117da573d6000803e3d6000fd5b505050506040513d601f19601f820116820180604052508101906117fe919061479d565b60da555050565b7f000000000000000000000000000000000000000000000000000000000000000081565b6002600154141561184c5760405162461bcd60e51b8152600401610d799061542e565b600260018190555061186060006001613225565b60018055565b61186e612b22565b6001600160a01b031661187f611b9a565b6001600160a01b0316146118a55760405162461bcd60e51b8152600401610d799061507d565b6305f5e10081106118c85760405162461bcd60e51b8152600401610d79906150f2565b60d455565b6001600160a01b031660009081526097602052604090205490565b6118f0612b22565b6001600160a01b0316611901611b9a565b6001600160a01b0316146119275760405162461bcd60e51b8152600401610d799061507d565b6065546040516000916001600160a01b0316907f8be0079c531659141344cd1fd0a4f28419497f9722a3daafe3b4186f6b6457e0908390a3606580546001600160a01b0319169055565b60cb6020526000908152604090205461ffff8116906201000090046001600160801b031682565b60d754600160a01b900463ffffffff1681565b600054610100900460ff16806119c457506119c461341c565b806119d2575060005460ff16155b6119ee5760405162461bcd60e51b8152600401610d7990614f85565b600054610100900460ff16158015611a19576000805460ff1961ff0019909116610100171660011790555b611a288c8c8c8c8c8c8861342d565b6001600160a01b038616611a4e5760405162461bcd60e51b8152600401610d79906151f2565b6001600160a01b038516611a745760405162461bcd60e51b8152600401610d7990614be0565b60008463ffffffff16118015611a9157506103e88463ffffffff16105b611aad5760405162461bcd60e51b8152600401610d7990614c89565b610e10831015611acf5760405162461bcd60e51b8152600401610d7990614c3a565b60d680546001600160a01b038089166001600160a01b03199283161790925560d7805463ffffffff8816600160a01b0263ffffffff60a01b19948a1691909316179290921617905560d983905560cf8054600160781b600160e01b0319166cffffffffffffffffffffffffff60781b1790558015611b53576000805461ff00191690555b505050505050505050505050565b60d45481565b7f000000000000000000000000000000000000000000000000000000000000000081565b60d2546001600160a01b031690565b6065546001600160a01b031690565b609b8054604080516020601f6002600019610100600188161502019095169490940493840181900481028201810190925282815260609390929091830182828015610c385780601f10610c0d57610100808354040283529160200191610c38565b60d0546000908190611c27906001600160801b0316611001611f1e565b9050611c4c611c34610c66565b60cc5461100d90610100900460ff16600a0a84613176565b91505090565b60ca6020526000908152604090205481565b60026001541415611c875760405162461bcd60e51b8152600401610d799061542e565b600260015560348110611cac5760405162461bcd60e51b8152600401610d7990614f13565b60cf5461ffff1660005b828161ffff161015611d3b5781810161ffff8084169082161015611cec5760405162461bcd60e51b8152600401610d7990614bbe565b61ffff8116600090815260ca602052604090205415611d1d5760405162461bcd60e51b8152600401610d7990615379565b61ffff16600090815260ca6020526040902060019081905501611cb6565b50506001805550565b60cc5460cd5460ce5460ff80841693610100810490911692620100009091046001600160a01b039081169290821691600160a01b900466ffffffffffffff16906001600160681b031686565b60d15460d2546001600160a01b0391821691811690600160a01b900463ffffffff1683565b60d254600160a01b900463ffffffff1690565b60d1546001600160a01b031690565b6000610c56611de4612b22565b84610d08856040518060600160405280602581526020016158f66025913960986000611e0e612b22565b6001600160a01b03908116825260208083019390935260409182016000908120918d16815292529020549190612cef565b611e47612b22565b6001600160a01b0316611e58611b9a565b6001600160a01b031614611e7e5760405162461bcd60e51b8152600401610d799061507d565b610e10811015611ea05760405162461bcd60e51b8152600401610d799061518b565b7f5acd982e2240ed224a69aa03dab039d3797c108e4b5f288cd7dd6ca181b275f360d95482604051611ed392919061566c565b60405180910390a160d955565b60d55481565b6000610c56611ef3612b22565b8484612bda565b7f000000000000000000000000000000000000000000000000000000000000000081565b60cc546040516370a0823160e01b8152600091611fc291620100009091046001600160a01b0316906370a0823190611f5a90309060040161487f565b60206040518083038186803b158015611f7257600080fd5b505afa158015611f86573d6000803e3d6000fd5b505050506040513d601f19601f82011682018060405250810190611faa919061479d565b60cf546201000090046001600160681b031690613151565b905090565b60d6546001600160a01b031681565b60026001541415611ff95760405162461bcd60e51b8152600401610d799061542e565b60026001558061201b5760405162461bcd60e51b8152600401610d799061539e565b6120258133612e9c565b60cc54612043906201000090046001600160a01b03163330846130f3565b5060018055565b612052612b22565b6001600160a01b0316612063611b9a565b6001600160a01b0316146120895760405162461bcd60e51b8152600401610d799061507d565b600260015414156120ac5760405162461bcd60e51b8152600401610d799061542e565b60026001556000806120bc61364a565b60cf805462010000600160781b031916620100006001600160681b0384160217905560405191935091506001600160a01b038316907f045c558fdce4714c5816d53820d27420f4cd860892df203fe636384d8d19aa0190612120908490339061561d565b60405180910390a2604051632904c23960e01b815273__$c4f279750f4bbb575ac7775e752dc00849$__90632904c239906121a5907f0000000000000000000000000000000000000000000000000000000000000000907f000000000000000000000000000000000000000000000000000000000000000090879087906004016148de565b60206040518083038186803b1580156121bd57600080fd5b505af41580156121d1573d6000803e3d6000fd5b505050506040513d601f19601f820116820180604052508101906121f5919061479d565b50610f6061169f565b600080600061220c84612839565b909250905061221b8282613151565b949350505050565b61222b612b22565b6001600160a01b031661223c611b9a565b6001600160a01b0316146122625760405162461bcd60e51b8152600401610d799061507d565b6000816001600160681b03161161228b5760405162461bcd60e51b8152600401610d79906150b2565b60ce80546cffffffffffffffffffffffffff19166001600160681b0392909216919091179055565b60d8546001600160681b031681565b600260015414156122e55760405162461bcd60e51b8152600401610d799061542e565b6002600155806123075760405162461bcd60e51b8152600401610d7990615129565b612043816000613225565b7f000000000000000000000000000000000000000000000000000000000000000081565b6001600160a01b03918216600090815260986020908152604080832093909416825291909152205490565b60d854600160781b90046001600160801b031681565b61237f612b22565b6001600160a01b0316612390611b9a565b6001600160a01b0316146123b65760405162461bcd60e51b8152600401610d799061507d565b6001600160a01b0381166123dc5760405162461bcd60e51b8152600401610d7990614f3c565b60d380546001600160a01b0319166001600160a01b0392909216919091179055565b600260015414156124215760405162461bcd60e51b8152600401610d799061542e565b600260015560d2546001600160a01b031661243a61435a565b506040805160c0810182527f00000000000000000000000000000000000000000000000000000000000000006001600160a01b0390811682527f00000000000000000000000000000000000000000000000000000000000000008116602083015283811682840152610e10606083015260d854600160681b810461ffff166080840152600160781b90046001600160801b031660a083015260d75460d65493516334d0abdd60e21b8152929360009384938493849373__$c4f279750f4bbb575ac7775e752dc00849$__9363d342af7493612536938082169390911691600160a01b90910463ffffffff16908b9060cc9060cf90600401614a4a565b60806040518083038186803b15801561254e57600080fd5b505af4158015612562573d6000803e3d6000fd5b505050506040513d601f19601f8201168201806040525081019061258691906146c8565b93509350935093507fa217999b1c125c2a996f712c5f26a28addad7167bd8a67d5bd5b2a751148abb082826040516125bf92919061566c565b60405180910390a16125d08361380b565b60d880546cffffffffffffffffffffffffff19166001600160681b03851617905560d180546001600160a01b0319166001600160a01b03861617905561261842610e10613151565b60d2805463ffffffff92909216600160a01b0263ffffffff60a01b1990921691909117905561264686613832565b50506001805550505050565b60d854600160681b900461ffff1681565b61266b612b22565b6001600160a01b031661267c611b9a565b6001600160a01b0316146126a25760405162461bcd60e51b8152600401610d799061507d565b6001600160a01b0381166126c85760405162461bcd60e51b8152600401610d7990614cd4565b6065546040516001600160a01b038084169216907f8be0079c531659141344cd1fd0a4f28419497f9722a3daafe3b4186f6b6457e090600090a3606580546001600160a01b0319166001600160a01b0392909216919091179055565b600260015414156127475760405162461bcd60e51b8152600401610d799061542e565b600260015560cc547f00000000000000000000000000000000000000000000000000000000000000006001600160a01b039081166201000090920416146127a05760405162461bcd60e51b8152600401610d7990614f66565b600034116127c05760405162461bcd60e51b8152600401610d7990614cb4565b6127ca3433612e9c565b7f00000000000000000000000000000000000000000000000000000000000000006001600160a01b031663d0e30db0346040518263ffffffff1660e01b81526004016000604051808303818588803b15801561282557600080fd5b505af115801561134a573d6000803e3d6000fd5b60008061284461438f565b506001600160a01b038316600090815260c960209081526040918290208251606081018452905461ffff81168083526201000082046001600160681b031693830193909352600160781b90046001600160801b031692810192909252600111156128bd576128b1846118cd565b6000925092505061290d565b60cf54815161ffff908116600090815260ca602052604081205460cc5491936128f393869391169190610100900460ff166139ad565b90506128fe856118cd565b93506001600160801b03169150505b915091565b600260015414156129355760405162461bcd60e51b8152600401610d799061542e565b600260015533600090815260cb6020526040902080546001600160801b03620100008204169061ffff168161297c5760405162461bcd60e51b8152600401610d7990615056565b60cf5461ffff1681106129a15760405162461bcd60e51b8152600401610d7990614e4a565b33600090815260cb60205260409020805462010000600160901b031916905560d0546129dd90600160801b90046001600160801b031683612d1b565b60d080546001600160801b03928316600160801b02921691909117905561ffff8116600090815260ca602052604081205460cc54612a2591859160ff610100909104166131e2565b90507ff279e6a1f5e320cca91135676d9cb6e44ca8a08c0b88342bcdb1144f6511b568338285604051612a5a939291906148bd565b60405180910390a1612a6c3084613a35565b60008111612a8c5760405162461bcd60e51b8152600401610d7990615465565b610eb93382612d43565b60d7546001600160a01b031681565b612aad612b22565b6001600160a01b0316612abe611b9a565b6001600160a01b031614612ae45760405162461bcd60e51b8152600401610d799061507d565b6305f5e1008110612b075760405162461bcd60e51b8152600401610d79906151c2565b612b1c63031ba30961100d83620f4240613176565b60d55550565b3390565b6001600160a01b038316612b4c5760405162461bcd60e51b8152600401610d79906152df565b6001600160a01b038216612b725760405162461bcd60e51b8152600401610d7990614d1a565b6001600160a01b0380841660008181526098602090815260408083209487168084529490915290819020849055517f8c5be1e5ebec7d5bd14f71427d1e84f3dd0314c0f7b2291e5b200ac8c7c3b92590612bcd908590615614565b60405180910390a3505050565b6001600160a01b038316612c005760405162461bcd60e51b8152600401610d7990615248565b6001600160a01b038216612c265760405162461bcd60e51b8152600401610d7990614b7b565b612c31838383612e96565b612c6e816040518060600160405280602681526020016158a8602691396001600160a01b0386166000908152609760205260409020549190612cef565b6001600160a01b038085166000908152609760205260408082209390935590841681522054612c9d9082613151565b6001600160a01b0380841660008181526097602052604090819020939093559151908516907fddf252ad1be2c89b69c2b068fc378daa952ba7f163c4a11628f55a4df523b3ef90612bcd908590615614565b60008184841115612d135760405162461bcd60e51b8152600401610d799190614b3e565b505050900390565b600082821115612d3d5760405162461bcd60e51b8152600401610d7990614e13565b50900390565b60cc546001600160a01b03620100009091048116907f000000000000000000000000000000000000000000000000000000000000000016811415612e8257604051632e1a7d4d60e01b81526001600160a01b037f00000000000000000000000000000000000000000000000000000000000000001690632e1a7d4d90612dcd908590600401615614565b600060405180830381600087803b158015612de757600080fd5b505af1158015612dfb573d6000803e3d6000fd5b505050506000836001600160a01b031683604051612e189061487c565b60006040518083038185875af1925050503d8060008114612e55576040519150601f19603f3d011682016040523d82523d6000602084013e612e5a565b606091505b5050905080612e7b5760405162461bcd60e51b8152600401610d7990614ef1565b5050612e98565b612e966001600160a01b0382168484613b17565b505b5050565b60cf5461ffff166000612eb784612eb1611f1e565b90613151565b60ce549091506001600160681b0316811115612ee55760405162461bcd60e51b8152600401610d7990614c65565b60cd54600160a01b900466ffffffffffffff16811015612f175760405162461bcd60e51b8152600401610d7990614de5565b826001600160a01b03167f90890809c654f11d6e72a28fa60149770a0d11ec6c92319d6ceb2bb0a4ea1a158584604051612f5292919061566c565b60405180910390a2612f6261438f565b506001600160a01b038316600090815260c9602090815260408083208151606081018352905461ffff81168083526201000082046001600160681b031683860152600160781b9091046001600160801b031682840152845260ca90925282205460cc54919291612fde918491879190610100900460ff166139ad565b82519091506001600160681b0387169061ffff16851415613018576020830151600090613014906001600160681b031689613151565b9150505b6130218161380b565b6040805160608101825261ffff87811682526001600160681b0384811660208085019182526001600160801b038881168688019081526001600160a01b038e16600090815260c990935296909120945185549251965161ffff1990931694169390931762010000600160781b03191662010000959092169490940217600160781b600160f81b031916600160781b9382169390930292909217905560d0546130ca911688613151565b60d080546001600160801b0319166001600160801b039290921691909117905550505050505050565b61314b846323b872dd60e01b85858560405160240161311493929190614908565b60408051601f198184030181529190526020810180516001600160e01b03166001600160e01b031990931692909217909152613b36565b50505050565b600082820183811015610d115760405162461bcd60e51b8152600401610d7990614d5c565b60008261318557506000610c5a565b8282028284828161319257fe5b0414610d115760405162461bcd60e51b8152600401610d7990614ff5565b60008082116131d15760405162461bcd60e51b8152600401610d7990614eba565b8183816131da57fe5b049392505050565b6000600183116132045760405162461bcd60e51b8152600401610d79906153bf565b600061321a60ff8416600a0a61100d8787613176565b905061221b8561380b565b61322e8261380b565b33600090815260c96020908152604080832060cf54815461ffff80821680885260ca87528588205460cc5487516060810189528381526201000086046001600160681b031699810199909952600160781b9094046001600160801b0316968801969096529396921694929391926132b1929091869190610100900460ff166139ad565b6001600160801b03169050846132c757856132c9565b805b9550600086116132eb5760405162461bcd60e51b8152600401610d7990615129565b8086111561330b5760405162461bcd60e51b8152600401610d7990614d93565b8282106133285783546201000090046001600160681b031661332b565b60005b33600090815260c96020526040902080546001600160681b0392909216620100000262010000600160781b031990921691909117905561336b8187612d1b565b33600081815260c960205260409081902080546001600160801b0394909416600160781b02600160781b600160f81b03199094169390931790925590517fe5b754fb1abb7f01b499791d0b820ae3b6af3424ac1c59768edb53f4ec31a929906133d7908990869061566c565b60405180910390a26133ea303388612bda565b505050505050565b6001600160801b038111156134195760405162461bcd60e51b8152600401610d799061535a565b50565b600061342730613bc5565b15905090565b600054610100900460ff1680613446575061344661341c565b80613454575060005460ff16155b6134705760405162461bcd60e51b8152600401610d7990614f85565b600054610100900460ff1615801561349b576000805460ff1961ff0019909116610100171660011790555b60405163e5e014dd60e01b815273__$c4f279750f4bbb575ac7775e752dc00849$__9063e5e014dd906134dc908b908b908a908a908a908a9060040161492c565b60006040518083038186803b1580156134f457600080fd5b505af4158015613508573d6000803e3d6000fd5b50505050613514613bcb565b61351e8484613c55565b613526613ceb565b61352f88612663565b60d380546001600160a01b0319166001600160a01b03891617905560d485905561356463031ba30961100d88620f4240613176565b60d5558160cc6135748282615735565b505060cc546040516370a0823160e01b8152620100009091046001600160a01b0316906370a08231906135ab90309060040161487f565b60206040518083038186803b1580156135c357600080fd5b505afa1580156135d7573d6000803e3d6000fd5b505050506040513d601f19601f820116820180604052508101906135fb919061479d565b60cf805461ffff196001600160681b0393909316600160781b02600160781b600160e01b0319909116179190911660011790558015613640576000805461ff00191690555b5050505050505050565b60d2546000908190600160a01b900463ffffffff1642101561367e5760405162461bcd60e51b8152600401610d7990615036565b60d1546001600160a01b0316806136a75760405162461bcd60e51b8152600401610d799061548e565b600080600073__$c4f279750f4bbb575ac7775e752dc00849$__63afc0a5db6136ce610c66565b60cc5460d05460405160e085901b6001600160e01b031916815261372493926201000081046001600160a01b03169261010090910460ff16916001600160801b0380831692600160801b90041690600401615634565b60606040518083038186803b15801561373c57600080fd5b505af4158015613750573d6000803e3d6000fd5b505050506040513d601f19601f8201168201806040525081019061377491906147d9565b60d280546001600160a01b0389166001600160a01b03199182161790915560d18054909116905560cf5461ffff16600081815260ca6020526040902083905592955090935091506137ce6137c785613d69565b8590612d1b565b60d080546001600160801b031916905560cf805461ffff19166001840161ffff1617905593506137fe3083613e6f565b5092945090925050509091565b6001600160681b038111156134195760405162461bcd60e51b8152600401610d79906150d3565b60d280546001600160a01b031916905560cf546201000090046001600160681b0316806138715760cf54600160781b90046001600160681b0316613873565b805b60cf805462010000600160781b03196001600160681b0393909316600160781b02600160781b600160e01b0319909116179190911690556001600160a01b03821615612e9857604051636c6fe87f60e11b815260009073__$c4f279750f4bbb575ac7775e752dc00849$__9063d8dfd0fe90613913907f00000000000000000000000000000000000000000000000000000000000000009060040161487f565b60206040518083038186803b15801561392b57600080fd5b505af415801561393f573d6000803e3d6000fd5b505050506040513d601f19601f82011682018060405250810190613963919061479d565b9050826001600160a01b03167f7e830f7c1771deb1bdb35c4a7e6051bbac32b376f7f4e4976b8618b0b11997f782336040516139a092919061561d565b60405180910390a2505050565b835160009061ffff16158015906139c85750845161ffff1684115b15613a2a5760006139e786602001516001600160681b03168585613f23565b6001600160681b031690506139fb8161380b565b6040860151600090613a16906001600160801b031683613151565b9050613a21816133f2565b915061221b9050565b505050506040015190565b6001600160a01b038216613a5b5760405162461bcd60e51b8152600401610d799061514a565b613a6782600083612e96565b613aa481604051806060016040528060228152602001615886602291396001600160a01b0385166000908152609760205260409020549190612cef565b6001600160a01b038316600090815260976020526040902055609954613aca9082612d1b565b6099556040516000906001600160a01b038416907fddf252ad1be2c89b69c2b068fc378daa952ba7f163c4a11628f55a4df523b3ef90613b0b908590615614565b60405180910390a35050565b612e968363a9059cbb60e01b8484604051602401613114929190614ad1565b6060613b8b826040518060400160405280602081526020017f5361666545524332303a206c6f772d6c6576656c2063616c6c206661696c6564815250856001600160a01b0316613f669092919063ffffffff16565b805190915015612e965780806020019051810190613ba99190614706565b612e965760405162461bcd60e51b8152600401610d79906153e4565b3b151590565b600054610100900460ff1680613be45750613be461341c565b80613bf2575060005460ff16155b613c0e5760405162461bcd60e51b8152600401610d7990614f85565b600054610100900460ff16158015613c39576000805460ff1961ff0019909116610100171660011790555b613c41613f75565b8015613419576000805461ff001916905550565b600054610100900460ff1680613c6e5750613c6e61341c565b80613c7c575060005460ff16155b613c985760405162461bcd60e51b8152600401610d7990614f85565b600054610100900460ff16158015613cc3576000805460ff1961ff0019909116610100171660011790555b613ccb613ffb565b613cd5838361407c565b8015612e96576000805461ff0019169055505050565b600054610100900460ff1680613d045750613d0461341c565b80613d12575060005460ff16155b613d2e5760405162461bcd60e51b8152600401610d7990614f85565b600054610100900460ff16158015613d59576000805460ff1961ff0019909116610100171660011790555b613d61613ffb565b613c41614135565b600080600073__$c4f279750f4bbb575ac7775e752dc00849$__63d38e319760cf8660d45460d5546040518563ffffffff1660e01b8152600401613db09493929190615539565b60606040518083038186803b158015613dc857600080fd5b505af4158015613ddc573d6000803e3d6000fd5b505050506040513d601f19601f82011682018060405250810190613e0091906147d9565b92505091506000811115610d115760d354613e24906001600160a01b031682612d43565b60cf546040517fada62e8302f1310b252c959c188269b9a41b22ae1730d21f69eec09488dee14491613e60918591859161ffff9091169061567a565b60405180910390a19392505050565b6001600160a01b038216613e955760405162461bcd60e51b8152600401610d79906154b3565b613ea160008383612e96565b609954613eae9082613151565b6099556001600160a01b038216600090815260976020526040902054613ed49082613151565b6001600160a01b0383166000818152609760205260408082209390935591519091907fddf252ad1be2c89b69c2b068fc378daa952ba7f163c4a11628f55a4df523b3ef90613b0b908590615614565b600060018311613f455760405162461bcd60e51b8152600401610d79906153bf565b6000613f5b8461100d8760ff8716600a0a613176565b905061221b8161380b565b606061221b848460008561420f565b600054610100900460ff1680613f8e5750613f8e61341c565b80613f9c575060005460ff16155b613fb85760405162461bcd60e51b8152600401610d7990614f85565b600054610100900460ff16158015613fe3576000805460ff1961ff0019909116610100171660011790555b600180558015613419576000805461ff001916905550565b600054610100900460ff1680614014575061401461341c565b80614022575060005460ff16155b61403e5760405162461bcd60e51b8152600401610d7990614f85565b600054610100900460ff16158015613c41576000805460ff1961ff0019909116610100171660011790558015613419576000805461ff001916905550565b600054610100900460ff1680614095575061409561341c565b806140a3575060005460ff16155b6140bf5760405162461bcd60e51b8152600401610d7990614f85565b600054610100900460ff161580156140ea576000805460ff1961ff0019909116610100171660011790555b82516140fd90609a9060208601906143af565b50815161411190609b9060208501906143af565b50609c805460ff191660121790558015612e96576000805461ff0019169055505050565b600054610100900460ff168061414e575061414e61341c565b8061415c575060005460ff16155b6141785760405162461bcd60e51b8152600401610d7990614f85565b600054610100900460ff161580156141a3576000805460ff1961ff0019909116610100171660011790555b60006141ad612b22565b606580546001600160a01b0319166001600160a01b038316908117909155604051919250906000907f8be0079c531659141344cd1fd0a4f28419497f9722a3daafe3b4186f6b6457e0908290a3508015613419576000805461ff001916905550565b6060824710156142315760405162461bcd60e51b8152600401610d7990614e74565b61423a85613bc5565b6142565760405162461bcd60e51b8152600401610d7990615323565b60006060866001600160a01b031685876040516142739190614860565b60006040518083038185875af1925050503d80600081146142b0576040519150601f19603f3d011682016040523d82523d6000602084013e6142b5565b606091505b50915091506142c58282866142d0565b979650505050505050565b606083156142df575081610d11565b8251156142ef5782518084602001fd5b8160405162461bcd60e51b8152600401610d799190614b3e565b6040518060c0016040528060006001600160a01b0316815260200160006001600160a01b0316815260200160006001600160a01b031681526020016000815260200160008152602001600081525090565b6040805160c081018252600080825260208201819052918101829052606081018290526080810182905260a081019190915290565b604080516060810182526000808252602082018190529181019190915290565b828054600181600116156101000203166002900490600052602060002090601f016020900481019282601f106143f057805160ff191683800117855561441d565b8280016001018555821561441d579182015b8281111561441d578251825591602001919060010190614402565b5061442992915061442d565b5090565b5b80821115614429576000815560010161442e565b803561102681615862565b600082601f83011261445d578081fd5b813567ffffffffffffffff8082111561447257fe5b604051601f8301601f19168101602001828111828210171561449057fe5b6040528281529250828483016020018610156144ab57600080fd5b8260208601602083013760006020848301015250505092915050565b600060c082840312156144d8578081fd5b50919050565b80356001600160681b038116811461102657600080fd5b803563ffffffff8116811461102657600080fd5b803566ffffffffffffff8116811461102657600080fd5b600060208284031215614531578081fd5b8135610d1181615862565b6000806040838503121561454e578081fd5b823561455981615862565b9150602083013561456981615862565b809150509250929050565b600080600060608486031215614588578081fd5b833561459381615862565b925060208401356145a381615862565b929592945050506040919091013590565b60008060008060008060008060008060006102008c8e0312156145d5578687fd5b6145de8c614442565b9a506145ec60208d01614442565b995060408c0135985060608c0135975067ffffffffffffffff8060808e01351115614615578788fd5b6146258e60808f01358f0161444d565b97508060a08e01351115614637578687fd5b506146488d60a08e01358e0161444d565b955061465660c08d01614442565b945061466460e08d01614442565b93506146736101008d016144f5565b92506101208c0135915061468b8d6101408e016144c7565b90509295989b509295989b9093969950565b600080604083850312156146af578182fd5b82356146ba81615862565b946020939093013593505050565b600080600080608085870312156146dd578384fd5b84516146e881615862565b60208601516040870151606090970151919890975090945092505050565b600060208284031215614717578081fd5b8151610d1181615877565b600060208284031215614733578081fd5b610d11826144de565b60006020828403121561474d578081fd5b81356001600160801b0381168114610d11578182fd5b600060208284031215614774578081fd5b813561ffff81168114610d11578182fd5b600060208284031215614796578081fd5b5035919050565b6000602082840312156147ae578081fd5b5051919050565b600080604083850312156147c7578182fd5b82359150602083013561456981615862565b6000806000606084860312156147ed578081fd5b8351925060208401519150604084015190509250925092565b6001600160a01b03169052565b6000815180845261482b8160208601602086016156cd565b601f01601f19169290920160200192915050565b6001600160681b03169052565b66ffffffffffffff169052565b60ff169052565b600082516148728184602087016156cd565b9190910192915050565b90565b6001600160a01b0391909116815260200190565b6001600160a01b039390931683526001600160801b03919091166020830152604082015260600190565b6001600160a01b039390931683526020830191909152604082015260600190565b6001600160a01b039485168152928416602084015292166040820152606081019190915260800190565b6001600160a01b039384168152919092166020820152604081019190915260600190565b6001600160a01b03878116825286166020820152604081018590526101606060820181905260009061496083820187614813565b905082810360808401526149748186614813565b915050823561498281615877565b151560a0830152602083013560ff8116811461499d57600080fd5b6149aa60c0840182614859565b506149b760408401614442565b6149c460e0840182614806565b506149d160608401614442565b6149df610100840182614806565b506149ec60808401614509565b6149fa61012084018261484c565b50614a0760a084016144de565b614a1561014084018261483f565b50979650505050505050565b6001600160a01b03938416815291909216602082015263ffffffff909116604082015260600190565b60006101608201905060018060a01b038089168352808816602084015263ffffffff871660408401528086511660608401528060208701511660808401528060408701511660a084015250606085015160c083015261ffff60808601511660e083015260a08501516101008301528361012083015282610140830152979650505050505050565b6001600160a01b03929092168252602082015260400190565b901515815260200190565b951515865260ff9490941660208601526001600160a01b0392831660408601529116606084015266ffffffffffffff1660808301526001600160681b031660a082015260c00190565b600060208252610d116020830184614813565b60208082526010908201526f125b9d985b1a5908191a5cd8dbdd5b9d60821b604082015260600190565b60208082526023908201527f45524332303a207472616e7366657220746f20746865207a65726f206164647260408201526265737360e81b606082015260800190565b6020808252600890820152674f766572666c6f7760c01b604082015260600190565b60208082526011908201527010afb9ba3934b5b2a9b2b632b1ba34b7b760791b604082015260600190565b6020808252601590820152742163757272656e744f746f6b656e5072656d69756d60581b604082015260600190565b60208082526011908201527010afb0bab1ba34b7b7223ab930ba34b7b760791b604082015260600190565b6020808252600a90820152690457863656564206361760b41b604082015260600190565b6020808252601190820152700857dc1c995b5a5d5b511a5cd8dbdd5b9d607a1b604082015260600190565b6020808252600690820152652176616c756560d01b604082015260600190565b60208082526026908201527f4f776e61626c653a206e6577206f776e657220697320746865207a65726f206160408201526564647265737360d01b606082015260800190565b60208082526022908201527f45524332303a20617070726f766520746f20746865207a65726f206164647265604082015261737360f01b606082015260800190565b6020808252601b908201527f536166654d6174683a206164646974696f6e206f766572666c6f770000000000604082015260600190565b6020808252601190820152704578636565647320617661696c61626c6560781b604082015260600190565b6020808252600d908201526c125b9d985b1a59081c9bdd5b99609a1b604082015260600190565b602080825260149082015273496e73756666696369656e742062616c616e636560601b604082015260600190565b6020808252601e908201527f536166654d6174683a207375627472616374696f6e206f766572666c6f770000604082015260600190565b60208082526010908201526f149bdd5b99081b9bdd0818db1bdcd95960821b604082015260600190565b60208082526026908201527f416464726573733a20696e73756666696369656e742062616c616e636520666f6040820152651c8818d85b1b60d21b606082015260800190565b6020808252601a908201527f536166654d6174683a206469766973696f6e206279207a65726f000000000000604082015260600190565b602080825260089082015267217375636365737360c01b604082015260600190565b6020808252600f908201526e373ab6a937bab73239901f1e901a9960891b604082015260600190565b60208082526010908201526f085b995dd19959549958da5c1a595b9d60821b604082015260600190565b602080825260059082015264042ae8aa8960db1b604082015260600190565b6020808252602e908201527f496e697469616c697a61626c653a20636f6e747261637420697320616c72656160408201526d191e481a5b9a5d1a585b1a5e995960921b606082015260800190565b602080825260089082015267216f746f6b656e7360c01b604082015260600190565b60208082526021908201527f536166654d6174683a206d756c7469706c69636174696f6e206f766572666c6f6040820152607760f81b606082015260800190565b60208082526006908201526521726561647960d01b604082015260600190565b6020808252600d908201526c139bdd081a5b9a5d1a585d1959609a1b604082015260600190565b6020808252818101527f4f776e61626c653a2063616c6c6572206973206e6f7420746865206f776e6572604082015260600190565b6020808252600790820152660216e65774361760cc1b604082015260600190565b6020808252600590820152640f954c4c0d60da1b604082015260600190565b60208082526017908201527f496e76616c696420706572666f726d616e636520666565000000000000000000604082015260600190565b6020808252600790820152662173686172657360c81b604082015260600190565b60208082526021908201527f45524332303a206275726e2066726f6d20746865207a65726f206164647265736040820152607360f81b606082015260800190565b60208082526018908201527f496e76616c69642061756374696f6e206475726174696f6e0000000000000000604082015260600190565b602080825260169082015275496e76616c6964206d616e6167656d656e742066656560501b604082015260600190565b60208082526016908201527510afb7b83a34b7b739a83932b6b4bab6a83934b1b2b960511b604082015260600190565b6020808252600c908201526b21737472696b65507269636560a01b604082015260600190565b60208082526025908201527f45524332303a207472616e736665722066726f6d20746865207a65726f206164604082015264647265737360d81b606082015260800190565b6020808252600d908201526c115e18d9595908185b5bdd5b9d609a1b604082015260600190565b6020808252601190820152704578697374696e6720776974686472617760781b604082015260600190565b60208082526024908201527f45524332303a20617070726f76652066726f6d20746865207a65726f206164646040820152637265737360e01b606082015260800190565b6020808252601d908201527f416464726573733a2063616c6c20746f206e6f6e2d636f6e7472616374000000604082015260600190565b60208082526005908201526407caa6264760db1b604082015260600190565b6020808252600b908201526a125b9a5d1a585b1a5e995960aa1b604082015260600190565b60208082526007908201526608585b5bdd5b9d60ca1b604082015260600190565b6020808252600b908201526a496e76616c69642070707360a81b604082015260600190565b6020808252602a908201527f5361666545524332303a204552433230206f7065726174696f6e20646964206e6040820152691bdd081cdd58d8d9595960b21b606082015260800190565b6020808252601f908201527f5265656e7472616e637947756172643a207265656e7472616e742063616c6c00604082015260600190565b6020808252600f908201526e085dda5d1a191c985dd05b5bdd5b9d608a1b604082015260600190565b6020808252600b908201526a10b732bc3a27b83a34b7b760a91b604082015260600190565b6020808252601f908201527f45524332303a206d696e7420746f20746865207a65726f206164647265737300604082015260600190565b81516001600160a01b03908116825260208084015182169083015260408084015190911690820152606080830151908201526080808301519082015260a0918201519181019190915260c00190565b93845260208401929092526040830152606082015260800190565b6001600160681b0391909116815260200190565b6001600160801b0391909116815260200190565b61ffff91909116815260200190565b61ffff9590951685526001600160681b0393841660208601529190921660408401526001600160801b03918216606084015216608082015260a00190565b61ffff9390931683526001600160681b039190911660208301526001600160801b0316604082015260600190565b61ffff9290921682526001600160801b0316602082015260400190565b90815260200190565b9182526001600160a01b0316602082015260400190565b9485526001600160a01b0393909316602085015260ff91909116604084015260608301526001600160801b0316608082015260a00190565b918252602082015260400190565b928352602083019190915261ffff16604082015260600190565b63ffffffff91909116815260200190565b63ffffffff92909216825261ffff16602082015260400190565b60ff91909116815260200190565b60005b838110156156e85781810151838201526020016156d0565b8381111561314b5750506000910152565b80356001600160a01b038116811461102657fe5b80356001600160681b038116811461102657fe5b803566ffffffffffffff8116811461102657fe5b8135801515811461574257fe5b60ff1982541660ff8216811783555050602082013560ff8116811461576357fe5b61576f816001846157fc565b5061578761577f604084016156f9565b6002836157d6565b615793606083016156f9565b600182016157a3826000836157d6565b6157ba6157b260808601615721565b60148361583e565b5050612e986157cb60a0840161570d565b60006002840161581a565b805460089290920292831b6001600160a01b0390931b9283169219909116919091179055565b80546008830260ff811b8086831b1681198416178455505050505050565b8054600883026001600160681b03811b8086831b1681198416178455505050505050565b80546008830266ffffffffffffff811b8086831b1681198416178455505050505050565b6001600160a01b038116811461341957600080fd5b801515811461341957600080fdfe45524332303a206275726e20616d6f756e7420657863656564732062616c616e636545524332303a207472616e7366657220616d6f756e7420657863656564732062616c616e636545524332303a207472616e7366657220616d6f756e74206578636565647320616c6c6f77616e636545524332303a2064656372656173656420616c6c6f77616e63652062656c6f77207a65726fa2646970667358221220f82e8ec9455e8eee80ad33113792ac81e103278710f1e75779079431b7f9ff3664736f6c63430007030033",
  "libraries": {
    "VaultLifecycle": "0x9bCF7E35E8B852de70ddB993BC461d1f4624e5AC"
  },
  "devdoc": {
    "kind": "dev",
    "methods": {
      "accountVaultBalance(address)": {
        "params": {
          "account": "is the address to lookup balance for"
        }
      },
      "allowance(address,address)": {
        "details": "See {IERC20-allowance}."
      },
      "approve(address,uint256)": {
        "details": "See {IERC20-approve}. Requirements: - `spender` cannot be the zero address."
      },
      "balanceOf(address)": {
        "details": "See {IERC20-balanceOf}."
      },
      "constructor": {
        "params": {
          "_gammaController": "is the contract address for opyn actions",
          "_gnosisEasyAuction": "is the contract address that facilitates gnosis auctions",
          "_marginPool": "is the contract address for providing collateral to opyn",
          "_oTokenFactory": "is the contract address for minting new opyn option types (strikes, asset, expiry)",
          "_usdc": "is the USDC contract",
          "_weth": "is the Wrapped Ether contract"
        }
      },
      "decreaseAllowance(address,uint256)": {
        "details": "Atomically decreases the allowance granted to `spender` by the caller. This is an alternative to {approve} that can be used as a mitigation for problems described in {IERC20-approve}. Emits an {Approval} event indicating the updated allowance. Requirements: - `spender` cannot be the zero address. - `spender` must have allowance for the caller of at least `subtractedValue`."
      },
      "deposit(uint256)": {
        "params": {
          "amount": "is the amount of `asset` to deposit"
        }
      },
      "depositFor(uint256,address)": {
        "params": {
          "amount": "is the amount of `asset` to deposit",
          "creditor": "is the address that can claim/withdraw deposited amount"
        }
      },
      "increaseAllowance(address,uint256)": {
        "details": "Atomically increases the allowance granted to `spender` by the caller. This is an alternative to {approve} that can be used as a mitigation for problems described in {IERC20-approve}. Emits an {Approval} event indicating the updated allowance. Requirements: - `spender` cannot be the zero address."
      },
      "initiateWithdraw(uint128)": {
        "params": {
          "shares": "is the number of shares to withdraw"
        }
      },
      "name()": {
        "details": "Returns the name of the token."
      },
      "owner()": {
        "details": "Returns the address of the current owner."
      },
      "redeem(uint256)": {
        "params": {
          "shares": "is the number of shares to redeem"
        }
      },
      "renounceOwnership()": {
        "details": "Leaves the contract without owner. It will not be possible to call `onlyOwner` functions anymore. Can only be called by the current owner. NOTE: Renouncing ownership will leave the contract without an owner, thereby removing any functionality that is only available to the owner."
      },
      "setAuctionDuration(uint256)": {
        "params": {
          "newAuctionDuration": "is the auction duration"
        }
      },
      "setCap(uint104)": {
        "params": {
          "newCap": "is the new cap for deposits"
        }
      },
      "setFeeRecipient(address)": {
        "params": {
          "newFeeRecipient": "is the address of the new fee recipient"
        }
      },
      "setManagementFee(uint256)": {
        "params": {
          "newManagementFee": "is the management fee (6 decimals). ex: 2 * 10 ** 6 = 2%"
        }
      },
      "setPerformanceFee(uint256)": {
        "params": {
          "newPerformanceFee": "is the performance fee (6 decimals). ex: 20 * 10 ** 6 = 20%"
        }
      },
      "setPremiumDiscount(uint16)": {
        "params": {
          "newPremiumDiscount": "is the premium discount"
        }
      },
      "setStrikePrice(uint128)": {
        "params": {
          "strikePrice": "is the strike price of the new oTokens (decimals = 8)"
        }
      },
      "shareBalances(address)": {
        "params": {
          "account": "is the account to lookup share balance for"
        },
        "returns": {
          "heldByAccount": "is the shares held by account",
          "heldByVault": "is the shares held on the vault (unredeemedShares)"
        }
      },
      "shares(address)": {
        "params": {
          "account": "is the account to lookup share balance for"
        },
        "returns": {
          "_0": "the share balance"
        }
      },
      "symbol()": {
        "details": "Returns the symbol of the token, usually a shorter version of the name."
      },
      "totalBalance()": {
        "returns": {
          "_0": "total balance of the vault, including the amounts locked in third party protocols"
        }
      },
      "totalSupply()": {
        "details": "See {IERC20-totalSupply}."
      },
      "transfer(address,uint256)": {
        "details": "See {IERC20-transfer}. Requirements: - `recipient` cannot be the zero address. - the caller must have a balance of at least `amount`."
      },
      "transferFrom(address,address,uint256)": {
        "details": "See {IERC20-transferFrom}. Emits an {Approval} event indicating the updated allowance. This is not required by the EIP. See the note at the beginning of {ERC20}. Requirements: - `sender` and `recipient` cannot be the zero address. - `sender` must have a balance of at least `amount`. - the caller must have allowance for ``sender``'s tokens of at least `amount`."
      },
      "transferOwnership(address)": {
        "details": "Transfers ownership of the contract to a new account (`newOwner`). Can only be called by the current owner."
      },
      "withdrawInstantly(uint256)": {
        "params": {
          "amount": "is the amount to withdraw"
        }
      }
    },
    "version": 1
  },
  "userdoc": {
    "kind": "user",
    "methods": {
      "accountVaultBalance(address)": {
        "notice": "Returns the underlying balance held on the vault for the account"
      },
      "burnRemainingOTokens()": {
        "notice": "Burn the remaining oTokens left over from gnosis auction."
      },
      "commitAndClose()": {
        "notice": "Sets the next option the vault will be shorting, and closes the existing short.         This allows all the users to withdraw if the next option is malicious."
      },
      "completeWithdraw()": {
        "notice": "Completes a scheduled withdrawal from a past round. Uses finalized pps for the round"
      },
      "constructor": {
        "notice": "Initializes the contract with immutable variables"
      },
      "decimals()": {
        "notice": "Returns the token decimals"
      },
      "deposit(uint256)": {
        "notice": "Deposits the `asset` from msg.sender."
      },
      "depositETH()": {
        "notice": "Deposits ETH into the contract and mint vault shares. Reverts if the asset is not WETH."
      },
      "depositFor(uint256,address)": {
        "notice": "Deposits the `asset` from msg.sender added to `creditor`'s deposit.Used for vault -> vault deposits on the user's behalf"
      },
      "depositReceipts(address)": {
        "notice": "Stores the user's pending deposit for the round"
      },
      "initialize(address,address,uint256,uint256,string,string,address,address,uint32,uint256,(bool,uint8,address,address,uint56,uint104))": {
        "notice": "Initializes the OptionVault contract with storage variables."
      },
      "initiateWithdraw(uint128)": {
        "notice": "Initiates a withdrawal that can be processed once the round completes"
      },
      "maxRedeem()": {
        "notice": "Redeems the entire unredeemedShares balance that is owed to the account"
      },
      "pricePerShare()": {
        "notice": "The price of a unit of share denominated in the `collateral`"
      },
      "redeem(uint256)": {
        "notice": "Redeems shares that are owed to the account"
      },
      "rollToNextOption()": {
        "notice": "Rolls the vault's funds into a new short position."
      },
      "roundPricePerShare(uint16)": {
        "notice": "On every round's close, the pricePerShare value of an rTHETA token is stored This is used to determine the number of shares to be returned to a user with their DepositReceipt.depositAmount"
      },
      "setAuctionDuration(uint256)": {
        "notice": "Sets the new auction duration"
      },
      "setCap(uint104)": {
        "notice": "Sets a new cap for deposits"
      },
      "setFeeRecipient(address)": {
        "notice": "Sets the new fee recipient"
      },
      "setManagementFee(uint256)": {
        "notice": "Sets the management fee for the vault"
      },
      "setPerformanceFee(uint256)": {
        "notice": "Sets the performance fee for the vault"
      },
      "setPremiumDiscount(uint16)": {
        "notice": "Sets the new discount on premiums for options we are selling"
      },
      "setStrikePrice(uint128)": {
        "notice": "Optionality to set strike price manually"
      },
      "shareBalances(address)": {
        "notice": "Getter for returning the account's share balance split between account and vault holdings"
      },
      "shares(address)": {
        "notice": "Getter for returning the account's share balance including unredeemed shares"
      },
      "startAuction()": {
        "notice": "Initiate the gnosis auction."
      },
      "totalBalance()": {
        "notice": "Returns the vault's total balance, including the amounts locked into a short position"
      },
      "withdrawInstantly(uint256)": {
        "notice": "Withdraws the assets on the vault using the outstanding `DepositReceipt.amount`"
      },
      "withdrawals(address)": {
        "notice": "Stores pending user withdrawals"
      }
    },
    "version": 1
  },
  "storageLayout": {
    "storage": [
      {
        "astId": 492,
        "contract": "contracts/vaults/BaseVaults/RibbonThetaVault.sol:RibbonThetaVault",
        "label": "_initialized",
        "offset": 0,
        "slot": "0",
        "type": "t_bool"
      },
      {
        "astId": 495,
        "contract": "contracts/vaults/BaseVaults/RibbonThetaVault.sol:RibbonThetaVault",
        "label": "_initializing",
        "offset": 1,
        "slot": "0",
        "type": "t_bool"
      },
      {
        "astId": 1462,
        "contract": "contracts/vaults/BaseVaults/RibbonThetaVault.sol:RibbonThetaVault",
        "label": "_status",
        "offset": 0,
        "slot": "1",
        "type": "t_uint256"
      },
      {
        "astId": 1505,
        "contract": "contracts/vaults/BaseVaults/RibbonThetaVault.sol:RibbonThetaVault",
        "label": "__gap",
        "offset": 0,
        "slot": "2",
        "type": "t_array(t_uint256)49_storage"
      },
      {
        "astId": 1447,
        "contract": "contracts/vaults/BaseVaults/RibbonThetaVault.sol:RibbonThetaVault",
        "label": "__gap",
        "offset": 0,
        "slot": "51",
        "type": "t_array(t_uint256)50_storage"
      },
      {
        "astId": 10,
        "contract": "contracts/vaults/BaseVaults/RibbonThetaVault.sol:RibbonThetaVault",
        "label": "_owner",
        "offset": 0,
        "slot": "101",
        "type": "t_address"
      },
      {
        "astId": 129,
        "contract": "contracts/vaults/BaseVaults/RibbonThetaVault.sol:RibbonThetaVault",
        "label": "__gap",
        "offset": 0,
        "slot": "102",
        "type": "t_array(t_uint256)49_storage"
      },
      {
        "astId": 571,
        "contract": "contracts/vaults/BaseVaults/RibbonThetaVault.sol:RibbonThetaVault",
        "label": "_balances",
        "offset": 0,
        "slot": "151",
        "type": "t_mapping(t_address,t_uint256)"
      },
      {
        "astId": 577,
        "contract": "contracts/vaults/BaseVaults/RibbonThetaVault.sol:RibbonThetaVault",
        "label": "_allowances",
        "offset": 0,
        "slot": "152",
        "type": "t_mapping(t_address,t_mapping(t_address,t_uint256))"
      },
      {
        "astId": 579,
        "contract": "contracts/vaults/BaseVaults/RibbonThetaVault.sol:RibbonThetaVault",
        "label": "_totalSupply",
        "offset": 0,
        "slot": "153",
        "type": "t_uint256"
      },
      {
        "astId": 581,
        "contract": "contracts/vaults/BaseVaults/RibbonThetaVault.sol:RibbonThetaVault",
        "label": "_name",
        "offset": 0,
        "slot": "154",
        "type": "t_string_storage"
      },
      {
        "astId": 583,
        "contract": "contracts/vaults/BaseVaults/RibbonThetaVault.sol:RibbonThetaVault",
        "label": "_symbol",
        "offset": 0,
        "slot": "155",
        "type": "t_string_storage"
      },
      {
        "astId": 585,
        "contract": "contracts/vaults/BaseVaults/RibbonThetaVault.sol:RibbonThetaVault",
        "label": "_decimals",
        "offset": 0,
        "slot": "156",
        "type": "t_uint8"
      },
      {
        "astId": 1080,
        "contract": "contracts/vaults/BaseVaults/RibbonThetaVault.sol:RibbonThetaVault",
        "label": "__gap",
        "offset": 0,
        "slot": "157",
        "type": "t_array(t_uint256)44_storage"
      },
      {
        "astId": 8074,
        "contract": "contracts/vaults/BaseVaults/RibbonThetaVault.sol:RibbonThetaVault",
        "label": "depositReceipts",
        "offset": 0,
        "slot": "201",
        "type": "t_mapping(t_address,t_struct(DepositReceipt)4696_storage)"
      },
      {
        "astId": 8079,
        "contract": "contracts/vaults/BaseVaults/RibbonThetaVault.sol:RibbonThetaVault",
        "label": "roundPricePerShare",
        "offset": 0,
        "slot": "202",
        "type": "t_mapping(t_uint16,t_uint256)"
      },
      {
        "astId": 8084,
        "contract": "contracts/vaults/BaseVaults/RibbonThetaVault.sol:RibbonThetaVault",
        "label": "withdrawals",
        "offset": 0,
        "slot": "203",
        "type": "t_mapping(t_address,t_struct(Withdrawal)4701_storage)"
      },
      {
        "astId": 8086,
        "contract": "contracts/vaults/BaseVaults/RibbonThetaVault.sol:RibbonThetaVault",
        "label": "vaultParams",
        "offset": 0,
        "slot": "204",
        "type": "t_struct(VaultParams)4671_storage"
      },
      {
        "astId": 8088,
        "contract": "contracts/vaults/BaseVaults/RibbonThetaVault.sol:RibbonThetaVault",
        "label": "vaultState",
        "offset": 0,
        "slot": "207",
        "type": "t_struct(VaultState)4689_storage"
      },
      {
        "astId": 8090,
        "contract": "contracts/vaults/BaseVaults/RibbonThetaVault.sol:RibbonThetaVault",
        "label": "optionState",
        "offset": 0,
        "slot": "209",
        "type": "t_struct(OptionState)4678_storage"
      },
      {
        "astId": 8092,
        "contract": "contracts/vaults/BaseVaults/RibbonThetaVault.sol:RibbonThetaVault",
        "label": "feeRecipient",
        "offset": 0,
        "slot": "211",
        "type": "t_address"
      },
      {
        "astId": 8094,
        "contract": "contracts/vaults/BaseVaults/RibbonThetaVault.sol:RibbonThetaVault",
        "label": "performanceFee",
        "offset": 0,
        "slot": "212",
        "type": "t_uint256"
      },
      {
        "astId": 8096,
        "contract": "contracts/vaults/BaseVaults/RibbonThetaVault.sol:RibbonThetaVault",
        "label": "managementFee",
        "offset": 0,
        "slot": "213",
        "type": "t_uint256"
      },
      {
        "astId": 8099,
        "contract": "contracts/vaults/BaseVaults/RibbonThetaVault.sol:RibbonThetaVault",
        "label": "optionsPremiumPricer",
        "offset": 0,
        "slot": "214",
        "type": "t_address"
      },
      {
        "astId": 8101,
        "contract": "contracts/vaults/BaseVaults/RibbonThetaVault.sol:RibbonThetaVault",
        "label": "strikeSelection",
        "offset": 0,
        "slot": "215",
        "type": "t_address"
      },
      {
        "astId": 8103,
        "contract": "contracts/vaults/BaseVaults/RibbonThetaVault.sol:RibbonThetaVault",
        "label": "premiumDiscount",
        "offset": 20,
        "slot": "215",
        "type": "t_uint32"
      },
      {
        "astId": 8105,
        "contract": "contracts/vaults/BaseVaults/RibbonThetaVault.sol:RibbonThetaVault",
        "label": "currentOtokenPremium",
        "offset": 0,
        "slot": "216",
        "type": "t_uint104"
      },
      {
        "astId": 8107,
        "contract": "contracts/vaults/BaseVaults/RibbonThetaVault.sol:RibbonThetaVault",
        "label": "lastStrikeOverride",
        "offset": 13,
        "slot": "216",
        "type": "t_uint16"
      },
      {
        "astId": 8109,
        "contract": "contracts/vaults/BaseVaults/RibbonThetaVault.sol:RibbonThetaVault",
        "label": "overriddenStrikePrice",
        "offset": 15,
        "slot": "216",
        "type": "t_uint128"
      },
      {
        "astId": 8111,
        "contract": "contracts/vaults/BaseVaults/RibbonThetaVault.sol:RibbonThetaVault",
        "label": "auctionDuration",
        "offset": 0,
        "slot": "217",
        "type": "t_uint256"
      },
      {
        "astId": 8113,
        "contract": "contracts/vaults/BaseVaults/RibbonThetaVault.sol:RibbonThetaVault",
        "label": "optionAuctionID",
        "offset": 0,
        "slot": "218",
        "type": "t_uint256"
      }
    ],
    "types": {
      "t_address": {
        "encoding": "inplace",
        "label": "address",
        "numberOfBytes": "20"
      },
      "t_array(t_uint256)44_storage": {
        "base": "t_uint256",
        "encoding": "inplace",
        "label": "uint256[44]",
        "numberOfBytes": "1408"
      },
      "t_array(t_uint256)49_storage": {
        "base": "t_uint256",
        "encoding": "inplace",
        "label": "uint256[49]",
        "numberOfBytes": "1568"
      },
      "t_array(t_uint256)50_storage": {
        "base": "t_uint256",
        "encoding": "inplace",
        "label": "uint256[50]",
        "numberOfBytes": "1600"
      },
      "t_bool": {
        "encoding": "inplace",
        "label": "bool",
        "numberOfBytes": "1"
      },
      "t_mapping(t_address,t_mapping(t_address,t_uint256))": {
        "encoding": "mapping",
        "key": "t_address",
        "label": "mapping(address => mapping(address => uint256))",
        "numberOfBytes": "32",
        "value": "t_mapping(t_address,t_uint256)"
      },
      "t_mapping(t_address,t_struct(DepositReceipt)4696_storage)": {
        "encoding": "mapping",
        "key": "t_address",
        "label": "mapping(address => struct Vault.DepositReceipt)",
        "numberOfBytes": "32",
        "value": "t_struct(DepositReceipt)4696_storage"
      },
      "t_mapping(t_address,t_struct(Withdrawal)4701_storage)": {
        "encoding": "mapping",
        "key": "t_address",
        "label": "mapping(address => struct Vault.Withdrawal)",
        "numberOfBytes": "32",
        "value": "t_struct(Withdrawal)4701_storage"
      },
      "t_mapping(t_address,t_uint256)": {
        "encoding": "mapping",
        "key": "t_address",
        "label": "mapping(address => uint256)",
        "numberOfBytes": "32",
        "value": "t_uint256"
      },
      "t_mapping(t_uint16,t_uint256)": {
        "encoding": "mapping",
        "key": "t_uint16",
        "label": "mapping(uint16 => uint256)",
        "numberOfBytes": "32",
        "value": "t_uint256"
      },
      "t_string_storage": {
        "encoding": "bytes",
        "label": "string",
        "numberOfBytes": "32"
      },
      "t_struct(DepositReceipt)4696_storage": {
        "encoding": "inplace",
        "label": "struct Vault.DepositReceipt",
        "members": [
          {
            "astId": 4691,
            "contract": "contracts/vaults/BaseVaults/RibbonThetaVault.sol:RibbonThetaVault",
            "label": "round",
            "offset": 0,
            "slot": "0",
            "type": "t_uint16"
          },
          {
            "astId": 4693,
            "contract": "contracts/vaults/BaseVaults/RibbonThetaVault.sol:RibbonThetaVault",
            "label": "amount",
            "offset": 2,
            "slot": "0",
            "type": "t_uint104"
          },
          {
            "astId": 4695,
            "contract": "contracts/vaults/BaseVaults/RibbonThetaVault.sol:RibbonThetaVault",
            "label": "unredeemedShares",
            "offset": 15,
            "slot": "0",
            "type": "t_uint128"
          }
        ],
        "numberOfBytes": "32"
      },
      "t_struct(OptionState)4678_storage": {
        "encoding": "inplace",
        "label": "struct Vault.OptionState",
        "members": [
          {
            "astId": 4673,
            "contract": "contracts/vaults/BaseVaults/RibbonThetaVault.sol:RibbonThetaVault",
            "label": "nextOption",
            "offset": 0,
            "slot": "0",
            "type": "t_address"
          },
          {
            "astId": 4675,
            "contract": "contracts/vaults/BaseVaults/RibbonThetaVault.sol:RibbonThetaVault",
            "label": "currentOption",
            "offset": 0,
            "slot": "1",
            "type": "t_address"
          },
          {
            "astId": 4677,
            "contract": "contracts/vaults/BaseVaults/RibbonThetaVault.sol:RibbonThetaVault",
            "label": "nextOptionReadyAt",
            "offset": 20,
            "slot": "1",
            "type": "t_uint32"
          }
        ],
        "numberOfBytes": "64"
      },
      "t_struct(VaultParams)4671_storage": {
        "encoding": "inplace",
        "label": "struct Vault.VaultParams",
        "members": [
          {
            "astId": 4660,
            "contract": "contracts/vaults/BaseVaults/RibbonThetaVault.sol:RibbonThetaVault",
            "label": "isPut",
            "offset": 0,
            "slot": "0",
            "type": "t_bool"
          },
          {
            "astId": 4662,
            "contract": "contracts/vaults/BaseVaults/RibbonThetaVault.sol:RibbonThetaVault",
            "label": "decimals",
            "offset": 1,
            "slot": "0",
            "type": "t_uint8"
          },
          {
            "astId": 4664,
            "contract": "contracts/vaults/BaseVaults/RibbonThetaVault.sol:RibbonThetaVault",
            "label": "asset",
            "offset": 2,
            "slot": "0",
            "type": "t_address"
          },
          {
            "astId": 4666,
            "contract": "contracts/vaults/BaseVaults/RibbonThetaVault.sol:RibbonThetaVault",
            "label": "underlying",
            "offset": 0,
            "slot": "1",
            "type": "t_address"
          },
          {
            "astId": 4668,
            "contract": "contracts/vaults/BaseVaults/RibbonThetaVault.sol:RibbonThetaVault",
            "label": "minimumSupply",
            "offset": 20,
            "slot": "1",
            "type": "t_uint56"
          },
          {
            "astId": 4670,
            "contract": "contracts/vaults/BaseVaults/RibbonThetaVault.sol:RibbonThetaVault",
            "label": "cap",
            "offset": 0,
            "slot": "2",
            "type": "t_uint104"
          }
        ],
        "numberOfBytes": "96"
      },
      "t_struct(VaultState)4689_storage": {
        "encoding": "inplace",
        "label": "struct Vault.VaultState",
        "members": [
          {
            "astId": 4680,
            "contract": "contracts/vaults/BaseVaults/RibbonThetaVault.sol:RibbonThetaVault",
            "label": "round",
            "offset": 0,
            "slot": "0",
            "type": "t_uint16"
          },
          {
            "astId": 4682,
            "contract": "contracts/vaults/BaseVaults/RibbonThetaVault.sol:RibbonThetaVault",
            "label": "lockedAmount",
            "offset": 2,
            "slot": "0",
            "type": "t_uint104"
          },
          {
            "astId": 4684,
            "contract": "contracts/vaults/BaseVaults/RibbonThetaVault.sol:RibbonThetaVault",
            "label": "lastLockedAmount",
            "offset": 15,
            "slot": "0",
            "type": "t_uint104"
          },
          {
            "astId": 4686,
            "contract": "contracts/vaults/BaseVaults/RibbonThetaVault.sol:RibbonThetaVault",
            "label": "totalPending",
            "offset": 0,
            "slot": "1",
            "type": "t_uint128"
          },
          {
            "astId": 4688,
            "contract": "contracts/vaults/BaseVaults/RibbonThetaVault.sol:RibbonThetaVault",
            "label": "queuedWithdrawShares",
            "offset": 16,
            "slot": "1",
            "type": "t_uint128"
          }
        ],
        "numberOfBytes": "64"
      },
      "t_struct(Withdrawal)4701_storage": {
        "encoding": "inplace",
        "label": "struct Vault.Withdrawal",
        "members": [
          {
            "astId": 4698,
            "contract": "contracts/vaults/BaseVaults/RibbonThetaVault.sol:RibbonThetaVault",
            "label": "round",
            "offset": 0,
            "slot": "0",
            "type": "t_uint16"
          },
          {
            "astId": 4700,
            "contract": "contracts/vaults/BaseVaults/RibbonThetaVault.sol:RibbonThetaVault",
            "label": "shares",
            "offset": 2,
            "slot": "0",
            "type": "t_uint128"
          }
        ],
        "numberOfBytes": "32"
      },
      "t_uint104": {
        "encoding": "inplace",
        "label": "uint104",
        "numberOfBytes": "13"
      },
      "t_uint128": {
        "encoding": "inplace",
        "label": "uint128",
        "numberOfBytes": "16"
      },
      "t_uint16": {
        "encoding": "inplace",
        "label": "uint16",
        "numberOfBytes": "2"
      },
      "t_uint256": {
        "encoding": "inplace",
        "label": "uint256",
        "numberOfBytes": "32"
      },
      "t_uint32": {
        "encoding": "inplace",
        "label": "uint32",
        "numberOfBytes": "4"
      },
      "t_uint56": {
        "encoding": "inplace",
        "label": "uint56",
        "numberOfBytes": "7"
      },
      "t_uint8": {
        "encoding": "inplace",
        "label": "uint8",
        "numberOfBytes": "1"
      }
    }
  }
}