{
  "address": "0xaAA24915AfFab8A83af74D5A1472F4fE7AD08D71",
  "abi": [
    {
      "inputs": [
        {
          "internalType": "address",
          "name": "_optionsPremiumPricer",
          "type": "address"
        },
        {
          "internalType": "uint256",
          "name": "_delta",
          "type": "uint256"
        },
        {
          "internalType": "uint256",
          "name": "_step",
          "type": "uint256"
        }
      ],
      "stateMutability": "nonpayable",
      "type": "constructor"
    },
    {
      "anonymous": false,
      "inputs": [
        {
          "indexed": false,
          "internalType": "uint256",
          "name": "oldDelta",
          "type": "uint256"
        },
        {
          "indexed": false,
          "internalType": "uint256",
          "name": "newDelta",
          "type": "uint256"
        },
        {
          "indexed": false,
          "internalType": "address",
          "name": "owner",
          "type": "address"
        }
      ],
      "name": "DeltaSet",
      "type": "event"
    },
    {
      "anonymous": false,
      "inputs": [
        {
          "indexed": true,
          "internalType": "address",
          "name": "previousOwner",
          "type": "address"
        },
        {
          "indexed": true,
          "internalType": "address",
          "name": "newOwner",
          "type": "address"
        }
      ],
      "name": "OwnershipTransferred",
      "type": "event"
    },
    {
      "anonymous": false,
      "inputs": [
        {
          "indexed": false,
          "internalType": "uint256",
          "name": "oldStep",
          "type": "uint256"
        },
        {
          "indexed": false,
          "internalType": "uint256",
          "name": "newStep",
          "type": "uint256"
        },
        {
          "indexed": false,
          "internalType": "address",
          "name": "owner",
          "type": "address"
        }
      ],
      "name": "StepSet",
      "type": "event"
    },
    {
      "inputs": [],
      "name": "delta",
      "outputs": [
        {
          "internalType": "uint256",
          "name": "",
          "type": "uint256"
        }
      ],
      "stateMutability": "view",
      "type": "function"
    },
    {
      "inputs": [
        {
          "internalType": "uint256",
          "name": "expiryTimestamp",
          "type": "uint256"
        },
        {
          "internalType": "bool",
          "name": "isPut",
          "type": "bool"
        }
      ],
      "name": "getStrikePrice",
      "outputs": [
        {
          "internalType": "uint256",
          "name": "",
          "type": "uint256"
        },
        {
          "internalType": "uint256",
          "name": "",
          "type": "uint256"
        }
      ],
      "stateMutability": "view",
      "type": "function"
    },
    {
      "inputs": [],
      "name": "optionsPremiumPricer",
      "outputs": [
        {
          "internalType": "contract IOptionsPremiumPricer",
          "name": "",
          "type": "address"
        }
      ],
      "stateMutability": "view",
      "type": "function"
    },
    {
      "inputs": [],
      "name": "owner",
      "outputs": [
        {
          "internalType": "address",
          "name": "",
          "type": "address"
        }
      ],
      "stateMutability": "view",
      "type": "function"
    },
    {
      "inputs": [],
      "name": "renounceOwnership",
      "outputs": [],
      "stateMutability": "nonpayable",
      "type": "function"
    },
    {
      "inputs": [
        {
          "internalType": "uint256",
          "name": "newDelta",
          "type": "uint256"
        }
      ],
      "name": "setDelta",
      "outputs": [],
      "stateMutability": "nonpayable",
      "type": "function"
    },
    {
      "inputs": [
        {
          "internalType": "uint256",
          "name": "newStep",
          "type": "uint256"
        }
      ],
      "name": "setStep",
      "outputs": [],
      "stateMutability": "nonpayable",
      "type": "function"
    },
    {
      "inputs": [],
      "name": "step",
      "outputs": [
        {
          "internalType": "uint256",
          "name": "",
          "type": "uint256"
        }
      ],
      "stateMutability": "view",
      "type": "function"
    },
    {
      "inputs": [
        {
          "internalType": "address",
          "name": "newOwner",
          "type": "address"
        }
      ],
      "name": "transferOwnership",
      "outputs": [],
      "stateMutability": "nonpayable",
      "type": "function"
    },
    {
      "inputs": [],
      "name": "volatilityOracle",
      "outputs": [
        {
          "internalType": "contract IVolatilityOracle",
          "name": "",
          "type": "address"
        }
      ],
      "stateMutability": "view",
      "type": "function"
    }
  ],
  "transactionHash": "0x7b0ee52bc0f2239b5c49986dfe4efe07a0ee5a2d0040feecfa55b3a00a7b04a6",
  "args": [
    "0xE922806E610A6bA9A828a3b2Ea6A9936182FFC7D",
    1000,
    100
  ],
  "solcInputHash": "dfb205236cdecfea70edb3a32dda3d3d",
  "bytecode": "0x60e06040523480156200001157600080fd5b50604051620011e1380380620011e183398101604081905262000034916200035f565b600062000040620002d1565b600080546001600160a01b0319166001600160a01b0383169081178255604051929350917f8be0079c531659141344cd1fd0a4f28419497f9722a3daafe3b4186f6b6457e0908290a3506001600160a01b038316620000bc5760405162461bcd60e51b8152600401620000b39062000411565b60405180910390fd5b60008211620000df5760405162461bcd60e51b8152600401620000b390620003f0565b60008111620001025760405162461bcd60e51b8152600401620000b39062000448565b826001600160a01b03166080816001600160a01b031660601b81525050826001600160a01b03166355b13a4f6040518163ffffffff1660e01b815260040160206040518083038186803b1580156200015957600080fd5b505afa1580156200016e573d6000803e3d6000fd5b505050506040513d601f19601f820116820180604052508101906200019491906200033b565b6001600160a01b031660a0816001600160a01b031660601b81525050816001819055506000836001600160a01b0316632630c12f6040518163ffffffff1660e01b815260040160206040518083038186803b158015620001f357600080fd5b505afa15801562000208573d6000803e3d6000fd5b505050506040513d601f19601f820116820180604052508101906200022e91906200033b565b6001600160a01b031663313ce5676040518163ffffffff1660e01b815260040160206040518083038186803b1580156200026757600080fd5b505afa1580156200027c573d6000803e3d6000fd5b505050506040513d601f19601f82011682018060405250810190620002a2919062000396565b600a0a9050620002c18183620002d560201b6200085e1790919060201c565b60025560c0525062000468915050565b3390565b600082620002e65750600062000318565b82820282848281620002f457fe5b0414620003155760405162461bcd60e51b8152600401620000b390620003af565b90505b92915050565b80516001600160a01b03811681146200033657600080fd5b919050565b6000602082840312156200034d578081fd5b62000358826200031e565b9392505050565b60008060006060848603121562000374578182fd5b6200037f846200031e565b925060208401519150604084015190509250925092565b600060208284031215620003a8578081fd5b5051919050565b60208082526021908201527f536166654d6174683a206d756c7469706c69636174696f6e206f766572666c6f6040820152607760f81b606082015260800190565b602080825260079082015266215f64656c746160c81b604082015260600190565b60208082526016908201527f215f6f7074696f6e735072656d69756d50726963657200000000000000000000604082015260600190565b6020808252600690820152650215f737465760d41b604082015260600190565b60805160601c60a05160601c60c051610d28620004b960003980610566528061068252806108035250806101ea52806103925250806102a652806102f452806103c1528061053c5250610d286000f3fe608060405234801561001057600080fd5b506004361061009e5760003560e01c8063afa6626411610066578063afa66264146100fb578063e25fe17514610103578063e436b8911461010b578063f2fde38b1461012c578063f8dcbddb1461013f5761009e565b8063025ff0a5146100a357806312b495a8146100b857806355b13a4f146100d6578063715018a6146100eb5780638da5cb5b146100f3575b600080fd5b6100b66100b1366004610a4b565b610152565b005b6100c06101e2565b6040516100cd9190610c89565b60405180910390f35b6100de6101e8565b6040516100cd9190610aae565b6100b661020c565b6100de610295565b6100de6102a4565b6100c06102c8565b61011e610119366004610a7b565b6102ce565b6040516100cd929190610c92565b6100b661013a366004610a13565b6106fb565b6100b661014d366004610a4b565b6107bb565b61015a6108a1565b6001600160a01b031661016b610295565b6001600160a01b03161461019a5760405162461bcd60e51b815260040161019190610c1d565b60405180910390fd5b60018054908290556040517f760f0242cb96fbbbd0cf6647501a2763dfd1ee22287ca1a688cb1d5f1ca6026d906101d690839085903390610ca0565b60405180910390a15050565b60015481565b7f000000000000000000000000000000000000000000000000000000000000000081565b6102146108a1565b6001600160a01b0316610225610295565b6001600160a01b03161461024b5760405162461bcd60e51b815260040161019190610c1d565b600080546040516001600160a01b03909116907f8be0079c531659141344cd1fd0a4f28419497f9722a3daafe3b4186f6b6457e0908390a3600080546001600160a01b0319169055565b6000546001600160a01b031690565b7f000000000000000000000000000000000000000000000000000000000000000081565b60025481565b6000804284116102f05760405162461bcd60e51b815260040161019190610c52565b60007f00000000000000000000000000000000000000000000000000000000000000006001600160a01b031663468f02d26040518163ffffffff1660e01b815260040160206040518083038186803b15801561034b57600080fd5b505afa15801561035f573d6000803e3d6000fd5b505050506040513d601f19601f820116820180604052508101906103839190610a63565b905060006104c26402540be4007f00000000000000000000000000000000000000000000000000000000000000006001600160a01b031663950ed82c7f00000000000000000000000000000000000000000000000000000000000000006001600160a01b03166316f0115b6040518163ffffffff1660e01b815260040160206040518083038186803b15801561041857600080fd5b505afa15801561042c573d6000803e3d6000fd5b505050506040513d601f19601f820116820180604052508101906104509190610a2f565b6040518263ffffffff1660e01b815260040161046c9190610aae565b60206040518083038186803b15801561048457600080fd5b505afa158015610498573d6000803e3d6000fd5b505050506040513d601f19601f820116820180604052508101906104bc9190610a63565b9061085e565b90506000856104f2576104ed60025484816104d957fe5b0660025403846108a590919063ffffffff16565b610509565b610509600254848161050057fe5b859190066108ca565b905060008661051a5760015461052a565b60015461052a90612710906108ca565b90506127105b60006001600160a01b037f000000000000000000000000000000000000000000000000000000000000000016639380576f6105997f00000000000000000000000000000000000000000000000000000000000000006105938a6305f5e10061085e565b906108f2565b86888e6040518563ffffffff1660e01b81526004016105bb9493929190610cbf565b60206040518083038186803b1580156105d357600080fd5b505afa1580156105e7573d6000803e3d6000fd5b505050506040513d601f19601f8201168201806040525081019061060b9190610a63565b9050600089610629578284111580156106245750818410155b610639565b8284101580156106395750818411155b905080156106c257600061064f8484878e610924565b9050600061065f8286898f61099b565b90508b61066f5788811015610674565b888111155b61067d57600080fd5b6106af7f0000000000000000000000000000000000000000000000000000000000000000610593836305f5e10061085e565b829a509a505050505050505050506106f4565b896106da576002546106d59086906108a5565b6106e8565b6002546106e89086906108ca565b94508192505050610530565b9250929050565b6107036108a1565b6001600160a01b0316610714610295565b6001600160a01b03161461073a5760405162461bcd60e51b815260040161019190610c1d565b6001600160a01b0381166107605760405162461bcd60e51b815260040161019190610af1565b600080546040516001600160a01b03808516939216917f8be0079c531659141344cd1fd0a4f28419497f9722a3daafe3b4186f6b6457e091a3600080546001600160a01b0319166001600160a01b0392909216919091179055565b6107c36108a1565b6001600160a01b03166107d4610295565b6001600160a01b0316146107fa5760405162461bcd60e51b815260040161019190610c1d565b600254610827827f000000000000000000000000000000000000000000000000000000000000000061085e565b6002556040517f08e332c6ae0c42d16506516b7ec987c8101ae8c5e930012ecd0c23142930518c906101d690839085903390610ca0565b60008261086d5750600061089b565b8282028284828161087a57fe5b04146108985760405162461bcd60e51b815260040161019190610bdc565b90505b92915050565b3390565b6000828201838110156108985760405162461bcd60e51b815260040161019190610b37565b6000828211156108ec5760405162461bcd60e51b815260040161019190610b6e565b50900390565b60008082116109135760405162461bcd60e51b815260040161019190610ba5565b81838161091c57fe5b049392505050565b6000808261093b5761093686856109f0565b610945565b61094585856109f0565b905060008361095d5761095885876109f0565b610967565b61096785886109f0565b905081811115610983578361097c578661097e565b855b610990565b8361098e5785610990565b865b979650505050505050565b600081156109c857838514156109c0576002546109b99084906108a5565b90506109c3565b50815b6109e8565b838514156109e5576002546109de9084906108ca565b90506109e8565b50815b949350505050565b8082038281111561089b5760405162461bcd60e51b815260040161019190610ac2565b600060208284031215610a24578081fd5b813561089881610cda565b600060208284031215610a40578081fd5b815161089881610cda565b600060208284031215610a5c578081fd5b5035919050565b600060208284031215610a74578081fd5b5051919050565b60008060408385031215610a8d578081fd5b8235915060208301358015158114610aa3578182fd5b809150509250929050565b6001600160a01b0391909116815260200190565b60208082526015908201527464732d6d6174682d7375622d756e646572666c6f7760581b604082015260600190565b60208082526026908201527f4f776e61626c653a206e6577206f776e657220697320746865207a65726f206160408201526564647265737360d01b606082015260800190565b6020808252601b908201527f536166654d6174683a206164646974696f6e206f766572666c6f770000000000604082015260600190565b6020808252601e908201527f536166654d6174683a207375627472616374696f6e206f766572666c6f770000604082015260600190565b6020808252601a908201527f536166654d6174683a206469766973696f6e206279207a65726f000000000000604082015260600190565b60208082526021908201527f536166654d6174683a206d756c7469706c69636174696f6e206f766572666c6f6040820152607760f81b606082015260800190565b6020808252818101527f4f776e61626c653a2063616c6c6572206973206e6f7420746865206f776e6572604082015260600190565b6020808252601d908201527f457870697279206d75737420626520696e207468652066757475726521000000604082015260600190565b90815260200190565b918252602082015260400190565b92835260208301919091526001600160a01b0316604082015260600190565b93845260208401929092526040830152606082015260800190565b6001600160a01b0381168114610cef57600080fd5b5056fea2646970667358221220f016fdf07a516b63ddb76e7b043e731819a41e3101366f691a54900f0495cac364736f6c63430007030033",
  "devdoc": {
    "kind": "dev",
    "methods": {
      "getStrikePrice(uint256,bool)": {
        "params": {
          "expiryTimestamp": "is the unix timestamp of expiration",
          "isPut": "is whether option is put or call"
        }
      },
      "owner()": {
        "details": "Returns the address of the current owner."
      },
      "renounceOwnership()": {
        "details": "Leaves the contract without owner. It will not be possible to call `onlyOwner` functions anymore. Can only be called by the current owner. NOTE: Renouncing ownership will leave the contract without an owner, thereby removing any functionality that is only available to the owner."
      },
      "setDelta(uint256)": {
        "params": {
          "newDelta": "is the new delta value"
        }
      },
      "setStep(uint256)": {
        "params": {
          "newStep": "is the new step value"
        }
      },
      "transferOwnership(address)": {
        "details": "Transfers ownership of the contract to a new account (`newOwner`). Can only be called by the current owner."
      }
    },
    "version": 1
  },
  "userdoc": {
    "kind": "user",
    "methods": {
      "getStrikePrice(uint256,bool)": {
        "notice": "Gets the strike price satisfying the delta value given the expiry timestamp and whether option is call or put"
      },
      "optionsPremiumPricer()": {
        "notice": "Immutables"
      },
      "setDelta(uint256)": {
        "notice": "Sets new delta value"
      },
      "setStep(uint256)": {
        "notice": "Sets new step value"
      }
    },
    "version": 1
  },
  "storageLayout": {
    "storage": [
      {
        "astId": 1514,
        "contract": "contracts/utils/StrikeSelection.sol:StrikeSelection",
        "label": "_owner",
        "offset": 0,
        "slot": "0",
        "type": "t_address"
      },
      {
        "astId": 8245,
        "contract": "contracts/utils/StrikeSelection.sol:StrikeSelection",
        "label": "delta",
        "offset": 0,
        "slot": "1",
        "type": "t_uint256"
      },
      {
        "astId": 8247,
        "contract": "contracts/utils/StrikeSelection.sol:StrikeSelection",
        "label": "step",
        "offset": 0,
        "slot": "2",
        "type": "t_uint256"
      }
    ],
    "types": {
      "t_address": {
        "encoding": "inplace",
        "label": "address",
        "numberOfBytes": "20"
      },
      "t_uint256": {
        "encoding": "inplace",
        "label": "uint256",
        "numberOfBytes": "32"
      }
    }
  }
}