{
  "address": "0x449C85f1D86c1Af7750C1f1333d4456C7EFA88C0",
  "abi": [
    {
      "inputs": [
        {
          "internalType": "address",
          "name": "_optionsPremiumPricer",
          "type": "address"
        },
        {
          "internalType": "uint256",
          "name": "_step",
          "type": "uint256"
        },
        {
          "internalType": "uint256",
          "name": "_strikeMultiplier",
          "type": "uint256"
        }
      ],
      "stateMutability": "nonpayable",
      "type": "constructor"
    },
    {
      "anonymous": false,
      "inputs": [
        {
          "indexed": true,
          "internalType": "address",
          "name": "previousOwner",
          "type": "address"
        },
        {
          "indexed": true,
          "internalType": "address",
          "name": "newOwner",
          "type": "address"
        }
      ],
      "name": "OwnershipTransferred",
      "type": "event"
    },
    {
      "anonymous": false,
      "inputs": [
        {
          "indexed": false,
          "internalType": "uint256",
          "name": "oldStep",
          "type": "uint256"
        },
        {
          "indexed": false,
          "internalType": "uint256",
          "name": "newStep",
          "type": "uint256"
        },
        {
          "indexed": true,
          "internalType": "address",
          "name": "owner",
          "type": "address"
        }
      ],
      "name": "StepSet",
      "type": "event"
    },
    {
      "inputs": [
        {
          "internalType": "uint256",
          "name": "expiryTimestamp",
          "type": "uint256"
        },
        {
          "internalType": "bool",
          "name": "isPut",
          "type": "bool"
        }
      ],
      "name": "getStrikePrice",
      "outputs": [
        {
          "internalType": "uint256",
          "name": "newStrikePrice",
          "type": "uint256"
        },
        {
          "internalType": "uint256",
          "name": "newDelta",
          "type": "uint256"
        }
      ],
      "stateMutability": "view",
      "type": "function"
    },
    {
      "inputs": [],
      "name": "optionsPremiumPricer",
      "outputs": [
        {
          "internalType": "contract IOptionsPremiumPricer",
          "name": "",
          "type": "address"
        }
      ],
      "stateMutability": "view",
      "type": "function"
    },
    {
      "inputs": [],
      "name": "owner",
      "outputs": [
        {
          "internalType": "address",
          "name": "",
          "type": "address"
        }
      ],
      "stateMutability": "view",
      "type": "function"
    },
    {
      "inputs": [],
      "name": "renounceOwnership",
      "outputs": [],
      "stateMutability": "nonpayable",
      "type": "function"
    },
    {
      "inputs": [
        {
          "internalType": "uint256",
          "name": "newStep",
          "type": "uint256"
        }
      ],
      "name": "setStep",
      "outputs": [],
      "stateMutability": "nonpayable",
      "type": "function"
    },
    {
      "inputs": [
        {
          "internalType": "uint256",
          "name": "newStrikeMultiplier",
          "type": "uint256"
        }
      ],
      "name": "setStrikeMultiplier",
      "outputs": [],
      "stateMutability": "nonpayable",
      "type": "function"
    },
    {
      "inputs": [],
      "name": "step",
      "outputs": [
        {
          "internalType": "uint256",
          "name": "",
          "type": "uint256"
        }
      ],
      "stateMutability": "view",
      "type": "function"
    },
    {
      "inputs": [],
      "name": "strikeMultiplier",
      "outputs": [
        {
          "internalType": "uint256",
          "name": "",
          "type": "uint256"
        }
      ],
      "stateMutability": "view",
      "type": "function"
    },
    {
      "inputs": [
        {
          "internalType": "address",
          "name": "newOwner",
          "type": "address"
        }
      ],
      "name": "transferOwnership",
      "outputs": [],
      "stateMutability": "nonpayable",
      "type": "function"
    }
  ],
  "transactionHash": "0xf9d647024f02ff75a1b3847ab1782e09f72ef1cc60773bd1228a2cb93b77c690",
  "args": [
    "0x9527be877Be86Cfb6531748740C0551105662911",
    10000000,
    150
  ],
  "solcInputHash": "b95617c81062fd76a77e7d2b5fac8258",
  "bytecode": "0x60c06040523480156200001157600080fd5b5060405162000ba138038062000ba18339810160408190526200003491620002ec565b6200003f336200025b565b6001600160a01b0383166200009b5760405162461bcd60e51b815260206004820152601660248201527f215f6f7074696f6e735072656d69756d5072696365720000000000000000000060448201526064015b60405180910390fd5b60008211620000d65760405162461bcd60e51b81526020600482015260066024820152650215f737465760d41b604482015260640162000092565b60648111620001325760405162461bcd60e51b815260206004820152602160248201527f4d756c7469706c696572206d75737420626520626967676572207468616e20316044820152602160f81b606482015260840162000092565b826001600160a01b03166080816001600160a01b031660601b815250506000836001600160a01b0316632630c12f6040518163ffffffff1660e01b815260040160206040518083038186803b1580156200018b57600080fd5b505afa158015620001a0573d6000803e3d6000fd5b505050506040513d601f19601f82011682018060405250810190620001c69190620002c8565b6001600160a01b031663313ce5676040518163ffffffff1660e01b815260040160206040518083038186803b158015620001ff57600080fd5b505afa15801562000214573d6000803e3d6000fd5b505050506040513d601f19601f820116820180604052508101906200023a919062000323565b6200024790600a62000385565b6001939093555060025560a0525062000459565b600080546001600160a01b038381166001600160a01b0319831681178455604051919092169283917f8be0079c531659141344cd1fd0a4f28419497f9722a3daafe3b4186f6b6457e09190a35050565b80516001600160a01b0381168114620002c357600080fd5b919050565b600060208284031215620002da578081fd5b620002e582620002ab565b9392505050565b60008060006060848603121562000301578182fd5b6200030c84620002ab565b925060208401519150604084015190509250925092565b60006020828403121562000335578081fd5b5051919050565b600181815b808511156200037d57816000190482111562000361576200036162000443565b808516156200036f57918102915b93841c939080029062000341565b509250929050565b6000620002e583836000826200039e575060016200043d565b81620003ad575060006200043d565b8160018114620003c65760028114620003d157620003f1565b60019150506200043d565b60ff841115620003e557620003e562000443565b50506001821b6200043d565b5060208310610133831016604e8410600b841016171562000416575081810a6200043d565b6200042283836200033c565b806000190482111562000439576200043962000443565b0290505b92915050565b634e487b7160e01b600052601160045260246000fd5b60805160601c60a05161071962000488600039600061049501526000818160fb015261029d01526107196000f3fe608060405234801561001057600080fd5b50600436106100935760003560e01c8063afa6626411610066578063afa66264146100f6578063e25fe1751461011d578063e436b89114610126578063f2fde38b1461014e578063f8dcbddb1461016157600080fd5b80630c07440c14610098578063276bd36d146100ad578063715018a6146100c95780638da5cb5b146100d1575b600080fd5b6100ab6100a63660046105a9565b610174565b005b6100b660025481565b6040519081526020015b60405180910390f35b6100ab610206565b6000546001600160a01b03165b6040516001600160a01b0390911681526020016100c0565b6100de7f000000000000000000000000000000000000000000000000000000000000000081565b6100b660015481565b6101396101343660046105d9565b61023c565b604080519283526020830191909152016100c0565b6100ab61015c366004610582565b61038c565b6100ab61016f3660046105a9565b610427565b6000546001600160a01b031633146101a75760405162461bcd60e51b815260040161019e9061060c565b60405180910390fd5b606481116102015760405162461bcd60e51b815260206004820152602160248201527f4d756c7469706c696572206d75737420626520626967676572207468616e20316044820152602160f81b606482015260840161019e565b600255565b6000546001600160a01b031633146102305760405162461bcd60e51b815260040161019e9061060c565b61023a60006104fb565b565b60008042841161028e5760405162461bcd60e51b815260206004820152601d60248201527f457870697279206d75737420626520696e207468652066757475726521000000604482015260640161019e565b600061033860646103326002547f00000000000000000000000000000000000000000000000000000000000000006001600160a01b031663468f02d26040518163ffffffff1660e01b815260040160206040518083038186803b1580156102f457600080fd5b505afa158015610308573d6000803e3d6000fd5b505050506040513d601f19601f8201168201806040525081019061032c91906105c1565b9061054b565b9061055e565b9050836103685761036361035c6001548361035391906106a3565b6001549061056a565b8290610576565b610380565b6103806001548261037991906106a3565b829061056a565b95600095509350505050565b6000546001600160a01b031633146103b65760405162461bcd60e51b815260040161019e9061060c565b6001600160a01b03811661041b5760405162461bcd60e51b815260206004820152602660248201527f4f776e61626c653a206e6577206f776e657220697320746865207a65726f206160448201526564647265737360d01b606482015260840161019e565b610424816104fb565b50565b6000546001600160a01b031633146104515760405162461bcd60e51b815260040161019e9061060c565b6000811161048c5760405162461bcd60e51b81526020600482015260086024820152670216e6577537465760c41b604482015260640161019e565b6001546104b9827f000000000000000000000000000000000000000000000000000000000000000061054b565b600155604080518281526020810184905233917f08e332c6ae0c42d16506516b7ec987c8101ae8c5e930012ecd0c23142930518c910160405180910390a25050565b600080546001600160a01b038381166001600160a01b0319831681178455604051919092169283917f8be0079c531659141344cd1fd0a4f28419497f9722a3daafe3b4186f6b6457e09190a35050565b6000610557828461066d565b9392505050565b60006105578284610659565b6000610557828461068c565b60006105578284610641565b600060208284031215610593578081fd5b81356001600160a01b0381168114610557578182fd5b6000602082840312156105ba578081fd5b5035919050565b6000602082840312156105d2578081fd5b5051919050565b600080604083850312156105eb578081fd5b8235915060208301358015158114610601578182fd5b809150509250929050565b6020808252818101527f4f776e61626c653a2063616c6c6572206973206e6f7420746865206f776e6572604082015260600190565b60008219821115610654576106546106b7565b500190565b600082610668576106686106cd565b500490565b6000816000190483118215151615610687576106876106b7565b500290565b60008282101561069e5761069e6106b7565b500390565b6000826106b2576106b26106cd565b500690565b634e487b7160e01b600052601160045260246000fd5b634e487b7160e01b600052601260045260246000fdfea2646970667358221220f8f7e152c722d2b977e1966f49f4114c030a30aec77c10ee00f1caae9fefdb6964736f6c63430008040033",
  "devdoc": {
    "kind": "dev",
    "methods": {
      "getStrikePrice(uint256,bool)": {
        "params": {
          "expiryTimestamp": "is the unix timestamp of expiration",
          "isPut": "is whether option is put or call"
        },
        "returns": {
          "newDelta": "will be set to zero for percent strike selection",
          "newStrikePrice": "is the strike price of the option (ex: for BTC might be 45000 * 10 ** 8)"
        }
      },
      "owner()": {
        "details": "Returns the address of the current owner."
      },
      "renounceOwnership()": {
        "details": "Leaves the contract without owner. It will not be possible to call `onlyOwner` functions anymore. Can only be called by the current owner. NOTE: Renouncing ownership will leave the contract without an owner, thereby removing any functionality that is only available to the owner."
      },
      "setStep(uint256)": {
        "params": {
          "newStep": "is the new step value"
        }
      },
      "setStrikeMultiplier(uint256)": {
        "params": {
          "newStrikeMultiplier": "is the strike multiplier (decimals = 2)"
        }
      },
      "transferOwnership(address)": {
        "details": "Transfers ownership of the contract to a new account (`newOwner`). Can only be called by the current owner."
      }
    },
    "version": 1
  },
  "userdoc": {
    "kind": "user",
    "methods": {
      "getStrikePrice(uint256,bool)": {
        "notice": "Gets the strike price by multiplying the current underlying price with a multiplier"
      },
      "optionsPremiumPricer()": {
        "notice": "Immutables"
      },
      "setStep(uint256)": {
        "notice": "Sets new step value"
      },
      "setStrikeMultiplier(uint256)": {
        "notice": "Set the multiplier for setting the strike price"
      }
    },
    "version": 1
  },
  "storageLayout": {
    "storage": [
      {
        "astId": 956,
        "contract": "contracts/utils/PercentStrikeSelection.sol:PercentStrikeSelection",
        "label": "_owner",
        "offset": 0,
        "slot": "0",
        "type": "t_address"
      },
      {
        "astId": 11758,
        "contract": "contracts/utils/PercentStrikeSelection.sol:PercentStrikeSelection",
        "label": "step",
        "offset": 0,
        "slot": "1",
        "type": "t_uint256"
      },
      {
        "astId": 11760,
        "contract": "contracts/utils/PercentStrikeSelection.sol:PercentStrikeSelection",
        "label": "strikeMultiplier",
        "offset": 0,
        "slot": "2",
        "type": "t_uint256"
      }
    ],
    "types": {
      "t_address": {
        "encoding": "inplace",
        "label": "address",
        "numberOfBytes": "20"
      },
      "t_uint256": {
        "encoding": "inplace",
        "label": "uint256",
        "numberOfBytes": "32"
      }
    }
  }
}