{
  "address": "0xcbD9A79Caa0d354C9119039F5004DbCf23489c9a",
  "abi": [
    {
      "inputs": [],
      "stateMutability": "nonpayable",
      "type": "constructor"
    },
    {
      "anonymous": false,
      "inputs": [
        {
          "indexed": true,
          "internalType": "uint256",
          "name": "nonce",
          "type": "uint256"
        },
        {
          "indexed": true,
          "internalType": "address",
          "name": "signerWallet",
          "type": "address"
        }
      ],
      "name": "Cancel",
      "type": "event"
    },
    {
      "anonymous": false,
      "inputs": [
        {
          "indexed": false,
          "internalType": "uint256",
          "name": "swapId",
          "type": "uint256"
        }
      ],
      "name": "CloseOffer",
      "type": "event"
    },
    {
      "anonymous": false,
      "inputs": [
        {
          "indexed": false,
          "internalType": "uint256",
          "name": "swapId",
          "type": "uint256"
        },
        {
          "indexed": false,
          "internalType": "address",
          "name": "seller",
          "type": "address"
        },
        {
          "indexed": false,
          "internalType": "address",
          "name": "oToken",
          "type": "address"
        },
        {
          "indexed": false,
          "internalType": "address",
          "name": "biddingToken",
          "type": "address"
        },
        {
          "indexed": false,
          "internalType": "uint256",
          "name": "minPrice",
          "type": "uint256"
        },
        {
          "indexed": false,
          "internalType": "uint256",
          "name": "minBidSize",
          "type": "uint256"
        },
        {
          "indexed": false,
          "internalType": "uint256",
          "name": "totalSize",
          "type": "uint256"
        }
      ],
      "name": "NewOffer",
      "type": "event"
    },
    {
      "anonymous": false,
      "inputs": [
        {
          "indexed": true,
          "internalType": "address",
          "name": "previousOwner",
          "type": "address"
        },
        {
          "indexed": true,
          "internalType": "address",
          "name": "newOwner",
          "type": "address"
        }
      ],
      "name": "OwnershipTransferred",
      "type": "event"
    },
    {
      "anonymous": false,
      "inputs": [
        {
          "indexed": false,
          "internalType": "uint256",
          "name": "swapId",
          "type": "uint256"
        }
      ],
      "name": "SettleOffer",
      "type": "event"
    },
    {
      "anonymous": false,
      "inputs": [
        {
          "indexed": true,
          "internalType": "uint256",
          "name": "swapId",
          "type": "uint256"
        },
        {
          "indexed": false,
          "internalType": "uint256",
          "name": "nonce",
          "type": "uint256"
        },
        {
          "indexed": true,
          "internalType": "address",
          "name": "signerWallet",
          "type": "address"
        },
        {
          "indexed": false,
          "internalType": "uint256",
          "name": "signerAmount",
          "type": "uint256"
        },
        {
          "indexed": false,
          "internalType": "uint256",
          "name": "sellerAmount",
          "type": "uint256"
        },
        {
          "indexed": false,
          "internalType": "address",
          "name": "referrer",
          "type": "address"
        },
        {
          "indexed": false,
          "internalType": "uint256",
          "name": "feeAmount",
          "type": "uint256"
        }
      ],
      "name": "Swap",
      "type": "event"
    },
    {
      "inputs": [],
      "name": "BID_TYPEHASH",
      "outputs": [
        {
          "internalType": "bytes32",
          "name": "",
          "type": "bytes32"
        }
      ],
      "stateMutability": "view",
      "type": "function"
    },
    {
      "inputs": [],
      "name": "DOMAIN_CHAIN_ID",
      "outputs": [
        {
          "internalType": "uint256",
          "name": "",
          "type": "uint256"
        }
      ],
      "stateMutability": "view",
      "type": "function"
    },
    {
      "inputs": [],
      "name": "DOMAIN_NAME",
      "outputs": [
        {
          "internalType": "bytes32",
          "name": "",
          "type": "bytes32"
        }
      ],
      "stateMutability": "view",
      "type": "function"
    },
    {
      "inputs": [],
      "name": "DOMAIN_SEPARATOR",
      "outputs": [
        {
          "internalType": "bytes32",
          "name": "",
          "type": "bytes32"
        }
      ],
      "stateMutability": "view",
      "type": "function"
    },
    {
      "inputs": [],
      "name": "DOMAIN_TYPEHASH",
      "outputs": [
        {
          "internalType": "bytes32",
          "name": "",
          "type": "bytes32"
        }
      ],
      "stateMutability": "view",
      "type": "function"
    },
    {
      "inputs": [],
      "name": "DOMAIN_VERSION",
      "outputs": [
        {
          "internalType": "bytes32",
          "name": "",
          "type": "bytes32"
        }
      ],
      "stateMutability": "view",
      "type": "function"
    },
    {
      "inputs": [
        {
          "internalType": "uint256",
          "name": "swapId",
          "type": "uint256"
        }
      ],
      "name": "averagePriceForOffer",
      "outputs": [
        {
          "internalType": "uint256",
          "name": "",
          "type": "uint256"
        }
      ],
      "stateMutability": "view",
      "type": "function"
    },
    {
      "inputs": [
        {
          "internalType": "uint256[]",
          "name": "nonces",
          "type": "uint256[]"
        }
      ],
      "name": "cancelNonce",
      "outputs": [],
      "stateMutability": "nonpayable",
      "type": "function"
    },
    {
      "inputs": [
        {
          "components": [
            {
              "internalType": "uint256",
              "name": "swapId",
              "type": "uint256"
            },
            {
              "internalType": "uint256",
              "name": "nonce",
              "type": "uint256"
            },
            {
              "internalType": "address",
              "name": "signerWallet",
              "type": "address"
            },
            {
              "internalType": "uint256",
              "name": "sellAmount",
              "type": "uint256"
            },
            {
              "internalType": "uint256",
              "name": "buyAmount",
              "type": "uint256"
            },
            {
              "internalType": "address",
              "name": "referrer",
              "type": "address"
            },
            {
              "internalType": "uint8",
              "name": "v",
              "type": "uint8"
            },
            {
              "internalType": "bytes32",
              "name": "r",
              "type": "bytes32"
            },
            {
              "internalType": "bytes32",
              "name": "s",
              "type": "bytes32"
            }
          ],
          "internalType": "struct ISwap.Bid",
          "name": "bid",
          "type": "tuple"
        }
      ],
      "name": "check",
      "outputs": [
        {
          "internalType": "uint256",
          "name": "",
          "type": "uint256"
        },
        {
          "internalType": "bytes32[]",
          "name": "",
          "type": "bytes32[]"
        }
      ],
      "stateMutability": "view",
      "type": "function"
    },
    {
      "inputs": [
        {
          "internalType": "uint256",
          "name": "swapId",
          "type": "uint256"
        }
      ],
      "name": "closeOffer",
      "outputs": [],
      "stateMutability": "nonpayable",
      "type": "function"
    },
    {
      "inputs": [
        {
          "internalType": "address",
          "name": "oToken",
          "type": "address"
        },
        {
          "internalType": "address",
          "name": "biddingToken",
          "type": "address"
        },
        {
          "internalType": "uint96",
          "name": "minPrice",
          "type": "uint96"
        },
        {
          "internalType": "uint96",
          "name": "minBidSize",
          "type": "uint96"
        },
        {
          "internalType": "uint128",
          "name": "totalSize",
          "type": "uint128"
        }
      ],
      "name": "createOffer",
      "outputs": [
        {
          "internalType": "uint256",
          "name": "swapId",
          "type": "uint256"
        }
      ],
      "stateMutability": "nonpayable",
      "type": "function"
    },
    {
      "inputs": [
        {
          "internalType": "address",
          "name": "signer",
          "type": "address"
        },
        {
          "internalType": "uint256",
          "name": "nonce",
          "type": "uint256"
        }
      ],
      "name": "nonceUsed",
      "outputs": [
        {
          "internalType": "bool",
          "name": "",
          "type": "bool"
        }
      ],
      "stateMutability": "view",
      "type": "function"
    },
    {
      "inputs": [],
      "name": "offersCounter",
      "outputs": [
        {
          "internalType": "uint256",
          "name": "",
          "type": "uint256"
        }
      ],
      "stateMutability": "view",
      "type": "function"
    },
    {
      "inputs": [],
      "name": "owner",
      "outputs": [
        {
          "internalType": "address",
          "name": "",
          "type": "address"
        }
      ],
      "stateMutability": "view",
      "type": "function"
    },
    {
      "inputs": [
        {
          "internalType": "address",
          "name": "",
          "type": "address"
        }
      ],
      "name": "referralFees",
      "outputs": [
        {
          "internalType": "uint256",
          "name": "",
          "type": "uint256"
        }
      ],
      "stateMutability": "view",
      "type": "function"
    },
    {
      "inputs": [],
      "name": "renounceOwnership",
      "outputs": [],
      "stateMutability": "nonpayable",
      "type": "function"
    },
    {
      "inputs": [
        {
          "internalType": "address",
          "name": "referrer",
          "type": "address"
        },
        {
          "internalType": "uint256",
          "name": "fee",
          "type": "uint256"
        }
      ],
      "name": "setFee",
      "outputs": [],
      "stateMutability": "nonpayable",
      "type": "function"
    },
    {
      "inputs": [
        {
          "internalType": "uint256",
          "name": "swapId",
          "type": "uint256"
        },
        {
          "components": [
            {
              "internalType": "uint256",
              "name": "swapId",
              "type": "uint256"
            },
            {
              "internalType": "uint256",
              "name": "nonce",
              "type": "uint256"
            },
            {
              "internalType": "address",
              "name": "signerWallet",
              "type": "address"
            },
            {
              "internalType": "uint256",
              "name": "sellAmount",
              "type": "uint256"
            },
            {
              "internalType": "uint256",
              "name": "buyAmount",
              "type": "uint256"
            },
            {
              "internalType": "address",
              "name": "referrer",
              "type": "address"
            },
            {
              "internalType": "uint8",
              "name": "v",
              "type": "uint8"
            },
            {
              "internalType": "bytes32",
              "name": "r",
              "type": "bytes32"
            },
            {
              "internalType": "bytes32",
              "name": "s",
              "type": "bytes32"
            }
          ],
          "internalType": "struct ISwap.Bid[]",
          "name": "bids",
          "type": "tuple[]"
        }
      ],
      "name": "settleOffer",
      "outputs": [],
      "stateMutability": "nonpayable",
      "type": "function"
    },
    {
      "inputs": [
        {
          "internalType": "uint256",
          "name": "",
          "type": "uint256"
        }
      ],
      "name": "swapOffers",
      "outputs": [
        {
          "internalType": "address",
          "name": "seller",
          "type": "address"
        },
        {
          "internalType": "address",
          "name": "oToken",
          "type": "address"
        },
        {
          "internalType": "uint96",
          "name": "minPrice",
          "type": "uint96"
        },
        {
          "internalType": "address",
          "name": "biddingToken",
          "type": "address"
        },
        {
          "internalType": "uint96",
          "name": "minBidSize",
          "type": "uint96"
        },
        {
          "internalType": "uint128",
          "name": "totalSize",
          "type": "uint128"
        },
        {
          "internalType": "uint128",
          "name": "availableSize",
          "type": "uint128"
        },
        {
          "internalType": "uint256",
          "name": "totalSales",
          "type": "uint256"
        }
      ],
      "stateMutability": "view",
      "type": "function"
    },
    {
      "inputs": [
        {
          "internalType": "address",
          "name": "newOwner",
          "type": "address"
        }
      ],
      "name": "transferOwnership",
      "outputs": [],
      "stateMutability": "nonpayable",
      "type": "function"
    }
  ],
  "transactionHash": "0xc954b04372f5b0e7308ab1499efe249bf96981a69e087f9a25551ad196f270b0",
  "args": [],
  "solcInputHash": "1c1741207ef84789351f5497e4d6801b",
  "bytecode": "0x60c0604052600060025534801561001557600080fd5b50600160005561002433610159565b60004660808190526040516c08a92a06e626488dedac2d2dc5609b1b60208201526b1cdd1c9a5b99c81b985b594b60a21b602d8201526e1cdd1c9a5b99c81d995c9cda5bdb8b608a1b60398201526f1d5a5b9d0c8d4d8818da185a5b92590b60821b60488201527f6164647265737320766572696679696e67436f6e7472616374000000000000006058820152602960f81b607182015290915060720160408051601f198184030181528282528051602091820120908301527fc6a23281a7a642025bdf45d090469ceeec8a143b5bad19e8f545d83149642b8b908201527fc89efdaa54c0f20c7adf612882df0950f5a951637e0307cdcb4c672f298b8bc66060820152608081018290523060a082015260c00160408051601f19818403018152919052805160209091012060a052506101ab565b600180546001600160a01b038381166001600160a01b0319831681179093556040519116919082907f8be0079c531659141344cd1fd0a4f28419497f9722a3daafe3b4186f6b6457e090600090a35050565b60805160a0516126186101de600039600081816101af0152611bcd0152600081816101d6015261173c01526126186000f3fe608060405234801561001057600080fd5b506004361061012c5760003560e01c8063715018a6116100ad578063acb8cc4911610071578063acb8cc4914610360578063d5172fcc14610387578063e55156b51461039a578063f2fde38b146103ad578063fbcac9e1146103c057600080fd5b8063715018a61461021c57806375780f4214610224578063796f077b146102445780638da5cb5b1461026b578063a13f1c621461028657600080fd5b80633644e515116100f45780633644e515146101aa578063416f281d146101d157806351bb9b1e146101f857806369fd925f146102005780636c1c56f11461020957600080fd5b806305477ddf1461013157806307a975a1146101465780631647795e1461016c57806320606b701461018f5780632787b5f814610197575b600080fd5b61014461013f366004612192565b6103e1565b005b61015961015436600461204e565b6104cf565b6040519081526020015b60405180910390f35b61017f61017a3660046120c1565b6107f4565b6040519015158152602001610163565b61015961084c565b6101596101a5366004612192565b6108f8565b6101597f000000000000000000000000000000000000000000000000000000000000000081565b6101597f000000000000000000000000000000000000000000000000000000000000000081565b6101596109cc565b61015960025481565b6101446102173660046120ea565b6109db565b610144610a66565b610159610232366004612034565b60046020526000908152604090205481565b6101597fc6a23281a7a642025bdf45d090469ceeec8a143b5bad19e8f545d83149642b8b81565b6001546040516001600160a01b039091168152602001610163565b610301610294366004612192565b6003602081905260009182526040909120805460018201546002830154938301546004909301546001600160a01b0392831694828416946001600160601b03600160a01b94859004811695831694909204909116916001600160801b0380831692600160801b9004169088565b604080516001600160a01b03998a16815297891660208901526001600160601b0396871690880152969093166060860152921660808401526001600160801b0391821660a08401521660c082015260e081019190915261010001610163565b6101597fc89efdaa54c0f20c7adf612882df0950f5a951637e0307cdcb4c672f298b8bc681565b6101446103953660046121c2565b610a9c565b6101446103a83660046120c1565b610d3b565b6101446103bb366004612034565b610e2a565b6103d36103ce36600461217a565b610ec5565b604051610163929190612399565b6000818152600360205260409020546001600160a01b031633146104615760405162461bcd60e51b815260206004820152602c60248201527f4f6e6c792073656c6c65722063616e20636c6f7365206f72206f66666572206460448201526b1bd95cdb89dd08195e1a5cdd60a21b60648201526084015b60405180910390fd5b600081815260036020818152604080842080546001600160a01b03191681556001810185905560028101859055928301849055600490920192909255518281527f7f501b3628443cc9556da1d5744140c295120a54f5aa01e220363dd568e84783910160405180910390a150565b60006001600160a01b0386166105315760405162461bcd60e51b815260206004820152602160248201527f6f546f6b656e2063616e6e6f7420626520746865207a65726f206164647265736044820152607360f81b6064820152608401610458565b6001600160a01b0385166105975760405162461bcd60e51b815260206004820152602760248201527f42696464696e67546f6b656e2063616e6e6f7420626520746865207a65726f206044820152666164647265737360c81b6064820152608401610458565b6000846001600160601b0316116105fa5760405162461bcd60e51b815260206004820152602160248201527f4d696e5072696365206d757374206265206c6172676572207468616e207a65726044820152606f60f81b6064820152608401610458565b6000836001600160601b03161161065f5760405162461bcd60e51b815260206004820152602360248201527f4d696e42696453697a65206d757374206265206c6172676572207468616e207a60448201526265726f60e81b6064820152608401610458565b816001600160801b0316836001600160601b031611156106c15760405162461bcd60e51b815260206004820152601d60248201527f4d696e42696453697a65206578636565647320746f74616c2073697a650000006044820152606401610458565b6001600260008282546106d491906123e6565b90915550506002805460008181526003602081905260409182902080546001600160a01b0319163390811782556001600160601b03808a16600160a01b9081026001600160a01b038e81169190911798850198909855908b1602958c1695909517600180830191909155600160801b6001600160801b038916908102179282019290925560040155519092507f61ed224de71f3815c67ff417a9cba223a61831d6223cfd50f3986f55cca81166916107e3918491908a908a908a908a908a909687526001600160a01b03958616602088015293851660408701529190931660608501526001600160601b03928316608085015290911660a08301526001600160801b031660c082015260e00190565b60405180910390a195945050505050565b600080610803610100846123fe565b90506000610813610100856125a2565b6001600160a01b038616600090815260056020908152604080832095835294905292909220546001921c82169091149150505b92915050565b6040516c08a92a06e626488dedac2d2dc5609b1b60208201526b1cdd1c9a5b99c81b985b594b60a21b602d8201526e1cdd1c9a5b99c81d995c9cda5bdb8b608a1b60398201526f1d5a5b9d0c8d4d8818da185a5b92590b60821b60488201527f6164647265737320766572696679696e67436f6e7472616374000000000000006058820152602960f81b60718201526072015b6040516020818303038152906040528051906020012081565b600081815260036020526040812080546001600160a01b03166109545760405162461bcd60e51b815260206004820152601460248201527313d999995c88191bd95cc81b9bdd08195e1a5cdd60621b6044820152606401610458565b6003810154600160801b90046001600160801b031660008161097757600061097a565b60015b600384015460ff91909116915061099b9083906001600160801b0316612544565b8184600401546109ab9190612544565b6109b9906305f5e1006124fd565b6109c391906123fe565b95945050505050565b6040516020016108df9061227a565b60005b81811015610a61576000838383818110610a0857634e487b7160e01b600052603260045260246000fd5b905060200201359050610a1b338261164e565b15610a4e57604051339082907f8dd3c361eb2366ff27c2db0eb07b9261f1d052570742ab8c9a0c326f37aa576d90600090a35b5080610a5981612587565b9150506109de565b505050565b6001546001600160a01b03163314610a905760405162461bcd60e51b815260040161045890612364565b610a9a60006116e7565b565b60026000541415610aef5760405162461bcd60e51b815260206004820152601f60248201527f5265656e7472616e637947756172643a207265656e7472616e742063616c6c006044820152606401610458565b6002600090815583815260036020526040902080546001600160a01b0316338114610b725760405162461bcd60e51b815260206004820152602d60248201527f4f6e6c792073656c6c65722063616e20736574746c65206f72206f666665722060448201526c191bd95cdb89dd08195e1a5cdd609a1b6064820152608401610458565b6003820154600160801b90046001600160801b0316610bc95760405162461bcd60e51b815260206004820152601360248201527213d999995c88199d5b1b1e481cd95d1d1b1959606a1b6044820152606401610458565b6040805160a0810182526001600160a01b038381168252600185015480821660208401526002860154918216938301939093526001600160601b03600160a01b93849004811660608401529290049091166080820152600090815b85811015610ca757610c5d8286898985818110610c5157634e487b7160e01b600052603260045260246000fd5b90506101200201611739565b868682818110610c7d57634e487b7160e01b600052603260045260246000fd5b905061012002016060013583610c9391906123e6565b925080610c9f81612587565b915050610c24565b506003840154600160801b90046001600160801b03161580610cca576000610ccd565b60015b610cda9060ff1684612544565b856004016000828254610ced91906123e6565b90915550508015610d2c576040518881527f1b5db04ed24662a962854839dba8e5b26c71e843c99221f770571a4ea3ecfdcd9060200160405180910390a15b50506001600055505050505050565b6001546001600160a01b03163314610d655760405162461bcd60e51b815260040161045890612364565b6001600160a01b038216610dc75760405162461bcd60e51b815260206004820152602360248201527f52656665727265722063616e6e6f7420626520746865207a65726f206164647260448201526265737360e81b6064820152608401610458565b6127108110610e0e5760405162461bcd60e51b81526020600482015260136024820152724665652065786365656473206d6178696d756d60681b6044820152606401610458565b6001600160a01b03909116600090815260046020526040902055565b6001546001600160a01b03163314610e545760405162461bcd60e51b815260040161045890612364565b6001600160a01b038116610eb95760405162461bcd60e51b815260206004820152602660248201527f4f776e61626c653a206e6577206f776e657220697320746865207a65726f206160448201526564647265737360d01b6064820152608401610458565b610ec2816116e7565b50565b8035600090815260036020818152604080842081516101008101835281546001600160a01b039081168083526001840154808316968401969096526001600160601b03600160a01b968790048116958401959095526002840154918216606084810191909152959091049093166080820152938101546001600160801b0380821660a0870152600160801b9091041660c08501526004015460e0840152909190610fa85760405162461bcd60e51b815260206004820152601460248201527313d999995c88191bd95cc81b9bdd08195e1a5cdd60621b6044820152606401610458565b60408051600a80825261016082019092526000916020820161014080368337019050509050600080610fd987611bc7565b90506001600160a01b038116611037577014d251d3905515549157d2539590531251607a1b83838151811061101e57634e487b7160e01b600052603260045260246000fd5b60209081029190910101528161103381612587565b9250505b6110476060880160408901612034565b6001600160a01b0316816001600160a01b0316146110b0577314d251d3905515549157d35254d3505510d2115160621b83838151811061109757634e487b7160e01b600052603260045260246000fd5b6020908102919091010152816110ac81612587565b9250505b6110be8188602001356107f4565b1561111257711393d390d157d053149150511657d554d15160721b8383815181106110f957634e487b7160e01b600052603260045260246000fd5b60209081029190910101528161110e81612587565b9250505b83608001516001600160601b031687608001351015611175576c10925117d513d3d7d4d3505313609a1b83838151811061115c57634e487b7160e01b600052603260045260246000fd5b60209081029190910101528161117181612587565b9250505b8360c001516001600160801b0316876080013511156111e457784249445f4558434545445f415641494c41424c455f53495a4560381b8383815181106111cb57634e487b7160e01b600052603260045260246000fd5b6020908102919091010152816111e081612587565b9250505b600060808801356111f76008600a612455565b6112059060608b01356124fd565b61120f91906123fe565b905084604001516001600160601b0316811015611270576c50524943455f544f4f5f4c4f5760981b84848151811061125757634e487b7160e01b600052603260045260246000fd5b60209081029190910101528261126c81612587565b9350505b600085606001516001600160a01b031663dd62ed3e8a60400160208101906112989190612034565b6040516001600160e01b031960e084901b1681526001600160a01b03909116600482015230602482015260440160206040518083038186803b1580156112dd57600080fd5b505afa1580156112f1573d6000803e3d6000fd5b505050506040513d601f19601f8201168201806040525081019061131591906121aa565b9050886060013581101561137457735349474e45525f414c4c4f57414e43455f4c4f5760601b85858151811061135b57634e487b7160e01b600052603260045260246000fd5b60209081029190910101528361137081612587565b9450505b600086606001516001600160a01b03166370a082318b604001602081019061139c9190612034565b6040516001600160e01b031960e084901b1681526001600160a01b03909116600482015260240160206040518083038186803b1580156113db57600080fd5b505afa1580156113ef573d6000803e3d6000fd5b505050506040513d601f19601f8201168201806040525081019061141391906121aa565b9050896060013581101561147057715349474e45525f42414c414e43455f4c4f5760701b86868151811061145757634e487b7160e01b600052603260045260246000fd5b60209081029190910101528461146c81612587565b9550505b60208701518751604051636eb1769f60e11b81526001600160a01b039182166004820152306024820152600092919091169063dd62ed3e9060440160206040518083038186803b1580156114c357600080fd5b505afa1580156114d7573d6000803e3d6000fd5b505050506040513d601f19601f820116820180604052508101906114fb91906121aa565b90508a6080013581101561155a577353454c4c45525f414c4c4f57414e43455f4c4f5760601b87878151811061154157634e487b7160e01b600052603260045260246000fd5b60209081029190910101528561155681612587565b9650505b602088015188516040516370a0823160e01b81526001600160a01b03918216600482015260009291909116906370a082319060240160206040518083038186803b1580156115a757600080fd5b505afa1580156115bb573d6000803e3d6000fd5b505050506040513d601f19601f820116820180604052508101906115df91906121aa565b90508b6080013581101561163c577153454c4c45525f42414c414e43455f4c4f5760701b88888151811061162357634e487b7160e01b600052603260045260246000fd5b60209081029190910101528661163881612587565b9750505b50949a95995094975050505050505050565b60008061165d610100846123fe565b9050600061166d610100856125a2565b6001600160a01b0386166000908152600560209081526040808320868452909152902054909150600181831c811614156116ad5760009350505050610846565b6001600160a01b03861660009081526005602090815260408083209583529490529290922060019182901b92909217909155905092915050565b600180546001600160a01b038381166001600160a01b0319831681179093556040519116919082907f8be0079c531659141344cd1fd0a4f28419497f9722a3daafe3b4186f6b6457e090600090a35050565b467f00000000000000000000000000000000000000000000000000000000000000001461179b5760405162461bcd60e51b815260206004820152601060248201526f10d210525397d25117d0d2105391d15160821b6044820152606401610458565b60006117a682611bc7565b90506001600160a01b0381166117f25760405162461bcd60e51b815260206004820152601160248201527014d251d3905515549157d2539590531251607a1b6044820152606401610458565b6118026060830160408401612034565b6001600160a01b0316816001600160a01b0316146118595760405162461bcd60e51b815260206004820152601460248201527314d251d3905515549157d35254d3505510d2115160621b6044820152606401610458565b61186781836020013561164e565b6118a85760405162461bcd60e51b81526020600482015260126024820152711393d390d157d053149150511657d554d15160721b6044820152606401610458565b6003830154600160801b90046001600160801b03166080830135111561190c5760405162461bcd60e51b81526020600482015260196024820152784249445f4558434545445f415641494c41424c455f53495a4560381b6044820152606401610458565b8360800151826080013510156119545760405162461bcd60e51b815260206004820152600d60248201526c10925117d513d3d7d4d3505313609a1b6044820152606401610458565b600060808301356119676008600a612455565b6119759060608601356124fd565b61197f91906123fe565b905084606001518110156119c55760405162461bcd60e51b815260206004820152600d60248201526c50524943455f544f4f5f4c4f5760981b6044820152606401610458565b82608001358460030160108282829054906101000a90046001600160801b03166119ef919061251c565b92506101000a8154816001600160801b0302191690836001600160801b03160217905550611a488560000151846040016020810190611a2e9190612034565b60208801516001600160a01b031691906080870135611d55565b600080611a5b60c0860160a08701612034565b6001600160a01b031614611af8576000600481611a7e60c0880160a08901612034565b6001600160a01b0316815260208101919091526040016000205490508015611af657612710611ab18260608801356124fd565b611abb91906123fe565b9150611af6611ad06060870160408801612034565b611ae060c0880160a08901612034565b60408a01516001600160a01b0316919085611d55565b505b611b31611b0b6060860160408701612034565b8751611b1b846060890135612544565b60408a01516001600160a01b0316929190611d55565b611b416060850160408601612034565b6001600160a01b031684357f71abc95ed6b8cb4d0cc5eee25c1212bea3ca594e723da5c9facf161f3f5b6bd5602087013560608801356080890135611b8c60c08b0160a08c01612034565b604080519485526020850193909352918301526001600160a01b031660608201526080810185905260a00160405180910390a3505050505050565b600060017f0000000000000000000000000000000000000000000000000000000000000000604051602001611bfb9061227a565b6040516020818303038152906040528051906020012084600001358560200135866040016020810190611c2e9190612034565b60608801356080890135611c4860c08b0160a08c01612034565b60408051602081019890985287019590955260608601939093526001600160a01b03918216608086015260a085015260c08401919091521660e08201526101000160405160208183030381529060405280519060200120604051602001611cc692919061190160f01b81526002810192909252602282015260420190565b60408051601f198184030181529190528051602090910120611cee60e0850160c0860161223d565b6040805160008152602081018083529390935260ff9091169082015260e08401356060820152610100840135608082015260a0016020604051602081039080840390855afa158015611d44573d6000803e3d6000fd5b5050604051601f1901519392505050565b604080516001600160a01b0385811660248301528416604482015260648082018490528251808303909101815260849091019091526020810180516001600160e01b03166323b872dd60e01b179052611daf908590611db5565b50505050565b6000611e0a826040518060400160405280602081526020017f5361666545524332303a206c6f772d6c6576656c2063616c6c206661696c6564815250856001600160a01b0316611e879092919063ffffffff16565b805190915015610a615780806020019051810190611e28919061215a565b610a615760405162461bcd60e51b815260206004820152602a60248201527f5361666545524332303a204552433230206f7065726174696f6e20646964206e6044820152691bdd081cdd58d8d9595960b21b6064820152608401610458565b6060611e968484600085611ea0565b90505b9392505050565b606082471015611f015760405162461bcd60e51b815260206004820152602660248201527f416464726573733a20696e73756666696369656e742062616c616e636520666f6044820152651c8818d85b1b60d21b6064820152608401610458565b843b611f4f5760405162461bcd60e51b815260206004820152601d60248201527f416464726573733a2063616c6c20746f206e6f6e2d636f6e74726163740000006044820152606401610458565b600080866001600160a01b03168587604051611f6b919061225e565b60006040518083038185875af1925050503d8060008114611fa8576040519150601f19603f3d011682016040523d82523d6000602084013e611fad565b606091505b5091509150611fbd828286611fc8565b979650505050505050565b60608315611fd7575081611e99565b825115611fe75782518084602001fd5b8160405162461bcd60e51b81526004016104589190612331565b80356001600160a01b038116811461201857600080fd5b919050565b80356001600160601b038116811461201857600080fd5b600060208284031215612045578081fd5b611e9982612001565b600080600080600060a08688031215612065578081fd5b61206e86612001565b945061207c60208701612001565b935061208a6040870161201d565b92506120986060870161201d565b915060808601356001600160801b03811681146120b3578182fd5b809150509295509295909350565b600080604083850312156120d3578182fd5b6120dc83612001565b946020939093013593505050565b600080602083850312156120fc578182fd5b823567ffffffffffffffff80821115612113578384fd5b818501915085601f830112612126578384fd5b813581811115612134578485fd5b8660208260051b8501011115612148578485fd5b60209290920196919550909350505050565b60006020828403121561216b578081fd5b81518015158114611e99578182fd5b6000610120828403121561218c578081fd5b50919050565b6000602082840312156121a3578081fd5b5035919050565b6000602082840312156121bb578081fd5b5051919050565b6000806000604084860312156121d6578283fd5b83359250602084013567ffffffffffffffff808211156121f4578384fd5b818601915086601f830112612207578384fd5b813581811115612215578485fd5b8760206101208302850101111561222a578485fd5b6020830194508093505050509250925092565b60006020828403121561224e578081fd5b813560ff81168114611e99578182fd5b6000825161227081846020870161255b565b9190910192915050565b63084d2c8560e31b81526e1d5a5b9d0c8d4d881cddd85c12590b608a1b60048201526d1d5a5b9d0c8d4d881b9bdb98d94b60921b6013820152741859191c995cdcc81cda59db995c95d85b1b195d0b605a1b6021820152721d5a5b9d0c8d4d881cd95b1b105b5bdd5b9d0b606a1b6036820152711d5a5b9d0c8d4d88189d5e505b5bdd5b9d0b60721b60498201526f30b2323932b9b9903932b332b93932b960811b605b820152602960f81b606b820152606c0190565b602081526000825180602084015261235081604085016020870161255b565b601f01601f19169190910160400192915050565b6020808252818101527f4f776e61626c653a2063616c6c6572206973206e6f7420746865206f776e6572604082015260600190565b60006040820184835260206040818501528185518084526060860191508287019350845b818110156123d9578451835293830193918301916001016123bd565b5090979650505050505050565b600082198211156123f9576123f96125b6565b500190565b60008261240d5761240d6125cc565b500490565b600181815b8085111561244d578160001904821115612433576124336125b6565b8085161561244057918102915b93841c9390800290612417565b509250929050565b6000611e99838360008261246b57506001610846565b8161247857506000610846565b816001811461248e5760028114612498576124b4565b6001915050610846565b60ff8411156124a9576124a96125b6565b50506001821b610846565b5060208310610133831016604e8410600b84101617156124d7575081810a610846565b6124e18383612412565b80600019048211156124f5576124f56125b6565b029392505050565b6000816000190483118215151615612517576125176125b6565b500290565b60006001600160801b038381169083168181101561253c5761253c6125b6565b039392505050565b600082821015612556576125566125b6565b500390565b60005b8381101561257657818101518382015260200161255e565b83811115611daf5750506000910152565b600060001982141561259b5761259b6125b6565b5060010190565b6000826125b1576125b16125cc565b500690565b634e487b7160e01b600052601160045260246000fd5b634e487b7160e01b600052601260045260246000fdfea2646970667358221220903f833e28f0b713a9ca5df381f0bfff7250201699dec3a4d4d65055bdeb125164736f6c63430008040033",
  "devdoc": {
    "kind": "dev",
    "methods": {
      "averagePriceForOffer(uint256)": {
        "params": {
          "swapId": "unique identifier of the swap offer"
        }
      },
      "cancelNonce(uint256[])": {
        "details": "Cancelled nonces are marked as usedEmits a Cancel eventOut of gas may occur in arrays of length > 400",
        "params": {
          "nonces": "uint256[] List of nonces to cancel"
        }
      },
      "check((uint256,uint256,address,uint256,uint256,address,uint8,bytes32,bytes32))": {
        "params": {
          "bid": "Bid struct containing bid details"
        },
        "returns": {
          "_0": "tuple of error count and bytes32[] memory array of error messages"
        }
      },
      "closeOffer(uint256)": {
        "params": {
          "swapId": "unique identifier of the swap offer"
        }
      },
      "createOffer(address,address,uint96,uint96,uint128)": {
        "params": {
          "biddingToken": "token asked by seller",
          "minBidSize": "minimum amount of oToken requested in a single bid",
          "minPrice": "minimum price of oToken denominated in biddingToken",
          "oToken": "token offered by seller",
          "totalSize": "amount of oToken offered by seller"
        }
      },
      "nonceUsed(address,uint256)": {
        "params": {
          "nonce": "uint256 Nonce being checked",
          "signer": "address Address of the signer"
        }
      },
      "owner()": {
        "details": "Returns the address of the current owner."
      },
      "renounceOwnership()": {
        "details": "Leaves the contract without owner. It will not be possible to call `onlyOwner` functions anymore. Can only be called by the current owner. NOTE: Renouncing ownership will leave the contract without an owner, thereby removing any functionality that is only available to the owner."
      },
      "setFee(address,uint256)": {
        "params": {
          "fee": "is the fee in percent in 2 decimals",
          "referrer": "is the address of the referrer"
        }
      },
      "settleOffer(uint256,(uint256,uint256,address,uint256,uint256,address,uint8,bytes32,bytes32)[])": {
        "params": {
          "bids": "bids for swaps",
          "swapId": "unique identifier of the swap offer"
        }
      },
      "transferOwnership(address)": {
        "details": "Transfers ownership of the contract to a new account (`newOwner`). Can only be called by the current owner."
      }
    },
    "stateVariables": {
      "_nonceGroups": {
        "details": "The nonce group is computed as nonce / 256, so each group of 256 sequential nonces uses the same keyThe nonce states are encoded as 256 bits, for each nonce in the group 0 means available and 1 means used"
      }
    },
    "version": 1
  },
  "userdoc": {
    "kind": "user",
    "methods": {
      "averagePriceForOffer(uint256)": {
        "notice": "Returns the average settlement price for a swap offer"
      },
      "cancelNonce(uint256[])": {
        "notice": "Cancel one or more nonces"
      },
      "check((uint256,uint256,address,uint256,uint256,address,uint8,bytes32,bytes32))": {
        "notice": "Validates Swap bid for any potential errors"
      },
      "closeOffer(uint256)": {
        "notice": "Close offer"
      },
      "createOffer(address,address,uint96,uint96,uint128)": {
        "notice": "Create a new offer available for swap"
      },
      "nonceUsed(address,uint256)": {
        "notice": "Returns true if the nonce has been used"
      },
      "setFee(address,uint256)": {
        "notice": "Sets the referral fee for a specific referrer"
      },
      "settleOffer(uint256,(uint256,uint256,address,uint256,uint256,address,uint8,bytes32,bytes32)[])": {
        "notice": "Settles the swap offering by iterating through the bids"
      }
    },
    "version": 1
  },
  "storageLayout": {
    "storage": [
      {
        "astId": 1109,
        "contract": "contracts/utils/Swap.sol:Swap",
        "label": "_status",
        "offset": 0,
        "slot": "0",
        "type": "t_uint256"
      },
      {
        "astId": 1002,
        "contract": "contracts/utils/Swap.sol:Swap",
        "label": "_owner",
        "offset": 0,
        "slot": "1",
        "type": "t_address"
      },
      {
        "astId": 12842,
        "contract": "contracts/utils/Swap.sol:Swap",
        "label": "offersCounter",
        "offset": 0,
        "slot": "2",
        "type": "t_uint256"
      },
      {
        "astId": 12847,
        "contract": "contracts/utils/Swap.sol:Swap",
        "label": "swapOffers",
        "offset": 0,
        "slot": "3",
        "type": "t_mapping(t_uint256,t_struct(Offer)3560_storage)"
      },
      {
        "astId": 12851,
        "contract": "contracts/utils/Swap.sol:Swap",
        "label": "referralFees",
        "offset": 0,
        "slot": "4",
        "type": "t_mapping(t_address,t_uint256)"
      },
      {
        "astId": 12858,
        "contract": "contracts/utils/Swap.sol:Swap",
        "label": "_nonceGroups",
        "offset": 0,
        "slot": "5",
        "type": "t_mapping(t_address,t_mapping(t_uint256,t_uint256))"
      }
    ],
    "types": {
      "t_address": {
        "encoding": "inplace",
        "label": "address",
        "numberOfBytes": "20"
      },
      "t_mapping(t_address,t_mapping(t_uint256,t_uint256))": {
        "encoding": "mapping",
        "key": "t_address",
        "label": "mapping(address => mapping(uint256 => uint256))",
        "numberOfBytes": "32",
        "value": "t_mapping(t_uint256,t_uint256)"
      },
      "t_mapping(t_address,t_uint256)": {
        "encoding": "mapping",
        "key": "t_address",
        "label": "mapping(address => uint256)",
        "numberOfBytes": "32",
        "value": "t_uint256"
      },
      "t_mapping(t_uint256,t_struct(Offer)3560_storage)": {
        "encoding": "mapping",
        "key": "t_uint256",
        "label": "mapping(uint256 => struct ISwap.Offer)",
        "numberOfBytes": "32",
        "value": "t_struct(Offer)3560_storage"
      },
      "t_mapping(t_uint256,t_uint256)": {
        "encoding": "mapping",
        "key": "t_uint256",
        "label": "mapping(uint256 => uint256)",
        "numberOfBytes": "32",
        "value": "t_uint256"
      },
      "t_struct(Offer)3560_storage": {
        "encoding": "inplace",
        "label": "struct ISwap.Offer",
        "members": [
          {
            "astId": 3545,
            "contract": "contracts/utils/Swap.sol:Swap",
            "label": "seller",
            "offset": 0,
            "slot": "0",
            "type": "t_address"
          },
          {
            "astId": 3547,
            "contract": "contracts/utils/Swap.sol:Swap",
            "label": "oToken",
            "offset": 0,
            "slot": "1",
            "type": "t_address"
          },
          {
            "astId": 3549,
            "contract": "contracts/utils/Swap.sol:Swap",
            "label": "minPrice",
            "offset": 20,
            "slot": "1",
            "type": "t_uint96"
          },
          {
            "astId": 3551,
            "contract": "contracts/utils/Swap.sol:Swap",
            "label": "biddingToken",
            "offset": 0,
            "slot": "2",
            "type": "t_address"
          },
          {
            "astId": 3553,
            "contract": "contracts/utils/Swap.sol:Swap",
            "label": "minBidSize",
            "offset": 20,
            "slot": "2",
            "type": "t_uint96"
          },
          {
            "astId": 3555,
            "contract": "contracts/utils/Swap.sol:Swap",
            "label": "totalSize",
            "offset": 0,
            "slot": "3",
            "type": "t_uint128"
          },
          {
            "astId": 3557,
            "contract": "contracts/utils/Swap.sol:Swap",
            "label": "availableSize",
            "offset": 16,
            "slot": "3",
            "type": "t_uint128"
          },
          {
            "astId": 3559,
            "contract": "contracts/utils/Swap.sol:Swap",
            "label": "totalSales",
            "offset": 0,
            "slot": "4",
            "type": "t_uint256"
          }
        ],
        "numberOfBytes": "160"
      },
      "t_uint128": {
        "encoding": "inplace",
        "label": "uint128",
        "numberOfBytes": "16"
      },
      "t_uint256": {
        "encoding": "inplace",
        "label": "uint256",
        "numberOfBytes": "32"
      },
      "t_uint96": {
        "encoding": "inplace",
        "label": "uint96",
        "numberOfBytes": "12"
      }
    }
  }
}